{
	"contracts/GiftCardETH.sol": {
		"GiftCardETH": {
			"abi": [
				{
					"inputs": [],
					"stateMutability": "nonpayable",
					"type": "constructor"
				},
				{
					"anonymous": false,
					"inputs": [
						{
							"indexed": false,
							"internalType": "string",
							"name": "code",
							"type": "string"
						},
						{
							"indexed": false,
							"internalType": "uint256",
							"name": "amount",
							"type": "uint256"
						}
					],
					"name": "CardBought",
					"type": "event"
				},
				{
					"anonymous": false,
					"inputs": [
						{
							"indexed": false,
							"internalType": "uint256",
							"name": "amount",
							"type": "uint256"
						}
					],
					"name": "CardRedeemed",
					"type": "event"
				},
				{
					"stateMutability": "payable",
					"type": "fallback"
				},
				{
					"inputs": [],
					"name": "buyGiftCard",
					"outputs": [],
					"stateMutability": "payable",
					"type": "function"
				},
				{
					"inputs": [],
					"name": "getAllGiftCards",
					"outputs": [
						{
							"components": [
								{
									"internalType": "string",
									"name": "buyer",
									"type": "string"
								},
								{
									"internalType": "uint256",
									"name": "amount",
									"type": "uint256"
								},
								{
									"internalType": "enum GiftCardStatus",
									"name": "giftCardStatus",
									"type": "uint8"
								},
								{
									"internalType": "string",
									"name": "getter",
									"type": "string"
								}
							],
							"internalType": "struct GiftCard[]",
							"name": "giftcards",
							"type": "tuple[]"
						}
					],
					"stateMutability": "view",
					"type": "function"
				},
				{
					"inputs": [
						{
							"internalType": "enum GiftCardStatus",
							"name": "status",
							"type": "uint8"
						}
					],
					"name": "getGiftCardByStatus",
					"outputs": [
						{
							"components": [
								{
									"internalType": "string",
									"name": "buyer",
									"type": "string"
								},
								{
									"internalType": "uint256",
									"name": "amount",
									"type": "uint256"
								},
								{
									"internalType": "enum GiftCardStatus",
									"name": "giftCardStatus",
									"type": "uint8"
								},
								{
									"internalType": "string",
									"name": "getter",
									"type": "string"
								}
							],
							"internalType": "struct GiftCard[]",
							"name": "giftcards",
							"type": "tuple[]"
						}
					],
					"stateMutability": "view",
					"type": "function"
				},
				{
					"inputs": [],
					"name": "getMyCard",
					"outputs": [
						{
							"components": [
								{
									"internalType": "string",
									"name": "buyer",
									"type": "string"
								},
								{
									"internalType": "uint256",
									"name": "amount",
									"type": "uint256"
								},
								{
									"internalType": "enum GiftCardStatus",
									"name": "giftCardStatus",
									"type": "uint8"
								},
								{
									"internalType": "string",
									"name": "getter",
									"type": "string"
								}
							],
							"internalType": "struct GiftCard[]",
							"name": "",
							"type": "tuple[]"
						}
					],
					"stateMutability": "view",
					"type": "function"
				},
				{
					"inputs": [],
					"name": "getMyData",
					"outputs": [
						{
							"components": [
								{
									"internalType": "string",
									"name": "name",
									"type": "string"
								},
								{
									"internalType": "enum Gender",
									"name": "gender",
									"type": "uint8"
								},
								{
									"internalType": "enum UserType",
									"name": "userType",
									"type": "uint8"
								}
							],
							"internalType": "struct User",
							"name": "",
							"type": "tuple"
						}
					],
					"stateMutability": "view",
					"type": "function"
				},
				{
					"inputs": [],
					"name": "isAdmin",
					"outputs": [
						{
							"internalType": "bool",
							"name": "",
							"type": "bool"
						}
					],
					"stateMutability": "view",
					"type": "function"
				},
				{
					"inputs": [
						{
							"internalType": "string",
							"name": "_code",
							"type": "string"
						}
					],
					"name": "redeemCard",
					"outputs": [],
					"stateMutability": "nonpayable",
					"type": "function"
				},
				{
					"inputs": [
						{
							"internalType": "string",
							"name": "name",
							"type": "string"
						},
						{
							"internalType": "enum Gender",
							"name": "gender",
							"type": "uint8"
						}
					],
					"name": "registration",
					"outputs": [],
					"stateMutability": "nonpayable",
					"type": "function"
				},
				{
					"stateMutability": "payable",
					"type": "receive"
				}
			],
			"devdoc": {
				"kind": "dev",
				"methods": {},
				"version": 1
			},
			"evm": {
				"assembly": "    /* \"contracts/GiftCardETH.sol\":368:6948  contract GiftCardETH {... */\n  mstore(0x40, 0x80)\n    /* \"contracts/GiftCardETH.sol\":557:1038  constructor() {... */\n  callvalue\n  dup1\n  iszero\n  tag_1\n  jumpi\n  0x00\n  dup1\n  revert\ntag_1:\n  pop\n    /* \"contracts/GiftCardETH.sol\":633:731  User(... */\n  mload(0x40)\n  dup1\n  0x60\n  add\n  0x40\n  mstore\n  dup1\n  mload(0x40)\n  dup1\n  0x40\n  add\n  0x40\n  mstore\n  dup1\n  0x0f\n  dup2\n  mstore\n  0x20\n  add\n  0x4962726168696d204d6f68616d65640000000000000000000000000000000000\n  dup2\n  mstore\n  pop\n  dup2\n  mstore\n  0x20\n  add\n    /* \"contracts/GiftCardETH.sol\":682:693  Gender.MALE */\n  0x01\n    /* \"contracts/GiftCardETH.sol\":633:731  User(... */\n  dup1\n  dup2\n  gt\n  iszero\n  tag_4\n  jumpi\n  tag_5\n  tag_6\n  jump\t// in\ntag_5:\ntag_4:\n  dup2\n  mstore\n  0x20\n  add\n    /* \"contracts/GiftCardETH.sol\":707:721  UserType.ADMIN */\n  0x01\n    /* \"contracts/GiftCardETH.sol\":633:731  User(... */\n  dup1\n  dup2\n  gt\n  iszero\n  tag_7\n  jumpi\n  tag_8\n  tag_6\n  jump\t// in\ntag_8:\ntag_7:\n  dup2\n  mstore\n  pop\n    /* \"contracts/GiftCardETH.sol\":581:586  users */\n  0x00\n    /* \"contracts/GiftCardETH.sol\":581:630  users[0x8dC03105bA1A429fc962EbE37766B8601D70e0D6] */\n  dup1\n    /* \"contracts/GiftCardETH.sol\":587:629  0x8dC03105bA1A429fc962EbE37766B8601D70e0D6 */\n  0x8dc03105ba1a429fc962ebe37766b8601d70e0d6\n    /* \"contracts/GiftCardETH.sol\":581:630  users[0x8dC03105bA1A429fc962EbE37766B8601D70e0D6] */\n  0xffffffffffffffffffffffffffffffffffffffff\n  and\n  0xffffffffffffffffffffffffffffffffffffffff\n  and\n  dup2\n  mstore\n  0x20\n  add\n  swap1\n  dup2\n  mstore\n  0x20\n  add\n  0x00\n  keccak256\n    /* \"contracts/GiftCardETH.sol\":581:731  users[0x8dC03105bA1A429fc962EbE37766B8601D70e0D6] = User(... */\n  0x00\n  dup3\n  add\n  mload\n  dup2\n  0x00\n  add\n  swap1\n  dup2\n  tag_9\n  swap2\n  swap1\n  tag_10\n  jump\t// in\ntag_9:\n  pop\n  0x20\n  dup3\n  add\n  mload\n  dup2\n  0x01\n  add\n  exp(0x0100, 0x00)\n  dup2\n  sload\n  dup2\n  0xff\n  mul\n  not\n  and\n  swap1\n  dup4\n  0x01\n  dup2\n  gt\n  iszero\n  tag_11\n  jumpi\n  tag_12\n  tag_6\n  jump\t// in\ntag_12:\ntag_11:\n  mul\n  or\n  swap1\n  sstore\n  pop\n  0x40\n  dup3\n  add\n  mload\n  dup2\n  0x01\n  add\n  exp(0x0100, 0x01)\n  dup2\n  sload\n  dup2\n  0xff\n  mul\n  not\n  and\n  swap1\n  dup4\n  0x01\n  dup2\n  gt\n  iszero\n  tag_13\n  jumpi\n  tag_14\n  tag_6\n  jump\t// in\ntag_14:\ntag_13:\n  mul\n  or\n  swap1\n  sstore\n  pop\n  swap1\n  pop\n  pop\n    /* \"contracts/GiftCardETH.sol\":741:754  userAddresses */\n  0x04\n    /* \"contracts/GiftCardETH.sol\":760:802  0x8dC03105bA1A429fc962EbE37766B8601D70e0D6 */\n  0x8dc03105ba1a429fc962ebe37766b8601d70e0d6\n    /* \"contracts/GiftCardETH.sol\":741:803  userAddresses.push(0x8dC03105bA1A429fc962EbE37766B8601D70e0D6) */\n  swap1\n  dup1\n  0x01\n  dup2\n  sload\n  add\n  dup1\n  dup3\n  sstore\n  dup1\n  swap2\n  pop\n  pop\n  0x01\n  swap1\n  sub\n  swap1\n  0x00\n  mstore\n  keccak256(0x00, 0x20)\n  add\n  0x00\n  swap1\n  swap2\n  swap1\n  swap2\n  swap1\n  swap2\n  0x0100\n  exp\n  dup2\n  sload\n  dup2\n  0xffffffffffffffffffffffffffffffffffffffff\n  mul\n  not\n  and\n  swap1\n  dup4\n  0xffffffffffffffffffffffffffffffffffffffff\n  and\n  mul\n  or\n  swap1\n  sstore\n  pop\n    /* \"contracts/GiftCardETH.sol\":865:959  User(... */\n  mload(0x40)\n  dup1\n  0x60\n  add\n  0x40\n  mstore\n  dup1\n  mload(0x40)\n  dup1\n  0x40\n  add\n  0x40\n  mstore\n  dup1\n  0x0b\n  dup2\n  mstore\n  0x20\n  add\n  0x4f62616461205361667761000000000000000000000000000000000000000000\n  dup2\n  mstore\n  pop\n  dup2\n  mstore\n  0x20\n  add\n    /* \"contracts/GiftCardETH.sol\":910:921  Gender.MALE */\n  0x01\n    /* \"contracts/GiftCardETH.sol\":865:959  User(... */\n  dup1\n  dup2\n  gt\n  iszero\n  tag_16\n  jumpi\n  tag_17\n  tag_6\n  jump\t// in\ntag_17:\ntag_16:\n  dup2\n  mstore\n  0x20\n  add\n    /* \"contracts/GiftCardETH.sol\":935:949  UserType.ADMIN */\n  0x01\n    /* \"contracts/GiftCardETH.sol\":865:959  User(... */\n  dup1\n  dup2\n  gt\n  iszero\n  tag_18\n  jumpi\n  tag_19\n  tag_6\n  jump\t// in\ntag_19:\ntag_18:\n  dup2\n  mstore\n  pop\n    /* \"contracts/GiftCardETH.sol\":813:818  users */\n  0x00\n    /* \"contracts/GiftCardETH.sol\":813:862  users[0xAd009219D5052664e665c2A95f12e4aBeA6730C0] */\n  dup1\n    /* \"contracts/GiftCardETH.sol\":819:861  0xAd009219D5052664e665c2A95f12e4aBeA6730C0 */\n  0xad009219d5052664e665c2a95f12e4abea6730c0\n    /* \"contracts/GiftCardETH.sol\":813:862  users[0xAd009219D5052664e665c2A95f12e4aBeA6730C0] */\n  0xffffffffffffffffffffffffffffffffffffffff\n  and\n  0xffffffffffffffffffffffffffffffffffffffff\n  and\n  dup2\n  mstore\n  0x20\n  add\n  swap1\n  dup2\n  mstore\n  0x20\n  add\n  0x00\n  keccak256\n    /* \"contracts/GiftCardETH.sol\":813:959  users[0xAd009219D5052664e665c2A95f12e4aBeA6730C0] = User(... */\n  0x00\n  dup3\n  add\n  mload\n  dup2\n  0x00\n  add\n  swap1\n  dup2\n  tag_20\n  swap2\n  swap1\n  tag_10\n  jump\t// in\ntag_20:\n  pop\n  0x20\n  dup3\n  add\n  mload\n  dup2\n  0x01\n  add\n  exp(0x0100, 0x00)\n  dup2\n  sload\n  dup2\n  0xff\n  mul\n  not\n  and\n  swap1\n  dup4\n  0x01\n  dup2\n  gt\n  iszero\n  tag_21\n  jumpi\n  tag_22\n  tag_6\n  jump\t// in\ntag_22:\ntag_21:\n  mul\n  or\n  swap1\n  sstore\n  pop\n  0x40\n  dup3\n  add\n  mload\n  dup2\n  0x01\n  add\n  exp(0x0100, 0x01)\n  dup2\n  sload\n  dup2\n  0xff\n  mul\n  not\n  and\n  swap1\n  dup4\n  0x01\n  dup2\n  gt\n  iszero\n  tag_23\n  jumpi\n  tag_24\n  tag_6\n  jump\t// in\ntag_24:\ntag_23:\n  mul\n  or\n  swap1\n  sstore\n  pop\n  swap1\n  pop\n  pop\n    /* \"contracts/GiftCardETH.sol\":969:982  userAddresses */\n  0x04\n    /* \"contracts/GiftCardETH.sol\":988:1030  0xAd009219D5052664e665c2A95f12e4aBeA6730C0 */\n  0xad009219d5052664e665c2a95f12e4abea6730c0\n    /* \"contracts/GiftCardETH.sol\":969:1031  userAddresses.push(0xAd009219D5052664e665c2A95f12e4aBeA6730C0) */\n  swap1\n  dup1\n  0x01\n  dup2\n  sload\n  add\n  dup1\n  dup3\n  sstore\n  dup1\n  swap2\n  pop\n  pop\n  0x01\n  swap1\n  sub\n  swap1\n  0x00\n  mstore\n  keccak256(0x00, 0x20)\n  add\n  0x00\n  swap1\n  swap2\n  swap1\n  swap2\n  swap1\n  swap2\n  0x0100\n  exp\n  dup2\n  sload\n  dup2\n  0xffffffffffffffffffffffffffffffffffffffff\n  mul\n  not\n  and\n  swap1\n  dup4\n  0xffffffffffffffffffffffffffffffffffffffff\n  and\n  mul\n  or\n  swap1\n  sstore\n  pop\n    /* \"contracts/GiftCardETH.sol\":368:6948  contract GiftCardETH {... */\n  jump(tag_26)\n    /* \"#utility.yul\":7:187   */\ntag_6:\n    /* \"#utility.yul\":55:132   */\n  0x4e487b7100000000000000000000000000000000000000000000000000000000\n    /* \"#utility.yul\":52:53   */\n  0x00\n    /* \"#utility.yul\":45:133   */\n  mstore\n    /* \"#utility.yul\":152:156   */\n  0x21\n    /* \"#utility.yul\":149:150   */\n  0x04\n    /* \"#utility.yul\":142:157   */\n  mstore\n    /* \"#utility.yul\":176:180   */\n  0x24\n    /* \"#utility.yul\":173:174   */\n  0x00\n    /* \"#utility.yul\":166:181   */\n  revert\n    /* \"#utility.yul\":193:292   */\ntag_27:\n    /* \"#utility.yul\":245:251   */\n  0x00\n    /* \"#utility.yul\":279:284   */\n  dup2\n    /* \"#utility.yul\":273:285   */\n  mload\n    /* \"#utility.yul\":263:285   */\n  swap1\n  pop\n    /* \"#utility.yul\":193:292   */\n  swap2\n  swap1\n  pop\n  jump\t// out\n    /* \"#utility.yul\":298:478   */\ntag_28:\n    /* \"#utility.yul\":346:423   */\n  0x4e487b7100000000000000000000000000000000000000000000000000000000\n    /* \"#utility.yul\":343:344   */\n  0x00\n    /* \"#utility.yul\":336:424   */\n  mstore\n    /* \"#utility.yul\":443:447   */\n  0x41\n    /* \"#utility.yul\":440:441   */\n  0x04\n    /* \"#utility.yul\":433:448   */\n  mstore\n    /* \"#utility.yul\":467:471   */\n  0x24\n    /* \"#utility.yul\":464:465   */\n  0x00\n    /* \"#utility.yul\":457:472   */\n  revert\n    /* \"#utility.yul\":484:664   */\ntag_29:\n    /* \"#utility.yul\":532:609   */\n  0x4e487b7100000000000000000000000000000000000000000000000000000000\n    /* \"#utility.yul\":529:530   */\n  0x00\n    /* \"#utility.yul\":522:610   */\n  mstore\n    /* \"#utility.yul\":629:633   */\n  0x22\n    /* \"#utility.yul\":626:627   */\n  0x04\n    /* \"#utility.yul\":619:634   */\n  mstore\n    /* \"#utility.yul\":653:657   */\n  0x24\n    /* \"#utility.yul\":650:651   */\n  0x00\n    /* \"#utility.yul\":643:658   */\n  revert\n    /* \"#utility.yul\":670:990   */\ntag_30:\n    /* \"#utility.yul\":714:720   */\n  0x00\n    /* \"#utility.yul\":751:752   */\n  0x02\n    /* \"#utility.yul\":745:749   */\n  dup3\n    /* \"#utility.yul\":741:753   */\n  div\n    /* \"#utility.yul\":731:753   */\n  swap1\n  pop\n    /* \"#utility.yul\":798:799   */\n  0x01\n    /* \"#utility.yul\":792:796   */\n  dup3\n    /* \"#utility.yul\":788:800   */\n  and\n    /* \"#utility.yul\":819:837   */\n  dup1\n    /* \"#utility.yul\":809:890   */\n  tag_53\n  jumpi\n    /* \"#utility.yul\":875:879   */\n  0x7f\n    /* \"#utility.yul\":867:873   */\n  dup3\n    /* \"#utility.yul\":863:880   */\n  and\n    /* \"#utility.yul\":853:880   */\n  swap2\n  pop\n    /* \"#utility.yul\":809:890   */\ntag_53:\n    /* \"#utility.yul\":937:939   */\n  0x20\n    /* \"#utility.yul\":929:935   */\n  dup3\n    /* \"#utility.yul\":926:940   */\n  lt\n    /* \"#utility.yul\":906:924   */\n  dup2\n    /* \"#utility.yul\":903:941   */\n  sub\n    /* \"#utility.yul\":900:984   */\n  tag_54\n  jumpi\n    /* \"#utility.yul\":956:974   */\n  tag_55\n  tag_29\n  jump\t// in\ntag_55:\n    /* \"#utility.yul\":900:984   */\ntag_54:\n    /* \"#utility.yul\":721:990   */\n  pop\n    /* \"#utility.yul\":670:990   */\n  swap2\n  swap1\n  pop\n  jump\t// out\n    /* \"#utility.yul\":996:1137   */\ntag_31:\n    /* \"#utility.yul\":1045:1049   */\n  0x00\n    /* \"#utility.yul\":1068:1071   */\n  dup2\n    /* \"#utility.yul\":1060:1071   */\n  swap1\n  pop\n    /* \"#utility.yul\":1091:1094   */\n  dup2\n    /* \"#utility.yul\":1088:1089   */\n  0x00\n    /* \"#utility.yul\":1081:1095   */\n  mstore\n    /* \"#utility.yul\":1125:1129   */\n  0x20\n    /* \"#utility.yul\":1122:1123   */\n  0x00\n    /* \"#utility.yul\":1112:1130   */\n  keccak256\n    /* \"#utility.yul\":1104:1130   */\n  swap1\n  pop\n    /* \"#utility.yul\":996:1137   */\n  swap2\n  swap1\n  pop\n  jump\t// out\n    /* \"#utility.yul\":1143:1236   */\ntag_32:\n    /* \"#utility.yul\":1180:1186   */\n  0x00\n    /* \"#utility.yul\":1227:1229   */\n  0x20\n    /* \"#utility.yul\":1222:1224   */\n  0x1f\n    /* \"#utility.yul\":1215:1220   */\n  dup4\n    /* \"#utility.yul\":1211:1225   */\n  add\n    /* \"#utility.yul\":1207:1230   */\n  div\n    /* \"#utility.yul\":1197:1230   */\n  swap1\n  pop\n    /* \"#utility.yul\":1143:1236   */\n  swap2\n  swap1\n  pop\n  jump\t// out\n    /* \"#utility.yul\":1242:1349   */\ntag_33:\n    /* \"#utility.yul\":1286:1294   */\n  0x00\n    /* \"#utility.yul\":1336:1341   */\n  dup3\n    /* \"#utility.yul\":1330:1334   */\n  dup3\n    /* \"#utility.yul\":1326:1342   */\n  shl\n    /* \"#utility.yul\":1305:1342   */\n  swap1\n  pop\n    /* \"#utility.yul\":1242:1349   */\n  swap3\n  swap2\n  pop\n  pop\n  jump\t// out\n    /* \"#utility.yul\":1355:1748   */\ntag_34:\n    /* \"#utility.yul\":1424:1430   */\n  0x00\n    /* \"#utility.yul\":1474:1475   */\n  0x08\n    /* \"#utility.yul\":1462:1472   */\n  dup4\n    /* \"#utility.yul\":1458:1476   */\n  mul\n    /* \"#utility.yul\":1497:1594   */\n  tag_60\n    /* \"#utility.yul\":1527:1593   */\n  0xffffffffffffffffffffffffffffffffffffffffffffffffffffffffffffffff\n    /* \"#utility.yul\":1516:1525   */\n  dup3\n    /* \"#utility.yul\":1497:1594   */\n  tag_33\n  jump\t// in\ntag_60:\n    /* \"#utility.yul\":1615:1654   */\n  tag_61\n    /* \"#utility.yul\":1645:1653   */\n  dup7\n    /* \"#utility.yul\":1634:1643   */\n  dup4\n    /* \"#utility.yul\":1615:1654   */\n  tag_33\n  jump\t// in\ntag_61:\n    /* \"#utility.yul\":1603:1654   */\n  swap6\n  pop\n    /* \"#utility.yul\":1687:1691   */\n  dup1\n    /* \"#utility.yul\":1683:1692   */\n  not\n    /* \"#utility.yul\":1676:1681   */\n  dup5\n    /* \"#utility.yul\":1672:1693   */\n  and\n    /* \"#utility.yul\":1663:1693   */\n  swap4\n  pop\n    /* \"#utility.yul\":1736:1740   */\n  dup1\n    /* \"#utility.yul\":1726:1734   */\n  dup7\n    /* \"#utility.yul\":1722:1741   */\n  and\n    /* \"#utility.yul\":1715:1720   */\n  dup5\n    /* \"#utility.yul\":1712:1742   */\n  or\n    /* \"#utility.yul\":1702:1742   */\n  swap3\n  pop\n    /* \"#utility.yul\":1431:1748   */\n  pop\n  pop\n    /* \"#utility.yul\":1355:1748   */\n  swap4\n  swap3\n  pop\n  pop\n  pop\n  jump\t// out\n    /* \"#utility.yul\":1754:1831   */\ntag_35:\n    /* \"#utility.yul\":1791:1798   */\n  0x00\n    /* \"#utility.yul\":1820:1825   */\n  dup2\n    /* \"#utility.yul\":1809:1825   */\n  swap1\n  pop\n    /* \"#utility.yul\":1754:1831   */\n  swap2\n  swap1\n  pop\n  jump\t// out\n    /* \"#utility.yul\":1837:1897   */\ntag_36:\n    /* \"#utility.yul\":1865:1868   */\n  0x00\n    /* \"#utility.yul\":1886:1891   */\n  dup2\n    /* \"#utility.yul\":1879:1891   */\n  swap1\n  pop\n    /* \"#utility.yul\":1837:1897   */\n  swap2\n  swap1\n  pop\n  jump\t// out\n    /* \"#utility.yul\":1903:2045   */\ntag_37:\n    /* \"#utility.yul\":1953:1962   */\n  0x00\n    /* \"#utility.yul\":1986:2039   */\n  tag_65\n    /* \"#utility.yul\":2004:2038   */\n  tag_66\n    /* \"#utility.yul\":2013:2037   */\n  tag_67\n    /* \"#utility.yul\":2031:2036   */\n  dup5\n    /* \"#utility.yul\":2013:2037   */\n  tag_35\n  jump\t// in\ntag_67:\n    /* \"#utility.yul\":2004:2038   */\n  tag_36\n  jump\t// in\ntag_66:\n    /* \"#utility.yul\":1986:2039   */\n  tag_35\n  jump\t// in\ntag_65:\n    /* \"#utility.yul\":1973:2039   */\n  swap1\n  pop\n    /* \"#utility.yul\":1903:2045   */\n  swap2\n  swap1\n  pop\n  jump\t// out\n    /* \"#utility.yul\":2051:2126   */\ntag_38:\n    /* \"#utility.yul\":2094:2097   */\n  0x00\n    /* \"#utility.yul\":2115:2120   */\n  dup2\n    /* \"#utility.yul\":2108:2120   */\n  swap1\n  pop\n    /* \"#utility.yul\":2051:2126   */\n  swap2\n  swap1\n  pop\n  jump\t// out\n    /* \"#utility.yul\":2132:2401   */\ntag_39:\n    /* \"#utility.yul\":2242:2281   */\n  tag_70\n    /* \"#utility.yul\":2273:2280   */\n  dup4\n    /* \"#utility.yul\":2242:2281   */\n  tag_37\n  jump\t// in\ntag_70:\n    /* \"#utility.yul\":2303:2394   */\n  tag_71\n    /* \"#utility.yul\":2352:2393   */\n  tag_72\n    /* \"#utility.yul\":2376:2392   */\n  dup3\n    /* \"#utility.yul\":2352:2393   */\n  tag_38\n  jump\t// in\ntag_72:\n    /* \"#utility.yul\":2344:2350   */\n  dup5\n    /* \"#utility.yul\":2337:2341   */\n  dup5\n    /* \"#utility.yul\":2331:2342   */\n  sload\n    /* \"#utility.yul\":2303:2394   */\n  tag_34\n  jump\t// in\ntag_71:\n    /* \"#utility.yul\":2297:2301   */\n  dup3\n    /* \"#utility.yul\":2290:2395   */\n  sstore\n    /* \"#utility.yul\":2208:2401   */\n  pop\n    /* \"#utility.yul\":2132:2401   */\n  pop\n  pop\n  pop\n  jump\t// out\n    /* \"#utility.yul\":2407:2480   */\ntag_40:\n    /* \"#utility.yul\":2452:2455   */\n  0x00\n    /* \"#utility.yul\":2407:2480   */\n  swap1\n  jump\t// out\n    /* \"#utility.yul\":2486:2675   */\ntag_41:\n    /* \"#utility.yul\":2563:2595   */\n  tag_75\n  tag_40\n  jump\t// in\ntag_75:\n    /* \"#utility.yul\":2604:2669   */\n  tag_76\n    /* \"#utility.yul\":2662:2668   */\n  dup2\n    /* \"#utility.yul\":2654:2660   */\n  dup5\n    /* \"#utility.yul\":2648:2652   */\n  dup5\n    /* \"#utility.yul\":2604:2669   */\n  tag_39\n  jump\t// in\ntag_76:\n    /* \"#utility.yul\":2539:2675   */\n  pop\n    /* \"#utility.yul\":2486:2675   */\n  pop\n  pop\n  jump\t// out\n    /* \"#utility.yul\":2681:2867   */\ntag_42:\n    /* \"#utility.yul\":2741:2861   */\ntag_78:\n    /* \"#utility.yul\":2758:2761   */\n  dup2\n    /* \"#utility.yul\":2751:2756   */\n  dup2\n    /* \"#utility.yul\":2748:2762   */\n  lt\n    /* \"#utility.yul\":2741:2861   */\n  iszero\n  tag_80\n  jumpi\n    /* \"#utility.yul\":2812:2851   */\n  tag_81\n    /* \"#utility.yul\":2849:2850   */\n  0x00\n    /* \"#utility.yul\":2842:2847   */\n  dup3\n    /* \"#utility.yul\":2812:2851   */\n  tag_41\n  jump\t// in\ntag_81:\n    /* \"#utility.yul\":2785:2786   */\n  0x01\n    /* \"#utility.yul\":2778:2783   */\n  dup2\n    /* \"#utility.yul\":2774:2787   */\n  add\n    /* \"#utility.yul\":2765:2787   */\n  swap1\n  pop\n    /* \"#utility.yul\":2741:2861   */\n  jump(tag_78)\ntag_80:\n    /* \"#utility.yul\":2681:2867   */\n  pop\n  pop\n  jump\t// out\n    /* \"#utility.yul\":2873:3416   */\ntag_43:\n    /* \"#utility.yul\":2974:2976   */\n  0x1f\n    /* \"#utility.yul\":2969:2972   */\n  dup3\n    /* \"#utility.yul\":2966:2977   */\n  gt\n    /* \"#utility.yul\":2963:3409   */\n  iszero\n  tag_83\n  jumpi\n    /* \"#utility.yul\":3008:3046   */\n  tag_84\n    /* \"#utility.yul\":3040:3045   */\n  dup2\n    /* \"#utility.yul\":3008:3046   */\n  tag_31\n  jump\t// in\ntag_84:\n    /* \"#utility.yul\":3092:3121   */\n  tag_85\n    /* \"#utility.yul\":3110:3120   */\n  dup5\n    /* \"#utility.yul\":3092:3121   */\n  tag_32\n  jump\t// in\ntag_85:\n    /* \"#utility.yul\":3082:3090   */\n  dup2\n    /* \"#utility.yul\":3078:3122   */\n  add\n    /* \"#utility.yul\":3275:3277   */\n  0x20\n    /* \"#utility.yul\":3263:3273   */\n  dup6\n    /* \"#utility.yul\":3260:3278   */\n  lt\n    /* \"#utility.yul\":3257:3306   */\n  iszero\n  tag_86\n  jumpi\n    /* \"#utility.yul\":3296:3304   */\n  dup2\n    /* \"#utility.yul\":3281:3304   */\n  swap1\n  pop\n    /* \"#utility.yul\":3257:3306   */\ntag_86:\n    /* \"#utility.yul\":3319:3399   */\n  tag_87\n    /* \"#utility.yul\":3375:3397   */\n  tag_88\n    /* \"#utility.yul\":3393:3396   */\n  dup6\n    /* \"#utility.yul\":3375:3397   */\n  tag_32\n  jump\t// in\ntag_88:\n    /* \"#utility.yul\":3365:3373   */\n  dup4\n    /* \"#utility.yul\":3361:3398   */\n  add\n    /* \"#utility.yul\":3348:3359   */\n  dup3\n    /* \"#utility.yul\":3319:3399   */\n  tag_42\n  jump\t// in\ntag_87:\n    /* \"#utility.yul\":2978:3409   */\n  pop\n  pop\n    /* \"#utility.yul\":2963:3409   */\ntag_83:\n    /* \"#utility.yul\":2873:3416   */\n  pop\n  pop\n  pop\n  jump\t// out\n    /* \"#utility.yul\":3422:3539   */\ntag_44:\n    /* \"#utility.yul\":3476:3484   */\n  0x00\n    /* \"#utility.yul\":3526:3531   */\n  dup3\n    /* \"#utility.yul\":3520:3524   */\n  dup3\n    /* \"#utility.yul\":3516:3532   */\n  shr\n    /* \"#utility.yul\":3495:3532   */\n  swap1\n  pop\n    /* \"#utility.yul\":3422:3539   */\n  swap3\n  swap2\n  pop\n  pop\n  jump\t// out\n    /* \"#utility.yul\":3545:3714   */\ntag_45:\n    /* \"#utility.yul\":3589:3595   */\n  0x00\n    /* \"#utility.yul\":3622:3673   */\n  tag_91\n    /* \"#utility.yul\":3670:3671   */\n  0x00\n    /* \"#utility.yul\":3666:3672   */\n  not\n    /* \"#utility.yul\":3658:3663   */\n  dup5\n    /* \"#utility.yul\":3655:3656   */\n  0x08\n    /* \"#utility.yul\":3651:3664   */\n  mul\n    /* \"#utility.yul\":3622:3673   */\n  tag_44\n  jump\t// in\ntag_91:\n    /* \"#utility.yul\":3618:3674   */\n  not\n    /* \"#utility.yul\":3703:3707   */\n  dup1\n    /* \"#utility.yul\":3697:3701   */\n  dup4\n    /* \"#utility.yul\":3693:3708   */\n  and\n    /* \"#utility.yul\":3683:3708   */\n  swap2\n  pop\n    /* \"#utility.yul\":3596:3714   */\n  pop\n    /* \"#utility.yul\":3545:3714   */\n  swap3\n  swap2\n  pop\n  pop\n  jump\t// out\n    /* \"#utility.yul\":3719:4014   */\ntag_46:\n    /* \"#utility.yul\":3795:3799   */\n  0x00\n    /* \"#utility.yul\":3941:3970   */\n  tag_93\n    /* \"#utility.yul\":3966:3969   */\n  dup4\n    /* \"#utility.yul\":3960:3964   */\n  dup4\n    /* \"#utility.yul\":3941:3970   */\n  tag_45\n  jump\t// in\ntag_93:\n    /* \"#utility.yul\":3933:3970   */\n  swap2\n  pop\n    /* \"#utility.yul\":4003:4006   */\n  dup3\n    /* \"#utility.yul\":4000:4001   */\n  0x02\n    /* \"#utility.yul\":3996:4007   */\n  mul\n    /* \"#utility.yul\":3990:3994   */\n  dup3\n    /* \"#utility.yul\":3987:4008   */\n  or\n    /* \"#utility.yul\":3979:4008   */\n  swap1\n  pop\n    /* \"#utility.yul\":3719:4014   */\n  swap3\n  swap2\n  pop\n  pop\n  jump\t// out\n    /* \"#utility.yul\":4019:5414   */\ntag_10:\n    /* \"#utility.yul\":4136:4173   */\n  tag_95\n    /* \"#utility.yul\":4169:4172   */\n  dup3\n    /* \"#utility.yul\":4136:4173   */\n  tag_27\n  jump\t// in\ntag_95:\n    /* \"#utility.yul\":4238:4256   */\n  0xffffffffffffffff\n    /* \"#utility.yul\":4230:4236   */\n  dup2\n    /* \"#utility.yul\":4227:4257   */\n  gt\n    /* \"#utility.yul\":4224:4280   */\n  iszero\n  tag_96\n  jumpi\n    /* \"#utility.yul\":4260:4278   */\n  tag_97\n  tag_28\n  jump\t// in\ntag_97:\n    /* \"#utility.yul\":4224:4280   */\ntag_96:\n    /* \"#utility.yul\":4304:4342   */\n  tag_98\n    /* \"#utility.yul\":4336:4340   */\n  dup3\n    /* \"#utility.yul\":4330:4341   */\n  sload\n    /* \"#utility.yul\":4304:4342   */\n  tag_30\n  jump\t// in\ntag_98:\n    /* \"#utility.yul\":4389:4456   */\n  tag_99\n    /* \"#utility.yul\":4449:4455   */\n  dup3\n    /* \"#utility.yul\":4441:4447   */\n  dup3\n    /* \"#utility.yul\":4435:4439   */\n  dup6\n    /* \"#utility.yul\":4389:4456   */\n  tag_43\n  jump\t// in\ntag_99:\n    /* \"#utility.yul\":4483:4484   */\n  0x00\n    /* \"#utility.yul\":4507:4511   */\n  0x20\n    /* \"#utility.yul\":4494:4511   */\n  swap1\n  pop\n    /* \"#utility.yul\":4539:4541   */\n  0x1f\n    /* \"#utility.yul\":4531:4537   */\n  dup4\n    /* \"#utility.yul\":4528:4542   */\n  gt\n    /* \"#utility.yul\":4556:4557   */\n  0x01\n    /* \"#utility.yul\":4551:5169   */\n  dup2\n  eq\n  tag_101\n  jumpi\n    /* \"#utility.yul\":5213:5214   */\n  0x00\n    /* \"#utility.yul\":5230:5236   */\n  dup5\n    /* \"#utility.yul\":5227:5304   */\n  iszero\n  tag_102\n  jumpi\n    /* \"#utility.yul\":5279:5288   */\n  dup3\n    /* \"#utility.yul\":5274:5277   */\n  dup8\n    /* \"#utility.yul\":5270:5289   */\n  add\n    /* \"#utility.yul\":5264:5290   */\n  mload\n    /* \"#utility.yul\":5255:5290   */\n  swap1\n  pop\n    /* \"#utility.yul\":5227:5304   */\ntag_102:\n    /* \"#utility.yul\":5330:5397   */\n  tag_103\n    /* \"#utility.yul\":5390:5396   */\n  dup6\n    /* \"#utility.yul\":5383:5388   */\n  dup3\n    /* \"#utility.yul\":5330:5397   */\n  tag_46\n  jump\t// in\ntag_103:\n    /* \"#utility.yul\":5324:5328   */\n  dup7\n    /* \"#utility.yul\":5317:5398   */\n  sstore\n    /* \"#utility.yul\":5186:5408   */\n  pop\n    /* \"#utility.yul\":4521:5408   */\n  jump(tag_100)\n    /* \"#utility.yul\":4551:5169   */\ntag_101:\n    /* \"#utility.yul\":4603:4607   */\n  0x1f\n    /* \"#utility.yul\":4599:4608   */\n  not\n    /* \"#utility.yul\":4591:4597   */\n  dup5\n    /* \"#utility.yul\":4587:4609   */\n  and\n    /* \"#utility.yul\":4637:4674   */\n  tag_104\n    /* \"#utility.yul\":4669:4673   */\n  dup7\n    /* \"#utility.yul\":4637:4674   */\n  tag_31\n  jump\t// in\ntag_104:\n    /* \"#utility.yul\":4696:4697   */\n  0x00\n    /* \"#utility.yul\":4710:4918   */\ntag_105:\n    /* \"#utility.yul\":4724:4731   */\n  dup3\n    /* \"#utility.yul\":4721:4722   */\n  dup2\n    /* \"#utility.yul\":4718:4732   */\n  lt\n    /* \"#utility.yul\":4710:4918   */\n  iszero\n  tag_107\n  jumpi\n    /* \"#utility.yul\":4803:4812   */\n  dup5\n    /* \"#utility.yul\":4798:4801   */\n  dup10\n    /* \"#utility.yul\":4794:4813   */\n  add\n    /* \"#utility.yul\":4788:4814   */\n  mload\n    /* \"#utility.yul\":4780:4786   */\n  dup3\n    /* \"#utility.yul\":4773:4815   */\n  sstore\n    /* \"#utility.yul\":4854:4855   */\n  0x01\n    /* \"#utility.yul\":4846:4852   */\n  dup3\n    /* \"#utility.yul\":4842:4856   */\n  add\n    /* \"#utility.yul\":4832:4856   */\n  swap2\n  pop\n    /* \"#utility.yul\":4901:4903   */\n  0x20\n    /* \"#utility.yul\":4890:4899   */\n  dup6\n    /* \"#utility.yul\":4886:4904   */\n  add\n    /* \"#utility.yul\":4873:4904   */\n  swap5\n  pop\n    /* \"#utility.yul\":4747:4751   */\n  0x20\n    /* \"#utility.yul\":4744:4745   */\n  dup2\n    /* \"#utility.yul\":4740:4752   */\n  add\n    /* \"#utility.yul\":4735:4752   */\n  swap1\n  pop\n    /* \"#utility.yul\":4710:4918   */\n  jump(tag_105)\ntag_107:\n    /* \"#utility.yul\":4946:4952   */\n  dup7\n    /* \"#utility.yul\":4937:4944   */\n  dup4\n    /* \"#utility.yul\":4934:4953   */\n  lt\n    /* \"#utility.yul\":4931:5110   */\n  iszero\n  tag_108\n  jumpi\n    /* \"#utility.yul\":5004:5013   */\n  dup5\n    /* \"#utility.yul\":4999:5002   */\n  dup10\n    /* \"#utility.yul\":4995:5014   */\n  add\n    /* \"#utility.yul\":4989:5015   */\n  mload\n    /* \"#utility.yul\":5047:5095   */\n  tag_109\n    /* \"#utility.yul\":5089:5093   */\n  0x1f\n    /* \"#utility.yul\":5081:5087   */\n  dup10\n    /* \"#utility.yul\":5077:5094   */\n  and\n    /* \"#utility.yul\":5066:5075   */\n  dup3\n    /* \"#utility.yul\":5047:5095   */\n  tag_45\n  jump\t// in\ntag_109:\n    /* \"#utility.yul\":5039:5045   */\n  dup4\n    /* \"#utility.yul\":5032:5096   */\n  sstore\n    /* \"#utility.yul\":4954:5110   */\n  pop\n    /* \"#utility.yul\":4931:5110   */\ntag_108:\n    /* \"#utility.yul\":5156:5157   */\n  0x01\n    /* \"#utility.yul\":5152:5153   */\n  0x02\n    /* \"#utility.yul\":5144:5150   */\n  dup9\n    /* \"#utility.yul\":5140:5154   */\n  mul\n    /* \"#utility.yul\":5136:5158   */\n  add\n    /* \"#utility.yul\":5130:5134   */\n  dup9\n    /* \"#utility.yul\":5123:5159   */\n  sstore\n    /* \"#utility.yul\":4558:5169   */\n  pop\n  pop\n  pop\n    /* \"#utility.yul\":4521:5408   */\ntag_100:\n  pop\n    /* \"#utility.yul\":4111:5414   */\n  pop\n  pop\n  pop\n    /* \"#utility.yul\":4019:5414   */\n  pop\n  pop\n  jump\t// out\n    /* \"contracts/GiftCardETH.sol\":368:6948  contract GiftCardETH {... */\ntag_26:\n  dataSize(sub_0)\n  dup1\n  dataOffset(sub_0)\n  0x00\n  codecopy\n  0x00\n  return\nstop\n\nsub_0: assembly {\n        /* \"contracts/GiftCardETH.sol\":368:6948  contract GiftCardETH {... */\n      mstore(0x40, 0x80)\n      jumpi(tag_1, lt(calldatasize, 0x04))\n      shr(0xe0, calldataload(0x00))\n      dup1\n      0xa34f011c\n      gt\n      tag_11\n      jumpi\n      dup1\n      0xa34f011c\n      eq\n      tag_7\n      jumpi\n      dup1\n      0xa927db0d\n      eq\n      tag_8\n      jumpi\n      dup1\n      0xb6db75a0\n      eq\n      tag_9\n      jumpi\n      dup1\n      0xd9c8a38b\n      eq\n      tag_10\n      jumpi\n      jump(tag_2)\n    tag_11:\n      dup1\n      0x27e26c8c\n      eq\n      tag_3\n      jumpi\n      dup1\n      0x2b4a9dda\n      eq\n      tag_4\n      jumpi\n      dup1\n      0x4cf57138\n      eq\n      tag_5\n      jumpi\n      dup1\n      0x8f0e582f\n      eq\n      tag_6\n      jumpi\n      jump(tag_2)\n    tag_1:\n      jumpi(tag_2, calldatasize)\n      stop\n    tag_2:\n      stop\n        /* \"contracts/GiftCardETH.sol\":6420:6875  function redeemCard(string calldata _code)... */\n    tag_3:\n      callvalue\n      dup1\n      iszero\n      tag_16\n      jumpi\n      0x00\n      dup1\n      revert\n    tag_16:\n      pop\n      tag_17\n      0x04\n      dup1\n      calldatasize\n      sub\n      dup2\n      add\n      swap1\n      tag_18\n      swap2\n      swap1\n      tag_19\n      jump\t// in\n    tag_18:\n      tag_20\n      jump\t// in\n    tag_17:\n      stop\n        /* \"contracts/GiftCardETH.sol\":5081:6414  function getMyCard()... */\n    tag_4:\n      callvalue\n      dup1\n      iszero\n      tag_21\n      jumpi\n      0x00\n      dup1\n      revert\n    tag_21:\n      pop\n      tag_22\n      tag_23\n      jump\t// in\n    tag_22:\n      mload(0x40)\n      tag_24\n      swap2\n      swap1\n      tag_25\n      jump\t// in\n    tag_24:\n      mload(0x40)\n      dup1\n      swap2\n      sub\n      swap1\n      return\n        /* \"contracts/GiftCardETH.sol\":2733:3497  function getGiftCardByStatus(GiftCardStatus status)... */\n    tag_5:\n      callvalue\n      dup1\n      iszero\n      tag_26\n      jumpi\n      0x00\n      dup1\n      revert\n    tag_26:\n      pop\n      tag_27\n      0x04\n      dup1\n      calldatasize\n      sub\n      dup2\n      add\n      swap1\n      tag_28\n      swap2\n      swap1\n      tag_29\n      jump\t// in\n    tag_28:\n      tag_30\n      jump\t// in\n    tag_27:\n      mload(0x40)\n      tag_31\n      swap2\n      swap1\n      tag_25\n      jump\t// in\n    tag_31:\n      mload(0x40)\n      dup1\n      swap2\n      sub\n      swap1\n      return\n        /* \"contracts/GiftCardETH.sol\":2305:2485  function registration(string calldata name, Gender gender) external {... */\n    tag_6:\n      callvalue\n      dup1\n      iszero\n      tag_32\n      jumpi\n      0x00\n      dup1\n      revert\n    tag_32:\n      pop\n      tag_33\n      0x04\n      dup1\n      calldatasize\n      sub\n      dup2\n      add\n      swap1\n      tag_34\n      swap2\n      swap1\n      tag_35\n      jump\t// in\n    tag_34:\n      tag_36\n      jump\t// in\n    tag_33:\n      stop\n        /* \"contracts/GiftCardETH.sol\":4836:5075  function buyGiftCard() external payable registeredUsersOnly {... */\n    tag_7:\n      tag_37\n      tag_38\n      jump\t// in\n    tag_37:\n      stop\n        /* \"contracts/GiftCardETH.sol\":3503:3902  function getAllGiftCards()... */\n    tag_8:\n      callvalue\n      dup1\n      iszero\n      tag_39\n      jumpi\n      0x00\n      dup1\n      revert\n    tag_39:\n      pop\n      tag_40\n      tag_41\n      jump\t// in\n    tag_40:\n      mload(0x40)\n      tag_42\n      swap2\n      swap1\n      tag_25\n      jump\t// in\n    tag_42:\n      mload(0x40)\n      dup1\n      swap2\n      sub\n      swap1\n      return\n        /* \"contracts/GiftCardETH.sol\":2491:2625  function isAdmin() public view registeredUsersOnly returns (bool) {... */\n    tag_9:\n      callvalue\n      dup1\n      iszero\n      tag_43\n      jumpi\n      0x00\n      dup1\n      revert\n    tag_43:\n      pop\n      tag_44\n      tag_45\n      jump\t// in\n    tag_44:\n      mload(0x40)\n      tag_46\n      swap2\n      swap1\n      tag_47\n      jump\t// in\n    tag_46:\n      mload(0x40)\n      dup1\n      swap2\n      sub\n      swap1\n      return\n        /* \"contracts/GiftCardETH.sol\":2631:2727  function getMyData() public view returns (User memory) {... */\n    tag_10:\n      callvalue\n      dup1\n      iszero\n      tag_48\n      jumpi\n      0x00\n      dup1\n      revert\n    tag_48:\n      pop\n      tag_49\n      tag_50\n      jump\t// in\n    tag_49:\n      mload(0x40)\n      tag_51\n      swap2\n      swap1\n      tag_52\n      jump\t// in\n    tag_51:\n      mload(0x40)\n      dup1\n      swap2\n      sub\n      swap1\n      return\n        /* \"contracts/GiftCardETH.sol\":6420:6875  function redeemCard(string calldata _code)... */\n    tag_20:\n        /* \"contracts/GiftCardETH.sol\":6506:6511  _code */\n      dup2\n      dup2\n        /* \"contracts/GiftCardETH.sol\":1663:1856  modifier checkGiftCardStatus(string memory code) {... */\n      dup1\n      dup1\n      0x1f\n      add\n      0x20\n      dup1\n      swap2\n      div\n      mul\n      0x20\n      add\n      mload(0x40)\n      swap1\n      dup2\n      add\n      0x40\n      mstore\n      dup1\n      swap4\n      swap3\n      swap2\n      swap1\n      dup2\n      dup2\n      mstore\n      0x20\n      add\n      dup4\n      dup4\n      dup1\n      dup3\n      dup5\n      calldatacopy\n      0x00\n      dup2\n      dup5\n      add\n      mstore\n      not(0x1f)\n      0x1f\n      dup3\n      add\n      and\n      swap1\n      pop\n      dup1\n      dup4\n      add\n      swap3\n      pop\n      pop\n      pop\n      pop\n      pop\n      pop\n      pop\n        /* \"contracts/GiftCardETH.sol\":1777:1797  GiftCardStatus.VALID */\n      0x01\n        /* \"contracts/GiftCardETH.sol\":1743:1797  giftCards[code].giftCardStatus == GiftCardStatus.VALID */\n      dup1\n      dup2\n      gt\n      iszero\n      tag_54\n      jumpi\n      tag_55\n      tag_56\n      jump\t// in\n    tag_55:\n    tag_54:\n        /* \"contracts/GiftCardETH.sol\":1743:1752  giftCards */\n      0x01\n        /* \"contracts/GiftCardETH.sol\":1753:1757  code */\n      dup3\n        /* \"contracts/GiftCardETH.sol\":1743:1758  giftCards[code] */\n      mload(0x40)\n      tag_57\n      swap2\n      swap1\n      tag_58\n      jump\t// in\n    tag_57:\n      swap1\n      dup2\n      mstore\n      0x20\n      add\n      mload(0x40)\n      dup1\n      swap2\n      sub\n      swap1\n      keccak256\n        /* \"contracts/GiftCardETH.sol\":1743:1773  giftCards[code].giftCardStatus */\n      0x02\n      add\n      0x00\n      swap1\n      sload\n      swap1\n      0x0100\n      exp\n      swap1\n      div\n      0xff\n      and\n        /* \"contracts/GiftCardETH.sol\":1743:1797  giftCards[code].giftCardStatus == GiftCardStatus.VALID */\n      0x01\n      dup2\n      gt\n      iszero\n      tag_59\n      jumpi\n      tag_60\n      tag_56\n      jump\t// in\n    tag_60:\n    tag_59:\n      eq\n        /* \"contracts/GiftCardETH.sol\":1722:1838  require(... */\n      tag_61\n      jumpi\n      mload(0x40)\n      0x08c379a000000000000000000000000000000000000000000000000000000000\n      dup2\n      mstore\n      0x04\n      add\n      tag_62\n      swap1\n      tag_63\n      jump\t// in\n    tag_62:\n      mload(0x40)\n      dup1\n      swap2\n      sub\n      swap1\n      revert\n    tag_61:\n        /* \"contracts/GiftCardETH.sol\":1236:1237  0 */\n      0x00\n        /* \"contracts/GiftCardETH.sol\":1203:1208  users */\n      dup1\n        /* \"contracts/GiftCardETH.sol\":1203:1220  users[msg.sender] */\n      0x00\n        /* \"contracts/GiftCardETH.sol\":1209:1219  msg.sender */\n      caller\n        /* \"contracts/GiftCardETH.sol\":1203:1220  users[msg.sender] */\n      0xffffffffffffffffffffffffffffffffffffffff\n      and\n      0xffffffffffffffffffffffffffffffffffffffff\n      and\n      dup2\n      mstore\n      0x20\n      add\n      swap1\n      dup2\n      mstore\n      0x20\n      add\n      0x00\n      keccak256\n        /* \"contracts/GiftCardETH.sol\":1203:1225  users[msg.sender].name */\n      0x00\n      add\n        /* \"contracts/GiftCardETH.sol\":1197:1233  bytes(users[msg.sender].name).length */\n      dup1\n      sload\n      tag_65\n      swap1\n      tag_66\n      jump\t// in\n    tag_65:\n      swap1\n      pop\n        /* \"contracts/GiftCardETH.sol\":1197:1237  bytes(users[msg.sender].name).length > 0 */\n      gt\n        /* \"contracts/GiftCardETH.sol\":1176:1282  require(... */\n      tag_67\n      jumpi\n      mload(0x40)\n      0x08c379a000000000000000000000000000000000000000000000000000000000\n      dup2\n      mstore\n      0x04\n      add\n      tag_68\n      swap1\n      tag_69\n      jump\t// in\n    tag_68:\n      mload(0x40)\n      dup1\n      swap2\n      sub\n      swap1\n      revert\n    tag_67:\n        /* \"contracts/GiftCardETH.sol\":1551:1557  locked */\n      0x02\n      0x00\n      swap1\n      sload\n      swap1\n      0x0100\n      exp\n      swap1\n      div\n      0xff\n      and\n        /* \"contracts/GiftCardETH.sol\":1550:1557  !locked */\n      iszero\n        /* \"contracts/GiftCardETH.sol\":1542:1593  require(!locked, \"ReentrancyGuard: reentrant call\") */\n      tag_71\n      jumpi\n      mload(0x40)\n      0x08c379a000000000000000000000000000000000000000000000000000000000\n      dup2\n      mstore\n      0x04\n      add\n      tag_72\n      swap1\n      tag_73\n      jump\t// in\n    tag_72:\n      mload(0x40)\n      dup1\n      swap2\n      sub\n      swap1\n      revert\n    tag_71:\n        /* \"contracts/GiftCardETH.sol\":1612:1616  true */\n      0x01\n        /* \"contracts/GiftCardETH.sol\":1603:1609  locked */\n      0x02\n      0x00\n        /* \"contracts/GiftCardETH.sol\":1603:1616  locked = true */\n      0x0100\n      exp\n      dup2\n      sload\n      dup2\n      0xff\n      mul\n      not\n      and\n      swap1\n      dup4\n      iszero\n      iszero\n      mul\n      or\n      swap1\n      sstore\n      pop\n        /* \"contracts/GiftCardETH.sol\":6580:6591  bool status */\n      0x00\n        /* \"contracts/GiftCardETH.sol\":6597:6607  msg.sender */\n      caller\n        /* \"contracts/GiftCardETH.sol\":6597:6612  msg.sender.call */\n      0xffffffffffffffffffffffffffffffffffffffff\n      and\n        /* \"contracts/GiftCardETH.sol\":6620:6629  giftCards */\n      0x01\n        /* \"contracts/GiftCardETH.sol\":6630:6635  _code */\n      dup6\n      dup6\n        /* \"contracts/GiftCardETH.sol\":6620:6636  giftCards[_code] */\n      mload(0x40)\n      tag_75\n      swap3\n      swap2\n      swap1\n      tag_76\n      jump\t// in\n    tag_75:\n      swap1\n      dup2\n      mstore\n      0x20\n      add\n      mload(0x40)\n      dup1\n      swap2\n      sub\n      swap1\n      keccak256\n        /* \"contracts/GiftCardETH.sol\":6620:6643  giftCards[_code].amount */\n      0x01\n      add\n      sload\n        /* \"contracts/GiftCardETH.sol\":6597:6648  msg.sender.call{value: giftCards[_code].amount}(\"\") */\n      mload(0x40)\n      tag_77\n      swap1\n      tag_78\n      jump\t// in\n    tag_77:\n      0x00\n      mload(0x40)\n      dup1\n      dup4\n      sub\n      dup2\n      dup6\n      dup8\n      gas\n      call\n      swap3\n      pop\n      pop\n      pop\n      returndatasize\n      dup1\n      0x00\n      dup2\n      eq\n      tag_81\n      jumpi\n      mload(0x40)\n      swap2\n      pop\n      and(add(returndatasize, 0x3f), not(0x1f))\n      dup3\n      add\n      0x40\n      mstore\n      returndatasize\n      dup3\n      mstore\n      returndatasize\n      0x00\n      0x20\n      dup5\n      add\n      returndatacopy\n      jump(tag_80)\n    tag_81:\n      0x60\n      swap2\n      pop\n    tag_80:\n      pop\n        /* \"contracts/GiftCardETH.sol\":6579:6648  (bool status, ) = msg.sender.call{value: giftCards[_code].amount}(\"\") */\n      pop\n      swap1\n      pop\n        /* \"contracts/GiftCardETH.sol\":6662:6668  status */\n      dup1\n        /* \"contracts/GiftCardETH.sol\":6658:6869  if (status) {... */\n      iszero\n      tag_82\n      jumpi\n        /* \"contracts/GiftCardETH.sol\":6718:6740  GiftCardStatus.EXPIRED */\n      0x00\n        /* \"contracts/GiftCardETH.sol\":6684:6693  giftCards */\n      0x01\n        /* \"contracts/GiftCardETH.sol\":6694:6699  _code */\n      dup6\n      dup6\n        /* \"contracts/GiftCardETH.sol\":6684:6700  giftCards[_code] */\n      mload(0x40)\n      tag_83\n      swap3\n      swap2\n      swap1\n      tag_76\n      jump\t// in\n    tag_83:\n      swap1\n      dup2\n      mstore\n      0x20\n      add\n      mload(0x40)\n      dup1\n      swap2\n      sub\n      swap1\n      keccak256\n        /* \"contracts/GiftCardETH.sol\":6684:6715  giftCards[_code].giftCardStatus */\n      0x02\n      add\n      0x00\n        /* \"contracts/GiftCardETH.sol\":6684:6740  giftCards[_code].giftCardStatus = GiftCardStatus.EXPIRED */\n      0x0100\n      exp\n      dup2\n      sload\n      dup2\n      0xff\n      mul\n      not\n      and\n      swap1\n      dup4\n      0x01\n      dup2\n      gt\n      iszero\n      tag_84\n      jumpi\n      tag_85\n      tag_56\n      jump\t// in\n    tag_85:\n    tag_84:\n      mul\n      or\n      swap1\n      sstore\n      pop\n        /* \"contracts/GiftCardETH.sol\":6780:6785  users */\n      0x00\n        /* \"contracts/GiftCardETH.sol\":6780:6797  users[msg.sender] */\n      dup1\n        /* \"contracts/GiftCardETH.sol\":6786:6796  msg.sender */\n      caller\n        /* \"contracts/GiftCardETH.sol\":6780:6797  users[msg.sender] */\n      0xffffffffffffffffffffffffffffffffffffffff\n      and\n      0xffffffffffffffffffffffffffffffffffffffff\n      and\n      dup2\n      mstore\n      0x20\n      add\n      swap1\n      dup2\n      mstore\n      0x20\n      add\n      0x00\n      keccak256\n        /* \"contracts/GiftCardETH.sol\":6780:6802  users[msg.sender].name */\n      0x00\n      add\n        /* \"contracts/GiftCardETH.sol\":6754:6763  giftCards */\n      0x01\n        /* \"contracts/GiftCardETH.sol\":6764:6769  _code */\n      dup6\n      dup6\n        /* \"contracts/GiftCardETH.sol\":6754:6770  giftCards[_code] */\n      mload(0x40)\n      tag_86\n      swap3\n      swap2\n      swap1\n      tag_76\n      jump\t// in\n    tag_86:\n      swap1\n      dup2\n      mstore\n      0x20\n      add\n      mload(0x40)\n      dup1\n      swap2\n      sub\n      swap1\n      keccak256\n        /* \"contracts/GiftCardETH.sol\":6754:6777  giftCards[_code].getter */\n      0x03\n      add\n        /* \"contracts/GiftCardETH.sol\":6754:6802  giftCards[_code].getter = users[msg.sender].name */\n      swap1\n      dup2\n      tag_87\n      swap2\n      swap1\n      tag_88\n      jump\t// in\n    tag_87:\n      pop\n        /* \"contracts/GiftCardETH.sol\":6821:6858  CardRedeemed(giftCards[_code].amount) */\n      0x604d6de1b6eb3f39c6ab9d4981a20d17f88c5bef33495ae58dabeb097ba7a41a\n        /* \"contracts/GiftCardETH.sol\":6834:6843  giftCards */\n      0x01\n        /* \"contracts/GiftCardETH.sol\":6844:6849  _code */\n      dup6\n      dup6\n        /* \"contracts/GiftCardETH.sol\":6834:6850  giftCards[_code] */\n      mload(0x40)\n      tag_89\n      swap3\n      swap2\n      swap1\n      tag_76\n      jump\t// in\n    tag_89:\n      swap1\n      dup2\n      mstore\n      0x20\n      add\n      mload(0x40)\n      dup1\n      swap2\n      sub\n      swap1\n      keccak256\n        /* \"contracts/GiftCardETH.sol\":6834:6857  giftCards[_code].amount */\n      0x01\n      add\n      sload\n        /* \"contracts/GiftCardETH.sol\":6821:6858  CardRedeemed(giftCards[_code].amount) */\n      mload(0x40)\n      tag_90\n      swap2\n      swap1\n      tag_91\n      jump\t// in\n    tag_90:\n      mload(0x40)\n      dup1\n      swap2\n      sub\n      swap1\n      log1\n        /* \"contracts/GiftCardETH.sol\":6658:6869  if (status) {... */\n    tag_82:\n        /* \"contracts/GiftCardETH.sol\":6569:6875  {... */\n      pop\n        /* \"contracts/GiftCardETH.sol\":1646:1651  false */\n      0x00\n        /* \"contracts/GiftCardETH.sol\":1637:1643  locked */\n      0x02\n      0x00\n        /* \"contracts/GiftCardETH.sol\":1637:1651  locked = false */\n      0x0100\n      exp\n      dup2\n      sload\n      dup2\n      0xff\n      mul\n      not\n      and\n      swap1\n      dup4\n      iszero\n      iszero\n      mul\n      or\n      swap1\n      sstore\n      pop\n        /* \"contracts/GiftCardETH.sol\":6420:6875  function redeemCard(string calldata _code)... */\n      pop\n      pop\n      pop\n      jump\t// out\n        /* \"contracts/GiftCardETH.sol\":5081:6414  function getMyCard()... */\n    tag_23:\n        /* \"contracts/GiftCardETH.sol\":5175:5192  GiftCard[] memory */\n      0x60\n        /* \"contracts/GiftCardETH.sol\":1236:1237  0 */\n      0x00\n        /* \"contracts/GiftCardETH.sol\":1203:1208  users */\n      dup1\n        /* \"contracts/GiftCardETH.sol\":1203:1220  users[msg.sender] */\n      0x00\n        /* \"contracts/GiftCardETH.sol\":1209:1219  msg.sender */\n      caller\n        /* \"contracts/GiftCardETH.sol\":1203:1220  users[msg.sender] */\n      0xffffffffffffffffffffffffffffffffffffffff\n      and\n      0xffffffffffffffffffffffffffffffffffffffff\n      and\n      dup2\n      mstore\n      0x20\n      add\n      swap1\n      dup2\n      mstore\n      0x20\n      add\n      0x00\n      keccak256\n        /* \"contracts/GiftCardETH.sol\":1203:1225  users[msg.sender].name */\n      0x00\n      add\n        /* \"contracts/GiftCardETH.sol\":1197:1233  bytes(users[msg.sender].name).length */\n      dup1\n      sload\n      tag_93\n      swap1\n      tag_66\n      jump\t// in\n    tag_93:\n      swap1\n      pop\n        /* \"contracts/GiftCardETH.sol\":1197:1237  bytes(users[msg.sender].name).length > 0 */\n      gt\n        /* \"contracts/GiftCardETH.sol\":1176:1282  require(... */\n      tag_94\n      jumpi\n      mload(0x40)\n      0x08c379a000000000000000000000000000000000000000000000000000000000\n      dup2\n      mstore\n      0x04\n      add\n      tag_95\n      swap1\n      tag_69\n      jump\t// in\n    tag_95:\n      mload(0x40)\n      dup1\n      swap2\n      sub\n      swap1\n      revert\n    tag_94:\n        /* \"contracts/GiftCardETH.sol\":5208:5221  uint256 count */\n      0x00\n        /* \"contracts/GiftCardETH.sol\":5235:5257  bytes32 senderNameHash */\n      dup1\n        /* \"contracts/GiftCardETH.sol\":5300:5305  users */\n      dup1\n        /* \"contracts/GiftCardETH.sol\":5300:5317  users[msg.sender] */\n      0x00\n        /* \"contracts/GiftCardETH.sol\":5306:5316  msg.sender */\n      caller\n        /* \"contracts/GiftCardETH.sol\":5300:5317  users[msg.sender] */\n      0xffffffffffffffffffffffffffffffffffffffff\n      and\n      0xffffffffffffffffffffffffffffffffffffffff\n      and\n      dup2\n      mstore\n      0x20\n      add\n      swap1\n      dup2\n      mstore\n      0x20\n      add\n      0x00\n      keccak256\n        /* \"contracts/GiftCardETH.sol\":5300:5322  users[msg.sender].name */\n      0x00\n      add\n        /* \"contracts/GiftCardETH.sol\":5283:5323  abi.encodePacked(users[msg.sender].name) */\n      add(0x20, mload(0x40))\n      tag_97\n      swap2\n      swap1\n      tag_98\n      jump\t// in\n    tag_97:\n      mload(0x40)\n      0x20\n      dup2\n      dup4\n      sub\n      sub\n      dup2\n      mstore\n      swap1\n      0x40\n      mstore\n        /* \"contracts/GiftCardETH.sol\":5260:5333  keccak256(... */\n      dup1\n      mload\n      swap1\n      0x20\n      add\n      keccak256\n        /* \"contracts/GiftCardETH.sol\":5235:5333  bytes32 senderNameHash = keccak256(... */\n      swap1\n      pop\n        /* \"contracts/GiftCardETH.sol\":5349:5358  uint256 i */\n      0x00\n        /* \"contracts/GiftCardETH.sol\":5344:5784  for (uint256 i = 0; i < giftCardCodes.length; i++) {... */\n    tag_99:\n        /* \"contracts/GiftCardETH.sol\":5368:5381  giftCardCodes */\n      0x03\n        /* \"contracts/GiftCardETH.sol\":5368:5388  giftCardCodes.length */\n      dup1\n      sload\n      swap1\n      pop\n        /* \"contracts/GiftCardETH.sol\":5364:5365  i */\n      dup2\n        /* \"contracts/GiftCardETH.sol\":5364:5388  i < giftCardCodes.length */\n      lt\n        /* \"contracts/GiftCardETH.sol\":5344:5784  for (uint256 i = 0; i < giftCardCodes.length; i++) {... */\n      iszero\n      tag_100\n      jumpi\n        /* \"contracts/GiftCardETH.sol\":5550:5564  senderNameHash */\n      dup2\n        /* \"contracts/GiftCardETH.sol\":5478:5487  giftCards */\n      0x01\n        /* \"contracts/GiftCardETH.sol\":5488:5501  giftCardCodes */\n      0x03\n        /* \"contracts/GiftCardETH.sol\":5502:5503  i */\n      dup4\n        /* \"contracts/GiftCardETH.sol\":5488:5504  giftCardCodes[i] */\n      dup2\n      sload\n      dup2\n      lt\n      tag_102\n      jumpi\n      tag_103\n      tag_104\n      jump\t// in\n    tag_103:\n    tag_102:\n      swap1\n      0x00\n      mstore\n      keccak256(0x00, 0x20)\n      add\n        /* \"contracts/GiftCardETH.sol\":5478:5505  giftCards[giftCardCodes[i]] */\n      mload(0x40)\n      tag_106\n      swap2\n      swap1\n      tag_98\n      jump\t// in\n    tag_106:\n      swap1\n      dup2\n      mstore\n      0x20\n      add\n      mload(0x40)\n      dup1\n      swap2\n      sub\n      swap1\n      keccak256\n        /* \"contracts/GiftCardETH.sol\":5478:5511  giftCards[giftCardCodes[i]].buyer */\n      0x00\n      add\n        /* \"contracts/GiftCardETH.sol\":5461:5512  abi.encodePacked(giftCards[giftCardCodes[i]].buyer) */\n      add(0x20, mload(0x40))\n      tag_107\n      swap2\n      swap1\n      tag_98\n      jump\t// in\n    tag_107:\n      mload(0x40)\n      0x20\n      dup2\n      dup4\n      sub\n      sub\n      dup2\n      mstore\n      swap1\n      0x40\n      mstore\n        /* \"contracts/GiftCardETH.sol\":5430:5530  keccak256(... */\n      dup1\n      mload\n      swap1\n      0x20\n      add\n      keccak256\n        /* \"contracts/GiftCardETH.sol\":5430:5564  keccak256(... */\n      eq\n        /* \"contracts/GiftCardETH.sol\":5430:5719  keccak256(... */\n      dup1\n      tag_108\n      jumpi\n      pop\n        /* \"contracts/GiftCardETH.sol\":5705:5719  senderNameHash */\n      dup2\n        /* \"contracts/GiftCardETH.sol\":5632:5641  giftCards */\n      0x01\n        /* \"contracts/GiftCardETH.sol\":5642:5655  giftCardCodes */\n      0x03\n        /* \"contracts/GiftCardETH.sol\":5656:5657  i */\n      dup4\n        /* \"contracts/GiftCardETH.sol\":5642:5658  giftCardCodes[i] */\n      dup2\n      sload\n      dup2\n      lt\n      tag_109\n      jumpi\n      tag_110\n      tag_104\n      jump\t// in\n    tag_110:\n    tag_109:\n      swap1\n      0x00\n      mstore\n      keccak256(0x00, 0x20)\n      add\n        /* \"contracts/GiftCardETH.sol\":5632:5659  giftCards[giftCardCodes[i]] */\n      mload(0x40)\n      tag_112\n      swap2\n      swap1\n      tag_98\n      jump\t// in\n    tag_112:\n      swap1\n      dup2\n      mstore\n      0x20\n      add\n      mload(0x40)\n      dup1\n      swap2\n      sub\n      swap1\n      keccak256\n        /* \"contracts/GiftCardETH.sol\":5632:5666  giftCards[giftCardCodes[i]].getter */\n      0x03\n      add\n        /* \"contracts/GiftCardETH.sol\":5615:5667  abi.encodePacked(giftCards[giftCardCodes[i]].getter) */\n      add(0x20, mload(0x40))\n      tag_113\n      swap2\n      swap1\n      tag_98\n      jump\t// in\n    tag_113:\n      mload(0x40)\n      0x20\n      dup2\n      dup4\n      sub\n      sub\n      dup2\n      mstore\n      swap1\n      0x40\n      mstore\n        /* \"contracts/GiftCardETH.sol\":5584:5685  keccak256(... */\n      dup1\n      mload\n      swap1\n      0x20\n      add\n      keccak256\n        /* \"contracts/GiftCardETH.sol\":5584:5719  keccak256(... */\n      eq\n        /* \"contracts/GiftCardETH.sol\":5430:5719  keccak256(... */\n    tag_108:\n        /* \"contracts/GiftCardETH.sol\":5409:5774  if (... */\n      iszero\n      tag_114\n      jumpi\n        /* \"contracts/GiftCardETH.sol\":5752:5759  count++ */\n      dup3\n      dup1\n      tag_115\n      swap1\n      tag_116\n      jump\t// in\n    tag_115:\n      swap4\n      pop\n      pop\n        /* \"contracts/GiftCardETH.sol\":5409:5774  if (... */\n    tag_114:\n        /* \"contracts/GiftCardETH.sol\":5390:5393  i++ */\n      dup1\n      dup1\n      0x01\n      add\n      swap2\n      pop\n      pop\n        /* \"contracts/GiftCardETH.sol\":5344:5784  for (uint256 i = 0; i < giftCardCodes.length; i++) {... */\n      jump(tag_99)\n    tag_100:\n      pop\n        /* \"contracts/GiftCardETH.sol\":5794:5819  GiftCard[] memory myCards */\n      0x00\n        /* \"contracts/GiftCardETH.sol\":5837:5842  count */\n      dup3\n        /* \"contracts/GiftCardETH.sol\":5822:5843  new GiftCard[](count) */\n      0xffffffffffffffff\n      dup2\n      gt\n      iszero\n      tag_117\n      jumpi\n      tag_118\n      tag_119\n      jump\t// in\n    tag_118:\n    tag_117:\n      mload(0x40)\n      swap1\n      dup1\n      dup3\n      mstore\n      dup1\n      0x20\n      mul\n      0x20\n      add\n      dup3\n      add\n      0x40\n      mstore\n      dup1\n      iszero\n      tag_120\n      jumpi\n      dup2\n      0x20\n      add\n    tag_121:\n      tag_122\n      tag_123\n      jump\t// in\n    tag_122:\n      dup2\n      mstore\n      0x20\n      add\n      swap1\n      0x01\n      swap1\n      sub\n      swap1\n      dup2\n      tag_121\n      jumpi\n      swap1\n      pop\n    tag_120:\n      pop\n        /* \"contracts/GiftCardETH.sol\":5794:5843  GiftCard[] memory myCards = new GiftCard[](count) */\n      swap1\n      pop\n        /* \"contracts/GiftCardETH.sol\":5853:5866  uint256 index */\n      0x00\n        /* \"contracts/GiftCardETH.sol\":5886:5895  uint256 i */\n      dup1\n        /* \"contracts/GiftCardETH.sol\":5881:6383  for (uint256 i = 0; i < giftCardCodes.length; i++) {... */\n    tag_124:\n        /* \"contracts/GiftCardETH.sol\":5905:5918  giftCardCodes */\n      0x03\n        /* \"contracts/GiftCardETH.sol\":5905:5925  giftCardCodes.length */\n      dup1\n      sload\n      swap1\n      pop\n        /* \"contracts/GiftCardETH.sol\":5901:5902  i */\n      dup2\n        /* \"contracts/GiftCardETH.sol\":5901:5925  i < giftCardCodes.length */\n      lt\n        /* \"contracts/GiftCardETH.sol\":5881:6383  for (uint256 i = 0; i < giftCardCodes.length; i++) {... */\n      iszero\n      tag_125\n      jumpi\n        /* \"contracts/GiftCardETH.sol\":6087:6101  senderNameHash */\n      dup4\n        /* \"contracts/GiftCardETH.sol\":6015:6024  giftCards */\n      0x01\n        /* \"contracts/GiftCardETH.sol\":6025:6038  giftCardCodes */\n      0x03\n        /* \"contracts/GiftCardETH.sol\":6039:6040  i */\n      dup4\n        /* \"contracts/GiftCardETH.sol\":6025:6041  giftCardCodes[i] */\n      dup2\n      sload\n      dup2\n      lt\n      tag_127\n      jumpi\n      tag_128\n      tag_104\n      jump\t// in\n    tag_128:\n    tag_127:\n      swap1\n      0x00\n      mstore\n      keccak256(0x00, 0x20)\n      add\n        /* \"contracts/GiftCardETH.sol\":6015:6042  giftCards[giftCardCodes[i]] */\n      mload(0x40)\n      tag_130\n      swap2\n      swap1\n      tag_98\n      jump\t// in\n    tag_130:\n      swap1\n      dup2\n      mstore\n      0x20\n      add\n      mload(0x40)\n      dup1\n      swap2\n      sub\n      swap1\n      keccak256\n        /* \"contracts/GiftCardETH.sol\":6015:6048  giftCards[giftCardCodes[i]].buyer */\n      0x00\n      add\n        /* \"contracts/GiftCardETH.sol\":5998:6049  abi.encodePacked(giftCards[giftCardCodes[i]].buyer) */\n      add(0x20, mload(0x40))\n      tag_131\n      swap2\n      swap1\n      tag_98\n      jump\t// in\n    tag_131:\n      mload(0x40)\n      0x20\n      dup2\n      dup4\n      sub\n      sub\n      dup2\n      mstore\n      swap1\n      0x40\n      mstore\n        /* \"contracts/GiftCardETH.sol\":5967:6067  keccak256(... */\n      dup1\n      mload\n      swap1\n      0x20\n      add\n      keccak256\n        /* \"contracts/GiftCardETH.sol\":5967:6101  keccak256(... */\n      eq\n        /* \"contracts/GiftCardETH.sol\":5967:6256  keccak256(... */\n      dup1\n      tag_132\n      jumpi\n      pop\n        /* \"contracts/GiftCardETH.sol\":6242:6256  senderNameHash */\n      dup4\n        /* \"contracts/GiftCardETH.sol\":6169:6178  giftCards */\n      0x01\n        /* \"contracts/GiftCardETH.sol\":6179:6192  giftCardCodes */\n      0x03\n        /* \"contracts/GiftCardETH.sol\":6193:6194  i */\n      dup4\n        /* \"contracts/GiftCardETH.sol\":6179:6195  giftCardCodes[i] */\n      dup2\n      sload\n      dup2\n      lt\n      tag_133\n      jumpi\n      tag_134\n      tag_104\n      jump\t// in\n    tag_134:\n    tag_133:\n      swap1\n      0x00\n      mstore\n      keccak256(0x00, 0x20)\n      add\n        /* \"contracts/GiftCardETH.sol\":6169:6196  giftCards[giftCardCodes[i]] */\n      mload(0x40)\n      tag_136\n      swap2\n      swap1\n      tag_98\n      jump\t// in\n    tag_136:\n      swap1\n      dup2\n      mstore\n      0x20\n      add\n      mload(0x40)\n      dup1\n      swap2\n      sub\n      swap1\n      keccak256\n        /* \"contracts/GiftCardETH.sol\":6169:6203  giftCards[giftCardCodes[i]].getter */\n      0x03\n      add\n        /* \"contracts/GiftCardETH.sol\":6152:6204  abi.encodePacked(giftCards[giftCardCodes[i]].getter) */\n      add(0x20, mload(0x40))\n      tag_137\n      swap2\n      swap1\n      tag_98\n      jump\t// in\n    tag_137:\n      mload(0x40)\n      0x20\n      dup2\n      dup4\n      sub\n      sub\n      dup2\n      mstore\n      swap1\n      0x40\n      mstore\n        /* \"contracts/GiftCardETH.sol\":6121:6222  keccak256(... */\n      dup1\n      mload\n      swap1\n      0x20\n      add\n      keccak256\n        /* \"contracts/GiftCardETH.sol\":6121:6256  keccak256(... */\n      eq\n        /* \"contracts/GiftCardETH.sol\":5967:6256  keccak256(... */\n    tag_132:\n        /* \"contracts/GiftCardETH.sol\":5946:6373  if (... */\n      iszero\n      tag_138\n      jumpi\n        /* \"contracts/GiftCardETH.sol\":6306:6315  giftCards */\n      0x01\n        /* \"contracts/GiftCardETH.sol\":6316:6329  giftCardCodes */\n      0x03\n        /* \"contracts/GiftCardETH.sol\":6330:6331  i */\n      dup3\n        /* \"contracts/GiftCardETH.sol\":6316:6332  giftCardCodes[i] */\n      dup2\n      sload\n      dup2\n      lt\n      tag_139\n      jumpi\n      tag_140\n      tag_104\n      jump\t// in\n    tag_140:\n    tag_139:\n      swap1\n      0x00\n      mstore\n      keccak256(0x00, 0x20)\n      add\n        /* \"contracts/GiftCardETH.sol\":6306:6333  giftCards[giftCardCodes[i]] */\n      mload(0x40)\n      tag_142\n      swap2\n      swap1\n      tag_98\n      jump\t// in\n    tag_142:\n      swap1\n      dup2\n      mstore\n      0x20\n      add\n      mload(0x40)\n      dup1\n      swap2\n      sub\n      swap1\n      keccak256\n        /* \"contracts/GiftCardETH.sol\":6289:6333  myCards[index] = giftCards[giftCardCodes[i]] */\n      mload(0x40)\n      dup1\n      0x80\n      add\n      0x40\n      mstore\n      swap1\n      dup2\n      0x00\n      dup3\n      add\n      dup1\n      sload\n      tag_143\n      swap1\n      tag_66\n      jump\t// in\n    tag_143:\n      dup1\n      0x1f\n      add\n      0x20\n      dup1\n      swap2\n      div\n      mul\n      0x20\n      add\n      mload(0x40)\n      swap1\n      dup2\n      add\n      0x40\n      mstore\n      dup1\n      swap3\n      swap2\n      swap1\n      dup2\n      dup2\n      mstore\n      0x20\n      add\n      dup3\n      dup1\n      sload\n      tag_144\n      swap1\n      tag_66\n      jump\t// in\n    tag_144:\n      dup1\n      iszero\n      tag_145\n      jumpi\n      dup1\n      0x1f\n      lt\n      tag_146\n      jumpi\n      0x0100\n      dup1\n      dup4\n      sload\n      div\n      mul\n      dup4\n      mstore\n      swap2\n      0x20\n      add\n      swap2\n      jump(tag_145)\n    tag_146:\n      dup3\n      add\n      swap2\n      swap1\n      0x00\n      mstore\n      keccak256(0x00, 0x20)\n      swap1\n    tag_147:\n      dup2\n      sload\n      dup2\n      mstore\n      swap1\n      0x01\n      add\n      swap1\n      0x20\n      add\n      dup1\n      dup4\n      gt\n      tag_147\n      jumpi\n      dup3\n      swap1\n      sub\n      0x1f\n      and\n      dup3\n      add\n      swap2\n    tag_145:\n      pop\n      pop\n      pop\n      pop\n      pop\n      dup2\n      mstore\n      0x20\n      add\n      0x01\n      dup3\n      add\n      sload\n      dup2\n      mstore\n      0x20\n      add\n      0x02\n      dup3\n      add\n      0x00\n      swap1\n      sload\n      swap1\n      0x0100\n      exp\n      swap1\n      div\n      0xff\n      and\n      0x01\n      dup2\n      gt\n      iszero\n      tag_148\n      jumpi\n      tag_149\n      tag_56\n      jump\t// in\n    tag_149:\n    tag_148:\n      0x01\n      dup2\n      gt\n      iszero\n      tag_150\n      jumpi\n      tag_151\n      tag_56\n      jump\t// in\n    tag_151:\n    tag_150:\n      dup2\n      mstore\n      0x20\n      add\n      0x03\n      dup3\n      add\n      dup1\n      sload\n      tag_152\n      swap1\n      tag_66\n      jump\t// in\n    tag_152:\n      dup1\n      0x1f\n      add\n      0x20\n      dup1\n      swap2\n      div\n      mul\n      0x20\n      add\n      mload(0x40)\n      swap1\n      dup2\n      add\n      0x40\n      mstore\n      dup1\n      swap3\n      swap2\n      swap1\n      dup2\n      dup2\n      mstore\n      0x20\n      add\n      dup3\n      dup1\n      sload\n      tag_153\n      swap1\n      tag_66\n      jump\t// in\n    tag_153:\n      dup1\n      iszero\n      tag_154\n      jumpi\n      dup1\n      0x1f\n      lt\n      tag_155\n      jumpi\n      0x0100\n      dup1\n      dup4\n      sload\n      div\n      mul\n      dup4\n      mstore\n      swap2\n      0x20\n      add\n      swap2\n      jump(tag_154)\n    tag_155:\n      dup3\n      add\n      swap2\n      swap1\n      0x00\n      mstore\n      keccak256(0x00, 0x20)\n      swap1\n    tag_156:\n      dup2\n      sload\n      dup2\n      mstore\n      swap1\n      0x01\n      add\n      swap1\n      0x20\n      add\n      dup1\n      dup4\n      gt\n      tag_156\n      jumpi\n      dup3\n      swap1\n      sub\n      0x1f\n      and\n      dup3\n      add\n      swap2\n    tag_154:\n      pop\n      pop\n      pop\n      pop\n      pop\n      dup2\n      mstore\n      pop\n      pop\n        /* \"contracts/GiftCardETH.sol\":6289:6296  myCards */\n      dup4\n        /* \"contracts/GiftCardETH.sol\":6297:6302  index */\n      dup4\n        /* \"contracts/GiftCardETH.sol\":6289:6303  myCards[index] */\n      dup2\n      mload\n      dup2\n      lt\n      tag_157\n      jumpi\n      tag_158\n      tag_104\n      jump\t// in\n    tag_158:\n    tag_157:\n      0x20\n      mul\n      0x20\n      add\n      add\n        /* \"contracts/GiftCardETH.sol\":6289:6333  myCards[index] = giftCards[giftCardCodes[i]] */\n      dup2\n      swap1\n      mstore\n      pop\n        /* \"contracts/GiftCardETH.sol\":6351:6358  index++ */\n      dup2\n      dup1\n      tag_159\n      swap1\n      tag_116\n      jump\t// in\n    tag_159:\n      swap3\n      pop\n      pop\n        /* \"contracts/GiftCardETH.sol\":5946:6373  if (... */\n    tag_138:\n        /* \"contracts/GiftCardETH.sol\":5927:5930  i++ */\n      dup1\n      dup1\n      0x01\n      add\n      swap2\n      pop\n      pop\n        /* \"contracts/GiftCardETH.sol\":5881:6383  for (uint256 i = 0; i < giftCardCodes.length; i++) {... */\n      jump(tag_124)\n    tag_125:\n      pop\n        /* \"contracts/GiftCardETH.sol\":6400:6407  myCards */\n      dup2\n        /* \"contracts/GiftCardETH.sol\":6393:6407  return myCards */\n      swap5\n      pop\n      pop\n      pop\n      pop\n      pop\n        /* \"contracts/GiftCardETH.sol\":5081:6414  function getMyCard()... */\n      swap1\n      jump\t// out\n        /* \"contracts/GiftCardETH.sol\":2733:3497  function getGiftCardByStatus(GiftCardStatus status)... */\n    tag_30:\n        /* \"contracts/GiftCardETH.sol\":2878:2905  GiftCard[] memory giftcards */\n      0x60\n        /* \"contracts/GiftCardETH.sol\":1236:1237  0 */\n      0x00\n        /* \"contracts/GiftCardETH.sol\":1203:1208  users */\n      dup1\n        /* \"contracts/GiftCardETH.sol\":1203:1220  users[msg.sender] */\n      0x00\n        /* \"contracts/GiftCardETH.sol\":1209:1219  msg.sender */\n      caller\n        /* \"contracts/GiftCardETH.sol\":1203:1220  users[msg.sender] */\n      0xffffffffffffffffffffffffffffffffffffffff\n      and\n      0xffffffffffffffffffffffffffffffffffffffff\n      and\n      dup2\n      mstore\n      0x20\n      add\n      swap1\n      dup2\n      mstore\n      0x20\n      add\n      0x00\n      keccak256\n        /* \"contracts/GiftCardETH.sol\":1203:1225  users[msg.sender].name */\n      0x00\n      add\n        /* \"contracts/GiftCardETH.sol\":1197:1233  bytes(users[msg.sender].name).length */\n      dup1\n      sload\n      tag_161\n      swap1\n      tag_66\n      jump\t// in\n    tag_161:\n      swap1\n      pop\n        /* \"contracts/GiftCardETH.sol\":1197:1237  bytes(users[msg.sender].name).length > 0 */\n      gt\n        /* \"contracts/GiftCardETH.sol\":1176:1282  require(... */\n      tag_162\n      jumpi\n      mload(0x40)\n      0x08c379a000000000000000000000000000000000000000000000000000000000\n      dup2\n      mstore\n      0x04\n      add\n      tag_163\n      swap1\n      tag_69\n      jump\t// in\n    tag_163:\n      mload(0x40)\n      dup1\n      swap2\n      sub\n      swap1\n      revert\n    tag_162:\n        /* \"contracts/GiftCardETH.sol\":1387:1401  UserType.ADMIN */\n      0x01\n        /* \"contracts/GiftCardETH.sol\":1357:1401  users[msg.sender].userType == UserType.ADMIN */\n      dup1\n      dup2\n      gt\n      iszero\n      tag_165\n      jumpi\n      tag_166\n      tag_56\n      jump\t// in\n    tag_166:\n    tag_165:\n        /* \"contracts/GiftCardETH.sol\":1357:1362  users */\n      0x00\n        /* \"contracts/GiftCardETH.sol\":1357:1374  users[msg.sender] */\n      dup1\n        /* \"contracts/GiftCardETH.sol\":1363:1373  msg.sender */\n      caller\n        /* \"contracts/GiftCardETH.sol\":1357:1374  users[msg.sender] */\n      0xffffffffffffffffffffffffffffffffffffffff\n      and\n      0xffffffffffffffffffffffffffffffffffffffff\n      and\n      dup2\n      mstore\n      0x20\n      add\n      swap1\n      dup2\n      mstore\n      0x20\n      add\n      0x00\n      keccak256\n        /* \"contracts/GiftCardETH.sol\":1357:1383  users[msg.sender].userType */\n      0x01\n      add\n      0x01\n      swap1\n      sload\n      swap1\n      0x0100\n      exp\n      swap1\n      div\n      0xff\n      and\n        /* \"contracts/GiftCardETH.sol\":1357:1401  users[msg.sender].userType == UserType.ADMIN */\n      0x01\n      dup2\n      gt\n      iszero\n      tag_167\n      jumpi\n      tag_168\n      tag_56\n      jump\t// in\n    tag_168:\n    tag_167:\n      eq\n        /* \"contracts/GiftCardETH.sol\":1336:1447  require(... */\n      tag_169\n      jumpi\n      mload(0x40)\n      0x08c379a000000000000000000000000000000000000000000000000000000000\n      dup2\n      mstore\n      0x04\n      add\n      tag_170\n      swap1\n      tag_171\n      jump\t// in\n    tag_170:\n      mload(0x40)\n      dup1\n      swap2\n      sub\n      swap1\n      revert\n    tag_169:\n        /* \"contracts/GiftCardETH.sol\":2921:2934  uint256 count */\n      0x00\n        /* \"contracts/GiftCardETH.sol\":2948:2962  uint256 length */\n      dup1\n        /* \"contracts/GiftCardETH.sol\":2965:2978  giftCardCodes */\n      0x03\n        /* \"contracts/GiftCardETH.sol\":2965:2985  giftCardCodes.length */\n      dup1\n      sload\n      swap1\n      pop\n        /* \"contracts/GiftCardETH.sol\":2948:2985  uint256 length = giftCardCodes.length */\n      swap1\n      pop\n        /* \"contracts/GiftCardETH.sol\":3000:3009  uint256 i */\n      0x00\n        /* \"contracts/GiftCardETH.sol\":2995:3154  for (uint256 i = 0; i < length; i++) {... */\n    tag_173:\n        /* \"contracts/GiftCardETH.sol\":3019:3025  length */\n      dup2\n        /* \"contracts/GiftCardETH.sol\":3015:3016  i */\n      dup2\n        /* \"contracts/GiftCardETH.sol\":3015:3025  i < length */\n      lt\n        /* \"contracts/GiftCardETH.sol\":2995:3154  for (uint256 i = 0; i < length; i++) {... */\n      iszero\n      tag_174\n      jumpi\n        /* \"contracts/GiftCardETH.sol\":3096:3102  status */\n      dup5\n        /* \"contracts/GiftCardETH.sol\":3050:3102  giftCards[giftCardCodes[i]].giftCardStatus == status */\n      0x01\n      dup2\n      gt\n      iszero\n      tag_176\n      jumpi\n      tag_177\n      tag_56\n      jump\t// in\n    tag_177:\n    tag_176:\n        /* \"contracts/GiftCardETH.sol\":3050:3059  giftCards */\n      0x01\n        /* \"contracts/GiftCardETH.sol\":3060:3073  giftCardCodes */\n      0x03\n        /* \"contracts/GiftCardETH.sol\":3074:3075  i */\n      dup4\n        /* \"contracts/GiftCardETH.sol\":3060:3076  giftCardCodes[i] */\n      dup2\n      sload\n      dup2\n      lt\n      tag_178\n      jumpi\n      tag_179\n      tag_104\n      jump\t// in\n    tag_179:\n    tag_178:\n      swap1\n      0x00\n      mstore\n      keccak256(0x00, 0x20)\n      add\n        /* \"contracts/GiftCardETH.sol\":3050:3077  giftCards[giftCardCodes[i]] */\n      mload(0x40)\n      tag_181\n      swap2\n      swap1\n      tag_98\n      jump\t// in\n    tag_181:\n      swap1\n      dup2\n      mstore\n      0x20\n      add\n      mload(0x40)\n      dup1\n      swap2\n      sub\n      swap1\n      keccak256\n        /* \"contracts/GiftCardETH.sol\":3050:3092  giftCards[giftCardCodes[i]].giftCardStatus */\n      0x02\n      add\n      0x00\n      swap1\n      sload\n      swap1\n      0x0100\n      exp\n      swap1\n      div\n      0xff\n      and\n        /* \"contracts/GiftCardETH.sol\":3050:3102  giftCards[giftCardCodes[i]].giftCardStatus == status */\n      0x01\n      dup2\n      gt\n      iszero\n      tag_182\n      jumpi\n      tag_183\n      tag_56\n      jump\t// in\n    tag_183:\n    tag_182:\n      sub\n        /* \"contracts/GiftCardETH.sol\":3046:3144  if (giftCards[giftCardCodes[i]].giftCardStatus == status) {... */\n      tag_184\n      jumpi\n        /* \"contracts/GiftCardETH.sol\":3122:3129  count++ */\n      dup3\n      dup1\n      tag_185\n      swap1\n      tag_116\n      jump\t// in\n    tag_185:\n      swap4\n      pop\n      pop\n        /* \"contracts/GiftCardETH.sol\":3046:3144  if (giftCards[giftCardCodes[i]].giftCardStatus == status) {... */\n    tag_184:\n        /* \"contracts/GiftCardETH.sol\":3027:3030  i++ */\n      dup1\n      dup1\n      0x01\n      add\n      swap2\n      pop\n      pop\n        /* \"contracts/GiftCardETH.sol\":2995:3154  for (uint256 i = 0; i < length; i++) {... */\n      jump(tag_173)\n    tag_174:\n      pop\n        /* \"contracts/GiftCardETH.sol\":3163:3187  GiftCard[] memory result */\n      0x00\n        /* \"contracts/GiftCardETH.sol\":3205:3210  count */\n      dup3\n        /* \"contracts/GiftCardETH.sol\":3190:3211  new GiftCard[](count) */\n      0xffffffffffffffff\n      dup2\n      gt\n      iszero\n      tag_186\n      jumpi\n      tag_187\n      tag_119\n      jump\t// in\n    tag_187:\n    tag_186:\n      mload(0x40)\n      swap1\n      dup1\n      dup3\n      mstore\n      dup1\n      0x20\n      mul\n      0x20\n      add\n      dup3\n      add\n      0x40\n      mstore\n      dup1\n      iszero\n      tag_188\n      jumpi\n      dup2\n      0x20\n      add\n    tag_189:\n      tag_190\n      tag_123\n      jump\t// in\n    tag_190:\n      dup2\n      mstore\n      0x20\n      add\n      swap1\n      0x01\n      swap1\n      sub\n      swap1\n      dup2\n      tag_189\n      jumpi\n      swap1\n      pop\n    tag_188:\n      pop\n        /* \"contracts/GiftCardETH.sol\":3163:3211  GiftCard[] memory result = new GiftCard[](count) */\n      swap1\n      pop\n        /* \"contracts/GiftCardETH.sol\":3221:3234  uint256 index */\n      0x00\n        /* \"contracts/GiftCardETH.sol\":3253:3262  uint256 i */\n      dup1\n        /* \"contracts/GiftCardETH.sol\":3248:3468  for (uint256 i = 0; i < length; i++) {... */\n    tag_191:\n        /* \"contracts/GiftCardETH.sol\":3272:3278  length */\n      dup4\n        /* \"contracts/GiftCardETH.sol\":3268:3269  i */\n      dup2\n        /* \"contracts/GiftCardETH.sol\":3268:3278  i < length */\n      lt\n        /* \"contracts/GiftCardETH.sol\":3248:3468  for (uint256 i = 0; i < length; i++) {... */\n      iszero\n      tag_192\n      jumpi\n        /* \"contracts/GiftCardETH.sol\":3349:3355  status */\n      dup7\n        /* \"contracts/GiftCardETH.sol\":3303:3355  giftCards[giftCardCodes[i]].giftCardStatus == status */\n      0x01\n      dup2\n      gt\n      iszero\n      tag_194\n      jumpi\n      tag_195\n      tag_56\n      jump\t// in\n    tag_195:\n    tag_194:\n        /* \"contracts/GiftCardETH.sol\":3303:3312  giftCards */\n      0x01\n        /* \"contracts/GiftCardETH.sol\":3313:3326  giftCardCodes */\n      0x03\n        /* \"contracts/GiftCardETH.sol\":3327:3328  i */\n      dup4\n        /* \"contracts/GiftCardETH.sol\":3313:3329  giftCardCodes[i] */\n      dup2\n      sload\n      dup2\n      lt\n      tag_196\n      jumpi\n      tag_197\n      tag_104\n      jump\t// in\n    tag_197:\n    tag_196:\n      swap1\n      0x00\n      mstore\n      keccak256(0x00, 0x20)\n      add\n        /* \"contracts/GiftCardETH.sol\":3303:3330  giftCards[giftCardCodes[i]] */\n      mload(0x40)\n      tag_199\n      swap2\n      swap1\n      tag_98\n      jump\t// in\n    tag_199:\n      swap1\n      dup2\n      mstore\n      0x20\n      add\n      mload(0x40)\n      dup1\n      swap2\n      sub\n      swap1\n      keccak256\n        /* \"contracts/GiftCardETH.sol\":3303:3345  giftCards[giftCardCodes[i]].giftCardStatus */\n      0x02\n      add\n      0x00\n      swap1\n      sload\n      swap1\n      0x0100\n      exp\n      swap1\n      div\n      0xff\n      and\n        /* \"contracts/GiftCardETH.sol\":3303:3355  giftCards[giftCardCodes[i]].giftCardStatus == status */\n      0x01\n      dup2\n      gt\n      iszero\n      tag_200\n      jumpi\n      tag_201\n      tag_56\n      jump\t// in\n    tag_201:\n    tag_200:\n      sub\n        /* \"contracts/GiftCardETH.sol\":3299:3458  if (giftCards[giftCardCodes[i]].giftCardStatus == status) {... */\n      tag_202\n      jumpi\n        /* \"contracts/GiftCardETH.sol\":3391:3400  giftCards */\n      0x01\n        /* \"contracts/GiftCardETH.sol\":3401:3414  giftCardCodes */\n      0x03\n        /* \"contracts/GiftCardETH.sol\":3415:3416  i */\n      dup3\n        /* \"contracts/GiftCardETH.sol\":3401:3417  giftCardCodes[i] */\n      dup2\n      sload\n      dup2\n      lt\n      tag_203\n      jumpi\n      tag_204\n      tag_104\n      jump\t// in\n    tag_204:\n    tag_203:\n      swap1\n      0x00\n      mstore\n      keccak256(0x00, 0x20)\n      add\n        /* \"contracts/GiftCardETH.sol\":3391:3418  giftCards[giftCardCodes[i]] */\n      mload(0x40)\n      tag_206\n      swap2\n      swap1\n      tag_98\n      jump\t// in\n    tag_206:\n      swap1\n      dup2\n      mstore\n      0x20\n      add\n      mload(0x40)\n      dup1\n      swap2\n      sub\n      swap1\n      keccak256\n        /* \"contracts/GiftCardETH.sol\":3375:3418  result[index] = giftCards[giftCardCodes[i]] */\n      mload(0x40)\n      dup1\n      0x80\n      add\n      0x40\n      mstore\n      swap1\n      dup2\n      0x00\n      dup3\n      add\n      dup1\n      sload\n      tag_207\n      swap1\n      tag_66\n      jump\t// in\n    tag_207:\n      dup1\n      0x1f\n      add\n      0x20\n      dup1\n      swap2\n      div\n      mul\n      0x20\n      add\n      mload(0x40)\n      swap1\n      dup2\n      add\n      0x40\n      mstore\n      dup1\n      swap3\n      swap2\n      swap1\n      dup2\n      dup2\n      mstore\n      0x20\n      add\n      dup3\n      dup1\n      sload\n      tag_208\n      swap1\n      tag_66\n      jump\t// in\n    tag_208:\n      dup1\n      iszero\n      tag_209\n      jumpi\n      dup1\n      0x1f\n      lt\n      tag_210\n      jumpi\n      0x0100\n      dup1\n      dup4\n      sload\n      div\n      mul\n      dup4\n      mstore\n      swap2\n      0x20\n      add\n      swap2\n      jump(tag_209)\n    tag_210:\n      dup3\n      add\n      swap2\n      swap1\n      0x00\n      mstore\n      keccak256(0x00, 0x20)\n      swap1\n    tag_211:\n      dup2\n      sload\n      dup2\n      mstore\n      swap1\n      0x01\n      add\n      swap1\n      0x20\n      add\n      dup1\n      dup4\n      gt\n      tag_211\n      jumpi\n      dup3\n      swap1\n      sub\n      0x1f\n      and\n      dup3\n      add\n      swap2\n    tag_209:\n      pop\n      pop\n      pop\n      pop\n      pop\n      dup2\n      mstore\n      0x20\n      add\n      0x01\n      dup3\n      add\n      sload\n      dup2\n      mstore\n      0x20\n      add\n      0x02\n      dup3\n      add\n      0x00\n      swap1\n      sload\n      swap1\n      0x0100\n      exp\n      swap1\n      div\n      0xff\n      and\n      0x01\n      dup2\n      gt\n      iszero\n      tag_212\n      jumpi\n      tag_213\n      tag_56\n      jump\t// in\n    tag_213:\n    tag_212:\n      0x01\n      dup2\n      gt\n      iszero\n      tag_214\n      jumpi\n      tag_215\n      tag_56\n      jump\t// in\n    tag_215:\n    tag_214:\n      dup2\n      mstore\n      0x20\n      add\n      0x03\n      dup3\n      add\n      dup1\n      sload\n      tag_216\n      swap1\n      tag_66\n      jump\t// in\n    tag_216:\n      dup1\n      0x1f\n      add\n      0x20\n      dup1\n      swap2\n      div\n      mul\n      0x20\n      add\n      mload(0x40)\n      swap1\n      dup2\n      add\n      0x40\n      mstore\n      dup1\n      swap3\n      swap2\n      swap1\n      dup2\n      dup2\n      mstore\n      0x20\n      add\n      dup3\n      dup1\n      sload\n      tag_217\n      swap1\n      tag_66\n      jump\t// in\n    tag_217:\n      dup1\n      iszero\n      tag_218\n      jumpi\n      dup1\n      0x1f\n      lt\n      tag_219\n      jumpi\n      0x0100\n      dup1\n      dup4\n      sload\n      div\n      mul\n      dup4\n      mstore\n      swap2\n      0x20\n      add\n      swap2\n      jump(tag_218)\n    tag_219:\n      dup3\n      add\n      swap2\n      swap1\n      0x00\n      mstore\n      keccak256(0x00, 0x20)\n      swap1\n    tag_220:\n      dup2\n      sload\n      dup2\n      mstore\n      swap1\n      0x01\n      add\n      swap1\n      0x20\n      add\n      dup1\n      dup4\n      gt\n      tag_220\n      jumpi\n      dup3\n      swap1\n      sub\n      0x1f\n      and\n      dup3\n      add\n      swap2\n    tag_218:\n      pop\n      pop\n      pop\n      pop\n      pop\n      dup2\n      mstore\n      pop\n      pop\n        /* \"contracts/GiftCardETH.sol\":3375:3381  result */\n      dup4\n        /* \"contracts/GiftCardETH.sol\":3382:3387  index */\n      dup4\n        /* \"contracts/GiftCardETH.sol\":3375:3388  result[index] */\n      dup2\n      mload\n      dup2\n      lt\n      tag_221\n      jumpi\n      tag_222\n      tag_104\n      jump\t// in\n    tag_222:\n    tag_221:\n      0x20\n      mul\n      0x20\n      add\n      add\n        /* \"contracts/GiftCardETH.sol\":3375:3418  result[index] = giftCards[giftCardCodes[i]] */\n      dup2\n      swap1\n      mstore\n      pop\n        /* \"contracts/GiftCardETH.sol\":3436:3443  index++ */\n      dup2\n      dup1\n      tag_223\n      swap1\n      tag_116\n      jump\t// in\n    tag_223:\n      swap3\n      pop\n      pop\n        /* \"contracts/GiftCardETH.sol\":3299:3458  if (giftCards[giftCardCodes[i]].giftCardStatus == status) {... */\n    tag_202:\n        /* \"contracts/GiftCardETH.sol\":3280:3283  i++ */\n      dup1\n      dup1\n      0x01\n      add\n      swap2\n      pop\n      pop\n        /* \"contracts/GiftCardETH.sol\":3248:3468  for (uint256 i = 0; i < length; i++) {... */\n      jump(tag_191)\n    tag_192:\n      pop\n        /* \"contracts/GiftCardETH.sol\":3484:3490  result */\n      dup2\n        /* \"contracts/GiftCardETH.sol\":3477:3490  return result */\n      swap5\n      pop\n      pop\n      pop\n      pop\n      pop\n        /* \"contracts/GiftCardETH.sol\":2733:3497  function getGiftCardByStatus(GiftCardStatus status)... */\n      swap2\n      swap1\n      pop\n      jump\t// out\n        /* \"contracts/GiftCardETH.sol\":2305:2485  function registration(string calldata name, Gender gender) external {... */\n    tag_36:\n        /* \"contracts/GiftCardETH.sol\":2383:2396  userAddresses */\n      0x04\n        /* \"contracts/GiftCardETH.sol\":2402:2412  msg.sender */\n      caller\n        /* \"contracts/GiftCardETH.sol\":2383:2413  userAddresses.push(msg.sender) */\n      swap1\n      dup1\n      0x01\n      dup2\n      sload\n      add\n      dup1\n      dup3\n      sstore\n      dup1\n      swap2\n      pop\n      pop\n      0x01\n      swap1\n      sub\n      swap1\n      0x00\n      mstore\n      keccak256(0x00, 0x20)\n      add\n      0x00\n      swap1\n      swap2\n      swap1\n      swap2\n      swap1\n      swap2\n      0x0100\n      exp\n      dup2\n      sload\n      dup2\n      0xffffffffffffffffffffffffffffffffffffffff\n      mul\n      not\n      and\n      swap1\n      dup4\n      0xffffffffffffffffffffffffffffffffffffffff\n      and\n      mul\n      or\n      swap1\n      sstore\n      pop\n        /* \"contracts/GiftCardETH.sol\":2443:2478  User(name, gender, UserType.NORMAL) */\n      mload(0x40)\n      dup1\n      0x60\n      add\n      0x40\n      mstore\n      dup1\n        /* \"contracts/GiftCardETH.sol\":2448:2452  name */\n      dup5\n      dup5\n        /* \"contracts/GiftCardETH.sol\":2443:2478  User(name, gender, UserType.NORMAL) */\n      dup1\n      dup1\n      0x1f\n      add\n      0x20\n      dup1\n      swap2\n      div\n      mul\n      0x20\n      add\n      mload(0x40)\n      swap1\n      dup2\n      add\n      0x40\n      mstore\n      dup1\n      swap4\n      swap3\n      swap2\n      swap1\n      dup2\n      dup2\n      mstore\n      0x20\n      add\n      dup4\n      dup4\n      dup1\n      dup3\n      dup5\n      calldatacopy\n      0x00\n      dup2\n      dup5\n      add\n      mstore\n      not(0x1f)\n      0x1f\n      dup3\n      add\n      and\n      swap1\n      pop\n      dup1\n      dup4\n      add\n      swap3\n      pop\n      pop\n      pop\n      pop\n      pop\n      pop\n      pop\n      dup2\n      mstore\n      0x20\n      add\n        /* \"contracts/GiftCardETH.sol\":2454:2460  gender */\n      dup3\n        /* \"contracts/GiftCardETH.sol\":2443:2478  User(name, gender, UserType.NORMAL) */\n      0x01\n      dup2\n      gt\n      iszero\n      tag_226\n      jumpi\n      tag_227\n      tag_56\n      jump\t// in\n    tag_227:\n    tag_226:\n      dup2\n      mstore\n      0x20\n      add\n        /* \"contracts/GiftCardETH.sol\":2462:2477  UserType.NORMAL */\n      0x00\n        /* \"contracts/GiftCardETH.sol\":2443:2478  User(name, gender, UserType.NORMAL) */\n      0x01\n      dup2\n      gt\n      iszero\n      tag_228\n      jumpi\n      tag_229\n      tag_56\n      jump\t// in\n    tag_229:\n    tag_228:\n      dup2\n      mstore\n      pop\n        /* \"contracts/GiftCardETH.sol\":2423:2428  users */\n      0x00\n        /* \"contracts/GiftCardETH.sol\":2423:2440  users[msg.sender] */\n      dup1\n        /* \"contracts/GiftCardETH.sol\":2429:2439  msg.sender */\n      caller\n        /* \"contracts/GiftCardETH.sol\":2423:2440  users[msg.sender] */\n      0xffffffffffffffffffffffffffffffffffffffff\n      and\n      0xffffffffffffffffffffffffffffffffffffffff\n      and\n      dup2\n      mstore\n      0x20\n      add\n      swap1\n      dup2\n      mstore\n      0x20\n      add\n      0x00\n      keccak256\n        /* \"contracts/GiftCardETH.sol\":2423:2478  users[msg.sender] = User(name, gender, UserType.NORMAL) */\n      0x00\n      dup3\n      add\n      mload\n      dup2\n      0x00\n      add\n      swap1\n      dup2\n      tag_230\n      swap2\n      swap1\n      tag_231\n      jump\t// in\n    tag_230:\n      pop\n      0x20\n      dup3\n      add\n      mload\n      dup2\n      0x01\n      add\n      exp(0x0100, 0x00)\n      dup2\n      sload\n      dup2\n      0xff\n      mul\n      not\n      and\n      swap1\n      dup4\n      0x01\n      dup2\n      gt\n      iszero\n      tag_232\n      jumpi\n      tag_233\n      tag_56\n      jump\t// in\n    tag_233:\n    tag_232:\n      mul\n      or\n      swap1\n      sstore\n      pop\n      0x40\n      dup3\n      add\n      mload\n      dup2\n      0x01\n      add\n      exp(0x0100, 0x01)\n      dup2\n      sload\n      dup2\n      0xff\n      mul\n      not\n      and\n      swap1\n      dup4\n      0x01\n      dup2\n      gt\n      iszero\n      tag_234\n      jumpi\n      tag_235\n      tag_56\n      jump\t// in\n    tag_235:\n    tag_234:\n      mul\n      or\n      swap1\n      sstore\n      pop\n      swap1\n      pop\n      pop\n        /* \"contracts/GiftCardETH.sol\":2305:2485  function registration(string calldata name, Gender gender) external {... */\n      pop\n      pop\n      pop\n      jump\t// out\n        /* \"contracts/GiftCardETH.sol\":4836:5075  function buyGiftCard() external payable registeredUsersOnly {... */\n    tag_38:\n        /* \"contracts/GiftCardETH.sol\":1236:1237  0 */\n      0x00\n        /* \"contracts/GiftCardETH.sol\":1203:1208  users */\n      dup1\n        /* \"contracts/GiftCardETH.sol\":1203:1220  users[msg.sender] */\n      0x00\n        /* \"contracts/GiftCardETH.sol\":1209:1219  msg.sender */\n      caller\n        /* \"contracts/GiftCardETH.sol\":1203:1220  users[msg.sender] */\n      0xffffffffffffffffffffffffffffffffffffffff\n      and\n      0xffffffffffffffffffffffffffffffffffffffff\n      and\n      dup2\n      mstore\n      0x20\n      add\n      swap1\n      dup2\n      mstore\n      0x20\n      add\n      0x00\n      keccak256\n        /* \"contracts/GiftCardETH.sol\":1203:1225  users[msg.sender].name */\n      0x00\n      add\n        /* \"contracts/GiftCardETH.sol\":1197:1233  bytes(users[msg.sender].name).length */\n      dup1\n      sload\n      tag_237\n      swap1\n      tag_66\n      jump\t// in\n    tag_237:\n      swap1\n      pop\n        /* \"contracts/GiftCardETH.sol\":1197:1237  bytes(users[msg.sender].name).length > 0 */\n      gt\n        /* \"contracts/GiftCardETH.sol\":1176:1282  require(... */\n      tag_238\n      jumpi\n      mload(0x40)\n      0x08c379a000000000000000000000000000000000000000000000000000000000\n      dup2\n      mstore\n      0x04\n      add\n      tag_239\n      swap1\n      tag_69\n      jump\t// in\n    tag_239:\n      mload(0x40)\n      dup1\n      swap2\n      sub\n      swap1\n      revert\n    tag_238:\n        /* \"contracts/GiftCardETH.sol\":4906:4920  uint256 amount */\n      0x00\n        /* \"contracts/GiftCardETH.sol\":4942:4945  100 */\n      0x64\n        /* \"contracts/GiftCardETH.sol\":4936:4938  90 */\n      0x5a\n        /* \"contracts/GiftCardETH.sol\":4924:4933  msg.value */\n      callvalue\n        /* \"contracts/GiftCardETH.sol\":4924:4938  msg.value * 90 */\n      tag_241\n      swap2\n      swap1\n      tag_242\n      jump\t// in\n    tag_241:\n        /* \"contracts/GiftCardETH.sol\":4923:4945  (msg.value * 90) / 100 */\n      tag_243\n      swap2\n      swap1\n      tag_244\n      jump\t// in\n    tag_243:\n        /* \"contracts/GiftCardETH.sol\":4906:4945  uint256 amount = (msg.value * 90) / 100 */\n      swap1\n      pop\n        /* \"contracts/GiftCardETH.sol\":4955:4973  string memory code */\n      0x00\n        /* \"contracts/GiftCardETH.sol\":4976:4998  generateGiftCardCode() */\n      tag_245\n        /* \"contracts/GiftCardETH.sol\":4976:4996  generateGiftCardCode */\n      tag_246\n        /* \"contracts/GiftCardETH.sol\":4976:4998  generateGiftCardCode() */\n      jump\t// in\n    tag_245:\n        /* \"contracts/GiftCardETH.sol\":4955:4998  string memory code = generateGiftCardCode() */\n      swap1\n      pop\n        /* \"contracts/GiftCardETH.sol\":5008:5029  addCard(code, amount) */\n      tag_247\n        /* \"contracts/GiftCardETH.sol\":5016:5020  code */\n      dup2\n        /* \"contracts/GiftCardETH.sol\":5022:5028  amount */\n      dup4\n        /* \"contracts/GiftCardETH.sol\":5008:5015  addCard */\n      tag_248\n        /* \"contracts/GiftCardETH.sol\":5008:5029  addCard(code, amount) */\n      jump\t// in\n    tag_247:\n        /* \"contracts/GiftCardETH.sol\":5044:5068  CardBought(code, amount) */\n      0x19446f6741eca6d71b8406898c4308b5f1b9844f9f1ea7614b48264e453b9bd2\n        /* \"contracts/GiftCardETH.sol\":5055:5059  code */\n      dup2\n        /* \"contracts/GiftCardETH.sol\":5061:5067  amount */\n      dup4\n        /* \"contracts/GiftCardETH.sol\":5044:5068  CardBought(code, amount) */\n      mload(0x40)\n      tag_249\n      swap3\n      swap2\n      swap1\n      tag_250\n      jump\t// in\n    tag_249:\n      mload(0x40)\n      dup1\n      swap2\n      sub\n      swap1\n      log1\n        /* \"contracts/GiftCardETH.sol\":4896:5075  {... */\n      pop\n      pop\n        /* \"contracts/GiftCardETH.sol\":4836:5075  function buyGiftCard() external payable registeredUsersOnly {... */\n      jump\t// out\n        /* \"contracts/GiftCardETH.sol\":3503:3902  function getAllGiftCards()... */\n    tag_41:\n        /* \"contracts/GiftCardETH.sol\":3623:3650  GiftCard[] memory giftcards */\n      0x60\n        /* \"contracts/GiftCardETH.sol\":1236:1237  0 */\n      0x00\n        /* \"contracts/GiftCardETH.sol\":1203:1208  users */\n      dup1\n        /* \"contracts/GiftCardETH.sol\":1203:1220  users[msg.sender] */\n      0x00\n        /* \"contracts/GiftCardETH.sol\":1209:1219  msg.sender */\n      caller\n        /* \"contracts/GiftCardETH.sol\":1203:1220  users[msg.sender] */\n      0xffffffffffffffffffffffffffffffffffffffff\n      and\n      0xffffffffffffffffffffffffffffffffffffffff\n      and\n      dup2\n      mstore\n      0x20\n      add\n      swap1\n      dup2\n      mstore\n      0x20\n      add\n      0x00\n      keccak256\n        /* \"contracts/GiftCardETH.sol\":1203:1225  users[msg.sender].name */\n      0x00\n      add\n        /* \"contracts/GiftCardETH.sol\":1197:1233  bytes(users[msg.sender].name).length */\n      dup1\n      sload\n      tag_252\n      swap1\n      tag_66\n      jump\t// in\n    tag_252:\n      swap1\n      pop\n        /* \"contracts/GiftCardETH.sol\":1197:1237  bytes(users[msg.sender].name).length > 0 */\n      gt\n        /* \"contracts/GiftCardETH.sol\":1176:1282  require(... */\n      tag_253\n      jumpi\n      mload(0x40)\n      0x08c379a000000000000000000000000000000000000000000000000000000000\n      dup2\n      mstore\n      0x04\n      add\n      tag_254\n      swap1\n      tag_69\n      jump\t// in\n    tag_254:\n      mload(0x40)\n      dup1\n      swap2\n      sub\n      swap1\n      revert\n    tag_253:\n        /* \"contracts/GiftCardETH.sol\":1387:1401  UserType.ADMIN */\n      0x01\n        /* \"contracts/GiftCardETH.sol\":1357:1401  users[msg.sender].userType == UserType.ADMIN */\n      dup1\n      dup2\n      gt\n      iszero\n      tag_256\n      jumpi\n      tag_257\n      tag_56\n      jump\t// in\n    tag_257:\n    tag_256:\n        /* \"contracts/GiftCardETH.sol\":1357:1362  users */\n      0x00\n        /* \"contracts/GiftCardETH.sol\":1357:1374  users[msg.sender] */\n      dup1\n        /* \"contracts/GiftCardETH.sol\":1363:1373  msg.sender */\n      caller\n        /* \"contracts/GiftCardETH.sol\":1357:1374  users[msg.sender] */\n      0xffffffffffffffffffffffffffffffffffffffff\n      and\n      0xffffffffffffffffffffffffffffffffffffffff\n      and\n      dup2\n      mstore\n      0x20\n      add\n      swap1\n      dup2\n      mstore\n      0x20\n      add\n      0x00\n      keccak256\n        /* \"contracts/GiftCardETH.sol\":1357:1383  users[msg.sender].userType */\n      0x01\n      add\n      0x01\n      swap1\n      sload\n      swap1\n      0x0100\n      exp\n      swap1\n      div\n      0xff\n      and\n        /* \"contracts/GiftCardETH.sol\":1357:1401  users[msg.sender].userType == UserType.ADMIN */\n      0x01\n      dup2\n      gt\n      iszero\n      tag_258\n      jumpi\n      tag_259\n      tag_56\n      jump\t// in\n    tag_259:\n    tag_258:\n      eq\n        /* \"contracts/GiftCardETH.sol\":1336:1447  require(... */\n      tag_260\n      jumpi\n      mload(0x40)\n      0x08c379a000000000000000000000000000000000000000000000000000000000\n      dup2\n      mstore\n      0x04\n      add\n      tag_261\n      swap1\n      tag_171\n      jump\t// in\n    tag_261:\n      mload(0x40)\n      dup1\n      swap2\n      sub\n      swap1\n      revert\n    tag_260:\n        /* \"contracts/GiftCardETH.sol\":3666:3680  uint256 length */\n      0x00\n        /* \"contracts/GiftCardETH.sol\":3683:3696  giftCardCodes */\n      0x03\n        /* \"contracts/GiftCardETH.sol\":3683:3703  giftCardCodes.length */\n      dup1\n      sload\n      swap1\n      pop\n        /* \"contracts/GiftCardETH.sol\":3666:3703  uint256 length = giftCardCodes.length */\n      swap1\n      pop\n        /* \"contracts/GiftCardETH.sol\":3713:3737  GiftCard[] memory result */\n      0x00\n        /* \"contracts/GiftCardETH.sol\":3755:3761  length */\n      dup2\n        /* \"contracts/GiftCardETH.sol\":3740:3762  new GiftCard[](length) */\n      0xffffffffffffffff\n      dup2\n      gt\n      iszero\n      tag_263\n      jumpi\n      tag_264\n      tag_119\n      jump\t// in\n    tag_264:\n    tag_263:\n      mload(0x40)\n      swap1\n      dup1\n      dup3\n      mstore\n      dup1\n      0x20\n      mul\n      0x20\n      add\n      dup3\n      add\n      0x40\n      mstore\n      dup1\n      iszero\n      tag_265\n      jumpi\n      dup2\n      0x20\n      add\n    tag_266:\n      tag_267\n      tag_123\n      jump\t// in\n    tag_267:\n      dup2\n      mstore\n      0x20\n      add\n      swap1\n      0x01\n      swap1\n      sub\n      swap1\n      dup2\n      tag_266\n      jumpi\n      swap1\n      pop\n    tag_265:\n      pop\n        /* \"contracts/GiftCardETH.sol\":3713:3762  GiftCard[] memory result = new GiftCard[](length) */\n      swap1\n      pop\n        /* \"contracts/GiftCardETH.sol\":3777:3786  uint256 i */\n      0x00\n        /* \"contracts/GiftCardETH.sol\":3772:3873  for (uint256 i = 0; i < length; i++) {... */\n    tag_268:\n        /* \"contracts/GiftCardETH.sol\":3796:3802  length */\n      dup3\n        /* \"contracts/GiftCardETH.sol\":3792:3793  i */\n      dup2\n        /* \"contracts/GiftCardETH.sol\":3792:3802  i < length */\n      lt\n        /* \"contracts/GiftCardETH.sol\":3772:3873  for (uint256 i = 0; i < length; i++) {... */\n      iszero\n      tag_269\n      jumpi\n        /* \"contracts/GiftCardETH.sol\":3835:3844  giftCards */\n      0x01\n        /* \"contracts/GiftCardETH.sol\":3845:3858  giftCardCodes */\n      0x03\n        /* \"contracts/GiftCardETH.sol\":3859:3860  i */\n      dup3\n        /* \"contracts/GiftCardETH.sol\":3845:3861  giftCardCodes[i] */\n      dup2\n      sload\n      dup2\n      lt\n      tag_271\n      jumpi\n      tag_272\n      tag_104\n      jump\t// in\n    tag_272:\n    tag_271:\n      swap1\n      0x00\n      mstore\n      keccak256(0x00, 0x20)\n      add\n        /* \"contracts/GiftCardETH.sol\":3835:3862  giftCards[giftCardCodes[i]] */\n      mload(0x40)\n      tag_274\n      swap2\n      swap1\n      tag_98\n      jump\t// in\n    tag_274:\n      swap1\n      dup2\n      mstore\n      0x20\n      add\n      mload(0x40)\n      dup1\n      swap2\n      sub\n      swap1\n      keccak256\n        /* \"contracts/GiftCardETH.sol\":3823:3862  result[i] = giftCards[giftCardCodes[i]] */\n      mload(0x40)\n      dup1\n      0x80\n      add\n      0x40\n      mstore\n      swap1\n      dup2\n      0x00\n      dup3\n      add\n      dup1\n      sload\n      tag_275\n      swap1\n      tag_66\n      jump\t// in\n    tag_275:\n      dup1\n      0x1f\n      add\n      0x20\n      dup1\n      swap2\n      div\n      mul\n      0x20\n      add\n      mload(0x40)\n      swap1\n      dup2\n      add\n      0x40\n      mstore\n      dup1\n      swap3\n      swap2\n      swap1\n      dup2\n      dup2\n      mstore\n      0x20\n      add\n      dup3\n      dup1\n      sload\n      tag_276\n      swap1\n      tag_66\n      jump\t// in\n    tag_276:\n      dup1\n      iszero\n      tag_277\n      jumpi\n      dup1\n      0x1f\n      lt\n      tag_278\n      jumpi\n      0x0100\n      dup1\n      dup4\n      sload\n      div\n      mul\n      dup4\n      mstore\n      swap2\n      0x20\n      add\n      swap2\n      jump(tag_277)\n    tag_278:\n      dup3\n      add\n      swap2\n      swap1\n      0x00\n      mstore\n      keccak256(0x00, 0x20)\n      swap1\n    tag_279:\n      dup2\n      sload\n      dup2\n      mstore\n      swap1\n      0x01\n      add\n      swap1\n      0x20\n      add\n      dup1\n      dup4\n      gt\n      tag_279\n      jumpi\n      dup3\n      swap1\n      sub\n      0x1f\n      and\n      dup3\n      add\n      swap2\n    tag_277:\n      pop\n      pop\n      pop\n      pop\n      pop\n      dup2\n      mstore\n      0x20\n      add\n      0x01\n      dup3\n      add\n      sload\n      dup2\n      mstore\n      0x20\n      add\n      0x02\n      dup3\n      add\n      0x00\n      swap1\n      sload\n      swap1\n      0x0100\n      exp\n      swap1\n      div\n      0xff\n      and\n      0x01\n      dup2\n      gt\n      iszero\n      tag_280\n      jumpi\n      tag_281\n      tag_56\n      jump\t// in\n    tag_281:\n    tag_280:\n      0x01\n      dup2\n      gt\n      iszero\n      tag_282\n      jumpi\n      tag_283\n      tag_56\n      jump\t// in\n    tag_283:\n    tag_282:\n      dup2\n      mstore\n      0x20\n      add\n      0x03\n      dup3\n      add\n      dup1\n      sload\n      tag_284\n      swap1\n      tag_66\n      jump\t// in\n    tag_284:\n      dup1\n      0x1f\n      add\n      0x20\n      dup1\n      swap2\n      div\n      mul\n      0x20\n      add\n      mload(0x40)\n      swap1\n      dup2\n      add\n      0x40\n      mstore\n      dup1\n      swap3\n      swap2\n      swap1\n      dup2\n      dup2\n      mstore\n      0x20\n      add\n      dup3\n      dup1\n      sload\n      tag_285\n      swap1\n      tag_66\n      jump\t// in\n    tag_285:\n      dup1\n      iszero\n      tag_286\n      jumpi\n      dup1\n      0x1f\n      lt\n      tag_287\n      jumpi\n      0x0100\n      dup1\n      dup4\n      sload\n      div\n      mul\n      dup4\n      mstore\n      swap2\n      0x20\n      add\n      swap2\n      jump(tag_286)\n    tag_287:\n      dup3\n      add\n      swap2\n      swap1\n      0x00\n      mstore\n      keccak256(0x00, 0x20)\n      swap1\n    tag_288:\n      dup2\n      sload\n      dup2\n      mstore\n      swap1\n      0x01\n      add\n      swap1\n      0x20\n      add\n      dup1\n      dup4\n      gt\n      tag_288\n      jumpi\n      dup3\n      swap1\n      sub\n      0x1f\n      and\n      dup3\n      add\n      swap2\n    tag_286:\n      pop\n      pop\n      pop\n      pop\n      pop\n      dup2\n      mstore\n      pop\n      pop\n        /* \"contracts/GiftCardETH.sol\":3823:3829  result */\n      dup3\n        /* \"contracts/GiftCardETH.sol\":3830:3831  i */\n      dup3\n        /* \"contracts/GiftCardETH.sol\":3823:3832  result[i] */\n      dup2\n      mload\n      dup2\n      lt\n      tag_289\n      jumpi\n      tag_290\n      tag_104\n      jump\t// in\n    tag_290:\n    tag_289:\n      0x20\n      mul\n      0x20\n      add\n      add\n        /* \"contracts/GiftCardETH.sol\":3823:3862  result[i] = giftCards[giftCardCodes[i]] */\n      dup2\n      swap1\n      mstore\n      pop\n        /* \"contracts/GiftCardETH.sol\":3804:3807  i++ */\n      dup1\n      dup1\n      0x01\n      add\n      swap2\n      pop\n      pop\n        /* \"contracts/GiftCardETH.sol\":3772:3873  for (uint256 i = 0; i < length; i++) {... */\n      jump(tag_268)\n    tag_269:\n      pop\n        /* \"contracts/GiftCardETH.sol\":3889:3895  result */\n      dup1\n        /* \"contracts/GiftCardETH.sol\":3882:3895  return result */\n      swap3\n      pop\n      pop\n      pop\n        /* \"contracts/GiftCardETH.sol\":3503:3902  function getAllGiftCards()... */\n      swap1\n      jump\t// out\n        /* \"contracts/GiftCardETH.sol\":2491:2625  function isAdmin() public view registeredUsersOnly returns (bool) {... */\n    tag_45:\n        /* \"contracts/GiftCardETH.sol\":2551:2555  bool */\n      0x00\n        /* \"contracts/GiftCardETH.sol\":1236:1237  0 */\n      dup1\n        /* \"contracts/GiftCardETH.sol\":1203:1208  users */\n      0x00\n        /* \"contracts/GiftCardETH.sol\":1203:1220  users[msg.sender] */\n      dup1\n        /* \"contracts/GiftCardETH.sol\":1209:1219  msg.sender */\n      caller\n        /* \"contracts/GiftCardETH.sol\":1203:1220  users[msg.sender] */\n      0xffffffffffffffffffffffffffffffffffffffff\n      and\n      0xffffffffffffffffffffffffffffffffffffffff\n      and\n      dup2\n      mstore\n      0x20\n      add\n      swap1\n      dup2\n      mstore\n      0x20\n      add\n      0x00\n      keccak256\n        /* \"contracts/GiftCardETH.sol\":1203:1225  users[msg.sender].name */\n      0x00\n      add\n        /* \"contracts/GiftCardETH.sol\":1197:1233  bytes(users[msg.sender].name).length */\n      dup1\n      sload\n      tag_292\n      swap1\n      tag_66\n      jump\t// in\n    tag_292:\n      swap1\n      pop\n        /* \"contracts/GiftCardETH.sol\":1197:1237  bytes(users[msg.sender].name).length > 0 */\n      gt\n        /* \"contracts/GiftCardETH.sol\":1176:1282  require(... */\n      tag_293\n      jumpi\n      mload(0x40)\n      0x08c379a000000000000000000000000000000000000000000000000000000000\n      dup2\n      mstore\n      0x04\n      add\n      tag_294\n      swap1\n      tag_69\n      jump\t// in\n    tag_294:\n      mload(0x40)\n      dup1\n      swap2\n      sub\n      swap1\n      revert\n    tag_293:\n        /* \"contracts/GiftCardETH.sol\":2604:2618  UserType.ADMIN */\n      0x01\n        /* \"contracts/GiftCardETH.sol\":2574:2618  users[msg.sender].userType == UserType.ADMIN */\n      dup1\n      dup2\n      gt\n      iszero\n      tag_296\n      jumpi\n      tag_297\n      tag_56\n      jump\t// in\n    tag_297:\n    tag_296:\n        /* \"contracts/GiftCardETH.sol\":2574:2579  users */\n      0x00\n        /* \"contracts/GiftCardETH.sol\":2574:2591  users[msg.sender] */\n      dup1\n        /* \"contracts/GiftCardETH.sol\":2580:2590  msg.sender */\n      caller\n        /* \"contracts/GiftCardETH.sol\":2574:2591  users[msg.sender] */\n      0xffffffffffffffffffffffffffffffffffffffff\n      and\n      0xffffffffffffffffffffffffffffffffffffffff\n      and\n      dup2\n      mstore\n      0x20\n      add\n      swap1\n      dup2\n      mstore\n      0x20\n      add\n      0x00\n      keccak256\n        /* \"contracts/GiftCardETH.sol\":2574:2600  users[msg.sender].userType */\n      0x01\n      add\n      0x01\n      swap1\n      sload\n      swap1\n      0x0100\n      exp\n      swap1\n      div\n      0xff\n      and\n        /* \"contracts/GiftCardETH.sol\":2574:2618  users[msg.sender].userType == UserType.ADMIN */\n      0x01\n      dup2\n      gt\n      iszero\n      tag_298\n      jumpi\n      tag_299\n      tag_56\n      jump\t// in\n    tag_299:\n    tag_298:\n      eq\n        /* \"contracts/GiftCardETH.sol\":2567:2618  return users[msg.sender].userType == UserType.ADMIN */\n      swap1\n      pop\n        /* \"contracts/GiftCardETH.sol\":2491:2625  function isAdmin() public view registeredUsersOnly returns (bool) {... */\n      swap1\n      jump\t// out\n        /* \"contracts/GiftCardETH.sol\":2631:2727  function getMyData() public view returns (User memory) {... */\n    tag_50:\n        /* \"contracts/GiftCardETH.sol\":2673:2684  User memory */\n      tag_300\n      tag_301\n      jump\t// in\n    tag_300:\n        /* \"contracts/GiftCardETH.sol\":2703:2708  users */\n      0x00\n        /* \"contracts/GiftCardETH.sol\":2703:2720  users[msg.sender] */\n      dup1\n        /* \"contracts/GiftCardETH.sol\":2709:2719  msg.sender */\n      caller\n        /* \"contracts/GiftCardETH.sol\":2703:2720  users[msg.sender] */\n      0xffffffffffffffffffffffffffffffffffffffff\n      and\n      0xffffffffffffffffffffffffffffffffffffffff\n      and\n      dup2\n      mstore\n      0x20\n      add\n      swap1\n      dup2\n      mstore\n      0x20\n      add\n      0x00\n      keccak256\n        /* \"contracts/GiftCardETH.sol\":2696:2720  return users[msg.sender] */\n      mload(0x40)\n      dup1\n      0x60\n      add\n      0x40\n      mstore\n      swap1\n      dup2\n      0x00\n      dup3\n      add\n      dup1\n      sload\n      tag_303\n      swap1\n      tag_66\n      jump\t// in\n    tag_303:\n      dup1\n      0x1f\n      add\n      0x20\n      dup1\n      swap2\n      div\n      mul\n      0x20\n      add\n      mload(0x40)\n      swap1\n      dup2\n      add\n      0x40\n      mstore\n      dup1\n      swap3\n      swap2\n      swap1\n      dup2\n      dup2\n      mstore\n      0x20\n      add\n      dup3\n      dup1\n      sload\n      tag_304\n      swap1\n      tag_66\n      jump\t// in\n    tag_304:\n      dup1\n      iszero\n      tag_305\n      jumpi\n      dup1\n      0x1f\n      lt\n      tag_306\n      jumpi\n      0x0100\n      dup1\n      dup4\n      sload\n      div\n      mul\n      dup4\n      mstore\n      swap2\n      0x20\n      add\n      swap2\n      jump(tag_305)\n    tag_306:\n      dup3\n      add\n      swap2\n      swap1\n      0x00\n      mstore\n      keccak256(0x00, 0x20)\n      swap1\n    tag_307:\n      dup2\n      sload\n      dup2\n      mstore\n      swap1\n      0x01\n      add\n      swap1\n      0x20\n      add\n      dup1\n      dup4\n      gt\n      tag_307\n      jumpi\n      dup3\n      swap1\n      sub\n      0x1f\n      and\n      dup3\n      add\n      swap2\n    tag_305:\n      pop\n      pop\n      pop\n      pop\n      pop\n      dup2\n      mstore\n      0x20\n      add\n      0x01\n      dup3\n      add\n      0x00\n      swap1\n      sload\n      swap1\n      0x0100\n      exp\n      swap1\n      div\n      0xff\n      and\n      0x01\n      dup2\n      gt\n      iszero\n      tag_308\n      jumpi\n      tag_309\n      tag_56\n      jump\t// in\n    tag_309:\n    tag_308:\n      0x01\n      dup2\n      gt\n      iszero\n      tag_310\n      jumpi\n      tag_311\n      tag_56\n      jump\t// in\n    tag_311:\n    tag_310:\n      dup2\n      mstore\n      0x20\n      add\n      0x01\n      dup3\n      add\n      0x01\n      swap1\n      sload\n      swap1\n      0x0100\n      exp\n      swap1\n      div\n      0xff\n      and\n      0x01\n      dup2\n      gt\n      iszero\n      tag_312\n      jumpi\n      tag_313\n      tag_56\n      jump\t// in\n    tag_313:\n    tag_312:\n      0x01\n      dup2\n      gt\n      iszero\n      tag_314\n      jumpi\n      tag_315\n      tag_56\n      jump\t// in\n    tag_315:\n    tag_314:\n      dup2\n      mstore\n      pop\n      pop\n      swap1\n      pop\n        /* \"contracts/GiftCardETH.sol\":2631:2727  function getMyData() public view returns (User memory) {... */\n      swap1\n      jump\t// out\n        /* \"contracts/GiftCardETH.sol\":4173:4520  function generateGiftCardCode() private view returns (string memory) {... */\n    tag_246:\n        /* \"contracts/GiftCardETH.sol\":4227:4240  string memory */\n      0x60\n        /* \"contracts/GiftCardETH.sol\":4252:4277  bytes memory randomString */\n      0x00\n        /* \"contracts/GiftCardETH.sol\":4290:4292  15 */\n      0x0f\n        /* \"contracts/GiftCardETH.sol\":4280:4293  new bytes(15) */\n      0xffffffffffffffff\n      dup2\n      gt\n      iszero\n      tag_317\n      jumpi\n      tag_318\n      tag_119\n      jump\t// in\n    tag_318:\n    tag_317:\n      mload(0x40)\n      swap1\n      dup1\n      dup3\n      mstore\n      dup1\n      0x1f\n      add\n      not(0x1f)\n      and\n      0x20\n      add\n      dup3\n      add\n      0x40\n      mstore\n      dup1\n      iszero\n      tag_319\n      jumpi\n      dup2\n      0x20\n      add\n      0x01\n      dup3\n      mul\n      dup1\n      calldatasize\n      dup4\n      calldatacopy\n      dup1\n      dup3\n      add\n      swap2\n      pop\n      pop\n      swap1\n      pop\n    tag_319:\n      pop\n        /* \"contracts/GiftCardETH.sol\":4252:4293  bytes memory randomString = new bytes(15) */\n      swap1\n      pop\n        /* \"contracts/GiftCardETH.sol\":4308:4317  uint256 i */\n      0x00\n        /* \"contracts/GiftCardETH.sol\":4303:4477  for (uint256 i = 0; i < 15; i++) {... */\n    tag_320:\n        /* \"contracts/GiftCardETH.sol\":4327:4329  15 */\n      0x0f\n        /* \"contracts/GiftCardETH.sol\":4323:4324  i */\n      dup2\n        /* \"contracts/GiftCardETH.sol\":4323:4329  i < 15 */\n      lt\n        /* \"contracts/GiftCardETH.sol\":4303:4477  for (uint256 i = 0; i < 15; i++) {... */\n      iszero\n      tag_321\n      jumpi\n        /* \"contracts/GiftCardETH.sol\":4350:4372  uint256 randomCharCode */\n      0x00\n        /* \"contracts/GiftCardETH.sol\":4375:4393  getRandomNumber(i) */\n      tag_323\n        /* \"contracts/GiftCardETH.sol\":4391:4392  i */\n      dup3\n        /* \"contracts/GiftCardETH.sol\":4375:4390  getRandomNumber */\n      tag_324\n        /* \"contracts/GiftCardETH.sol\":4375:4393  getRandomNumber(i) */\n      jump\t// in\n    tag_323:\n        /* \"contracts/GiftCardETH.sol\":4350:4393  uint256 randomCharCode = getRandomNumber(i) */\n      swap1\n      pop\n        /* \"contracts/GiftCardETH.sol\":4461:4463  26 */\n      0x1a\n        /* \"contracts/GiftCardETH.sol\":4444:4458  randomCharCode */\n      dup2\n        /* \"contracts/GiftCardETH.sol\":4444:4463  randomCharCode % 26 */\n      tag_325\n      swap2\n      swap1\n      tag_326\n      jump\t// in\n    tag_325:\n        /* \"contracts/GiftCardETH.sol\":4438:4440  97 */\n      0x61\n        /* \"contracts/GiftCardETH.sol\":4438:4464  97 + (randomCharCode % 26) */\n      tag_327\n      swap2\n      swap1\n      tag_328\n      jump\t// in\n    tag_327:\n        /* \"contracts/GiftCardETH.sol\":4425:4466  bytes1(uint8(97 + (randomCharCode % 26))) */\n      0xf8\n      shl\n        /* \"contracts/GiftCardETH.sol\":4407:4419  randomString */\n      dup4\n        /* \"contracts/GiftCardETH.sol\":4420:4421  i */\n      dup4\n        /* \"contracts/GiftCardETH.sol\":4407:4422  randomString[i] */\n      dup2\n      mload\n      dup2\n      lt\n      tag_329\n      jumpi\n      tag_330\n      tag_104\n      jump\t// in\n    tag_330:\n    tag_329:\n      0x20\n      add\n      add\n        /* \"contracts/GiftCardETH.sol\":4407:4466  randomString[i] = bytes1(uint8(97 + (randomCharCode % 26))) */\n      swap1\n      not(0xffffffffffffffffffffffffffffffffffffffffffffffffffffffffffffff)\n      and\n      swap1\n      dup2\n      0x00\n      byte\n      swap1\n      mstore8\n      pop\n        /* \"contracts/GiftCardETH.sol\":4336:4477  {... */\n      pop\n        /* \"contracts/GiftCardETH.sol\":4331:4334  i++ */\n      dup1\n      dup1\n      0x01\n      add\n      swap2\n      pop\n      pop\n        /* \"contracts/GiftCardETH.sol\":4303:4477  for (uint256 i = 0; i < 15; i++) {... */\n      jump(tag_320)\n    tag_321:\n      pop\n        /* \"contracts/GiftCardETH.sol\":4500:4512  randomString */\n      dup1\n        /* \"contracts/GiftCardETH.sol\":4486:4513  return string(randomString) */\n      swap2\n      pop\n      pop\n        /* \"contracts/GiftCardETH.sol\":4173:4520  function generateGiftCardCode() private view returns (string memory) {... */\n      swap1\n      jump\t// out\n        /* \"contracts/GiftCardETH.sol\":4526:4830  function addCard(string memory code, uint256 amount)... */\n    tag_248:\n        /* \"contracts/GiftCardETH.sol\":4627:4631  code */\n      dup2\n        /* \"contracts/GiftCardETH.sol\":1924:1936  bool isExist */\n      0x00\n        /* \"contracts/GiftCardETH.sol\":1959:1968  uint256 i */\n      dup1\n        /* \"contracts/GiftCardETH.sol\":1954:2233  for (uint256 i = 0; i < giftCardCodes.length; i++) {... */\n    tag_332:\n        /* \"contracts/GiftCardETH.sol\":1978:1991  giftCardCodes */\n      0x03\n        /* \"contracts/GiftCardETH.sol\":1978:1998  giftCardCodes.length */\n      dup1\n      sload\n      swap1\n      pop\n        /* \"contracts/GiftCardETH.sol\":1974:1975  i */\n      dup2\n        /* \"contracts/GiftCardETH.sol\":1974:1998  i < giftCardCodes.length */\n      lt\n        /* \"contracts/GiftCardETH.sol\":1954:2233  for (uint256 i = 0; i < giftCardCodes.length; i++) {... */\n      iszero\n      tag_333\n      jumpi\n        /* \"contracts/GiftCardETH.sol\":2132:2136  code */\n      dup3\n        /* \"contracts/GiftCardETH.sol\":2115:2137  abi.encodePacked(code) */\n      add(0x20, mload(0x40))\n      tag_335\n      swap2\n      swap1\n      tag_58\n      jump\t// in\n    tag_335:\n      mload(0x40)\n      0x20\n      dup2\n      dup4\n      sub\n      sub\n      dup2\n      mstore\n      swap1\n      0x40\n      mstore\n        /* \"contracts/GiftCardETH.sol\":2105:2138  keccak256(abi.encodePacked(code)) */\n      dup1\n      mload\n      swap1\n      0x20\n      add\n      keccak256\n        /* \"contracts/GiftCardETH.sol\":2067:2080  giftCardCodes */\n      0x03\n        /* \"contracts/GiftCardETH.sol\":2081:2082  i */\n      dup3\n        /* \"contracts/GiftCardETH.sol\":2067:2083  giftCardCodes[i] */\n      dup2\n      sload\n      dup2\n      lt\n      tag_336\n      jumpi\n      tag_337\n      tag_104\n      jump\t// in\n    tag_337:\n    tag_336:\n      swap1\n      0x00\n      mstore\n      keccak256(0x00, 0x20)\n      add\n        /* \"contracts/GiftCardETH.sol\":2050:2084  abi.encodePacked(giftCardCodes[i]) */\n      add(0x20, mload(0x40))\n      tag_339\n      swap2\n      swap1\n      tag_98\n      jump\t// in\n    tag_339:\n      mload(0x40)\n      0x20\n      dup2\n      dup4\n      sub\n      sub\n      dup2\n      mstore\n      swap1\n      0x40\n      mstore\n        /* \"contracts/GiftCardETH.sol\":2040:2085  keccak256(abi.encodePacked(giftCardCodes[i])) */\n      dup1\n      mload\n      swap1\n      0x20\n      add\n      keccak256\n        /* \"contracts/GiftCardETH.sol\":2040:2138  keccak256(abi.encodePacked(giftCardCodes[i])) ==... */\n      sub\n        /* \"contracts/GiftCardETH.sol\":2019:2223  if (... */\n      tag_340\n      jumpi\n        /* \"contracts/GiftCardETH.sol\":2181:2185  true */\n      0x01\n        /* \"contracts/GiftCardETH.sol\":2171:2185  isExist = true */\n      swap2\n      pop\n        /* \"contracts/GiftCardETH.sol\":2203:2208  break */\n      jump(tag_333)\n        /* \"contracts/GiftCardETH.sol\":2019:2223  if (... */\n    tag_340:\n        /* \"contracts/GiftCardETH.sol\":2000:2003  i++ */\n      dup1\n      dup1\n      0x01\n      add\n      swap2\n      pop\n      pop\n        /* \"contracts/GiftCardETH.sol\":1954:2233  for (uint256 i = 0; i < giftCardCodes.length; i++) {... */\n      jump(tag_332)\n    tag_333:\n      pop\n        /* \"contracts/GiftCardETH.sol\":2251:2258  isExist */\n      dup1\n        /* \"contracts/GiftCardETH.sol\":2250:2258  !isExist */\n      iszero\n        /* \"contracts/GiftCardETH.sol\":2242:2281  require(!isExist, \"Code is Not Unique\") */\n      tag_341\n      jumpi\n      mload(0x40)\n      0x08c379a000000000000000000000000000000000000000000000000000000000\n      dup2\n      mstore\n      0x04\n      add\n      tag_342\n      swap1\n      tag_343\n      jump\t// in\n    tag_342:\n      mload(0x40)\n      dup1\n      swap2\n      sub\n      swap1\n      revert\n    tag_341:\n        /* \"contracts/GiftCardETH.sol\":4647:4660  giftCardCodes */\n      0x03\n        /* \"contracts/GiftCardETH.sol\":4666:4670  code */\n      dup5\n        /* \"contracts/GiftCardETH.sol\":4647:4671  giftCardCodes.push(code) */\n      swap1\n      dup1\n      0x01\n      dup2\n      sload\n      add\n      dup1\n      dup3\n      sstore\n      dup1\n      swap2\n      pop\n      pop\n      0x01\n      swap1\n      sub\n      swap1\n      0x00\n      mstore\n      keccak256(0x00, 0x20)\n      add\n      0x00\n      swap1\n      swap2\n      swap1\n      swap2\n      swap1\n      swap2\n      pop\n      swap1\n      dup2\n      tag_346\n      swap2\n      swap1\n      tag_231\n      jump\t// in\n    tag_346:\n      pop\n        /* \"contracts/GiftCardETH.sol\":4699:4823  GiftCard(... */\n      mload(0x40)\n      dup1\n      0x80\n      add\n      0x40\n      mstore\n      dup1\n        /* \"contracts/GiftCardETH.sol\":4721:4726  users */\n      0x00\n        /* \"contracts/GiftCardETH.sol\":4721:4738  users[msg.sender] */\n      dup1\n        /* \"contracts/GiftCardETH.sol\":4727:4737  msg.sender */\n      caller\n        /* \"contracts/GiftCardETH.sol\":4721:4738  users[msg.sender] */\n      0xffffffffffffffffffffffffffffffffffffffff\n      and\n      0xffffffffffffffffffffffffffffffffffffffff\n      and\n      dup2\n      mstore\n      0x20\n      add\n      swap1\n      dup2\n      mstore\n      0x20\n      add\n      0x00\n      keccak256\n        /* \"contracts/GiftCardETH.sol\":4721:4743  users[msg.sender].name */\n      0x00\n      add\n        /* \"contracts/GiftCardETH.sol\":4699:4823  GiftCard(... */\n      dup1\n      sload\n      tag_347\n      swap1\n      tag_66\n      jump\t// in\n    tag_347:\n      dup1\n      0x1f\n      add\n      0x20\n      dup1\n      swap2\n      div\n      mul\n      0x20\n      add\n      mload(0x40)\n      swap1\n      dup2\n      add\n      0x40\n      mstore\n      dup1\n      swap3\n      swap2\n      swap1\n      dup2\n      dup2\n      mstore\n      0x20\n      add\n      dup3\n      dup1\n      sload\n      tag_348\n      swap1\n      tag_66\n      jump\t// in\n    tag_348:\n      dup1\n      iszero\n      tag_349\n      jumpi\n      dup1\n      0x1f\n      lt\n      tag_350\n      jumpi\n      0x0100\n      dup1\n      dup4\n      sload\n      div\n      mul\n      dup4\n      mstore\n      swap2\n      0x20\n      add\n      swap2\n      jump(tag_349)\n    tag_350:\n      dup3\n      add\n      swap2\n      swap1\n      0x00\n      mstore\n      keccak256(0x00, 0x20)\n      swap1\n    tag_351:\n      dup2\n      sload\n      dup2\n      mstore\n      swap1\n      0x01\n      add\n      swap1\n      0x20\n      add\n      dup1\n      dup4\n      gt\n      tag_351\n      jumpi\n      dup3\n      swap1\n      sub\n      0x1f\n      and\n      dup3\n      add\n      swap2\n    tag_349:\n      pop\n      pop\n      pop\n      pop\n      pop\n      dup2\n      mstore\n      0x20\n      add\n        /* \"contracts/GiftCardETH.sol\":4757:4763  amount */\n      dup5\n        /* \"contracts/GiftCardETH.sol\":4699:4823  GiftCard(... */\n      dup2\n      mstore\n      0x20\n      add\n        /* \"contracts/GiftCardETH.sol\":4777:4797  GiftCardStatus.VALID */\n      0x01\n        /* \"contracts/GiftCardETH.sol\":4699:4823  GiftCard(... */\n      dup1\n      dup2\n      gt\n      iszero\n      tag_352\n      jumpi\n      tag_353\n      tag_56\n      jump\t// in\n    tag_353:\n    tag_352:\n      dup2\n      mstore\n      0x20\n      add\n      mload(0x40)\n      dup1\n      0x20\n      add\n      0x40\n      mstore\n      dup1\n      0x00\n      dup2\n      mstore\n      pop\n      dup2\n      mstore\n      pop\n        /* \"contracts/GiftCardETH.sol\":4681:4690  giftCards */\n      0x01\n        /* \"contracts/GiftCardETH.sol\":4691:4695  code */\n      dup6\n        /* \"contracts/GiftCardETH.sol\":4681:4696  giftCards[code] */\n      mload(0x40)\n      tag_354\n      swap2\n      swap1\n      tag_58\n      jump\t// in\n    tag_354:\n      swap1\n      dup2\n      mstore\n      0x20\n      add\n      mload(0x40)\n      dup1\n      swap2\n      sub\n      swap1\n      keccak256\n        /* \"contracts/GiftCardETH.sol\":4681:4823  giftCards[code] = GiftCard(... */\n      0x00\n      dup3\n      add\n      mload\n      dup2\n      0x00\n      add\n      swap1\n      dup2\n      tag_355\n      swap2\n      swap1\n      tag_231\n      jump\t// in\n    tag_355:\n      pop\n      0x20\n      dup3\n      add\n      mload\n      dup2\n      0x01\n      add\n      sstore\n      0x40\n      dup3\n      add\n      mload\n      dup2\n      0x02\n      add\n      exp(0x0100, 0x00)\n      dup2\n      sload\n      dup2\n      0xff\n      mul\n      not\n      and\n      swap1\n      dup4\n      0x01\n      dup2\n      gt\n      iszero\n      tag_356\n      jumpi\n      tag_357\n      tag_56\n      jump\t// in\n    tag_357:\n    tag_356:\n      mul\n      or\n      swap1\n      sstore\n      pop\n      0x60\n      dup3\n      add\n      mload\n      dup2\n      0x03\n      add\n      swap1\n      dup2\n      tag_358\n      swap2\n      swap1\n      tag_231\n      jump\t// in\n    tag_358:\n      pop\n      swap1\n      pop\n      pop\n        /* \"contracts/GiftCardETH.sol\":1914:2299  {... */\n      pop\n        /* \"contracts/GiftCardETH.sol\":4526:4830  function addCard(string memory code, uint256 amount)... */\n      pop\n      pop\n      pop\n      jump\t// out\n        /* \"contracts/GiftCardETH.sol\":3908:4167  function getRandomNumber(uint256 seed) private view returns (uint256) {... */\n    tag_324:\n        /* \"contracts/GiftCardETH.sol\":3969:3976  uint256 */\n      0x00\n        /* \"contracts/GiftCardETH.sol\":4155:4160  10000 */\n      0x2710\n        /* \"contracts/GiftCardETH.sol\":4080:4095  block.timestamp */\n      timestamp\n        /* \"contracts/GiftCardETH.sol\":4097:4113  block.prevrandao */\n      prevrandao\n        /* \"contracts/GiftCardETH.sol\":4115:4119  seed */\n      dup5\n        /* \"contracts/GiftCardETH.sol\":4063:4120  abi.encodePacked(block.timestamp, block.prevrandao, seed) */\n      add(0x20, mload(0x40))\n      tag_360\n      swap4\n      swap3\n      swap2\n      swap1\n      tag_361\n      jump\t// in\n    tag_360:\n      mload(0x40)\n      0x20\n      dup2\n      dup4\n      sub\n      sub\n      dup2\n      mstore\n      swap1\n      0x40\n      mstore\n        /* \"contracts/GiftCardETH.sol\":4032:4138  keccak256(... */\n      dup1\n      mload\n      swap1\n      0x20\n      add\n      keccak256\n        /* \"contracts/GiftCardETH.sol\":4007:4152  uint256(... */\n      0x00\n      shr\n        /* \"contracts/GiftCardETH.sol\":4007:4160  uint256(... */\n      tag_362\n      swap2\n      swap1\n      tag_326\n      jump\t// in\n    tag_362:\n        /* \"contracts/GiftCardETH.sol\":3988:4160  return... */\n      swap1\n      pop\n        /* \"contracts/GiftCardETH.sol\":3908:4167  function getRandomNumber(uint256 seed) private view returns (uint256) {... */\n      swap2\n      swap1\n      pop\n      jump\t// out\n    tag_123:\n      mload(0x40)\n      dup1\n      0x80\n      add\n      0x40\n      mstore\n      dup1\n      0x60\n      dup2\n      mstore\n      0x20\n      add\n      0x00\n      dup2\n      mstore\n      0x20\n      add\n      0x00\n      0x01\n      dup2\n      gt\n      iszero\n      tag_363\n      jumpi\n      tag_364\n      tag_56\n      jump\t// in\n    tag_364:\n    tag_363:\n      dup2\n      mstore\n      0x20\n      add\n      0x60\n      dup2\n      mstore\n      pop\n      swap1\n      jump\t// out\n    tag_301:\n      mload(0x40)\n      dup1\n      0x60\n      add\n      0x40\n      mstore\n      dup1\n      0x60\n      dup2\n      mstore\n      0x20\n      add\n      0x00\n      0x01\n      dup2\n      gt\n      iszero\n      tag_365\n      jumpi\n      tag_366\n      tag_56\n      jump\t// in\n    tag_366:\n    tag_365:\n      dup2\n      mstore\n      0x20\n      add\n      0x00\n      0x01\n      dup2\n      gt\n      iszero\n      tag_367\n      jumpi\n      tag_368\n      tag_56\n      jump\t// in\n    tag_368:\n    tag_367:\n      dup2\n      mstore\n      pop\n      swap1\n      jump\t// out\n        /* \"#utility.yul\":88:205   */\n    tag_370:\n        /* \"#utility.yul\":197:198   */\n      0x00\n        /* \"#utility.yul\":194:195   */\n      dup1\n        /* \"#utility.yul\":187:199   */\n      revert\n        /* \"#utility.yul\":211:328   */\n    tag_371:\n        /* \"#utility.yul\":320:321   */\n      0x00\n        /* \"#utility.yul\":317:318   */\n      dup1\n        /* \"#utility.yul\":310:322   */\n      revert\n        /* \"#utility.yul\":334:451   */\n    tag_372:\n        /* \"#utility.yul\":443:444   */\n      0x00\n        /* \"#utility.yul\":440:441   */\n      dup1\n        /* \"#utility.yul\":433:445   */\n      revert\n        /* \"#utility.yul\":457:574   */\n    tag_373:\n        /* \"#utility.yul\":566:567   */\n      0x00\n        /* \"#utility.yul\":563:564   */\n      dup1\n        /* \"#utility.yul\":556:568   */\n      revert\n        /* \"#utility.yul\":580:697   */\n    tag_374:\n        /* \"#utility.yul\":689:690   */\n      0x00\n        /* \"#utility.yul\":686:687   */\n      dup1\n        /* \"#utility.yul\":679:691   */\n      revert\n        /* \"#utility.yul\":717:1270   */\n    tag_375:\n        /* \"#utility.yul\":775:783   */\n      0x00\n        /* \"#utility.yul\":785:791   */\n      dup1\n        /* \"#utility.yul\":835:838   */\n      dup4\n        /* \"#utility.yul\":828:832   */\n      0x1f\n        /* \"#utility.yul\":820:826   */\n      dup5\n        /* \"#utility.yul\":816:833   */\n      add\n        /* \"#utility.yul\":812:839   */\n      slt\n        /* \"#utility.yul\":802:924   */\n      tag_460\n      jumpi\n        /* \"#utility.yul\":843:922   */\n      tag_461\n      tag_372\n      jump\t// in\n    tag_461:\n        /* \"#utility.yul\":802:924   */\n    tag_460:\n        /* \"#utility.yul\":956:962   */\n      dup3\n        /* \"#utility.yul\":943:963   */\n      calldataload\n        /* \"#utility.yul\":933:963   */\n      swap1\n      pop\n        /* \"#utility.yul\":986:1004   */\n      0xffffffffffffffff\n        /* \"#utility.yul\":978:984   */\n      dup2\n        /* \"#utility.yul\":975:1005   */\n      gt\n        /* \"#utility.yul\":972:1089   */\n      iszero\n      tag_462\n      jumpi\n        /* \"#utility.yul\":1008:1087   */\n      tag_463\n      tag_373\n      jump\t// in\n    tag_463:\n        /* \"#utility.yul\":972:1089   */\n    tag_462:\n        /* \"#utility.yul\":1122:1126   */\n      0x20\n        /* \"#utility.yul\":1114:1120   */\n      dup4\n        /* \"#utility.yul\":1110:1127   */\n      add\n        /* \"#utility.yul\":1098:1127   */\n      swap2\n      pop\n        /* \"#utility.yul\":1176:1179   */\n      dup4\n        /* \"#utility.yul\":1168:1172   */\n      0x01\n        /* \"#utility.yul\":1160:1166   */\n      dup3\n        /* \"#utility.yul\":1156:1173   */\n      mul\n        /* \"#utility.yul\":1146:1154   */\n      dup4\n        /* \"#utility.yul\":1142:1174   */\n      add\n        /* \"#utility.yul\":1139:1180   */\n      gt\n        /* \"#utility.yul\":1136:1264   */\n      iszero\n      tag_464\n      jumpi\n        /* \"#utility.yul\":1183:1262   */\n      tag_465\n      tag_374\n      jump\t// in\n    tag_465:\n        /* \"#utility.yul\":1136:1264   */\n    tag_464:\n        /* \"#utility.yul\":717:1270   */\n      swap3\n      pop\n      swap3\n      swap1\n      pop\n      jump\t// out\n        /* \"#utility.yul\":1276:1805   */\n    tag_19:\n        /* \"#utility.yul\":1347:1353   */\n      0x00\n        /* \"#utility.yul\":1355:1361   */\n      dup1\n        /* \"#utility.yul\":1404:1406   */\n      0x20\n        /* \"#utility.yul\":1392:1401   */\n      dup4\n        /* \"#utility.yul\":1383:1390   */\n      dup6\n        /* \"#utility.yul\":1379:1402   */\n      sub\n        /* \"#utility.yul\":1375:1407   */\n      slt\n        /* \"#utility.yul\":1372:1491   */\n      iszero\n      tag_467\n      jumpi\n        /* \"#utility.yul\":1410:1489   */\n      tag_468\n      tag_370\n      jump\t// in\n    tag_468:\n        /* \"#utility.yul\":1372:1491   */\n    tag_467:\n        /* \"#utility.yul\":1558:1559   */\n      0x00\n        /* \"#utility.yul\":1547:1556   */\n      dup4\n        /* \"#utility.yul\":1543:1560   */\n      add\n        /* \"#utility.yul\":1530:1561   */\n      calldataload\n        /* \"#utility.yul\":1588:1606   */\n      0xffffffffffffffff\n        /* \"#utility.yul\":1580:1586   */\n      dup2\n        /* \"#utility.yul\":1577:1607   */\n      gt\n        /* \"#utility.yul\":1574:1691   */\n      iszero\n      tag_469\n      jumpi\n        /* \"#utility.yul\":1610:1689   */\n      tag_470\n      tag_371\n      jump\t// in\n    tag_470:\n        /* \"#utility.yul\":1574:1691   */\n    tag_469:\n        /* \"#utility.yul\":1723:1788   */\n      tag_471\n        /* \"#utility.yul\":1780:1787   */\n      dup6\n        /* \"#utility.yul\":1771:1777   */\n      dup3\n        /* \"#utility.yul\":1760:1769   */\n      dup7\n        /* \"#utility.yul\":1756:1778   */\n      add\n        /* \"#utility.yul\":1723:1788   */\n      tag_375\n      jump\t// in\n    tag_471:\n        /* \"#utility.yul\":1705:1788   */\n      swap3\n      pop\n      swap3\n      pop\n        /* \"#utility.yul\":1501:1798   */\n      pop\n        /* \"#utility.yul\":1276:1805   */\n      swap3\n      pop\n      swap3\n      swap1\n      pop\n      jump\t// out\n        /* \"#utility.yul\":1811:1949   */\n    tag_376:\n        /* \"#utility.yul\":1902:1908   */\n      0x00\n        /* \"#utility.yul\":1936:1941   */\n      dup2\n        /* \"#utility.yul\":1930:1942   */\n      mload\n        /* \"#utility.yul\":1920:1942   */\n      swap1\n      pop\n        /* \"#utility.yul\":1811:1949   */\n      swap2\n      swap1\n      pop\n      jump\t// out\n        /* \"#utility.yul\":1955:2163   */\n    tag_377:\n        /* \"#utility.yul\":2078:2089   */\n      0x00\n        /* \"#utility.yul\":2112:2118   */\n      dup3\n        /* \"#utility.yul\":2107:2110   */\n      dup3\n        /* \"#utility.yul\":2100:2119   */\n      mstore\n        /* \"#utility.yul\":2152:2156   */\n      0x20\n        /* \"#utility.yul\":2147:2150   */\n      dup3\n        /* \"#utility.yul\":2143:2157   */\n      add\n        /* \"#utility.yul\":2128:2157   */\n      swap1\n      pop\n        /* \"#utility.yul\":1955:2163   */\n      swap3\n      swap2\n      pop\n      pop\n      jump\t// out\n        /* \"#utility.yul\":2169:2325   */\n    tag_378:\n        /* \"#utility.yul\":2260:2264   */\n      0x00\n        /* \"#utility.yul\":2283:2286   */\n      dup2\n        /* \"#utility.yul\":2275:2286   */\n      swap1\n      pop\n        /* \"#utility.yul\":2313:2317   */\n      0x20\n        /* \"#utility.yul\":2308:2311   */\n      dup3\n        /* \"#utility.yul\":2304:2318   */\n      add\n        /* \"#utility.yul\":2296:2318   */\n      swap1\n      pop\n        /* \"#utility.yul\":2169:2325   */\n      swap2\n      swap1\n      pop\n      jump\t// out\n        /* \"#utility.yul\":2331:2430   */\n    tag_379:\n        /* \"#utility.yul\":2383:2389   */\n      0x00\n        /* \"#utility.yul\":2417:2422   */\n      dup2\n        /* \"#utility.yul\":2411:2423   */\n      mload\n        /* \"#utility.yul\":2401:2423   */\n      swap1\n      pop\n        /* \"#utility.yul\":2331:2430   */\n      swap2\n      swap1\n      pop\n      jump\t// out\n        /* \"#utility.yul\":2436:2595   */\n    tag_380:\n        /* \"#utility.yul\":2510:2521   */\n      0x00\n        /* \"#utility.yul\":2544:2550   */\n      dup3\n        /* \"#utility.yul\":2539:2542   */\n      dup3\n        /* \"#utility.yul\":2532:2551   */\n      mstore\n        /* \"#utility.yul\":2584:2588   */\n      0x20\n        /* \"#utility.yul\":2579:2582   */\n      dup3\n        /* \"#utility.yul\":2575:2589   */\n      add\n        /* \"#utility.yul\":2560:2589   */\n      swap1\n      pop\n        /* \"#utility.yul\":2436:2595   */\n      swap3\n      swap2\n      pop\n      pop\n      jump\t// out\n        /* \"#utility.yul\":2601:2740   */\n    tag_381:\n        /* \"#utility.yul\":2690:2696   */\n      dup3\n        /* \"#utility.yul\":2685:2688   */\n      dup2\n        /* \"#utility.yul\":2680:2683   */\n      dup4\n        /* \"#utility.yul\":2674:2697   */\n      mcopy\n        /* \"#utility.yul\":2731:2732   */\n      0x00\n        /* \"#utility.yul\":2722:2728   */\n      dup4\n        /* \"#utility.yul\":2717:2720   */\n      dup4\n        /* \"#utility.yul\":2713:2729   */\n      add\n        /* \"#utility.yul\":2706:2733   */\n      mstore\n        /* \"#utility.yul\":2601:2740   */\n      pop\n      pop\n      pop\n      jump\t// out\n        /* \"#utility.yul\":2746:2848   */\n    tag_382:\n        /* \"#utility.yul\":2787:2793   */\n      0x00\n        /* \"#utility.yul\":2838:2840   */\n      0x1f\n        /* \"#utility.yul\":2834:2841   */\n      not\n        /* \"#utility.yul\":2829:2831   */\n      0x1f\n        /* \"#utility.yul\":2822:2827   */\n      dup4\n        /* \"#utility.yul\":2818:2832   */\n      add\n        /* \"#utility.yul\":2814:2842   */\n      and\n        /* \"#utility.yul\":2804:2842   */\n      swap1\n      pop\n        /* \"#utility.yul\":2746:2848   */\n      swap2\n      swap1\n      pop\n      jump\t// out\n        /* \"#utility.yul\":2854:3211   */\n    tag_383:\n        /* \"#utility.yul\":2932:2935   */\n      0x00\n        /* \"#utility.yul\":2960:2999   */\n      tag_480\n        /* \"#utility.yul\":2993:2998   */\n      dup3\n        /* \"#utility.yul\":2960:2999   */\n      tag_379\n      jump\t// in\n    tag_480:\n        /* \"#utility.yul\":3015:3076   */\n      tag_481\n        /* \"#utility.yul\":3069:3075   */\n      dup2\n        /* \"#utility.yul\":3064:3067   */\n      dup6\n        /* \"#utility.yul\":3015:3076   */\n      tag_380\n      jump\t// in\n    tag_481:\n        /* \"#utility.yul\":3008:3076   */\n      swap4\n      pop\n        /* \"#utility.yul\":3085:3150   */\n      tag_482\n        /* \"#utility.yul\":3143:3149   */\n      dup2\n        /* \"#utility.yul\":3138:3141   */\n      dup6\n        /* \"#utility.yul\":3131:3135   */\n      0x20\n        /* \"#utility.yul\":3124:3129   */\n      dup7\n        /* \"#utility.yul\":3120:3136   */\n      add\n        /* \"#utility.yul\":3085:3150   */\n      tag_381\n      jump\t// in\n    tag_482:\n        /* \"#utility.yul\":3175:3204   */\n      tag_483\n        /* \"#utility.yul\":3197:3203   */\n      dup2\n        /* \"#utility.yul\":3175:3204   */\n      tag_382\n      jump\t// in\n    tag_483:\n        /* \"#utility.yul\":3170:3173   */\n      dup5\n        /* \"#utility.yul\":3166:3205   */\n      add\n        /* \"#utility.yul\":3159:3205   */\n      swap2\n      pop\n        /* \"#utility.yul\":2936:3211   */\n      pop\n        /* \"#utility.yul\":2854:3211   */\n      swap3\n      swap2\n      pop\n      pop\n      jump\t// out\n        /* \"#utility.yul\":3217:3294   */\n    tag_384:\n        /* \"#utility.yul\":3254:3261   */\n      0x00\n        /* \"#utility.yul\":3283:3288   */\n      dup2\n        /* \"#utility.yul\":3272:3288   */\n      swap1\n      pop\n        /* \"#utility.yul\":3217:3294   */\n      swap2\n      swap1\n      pop\n      jump\t// out\n        /* \"#utility.yul\":3300:3408   */\n    tag_385:\n        /* \"#utility.yul\":3377:3401   */\n      tag_486\n        /* \"#utility.yul\":3395:3400   */\n      dup2\n        /* \"#utility.yul\":3377:3401   */\n      tag_384\n      jump\t// in\n    tag_486:\n        /* \"#utility.yul\":3372:3375   */\n      dup3\n        /* \"#utility.yul\":3365:3402   */\n      mstore\n        /* \"#utility.yul\":3300:3408   */\n      pop\n      pop\n      jump\t// out\n        /* \"#utility.yul\":3414:3594   */\n    tag_56:\n        /* \"#utility.yul\":3462:3539   */\n      0x4e487b7100000000000000000000000000000000000000000000000000000000\n        /* \"#utility.yul\":3459:3460   */\n      0x00\n        /* \"#utility.yul\":3452:3540   */\n      mstore\n        /* \"#utility.yul\":3559:3563   */\n      0x21\n        /* \"#utility.yul\":3556:3557   */\n      0x04\n        /* \"#utility.yul\":3549:3564   */\n      mstore\n        /* \"#utility.yul\":3583:3587   */\n      0x24\n        /* \"#utility.yul\":3580:3581   */\n      0x00\n        /* \"#utility.yul\":3573:3588   */\n      revert\n        /* \"#utility.yul\":3600:3721   */\n    tag_386:\n        /* \"#utility.yul\":3689:3690   */\n      0x02\n        /* \"#utility.yul\":3682:3687   */\n      dup2\n        /* \"#utility.yul\":3679:3691   */\n      lt\n        /* \"#utility.yul\":3669:3715   */\n      tag_489\n      jumpi\n        /* \"#utility.yul\":3695:3713   */\n      tag_490\n      tag_56\n      jump\t// in\n    tag_490:\n        /* \"#utility.yul\":3669:3715   */\n    tag_489:\n        /* \"#utility.yul\":3600:3721   */\n      pop\n      jump\t// out\n        /* \"#utility.yul\":3727:3870   */\n    tag_387:\n        /* \"#utility.yul\":3780:3787   */\n      0x00\n        /* \"#utility.yul\":3809:3814   */\n      dup2\n        /* \"#utility.yul\":3798:3814   */\n      swap1\n      pop\n        /* \"#utility.yul\":3815:3864   */\n      tag_492\n        /* \"#utility.yul\":3858:3863   */\n      dup3\n        /* \"#utility.yul\":3815:3864   */\n      tag_386\n      jump\t// in\n    tag_492:\n        /* \"#utility.yul\":3727:3870   */\n      swap2\n      swap1\n      pop\n      jump\t// out\n        /* \"#utility.yul\":3876:4019   */\n    tag_388:\n        /* \"#utility.yul\":3940:3949   */\n      0x00\n        /* \"#utility.yul\":3973:4013   */\n      tag_494\n        /* \"#utility.yul\":4007:4012   */\n      dup3\n        /* \"#utility.yul\":3973:4013   */\n      tag_387\n      jump\t// in\n    tag_494:\n        /* \"#utility.yul\":3960:4013   */\n      swap1\n      pop\n        /* \"#utility.yul\":3876:4019   */\n      swap2\n      swap1\n      pop\n      jump\t// out\n        /* \"#utility.yul\":4025:4174   */\n    tag_389:\n        /* \"#utility.yul\":4116:4167   */\n      tag_496\n        /* \"#utility.yul\":4161:4166   */\n      dup2\n        /* \"#utility.yul\":4116:4167   */\n      tag_388\n      jump\t// in\n    tag_496:\n        /* \"#utility.yul\":4111:4114   */\n      dup3\n        /* \"#utility.yul\":4104:4168   */\n      mstore\n        /* \"#utility.yul\":4025:4174   */\n      pop\n      pop\n      jump\t// out\n        /* \"#utility.yul\":4222:5264   */\n    tag_390:\n        /* \"#utility.yul\":4329:4332   */\n      0x00\n        /* \"#utility.yul\":4365:4369   */\n      0x80\n        /* \"#utility.yul\":4360:4363   */\n      dup4\n        /* \"#utility.yul\":4356:4370   */\n      add\n        /* \"#utility.yul\":4453:4457   */\n      0x00\n        /* \"#utility.yul\":4446:4451   */\n      dup4\n        /* \"#utility.yul\":4442:4458   */\n      add\n        /* \"#utility.yul\":4436:4459   */\n      mload\n        /* \"#utility.yul\":4506:4509   */\n      dup5\n        /* \"#utility.yul\":4500:4504   */\n      dup3\n        /* \"#utility.yul\":4496:4510   */\n      sub\n        /* \"#utility.yul\":4489:4493   */\n      0x00\n        /* \"#utility.yul\":4484:4487   */\n      dup7\n        /* \"#utility.yul\":4480:4494   */\n      add\n        /* \"#utility.yul\":4473:4511   */\n      mstore\n        /* \"#utility.yul\":4532:4605   */\n      tag_498\n        /* \"#utility.yul\":4600:4604   */\n      dup3\n        /* \"#utility.yul\":4586:4598   */\n      dup3\n        /* \"#utility.yul\":4532:4605   */\n      tag_383\n      jump\t// in\n    tag_498:\n        /* \"#utility.yul\":4524:4605   */\n      swap2\n      pop\n        /* \"#utility.yul\":4380:4616   */\n      pop\n        /* \"#utility.yul\":4700:4704   */\n      0x20\n        /* \"#utility.yul\":4693:4698   */\n      dup4\n        /* \"#utility.yul\":4689:4705   */\n      add\n        /* \"#utility.yul\":4683:4706   */\n      mload\n        /* \"#utility.yul\":4719:4782   */\n      tag_499\n        /* \"#utility.yul\":4776:4780   */\n      0x20\n        /* \"#utility.yul\":4771:4774   */\n      dup7\n        /* \"#utility.yul\":4767:4781   */\n      add\n        /* \"#utility.yul\":4753:4765   */\n      dup3\n        /* \"#utility.yul\":4719:4782   */\n      tag_385\n      jump\t// in\n    tag_499:\n        /* \"#utility.yul\":4626:4792   */\n      pop\n        /* \"#utility.yul\":4884:4888   */\n      0x40\n        /* \"#utility.yul\":4877:4882   */\n      dup4\n        /* \"#utility.yul\":4873:4889   */\n      add\n        /* \"#utility.yul\":4867:4890   */\n      mload\n        /* \"#utility.yul\":4903:4980   */\n      tag_500\n        /* \"#utility.yul\":4974:4978   */\n      0x40\n        /* \"#utility.yul\":4969:4972   */\n      dup7\n        /* \"#utility.yul\":4965:4979   */\n      add\n        /* \"#utility.yul\":4951:4963   */\n      dup3\n        /* \"#utility.yul\":4903:4980   */\n      tag_389\n      jump\t// in\n    tag_500:\n        /* \"#utility.yul\":4802:4990   */\n      pop\n        /* \"#utility.yul\":5074:5078   */\n      0x60\n        /* \"#utility.yul\":5067:5072   */\n      dup4\n        /* \"#utility.yul\":5063:5079   */\n      add\n        /* \"#utility.yul\":5057:5080   */\n      mload\n        /* \"#utility.yul\":5127:5130   */\n      dup5\n        /* \"#utility.yul\":5121:5125   */\n      dup3\n        /* \"#utility.yul\":5117:5131   */\n      sub\n        /* \"#utility.yul\":5110:5114   */\n      0x60\n        /* \"#utility.yul\":5105:5108   */\n      dup7\n        /* \"#utility.yul\":5101:5115   */\n      add\n        /* \"#utility.yul\":5094:5132   */\n      mstore\n        /* \"#utility.yul\":5153:5226   */\n      tag_501\n        /* \"#utility.yul\":5221:5225   */\n      dup3\n        /* \"#utility.yul\":5207:5219   */\n      dup3\n        /* \"#utility.yul\":5153:5226   */\n      tag_383\n      jump\t// in\n    tag_501:\n        /* \"#utility.yul\":5145:5226   */\n      swap2\n      pop\n        /* \"#utility.yul\":5000:5237   */\n      pop\n        /* \"#utility.yul\":5254:5258   */\n      dup1\n        /* \"#utility.yul\":5247:5258   */\n      swap2\n      pop\n        /* \"#utility.yul\":4334:5264   */\n      pop\n        /* \"#utility.yul\":4222:5264   */\n      swap3\n      swap2\n      pop\n      pop\n      jump\t// out\n        /* \"#utility.yul\":5270:5522   */\n    tag_391:\n        /* \"#utility.yul\":5387:5397   */\n      0x00\n        /* \"#utility.yul\":5422:5516   */\n      tag_503\n        /* \"#utility.yul\":5512:5515   */\n      dup4\n        /* \"#utility.yul\":5504:5510   */\n      dup4\n        /* \"#utility.yul\":5422:5516   */\n      tag_390\n      jump\t// in\n    tag_503:\n        /* \"#utility.yul\":5408:5516   */\n      swap1\n      pop\n        /* \"#utility.yul\":5270:5522   */\n      swap3\n      swap2\n      pop\n      pop\n      jump\t// out\n        /* \"#utility.yul\":5528:5665   */\n    tag_392:\n        /* \"#utility.yul\":5622:5626   */\n      0x00\n        /* \"#utility.yul\":5654:5658   */\n      0x20\n        /* \"#utility.yul\":5649:5652   */\n      dup3\n        /* \"#utility.yul\":5645:5659   */\n      add\n        /* \"#utility.yul\":5637:5659   */\n      swap1\n      pop\n        /* \"#utility.yul\":5528:5665   */\n      swap2\n      swap1\n      pop\n      jump\t// out\n        /* \"#utility.yul\":5717:6820   */\n    tag_393:\n        /* \"#utility.yul\":5884:5887   */\n      0x00\n        /* \"#utility.yul\":5913:5991   */\n      tag_506\n        /* \"#utility.yul\":5985:5990   */\n      dup3\n        /* \"#utility.yul\":5913:5991   */\n      tag_376\n      jump\t// in\n    tag_506:\n        /* \"#utility.yul\":6007:6117   */\n      tag_507\n        /* \"#utility.yul\":6110:6116   */\n      dup2\n        /* \"#utility.yul\":6105:6108   */\n      dup6\n        /* \"#utility.yul\":6007:6117   */\n      tag_377\n      jump\t// in\n    tag_507:\n        /* \"#utility.yul\":6000:6117   */\n      swap4\n      pop\n        /* \"#utility.yul\":6143:6146   */\n      dup4\n        /* \"#utility.yul\":6188:6192   */\n      0x20\n        /* \"#utility.yul\":6180:6186   */\n      dup3\n        /* \"#utility.yul\":6176:6193   */\n      mul\n        /* \"#utility.yul\":6171:6174   */\n      dup6\n        /* \"#utility.yul\":6167:6194   */\n      add\n        /* \"#utility.yul\":6218:6298   */\n      tag_508\n        /* \"#utility.yul\":6292:6297   */\n      dup6\n        /* \"#utility.yul\":6218:6298   */\n      tag_378\n      jump\t// in\n    tag_508:\n        /* \"#utility.yul\":6321:6328   */\n      dup1\n        /* \"#utility.yul\":6352:6353   */\n      0x00\n        /* \"#utility.yul\":6337:6775   */\n    tag_509:\n        /* \"#utility.yul\":6362:6368   */\n      dup6\n        /* \"#utility.yul\":6359:6360   */\n      dup2\n        /* \"#utility.yul\":6356:6369   */\n      lt\n        /* \"#utility.yul\":6337:6775   */\n      iszero\n      tag_511\n      jumpi\n        /* \"#utility.yul\":6433:6442   */\n      dup5\n        /* \"#utility.yul\":6427:6431   */\n      dup5\n        /* \"#utility.yul\":6423:6443   */\n      sub\n        /* \"#utility.yul\":6418:6421   */\n      dup10\n        /* \"#utility.yul\":6411:6444   */\n      mstore\n        /* \"#utility.yul\":6484:6490   */\n      dup2\n        /* \"#utility.yul\":6478:6491   */\n      mload\n        /* \"#utility.yul\":6512:6624   */\n      tag_512\n        /* \"#utility.yul\":6619:6623   */\n      dup6\n        /* \"#utility.yul\":6604:6617   */\n      dup3\n        /* \"#utility.yul\":6512:6624   */\n      tag_391\n      jump\t// in\n    tag_512:\n        /* \"#utility.yul\":6504:6624   */\n      swap5\n      pop\n        /* \"#utility.yul\":6647:6731   */\n      tag_513\n        /* \"#utility.yul\":6724:6730   */\n      dup4\n        /* \"#utility.yul\":6647:6731   */\n      tag_392\n      jump\t// in\n    tag_513:\n        /* \"#utility.yul\":6637:6731   */\n      swap3\n      pop\n        /* \"#utility.yul\":6760:6764   */\n      0x20\n        /* \"#utility.yul\":6755:6758   */\n      dup11\n        /* \"#utility.yul\":6751:6765   */\n      add\n        /* \"#utility.yul\":6744:6765   */\n      swap10\n      pop\n        /* \"#utility.yul\":6397:6775   */\n      pop\n        /* \"#utility.yul\":6384:6385   */\n      0x01\n        /* \"#utility.yul\":6381:6382   */\n      dup2\n        /* \"#utility.yul\":6377:6386   */\n      add\n        /* \"#utility.yul\":6372:6386   */\n      swap1\n      pop\n        /* \"#utility.yul\":6337:6775   */\n      jump(tag_509)\n    tag_511:\n        /* \"#utility.yul\":6341:6355   */\n      pop\n        /* \"#utility.yul\":6791:6795   */\n      dup3\n        /* \"#utility.yul\":6784:6795   */\n      swap8\n      pop\n        /* \"#utility.yul\":6811:6814   */\n      dup8\n        /* \"#utility.yul\":6804:6814   */\n      swap6\n      pop\n        /* \"#utility.yul\":5889:6820   */\n      pop\n      pop\n      pop\n      pop\n      pop\n        /* \"#utility.yul\":5717:6820   */\n      swap3\n      swap2\n      pop\n      pop\n      jump\t// out\n        /* \"#utility.yul\":6826:7295   */\n    tag_25:\n        /* \"#utility.yul\":7017:7021   */\n      0x00\n        /* \"#utility.yul\":7055:7057   */\n      0x20\n        /* \"#utility.yul\":7044:7053   */\n      dup3\n        /* \"#utility.yul\":7040:7058   */\n      add\n        /* \"#utility.yul\":7032:7058   */\n      swap1\n      pop\n        /* \"#utility.yul\":7104:7113   */\n      dup2\n        /* \"#utility.yul\":7098:7102   */\n      dup2\n        /* \"#utility.yul\":7094:7114   */\n      sub\n        /* \"#utility.yul\":7090:7091   */\n      0x00\n        /* \"#utility.yul\":7079:7088   */\n      dup4\n        /* \"#utility.yul\":7075:7092   */\n      add\n        /* \"#utility.yul\":7068:7115   */\n      mstore\n        /* \"#utility.yul\":7132:7288   */\n      tag_515\n        /* \"#utility.yul\":7283:7287   */\n      dup2\n        /* \"#utility.yul\":7274:7280   */\n      dup5\n        /* \"#utility.yul\":7132:7288   */\n      tag_393\n      jump\t// in\n    tag_515:\n        /* \"#utility.yul\":7124:7288   */\n      swap1\n      pop\n        /* \"#utility.yul\":6826:7295   */\n      swap3\n      swap2\n      pop\n      pop\n      jump\t// out\n        /* \"#utility.yul\":7301:7416   */\n    tag_394:\n        /* \"#utility.yul\":7390:7391   */\n      0x02\n        /* \"#utility.yul\":7383:7388   */\n      dup2\n        /* \"#utility.yul\":7380:7392   */\n      lt\n        /* \"#utility.yul\":7370:7410   */\n      tag_517\n      jumpi\n        /* \"#utility.yul\":7406:7407   */\n      0x00\n        /* \"#utility.yul\":7403:7404   */\n      dup1\n        /* \"#utility.yul\":7396:7408   */\n      revert\n        /* \"#utility.yul\":7370:7410   */\n    tag_517:\n        /* \"#utility.yul\":7301:7416   */\n      pop\n      jump\t// out\n        /* \"#utility.yul\":7422:7593   */\n    tag_395:\n        /* \"#utility.yul\":7484:7489   */\n      0x00\n        /* \"#utility.yul\":7522:7528   */\n      dup2\n        /* \"#utility.yul\":7509:7529   */\n      calldataload\n        /* \"#utility.yul\":7500:7529   */\n      swap1\n      pop\n        /* \"#utility.yul\":7538:7587   */\n      tag_519\n        /* \"#utility.yul\":7581:7586   */\n      dup2\n        /* \"#utility.yul\":7538:7587   */\n      tag_394\n      jump\t// in\n    tag_519:\n        /* \"#utility.yul\":7422:7593   */\n      swap3\n      swap2\n      pop\n      pop\n      jump\t// out\n        /* \"#utility.yul\":7599:7960   */\n    tag_29:\n        /* \"#utility.yul\":7674:7680   */\n      0x00\n        /* \"#utility.yul\":7723:7725   */\n      0x20\n        /* \"#utility.yul\":7711:7720   */\n      dup3\n        /* \"#utility.yul\":7702:7709   */\n      dup5\n        /* \"#utility.yul\":7698:7721   */\n      sub\n        /* \"#utility.yul\":7694:7726   */\n      slt\n        /* \"#utility.yul\":7691:7810   */\n      iszero\n      tag_521\n      jumpi\n        /* \"#utility.yul\":7729:7808   */\n      tag_522\n      tag_370\n      jump\t// in\n    tag_522:\n        /* \"#utility.yul\":7691:7810   */\n    tag_521:\n        /* \"#utility.yul\":7849:7850   */\n      0x00\n        /* \"#utility.yul\":7874:7943   */\n      tag_523\n        /* \"#utility.yul\":7935:7942   */\n      dup5\n        /* \"#utility.yul\":7926:7932   */\n      dup3\n        /* \"#utility.yul\":7915:7924   */\n      dup6\n        /* \"#utility.yul\":7911:7933   */\n      add\n        /* \"#utility.yul\":7874:7943   */\n      tag_395\n      jump\t// in\n    tag_523:\n        /* \"#utility.yul\":7864:7943   */\n      swap2\n      pop\n        /* \"#utility.yul\":7820:7953   */\n      pop\n        /* \"#utility.yul\":7599:7960   */\n      swap3\n      swap2\n      pop\n      pop\n      jump\t// out\n        /* \"#utility.yul\":7966:8074   */\n    tag_396:\n        /* \"#utility.yul\":8048:8049   */\n      0x02\n        /* \"#utility.yul\":8041:8046   */\n      dup2\n        /* \"#utility.yul\":8038:8050   */\n      lt\n        /* \"#utility.yul\":8028:8068   */\n      tag_525\n      jumpi\n        /* \"#utility.yul\":8064:8065   */\n      0x00\n        /* \"#utility.yul\":8061:8062   */\n      dup1\n        /* \"#utility.yul\":8054:8066   */\n      revert\n        /* \"#utility.yul\":8028:8068   */\n    tag_525:\n        /* \"#utility.yul\":7966:8074   */\n      pop\n      jump\t// out\n        /* \"#utility.yul\":8080:8237   */\n    tag_397:\n        /* \"#utility.yul\":8135:8140   */\n      0x00\n        /* \"#utility.yul\":8173:8179   */\n      dup2\n        /* \"#utility.yul\":8160:8180   */\n      calldataload\n        /* \"#utility.yul\":8151:8180   */\n      swap1\n      pop\n        /* \"#utility.yul\":8189:8231   */\n      tag_527\n        /* \"#utility.yul\":8225:8230   */\n      dup2\n        /* \"#utility.yul\":8189:8231   */\n      tag_396\n      jump\t// in\n    tag_527:\n        /* \"#utility.yul\":8080:8237   */\n      swap3\n      swap2\n      pop\n      pop\n      jump\t// out\n        /* \"#utility.yul\":8243:8935   */\n    tag_35:\n        /* \"#utility.yul\":8332:8338   */\n      0x00\n        /* \"#utility.yul\":8340:8346   */\n      dup1\n        /* \"#utility.yul\":8348:8354   */\n      0x00\n        /* \"#utility.yul\":8397:8399   */\n      0x40\n        /* \"#utility.yul\":8385:8394   */\n      dup5\n        /* \"#utility.yul\":8376:8383   */\n      dup7\n        /* \"#utility.yul\":8372:8395   */\n      sub\n        /* \"#utility.yul\":8368:8400   */\n      slt\n        /* \"#utility.yul\":8365:8484   */\n      iszero\n      tag_529\n      jumpi\n        /* \"#utility.yul\":8403:8482   */\n      tag_530\n      tag_370\n      jump\t// in\n    tag_530:\n        /* \"#utility.yul\":8365:8484   */\n    tag_529:\n        /* \"#utility.yul\":8551:8552   */\n      0x00\n        /* \"#utility.yul\":8540:8549   */\n      dup5\n        /* \"#utility.yul\":8536:8553   */\n      add\n        /* \"#utility.yul\":8523:8554   */\n      calldataload\n        /* \"#utility.yul\":8581:8599   */\n      0xffffffffffffffff\n        /* \"#utility.yul\":8573:8579   */\n      dup2\n        /* \"#utility.yul\":8570:8600   */\n      gt\n        /* \"#utility.yul\":8567:8684   */\n      iszero\n      tag_531\n      jumpi\n        /* \"#utility.yul\":8603:8682   */\n      tag_532\n      tag_371\n      jump\t// in\n    tag_532:\n        /* \"#utility.yul\":8567:8684   */\n    tag_531:\n        /* \"#utility.yul\":8716:8781   */\n      tag_533\n        /* \"#utility.yul\":8773:8780   */\n      dup7\n        /* \"#utility.yul\":8764:8770   */\n      dup3\n        /* \"#utility.yul\":8753:8762   */\n      dup8\n        /* \"#utility.yul\":8749:8771   */\n      add\n        /* \"#utility.yul\":8716:8781   */\n      tag_375\n      jump\t// in\n    tag_533:\n        /* \"#utility.yul\":8698:8781   */\n      swap4\n      pop\n      swap4\n      pop\n        /* \"#utility.yul\":8494:8791   */\n      pop\n        /* \"#utility.yul\":8830:8832   */\n      0x20\n        /* \"#utility.yul\":8856:8918   */\n      tag_534\n        /* \"#utility.yul\":8910:8917   */\n      dup7\n        /* \"#utility.yul\":8901:8907   */\n      dup3\n        /* \"#utility.yul\":8890:8899   */\n      dup8\n        /* \"#utility.yul\":8886:8908   */\n      add\n        /* \"#utility.yul\":8856:8918   */\n      tag_397\n      jump\t// in\n    tag_534:\n        /* \"#utility.yul\":8846:8918   */\n      swap2\n      pop\n        /* \"#utility.yul\":8801:8928   */\n      pop\n        /* \"#utility.yul\":8243:8935   */\n      swap3\n      pop\n      swap3\n      pop\n      swap3\n      jump\t// out\n        /* \"#utility.yul\":8941:9031   */\n    tag_398:\n        /* \"#utility.yul\":8975:8982   */\n      0x00\n        /* \"#utility.yul\":9018:9023   */\n      dup2\n        /* \"#utility.yul\":9011:9024   */\n      iszero\n        /* \"#utility.yul\":9004:9025   */\n      iszero\n        /* \"#utility.yul\":8993:9025   */\n      swap1\n      pop\n        /* \"#utility.yul\":8941:9031   */\n      swap2\n      swap1\n      pop\n      jump\t// out\n        /* \"#utility.yul\":9037:9146   */\n    tag_399:\n        /* \"#utility.yul\":9118:9139   */\n      tag_537\n        /* \"#utility.yul\":9133:9138   */\n      dup2\n        /* \"#utility.yul\":9118:9139   */\n      tag_398\n      jump\t// in\n    tag_537:\n        /* \"#utility.yul\":9113:9116   */\n      dup3\n        /* \"#utility.yul\":9106:9140   */\n      mstore\n        /* \"#utility.yul\":9037:9146   */\n      pop\n      pop\n      jump\t// out\n        /* \"#utility.yul\":9152:9362   */\n    tag_47:\n        /* \"#utility.yul\":9239:9243   */\n      0x00\n        /* \"#utility.yul\":9277:9279   */\n      0x20\n        /* \"#utility.yul\":9266:9275   */\n      dup3\n        /* \"#utility.yul\":9262:9280   */\n      add\n        /* \"#utility.yul\":9254:9280   */\n      swap1\n      pop\n        /* \"#utility.yul\":9290:9355   */\n      tag_539\n        /* \"#utility.yul\":9352:9353   */\n      0x00\n        /* \"#utility.yul\":9341:9350   */\n      dup4\n        /* \"#utility.yul\":9337:9354   */\n      add\n        /* \"#utility.yul\":9328:9334   */\n      dup5\n        /* \"#utility.yul\":9290:9355   */\n      tag_399\n      jump\t// in\n    tag_539:\n        /* \"#utility.yul\":9152:9362   */\n      swap3\n      swap2\n      pop\n      pop\n      jump\t// out\n        /* \"#utility.yul\":9368:9482   */\n    tag_400:\n        /* \"#utility.yul\":9450:9451   */\n      0x02\n        /* \"#utility.yul\":9443:9448   */\n      dup2\n        /* \"#utility.yul\":9440:9452   */\n      lt\n        /* \"#utility.yul\":9430:9476   */\n      tag_541\n      jumpi\n        /* \"#utility.yul\":9456:9474   */\n      tag_542\n      tag_56\n      jump\t// in\n    tag_542:\n        /* \"#utility.yul\":9430:9476   */\n    tag_541:\n        /* \"#utility.yul\":9368:9482   */\n      pop\n      jump\t// out\n        /* \"#utility.yul\":9488:9617   */\n    tag_401:\n        /* \"#utility.yul\":9534:9541   */\n      0x00\n        /* \"#utility.yul\":9563:9568   */\n      dup2\n        /* \"#utility.yul\":9552:9568   */\n      swap1\n      pop\n        /* \"#utility.yul\":9569:9611   */\n      tag_544\n        /* \"#utility.yul\":9605:9610   */\n      dup3\n        /* \"#utility.yul\":9569:9611   */\n      tag_400\n      jump\t// in\n    tag_544:\n        /* \"#utility.yul\":9488:9617   */\n      swap2\n      swap1\n      pop\n      jump\t// out\n        /* \"#utility.yul\":9623:9752   */\n    tag_402:\n        /* \"#utility.yul\":9680:9689   */\n      0x00\n        /* \"#utility.yul\":9713:9746   */\n      tag_546\n        /* \"#utility.yul\":9740:9745   */\n      dup3\n        /* \"#utility.yul\":9713:9746   */\n      tag_401\n      jump\t// in\n    tag_546:\n        /* \"#utility.yul\":9700:9746   */\n      swap1\n      pop\n        /* \"#utility.yul\":9623:9752   */\n      swap2\n      swap1\n      pop\n      jump\t// out\n        /* \"#utility.yul\":9758:9893   */\n    tag_403:\n        /* \"#utility.yul\":9842:9886   */\n      tag_548\n        /* \"#utility.yul\":9880:9885   */\n      dup2\n        /* \"#utility.yul\":9842:9886   */\n      tag_402\n      jump\t// in\n    tag_548:\n        /* \"#utility.yul\":9837:9840   */\n      dup3\n        /* \"#utility.yul\":9830:9887   */\n      mstore\n        /* \"#utility.yul\":9758:9893   */\n      pop\n      pop\n      jump\t// out\n        /* \"#utility.yul\":9899:10014   */\n    tag_404:\n        /* \"#utility.yul\":9982:9983   */\n      0x02\n        /* \"#utility.yul\":9975:9980   */\n      dup2\n        /* \"#utility.yul\":9972:9984   */\n      lt\n        /* \"#utility.yul\":9962:10008   */\n      tag_550\n      jumpi\n        /* \"#utility.yul\":9988:10006   */\n      tag_551\n      tag_56\n      jump\t// in\n    tag_551:\n        /* \"#utility.yul\":9962:10008   */\n    tag_550:\n        /* \"#utility.yul\":9899:10014   */\n      pop\n      jump\t// out\n        /* \"#utility.yul\":10020:10151   */\n    tag_405:\n        /* \"#utility.yul\":10067:10074   */\n      0x00\n        /* \"#utility.yul\":10096:10101   */\n      dup2\n        /* \"#utility.yul\":10085:10101   */\n      swap1\n      pop\n        /* \"#utility.yul\":10102:10145   */\n      tag_553\n        /* \"#utility.yul\":10139:10144   */\n      dup3\n        /* \"#utility.yul\":10102:10145   */\n      tag_404\n      jump\t// in\n    tag_553:\n        /* \"#utility.yul\":10020:10151   */\n      swap2\n      swap1\n      pop\n      jump\t// out\n        /* \"#utility.yul\":10157:10288   */\n    tag_406:\n        /* \"#utility.yul\":10215:10224   */\n      0x00\n        /* \"#utility.yul\":10248:10282   */\n      tag_555\n        /* \"#utility.yul\":10276:10281   */\n      dup3\n        /* \"#utility.yul\":10248:10282   */\n      tag_405\n      jump\t// in\n    tag_555:\n        /* \"#utility.yul\":10235:10282   */\n      swap1\n      pop\n        /* \"#utility.yul\":10157:10288   */\n      swap2\n      swap1\n      pop\n      jump\t// out\n        /* \"#utility.yul\":10294:10431   */\n    tag_407:\n        /* \"#utility.yul\":10379:10424   */\n      tag_557\n        /* \"#utility.yul\":10418:10423   */\n      dup2\n        /* \"#utility.yul\":10379:10424   */\n      tag_406\n      jump\t// in\n    tag_557:\n        /* \"#utility.yul\":10374:10377   */\n      dup3\n        /* \"#utility.yul\":10367:10425   */\n      mstore\n        /* \"#utility.yul\":10294:10431   */\n      pop\n      pop\n      jump\t// out\n        /* \"#utility.yul\":10471:11262   */\n    tag_408:\n        /* \"#utility.yul\":10580:10583   */\n      0x00\n        /* \"#utility.yul\":10616:10620   */\n      0x60\n        /* \"#utility.yul\":10611:10614   */\n      dup4\n        /* \"#utility.yul\":10607:10621   */\n      add\n        /* \"#utility.yul\":10703:10707   */\n      0x00\n        /* \"#utility.yul\":10696:10701   */\n      dup4\n        /* \"#utility.yul\":10692:10708   */\n      add\n        /* \"#utility.yul\":10686:10709   */\n      mload\n        /* \"#utility.yul\":10756:10759   */\n      dup5\n        /* \"#utility.yul\":10750:10754   */\n      dup3\n        /* \"#utility.yul\":10746:10760   */\n      sub\n        /* \"#utility.yul\":10739:10743   */\n      0x00\n        /* \"#utility.yul\":10734:10737   */\n      dup7\n        /* \"#utility.yul\":10730:10744   */\n      add\n        /* \"#utility.yul\":10723:10761   */\n      mstore\n        /* \"#utility.yul\":10782:10855   */\n      tag_559\n        /* \"#utility.yul\":10850:10854   */\n      dup3\n        /* \"#utility.yul\":10836:10848   */\n      dup3\n        /* \"#utility.yul\":10782:10855   */\n      tag_383\n      jump\t// in\n    tag_559:\n        /* \"#utility.yul\":10774:10855   */\n      swap2\n      pop\n        /* \"#utility.yul\":10631:10866   */\n      pop\n        /* \"#utility.yul\":10950:10954   */\n      0x20\n        /* \"#utility.yul\":10943:10948   */\n      dup4\n        /* \"#utility.yul\":10939:10955   */\n      add\n        /* \"#utility.yul\":10933:10956   */\n      mload\n        /* \"#utility.yul\":10969:11039   */\n      tag_560\n        /* \"#utility.yul\":11033:11037   */\n      0x20\n        /* \"#utility.yul\":11028:11031   */\n      dup7\n        /* \"#utility.yul\":11024:11038   */\n      add\n        /* \"#utility.yul\":11010:11022   */\n      dup3\n        /* \"#utility.yul\":10969:11039   */\n      tag_403\n      jump\t// in\n    tag_560:\n        /* \"#utility.yul\":10876:11049   */\n      pop\n        /* \"#utility.yul\":11135:11139   */\n      0x40\n        /* \"#utility.yul\":11128:11133   */\n      dup4\n        /* \"#utility.yul\":11124:11140   */\n      add\n        /* \"#utility.yul\":11118:11141   */\n      mload\n        /* \"#utility.yul\":11154:11225   */\n      tag_561\n        /* \"#utility.yul\":11219:11223   */\n      0x40\n        /* \"#utility.yul\":11214:11217   */\n      dup7\n        /* \"#utility.yul\":11210:11224   */\n      add\n        /* \"#utility.yul\":11196:11208   */\n      dup3\n        /* \"#utility.yul\":11154:11225   */\n      tag_407\n      jump\t// in\n    tag_561:\n        /* \"#utility.yul\":11059:11235   */\n      pop\n        /* \"#utility.yul\":11252:11256   */\n      dup1\n        /* \"#utility.yul\":11245:11256   */\n      swap2\n      pop\n        /* \"#utility.yul\":10585:11262   */\n      pop\n        /* \"#utility.yul\":10471:11262   */\n      swap3\n      swap2\n      pop\n      pop\n      jump\t// out\n        /* \"#utility.yul\":11268:11621   */\n    tag_52:\n        /* \"#utility.yul\":11401:11405   */\n      0x00\n        /* \"#utility.yul\":11439:11441   */\n      0x20\n        /* \"#utility.yul\":11428:11437   */\n      dup3\n        /* \"#utility.yul\":11424:11442   */\n      add\n        /* \"#utility.yul\":11416:11442   */\n      swap1\n      pop\n        /* \"#utility.yul\":11488:11497   */\n      dup2\n        /* \"#utility.yul\":11482:11486   */\n      dup2\n        /* \"#utility.yul\":11478:11498   */\n      sub\n        /* \"#utility.yul\":11474:11475   */\n      0x00\n        /* \"#utility.yul\":11463:11472   */\n      dup4\n        /* \"#utility.yul\":11459:11476   */\n      add\n        /* \"#utility.yul\":11452:11499   */\n      mstore\n        /* \"#utility.yul\":11516:11614   */\n      tag_563\n        /* \"#utility.yul\":11609:11613   */\n      dup2\n        /* \"#utility.yul\":11600:11606   */\n      dup5\n        /* \"#utility.yul\":11516:11614   */\n      tag_408\n      jump\t// in\n    tag_563:\n        /* \"#utility.yul\":11508:11614   */\n      swap1\n      pop\n        /* \"#utility.yul\":11268:11621   */\n      swap3\n      swap2\n      pop\n      pop\n      jump\t// out\n        /* \"#utility.yul\":11627:11775   */\n    tag_409:\n        /* \"#utility.yul\":11729:11740   */\n      0x00\n        /* \"#utility.yul\":11766:11769   */\n      dup2\n        /* \"#utility.yul\":11751:11769   */\n      swap1\n      pop\n        /* \"#utility.yul\":11627:11775   */\n      swap3\n      swap2\n      pop\n      pop\n      jump\t// out\n        /* \"#utility.yul\":11781:12171   */\n    tag_410:\n        /* \"#utility.yul\":11887:11890   */\n      0x00\n        /* \"#utility.yul\":11915:11954   */\n      tag_566\n        /* \"#utility.yul\":11948:11953   */\n      dup3\n        /* \"#utility.yul\":11915:11954   */\n      tag_379\n      jump\t// in\n    tag_566:\n        /* \"#utility.yul\":11970:12059   */\n      tag_567\n        /* \"#utility.yul\":12052:12058   */\n      dup2\n        /* \"#utility.yul\":12047:12050   */\n      dup6\n        /* \"#utility.yul\":11970:12059   */\n      tag_409\n      jump\t// in\n    tag_567:\n        /* \"#utility.yul\":11963:12059   */\n      swap4\n      pop\n        /* \"#utility.yul\":12068:12133   */\n      tag_568\n        /* \"#utility.yul\":12126:12132   */\n      dup2\n        /* \"#utility.yul\":12121:12124   */\n      dup6\n        /* \"#utility.yul\":12114:12118   */\n      0x20\n        /* \"#utility.yul\":12107:12112   */\n      dup7\n        /* \"#utility.yul\":12103:12119   */\n      add\n        /* \"#utility.yul\":12068:12133   */\n      tag_381\n      jump\t// in\n    tag_568:\n        /* \"#utility.yul\":12158:12164   */\n      dup1\n        /* \"#utility.yul\":12153:12156   */\n      dup5\n        /* \"#utility.yul\":12149:12165   */\n      add\n        /* \"#utility.yul\":12142:12165   */\n      swap2\n      pop\n        /* \"#utility.yul\":11891:12171   */\n      pop\n        /* \"#utility.yul\":11781:12171   */\n      swap3\n      swap2\n      pop\n      pop\n      jump\t// out\n        /* \"#utility.yul\":12177:12452   */\n    tag_58:\n        /* \"#utility.yul\":12309:12312   */\n      0x00\n        /* \"#utility.yul\":12331:12426   */\n      tag_570\n        /* \"#utility.yul\":12422:12425   */\n      dup3\n        /* \"#utility.yul\":12413:12419   */\n      dup5\n        /* \"#utility.yul\":12331:12426   */\n      tag_410\n      jump\t// in\n    tag_570:\n        /* \"#utility.yul\":12324:12426   */\n      swap2\n      pop\n        /* \"#utility.yul\":12443:12446   */\n      dup2\n        /* \"#utility.yul\":12436:12446   */\n      swap1\n      pop\n        /* \"#utility.yul\":12177:12452   */\n      swap3\n      swap2\n      pop\n      pop\n      jump\t// out\n        /* \"#utility.yul\":12458:12627   */\n    tag_411:\n        /* \"#utility.yul\":12542:12553   */\n      0x00\n        /* \"#utility.yul\":12576:12582   */\n      dup3\n        /* \"#utility.yul\":12571:12574   */\n      dup3\n        /* \"#utility.yul\":12564:12583   */\n      mstore\n        /* \"#utility.yul\":12616:12620   */\n      0x20\n        /* \"#utility.yul\":12611:12614   */\n      dup3\n        /* \"#utility.yul\":12607:12621   */\n      add\n        /* \"#utility.yul\":12592:12621   */\n      swap1\n      pop\n        /* \"#utility.yul\":12458:12627   */\n      swap3\n      swap2\n      pop\n      pop\n      jump\t// out\n        /* \"#utility.yul\":12633:12798   */\n    tag_412:\n        /* \"#utility.yul\":12773:12790   */\n      0x4361726420697320496e76616c69640000000000000000000000000000000000\n        /* \"#utility.yul\":12769:12770   */\n      0x00\n        /* \"#utility.yul\":12761:12767   */\n      dup3\n        /* \"#utility.yul\":12757:12771   */\n      add\n        /* \"#utility.yul\":12750:12791   */\n      mstore\n        /* \"#utility.yul\":12633:12798   */\n      pop\n      jump\t// out\n        /* \"#utility.yul\":12804:13170   */\n    tag_413:\n        /* \"#utility.yul\":12946:12949   */\n      0x00\n        /* \"#utility.yul\":12967:13034   */\n      tag_574\n        /* \"#utility.yul\":13031:13033   */\n      0x0f\n        /* \"#utility.yul\":13026:13029   */\n      dup4\n        /* \"#utility.yul\":12967:13034   */\n      tag_411\n      jump\t// in\n    tag_574:\n        /* \"#utility.yul\":12960:13034   */\n      swap2\n      pop\n        /* \"#utility.yul\":13043:13136   */\n      tag_575\n        /* \"#utility.yul\":13132:13135   */\n      dup3\n        /* \"#utility.yul\":13043:13136   */\n      tag_412\n      jump\t// in\n    tag_575:\n        /* \"#utility.yul\":13161:13163   */\n      0x20\n        /* \"#utility.yul\":13156:13159   */\n      dup3\n        /* \"#utility.yul\":13152:13164   */\n      add\n        /* \"#utility.yul\":13145:13164   */\n      swap1\n      pop\n        /* \"#utility.yul\":12804:13170   */\n      swap2\n      swap1\n      pop\n      jump\t// out\n        /* \"#utility.yul\":13176:13595   */\n    tag_63:\n        /* \"#utility.yul\":13342:13346   */\n      0x00\n        /* \"#utility.yul\":13380:13382   */\n      0x20\n        /* \"#utility.yul\":13369:13378   */\n      dup3\n        /* \"#utility.yul\":13365:13383   */\n      add\n        /* \"#utility.yul\":13357:13383   */\n      swap1\n      pop\n        /* \"#utility.yul\":13429:13438   */\n      dup2\n        /* \"#utility.yul\":13423:13427   */\n      dup2\n        /* \"#utility.yul\":13419:13439   */\n      sub\n        /* \"#utility.yul\":13415:13416   */\n      0x00\n        /* \"#utility.yul\":13404:13413   */\n      dup4\n        /* \"#utility.yul\":13400:13417   */\n      add\n        /* \"#utility.yul\":13393:13440   */\n      mstore\n        /* \"#utility.yul\":13457:13588   */\n      tag_577\n        /* \"#utility.yul\":13583:13587   */\n      dup2\n        /* \"#utility.yul\":13457:13588   */\n      tag_413\n      jump\t// in\n    tag_577:\n        /* \"#utility.yul\":13449:13588   */\n      swap1\n      pop\n        /* \"#utility.yul\":13176:13595   */\n      swap2\n      swap1\n      pop\n      jump\t// out\n        /* \"#utility.yul\":13601:13781   */\n    tag_414:\n        /* \"#utility.yul\":13649:13726   */\n      0x4e487b7100000000000000000000000000000000000000000000000000000000\n        /* \"#utility.yul\":13646:13647   */\n      0x00\n        /* \"#utility.yul\":13639:13727   */\n      mstore\n        /* \"#utility.yul\":13746:13750   */\n      0x22\n        /* \"#utility.yul\":13743:13744   */\n      0x04\n        /* \"#utility.yul\":13736:13751   */\n      mstore\n        /* \"#utility.yul\":13770:13774   */\n      0x24\n        /* \"#utility.yul\":13767:13768   */\n      0x00\n        /* \"#utility.yul\":13760:13775   */\n      revert\n        /* \"#utility.yul\":13787:14107   */\n    tag_66:\n        /* \"#utility.yul\":13831:13837   */\n      0x00\n        /* \"#utility.yul\":13868:13869   */\n      0x02\n        /* \"#utility.yul\":13862:13866   */\n      dup3\n        /* \"#utility.yul\":13858:13870   */\n      div\n        /* \"#utility.yul\":13848:13870   */\n      swap1\n      pop\n        /* \"#utility.yul\":13915:13916   */\n      0x01\n        /* \"#utility.yul\":13909:13913   */\n      dup3\n        /* \"#utility.yul\":13905:13917   */\n      and\n        /* \"#utility.yul\":13936:13954   */\n      dup1\n        /* \"#utility.yul\":13926:14007   */\n      tag_580\n      jumpi\n        /* \"#utility.yul\":13992:13996   */\n      0x7f\n        /* \"#utility.yul\":13984:13990   */\n      dup3\n        /* \"#utility.yul\":13980:13997   */\n      and\n        /* \"#utility.yul\":13970:13997   */\n      swap2\n      pop\n        /* \"#utility.yul\":13926:14007   */\n    tag_580:\n        /* \"#utility.yul\":14054:14056   */\n      0x20\n        /* \"#utility.yul\":14046:14052   */\n      dup3\n        /* \"#utility.yul\":14043:14057   */\n      lt\n        /* \"#utility.yul\":14023:14041   */\n      dup2\n        /* \"#utility.yul\":14020:14058   */\n      sub\n        /* \"#utility.yul\":14017:14101   */\n      tag_581\n      jumpi\n        /* \"#utility.yul\":14073:14091   */\n      tag_582\n      tag_414\n      jump\t// in\n    tag_582:\n        /* \"#utility.yul\":14017:14101   */\n    tag_581:\n        /* \"#utility.yul\":13838:14107   */\n      pop\n        /* \"#utility.yul\":13787:14107   */\n      swap2\n      swap1\n      pop\n      jump\t// out\n        /* \"#utility.yul\":14113:14282   */\n    tag_415:\n        /* \"#utility.yul\":14253:14274   */\n      0x5573657220646f6573206e6f7420657869737400000000000000000000000000\n        /* \"#utility.yul\":14249:14250   */\n      0x00\n        /* \"#utility.yul\":14241:14247   */\n      dup3\n        /* \"#utility.yul\":14237:14251   */\n      add\n        /* \"#utility.yul\":14230:14275   */\n      mstore\n        /* \"#utility.yul\":14113:14282   */\n      pop\n      jump\t// out\n        /* \"#utility.yul\":14288:14654   */\n    tag_416:\n        /* \"#utility.yul\":14430:14433   */\n      0x00\n        /* \"#utility.yul\":14451:14518   */\n      tag_585\n        /* \"#utility.yul\":14515:14517   */\n      0x13\n        /* \"#utility.yul\":14510:14513   */\n      dup4\n        /* \"#utility.yul\":14451:14518   */\n      tag_411\n      jump\t// in\n    tag_585:\n        /* \"#utility.yul\":14444:14518   */\n      swap2\n      pop\n        /* \"#utility.yul\":14527:14620   */\n      tag_586\n        /* \"#utility.yul\":14616:14619   */\n      dup3\n        /* \"#utility.yul\":14527:14620   */\n      tag_415\n      jump\t// in\n    tag_586:\n        /* \"#utility.yul\":14645:14647   */\n      0x20\n        /* \"#utility.yul\":14640:14643   */\n      dup3\n        /* \"#utility.yul\":14636:14648   */\n      add\n        /* \"#utility.yul\":14629:14648   */\n      swap1\n      pop\n        /* \"#utility.yul\":14288:14654   */\n      swap2\n      swap1\n      pop\n      jump\t// out\n        /* \"#utility.yul\":14660:15079   */\n    tag_69:\n        /* \"#utility.yul\":14826:14830   */\n      0x00\n        /* \"#utility.yul\":14864:14866   */\n      0x20\n        /* \"#utility.yul\":14853:14862   */\n      dup3\n        /* \"#utility.yul\":14849:14867   */\n      add\n        /* \"#utility.yul\":14841:14867   */\n      swap1\n      pop\n        /* \"#utility.yul\":14913:14922   */\n      dup2\n        /* \"#utility.yul\":14907:14911   */\n      dup2\n        /* \"#utility.yul\":14903:14923   */\n      sub\n        /* \"#utility.yul\":14899:14900   */\n      0x00\n        /* \"#utility.yul\":14888:14897   */\n      dup4\n        /* \"#utility.yul\":14884:14901   */\n      add\n        /* \"#utility.yul\":14877:14924   */\n      mstore\n        /* \"#utility.yul\":14941:15072   */\n      tag_588\n        /* \"#utility.yul\":15067:15071   */\n      dup2\n        /* \"#utility.yul\":14941:15072   */\n      tag_416\n      jump\t// in\n    tag_588:\n        /* \"#utility.yul\":14933:15072   */\n      swap1\n      pop\n        /* \"#utility.yul\":14660:15079   */\n      swap2\n      swap1\n      pop\n      jump\t// out\n        /* \"#utility.yul\":15085:15266   */\n    tag_417:\n        /* \"#utility.yul\":15225:15258   */\n      0x5265656e7472616e637947756172643a207265656e7472616e742063616c6c00\n        /* \"#utility.yul\":15221:15222   */\n      0x00\n        /* \"#utility.yul\":15213:15219   */\n      dup3\n        /* \"#utility.yul\":15209:15223   */\n      add\n        /* \"#utility.yul\":15202:15259   */\n      mstore\n        /* \"#utility.yul\":15085:15266   */\n      pop\n      jump\t// out\n        /* \"#utility.yul\":15272:15638   */\n    tag_418:\n        /* \"#utility.yul\":15414:15417   */\n      0x00\n        /* \"#utility.yul\":15435:15502   */\n      tag_591\n        /* \"#utility.yul\":15499:15501   */\n      0x1f\n        /* \"#utility.yul\":15494:15497   */\n      dup4\n        /* \"#utility.yul\":15435:15502   */\n      tag_411\n      jump\t// in\n    tag_591:\n        /* \"#utility.yul\":15428:15502   */\n      swap2\n      pop\n        /* \"#utility.yul\":15511:15604   */\n      tag_592\n        /* \"#utility.yul\":15600:15603   */\n      dup3\n        /* \"#utility.yul\":15511:15604   */\n      tag_417\n      jump\t// in\n    tag_592:\n        /* \"#utility.yul\":15629:15631   */\n      0x20\n        /* \"#utility.yul\":15624:15627   */\n      dup3\n        /* \"#utility.yul\":15620:15632   */\n      add\n        /* \"#utility.yul\":15613:15632   */\n      swap1\n      pop\n        /* \"#utility.yul\":15272:15638   */\n      swap2\n      swap1\n      pop\n      jump\t// out\n        /* \"#utility.yul\":15644:16063   */\n    tag_73:\n        /* \"#utility.yul\":15810:15814   */\n      0x00\n        /* \"#utility.yul\":15848:15850   */\n      0x20\n        /* \"#utility.yul\":15837:15846   */\n      dup3\n        /* \"#utility.yul\":15833:15851   */\n      add\n        /* \"#utility.yul\":15825:15851   */\n      swap1\n      pop\n        /* \"#utility.yul\":15897:15906   */\n      dup2\n        /* \"#utility.yul\":15891:15895   */\n      dup2\n        /* \"#utility.yul\":15887:15907   */\n      sub\n        /* \"#utility.yul\":15883:15884   */\n      0x00\n        /* \"#utility.yul\":15872:15881   */\n      dup4\n        /* \"#utility.yul\":15868:15885   */\n      add\n        /* \"#utility.yul\":15861:15908   */\n      mstore\n        /* \"#utility.yul\":15925:16056   */\n      tag_594\n        /* \"#utility.yul\":16051:16055   */\n      dup2\n        /* \"#utility.yul\":15925:16056   */\n      tag_418\n      jump\t// in\n    tag_594:\n        /* \"#utility.yul\":15917:16056   */\n      swap1\n      pop\n        /* \"#utility.yul\":15644:16063   */\n      swap2\n      swap1\n      pop\n      jump\t// out\n        /* \"#utility.yul\":16069:16217   */\n    tag_419:\n        /* \"#utility.yul\":16167:16173   */\n      dup3\n        /* \"#utility.yul\":16162:16165   */\n      dup2\n        /* \"#utility.yul\":16157:16160   */\n      dup4\n        /* \"#utility.yul\":16144:16174   */\n      calldatacopy\n        /* \"#utility.yul\":16208:16209   */\n      0x00\n        /* \"#utility.yul\":16199:16205   */\n      dup4\n        /* \"#utility.yul\":16194:16197   */\n      dup4\n        /* \"#utility.yul\":16190:16206   */\n      add\n        /* \"#utility.yul\":16183:16210   */\n      mstore\n        /* \"#utility.yul\":16069:16217   */\n      pop\n      pop\n      pop\n      jump\t// out\n        /* \"#utility.yul\":16247:16577   */\n    tag_420:\n        /* \"#utility.yul\":16363:16366   */\n      0x00\n        /* \"#utility.yul\":16384:16473   */\n      tag_597\n        /* \"#utility.yul\":16466:16472   */\n      dup4\n        /* \"#utility.yul\":16461:16464   */\n      dup6\n        /* \"#utility.yul\":16384:16473   */\n      tag_409\n      jump\t// in\n    tag_597:\n        /* \"#utility.yul\":16377:16473   */\n      swap4\n      pop\n        /* \"#utility.yul\":16483:16539   */\n      tag_598\n        /* \"#utility.yul\":16532:16538   */\n      dup4\n        /* \"#utility.yul\":16527:16530   */\n      dup6\n        /* \"#utility.yul\":16520:16525   */\n      dup5\n        /* \"#utility.yul\":16483:16539   */\n      tag_419\n      jump\t// in\n    tag_598:\n        /* \"#utility.yul\":16564:16570   */\n      dup3\n        /* \"#utility.yul\":16559:16562   */\n      dup5\n        /* \"#utility.yul\":16555:16571   */\n      add\n        /* \"#utility.yul\":16548:16571   */\n      swap1\n      pop\n        /* \"#utility.yul\":16247:16577   */\n      swap4\n      swap3\n      pop\n      pop\n      pop\n      jump\t// out\n        /* \"#utility.yul\":16583:16878   */\n    tag_76:\n        /* \"#utility.yul\":16725:16728   */\n      0x00\n        /* \"#utility.yul\":16747:16852   */\n      tag_600\n        /* \"#utility.yul\":16848:16851   */\n      dup3\n        /* \"#utility.yul\":16839:16845   */\n      dup5\n        /* \"#utility.yul\":16831:16837   */\n      dup7\n        /* \"#utility.yul\":16747:16852   */\n      tag_420\n      jump\t// in\n    tag_600:\n        /* \"#utility.yul\":16740:16852   */\n      swap2\n      pop\n        /* \"#utility.yul\":16869:16872   */\n      dup2\n        /* \"#utility.yul\":16862:16872   */\n      swap1\n      pop\n        /* \"#utility.yul\":16583:16878   */\n      swap4\n      swap3\n      pop\n      pop\n      pop\n      jump\t// out\n        /* \"#utility.yul\":16884:17031   */\n    tag_421:\n        /* \"#utility.yul\":16985:16996   */\n      0x00\n        /* \"#utility.yul\":17022:17025   */\n      dup2\n        /* \"#utility.yul\":17007:17025   */\n      swap1\n      pop\n        /* \"#utility.yul\":16884:17031   */\n      swap3\n      swap2\n      pop\n      pop\n      jump\t// out\n        /* \"#utility.yul\":17037:17151   */\n    tag_422:\n      pop\n      jump\t// out\n        /* \"#utility.yul\":17157:17555   */\n    tag_423:\n        /* \"#utility.yul\":17316:17319   */\n      0x00\n        /* \"#utility.yul\":17337:17420   */\n      tag_604\n        /* \"#utility.yul\":17418:17419   */\n      0x00\n        /* \"#utility.yul\":17413:17416   */\n      dup4\n        /* \"#utility.yul\":17337:17420   */\n      tag_421\n      jump\t// in\n    tag_604:\n        /* \"#utility.yul\":17330:17420   */\n      swap2\n      pop\n        /* \"#utility.yul\":17429:17522   */\n      tag_605\n        /* \"#utility.yul\":17518:17521   */\n      dup3\n        /* \"#utility.yul\":17429:17522   */\n      tag_422\n      jump\t// in\n    tag_605:\n        /* \"#utility.yul\":17547:17548   */\n      0x00\n        /* \"#utility.yul\":17542:17545   */\n      dup3\n        /* \"#utility.yul\":17538:17549   */\n      add\n        /* \"#utility.yul\":17531:17549   */\n      swap1\n      pop\n        /* \"#utility.yul\":17157:17555   */\n      swap2\n      swap1\n      pop\n      jump\t// out\n        /* \"#utility.yul\":17561:17940   */\n    tag_78:\n        /* \"#utility.yul\":17745:17748   */\n      0x00\n        /* \"#utility.yul\":17767:17914   */\n      tag_607\n        /* \"#utility.yul\":17910:17913   */\n      dup3\n        /* \"#utility.yul\":17767:17914   */\n      tag_423\n      jump\t// in\n    tag_607:\n        /* \"#utility.yul\":17760:17914   */\n      swap2\n      pop\n        /* \"#utility.yul\":17931:17934   */\n      dup2\n        /* \"#utility.yul\":17924:17934   */\n      swap1\n      pop\n        /* \"#utility.yul\":17561:17940   */\n      swap2\n      swap1\n      pop\n      jump\t// out\n        /* \"#utility.yul\":17946:18099   */\n    tag_424:\n        /* \"#utility.yul\":17999:18005   */\n      0x00\n        /* \"#utility.yul\":18033:18038   */\n      dup2\n        /* \"#utility.yul\":18027:18039   */\n      sload\n        /* \"#utility.yul\":18017:18039   */\n      swap1\n      pop\n        /* \"#utility.yul\":18059:18092   */\n      tag_609\n        /* \"#utility.yul\":18085:18091   */\n      dup2\n        /* \"#utility.yul\":18059:18092   */\n      tag_66\n      jump\t// in\n    tag_609:\n        /* \"#utility.yul\":18049:18092   */\n      swap1\n      pop\n        /* \"#utility.yul\":17946:18099   */\n      swap2\n      swap1\n      pop\n      jump\t// out\n        /* \"#utility.yul\":18105:18285   */\n    tag_119:\n        /* \"#utility.yul\":18153:18230   */\n      0x4e487b7100000000000000000000000000000000000000000000000000000000\n        /* \"#utility.yul\":18150:18151   */\n      0x00\n        /* \"#utility.yul\":18143:18231   */\n      mstore\n        /* \"#utility.yul\":18250:18254   */\n      0x41\n        /* \"#utility.yul\":18247:18248   */\n      0x04\n        /* \"#utility.yul\":18240:18255   */\n      mstore\n        /* \"#utility.yul\":18274:18278   */\n      0x24\n        /* \"#utility.yul\":18271:18272   */\n      0x00\n        /* \"#utility.yul\":18264:18279   */\n      revert\n        /* \"#utility.yul\":18291:18432   */\n    tag_425:\n        /* \"#utility.yul\":18340:18344   */\n      0x00\n        /* \"#utility.yul\":18363:18366   */\n      dup2\n        /* \"#utility.yul\":18355:18366   */\n      swap1\n      pop\n        /* \"#utility.yul\":18386:18389   */\n      dup2\n        /* \"#utility.yul\":18383:18384   */\n      0x00\n        /* \"#utility.yul\":18376:18390   */\n      mstore\n        /* \"#utility.yul\":18420:18424   */\n      0x20\n        /* \"#utility.yul\":18417:18418   */\n      0x00\n        /* \"#utility.yul\":18407:18425   */\n      keccak256\n        /* \"#utility.yul\":18399:18425   */\n      swap1\n      pop\n        /* \"#utility.yul\":18291:18432   */\n      swap2\n      swap1\n      pop\n      jump\t// out\n        /* \"#utility.yul\":18438:18583   */\n    tag_426:\n        /* \"#utility.yul\":18491:18495   */\n      0x00\n        /* \"#utility.yul\":18514:18517   */\n      dup2\n        /* \"#utility.yul\":18506:18517   */\n      swap1\n      pop\n        /* \"#utility.yul\":18537:18540   */\n      dup2\n        /* \"#utility.yul\":18534:18535   */\n      0x00\n        /* \"#utility.yul\":18527:18541   */\n      mstore\n        /* \"#utility.yul\":18571:18575   */\n      0x20\n        /* \"#utility.yul\":18568:18569   */\n      0x00\n        /* \"#utility.yul\":18558:18576   */\n      keccak256\n        /* \"#utility.yul\":18550:18576   */\n      swap1\n      pop\n        /* \"#utility.yul\":18438:18583   */\n      swap2\n      swap1\n      pop\n      jump\t// out\n        /* \"#utility.yul\":18589:18682   */\n    tag_427:\n        /* \"#utility.yul\":18626:18632   */\n      0x00\n        /* \"#utility.yul\":18673:18675   */\n      0x20\n        /* \"#utility.yul\":18668:18670   */\n      0x1f\n        /* \"#utility.yul\":18661:18666   */\n      dup4\n        /* \"#utility.yul\":18657:18671   */\n      add\n        /* \"#utility.yul\":18653:18676   */\n      div\n        /* \"#utility.yul\":18643:18676   */\n      swap1\n      pop\n        /* \"#utility.yul\":18589:18682   */\n      swap2\n      swap1\n      pop\n      jump\t// out\n        /* \"#utility.yul\":18688:18795   */\n    tag_428:\n        /* \"#utility.yul\":18732:18740   */\n      0x00\n        /* \"#utility.yul\":18782:18787   */\n      dup3\n        /* \"#utility.yul\":18776:18780   */\n      dup3\n        /* \"#utility.yul\":18772:18788   */\n      shl\n        /* \"#utility.yul\":18751:18788   */\n      swap1\n      pop\n        /* \"#utility.yul\":18688:18795   */\n      swap3\n      swap2\n      pop\n      pop\n      jump\t// out\n        /* \"#utility.yul\":18801:19194   */\n    tag_429:\n        /* \"#utility.yul\":18870:18876   */\n      0x00\n        /* \"#utility.yul\":18920:18921   */\n      0x08\n        /* \"#utility.yul\":18908:18918   */\n      dup4\n        /* \"#utility.yul\":18904:18922   */\n      mul\n        /* \"#utility.yul\":18943:19040   */\n      tag_616\n        /* \"#utility.yul\":18973:19039   */\n      0xffffffffffffffffffffffffffffffffffffffffffffffffffffffffffffffff\n        /* \"#utility.yul\":18962:18971   */\n      dup3\n        /* \"#utility.yul\":18943:19040   */\n      tag_428\n      jump\t// in\n    tag_616:\n        /* \"#utility.yul\":19061:19100   */\n      tag_617\n        /* \"#utility.yul\":19091:19099   */\n      dup7\n        /* \"#utility.yul\":19080:19089   */\n      dup4\n        /* \"#utility.yul\":19061:19100   */\n      tag_428\n      jump\t// in\n    tag_617:\n        /* \"#utility.yul\":19049:19100   */\n      swap6\n      pop\n        /* \"#utility.yul\":19133:19137   */\n      dup1\n        /* \"#utility.yul\":19129:19138   */\n      not\n        /* \"#utility.yul\":19122:19127   */\n      dup5\n        /* \"#utility.yul\":19118:19139   */\n      and\n        /* \"#utility.yul\":19109:19139   */\n      swap4\n      pop\n        /* \"#utility.yul\":19182:19186   */\n      dup1\n        /* \"#utility.yul\":19172:19180   */\n      dup7\n        /* \"#utility.yul\":19168:19187   */\n      and\n        /* \"#utility.yul\":19161:19166   */\n      dup5\n        /* \"#utility.yul\":19158:19188   */\n      or\n        /* \"#utility.yul\":19148:19188   */\n      swap3\n      pop\n        /* \"#utility.yul\":18877:19194   */\n      pop\n      pop\n        /* \"#utility.yul\":18801:19194   */\n      swap4\n      swap3\n      pop\n      pop\n      pop\n      jump\t// out\n        /* \"#utility.yul\":19200:19260   */\n    tag_430:\n        /* \"#utility.yul\":19228:19231   */\n      0x00\n        /* \"#utility.yul\":19249:19254   */\n      dup2\n        /* \"#utility.yul\":19242:19254   */\n      swap1\n      pop\n        /* \"#utility.yul\":19200:19260   */\n      swap2\n      swap1\n      pop\n      jump\t// out\n        /* \"#utility.yul\":19266:19408   */\n    tag_431:\n        /* \"#utility.yul\":19316:19325   */\n      0x00\n        /* \"#utility.yul\":19349:19402   */\n      tag_620\n        /* \"#utility.yul\":19367:19401   */\n      tag_621\n        /* \"#utility.yul\":19376:19400   */\n      tag_622\n        /* \"#utility.yul\":19394:19399   */\n      dup5\n        /* \"#utility.yul\":19376:19400   */\n      tag_384\n      jump\t// in\n    tag_622:\n        /* \"#utility.yul\":19367:19401   */\n      tag_430\n      jump\t// in\n    tag_621:\n        /* \"#utility.yul\":19349:19402   */\n      tag_384\n      jump\t// in\n    tag_620:\n        /* \"#utility.yul\":19336:19402   */\n      swap1\n      pop\n        /* \"#utility.yul\":19266:19408   */\n      swap2\n      swap1\n      pop\n      jump\t// out\n        /* \"#utility.yul\":19414:19489   */\n    tag_432:\n        /* \"#utility.yul\":19457:19460   */\n      0x00\n        /* \"#utility.yul\":19478:19483   */\n      dup2\n        /* \"#utility.yul\":19471:19483   */\n      swap1\n      pop\n        /* \"#utility.yul\":19414:19489   */\n      swap2\n      swap1\n      pop\n      jump\t// out\n        /* \"#utility.yul\":19495:19764   */\n    tag_433:\n        /* \"#utility.yul\":19605:19644   */\n      tag_625\n        /* \"#utility.yul\":19636:19643   */\n      dup4\n        /* \"#utility.yul\":19605:19644   */\n      tag_431\n      jump\t// in\n    tag_625:\n        /* \"#utility.yul\":19666:19757   */\n      tag_626\n        /* \"#utility.yul\":19715:19756   */\n      tag_627\n        /* \"#utility.yul\":19739:19755   */\n      dup3\n        /* \"#utility.yul\":19715:19756   */\n      tag_432\n      jump\t// in\n    tag_627:\n        /* \"#utility.yul\":19707:19713   */\n      dup5\n        /* \"#utility.yul\":19700:19704   */\n      dup5\n        /* \"#utility.yul\":19694:19705   */\n      sload\n        /* \"#utility.yul\":19666:19757   */\n      tag_429\n      jump\t// in\n    tag_626:\n        /* \"#utility.yul\":19660:19664   */\n      dup3\n        /* \"#utility.yul\":19653:19758   */\n      sstore\n        /* \"#utility.yul\":19571:19764   */\n      pop\n        /* \"#utility.yul\":19495:19764   */\n      pop\n      pop\n      pop\n      jump\t// out\n        /* \"#utility.yul\":19770:19843   */\n    tag_434:\n        /* \"#utility.yul\":19815:19818   */\n      0x00\n        /* \"#utility.yul\":19770:19843   */\n      swap1\n      jump\t// out\n        /* \"#utility.yul\":19849:20038   */\n    tag_435:\n        /* \"#utility.yul\":19926:19958   */\n      tag_630\n      tag_434\n      jump\t// in\n    tag_630:\n        /* \"#utility.yul\":19967:20032   */\n      tag_631\n        /* \"#utility.yul\":20025:20031   */\n      dup2\n        /* \"#utility.yul\":20017:20023   */\n      dup5\n        /* \"#utility.yul\":20011:20015   */\n      dup5\n        /* \"#utility.yul\":19967:20032   */\n      tag_433\n      jump\t// in\n    tag_631:\n        /* \"#utility.yul\":19902:20038   */\n      pop\n        /* \"#utility.yul\":19849:20038   */\n      pop\n      pop\n      jump\t// out\n        /* \"#utility.yul\":20044:20230   */\n    tag_436:\n        /* \"#utility.yul\":20104:20224   */\n    tag_633:\n        /* \"#utility.yul\":20121:20124   */\n      dup2\n        /* \"#utility.yul\":20114:20119   */\n      dup2\n        /* \"#utility.yul\":20111:20125   */\n      lt\n        /* \"#utility.yul\":20104:20224   */\n      iszero\n      tag_635\n      jumpi\n        /* \"#utility.yul\":20175:20214   */\n      tag_636\n        /* \"#utility.yul\":20212:20213   */\n      0x00\n        /* \"#utility.yul\":20205:20210   */\n      dup3\n        /* \"#utility.yul\":20175:20214   */\n      tag_435\n      jump\t// in\n    tag_636:\n        /* \"#utility.yul\":20148:20149   */\n      0x01\n        /* \"#utility.yul\":20141:20146   */\n      dup2\n        /* \"#utility.yul\":20137:20150   */\n      add\n        /* \"#utility.yul\":20128:20150   */\n      swap1\n      pop\n        /* \"#utility.yul\":20104:20224   */\n      jump(tag_633)\n    tag_635:\n        /* \"#utility.yul\":20044:20230   */\n      pop\n      pop\n      jump\t// out\n        /* \"#utility.yul\":20236:20779   */\n    tag_437:\n        /* \"#utility.yul\":20337:20339   */\n      0x1f\n        /* \"#utility.yul\":20332:20335   */\n      dup3\n        /* \"#utility.yul\":20329:20340   */\n      gt\n        /* \"#utility.yul\":20326:20772   */\n      iszero\n      tag_638\n      jumpi\n        /* \"#utility.yul\":20371:20409   */\n      tag_639\n        /* \"#utility.yul\":20403:20408   */\n      dup2\n        /* \"#utility.yul\":20371:20409   */\n      tag_425\n      jump\t// in\n    tag_639:\n        /* \"#utility.yul\":20455:20484   */\n      tag_640\n        /* \"#utility.yul\":20473:20483   */\n      dup5\n        /* \"#utility.yul\":20455:20484   */\n      tag_427\n      jump\t// in\n    tag_640:\n        /* \"#utility.yul\":20445:20453   */\n      dup2\n        /* \"#utility.yul\":20441:20485   */\n      add\n        /* \"#utility.yul\":20638:20640   */\n      0x20\n        /* \"#utility.yul\":20626:20636   */\n      dup6\n        /* \"#utility.yul\":20623:20641   */\n      lt\n        /* \"#utility.yul\":20620:20669   */\n      iszero\n      tag_641\n      jumpi\n        /* \"#utility.yul\":20659:20667   */\n      dup2\n        /* \"#utility.yul\":20644:20667   */\n      swap1\n      pop\n        /* \"#utility.yul\":20620:20669   */\n    tag_641:\n        /* \"#utility.yul\":20682:20762   */\n      tag_642\n        /* \"#utility.yul\":20738:20760   */\n      tag_643\n        /* \"#utility.yul\":20756:20759   */\n      dup6\n        /* \"#utility.yul\":20738:20760   */\n      tag_427\n      jump\t// in\n    tag_643:\n        /* \"#utility.yul\":20728:20736   */\n      dup4\n        /* \"#utility.yul\":20724:20761   */\n      add\n        /* \"#utility.yul\":20711:20722   */\n      dup3\n        /* \"#utility.yul\":20682:20762   */\n      tag_436\n      jump\t// in\n    tag_642:\n        /* \"#utility.yul\":20341:20772   */\n      pop\n      pop\n        /* \"#utility.yul\":20326:20772   */\n    tag_638:\n        /* \"#utility.yul\":20236:20779   */\n      pop\n      pop\n      pop\n      jump\t// out\n        /* \"#utility.yul\":20785:20902   */\n    tag_438:\n        /* \"#utility.yul\":20839:20847   */\n      0x00\n        /* \"#utility.yul\":20889:20894   */\n      dup3\n        /* \"#utility.yul\":20883:20887   */\n      dup3\n        /* \"#utility.yul\":20879:20895   */\n      shr\n        /* \"#utility.yul\":20858:20895   */\n      swap1\n      pop\n        /* \"#utility.yul\":20785:20902   */\n      swap3\n      swap2\n      pop\n      pop\n      jump\t// out\n        /* \"#utility.yul\":20908:21077   */\n    tag_439:\n        /* \"#utility.yul\":20952:20958   */\n      0x00\n        /* \"#utility.yul\":20985:21036   */\n      tag_646\n        /* \"#utility.yul\":21033:21034   */\n      0x00\n        /* \"#utility.yul\":21029:21035   */\n      not\n        /* \"#utility.yul\":21021:21026   */\n      dup5\n        /* \"#utility.yul\":21018:21019   */\n      0x08\n        /* \"#utility.yul\":21014:21027   */\n      mul\n        /* \"#utility.yul\":20985:21036   */\n      tag_438\n      jump\t// in\n    tag_646:\n        /* \"#utility.yul\":20981:21037   */\n      not\n        /* \"#utility.yul\":21066:21070   */\n      dup1\n        /* \"#utility.yul\":21060:21064   */\n      dup4\n        /* \"#utility.yul\":21056:21071   */\n      and\n        /* \"#utility.yul\":21046:21071   */\n      swap2\n      pop\n        /* \"#utility.yul\":20959:21077   */\n      pop\n        /* \"#utility.yul\":20908:21077   */\n      swap3\n      swap2\n      pop\n      pop\n      jump\t// out\n        /* \"#utility.yul\":21082:21377   */\n    tag_440:\n        /* \"#utility.yul\":21158:21162   */\n      0x00\n        /* \"#utility.yul\":21304:21333   */\n      tag_648\n        /* \"#utility.yul\":21329:21332   */\n      dup4\n        /* \"#utility.yul\":21323:21327   */\n      dup4\n        /* \"#utility.yul\":21304:21333   */\n      tag_439\n      jump\t// in\n    tag_648:\n        /* \"#utility.yul\":21296:21333   */\n      swap2\n      pop\n        /* \"#utility.yul\":21366:21369   */\n      dup3\n        /* \"#utility.yul\":21363:21364   */\n      0x02\n        /* \"#utility.yul\":21359:21370   */\n      mul\n        /* \"#utility.yul\":21353:21357   */\n      dup3\n        /* \"#utility.yul\":21350:21371   */\n      or\n        /* \"#utility.yul\":21342:21371   */\n      swap1\n      pop\n        /* \"#utility.yul\":21082:21377   */\n      swap3\n      swap2\n      pop\n      pop\n      jump\t// out\n        /* \"#utility.yul\":21382:22845   */\n    tag_88:\n        /* \"#utility.yul\":21497:21500   */\n      dup2\n        /* \"#utility.yul\":21491:21495   */\n      dup2\n        /* \"#utility.yul\":21488:21501   */\n      sub\n        /* \"#utility.yul\":21485:21511   */\n      tag_650\n      jumpi\n        /* \"#utility.yul\":21504:21509   */\n      pop\n      pop\n      jump(tag_649)\n        /* \"#utility.yul\":21485:21511   */\n    tag_650:\n        /* \"#utility.yul\":21535:21573   */\n      tag_651\n        /* \"#utility.yul\":21569:21572   */\n      dup3\n        /* \"#utility.yul\":21535:21573   */\n      tag_424\n      jump\t// in\n    tag_651:\n        /* \"#utility.yul\":21638:21656   */\n      0xffffffffffffffff\n        /* \"#utility.yul\":21630:21636   */\n      dup2\n        /* \"#utility.yul\":21627:21657   */\n      gt\n        /* \"#utility.yul\":21624:21680   */\n      iszero\n      tag_652\n      jumpi\n        /* \"#utility.yul\":21660:21678   */\n      tag_653\n      tag_119\n      jump\t// in\n    tag_653:\n        /* \"#utility.yul\":21624:21680   */\n    tag_652:\n        /* \"#utility.yul\":21704:21742   */\n      tag_654\n        /* \"#utility.yul\":21736:21740   */\n      dup3\n        /* \"#utility.yul\":21730:21741   */\n      sload\n        /* \"#utility.yul\":21704:21742   */\n      tag_66\n      jump\t// in\n    tag_654:\n        /* \"#utility.yul\":21789:21856   */\n      tag_655\n        /* \"#utility.yul\":21849:21855   */\n      dup3\n        /* \"#utility.yul\":21841:21847   */\n      dup3\n        /* \"#utility.yul\":21835:21839   */\n      dup6\n        /* \"#utility.yul\":21789:21856   */\n      tag_437\n      jump\t// in\n    tag_655:\n        /* \"#utility.yul\":21883:21884   */\n      0x00\n        /* \"#utility.yul\":21912:21914   */\n      0x1f\n        /* \"#utility.yul\":21904:21910   */\n      dup4\n        /* \"#utility.yul\":21901:21915   */\n      gt\n        /* \"#utility.yul\":21929:21930   */\n      0x01\n        /* \"#utility.yul\":21924:22600   */\n      dup2\n      eq\n      tag_657\n      jumpi\n        /* \"#utility.yul\":22644:22645   */\n      0x00\n        /* \"#utility.yul\":22661:22667   */\n      dup5\n        /* \"#utility.yul\":22658:22735   */\n      iszero\n      tag_658\n      jumpi\n        /* \"#utility.yul\":22710:22719   */\n      dup3\n        /* \"#utility.yul\":22705:22708   */\n      dup8\n        /* \"#utility.yul\":22701:22720   */\n      add\n        /* \"#utility.yul\":22695:22721   */\n      sload\n        /* \"#utility.yul\":22686:22721   */\n      swap1\n      pop\n        /* \"#utility.yul\":22658:22735   */\n    tag_658:\n        /* \"#utility.yul\":22761:22828   */\n      tag_659\n        /* \"#utility.yul\":22821:22827   */\n      dup6\n        /* \"#utility.yul\":22814:22819   */\n      dup3\n        /* \"#utility.yul\":22761:22828   */\n      tag_440\n      jump\t// in\n    tag_659:\n        /* \"#utility.yul\":22755:22759   */\n      dup7\n        /* \"#utility.yul\":22748:22829   */\n      sstore\n        /* \"#utility.yul\":22617:22839   */\n      pop\n        /* \"#utility.yul\":21894:22839   */\n      jump(tag_656)\n        /* \"#utility.yul\":21924:22600   */\n    tag_657:\n        /* \"#utility.yul\":21976:21980   */\n      0x1f\n        /* \"#utility.yul\":21972:21981   */\n      not\n        /* \"#utility.yul\":21964:21970   */\n      dup5\n        /* \"#utility.yul\":21960:21982   */\n      and\n        /* \"#utility.yul\":22002:22042   */\n      tag_660\n        /* \"#utility.yul\":22038:22041   */\n      dup8\n        /* \"#utility.yul\":22002:22042   */\n      tag_426\n      jump\t// in\n    tag_660:\n        /* \"#utility.yul\":21995:22042   */\n      swap7\n      pop\n        /* \"#utility.yul\":22069:22106   */\n      tag_661\n        /* \"#utility.yul\":22101:22105   */\n      dup7\n        /* \"#utility.yul\":22069:22106   */\n      tag_425\n      jump\t// in\n    tag_661:\n        /* \"#utility.yul\":22128:22129   */\n      0x00\n        /* \"#utility.yul\":22142:22349   */\n    tag_662:\n        /* \"#utility.yul\":22156:22163   */\n      dup3\n        /* \"#utility.yul\":22153:22154   */\n      dup2\n        /* \"#utility.yul\":22150:22164   */\n      lt\n        /* \"#utility.yul\":22142:22349   */\n      iszero\n      tag_664\n      jumpi\n        /* \"#utility.yul\":22235:22244   */\n      dup5\n        /* \"#utility.yul\":22230:22233   */\n      dup10\n        /* \"#utility.yul\":22226:22245   */\n      add\n        /* \"#utility.yul\":22220:22246   */\n      sload\n        /* \"#utility.yul\":22212:22218   */\n      dup3\n        /* \"#utility.yul\":22205:22247   */\n      sstore\n        /* \"#utility.yul\":22286:22287   */\n      0x01\n        /* \"#utility.yul\":22278:22284   */\n      dup3\n        /* \"#utility.yul\":22274:22288   */\n      add\n        /* \"#utility.yul\":22264:22288   */\n      swap2\n      pop\n        /* \"#utility.yul\":22333:22334   */\n      0x01\n        /* \"#utility.yul\":22322:22331   */\n      dup6\n        /* \"#utility.yul\":22318:22335   */\n      add\n        /* \"#utility.yul\":22305:22335   */\n      swap5\n      pop\n        /* \"#utility.yul\":22179:22183   */\n      0x20\n        /* \"#utility.yul\":22176:22177   */\n      dup2\n        /* \"#utility.yul\":22172:22184   */\n      add\n        /* \"#utility.yul\":22167:22184   */\n      swap1\n      pop\n        /* \"#utility.yul\":22142:22349   */\n      jump(tag_662)\n    tag_664:\n        /* \"#utility.yul\":22377:22383   */\n      dup7\n        /* \"#utility.yul\":22368:22375   */\n      dup4\n        /* \"#utility.yul\":22365:22384   */\n      lt\n        /* \"#utility.yul\":22362:22541   */\n      iszero\n      tag_665\n      jumpi\n        /* \"#utility.yul\":22435:22444   */\n      dup5\n        /* \"#utility.yul\":22430:22433   */\n      dup10\n        /* \"#utility.yul\":22426:22445   */\n      add\n        /* \"#utility.yul\":22420:22446   */\n      sload\n        /* \"#utility.yul\":22478:22526   */\n      tag_666\n        /* \"#utility.yul\":22520:22524   */\n      0x1f\n        /* \"#utility.yul\":22512:22518   */\n      dup10\n        /* \"#utility.yul\":22508:22525   */\n      and\n        /* \"#utility.yul\":22497:22506   */\n      dup3\n        /* \"#utility.yul\":22478:22526   */\n      tag_439\n      jump\t// in\n    tag_666:\n        /* \"#utility.yul\":22470:22476   */\n      dup4\n        /* \"#utility.yul\":22463:22527   */\n      sstore\n        /* \"#utility.yul\":22385:22541   */\n      pop\n        /* \"#utility.yul\":22362:22541   */\n    tag_665:\n        /* \"#utility.yul\":22587:22588   */\n      0x01\n        /* \"#utility.yul\":22583:22584   */\n      0x02\n        /* \"#utility.yul\":22575:22581   */\n      dup9\n        /* \"#utility.yul\":22571:22585   */\n      mul\n        /* \"#utility.yul\":22567:22589   */\n      add\n        /* \"#utility.yul\":22561:22565   */\n      dup9\n        /* \"#utility.yul\":22554:22590   */\n      sstore\n        /* \"#utility.yul\":21931:22600   */\n      pop\n      pop\n      pop\n        /* \"#utility.yul\":21894:22839   */\n    tag_656:\n      pop\n        /* \"#utility.yul\":21475:22845   */\n      pop\n      pop\n      pop\n        /* \"#utility.yul\":21382:22845   */\n      pop\n      pop\n    tag_649:\n      jump\t// out\n        /* \"#utility.yul\":22851:22969   */\n    tag_441:\n        /* \"#utility.yul\":22938:22962   */\n      tag_668\n        /* \"#utility.yul\":22956:22961   */\n      dup2\n        /* \"#utility.yul\":22938:22962   */\n      tag_384\n      jump\t// in\n    tag_668:\n        /* \"#utility.yul\":22933:22936   */\n      dup3\n        /* \"#utility.yul\":22926:22963   */\n      mstore\n        /* \"#utility.yul\":22851:22969   */\n      pop\n      pop\n      jump\t// out\n        /* \"#utility.yul\":22975:23197   */\n    tag_91:\n        /* \"#utility.yul\":23068:23072   */\n      0x00\n        /* \"#utility.yul\":23106:23108   */\n      0x20\n        /* \"#utility.yul\":23095:23104   */\n      dup3\n        /* \"#utility.yul\":23091:23109   */\n      add\n        /* \"#utility.yul\":23083:23109   */\n      swap1\n      pop\n        /* \"#utility.yul\":23119:23190   */\n      tag_670\n        /* \"#utility.yul\":23187:23188   */\n      0x00\n        /* \"#utility.yul\":23176:23185   */\n      dup4\n        /* \"#utility.yul\":23172:23189   */\n      add\n        /* \"#utility.yul\":23163:23169   */\n      dup5\n        /* \"#utility.yul\":23119:23190   */\n      tag_441\n      jump\t// in\n    tag_670:\n        /* \"#utility.yul\":22975:23197   */\n      swap3\n      swap2\n      pop\n      pop\n      jump\t// out\n        /* \"#utility.yul\":23227:24101   */\n    tag_442:\n        /* \"#utility.yul\":23330:23333   */\n      0x00\n        /* \"#utility.yul\":23367:23372   */\n      dup2\n        /* \"#utility.yul\":23361:23373   */\n      sload\n        /* \"#utility.yul\":23396:23432   */\n      tag_672\n        /* \"#utility.yul\":23422:23431   */\n      dup2\n        /* \"#utility.yul\":23396:23432   */\n      tag_66\n      jump\t// in\n    tag_672:\n        /* \"#utility.yul\":23448:23537   */\n      tag_673\n        /* \"#utility.yul\":23530:23536   */\n      dup2\n        /* \"#utility.yul\":23525:23528   */\n      dup7\n        /* \"#utility.yul\":23448:23537   */\n      tag_409\n      jump\t// in\n    tag_673:\n        /* \"#utility.yul\":23441:23537   */\n      swap5\n      pop\n        /* \"#utility.yul\":23568:23569   */\n      0x01\n        /* \"#utility.yul\":23557:23566   */\n      dup3\n        /* \"#utility.yul\":23553:23570   */\n      and\n        /* \"#utility.yul\":23584:23585   */\n      0x00\n        /* \"#utility.yul\":23579:23745   */\n      dup2\n      eq\n      tag_675\n      jumpi\n        /* \"#utility.yul\":23759:23760   */\n      0x01\n        /* \"#utility.yul\":23754:24095   */\n      dup2\n      eq\n      tag_676\n      jumpi\n        /* \"#utility.yul\":23546:24095   */\n      jump(tag_674)\n        /* \"#utility.yul\":23579:23745   */\n    tag_675:\n        /* \"#utility.yul\":23663:23667   */\n      0xff\n        /* \"#utility.yul\":23659:23668   */\n      not\n        /* \"#utility.yul\":23648:23657   */\n      dup4\n        /* \"#utility.yul\":23644:23669   */\n      and\n        /* \"#utility.yul\":23639:23642   */\n      dup7\n        /* \"#utility.yul\":23632:23670   */\n      mstore\n        /* \"#utility.yul\":23725:23731   */\n      dup2\n        /* \"#utility.yul\":23718:23732   */\n      iszero\n        /* \"#utility.yul\":23711:23733   */\n      iszero\n        /* \"#utility.yul\":23703:23709   */\n      dup3\n        /* \"#utility.yul\":23699:23734   */\n      mul\n        /* \"#utility.yul\":23694:23697   */\n      dup7\n        /* \"#utility.yul\":23690:23735   */\n      add\n        /* \"#utility.yul\":23683:23735   */\n      swap4\n      pop\n        /* \"#utility.yul\":23579:23745   */\n      jump(tag_674)\n        /* \"#utility.yul\":23754:24095   */\n    tag_676:\n        /* \"#utility.yul\":23821:23859   */\n      tag_677\n        /* \"#utility.yul\":23853:23858   */\n      dup6\n        /* \"#utility.yul\":23821:23859   */\n      tag_425\n      jump\t// in\n    tag_677:\n        /* \"#utility.yul\":23881:23882   */\n      0x00\n        /* \"#utility.yul\":23895:24049   */\n    tag_678:\n        /* \"#utility.yul\":23909:23915   */\n      dup4\n        /* \"#utility.yul\":23906:23907   */\n      dup2\n        /* \"#utility.yul\":23903:23916   */\n      lt\n        /* \"#utility.yul\":23895:24049   */\n      iszero\n      tag_680\n      jumpi\n        /* \"#utility.yul\":23983:23990   */\n      dup2\n        /* \"#utility.yul\":23977:23991   */\n      sload\n        /* \"#utility.yul\":23973:23974   */\n      dup2\n        /* \"#utility.yul\":23968:23971   */\n      dup10\n        /* \"#utility.yul\":23964:23975   */\n      add\n        /* \"#utility.yul\":23957:23992   */\n      mstore\n        /* \"#utility.yul\":24033:24034   */\n      0x01\n        /* \"#utility.yul\":24024:24031   */\n      dup3\n        /* \"#utility.yul\":24020:24035   */\n      add\n        /* \"#utility.yul\":24009:24035   */\n      swap2\n      pop\n        /* \"#utility.yul\":23931:23935   */\n      0x20\n        /* \"#utility.yul\":23928:23929   */\n      dup2\n        /* \"#utility.yul\":23924:23936   */\n      add\n        /* \"#utility.yul\":23919:23936   */\n      swap1\n      pop\n        /* \"#utility.yul\":23895:24049   */\n      jump(tag_678)\n    tag_680:\n        /* \"#utility.yul\":24078:24084   */\n      dup4\n        /* \"#utility.yul\":24073:24076   */\n      dup9\n        /* \"#utility.yul\":24069:24085   */\n      add\n        /* \"#utility.yul\":24062:24085   */\n      swap6\n      pop\n        /* \"#utility.yul\":23761:24095   */\n      pop\n      pop\n        /* \"#utility.yul\":23546:24095   */\n    tag_674:\n      pop\n        /* \"#utility.yul\":23334:24101   */\n      pop\n      pop\n        /* \"#utility.yul\":23227:24101   */\n      swap3\n      swap2\n      pop\n      pop\n      jump\t// out\n        /* \"#utility.yul\":24107:24376   */\n    tag_98:\n        /* \"#utility.yul\":24236:24239   */\n      0x00\n        /* \"#utility.yul\":24258:24350   */\n      tag_682\n        /* \"#utility.yul\":24346:24349   */\n      dup3\n        /* \"#utility.yul\":24337:24343   */\n      dup5\n        /* \"#utility.yul\":24258:24350   */\n      tag_442\n      jump\t// in\n    tag_682:\n        /* \"#utility.yul\":24251:24350   */\n      swap2\n      pop\n        /* \"#utility.yul\":24367:24370   */\n      dup2\n        /* \"#utility.yul\":24360:24370   */\n      swap1\n      pop\n        /* \"#utility.yul\":24107:24376   */\n      swap3\n      swap2\n      pop\n      pop\n      jump\t// out\n        /* \"#utility.yul\":24382:24562   */\n    tag_104:\n        /* \"#utility.yul\":24430:24507   */\n      0x4e487b7100000000000000000000000000000000000000000000000000000000\n        /* \"#utility.yul\":24427:24428   */\n      0x00\n        /* \"#utility.yul\":24420:24508   */\n      mstore\n        /* \"#utility.yul\":24527:24531   */\n      0x32\n        /* \"#utility.yul\":24524:24525   */\n      0x04\n        /* \"#utility.yul\":24517:24532   */\n      mstore\n        /* \"#utility.yul\":24551:24555   */\n      0x24\n        /* \"#utility.yul\":24548:24549   */\n      0x00\n        /* \"#utility.yul\":24541:24556   */\n      revert\n        /* \"#utility.yul\":24568:24748   */\n    tag_443:\n        /* \"#utility.yul\":24616:24693   */\n      0x4e487b7100000000000000000000000000000000000000000000000000000000\n        /* \"#utility.yul\":24613:24614   */\n      0x00\n        /* \"#utility.yul\":24606:24694   */\n      mstore\n        /* \"#utility.yul\":24713:24717   */\n      0x11\n        /* \"#utility.yul\":24710:24711   */\n      0x04\n        /* \"#utility.yul\":24703:24718   */\n      mstore\n        /* \"#utility.yul\":24737:24741   */\n      0x24\n        /* \"#utility.yul\":24734:24735   */\n      0x00\n        /* \"#utility.yul\":24727:24742   */\n      revert\n        /* \"#utility.yul\":24754:24987   */\n    tag_116:\n        /* \"#utility.yul\":24793:24796   */\n      0x00\n        /* \"#utility.yul\":24816:24840   */\n      tag_686\n        /* \"#utility.yul\":24834:24839   */\n      dup3\n        /* \"#utility.yul\":24816:24840   */\n      tag_384\n      jump\t// in\n    tag_686:\n        /* \"#utility.yul\":24807:24840   */\n      swap2\n      pop\n        /* \"#utility.yul\":24862:24928   */\n      0xffffffffffffffffffffffffffffffffffffffffffffffffffffffffffffffff\n        /* \"#utility.yul\":24855:24860   */\n      dup3\n        /* \"#utility.yul\":24852:24929   */\n      sub\n        /* \"#utility.yul\":24849:24952   */\n      tag_687\n      jumpi\n        /* \"#utility.yul\":24932:24950   */\n      tag_688\n      tag_443\n      jump\t// in\n    tag_688:\n        /* \"#utility.yul\":24849:24952   */\n    tag_687:\n        /* \"#utility.yul\":24979:24980   */\n      0x01\n        /* \"#utility.yul\":24972:24977   */\n      dup3\n        /* \"#utility.yul\":24968:24981   */\n      add\n        /* \"#utility.yul\":24961:24981   */\n      swap1\n      pop\n        /* \"#utility.yul\":24754:24987   */\n      swap2\n      swap1\n      pop\n      jump\t// out\n        /* \"#utility.yul\":24993:25163   */\n    tag_444:\n        /* \"#utility.yul\":25133:25155   */\n      0x596f7520617265206e6f7420616e2061646d696e000000000000000000000000\n        /* \"#utility.yul\":25129:25130   */\n      0x00\n        /* \"#utility.yul\":25121:25127   */\n      dup3\n        /* \"#utility.yul\":25117:25131   */\n      add\n        /* \"#utility.yul\":25110:25156   */\n      mstore\n        /* \"#utility.yul\":24993:25163   */\n      pop\n      jump\t// out\n        /* \"#utility.yul\":25169:25535   */\n    tag_445:\n        /* \"#utility.yul\":25311:25314   */\n      0x00\n        /* \"#utility.yul\":25332:25399   */\n      tag_691\n        /* \"#utility.yul\":25396:25398   */\n      0x14\n        /* \"#utility.yul\":25391:25394   */\n      dup4\n        /* \"#utility.yul\":25332:25399   */\n      tag_411\n      jump\t// in\n    tag_691:\n        /* \"#utility.yul\":25325:25399   */\n      swap2\n      pop\n        /* \"#utility.yul\":25408:25501   */\n      tag_692\n        /* \"#utility.yul\":25497:25500   */\n      dup3\n        /* \"#utility.yul\":25408:25501   */\n      tag_444\n      jump\t// in\n    tag_692:\n        /* \"#utility.yul\":25526:25528   */\n      0x20\n        /* \"#utility.yul\":25521:25524   */\n      dup3\n        /* \"#utility.yul\":25517:25529   */\n      add\n        /* \"#utility.yul\":25510:25529   */\n      swap1\n      pop\n        /* \"#utility.yul\":25169:25535   */\n      swap2\n      swap1\n      pop\n      jump\t// out\n        /* \"#utility.yul\":25541:25960   */\n    tag_171:\n        /* \"#utility.yul\":25707:25711   */\n      0x00\n        /* \"#utility.yul\":25745:25747   */\n      0x20\n        /* \"#utility.yul\":25734:25743   */\n      dup3\n        /* \"#utility.yul\":25730:25748   */\n      add\n        /* \"#utility.yul\":25722:25748   */\n      swap1\n      pop\n        /* \"#utility.yul\":25794:25803   */\n      dup2\n        /* \"#utility.yul\":25788:25792   */\n      dup2\n        /* \"#utility.yul\":25784:25804   */\n      sub\n        /* \"#utility.yul\":25780:25781   */\n      0x00\n        /* \"#utility.yul\":25769:25778   */\n      dup4\n        /* \"#utility.yul\":25765:25782   */\n      add\n        /* \"#utility.yul\":25758:25805   */\n      mstore\n        /* \"#utility.yul\":25822:25953   */\n      tag_694\n        /* \"#utility.yul\":25948:25952   */\n      dup2\n        /* \"#utility.yul\":25822:25953   */\n      tag_445\n      jump\t// in\n    tag_694:\n        /* \"#utility.yul\":25814:25953   */\n      swap1\n      pop\n        /* \"#utility.yul\":25541:25960   */\n      swap2\n      swap1\n      pop\n      jump\t// out\n        /* \"#utility.yul\":25966:27361   */\n    tag_231:\n        /* \"#utility.yul\":26083:26120   */\n      tag_696\n        /* \"#utility.yul\":26116:26119   */\n      dup3\n        /* \"#utility.yul\":26083:26120   */\n      tag_379\n      jump\t// in\n    tag_696:\n        /* \"#utility.yul\":26185:26203   */\n      0xffffffffffffffff\n        /* \"#utility.yul\":26177:26183   */\n      dup2\n        /* \"#utility.yul\":26174:26204   */\n      gt\n        /* \"#utility.yul\":26171:26227   */\n      iszero\n      tag_697\n      jumpi\n        /* \"#utility.yul\":26207:26225   */\n      tag_698\n      tag_119\n      jump\t// in\n    tag_698:\n        /* \"#utility.yul\":26171:26227   */\n    tag_697:\n        /* \"#utility.yul\":26251:26289   */\n      tag_699\n        /* \"#utility.yul\":26283:26287   */\n      dup3\n        /* \"#utility.yul\":26277:26288   */\n      sload\n        /* \"#utility.yul\":26251:26289   */\n      tag_66\n      jump\t// in\n    tag_699:\n        /* \"#utility.yul\":26336:26403   */\n      tag_700\n        /* \"#utility.yul\":26396:26402   */\n      dup3\n        /* \"#utility.yul\":26388:26394   */\n      dup3\n        /* \"#utility.yul\":26382:26386   */\n      dup6\n        /* \"#utility.yul\":26336:26403   */\n      tag_437\n      jump\t// in\n    tag_700:\n        /* \"#utility.yul\":26430:26431   */\n      0x00\n        /* \"#utility.yul\":26454:26458   */\n      0x20\n        /* \"#utility.yul\":26441:26458   */\n      swap1\n      pop\n        /* \"#utility.yul\":26486:26488   */\n      0x1f\n        /* \"#utility.yul\":26478:26484   */\n      dup4\n        /* \"#utility.yul\":26475:26489   */\n      gt\n        /* \"#utility.yul\":26503:26504   */\n      0x01\n        /* \"#utility.yul\":26498:27116   */\n      dup2\n      eq\n      tag_702\n      jumpi\n        /* \"#utility.yul\":27160:27161   */\n      0x00\n        /* \"#utility.yul\":27177:27183   */\n      dup5\n        /* \"#utility.yul\":27174:27251   */\n      iszero\n      tag_703\n      jumpi\n        /* \"#utility.yul\":27226:27235   */\n      dup3\n        /* \"#utility.yul\":27221:27224   */\n      dup8\n        /* \"#utility.yul\":27217:27236   */\n      add\n        /* \"#utility.yul\":27211:27237   */\n      mload\n        /* \"#utility.yul\":27202:27237   */\n      swap1\n      pop\n        /* \"#utility.yul\":27174:27251   */\n    tag_703:\n        /* \"#utility.yul\":27277:27344   */\n      tag_704\n        /* \"#utility.yul\":27337:27343   */\n      dup6\n        /* \"#utility.yul\":27330:27335   */\n      dup3\n        /* \"#utility.yul\":27277:27344   */\n      tag_440\n      jump\t// in\n    tag_704:\n        /* \"#utility.yul\":27271:27275   */\n      dup7\n        /* \"#utility.yul\":27264:27345   */\n      sstore\n        /* \"#utility.yul\":27133:27355   */\n      pop\n        /* \"#utility.yul\":26468:27355   */\n      jump(tag_701)\n        /* \"#utility.yul\":26498:27116   */\n    tag_702:\n        /* \"#utility.yul\":26550:26554   */\n      0x1f\n        /* \"#utility.yul\":26546:26555   */\n      not\n        /* \"#utility.yul\":26538:26544   */\n      dup5\n        /* \"#utility.yul\":26534:26556   */\n      and\n        /* \"#utility.yul\":26584:26621   */\n      tag_705\n        /* \"#utility.yul\":26616:26620   */\n      dup7\n        /* \"#utility.yul\":26584:26621   */\n      tag_425\n      jump\t// in\n    tag_705:\n        /* \"#utility.yul\":26643:26644   */\n      0x00\n        /* \"#utility.yul\":26657:26865   */\n    tag_706:\n        /* \"#utility.yul\":26671:26678   */\n      dup3\n        /* \"#utility.yul\":26668:26669   */\n      dup2\n        /* \"#utility.yul\":26665:26679   */\n      lt\n        /* \"#utility.yul\":26657:26865   */\n      iszero\n      tag_708\n      jumpi\n        /* \"#utility.yul\":26750:26759   */\n      dup5\n        /* \"#utility.yul\":26745:26748   */\n      dup10\n        /* \"#utility.yul\":26741:26760   */\n      add\n        /* \"#utility.yul\":26735:26761   */\n      mload\n        /* \"#utility.yul\":26727:26733   */\n      dup3\n        /* \"#utility.yul\":26720:26762   */\n      sstore\n        /* \"#utility.yul\":26801:26802   */\n      0x01\n        /* \"#utility.yul\":26793:26799   */\n      dup3\n        /* \"#utility.yul\":26789:26803   */\n      add\n        /* \"#utility.yul\":26779:26803   */\n      swap2\n      pop\n        /* \"#utility.yul\":26848:26850   */\n      0x20\n        /* \"#utility.yul\":26837:26846   */\n      dup6\n        /* \"#utility.yul\":26833:26851   */\n      add\n        /* \"#utility.yul\":26820:26851   */\n      swap5\n      pop\n        /* \"#utility.yul\":26694:26698   */\n      0x20\n        /* \"#utility.yul\":26691:26692   */\n      dup2\n        /* \"#utility.yul\":26687:26699   */\n      add\n        /* \"#utility.yul\":26682:26699   */\n      swap1\n      pop\n        /* \"#utility.yul\":26657:26865   */\n      jump(tag_706)\n    tag_708:\n        /* \"#utility.yul\":26893:26899   */\n      dup7\n        /* \"#utility.yul\":26884:26891   */\n      dup4\n        /* \"#utility.yul\":26881:26900   */\n      lt\n        /* \"#utility.yul\":26878:27057   */\n      iszero\n      tag_709\n      jumpi\n        /* \"#utility.yul\":26951:26960   */\n      dup5\n        /* \"#utility.yul\":26946:26949   */\n      dup10\n        /* \"#utility.yul\":26942:26961   */\n      add\n        /* \"#utility.yul\":26936:26962   */\n      mload\n        /* \"#utility.yul\":26994:27042   */\n      tag_710\n        /* \"#utility.yul\":27036:27040   */\n      0x1f\n        /* \"#utility.yul\":27028:27034   */\n      dup10\n        /* \"#utility.yul\":27024:27041   */\n      and\n        /* \"#utility.yul\":27013:27022   */\n      dup3\n        /* \"#utility.yul\":26994:27042   */\n      tag_439\n      jump\t// in\n    tag_710:\n        /* \"#utility.yul\":26986:26992   */\n      dup4\n        /* \"#utility.yul\":26979:27043   */\n      sstore\n        /* \"#utility.yul\":26901:27057   */\n      pop\n        /* \"#utility.yul\":26878:27057   */\n    tag_709:\n        /* \"#utility.yul\":27103:27104   */\n      0x01\n        /* \"#utility.yul\":27099:27100   */\n      0x02\n        /* \"#utility.yul\":27091:27097   */\n      dup9\n        /* \"#utility.yul\":27087:27101   */\n      mul\n        /* \"#utility.yul\":27083:27105   */\n      add\n        /* \"#utility.yul\":27077:27081   */\n      dup9\n        /* \"#utility.yul\":27070:27106   */\n      sstore\n        /* \"#utility.yul\":26505:27116   */\n      pop\n      pop\n      pop\n        /* \"#utility.yul\":26468:27355   */\n    tag_701:\n      pop\n        /* \"#utility.yul\":26058:27361   */\n      pop\n      pop\n      pop\n        /* \"#utility.yul\":25966:27361   */\n      pop\n      pop\n      jump\t// out\n        /* \"#utility.yul\":27367:27777   */\n    tag_242:\n        /* \"#utility.yul\":27407:27414   */\n      0x00\n        /* \"#utility.yul\":27430:27450   */\n      tag_712\n        /* \"#utility.yul\":27448:27449   */\n      dup3\n        /* \"#utility.yul\":27430:27450   */\n      tag_384\n      jump\t// in\n    tag_712:\n        /* \"#utility.yul\":27425:27450   */\n      swap2\n      pop\n        /* \"#utility.yul\":27464:27484   */\n      tag_713\n        /* \"#utility.yul\":27482:27483   */\n      dup4\n        /* \"#utility.yul\":27464:27484   */\n      tag_384\n      jump\t// in\n    tag_713:\n        /* \"#utility.yul\":27459:27484   */\n      swap3\n      pop\n        /* \"#utility.yul\":27519:27520   */\n      dup3\n        /* \"#utility.yul\":27516:27517   */\n      dup3\n        /* \"#utility.yul\":27512:27521   */\n      mul\n        /* \"#utility.yul\":27541:27571   */\n      tag_714\n        /* \"#utility.yul\":27559:27570   */\n      dup2\n        /* \"#utility.yul\":27541:27571   */\n      tag_384\n      jump\t// in\n    tag_714:\n        /* \"#utility.yul\":27530:27571   */\n      swap2\n      pop\n        /* \"#utility.yul\":27720:27721   */\n      dup3\n        /* \"#utility.yul\":27711:27718   */\n      dup3\n        /* \"#utility.yul\":27707:27722   */\n      div\n        /* \"#utility.yul\":27704:27705   */\n      dup5\n        /* \"#utility.yul\":27701:27723   */\n      eq\n        /* \"#utility.yul\":27681:27682   */\n      dup4\n        /* \"#utility.yul\":27674:27683   */\n      iszero\n        /* \"#utility.yul\":27654:27737   */\n      or\n        /* \"#utility.yul\":27631:27770   */\n      tag_715\n      jumpi\n        /* \"#utility.yul\":27750:27768   */\n      tag_716\n      tag_443\n      jump\t// in\n    tag_716:\n        /* \"#utility.yul\":27631:27770   */\n    tag_715:\n        /* \"#utility.yul\":27415:27777   */\n      pop\n        /* \"#utility.yul\":27367:27777   */\n      swap3\n      swap2\n      pop\n      pop\n      jump\t// out\n        /* \"#utility.yul\":27783:27963   */\n    tag_446:\n        /* \"#utility.yul\":27831:27908   */\n      0x4e487b7100000000000000000000000000000000000000000000000000000000\n        /* \"#utility.yul\":27828:27829   */\n      0x00\n        /* \"#utility.yul\":27821:27909   */\n      mstore\n        /* \"#utility.yul\":27928:27932   */\n      0x12\n        /* \"#utility.yul\":27925:27926   */\n      0x04\n        /* \"#utility.yul\":27918:27933   */\n      mstore\n        /* \"#utility.yul\":27952:27956   */\n      0x24\n        /* \"#utility.yul\":27949:27950   */\n      0x00\n        /* \"#utility.yul\":27942:27957   */\n      revert\n        /* \"#utility.yul\":27969:28154   */\n    tag_244:\n        /* \"#utility.yul\":28009:28010   */\n      0x00\n        /* \"#utility.yul\":28026:28046   */\n      tag_719\n        /* \"#utility.yul\":28044:28045   */\n      dup3\n        /* \"#utility.yul\":28026:28046   */\n      tag_384\n      jump\t// in\n    tag_719:\n        /* \"#utility.yul\":28021:28046   */\n      swap2\n      pop\n        /* \"#utility.yul\":28060:28080   */\n      tag_720\n        /* \"#utility.yul\":28078:28079   */\n      dup4\n        /* \"#utility.yul\":28060:28080   */\n      tag_384\n      jump\t// in\n    tag_720:\n        /* \"#utility.yul\":28055:28080   */\n      swap3\n      pop\n        /* \"#utility.yul\":28099:28100   */\n      dup3\n        /* \"#utility.yul\":28089:28124   */\n      tag_721\n      jumpi\n        /* \"#utility.yul\":28104:28122   */\n      tag_722\n      tag_446\n      jump\t// in\n    tag_722:\n        /* \"#utility.yul\":28089:28124   */\n    tag_721:\n        /* \"#utility.yul\":28146:28147   */\n      dup3\n        /* \"#utility.yul\":28143:28144   */\n      dup3\n        /* \"#utility.yul\":28139:28148   */\n      div\n        /* \"#utility.yul\":28134:28148   */\n      swap1\n      pop\n        /* \"#utility.yul\":27969:28154   */\n      swap3\n      swap2\n      pop\n      pop\n      jump\t// out\n        /* \"#utility.yul\":28160:28537   */\n    tag_447:\n        /* \"#utility.yul\":28248:28251   */\n      0x00\n        /* \"#utility.yul\":28276:28315   */\n      tag_724\n        /* \"#utility.yul\":28309:28314   */\n      dup3\n        /* \"#utility.yul\":28276:28315   */\n      tag_379\n      jump\t// in\n    tag_724:\n        /* \"#utility.yul\":28331:28402   */\n      tag_725\n        /* \"#utility.yul\":28395:28401   */\n      dup2\n        /* \"#utility.yul\":28390:28393   */\n      dup6\n        /* \"#utility.yul\":28331:28402   */\n      tag_411\n      jump\t// in\n    tag_725:\n        /* \"#utility.yul\":28324:28402   */\n      swap4\n      pop\n        /* \"#utility.yul\":28411:28476   */\n      tag_726\n        /* \"#utility.yul\":28469:28475   */\n      dup2\n        /* \"#utility.yul\":28464:28467   */\n      dup6\n        /* \"#utility.yul\":28457:28461   */\n      0x20\n        /* \"#utility.yul\":28450:28455   */\n      dup7\n        /* \"#utility.yul\":28446:28462   */\n      add\n        /* \"#utility.yul\":28411:28476   */\n      tag_381\n      jump\t// in\n    tag_726:\n        /* \"#utility.yul\":28501:28530   */\n      tag_727\n        /* \"#utility.yul\":28523:28529   */\n      dup2\n        /* \"#utility.yul\":28501:28530   */\n      tag_382\n      jump\t// in\n    tag_727:\n        /* \"#utility.yul\":28496:28499   */\n      dup5\n        /* \"#utility.yul\":28492:28531   */\n      add\n        /* \"#utility.yul\":28485:28531   */\n      swap2\n      pop\n        /* \"#utility.yul\":28252:28537   */\n      pop\n        /* \"#utility.yul\":28160:28537   */\n      swap3\n      swap2\n      pop\n      pop\n      jump\t// out\n        /* \"#utility.yul\":28543:28966   */\n    tag_250:\n        /* \"#utility.yul\":28684:28688   */\n      0x00\n        /* \"#utility.yul\":28722:28724   */\n      0x40\n        /* \"#utility.yul\":28711:28720   */\n      dup3\n        /* \"#utility.yul\":28707:28725   */\n      add\n        /* \"#utility.yul\":28699:28725   */\n      swap1\n      pop\n        /* \"#utility.yul\":28771:28780   */\n      dup2\n        /* \"#utility.yul\":28765:28769   */\n      dup2\n        /* \"#utility.yul\":28761:28781   */\n      sub\n        /* \"#utility.yul\":28757:28758   */\n      0x00\n        /* \"#utility.yul\":28746:28755   */\n      dup4\n        /* \"#utility.yul\":28742:28759   */\n      add\n        /* \"#utility.yul\":28735:28782   */\n      mstore\n        /* \"#utility.yul\":28799:28877   */\n      tag_729\n        /* \"#utility.yul\":28872:28876   */\n      dup2\n        /* \"#utility.yul\":28863:28869   */\n      dup6\n        /* \"#utility.yul\":28799:28877   */\n      tag_447\n      jump\t// in\n    tag_729:\n        /* \"#utility.yul\":28791:28877   */\n      swap1\n      pop\n        /* \"#utility.yul\":28887:28959   */\n      tag_730\n        /* \"#utility.yul\":28955:28957   */\n      0x20\n        /* \"#utility.yul\":28944:28953   */\n      dup4\n        /* \"#utility.yul\":28940:28958   */\n      add\n        /* \"#utility.yul\":28931:28937   */\n      dup5\n        /* \"#utility.yul\":28887:28959   */\n      tag_441\n      jump\t// in\n    tag_730:\n        /* \"#utility.yul\":28543:28966   */\n      swap4\n      swap3\n      pop\n      pop\n      pop\n      jump\t// out\n        /* \"#utility.yul\":28972:29148   */\n    tag_326:\n        /* \"#utility.yul\":29004:29005   */\n      0x00\n        /* \"#utility.yul\":29021:29041   */\n      tag_732\n        /* \"#utility.yul\":29039:29040   */\n      dup3\n        /* \"#utility.yul\":29021:29041   */\n      tag_384\n      jump\t// in\n    tag_732:\n        /* \"#utility.yul\":29016:29041   */\n      swap2\n      pop\n        /* \"#utility.yul\":29055:29075   */\n      tag_733\n        /* \"#utility.yul\":29073:29074   */\n      dup4\n        /* \"#utility.yul\":29055:29075   */\n      tag_384\n      jump\t// in\n    tag_733:\n        /* \"#utility.yul\":29050:29075   */\n      swap3\n      pop\n        /* \"#utility.yul\":29094:29095   */\n      dup3\n        /* \"#utility.yul\":29084:29119   */\n      tag_734\n      jumpi\n        /* \"#utility.yul\":29099:29117   */\n      tag_735\n      tag_446\n      jump\t// in\n    tag_735:\n        /* \"#utility.yul\":29084:29119   */\n    tag_734:\n        /* \"#utility.yul\":29140:29141   */\n      dup3\n        /* \"#utility.yul\":29137:29138   */\n      dup3\n        /* \"#utility.yul\":29133:29142   */\n      mod\n        /* \"#utility.yul\":29128:29142   */\n      swap1\n      pop\n        /* \"#utility.yul\":28972:29148   */\n      swap3\n      swap2\n      pop\n      pop\n      jump\t// out\n        /* \"#utility.yul\":29154:29345   */\n    tag_328:\n        /* \"#utility.yul\":29194:29197   */\n      0x00\n        /* \"#utility.yul\":29213:29233   */\n      tag_737\n        /* \"#utility.yul\":29231:29232   */\n      dup3\n        /* \"#utility.yul\":29213:29233   */\n      tag_384\n      jump\t// in\n    tag_737:\n        /* \"#utility.yul\":29208:29233   */\n      swap2\n      pop\n        /* \"#utility.yul\":29247:29267   */\n      tag_738\n        /* \"#utility.yul\":29265:29266   */\n      dup4\n        /* \"#utility.yul\":29247:29267   */\n      tag_384\n      jump\t// in\n    tag_738:\n        /* \"#utility.yul\":29242:29267   */\n      swap3\n      pop\n        /* \"#utility.yul\":29290:29291   */\n      dup3\n        /* \"#utility.yul\":29287:29288   */\n      dup3\n        /* \"#utility.yul\":29283:29292   */\n      add\n        /* \"#utility.yul\":29276:29292   */\n      swap1\n      pop\n        /* \"#utility.yul\":29311:29314   */\n      dup1\n        /* \"#utility.yul\":29308:29309   */\n      dup3\n        /* \"#utility.yul\":29305:29315   */\n      gt\n        /* \"#utility.yul\":29302:29338   */\n      iszero\n      tag_739\n      jumpi\n        /* \"#utility.yul\":29318:29336   */\n      tag_740\n      tag_443\n      jump\t// in\n    tag_740:\n        /* \"#utility.yul\":29302:29338   */\n    tag_739:\n        /* \"#utility.yul\":29154:29345   */\n      swap3\n      swap2\n      pop\n      pop\n      jump\t// out\n        /* \"#utility.yul\":29351:29519   */\n    tag_448:\n        /* \"#utility.yul\":29491:29511   */\n      0x436f6465206973204e6f7420556e697175650000000000000000000000000000\n        /* \"#utility.yul\":29487:29488   */\n      0x00\n        /* \"#utility.yul\":29479:29485   */\n      dup3\n        /* \"#utility.yul\":29475:29489   */\n      add\n        /* \"#utility.yul\":29468:29512   */\n      mstore\n        /* \"#utility.yul\":29351:29519   */\n      pop\n      jump\t// out\n        /* \"#utility.yul\":29525:29891   */\n    tag_449:\n        /* \"#utility.yul\":29667:29670   */\n      0x00\n        /* \"#utility.yul\":29688:29755   */\n      tag_743\n        /* \"#utility.yul\":29752:29754   */\n      0x12\n        /* \"#utility.yul\":29747:29750   */\n      dup4\n        /* \"#utility.yul\":29688:29755   */\n      tag_411\n      jump\t// in\n    tag_743:\n        /* \"#utility.yul\":29681:29755   */\n      swap2\n      pop\n        /* \"#utility.yul\":29764:29857   */\n      tag_744\n        /* \"#utility.yul\":29853:29856   */\n      dup3\n        /* \"#utility.yul\":29764:29857   */\n      tag_448\n      jump\t// in\n    tag_744:\n        /* \"#utility.yul\":29882:29884   */\n      0x20\n        /* \"#utility.yul\":29877:29880   */\n      dup3\n        /* \"#utility.yul\":29873:29885   */\n      add\n        /* \"#utility.yul\":29866:29885   */\n      swap1\n      pop\n        /* \"#utility.yul\":29525:29891   */\n      swap2\n      swap1\n      pop\n      jump\t// out\n        /* \"#utility.yul\":29897:30316   */\n    tag_343:\n        /* \"#utility.yul\":30063:30067   */\n      0x00\n        /* \"#utility.yul\":30101:30103   */\n      0x20\n        /* \"#utility.yul\":30090:30099   */\n      dup3\n        /* \"#utility.yul\":30086:30104   */\n      add\n        /* \"#utility.yul\":30078:30104   */\n      swap1\n      pop\n        /* \"#utility.yul\":30150:30159   */\n      dup2\n        /* \"#utility.yul\":30144:30148   */\n      dup2\n        /* \"#utility.yul\":30140:30160   */\n      sub\n        /* \"#utility.yul\":30136:30137   */\n      0x00\n        /* \"#utility.yul\":30125:30134   */\n      dup4\n        /* \"#utility.yul\":30121:30138   */\n      add\n        /* \"#utility.yul\":30114:30161   */\n      mstore\n        /* \"#utility.yul\":30178:30309   */\n      tag_746\n        /* \"#utility.yul\":30304:30308   */\n      dup2\n        /* \"#utility.yul\":30178:30309   */\n      tag_449\n      jump\t// in\n    tag_746:\n        /* \"#utility.yul\":30170:30309   */\n      swap1\n      pop\n        /* \"#utility.yul\":29897:30316   */\n      swap2\n      swap1\n      pop\n      jump\t// out\n        /* \"#utility.yul\":30322:30401   */\n    tag_450:\n        /* \"#utility.yul\":30361:30368   */\n      0x00\n        /* \"#utility.yul\":30390:30395   */\n      dup2\n        /* \"#utility.yul\":30379:30395   */\n      swap1\n      pop\n        /* \"#utility.yul\":30322:30401   */\n      swap2\n      swap1\n      pop\n      jump\t// out\n        /* \"#utility.yul\":30407:30564   */\n    tag_451:\n        /* \"#utility.yul\":30512:30557   */\n      tag_749\n        /* \"#utility.yul\":30532:30556   */\n      tag_750\n        /* \"#utility.yul\":30550:30555   */\n      dup3\n        /* \"#utility.yul\":30532:30556   */\n      tag_384\n      jump\t// in\n    tag_750:\n        /* \"#utility.yul\":30512:30557   */\n      tag_450\n      jump\t// in\n    tag_749:\n        /* \"#utility.yul\":30507:30510   */\n      dup3\n        /* \"#utility.yul\":30500:30558   */\n      mstore\n        /* \"#utility.yul\":30407:30564   */\n      pop\n      pop\n      jump\t// out\n        /* \"#utility.yul\":30570:31108   */\n    tag_361:\n        /* \"#utility.yul\":30738:30741   */\n      0x00\n        /* \"#utility.yul\":30753:30828   */\n      tag_752\n        /* \"#utility.yul\":30824:30827   */\n      dup3\n        /* \"#utility.yul\":30815:30821   */\n      dup7\n        /* \"#utility.yul\":30753:30828   */\n      tag_451\n      jump\t// in\n    tag_752:\n        /* \"#utility.yul\":30853:30855   */\n      0x20\n        /* \"#utility.yul\":30848:30851   */\n      dup3\n        /* \"#utility.yul\":30844:30856   */\n      add\n        /* \"#utility.yul\":30837:30856   */\n      swap2\n      pop\n        /* \"#utility.yul\":30866:30941   */\n      tag_753\n        /* \"#utility.yul\":30937:30940   */\n      dup3\n        /* \"#utility.yul\":30928:30934   */\n      dup6\n        /* \"#utility.yul\":30866:30941   */\n      tag_451\n      jump\t// in\n    tag_753:\n        /* \"#utility.yul\":30966:30968   */\n      0x20\n        /* \"#utility.yul\":30961:30964   */\n      dup3\n        /* \"#utility.yul\":30957:30969   */\n      add\n        /* \"#utility.yul\":30950:30969   */\n      swap2\n      pop\n        /* \"#utility.yul\":30979:31054   */\n      tag_754\n        /* \"#utility.yul\":31050:31053   */\n      dup3\n        /* \"#utility.yul\":31041:31047   */\n      dup5\n        /* \"#utility.yul\":30979:31054   */\n      tag_451\n      jump\t// in\n    tag_754:\n        /* \"#utility.yul\":31079:31081   */\n      0x20\n        /* \"#utility.yul\":31074:31077   */\n      dup3\n        /* \"#utility.yul\":31070:31082   */\n      add\n        /* \"#utility.yul\":31063:31082   */\n      swap2\n      pop\n        /* \"#utility.yul\":31099:31102   */\n      dup2\n        /* \"#utility.yul\":31092:31102   */\n      swap1\n      pop\n        /* \"#utility.yul\":30570:31108   */\n      swap5\n      swap4\n      pop\n      pop\n      pop\n      pop\n      jump\t// out\n\n    auxdata: 0xa2646970667358221220d93a182bbc45e9e2371c064dc895a81efdaff94cd9e527f1a3549e92e20de6c264736f6c634300081a0033\n}\n",
				"bytecode": {
					"linkReferences": {},
					"object": "608060405234801561000f575f80fd5b5060405180606001604052806040518060400160405280600f81526020017f4962726168696d204d6f68616d65640000000000000000000000000000000000815250815260200160018081111561006957610068610371565b5b815260200160018081111561008157610080610371565b5b8152505f80738dc03105ba1a429fc962ebe37766b8601d70e0d673ffffffffffffffffffffffffffffffffffffffff1673ffffffffffffffffffffffffffffffffffffffff1681526020019081526020015f205f820151815f0190816100e791906105d8565b506020820151816001015f6101000a81548160ff0219169083600181111561011257610111610371565b5b021790555060408201518160010160016101000a81548160ff0219169083600181111561014257610141610371565b5b02179055509050506004738dc03105ba1a429fc962ebe37766b8601d70e0d6908060018154018082558091505060019003905f5260205f20015f9091909190916101000a81548173ffffffffffffffffffffffffffffffffffffffff021916908373ffffffffffffffffffffffffffffffffffffffff16021790555060405180606001604052806040518060400160405280600b81526020017f4f62616461205361667761000000000000000000000000000000000000000000815250815260200160018081111561021757610216610371565b5b815260200160018081111561022f5761022e610371565b5b8152505f8073ad009219d5052664e665c2a95f12e4abea6730c073ffffffffffffffffffffffffffffffffffffffff1673ffffffffffffffffffffffffffffffffffffffff1681526020019081526020015f205f820151815f01908161029591906105d8565b506020820151816001015f6101000a81548160ff021916908360018111156102c0576102bf610371565b5b021790555060408201518160010160016101000a81548160ff021916908360018111156102f0576102ef610371565b5b0217905550905050600473ad009219d5052664e665c2a95f12e4abea6730c0908060018154018082558091505060019003905f5260205f20015f9091909190916101000a81548173ffffffffffffffffffffffffffffffffffffffff021916908373ffffffffffffffffffffffffffffffffffffffff1602179055506106a7565b7f4e487b71000000000000000000000000000000000000000000000000000000005f52602160045260245ffd5b5f81519050919050565b7f4e487b71000000000000000000000000000000000000000000000000000000005f52604160045260245ffd5b7f4e487b71000000000000000000000000000000000000000000000000000000005f52602260045260245ffd5b5f600282049050600182168061041957607f821691505b60208210810361042c5761042b6103d5565b5b50919050565b5f819050815f5260205f209050919050565b5f6020601f8301049050919050565b5f82821b905092915050565b5f6008830261048e7fffffffffffffffffffffffffffffffffffffffffffffffffffffffffffffffff82610453565b6104988683610453565b95508019841693508086168417925050509392505050565b5f819050919050565b5f819050919050565b5f6104dc6104d76104d2846104b0565b6104b9565b6104b0565b9050919050565b5f819050919050565b6104f5836104c2565b610509610501826104e3565b84845461045f565b825550505050565b5f90565b61051d610511565b6105288184846104ec565b505050565b5b8181101561054b576105405f82610515565b60018101905061052e565b5050565b601f8211156105905761056181610432565b61056a84610444565b81016020851015610579578190505b61058d61058585610444565b83018261052d565b50505b505050565b5f82821c905092915050565b5f6105b05f1984600802610595565b1980831691505092915050565b5f6105c883836105a1565b9150826002028217905092915050565b6105e18261039e565b67ffffffffffffffff8111156105fa576105f96103a8565b5b6106048254610402565b61060f82828561054f565b5f60209050601f831160018114610640575f841561062e578287015190505b61063885826105bd565b86555061069f565b601f19841661064e86610432565b5f5b8281101561067557848901518255600182019150602085019450602081019050610650565b86831015610692578489015161068e601f8916826105a1565b8355505b6001600288020188555050505b505050505050565b612af5806106b45f395ff3fe60806040526004361061007e575f3560e01c8063a34f011c1161004d578063a34f011c1461013d578063a927db0d14610147578063b6db75a014610171578063d9c8a38b1461019b57610085565b806327e26c8c146100875780632b4a9dda146100af5780634cf57138146100d95780638f0e582f1461011557610085565b3661008557005b005b348015610092575f80fd5b506100ad60048036038101906100a89190611c26565b6101c5565b005b3480156100ba575f80fd5b506100c3610554565b6040516100d09190611e8e565b60405180910390f35b3480156100e4575f80fd5b506100ff60048036038101906100fa9190611ed1565b610a6f565b60405161010c9190611e8e565b60405180910390f35b348015610120575f80fd5b5061013b60048036038101906101369190611f1f565b610f16565b005b6101456110af565b005b348015610152575f80fd5b5061015b6111a9565b6040516101689190611e8e565b60405180910390f35b34801561017c575f80fd5b5061018561152e565b6040516101929190611f96565b60405180910390f35b3480156101a6575f80fd5b506101af611633565b6040516101bc9190612088565b60405180910390f35b81818080601f0160208091040260200160405190810160405280939291908181526020018383808284375f81840152601f19601f8201169050808301925050505050505060018081111561021c5761021b611d22565b5b60018260405161022c91906120e2565b90815260200160405180910390206002015f9054906101000a900460ff16600181111561025c5761025b611d22565b5b1461029c576040517f08c379a000000000000000000000000000000000000000000000000000000000815260040161029390612152565b60405180910390fd5b5f805f3373ffffffffffffffffffffffffffffffffffffffff1673ffffffffffffffffffffffffffffffffffffffff1681526020019081526020015f205f0180546102e69061219d565b905011610328576040517f08c379a000000000000000000000000000000000000000000000000000000000815260040161031f90612217565b60405180910390fd5b60025f9054906101000a900460ff1615610377576040517f08c379a000000000000000000000000000000000000000000000000000000000815260040161036e9061227f565b60405180910390fd5b600160025f6101000a81548160ff0219169083151502179055505f3373ffffffffffffffffffffffffffffffffffffffff16600185856040516103bb9291906122cf565b9081526020016040518091039020600101546040516103d990612314565b5f6040518083038185875af1925050503d805f8114610413576040519150601f19603f3d011682016040523d82523d5f602084013e610418565b606091505b505090508015610535575f600185856040516104359291906122cf565b90815260200160405180910390206002015f6101000a81548160ff0219169083600181111561046757610466611d22565b5b02179055505f803373ffffffffffffffffffffffffffffffffffffffff1673ffffffffffffffffffffffffffffffffffffffff1681526020019081526020015f205f01600185856040516104bc9291906122cf565b908152602001604051809103902060030190816104d99190612519565b507f604d6de1b6eb3f39c6ab9d4981a20d17f88c5bef33495ae58dabeb097ba7a41a6001858560405161050d9291906122cf565b90815260200160405180910390206001015460405161052c919061260d565b60405180910390a15b505f60025f6101000a81548160ff021916908315150217905550505050565b60605f805f3373ffffffffffffffffffffffffffffffffffffffff1673ffffffffffffffffffffffffffffffffffffffff1681526020019081526020015f205f0180546105a09061219d565b9050116105e2576040517f08c379a00000000000000000000000000000000000000000000000000000000081526004016105d990612217565b60405180910390fd5b5f80805f3373ffffffffffffffffffffffffffffffffffffffff1673ffffffffffffffffffffffffffffffffffffffff1681526020019081526020015f205f0160405160200161063291906126a6565b6040516020818303038152906040528051906020012090505f5b60038054905081101561074857816001600383815481106106705761066f6126bc565b5b905f5260205f200160405161068591906126a6565b90815260200160405180910390205f016040516020016106a591906126a6565b6040516020818303038152906040528051906020012014806107275750816001600383815481106106d9576106d86126bc565b5b905f5260205f20016040516106ee91906126a6565b908152602001604051809103902060030160405160200161070f91906126a6565b60405160208183030381529060405280519060200120145b1561073b57828061073790612716565b9350505b808060010191505061064c565b505f8267ffffffffffffffff8111156107645761076361233d565b5b60405190808252806020026020018201604052801561079d57816020015b61078a611b42565b8152602001906001900390816107825790505b5090505f805b600380549050811015610a6457836001600383815481106107c7576107c66126bc565b5b905f5260205f20016040516107dc91906126a6565b90815260200160405180910390205f016040516020016107fc91906126a6565b60405160208183030381529060405280519060200120148061087e5750836001600383815481106108305761082f6126bc565b5b905f5260205f200160405161084591906126a6565b908152602001604051809103902060030160405160200161086691906126a6565b60405160208183030381529060405280519060200120145b15610a5757600160038281548110610899576108986126bc565b5b905f5260205f20016040516108ae91906126a6565b90815260200160405180910390206040518060800160405290815f820180546108d69061219d565b80601f01602080910402602001604051908101604052809291908181526020018280546109029061219d565b801561094d5780601f106109245761010080835404028352916020019161094d565b820191905f5260205f20905b81548152906001019060200180831161093057829003601f168201915b5050505050815260200160018201548152602001600282015f9054906101000a900460ff16600181111561098457610983611d22565b5b600181111561099657610995611d22565b5b81526020016003820180546109aa9061219d565b80601f01602080910402602001604051908101604052809291908181526020018280546109d69061219d565b8015610a215780601f106109f857610100808354040283529160200191610a21565b820191905f5260205f20905b815481529060010190602001808311610a0457829003601f168201915b505050505081525050838381518110610a3d57610a3c6126bc565b5b60200260200101819052508180610a5390612716565b9250505b80806001019150506107a3565b508194505050505090565b60605f805f3373ffffffffffffffffffffffffffffffffffffffff1673ffffffffffffffffffffffffffffffffffffffff1681526020019081526020015f205f018054610abb9061219d565b905011610afd576040517f08c379a0000000000000000000000000000000000000000000000000000000008152600401610af490612217565b60405180910390fd5b600180811115610b1057610b0f611d22565b5b5f803373ffffffffffffffffffffffffffffffffffffffff1673ffffffffffffffffffffffffffffffffffffffff1681526020019081526020015f2060010160019054906101000a900460ff166001811115610b6f57610b6e611d22565b5b14610baf576040517f08c379a0000000000000000000000000000000000000000000000000000000008152600401610ba6906127a7565b60405180910390fd5b5f8060038054905090505f5b81811015610c5257846001811115610bd657610bd5611d22565b5b600160038381548110610bec57610beb6126bc565b5b905f5260205f2001604051610c0191906126a6565b90815260200160405180910390206002015f9054906101000a900460ff166001811115610c3157610c30611d22565b5b03610c45578280610c4190612716565b9350505b8080600101915050610bbb565b505f8267ffffffffffffffff811115610c6e57610c6d61233d565b5b604051908082528060200260200182016040528015610ca757816020015b610c94611b42565b815260200190600190039081610c8c5790505b5090505f805b83811015610f0957866001811115610cc857610cc7611d22565b5b600160038381548110610cde57610cdd6126bc565b5b905f5260205f2001604051610cf391906126a6565b90815260200160405180910390206002015f9054906101000a900460ff166001811115610d2357610d22611d22565b5b03610efc57600160038281548110610d3e57610d3d6126bc565b5b905f5260205f2001604051610d5391906126a6565b90815260200160405180910390206040518060800160405290815f82018054610d7b9061219d565b80601f0160208091040260200160405190810160405280929190818152602001828054610da79061219d565b8015610df25780601f10610dc957610100808354040283529160200191610df2565b820191905f5260205f20905b815481529060010190602001808311610dd557829003601f168201915b5050505050815260200160018201548152602001600282015f9054906101000a900460ff166001811115610e2957610e28611d22565b5b6001811115610e3b57610e3a611d22565b5b8152602001600382018054610e4f9061219d565b80601f0160208091040260200160405190810160405280929190818152602001828054610e7b9061219d565b8015610ec65780601f10610e9d57610100808354040283529160200191610ec6565b820191905f5260205f20905b815481529060010190602001808311610ea957829003601f168201915b505050505081525050838381518110610ee257610ee16126bc565b5b60200260200101819052508180610ef890612716565b9250505b8080600101915050610cad565b5081945050505050919050565b600433908060018154018082558091505060019003905f5260205f20015f9091909190916101000a81548173ffffffffffffffffffffffffffffffffffffffff021916908373ffffffffffffffffffffffffffffffffffffffff160217905550604051806060016040528084848080601f0160208091040260200160405190810160405280939291908181526020018383808284375f81840152601f19601f820116905080830192505050505050508152602001826001811115610fdd57610fdc611d22565b5b81526020015f6001811115610ff557610ff4611d22565b5b8152505f803373ffffffffffffffffffffffffffffffffffffffff1673ffffffffffffffffffffffffffffffffffffffff1681526020019081526020015f205f820151815f01908161104791906127c5565b506020820151816001015f6101000a81548160ff0219169083600181111561107257611071611d22565b5b021790555060408201518160010160016101000a81548160ff021916908360018111156110a2576110a1611d22565b5b0217905550905050505050565b5f805f3373ffffffffffffffffffffffffffffffffffffffff1673ffffffffffffffffffffffffffffffffffffffff1681526020019081526020015f205f0180546110f99061219d565b90501161113b576040517f08c379a000000000000000000000000000000000000000000000000000000000815260040161113290612217565b60405180910390fd5b5f6064605a3461114b9190612894565b6111559190612902565b90505f61116061178b565b905061116c8183611868565b7f19446f6741eca6d71b8406898c4308b5f1b9844f9f1ea7614b48264e453b9bd2818360405161119d92919061296a565b60405180910390a15050565b60605f805f3373ffffffffffffffffffffffffffffffffffffffff1673ffffffffffffffffffffffffffffffffffffffff1681526020019081526020015f205f0180546111f59061219d565b905011611237576040517f08c379a000000000000000000000000000000000000000000000000000000000815260040161122e90612217565b60405180910390fd5b60018081111561124a57611249611d22565b5b5f803373ffffffffffffffffffffffffffffffffffffffff1673ffffffffffffffffffffffffffffffffffffffff1681526020019081526020015f2060010160019054906101000a900460ff1660018111156112a9576112a8611d22565b5b146112e9576040517f08c379a00000000000000000000000000000000000000000000000000000000081526004016112e0906127a7565b60405180910390fd5b5f60038054905090505f8167ffffffffffffffff81111561130d5761130c61233d565b5b60405190808252806020026020018201604052801561134657816020015b611333611b42565b81526020019060019003908161132b5790505b5090505f5b8281101561152557600160038281548110611369576113686126bc565b5b905f5260205f200160405161137e91906126a6565b90815260200160405180910390206040518060800160405290815f820180546113a69061219d565b80601f01602080910402602001604051908101604052809291908181526020018280546113d29061219d565b801561141d5780601f106113f45761010080835404028352916020019161141d565b820191905f5260205f20905b81548152906001019060200180831161140057829003601f168201915b5050505050815260200160018201548152602001600282015f9054906101000a900460ff16600181111561145457611453611d22565b5b600181111561146657611465611d22565b5b815260200160038201805461147a9061219d565b80601f01602080910402602001604051908101604052809291908181526020018280546114a69061219d565b80156114f15780601f106114c8576101008083540402835291602001916114f1565b820191905f5260205f20905b8154815290600101906020018083116114d457829003601f168201915b50505050508152505082828151811061150d5761150c6126bc565b5b6020026020010181905250808060010191505061134b565b50809250505090565b5f805f803373ffffffffffffffffffffffffffffffffffffffff1673ffffffffffffffffffffffffffffffffffffffff1681526020019081526020015f205f0180546115799061219d565b9050116115bb576040517f08c379a00000000000000000000000000000000000000000000000000000000081526004016115b290612217565b60405180910390fd5b6001808111156115ce576115cd611d22565b5b5f803373ffffffffffffffffffffffffffffffffffffffff1673ffffffffffffffffffffffffffffffffffffffff1681526020019081526020015f2060010160019054906101000a900460ff16600181111561162d5761162c611d22565b5b14905090565b61163b611b7a565b5f803373ffffffffffffffffffffffffffffffffffffffff1673ffffffffffffffffffffffffffffffffffffffff1681526020019081526020015f206040518060600160405290815f820180546116919061219d565b80601f01602080910402602001604051908101604052809291908181526020018280546116bd9061219d565b80156117085780601f106116df57610100808354040283529160200191611708565b820191905f5260205f20905b8154815290600101906020018083116116eb57829003601f168201915b50505050508152602001600182015f9054906101000a900460ff16600181111561173557611734611d22565b5b600181111561174757611746611d22565b5b81526020016001820160019054906101000a900460ff1660018111156117705761176f611d22565b5b600181111561178257611781611d22565b5b81525050905090565b60605f600f67ffffffffffffffff8111156117a9576117a861233d565b5b6040519080825280601f01601f1916602001820160405280156117db5781602001600182028036833780820191505090505b5090505f5b600f811015611860575f6117f382611b00565b9050601a816118029190612998565b606161180e91906129c8565b60f81b838381518110611824576118236126bc565b5b60200101907effffffffffffffffffffffffffffffffffffffffffffffffffffffffffffff191690815f1a9053505080806001019150506117e0565b508091505090565b815f805b6003805490508110156118fd578260405160200161188a91906120e2565b60405160208183030381529060405280519060200120600382815481106118b4576118b36126bc565b5b905f5260205f20016040516020016118cc91906126a6565b60405160208183030381529060405280519060200120036118f057600191506118fd565b808060010191505061186c565b50801561193f576040517f08c379a000000000000000000000000000000000000000000000000000000000815260040161193690612a45565b60405180910390fd5b600384908060018154018082558091505060019003905f5260205f20015f90919091909150908161197091906127c5565b5060405180608001604052805f803373ffffffffffffffffffffffffffffffffffffffff1673ffffffffffffffffffffffffffffffffffffffff1681526020019081526020015f205f0180546119c59061219d565b80601f01602080910402602001604051908101604052809291908181526020018280546119f19061219d565b8015611a3c5780601f10611a1357610100808354040283529160200191611a3c565b820191905f5260205f20905b815481529060010190602001808311611a1f57829003601f168201915b50505050508152602001848152602001600180811115611a5f57611a5e611d22565b5b815260200160405180602001604052805f815250815250600185604051611a8691906120e2565b90815260200160405180910390205f820151815f019081611aa791906127c5565b50602082015181600101556040820151816002015f6101000a81548160ff02191690836001811115611adc57611adb611d22565b5b02179055506060820151816003019081611af691906127c5565b5090505050505050565b5f612710424484604051602001611b1993929190612a83565b604051602081830303815290604052805190602001205f1c611b3b9190612998565b9050919050565b6040518060800160405280606081526020015f81526020015f6001811115611b6d57611b6c611d22565b5b8152602001606081525090565b6040518060600160405280606081526020015f6001811115611b9f57611b9e611d22565b5b81526020015f6001811115611bb757611bb6611d22565b5b81525090565b5f80fd5b5f80fd5b5f80fd5b5f80fd5b5f80fd5b5f8083601f840112611be657611be5611bc5565b5b8235905067ffffffffffffffff811115611c0357611c02611bc9565b5b602083019150836001820283011115611c1f57611c1e611bcd565b5b9250929050565b5f8060208385031215611c3c57611c3b611bbd565b5b5f83013567ffffffffffffffff811115611c5957611c58611bc1565b5b611c6585828601611bd1565b92509250509250929050565b5f81519050919050565b5f82825260208201905092915050565b5f819050602082019050919050565b5f81519050919050565b5f82825260208201905092915050565b8281835e5f83830152505050565b5f601f19601f8301169050919050565b5f611cdc82611c9a565b611ce68185611ca4565b9350611cf6818560208601611cb4565b611cff81611cc2565b840191505092915050565b5f819050919050565b611d1c81611d0a565b82525050565b7f4e487b71000000000000000000000000000000000000000000000000000000005f52602160045260245ffd5b60028110611d6057611d5f611d22565b5b50565b5f819050611d7082611d4f565b919050565b5f611d7f82611d63565b9050919050565b611d8f81611d75565b82525050565b5f608083015f8301518482035f860152611daf8282611cd2565b9150506020830151611dc46020860182611d13565b506040830151611dd76040860182611d86565b5060608301518482036060860152611def8282611cd2565b9150508091505092915050565b5f611e078383611d95565b905092915050565b5f602082019050919050565b5f611e2582611c71565b611e2f8185611c7b565b935083602082028501611e4185611c8b565b805f5b85811015611e7c5784840389528151611e5d8582611dfc565b9450611e6883611e0f565b925060208a01995050600181019050611e44565b50829750879550505050505092915050565b5f6020820190508181035f830152611ea68184611e1b565b905092915050565b60028110611eba575f80fd5b50565b5f81359050611ecb81611eae565b92915050565b5f60208284031215611ee657611ee5611bbd565b5b5f611ef384828501611ebd565b91505092915050565b60028110611f08575f80fd5b50565b5f81359050611f1981611efc565b92915050565b5f805f60408486031215611f3657611f35611bbd565b5b5f84013567ffffffffffffffff811115611f5357611f52611bc1565b5b611f5f86828701611bd1565b93509350506020611f7286828701611f0b565b9150509250925092565b5f8115159050919050565b611f9081611f7c565b82525050565b5f602082019050611fa95f830184611f87565b92915050565b60028110611fc057611fbf611d22565b5b50565b5f819050611fd082611faf565b919050565b5f611fdf82611fc3565b9050919050565b611fef81611fd5565b82525050565b6002811061200657612005611d22565b5b50565b5f81905061201682611ff5565b919050565b5f61202582612009565b9050919050565b6120358161201b565b82525050565b5f606083015f8301518482035f8601526120558282611cd2565b915050602083015161206a6020860182611fe6565b50604083015161207d604086018261202c565b508091505092915050565b5f6020820190508181035f8301526120a0818461203b565b905092915050565b5f81905092915050565b5f6120bc82611c9a565b6120c681856120a8565b93506120d6818560208601611cb4565b80840191505092915050565b5f6120ed82846120b2565b915081905092915050565b5f82825260208201905092915050565b7f4361726420697320496e76616c696400000000000000000000000000000000005f82015250565b5f61213c600f836120f8565b915061214782612108565b602082019050919050565b5f6020820190508181035f83015261216981612130565b9050919050565b7f4e487b71000000000000000000000000000000000000000000000000000000005f52602260045260245ffd5b5f60028204905060018216806121b457607f821691505b6020821081036121c7576121c6612170565b5b50919050565b7f5573657220646f6573206e6f74206578697374000000000000000000000000005f82015250565b5f6122016013836120f8565b915061220c826121cd565b602082019050919050565b5f6020820190508181035f83015261222e816121f5565b9050919050565b7f5265656e7472616e637947756172643a207265656e7472616e742063616c6c005f82015250565b5f612269601f836120f8565b915061227482612235565b602082019050919050565b5f6020820190508181035f8301526122968161225d565b9050919050565b828183375f83830152505050565b5f6122b683856120a8565b93506122c383858461229d565b82840190509392505050565b5f6122db8284866122ab565b91508190509392505050565b5f81905092915050565b50565b5f6122ff5f836122e7565b915061230a826122f1565b5f82019050919050565b5f61231e826122f4565b9150819050919050565b5f815490506123368161219d565b9050919050565b7f4e487b71000000000000000000000000000000000000000000000000000000005f52604160045260245ffd5b5f819050815f5260205f209050919050565b5f819050815f5260205f209050919050565b5f6020601f8301049050919050565b5f82821b905092915050565b5f600883026123d87fffffffffffffffffffffffffffffffffffffffffffffffffffffffffffffffff8261239d565b6123e2868361239d565b95508019841693508086168417925050509392505050565b5f819050919050565b5f61241d61241861241384611d0a565b6123fa565b611d0a565b9050919050565b5f819050919050565b61243683612403565b61244a61244282612424565b8484546123a9565b825550505050565b5f90565b61245e612452565b61246981848461242d565b505050565b5b8181101561248c576124815f82612456565b60018101905061246f565b5050565b601f8211156124d1576124a28161236a565b6124ab8461238e565b810160208510156124ba578190505b6124ce6124c68561238e565b83018261246e565b50505b505050565b5f82821c905092915050565b5f6124f15f19846008026124d6565b1980831691505092915050565b5f61250983836124e2565b9150826002028217905092915050565b8181036125275750506125fc565b61253082612328565b67ffffffffffffffff8111156125495761254861233d565b5b612553825461219d565b61255e828285612490565b5f601f83116001811461258b575f8415612579578287015490505b61258385826124fe565b8655506125f5565b601f1984166125998761237c565b96506125a48661236a565b5f5b828110156125cb578489015482556001820191506001850194506020810190506125a6565b868310156125e857848901546125e4601f8916826124e2565b8355505b6001600288020188555050505b5050505050505b565b61260781611d0a565b82525050565b5f6020820190506126205f8301846125fe565b92915050565b5f81546126328161219d565b61263c81866120a8565b9450600182165f8114612656576001811461266b5761269d565b60ff198316865281151582028601935061269d565b6126748561236a565b5f5b8381101561269557815481890152600182019150602081019050612676565b838801955050505b50505092915050565b5f6126b18284612626565b915081905092915050565b7f4e487b71000000000000000000000000000000000000000000000000000000005f52603260045260245ffd5b7f4e487b71000000000000000000000000000000000000000000000000000000005f52601160045260245ffd5b5f61272082611d0a565b91507fffffffffffffffffffffffffffffffffffffffffffffffffffffffffffffffff8203612752576127516126e9565b5b600182019050919050565b7f596f7520617265206e6f7420616e2061646d696e0000000000000000000000005f82015250565b5f6127916014836120f8565b915061279c8261275d565b602082019050919050565b5f6020820190508181035f8301526127be81612785565b9050919050565b6127ce82611c9a565b67ffffffffffffffff8111156127e7576127e661233d565b5b6127f1825461219d565b6127fc828285612490565b5f60209050601f83116001811461282d575f841561281b578287015190505b61282585826124fe565b86555061288c565b601f19841661283b8661236a565b5f5b828110156128625784890151825560018201915060208501945060208101905061283d565b8683101561287f578489015161287b601f8916826124e2565b8355505b6001600288020188555050505b505050505050565b5f61289e82611d0a565b91506128a983611d0a565b92508282026128b781611d0a565b915082820484148315176128ce576128cd6126e9565b5b5092915050565b7f4e487b71000000000000000000000000000000000000000000000000000000005f52601260045260245ffd5b5f61290c82611d0a565b915061291783611d0a565b925082612927576129266128d5565b5b828204905092915050565b5f61293c82611c9a565b61294681856120f8565b9350612956818560208601611cb4565b61295f81611cc2565b840191505092915050565b5f6040820190508181035f8301526129828185612932565b905061299160208301846125fe565b9392505050565b5f6129a282611d0a565b91506129ad83611d0a565b9250826129bd576129bc6128d5565b5b828206905092915050565b5f6129d282611d0a565b91506129dd83611d0a565b92508282019050808211156129f5576129f46126e9565b5b92915050565b7f436f6465206973204e6f7420556e6971756500000000000000000000000000005f82015250565b5f612a2f6012836120f8565b9150612a3a826129fb565b602082019050919050565b5f6020820190508181035f830152612a5c81612a23565b9050919050565b5f819050919050565b612a7d612a7882611d0a565b612a63565b82525050565b5f612a8e8286612a6c565b602082019150612a9e8285612a6c565b602082019150612aae8284612a6c565b60208201915081905094935050505056fea2646970667358221220d93a182bbc45e9e2371c064dc895a81efdaff94cd9e527f1a3549e92e20de6c264736f6c634300081a0033",
					"opcodes": "PUSH1 0x80 PUSH1 0x40 MSTORE CALLVALUE DUP1 ISZERO PUSH2 0xF JUMPI PUSH0 DUP1 REVERT JUMPDEST POP PUSH1 0x40 MLOAD DUP1 PUSH1 0x60 ADD PUSH1 0x40 MSTORE DUP1 PUSH1 0x40 MLOAD DUP1 PUSH1 0x40 ADD PUSH1 0x40 MSTORE DUP1 PUSH1 0xF DUP2 MSTORE PUSH1 0x20 ADD PUSH32 0x4962726168696D204D6F68616D65640000000000000000000000000000000000 DUP2 MSTORE POP DUP2 MSTORE PUSH1 0x20 ADD PUSH1 0x1 DUP1 DUP2 GT ISZERO PUSH2 0x69 JUMPI PUSH2 0x68 PUSH2 0x371 JUMP JUMPDEST JUMPDEST DUP2 MSTORE PUSH1 0x20 ADD PUSH1 0x1 DUP1 DUP2 GT ISZERO PUSH2 0x81 JUMPI PUSH2 0x80 PUSH2 0x371 JUMP JUMPDEST JUMPDEST DUP2 MSTORE POP PUSH0 DUP1 PUSH20 0x8DC03105BA1A429FC962EBE37766B8601D70E0D6 PUSH20 0xFFFFFFFFFFFFFFFFFFFFFFFFFFFFFFFFFFFFFFFF AND PUSH20 0xFFFFFFFFFFFFFFFFFFFFFFFFFFFFFFFFFFFFFFFF AND DUP2 MSTORE PUSH1 0x20 ADD SWAP1 DUP2 MSTORE PUSH1 0x20 ADD PUSH0 KECCAK256 PUSH0 DUP3 ADD MLOAD DUP2 PUSH0 ADD SWAP1 DUP2 PUSH2 0xE7 SWAP2 SWAP1 PUSH2 0x5D8 JUMP JUMPDEST POP PUSH1 0x20 DUP3 ADD MLOAD DUP2 PUSH1 0x1 ADD PUSH0 PUSH2 0x100 EXP DUP2 SLOAD DUP2 PUSH1 0xFF MUL NOT AND SWAP1 DUP4 PUSH1 0x1 DUP2 GT ISZERO PUSH2 0x112 JUMPI PUSH2 0x111 PUSH2 0x371 JUMP JUMPDEST JUMPDEST MUL OR SWAP1 SSTORE POP PUSH1 0x40 DUP3 ADD MLOAD DUP2 PUSH1 0x1 ADD PUSH1 0x1 PUSH2 0x100 EXP DUP2 SLOAD DUP2 PUSH1 0xFF MUL NOT AND SWAP1 DUP4 PUSH1 0x1 DUP2 GT ISZERO PUSH2 0x142 JUMPI PUSH2 0x141 PUSH2 0x371 JUMP JUMPDEST JUMPDEST MUL OR SWAP1 SSTORE POP SWAP1 POP POP PUSH1 0x4 PUSH20 0x8DC03105BA1A429FC962EBE37766B8601D70E0D6 SWAP1 DUP1 PUSH1 0x1 DUP2 SLOAD ADD DUP1 DUP3 SSTORE DUP1 SWAP2 POP POP PUSH1 0x1 SWAP1 SUB SWAP1 PUSH0 MSTORE PUSH1 0x20 PUSH0 KECCAK256 ADD PUSH0 SWAP1 SWAP2 SWAP1 SWAP2 SWAP1 SWAP2 PUSH2 0x100 EXP DUP2 SLOAD DUP2 PUSH20 0xFFFFFFFFFFFFFFFFFFFFFFFFFFFFFFFFFFFFFFFF MUL NOT AND SWAP1 DUP4 PUSH20 0xFFFFFFFFFFFFFFFFFFFFFFFFFFFFFFFFFFFFFFFF AND MUL OR SWAP1 SSTORE POP PUSH1 0x40 MLOAD DUP1 PUSH1 0x60 ADD PUSH1 0x40 MSTORE DUP1 PUSH1 0x40 MLOAD DUP1 PUSH1 0x40 ADD PUSH1 0x40 MSTORE DUP1 PUSH1 0xB DUP2 MSTORE PUSH1 0x20 ADD PUSH32 0x4F62616461205361667761000000000000000000000000000000000000000000 DUP2 MSTORE POP DUP2 MSTORE PUSH1 0x20 ADD PUSH1 0x1 DUP1 DUP2 GT ISZERO PUSH2 0x217 JUMPI PUSH2 0x216 PUSH2 0x371 JUMP JUMPDEST JUMPDEST DUP2 MSTORE PUSH1 0x20 ADD PUSH1 0x1 DUP1 DUP2 GT ISZERO PUSH2 0x22F JUMPI PUSH2 0x22E PUSH2 0x371 JUMP JUMPDEST JUMPDEST DUP2 MSTORE POP PUSH0 DUP1 PUSH20 0xAD009219D5052664E665C2A95F12E4ABEA6730C0 PUSH20 0xFFFFFFFFFFFFFFFFFFFFFFFFFFFFFFFFFFFFFFFF AND PUSH20 0xFFFFFFFFFFFFFFFFFFFFFFFFFFFFFFFFFFFFFFFF AND DUP2 MSTORE PUSH1 0x20 ADD SWAP1 DUP2 MSTORE PUSH1 0x20 ADD PUSH0 KECCAK256 PUSH0 DUP3 ADD MLOAD DUP2 PUSH0 ADD SWAP1 DUP2 PUSH2 0x295 SWAP2 SWAP1 PUSH2 0x5D8 JUMP JUMPDEST POP PUSH1 0x20 DUP3 ADD MLOAD DUP2 PUSH1 0x1 ADD PUSH0 PUSH2 0x100 EXP DUP2 SLOAD DUP2 PUSH1 0xFF MUL NOT AND SWAP1 DUP4 PUSH1 0x1 DUP2 GT ISZERO PUSH2 0x2C0 JUMPI PUSH2 0x2BF PUSH2 0x371 JUMP JUMPDEST JUMPDEST MUL OR SWAP1 SSTORE POP PUSH1 0x40 DUP3 ADD MLOAD DUP2 PUSH1 0x1 ADD PUSH1 0x1 PUSH2 0x100 EXP DUP2 SLOAD DUP2 PUSH1 0xFF MUL NOT AND SWAP1 DUP4 PUSH1 0x1 DUP2 GT ISZERO PUSH2 0x2F0 JUMPI PUSH2 0x2EF PUSH2 0x371 JUMP JUMPDEST JUMPDEST MUL OR SWAP1 SSTORE POP SWAP1 POP POP PUSH1 0x4 PUSH20 0xAD009219D5052664E665C2A95F12E4ABEA6730C0 SWAP1 DUP1 PUSH1 0x1 DUP2 SLOAD ADD DUP1 DUP3 SSTORE DUP1 SWAP2 POP POP PUSH1 0x1 SWAP1 SUB SWAP1 PUSH0 MSTORE PUSH1 0x20 PUSH0 KECCAK256 ADD PUSH0 SWAP1 SWAP2 SWAP1 SWAP2 SWAP1 SWAP2 PUSH2 0x100 EXP DUP2 SLOAD DUP2 PUSH20 0xFFFFFFFFFFFFFFFFFFFFFFFFFFFFFFFFFFFFFFFF MUL NOT AND SWAP1 DUP4 PUSH20 0xFFFFFFFFFFFFFFFFFFFFFFFFFFFFFFFFFFFFFFFF AND MUL OR SWAP1 SSTORE POP PUSH2 0x6A7 JUMP JUMPDEST PUSH32 0x4E487B7100000000000000000000000000000000000000000000000000000000 PUSH0 MSTORE PUSH1 0x21 PUSH1 0x4 MSTORE PUSH1 0x24 PUSH0 REVERT JUMPDEST PUSH0 DUP2 MLOAD SWAP1 POP SWAP2 SWAP1 POP JUMP JUMPDEST PUSH32 0x4E487B7100000000000000000000000000000000000000000000000000000000 PUSH0 MSTORE PUSH1 0x41 PUSH1 0x4 MSTORE PUSH1 0x24 PUSH0 REVERT JUMPDEST PUSH32 0x4E487B7100000000000000000000000000000000000000000000000000000000 PUSH0 MSTORE PUSH1 0x22 PUSH1 0x4 MSTORE PUSH1 0x24 PUSH0 REVERT JUMPDEST PUSH0 PUSH1 0x2 DUP3 DIV SWAP1 POP PUSH1 0x1 DUP3 AND DUP1 PUSH2 0x419 JUMPI PUSH1 0x7F DUP3 AND SWAP2 POP JUMPDEST PUSH1 0x20 DUP3 LT DUP2 SUB PUSH2 0x42C JUMPI PUSH2 0x42B PUSH2 0x3D5 JUMP JUMPDEST JUMPDEST POP SWAP2 SWAP1 POP JUMP JUMPDEST PUSH0 DUP2 SWAP1 POP DUP2 PUSH0 MSTORE PUSH1 0x20 PUSH0 KECCAK256 SWAP1 POP SWAP2 SWAP1 POP JUMP JUMPDEST PUSH0 PUSH1 0x20 PUSH1 0x1F DUP4 ADD DIV SWAP1 POP SWAP2 SWAP1 POP JUMP JUMPDEST PUSH0 DUP3 DUP3 SHL SWAP1 POP SWAP3 SWAP2 POP POP JUMP JUMPDEST PUSH0 PUSH1 0x8 DUP4 MUL PUSH2 0x48E PUSH32 0xFFFFFFFFFFFFFFFFFFFFFFFFFFFFFFFFFFFFFFFFFFFFFFFFFFFFFFFFFFFFFFFF DUP3 PUSH2 0x453 JUMP JUMPDEST PUSH2 0x498 DUP7 DUP4 PUSH2 0x453 JUMP JUMPDEST SWAP6 POP DUP1 NOT DUP5 AND SWAP4 POP DUP1 DUP7 AND DUP5 OR SWAP3 POP POP POP SWAP4 SWAP3 POP POP POP JUMP JUMPDEST PUSH0 DUP2 SWAP1 POP SWAP2 SWAP1 POP JUMP JUMPDEST PUSH0 DUP2 SWAP1 POP SWAP2 SWAP1 POP JUMP JUMPDEST PUSH0 PUSH2 0x4DC PUSH2 0x4D7 PUSH2 0x4D2 DUP5 PUSH2 0x4B0 JUMP JUMPDEST PUSH2 0x4B9 JUMP JUMPDEST PUSH2 0x4B0 JUMP JUMPDEST SWAP1 POP SWAP2 SWAP1 POP JUMP JUMPDEST PUSH0 DUP2 SWAP1 POP SWAP2 SWAP1 POP JUMP JUMPDEST PUSH2 0x4F5 DUP4 PUSH2 0x4C2 JUMP JUMPDEST PUSH2 0x509 PUSH2 0x501 DUP3 PUSH2 0x4E3 JUMP JUMPDEST DUP5 DUP5 SLOAD PUSH2 0x45F JUMP JUMPDEST DUP3 SSTORE POP POP POP POP JUMP JUMPDEST PUSH0 SWAP1 JUMP JUMPDEST PUSH2 0x51D PUSH2 0x511 JUMP JUMPDEST PUSH2 0x528 DUP2 DUP5 DUP5 PUSH2 0x4EC JUMP JUMPDEST POP POP POP JUMP JUMPDEST JUMPDEST DUP2 DUP2 LT ISZERO PUSH2 0x54B JUMPI PUSH2 0x540 PUSH0 DUP3 PUSH2 0x515 JUMP JUMPDEST PUSH1 0x1 DUP2 ADD SWAP1 POP PUSH2 0x52E JUMP JUMPDEST POP POP JUMP JUMPDEST PUSH1 0x1F DUP3 GT ISZERO PUSH2 0x590 JUMPI PUSH2 0x561 DUP2 PUSH2 0x432 JUMP JUMPDEST PUSH2 0x56A DUP5 PUSH2 0x444 JUMP JUMPDEST DUP2 ADD PUSH1 0x20 DUP6 LT ISZERO PUSH2 0x579 JUMPI DUP2 SWAP1 POP JUMPDEST PUSH2 0x58D PUSH2 0x585 DUP6 PUSH2 0x444 JUMP JUMPDEST DUP4 ADD DUP3 PUSH2 0x52D JUMP JUMPDEST POP POP JUMPDEST POP POP POP JUMP JUMPDEST PUSH0 DUP3 DUP3 SHR SWAP1 POP SWAP3 SWAP2 POP POP JUMP JUMPDEST PUSH0 PUSH2 0x5B0 PUSH0 NOT DUP5 PUSH1 0x8 MUL PUSH2 0x595 JUMP JUMPDEST NOT DUP1 DUP4 AND SWAP2 POP POP SWAP3 SWAP2 POP POP JUMP JUMPDEST PUSH0 PUSH2 0x5C8 DUP4 DUP4 PUSH2 0x5A1 JUMP JUMPDEST SWAP2 POP DUP3 PUSH1 0x2 MUL DUP3 OR SWAP1 POP SWAP3 SWAP2 POP POP JUMP JUMPDEST PUSH2 0x5E1 DUP3 PUSH2 0x39E JUMP JUMPDEST PUSH8 0xFFFFFFFFFFFFFFFF DUP2 GT ISZERO PUSH2 0x5FA JUMPI PUSH2 0x5F9 PUSH2 0x3A8 JUMP JUMPDEST JUMPDEST PUSH2 0x604 DUP3 SLOAD PUSH2 0x402 JUMP JUMPDEST PUSH2 0x60F DUP3 DUP3 DUP6 PUSH2 0x54F JUMP JUMPDEST PUSH0 PUSH1 0x20 SWAP1 POP PUSH1 0x1F DUP4 GT PUSH1 0x1 DUP2 EQ PUSH2 0x640 JUMPI PUSH0 DUP5 ISZERO PUSH2 0x62E JUMPI DUP3 DUP8 ADD MLOAD SWAP1 POP JUMPDEST PUSH2 0x638 DUP6 DUP3 PUSH2 0x5BD JUMP JUMPDEST DUP7 SSTORE POP PUSH2 0x69F JUMP JUMPDEST PUSH1 0x1F NOT DUP5 AND PUSH2 0x64E DUP7 PUSH2 0x432 JUMP JUMPDEST PUSH0 JUMPDEST DUP3 DUP2 LT ISZERO PUSH2 0x675 JUMPI DUP5 DUP10 ADD MLOAD DUP3 SSTORE PUSH1 0x1 DUP3 ADD SWAP2 POP PUSH1 0x20 DUP6 ADD SWAP5 POP PUSH1 0x20 DUP2 ADD SWAP1 POP PUSH2 0x650 JUMP JUMPDEST DUP7 DUP4 LT ISZERO PUSH2 0x692 JUMPI DUP5 DUP10 ADD MLOAD PUSH2 0x68E PUSH1 0x1F DUP10 AND DUP3 PUSH2 0x5A1 JUMP JUMPDEST DUP4 SSTORE POP JUMPDEST PUSH1 0x1 PUSH1 0x2 DUP9 MUL ADD DUP9 SSTORE POP POP POP JUMPDEST POP POP POP POP POP POP JUMP JUMPDEST PUSH2 0x2AF5 DUP1 PUSH2 0x6B4 PUSH0 CODECOPY PUSH0 RETURN INVALID PUSH1 0x80 PUSH1 0x40 MSTORE PUSH1 0x4 CALLDATASIZE LT PUSH2 0x7E JUMPI PUSH0 CALLDATALOAD PUSH1 0xE0 SHR DUP1 PUSH4 0xA34F011C GT PUSH2 0x4D JUMPI DUP1 PUSH4 0xA34F011C EQ PUSH2 0x13D JUMPI DUP1 PUSH4 0xA927DB0D EQ PUSH2 0x147 JUMPI DUP1 PUSH4 0xB6DB75A0 EQ PUSH2 0x171 JUMPI DUP1 PUSH4 0xD9C8A38B EQ PUSH2 0x19B JUMPI PUSH2 0x85 JUMP JUMPDEST DUP1 PUSH4 0x27E26C8C EQ PUSH2 0x87 JUMPI DUP1 PUSH4 0x2B4A9DDA EQ PUSH2 0xAF JUMPI DUP1 PUSH4 0x4CF57138 EQ PUSH2 0xD9 JUMPI DUP1 PUSH4 0x8F0E582F EQ PUSH2 0x115 JUMPI PUSH2 0x85 JUMP JUMPDEST CALLDATASIZE PUSH2 0x85 JUMPI STOP JUMPDEST STOP JUMPDEST CALLVALUE DUP1 ISZERO PUSH2 0x92 JUMPI PUSH0 DUP1 REVERT JUMPDEST POP PUSH2 0xAD PUSH1 0x4 DUP1 CALLDATASIZE SUB DUP2 ADD SWAP1 PUSH2 0xA8 SWAP2 SWAP1 PUSH2 0x1C26 JUMP JUMPDEST PUSH2 0x1C5 JUMP JUMPDEST STOP JUMPDEST CALLVALUE DUP1 ISZERO PUSH2 0xBA JUMPI PUSH0 DUP1 REVERT JUMPDEST POP PUSH2 0xC3 PUSH2 0x554 JUMP JUMPDEST PUSH1 0x40 MLOAD PUSH2 0xD0 SWAP2 SWAP1 PUSH2 0x1E8E JUMP JUMPDEST PUSH1 0x40 MLOAD DUP1 SWAP2 SUB SWAP1 RETURN JUMPDEST CALLVALUE DUP1 ISZERO PUSH2 0xE4 JUMPI PUSH0 DUP1 REVERT JUMPDEST POP PUSH2 0xFF PUSH1 0x4 DUP1 CALLDATASIZE SUB DUP2 ADD SWAP1 PUSH2 0xFA SWAP2 SWAP1 PUSH2 0x1ED1 JUMP JUMPDEST PUSH2 0xA6F JUMP JUMPDEST PUSH1 0x40 MLOAD PUSH2 0x10C SWAP2 SWAP1 PUSH2 0x1E8E JUMP JUMPDEST PUSH1 0x40 MLOAD DUP1 SWAP2 SUB SWAP1 RETURN JUMPDEST CALLVALUE DUP1 ISZERO PUSH2 0x120 JUMPI PUSH0 DUP1 REVERT JUMPDEST POP PUSH2 0x13B PUSH1 0x4 DUP1 CALLDATASIZE SUB DUP2 ADD SWAP1 PUSH2 0x136 SWAP2 SWAP1 PUSH2 0x1F1F JUMP JUMPDEST PUSH2 0xF16 JUMP JUMPDEST STOP JUMPDEST PUSH2 0x145 PUSH2 0x10AF JUMP JUMPDEST STOP JUMPDEST CALLVALUE DUP1 ISZERO PUSH2 0x152 JUMPI PUSH0 DUP1 REVERT JUMPDEST POP PUSH2 0x15B PUSH2 0x11A9 JUMP JUMPDEST PUSH1 0x40 MLOAD PUSH2 0x168 SWAP2 SWAP1 PUSH2 0x1E8E JUMP JUMPDEST PUSH1 0x40 MLOAD DUP1 SWAP2 SUB SWAP1 RETURN JUMPDEST CALLVALUE DUP1 ISZERO PUSH2 0x17C JUMPI PUSH0 DUP1 REVERT JUMPDEST POP PUSH2 0x185 PUSH2 0x152E JUMP JUMPDEST PUSH1 0x40 MLOAD PUSH2 0x192 SWAP2 SWAP1 PUSH2 0x1F96 JUMP JUMPDEST PUSH1 0x40 MLOAD DUP1 SWAP2 SUB SWAP1 RETURN JUMPDEST CALLVALUE DUP1 ISZERO PUSH2 0x1A6 JUMPI PUSH0 DUP1 REVERT JUMPDEST POP PUSH2 0x1AF PUSH2 0x1633 JUMP JUMPDEST PUSH1 0x40 MLOAD PUSH2 0x1BC SWAP2 SWAP1 PUSH2 0x2088 JUMP JUMPDEST PUSH1 0x40 MLOAD DUP1 SWAP2 SUB SWAP1 RETURN JUMPDEST DUP2 DUP2 DUP1 DUP1 PUSH1 0x1F ADD PUSH1 0x20 DUP1 SWAP2 DIV MUL PUSH1 0x20 ADD PUSH1 0x40 MLOAD SWAP1 DUP2 ADD PUSH1 0x40 MSTORE DUP1 SWAP4 SWAP3 SWAP2 SWAP1 DUP2 DUP2 MSTORE PUSH1 0x20 ADD DUP4 DUP4 DUP1 DUP3 DUP5 CALLDATACOPY PUSH0 DUP2 DUP5 ADD MSTORE PUSH1 0x1F NOT PUSH1 0x1F DUP3 ADD AND SWAP1 POP DUP1 DUP4 ADD SWAP3 POP POP POP POP POP POP POP PUSH1 0x1 DUP1 DUP2 GT ISZERO PUSH2 0x21C JUMPI PUSH2 0x21B PUSH2 0x1D22 JUMP JUMPDEST JUMPDEST PUSH1 0x1 DUP3 PUSH1 0x40 MLOAD PUSH2 0x22C SWAP2 SWAP1 PUSH2 0x20E2 JUMP JUMPDEST SWAP1 DUP2 MSTORE PUSH1 0x20 ADD PUSH1 0x40 MLOAD DUP1 SWAP2 SUB SWAP1 KECCAK256 PUSH1 0x2 ADD PUSH0 SWAP1 SLOAD SWAP1 PUSH2 0x100 EXP SWAP1 DIV PUSH1 0xFF AND PUSH1 0x1 DUP2 GT ISZERO PUSH2 0x25C JUMPI PUSH2 0x25B PUSH2 0x1D22 JUMP JUMPDEST JUMPDEST EQ PUSH2 0x29C JUMPI PUSH1 0x40 MLOAD PUSH32 0x8C379A000000000000000000000000000000000000000000000000000000000 DUP2 MSTORE PUSH1 0x4 ADD PUSH2 0x293 SWAP1 PUSH2 0x2152 JUMP JUMPDEST PUSH1 0x40 MLOAD DUP1 SWAP2 SUB SWAP1 REVERT JUMPDEST PUSH0 DUP1 PUSH0 CALLER PUSH20 0xFFFFFFFFFFFFFFFFFFFFFFFFFFFFFFFFFFFFFFFF AND PUSH20 0xFFFFFFFFFFFFFFFFFFFFFFFFFFFFFFFFFFFFFFFF AND DUP2 MSTORE PUSH1 0x20 ADD SWAP1 DUP2 MSTORE PUSH1 0x20 ADD PUSH0 KECCAK256 PUSH0 ADD DUP1 SLOAD PUSH2 0x2E6 SWAP1 PUSH2 0x219D JUMP JUMPDEST SWAP1 POP GT PUSH2 0x328 JUMPI PUSH1 0x40 MLOAD PUSH32 0x8C379A000000000000000000000000000000000000000000000000000000000 DUP2 MSTORE PUSH1 0x4 ADD PUSH2 0x31F SWAP1 PUSH2 0x2217 JUMP JUMPDEST PUSH1 0x40 MLOAD DUP1 SWAP2 SUB SWAP1 REVERT JUMPDEST PUSH1 0x2 PUSH0 SWAP1 SLOAD SWAP1 PUSH2 0x100 EXP SWAP1 DIV PUSH1 0xFF AND ISZERO PUSH2 0x377 JUMPI PUSH1 0x40 MLOAD PUSH32 0x8C379A000000000000000000000000000000000000000000000000000000000 DUP2 MSTORE PUSH1 0x4 ADD PUSH2 0x36E SWAP1 PUSH2 0x227F JUMP JUMPDEST PUSH1 0x40 MLOAD DUP1 SWAP2 SUB SWAP1 REVERT JUMPDEST PUSH1 0x1 PUSH1 0x2 PUSH0 PUSH2 0x100 EXP DUP2 SLOAD DUP2 PUSH1 0xFF MUL NOT AND SWAP1 DUP4 ISZERO ISZERO MUL OR SWAP1 SSTORE POP PUSH0 CALLER PUSH20 0xFFFFFFFFFFFFFFFFFFFFFFFFFFFFFFFFFFFFFFFF AND PUSH1 0x1 DUP6 DUP6 PUSH1 0x40 MLOAD PUSH2 0x3BB SWAP3 SWAP2 SWAP1 PUSH2 0x22CF JUMP JUMPDEST SWAP1 DUP2 MSTORE PUSH1 0x20 ADD PUSH1 0x40 MLOAD DUP1 SWAP2 SUB SWAP1 KECCAK256 PUSH1 0x1 ADD SLOAD PUSH1 0x40 MLOAD PUSH2 0x3D9 SWAP1 PUSH2 0x2314 JUMP JUMPDEST PUSH0 PUSH1 0x40 MLOAD DUP1 DUP4 SUB DUP2 DUP6 DUP8 GAS CALL SWAP3 POP POP POP RETURNDATASIZE DUP1 PUSH0 DUP2 EQ PUSH2 0x413 JUMPI PUSH1 0x40 MLOAD SWAP2 POP PUSH1 0x1F NOT PUSH1 0x3F RETURNDATASIZE ADD AND DUP3 ADD PUSH1 0x40 MSTORE RETURNDATASIZE DUP3 MSTORE RETURNDATASIZE PUSH0 PUSH1 0x20 DUP5 ADD RETURNDATACOPY PUSH2 0x418 JUMP JUMPDEST PUSH1 0x60 SWAP2 POP JUMPDEST POP POP SWAP1 POP DUP1 ISZERO PUSH2 0x535 JUMPI PUSH0 PUSH1 0x1 DUP6 DUP6 PUSH1 0x40 MLOAD PUSH2 0x435 SWAP3 SWAP2 SWAP1 PUSH2 0x22CF JUMP JUMPDEST SWAP1 DUP2 MSTORE PUSH1 0x20 ADD PUSH1 0x40 MLOAD DUP1 SWAP2 SUB SWAP1 KECCAK256 PUSH1 0x2 ADD PUSH0 PUSH2 0x100 EXP DUP2 SLOAD DUP2 PUSH1 0xFF MUL NOT AND SWAP1 DUP4 PUSH1 0x1 DUP2 GT ISZERO PUSH2 0x467 JUMPI PUSH2 0x466 PUSH2 0x1D22 JUMP JUMPDEST JUMPDEST MUL OR SWAP1 SSTORE POP PUSH0 DUP1 CALLER PUSH20 0xFFFFFFFFFFFFFFFFFFFFFFFFFFFFFFFFFFFFFFFF AND PUSH20 0xFFFFFFFFFFFFFFFFFFFFFFFFFFFFFFFFFFFFFFFF AND DUP2 MSTORE PUSH1 0x20 ADD SWAP1 DUP2 MSTORE PUSH1 0x20 ADD PUSH0 KECCAK256 PUSH0 ADD PUSH1 0x1 DUP6 DUP6 PUSH1 0x40 MLOAD PUSH2 0x4BC SWAP3 SWAP2 SWAP1 PUSH2 0x22CF JUMP JUMPDEST SWAP1 DUP2 MSTORE PUSH1 0x20 ADD PUSH1 0x40 MLOAD DUP1 SWAP2 SUB SWAP1 KECCAK256 PUSH1 0x3 ADD SWAP1 DUP2 PUSH2 0x4D9 SWAP2 SWAP1 PUSH2 0x2519 JUMP JUMPDEST POP PUSH32 0x604D6DE1B6EB3F39C6AB9D4981A20D17F88C5BEF33495AE58DABEB097BA7A41A PUSH1 0x1 DUP6 DUP6 PUSH1 0x40 MLOAD PUSH2 0x50D SWAP3 SWAP2 SWAP1 PUSH2 0x22CF JUMP JUMPDEST SWAP1 DUP2 MSTORE PUSH1 0x20 ADD PUSH1 0x40 MLOAD DUP1 SWAP2 SUB SWAP1 KECCAK256 PUSH1 0x1 ADD SLOAD PUSH1 0x40 MLOAD PUSH2 0x52C SWAP2 SWAP1 PUSH2 0x260D JUMP JUMPDEST PUSH1 0x40 MLOAD DUP1 SWAP2 SUB SWAP1 LOG1 JUMPDEST POP PUSH0 PUSH1 0x2 PUSH0 PUSH2 0x100 EXP DUP2 SLOAD DUP2 PUSH1 0xFF MUL NOT AND SWAP1 DUP4 ISZERO ISZERO MUL OR SWAP1 SSTORE POP POP POP POP JUMP JUMPDEST PUSH1 0x60 PUSH0 DUP1 PUSH0 CALLER PUSH20 0xFFFFFFFFFFFFFFFFFFFFFFFFFFFFFFFFFFFFFFFF AND PUSH20 0xFFFFFFFFFFFFFFFFFFFFFFFFFFFFFFFFFFFFFFFF AND DUP2 MSTORE PUSH1 0x20 ADD SWAP1 DUP2 MSTORE PUSH1 0x20 ADD PUSH0 KECCAK256 PUSH0 ADD DUP1 SLOAD PUSH2 0x5A0 SWAP1 PUSH2 0x219D JUMP JUMPDEST SWAP1 POP GT PUSH2 0x5E2 JUMPI PUSH1 0x40 MLOAD PUSH32 0x8C379A000000000000000000000000000000000000000000000000000000000 DUP2 MSTORE PUSH1 0x4 ADD PUSH2 0x5D9 SWAP1 PUSH2 0x2217 JUMP JUMPDEST PUSH1 0x40 MLOAD DUP1 SWAP2 SUB SWAP1 REVERT JUMPDEST PUSH0 DUP1 DUP1 PUSH0 CALLER PUSH20 0xFFFFFFFFFFFFFFFFFFFFFFFFFFFFFFFFFFFFFFFF AND PUSH20 0xFFFFFFFFFFFFFFFFFFFFFFFFFFFFFFFFFFFFFFFF AND DUP2 MSTORE PUSH1 0x20 ADD SWAP1 DUP2 MSTORE PUSH1 0x20 ADD PUSH0 KECCAK256 PUSH0 ADD PUSH1 0x40 MLOAD PUSH1 0x20 ADD PUSH2 0x632 SWAP2 SWAP1 PUSH2 0x26A6 JUMP JUMPDEST PUSH1 0x40 MLOAD PUSH1 0x20 DUP2 DUP4 SUB SUB DUP2 MSTORE SWAP1 PUSH1 0x40 MSTORE DUP1 MLOAD SWAP1 PUSH1 0x20 ADD KECCAK256 SWAP1 POP PUSH0 JUMPDEST PUSH1 0x3 DUP1 SLOAD SWAP1 POP DUP2 LT ISZERO PUSH2 0x748 JUMPI DUP2 PUSH1 0x1 PUSH1 0x3 DUP4 DUP2 SLOAD DUP2 LT PUSH2 0x670 JUMPI PUSH2 0x66F PUSH2 0x26BC JUMP JUMPDEST JUMPDEST SWAP1 PUSH0 MSTORE PUSH1 0x20 PUSH0 KECCAK256 ADD PUSH1 0x40 MLOAD PUSH2 0x685 SWAP2 SWAP1 PUSH2 0x26A6 JUMP JUMPDEST SWAP1 DUP2 MSTORE PUSH1 0x20 ADD PUSH1 0x40 MLOAD DUP1 SWAP2 SUB SWAP1 KECCAK256 PUSH0 ADD PUSH1 0x40 MLOAD PUSH1 0x20 ADD PUSH2 0x6A5 SWAP2 SWAP1 PUSH2 0x26A6 JUMP JUMPDEST PUSH1 0x40 MLOAD PUSH1 0x20 DUP2 DUP4 SUB SUB DUP2 MSTORE SWAP1 PUSH1 0x40 MSTORE DUP1 MLOAD SWAP1 PUSH1 0x20 ADD KECCAK256 EQ DUP1 PUSH2 0x727 JUMPI POP DUP2 PUSH1 0x1 PUSH1 0x3 DUP4 DUP2 SLOAD DUP2 LT PUSH2 0x6D9 JUMPI PUSH2 0x6D8 PUSH2 0x26BC JUMP JUMPDEST JUMPDEST SWAP1 PUSH0 MSTORE PUSH1 0x20 PUSH0 KECCAK256 ADD PUSH1 0x40 MLOAD PUSH2 0x6EE SWAP2 SWAP1 PUSH2 0x26A6 JUMP JUMPDEST SWAP1 DUP2 MSTORE PUSH1 0x20 ADD PUSH1 0x40 MLOAD DUP1 SWAP2 SUB SWAP1 KECCAK256 PUSH1 0x3 ADD PUSH1 0x40 MLOAD PUSH1 0x20 ADD PUSH2 0x70F SWAP2 SWAP1 PUSH2 0x26A6 JUMP JUMPDEST PUSH1 0x40 MLOAD PUSH1 0x20 DUP2 DUP4 SUB SUB DUP2 MSTORE SWAP1 PUSH1 0x40 MSTORE DUP1 MLOAD SWAP1 PUSH1 0x20 ADD KECCAK256 EQ JUMPDEST ISZERO PUSH2 0x73B JUMPI DUP3 DUP1 PUSH2 0x737 SWAP1 PUSH2 0x2716 JUMP JUMPDEST SWAP4 POP POP JUMPDEST DUP1 DUP1 PUSH1 0x1 ADD SWAP2 POP POP PUSH2 0x64C JUMP JUMPDEST POP PUSH0 DUP3 PUSH8 0xFFFFFFFFFFFFFFFF DUP2 GT ISZERO PUSH2 0x764 JUMPI PUSH2 0x763 PUSH2 0x233D JUMP JUMPDEST JUMPDEST PUSH1 0x40 MLOAD SWAP1 DUP1 DUP3 MSTORE DUP1 PUSH1 0x20 MUL PUSH1 0x20 ADD DUP3 ADD PUSH1 0x40 MSTORE DUP1 ISZERO PUSH2 0x79D JUMPI DUP2 PUSH1 0x20 ADD JUMPDEST PUSH2 0x78A PUSH2 0x1B42 JUMP JUMPDEST DUP2 MSTORE PUSH1 0x20 ADD SWAP1 PUSH1 0x1 SWAP1 SUB SWAP1 DUP2 PUSH2 0x782 JUMPI SWAP1 POP JUMPDEST POP SWAP1 POP PUSH0 DUP1 JUMPDEST PUSH1 0x3 DUP1 SLOAD SWAP1 POP DUP2 LT ISZERO PUSH2 0xA64 JUMPI DUP4 PUSH1 0x1 PUSH1 0x3 DUP4 DUP2 SLOAD DUP2 LT PUSH2 0x7C7 JUMPI PUSH2 0x7C6 PUSH2 0x26BC JUMP JUMPDEST JUMPDEST SWAP1 PUSH0 MSTORE PUSH1 0x20 PUSH0 KECCAK256 ADD PUSH1 0x40 MLOAD PUSH2 0x7DC SWAP2 SWAP1 PUSH2 0x26A6 JUMP JUMPDEST SWAP1 DUP2 MSTORE PUSH1 0x20 ADD PUSH1 0x40 MLOAD DUP1 SWAP2 SUB SWAP1 KECCAK256 PUSH0 ADD PUSH1 0x40 MLOAD PUSH1 0x20 ADD PUSH2 0x7FC SWAP2 SWAP1 PUSH2 0x26A6 JUMP JUMPDEST PUSH1 0x40 MLOAD PUSH1 0x20 DUP2 DUP4 SUB SUB DUP2 MSTORE SWAP1 PUSH1 0x40 MSTORE DUP1 MLOAD SWAP1 PUSH1 0x20 ADD KECCAK256 EQ DUP1 PUSH2 0x87E JUMPI POP DUP4 PUSH1 0x1 PUSH1 0x3 DUP4 DUP2 SLOAD DUP2 LT PUSH2 0x830 JUMPI PUSH2 0x82F PUSH2 0x26BC JUMP JUMPDEST JUMPDEST SWAP1 PUSH0 MSTORE PUSH1 0x20 PUSH0 KECCAK256 ADD PUSH1 0x40 MLOAD PUSH2 0x845 SWAP2 SWAP1 PUSH2 0x26A6 JUMP JUMPDEST SWAP1 DUP2 MSTORE PUSH1 0x20 ADD PUSH1 0x40 MLOAD DUP1 SWAP2 SUB SWAP1 KECCAK256 PUSH1 0x3 ADD PUSH1 0x40 MLOAD PUSH1 0x20 ADD PUSH2 0x866 SWAP2 SWAP1 PUSH2 0x26A6 JUMP JUMPDEST PUSH1 0x40 MLOAD PUSH1 0x20 DUP2 DUP4 SUB SUB DUP2 MSTORE SWAP1 PUSH1 0x40 MSTORE DUP1 MLOAD SWAP1 PUSH1 0x20 ADD KECCAK256 EQ JUMPDEST ISZERO PUSH2 0xA57 JUMPI PUSH1 0x1 PUSH1 0x3 DUP3 DUP2 SLOAD DUP2 LT PUSH2 0x899 JUMPI PUSH2 0x898 PUSH2 0x26BC JUMP JUMPDEST JUMPDEST SWAP1 PUSH0 MSTORE PUSH1 0x20 PUSH0 KECCAK256 ADD PUSH1 0x40 MLOAD PUSH2 0x8AE SWAP2 SWAP1 PUSH2 0x26A6 JUMP JUMPDEST SWAP1 DUP2 MSTORE PUSH1 0x20 ADD PUSH1 0x40 MLOAD DUP1 SWAP2 SUB SWAP1 KECCAK256 PUSH1 0x40 MLOAD DUP1 PUSH1 0x80 ADD PUSH1 0x40 MSTORE SWAP1 DUP2 PUSH0 DUP3 ADD DUP1 SLOAD PUSH2 0x8D6 SWAP1 PUSH2 0x219D JUMP JUMPDEST DUP1 PUSH1 0x1F ADD PUSH1 0x20 DUP1 SWAP2 DIV MUL PUSH1 0x20 ADD PUSH1 0x40 MLOAD SWAP1 DUP2 ADD PUSH1 0x40 MSTORE DUP1 SWAP3 SWAP2 SWAP1 DUP2 DUP2 MSTORE PUSH1 0x20 ADD DUP3 DUP1 SLOAD PUSH2 0x902 SWAP1 PUSH2 0x219D JUMP JUMPDEST DUP1 ISZERO PUSH2 0x94D JUMPI DUP1 PUSH1 0x1F LT PUSH2 0x924 JUMPI PUSH2 0x100 DUP1 DUP4 SLOAD DIV MUL DUP4 MSTORE SWAP2 PUSH1 0x20 ADD SWAP2 PUSH2 0x94D JUMP JUMPDEST DUP3 ADD SWAP2 SWAP1 PUSH0 MSTORE PUSH1 0x20 PUSH0 KECCAK256 SWAP1 JUMPDEST DUP2 SLOAD DUP2 MSTORE SWAP1 PUSH1 0x1 ADD SWAP1 PUSH1 0x20 ADD DUP1 DUP4 GT PUSH2 0x930 JUMPI DUP3 SWAP1 SUB PUSH1 0x1F AND DUP3 ADD SWAP2 JUMPDEST POP POP POP POP POP DUP2 MSTORE PUSH1 0x20 ADD PUSH1 0x1 DUP3 ADD SLOAD DUP2 MSTORE PUSH1 0x20 ADD PUSH1 0x2 DUP3 ADD PUSH0 SWAP1 SLOAD SWAP1 PUSH2 0x100 EXP SWAP1 DIV PUSH1 0xFF AND PUSH1 0x1 DUP2 GT ISZERO PUSH2 0x984 JUMPI PUSH2 0x983 PUSH2 0x1D22 JUMP JUMPDEST JUMPDEST PUSH1 0x1 DUP2 GT ISZERO PUSH2 0x996 JUMPI PUSH2 0x995 PUSH2 0x1D22 JUMP JUMPDEST JUMPDEST DUP2 MSTORE PUSH1 0x20 ADD PUSH1 0x3 DUP3 ADD DUP1 SLOAD PUSH2 0x9AA SWAP1 PUSH2 0x219D JUMP JUMPDEST DUP1 PUSH1 0x1F ADD PUSH1 0x20 DUP1 SWAP2 DIV MUL PUSH1 0x20 ADD PUSH1 0x40 MLOAD SWAP1 DUP2 ADD PUSH1 0x40 MSTORE DUP1 SWAP3 SWAP2 SWAP1 DUP2 DUP2 MSTORE PUSH1 0x20 ADD DUP3 DUP1 SLOAD PUSH2 0x9D6 SWAP1 PUSH2 0x219D JUMP JUMPDEST DUP1 ISZERO PUSH2 0xA21 JUMPI DUP1 PUSH1 0x1F LT PUSH2 0x9F8 JUMPI PUSH2 0x100 DUP1 DUP4 SLOAD DIV MUL DUP4 MSTORE SWAP2 PUSH1 0x20 ADD SWAP2 PUSH2 0xA21 JUMP JUMPDEST DUP3 ADD SWAP2 SWAP1 PUSH0 MSTORE PUSH1 0x20 PUSH0 KECCAK256 SWAP1 JUMPDEST DUP2 SLOAD DUP2 MSTORE SWAP1 PUSH1 0x1 ADD SWAP1 PUSH1 0x20 ADD DUP1 DUP4 GT PUSH2 0xA04 JUMPI DUP3 SWAP1 SUB PUSH1 0x1F AND DUP3 ADD SWAP2 JUMPDEST POP POP POP POP POP DUP2 MSTORE POP POP DUP4 DUP4 DUP2 MLOAD DUP2 LT PUSH2 0xA3D JUMPI PUSH2 0xA3C PUSH2 0x26BC JUMP JUMPDEST JUMPDEST PUSH1 0x20 MUL PUSH1 0x20 ADD ADD DUP2 SWAP1 MSTORE POP DUP2 DUP1 PUSH2 0xA53 SWAP1 PUSH2 0x2716 JUMP JUMPDEST SWAP3 POP POP JUMPDEST DUP1 DUP1 PUSH1 0x1 ADD SWAP2 POP POP PUSH2 0x7A3 JUMP JUMPDEST POP DUP2 SWAP5 POP POP POP POP POP SWAP1 JUMP JUMPDEST PUSH1 0x60 PUSH0 DUP1 PUSH0 CALLER PUSH20 0xFFFFFFFFFFFFFFFFFFFFFFFFFFFFFFFFFFFFFFFF AND PUSH20 0xFFFFFFFFFFFFFFFFFFFFFFFFFFFFFFFFFFFFFFFF AND DUP2 MSTORE PUSH1 0x20 ADD SWAP1 DUP2 MSTORE PUSH1 0x20 ADD PUSH0 KECCAK256 PUSH0 ADD DUP1 SLOAD PUSH2 0xABB SWAP1 PUSH2 0x219D JUMP JUMPDEST SWAP1 POP GT PUSH2 0xAFD JUMPI PUSH1 0x40 MLOAD PUSH32 0x8C379A000000000000000000000000000000000000000000000000000000000 DUP2 MSTORE PUSH1 0x4 ADD PUSH2 0xAF4 SWAP1 PUSH2 0x2217 JUMP JUMPDEST PUSH1 0x40 MLOAD DUP1 SWAP2 SUB SWAP1 REVERT JUMPDEST PUSH1 0x1 DUP1 DUP2 GT ISZERO PUSH2 0xB10 JUMPI PUSH2 0xB0F PUSH2 0x1D22 JUMP JUMPDEST JUMPDEST PUSH0 DUP1 CALLER PUSH20 0xFFFFFFFFFFFFFFFFFFFFFFFFFFFFFFFFFFFFFFFF AND PUSH20 0xFFFFFFFFFFFFFFFFFFFFFFFFFFFFFFFFFFFFFFFF AND DUP2 MSTORE PUSH1 0x20 ADD SWAP1 DUP2 MSTORE PUSH1 0x20 ADD PUSH0 KECCAK256 PUSH1 0x1 ADD PUSH1 0x1 SWAP1 SLOAD SWAP1 PUSH2 0x100 EXP SWAP1 DIV PUSH1 0xFF AND PUSH1 0x1 DUP2 GT ISZERO PUSH2 0xB6F JUMPI PUSH2 0xB6E PUSH2 0x1D22 JUMP JUMPDEST JUMPDEST EQ PUSH2 0xBAF JUMPI PUSH1 0x40 MLOAD PUSH32 0x8C379A000000000000000000000000000000000000000000000000000000000 DUP2 MSTORE PUSH1 0x4 ADD PUSH2 0xBA6 SWAP1 PUSH2 0x27A7 JUMP JUMPDEST PUSH1 0x40 MLOAD DUP1 SWAP2 SUB SWAP1 REVERT JUMPDEST PUSH0 DUP1 PUSH1 0x3 DUP1 SLOAD SWAP1 POP SWAP1 POP PUSH0 JUMPDEST DUP2 DUP2 LT ISZERO PUSH2 0xC52 JUMPI DUP5 PUSH1 0x1 DUP2 GT ISZERO PUSH2 0xBD6 JUMPI PUSH2 0xBD5 PUSH2 0x1D22 JUMP JUMPDEST JUMPDEST PUSH1 0x1 PUSH1 0x3 DUP4 DUP2 SLOAD DUP2 LT PUSH2 0xBEC JUMPI PUSH2 0xBEB PUSH2 0x26BC JUMP JUMPDEST JUMPDEST SWAP1 PUSH0 MSTORE PUSH1 0x20 PUSH0 KECCAK256 ADD PUSH1 0x40 MLOAD PUSH2 0xC01 SWAP2 SWAP1 PUSH2 0x26A6 JUMP JUMPDEST SWAP1 DUP2 MSTORE PUSH1 0x20 ADD PUSH1 0x40 MLOAD DUP1 SWAP2 SUB SWAP1 KECCAK256 PUSH1 0x2 ADD PUSH0 SWAP1 SLOAD SWAP1 PUSH2 0x100 EXP SWAP1 DIV PUSH1 0xFF AND PUSH1 0x1 DUP2 GT ISZERO PUSH2 0xC31 JUMPI PUSH2 0xC30 PUSH2 0x1D22 JUMP JUMPDEST JUMPDEST SUB PUSH2 0xC45 JUMPI DUP3 DUP1 PUSH2 0xC41 SWAP1 PUSH2 0x2716 JUMP JUMPDEST SWAP4 POP POP JUMPDEST DUP1 DUP1 PUSH1 0x1 ADD SWAP2 POP POP PUSH2 0xBBB JUMP JUMPDEST POP PUSH0 DUP3 PUSH8 0xFFFFFFFFFFFFFFFF DUP2 GT ISZERO PUSH2 0xC6E JUMPI PUSH2 0xC6D PUSH2 0x233D JUMP JUMPDEST JUMPDEST PUSH1 0x40 MLOAD SWAP1 DUP1 DUP3 MSTORE DUP1 PUSH1 0x20 MUL PUSH1 0x20 ADD DUP3 ADD PUSH1 0x40 MSTORE DUP1 ISZERO PUSH2 0xCA7 JUMPI DUP2 PUSH1 0x20 ADD JUMPDEST PUSH2 0xC94 PUSH2 0x1B42 JUMP JUMPDEST DUP2 MSTORE PUSH1 0x20 ADD SWAP1 PUSH1 0x1 SWAP1 SUB SWAP1 DUP2 PUSH2 0xC8C JUMPI SWAP1 POP JUMPDEST POP SWAP1 POP PUSH0 DUP1 JUMPDEST DUP4 DUP2 LT ISZERO PUSH2 0xF09 JUMPI DUP7 PUSH1 0x1 DUP2 GT ISZERO PUSH2 0xCC8 JUMPI PUSH2 0xCC7 PUSH2 0x1D22 JUMP JUMPDEST JUMPDEST PUSH1 0x1 PUSH1 0x3 DUP4 DUP2 SLOAD DUP2 LT PUSH2 0xCDE JUMPI PUSH2 0xCDD PUSH2 0x26BC JUMP JUMPDEST JUMPDEST SWAP1 PUSH0 MSTORE PUSH1 0x20 PUSH0 KECCAK256 ADD PUSH1 0x40 MLOAD PUSH2 0xCF3 SWAP2 SWAP1 PUSH2 0x26A6 JUMP JUMPDEST SWAP1 DUP2 MSTORE PUSH1 0x20 ADD PUSH1 0x40 MLOAD DUP1 SWAP2 SUB SWAP1 KECCAK256 PUSH1 0x2 ADD PUSH0 SWAP1 SLOAD SWAP1 PUSH2 0x100 EXP SWAP1 DIV PUSH1 0xFF AND PUSH1 0x1 DUP2 GT ISZERO PUSH2 0xD23 JUMPI PUSH2 0xD22 PUSH2 0x1D22 JUMP JUMPDEST JUMPDEST SUB PUSH2 0xEFC JUMPI PUSH1 0x1 PUSH1 0x3 DUP3 DUP2 SLOAD DUP2 LT PUSH2 0xD3E JUMPI PUSH2 0xD3D PUSH2 0x26BC JUMP JUMPDEST JUMPDEST SWAP1 PUSH0 MSTORE PUSH1 0x20 PUSH0 KECCAK256 ADD PUSH1 0x40 MLOAD PUSH2 0xD53 SWAP2 SWAP1 PUSH2 0x26A6 JUMP JUMPDEST SWAP1 DUP2 MSTORE PUSH1 0x20 ADD PUSH1 0x40 MLOAD DUP1 SWAP2 SUB SWAP1 KECCAK256 PUSH1 0x40 MLOAD DUP1 PUSH1 0x80 ADD PUSH1 0x40 MSTORE SWAP1 DUP2 PUSH0 DUP3 ADD DUP1 SLOAD PUSH2 0xD7B SWAP1 PUSH2 0x219D JUMP JUMPDEST DUP1 PUSH1 0x1F ADD PUSH1 0x20 DUP1 SWAP2 DIV MUL PUSH1 0x20 ADD PUSH1 0x40 MLOAD SWAP1 DUP2 ADD PUSH1 0x40 MSTORE DUP1 SWAP3 SWAP2 SWAP1 DUP2 DUP2 MSTORE PUSH1 0x20 ADD DUP3 DUP1 SLOAD PUSH2 0xDA7 SWAP1 PUSH2 0x219D JUMP JUMPDEST DUP1 ISZERO PUSH2 0xDF2 JUMPI DUP1 PUSH1 0x1F LT PUSH2 0xDC9 JUMPI PUSH2 0x100 DUP1 DUP4 SLOAD DIV MUL DUP4 MSTORE SWAP2 PUSH1 0x20 ADD SWAP2 PUSH2 0xDF2 JUMP JUMPDEST DUP3 ADD SWAP2 SWAP1 PUSH0 MSTORE PUSH1 0x20 PUSH0 KECCAK256 SWAP1 JUMPDEST DUP2 SLOAD DUP2 MSTORE SWAP1 PUSH1 0x1 ADD SWAP1 PUSH1 0x20 ADD DUP1 DUP4 GT PUSH2 0xDD5 JUMPI DUP3 SWAP1 SUB PUSH1 0x1F AND DUP3 ADD SWAP2 JUMPDEST POP POP POP POP POP DUP2 MSTORE PUSH1 0x20 ADD PUSH1 0x1 DUP3 ADD SLOAD DUP2 MSTORE PUSH1 0x20 ADD PUSH1 0x2 DUP3 ADD PUSH0 SWAP1 SLOAD SWAP1 PUSH2 0x100 EXP SWAP1 DIV PUSH1 0xFF AND PUSH1 0x1 DUP2 GT ISZERO PUSH2 0xE29 JUMPI PUSH2 0xE28 PUSH2 0x1D22 JUMP JUMPDEST JUMPDEST PUSH1 0x1 DUP2 GT ISZERO PUSH2 0xE3B JUMPI PUSH2 0xE3A PUSH2 0x1D22 JUMP JUMPDEST JUMPDEST DUP2 MSTORE PUSH1 0x20 ADD PUSH1 0x3 DUP3 ADD DUP1 SLOAD PUSH2 0xE4F SWAP1 PUSH2 0x219D JUMP JUMPDEST DUP1 PUSH1 0x1F ADD PUSH1 0x20 DUP1 SWAP2 DIV MUL PUSH1 0x20 ADD PUSH1 0x40 MLOAD SWAP1 DUP2 ADD PUSH1 0x40 MSTORE DUP1 SWAP3 SWAP2 SWAP1 DUP2 DUP2 MSTORE PUSH1 0x20 ADD DUP3 DUP1 SLOAD PUSH2 0xE7B SWAP1 PUSH2 0x219D JUMP JUMPDEST DUP1 ISZERO PUSH2 0xEC6 JUMPI DUP1 PUSH1 0x1F LT PUSH2 0xE9D JUMPI PUSH2 0x100 DUP1 DUP4 SLOAD DIV MUL DUP4 MSTORE SWAP2 PUSH1 0x20 ADD SWAP2 PUSH2 0xEC6 JUMP JUMPDEST DUP3 ADD SWAP2 SWAP1 PUSH0 MSTORE PUSH1 0x20 PUSH0 KECCAK256 SWAP1 JUMPDEST DUP2 SLOAD DUP2 MSTORE SWAP1 PUSH1 0x1 ADD SWAP1 PUSH1 0x20 ADD DUP1 DUP4 GT PUSH2 0xEA9 JUMPI DUP3 SWAP1 SUB PUSH1 0x1F AND DUP3 ADD SWAP2 JUMPDEST POP POP POP POP POP DUP2 MSTORE POP POP DUP4 DUP4 DUP2 MLOAD DUP2 LT PUSH2 0xEE2 JUMPI PUSH2 0xEE1 PUSH2 0x26BC JUMP JUMPDEST JUMPDEST PUSH1 0x20 MUL PUSH1 0x20 ADD ADD DUP2 SWAP1 MSTORE POP DUP2 DUP1 PUSH2 0xEF8 SWAP1 PUSH2 0x2716 JUMP JUMPDEST SWAP3 POP POP JUMPDEST DUP1 DUP1 PUSH1 0x1 ADD SWAP2 POP POP PUSH2 0xCAD JUMP JUMPDEST POP DUP2 SWAP5 POP POP POP POP POP SWAP2 SWAP1 POP JUMP JUMPDEST PUSH1 0x4 CALLER SWAP1 DUP1 PUSH1 0x1 DUP2 SLOAD ADD DUP1 DUP3 SSTORE DUP1 SWAP2 POP POP PUSH1 0x1 SWAP1 SUB SWAP1 PUSH0 MSTORE PUSH1 0x20 PUSH0 KECCAK256 ADD PUSH0 SWAP1 SWAP2 SWAP1 SWAP2 SWAP1 SWAP2 PUSH2 0x100 EXP DUP2 SLOAD DUP2 PUSH20 0xFFFFFFFFFFFFFFFFFFFFFFFFFFFFFFFFFFFFFFFF MUL NOT AND SWAP1 DUP4 PUSH20 0xFFFFFFFFFFFFFFFFFFFFFFFFFFFFFFFFFFFFFFFF AND MUL OR SWAP1 SSTORE POP PUSH1 0x40 MLOAD DUP1 PUSH1 0x60 ADD PUSH1 0x40 MSTORE DUP1 DUP5 DUP5 DUP1 DUP1 PUSH1 0x1F ADD PUSH1 0x20 DUP1 SWAP2 DIV MUL PUSH1 0x20 ADD PUSH1 0x40 MLOAD SWAP1 DUP2 ADD PUSH1 0x40 MSTORE DUP1 SWAP4 SWAP3 SWAP2 SWAP1 DUP2 DUP2 MSTORE PUSH1 0x20 ADD DUP4 DUP4 DUP1 DUP3 DUP5 CALLDATACOPY PUSH0 DUP2 DUP5 ADD MSTORE PUSH1 0x1F NOT PUSH1 0x1F DUP3 ADD AND SWAP1 POP DUP1 DUP4 ADD SWAP3 POP POP POP POP POP POP POP DUP2 MSTORE PUSH1 0x20 ADD DUP3 PUSH1 0x1 DUP2 GT ISZERO PUSH2 0xFDD JUMPI PUSH2 0xFDC PUSH2 0x1D22 JUMP JUMPDEST JUMPDEST DUP2 MSTORE PUSH1 0x20 ADD PUSH0 PUSH1 0x1 DUP2 GT ISZERO PUSH2 0xFF5 JUMPI PUSH2 0xFF4 PUSH2 0x1D22 JUMP JUMPDEST JUMPDEST DUP2 MSTORE POP PUSH0 DUP1 CALLER PUSH20 0xFFFFFFFFFFFFFFFFFFFFFFFFFFFFFFFFFFFFFFFF AND PUSH20 0xFFFFFFFFFFFFFFFFFFFFFFFFFFFFFFFFFFFFFFFF AND DUP2 MSTORE PUSH1 0x20 ADD SWAP1 DUP2 MSTORE PUSH1 0x20 ADD PUSH0 KECCAK256 PUSH0 DUP3 ADD MLOAD DUP2 PUSH0 ADD SWAP1 DUP2 PUSH2 0x1047 SWAP2 SWAP1 PUSH2 0x27C5 JUMP JUMPDEST POP PUSH1 0x20 DUP3 ADD MLOAD DUP2 PUSH1 0x1 ADD PUSH0 PUSH2 0x100 EXP DUP2 SLOAD DUP2 PUSH1 0xFF MUL NOT AND SWAP1 DUP4 PUSH1 0x1 DUP2 GT ISZERO PUSH2 0x1072 JUMPI PUSH2 0x1071 PUSH2 0x1D22 JUMP JUMPDEST JUMPDEST MUL OR SWAP1 SSTORE POP PUSH1 0x40 DUP3 ADD MLOAD DUP2 PUSH1 0x1 ADD PUSH1 0x1 PUSH2 0x100 EXP DUP2 SLOAD DUP2 PUSH1 0xFF MUL NOT AND SWAP1 DUP4 PUSH1 0x1 DUP2 GT ISZERO PUSH2 0x10A2 JUMPI PUSH2 0x10A1 PUSH2 0x1D22 JUMP JUMPDEST JUMPDEST MUL OR SWAP1 SSTORE POP SWAP1 POP POP POP POP POP JUMP JUMPDEST PUSH0 DUP1 PUSH0 CALLER PUSH20 0xFFFFFFFFFFFFFFFFFFFFFFFFFFFFFFFFFFFFFFFF AND PUSH20 0xFFFFFFFFFFFFFFFFFFFFFFFFFFFFFFFFFFFFFFFF AND DUP2 MSTORE PUSH1 0x20 ADD SWAP1 DUP2 MSTORE PUSH1 0x20 ADD PUSH0 KECCAK256 PUSH0 ADD DUP1 SLOAD PUSH2 0x10F9 SWAP1 PUSH2 0x219D JUMP JUMPDEST SWAP1 POP GT PUSH2 0x113B JUMPI PUSH1 0x40 MLOAD PUSH32 0x8C379A000000000000000000000000000000000000000000000000000000000 DUP2 MSTORE PUSH1 0x4 ADD PUSH2 0x1132 SWAP1 PUSH2 0x2217 JUMP JUMPDEST PUSH1 0x40 MLOAD DUP1 SWAP2 SUB SWAP1 REVERT JUMPDEST PUSH0 PUSH1 0x64 PUSH1 0x5A CALLVALUE PUSH2 0x114B SWAP2 SWAP1 PUSH2 0x2894 JUMP JUMPDEST PUSH2 0x1155 SWAP2 SWAP1 PUSH2 0x2902 JUMP JUMPDEST SWAP1 POP PUSH0 PUSH2 0x1160 PUSH2 0x178B JUMP JUMPDEST SWAP1 POP PUSH2 0x116C DUP2 DUP4 PUSH2 0x1868 JUMP JUMPDEST PUSH32 0x19446F6741ECA6D71B8406898C4308B5F1B9844F9F1EA7614B48264E453B9BD2 DUP2 DUP4 PUSH1 0x40 MLOAD PUSH2 0x119D SWAP3 SWAP2 SWAP1 PUSH2 0x296A JUMP JUMPDEST PUSH1 0x40 MLOAD DUP1 SWAP2 SUB SWAP1 LOG1 POP POP JUMP JUMPDEST PUSH1 0x60 PUSH0 DUP1 PUSH0 CALLER PUSH20 0xFFFFFFFFFFFFFFFFFFFFFFFFFFFFFFFFFFFFFFFF AND PUSH20 0xFFFFFFFFFFFFFFFFFFFFFFFFFFFFFFFFFFFFFFFF AND DUP2 MSTORE PUSH1 0x20 ADD SWAP1 DUP2 MSTORE PUSH1 0x20 ADD PUSH0 KECCAK256 PUSH0 ADD DUP1 SLOAD PUSH2 0x11F5 SWAP1 PUSH2 0x219D JUMP JUMPDEST SWAP1 POP GT PUSH2 0x1237 JUMPI PUSH1 0x40 MLOAD PUSH32 0x8C379A000000000000000000000000000000000000000000000000000000000 DUP2 MSTORE PUSH1 0x4 ADD PUSH2 0x122E SWAP1 PUSH2 0x2217 JUMP JUMPDEST PUSH1 0x40 MLOAD DUP1 SWAP2 SUB SWAP1 REVERT JUMPDEST PUSH1 0x1 DUP1 DUP2 GT ISZERO PUSH2 0x124A JUMPI PUSH2 0x1249 PUSH2 0x1D22 JUMP JUMPDEST JUMPDEST PUSH0 DUP1 CALLER PUSH20 0xFFFFFFFFFFFFFFFFFFFFFFFFFFFFFFFFFFFFFFFF AND PUSH20 0xFFFFFFFFFFFFFFFFFFFFFFFFFFFFFFFFFFFFFFFF AND DUP2 MSTORE PUSH1 0x20 ADD SWAP1 DUP2 MSTORE PUSH1 0x20 ADD PUSH0 KECCAK256 PUSH1 0x1 ADD PUSH1 0x1 SWAP1 SLOAD SWAP1 PUSH2 0x100 EXP SWAP1 DIV PUSH1 0xFF AND PUSH1 0x1 DUP2 GT ISZERO PUSH2 0x12A9 JUMPI PUSH2 0x12A8 PUSH2 0x1D22 JUMP JUMPDEST JUMPDEST EQ PUSH2 0x12E9 JUMPI PUSH1 0x40 MLOAD PUSH32 0x8C379A000000000000000000000000000000000000000000000000000000000 DUP2 MSTORE PUSH1 0x4 ADD PUSH2 0x12E0 SWAP1 PUSH2 0x27A7 JUMP JUMPDEST PUSH1 0x40 MLOAD DUP1 SWAP2 SUB SWAP1 REVERT JUMPDEST PUSH0 PUSH1 0x3 DUP1 SLOAD SWAP1 POP SWAP1 POP PUSH0 DUP2 PUSH8 0xFFFFFFFFFFFFFFFF DUP2 GT ISZERO PUSH2 0x130D JUMPI PUSH2 0x130C PUSH2 0x233D JUMP JUMPDEST JUMPDEST PUSH1 0x40 MLOAD SWAP1 DUP1 DUP3 MSTORE DUP1 PUSH1 0x20 MUL PUSH1 0x20 ADD DUP3 ADD PUSH1 0x40 MSTORE DUP1 ISZERO PUSH2 0x1346 JUMPI DUP2 PUSH1 0x20 ADD JUMPDEST PUSH2 0x1333 PUSH2 0x1B42 JUMP JUMPDEST DUP2 MSTORE PUSH1 0x20 ADD SWAP1 PUSH1 0x1 SWAP1 SUB SWAP1 DUP2 PUSH2 0x132B JUMPI SWAP1 POP JUMPDEST POP SWAP1 POP PUSH0 JUMPDEST DUP3 DUP2 LT ISZERO PUSH2 0x1525 JUMPI PUSH1 0x1 PUSH1 0x3 DUP3 DUP2 SLOAD DUP2 LT PUSH2 0x1369 JUMPI PUSH2 0x1368 PUSH2 0x26BC JUMP JUMPDEST JUMPDEST SWAP1 PUSH0 MSTORE PUSH1 0x20 PUSH0 KECCAK256 ADD PUSH1 0x40 MLOAD PUSH2 0x137E SWAP2 SWAP1 PUSH2 0x26A6 JUMP JUMPDEST SWAP1 DUP2 MSTORE PUSH1 0x20 ADD PUSH1 0x40 MLOAD DUP1 SWAP2 SUB SWAP1 KECCAK256 PUSH1 0x40 MLOAD DUP1 PUSH1 0x80 ADD PUSH1 0x40 MSTORE SWAP1 DUP2 PUSH0 DUP3 ADD DUP1 SLOAD PUSH2 0x13A6 SWAP1 PUSH2 0x219D JUMP JUMPDEST DUP1 PUSH1 0x1F ADD PUSH1 0x20 DUP1 SWAP2 DIV MUL PUSH1 0x20 ADD PUSH1 0x40 MLOAD SWAP1 DUP2 ADD PUSH1 0x40 MSTORE DUP1 SWAP3 SWAP2 SWAP1 DUP2 DUP2 MSTORE PUSH1 0x20 ADD DUP3 DUP1 SLOAD PUSH2 0x13D2 SWAP1 PUSH2 0x219D JUMP JUMPDEST DUP1 ISZERO PUSH2 0x141D JUMPI DUP1 PUSH1 0x1F LT PUSH2 0x13F4 JUMPI PUSH2 0x100 DUP1 DUP4 SLOAD DIV MUL DUP4 MSTORE SWAP2 PUSH1 0x20 ADD SWAP2 PUSH2 0x141D JUMP JUMPDEST DUP3 ADD SWAP2 SWAP1 PUSH0 MSTORE PUSH1 0x20 PUSH0 KECCAK256 SWAP1 JUMPDEST DUP2 SLOAD DUP2 MSTORE SWAP1 PUSH1 0x1 ADD SWAP1 PUSH1 0x20 ADD DUP1 DUP4 GT PUSH2 0x1400 JUMPI DUP3 SWAP1 SUB PUSH1 0x1F AND DUP3 ADD SWAP2 JUMPDEST POP POP POP POP POP DUP2 MSTORE PUSH1 0x20 ADD PUSH1 0x1 DUP3 ADD SLOAD DUP2 MSTORE PUSH1 0x20 ADD PUSH1 0x2 DUP3 ADD PUSH0 SWAP1 SLOAD SWAP1 PUSH2 0x100 EXP SWAP1 DIV PUSH1 0xFF AND PUSH1 0x1 DUP2 GT ISZERO PUSH2 0x1454 JUMPI PUSH2 0x1453 PUSH2 0x1D22 JUMP JUMPDEST JUMPDEST PUSH1 0x1 DUP2 GT ISZERO PUSH2 0x1466 JUMPI PUSH2 0x1465 PUSH2 0x1D22 JUMP JUMPDEST JUMPDEST DUP2 MSTORE PUSH1 0x20 ADD PUSH1 0x3 DUP3 ADD DUP1 SLOAD PUSH2 0x147A SWAP1 PUSH2 0x219D JUMP JUMPDEST DUP1 PUSH1 0x1F ADD PUSH1 0x20 DUP1 SWAP2 DIV MUL PUSH1 0x20 ADD PUSH1 0x40 MLOAD SWAP1 DUP2 ADD PUSH1 0x40 MSTORE DUP1 SWAP3 SWAP2 SWAP1 DUP2 DUP2 MSTORE PUSH1 0x20 ADD DUP3 DUP1 SLOAD PUSH2 0x14A6 SWAP1 PUSH2 0x219D JUMP JUMPDEST DUP1 ISZERO PUSH2 0x14F1 JUMPI DUP1 PUSH1 0x1F LT PUSH2 0x14C8 JUMPI PUSH2 0x100 DUP1 DUP4 SLOAD DIV MUL DUP4 MSTORE SWAP2 PUSH1 0x20 ADD SWAP2 PUSH2 0x14F1 JUMP JUMPDEST DUP3 ADD SWAP2 SWAP1 PUSH0 MSTORE PUSH1 0x20 PUSH0 KECCAK256 SWAP1 JUMPDEST DUP2 SLOAD DUP2 MSTORE SWAP1 PUSH1 0x1 ADD SWAP1 PUSH1 0x20 ADD DUP1 DUP4 GT PUSH2 0x14D4 JUMPI DUP3 SWAP1 SUB PUSH1 0x1F AND DUP3 ADD SWAP2 JUMPDEST POP POP POP POP POP DUP2 MSTORE POP POP DUP3 DUP3 DUP2 MLOAD DUP2 LT PUSH2 0x150D JUMPI PUSH2 0x150C PUSH2 0x26BC JUMP JUMPDEST JUMPDEST PUSH1 0x20 MUL PUSH1 0x20 ADD ADD DUP2 SWAP1 MSTORE POP DUP1 DUP1 PUSH1 0x1 ADD SWAP2 POP POP PUSH2 0x134B JUMP JUMPDEST POP DUP1 SWAP3 POP POP POP SWAP1 JUMP JUMPDEST PUSH0 DUP1 PUSH0 DUP1 CALLER PUSH20 0xFFFFFFFFFFFFFFFFFFFFFFFFFFFFFFFFFFFFFFFF AND PUSH20 0xFFFFFFFFFFFFFFFFFFFFFFFFFFFFFFFFFFFFFFFF AND DUP2 MSTORE PUSH1 0x20 ADD SWAP1 DUP2 MSTORE PUSH1 0x20 ADD PUSH0 KECCAK256 PUSH0 ADD DUP1 SLOAD PUSH2 0x1579 SWAP1 PUSH2 0x219D JUMP JUMPDEST SWAP1 POP GT PUSH2 0x15BB JUMPI PUSH1 0x40 MLOAD PUSH32 0x8C379A000000000000000000000000000000000000000000000000000000000 DUP2 MSTORE PUSH1 0x4 ADD PUSH2 0x15B2 SWAP1 PUSH2 0x2217 JUMP JUMPDEST PUSH1 0x40 MLOAD DUP1 SWAP2 SUB SWAP1 REVERT JUMPDEST PUSH1 0x1 DUP1 DUP2 GT ISZERO PUSH2 0x15CE JUMPI PUSH2 0x15CD PUSH2 0x1D22 JUMP JUMPDEST JUMPDEST PUSH0 DUP1 CALLER PUSH20 0xFFFFFFFFFFFFFFFFFFFFFFFFFFFFFFFFFFFFFFFF AND PUSH20 0xFFFFFFFFFFFFFFFFFFFFFFFFFFFFFFFFFFFFFFFF AND DUP2 MSTORE PUSH1 0x20 ADD SWAP1 DUP2 MSTORE PUSH1 0x20 ADD PUSH0 KECCAK256 PUSH1 0x1 ADD PUSH1 0x1 SWAP1 SLOAD SWAP1 PUSH2 0x100 EXP SWAP1 DIV PUSH1 0xFF AND PUSH1 0x1 DUP2 GT ISZERO PUSH2 0x162D JUMPI PUSH2 0x162C PUSH2 0x1D22 JUMP JUMPDEST JUMPDEST EQ SWAP1 POP SWAP1 JUMP JUMPDEST PUSH2 0x163B PUSH2 0x1B7A JUMP JUMPDEST PUSH0 DUP1 CALLER PUSH20 0xFFFFFFFFFFFFFFFFFFFFFFFFFFFFFFFFFFFFFFFF AND PUSH20 0xFFFFFFFFFFFFFFFFFFFFFFFFFFFFFFFFFFFFFFFF AND DUP2 MSTORE PUSH1 0x20 ADD SWAP1 DUP2 MSTORE PUSH1 0x20 ADD PUSH0 KECCAK256 PUSH1 0x40 MLOAD DUP1 PUSH1 0x60 ADD PUSH1 0x40 MSTORE SWAP1 DUP2 PUSH0 DUP3 ADD DUP1 SLOAD PUSH2 0x1691 SWAP1 PUSH2 0x219D JUMP JUMPDEST DUP1 PUSH1 0x1F ADD PUSH1 0x20 DUP1 SWAP2 DIV MUL PUSH1 0x20 ADD PUSH1 0x40 MLOAD SWAP1 DUP2 ADD PUSH1 0x40 MSTORE DUP1 SWAP3 SWAP2 SWAP1 DUP2 DUP2 MSTORE PUSH1 0x20 ADD DUP3 DUP1 SLOAD PUSH2 0x16BD SWAP1 PUSH2 0x219D JUMP JUMPDEST DUP1 ISZERO PUSH2 0x1708 JUMPI DUP1 PUSH1 0x1F LT PUSH2 0x16DF JUMPI PUSH2 0x100 DUP1 DUP4 SLOAD DIV MUL DUP4 MSTORE SWAP2 PUSH1 0x20 ADD SWAP2 PUSH2 0x1708 JUMP JUMPDEST DUP3 ADD SWAP2 SWAP1 PUSH0 MSTORE PUSH1 0x20 PUSH0 KECCAK256 SWAP1 JUMPDEST DUP2 SLOAD DUP2 MSTORE SWAP1 PUSH1 0x1 ADD SWAP1 PUSH1 0x20 ADD DUP1 DUP4 GT PUSH2 0x16EB JUMPI DUP3 SWAP1 SUB PUSH1 0x1F AND DUP3 ADD SWAP2 JUMPDEST POP POP POP POP POP DUP2 MSTORE PUSH1 0x20 ADD PUSH1 0x1 DUP3 ADD PUSH0 SWAP1 SLOAD SWAP1 PUSH2 0x100 EXP SWAP1 DIV PUSH1 0xFF AND PUSH1 0x1 DUP2 GT ISZERO PUSH2 0x1735 JUMPI PUSH2 0x1734 PUSH2 0x1D22 JUMP JUMPDEST JUMPDEST PUSH1 0x1 DUP2 GT ISZERO PUSH2 0x1747 JUMPI PUSH2 0x1746 PUSH2 0x1D22 JUMP JUMPDEST JUMPDEST DUP2 MSTORE PUSH1 0x20 ADD PUSH1 0x1 DUP3 ADD PUSH1 0x1 SWAP1 SLOAD SWAP1 PUSH2 0x100 EXP SWAP1 DIV PUSH1 0xFF AND PUSH1 0x1 DUP2 GT ISZERO PUSH2 0x1770 JUMPI PUSH2 0x176F PUSH2 0x1D22 JUMP JUMPDEST JUMPDEST PUSH1 0x1 DUP2 GT ISZERO PUSH2 0x1782 JUMPI PUSH2 0x1781 PUSH2 0x1D22 JUMP JUMPDEST JUMPDEST DUP2 MSTORE POP POP SWAP1 POP SWAP1 JUMP JUMPDEST PUSH1 0x60 PUSH0 PUSH1 0xF PUSH8 0xFFFFFFFFFFFFFFFF DUP2 GT ISZERO PUSH2 0x17A9 JUMPI PUSH2 0x17A8 PUSH2 0x233D JUMP JUMPDEST JUMPDEST PUSH1 0x40 MLOAD SWAP1 DUP1 DUP3 MSTORE DUP1 PUSH1 0x1F ADD PUSH1 0x1F NOT AND PUSH1 0x20 ADD DUP3 ADD PUSH1 0x40 MSTORE DUP1 ISZERO PUSH2 0x17DB JUMPI DUP2 PUSH1 0x20 ADD PUSH1 0x1 DUP3 MUL DUP1 CALLDATASIZE DUP4 CALLDATACOPY DUP1 DUP3 ADD SWAP2 POP POP SWAP1 POP JUMPDEST POP SWAP1 POP PUSH0 JUMPDEST PUSH1 0xF DUP2 LT ISZERO PUSH2 0x1860 JUMPI PUSH0 PUSH2 0x17F3 DUP3 PUSH2 0x1B00 JUMP JUMPDEST SWAP1 POP PUSH1 0x1A DUP2 PUSH2 0x1802 SWAP2 SWAP1 PUSH2 0x2998 JUMP JUMPDEST PUSH1 0x61 PUSH2 0x180E SWAP2 SWAP1 PUSH2 0x29C8 JUMP JUMPDEST PUSH1 0xF8 SHL DUP4 DUP4 DUP2 MLOAD DUP2 LT PUSH2 0x1824 JUMPI PUSH2 0x1823 PUSH2 0x26BC JUMP JUMPDEST JUMPDEST PUSH1 0x20 ADD ADD SWAP1 PUSH31 0xFFFFFFFFFFFFFFFFFFFFFFFFFFFFFFFFFFFFFFFFFFFFFFFFFFFFFFFFFFFFFF NOT AND SWAP1 DUP2 PUSH0 BYTE SWAP1 MSTORE8 POP POP DUP1 DUP1 PUSH1 0x1 ADD SWAP2 POP POP PUSH2 0x17E0 JUMP JUMPDEST POP DUP1 SWAP2 POP POP SWAP1 JUMP JUMPDEST DUP2 PUSH0 DUP1 JUMPDEST PUSH1 0x3 DUP1 SLOAD SWAP1 POP DUP2 LT ISZERO PUSH2 0x18FD JUMPI DUP3 PUSH1 0x40 MLOAD PUSH1 0x20 ADD PUSH2 0x188A SWAP2 SWAP1 PUSH2 0x20E2 JUMP JUMPDEST PUSH1 0x40 MLOAD PUSH1 0x20 DUP2 DUP4 SUB SUB DUP2 MSTORE SWAP1 PUSH1 0x40 MSTORE DUP1 MLOAD SWAP1 PUSH1 0x20 ADD KECCAK256 PUSH1 0x3 DUP3 DUP2 SLOAD DUP2 LT PUSH2 0x18B4 JUMPI PUSH2 0x18B3 PUSH2 0x26BC JUMP JUMPDEST JUMPDEST SWAP1 PUSH0 MSTORE PUSH1 0x20 PUSH0 KECCAK256 ADD PUSH1 0x40 MLOAD PUSH1 0x20 ADD PUSH2 0x18CC SWAP2 SWAP1 PUSH2 0x26A6 JUMP JUMPDEST PUSH1 0x40 MLOAD PUSH1 0x20 DUP2 DUP4 SUB SUB DUP2 MSTORE SWAP1 PUSH1 0x40 MSTORE DUP1 MLOAD SWAP1 PUSH1 0x20 ADD KECCAK256 SUB PUSH2 0x18F0 JUMPI PUSH1 0x1 SWAP2 POP PUSH2 0x18FD JUMP JUMPDEST DUP1 DUP1 PUSH1 0x1 ADD SWAP2 POP POP PUSH2 0x186C JUMP JUMPDEST POP DUP1 ISZERO PUSH2 0x193F JUMPI PUSH1 0x40 MLOAD PUSH32 0x8C379A000000000000000000000000000000000000000000000000000000000 DUP2 MSTORE PUSH1 0x4 ADD PUSH2 0x1936 SWAP1 PUSH2 0x2A45 JUMP JUMPDEST PUSH1 0x40 MLOAD DUP1 SWAP2 SUB SWAP1 REVERT JUMPDEST PUSH1 0x3 DUP5 SWAP1 DUP1 PUSH1 0x1 DUP2 SLOAD ADD DUP1 DUP3 SSTORE DUP1 SWAP2 POP POP PUSH1 0x1 SWAP1 SUB SWAP1 PUSH0 MSTORE PUSH1 0x20 PUSH0 KECCAK256 ADD PUSH0 SWAP1 SWAP2 SWAP1 SWAP2 SWAP1 SWAP2 POP SWAP1 DUP2 PUSH2 0x1970 SWAP2 SWAP1 PUSH2 0x27C5 JUMP JUMPDEST POP PUSH1 0x40 MLOAD DUP1 PUSH1 0x80 ADD PUSH1 0x40 MSTORE DUP1 PUSH0 DUP1 CALLER PUSH20 0xFFFFFFFFFFFFFFFFFFFFFFFFFFFFFFFFFFFFFFFF AND PUSH20 0xFFFFFFFFFFFFFFFFFFFFFFFFFFFFFFFFFFFFFFFF AND DUP2 MSTORE PUSH1 0x20 ADD SWAP1 DUP2 MSTORE PUSH1 0x20 ADD PUSH0 KECCAK256 PUSH0 ADD DUP1 SLOAD PUSH2 0x19C5 SWAP1 PUSH2 0x219D JUMP JUMPDEST DUP1 PUSH1 0x1F ADD PUSH1 0x20 DUP1 SWAP2 DIV MUL PUSH1 0x20 ADD PUSH1 0x40 MLOAD SWAP1 DUP2 ADD PUSH1 0x40 MSTORE DUP1 SWAP3 SWAP2 SWAP1 DUP2 DUP2 MSTORE PUSH1 0x20 ADD DUP3 DUP1 SLOAD PUSH2 0x19F1 SWAP1 PUSH2 0x219D JUMP JUMPDEST DUP1 ISZERO PUSH2 0x1A3C JUMPI DUP1 PUSH1 0x1F LT PUSH2 0x1A13 JUMPI PUSH2 0x100 DUP1 DUP4 SLOAD DIV MUL DUP4 MSTORE SWAP2 PUSH1 0x20 ADD SWAP2 PUSH2 0x1A3C JUMP JUMPDEST DUP3 ADD SWAP2 SWAP1 PUSH0 MSTORE PUSH1 0x20 PUSH0 KECCAK256 SWAP1 JUMPDEST DUP2 SLOAD DUP2 MSTORE SWAP1 PUSH1 0x1 ADD SWAP1 PUSH1 0x20 ADD DUP1 DUP4 GT PUSH2 0x1A1F JUMPI DUP3 SWAP1 SUB PUSH1 0x1F AND DUP3 ADD SWAP2 JUMPDEST POP POP POP POP POP DUP2 MSTORE PUSH1 0x20 ADD DUP5 DUP2 MSTORE PUSH1 0x20 ADD PUSH1 0x1 DUP1 DUP2 GT ISZERO PUSH2 0x1A5F JUMPI PUSH2 0x1A5E PUSH2 0x1D22 JUMP JUMPDEST JUMPDEST DUP2 MSTORE PUSH1 0x20 ADD PUSH1 0x40 MLOAD DUP1 PUSH1 0x20 ADD PUSH1 0x40 MSTORE DUP1 PUSH0 DUP2 MSTORE POP DUP2 MSTORE POP PUSH1 0x1 DUP6 PUSH1 0x40 MLOAD PUSH2 0x1A86 SWAP2 SWAP1 PUSH2 0x20E2 JUMP JUMPDEST SWAP1 DUP2 MSTORE PUSH1 0x20 ADD PUSH1 0x40 MLOAD DUP1 SWAP2 SUB SWAP1 KECCAK256 PUSH0 DUP3 ADD MLOAD DUP2 PUSH0 ADD SWAP1 DUP2 PUSH2 0x1AA7 SWAP2 SWAP1 PUSH2 0x27C5 JUMP JUMPDEST POP PUSH1 0x20 DUP3 ADD MLOAD DUP2 PUSH1 0x1 ADD SSTORE PUSH1 0x40 DUP3 ADD MLOAD DUP2 PUSH1 0x2 ADD PUSH0 PUSH2 0x100 EXP DUP2 SLOAD DUP2 PUSH1 0xFF MUL NOT AND SWAP1 DUP4 PUSH1 0x1 DUP2 GT ISZERO PUSH2 0x1ADC JUMPI PUSH2 0x1ADB PUSH2 0x1D22 JUMP JUMPDEST JUMPDEST MUL OR SWAP1 SSTORE POP PUSH1 0x60 DUP3 ADD MLOAD DUP2 PUSH1 0x3 ADD SWAP1 DUP2 PUSH2 0x1AF6 SWAP2 SWAP1 PUSH2 0x27C5 JUMP JUMPDEST POP SWAP1 POP POP POP POP POP POP JUMP JUMPDEST PUSH0 PUSH2 0x2710 TIMESTAMP PREVRANDAO DUP5 PUSH1 0x40 MLOAD PUSH1 0x20 ADD PUSH2 0x1B19 SWAP4 SWAP3 SWAP2 SWAP1 PUSH2 0x2A83 JUMP JUMPDEST PUSH1 0x40 MLOAD PUSH1 0x20 DUP2 DUP4 SUB SUB DUP2 MSTORE SWAP1 PUSH1 0x40 MSTORE DUP1 MLOAD SWAP1 PUSH1 0x20 ADD KECCAK256 PUSH0 SHR PUSH2 0x1B3B SWAP2 SWAP1 PUSH2 0x2998 JUMP JUMPDEST SWAP1 POP SWAP2 SWAP1 POP JUMP JUMPDEST PUSH1 0x40 MLOAD DUP1 PUSH1 0x80 ADD PUSH1 0x40 MSTORE DUP1 PUSH1 0x60 DUP2 MSTORE PUSH1 0x20 ADD PUSH0 DUP2 MSTORE PUSH1 0x20 ADD PUSH0 PUSH1 0x1 DUP2 GT ISZERO PUSH2 0x1B6D JUMPI PUSH2 0x1B6C PUSH2 0x1D22 JUMP JUMPDEST JUMPDEST DUP2 MSTORE PUSH1 0x20 ADD PUSH1 0x60 DUP2 MSTORE POP SWAP1 JUMP JUMPDEST PUSH1 0x40 MLOAD DUP1 PUSH1 0x60 ADD PUSH1 0x40 MSTORE DUP1 PUSH1 0x60 DUP2 MSTORE PUSH1 0x20 ADD PUSH0 PUSH1 0x1 DUP2 GT ISZERO PUSH2 0x1B9F JUMPI PUSH2 0x1B9E PUSH2 0x1D22 JUMP JUMPDEST JUMPDEST DUP2 MSTORE PUSH1 0x20 ADD PUSH0 PUSH1 0x1 DUP2 GT ISZERO PUSH2 0x1BB7 JUMPI PUSH2 0x1BB6 PUSH2 0x1D22 JUMP JUMPDEST JUMPDEST DUP2 MSTORE POP SWAP1 JUMP JUMPDEST PUSH0 DUP1 REVERT JUMPDEST PUSH0 DUP1 REVERT JUMPDEST PUSH0 DUP1 REVERT JUMPDEST PUSH0 DUP1 REVERT JUMPDEST PUSH0 DUP1 REVERT JUMPDEST PUSH0 DUP1 DUP4 PUSH1 0x1F DUP5 ADD SLT PUSH2 0x1BE6 JUMPI PUSH2 0x1BE5 PUSH2 0x1BC5 JUMP JUMPDEST JUMPDEST DUP3 CALLDATALOAD SWAP1 POP PUSH8 0xFFFFFFFFFFFFFFFF DUP2 GT ISZERO PUSH2 0x1C03 JUMPI PUSH2 0x1C02 PUSH2 0x1BC9 JUMP JUMPDEST JUMPDEST PUSH1 0x20 DUP4 ADD SWAP2 POP DUP4 PUSH1 0x1 DUP3 MUL DUP4 ADD GT ISZERO PUSH2 0x1C1F JUMPI PUSH2 0x1C1E PUSH2 0x1BCD JUMP JUMPDEST JUMPDEST SWAP3 POP SWAP3 SWAP1 POP JUMP JUMPDEST PUSH0 DUP1 PUSH1 0x20 DUP4 DUP6 SUB SLT ISZERO PUSH2 0x1C3C JUMPI PUSH2 0x1C3B PUSH2 0x1BBD JUMP JUMPDEST JUMPDEST PUSH0 DUP4 ADD CALLDATALOAD PUSH8 0xFFFFFFFFFFFFFFFF DUP2 GT ISZERO PUSH2 0x1C59 JUMPI PUSH2 0x1C58 PUSH2 0x1BC1 JUMP JUMPDEST JUMPDEST PUSH2 0x1C65 DUP6 DUP3 DUP7 ADD PUSH2 0x1BD1 JUMP JUMPDEST SWAP3 POP SWAP3 POP POP SWAP3 POP SWAP3 SWAP1 POP JUMP JUMPDEST PUSH0 DUP2 MLOAD SWAP1 POP SWAP2 SWAP1 POP JUMP JUMPDEST PUSH0 DUP3 DUP3 MSTORE PUSH1 0x20 DUP3 ADD SWAP1 POP SWAP3 SWAP2 POP POP JUMP JUMPDEST PUSH0 DUP2 SWAP1 POP PUSH1 0x20 DUP3 ADD SWAP1 POP SWAP2 SWAP1 POP JUMP JUMPDEST PUSH0 DUP2 MLOAD SWAP1 POP SWAP2 SWAP1 POP JUMP JUMPDEST PUSH0 DUP3 DUP3 MSTORE PUSH1 0x20 DUP3 ADD SWAP1 POP SWAP3 SWAP2 POP POP JUMP JUMPDEST DUP3 DUP2 DUP4 MCOPY PUSH0 DUP4 DUP4 ADD MSTORE POP POP POP JUMP JUMPDEST PUSH0 PUSH1 0x1F NOT PUSH1 0x1F DUP4 ADD AND SWAP1 POP SWAP2 SWAP1 POP JUMP JUMPDEST PUSH0 PUSH2 0x1CDC DUP3 PUSH2 0x1C9A JUMP JUMPDEST PUSH2 0x1CE6 DUP2 DUP6 PUSH2 0x1CA4 JUMP JUMPDEST SWAP4 POP PUSH2 0x1CF6 DUP2 DUP6 PUSH1 0x20 DUP7 ADD PUSH2 0x1CB4 JUMP JUMPDEST PUSH2 0x1CFF DUP2 PUSH2 0x1CC2 JUMP JUMPDEST DUP5 ADD SWAP2 POP POP SWAP3 SWAP2 POP POP JUMP JUMPDEST PUSH0 DUP2 SWAP1 POP SWAP2 SWAP1 POP JUMP JUMPDEST PUSH2 0x1D1C DUP2 PUSH2 0x1D0A JUMP JUMPDEST DUP3 MSTORE POP POP JUMP JUMPDEST PUSH32 0x4E487B7100000000000000000000000000000000000000000000000000000000 PUSH0 MSTORE PUSH1 0x21 PUSH1 0x4 MSTORE PUSH1 0x24 PUSH0 REVERT JUMPDEST PUSH1 0x2 DUP2 LT PUSH2 0x1D60 JUMPI PUSH2 0x1D5F PUSH2 0x1D22 JUMP JUMPDEST JUMPDEST POP JUMP JUMPDEST PUSH0 DUP2 SWAP1 POP PUSH2 0x1D70 DUP3 PUSH2 0x1D4F JUMP JUMPDEST SWAP2 SWAP1 POP JUMP JUMPDEST PUSH0 PUSH2 0x1D7F DUP3 PUSH2 0x1D63 JUMP JUMPDEST SWAP1 POP SWAP2 SWAP1 POP JUMP JUMPDEST PUSH2 0x1D8F DUP2 PUSH2 0x1D75 JUMP JUMPDEST DUP3 MSTORE POP POP JUMP JUMPDEST PUSH0 PUSH1 0x80 DUP4 ADD PUSH0 DUP4 ADD MLOAD DUP5 DUP3 SUB PUSH0 DUP7 ADD MSTORE PUSH2 0x1DAF DUP3 DUP3 PUSH2 0x1CD2 JUMP JUMPDEST SWAP2 POP POP PUSH1 0x20 DUP4 ADD MLOAD PUSH2 0x1DC4 PUSH1 0x20 DUP7 ADD DUP3 PUSH2 0x1D13 JUMP JUMPDEST POP PUSH1 0x40 DUP4 ADD MLOAD PUSH2 0x1DD7 PUSH1 0x40 DUP7 ADD DUP3 PUSH2 0x1D86 JUMP JUMPDEST POP PUSH1 0x60 DUP4 ADD MLOAD DUP5 DUP3 SUB PUSH1 0x60 DUP7 ADD MSTORE PUSH2 0x1DEF DUP3 DUP3 PUSH2 0x1CD2 JUMP JUMPDEST SWAP2 POP POP DUP1 SWAP2 POP POP SWAP3 SWAP2 POP POP JUMP JUMPDEST PUSH0 PUSH2 0x1E07 DUP4 DUP4 PUSH2 0x1D95 JUMP JUMPDEST SWAP1 POP SWAP3 SWAP2 POP POP JUMP JUMPDEST PUSH0 PUSH1 0x20 DUP3 ADD SWAP1 POP SWAP2 SWAP1 POP JUMP JUMPDEST PUSH0 PUSH2 0x1E25 DUP3 PUSH2 0x1C71 JUMP JUMPDEST PUSH2 0x1E2F DUP2 DUP6 PUSH2 0x1C7B JUMP JUMPDEST SWAP4 POP DUP4 PUSH1 0x20 DUP3 MUL DUP6 ADD PUSH2 0x1E41 DUP6 PUSH2 0x1C8B JUMP JUMPDEST DUP1 PUSH0 JUMPDEST DUP6 DUP2 LT ISZERO PUSH2 0x1E7C JUMPI DUP5 DUP5 SUB DUP10 MSTORE DUP2 MLOAD PUSH2 0x1E5D DUP6 DUP3 PUSH2 0x1DFC JUMP JUMPDEST SWAP5 POP PUSH2 0x1E68 DUP4 PUSH2 0x1E0F JUMP JUMPDEST SWAP3 POP PUSH1 0x20 DUP11 ADD SWAP10 POP POP PUSH1 0x1 DUP2 ADD SWAP1 POP PUSH2 0x1E44 JUMP JUMPDEST POP DUP3 SWAP8 POP DUP8 SWAP6 POP POP POP POP POP POP SWAP3 SWAP2 POP POP JUMP JUMPDEST PUSH0 PUSH1 0x20 DUP3 ADD SWAP1 POP DUP2 DUP2 SUB PUSH0 DUP4 ADD MSTORE PUSH2 0x1EA6 DUP2 DUP5 PUSH2 0x1E1B JUMP JUMPDEST SWAP1 POP SWAP3 SWAP2 POP POP JUMP JUMPDEST PUSH1 0x2 DUP2 LT PUSH2 0x1EBA JUMPI PUSH0 DUP1 REVERT JUMPDEST POP JUMP JUMPDEST PUSH0 DUP2 CALLDATALOAD SWAP1 POP PUSH2 0x1ECB DUP2 PUSH2 0x1EAE JUMP JUMPDEST SWAP3 SWAP2 POP POP JUMP JUMPDEST PUSH0 PUSH1 0x20 DUP3 DUP5 SUB SLT ISZERO PUSH2 0x1EE6 JUMPI PUSH2 0x1EE5 PUSH2 0x1BBD JUMP JUMPDEST JUMPDEST PUSH0 PUSH2 0x1EF3 DUP5 DUP3 DUP6 ADD PUSH2 0x1EBD JUMP JUMPDEST SWAP2 POP POP SWAP3 SWAP2 POP POP JUMP JUMPDEST PUSH1 0x2 DUP2 LT PUSH2 0x1F08 JUMPI PUSH0 DUP1 REVERT JUMPDEST POP JUMP JUMPDEST PUSH0 DUP2 CALLDATALOAD SWAP1 POP PUSH2 0x1F19 DUP2 PUSH2 0x1EFC JUMP JUMPDEST SWAP3 SWAP2 POP POP JUMP JUMPDEST PUSH0 DUP1 PUSH0 PUSH1 0x40 DUP5 DUP7 SUB SLT ISZERO PUSH2 0x1F36 JUMPI PUSH2 0x1F35 PUSH2 0x1BBD JUMP JUMPDEST JUMPDEST PUSH0 DUP5 ADD CALLDATALOAD PUSH8 0xFFFFFFFFFFFFFFFF DUP2 GT ISZERO PUSH2 0x1F53 JUMPI PUSH2 0x1F52 PUSH2 0x1BC1 JUMP JUMPDEST JUMPDEST PUSH2 0x1F5F DUP7 DUP3 DUP8 ADD PUSH2 0x1BD1 JUMP JUMPDEST SWAP4 POP SWAP4 POP POP PUSH1 0x20 PUSH2 0x1F72 DUP7 DUP3 DUP8 ADD PUSH2 0x1F0B JUMP JUMPDEST SWAP2 POP POP SWAP3 POP SWAP3 POP SWAP3 JUMP JUMPDEST PUSH0 DUP2 ISZERO ISZERO SWAP1 POP SWAP2 SWAP1 POP JUMP JUMPDEST PUSH2 0x1F90 DUP2 PUSH2 0x1F7C JUMP JUMPDEST DUP3 MSTORE POP POP JUMP JUMPDEST PUSH0 PUSH1 0x20 DUP3 ADD SWAP1 POP PUSH2 0x1FA9 PUSH0 DUP4 ADD DUP5 PUSH2 0x1F87 JUMP JUMPDEST SWAP3 SWAP2 POP POP JUMP JUMPDEST PUSH1 0x2 DUP2 LT PUSH2 0x1FC0 JUMPI PUSH2 0x1FBF PUSH2 0x1D22 JUMP JUMPDEST JUMPDEST POP JUMP JUMPDEST PUSH0 DUP2 SWAP1 POP PUSH2 0x1FD0 DUP3 PUSH2 0x1FAF JUMP JUMPDEST SWAP2 SWAP1 POP JUMP JUMPDEST PUSH0 PUSH2 0x1FDF DUP3 PUSH2 0x1FC3 JUMP JUMPDEST SWAP1 POP SWAP2 SWAP1 POP JUMP JUMPDEST PUSH2 0x1FEF DUP2 PUSH2 0x1FD5 JUMP JUMPDEST DUP3 MSTORE POP POP JUMP JUMPDEST PUSH1 0x2 DUP2 LT PUSH2 0x2006 JUMPI PUSH2 0x2005 PUSH2 0x1D22 JUMP JUMPDEST JUMPDEST POP JUMP JUMPDEST PUSH0 DUP2 SWAP1 POP PUSH2 0x2016 DUP3 PUSH2 0x1FF5 JUMP JUMPDEST SWAP2 SWAP1 POP JUMP JUMPDEST PUSH0 PUSH2 0x2025 DUP3 PUSH2 0x2009 JUMP JUMPDEST SWAP1 POP SWAP2 SWAP1 POP JUMP JUMPDEST PUSH2 0x2035 DUP2 PUSH2 0x201B JUMP JUMPDEST DUP3 MSTORE POP POP JUMP JUMPDEST PUSH0 PUSH1 0x60 DUP4 ADD PUSH0 DUP4 ADD MLOAD DUP5 DUP3 SUB PUSH0 DUP7 ADD MSTORE PUSH2 0x2055 DUP3 DUP3 PUSH2 0x1CD2 JUMP JUMPDEST SWAP2 POP POP PUSH1 0x20 DUP4 ADD MLOAD PUSH2 0x206A PUSH1 0x20 DUP7 ADD DUP3 PUSH2 0x1FE6 JUMP JUMPDEST POP PUSH1 0x40 DUP4 ADD MLOAD PUSH2 0x207D PUSH1 0x40 DUP7 ADD DUP3 PUSH2 0x202C JUMP JUMPDEST POP DUP1 SWAP2 POP POP SWAP3 SWAP2 POP POP JUMP JUMPDEST PUSH0 PUSH1 0x20 DUP3 ADD SWAP1 POP DUP2 DUP2 SUB PUSH0 DUP4 ADD MSTORE PUSH2 0x20A0 DUP2 DUP5 PUSH2 0x203B JUMP JUMPDEST SWAP1 POP SWAP3 SWAP2 POP POP JUMP JUMPDEST PUSH0 DUP2 SWAP1 POP SWAP3 SWAP2 POP POP JUMP JUMPDEST PUSH0 PUSH2 0x20BC DUP3 PUSH2 0x1C9A JUMP JUMPDEST PUSH2 0x20C6 DUP2 DUP6 PUSH2 0x20A8 JUMP JUMPDEST SWAP4 POP PUSH2 0x20D6 DUP2 DUP6 PUSH1 0x20 DUP7 ADD PUSH2 0x1CB4 JUMP JUMPDEST DUP1 DUP5 ADD SWAP2 POP POP SWAP3 SWAP2 POP POP JUMP JUMPDEST PUSH0 PUSH2 0x20ED DUP3 DUP5 PUSH2 0x20B2 JUMP JUMPDEST SWAP2 POP DUP2 SWAP1 POP SWAP3 SWAP2 POP POP JUMP JUMPDEST PUSH0 DUP3 DUP3 MSTORE PUSH1 0x20 DUP3 ADD SWAP1 POP SWAP3 SWAP2 POP POP JUMP JUMPDEST PUSH32 0x4361726420697320496E76616C69640000000000000000000000000000000000 PUSH0 DUP3 ADD MSTORE POP JUMP JUMPDEST PUSH0 PUSH2 0x213C PUSH1 0xF DUP4 PUSH2 0x20F8 JUMP JUMPDEST SWAP2 POP PUSH2 0x2147 DUP3 PUSH2 0x2108 JUMP JUMPDEST PUSH1 0x20 DUP3 ADD SWAP1 POP SWAP2 SWAP1 POP JUMP JUMPDEST PUSH0 PUSH1 0x20 DUP3 ADD SWAP1 POP DUP2 DUP2 SUB PUSH0 DUP4 ADD MSTORE PUSH2 0x2169 DUP2 PUSH2 0x2130 JUMP JUMPDEST SWAP1 POP SWAP2 SWAP1 POP JUMP JUMPDEST PUSH32 0x4E487B7100000000000000000000000000000000000000000000000000000000 PUSH0 MSTORE PUSH1 0x22 PUSH1 0x4 MSTORE PUSH1 0x24 PUSH0 REVERT JUMPDEST PUSH0 PUSH1 0x2 DUP3 DIV SWAP1 POP PUSH1 0x1 DUP3 AND DUP1 PUSH2 0x21B4 JUMPI PUSH1 0x7F DUP3 AND SWAP2 POP JUMPDEST PUSH1 0x20 DUP3 LT DUP2 SUB PUSH2 0x21C7 JUMPI PUSH2 0x21C6 PUSH2 0x2170 JUMP JUMPDEST JUMPDEST POP SWAP2 SWAP1 POP JUMP JUMPDEST PUSH32 0x5573657220646F6573206E6F7420657869737400000000000000000000000000 PUSH0 DUP3 ADD MSTORE POP JUMP JUMPDEST PUSH0 PUSH2 0x2201 PUSH1 0x13 DUP4 PUSH2 0x20F8 JUMP JUMPDEST SWAP2 POP PUSH2 0x220C DUP3 PUSH2 0x21CD JUMP JUMPDEST PUSH1 0x20 DUP3 ADD SWAP1 POP SWAP2 SWAP1 POP JUMP JUMPDEST PUSH0 PUSH1 0x20 DUP3 ADD SWAP1 POP DUP2 DUP2 SUB PUSH0 DUP4 ADD MSTORE PUSH2 0x222E DUP2 PUSH2 0x21F5 JUMP JUMPDEST SWAP1 POP SWAP2 SWAP1 POP JUMP JUMPDEST PUSH32 0x5265656E7472616E637947756172643A207265656E7472616E742063616C6C00 PUSH0 DUP3 ADD MSTORE POP JUMP JUMPDEST PUSH0 PUSH2 0x2269 PUSH1 0x1F DUP4 PUSH2 0x20F8 JUMP JUMPDEST SWAP2 POP PUSH2 0x2274 DUP3 PUSH2 0x2235 JUMP JUMPDEST PUSH1 0x20 DUP3 ADD SWAP1 POP SWAP2 SWAP1 POP JUMP JUMPDEST PUSH0 PUSH1 0x20 DUP3 ADD SWAP1 POP DUP2 DUP2 SUB PUSH0 DUP4 ADD MSTORE PUSH2 0x2296 DUP2 PUSH2 0x225D JUMP JUMPDEST SWAP1 POP SWAP2 SWAP1 POP JUMP JUMPDEST DUP3 DUP2 DUP4 CALLDATACOPY PUSH0 DUP4 DUP4 ADD MSTORE POP POP POP JUMP JUMPDEST PUSH0 PUSH2 0x22B6 DUP4 DUP6 PUSH2 0x20A8 JUMP JUMPDEST SWAP4 POP PUSH2 0x22C3 DUP4 DUP6 DUP5 PUSH2 0x229D JUMP JUMPDEST DUP3 DUP5 ADD SWAP1 POP SWAP4 SWAP3 POP POP POP JUMP JUMPDEST PUSH0 PUSH2 0x22DB DUP3 DUP5 DUP7 PUSH2 0x22AB JUMP JUMPDEST SWAP2 POP DUP2 SWAP1 POP SWAP4 SWAP3 POP POP POP JUMP JUMPDEST PUSH0 DUP2 SWAP1 POP SWAP3 SWAP2 POP POP JUMP JUMPDEST POP JUMP JUMPDEST PUSH0 PUSH2 0x22FF PUSH0 DUP4 PUSH2 0x22E7 JUMP JUMPDEST SWAP2 POP PUSH2 0x230A DUP3 PUSH2 0x22F1 JUMP JUMPDEST PUSH0 DUP3 ADD SWAP1 POP SWAP2 SWAP1 POP JUMP JUMPDEST PUSH0 PUSH2 0x231E DUP3 PUSH2 0x22F4 JUMP JUMPDEST SWAP2 POP DUP2 SWAP1 POP SWAP2 SWAP1 POP JUMP JUMPDEST PUSH0 DUP2 SLOAD SWAP1 POP PUSH2 0x2336 DUP2 PUSH2 0x219D JUMP JUMPDEST SWAP1 POP SWAP2 SWAP1 POP JUMP JUMPDEST PUSH32 0x4E487B7100000000000000000000000000000000000000000000000000000000 PUSH0 MSTORE PUSH1 0x41 PUSH1 0x4 MSTORE PUSH1 0x24 PUSH0 REVERT JUMPDEST PUSH0 DUP2 SWAP1 POP DUP2 PUSH0 MSTORE PUSH1 0x20 PUSH0 KECCAK256 SWAP1 POP SWAP2 SWAP1 POP JUMP JUMPDEST PUSH0 DUP2 SWAP1 POP DUP2 PUSH0 MSTORE PUSH1 0x20 PUSH0 KECCAK256 SWAP1 POP SWAP2 SWAP1 POP JUMP JUMPDEST PUSH0 PUSH1 0x20 PUSH1 0x1F DUP4 ADD DIV SWAP1 POP SWAP2 SWAP1 POP JUMP JUMPDEST PUSH0 DUP3 DUP3 SHL SWAP1 POP SWAP3 SWAP2 POP POP JUMP JUMPDEST PUSH0 PUSH1 0x8 DUP4 MUL PUSH2 0x23D8 PUSH32 0xFFFFFFFFFFFFFFFFFFFFFFFFFFFFFFFFFFFFFFFFFFFFFFFFFFFFFFFFFFFFFFFF DUP3 PUSH2 0x239D JUMP JUMPDEST PUSH2 0x23E2 DUP7 DUP4 PUSH2 0x239D JUMP JUMPDEST SWAP6 POP DUP1 NOT DUP5 AND SWAP4 POP DUP1 DUP7 AND DUP5 OR SWAP3 POP POP POP SWAP4 SWAP3 POP POP POP JUMP JUMPDEST PUSH0 DUP2 SWAP1 POP SWAP2 SWAP1 POP JUMP JUMPDEST PUSH0 PUSH2 0x241D PUSH2 0x2418 PUSH2 0x2413 DUP5 PUSH2 0x1D0A JUMP JUMPDEST PUSH2 0x23FA JUMP JUMPDEST PUSH2 0x1D0A JUMP JUMPDEST SWAP1 POP SWAP2 SWAP1 POP JUMP JUMPDEST PUSH0 DUP2 SWAP1 POP SWAP2 SWAP1 POP JUMP JUMPDEST PUSH2 0x2436 DUP4 PUSH2 0x2403 JUMP JUMPDEST PUSH2 0x244A PUSH2 0x2442 DUP3 PUSH2 0x2424 JUMP JUMPDEST DUP5 DUP5 SLOAD PUSH2 0x23A9 JUMP JUMPDEST DUP3 SSTORE POP POP POP POP JUMP JUMPDEST PUSH0 SWAP1 JUMP JUMPDEST PUSH2 0x245E PUSH2 0x2452 JUMP JUMPDEST PUSH2 0x2469 DUP2 DUP5 DUP5 PUSH2 0x242D JUMP JUMPDEST POP POP POP JUMP JUMPDEST JUMPDEST DUP2 DUP2 LT ISZERO PUSH2 0x248C JUMPI PUSH2 0x2481 PUSH0 DUP3 PUSH2 0x2456 JUMP JUMPDEST PUSH1 0x1 DUP2 ADD SWAP1 POP PUSH2 0x246F JUMP JUMPDEST POP POP JUMP JUMPDEST PUSH1 0x1F DUP3 GT ISZERO PUSH2 0x24D1 JUMPI PUSH2 0x24A2 DUP2 PUSH2 0x236A JUMP JUMPDEST PUSH2 0x24AB DUP5 PUSH2 0x238E JUMP JUMPDEST DUP2 ADD PUSH1 0x20 DUP6 LT ISZERO PUSH2 0x24BA JUMPI DUP2 SWAP1 POP JUMPDEST PUSH2 0x24CE PUSH2 0x24C6 DUP6 PUSH2 0x238E JUMP JUMPDEST DUP4 ADD DUP3 PUSH2 0x246E JUMP JUMPDEST POP POP JUMPDEST POP POP POP JUMP JUMPDEST PUSH0 DUP3 DUP3 SHR SWAP1 POP SWAP3 SWAP2 POP POP JUMP JUMPDEST PUSH0 PUSH2 0x24F1 PUSH0 NOT DUP5 PUSH1 0x8 MUL PUSH2 0x24D6 JUMP JUMPDEST NOT DUP1 DUP4 AND SWAP2 POP POP SWAP3 SWAP2 POP POP JUMP JUMPDEST PUSH0 PUSH2 0x2509 DUP4 DUP4 PUSH2 0x24E2 JUMP JUMPDEST SWAP2 POP DUP3 PUSH1 0x2 MUL DUP3 OR SWAP1 POP SWAP3 SWAP2 POP POP JUMP JUMPDEST DUP2 DUP2 SUB PUSH2 0x2527 JUMPI POP POP PUSH2 0x25FC JUMP JUMPDEST PUSH2 0x2530 DUP3 PUSH2 0x2328 JUMP JUMPDEST PUSH8 0xFFFFFFFFFFFFFFFF DUP2 GT ISZERO PUSH2 0x2549 JUMPI PUSH2 0x2548 PUSH2 0x233D JUMP JUMPDEST JUMPDEST PUSH2 0x2553 DUP3 SLOAD PUSH2 0x219D JUMP JUMPDEST PUSH2 0x255E DUP3 DUP3 DUP6 PUSH2 0x2490 JUMP JUMPDEST PUSH0 PUSH1 0x1F DUP4 GT PUSH1 0x1 DUP2 EQ PUSH2 0x258B JUMPI PUSH0 DUP5 ISZERO PUSH2 0x2579 JUMPI DUP3 DUP8 ADD SLOAD SWAP1 POP JUMPDEST PUSH2 0x2583 DUP6 DUP3 PUSH2 0x24FE JUMP JUMPDEST DUP7 SSTORE POP PUSH2 0x25F5 JUMP JUMPDEST PUSH1 0x1F NOT DUP5 AND PUSH2 0x2599 DUP8 PUSH2 0x237C JUMP JUMPDEST SWAP7 POP PUSH2 0x25A4 DUP7 PUSH2 0x236A JUMP JUMPDEST PUSH0 JUMPDEST DUP3 DUP2 LT ISZERO PUSH2 0x25CB JUMPI DUP5 DUP10 ADD SLOAD DUP3 SSTORE PUSH1 0x1 DUP3 ADD SWAP2 POP PUSH1 0x1 DUP6 ADD SWAP5 POP PUSH1 0x20 DUP2 ADD SWAP1 POP PUSH2 0x25A6 JUMP JUMPDEST DUP7 DUP4 LT ISZERO PUSH2 0x25E8 JUMPI DUP5 DUP10 ADD SLOAD PUSH2 0x25E4 PUSH1 0x1F DUP10 AND DUP3 PUSH2 0x24E2 JUMP JUMPDEST DUP4 SSTORE POP JUMPDEST PUSH1 0x1 PUSH1 0x2 DUP9 MUL ADD DUP9 SSTORE POP POP POP JUMPDEST POP POP POP POP POP POP JUMPDEST JUMP JUMPDEST PUSH2 0x2607 DUP2 PUSH2 0x1D0A JUMP JUMPDEST DUP3 MSTORE POP POP JUMP JUMPDEST PUSH0 PUSH1 0x20 DUP3 ADD SWAP1 POP PUSH2 0x2620 PUSH0 DUP4 ADD DUP5 PUSH2 0x25FE JUMP JUMPDEST SWAP3 SWAP2 POP POP JUMP JUMPDEST PUSH0 DUP2 SLOAD PUSH2 0x2632 DUP2 PUSH2 0x219D JUMP JUMPDEST PUSH2 0x263C DUP2 DUP7 PUSH2 0x20A8 JUMP JUMPDEST SWAP5 POP PUSH1 0x1 DUP3 AND PUSH0 DUP2 EQ PUSH2 0x2656 JUMPI PUSH1 0x1 DUP2 EQ PUSH2 0x266B JUMPI PUSH2 0x269D JUMP JUMPDEST PUSH1 0xFF NOT DUP4 AND DUP7 MSTORE DUP2 ISZERO ISZERO DUP3 MUL DUP7 ADD SWAP4 POP PUSH2 0x269D JUMP JUMPDEST PUSH2 0x2674 DUP6 PUSH2 0x236A JUMP JUMPDEST PUSH0 JUMPDEST DUP4 DUP2 LT ISZERO PUSH2 0x2695 JUMPI DUP2 SLOAD DUP2 DUP10 ADD MSTORE PUSH1 0x1 DUP3 ADD SWAP2 POP PUSH1 0x20 DUP2 ADD SWAP1 POP PUSH2 0x2676 JUMP JUMPDEST DUP4 DUP9 ADD SWAP6 POP POP POP JUMPDEST POP POP POP SWAP3 SWAP2 POP POP JUMP JUMPDEST PUSH0 PUSH2 0x26B1 DUP3 DUP5 PUSH2 0x2626 JUMP JUMPDEST SWAP2 POP DUP2 SWAP1 POP SWAP3 SWAP2 POP POP JUMP JUMPDEST PUSH32 0x4E487B7100000000000000000000000000000000000000000000000000000000 PUSH0 MSTORE PUSH1 0x32 PUSH1 0x4 MSTORE PUSH1 0x24 PUSH0 REVERT JUMPDEST PUSH32 0x4E487B7100000000000000000000000000000000000000000000000000000000 PUSH0 MSTORE PUSH1 0x11 PUSH1 0x4 MSTORE PUSH1 0x24 PUSH0 REVERT JUMPDEST PUSH0 PUSH2 0x2720 DUP3 PUSH2 0x1D0A JUMP JUMPDEST SWAP2 POP PUSH32 0xFFFFFFFFFFFFFFFFFFFFFFFFFFFFFFFFFFFFFFFFFFFFFFFFFFFFFFFFFFFFFFFF DUP3 SUB PUSH2 0x2752 JUMPI PUSH2 0x2751 PUSH2 0x26E9 JUMP JUMPDEST JUMPDEST PUSH1 0x1 DUP3 ADD SWAP1 POP SWAP2 SWAP1 POP JUMP JUMPDEST PUSH32 0x596F7520617265206E6F7420616E2061646D696E000000000000000000000000 PUSH0 DUP3 ADD MSTORE POP JUMP JUMPDEST PUSH0 PUSH2 0x2791 PUSH1 0x14 DUP4 PUSH2 0x20F8 JUMP JUMPDEST SWAP2 POP PUSH2 0x279C DUP3 PUSH2 0x275D JUMP JUMPDEST PUSH1 0x20 DUP3 ADD SWAP1 POP SWAP2 SWAP1 POP JUMP JUMPDEST PUSH0 PUSH1 0x20 DUP3 ADD SWAP1 POP DUP2 DUP2 SUB PUSH0 DUP4 ADD MSTORE PUSH2 0x27BE DUP2 PUSH2 0x2785 JUMP JUMPDEST SWAP1 POP SWAP2 SWAP1 POP JUMP JUMPDEST PUSH2 0x27CE DUP3 PUSH2 0x1C9A JUMP JUMPDEST PUSH8 0xFFFFFFFFFFFFFFFF DUP2 GT ISZERO PUSH2 0x27E7 JUMPI PUSH2 0x27E6 PUSH2 0x233D JUMP JUMPDEST JUMPDEST PUSH2 0x27F1 DUP3 SLOAD PUSH2 0x219D JUMP JUMPDEST PUSH2 0x27FC DUP3 DUP3 DUP6 PUSH2 0x2490 JUMP JUMPDEST PUSH0 PUSH1 0x20 SWAP1 POP PUSH1 0x1F DUP4 GT PUSH1 0x1 DUP2 EQ PUSH2 0x282D JUMPI PUSH0 DUP5 ISZERO PUSH2 0x281B JUMPI DUP3 DUP8 ADD MLOAD SWAP1 POP JUMPDEST PUSH2 0x2825 DUP6 DUP3 PUSH2 0x24FE JUMP JUMPDEST DUP7 SSTORE POP PUSH2 0x288C JUMP JUMPDEST PUSH1 0x1F NOT DUP5 AND PUSH2 0x283B DUP7 PUSH2 0x236A JUMP JUMPDEST PUSH0 JUMPDEST DUP3 DUP2 LT ISZERO PUSH2 0x2862 JUMPI DUP5 DUP10 ADD MLOAD DUP3 SSTORE PUSH1 0x1 DUP3 ADD SWAP2 POP PUSH1 0x20 DUP6 ADD SWAP5 POP PUSH1 0x20 DUP2 ADD SWAP1 POP PUSH2 0x283D JUMP JUMPDEST DUP7 DUP4 LT ISZERO PUSH2 0x287F JUMPI DUP5 DUP10 ADD MLOAD PUSH2 0x287B PUSH1 0x1F DUP10 AND DUP3 PUSH2 0x24E2 JUMP JUMPDEST DUP4 SSTORE POP JUMPDEST PUSH1 0x1 PUSH1 0x2 DUP9 MUL ADD DUP9 SSTORE POP POP POP JUMPDEST POP POP POP POP POP POP JUMP JUMPDEST PUSH0 PUSH2 0x289E DUP3 PUSH2 0x1D0A JUMP JUMPDEST SWAP2 POP PUSH2 0x28A9 DUP4 PUSH2 0x1D0A JUMP JUMPDEST SWAP3 POP DUP3 DUP3 MUL PUSH2 0x28B7 DUP2 PUSH2 0x1D0A JUMP JUMPDEST SWAP2 POP DUP3 DUP3 DIV DUP5 EQ DUP4 ISZERO OR PUSH2 0x28CE JUMPI PUSH2 0x28CD PUSH2 0x26E9 JUMP JUMPDEST JUMPDEST POP SWAP3 SWAP2 POP POP JUMP JUMPDEST PUSH32 0x4E487B7100000000000000000000000000000000000000000000000000000000 PUSH0 MSTORE PUSH1 0x12 PUSH1 0x4 MSTORE PUSH1 0x24 PUSH0 REVERT JUMPDEST PUSH0 PUSH2 0x290C DUP3 PUSH2 0x1D0A JUMP JUMPDEST SWAP2 POP PUSH2 0x2917 DUP4 PUSH2 0x1D0A JUMP JUMPDEST SWAP3 POP DUP3 PUSH2 0x2927 JUMPI PUSH2 0x2926 PUSH2 0x28D5 JUMP JUMPDEST JUMPDEST DUP3 DUP3 DIV SWAP1 POP SWAP3 SWAP2 POP POP JUMP JUMPDEST PUSH0 PUSH2 0x293C DUP3 PUSH2 0x1C9A JUMP JUMPDEST PUSH2 0x2946 DUP2 DUP6 PUSH2 0x20F8 JUMP JUMPDEST SWAP4 POP PUSH2 0x2956 DUP2 DUP6 PUSH1 0x20 DUP7 ADD PUSH2 0x1CB4 JUMP JUMPDEST PUSH2 0x295F DUP2 PUSH2 0x1CC2 JUMP JUMPDEST DUP5 ADD SWAP2 POP POP SWAP3 SWAP2 POP POP JUMP JUMPDEST PUSH0 PUSH1 0x40 DUP3 ADD SWAP1 POP DUP2 DUP2 SUB PUSH0 DUP4 ADD MSTORE PUSH2 0x2982 DUP2 DUP6 PUSH2 0x2932 JUMP JUMPDEST SWAP1 POP PUSH2 0x2991 PUSH1 0x20 DUP4 ADD DUP5 PUSH2 0x25FE JUMP JUMPDEST SWAP4 SWAP3 POP POP POP JUMP JUMPDEST PUSH0 PUSH2 0x29A2 DUP3 PUSH2 0x1D0A JUMP JUMPDEST SWAP2 POP PUSH2 0x29AD DUP4 PUSH2 0x1D0A JUMP JUMPDEST SWAP3 POP DUP3 PUSH2 0x29BD JUMPI PUSH2 0x29BC PUSH2 0x28D5 JUMP JUMPDEST JUMPDEST DUP3 DUP3 MOD SWAP1 POP SWAP3 SWAP2 POP POP JUMP JUMPDEST PUSH0 PUSH2 0x29D2 DUP3 PUSH2 0x1D0A JUMP JUMPDEST SWAP2 POP PUSH2 0x29DD DUP4 PUSH2 0x1D0A JUMP JUMPDEST SWAP3 POP DUP3 DUP3 ADD SWAP1 POP DUP1 DUP3 GT ISZERO PUSH2 0x29F5 JUMPI PUSH2 0x29F4 PUSH2 0x26E9 JUMP JUMPDEST JUMPDEST SWAP3 SWAP2 POP POP JUMP JUMPDEST PUSH32 0x436F6465206973204E6F7420556E697175650000000000000000000000000000 PUSH0 DUP3 ADD MSTORE POP JUMP JUMPDEST PUSH0 PUSH2 0x2A2F PUSH1 0x12 DUP4 PUSH2 0x20F8 JUMP JUMPDEST SWAP2 POP PUSH2 0x2A3A DUP3 PUSH2 0x29FB JUMP JUMPDEST PUSH1 0x20 DUP3 ADD SWAP1 POP SWAP2 SWAP1 POP JUMP JUMPDEST PUSH0 PUSH1 0x20 DUP3 ADD SWAP1 POP DUP2 DUP2 SUB PUSH0 DUP4 ADD MSTORE PUSH2 0x2A5C DUP2 PUSH2 0x2A23 JUMP JUMPDEST SWAP1 POP SWAP2 SWAP1 POP JUMP JUMPDEST PUSH0 DUP2 SWAP1 POP SWAP2 SWAP1 POP JUMP JUMPDEST PUSH2 0x2A7D PUSH2 0x2A78 DUP3 PUSH2 0x1D0A JUMP JUMPDEST PUSH2 0x2A63 JUMP JUMPDEST DUP3 MSTORE POP POP JUMP JUMPDEST PUSH0 PUSH2 0x2A8E DUP3 DUP7 PUSH2 0x2A6C JUMP JUMPDEST PUSH1 0x20 DUP3 ADD SWAP2 POP PUSH2 0x2A9E DUP3 DUP6 PUSH2 0x2A6C JUMP JUMPDEST PUSH1 0x20 DUP3 ADD SWAP2 POP PUSH2 0x2AAE DUP3 DUP5 PUSH2 0x2A6C JUMP JUMPDEST PUSH1 0x20 DUP3 ADD SWAP2 POP DUP2 SWAP1 POP SWAP5 SWAP4 POP POP POP POP JUMP INVALID LOG2 PUSH5 0x6970667358 0x22 SLT KECCAK256 0xD9 GASPRICE XOR 0x2B 0xBC GASLIMIT 0xE9 0xE2 CALLDATACOPY SHR MOD 0x4D 0xC8 SWAP6 0xA8 0x1E REVERT 0xAF 0xF9 0x4C 0xD9 0xE5 0x27 CALL LOG3 SLOAD SWAP15 SWAP3 0xE2 0xD 0xE6 0xC2 PUSH5 0x736F6C6343 STOP ADDMOD BYTE STOP CALLER "
				},
				"gasEstimates": {
					"creation": {
						"codeDepositCost": "2199400",
						"executionCost": "infinite",
						"totalCost": "infinite"
					},
					"external": {
						"": "173",
						"buyGiftCard()": "infinite",
						"getAllGiftCards()": "infinite",
						"getGiftCardByStatus(uint8)": "infinite",
						"getMyCard()": "infinite",
						"getMyData()": "infinite",
						"isAdmin()": "5066",
						"redeemCard(string)": "infinite",
						"registration(string,uint8)": "infinite"
					},
					"internal": {
						"addCard(string memory,uint256)": "infinite",
						"generateGiftCardCode()": "infinite",
						"getRandomNumber(uint256)": "infinite"
					}
				},
				"methodIdentifiers": {
					"buyGiftCard()": "a34f011c",
					"getAllGiftCards()": "a927db0d",
					"getGiftCardByStatus(uint8)": "4cf57138",
					"getMyCard()": "2b4a9dda",
					"getMyData()": "d9c8a38b",
					"isAdmin()": "b6db75a0",
					"redeemCard(string)": "27e26c8c",
					"registration(string,uint8)": "8f0e582f"
				}
			},
			"storageLayout": {
				"storage": [
					{
						"astId": 34,
						"contract": "contracts/GiftCardETH.sol:GiftCardETH",
						"label": "users",
						"offset": 0,
						"slot": "0",
						"type": "t_mapping(t_address,t_struct(User)19_storage)"
					},
					{
						"astId": 39,
						"contract": "contracts/GiftCardETH.sol:GiftCardETH",
						"label": "giftCards",
						"offset": 0,
						"slot": "1",
						"type": "t_mapping(t_string_memory_ptr,t_struct(GiftCard)29_storage)"
					},
					{
						"astId": 41,
						"contract": "contracts/GiftCardETH.sol:GiftCardETH",
						"label": "locked",
						"offset": 0,
						"slot": "2",
						"type": "t_bool"
					},
					{
						"astId": 44,
						"contract": "contracts/GiftCardETH.sol:GiftCardETH",
						"label": "giftCardCodes",
						"offset": 0,
						"slot": "3",
						"type": "t_array(t_string_storage)dyn_storage"
					},
					{
						"astId": 47,
						"contract": "contracts/GiftCardETH.sol:GiftCardETH",
						"label": "userAddresses",
						"offset": 0,
						"slot": "4",
						"type": "t_array(t_address)dyn_storage"
					}
				],
				"types": {
					"t_address": {
						"encoding": "inplace",
						"label": "address",
						"numberOfBytes": "20"
					},
					"t_array(t_address)dyn_storage": {
						"base": "t_address",
						"encoding": "dynamic_array",
						"label": "address[]",
						"numberOfBytes": "32"
					},
					"t_array(t_string_storage)dyn_storage": {
						"base": "t_string_storage",
						"encoding": "dynamic_array",
						"label": "string[]",
						"numberOfBytes": "32"
					},
					"t_bool": {
						"encoding": "inplace",
						"label": "bool",
						"numberOfBytes": "1"
					},
					"t_enum(Gender)10": {
						"encoding": "inplace",
						"label": "enum Gender",
						"numberOfBytes": "1"
					},
					"t_enum(GiftCardStatus)7": {
						"encoding": "inplace",
						"label": "enum GiftCardStatus",
						"numberOfBytes": "1"
					},
					"t_enum(UserType)4": {
						"encoding": "inplace",
						"label": "enum UserType",
						"numberOfBytes": "1"
					},
					"t_mapping(t_address,t_struct(User)19_storage)": {
						"encoding": "mapping",
						"key": "t_address",
						"label": "mapping(address => struct User)",
						"numberOfBytes": "32",
						"value": "t_struct(User)19_storage"
					},
					"t_mapping(t_string_memory_ptr,t_struct(GiftCard)29_storage)": {
						"encoding": "mapping",
						"key": "t_string_memory_ptr",
						"label": "mapping(string => struct GiftCard)",
						"numberOfBytes": "32",
						"value": "t_struct(GiftCard)29_storage"
					},
					"t_string_memory_ptr": {
						"encoding": "bytes",
						"label": "string",
						"numberOfBytes": "32"
					},
					"t_string_storage": {
						"encoding": "bytes",
						"label": "string",
						"numberOfBytes": "32"
					},
					"t_struct(GiftCard)29_storage": {
						"encoding": "inplace",
						"label": "struct GiftCard",
						"members": [
							{
								"astId": 21,
								"contract": "contracts/GiftCardETH.sol:GiftCardETH",
								"label": "buyer",
								"offset": 0,
								"slot": "0",
								"type": "t_string_storage"
							},
							{
								"astId": 23,
								"contract": "contracts/GiftCardETH.sol:GiftCardETH",
								"label": "amount",
								"offset": 0,
								"slot": "1",
								"type": "t_uint256"
							},
							{
								"astId": 26,
								"contract": "contracts/GiftCardETH.sol:GiftCardETH",
								"label": "giftCardStatus",
								"offset": 0,
								"slot": "2",
								"type": "t_enum(GiftCardStatus)7"
							},
							{
								"astId": 28,
								"contract": "contracts/GiftCardETH.sol:GiftCardETH",
								"label": "getter",
								"offset": 0,
								"slot": "3",
								"type": "t_string_storage"
							}
						],
						"numberOfBytes": "128"
					},
					"t_struct(User)19_storage": {
						"encoding": "inplace",
						"label": "struct User",
						"members": [
							{
								"astId": 12,
								"contract": "contracts/GiftCardETH.sol:GiftCardETH",
								"label": "name",
								"offset": 0,
								"slot": "0",
								"type": "t_string_storage"
							},
							{
								"astId": 15,
								"contract": "contracts/GiftCardETH.sol:GiftCardETH",
								"label": "gender",
								"offset": 0,
								"slot": "1",
								"type": "t_enum(Gender)10"
							},
							{
								"astId": 18,
								"contract": "contracts/GiftCardETH.sol:GiftCardETH",
								"label": "userType",
								"offset": 1,
								"slot": "1",
								"type": "t_enum(UserType)4"
							}
						],
						"numberOfBytes": "64"
					},
					"t_uint256": {
						"encoding": "inplace",
						"label": "uint256",
						"numberOfBytes": "32"
					}
				}
			},
			"userdoc": {
				"kind": "user",
				"methods": {},
				"version": 1
			}
		}
	}
}