{
	"contracts/GiftCardETH.sol": {
		"GiftCardETH": {
			"abi": [
				{
					"inputs": [],
					"stateMutability": "nonpayable",
					"type": "constructor"
				},
				{
					"anonymous": false,
					"inputs": [
						{
							"indexed": false,
							"internalType": "string",
							"name": "code",
							"type": "string"
						},
						{
							"indexed": false,
							"internalType": "uint256",
							"name": "amount",
							"type": "uint256"
						}
					],
					"name": "CardBought",
					"type": "event"
				},
				{
					"anonymous": false,
					"inputs": [
						{
							"indexed": false,
							"internalType": "uint256",
							"name": "amount",
							"type": "uint256"
						}
					],
					"name": "CardRedeemed",
					"type": "event"
				},
				{
					"stateMutability": "payable",
					"type": "fallback"
				},
				{
					"inputs": [],
					"name": "buyGiftCard",
					"outputs": [],
					"stateMutability": "payable",
					"type": "function"
				},
				{
					"inputs": [],
					"name": "getAllGiftCards",
					"outputs": [
						{
							"components": [
								{
									"internalType": "string",
									"name": "buyer",
									"type": "string"
								},
								{
									"internalType": "uint256",
									"name": "amount",
									"type": "uint256"
								},
								{
									"internalType": "enum GiftCardStatus",
									"name": "giftCardStatus",
									"type": "uint8"
								},
								{
									"internalType": "string",
									"name": "getter",
									"type": "string"
								}
							],
							"internalType": "struct GiftCard[]",
							"name": "giftcards",
							"type": "tuple[]"
						}
					],
					"stateMutability": "view",
					"type": "function"
				},
				{
					"inputs": [
						{
							"internalType": "enum GiftCardStatus",
							"name": "status",
							"type": "uint8"
						}
					],
					"name": "getGiftCardByStatus",
					"outputs": [
						{
							"components": [
								{
									"internalType": "string",
									"name": "buyer",
									"type": "string"
								},
								{
									"internalType": "uint256",
									"name": "amount",
									"type": "uint256"
								},
								{
									"internalType": "enum GiftCardStatus",
									"name": "giftCardStatus",
									"type": "uint8"
								},
								{
									"internalType": "string",
									"name": "getter",
									"type": "string"
								}
							],
							"internalType": "struct GiftCard[]",
							"name": "giftcards",
							"type": "tuple[]"
						}
					],
					"stateMutability": "view",
					"type": "function"
				},
				{
					"inputs": [],
					"name": "getMyCard",
					"outputs": [
						{
							"components": [
								{
									"internalType": "string",
									"name": "buyer",
									"type": "string"
								},
								{
									"internalType": "uint256",
									"name": "amount",
									"type": "uint256"
								},
								{
									"internalType": "enum GiftCardStatus",
									"name": "giftCardStatus",
									"type": "uint8"
								},
								{
									"internalType": "string",
									"name": "getter",
									"type": "string"
								}
							],
							"internalType": "struct GiftCard[]",
							"name": "",
							"type": "tuple[]"
						}
					],
					"stateMutability": "view",
					"type": "function"
				},
				{
					"inputs": [],
					"name": "getMyData",
					"outputs": [
						{
							"components": [
								{
									"internalType": "string",
									"name": "name",
									"type": "string"
								},
								{
									"internalType": "enum Gender",
									"name": "gender",
									"type": "uint8"
								},
								{
									"internalType": "enum UserType",
									"name": "userType",
									"type": "uint8"
								}
							],
							"internalType": "struct User",
							"name": "",
							"type": "tuple"
						}
					],
					"stateMutability": "view",
					"type": "function"
				},
				{
					"inputs": [],
					"name": "isAdmin",
					"outputs": [
						{
							"internalType": "bool",
							"name": "",
							"type": "bool"
						}
					],
					"stateMutability": "view",
					"type": "function"
				},
				{
					"inputs": [],
					"name": "isRegistered",
					"outputs": [
						{
							"internalType": "bool",
							"name": "",
							"type": "bool"
						}
					],
					"stateMutability": "view",
					"type": "function"
				},
				{
					"inputs": [
						{
							"internalType": "string",
							"name": "_code",
							"type": "string"
						}
					],
					"name": "redeemCard",
					"outputs": [],
					"stateMutability": "nonpayable",
					"type": "function"
				},
				{
					"inputs": [
						{
							"internalType": "string",
							"name": "name",
							"type": "string"
						},
						{
							"internalType": "enum Gender",
							"name": "gender",
							"type": "uint8"
						}
					],
					"name": "registration",
					"outputs": [],
					"stateMutability": "nonpayable",
					"type": "function"
				},
				{
					"stateMutability": "payable",
					"type": "receive"
				}
			],
			"devdoc": {
				"kind": "dev",
				"methods": {},
				"version": 1
			},
			"evm": {
				"assembly": "    /* \"contracts/GiftCardETH.sol\":368:7087  contract GiftCardETH {... */\n  mstore(0x40, 0x80)\n    /* \"contracts/GiftCardETH.sol\":557:1038  constructor() {... */\n  callvalue\n  dup1\n  iszero\n  tag_1\n  jumpi\n  0x00\n  dup1\n  revert\ntag_1:\n  pop\n    /* \"contracts/GiftCardETH.sol\":633:731  User(... */\n  mload(0x40)\n  dup1\n  0x60\n  add\n  0x40\n  mstore\n  dup1\n  mload(0x40)\n  dup1\n  0x40\n  add\n  0x40\n  mstore\n  dup1\n  0x0f\n  dup2\n  mstore\n  0x20\n  add\n  0x4962726168696d204d6f68616d65640000000000000000000000000000000000\n  dup2\n  mstore\n  pop\n  dup2\n  mstore\n  0x20\n  add\n    /* \"contracts/GiftCardETH.sol\":682:693  Gender.MALE */\n  0x01\n    /* \"contracts/GiftCardETH.sol\":633:731  User(... */\n  dup1\n  dup2\n  gt\n  iszero\n  tag_4\n  jumpi\n  tag_5\n  tag_6\n  jump\t// in\ntag_5:\ntag_4:\n  dup2\n  mstore\n  0x20\n  add\n    /* \"contracts/GiftCardETH.sol\":707:721  UserType.ADMIN */\n  0x01\n    /* \"contracts/GiftCardETH.sol\":633:731  User(... */\n  dup1\n  dup2\n  gt\n  iszero\n  tag_7\n  jumpi\n  tag_8\n  tag_6\n  jump\t// in\ntag_8:\ntag_7:\n  dup2\n  mstore\n  pop\n    /* \"contracts/GiftCardETH.sol\":581:586  users */\n  0x00\n    /* \"contracts/GiftCardETH.sol\":581:630  users[0x8dC03105bA1A429fc962EbE37766B8601D70e0D6] */\n  dup1\n    /* \"contracts/GiftCardETH.sol\":587:629  0x8dC03105bA1A429fc962EbE37766B8601D70e0D6 */\n  0x8dc03105ba1a429fc962ebe37766b8601d70e0d6\n    /* \"contracts/GiftCardETH.sol\":581:630  users[0x8dC03105bA1A429fc962EbE37766B8601D70e0D6] */\n  0xffffffffffffffffffffffffffffffffffffffff\n  and\n  0xffffffffffffffffffffffffffffffffffffffff\n  and\n  dup2\n  mstore\n  0x20\n  add\n  swap1\n  dup2\n  mstore\n  0x20\n  add\n  0x00\n  keccak256\n    /* \"contracts/GiftCardETH.sol\":581:731  users[0x8dC03105bA1A429fc962EbE37766B8601D70e0D6] = User(... */\n  0x00\n  dup3\n  add\n  mload\n  dup2\n  0x00\n  add\n  swap1\n  dup2\n  tag_9\n  swap2\n  swap1\n  tag_10\n  jump\t// in\ntag_9:\n  pop\n  0x20\n  dup3\n  add\n  mload\n  dup2\n  0x01\n  add\n  exp(0x0100, 0x00)\n  dup2\n  sload\n  dup2\n  0xff\n  mul\n  not\n  and\n  swap1\n  dup4\n  0x01\n  dup2\n  gt\n  iszero\n  tag_11\n  jumpi\n  tag_12\n  tag_6\n  jump\t// in\ntag_12:\ntag_11:\n  mul\n  or\n  swap1\n  sstore\n  pop\n  0x40\n  dup3\n  add\n  mload\n  dup2\n  0x01\n  add\n  exp(0x0100, 0x01)\n  dup2\n  sload\n  dup2\n  0xff\n  mul\n  not\n  and\n  swap1\n  dup4\n  0x01\n  dup2\n  gt\n  iszero\n  tag_13\n  jumpi\n  tag_14\n  tag_6\n  jump\t// in\ntag_14:\ntag_13:\n  mul\n  or\n  swap1\n  sstore\n  pop\n  swap1\n  pop\n  pop\n    /* \"contracts/GiftCardETH.sol\":741:754  userAddresses */\n  0x04\n    /* \"contracts/GiftCardETH.sol\":760:802  0x8dC03105bA1A429fc962EbE37766B8601D70e0D6 */\n  0x8dc03105ba1a429fc962ebe37766b8601d70e0d6\n    /* \"contracts/GiftCardETH.sol\":741:803  userAddresses.push(0x8dC03105bA1A429fc962EbE37766B8601D70e0D6) */\n  swap1\n  dup1\n  0x01\n  dup2\n  sload\n  add\n  dup1\n  dup3\n  sstore\n  dup1\n  swap2\n  pop\n  pop\n  0x01\n  swap1\n  sub\n  swap1\n  0x00\n  mstore\n  keccak256(0x00, 0x20)\n  add\n  0x00\n  swap1\n  swap2\n  swap1\n  swap2\n  swap1\n  swap2\n  0x0100\n  exp\n  dup2\n  sload\n  dup2\n  0xffffffffffffffffffffffffffffffffffffffff\n  mul\n  not\n  and\n  swap1\n  dup4\n  0xffffffffffffffffffffffffffffffffffffffff\n  and\n  mul\n  or\n  swap1\n  sstore\n  pop\n    /* \"contracts/GiftCardETH.sol\":865:959  User(... */\n  mload(0x40)\n  dup1\n  0x60\n  add\n  0x40\n  mstore\n  dup1\n  mload(0x40)\n  dup1\n  0x40\n  add\n  0x40\n  mstore\n  dup1\n  0x0b\n  dup2\n  mstore\n  0x20\n  add\n  0x4f62616461205361667761000000000000000000000000000000000000000000\n  dup2\n  mstore\n  pop\n  dup2\n  mstore\n  0x20\n  add\n    /* \"contracts/GiftCardETH.sol\":910:921  Gender.MALE */\n  0x01\n    /* \"contracts/GiftCardETH.sol\":865:959  User(... */\n  dup1\n  dup2\n  gt\n  iszero\n  tag_16\n  jumpi\n  tag_17\n  tag_6\n  jump\t// in\ntag_17:\ntag_16:\n  dup2\n  mstore\n  0x20\n  add\n    /* \"contracts/GiftCardETH.sol\":935:949  UserType.ADMIN */\n  0x01\n    /* \"contracts/GiftCardETH.sol\":865:959  User(... */\n  dup1\n  dup2\n  gt\n  iszero\n  tag_18\n  jumpi\n  tag_19\n  tag_6\n  jump\t// in\ntag_19:\ntag_18:\n  dup2\n  mstore\n  pop\n    /* \"contracts/GiftCardETH.sol\":813:818  users */\n  0x00\n    /* \"contracts/GiftCardETH.sol\":813:862  users[0xAd009219D5052664e665c2A95f12e4aBeA6730C0] */\n  dup1\n    /* \"contracts/GiftCardETH.sol\":819:861  0xAd009219D5052664e665c2A95f12e4aBeA6730C0 */\n  0xad009219d5052664e665c2a95f12e4abea6730c0\n    /* \"contracts/GiftCardETH.sol\":813:862  users[0xAd009219D5052664e665c2A95f12e4aBeA6730C0] */\n  0xffffffffffffffffffffffffffffffffffffffff\n  and\n  0xffffffffffffffffffffffffffffffffffffffff\n  and\n  dup2\n  mstore\n  0x20\n  add\n  swap1\n  dup2\n  mstore\n  0x20\n  add\n  0x00\n  keccak256\n    /* \"contracts/GiftCardETH.sol\":813:959  users[0xAd009219D5052664e665c2A95f12e4aBeA6730C0] = User(... */\n  0x00\n  dup3\n  add\n  mload\n  dup2\n  0x00\n  add\n  swap1\n  dup2\n  tag_20\n  swap2\n  swap1\n  tag_10\n  jump\t// in\ntag_20:\n  pop\n  0x20\n  dup3\n  add\n  mload\n  dup2\n  0x01\n  add\n  exp(0x0100, 0x00)\n  dup2\n  sload\n  dup2\n  0xff\n  mul\n  not\n  and\n  swap1\n  dup4\n  0x01\n  dup2\n  gt\n  iszero\n  tag_21\n  jumpi\n  tag_22\n  tag_6\n  jump\t// in\ntag_22:\ntag_21:\n  mul\n  or\n  swap1\n  sstore\n  pop\n  0x40\n  dup3\n  add\n  mload\n  dup2\n  0x01\n  add\n  exp(0x0100, 0x01)\n  dup2\n  sload\n  dup2\n  0xff\n  mul\n  not\n  and\n  swap1\n  dup4\n  0x01\n  dup2\n  gt\n  iszero\n  tag_23\n  jumpi\n  tag_24\n  tag_6\n  jump\t// in\ntag_24:\ntag_23:\n  mul\n  or\n  swap1\n  sstore\n  pop\n  swap1\n  pop\n  pop\n    /* \"contracts/GiftCardETH.sol\":969:982  userAddresses */\n  0x04\n    /* \"contracts/GiftCardETH.sol\":988:1030  0xAd009219D5052664e665c2A95f12e4aBeA6730C0 */\n  0xad009219d5052664e665c2a95f12e4abea6730c0\n    /* \"contracts/GiftCardETH.sol\":969:1031  userAddresses.push(0xAd009219D5052664e665c2A95f12e4aBeA6730C0) */\n  swap1\n  dup1\n  0x01\n  dup2\n  sload\n  add\n  dup1\n  dup3\n  sstore\n  dup1\n  swap2\n  pop\n  pop\n  0x01\n  swap1\n  sub\n  swap1\n  0x00\n  mstore\n  keccak256(0x00, 0x20)\n  add\n  0x00\n  swap1\n  swap2\n  swap1\n  swap2\n  swap1\n  swap2\n  0x0100\n  exp\n  dup2\n  sload\n  dup2\n  0xffffffffffffffffffffffffffffffffffffffff\n  mul\n  not\n  and\n  swap1\n  dup4\n  0xffffffffffffffffffffffffffffffffffffffff\n  and\n  mul\n  or\n  swap1\n  sstore\n  pop\n    /* \"contracts/GiftCardETH.sol\":368:7087  contract GiftCardETH {... */\n  jump(tag_26)\n    /* \"#utility.yul\":7:187   */\ntag_6:\n    /* \"#utility.yul\":55:132   */\n  0x4e487b7100000000000000000000000000000000000000000000000000000000\n    /* \"#utility.yul\":52:53   */\n  0x00\n    /* \"#utility.yul\":45:133   */\n  mstore\n    /* \"#utility.yul\":152:156   */\n  0x21\n    /* \"#utility.yul\":149:150   */\n  0x04\n    /* \"#utility.yul\":142:157   */\n  mstore\n    /* \"#utility.yul\":176:180   */\n  0x24\n    /* \"#utility.yul\":173:174   */\n  0x00\n    /* \"#utility.yul\":166:181   */\n  revert\n    /* \"#utility.yul\":193:292   */\ntag_27:\n    /* \"#utility.yul\":245:251   */\n  0x00\n    /* \"#utility.yul\":279:284   */\n  dup2\n    /* \"#utility.yul\":273:285   */\n  mload\n    /* \"#utility.yul\":263:285   */\n  swap1\n  pop\n    /* \"#utility.yul\":193:292   */\n  swap2\n  swap1\n  pop\n  jump\t// out\n    /* \"#utility.yul\":298:478   */\ntag_28:\n    /* \"#utility.yul\":346:423   */\n  0x4e487b7100000000000000000000000000000000000000000000000000000000\n    /* \"#utility.yul\":343:344   */\n  0x00\n    /* \"#utility.yul\":336:424   */\n  mstore\n    /* \"#utility.yul\":443:447   */\n  0x41\n    /* \"#utility.yul\":440:441   */\n  0x04\n    /* \"#utility.yul\":433:448   */\n  mstore\n    /* \"#utility.yul\":467:471   */\n  0x24\n    /* \"#utility.yul\":464:465   */\n  0x00\n    /* \"#utility.yul\":457:472   */\n  revert\n    /* \"#utility.yul\":484:664   */\ntag_29:\n    /* \"#utility.yul\":532:609   */\n  0x4e487b7100000000000000000000000000000000000000000000000000000000\n    /* \"#utility.yul\":529:530   */\n  0x00\n    /* \"#utility.yul\":522:610   */\n  mstore\n    /* \"#utility.yul\":629:633   */\n  0x22\n    /* \"#utility.yul\":626:627   */\n  0x04\n    /* \"#utility.yul\":619:634   */\n  mstore\n    /* \"#utility.yul\":653:657   */\n  0x24\n    /* \"#utility.yul\":650:651   */\n  0x00\n    /* \"#utility.yul\":643:658   */\n  revert\n    /* \"#utility.yul\":670:990   */\ntag_30:\n    /* \"#utility.yul\":714:720   */\n  0x00\n    /* \"#utility.yul\":751:752   */\n  0x02\n    /* \"#utility.yul\":745:749   */\n  dup3\n    /* \"#utility.yul\":741:753   */\n  div\n    /* \"#utility.yul\":731:753   */\n  swap1\n  pop\n    /* \"#utility.yul\":798:799   */\n  0x01\n    /* \"#utility.yul\":792:796   */\n  dup3\n    /* \"#utility.yul\":788:800   */\n  and\n    /* \"#utility.yul\":819:837   */\n  dup1\n    /* \"#utility.yul\":809:890   */\n  tag_53\n  jumpi\n    /* \"#utility.yul\":875:879   */\n  0x7f\n    /* \"#utility.yul\":867:873   */\n  dup3\n    /* \"#utility.yul\":863:880   */\n  and\n    /* \"#utility.yul\":853:880   */\n  swap2\n  pop\n    /* \"#utility.yul\":809:890   */\ntag_53:\n    /* \"#utility.yul\":937:939   */\n  0x20\n    /* \"#utility.yul\":929:935   */\n  dup3\n    /* \"#utility.yul\":926:940   */\n  lt\n    /* \"#utility.yul\":906:924   */\n  dup2\n    /* \"#utility.yul\":903:941   */\n  sub\n    /* \"#utility.yul\":900:984   */\n  tag_54\n  jumpi\n    /* \"#utility.yul\":956:974   */\n  tag_55\n  tag_29\n  jump\t// in\ntag_55:\n    /* \"#utility.yul\":900:984   */\ntag_54:\n    /* \"#utility.yul\":721:990   */\n  pop\n    /* \"#utility.yul\":670:990   */\n  swap2\n  swap1\n  pop\n  jump\t// out\n    /* \"#utility.yul\":996:1137   */\ntag_31:\n    /* \"#utility.yul\":1045:1049   */\n  0x00\n    /* \"#utility.yul\":1068:1071   */\n  dup2\n    /* \"#utility.yul\":1060:1071   */\n  swap1\n  pop\n    /* \"#utility.yul\":1091:1094   */\n  dup2\n    /* \"#utility.yul\":1088:1089   */\n  0x00\n    /* \"#utility.yul\":1081:1095   */\n  mstore\n    /* \"#utility.yul\":1125:1129   */\n  0x20\n    /* \"#utility.yul\":1122:1123   */\n  0x00\n    /* \"#utility.yul\":1112:1130   */\n  keccak256\n    /* \"#utility.yul\":1104:1130   */\n  swap1\n  pop\n    /* \"#utility.yul\":996:1137   */\n  swap2\n  swap1\n  pop\n  jump\t// out\n    /* \"#utility.yul\":1143:1236   */\ntag_32:\n    /* \"#utility.yul\":1180:1186   */\n  0x00\n    /* \"#utility.yul\":1227:1229   */\n  0x20\n    /* \"#utility.yul\":1222:1224   */\n  0x1f\n    /* \"#utility.yul\":1215:1220   */\n  dup4\n    /* \"#utility.yul\":1211:1225   */\n  add\n    /* \"#utility.yul\":1207:1230   */\n  div\n    /* \"#utility.yul\":1197:1230   */\n  swap1\n  pop\n    /* \"#utility.yul\":1143:1236   */\n  swap2\n  swap1\n  pop\n  jump\t// out\n    /* \"#utility.yul\":1242:1349   */\ntag_33:\n    /* \"#utility.yul\":1286:1294   */\n  0x00\n    /* \"#utility.yul\":1336:1341   */\n  dup3\n    /* \"#utility.yul\":1330:1334   */\n  dup3\n    /* \"#utility.yul\":1326:1342   */\n  shl\n    /* \"#utility.yul\":1305:1342   */\n  swap1\n  pop\n    /* \"#utility.yul\":1242:1349   */\n  swap3\n  swap2\n  pop\n  pop\n  jump\t// out\n    /* \"#utility.yul\":1355:1748   */\ntag_34:\n    /* \"#utility.yul\":1424:1430   */\n  0x00\n    /* \"#utility.yul\":1474:1475   */\n  0x08\n    /* \"#utility.yul\":1462:1472   */\n  dup4\n    /* \"#utility.yul\":1458:1476   */\n  mul\n    /* \"#utility.yul\":1497:1594   */\n  tag_60\n    /* \"#utility.yul\":1527:1593   */\n  0xffffffffffffffffffffffffffffffffffffffffffffffffffffffffffffffff\n    /* \"#utility.yul\":1516:1525   */\n  dup3\n    /* \"#utility.yul\":1497:1594   */\n  tag_33\n  jump\t// in\ntag_60:\n    /* \"#utility.yul\":1615:1654   */\n  tag_61\n    /* \"#utility.yul\":1645:1653   */\n  dup7\n    /* \"#utility.yul\":1634:1643   */\n  dup4\n    /* \"#utility.yul\":1615:1654   */\n  tag_33\n  jump\t// in\ntag_61:\n    /* \"#utility.yul\":1603:1654   */\n  swap6\n  pop\n    /* \"#utility.yul\":1687:1691   */\n  dup1\n    /* \"#utility.yul\":1683:1692   */\n  not\n    /* \"#utility.yul\":1676:1681   */\n  dup5\n    /* \"#utility.yul\":1672:1693   */\n  and\n    /* \"#utility.yul\":1663:1693   */\n  swap4\n  pop\n    /* \"#utility.yul\":1736:1740   */\n  dup1\n    /* \"#utility.yul\":1726:1734   */\n  dup7\n    /* \"#utility.yul\":1722:1741   */\n  and\n    /* \"#utility.yul\":1715:1720   */\n  dup5\n    /* \"#utility.yul\":1712:1742   */\n  or\n    /* \"#utility.yul\":1702:1742   */\n  swap3\n  pop\n    /* \"#utility.yul\":1431:1748   */\n  pop\n  pop\n    /* \"#utility.yul\":1355:1748   */\n  swap4\n  swap3\n  pop\n  pop\n  pop\n  jump\t// out\n    /* \"#utility.yul\":1754:1831   */\ntag_35:\n    /* \"#utility.yul\":1791:1798   */\n  0x00\n    /* \"#utility.yul\":1820:1825   */\n  dup2\n    /* \"#utility.yul\":1809:1825   */\n  swap1\n  pop\n    /* \"#utility.yul\":1754:1831   */\n  swap2\n  swap1\n  pop\n  jump\t// out\n    /* \"#utility.yul\":1837:1897   */\ntag_36:\n    /* \"#utility.yul\":1865:1868   */\n  0x00\n    /* \"#utility.yul\":1886:1891   */\n  dup2\n    /* \"#utility.yul\":1879:1891   */\n  swap1\n  pop\n    /* \"#utility.yul\":1837:1897   */\n  swap2\n  swap1\n  pop\n  jump\t// out\n    /* \"#utility.yul\":1903:2045   */\ntag_37:\n    /* \"#utility.yul\":1953:1962   */\n  0x00\n    /* \"#utility.yul\":1986:2039   */\n  tag_65\n    /* \"#utility.yul\":2004:2038   */\n  tag_66\n    /* \"#utility.yul\":2013:2037   */\n  tag_67\n    /* \"#utility.yul\":2031:2036   */\n  dup5\n    /* \"#utility.yul\":2013:2037   */\n  tag_35\n  jump\t// in\ntag_67:\n    /* \"#utility.yul\":2004:2038   */\n  tag_36\n  jump\t// in\ntag_66:\n    /* \"#utility.yul\":1986:2039   */\n  tag_35\n  jump\t// in\ntag_65:\n    /* \"#utility.yul\":1973:2039   */\n  swap1\n  pop\n    /* \"#utility.yul\":1903:2045   */\n  swap2\n  swap1\n  pop\n  jump\t// out\n    /* \"#utility.yul\":2051:2126   */\ntag_38:\n    /* \"#utility.yul\":2094:2097   */\n  0x00\n    /* \"#utility.yul\":2115:2120   */\n  dup2\n    /* \"#utility.yul\":2108:2120   */\n  swap1\n  pop\n    /* \"#utility.yul\":2051:2126   */\n  swap2\n  swap1\n  pop\n  jump\t// out\n    /* \"#utility.yul\":2132:2401   */\ntag_39:\n    /* \"#utility.yul\":2242:2281   */\n  tag_70\n    /* \"#utility.yul\":2273:2280   */\n  dup4\n    /* \"#utility.yul\":2242:2281   */\n  tag_37\n  jump\t// in\ntag_70:\n    /* \"#utility.yul\":2303:2394   */\n  tag_71\n    /* \"#utility.yul\":2352:2393   */\n  tag_72\n    /* \"#utility.yul\":2376:2392   */\n  dup3\n    /* \"#utility.yul\":2352:2393   */\n  tag_38\n  jump\t// in\ntag_72:\n    /* \"#utility.yul\":2344:2350   */\n  dup5\n    /* \"#utility.yul\":2337:2341   */\n  dup5\n    /* \"#utility.yul\":2331:2342   */\n  sload\n    /* \"#utility.yul\":2303:2394   */\n  tag_34\n  jump\t// in\ntag_71:\n    /* \"#utility.yul\":2297:2301   */\n  dup3\n    /* \"#utility.yul\":2290:2395   */\n  sstore\n    /* \"#utility.yul\":2208:2401   */\n  pop\n    /* \"#utility.yul\":2132:2401   */\n  pop\n  pop\n  pop\n  jump\t// out\n    /* \"#utility.yul\":2407:2480   */\ntag_40:\n    /* \"#utility.yul\":2452:2455   */\n  0x00\n    /* \"#utility.yul\":2407:2480   */\n  swap1\n  jump\t// out\n    /* \"#utility.yul\":2486:2675   */\ntag_41:\n    /* \"#utility.yul\":2563:2595   */\n  tag_75\n  tag_40\n  jump\t// in\ntag_75:\n    /* \"#utility.yul\":2604:2669   */\n  tag_76\n    /* \"#utility.yul\":2662:2668   */\n  dup2\n    /* \"#utility.yul\":2654:2660   */\n  dup5\n    /* \"#utility.yul\":2648:2652   */\n  dup5\n    /* \"#utility.yul\":2604:2669   */\n  tag_39\n  jump\t// in\ntag_76:\n    /* \"#utility.yul\":2539:2675   */\n  pop\n    /* \"#utility.yul\":2486:2675   */\n  pop\n  pop\n  jump\t// out\n    /* \"#utility.yul\":2681:2867   */\ntag_42:\n    /* \"#utility.yul\":2741:2861   */\ntag_78:\n    /* \"#utility.yul\":2758:2761   */\n  dup2\n    /* \"#utility.yul\":2751:2756   */\n  dup2\n    /* \"#utility.yul\":2748:2762   */\n  lt\n    /* \"#utility.yul\":2741:2861   */\n  iszero\n  tag_80\n  jumpi\n    /* \"#utility.yul\":2812:2851   */\n  tag_81\n    /* \"#utility.yul\":2849:2850   */\n  0x00\n    /* \"#utility.yul\":2842:2847   */\n  dup3\n    /* \"#utility.yul\":2812:2851   */\n  tag_41\n  jump\t// in\ntag_81:\n    /* \"#utility.yul\":2785:2786   */\n  0x01\n    /* \"#utility.yul\":2778:2783   */\n  dup2\n    /* \"#utility.yul\":2774:2787   */\n  add\n    /* \"#utility.yul\":2765:2787   */\n  swap1\n  pop\n    /* \"#utility.yul\":2741:2861   */\n  jump(tag_78)\ntag_80:\n    /* \"#utility.yul\":2681:2867   */\n  pop\n  pop\n  jump\t// out\n    /* \"#utility.yul\":2873:3416   */\ntag_43:\n    /* \"#utility.yul\":2974:2976   */\n  0x1f\n    /* \"#utility.yul\":2969:2972   */\n  dup3\n    /* \"#utility.yul\":2966:2977   */\n  gt\n    /* \"#utility.yul\":2963:3409   */\n  iszero\n  tag_83\n  jumpi\n    /* \"#utility.yul\":3008:3046   */\n  tag_84\n    /* \"#utility.yul\":3040:3045   */\n  dup2\n    /* \"#utility.yul\":3008:3046   */\n  tag_31\n  jump\t// in\ntag_84:\n    /* \"#utility.yul\":3092:3121   */\n  tag_85\n    /* \"#utility.yul\":3110:3120   */\n  dup5\n    /* \"#utility.yul\":3092:3121   */\n  tag_32\n  jump\t// in\ntag_85:\n    /* \"#utility.yul\":3082:3090   */\n  dup2\n    /* \"#utility.yul\":3078:3122   */\n  add\n    /* \"#utility.yul\":3275:3277   */\n  0x20\n    /* \"#utility.yul\":3263:3273   */\n  dup6\n    /* \"#utility.yul\":3260:3278   */\n  lt\n    /* \"#utility.yul\":3257:3306   */\n  iszero\n  tag_86\n  jumpi\n    /* \"#utility.yul\":3296:3304   */\n  dup2\n    /* \"#utility.yul\":3281:3304   */\n  swap1\n  pop\n    /* \"#utility.yul\":3257:3306   */\ntag_86:\n    /* \"#utility.yul\":3319:3399   */\n  tag_87\n    /* \"#utility.yul\":3375:3397   */\n  tag_88\n    /* \"#utility.yul\":3393:3396   */\n  dup6\n    /* \"#utility.yul\":3375:3397   */\n  tag_32\n  jump\t// in\ntag_88:\n    /* \"#utility.yul\":3365:3373   */\n  dup4\n    /* \"#utility.yul\":3361:3398   */\n  add\n    /* \"#utility.yul\":3348:3359   */\n  dup3\n    /* \"#utility.yul\":3319:3399   */\n  tag_42\n  jump\t// in\ntag_87:\n    /* \"#utility.yul\":2978:3409   */\n  pop\n  pop\n    /* \"#utility.yul\":2963:3409   */\ntag_83:\n    /* \"#utility.yul\":2873:3416   */\n  pop\n  pop\n  pop\n  jump\t// out\n    /* \"#utility.yul\":3422:3539   */\ntag_44:\n    /* \"#utility.yul\":3476:3484   */\n  0x00\n    /* \"#utility.yul\":3526:3531   */\n  dup3\n    /* \"#utility.yul\":3520:3524   */\n  dup3\n    /* \"#utility.yul\":3516:3532   */\n  shr\n    /* \"#utility.yul\":3495:3532   */\n  swap1\n  pop\n    /* \"#utility.yul\":3422:3539   */\n  swap3\n  swap2\n  pop\n  pop\n  jump\t// out\n    /* \"#utility.yul\":3545:3714   */\ntag_45:\n    /* \"#utility.yul\":3589:3595   */\n  0x00\n    /* \"#utility.yul\":3622:3673   */\n  tag_91\n    /* \"#utility.yul\":3670:3671   */\n  0x00\n    /* \"#utility.yul\":3666:3672   */\n  not\n    /* \"#utility.yul\":3658:3663   */\n  dup5\n    /* \"#utility.yul\":3655:3656   */\n  0x08\n    /* \"#utility.yul\":3651:3664   */\n  mul\n    /* \"#utility.yul\":3622:3673   */\n  tag_44\n  jump\t// in\ntag_91:\n    /* \"#utility.yul\":3618:3674   */\n  not\n    /* \"#utility.yul\":3703:3707   */\n  dup1\n    /* \"#utility.yul\":3697:3701   */\n  dup4\n    /* \"#utility.yul\":3693:3708   */\n  and\n    /* \"#utility.yul\":3683:3708   */\n  swap2\n  pop\n    /* \"#utility.yul\":3596:3714   */\n  pop\n    /* \"#utility.yul\":3545:3714   */\n  swap3\n  swap2\n  pop\n  pop\n  jump\t// out\n    /* \"#utility.yul\":3719:4014   */\ntag_46:\n    /* \"#utility.yul\":3795:3799   */\n  0x00\n    /* \"#utility.yul\":3941:3970   */\n  tag_93\n    /* \"#utility.yul\":3966:3969   */\n  dup4\n    /* \"#utility.yul\":3960:3964   */\n  dup4\n    /* \"#utility.yul\":3941:3970   */\n  tag_45\n  jump\t// in\ntag_93:\n    /* \"#utility.yul\":3933:3970   */\n  swap2\n  pop\n    /* \"#utility.yul\":4003:4006   */\n  dup3\n    /* \"#utility.yul\":4000:4001   */\n  0x02\n    /* \"#utility.yul\":3996:4007   */\n  mul\n    /* \"#utility.yul\":3990:3994   */\n  dup3\n    /* \"#utility.yul\":3987:4008   */\n  or\n    /* \"#utility.yul\":3979:4008   */\n  swap1\n  pop\n    /* \"#utility.yul\":3719:4014   */\n  swap3\n  swap2\n  pop\n  pop\n  jump\t// out\n    /* \"#utility.yul\":4019:5414   */\ntag_10:\n    /* \"#utility.yul\":4136:4173   */\n  tag_95\n    /* \"#utility.yul\":4169:4172   */\n  dup3\n    /* \"#utility.yul\":4136:4173   */\n  tag_27\n  jump\t// in\ntag_95:\n    /* \"#utility.yul\":4238:4256   */\n  0xffffffffffffffff\n    /* \"#utility.yul\":4230:4236   */\n  dup2\n    /* \"#utility.yul\":4227:4257   */\n  gt\n    /* \"#utility.yul\":4224:4280   */\n  iszero\n  tag_96\n  jumpi\n    /* \"#utility.yul\":4260:4278   */\n  tag_97\n  tag_28\n  jump\t// in\ntag_97:\n    /* \"#utility.yul\":4224:4280   */\ntag_96:\n    /* \"#utility.yul\":4304:4342   */\n  tag_98\n    /* \"#utility.yul\":4336:4340   */\n  dup3\n    /* \"#utility.yul\":4330:4341   */\n  sload\n    /* \"#utility.yul\":4304:4342   */\n  tag_30\n  jump\t// in\ntag_98:\n    /* \"#utility.yul\":4389:4456   */\n  tag_99\n    /* \"#utility.yul\":4449:4455   */\n  dup3\n    /* \"#utility.yul\":4441:4447   */\n  dup3\n    /* \"#utility.yul\":4435:4439   */\n  dup6\n    /* \"#utility.yul\":4389:4456   */\n  tag_43\n  jump\t// in\ntag_99:\n    /* \"#utility.yul\":4483:4484   */\n  0x00\n    /* \"#utility.yul\":4507:4511   */\n  0x20\n    /* \"#utility.yul\":4494:4511   */\n  swap1\n  pop\n    /* \"#utility.yul\":4539:4541   */\n  0x1f\n    /* \"#utility.yul\":4531:4537   */\n  dup4\n    /* \"#utility.yul\":4528:4542   */\n  gt\n    /* \"#utility.yul\":4556:4557   */\n  0x01\n    /* \"#utility.yul\":4551:5169   */\n  dup2\n  eq\n  tag_101\n  jumpi\n    /* \"#utility.yul\":5213:5214   */\n  0x00\n    /* \"#utility.yul\":5230:5236   */\n  dup5\n    /* \"#utility.yul\":5227:5304   */\n  iszero\n  tag_102\n  jumpi\n    /* \"#utility.yul\":5279:5288   */\n  dup3\n    /* \"#utility.yul\":5274:5277   */\n  dup8\n    /* \"#utility.yul\":5270:5289   */\n  add\n    /* \"#utility.yul\":5264:5290   */\n  mload\n    /* \"#utility.yul\":5255:5290   */\n  swap1\n  pop\n    /* \"#utility.yul\":5227:5304   */\ntag_102:\n    /* \"#utility.yul\":5330:5397   */\n  tag_103\n    /* \"#utility.yul\":5390:5396   */\n  dup6\n    /* \"#utility.yul\":5383:5388   */\n  dup3\n    /* \"#utility.yul\":5330:5397   */\n  tag_46\n  jump\t// in\ntag_103:\n    /* \"#utility.yul\":5324:5328   */\n  dup7\n    /* \"#utility.yul\":5317:5398   */\n  sstore\n    /* \"#utility.yul\":5186:5408   */\n  pop\n    /* \"#utility.yul\":4521:5408   */\n  jump(tag_100)\n    /* \"#utility.yul\":4551:5169   */\ntag_101:\n    /* \"#utility.yul\":4603:4607   */\n  0x1f\n    /* \"#utility.yul\":4599:4608   */\n  not\n    /* \"#utility.yul\":4591:4597   */\n  dup5\n    /* \"#utility.yul\":4587:4609   */\n  and\n    /* \"#utility.yul\":4637:4674   */\n  tag_104\n    /* \"#utility.yul\":4669:4673   */\n  dup7\n    /* \"#utility.yul\":4637:4674   */\n  tag_31\n  jump\t// in\ntag_104:\n    /* \"#utility.yul\":4696:4697   */\n  0x00\n    /* \"#utility.yul\":4710:4918   */\ntag_105:\n    /* \"#utility.yul\":4724:4731   */\n  dup3\n    /* \"#utility.yul\":4721:4722   */\n  dup2\n    /* \"#utility.yul\":4718:4732   */\n  lt\n    /* \"#utility.yul\":4710:4918   */\n  iszero\n  tag_107\n  jumpi\n    /* \"#utility.yul\":4803:4812   */\n  dup5\n    /* \"#utility.yul\":4798:4801   */\n  dup10\n    /* \"#utility.yul\":4794:4813   */\n  add\n    /* \"#utility.yul\":4788:4814   */\n  mload\n    /* \"#utility.yul\":4780:4786   */\n  dup3\n    /* \"#utility.yul\":4773:4815   */\n  sstore\n    /* \"#utility.yul\":4854:4855   */\n  0x01\n    /* \"#utility.yul\":4846:4852   */\n  dup3\n    /* \"#utility.yul\":4842:4856   */\n  add\n    /* \"#utility.yul\":4832:4856   */\n  swap2\n  pop\n    /* \"#utility.yul\":4901:4903   */\n  0x20\n    /* \"#utility.yul\":4890:4899   */\n  dup6\n    /* \"#utility.yul\":4886:4904   */\n  add\n    /* \"#utility.yul\":4873:4904   */\n  swap5\n  pop\n    /* \"#utility.yul\":4747:4751   */\n  0x20\n    /* \"#utility.yul\":4744:4745   */\n  dup2\n    /* \"#utility.yul\":4740:4752   */\n  add\n    /* \"#utility.yul\":4735:4752   */\n  swap1\n  pop\n    /* \"#utility.yul\":4710:4918   */\n  jump(tag_105)\ntag_107:\n    /* \"#utility.yul\":4946:4952   */\n  dup7\n    /* \"#utility.yul\":4937:4944   */\n  dup4\n    /* \"#utility.yul\":4934:4953   */\n  lt\n    /* \"#utility.yul\":4931:5110   */\n  iszero\n  tag_108\n  jumpi\n    /* \"#utility.yul\":5004:5013   */\n  dup5\n    /* \"#utility.yul\":4999:5002   */\n  dup10\n    /* \"#utility.yul\":4995:5014   */\n  add\n    /* \"#utility.yul\":4989:5015   */\n  mload\n    /* \"#utility.yul\":5047:5095   */\n  tag_109\n    /* \"#utility.yul\":5089:5093   */\n  0x1f\n    /* \"#utility.yul\":5081:5087   */\n  dup10\n    /* \"#utility.yul\":5077:5094   */\n  and\n    /* \"#utility.yul\":5066:5075   */\n  dup3\n    /* \"#utility.yul\":5047:5095   */\n  tag_45\n  jump\t// in\ntag_109:\n    /* \"#utility.yul\":5039:5045   */\n  dup4\n    /* \"#utility.yul\":5032:5096   */\n  sstore\n    /* \"#utility.yul\":4954:5110   */\n  pop\n    /* \"#utility.yul\":4931:5110   */\ntag_108:\n    /* \"#utility.yul\":5156:5157   */\n  0x01\n    /* \"#utility.yul\":5152:5153   */\n  0x02\n    /* \"#utility.yul\":5144:5150   */\n  dup9\n    /* \"#utility.yul\":5140:5154   */\n  mul\n    /* \"#utility.yul\":5136:5158   */\n  add\n    /* \"#utility.yul\":5130:5134   */\n  dup9\n    /* \"#utility.yul\":5123:5159   */\n  sstore\n    /* \"#utility.yul\":4558:5169   */\n  pop\n  pop\n  pop\n    /* \"#utility.yul\":4521:5408   */\ntag_100:\n  pop\n    /* \"#utility.yul\":4111:5414   */\n  pop\n  pop\n  pop\n    /* \"#utility.yul\":4019:5414   */\n  pop\n  pop\n  jump\t// out\n    /* \"contracts/GiftCardETH.sol\":368:7087  contract GiftCardETH {... */\ntag_26:\n  dataSize(sub_0)\n  dup1\n  dataOffset(sub_0)\n  0x00\n  codecopy\n  0x00\n  return\nstop\n\nsub_0: assembly {\n        /* \"contracts/GiftCardETH.sol\":368:7087  contract GiftCardETH {... */\n      mstore(0x40, 0x80)\n      jumpi(tag_1, lt(calldatasize, 0x04))\n      shr(0xe0, calldataload(0x00))\n      dup1\n      0x8f0e582f\n      gt\n      tag_12\n      jumpi\n      dup1\n      0x8f0e582f\n      eq\n      tag_7\n      jumpi\n      dup1\n      0xa34f011c\n      eq\n      tag_8\n      jumpi\n      dup1\n      0xa927db0d\n      eq\n      tag_9\n      jumpi\n      dup1\n      0xb6db75a0\n      eq\n      tag_10\n      jumpi\n      dup1\n      0xd9c8a38b\n      eq\n      tag_11\n      jumpi\n      jump(tag_2)\n    tag_12:\n      dup1\n      0x22366844\n      eq\n      tag_3\n      jumpi\n      dup1\n      0x27e26c8c\n      eq\n      tag_4\n      jumpi\n      dup1\n      0x2b4a9dda\n      eq\n      tag_5\n      jumpi\n      dup1\n      0x4cf57138\n      eq\n      tag_6\n      jumpi\n      jump(tag_2)\n    tag_1:\n      jumpi(tag_2, calldatasize)\n      stop\n    tag_2:\n      stop\n        /* \"contracts/GiftCardETH.sol\":2753:2866  function isRegistered() public view returns(bool){... */\n    tag_3:\n      callvalue\n      dup1\n      iszero\n      tag_17\n      jumpi\n      0x00\n      dup1\n      revert\n    tag_17:\n      pop\n      tag_18\n      tag_19\n      jump\t// in\n    tag_18:\n      mload(0x40)\n      tag_20\n      swap2\n      swap1\n      tag_21\n      jump\t// in\n    tag_20:\n      mload(0x40)\n      dup1\n      swap2\n      sub\n      swap1\n      return\n        /* \"contracts/GiftCardETH.sol\":6559:7014  function redeemCard(string calldata _code)... */\n    tag_4:\n      callvalue\n      dup1\n      iszero\n      tag_22\n      jumpi\n      0x00\n      dup1\n      revert\n    tag_22:\n      pop\n      tag_23\n      0x04\n      dup1\n      calldatasize\n      sub\n      dup2\n      add\n      swap1\n      tag_24\n      swap2\n      swap1\n      tag_25\n      jump\t// in\n    tag_24:\n      tag_26\n      jump\t// in\n    tag_23:\n      stop\n        /* \"contracts/GiftCardETH.sol\":5220:6553  function getMyCard()... */\n    tag_5:\n      callvalue\n      dup1\n      iszero\n      tag_27\n      jumpi\n      0x00\n      dup1\n      revert\n    tag_27:\n      pop\n      tag_28\n      tag_29\n      jump\t// in\n    tag_28:\n      mload(0x40)\n      tag_30\n      swap2\n      swap1\n      tag_31\n      jump\t// in\n    tag_30:\n      mload(0x40)\n      dup1\n      swap2\n      sub\n      swap1\n      return\n        /* \"contracts/GiftCardETH.sol\":2872:3636  function getGiftCardByStatus(GiftCardStatus status)... */\n    tag_6:\n      callvalue\n      dup1\n      iszero\n      tag_32\n      jumpi\n      0x00\n      dup1\n      revert\n    tag_32:\n      pop\n      tag_33\n      0x04\n      dup1\n      calldatasize\n      sub\n      dup2\n      add\n      swap1\n      tag_34\n      swap2\n      swap1\n      tag_35\n      jump\t// in\n    tag_34:\n      tag_36\n      jump\t// in\n    tag_33:\n      mload(0x40)\n      tag_37\n      swap2\n      swap1\n      tag_31\n      jump\t// in\n    tag_37:\n      mload(0x40)\n      dup1\n      swap2\n      sub\n      swap1\n      return\n        /* \"contracts/GiftCardETH.sol\":2305:2485  function registration(string calldata name, Gender gender) external {... */\n    tag_7:\n      callvalue\n      dup1\n      iszero\n      tag_38\n      jumpi\n      0x00\n      dup1\n      revert\n    tag_38:\n      pop\n      tag_39\n      0x04\n      dup1\n      calldatasize\n      sub\n      dup2\n      add\n      swap1\n      tag_40\n      swap2\n      swap1\n      tag_41\n      jump\t// in\n    tag_40:\n      tag_42\n      jump\t// in\n    tag_39:\n      stop\n        /* \"contracts/GiftCardETH.sol\":4975:5214  function buyGiftCard() external payable registeredUsersOnly {... */\n    tag_8:\n      tag_43\n      tag_44\n      jump\t// in\n    tag_43:\n      stop\n        /* \"contracts/GiftCardETH.sol\":3642:4041  function getAllGiftCards()... */\n    tag_9:\n      callvalue\n      dup1\n      iszero\n      tag_45\n      jumpi\n      0x00\n      dup1\n      revert\n    tag_45:\n      pop\n      tag_46\n      tag_47\n      jump\t// in\n    tag_46:\n      mload(0x40)\n      tag_48\n      swap2\n      swap1\n      tag_31\n      jump\t// in\n    tag_48:\n      mload(0x40)\n      dup1\n      swap2\n      sub\n      swap1\n      return\n        /* \"contracts/GiftCardETH.sol\":2491:2625  function isAdmin() public view registeredUsersOnly returns (bool) {... */\n    tag_10:\n      callvalue\n      dup1\n      iszero\n      tag_49\n      jumpi\n      0x00\n      dup1\n      revert\n    tag_49:\n      pop\n      tag_50\n      tag_51\n      jump\t// in\n    tag_50:\n      mload(0x40)\n      tag_52\n      swap2\n      swap1\n      tag_21\n      jump\t// in\n    tag_52:\n      mload(0x40)\n      dup1\n      swap2\n      sub\n      swap1\n      return\n        /* \"contracts/GiftCardETH.sol\":2631:2747  function getMyData() public registeredUsersOnly view returns (User memory) {... */\n    tag_11:\n      callvalue\n      dup1\n      iszero\n      tag_53\n      jumpi\n      0x00\n      dup1\n      revert\n    tag_53:\n      pop\n      tag_54\n      tag_55\n      jump\t// in\n    tag_54:\n      mload(0x40)\n      tag_56\n      swap2\n      swap1\n      tag_57\n      jump\t// in\n    tag_56:\n      mload(0x40)\n      dup1\n      swap2\n      sub\n      swap1\n      return\n        /* \"contracts/GiftCardETH.sol\":2753:2866  function isRegistered() public view returns(bool){... */\n    tag_19:\n        /* \"contracts/GiftCardETH.sol\":2797:2801  bool */\n      0x00\n        /* \"contracts/GiftCardETH.sol\":2858:2859  0 */\n      dup1\n        /* \"contracts/GiftCardETH.sol\":2825:2830  users */\n      0x00\n        /* \"contracts/GiftCardETH.sol\":2825:2842  users[msg.sender] */\n      dup1\n        /* \"contracts/GiftCardETH.sol\":2831:2841  msg.sender */\n      caller\n        /* \"contracts/GiftCardETH.sol\":2825:2842  users[msg.sender] */\n      0xffffffffffffffffffffffffffffffffffffffff\n      and\n      0xffffffffffffffffffffffffffffffffffffffff\n      and\n      dup2\n      mstore\n      0x20\n      add\n      swap1\n      dup2\n      mstore\n      0x20\n      add\n      0x00\n      keccak256\n        /* \"contracts/GiftCardETH.sol\":2825:2847  users[msg.sender].name */\n      0x00\n      add\n        /* \"contracts/GiftCardETH.sol\":2819:2855  bytes(users[msg.sender].name).length */\n      dup1\n      sload\n      tag_59\n      swap1\n      tag_60\n      jump\t// in\n    tag_59:\n      swap1\n      pop\n        /* \"contracts/GiftCardETH.sol\":2819:2859  bytes(users[msg.sender].name).length > 0 */\n      gt\n        /* \"contracts/GiftCardETH.sol\":2812:2859  return bytes(users[msg.sender].name).length > 0 */\n      swap1\n      pop\n        /* \"contracts/GiftCardETH.sol\":2753:2866  function isRegistered() public view returns(bool){... */\n      swap1\n      jump\t// out\n        /* \"contracts/GiftCardETH.sol\":6559:7014  function redeemCard(string calldata _code)... */\n    tag_26:\n        /* \"contracts/GiftCardETH.sol\":6645:6650  _code */\n      dup2\n      dup2\n        /* \"contracts/GiftCardETH.sol\":1663:1856  modifier checkGiftCardStatus(string memory code) {... */\n      dup1\n      dup1\n      0x1f\n      add\n      0x20\n      dup1\n      swap2\n      div\n      mul\n      0x20\n      add\n      mload(0x40)\n      swap1\n      dup2\n      add\n      0x40\n      mstore\n      dup1\n      swap4\n      swap3\n      swap2\n      swap1\n      dup2\n      dup2\n      mstore\n      0x20\n      add\n      dup4\n      dup4\n      dup1\n      dup3\n      dup5\n      calldatacopy\n      0x00\n      dup2\n      dup5\n      add\n      mstore\n      not(0x1f)\n      0x1f\n      dup3\n      add\n      and\n      swap1\n      pop\n      dup1\n      dup4\n      add\n      swap3\n      pop\n      pop\n      pop\n      pop\n      pop\n      pop\n      pop\n        /* \"contracts/GiftCardETH.sol\":1777:1797  GiftCardStatus.VALID */\n      0x01\n        /* \"contracts/GiftCardETH.sol\":1743:1797  giftCards[code].giftCardStatus == GiftCardStatus.VALID */\n      dup1\n      dup2\n      gt\n      iszero\n      tag_62\n      jumpi\n      tag_63\n      tag_64\n      jump\t// in\n    tag_63:\n    tag_62:\n        /* \"contracts/GiftCardETH.sol\":1743:1752  giftCards */\n      0x01\n        /* \"contracts/GiftCardETH.sol\":1753:1757  code */\n      dup3\n        /* \"contracts/GiftCardETH.sol\":1743:1758  giftCards[code] */\n      mload(0x40)\n      tag_65\n      swap2\n      swap1\n      tag_66\n      jump\t// in\n    tag_65:\n      swap1\n      dup2\n      mstore\n      0x20\n      add\n      mload(0x40)\n      dup1\n      swap2\n      sub\n      swap1\n      keccak256\n        /* \"contracts/GiftCardETH.sol\":1743:1773  giftCards[code].giftCardStatus */\n      0x02\n      add\n      0x00\n      swap1\n      sload\n      swap1\n      0x0100\n      exp\n      swap1\n      div\n      0xff\n      and\n        /* \"contracts/GiftCardETH.sol\":1743:1797  giftCards[code].giftCardStatus == GiftCardStatus.VALID */\n      0x01\n      dup2\n      gt\n      iszero\n      tag_67\n      jumpi\n      tag_68\n      tag_64\n      jump\t// in\n    tag_68:\n    tag_67:\n      eq\n        /* \"contracts/GiftCardETH.sol\":1722:1838  require(... */\n      tag_69\n      jumpi\n      mload(0x40)\n      0x08c379a000000000000000000000000000000000000000000000000000000000\n      dup2\n      mstore\n      0x04\n      add\n      tag_70\n      swap1\n      tag_71\n      jump\t// in\n    tag_70:\n      mload(0x40)\n      dup1\n      swap2\n      sub\n      swap1\n      revert\n    tag_69:\n        /* \"contracts/GiftCardETH.sol\":1236:1237  0 */\n      0x00\n        /* \"contracts/GiftCardETH.sol\":1203:1208  users */\n      dup1\n        /* \"contracts/GiftCardETH.sol\":1203:1220  users[msg.sender] */\n      0x00\n        /* \"contracts/GiftCardETH.sol\":1209:1219  msg.sender */\n      caller\n        /* \"contracts/GiftCardETH.sol\":1203:1220  users[msg.sender] */\n      0xffffffffffffffffffffffffffffffffffffffff\n      and\n      0xffffffffffffffffffffffffffffffffffffffff\n      and\n      dup2\n      mstore\n      0x20\n      add\n      swap1\n      dup2\n      mstore\n      0x20\n      add\n      0x00\n      keccak256\n        /* \"contracts/GiftCardETH.sol\":1203:1225  users[msg.sender].name */\n      0x00\n      add\n        /* \"contracts/GiftCardETH.sol\":1197:1233  bytes(users[msg.sender].name).length */\n      dup1\n      sload\n      tag_73\n      swap1\n      tag_60\n      jump\t// in\n    tag_73:\n      swap1\n      pop\n        /* \"contracts/GiftCardETH.sol\":1197:1237  bytes(users[msg.sender].name).length > 0 */\n      gt\n        /* \"contracts/GiftCardETH.sol\":1176:1282  require(... */\n      tag_74\n      jumpi\n      mload(0x40)\n      0x08c379a000000000000000000000000000000000000000000000000000000000\n      dup2\n      mstore\n      0x04\n      add\n      tag_75\n      swap1\n      tag_76\n      jump\t// in\n    tag_75:\n      mload(0x40)\n      dup1\n      swap2\n      sub\n      swap1\n      revert\n    tag_74:\n        /* \"contracts/GiftCardETH.sol\":1551:1557  locked */\n      0x02\n      0x00\n      swap1\n      sload\n      swap1\n      0x0100\n      exp\n      swap1\n      div\n      0xff\n      and\n        /* \"contracts/GiftCardETH.sol\":1550:1557  !locked */\n      iszero\n        /* \"contracts/GiftCardETH.sol\":1542:1593  require(!locked, \"ReentrancyGuard: reentrant call\") */\n      tag_78\n      jumpi\n      mload(0x40)\n      0x08c379a000000000000000000000000000000000000000000000000000000000\n      dup2\n      mstore\n      0x04\n      add\n      tag_79\n      swap1\n      tag_80\n      jump\t// in\n    tag_79:\n      mload(0x40)\n      dup1\n      swap2\n      sub\n      swap1\n      revert\n    tag_78:\n        /* \"contracts/GiftCardETH.sol\":1612:1616  true */\n      0x01\n        /* \"contracts/GiftCardETH.sol\":1603:1609  locked */\n      0x02\n      0x00\n        /* \"contracts/GiftCardETH.sol\":1603:1616  locked = true */\n      0x0100\n      exp\n      dup2\n      sload\n      dup2\n      0xff\n      mul\n      not\n      and\n      swap1\n      dup4\n      iszero\n      iszero\n      mul\n      or\n      swap1\n      sstore\n      pop\n        /* \"contracts/GiftCardETH.sol\":6719:6730  bool status */\n      0x00\n        /* \"contracts/GiftCardETH.sol\":6736:6746  msg.sender */\n      caller\n        /* \"contracts/GiftCardETH.sol\":6736:6751  msg.sender.call */\n      0xffffffffffffffffffffffffffffffffffffffff\n      and\n        /* \"contracts/GiftCardETH.sol\":6759:6768  giftCards */\n      0x01\n        /* \"contracts/GiftCardETH.sol\":6769:6774  _code */\n      dup6\n      dup6\n        /* \"contracts/GiftCardETH.sol\":6759:6775  giftCards[_code] */\n      mload(0x40)\n      tag_82\n      swap3\n      swap2\n      swap1\n      tag_83\n      jump\t// in\n    tag_82:\n      swap1\n      dup2\n      mstore\n      0x20\n      add\n      mload(0x40)\n      dup1\n      swap2\n      sub\n      swap1\n      keccak256\n        /* \"contracts/GiftCardETH.sol\":6759:6782  giftCards[_code].amount */\n      0x01\n      add\n      sload\n        /* \"contracts/GiftCardETH.sol\":6736:6787  msg.sender.call{value: giftCards[_code].amount}(\"\") */\n      mload(0x40)\n      tag_84\n      swap1\n      tag_85\n      jump\t// in\n    tag_84:\n      0x00\n      mload(0x40)\n      dup1\n      dup4\n      sub\n      dup2\n      dup6\n      dup8\n      gas\n      call\n      swap3\n      pop\n      pop\n      pop\n      returndatasize\n      dup1\n      0x00\n      dup2\n      eq\n      tag_88\n      jumpi\n      mload(0x40)\n      swap2\n      pop\n      and(add(returndatasize, 0x3f), not(0x1f))\n      dup3\n      add\n      0x40\n      mstore\n      returndatasize\n      dup3\n      mstore\n      returndatasize\n      0x00\n      0x20\n      dup5\n      add\n      returndatacopy\n      jump(tag_87)\n    tag_88:\n      0x60\n      swap2\n      pop\n    tag_87:\n      pop\n        /* \"contracts/GiftCardETH.sol\":6718:6787  (bool status, ) = msg.sender.call{value: giftCards[_code].amount}(\"\") */\n      pop\n      swap1\n      pop\n        /* \"contracts/GiftCardETH.sol\":6801:6807  status */\n      dup1\n        /* \"contracts/GiftCardETH.sol\":6797:7008  if (status) {... */\n      iszero\n      tag_89\n      jumpi\n        /* \"contracts/GiftCardETH.sol\":6857:6879  GiftCardStatus.EXPIRED */\n      0x00\n        /* \"contracts/GiftCardETH.sol\":6823:6832  giftCards */\n      0x01\n        /* \"contracts/GiftCardETH.sol\":6833:6838  _code */\n      dup6\n      dup6\n        /* \"contracts/GiftCardETH.sol\":6823:6839  giftCards[_code] */\n      mload(0x40)\n      tag_90\n      swap3\n      swap2\n      swap1\n      tag_83\n      jump\t// in\n    tag_90:\n      swap1\n      dup2\n      mstore\n      0x20\n      add\n      mload(0x40)\n      dup1\n      swap2\n      sub\n      swap1\n      keccak256\n        /* \"contracts/GiftCardETH.sol\":6823:6854  giftCards[_code].giftCardStatus */\n      0x02\n      add\n      0x00\n        /* \"contracts/GiftCardETH.sol\":6823:6879  giftCards[_code].giftCardStatus = GiftCardStatus.EXPIRED */\n      0x0100\n      exp\n      dup2\n      sload\n      dup2\n      0xff\n      mul\n      not\n      and\n      swap1\n      dup4\n      0x01\n      dup2\n      gt\n      iszero\n      tag_91\n      jumpi\n      tag_92\n      tag_64\n      jump\t// in\n    tag_92:\n    tag_91:\n      mul\n      or\n      swap1\n      sstore\n      pop\n        /* \"contracts/GiftCardETH.sol\":6919:6924  users */\n      0x00\n        /* \"contracts/GiftCardETH.sol\":6919:6936  users[msg.sender] */\n      dup1\n        /* \"contracts/GiftCardETH.sol\":6925:6935  msg.sender */\n      caller\n        /* \"contracts/GiftCardETH.sol\":6919:6936  users[msg.sender] */\n      0xffffffffffffffffffffffffffffffffffffffff\n      and\n      0xffffffffffffffffffffffffffffffffffffffff\n      and\n      dup2\n      mstore\n      0x20\n      add\n      swap1\n      dup2\n      mstore\n      0x20\n      add\n      0x00\n      keccak256\n        /* \"contracts/GiftCardETH.sol\":6919:6941  users[msg.sender].name */\n      0x00\n      add\n        /* \"contracts/GiftCardETH.sol\":6893:6902  giftCards */\n      0x01\n        /* \"contracts/GiftCardETH.sol\":6903:6908  _code */\n      dup6\n      dup6\n        /* \"contracts/GiftCardETH.sol\":6893:6909  giftCards[_code] */\n      mload(0x40)\n      tag_93\n      swap3\n      swap2\n      swap1\n      tag_83\n      jump\t// in\n    tag_93:\n      swap1\n      dup2\n      mstore\n      0x20\n      add\n      mload(0x40)\n      dup1\n      swap2\n      sub\n      swap1\n      keccak256\n        /* \"contracts/GiftCardETH.sol\":6893:6916  giftCards[_code].getter */\n      0x03\n      add\n        /* \"contracts/GiftCardETH.sol\":6893:6941  giftCards[_code].getter = users[msg.sender].name */\n      swap1\n      dup2\n      tag_94\n      swap2\n      swap1\n      tag_95\n      jump\t// in\n    tag_94:\n      pop\n        /* \"contracts/GiftCardETH.sol\":6960:6997  CardRedeemed(giftCards[_code].amount) */\n      0x604d6de1b6eb3f39c6ab9d4981a20d17f88c5bef33495ae58dabeb097ba7a41a\n        /* \"contracts/GiftCardETH.sol\":6973:6982  giftCards */\n      0x01\n        /* \"contracts/GiftCardETH.sol\":6983:6988  _code */\n      dup6\n      dup6\n        /* \"contracts/GiftCardETH.sol\":6973:6989  giftCards[_code] */\n      mload(0x40)\n      tag_96\n      swap3\n      swap2\n      swap1\n      tag_83\n      jump\t// in\n    tag_96:\n      swap1\n      dup2\n      mstore\n      0x20\n      add\n      mload(0x40)\n      dup1\n      swap2\n      sub\n      swap1\n      keccak256\n        /* \"contracts/GiftCardETH.sol\":6973:6996  giftCards[_code].amount */\n      0x01\n      add\n      sload\n        /* \"contracts/GiftCardETH.sol\":6960:6997  CardRedeemed(giftCards[_code].amount) */\n      mload(0x40)\n      tag_97\n      swap2\n      swap1\n      tag_98\n      jump\t// in\n    tag_97:\n      mload(0x40)\n      dup1\n      swap2\n      sub\n      swap1\n      log1\n        /* \"contracts/GiftCardETH.sol\":6797:7008  if (status) {... */\n    tag_89:\n        /* \"contracts/GiftCardETH.sol\":6708:7014  {... */\n      pop\n        /* \"contracts/GiftCardETH.sol\":1646:1651  false */\n      0x00\n        /* \"contracts/GiftCardETH.sol\":1637:1643  locked */\n      0x02\n      0x00\n        /* \"contracts/GiftCardETH.sol\":1637:1651  locked = false */\n      0x0100\n      exp\n      dup2\n      sload\n      dup2\n      0xff\n      mul\n      not\n      and\n      swap1\n      dup4\n      iszero\n      iszero\n      mul\n      or\n      swap1\n      sstore\n      pop\n        /* \"contracts/GiftCardETH.sol\":6559:7014  function redeemCard(string calldata _code)... */\n      pop\n      pop\n      pop\n      jump\t// out\n        /* \"contracts/GiftCardETH.sol\":5220:6553  function getMyCard()... */\n    tag_29:\n        /* \"contracts/GiftCardETH.sol\":5314:5331  GiftCard[] memory */\n      0x60\n        /* \"contracts/GiftCardETH.sol\":1236:1237  0 */\n      0x00\n        /* \"contracts/GiftCardETH.sol\":1203:1208  users */\n      dup1\n        /* \"contracts/GiftCardETH.sol\":1203:1220  users[msg.sender] */\n      0x00\n        /* \"contracts/GiftCardETH.sol\":1209:1219  msg.sender */\n      caller\n        /* \"contracts/GiftCardETH.sol\":1203:1220  users[msg.sender] */\n      0xffffffffffffffffffffffffffffffffffffffff\n      and\n      0xffffffffffffffffffffffffffffffffffffffff\n      and\n      dup2\n      mstore\n      0x20\n      add\n      swap1\n      dup2\n      mstore\n      0x20\n      add\n      0x00\n      keccak256\n        /* \"contracts/GiftCardETH.sol\":1203:1225  users[msg.sender].name */\n      0x00\n      add\n        /* \"contracts/GiftCardETH.sol\":1197:1233  bytes(users[msg.sender].name).length */\n      dup1\n      sload\n      tag_100\n      swap1\n      tag_60\n      jump\t// in\n    tag_100:\n      swap1\n      pop\n        /* \"contracts/GiftCardETH.sol\":1197:1237  bytes(users[msg.sender].name).length > 0 */\n      gt\n        /* \"contracts/GiftCardETH.sol\":1176:1282  require(... */\n      tag_101\n      jumpi\n      mload(0x40)\n      0x08c379a000000000000000000000000000000000000000000000000000000000\n      dup2\n      mstore\n      0x04\n      add\n      tag_102\n      swap1\n      tag_76\n      jump\t// in\n    tag_102:\n      mload(0x40)\n      dup1\n      swap2\n      sub\n      swap1\n      revert\n    tag_101:\n        /* \"contracts/GiftCardETH.sol\":5347:5360  uint256 count */\n      0x00\n        /* \"contracts/GiftCardETH.sol\":5374:5396  bytes32 senderNameHash */\n      dup1\n        /* \"contracts/GiftCardETH.sol\":5439:5444  users */\n      dup1\n        /* \"contracts/GiftCardETH.sol\":5439:5456  users[msg.sender] */\n      0x00\n        /* \"contracts/GiftCardETH.sol\":5445:5455  msg.sender */\n      caller\n        /* \"contracts/GiftCardETH.sol\":5439:5456  users[msg.sender] */\n      0xffffffffffffffffffffffffffffffffffffffff\n      and\n      0xffffffffffffffffffffffffffffffffffffffff\n      and\n      dup2\n      mstore\n      0x20\n      add\n      swap1\n      dup2\n      mstore\n      0x20\n      add\n      0x00\n      keccak256\n        /* \"contracts/GiftCardETH.sol\":5439:5461  users[msg.sender].name */\n      0x00\n      add\n        /* \"contracts/GiftCardETH.sol\":5422:5462  abi.encodePacked(users[msg.sender].name) */\n      add(0x20, mload(0x40))\n      tag_104\n      swap2\n      swap1\n      tag_105\n      jump\t// in\n    tag_104:\n      mload(0x40)\n      0x20\n      dup2\n      dup4\n      sub\n      sub\n      dup2\n      mstore\n      swap1\n      0x40\n      mstore\n        /* \"contracts/GiftCardETH.sol\":5399:5472  keccak256(... */\n      dup1\n      mload\n      swap1\n      0x20\n      add\n      keccak256\n        /* \"contracts/GiftCardETH.sol\":5374:5472  bytes32 senderNameHash = keccak256(... */\n      swap1\n      pop\n        /* \"contracts/GiftCardETH.sol\":5488:5497  uint256 i */\n      0x00\n        /* \"contracts/GiftCardETH.sol\":5483:5923  for (uint256 i = 0; i < giftCardCodes.length; i++) {... */\n    tag_106:\n        /* \"contracts/GiftCardETH.sol\":5507:5520  giftCardCodes */\n      0x03\n        /* \"contracts/GiftCardETH.sol\":5507:5527  giftCardCodes.length */\n      dup1\n      sload\n      swap1\n      pop\n        /* \"contracts/GiftCardETH.sol\":5503:5504  i */\n      dup2\n        /* \"contracts/GiftCardETH.sol\":5503:5527  i < giftCardCodes.length */\n      lt\n        /* \"contracts/GiftCardETH.sol\":5483:5923  for (uint256 i = 0; i < giftCardCodes.length; i++) {... */\n      iszero\n      tag_107\n      jumpi\n        /* \"contracts/GiftCardETH.sol\":5689:5703  senderNameHash */\n      dup2\n        /* \"contracts/GiftCardETH.sol\":5617:5626  giftCards */\n      0x01\n        /* \"contracts/GiftCardETH.sol\":5627:5640  giftCardCodes */\n      0x03\n        /* \"contracts/GiftCardETH.sol\":5641:5642  i */\n      dup4\n        /* \"contracts/GiftCardETH.sol\":5627:5643  giftCardCodes[i] */\n      dup2\n      sload\n      dup2\n      lt\n      tag_109\n      jumpi\n      tag_110\n      tag_111\n      jump\t// in\n    tag_110:\n    tag_109:\n      swap1\n      0x00\n      mstore\n      keccak256(0x00, 0x20)\n      add\n        /* \"contracts/GiftCardETH.sol\":5617:5644  giftCards[giftCardCodes[i]] */\n      mload(0x40)\n      tag_113\n      swap2\n      swap1\n      tag_105\n      jump\t// in\n    tag_113:\n      swap1\n      dup2\n      mstore\n      0x20\n      add\n      mload(0x40)\n      dup1\n      swap2\n      sub\n      swap1\n      keccak256\n        /* \"contracts/GiftCardETH.sol\":5617:5650  giftCards[giftCardCodes[i]].buyer */\n      0x00\n      add\n        /* \"contracts/GiftCardETH.sol\":5600:5651  abi.encodePacked(giftCards[giftCardCodes[i]].buyer) */\n      add(0x20, mload(0x40))\n      tag_114\n      swap2\n      swap1\n      tag_105\n      jump\t// in\n    tag_114:\n      mload(0x40)\n      0x20\n      dup2\n      dup4\n      sub\n      sub\n      dup2\n      mstore\n      swap1\n      0x40\n      mstore\n        /* \"contracts/GiftCardETH.sol\":5569:5669  keccak256(... */\n      dup1\n      mload\n      swap1\n      0x20\n      add\n      keccak256\n        /* \"contracts/GiftCardETH.sol\":5569:5703  keccak256(... */\n      eq\n        /* \"contracts/GiftCardETH.sol\":5569:5858  keccak256(... */\n      dup1\n      tag_115\n      jumpi\n      pop\n        /* \"contracts/GiftCardETH.sol\":5844:5858  senderNameHash */\n      dup2\n        /* \"contracts/GiftCardETH.sol\":5771:5780  giftCards */\n      0x01\n        /* \"contracts/GiftCardETH.sol\":5781:5794  giftCardCodes */\n      0x03\n        /* \"contracts/GiftCardETH.sol\":5795:5796  i */\n      dup4\n        /* \"contracts/GiftCardETH.sol\":5781:5797  giftCardCodes[i] */\n      dup2\n      sload\n      dup2\n      lt\n      tag_116\n      jumpi\n      tag_117\n      tag_111\n      jump\t// in\n    tag_117:\n    tag_116:\n      swap1\n      0x00\n      mstore\n      keccak256(0x00, 0x20)\n      add\n        /* \"contracts/GiftCardETH.sol\":5771:5798  giftCards[giftCardCodes[i]] */\n      mload(0x40)\n      tag_119\n      swap2\n      swap1\n      tag_105\n      jump\t// in\n    tag_119:\n      swap1\n      dup2\n      mstore\n      0x20\n      add\n      mload(0x40)\n      dup1\n      swap2\n      sub\n      swap1\n      keccak256\n        /* \"contracts/GiftCardETH.sol\":5771:5805  giftCards[giftCardCodes[i]].getter */\n      0x03\n      add\n        /* \"contracts/GiftCardETH.sol\":5754:5806  abi.encodePacked(giftCards[giftCardCodes[i]].getter) */\n      add(0x20, mload(0x40))\n      tag_120\n      swap2\n      swap1\n      tag_105\n      jump\t// in\n    tag_120:\n      mload(0x40)\n      0x20\n      dup2\n      dup4\n      sub\n      sub\n      dup2\n      mstore\n      swap1\n      0x40\n      mstore\n        /* \"contracts/GiftCardETH.sol\":5723:5824  keccak256(... */\n      dup1\n      mload\n      swap1\n      0x20\n      add\n      keccak256\n        /* \"contracts/GiftCardETH.sol\":5723:5858  keccak256(... */\n      eq\n        /* \"contracts/GiftCardETH.sol\":5569:5858  keccak256(... */\n    tag_115:\n        /* \"contracts/GiftCardETH.sol\":5548:5913  if (... */\n      iszero\n      tag_121\n      jumpi\n        /* \"contracts/GiftCardETH.sol\":5891:5898  count++ */\n      dup3\n      dup1\n      tag_122\n      swap1\n      tag_123\n      jump\t// in\n    tag_122:\n      swap4\n      pop\n      pop\n        /* \"contracts/GiftCardETH.sol\":5548:5913  if (... */\n    tag_121:\n        /* \"contracts/GiftCardETH.sol\":5529:5532  i++ */\n      dup1\n      dup1\n      0x01\n      add\n      swap2\n      pop\n      pop\n        /* \"contracts/GiftCardETH.sol\":5483:5923  for (uint256 i = 0; i < giftCardCodes.length; i++) {... */\n      jump(tag_106)\n    tag_107:\n      pop\n        /* \"contracts/GiftCardETH.sol\":5933:5958  GiftCard[] memory myCards */\n      0x00\n        /* \"contracts/GiftCardETH.sol\":5976:5981  count */\n      dup3\n        /* \"contracts/GiftCardETH.sol\":5961:5982  new GiftCard[](count) */\n      0xffffffffffffffff\n      dup2\n      gt\n      iszero\n      tag_124\n      jumpi\n      tag_125\n      tag_126\n      jump\t// in\n    tag_125:\n    tag_124:\n      mload(0x40)\n      swap1\n      dup1\n      dup3\n      mstore\n      dup1\n      0x20\n      mul\n      0x20\n      add\n      dup3\n      add\n      0x40\n      mstore\n      dup1\n      iszero\n      tag_127\n      jumpi\n      dup2\n      0x20\n      add\n    tag_128:\n      tag_129\n      tag_130\n      jump\t// in\n    tag_129:\n      dup2\n      mstore\n      0x20\n      add\n      swap1\n      0x01\n      swap1\n      sub\n      swap1\n      dup2\n      tag_128\n      jumpi\n      swap1\n      pop\n    tag_127:\n      pop\n        /* \"contracts/GiftCardETH.sol\":5933:5982  GiftCard[] memory myCards = new GiftCard[](count) */\n      swap1\n      pop\n        /* \"contracts/GiftCardETH.sol\":5992:6005  uint256 index */\n      0x00\n        /* \"contracts/GiftCardETH.sol\":6025:6034  uint256 i */\n      dup1\n        /* \"contracts/GiftCardETH.sol\":6020:6522  for (uint256 i = 0; i < giftCardCodes.length; i++) {... */\n    tag_131:\n        /* \"contracts/GiftCardETH.sol\":6044:6057  giftCardCodes */\n      0x03\n        /* \"contracts/GiftCardETH.sol\":6044:6064  giftCardCodes.length */\n      dup1\n      sload\n      swap1\n      pop\n        /* \"contracts/GiftCardETH.sol\":6040:6041  i */\n      dup2\n        /* \"contracts/GiftCardETH.sol\":6040:6064  i < giftCardCodes.length */\n      lt\n        /* \"contracts/GiftCardETH.sol\":6020:6522  for (uint256 i = 0; i < giftCardCodes.length; i++) {... */\n      iszero\n      tag_132\n      jumpi\n        /* \"contracts/GiftCardETH.sol\":6226:6240  senderNameHash */\n      dup4\n        /* \"contracts/GiftCardETH.sol\":6154:6163  giftCards */\n      0x01\n        /* \"contracts/GiftCardETH.sol\":6164:6177  giftCardCodes */\n      0x03\n        /* \"contracts/GiftCardETH.sol\":6178:6179  i */\n      dup4\n        /* \"contracts/GiftCardETH.sol\":6164:6180  giftCardCodes[i] */\n      dup2\n      sload\n      dup2\n      lt\n      tag_134\n      jumpi\n      tag_135\n      tag_111\n      jump\t// in\n    tag_135:\n    tag_134:\n      swap1\n      0x00\n      mstore\n      keccak256(0x00, 0x20)\n      add\n        /* \"contracts/GiftCardETH.sol\":6154:6181  giftCards[giftCardCodes[i]] */\n      mload(0x40)\n      tag_137\n      swap2\n      swap1\n      tag_105\n      jump\t// in\n    tag_137:\n      swap1\n      dup2\n      mstore\n      0x20\n      add\n      mload(0x40)\n      dup1\n      swap2\n      sub\n      swap1\n      keccak256\n        /* \"contracts/GiftCardETH.sol\":6154:6187  giftCards[giftCardCodes[i]].buyer */\n      0x00\n      add\n        /* \"contracts/GiftCardETH.sol\":6137:6188  abi.encodePacked(giftCards[giftCardCodes[i]].buyer) */\n      add(0x20, mload(0x40))\n      tag_138\n      swap2\n      swap1\n      tag_105\n      jump\t// in\n    tag_138:\n      mload(0x40)\n      0x20\n      dup2\n      dup4\n      sub\n      sub\n      dup2\n      mstore\n      swap1\n      0x40\n      mstore\n        /* \"contracts/GiftCardETH.sol\":6106:6206  keccak256(... */\n      dup1\n      mload\n      swap1\n      0x20\n      add\n      keccak256\n        /* \"contracts/GiftCardETH.sol\":6106:6240  keccak256(... */\n      eq\n        /* \"contracts/GiftCardETH.sol\":6106:6395  keccak256(... */\n      dup1\n      tag_139\n      jumpi\n      pop\n        /* \"contracts/GiftCardETH.sol\":6381:6395  senderNameHash */\n      dup4\n        /* \"contracts/GiftCardETH.sol\":6308:6317  giftCards */\n      0x01\n        /* \"contracts/GiftCardETH.sol\":6318:6331  giftCardCodes */\n      0x03\n        /* \"contracts/GiftCardETH.sol\":6332:6333  i */\n      dup4\n        /* \"contracts/GiftCardETH.sol\":6318:6334  giftCardCodes[i] */\n      dup2\n      sload\n      dup2\n      lt\n      tag_140\n      jumpi\n      tag_141\n      tag_111\n      jump\t// in\n    tag_141:\n    tag_140:\n      swap1\n      0x00\n      mstore\n      keccak256(0x00, 0x20)\n      add\n        /* \"contracts/GiftCardETH.sol\":6308:6335  giftCards[giftCardCodes[i]] */\n      mload(0x40)\n      tag_143\n      swap2\n      swap1\n      tag_105\n      jump\t// in\n    tag_143:\n      swap1\n      dup2\n      mstore\n      0x20\n      add\n      mload(0x40)\n      dup1\n      swap2\n      sub\n      swap1\n      keccak256\n        /* \"contracts/GiftCardETH.sol\":6308:6342  giftCards[giftCardCodes[i]].getter */\n      0x03\n      add\n        /* \"contracts/GiftCardETH.sol\":6291:6343  abi.encodePacked(giftCards[giftCardCodes[i]].getter) */\n      add(0x20, mload(0x40))\n      tag_144\n      swap2\n      swap1\n      tag_105\n      jump\t// in\n    tag_144:\n      mload(0x40)\n      0x20\n      dup2\n      dup4\n      sub\n      sub\n      dup2\n      mstore\n      swap1\n      0x40\n      mstore\n        /* \"contracts/GiftCardETH.sol\":6260:6361  keccak256(... */\n      dup1\n      mload\n      swap1\n      0x20\n      add\n      keccak256\n        /* \"contracts/GiftCardETH.sol\":6260:6395  keccak256(... */\n      eq\n        /* \"contracts/GiftCardETH.sol\":6106:6395  keccak256(... */\n    tag_139:\n        /* \"contracts/GiftCardETH.sol\":6085:6512  if (... */\n      iszero\n      tag_145\n      jumpi\n        /* \"contracts/GiftCardETH.sol\":6445:6454  giftCards */\n      0x01\n        /* \"contracts/GiftCardETH.sol\":6455:6468  giftCardCodes */\n      0x03\n        /* \"contracts/GiftCardETH.sol\":6469:6470  i */\n      dup3\n        /* \"contracts/GiftCardETH.sol\":6455:6471  giftCardCodes[i] */\n      dup2\n      sload\n      dup2\n      lt\n      tag_146\n      jumpi\n      tag_147\n      tag_111\n      jump\t// in\n    tag_147:\n    tag_146:\n      swap1\n      0x00\n      mstore\n      keccak256(0x00, 0x20)\n      add\n        /* \"contracts/GiftCardETH.sol\":6445:6472  giftCards[giftCardCodes[i]] */\n      mload(0x40)\n      tag_149\n      swap2\n      swap1\n      tag_105\n      jump\t// in\n    tag_149:\n      swap1\n      dup2\n      mstore\n      0x20\n      add\n      mload(0x40)\n      dup1\n      swap2\n      sub\n      swap1\n      keccak256\n        /* \"contracts/GiftCardETH.sol\":6428:6472  myCards[index] = giftCards[giftCardCodes[i]] */\n      mload(0x40)\n      dup1\n      0x80\n      add\n      0x40\n      mstore\n      swap1\n      dup2\n      0x00\n      dup3\n      add\n      dup1\n      sload\n      tag_150\n      swap1\n      tag_60\n      jump\t// in\n    tag_150:\n      dup1\n      0x1f\n      add\n      0x20\n      dup1\n      swap2\n      div\n      mul\n      0x20\n      add\n      mload(0x40)\n      swap1\n      dup2\n      add\n      0x40\n      mstore\n      dup1\n      swap3\n      swap2\n      swap1\n      dup2\n      dup2\n      mstore\n      0x20\n      add\n      dup3\n      dup1\n      sload\n      tag_151\n      swap1\n      tag_60\n      jump\t// in\n    tag_151:\n      dup1\n      iszero\n      tag_152\n      jumpi\n      dup1\n      0x1f\n      lt\n      tag_153\n      jumpi\n      0x0100\n      dup1\n      dup4\n      sload\n      div\n      mul\n      dup4\n      mstore\n      swap2\n      0x20\n      add\n      swap2\n      jump(tag_152)\n    tag_153:\n      dup3\n      add\n      swap2\n      swap1\n      0x00\n      mstore\n      keccak256(0x00, 0x20)\n      swap1\n    tag_154:\n      dup2\n      sload\n      dup2\n      mstore\n      swap1\n      0x01\n      add\n      swap1\n      0x20\n      add\n      dup1\n      dup4\n      gt\n      tag_154\n      jumpi\n      dup3\n      swap1\n      sub\n      0x1f\n      and\n      dup3\n      add\n      swap2\n    tag_152:\n      pop\n      pop\n      pop\n      pop\n      pop\n      dup2\n      mstore\n      0x20\n      add\n      0x01\n      dup3\n      add\n      sload\n      dup2\n      mstore\n      0x20\n      add\n      0x02\n      dup3\n      add\n      0x00\n      swap1\n      sload\n      swap1\n      0x0100\n      exp\n      swap1\n      div\n      0xff\n      and\n      0x01\n      dup2\n      gt\n      iszero\n      tag_155\n      jumpi\n      tag_156\n      tag_64\n      jump\t// in\n    tag_156:\n    tag_155:\n      0x01\n      dup2\n      gt\n      iszero\n      tag_157\n      jumpi\n      tag_158\n      tag_64\n      jump\t// in\n    tag_158:\n    tag_157:\n      dup2\n      mstore\n      0x20\n      add\n      0x03\n      dup3\n      add\n      dup1\n      sload\n      tag_159\n      swap1\n      tag_60\n      jump\t// in\n    tag_159:\n      dup1\n      0x1f\n      add\n      0x20\n      dup1\n      swap2\n      div\n      mul\n      0x20\n      add\n      mload(0x40)\n      swap1\n      dup2\n      add\n      0x40\n      mstore\n      dup1\n      swap3\n      swap2\n      swap1\n      dup2\n      dup2\n      mstore\n      0x20\n      add\n      dup3\n      dup1\n      sload\n      tag_160\n      swap1\n      tag_60\n      jump\t// in\n    tag_160:\n      dup1\n      iszero\n      tag_161\n      jumpi\n      dup1\n      0x1f\n      lt\n      tag_162\n      jumpi\n      0x0100\n      dup1\n      dup4\n      sload\n      div\n      mul\n      dup4\n      mstore\n      swap2\n      0x20\n      add\n      swap2\n      jump(tag_161)\n    tag_162:\n      dup3\n      add\n      swap2\n      swap1\n      0x00\n      mstore\n      keccak256(0x00, 0x20)\n      swap1\n    tag_163:\n      dup2\n      sload\n      dup2\n      mstore\n      swap1\n      0x01\n      add\n      swap1\n      0x20\n      add\n      dup1\n      dup4\n      gt\n      tag_163\n      jumpi\n      dup3\n      swap1\n      sub\n      0x1f\n      and\n      dup3\n      add\n      swap2\n    tag_161:\n      pop\n      pop\n      pop\n      pop\n      pop\n      dup2\n      mstore\n      pop\n      pop\n        /* \"contracts/GiftCardETH.sol\":6428:6435  myCards */\n      dup4\n        /* \"contracts/GiftCardETH.sol\":6436:6441  index */\n      dup4\n        /* \"contracts/GiftCardETH.sol\":6428:6442  myCards[index] */\n      dup2\n      mload\n      dup2\n      lt\n      tag_164\n      jumpi\n      tag_165\n      tag_111\n      jump\t// in\n    tag_165:\n    tag_164:\n      0x20\n      mul\n      0x20\n      add\n      add\n        /* \"contracts/GiftCardETH.sol\":6428:6472  myCards[index] = giftCards[giftCardCodes[i]] */\n      dup2\n      swap1\n      mstore\n      pop\n        /* \"contracts/GiftCardETH.sol\":6490:6497  index++ */\n      dup2\n      dup1\n      tag_166\n      swap1\n      tag_123\n      jump\t// in\n    tag_166:\n      swap3\n      pop\n      pop\n        /* \"contracts/GiftCardETH.sol\":6085:6512  if (... */\n    tag_145:\n        /* \"contracts/GiftCardETH.sol\":6066:6069  i++ */\n      dup1\n      dup1\n      0x01\n      add\n      swap2\n      pop\n      pop\n        /* \"contracts/GiftCardETH.sol\":6020:6522  for (uint256 i = 0; i < giftCardCodes.length; i++) {... */\n      jump(tag_131)\n    tag_132:\n      pop\n        /* \"contracts/GiftCardETH.sol\":6539:6546  myCards */\n      dup2\n        /* \"contracts/GiftCardETH.sol\":6532:6546  return myCards */\n      swap5\n      pop\n      pop\n      pop\n      pop\n      pop\n        /* \"contracts/GiftCardETH.sol\":5220:6553  function getMyCard()... */\n      swap1\n      jump\t// out\n        /* \"contracts/GiftCardETH.sol\":2872:3636  function getGiftCardByStatus(GiftCardStatus status)... */\n    tag_36:\n        /* \"contracts/GiftCardETH.sol\":3017:3044  GiftCard[] memory giftcards */\n      0x60\n        /* \"contracts/GiftCardETH.sol\":1236:1237  0 */\n      0x00\n        /* \"contracts/GiftCardETH.sol\":1203:1208  users */\n      dup1\n        /* \"contracts/GiftCardETH.sol\":1203:1220  users[msg.sender] */\n      0x00\n        /* \"contracts/GiftCardETH.sol\":1209:1219  msg.sender */\n      caller\n        /* \"contracts/GiftCardETH.sol\":1203:1220  users[msg.sender] */\n      0xffffffffffffffffffffffffffffffffffffffff\n      and\n      0xffffffffffffffffffffffffffffffffffffffff\n      and\n      dup2\n      mstore\n      0x20\n      add\n      swap1\n      dup2\n      mstore\n      0x20\n      add\n      0x00\n      keccak256\n        /* \"contracts/GiftCardETH.sol\":1203:1225  users[msg.sender].name */\n      0x00\n      add\n        /* \"contracts/GiftCardETH.sol\":1197:1233  bytes(users[msg.sender].name).length */\n      dup1\n      sload\n      tag_168\n      swap1\n      tag_60\n      jump\t// in\n    tag_168:\n      swap1\n      pop\n        /* \"contracts/GiftCardETH.sol\":1197:1237  bytes(users[msg.sender].name).length > 0 */\n      gt\n        /* \"contracts/GiftCardETH.sol\":1176:1282  require(... */\n      tag_169\n      jumpi\n      mload(0x40)\n      0x08c379a000000000000000000000000000000000000000000000000000000000\n      dup2\n      mstore\n      0x04\n      add\n      tag_170\n      swap1\n      tag_76\n      jump\t// in\n    tag_170:\n      mload(0x40)\n      dup1\n      swap2\n      sub\n      swap1\n      revert\n    tag_169:\n        /* \"contracts/GiftCardETH.sol\":1387:1401  UserType.ADMIN */\n      0x01\n        /* \"contracts/GiftCardETH.sol\":1357:1401  users[msg.sender].userType == UserType.ADMIN */\n      dup1\n      dup2\n      gt\n      iszero\n      tag_172\n      jumpi\n      tag_173\n      tag_64\n      jump\t// in\n    tag_173:\n    tag_172:\n        /* \"contracts/GiftCardETH.sol\":1357:1362  users */\n      0x00\n        /* \"contracts/GiftCardETH.sol\":1357:1374  users[msg.sender] */\n      dup1\n        /* \"contracts/GiftCardETH.sol\":1363:1373  msg.sender */\n      caller\n        /* \"contracts/GiftCardETH.sol\":1357:1374  users[msg.sender] */\n      0xffffffffffffffffffffffffffffffffffffffff\n      and\n      0xffffffffffffffffffffffffffffffffffffffff\n      and\n      dup2\n      mstore\n      0x20\n      add\n      swap1\n      dup2\n      mstore\n      0x20\n      add\n      0x00\n      keccak256\n        /* \"contracts/GiftCardETH.sol\":1357:1383  users[msg.sender].userType */\n      0x01\n      add\n      0x01\n      swap1\n      sload\n      swap1\n      0x0100\n      exp\n      swap1\n      div\n      0xff\n      and\n        /* \"contracts/GiftCardETH.sol\":1357:1401  users[msg.sender].userType == UserType.ADMIN */\n      0x01\n      dup2\n      gt\n      iszero\n      tag_174\n      jumpi\n      tag_175\n      tag_64\n      jump\t// in\n    tag_175:\n    tag_174:\n      eq\n        /* \"contracts/GiftCardETH.sol\":1336:1447  require(... */\n      tag_176\n      jumpi\n      mload(0x40)\n      0x08c379a000000000000000000000000000000000000000000000000000000000\n      dup2\n      mstore\n      0x04\n      add\n      tag_177\n      swap1\n      tag_178\n      jump\t// in\n    tag_177:\n      mload(0x40)\n      dup1\n      swap2\n      sub\n      swap1\n      revert\n    tag_176:\n        /* \"contracts/GiftCardETH.sol\":3060:3073  uint256 count */\n      0x00\n        /* \"contracts/GiftCardETH.sol\":3087:3101  uint256 length */\n      dup1\n        /* \"contracts/GiftCardETH.sol\":3104:3117  giftCardCodes */\n      0x03\n        /* \"contracts/GiftCardETH.sol\":3104:3124  giftCardCodes.length */\n      dup1\n      sload\n      swap1\n      pop\n        /* \"contracts/GiftCardETH.sol\":3087:3124  uint256 length = giftCardCodes.length */\n      swap1\n      pop\n        /* \"contracts/GiftCardETH.sol\":3139:3148  uint256 i */\n      0x00\n        /* \"contracts/GiftCardETH.sol\":3134:3293  for (uint256 i = 0; i < length; i++) {... */\n    tag_180:\n        /* \"contracts/GiftCardETH.sol\":3158:3164  length */\n      dup2\n        /* \"contracts/GiftCardETH.sol\":3154:3155  i */\n      dup2\n        /* \"contracts/GiftCardETH.sol\":3154:3164  i < length */\n      lt\n        /* \"contracts/GiftCardETH.sol\":3134:3293  for (uint256 i = 0; i < length; i++) {... */\n      iszero\n      tag_181\n      jumpi\n        /* \"contracts/GiftCardETH.sol\":3235:3241  status */\n      dup5\n        /* \"contracts/GiftCardETH.sol\":3189:3241  giftCards[giftCardCodes[i]].giftCardStatus == status */\n      0x01\n      dup2\n      gt\n      iszero\n      tag_183\n      jumpi\n      tag_184\n      tag_64\n      jump\t// in\n    tag_184:\n    tag_183:\n        /* \"contracts/GiftCardETH.sol\":3189:3198  giftCards */\n      0x01\n        /* \"contracts/GiftCardETH.sol\":3199:3212  giftCardCodes */\n      0x03\n        /* \"contracts/GiftCardETH.sol\":3213:3214  i */\n      dup4\n        /* \"contracts/GiftCardETH.sol\":3199:3215  giftCardCodes[i] */\n      dup2\n      sload\n      dup2\n      lt\n      tag_185\n      jumpi\n      tag_186\n      tag_111\n      jump\t// in\n    tag_186:\n    tag_185:\n      swap1\n      0x00\n      mstore\n      keccak256(0x00, 0x20)\n      add\n        /* \"contracts/GiftCardETH.sol\":3189:3216  giftCards[giftCardCodes[i]] */\n      mload(0x40)\n      tag_188\n      swap2\n      swap1\n      tag_105\n      jump\t// in\n    tag_188:\n      swap1\n      dup2\n      mstore\n      0x20\n      add\n      mload(0x40)\n      dup1\n      swap2\n      sub\n      swap1\n      keccak256\n        /* \"contracts/GiftCardETH.sol\":3189:3231  giftCards[giftCardCodes[i]].giftCardStatus */\n      0x02\n      add\n      0x00\n      swap1\n      sload\n      swap1\n      0x0100\n      exp\n      swap1\n      div\n      0xff\n      and\n        /* \"contracts/GiftCardETH.sol\":3189:3241  giftCards[giftCardCodes[i]].giftCardStatus == status */\n      0x01\n      dup2\n      gt\n      iszero\n      tag_189\n      jumpi\n      tag_190\n      tag_64\n      jump\t// in\n    tag_190:\n    tag_189:\n      sub\n        /* \"contracts/GiftCardETH.sol\":3185:3283  if (giftCards[giftCardCodes[i]].giftCardStatus == status) {... */\n      tag_191\n      jumpi\n        /* \"contracts/GiftCardETH.sol\":3261:3268  count++ */\n      dup3\n      dup1\n      tag_192\n      swap1\n      tag_123\n      jump\t// in\n    tag_192:\n      swap4\n      pop\n      pop\n        /* \"contracts/GiftCardETH.sol\":3185:3283  if (giftCards[giftCardCodes[i]].giftCardStatus == status) {... */\n    tag_191:\n        /* \"contracts/GiftCardETH.sol\":3166:3169  i++ */\n      dup1\n      dup1\n      0x01\n      add\n      swap2\n      pop\n      pop\n        /* \"contracts/GiftCardETH.sol\":3134:3293  for (uint256 i = 0; i < length; i++) {... */\n      jump(tag_180)\n    tag_181:\n      pop\n        /* \"contracts/GiftCardETH.sol\":3302:3326  GiftCard[] memory result */\n      0x00\n        /* \"contracts/GiftCardETH.sol\":3344:3349  count */\n      dup3\n        /* \"contracts/GiftCardETH.sol\":3329:3350  new GiftCard[](count) */\n      0xffffffffffffffff\n      dup2\n      gt\n      iszero\n      tag_193\n      jumpi\n      tag_194\n      tag_126\n      jump\t// in\n    tag_194:\n    tag_193:\n      mload(0x40)\n      swap1\n      dup1\n      dup3\n      mstore\n      dup1\n      0x20\n      mul\n      0x20\n      add\n      dup3\n      add\n      0x40\n      mstore\n      dup1\n      iszero\n      tag_195\n      jumpi\n      dup2\n      0x20\n      add\n    tag_196:\n      tag_197\n      tag_130\n      jump\t// in\n    tag_197:\n      dup2\n      mstore\n      0x20\n      add\n      swap1\n      0x01\n      swap1\n      sub\n      swap1\n      dup2\n      tag_196\n      jumpi\n      swap1\n      pop\n    tag_195:\n      pop\n        /* \"contracts/GiftCardETH.sol\":3302:3350  GiftCard[] memory result = new GiftCard[](count) */\n      swap1\n      pop\n        /* \"contracts/GiftCardETH.sol\":3360:3373  uint256 index */\n      0x00\n        /* \"contracts/GiftCardETH.sol\":3392:3401  uint256 i */\n      dup1\n        /* \"contracts/GiftCardETH.sol\":3387:3607  for (uint256 i = 0; i < length; i++) {... */\n    tag_198:\n        /* \"contracts/GiftCardETH.sol\":3411:3417  length */\n      dup4\n        /* \"contracts/GiftCardETH.sol\":3407:3408  i */\n      dup2\n        /* \"contracts/GiftCardETH.sol\":3407:3417  i < length */\n      lt\n        /* \"contracts/GiftCardETH.sol\":3387:3607  for (uint256 i = 0; i < length; i++) {... */\n      iszero\n      tag_199\n      jumpi\n        /* \"contracts/GiftCardETH.sol\":3488:3494  status */\n      dup7\n        /* \"contracts/GiftCardETH.sol\":3442:3494  giftCards[giftCardCodes[i]].giftCardStatus == status */\n      0x01\n      dup2\n      gt\n      iszero\n      tag_201\n      jumpi\n      tag_202\n      tag_64\n      jump\t// in\n    tag_202:\n    tag_201:\n        /* \"contracts/GiftCardETH.sol\":3442:3451  giftCards */\n      0x01\n        /* \"contracts/GiftCardETH.sol\":3452:3465  giftCardCodes */\n      0x03\n        /* \"contracts/GiftCardETH.sol\":3466:3467  i */\n      dup4\n        /* \"contracts/GiftCardETH.sol\":3452:3468  giftCardCodes[i] */\n      dup2\n      sload\n      dup2\n      lt\n      tag_203\n      jumpi\n      tag_204\n      tag_111\n      jump\t// in\n    tag_204:\n    tag_203:\n      swap1\n      0x00\n      mstore\n      keccak256(0x00, 0x20)\n      add\n        /* \"contracts/GiftCardETH.sol\":3442:3469  giftCards[giftCardCodes[i]] */\n      mload(0x40)\n      tag_206\n      swap2\n      swap1\n      tag_105\n      jump\t// in\n    tag_206:\n      swap1\n      dup2\n      mstore\n      0x20\n      add\n      mload(0x40)\n      dup1\n      swap2\n      sub\n      swap1\n      keccak256\n        /* \"contracts/GiftCardETH.sol\":3442:3484  giftCards[giftCardCodes[i]].giftCardStatus */\n      0x02\n      add\n      0x00\n      swap1\n      sload\n      swap1\n      0x0100\n      exp\n      swap1\n      div\n      0xff\n      and\n        /* \"contracts/GiftCardETH.sol\":3442:3494  giftCards[giftCardCodes[i]].giftCardStatus == status */\n      0x01\n      dup2\n      gt\n      iszero\n      tag_207\n      jumpi\n      tag_208\n      tag_64\n      jump\t// in\n    tag_208:\n    tag_207:\n      sub\n        /* \"contracts/GiftCardETH.sol\":3438:3597  if (giftCards[giftCardCodes[i]].giftCardStatus == status) {... */\n      tag_209\n      jumpi\n        /* \"contracts/GiftCardETH.sol\":3530:3539  giftCards */\n      0x01\n        /* \"contracts/GiftCardETH.sol\":3540:3553  giftCardCodes */\n      0x03\n        /* \"contracts/GiftCardETH.sol\":3554:3555  i */\n      dup3\n        /* \"contracts/GiftCardETH.sol\":3540:3556  giftCardCodes[i] */\n      dup2\n      sload\n      dup2\n      lt\n      tag_210\n      jumpi\n      tag_211\n      tag_111\n      jump\t// in\n    tag_211:\n    tag_210:\n      swap1\n      0x00\n      mstore\n      keccak256(0x00, 0x20)\n      add\n        /* \"contracts/GiftCardETH.sol\":3530:3557  giftCards[giftCardCodes[i]] */\n      mload(0x40)\n      tag_213\n      swap2\n      swap1\n      tag_105\n      jump\t// in\n    tag_213:\n      swap1\n      dup2\n      mstore\n      0x20\n      add\n      mload(0x40)\n      dup1\n      swap2\n      sub\n      swap1\n      keccak256\n        /* \"contracts/GiftCardETH.sol\":3514:3557  result[index] = giftCards[giftCardCodes[i]] */\n      mload(0x40)\n      dup1\n      0x80\n      add\n      0x40\n      mstore\n      swap1\n      dup2\n      0x00\n      dup3\n      add\n      dup1\n      sload\n      tag_214\n      swap1\n      tag_60\n      jump\t// in\n    tag_214:\n      dup1\n      0x1f\n      add\n      0x20\n      dup1\n      swap2\n      div\n      mul\n      0x20\n      add\n      mload(0x40)\n      swap1\n      dup2\n      add\n      0x40\n      mstore\n      dup1\n      swap3\n      swap2\n      swap1\n      dup2\n      dup2\n      mstore\n      0x20\n      add\n      dup3\n      dup1\n      sload\n      tag_215\n      swap1\n      tag_60\n      jump\t// in\n    tag_215:\n      dup1\n      iszero\n      tag_216\n      jumpi\n      dup1\n      0x1f\n      lt\n      tag_217\n      jumpi\n      0x0100\n      dup1\n      dup4\n      sload\n      div\n      mul\n      dup4\n      mstore\n      swap2\n      0x20\n      add\n      swap2\n      jump(tag_216)\n    tag_217:\n      dup3\n      add\n      swap2\n      swap1\n      0x00\n      mstore\n      keccak256(0x00, 0x20)\n      swap1\n    tag_218:\n      dup2\n      sload\n      dup2\n      mstore\n      swap1\n      0x01\n      add\n      swap1\n      0x20\n      add\n      dup1\n      dup4\n      gt\n      tag_218\n      jumpi\n      dup3\n      swap1\n      sub\n      0x1f\n      and\n      dup3\n      add\n      swap2\n    tag_216:\n      pop\n      pop\n      pop\n      pop\n      pop\n      dup2\n      mstore\n      0x20\n      add\n      0x01\n      dup3\n      add\n      sload\n      dup2\n      mstore\n      0x20\n      add\n      0x02\n      dup3\n      add\n      0x00\n      swap1\n      sload\n      swap1\n      0x0100\n      exp\n      swap1\n      div\n      0xff\n      and\n      0x01\n      dup2\n      gt\n      iszero\n      tag_219\n      jumpi\n      tag_220\n      tag_64\n      jump\t// in\n    tag_220:\n    tag_219:\n      0x01\n      dup2\n      gt\n      iszero\n      tag_221\n      jumpi\n      tag_222\n      tag_64\n      jump\t// in\n    tag_222:\n    tag_221:\n      dup2\n      mstore\n      0x20\n      add\n      0x03\n      dup3\n      add\n      dup1\n      sload\n      tag_223\n      swap1\n      tag_60\n      jump\t// in\n    tag_223:\n      dup1\n      0x1f\n      add\n      0x20\n      dup1\n      swap2\n      div\n      mul\n      0x20\n      add\n      mload(0x40)\n      swap1\n      dup2\n      add\n      0x40\n      mstore\n      dup1\n      swap3\n      swap2\n      swap1\n      dup2\n      dup2\n      mstore\n      0x20\n      add\n      dup3\n      dup1\n      sload\n      tag_224\n      swap1\n      tag_60\n      jump\t// in\n    tag_224:\n      dup1\n      iszero\n      tag_225\n      jumpi\n      dup1\n      0x1f\n      lt\n      tag_226\n      jumpi\n      0x0100\n      dup1\n      dup4\n      sload\n      div\n      mul\n      dup4\n      mstore\n      swap2\n      0x20\n      add\n      swap2\n      jump(tag_225)\n    tag_226:\n      dup3\n      add\n      swap2\n      swap1\n      0x00\n      mstore\n      keccak256(0x00, 0x20)\n      swap1\n    tag_227:\n      dup2\n      sload\n      dup2\n      mstore\n      swap1\n      0x01\n      add\n      swap1\n      0x20\n      add\n      dup1\n      dup4\n      gt\n      tag_227\n      jumpi\n      dup3\n      swap1\n      sub\n      0x1f\n      and\n      dup3\n      add\n      swap2\n    tag_225:\n      pop\n      pop\n      pop\n      pop\n      pop\n      dup2\n      mstore\n      pop\n      pop\n        /* \"contracts/GiftCardETH.sol\":3514:3520  result */\n      dup4\n        /* \"contracts/GiftCardETH.sol\":3521:3526  index */\n      dup4\n        /* \"contracts/GiftCardETH.sol\":3514:3527  result[index] */\n      dup2\n      mload\n      dup2\n      lt\n      tag_228\n      jumpi\n      tag_229\n      tag_111\n      jump\t// in\n    tag_229:\n    tag_228:\n      0x20\n      mul\n      0x20\n      add\n      add\n        /* \"contracts/GiftCardETH.sol\":3514:3557  result[index] = giftCards[giftCardCodes[i]] */\n      dup2\n      swap1\n      mstore\n      pop\n        /* \"contracts/GiftCardETH.sol\":3575:3582  index++ */\n      dup2\n      dup1\n      tag_230\n      swap1\n      tag_123\n      jump\t// in\n    tag_230:\n      swap3\n      pop\n      pop\n        /* \"contracts/GiftCardETH.sol\":3438:3597  if (giftCards[giftCardCodes[i]].giftCardStatus == status) {... */\n    tag_209:\n        /* \"contracts/GiftCardETH.sol\":3419:3422  i++ */\n      dup1\n      dup1\n      0x01\n      add\n      swap2\n      pop\n      pop\n        /* \"contracts/GiftCardETH.sol\":3387:3607  for (uint256 i = 0; i < length; i++) {... */\n      jump(tag_198)\n    tag_199:\n      pop\n        /* \"contracts/GiftCardETH.sol\":3623:3629  result */\n      dup2\n        /* \"contracts/GiftCardETH.sol\":3616:3629  return result */\n      swap5\n      pop\n      pop\n      pop\n      pop\n      pop\n        /* \"contracts/GiftCardETH.sol\":2872:3636  function getGiftCardByStatus(GiftCardStatus status)... */\n      swap2\n      swap1\n      pop\n      jump\t// out\n        /* \"contracts/GiftCardETH.sol\":2305:2485  function registration(string calldata name, Gender gender) external {... */\n    tag_42:\n        /* \"contracts/GiftCardETH.sol\":2383:2396  userAddresses */\n      0x04\n        /* \"contracts/GiftCardETH.sol\":2402:2412  msg.sender */\n      caller\n        /* \"contracts/GiftCardETH.sol\":2383:2413  userAddresses.push(msg.sender) */\n      swap1\n      dup1\n      0x01\n      dup2\n      sload\n      add\n      dup1\n      dup3\n      sstore\n      dup1\n      swap2\n      pop\n      pop\n      0x01\n      swap1\n      sub\n      swap1\n      0x00\n      mstore\n      keccak256(0x00, 0x20)\n      add\n      0x00\n      swap1\n      swap2\n      swap1\n      swap2\n      swap1\n      swap2\n      0x0100\n      exp\n      dup2\n      sload\n      dup2\n      0xffffffffffffffffffffffffffffffffffffffff\n      mul\n      not\n      and\n      swap1\n      dup4\n      0xffffffffffffffffffffffffffffffffffffffff\n      and\n      mul\n      or\n      swap1\n      sstore\n      pop\n        /* \"contracts/GiftCardETH.sol\":2443:2478  User(name, gender, UserType.NORMAL) */\n      mload(0x40)\n      dup1\n      0x60\n      add\n      0x40\n      mstore\n      dup1\n        /* \"contracts/GiftCardETH.sol\":2448:2452  name */\n      dup5\n      dup5\n        /* \"contracts/GiftCardETH.sol\":2443:2478  User(name, gender, UserType.NORMAL) */\n      dup1\n      dup1\n      0x1f\n      add\n      0x20\n      dup1\n      swap2\n      div\n      mul\n      0x20\n      add\n      mload(0x40)\n      swap1\n      dup2\n      add\n      0x40\n      mstore\n      dup1\n      swap4\n      swap3\n      swap2\n      swap1\n      dup2\n      dup2\n      mstore\n      0x20\n      add\n      dup4\n      dup4\n      dup1\n      dup3\n      dup5\n      calldatacopy\n      0x00\n      dup2\n      dup5\n      add\n      mstore\n      not(0x1f)\n      0x1f\n      dup3\n      add\n      and\n      swap1\n      pop\n      dup1\n      dup4\n      add\n      swap3\n      pop\n      pop\n      pop\n      pop\n      pop\n      pop\n      pop\n      dup2\n      mstore\n      0x20\n      add\n        /* \"contracts/GiftCardETH.sol\":2454:2460  gender */\n      dup3\n        /* \"contracts/GiftCardETH.sol\":2443:2478  User(name, gender, UserType.NORMAL) */\n      0x01\n      dup2\n      gt\n      iszero\n      tag_233\n      jumpi\n      tag_234\n      tag_64\n      jump\t// in\n    tag_234:\n    tag_233:\n      dup2\n      mstore\n      0x20\n      add\n        /* \"contracts/GiftCardETH.sol\":2462:2477  UserType.NORMAL */\n      0x00\n        /* \"contracts/GiftCardETH.sol\":2443:2478  User(name, gender, UserType.NORMAL) */\n      0x01\n      dup2\n      gt\n      iszero\n      tag_235\n      jumpi\n      tag_236\n      tag_64\n      jump\t// in\n    tag_236:\n    tag_235:\n      dup2\n      mstore\n      pop\n        /* \"contracts/GiftCardETH.sol\":2423:2428  users */\n      0x00\n        /* \"contracts/GiftCardETH.sol\":2423:2440  users[msg.sender] */\n      dup1\n        /* \"contracts/GiftCardETH.sol\":2429:2439  msg.sender */\n      caller\n        /* \"contracts/GiftCardETH.sol\":2423:2440  users[msg.sender] */\n      0xffffffffffffffffffffffffffffffffffffffff\n      and\n      0xffffffffffffffffffffffffffffffffffffffff\n      and\n      dup2\n      mstore\n      0x20\n      add\n      swap1\n      dup2\n      mstore\n      0x20\n      add\n      0x00\n      keccak256\n        /* \"contracts/GiftCardETH.sol\":2423:2478  users[msg.sender] = User(name, gender, UserType.NORMAL) */\n      0x00\n      dup3\n      add\n      mload\n      dup2\n      0x00\n      add\n      swap1\n      dup2\n      tag_237\n      swap2\n      swap1\n      tag_238\n      jump\t// in\n    tag_237:\n      pop\n      0x20\n      dup3\n      add\n      mload\n      dup2\n      0x01\n      add\n      exp(0x0100, 0x00)\n      dup2\n      sload\n      dup2\n      0xff\n      mul\n      not\n      and\n      swap1\n      dup4\n      0x01\n      dup2\n      gt\n      iszero\n      tag_239\n      jumpi\n      tag_240\n      tag_64\n      jump\t// in\n    tag_240:\n    tag_239:\n      mul\n      or\n      swap1\n      sstore\n      pop\n      0x40\n      dup3\n      add\n      mload\n      dup2\n      0x01\n      add\n      exp(0x0100, 0x01)\n      dup2\n      sload\n      dup2\n      0xff\n      mul\n      not\n      and\n      swap1\n      dup4\n      0x01\n      dup2\n      gt\n      iszero\n      tag_241\n      jumpi\n      tag_242\n      tag_64\n      jump\t// in\n    tag_242:\n    tag_241:\n      mul\n      or\n      swap1\n      sstore\n      pop\n      swap1\n      pop\n      pop\n        /* \"contracts/GiftCardETH.sol\":2305:2485  function registration(string calldata name, Gender gender) external {... */\n      pop\n      pop\n      pop\n      jump\t// out\n        /* \"contracts/GiftCardETH.sol\":4975:5214  function buyGiftCard() external payable registeredUsersOnly {... */\n    tag_44:\n        /* \"contracts/GiftCardETH.sol\":1236:1237  0 */\n      0x00\n        /* \"contracts/GiftCardETH.sol\":1203:1208  users */\n      dup1\n        /* \"contracts/GiftCardETH.sol\":1203:1220  users[msg.sender] */\n      0x00\n        /* \"contracts/GiftCardETH.sol\":1209:1219  msg.sender */\n      caller\n        /* \"contracts/GiftCardETH.sol\":1203:1220  users[msg.sender] */\n      0xffffffffffffffffffffffffffffffffffffffff\n      and\n      0xffffffffffffffffffffffffffffffffffffffff\n      and\n      dup2\n      mstore\n      0x20\n      add\n      swap1\n      dup2\n      mstore\n      0x20\n      add\n      0x00\n      keccak256\n        /* \"contracts/GiftCardETH.sol\":1203:1225  users[msg.sender].name */\n      0x00\n      add\n        /* \"contracts/GiftCardETH.sol\":1197:1233  bytes(users[msg.sender].name).length */\n      dup1\n      sload\n      tag_244\n      swap1\n      tag_60\n      jump\t// in\n    tag_244:\n      swap1\n      pop\n        /* \"contracts/GiftCardETH.sol\":1197:1237  bytes(users[msg.sender].name).length > 0 */\n      gt\n        /* \"contracts/GiftCardETH.sol\":1176:1282  require(... */\n      tag_245\n      jumpi\n      mload(0x40)\n      0x08c379a000000000000000000000000000000000000000000000000000000000\n      dup2\n      mstore\n      0x04\n      add\n      tag_246\n      swap1\n      tag_76\n      jump\t// in\n    tag_246:\n      mload(0x40)\n      dup1\n      swap2\n      sub\n      swap1\n      revert\n    tag_245:\n        /* \"contracts/GiftCardETH.sol\":5045:5059  uint256 amount */\n      0x00\n        /* \"contracts/GiftCardETH.sol\":5081:5084  100 */\n      0x64\n        /* \"contracts/GiftCardETH.sol\":5075:5077  90 */\n      0x5a\n        /* \"contracts/GiftCardETH.sol\":5063:5072  msg.value */\n      callvalue\n        /* \"contracts/GiftCardETH.sol\":5063:5077  msg.value * 90 */\n      tag_248\n      swap2\n      swap1\n      tag_249\n      jump\t// in\n    tag_248:\n        /* \"contracts/GiftCardETH.sol\":5062:5084  (msg.value * 90) / 100 */\n      tag_250\n      swap2\n      swap1\n      tag_251\n      jump\t// in\n    tag_250:\n        /* \"contracts/GiftCardETH.sol\":5045:5084  uint256 amount = (msg.value * 90) / 100 */\n      swap1\n      pop\n        /* \"contracts/GiftCardETH.sol\":5094:5112  string memory code */\n      0x00\n        /* \"contracts/GiftCardETH.sol\":5115:5137  generateGiftCardCode() */\n      tag_252\n        /* \"contracts/GiftCardETH.sol\":5115:5135  generateGiftCardCode */\n      tag_253\n        /* \"contracts/GiftCardETH.sol\":5115:5137  generateGiftCardCode() */\n      jump\t// in\n    tag_252:\n        /* \"contracts/GiftCardETH.sol\":5094:5137  string memory code = generateGiftCardCode() */\n      swap1\n      pop\n        /* \"contracts/GiftCardETH.sol\":5147:5168  addCard(code, amount) */\n      tag_254\n        /* \"contracts/GiftCardETH.sol\":5155:5159  code */\n      dup2\n        /* \"contracts/GiftCardETH.sol\":5161:5167  amount */\n      dup4\n        /* \"contracts/GiftCardETH.sol\":5147:5154  addCard */\n      tag_255\n        /* \"contracts/GiftCardETH.sol\":5147:5168  addCard(code, amount) */\n      jump\t// in\n    tag_254:\n        /* \"contracts/GiftCardETH.sol\":5183:5207  CardBought(code, amount) */\n      0x19446f6741eca6d71b8406898c4308b5f1b9844f9f1ea7614b48264e453b9bd2\n        /* \"contracts/GiftCardETH.sol\":5194:5198  code */\n      dup2\n        /* \"contracts/GiftCardETH.sol\":5200:5206  amount */\n      dup4\n        /* \"contracts/GiftCardETH.sol\":5183:5207  CardBought(code, amount) */\n      mload(0x40)\n      tag_256\n      swap3\n      swap2\n      swap1\n      tag_257\n      jump\t// in\n    tag_256:\n      mload(0x40)\n      dup1\n      swap2\n      sub\n      swap1\n      log1\n        /* \"contracts/GiftCardETH.sol\":5035:5214  {... */\n      pop\n      pop\n        /* \"contracts/GiftCardETH.sol\":4975:5214  function buyGiftCard() external payable registeredUsersOnly {... */\n      jump\t// out\n        /* \"contracts/GiftCardETH.sol\":3642:4041  function getAllGiftCards()... */\n    tag_47:\n        /* \"contracts/GiftCardETH.sol\":3762:3789  GiftCard[] memory giftcards */\n      0x60\n        /* \"contracts/GiftCardETH.sol\":1236:1237  0 */\n      0x00\n        /* \"contracts/GiftCardETH.sol\":1203:1208  users */\n      dup1\n        /* \"contracts/GiftCardETH.sol\":1203:1220  users[msg.sender] */\n      0x00\n        /* \"contracts/GiftCardETH.sol\":1209:1219  msg.sender */\n      caller\n        /* \"contracts/GiftCardETH.sol\":1203:1220  users[msg.sender] */\n      0xffffffffffffffffffffffffffffffffffffffff\n      and\n      0xffffffffffffffffffffffffffffffffffffffff\n      and\n      dup2\n      mstore\n      0x20\n      add\n      swap1\n      dup2\n      mstore\n      0x20\n      add\n      0x00\n      keccak256\n        /* \"contracts/GiftCardETH.sol\":1203:1225  users[msg.sender].name */\n      0x00\n      add\n        /* \"contracts/GiftCardETH.sol\":1197:1233  bytes(users[msg.sender].name).length */\n      dup1\n      sload\n      tag_259\n      swap1\n      tag_60\n      jump\t// in\n    tag_259:\n      swap1\n      pop\n        /* \"contracts/GiftCardETH.sol\":1197:1237  bytes(users[msg.sender].name).length > 0 */\n      gt\n        /* \"contracts/GiftCardETH.sol\":1176:1282  require(... */\n      tag_260\n      jumpi\n      mload(0x40)\n      0x08c379a000000000000000000000000000000000000000000000000000000000\n      dup2\n      mstore\n      0x04\n      add\n      tag_261\n      swap1\n      tag_76\n      jump\t// in\n    tag_261:\n      mload(0x40)\n      dup1\n      swap2\n      sub\n      swap1\n      revert\n    tag_260:\n        /* \"contracts/GiftCardETH.sol\":1387:1401  UserType.ADMIN */\n      0x01\n        /* \"contracts/GiftCardETH.sol\":1357:1401  users[msg.sender].userType == UserType.ADMIN */\n      dup1\n      dup2\n      gt\n      iszero\n      tag_263\n      jumpi\n      tag_264\n      tag_64\n      jump\t// in\n    tag_264:\n    tag_263:\n        /* \"contracts/GiftCardETH.sol\":1357:1362  users */\n      0x00\n        /* \"contracts/GiftCardETH.sol\":1357:1374  users[msg.sender] */\n      dup1\n        /* \"contracts/GiftCardETH.sol\":1363:1373  msg.sender */\n      caller\n        /* \"contracts/GiftCardETH.sol\":1357:1374  users[msg.sender] */\n      0xffffffffffffffffffffffffffffffffffffffff\n      and\n      0xffffffffffffffffffffffffffffffffffffffff\n      and\n      dup2\n      mstore\n      0x20\n      add\n      swap1\n      dup2\n      mstore\n      0x20\n      add\n      0x00\n      keccak256\n        /* \"contracts/GiftCardETH.sol\":1357:1383  users[msg.sender].userType */\n      0x01\n      add\n      0x01\n      swap1\n      sload\n      swap1\n      0x0100\n      exp\n      swap1\n      div\n      0xff\n      and\n        /* \"contracts/GiftCardETH.sol\":1357:1401  users[msg.sender].userType == UserType.ADMIN */\n      0x01\n      dup2\n      gt\n      iszero\n      tag_265\n      jumpi\n      tag_266\n      tag_64\n      jump\t// in\n    tag_266:\n    tag_265:\n      eq\n        /* \"contracts/GiftCardETH.sol\":1336:1447  require(... */\n      tag_267\n      jumpi\n      mload(0x40)\n      0x08c379a000000000000000000000000000000000000000000000000000000000\n      dup2\n      mstore\n      0x04\n      add\n      tag_268\n      swap1\n      tag_178\n      jump\t// in\n    tag_268:\n      mload(0x40)\n      dup1\n      swap2\n      sub\n      swap1\n      revert\n    tag_267:\n        /* \"contracts/GiftCardETH.sol\":3805:3819  uint256 length */\n      0x00\n        /* \"contracts/GiftCardETH.sol\":3822:3835  giftCardCodes */\n      0x03\n        /* \"contracts/GiftCardETH.sol\":3822:3842  giftCardCodes.length */\n      dup1\n      sload\n      swap1\n      pop\n        /* \"contracts/GiftCardETH.sol\":3805:3842  uint256 length = giftCardCodes.length */\n      swap1\n      pop\n        /* \"contracts/GiftCardETH.sol\":3852:3876  GiftCard[] memory result */\n      0x00\n        /* \"contracts/GiftCardETH.sol\":3894:3900  length */\n      dup2\n        /* \"contracts/GiftCardETH.sol\":3879:3901  new GiftCard[](length) */\n      0xffffffffffffffff\n      dup2\n      gt\n      iszero\n      tag_270\n      jumpi\n      tag_271\n      tag_126\n      jump\t// in\n    tag_271:\n    tag_270:\n      mload(0x40)\n      swap1\n      dup1\n      dup3\n      mstore\n      dup1\n      0x20\n      mul\n      0x20\n      add\n      dup3\n      add\n      0x40\n      mstore\n      dup1\n      iszero\n      tag_272\n      jumpi\n      dup2\n      0x20\n      add\n    tag_273:\n      tag_274\n      tag_130\n      jump\t// in\n    tag_274:\n      dup2\n      mstore\n      0x20\n      add\n      swap1\n      0x01\n      swap1\n      sub\n      swap1\n      dup2\n      tag_273\n      jumpi\n      swap1\n      pop\n    tag_272:\n      pop\n        /* \"contracts/GiftCardETH.sol\":3852:3901  GiftCard[] memory result = new GiftCard[](length) */\n      swap1\n      pop\n        /* \"contracts/GiftCardETH.sol\":3916:3925  uint256 i */\n      0x00\n        /* \"contracts/GiftCardETH.sol\":3911:4012  for (uint256 i = 0; i < length; i++) {... */\n    tag_275:\n        /* \"contracts/GiftCardETH.sol\":3935:3941  length */\n      dup3\n        /* \"contracts/GiftCardETH.sol\":3931:3932  i */\n      dup2\n        /* \"contracts/GiftCardETH.sol\":3931:3941  i < length */\n      lt\n        /* \"contracts/GiftCardETH.sol\":3911:4012  for (uint256 i = 0; i < length; i++) {... */\n      iszero\n      tag_276\n      jumpi\n        /* \"contracts/GiftCardETH.sol\":3974:3983  giftCards */\n      0x01\n        /* \"contracts/GiftCardETH.sol\":3984:3997  giftCardCodes */\n      0x03\n        /* \"contracts/GiftCardETH.sol\":3998:3999  i */\n      dup3\n        /* \"contracts/GiftCardETH.sol\":3984:4000  giftCardCodes[i] */\n      dup2\n      sload\n      dup2\n      lt\n      tag_278\n      jumpi\n      tag_279\n      tag_111\n      jump\t// in\n    tag_279:\n    tag_278:\n      swap1\n      0x00\n      mstore\n      keccak256(0x00, 0x20)\n      add\n        /* \"contracts/GiftCardETH.sol\":3974:4001  giftCards[giftCardCodes[i]] */\n      mload(0x40)\n      tag_281\n      swap2\n      swap1\n      tag_105\n      jump\t// in\n    tag_281:\n      swap1\n      dup2\n      mstore\n      0x20\n      add\n      mload(0x40)\n      dup1\n      swap2\n      sub\n      swap1\n      keccak256\n        /* \"contracts/GiftCardETH.sol\":3962:4001  result[i] = giftCards[giftCardCodes[i]] */\n      mload(0x40)\n      dup1\n      0x80\n      add\n      0x40\n      mstore\n      swap1\n      dup2\n      0x00\n      dup3\n      add\n      dup1\n      sload\n      tag_282\n      swap1\n      tag_60\n      jump\t// in\n    tag_282:\n      dup1\n      0x1f\n      add\n      0x20\n      dup1\n      swap2\n      div\n      mul\n      0x20\n      add\n      mload(0x40)\n      swap1\n      dup2\n      add\n      0x40\n      mstore\n      dup1\n      swap3\n      swap2\n      swap1\n      dup2\n      dup2\n      mstore\n      0x20\n      add\n      dup3\n      dup1\n      sload\n      tag_283\n      swap1\n      tag_60\n      jump\t// in\n    tag_283:\n      dup1\n      iszero\n      tag_284\n      jumpi\n      dup1\n      0x1f\n      lt\n      tag_285\n      jumpi\n      0x0100\n      dup1\n      dup4\n      sload\n      div\n      mul\n      dup4\n      mstore\n      swap2\n      0x20\n      add\n      swap2\n      jump(tag_284)\n    tag_285:\n      dup3\n      add\n      swap2\n      swap1\n      0x00\n      mstore\n      keccak256(0x00, 0x20)\n      swap1\n    tag_286:\n      dup2\n      sload\n      dup2\n      mstore\n      swap1\n      0x01\n      add\n      swap1\n      0x20\n      add\n      dup1\n      dup4\n      gt\n      tag_286\n      jumpi\n      dup3\n      swap1\n      sub\n      0x1f\n      and\n      dup3\n      add\n      swap2\n    tag_284:\n      pop\n      pop\n      pop\n      pop\n      pop\n      dup2\n      mstore\n      0x20\n      add\n      0x01\n      dup3\n      add\n      sload\n      dup2\n      mstore\n      0x20\n      add\n      0x02\n      dup3\n      add\n      0x00\n      swap1\n      sload\n      swap1\n      0x0100\n      exp\n      swap1\n      div\n      0xff\n      and\n      0x01\n      dup2\n      gt\n      iszero\n      tag_287\n      jumpi\n      tag_288\n      tag_64\n      jump\t// in\n    tag_288:\n    tag_287:\n      0x01\n      dup2\n      gt\n      iszero\n      tag_289\n      jumpi\n      tag_290\n      tag_64\n      jump\t// in\n    tag_290:\n    tag_289:\n      dup2\n      mstore\n      0x20\n      add\n      0x03\n      dup3\n      add\n      dup1\n      sload\n      tag_291\n      swap1\n      tag_60\n      jump\t// in\n    tag_291:\n      dup1\n      0x1f\n      add\n      0x20\n      dup1\n      swap2\n      div\n      mul\n      0x20\n      add\n      mload(0x40)\n      swap1\n      dup2\n      add\n      0x40\n      mstore\n      dup1\n      swap3\n      swap2\n      swap1\n      dup2\n      dup2\n      mstore\n      0x20\n      add\n      dup3\n      dup1\n      sload\n      tag_292\n      swap1\n      tag_60\n      jump\t// in\n    tag_292:\n      dup1\n      iszero\n      tag_293\n      jumpi\n      dup1\n      0x1f\n      lt\n      tag_294\n      jumpi\n      0x0100\n      dup1\n      dup4\n      sload\n      div\n      mul\n      dup4\n      mstore\n      swap2\n      0x20\n      add\n      swap2\n      jump(tag_293)\n    tag_294:\n      dup3\n      add\n      swap2\n      swap1\n      0x00\n      mstore\n      keccak256(0x00, 0x20)\n      swap1\n    tag_295:\n      dup2\n      sload\n      dup2\n      mstore\n      swap1\n      0x01\n      add\n      swap1\n      0x20\n      add\n      dup1\n      dup4\n      gt\n      tag_295\n      jumpi\n      dup3\n      swap1\n      sub\n      0x1f\n      and\n      dup3\n      add\n      swap2\n    tag_293:\n      pop\n      pop\n      pop\n      pop\n      pop\n      dup2\n      mstore\n      pop\n      pop\n        /* \"contracts/GiftCardETH.sol\":3962:3968  result */\n      dup3\n        /* \"contracts/GiftCardETH.sol\":3969:3970  i */\n      dup3\n        /* \"contracts/GiftCardETH.sol\":3962:3971  result[i] */\n      dup2\n      mload\n      dup2\n      lt\n      tag_296\n      jumpi\n      tag_297\n      tag_111\n      jump\t// in\n    tag_297:\n    tag_296:\n      0x20\n      mul\n      0x20\n      add\n      add\n        /* \"contracts/GiftCardETH.sol\":3962:4001  result[i] = giftCards[giftCardCodes[i]] */\n      dup2\n      swap1\n      mstore\n      pop\n        /* \"contracts/GiftCardETH.sol\":3943:3946  i++ */\n      dup1\n      dup1\n      0x01\n      add\n      swap2\n      pop\n      pop\n        /* \"contracts/GiftCardETH.sol\":3911:4012  for (uint256 i = 0; i < length; i++) {... */\n      jump(tag_275)\n    tag_276:\n      pop\n        /* \"contracts/GiftCardETH.sol\":4028:4034  result */\n      dup1\n        /* \"contracts/GiftCardETH.sol\":4021:4034  return result */\n      swap3\n      pop\n      pop\n      pop\n        /* \"contracts/GiftCardETH.sol\":3642:4041  function getAllGiftCards()... */\n      swap1\n      jump\t// out\n        /* \"contracts/GiftCardETH.sol\":2491:2625  function isAdmin() public view registeredUsersOnly returns (bool) {... */\n    tag_51:\n        /* \"contracts/GiftCardETH.sol\":2551:2555  bool */\n      0x00\n        /* \"contracts/GiftCardETH.sol\":1236:1237  0 */\n      dup1\n        /* \"contracts/GiftCardETH.sol\":1203:1208  users */\n      0x00\n        /* \"contracts/GiftCardETH.sol\":1203:1220  users[msg.sender] */\n      dup1\n        /* \"contracts/GiftCardETH.sol\":1209:1219  msg.sender */\n      caller\n        /* \"contracts/GiftCardETH.sol\":1203:1220  users[msg.sender] */\n      0xffffffffffffffffffffffffffffffffffffffff\n      and\n      0xffffffffffffffffffffffffffffffffffffffff\n      and\n      dup2\n      mstore\n      0x20\n      add\n      swap1\n      dup2\n      mstore\n      0x20\n      add\n      0x00\n      keccak256\n        /* \"contracts/GiftCardETH.sol\":1203:1225  users[msg.sender].name */\n      0x00\n      add\n        /* \"contracts/GiftCardETH.sol\":1197:1233  bytes(users[msg.sender].name).length */\n      dup1\n      sload\n      tag_299\n      swap1\n      tag_60\n      jump\t// in\n    tag_299:\n      swap1\n      pop\n        /* \"contracts/GiftCardETH.sol\":1197:1237  bytes(users[msg.sender].name).length > 0 */\n      gt\n        /* \"contracts/GiftCardETH.sol\":1176:1282  require(... */\n      tag_300\n      jumpi\n      mload(0x40)\n      0x08c379a000000000000000000000000000000000000000000000000000000000\n      dup2\n      mstore\n      0x04\n      add\n      tag_301\n      swap1\n      tag_76\n      jump\t// in\n    tag_301:\n      mload(0x40)\n      dup1\n      swap2\n      sub\n      swap1\n      revert\n    tag_300:\n        /* \"contracts/GiftCardETH.sol\":2604:2618  UserType.ADMIN */\n      0x01\n        /* \"contracts/GiftCardETH.sol\":2574:2618  users[msg.sender].userType == UserType.ADMIN */\n      dup1\n      dup2\n      gt\n      iszero\n      tag_303\n      jumpi\n      tag_304\n      tag_64\n      jump\t// in\n    tag_304:\n    tag_303:\n        /* \"contracts/GiftCardETH.sol\":2574:2579  users */\n      0x00\n        /* \"contracts/GiftCardETH.sol\":2574:2591  users[msg.sender] */\n      dup1\n        /* \"contracts/GiftCardETH.sol\":2580:2590  msg.sender */\n      caller\n        /* \"contracts/GiftCardETH.sol\":2574:2591  users[msg.sender] */\n      0xffffffffffffffffffffffffffffffffffffffff\n      and\n      0xffffffffffffffffffffffffffffffffffffffff\n      and\n      dup2\n      mstore\n      0x20\n      add\n      swap1\n      dup2\n      mstore\n      0x20\n      add\n      0x00\n      keccak256\n        /* \"contracts/GiftCardETH.sol\":2574:2600  users[msg.sender].userType */\n      0x01\n      add\n      0x01\n      swap1\n      sload\n      swap1\n      0x0100\n      exp\n      swap1\n      div\n      0xff\n      and\n        /* \"contracts/GiftCardETH.sol\":2574:2618  users[msg.sender].userType == UserType.ADMIN */\n      0x01\n      dup2\n      gt\n      iszero\n      tag_305\n      jumpi\n      tag_306\n      tag_64\n      jump\t// in\n    tag_306:\n    tag_305:\n      eq\n        /* \"contracts/GiftCardETH.sol\":2567:2618  return users[msg.sender].userType == UserType.ADMIN */\n      swap1\n      pop\n        /* \"contracts/GiftCardETH.sol\":2491:2625  function isAdmin() public view registeredUsersOnly returns (bool) {... */\n      swap1\n      jump\t// out\n        /* \"contracts/GiftCardETH.sol\":2631:2747  function getMyData() public registeredUsersOnly view returns (User memory) {... */\n    tag_55:\n        /* \"contracts/GiftCardETH.sol\":2693:2704  User memory */\n      tag_307\n      tag_308\n      jump\t// in\n    tag_307:\n        /* \"contracts/GiftCardETH.sol\":1236:1237  0 */\n      0x00\n        /* \"contracts/GiftCardETH.sol\":1203:1208  users */\n      dup1\n        /* \"contracts/GiftCardETH.sol\":1203:1220  users[msg.sender] */\n      0x00\n        /* \"contracts/GiftCardETH.sol\":1209:1219  msg.sender */\n      caller\n        /* \"contracts/GiftCardETH.sol\":1203:1220  users[msg.sender] */\n      0xffffffffffffffffffffffffffffffffffffffff\n      and\n      0xffffffffffffffffffffffffffffffffffffffff\n      and\n      dup2\n      mstore\n      0x20\n      add\n      swap1\n      dup2\n      mstore\n      0x20\n      add\n      0x00\n      keccak256\n        /* \"contracts/GiftCardETH.sol\":1203:1225  users[msg.sender].name */\n      0x00\n      add\n        /* \"contracts/GiftCardETH.sol\":1197:1233  bytes(users[msg.sender].name).length */\n      dup1\n      sload\n      tag_310\n      swap1\n      tag_60\n      jump\t// in\n    tag_310:\n      swap1\n      pop\n        /* \"contracts/GiftCardETH.sol\":1197:1237  bytes(users[msg.sender].name).length > 0 */\n      gt\n        /* \"contracts/GiftCardETH.sol\":1176:1282  require(... */\n      tag_311\n      jumpi\n      mload(0x40)\n      0x08c379a000000000000000000000000000000000000000000000000000000000\n      dup2\n      mstore\n      0x04\n      add\n      tag_312\n      swap1\n      tag_76\n      jump\t// in\n    tag_312:\n      mload(0x40)\n      dup1\n      swap2\n      sub\n      swap1\n      revert\n    tag_311:\n        /* \"contracts/GiftCardETH.sol\":2723:2728  users */\n      0x00\n        /* \"contracts/GiftCardETH.sol\":2723:2740  users[msg.sender] */\n      dup1\n        /* \"contracts/GiftCardETH.sol\":2729:2739  msg.sender */\n      caller\n        /* \"contracts/GiftCardETH.sol\":2723:2740  users[msg.sender] */\n      0xffffffffffffffffffffffffffffffffffffffff\n      and\n      0xffffffffffffffffffffffffffffffffffffffff\n      and\n      dup2\n      mstore\n      0x20\n      add\n      swap1\n      dup2\n      mstore\n      0x20\n      add\n      0x00\n      keccak256\n        /* \"contracts/GiftCardETH.sol\":2716:2740  return users[msg.sender] */\n      mload(0x40)\n      dup1\n      0x60\n      add\n      0x40\n      mstore\n      swap1\n      dup2\n      0x00\n      dup3\n      add\n      dup1\n      sload\n      tag_314\n      swap1\n      tag_60\n      jump\t// in\n    tag_314:\n      dup1\n      0x1f\n      add\n      0x20\n      dup1\n      swap2\n      div\n      mul\n      0x20\n      add\n      mload(0x40)\n      swap1\n      dup2\n      add\n      0x40\n      mstore\n      dup1\n      swap3\n      swap2\n      swap1\n      dup2\n      dup2\n      mstore\n      0x20\n      add\n      dup3\n      dup1\n      sload\n      tag_315\n      swap1\n      tag_60\n      jump\t// in\n    tag_315:\n      dup1\n      iszero\n      tag_316\n      jumpi\n      dup1\n      0x1f\n      lt\n      tag_317\n      jumpi\n      0x0100\n      dup1\n      dup4\n      sload\n      div\n      mul\n      dup4\n      mstore\n      swap2\n      0x20\n      add\n      swap2\n      jump(tag_316)\n    tag_317:\n      dup3\n      add\n      swap2\n      swap1\n      0x00\n      mstore\n      keccak256(0x00, 0x20)\n      swap1\n    tag_318:\n      dup2\n      sload\n      dup2\n      mstore\n      swap1\n      0x01\n      add\n      swap1\n      0x20\n      add\n      dup1\n      dup4\n      gt\n      tag_318\n      jumpi\n      dup3\n      swap1\n      sub\n      0x1f\n      and\n      dup3\n      add\n      swap2\n    tag_316:\n      pop\n      pop\n      pop\n      pop\n      pop\n      dup2\n      mstore\n      0x20\n      add\n      0x01\n      dup3\n      add\n      0x00\n      swap1\n      sload\n      swap1\n      0x0100\n      exp\n      swap1\n      div\n      0xff\n      and\n      0x01\n      dup2\n      gt\n      iszero\n      tag_319\n      jumpi\n      tag_320\n      tag_64\n      jump\t// in\n    tag_320:\n    tag_319:\n      0x01\n      dup2\n      gt\n      iszero\n      tag_321\n      jumpi\n      tag_322\n      tag_64\n      jump\t// in\n    tag_322:\n    tag_321:\n      dup2\n      mstore\n      0x20\n      add\n      0x01\n      dup3\n      add\n      0x01\n      swap1\n      sload\n      swap1\n      0x0100\n      exp\n      swap1\n      div\n      0xff\n      and\n      0x01\n      dup2\n      gt\n      iszero\n      tag_323\n      jumpi\n      tag_324\n      tag_64\n      jump\t// in\n    tag_324:\n    tag_323:\n      0x01\n      dup2\n      gt\n      iszero\n      tag_325\n      jumpi\n      tag_326\n      tag_64\n      jump\t// in\n    tag_326:\n    tag_325:\n      dup2\n      mstore\n      pop\n      pop\n      swap1\n      pop\n        /* \"contracts/GiftCardETH.sol\":2631:2747  function getMyData() public registeredUsersOnly view returns (User memory) {... */\n      swap1\n      jump\t// out\n        /* \"contracts/GiftCardETH.sol\":4312:4659  function generateGiftCardCode() private view returns (string memory) {... */\n    tag_253:\n        /* \"contracts/GiftCardETH.sol\":4366:4379  string memory */\n      0x60\n        /* \"contracts/GiftCardETH.sol\":4391:4416  bytes memory randomString */\n      0x00\n        /* \"contracts/GiftCardETH.sol\":4429:4431  15 */\n      0x0f\n        /* \"contracts/GiftCardETH.sol\":4419:4432  new bytes(15) */\n      0xffffffffffffffff\n      dup2\n      gt\n      iszero\n      tag_328\n      jumpi\n      tag_329\n      tag_126\n      jump\t// in\n    tag_329:\n    tag_328:\n      mload(0x40)\n      swap1\n      dup1\n      dup3\n      mstore\n      dup1\n      0x1f\n      add\n      not(0x1f)\n      and\n      0x20\n      add\n      dup3\n      add\n      0x40\n      mstore\n      dup1\n      iszero\n      tag_330\n      jumpi\n      dup2\n      0x20\n      add\n      0x01\n      dup3\n      mul\n      dup1\n      calldatasize\n      dup4\n      calldatacopy\n      dup1\n      dup3\n      add\n      swap2\n      pop\n      pop\n      swap1\n      pop\n    tag_330:\n      pop\n        /* \"contracts/GiftCardETH.sol\":4391:4432  bytes memory randomString = new bytes(15) */\n      swap1\n      pop\n        /* \"contracts/GiftCardETH.sol\":4447:4456  uint256 i */\n      0x00\n        /* \"contracts/GiftCardETH.sol\":4442:4616  for (uint256 i = 0; i < 15; i++) {... */\n    tag_331:\n        /* \"contracts/GiftCardETH.sol\":4466:4468  15 */\n      0x0f\n        /* \"contracts/GiftCardETH.sol\":4462:4463  i */\n      dup2\n        /* \"contracts/GiftCardETH.sol\":4462:4468  i < 15 */\n      lt\n        /* \"contracts/GiftCardETH.sol\":4442:4616  for (uint256 i = 0; i < 15; i++) {... */\n      iszero\n      tag_332\n      jumpi\n        /* \"contracts/GiftCardETH.sol\":4489:4511  uint256 randomCharCode */\n      0x00\n        /* \"contracts/GiftCardETH.sol\":4514:4532  getRandomNumber(i) */\n      tag_334\n        /* \"contracts/GiftCardETH.sol\":4530:4531  i */\n      dup3\n        /* \"contracts/GiftCardETH.sol\":4514:4529  getRandomNumber */\n      tag_335\n        /* \"contracts/GiftCardETH.sol\":4514:4532  getRandomNumber(i) */\n      jump\t// in\n    tag_334:\n        /* \"contracts/GiftCardETH.sol\":4489:4532  uint256 randomCharCode = getRandomNumber(i) */\n      swap1\n      pop\n        /* \"contracts/GiftCardETH.sol\":4600:4602  26 */\n      0x1a\n        /* \"contracts/GiftCardETH.sol\":4583:4597  randomCharCode */\n      dup2\n        /* \"contracts/GiftCardETH.sol\":4583:4602  randomCharCode % 26 */\n      tag_336\n      swap2\n      swap1\n      tag_337\n      jump\t// in\n    tag_336:\n        /* \"contracts/GiftCardETH.sol\":4577:4579  97 */\n      0x61\n        /* \"contracts/GiftCardETH.sol\":4577:4603  97 + (randomCharCode % 26) */\n      tag_338\n      swap2\n      swap1\n      tag_339\n      jump\t// in\n    tag_338:\n        /* \"contracts/GiftCardETH.sol\":4564:4605  bytes1(uint8(97 + (randomCharCode % 26))) */\n      0xf8\n      shl\n        /* \"contracts/GiftCardETH.sol\":4546:4558  randomString */\n      dup4\n        /* \"contracts/GiftCardETH.sol\":4559:4560  i */\n      dup4\n        /* \"contracts/GiftCardETH.sol\":4546:4561  randomString[i] */\n      dup2\n      mload\n      dup2\n      lt\n      tag_340\n      jumpi\n      tag_341\n      tag_111\n      jump\t// in\n    tag_341:\n    tag_340:\n      0x20\n      add\n      add\n        /* \"contracts/GiftCardETH.sol\":4546:4605  randomString[i] = bytes1(uint8(97 + (randomCharCode % 26))) */\n      swap1\n      not(0xffffffffffffffffffffffffffffffffffffffffffffffffffffffffffffff)\n      and\n      swap1\n      dup2\n      0x00\n      byte\n      swap1\n      mstore8\n      pop\n        /* \"contracts/GiftCardETH.sol\":4475:4616  {... */\n      pop\n        /* \"contracts/GiftCardETH.sol\":4470:4473  i++ */\n      dup1\n      dup1\n      0x01\n      add\n      swap2\n      pop\n      pop\n        /* \"contracts/GiftCardETH.sol\":4442:4616  for (uint256 i = 0; i < 15; i++) {... */\n      jump(tag_331)\n    tag_332:\n      pop\n        /* \"contracts/GiftCardETH.sol\":4639:4651  randomString */\n      dup1\n        /* \"contracts/GiftCardETH.sol\":4625:4652  return string(randomString) */\n      swap2\n      pop\n      pop\n        /* \"contracts/GiftCardETH.sol\":4312:4659  function generateGiftCardCode() private view returns (string memory) {... */\n      swap1\n      jump\t// out\n        /* \"contracts/GiftCardETH.sol\":4665:4969  function addCard(string memory code, uint256 amount)... */\n    tag_255:\n        /* \"contracts/GiftCardETH.sol\":4766:4770  code */\n      dup2\n        /* \"contracts/GiftCardETH.sol\":1924:1936  bool isExist */\n      0x00\n        /* \"contracts/GiftCardETH.sol\":1959:1968  uint256 i */\n      dup1\n        /* \"contracts/GiftCardETH.sol\":1954:2233  for (uint256 i = 0; i < giftCardCodes.length; i++) {... */\n    tag_343:\n        /* \"contracts/GiftCardETH.sol\":1978:1991  giftCardCodes */\n      0x03\n        /* \"contracts/GiftCardETH.sol\":1978:1998  giftCardCodes.length */\n      dup1\n      sload\n      swap1\n      pop\n        /* \"contracts/GiftCardETH.sol\":1974:1975  i */\n      dup2\n        /* \"contracts/GiftCardETH.sol\":1974:1998  i < giftCardCodes.length */\n      lt\n        /* \"contracts/GiftCardETH.sol\":1954:2233  for (uint256 i = 0; i < giftCardCodes.length; i++) {... */\n      iszero\n      tag_344\n      jumpi\n        /* \"contracts/GiftCardETH.sol\":2132:2136  code */\n      dup3\n        /* \"contracts/GiftCardETH.sol\":2115:2137  abi.encodePacked(code) */\n      add(0x20, mload(0x40))\n      tag_346\n      swap2\n      swap1\n      tag_66\n      jump\t// in\n    tag_346:\n      mload(0x40)\n      0x20\n      dup2\n      dup4\n      sub\n      sub\n      dup2\n      mstore\n      swap1\n      0x40\n      mstore\n        /* \"contracts/GiftCardETH.sol\":2105:2138  keccak256(abi.encodePacked(code)) */\n      dup1\n      mload\n      swap1\n      0x20\n      add\n      keccak256\n        /* \"contracts/GiftCardETH.sol\":2067:2080  giftCardCodes */\n      0x03\n        /* \"contracts/GiftCardETH.sol\":2081:2082  i */\n      dup3\n        /* \"contracts/GiftCardETH.sol\":2067:2083  giftCardCodes[i] */\n      dup2\n      sload\n      dup2\n      lt\n      tag_347\n      jumpi\n      tag_348\n      tag_111\n      jump\t// in\n    tag_348:\n    tag_347:\n      swap1\n      0x00\n      mstore\n      keccak256(0x00, 0x20)\n      add\n        /* \"contracts/GiftCardETH.sol\":2050:2084  abi.encodePacked(giftCardCodes[i]) */\n      add(0x20, mload(0x40))\n      tag_350\n      swap2\n      swap1\n      tag_105\n      jump\t// in\n    tag_350:\n      mload(0x40)\n      0x20\n      dup2\n      dup4\n      sub\n      sub\n      dup2\n      mstore\n      swap1\n      0x40\n      mstore\n        /* \"contracts/GiftCardETH.sol\":2040:2085  keccak256(abi.encodePacked(giftCardCodes[i])) */\n      dup1\n      mload\n      swap1\n      0x20\n      add\n      keccak256\n        /* \"contracts/GiftCardETH.sol\":2040:2138  keccak256(abi.encodePacked(giftCardCodes[i])) ==... */\n      sub\n        /* \"contracts/GiftCardETH.sol\":2019:2223  if (... */\n      tag_351\n      jumpi\n        /* \"contracts/GiftCardETH.sol\":2181:2185  true */\n      0x01\n        /* \"contracts/GiftCardETH.sol\":2171:2185  isExist = true */\n      swap2\n      pop\n        /* \"contracts/GiftCardETH.sol\":2203:2208  break */\n      jump(tag_344)\n        /* \"contracts/GiftCardETH.sol\":2019:2223  if (... */\n    tag_351:\n        /* \"contracts/GiftCardETH.sol\":2000:2003  i++ */\n      dup1\n      dup1\n      0x01\n      add\n      swap2\n      pop\n      pop\n        /* \"contracts/GiftCardETH.sol\":1954:2233  for (uint256 i = 0; i < giftCardCodes.length; i++) {... */\n      jump(tag_343)\n    tag_344:\n      pop\n        /* \"contracts/GiftCardETH.sol\":2251:2258  isExist */\n      dup1\n        /* \"contracts/GiftCardETH.sol\":2250:2258  !isExist */\n      iszero\n        /* \"contracts/GiftCardETH.sol\":2242:2281  require(!isExist, \"Code is Not Unique\") */\n      tag_352\n      jumpi\n      mload(0x40)\n      0x08c379a000000000000000000000000000000000000000000000000000000000\n      dup2\n      mstore\n      0x04\n      add\n      tag_353\n      swap1\n      tag_354\n      jump\t// in\n    tag_353:\n      mload(0x40)\n      dup1\n      swap2\n      sub\n      swap1\n      revert\n    tag_352:\n        /* \"contracts/GiftCardETH.sol\":4786:4799  giftCardCodes */\n      0x03\n        /* \"contracts/GiftCardETH.sol\":4805:4809  code */\n      dup5\n        /* \"contracts/GiftCardETH.sol\":4786:4810  giftCardCodes.push(code) */\n      swap1\n      dup1\n      0x01\n      dup2\n      sload\n      add\n      dup1\n      dup3\n      sstore\n      dup1\n      swap2\n      pop\n      pop\n      0x01\n      swap1\n      sub\n      swap1\n      0x00\n      mstore\n      keccak256(0x00, 0x20)\n      add\n      0x00\n      swap1\n      swap2\n      swap1\n      swap2\n      swap1\n      swap2\n      pop\n      swap1\n      dup2\n      tag_357\n      swap2\n      swap1\n      tag_238\n      jump\t// in\n    tag_357:\n      pop\n        /* \"contracts/GiftCardETH.sol\":4838:4962  GiftCard(... */\n      mload(0x40)\n      dup1\n      0x80\n      add\n      0x40\n      mstore\n      dup1\n        /* \"contracts/GiftCardETH.sol\":4860:4865  users */\n      0x00\n        /* \"contracts/GiftCardETH.sol\":4860:4877  users[msg.sender] */\n      dup1\n        /* \"contracts/GiftCardETH.sol\":4866:4876  msg.sender */\n      caller\n        /* \"contracts/GiftCardETH.sol\":4860:4877  users[msg.sender] */\n      0xffffffffffffffffffffffffffffffffffffffff\n      and\n      0xffffffffffffffffffffffffffffffffffffffff\n      and\n      dup2\n      mstore\n      0x20\n      add\n      swap1\n      dup2\n      mstore\n      0x20\n      add\n      0x00\n      keccak256\n        /* \"contracts/GiftCardETH.sol\":4860:4882  users[msg.sender].name */\n      0x00\n      add\n        /* \"contracts/GiftCardETH.sol\":4838:4962  GiftCard(... */\n      dup1\n      sload\n      tag_358\n      swap1\n      tag_60\n      jump\t// in\n    tag_358:\n      dup1\n      0x1f\n      add\n      0x20\n      dup1\n      swap2\n      div\n      mul\n      0x20\n      add\n      mload(0x40)\n      swap1\n      dup2\n      add\n      0x40\n      mstore\n      dup1\n      swap3\n      swap2\n      swap1\n      dup2\n      dup2\n      mstore\n      0x20\n      add\n      dup3\n      dup1\n      sload\n      tag_359\n      swap1\n      tag_60\n      jump\t// in\n    tag_359:\n      dup1\n      iszero\n      tag_360\n      jumpi\n      dup1\n      0x1f\n      lt\n      tag_361\n      jumpi\n      0x0100\n      dup1\n      dup4\n      sload\n      div\n      mul\n      dup4\n      mstore\n      swap2\n      0x20\n      add\n      swap2\n      jump(tag_360)\n    tag_361:\n      dup3\n      add\n      swap2\n      swap1\n      0x00\n      mstore\n      keccak256(0x00, 0x20)\n      swap1\n    tag_362:\n      dup2\n      sload\n      dup2\n      mstore\n      swap1\n      0x01\n      add\n      swap1\n      0x20\n      add\n      dup1\n      dup4\n      gt\n      tag_362\n      jumpi\n      dup3\n      swap1\n      sub\n      0x1f\n      and\n      dup3\n      add\n      swap2\n    tag_360:\n      pop\n      pop\n      pop\n      pop\n      pop\n      dup2\n      mstore\n      0x20\n      add\n        /* \"contracts/GiftCardETH.sol\":4896:4902  amount */\n      dup5\n        /* \"contracts/GiftCardETH.sol\":4838:4962  GiftCard(... */\n      dup2\n      mstore\n      0x20\n      add\n        /* \"contracts/GiftCardETH.sol\":4916:4936  GiftCardStatus.VALID */\n      0x01\n        /* \"contracts/GiftCardETH.sol\":4838:4962  GiftCard(... */\n      dup1\n      dup2\n      gt\n      iszero\n      tag_363\n      jumpi\n      tag_364\n      tag_64\n      jump\t// in\n    tag_364:\n    tag_363:\n      dup2\n      mstore\n      0x20\n      add\n      mload(0x40)\n      dup1\n      0x20\n      add\n      0x40\n      mstore\n      dup1\n      0x00\n      dup2\n      mstore\n      pop\n      dup2\n      mstore\n      pop\n        /* \"contracts/GiftCardETH.sol\":4820:4829  giftCards */\n      0x01\n        /* \"contracts/GiftCardETH.sol\":4830:4834  code */\n      dup6\n        /* \"contracts/GiftCardETH.sol\":4820:4835  giftCards[code] */\n      mload(0x40)\n      tag_365\n      swap2\n      swap1\n      tag_66\n      jump\t// in\n    tag_365:\n      swap1\n      dup2\n      mstore\n      0x20\n      add\n      mload(0x40)\n      dup1\n      swap2\n      sub\n      swap1\n      keccak256\n        /* \"contracts/GiftCardETH.sol\":4820:4962  giftCards[code] = GiftCard(... */\n      0x00\n      dup3\n      add\n      mload\n      dup2\n      0x00\n      add\n      swap1\n      dup2\n      tag_366\n      swap2\n      swap1\n      tag_238\n      jump\t// in\n    tag_366:\n      pop\n      0x20\n      dup3\n      add\n      mload\n      dup2\n      0x01\n      add\n      sstore\n      0x40\n      dup3\n      add\n      mload\n      dup2\n      0x02\n      add\n      exp(0x0100, 0x00)\n      dup2\n      sload\n      dup2\n      0xff\n      mul\n      not\n      and\n      swap1\n      dup4\n      0x01\n      dup2\n      gt\n      iszero\n      tag_367\n      jumpi\n      tag_368\n      tag_64\n      jump\t// in\n    tag_368:\n    tag_367:\n      mul\n      or\n      swap1\n      sstore\n      pop\n      0x60\n      dup3\n      add\n      mload\n      dup2\n      0x03\n      add\n      swap1\n      dup2\n      tag_369\n      swap2\n      swap1\n      tag_238\n      jump\t// in\n    tag_369:\n      pop\n      swap1\n      pop\n      pop\n        /* \"contracts/GiftCardETH.sol\":1914:2299  {... */\n      pop\n        /* \"contracts/GiftCardETH.sol\":4665:4969  function addCard(string memory code, uint256 amount)... */\n      pop\n      pop\n      pop\n      jump\t// out\n        /* \"contracts/GiftCardETH.sol\":4047:4306  function getRandomNumber(uint256 seed) private view returns (uint256) {... */\n    tag_335:\n        /* \"contracts/GiftCardETH.sol\":4108:4115  uint256 */\n      0x00\n        /* \"contracts/GiftCardETH.sol\":4294:4299  10000 */\n      0x2710\n        /* \"contracts/GiftCardETH.sol\":4219:4234  block.timestamp */\n      timestamp\n        /* \"contracts/GiftCardETH.sol\":4236:4252  block.prevrandao */\n      prevrandao\n        /* \"contracts/GiftCardETH.sol\":4254:4258  seed */\n      dup5\n        /* \"contracts/GiftCardETH.sol\":4202:4259  abi.encodePacked(block.timestamp, block.prevrandao, seed) */\n      add(0x20, mload(0x40))\n      tag_371\n      swap4\n      swap3\n      swap2\n      swap1\n      tag_372\n      jump\t// in\n    tag_371:\n      mload(0x40)\n      0x20\n      dup2\n      dup4\n      sub\n      sub\n      dup2\n      mstore\n      swap1\n      0x40\n      mstore\n        /* \"contracts/GiftCardETH.sol\":4171:4277  keccak256(... */\n      dup1\n      mload\n      swap1\n      0x20\n      add\n      keccak256\n        /* \"contracts/GiftCardETH.sol\":4146:4291  uint256(... */\n      0x00\n      shr\n        /* \"contracts/GiftCardETH.sol\":4146:4299  uint256(... */\n      tag_373\n      swap2\n      swap1\n      tag_337\n      jump\t// in\n    tag_373:\n        /* \"contracts/GiftCardETH.sol\":4127:4299  return... */\n      swap1\n      pop\n        /* \"contracts/GiftCardETH.sol\":4047:4306  function getRandomNumber(uint256 seed) private view returns (uint256) {... */\n      swap2\n      swap1\n      pop\n      jump\t// out\n    tag_130:\n      mload(0x40)\n      dup1\n      0x80\n      add\n      0x40\n      mstore\n      dup1\n      0x60\n      dup2\n      mstore\n      0x20\n      add\n      0x00\n      dup2\n      mstore\n      0x20\n      add\n      0x00\n      0x01\n      dup2\n      gt\n      iszero\n      tag_374\n      jumpi\n      tag_375\n      tag_64\n      jump\t// in\n    tag_375:\n    tag_374:\n      dup2\n      mstore\n      0x20\n      add\n      0x60\n      dup2\n      mstore\n      pop\n      swap1\n      jump\t// out\n    tag_308:\n      mload(0x40)\n      dup1\n      0x60\n      add\n      0x40\n      mstore\n      dup1\n      0x60\n      dup2\n      mstore\n      0x20\n      add\n      0x00\n      0x01\n      dup2\n      gt\n      iszero\n      tag_376\n      jumpi\n      tag_377\n      tag_64\n      jump\t// in\n    tag_377:\n    tag_376:\n      dup2\n      mstore\n      0x20\n      add\n      0x00\n      0x01\n      dup2\n      gt\n      iszero\n      tag_378\n      jumpi\n      tag_379\n      tag_64\n      jump\t// in\n    tag_379:\n    tag_378:\n      dup2\n      mstore\n      pop\n      swap1\n      jump\t// out\n        /* \"#utility.yul\":7:97   */\n    tag_380:\n        /* \"#utility.yul\":41:48   */\n      0x00\n        /* \"#utility.yul\":84:89   */\n      dup2\n        /* \"#utility.yul\":77:90   */\n      iszero\n        /* \"#utility.yul\":70:91   */\n      iszero\n        /* \"#utility.yul\":59:91   */\n      swap1\n      pop\n        /* \"#utility.yul\":7:97   */\n      swap2\n      swap1\n      pop\n      jump\t// out\n        /* \"#utility.yul\":103:212   */\n    tag_381:\n        /* \"#utility.yul\":184:205   */\n      tag_466\n        /* \"#utility.yul\":199:204   */\n      dup2\n        /* \"#utility.yul\":184:205   */\n      tag_380\n      jump\t// in\n    tag_466:\n        /* \"#utility.yul\":179:182   */\n      dup3\n        /* \"#utility.yul\":172:206   */\n      mstore\n        /* \"#utility.yul\":103:212   */\n      pop\n      pop\n      jump\t// out\n        /* \"#utility.yul\":218:428   */\n    tag_21:\n        /* \"#utility.yul\":305:309   */\n      0x00\n        /* \"#utility.yul\":343:345   */\n      0x20\n        /* \"#utility.yul\":332:341   */\n      dup3\n        /* \"#utility.yul\":328:346   */\n      add\n        /* \"#utility.yul\":320:346   */\n      swap1\n      pop\n        /* \"#utility.yul\":356:421   */\n      tag_468\n        /* \"#utility.yul\":418:419   */\n      0x00\n        /* \"#utility.yul\":407:416   */\n      dup4\n        /* \"#utility.yul\":403:420   */\n      add\n        /* \"#utility.yul\":394:400   */\n      dup5\n        /* \"#utility.yul\":356:421   */\n      tag_381\n      jump\t// in\n    tag_468:\n        /* \"#utility.yul\":218:428   */\n      swap3\n      swap2\n      pop\n      pop\n      jump\t// out\n        /* \"#utility.yul\":515:632   */\n    tag_383:\n        /* \"#utility.yul\":624:625   */\n      0x00\n        /* \"#utility.yul\":621:622   */\n      dup1\n        /* \"#utility.yul\":614:626   */\n      revert\n        /* \"#utility.yul\":638:755   */\n    tag_384:\n        /* \"#utility.yul\":747:748   */\n      0x00\n        /* \"#utility.yul\":744:745   */\n      dup1\n        /* \"#utility.yul\":737:749   */\n      revert\n        /* \"#utility.yul\":761:878   */\n    tag_385:\n        /* \"#utility.yul\":870:871   */\n      0x00\n        /* \"#utility.yul\":867:868   */\n      dup1\n        /* \"#utility.yul\":860:872   */\n      revert\n        /* \"#utility.yul\":884:1001   */\n    tag_386:\n        /* \"#utility.yul\":993:994   */\n      0x00\n        /* \"#utility.yul\":990:991   */\n      dup1\n        /* \"#utility.yul\":983:995   */\n      revert\n        /* \"#utility.yul\":1007:1124   */\n    tag_387:\n        /* \"#utility.yul\":1116:1117   */\n      0x00\n        /* \"#utility.yul\":1113:1114   */\n      dup1\n        /* \"#utility.yul\":1106:1118   */\n      revert\n        /* \"#utility.yul\":1144:1697   */\n    tag_388:\n        /* \"#utility.yul\":1202:1210   */\n      0x00\n        /* \"#utility.yul\":1212:1218   */\n      dup1\n        /* \"#utility.yul\":1262:1265   */\n      dup4\n        /* \"#utility.yul\":1255:1259   */\n      0x1f\n        /* \"#utility.yul\":1247:1253   */\n      dup5\n        /* \"#utility.yul\":1243:1260   */\n      add\n        /* \"#utility.yul\":1239:1266   */\n      slt\n        /* \"#utility.yul\":1229:1351   */\n      tag_476\n      jumpi\n        /* \"#utility.yul\":1270:1349   */\n      tag_477\n      tag_385\n      jump\t// in\n    tag_477:\n        /* \"#utility.yul\":1229:1351   */\n    tag_476:\n        /* \"#utility.yul\":1383:1389   */\n      dup3\n        /* \"#utility.yul\":1370:1390   */\n      calldataload\n        /* \"#utility.yul\":1360:1390   */\n      swap1\n      pop\n        /* \"#utility.yul\":1413:1431   */\n      0xffffffffffffffff\n        /* \"#utility.yul\":1405:1411   */\n      dup2\n        /* \"#utility.yul\":1402:1432   */\n      gt\n        /* \"#utility.yul\":1399:1516   */\n      iszero\n      tag_478\n      jumpi\n        /* \"#utility.yul\":1435:1514   */\n      tag_479\n      tag_386\n      jump\t// in\n    tag_479:\n        /* \"#utility.yul\":1399:1516   */\n    tag_478:\n        /* \"#utility.yul\":1549:1553   */\n      0x20\n        /* \"#utility.yul\":1541:1547   */\n      dup4\n        /* \"#utility.yul\":1537:1554   */\n      add\n        /* \"#utility.yul\":1525:1554   */\n      swap2\n      pop\n        /* \"#utility.yul\":1603:1606   */\n      dup4\n        /* \"#utility.yul\":1595:1599   */\n      0x01\n        /* \"#utility.yul\":1587:1593   */\n      dup3\n        /* \"#utility.yul\":1583:1600   */\n      mul\n        /* \"#utility.yul\":1573:1581   */\n      dup4\n        /* \"#utility.yul\":1569:1601   */\n      add\n        /* \"#utility.yul\":1566:1607   */\n      gt\n        /* \"#utility.yul\":1563:1691   */\n      iszero\n      tag_480\n      jumpi\n        /* \"#utility.yul\":1610:1689   */\n      tag_481\n      tag_387\n      jump\t// in\n    tag_481:\n        /* \"#utility.yul\":1563:1691   */\n    tag_480:\n        /* \"#utility.yul\":1144:1697   */\n      swap3\n      pop\n      swap3\n      swap1\n      pop\n      jump\t// out\n        /* \"#utility.yul\":1703:2232   */\n    tag_25:\n        /* \"#utility.yul\":1774:1780   */\n      0x00\n        /* \"#utility.yul\":1782:1788   */\n      dup1\n        /* \"#utility.yul\":1831:1833   */\n      0x20\n        /* \"#utility.yul\":1819:1828   */\n      dup4\n        /* \"#utility.yul\":1810:1817   */\n      dup6\n        /* \"#utility.yul\":1806:1829   */\n      sub\n        /* \"#utility.yul\":1802:1834   */\n      slt\n        /* \"#utility.yul\":1799:1918   */\n      iszero\n      tag_483\n      jumpi\n        /* \"#utility.yul\":1837:1916   */\n      tag_484\n      tag_383\n      jump\t// in\n    tag_484:\n        /* \"#utility.yul\":1799:1918   */\n    tag_483:\n        /* \"#utility.yul\":1985:1986   */\n      0x00\n        /* \"#utility.yul\":1974:1983   */\n      dup4\n        /* \"#utility.yul\":1970:1987   */\n      add\n        /* \"#utility.yul\":1957:1988   */\n      calldataload\n        /* \"#utility.yul\":2015:2033   */\n      0xffffffffffffffff\n        /* \"#utility.yul\":2007:2013   */\n      dup2\n        /* \"#utility.yul\":2004:2034   */\n      gt\n        /* \"#utility.yul\":2001:2118   */\n      iszero\n      tag_485\n      jumpi\n        /* \"#utility.yul\":2037:2116   */\n      tag_486\n      tag_384\n      jump\t// in\n    tag_486:\n        /* \"#utility.yul\":2001:2118   */\n    tag_485:\n        /* \"#utility.yul\":2150:2215   */\n      tag_487\n        /* \"#utility.yul\":2207:2214   */\n      dup6\n        /* \"#utility.yul\":2198:2204   */\n      dup3\n        /* \"#utility.yul\":2187:2196   */\n      dup7\n        /* \"#utility.yul\":2183:2205   */\n      add\n        /* \"#utility.yul\":2150:2215   */\n      tag_388\n      jump\t// in\n    tag_487:\n        /* \"#utility.yul\":2132:2215   */\n      swap3\n      pop\n      swap3\n      pop\n        /* \"#utility.yul\":1928:2225   */\n      pop\n        /* \"#utility.yul\":1703:2232   */\n      swap3\n      pop\n      swap3\n      swap1\n      pop\n      jump\t// out\n        /* \"#utility.yul\":2238:2376   */\n    tag_389:\n        /* \"#utility.yul\":2329:2335   */\n      0x00\n        /* \"#utility.yul\":2363:2368   */\n      dup2\n        /* \"#utility.yul\":2357:2369   */\n      mload\n        /* \"#utility.yul\":2347:2369   */\n      swap1\n      pop\n        /* \"#utility.yul\":2238:2376   */\n      swap2\n      swap1\n      pop\n      jump\t// out\n        /* \"#utility.yul\":2382:2590   */\n    tag_390:\n        /* \"#utility.yul\":2505:2516   */\n      0x00\n        /* \"#utility.yul\":2539:2545   */\n      dup3\n        /* \"#utility.yul\":2534:2537   */\n      dup3\n        /* \"#utility.yul\":2527:2546   */\n      mstore\n        /* \"#utility.yul\":2579:2583   */\n      0x20\n        /* \"#utility.yul\":2574:2577   */\n      dup3\n        /* \"#utility.yul\":2570:2584   */\n      add\n        /* \"#utility.yul\":2555:2584   */\n      swap1\n      pop\n        /* \"#utility.yul\":2382:2590   */\n      swap3\n      swap2\n      pop\n      pop\n      jump\t// out\n        /* \"#utility.yul\":2596:2752   */\n    tag_391:\n        /* \"#utility.yul\":2687:2691   */\n      0x00\n        /* \"#utility.yul\":2710:2713   */\n      dup2\n        /* \"#utility.yul\":2702:2713   */\n      swap1\n      pop\n        /* \"#utility.yul\":2740:2744   */\n      0x20\n        /* \"#utility.yul\":2735:2738   */\n      dup3\n        /* \"#utility.yul\":2731:2745   */\n      add\n        /* \"#utility.yul\":2723:2745   */\n      swap1\n      pop\n        /* \"#utility.yul\":2596:2752   */\n      swap2\n      swap1\n      pop\n      jump\t// out\n        /* \"#utility.yul\":2758:2857   */\n    tag_392:\n        /* \"#utility.yul\":2810:2816   */\n      0x00\n        /* \"#utility.yul\":2844:2849   */\n      dup2\n        /* \"#utility.yul\":2838:2850   */\n      mload\n        /* \"#utility.yul\":2828:2850   */\n      swap1\n      pop\n        /* \"#utility.yul\":2758:2857   */\n      swap2\n      swap1\n      pop\n      jump\t// out\n        /* \"#utility.yul\":2863:3022   */\n    tag_393:\n        /* \"#utility.yul\":2937:2948   */\n      0x00\n        /* \"#utility.yul\":2971:2977   */\n      dup3\n        /* \"#utility.yul\":2966:2969   */\n      dup3\n        /* \"#utility.yul\":2959:2978   */\n      mstore\n        /* \"#utility.yul\":3011:3015   */\n      0x20\n        /* \"#utility.yul\":3006:3009   */\n      dup3\n        /* \"#utility.yul\":3002:3016   */\n      add\n        /* \"#utility.yul\":2987:3016   */\n      swap1\n      pop\n        /* \"#utility.yul\":2863:3022   */\n      swap3\n      swap2\n      pop\n      pop\n      jump\t// out\n        /* \"#utility.yul\":3028:3167   */\n    tag_394:\n        /* \"#utility.yul\":3117:3123   */\n      dup3\n        /* \"#utility.yul\":3112:3115   */\n      dup2\n        /* \"#utility.yul\":3107:3110   */\n      dup4\n        /* \"#utility.yul\":3101:3124   */\n      mcopy\n        /* \"#utility.yul\":3158:3159   */\n      0x00\n        /* \"#utility.yul\":3149:3155   */\n      dup4\n        /* \"#utility.yul\":3144:3147   */\n      dup4\n        /* \"#utility.yul\":3140:3156   */\n      add\n        /* \"#utility.yul\":3133:3160   */\n      mstore\n        /* \"#utility.yul\":3028:3167   */\n      pop\n      pop\n      pop\n      jump\t// out\n        /* \"#utility.yul\":3173:3275   */\n    tag_395:\n        /* \"#utility.yul\":3214:3220   */\n      0x00\n        /* \"#utility.yul\":3265:3267   */\n      0x1f\n        /* \"#utility.yul\":3261:3268   */\n      not\n        /* \"#utility.yul\":3256:3258   */\n      0x1f\n        /* \"#utility.yul\":3249:3254   */\n      dup4\n        /* \"#utility.yul\":3245:3259   */\n      add\n        /* \"#utility.yul\":3241:3269   */\n      and\n        /* \"#utility.yul\":3231:3269   */\n      swap1\n      pop\n        /* \"#utility.yul\":3173:3275   */\n      swap2\n      swap1\n      pop\n      jump\t// out\n        /* \"#utility.yul\":3281:3638   */\n    tag_396:\n        /* \"#utility.yul\":3359:3362   */\n      0x00\n        /* \"#utility.yul\":3387:3426   */\n      tag_496\n        /* \"#utility.yul\":3420:3425   */\n      dup3\n        /* \"#utility.yul\":3387:3426   */\n      tag_392\n      jump\t// in\n    tag_496:\n        /* \"#utility.yul\":3442:3503   */\n      tag_497\n        /* \"#utility.yul\":3496:3502   */\n      dup2\n        /* \"#utility.yul\":3491:3494   */\n      dup6\n        /* \"#utility.yul\":3442:3503   */\n      tag_393\n      jump\t// in\n    tag_497:\n        /* \"#utility.yul\":3435:3503   */\n      swap4\n      pop\n        /* \"#utility.yul\":3512:3577   */\n      tag_498\n        /* \"#utility.yul\":3570:3576   */\n      dup2\n        /* \"#utility.yul\":3565:3568   */\n      dup6\n        /* \"#utility.yul\":3558:3562   */\n      0x20\n        /* \"#utility.yul\":3551:3556   */\n      dup7\n        /* \"#utility.yul\":3547:3563   */\n      add\n        /* \"#utility.yul\":3512:3577   */\n      tag_394\n      jump\t// in\n    tag_498:\n        /* \"#utility.yul\":3602:3631   */\n      tag_499\n        /* \"#utility.yul\":3624:3630   */\n      dup2\n        /* \"#utility.yul\":3602:3631   */\n      tag_395\n      jump\t// in\n    tag_499:\n        /* \"#utility.yul\":3597:3600   */\n      dup5\n        /* \"#utility.yul\":3593:3632   */\n      add\n        /* \"#utility.yul\":3586:3632   */\n      swap2\n      pop\n        /* \"#utility.yul\":3363:3638   */\n      pop\n        /* \"#utility.yul\":3281:3638   */\n      swap3\n      swap2\n      pop\n      pop\n      jump\t// out\n        /* \"#utility.yul\":3644:3721   */\n    tag_397:\n        /* \"#utility.yul\":3681:3688   */\n      0x00\n        /* \"#utility.yul\":3710:3715   */\n      dup2\n        /* \"#utility.yul\":3699:3715   */\n      swap1\n      pop\n        /* \"#utility.yul\":3644:3721   */\n      swap2\n      swap1\n      pop\n      jump\t// out\n        /* \"#utility.yul\":3727:3835   */\n    tag_398:\n        /* \"#utility.yul\":3804:3828   */\n      tag_502\n        /* \"#utility.yul\":3822:3827   */\n      dup2\n        /* \"#utility.yul\":3804:3828   */\n      tag_397\n      jump\t// in\n    tag_502:\n        /* \"#utility.yul\":3799:3802   */\n      dup3\n        /* \"#utility.yul\":3792:3829   */\n      mstore\n        /* \"#utility.yul\":3727:3835   */\n      pop\n      pop\n      jump\t// out\n        /* \"#utility.yul\":3841:4021   */\n    tag_64:\n        /* \"#utility.yul\":3889:3966   */\n      0x4e487b7100000000000000000000000000000000000000000000000000000000\n        /* \"#utility.yul\":3886:3887   */\n      0x00\n        /* \"#utility.yul\":3879:3967   */\n      mstore\n        /* \"#utility.yul\":3986:3990   */\n      0x21\n        /* \"#utility.yul\":3983:3984   */\n      0x04\n        /* \"#utility.yul\":3976:3991   */\n      mstore\n        /* \"#utility.yul\":4010:4014   */\n      0x24\n        /* \"#utility.yul\":4007:4008   */\n      0x00\n        /* \"#utility.yul\":4000:4015   */\n      revert\n        /* \"#utility.yul\":4027:4148   */\n    tag_399:\n        /* \"#utility.yul\":4116:4117   */\n      0x02\n        /* \"#utility.yul\":4109:4114   */\n      dup2\n        /* \"#utility.yul\":4106:4118   */\n      lt\n        /* \"#utility.yul\":4096:4142   */\n      tag_505\n      jumpi\n        /* \"#utility.yul\":4122:4140   */\n      tag_506\n      tag_64\n      jump\t// in\n    tag_506:\n        /* \"#utility.yul\":4096:4142   */\n    tag_505:\n        /* \"#utility.yul\":4027:4148   */\n      pop\n      jump\t// out\n        /* \"#utility.yul\":4154:4297   */\n    tag_400:\n        /* \"#utility.yul\":4207:4214   */\n      0x00\n        /* \"#utility.yul\":4236:4241   */\n      dup2\n        /* \"#utility.yul\":4225:4241   */\n      swap1\n      pop\n        /* \"#utility.yul\":4242:4291   */\n      tag_508\n        /* \"#utility.yul\":4285:4290   */\n      dup3\n        /* \"#utility.yul\":4242:4291   */\n      tag_399\n      jump\t// in\n    tag_508:\n        /* \"#utility.yul\":4154:4297   */\n      swap2\n      swap1\n      pop\n      jump\t// out\n        /* \"#utility.yul\":4303:4446   */\n    tag_401:\n        /* \"#utility.yul\":4367:4376   */\n      0x00\n        /* \"#utility.yul\":4400:4440   */\n      tag_510\n        /* \"#utility.yul\":4434:4439   */\n      dup3\n        /* \"#utility.yul\":4400:4440   */\n      tag_400\n      jump\t// in\n    tag_510:\n        /* \"#utility.yul\":4387:4440   */\n      swap1\n      pop\n        /* \"#utility.yul\":4303:4446   */\n      swap2\n      swap1\n      pop\n      jump\t// out\n        /* \"#utility.yul\":4452:4601   */\n    tag_402:\n        /* \"#utility.yul\":4543:4594   */\n      tag_512\n        /* \"#utility.yul\":4588:4593   */\n      dup2\n        /* \"#utility.yul\":4543:4594   */\n      tag_401\n      jump\t// in\n    tag_512:\n        /* \"#utility.yul\":4538:4541   */\n      dup3\n        /* \"#utility.yul\":4531:4595   */\n      mstore\n        /* \"#utility.yul\":4452:4601   */\n      pop\n      pop\n      jump\t// out\n        /* \"#utility.yul\":4649:5691   */\n    tag_403:\n        /* \"#utility.yul\":4756:4759   */\n      0x00\n        /* \"#utility.yul\":4792:4796   */\n      0x80\n        /* \"#utility.yul\":4787:4790   */\n      dup4\n        /* \"#utility.yul\":4783:4797   */\n      add\n        /* \"#utility.yul\":4880:4884   */\n      0x00\n        /* \"#utility.yul\":4873:4878   */\n      dup4\n        /* \"#utility.yul\":4869:4885   */\n      add\n        /* \"#utility.yul\":4863:4886   */\n      mload\n        /* \"#utility.yul\":4933:4936   */\n      dup5\n        /* \"#utility.yul\":4927:4931   */\n      dup3\n        /* \"#utility.yul\":4923:4937   */\n      sub\n        /* \"#utility.yul\":4916:4920   */\n      0x00\n        /* \"#utility.yul\":4911:4914   */\n      dup7\n        /* \"#utility.yul\":4907:4921   */\n      add\n        /* \"#utility.yul\":4900:4938   */\n      mstore\n        /* \"#utility.yul\":4959:5032   */\n      tag_514\n        /* \"#utility.yul\":5027:5031   */\n      dup3\n        /* \"#utility.yul\":5013:5025   */\n      dup3\n        /* \"#utility.yul\":4959:5032   */\n      tag_396\n      jump\t// in\n    tag_514:\n        /* \"#utility.yul\":4951:5032   */\n      swap2\n      pop\n        /* \"#utility.yul\":4807:5043   */\n      pop\n        /* \"#utility.yul\":5127:5131   */\n      0x20\n        /* \"#utility.yul\":5120:5125   */\n      dup4\n        /* \"#utility.yul\":5116:5132   */\n      add\n        /* \"#utility.yul\":5110:5133   */\n      mload\n        /* \"#utility.yul\":5146:5209   */\n      tag_515\n        /* \"#utility.yul\":5203:5207   */\n      0x20\n        /* \"#utility.yul\":5198:5201   */\n      dup7\n        /* \"#utility.yul\":5194:5208   */\n      add\n        /* \"#utility.yul\":5180:5192   */\n      dup3\n        /* \"#utility.yul\":5146:5209   */\n      tag_398\n      jump\t// in\n    tag_515:\n        /* \"#utility.yul\":5053:5219   */\n      pop\n        /* \"#utility.yul\":5311:5315   */\n      0x40\n        /* \"#utility.yul\":5304:5309   */\n      dup4\n        /* \"#utility.yul\":5300:5316   */\n      add\n        /* \"#utility.yul\":5294:5317   */\n      mload\n        /* \"#utility.yul\":5330:5407   */\n      tag_516\n        /* \"#utility.yul\":5401:5405   */\n      0x40\n        /* \"#utility.yul\":5396:5399   */\n      dup7\n        /* \"#utility.yul\":5392:5406   */\n      add\n        /* \"#utility.yul\":5378:5390   */\n      dup3\n        /* \"#utility.yul\":5330:5407   */\n      tag_402\n      jump\t// in\n    tag_516:\n        /* \"#utility.yul\":5229:5417   */\n      pop\n        /* \"#utility.yul\":5501:5505   */\n      0x60\n        /* \"#utility.yul\":5494:5499   */\n      dup4\n        /* \"#utility.yul\":5490:5506   */\n      add\n        /* \"#utility.yul\":5484:5507   */\n      mload\n        /* \"#utility.yul\":5554:5557   */\n      dup5\n        /* \"#utility.yul\":5548:5552   */\n      dup3\n        /* \"#utility.yul\":5544:5558   */\n      sub\n        /* \"#utility.yul\":5537:5541   */\n      0x60\n        /* \"#utility.yul\":5532:5535   */\n      dup7\n        /* \"#utility.yul\":5528:5542   */\n      add\n        /* \"#utility.yul\":5521:5559   */\n      mstore\n        /* \"#utility.yul\":5580:5653   */\n      tag_517\n        /* \"#utility.yul\":5648:5652   */\n      dup3\n        /* \"#utility.yul\":5634:5646   */\n      dup3\n        /* \"#utility.yul\":5580:5653   */\n      tag_396\n      jump\t// in\n    tag_517:\n        /* \"#utility.yul\":5572:5653   */\n      swap2\n      pop\n        /* \"#utility.yul\":5427:5664   */\n      pop\n        /* \"#utility.yul\":5681:5685   */\n      dup1\n        /* \"#utility.yul\":5674:5685   */\n      swap2\n      pop\n        /* \"#utility.yul\":4761:5691   */\n      pop\n        /* \"#utility.yul\":4649:5691   */\n      swap3\n      swap2\n      pop\n      pop\n      jump\t// out\n        /* \"#utility.yul\":5697:5949   */\n    tag_404:\n        /* \"#utility.yul\":5814:5824   */\n      0x00\n        /* \"#utility.yul\":5849:5943   */\n      tag_519\n        /* \"#utility.yul\":5939:5942   */\n      dup4\n        /* \"#utility.yul\":5931:5937   */\n      dup4\n        /* \"#utility.yul\":5849:5943   */\n      tag_403\n      jump\t// in\n    tag_519:\n        /* \"#utility.yul\":5835:5943   */\n      swap1\n      pop\n        /* \"#utility.yul\":5697:5949   */\n      swap3\n      swap2\n      pop\n      pop\n      jump\t// out\n        /* \"#utility.yul\":5955:6092   */\n    tag_405:\n        /* \"#utility.yul\":6049:6053   */\n      0x00\n        /* \"#utility.yul\":6081:6085   */\n      0x20\n        /* \"#utility.yul\":6076:6079   */\n      dup3\n        /* \"#utility.yul\":6072:6086   */\n      add\n        /* \"#utility.yul\":6064:6086   */\n      swap1\n      pop\n        /* \"#utility.yul\":5955:6092   */\n      swap2\n      swap1\n      pop\n      jump\t// out\n        /* \"#utility.yul\":6144:7247   */\n    tag_406:\n        /* \"#utility.yul\":6311:6314   */\n      0x00\n        /* \"#utility.yul\":6340:6418   */\n      tag_522\n        /* \"#utility.yul\":6412:6417   */\n      dup3\n        /* \"#utility.yul\":6340:6418   */\n      tag_389\n      jump\t// in\n    tag_522:\n        /* \"#utility.yul\":6434:6544   */\n      tag_523\n        /* \"#utility.yul\":6537:6543   */\n      dup2\n        /* \"#utility.yul\":6532:6535   */\n      dup6\n        /* \"#utility.yul\":6434:6544   */\n      tag_390\n      jump\t// in\n    tag_523:\n        /* \"#utility.yul\":6427:6544   */\n      swap4\n      pop\n        /* \"#utility.yul\":6570:6573   */\n      dup4\n        /* \"#utility.yul\":6615:6619   */\n      0x20\n        /* \"#utility.yul\":6607:6613   */\n      dup3\n        /* \"#utility.yul\":6603:6620   */\n      mul\n        /* \"#utility.yul\":6598:6601   */\n      dup6\n        /* \"#utility.yul\":6594:6621   */\n      add\n        /* \"#utility.yul\":6645:6725   */\n      tag_524\n        /* \"#utility.yul\":6719:6724   */\n      dup6\n        /* \"#utility.yul\":6645:6725   */\n      tag_391\n      jump\t// in\n    tag_524:\n        /* \"#utility.yul\":6748:6755   */\n      dup1\n        /* \"#utility.yul\":6779:6780   */\n      0x00\n        /* \"#utility.yul\":6764:7202   */\n    tag_525:\n        /* \"#utility.yul\":6789:6795   */\n      dup6\n        /* \"#utility.yul\":6786:6787   */\n      dup2\n        /* \"#utility.yul\":6783:6796   */\n      lt\n        /* \"#utility.yul\":6764:7202   */\n      iszero\n      tag_527\n      jumpi\n        /* \"#utility.yul\":6860:6869   */\n      dup5\n        /* \"#utility.yul\":6854:6858   */\n      dup5\n        /* \"#utility.yul\":6850:6870   */\n      sub\n        /* \"#utility.yul\":6845:6848   */\n      dup10\n        /* \"#utility.yul\":6838:6871   */\n      mstore\n        /* \"#utility.yul\":6911:6917   */\n      dup2\n        /* \"#utility.yul\":6905:6918   */\n      mload\n        /* \"#utility.yul\":6939:7051   */\n      tag_528\n        /* \"#utility.yul\":7046:7050   */\n      dup6\n        /* \"#utility.yul\":7031:7044   */\n      dup3\n        /* \"#utility.yul\":6939:7051   */\n      tag_404\n      jump\t// in\n    tag_528:\n        /* \"#utility.yul\":6931:7051   */\n      swap5\n      pop\n        /* \"#utility.yul\":7074:7158   */\n      tag_529\n        /* \"#utility.yul\":7151:7157   */\n      dup4\n        /* \"#utility.yul\":7074:7158   */\n      tag_405\n      jump\t// in\n    tag_529:\n        /* \"#utility.yul\":7064:7158   */\n      swap3\n      pop\n        /* \"#utility.yul\":7187:7191   */\n      0x20\n        /* \"#utility.yul\":7182:7185   */\n      dup11\n        /* \"#utility.yul\":7178:7192   */\n      add\n        /* \"#utility.yul\":7171:7192   */\n      swap10\n      pop\n        /* \"#utility.yul\":6824:7202   */\n      pop\n        /* \"#utility.yul\":6811:6812   */\n      0x01\n        /* \"#utility.yul\":6808:6809   */\n      dup2\n        /* \"#utility.yul\":6804:6813   */\n      add\n        /* \"#utility.yul\":6799:6813   */\n      swap1\n      pop\n        /* \"#utility.yul\":6764:7202   */\n      jump(tag_525)\n    tag_527:\n        /* \"#utility.yul\":6768:6782   */\n      pop\n        /* \"#utility.yul\":7218:7222   */\n      dup3\n        /* \"#utility.yul\":7211:7222   */\n      swap8\n      pop\n        /* \"#utility.yul\":7238:7241   */\n      dup8\n        /* \"#utility.yul\":7231:7241   */\n      swap6\n      pop\n        /* \"#utility.yul\":6316:7247   */\n      pop\n      pop\n      pop\n      pop\n      pop\n        /* \"#utility.yul\":6144:7247   */\n      swap3\n      swap2\n      pop\n      pop\n      jump\t// out\n        /* \"#utility.yul\":7253:7722   */\n    tag_31:\n        /* \"#utility.yul\":7444:7448   */\n      0x00\n        /* \"#utility.yul\":7482:7484   */\n      0x20\n        /* \"#utility.yul\":7471:7480   */\n      dup3\n        /* \"#utility.yul\":7467:7485   */\n      add\n        /* \"#utility.yul\":7459:7485   */\n      swap1\n      pop\n        /* \"#utility.yul\":7531:7540   */\n      dup2\n        /* \"#utility.yul\":7525:7529   */\n      dup2\n        /* \"#utility.yul\":7521:7541   */\n      sub\n        /* \"#utility.yul\":7517:7518   */\n      0x00\n        /* \"#utility.yul\":7506:7515   */\n      dup4\n        /* \"#utility.yul\":7502:7519   */\n      add\n        /* \"#utility.yul\":7495:7542   */\n      mstore\n        /* \"#utility.yul\":7559:7715   */\n      tag_531\n        /* \"#utility.yul\":7710:7714   */\n      dup2\n        /* \"#utility.yul\":7701:7707   */\n      dup5\n        /* \"#utility.yul\":7559:7715   */\n      tag_406\n      jump\t// in\n    tag_531:\n        /* \"#utility.yul\":7551:7715   */\n      swap1\n      pop\n        /* \"#utility.yul\":7253:7722   */\n      swap3\n      swap2\n      pop\n      pop\n      jump\t// out\n        /* \"#utility.yul\":7728:7843   */\n    tag_407:\n        /* \"#utility.yul\":7817:7818   */\n      0x02\n        /* \"#utility.yul\":7810:7815   */\n      dup2\n        /* \"#utility.yul\":7807:7819   */\n      lt\n        /* \"#utility.yul\":7797:7837   */\n      tag_533\n      jumpi\n        /* \"#utility.yul\":7833:7834   */\n      0x00\n        /* \"#utility.yul\":7830:7831   */\n      dup1\n        /* \"#utility.yul\":7823:7835   */\n      revert\n        /* \"#utility.yul\":7797:7837   */\n    tag_533:\n        /* \"#utility.yul\":7728:7843   */\n      pop\n      jump\t// out\n        /* \"#utility.yul\":7849:8020   */\n    tag_408:\n        /* \"#utility.yul\":7911:7916   */\n      0x00\n        /* \"#utility.yul\":7949:7955   */\n      dup2\n        /* \"#utility.yul\":7936:7956   */\n      calldataload\n        /* \"#utility.yul\":7927:7956   */\n      swap1\n      pop\n        /* \"#utility.yul\":7965:8014   */\n      tag_535\n        /* \"#utility.yul\":8008:8013   */\n      dup2\n        /* \"#utility.yul\":7965:8014   */\n      tag_407\n      jump\t// in\n    tag_535:\n        /* \"#utility.yul\":7849:8020   */\n      swap3\n      swap2\n      pop\n      pop\n      jump\t// out\n        /* \"#utility.yul\":8026:8387   */\n    tag_35:\n        /* \"#utility.yul\":8101:8107   */\n      0x00\n        /* \"#utility.yul\":8150:8152   */\n      0x20\n        /* \"#utility.yul\":8138:8147   */\n      dup3\n        /* \"#utility.yul\":8129:8136   */\n      dup5\n        /* \"#utility.yul\":8125:8148   */\n      sub\n        /* \"#utility.yul\":8121:8153   */\n      slt\n        /* \"#utility.yul\":8118:8237   */\n      iszero\n      tag_537\n      jumpi\n        /* \"#utility.yul\":8156:8235   */\n      tag_538\n      tag_383\n      jump\t// in\n    tag_538:\n        /* \"#utility.yul\":8118:8237   */\n    tag_537:\n        /* \"#utility.yul\":8276:8277   */\n      0x00\n        /* \"#utility.yul\":8301:8370   */\n      tag_539\n        /* \"#utility.yul\":8362:8369   */\n      dup5\n        /* \"#utility.yul\":8353:8359   */\n      dup3\n        /* \"#utility.yul\":8342:8351   */\n      dup6\n        /* \"#utility.yul\":8338:8360   */\n      add\n        /* \"#utility.yul\":8301:8370   */\n      tag_408\n      jump\t// in\n    tag_539:\n        /* \"#utility.yul\":8291:8370   */\n      swap2\n      pop\n        /* \"#utility.yul\":8247:8380   */\n      pop\n        /* \"#utility.yul\":8026:8387   */\n      swap3\n      swap2\n      pop\n      pop\n      jump\t// out\n        /* \"#utility.yul\":8393:8501   */\n    tag_409:\n        /* \"#utility.yul\":8475:8476   */\n      0x02\n        /* \"#utility.yul\":8468:8473   */\n      dup2\n        /* \"#utility.yul\":8465:8477   */\n      lt\n        /* \"#utility.yul\":8455:8495   */\n      tag_541\n      jumpi\n        /* \"#utility.yul\":8491:8492   */\n      0x00\n        /* \"#utility.yul\":8488:8489   */\n      dup1\n        /* \"#utility.yul\":8481:8493   */\n      revert\n        /* \"#utility.yul\":8455:8495   */\n    tag_541:\n        /* \"#utility.yul\":8393:8501   */\n      pop\n      jump\t// out\n        /* \"#utility.yul\":8507:8664   */\n    tag_410:\n        /* \"#utility.yul\":8562:8567   */\n      0x00\n        /* \"#utility.yul\":8600:8606   */\n      dup2\n        /* \"#utility.yul\":8587:8607   */\n      calldataload\n        /* \"#utility.yul\":8578:8607   */\n      swap1\n      pop\n        /* \"#utility.yul\":8616:8658   */\n      tag_543\n        /* \"#utility.yul\":8652:8657   */\n      dup2\n        /* \"#utility.yul\":8616:8658   */\n      tag_409\n      jump\t// in\n    tag_543:\n        /* \"#utility.yul\":8507:8664   */\n      swap3\n      swap2\n      pop\n      pop\n      jump\t// out\n        /* \"#utility.yul\":8670:9362   */\n    tag_41:\n        /* \"#utility.yul\":8759:8765   */\n      0x00\n        /* \"#utility.yul\":8767:8773   */\n      dup1\n        /* \"#utility.yul\":8775:8781   */\n      0x00\n        /* \"#utility.yul\":8824:8826   */\n      0x40\n        /* \"#utility.yul\":8812:8821   */\n      dup5\n        /* \"#utility.yul\":8803:8810   */\n      dup7\n        /* \"#utility.yul\":8799:8822   */\n      sub\n        /* \"#utility.yul\":8795:8827   */\n      slt\n        /* \"#utility.yul\":8792:8911   */\n      iszero\n      tag_545\n      jumpi\n        /* \"#utility.yul\":8830:8909   */\n      tag_546\n      tag_383\n      jump\t// in\n    tag_546:\n        /* \"#utility.yul\":8792:8911   */\n    tag_545:\n        /* \"#utility.yul\":8978:8979   */\n      0x00\n        /* \"#utility.yul\":8967:8976   */\n      dup5\n        /* \"#utility.yul\":8963:8980   */\n      add\n        /* \"#utility.yul\":8950:8981   */\n      calldataload\n        /* \"#utility.yul\":9008:9026   */\n      0xffffffffffffffff\n        /* \"#utility.yul\":9000:9006   */\n      dup2\n        /* \"#utility.yul\":8997:9027   */\n      gt\n        /* \"#utility.yul\":8994:9111   */\n      iszero\n      tag_547\n      jumpi\n        /* \"#utility.yul\":9030:9109   */\n      tag_548\n      tag_384\n      jump\t// in\n    tag_548:\n        /* \"#utility.yul\":8994:9111   */\n    tag_547:\n        /* \"#utility.yul\":9143:9208   */\n      tag_549\n        /* \"#utility.yul\":9200:9207   */\n      dup7\n        /* \"#utility.yul\":9191:9197   */\n      dup3\n        /* \"#utility.yul\":9180:9189   */\n      dup8\n        /* \"#utility.yul\":9176:9198   */\n      add\n        /* \"#utility.yul\":9143:9208   */\n      tag_388\n      jump\t// in\n    tag_549:\n        /* \"#utility.yul\":9125:9208   */\n      swap4\n      pop\n      swap4\n      pop\n        /* \"#utility.yul\":8921:9218   */\n      pop\n        /* \"#utility.yul\":9257:9259   */\n      0x20\n        /* \"#utility.yul\":9283:9345   */\n      tag_550\n        /* \"#utility.yul\":9337:9344   */\n      dup7\n        /* \"#utility.yul\":9328:9334   */\n      dup3\n        /* \"#utility.yul\":9317:9326   */\n      dup8\n        /* \"#utility.yul\":9313:9335   */\n      add\n        /* \"#utility.yul\":9283:9345   */\n      tag_410\n      jump\t// in\n    tag_550:\n        /* \"#utility.yul\":9273:9345   */\n      swap2\n      pop\n        /* \"#utility.yul\":9228:9355   */\n      pop\n        /* \"#utility.yul\":8670:9362   */\n      swap3\n      pop\n      swap3\n      pop\n      swap3\n      jump\t// out\n        /* \"#utility.yul\":9368:9482   */\n    tag_411:\n        /* \"#utility.yul\":9450:9451   */\n      0x02\n        /* \"#utility.yul\":9443:9448   */\n      dup2\n        /* \"#utility.yul\":9440:9452   */\n      lt\n        /* \"#utility.yul\":9430:9476   */\n      tag_552\n      jumpi\n        /* \"#utility.yul\":9456:9474   */\n      tag_553\n      tag_64\n      jump\t// in\n    tag_553:\n        /* \"#utility.yul\":9430:9476   */\n    tag_552:\n        /* \"#utility.yul\":9368:9482   */\n      pop\n      jump\t// out\n        /* \"#utility.yul\":9488:9617   */\n    tag_412:\n        /* \"#utility.yul\":9534:9541   */\n      0x00\n        /* \"#utility.yul\":9563:9568   */\n      dup2\n        /* \"#utility.yul\":9552:9568   */\n      swap1\n      pop\n        /* \"#utility.yul\":9569:9611   */\n      tag_555\n        /* \"#utility.yul\":9605:9610   */\n      dup3\n        /* \"#utility.yul\":9569:9611   */\n      tag_411\n      jump\t// in\n    tag_555:\n        /* \"#utility.yul\":9488:9617   */\n      swap2\n      swap1\n      pop\n      jump\t// out\n        /* \"#utility.yul\":9623:9752   */\n    tag_413:\n        /* \"#utility.yul\":9680:9689   */\n      0x00\n        /* \"#utility.yul\":9713:9746   */\n      tag_557\n        /* \"#utility.yul\":9740:9745   */\n      dup3\n        /* \"#utility.yul\":9713:9746   */\n      tag_412\n      jump\t// in\n    tag_557:\n        /* \"#utility.yul\":9700:9746   */\n      swap1\n      pop\n        /* \"#utility.yul\":9623:9752   */\n      swap2\n      swap1\n      pop\n      jump\t// out\n        /* \"#utility.yul\":9758:9893   */\n    tag_414:\n        /* \"#utility.yul\":9842:9886   */\n      tag_559\n        /* \"#utility.yul\":9880:9885   */\n      dup2\n        /* \"#utility.yul\":9842:9886   */\n      tag_413\n      jump\t// in\n    tag_559:\n        /* \"#utility.yul\":9837:9840   */\n      dup3\n        /* \"#utility.yul\":9830:9887   */\n      mstore\n        /* \"#utility.yul\":9758:9893   */\n      pop\n      pop\n      jump\t// out\n        /* \"#utility.yul\":9899:10014   */\n    tag_415:\n        /* \"#utility.yul\":9982:9983   */\n      0x02\n        /* \"#utility.yul\":9975:9980   */\n      dup2\n        /* \"#utility.yul\":9972:9984   */\n      lt\n        /* \"#utility.yul\":9962:10008   */\n      tag_561\n      jumpi\n        /* \"#utility.yul\":9988:10006   */\n      tag_562\n      tag_64\n      jump\t// in\n    tag_562:\n        /* \"#utility.yul\":9962:10008   */\n    tag_561:\n        /* \"#utility.yul\":9899:10014   */\n      pop\n      jump\t// out\n        /* \"#utility.yul\":10020:10151   */\n    tag_416:\n        /* \"#utility.yul\":10067:10074   */\n      0x00\n        /* \"#utility.yul\":10096:10101   */\n      dup2\n        /* \"#utility.yul\":10085:10101   */\n      swap1\n      pop\n        /* \"#utility.yul\":10102:10145   */\n      tag_564\n        /* \"#utility.yul\":10139:10144   */\n      dup3\n        /* \"#utility.yul\":10102:10145   */\n      tag_415\n      jump\t// in\n    tag_564:\n        /* \"#utility.yul\":10020:10151   */\n      swap2\n      swap1\n      pop\n      jump\t// out\n        /* \"#utility.yul\":10157:10288   */\n    tag_417:\n        /* \"#utility.yul\":10215:10224   */\n      0x00\n        /* \"#utility.yul\":10248:10282   */\n      tag_566\n        /* \"#utility.yul\":10276:10281   */\n      dup3\n        /* \"#utility.yul\":10248:10282   */\n      tag_416\n      jump\t// in\n    tag_566:\n        /* \"#utility.yul\":10235:10282   */\n      swap1\n      pop\n        /* \"#utility.yul\":10157:10288   */\n      swap2\n      swap1\n      pop\n      jump\t// out\n        /* \"#utility.yul\":10294:10431   */\n    tag_418:\n        /* \"#utility.yul\":10379:10424   */\n      tag_568\n        /* \"#utility.yul\":10418:10423   */\n      dup2\n        /* \"#utility.yul\":10379:10424   */\n      tag_417\n      jump\t// in\n    tag_568:\n        /* \"#utility.yul\":10374:10377   */\n      dup3\n        /* \"#utility.yul\":10367:10425   */\n      mstore\n        /* \"#utility.yul\":10294:10431   */\n      pop\n      pop\n      jump\t// out\n        /* \"#utility.yul\":10471:11262   */\n    tag_419:\n        /* \"#utility.yul\":10580:10583   */\n      0x00\n        /* \"#utility.yul\":10616:10620   */\n      0x60\n        /* \"#utility.yul\":10611:10614   */\n      dup4\n        /* \"#utility.yul\":10607:10621   */\n      add\n        /* \"#utility.yul\":10703:10707   */\n      0x00\n        /* \"#utility.yul\":10696:10701   */\n      dup4\n        /* \"#utility.yul\":10692:10708   */\n      add\n        /* \"#utility.yul\":10686:10709   */\n      mload\n        /* \"#utility.yul\":10756:10759   */\n      dup5\n        /* \"#utility.yul\":10750:10754   */\n      dup3\n        /* \"#utility.yul\":10746:10760   */\n      sub\n        /* \"#utility.yul\":10739:10743   */\n      0x00\n        /* \"#utility.yul\":10734:10737   */\n      dup7\n        /* \"#utility.yul\":10730:10744   */\n      add\n        /* \"#utility.yul\":10723:10761   */\n      mstore\n        /* \"#utility.yul\":10782:10855   */\n      tag_570\n        /* \"#utility.yul\":10850:10854   */\n      dup3\n        /* \"#utility.yul\":10836:10848   */\n      dup3\n        /* \"#utility.yul\":10782:10855   */\n      tag_396\n      jump\t// in\n    tag_570:\n        /* \"#utility.yul\":10774:10855   */\n      swap2\n      pop\n        /* \"#utility.yul\":10631:10866   */\n      pop\n        /* \"#utility.yul\":10950:10954   */\n      0x20\n        /* \"#utility.yul\":10943:10948   */\n      dup4\n        /* \"#utility.yul\":10939:10955   */\n      add\n        /* \"#utility.yul\":10933:10956   */\n      mload\n        /* \"#utility.yul\":10969:11039   */\n      tag_571\n        /* \"#utility.yul\":11033:11037   */\n      0x20\n        /* \"#utility.yul\":11028:11031   */\n      dup7\n        /* \"#utility.yul\":11024:11038   */\n      add\n        /* \"#utility.yul\":11010:11022   */\n      dup3\n        /* \"#utility.yul\":10969:11039   */\n      tag_414\n      jump\t// in\n    tag_571:\n        /* \"#utility.yul\":10876:11049   */\n      pop\n        /* \"#utility.yul\":11135:11139   */\n      0x40\n        /* \"#utility.yul\":11128:11133   */\n      dup4\n        /* \"#utility.yul\":11124:11140   */\n      add\n        /* \"#utility.yul\":11118:11141   */\n      mload\n        /* \"#utility.yul\":11154:11225   */\n      tag_572\n        /* \"#utility.yul\":11219:11223   */\n      0x40\n        /* \"#utility.yul\":11214:11217   */\n      dup7\n        /* \"#utility.yul\":11210:11224   */\n      add\n        /* \"#utility.yul\":11196:11208   */\n      dup3\n        /* \"#utility.yul\":11154:11225   */\n      tag_418\n      jump\t// in\n    tag_572:\n        /* \"#utility.yul\":11059:11235   */\n      pop\n        /* \"#utility.yul\":11252:11256   */\n      dup1\n        /* \"#utility.yul\":11245:11256   */\n      swap2\n      pop\n        /* \"#utility.yul\":10585:11262   */\n      pop\n        /* \"#utility.yul\":10471:11262   */\n      swap3\n      swap2\n      pop\n      pop\n      jump\t// out\n        /* \"#utility.yul\":11268:11621   */\n    tag_57:\n        /* \"#utility.yul\":11401:11405   */\n      0x00\n        /* \"#utility.yul\":11439:11441   */\n      0x20\n        /* \"#utility.yul\":11428:11437   */\n      dup3\n        /* \"#utility.yul\":11424:11442   */\n      add\n        /* \"#utility.yul\":11416:11442   */\n      swap1\n      pop\n        /* \"#utility.yul\":11488:11497   */\n      dup2\n        /* \"#utility.yul\":11482:11486   */\n      dup2\n        /* \"#utility.yul\":11478:11498   */\n      sub\n        /* \"#utility.yul\":11474:11475   */\n      0x00\n        /* \"#utility.yul\":11463:11472   */\n      dup4\n        /* \"#utility.yul\":11459:11476   */\n      add\n        /* \"#utility.yul\":11452:11499   */\n      mstore\n        /* \"#utility.yul\":11516:11614   */\n      tag_574\n        /* \"#utility.yul\":11609:11613   */\n      dup2\n        /* \"#utility.yul\":11600:11606   */\n      dup5\n        /* \"#utility.yul\":11516:11614   */\n      tag_419\n      jump\t// in\n    tag_574:\n        /* \"#utility.yul\":11508:11614   */\n      swap1\n      pop\n        /* \"#utility.yul\":11268:11621   */\n      swap3\n      swap2\n      pop\n      pop\n      jump\t// out\n        /* \"#utility.yul\":11627:11807   */\n    tag_420:\n        /* \"#utility.yul\":11675:11752   */\n      0x4e487b7100000000000000000000000000000000000000000000000000000000\n        /* \"#utility.yul\":11672:11673   */\n      0x00\n        /* \"#utility.yul\":11665:11753   */\n      mstore\n        /* \"#utility.yul\":11772:11776   */\n      0x22\n        /* \"#utility.yul\":11769:11770   */\n      0x04\n        /* \"#utility.yul\":11762:11777   */\n      mstore\n        /* \"#utility.yul\":11796:11800   */\n      0x24\n        /* \"#utility.yul\":11793:11794   */\n      0x00\n        /* \"#utility.yul\":11786:11801   */\n      revert\n        /* \"#utility.yul\":11813:12133   */\n    tag_60:\n        /* \"#utility.yul\":11857:11863   */\n      0x00\n        /* \"#utility.yul\":11894:11895   */\n      0x02\n        /* \"#utility.yul\":11888:11892   */\n      dup3\n        /* \"#utility.yul\":11884:11896   */\n      div\n        /* \"#utility.yul\":11874:11896   */\n      swap1\n      pop\n        /* \"#utility.yul\":11941:11942   */\n      0x01\n        /* \"#utility.yul\":11935:11939   */\n      dup3\n        /* \"#utility.yul\":11931:11943   */\n      and\n        /* \"#utility.yul\":11962:11980   */\n      dup1\n        /* \"#utility.yul\":11952:12033   */\n      tag_577\n      jumpi\n        /* \"#utility.yul\":12018:12022   */\n      0x7f\n        /* \"#utility.yul\":12010:12016   */\n      dup3\n        /* \"#utility.yul\":12006:12023   */\n      and\n        /* \"#utility.yul\":11996:12023   */\n      swap2\n      pop\n        /* \"#utility.yul\":11952:12033   */\n    tag_577:\n        /* \"#utility.yul\":12080:12082   */\n      0x20\n        /* \"#utility.yul\":12072:12078   */\n      dup3\n        /* \"#utility.yul\":12069:12083   */\n      lt\n        /* \"#utility.yul\":12049:12067   */\n      dup2\n        /* \"#utility.yul\":12046:12084   */\n      sub\n        /* \"#utility.yul\":12043:12127   */\n      tag_578\n      jumpi\n        /* \"#utility.yul\":12099:12117   */\n      tag_579\n      tag_420\n      jump\t// in\n    tag_579:\n        /* \"#utility.yul\":12043:12127   */\n    tag_578:\n        /* \"#utility.yul\":11864:12133   */\n      pop\n        /* \"#utility.yul\":11813:12133   */\n      swap2\n      swap1\n      pop\n      jump\t// out\n        /* \"#utility.yul\":12139:12287   */\n    tag_421:\n        /* \"#utility.yul\":12241:12252   */\n      0x00\n        /* \"#utility.yul\":12278:12281   */\n      dup2\n        /* \"#utility.yul\":12263:12281   */\n      swap1\n      pop\n        /* \"#utility.yul\":12139:12287   */\n      swap3\n      swap2\n      pop\n      pop\n      jump\t// out\n        /* \"#utility.yul\":12293:12683   */\n    tag_422:\n        /* \"#utility.yul\":12399:12402   */\n      0x00\n        /* \"#utility.yul\":12427:12466   */\n      tag_582\n        /* \"#utility.yul\":12460:12465   */\n      dup3\n        /* \"#utility.yul\":12427:12466   */\n      tag_392\n      jump\t// in\n    tag_582:\n        /* \"#utility.yul\":12482:12571   */\n      tag_583\n        /* \"#utility.yul\":12564:12570   */\n      dup2\n        /* \"#utility.yul\":12559:12562   */\n      dup6\n        /* \"#utility.yul\":12482:12571   */\n      tag_421\n      jump\t// in\n    tag_583:\n        /* \"#utility.yul\":12475:12571   */\n      swap4\n      pop\n        /* \"#utility.yul\":12580:12645   */\n      tag_584\n        /* \"#utility.yul\":12638:12644   */\n      dup2\n        /* \"#utility.yul\":12633:12636   */\n      dup6\n        /* \"#utility.yul\":12626:12630   */\n      0x20\n        /* \"#utility.yul\":12619:12624   */\n      dup7\n        /* \"#utility.yul\":12615:12631   */\n      add\n        /* \"#utility.yul\":12580:12645   */\n      tag_394\n      jump\t// in\n    tag_584:\n        /* \"#utility.yul\":12670:12676   */\n      dup1\n        /* \"#utility.yul\":12665:12668   */\n      dup5\n        /* \"#utility.yul\":12661:12677   */\n      add\n        /* \"#utility.yul\":12654:12677   */\n      swap2\n      pop\n        /* \"#utility.yul\":12403:12683   */\n      pop\n        /* \"#utility.yul\":12293:12683   */\n      swap3\n      swap2\n      pop\n      pop\n      jump\t// out\n        /* \"#utility.yul\":12689:12964   */\n    tag_66:\n        /* \"#utility.yul\":12821:12824   */\n      0x00\n        /* \"#utility.yul\":12843:12938   */\n      tag_586\n        /* \"#utility.yul\":12934:12937   */\n      dup3\n        /* \"#utility.yul\":12925:12931   */\n      dup5\n        /* \"#utility.yul\":12843:12938   */\n      tag_422\n      jump\t// in\n    tag_586:\n        /* \"#utility.yul\":12836:12938   */\n      swap2\n      pop\n        /* \"#utility.yul\":12955:12958   */\n      dup2\n        /* \"#utility.yul\":12948:12958   */\n      swap1\n      pop\n        /* \"#utility.yul\":12689:12964   */\n      swap3\n      swap2\n      pop\n      pop\n      jump\t// out\n        /* \"#utility.yul\":12970:13139   */\n    tag_423:\n        /* \"#utility.yul\":13054:13065   */\n      0x00\n        /* \"#utility.yul\":13088:13094   */\n      dup3\n        /* \"#utility.yul\":13083:13086   */\n      dup3\n        /* \"#utility.yul\":13076:13095   */\n      mstore\n        /* \"#utility.yul\":13128:13132   */\n      0x20\n        /* \"#utility.yul\":13123:13126   */\n      dup3\n        /* \"#utility.yul\":13119:13133   */\n      add\n        /* \"#utility.yul\":13104:13133   */\n      swap1\n      pop\n        /* \"#utility.yul\":12970:13139   */\n      swap3\n      swap2\n      pop\n      pop\n      jump\t// out\n        /* \"#utility.yul\":13145:13310   */\n    tag_424:\n        /* \"#utility.yul\":13285:13302   */\n      0x4361726420697320496e76616c69640000000000000000000000000000000000\n        /* \"#utility.yul\":13281:13282   */\n      0x00\n        /* \"#utility.yul\":13273:13279   */\n      dup3\n        /* \"#utility.yul\":13269:13283   */\n      add\n        /* \"#utility.yul\":13262:13303   */\n      mstore\n        /* \"#utility.yul\":13145:13310   */\n      pop\n      jump\t// out\n        /* \"#utility.yul\":13316:13682   */\n    tag_425:\n        /* \"#utility.yul\":13458:13461   */\n      0x00\n        /* \"#utility.yul\":13479:13546   */\n      tag_590\n        /* \"#utility.yul\":13543:13545   */\n      0x0f\n        /* \"#utility.yul\":13538:13541   */\n      dup4\n        /* \"#utility.yul\":13479:13546   */\n      tag_423\n      jump\t// in\n    tag_590:\n        /* \"#utility.yul\":13472:13546   */\n      swap2\n      pop\n        /* \"#utility.yul\":13555:13648   */\n      tag_591\n        /* \"#utility.yul\":13644:13647   */\n      dup3\n        /* \"#utility.yul\":13555:13648   */\n      tag_424\n      jump\t// in\n    tag_591:\n        /* \"#utility.yul\":13673:13675   */\n      0x20\n        /* \"#utility.yul\":13668:13671   */\n      dup3\n        /* \"#utility.yul\":13664:13676   */\n      add\n        /* \"#utility.yul\":13657:13676   */\n      swap1\n      pop\n        /* \"#utility.yul\":13316:13682   */\n      swap2\n      swap1\n      pop\n      jump\t// out\n        /* \"#utility.yul\":13688:14107   */\n    tag_71:\n        /* \"#utility.yul\":13854:13858   */\n      0x00\n        /* \"#utility.yul\":13892:13894   */\n      0x20\n        /* \"#utility.yul\":13881:13890   */\n      dup3\n        /* \"#utility.yul\":13877:13895   */\n      add\n        /* \"#utility.yul\":13869:13895   */\n      swap1\n      pop\n        /* \"#utility.yul\":13941:13950   */\n      dup2\n        /* \"#utility.yul\":13935:13939   */\n      dup2\n        /* \"#utility.yul\":13931:13951   */\n      sub\n        /* \"#utility.yul\":13927:13928   */\n      0x00\n        /* \"#utility.yul\":13916:13925   */\n      dup4\n        /* \"#utility.yul\":13912:13929   */\n      add\n        /* \"#utility.yul\":13905:13952   */\n      mstore\n        /* \"#utility.yul\":13969:14100   */\n      tag_593\n        /* \"#utility.yul\":14095:14099   */\n      dup2\n        /* \"#utility.yul\":13969:14100   */\n      tag_425\n      jump\t// in\n    tag_593:\n        /* \"#utility.yul\":13961:14100   */\n      swap1\n      pop\n        /* \"#utility.yul\":13688:14107   */\n      swap2\n      swap1\n      pop\n      jump\t// out\n        /* \"#utility.yul\":14113:14282   */\n    tag_426:\n        /* \"#utility.yul\":14253:14274   */\n      0x5573657220646f6573206e6f7420657869737400000000000000000000000000\n        /* \"#utility.yul\":14249:14250   */\n      0x00\n        /* \"#utility.yul\":14241:14247   */\n      dup3\n        /* \"#utility.yul\":14237:14251   */\n      add\n        /* \"#utility.yul\":14230:14275   */\n      mstore\n        /* \"#utility.yul\":14113:14282   */\n      pop\n      jump\t// out\n        /* \"#utility.yul\":14288:14654   */\n    tag_427:\n        /* \"#utility.yul\":14430:14433   */\n      0x00\n        /* \"#utility.yul\":14451:14518   */\n      tag_596\n        /* \"#utility.yul\":14515:14517   */\n      0x13\n        /* \"#utility.yul\":14510:14513   */\n      dup4\n        /* \"#utility.yul\":14451:14518   */\n      tag_423\n      jump\t// in\n    tag_596:\n        /* \"#utility.yul\":14444:14518   */\n      swap2\n      pop\n        /* \"#utility.yul\":14527:14620   */\n      tag_597\n        /* \"#utility.yul\":14616:14619   */\n      dup3\n        /* \"#utility.yul\":14527:14620   */\n      tag_426\n      jump\t// in\n    tag_597:\n        /* \"#utility.yul\":14645:14647   */\n      0x20\n        /* \"#utility.yul\":14640:14643   */\n      dup3\n        /* \"#utility.yul\":14636:14648   */\n      add\n        /* \"#utility.yul\":14629:14648   */\n      swap1\n      pop\n        /* \"#utility.yul\":14288:14654   */\n      swap2\n      swap1\n      pop\n      jump\t// out\n        /* \"#utility.yul\":14660:15079   */\n    tag_76:\n        /* \"#utility.yul\":14826:14830   */\n      0x00\n        /* \"#utility.yul\":14864:14866   */\n      0x20\n        /* \"#utility.yul\":14853:14862   */\n      dup3\n        /* \"#utility.yul\":14849:14867   */\n      add\n        /* \"#utility.yul\":14841:14867   */\n      swap1\n      pop\n        /* \"#utility.yul\":14913:14922   */\n      dup2\n        /* \"#utility.yul\":14907:14911   */\n      dup2\n        /* \"#utility.yul\":14903:14923   */\n      sub\n        /* \"#utility.yul\":14899:14900   */\n      0x00\n        /* \"#utility.yul\":14888:14897   */\n      dup4\n        /* \"#utility.yul\":14884:14901   */\n      add\n        /* \"#utility.yul\":14877:14924   */\n      mstore\n        /* \"#utility.yul\":14941:15072   */\n      tag_599\n        /* \"#utility.yul\":15067:15071   */\n      dup2\n        /* \"#utility.yul\":14941:15072   */\n      tag_427\n      jump\t// in\n    tag_599:\n        /* \"#utility.yul\":14933:15072   */\n      swap1\n      pop\n        /* \"#utility.yul\":14660:15079   */\n      swap2\n      swap1\n      pop\n      jump\t// out\n        /* \"#utility.yul\":15085:15266   */\n    tag_428:\n        /* \"#utility.yul\":15225:15258   */\n      0x5265656e7472616e637947756172643a207265656e7472616e742063616c6c00\n        /* \"#utility.yul\":15221:15222   */\n      0x00\n        /* \"#utility.yul\":15213:15219   */\n      dup3\n        /* \"#utility.yul\":15209:15223   */\n      add\n        /* \"#utility.yul\":15202:15259   */\n      mstore\n        /* \"#utility.yul\":15085:15266   */\n      pop\n      jump\t// out\n        /* \"#utility.yul\":15272:15638   */\n    tag_429:\n        /* \"#utility.yul\":15414:15417   */\n      0x00\n        /* \"#utility.yul\":15435:15502   */\n      tag_602\n        /* \"#utility.yul\":15499:15501   */\n      0x1f\n        /* \"#utility.yul\":15494:15497   */\n      dup4\n        /* \"#utility.yul\":15435:15502   */\n      tag_423\n      jump\t// in\n    tag_602:\n        /* \"#utility.yul\":15428:15502   */\n      swap2\n      pop\n        /* \"#utility.yul\":15511:15604   */\n      tag_603\n        /* \"#utility.yul\":15600:15603   */\n      dup3\n        /* \"#utility.yul\":15511:15604   */\n      tag_428\n      jump\t// in\n    tag_603:\n        /* \"#utility.yul\":15629:15631   */\n      0x20\n        /* \"#utility.yul\":15624:15627   */\n      dup3\n        /* \"#utility.yul\":15620:15632   */\n      add\n        /* \"#utility.yul\":15613:15632   */\n      swap1\n      pop\n        /* \"#utility.yul\":15272:15638   */\n      swap2\n      swap1\n      pop\n      jump\t// out\n        /* \"#utility.yul\":15644:16063   */\n    tag_80:\n        /* \"#utility.yul\":15810:15814   */\n      0x00\n        /* \"#utility.yul\":15848:15850   */\n      0x20\n        /* \"#utility.yul\":15837:15846   */\n      dup3\n        /* \"#utility.yul\":15833:15851   */\n      add\n        /* \"#utility.yul\":15825:15851   */\n      swap1\n      pop\n        /* \"#utility.yul\":15897:15906   */\n      dup2\n        /* \"#utility.yul\":15891:15895   */\n      dup2\n        /* \"#utility.yul\":15887:15907   */\n      sub\n        /* \"#utility.yul\":15883:15884   */\n      0x00\n        /* \"#utility.yul\":15872:15881   */\n      dup4\n        /* \"#utility.yul\":15868:15885   */\n      add\n        /* \"#utility.yul\":15861:15908   */\n      mstore\n        /* \"#utility.yul\":15925:16056   */\n      tag_605\n        /* \"#utility.yul\":16051:16055   */\n      dup2\n        /* \"#utility.yul\":15925:16056   */\n      tag_429\n      jump\t// in\n    tag_605:\n        /* \"#utility.yul\":15917:16056   */\n      swap1\n      pop\n        /* \"#utility.yul\":15644:16063   */\n      swap2\n      swap1\n      pop\n      jump\t// out\n        /* \"#utility.yul\":16069:16217   */\n    tag_430:\n        /* \"#utility.yul\":16167:16173   */\n      dup3\n        /* \"#utility.yul\":16162:16165   */\n      dup2\n        /* \"#utility.yul\":16157:16160   */\n      dup4\n        /* \"#utility.yul\":16144:16174   */\n      calldatacopy\n        /* \"#utility.yul\":16208:16209   */\n      0x00\n        /* \"#utility.yul\":16199:16205   */\n      dup4\n        /* \"#utility.yul\":16194:16197   */\n      dup4\n        /* \"#utility.yul\":16190:16206   */\n      add\n        /* \"#utility.yul\":16183:16210   */\n      mstore\n        /* \"#utility.yul\":16069:16217   */\n      pop\n      pop\n      pop\n      jump\t// out\n        /* \"#utility.yul\":16247:16577   */\n    tag_431:\n        /* \"#utility.yul\":16363:16366   */\n      0x00\n        /* \"#utility.yul\":16384:16473   */\n      tag_608\n        /* \"#utility.yul\":16466:16472   */\n      dup4\n        /* \"#utility.yul\":16461:16464   */\n      dup6\n        /* \"#utility.yul\":16384:16473   */\n      tag_421\n      jump\t// in\n    tag_608:\n        /* \"#utility.yul\":16377:16473   */\n      swap4\n      pop\n        /* \"#utility.yul\":16483:16539   */\n      tag_609\n        /* \"#utility.yul\":16532:16538   */\n      dup4\n        /* \"#utility.yul\":16527:16530   */\n      dup6\n        /* \"#utility.yul\":16520:16525   */\n      dup5\n        /* \"#utility.yul\":16483:16539   */\n      tag_430\n      jump\t// in\n    tag_609:\n        /* \"#utility.yul\":16564:16570   */\n      dup3\n        /* \"#utility.yul\":16559:16562   */\n      dup5\n        /* \"#utility.yul\":16555:16571   */\n      add\n        /* \"#utility.yul\":16548:16571   */\n      swap1\n      pop\n        /* \"#utility.yul\":16247:16577   */\n      swap4\n      swap3\n      pop\n      pop\n      pop\n      jump\t// out\n        /* \"#utility.yul\":16583:16878   */\n    tag_83:\n        /* \"#utility.yul\":16725:16728   */\n      0x00\n        /* \"#utility.yul\":16747:16852   */\n      tag_611\n        /* \"#utility.yul\":16848:16851   */\n      dup3\n        /* \"#utility.yul\":16839:16845   */\n      dup5\n        /* \"#utility.yul\":16831:16837   */\n      dup7\n        /* \"#utility.yul\":16747:16852   */\n      tag_431\n      jump\t// in\n    tag_611:\n        /* \"#utility.yul\":16740:16852   */\n      swap2\n      pop\n        /* \"#utility.yul\":16869:16872   */\n      dup2\n        /* \"#utility.yul\":16862:16872   */\n      swap1\n      pop\n        /* \"#utility.yul\":16583:16878   */\n      swap4\n      swap3\n      pop\n      pop\n      pop\n      jump\t// out\n        /* \"#utility.yul\":16884:17031   */\n    tag_432:\n        /* \"#utility.yul\":16985:16996   */\n      0x00\n        /* \"#utility.yul\":17022:17025   */\n      dup2\n        /* \"#utility.yul\":17007:17025   */\n      swap1\n      pop\n        /* \"#utility.yul\":16884:17031   */\n      swap3\n      swap2\n      pop\n      pop\n      jump\t// out\n        /* \"#utility.yul\":17037:17151   */\n    tag_433:\n      pop\n      jump\t// out\n        /* \"#utility.yul\":17157:17555   */\n    tag_434:\n        /* \"#utility.yul\":17316:17319   */\n      0x00\n        /* \"#utility.yul\":17337:17420   */\n      tag_615\n        /* \"#utility.yul\":17418:17419   */\n      0x00\n        /* \"#utility.yul\":17413:17416   */\n      dup4\n        /* \"#utility.yul\":17337:17420   */\n      tag_432\n      jump\t// in\n    tag_615:\n        /* \"#utility.yul\":17330:17420   */\n      swap2\n      pop\n        /* \"#utility.yul\":17429:17522   */\n      tag_616\n        /* \"#utility.yul\":17518:17521   */\n      dup3\n        /* \"#utility.yul\":17429:17522   */\n      tag_433\n      jump\t// in\n    tag_616:\n        /* \"#utility.yul\":17547:17548   */\n      0x00\n        /* \"#utility.yul\":17542:17545   */\n      dup3\n        /* \"#utility.yul\":17538:17549   */\n      add\n        /* \"#utility.yul\":17531:17549   */\n      swap1\n      pop\n        /* \"#utility.yul\":17157:17555   */\n      swap2\n      swap1\n      pop\n      jump\t// out\n        /* \"#utility.yul\":17561:17940   */\n    tag_85:\n        /* \"#utility.yul\":17745:17748   */\n      0x00\n        /* \"#utility.yul\":17767:17914   */\n      tag_618\n        /* \"#utility.yul\":17910:17913   */\n      dup3\n        /* \"#utility.yul\":17767:17914   */\n      tag_434\n      jump\t// in\n    tag_618:\n        /* \"#utility.yul\":17760:17914   */\n      swap2\n      pop\n        /* \"#utility.yul\":17931:17934   */\n      dup2\n        /* \"#utility.yul\":17924:17934   */\n      swap1\n      pop\n        /* \"#utility.yul\":17561:17940   */\n      swap2\n      swap1\n      pop\n      jump\t// out\n        /* \"#utility.yul\":17946:18099   */\n    tag_435:\n        /* \"#utility.yul\":17999:18005   */\n      0x00\n        /* \"#utility.yul\":18033:18038   */\n      dup2\n        /* \"#utility.yul\":18027:18039   */\n      sload\n        /* \"#utility.yul\":18017:18039   */\n      swap1\n      pop\n        /* \"#utility.yul\":18059:18092   */\n      tag_620\n        /* \"#utility.yul\":18085:18091   */\n      dup2\n        /* \"#utility.yul\":18059:18092   */\n      tag_60\n      jump\t// in\n    tag_620:\n        /* \"#utility.yul\":18049:18092   */\n      swap1\n      pop\n        /* \"#utility.yul\":17946:18099   */\n      swap2\n      swap1\n      pop\n      jump\t// out\n        /* \"#utility.yul\":18105:18285   */\n    tag_126:\n        /* \"#utility.yul\":18153:18230   */\n      0x4e487b7100000000000000000000000000000000000000000000000000000000\n        /* \"#utility.yul\":18150:18151   */\n      0x00\n        /* \"#utility.yul\":18143:18231   */\n      mstore\n        /* \"#utility.yul\":18250:18254   */\n      0x41\n        /* \"#utility.yul\":18247:18248   */\n      0x04\n        /* \"#utility.yul\":18240:18255   */\n      mstore\n        /* \"#utility.yul\":18274:18278   */\n      0x24\n        /* \"#utility.yul\":18271:18272   */\n      0x00\n        /* \"#utility.yul\":18264:18279   */\n      revert\n        /* \"#utility.yul\":18291:18432   */\n    tag_436:\n        /* \"#utility.yul\":18340:18344   */\n      0x00\n        /* \"#utility.yul\":18363:18366   */\n      dup2\n        /* \"#utility.yul\":18355:18366   */\n      swap1\n      pop\n        /* \"#utility.yul\":18386:18389   */\n      dup2\n        /* \"#utility.yul\":18383:18384   */\n      0x00\n        /* \"#utility.yul\":18376:18390   */\n      mstore\n        /* \"#utility.yul\":18420:18424   */\n      0x20\n        /* \"#utility.yul\":18417:18418   */\n      0x00\n        /* \"#utility.yul\":18407:18425   */\n      keccak256\n        /* \"#utility.yul\":18399:18425   */\n      swap1\n      pop\n        /* \"#utility.yul\":18291:18432   */\n      swap2\n      swap1\n      pop\n      jump\t// out\n        /* \"#utility.yul\":18438:18583   */\n    tag_437:\n        /* \"#utility.yul\":18491:18495   */\n      0x00\n        /* \"#utility.yul\":18514:18517   */\n      dup2\n        /* \"#utility.yul\":18506:18517   */\n      swap1\n      pop\n        /* \"#utility.yul\":18537:18540   */\n      dup2\n        /* \"#utility.yul\":18534:18535   */\n      0x00\n        /* \"#utility.yul\":18527:18541   */\n      mstore\n        /* \"#utility.yul\":18571:18575   */\n      0x20\n        /* \"#utility.yul\":18568:18569   */\n      0x00\n        /* \"#utility.yul\":18558:18576   */\n      keccak256\n        /* \"#utility.yul\":18550:18576   */\n      swap1\n      pop\n        /* \"#utility.yul\":18438:18583   */\n      swap2\n      swap1\n      pop\n      jump\t// out\n        /* \"#utility.yul\":18589:18682   */\n    tag_438:\n        /* \"#utility.yul\":18626:18632   */\n      0x00\n        /* \"#utility.yul\":18673:18675   */\n      0x20\n        /* \"#utility.yul\":18668:18670   */\n      0x1f\n        /* \"#utility.yul\":18661:18666   */\n      dup4\n        /* \"#utility.yul\":18657:18671   */\n      add\n        /* \"#utility.yul\":18653:18676   */\n      div\n        /* \"#utility.yul\":18643:18676   */\n      swap1\n      pop\n        /* \"#utility.yul\":18589:18682   */\n      swap2\n      swap1\n      pop\n      jump\t// out\n        /* \"#utility.yul\":18688:18795   */\n    tag_439:\n        /* \"#utility.yul\":18732:18740   */\n      0x00\n        /* \"#utility.yul\":18782:18787   */\n      dup3\n        /* \"#utility.yul\":18776:18780   */\n      dup3\n        /* \"#utility.yul\":18772:18788   */\n      shl\n        /* \"#utility.yul\":18751:18788   */\n      swap1\n      pop\n        /* \"#utility.yul\":18688:18795   */\n      swap3\n      swap2\n      pop\n      pop\n      jump\t// out\n        /* \"#utility.yul\":18801:19194   */\n    tag_440:\n        /* \"#utility.yul\":18870:18876   */\n      0x00\n        /* \"#utility.yul\":18920:18921   */\n      0x08\n        /* \"#utility.yul\":18908:18918   */\n      dup4\n        /* \"#utility.yul\":18904:18922   */\n      mul\n        /* \"#utility.yul\":18943:19040   */\n      tag_627\n        /* \"#utility.yul\":18973:19039   */\n      0xffffffffffffffffffffffffffffffffffffffffffffffffffffffffffffffff\n        /* \"#utility.yul\":18962:18971   */\n      dup3\n        /* \"#utility.yul\":18943:19040   */\n      tag_439\n      jump\t// in\n    tag_627:\n        /* \"#utility.yul\":19061:19100   */\n      tag_628\n        /* \"#utility.yul\":19091:19099   */\n      dup7\n        /* \"#utility.yul\":19080:19089   */\n      dup4\n        /* \"#utility.yul\":19061:19100   */\n      tag_439\n      jump\t// in\n    tag_628:\n        /* \"#utility.yul\":19049:19100   */\n      swap6\n      pop\n        /* \"#utility.yul\":19133:19137   */\n      dup1\n        /* \"#utility.yul\":19129:19138   */\n      not\n        /* \"#utility.yul\":19122:19127   */\n      dup5\n        /* \"#utility.yul\":19118:19139   */\n      and\n        /* \"#utility.yul\":19109:19139   */\n      swap4\n      pop\n        /* \"#utility.yul\":19182:19186   */\n      dup1\n        /* \"#utility.yul\":19172:19180   */\n      dup7\n        /* \"#utility.yul\":19168:19187   */\n      and\n        /* \"#utility.yul\":19161:19166   */\n      dup5\n        /* \"#utility.yul\":19158:19188   */\n      or\n        /* \"#utility.yul\":19148:19188   */\n      swap3\n      pop\n        /* \"#utility.yul\":18877:19194   */\n      pop\n      pop\n        /* \"#utility.yul\":18801:19194   */\n      swap4\n      swap3\n      pop\n      pop\n      pop\n      jump\t// out\n        /* \"#utility.yul\":19200:19260   */\n    tag_441:\n        /* \"#utility.yul\":19228:19231   */\n      0x00\n        /* \"#utility.yul\":19249:19254   */\n      dup2\n        /* \"#utility.yul\":19242:19254   */\n      swap1\n      pop\n        /* \"#utility.yul\":19200:19260   */\n      swap2\n      swap1\n      pop\n      jump\t// out\n        /* \"#utility.yul\":19266:19408   */\n    tag_442:\n        /* \"#utility.yul\":19316:19325   */\n      0x00\n        /* \"#utility.yul\":19349:19402   */\n      tag_631\n        /* \"#utility.yul\":19367:19401   */\n      tag_632\n        /* \"#utility.yul\":19376:19400   */\n      tag_633\n        /* \"#utility.yul\":19394:19399   */\n      dup5\n        /* \"#utility.yul\":19376:19400   */\n      tag_397\n      jump\t// in\n    tag_633:\n        /* \"#utility.yul\":19367:19401   */\n      tag_441\n      jump\t// in\n    tag_632:\n        /* \"#utility.yul\":19349:19402   */\n      tag_397\n      jump\t// in\n    tag_631:\n        /* \"#utility.yul\":19336:19402   */\n      swap1\n      pop\n        /* \"#utility.yul\":19266:19408   */\n      swap2\n      swap1\n      pop\n      jump\t// out\n        /* \"#utility.yul\":19414:19489   */\n    tag_443:\n        /* \"#utility.yul\":19457:19460   */\n      0x00\n        /* \"#utility.yul\":19478:19483   */\n      dup2\n        /* \"#utility.yul\":19471:19483   */\n      swap1\n      pop\n        /* \"#utility.yul\":19414:19489   */\n      swap2\n      swap1\n      pop\n      jump\t// out\n        /* \"#utility.yul\":19495:19764   */\n    tag_444:\n        /* \"#utility.yul\":19605:19644   */\n      tag_636\n        /* \"#utility.yul\":19636:19643   */\n      dup4\n        /* \"#utility.yul\":19605:19644   */\n      tag_442\n      jump\t// in\n    tag_636:\n        /* \"#utility.yul\":19666:19757   */\n      tag_637\n        /* \"#utility.yul\":19715:19756   */\n      tag_638\n        /* \"#utility.yul\":19739:19755   */\n      dup3\n        /* \"#utility.yul\":19715:19756   */\n      tag_443\n      jump\t// in\n    tag_638:\n        /* \"#utility.yul\":19707:19713   */\n      dup5\n        /* \"#utility.yul\":19700:19704   */\n      dup5\n        /* \"#utility.yul\":19694:19705   */\n      sload\n        /* \"#utility.yul\":19666:19757   */\n      tag_440\n      jump\t// in\n    tag_637:\n        /* \"#utility.yul\":19660:19664   */\n      dup3\n        /* \"#utility.yul\":19653:19758   */\n      sstore\n        /* \"#utility.yul\":19571:19764   */\n      pop\n        /* \"#utility.yul\":19495:19764   */\n      pop\n      pop\n      pop\n      jump\t// out\n        /* \"#utility.yul\":19770:19843   */\n    tag_445:\n        /* \"#utility.yul\":19815:19818   */\n      0x00\n        /* \"#utility.yul\":19770:19843   */\n      swap1\n      jump\t// out\n        /* \"#utility.yul\":19849:20038   */\n    tag_446:\n        /* \"#utility.yul\":19926:19958   */\n      tag_641\n      tag_445\n      jump\t// in\n    tag_641:\n        /* \"#utility.yul\":19967:20032   */\n      tag_642\n        /* \"#utility.yul\":20025:20031   */\n      dup2\n        /* \"#utility.yul\":20017:20023   */\n      dup5\n        /* \"#utility.yul\":20011:20015   */\n      dup5\n        /* \"#utility.yul\":19967:20032   */\n      tag_444\n      jump\t// in\n    tag_642:\n        /* \"#utility.yul\":19902:20038   */\n      pop\n        /* \"#utility.yul\":19849:20038   */\n      pop\n      pop\n      jump\t// out\n        /* \"#utility.yul\":20044:20230   */\n    tag_447:\n        /* \"#utility.yul\":20104:20224   */\n    tag_644:\n        /* \"#utility.yul\":20121:20124   */\n      dup2\n        /* \"#utility.yul\":20114:20119   */\n      dup2\n        /* \"#utility.yul\":20111:20125   */\n      lt\n        /* \"#utility.yul\":20104:20224   */\n      iszero\n      tag_646\n      jumpi\n        /* \"#utility.yul\":20175:20214   */\n      tag_647\n        /* \"#utility.yul\":20212:20213   */\n      0x00\n        /* \"#utility.yul\":20205:20210   */\n      dup3\n        /* \"#utility.yul\":20175:20214   */\n      tag_446\n      jump\t// in\n    tag_647:\n        /* \"#utility.yul\":20148:20149   */\n      0x01\n        /* \"#utility.yul\":20141:20146   */\n      dup2\n        /* \"#utility.yul\":20137:20150   */\n      add\n        /* \"#utility.yul\":20128:20150   */\n      swap1\n      pop\n        /* \"#utility.yul\":20104:20224   */\n      jump(tag_644)\n    tag_646:\n        /* \"#utility.yul\":20044:20230   */\n      pop\n      pop\n      jump\t// out\n        /* \"#utility.yul\":20236:20779   */\n    tag_448:\n        /* \"#utility.yul\":20337:20339   */\n      0x1f\n        /* \"#utility.yul\":20332:20335   */\n      dup3\n        /* \"#utility.yul\":20329:20340   */\n      gt\n        /* \"#utility.yul\":20326:20772   */\n      iszero\n      tag_649\n      jumpi\n        /* \"#utility.yul\":20371:20409   */\n      tag_650\n        /* \"#utility.yul\":20403:20408   */\n      dup2\n        /* \"#utility.yul\":20371:20409   */\n      tag_436\n      jump\t// in\n    tag_650:\n        /* \"#utility.yul\":20455:20484   */\n      tag_651\n        /* \"#utility.yul\":20473:20483   */\n      dup5\n        /* \"#utility.yul\":20455:20484   */\n      tag_438\n      jump\t// in\n    tag_651:\n        /* \"#utility.yul\":20445:20453   */\n      dup2\n        /* \"#utility.yul\":20441:20485   */\n      add\n        /* \"#utility.yul\":20638:20640   */\n      0x20\n        /* \"#utility.yul\":20626:20636   */\n      dup6\n        /* \"#utility.yul\":20623:20641   */\n      lt\n        /* \"#utility.yul\":20620:20669   */\n      iszero\n      tag_652\n      jumpi\n        /* \"#utility.yul\":20659:20667   */\n      dup2\n        /* \"#utility.yul\":20644:20667   */\n      swap1\n      pop\n        /* \"#utility.yul\":20620:20669   */\n    tag_652:\n        /* \"#utility.yul\":20682:20762   */\n      tag_653\n        /* \"#utility.yul\":20738:20760   */\n      tag_654\n        /* \"#utility.yul\":20756:20759   */\n      dup6\n        /* \"#utility.yul\":20738:20760   */\n      tag_438\n      jump\t// in\n    tag_654:\n        /* \"#utility.yul\":20728:20736   */\n      dup4\n        /* \"#utility.yul\":20724:20761   */\n      add\n        /* \"#utility.yul\":20711:20722   */\n      dup3\n        /* \"#utility.yul\":20682:20762   */\n      tag_447\n      jump\t// in\n    tag_653:\n        /* \"#utility.yul\":20341:20772   */\n      pop\n      pop\n        /* \"#utility.yul\":20326:20772   */\n    tag_649:\n        /* \"#utility.yul\":20236:20779   */\n      pop\n      pop\n      pop\n      jump\t// out\n        /* \"#utility.yul\":20785:20902   */\n    tag_449:\n        /* \"#utility.yul\":20839:20847   */\n      0x00\n        /* \"#utility.yul\":20889:20894   */\n      dup3\n        /* \"#utility.yul\":20883:20887   */\n      dup3\n        /* \"#utility.yul\":20879:20895   */\n      shr\n        /* \"#utility.yul\":20858:20895   */\n      swap1\n      pop\n        /* \"#utility.yul\":20785:20902   */\n      swap3\n      swap2\n      pop\n      pop\n      jump\t// out\n        /* \"#utility.yul\":20908:21077   */\n    tag_450:\n        /* \"#utility.yul\":20952:20958   */\n      0x00\n        /* \"#utility.yul\":20985:21036   */\n      tag_657\n        /* \"#utility.yul\":21033:21034   */\n      0x00\n        /* \"#utility.yul\":21029:21035   */\n      not\n        /* \"#utility.yul\":21021:21026   */\n      dup5\n        /* \"#utility.yul\":21018:21019   */\n      0x08\n        /* \"#utility.yul\":21014:21027   */\n      mul\n        /* \"#utility.yul\":20985:21036   */\n      tag_449\n      jump\t// in\n    tag_657:\n        /* \"#utility.yul\":20981:21037   */\n      not\n        /* \"#utility.yul\":21066:21070   */\n      dup1\n        /* \"#utility.yul\":21060:21064   */\n      dup4\n        /* \"#utility.yul\":21056:21071   */\n      and\n        /* \"#utility.yul\":21046:21071   */\n      swap2\n      pop\n        /* \"#utility.yul\":20959:21077   */\n      pop\n        /* \"#utility.yul\":20908:21077   */\n      swap3\n      swap2\n      pop\n      pop\n      jump\t// out\n        /* \"#utility.yul\":21082:21377   */\n    tag_451:\n        /* \"#utility.yul\":21158:21162   */\n      0x00\n        /* \"#utility.yul\":21304:21333   */\n      tag_659\n        /* \"#utility.yul\":21329:21332   */\n      dup4\n        /* \"#utility.yul\":21323:21327   */\n      dup4\n        /* \"#utility.yul\":21304:21333   */\n      tag_450\n      jump\t// in\n    tag_659:\n        /* \"#utility.yul\":21296:21333   */\n      swap2\n      pop\n        /* \"#utility.yul\":21366:21369   */\n      dup3\n        /* \"#utility.yul\":21363:21364   */\n      0x02\n        /* \"#utility.yul\":21359:21370   */\n      mul\n        /* \"#utility.yul\":21353:21357   */\n      dup3\n        /* \"#utility.yul\":21350:21371   */\n      or\n        /* \"#utility.yul\":21342:21371   */\n      swap1\n      pop\n        /* \"#utility.yul\":21082:21377   */\n      swap3\n      swap2\n      pop\n      pop\n      jump\t// out\n        /* \"#utility.yul\":21382:22845   */\n    tag_95:\n        /* \"#utility.yul\":21497:21500   */\n      dup2\n        /* \"#utility.yul\":21491:21495   */\n      dup2\n        /* \"#utility.yul\":21488:21501   */\n      sub\n        /* \"#utility.yul\":21485:21511   */\n      tag_661\n      jumpi\n        /* \"#utility.yul\":21504:21509   */\n      pop\n      pop\n      jump(tag_660)\n        /* \"#utility.yul\":21485:21511   */\n    tag_661:\n        /* \"#utility.yul\":21535:21573   */\n      tag_662\n        /* \"#utility.yul\":21569:21572   */\n      dup3\n        /* \"#utility.yul\":21535:21573   */\n      tag_435\n      jump\t// in\n    tag_662:\n        /* \"#utility.yul\":21638:21656   */\n      0xffffffffffffffff\n        /* \"#utility.yul\":21630:21636   */\n      dup2\n        /* \"#utility.yul\":21627:21657   */\n      gt\n        /* \"#utility.yul\":21624:21680   */\n      iszero\n      tag_663\n      jumpi\n        /* \"#utility.yul\":21660:21678   */\n      tag_664\n      tag_126\n      jump\t// in\n    tag_664:\n        /* \"#utility.yul\":21624:21680   */\n    tag_663:\n        /* \"#utility.yul\":21704:21742   */\n      tag_665\n        /* \"#utility.yul\":21736:21740   */\n      dup3\n        /* \"#utility.yul\":21730:21741   */\n      sload\n        /* \"#utility.yul\":21704:21742   */\n      tag_60\n      jump\t// in\n    tag_665:\n        /* \"#utility.yul\":21789:21856   */\n      tag_666\n        /* \"#utility.yul\":21849:21855   */\n      dup3\n        /* \"#utility.yul\":21841:21847   */\n      dup3\n        /* \"#utility.yul\":21835:21839   */\n      dup6\n        /* \"#utility.yul\":21789:21856   */\n      tag_448\n      jump\t// in\n    tag_666:\n        /* \"#utility.yul\":21883:21884   */\n      0x00\n        /* \"#utility.yul\":21912:21914   */\n      0x1f\n        /* \"#utility.yul\":21904:21910   */\n      dup4\n        /* \"#utility.yul\":21901:21915   */\n      gt\n        /* \"#utility.yul\":21929:21930   */\n      0x01\n        /* \"#utility.yul\":21924:22600   */\n      dup2\n      eq\n      tag_668\n      jumpi\n        /* \"#utility.yul\":22644:22645   */\n      0x00\n        /* \"#utility.yul\":22661:22667   */\n      dup5\n        /* \"#utility.yul\":22658:22735   */\n      iszero\n      tag_669\n      jumpi\n        /* \"#utility.yul\":22710:22719   */\n      dup3\n        /* \"#utility.yul\":22705:22708   */\n      dup8\n        /* \"#utility.yul\":22701:22720   */\n      add\n        /* \"#utility.yul\":22695:22721   */\n      sload\n        /* \"#utility.yul\":22686:22721   */\n      swap1\n      pop\n        /* \"#utility.yul\":22658:22735   */\n    tag_669:\n        /* \"#utility.yul\":22761:22828   */\n      tag_670\n        /* \"#utility.yul\":22821:22827   */\n      dup6\n        /* \"#utility.yul\":22814:22819   */\n      dup3\n        /* \"#utility.yul\":22761:22828   */\n      tag_451\n      jump\t// in\n    tag_670:\n        /* \"#utility.yul\":22755:22759   */\n      dup7\n        /* \"#utility.yul\":22748:22829   */\n      sstore\n        /* \"#utility.yul\":22617:22839   */\n      pop\n        /* \"#utility.yul\":21894:22839   */\n      jump(tag_667)\n        /* \"#utility.yul\":21924:22600   */\n    tag_668:\n        /* \"#utility.yul\":21976:21980   */\n      0x1f\n        /* \"#utility.yul\":21972:21981   */\n      not\n        /* \"#utility.yul\":21964:21970   */\n      dup5\n        /* \"#utility.yul\":21960:21982   */\n      and\n        /* \"#utility.yul\":22002:22042   */\n      tag_671\n        /* \"#utility.yul\":22038:22041   */\n      dup8\n        /* \"#utility.yul\":22002:22042   */\n      tag_437\n      jump\t// in\n    tag_671:\n        /* \"#utility.yul\":21995:22042   */\n      swap7\n      pop\n        /* \"#utility.yul\":22069:22106   */\n      tag_672\n        /* \"#utility.yul\":22101:22105   */\n      dup7\n        /* \"#utility.yul\":22069:22106   */\n      tag_436\n      jump\t// in\n    tag_672:\n        /* \"#utility.yul\":22128:22129   */\n      0x00\n        /* \"#utility.yul\":22142:22349   */\n    tag_673:\n        /* \"#utility.yul\":22156:22163   */\n      dup3\n        /* \"#utility.yul\":22153:22154   */\n      dup2\n        /* \"#utility.yul\":22150:22164   */\n      lt\n        /* \"#utility.yul\":22142:22349   */\n      iszero\n      tag_675\n      jumpi\n        /* \"#utility.yul\":22235:22244   */\n      dup5\n        /* \"#utility.yul\":22230:22233   */\n      dup10\n        /* \"#utility.yul\":22226:22245   */\n      add\n        /* \"#utility.yul\":22220:22246   */\n      sload\n        /* \"#utility.yul\":22212:22218   */\n      dup3\n        /* \"#utility.yul\":22205:22247   */\n      sstore\n        /* \"#utility.yul\":22286:22287   */\n      0x01\n        /* \"#utility.yul\":22278:22284   */\n      dup3\n        /* \"#utility.yul\":22274:22288   */\n      add\n        /* \"#utility.yul\":22264:22288   */\n      swap2\n      pop\n        /* \"#utility.yul\":22333:22334   */\n      0x01\n        /* \"#utility.yul\":22322:22331   */\n      dup6\n        /* \"#utility.yul\":22318:22335   */\n      add\n        /* \"#utility.yul\":22305:22335   */\n      swap5\n      pop\n        /* \"#utility.yul\":22179:22183   */\n      0x20\n        /* \"#utility.yul\":22176:22177   */\n      dup2\n        /* \"#utility.yul\":22172:22184   */\n      add\n        /* \"#utility.yul\":22167:22184   */\n      swap1\n      pop\n        /* \"#utility.yul\":22142:22349   */\n      jump(tag_673)\n    tag_675:\n        /* \"#utility.yul\":22377:22383   */\n      dup7\n        /* \"#utility.yul\":22368:22375   */\n      dup4\n        /* \"#utility.yul\":22365:22384   */\n      lt\n        /* \"#utility.yul\":22362:22541   */\n      iszero\n      tag_676\n      jumpi\n        /* \"#utility.yul\":22435:22444   */\n      dup5\n        /* \"#utility.yul\":22430:22433   */\n      dup10\n        /* \"#utility.yul\":22426:22445   */\n      add\n        /* \"#utility.yul\":22420:22446   */\n      sload\n        /* \"#utility.yul\":22478:22526   */\n      tag_677\n        /* \"#utility.yul\":22520:22524   */\n      0x1f\n        /* \"#utility.yul\":22512:22518   */\n      dup10\n        /* \"#utility.yul\":22508:22525   */\n      and\n        /* \"#utility.yul\":22497:22506   */\n      dup3\n        /* \"#utility.yul\":22478:22526   */\n      tag_450\n      jump\t// in\n    tag_677:\n        /* \"#utility.yul\":22470:22476   */\n      dup4\n        /* \"#utility.yul\":22463:22527   */\n      sstore\n        /* \"#utility.yul\":22385:22541   */\n      pop\n        /* \"#utility.yul\":22362:22541   */\n    tag_676:\n        /* \"#utility.yul\":22587:22588   */\n      0x01\n        /* \"#utility.yul\":22583:22584   */\n      0x02\n        /* \"#utility.yul\":22575:22581   */\n      dup9\n        /* \"#utility.yul\":22571:22585   */\n      mul\n        /* \"#utility.yul\":22567:22589   */\n      add\n        /* \"#utility.yul\":22561:22565   */\n      dup9\n        /* \"#utility.yul\":22554:22590   */\n      sstore\n        /* \"#utility.yul\":21931:22600   */\n      pop\n      pop\n      pop\n        /* \"#utility.yul\":21894:22839   */\n    tag_667:\n      pop\n        /* \"#utility.yul\":21475:22845   */\n      pop\n      pop\n      pop\n        /* \"#utility.yul\":21382:22845   */\n      pop\n      pop\n    tag_660:\n      jump\t// out\n        /* \"#utility.yul\":22851:22969   */\n    tag_452:\n        /* \"#utility.yul\":22938:22962   */\n      tag_679\n        /* \"#utility.yul\":22956:22961   */\n      dup2\n        /* \"#utility.yul\":22938:22962   */\n      tag_397\n      jump\t// in\n    tag_679:\n        /* \"#utility.yul\":22933:22936   */\n      dup3\n        /* \"#utility.yul\":22926:22963   */\n      mstore\n        /* \"#utility.yul\":22851:22969   */\n      pop\n      pop\n      jump\t// out\n        /* \"#utility.yul\":22975:23197   */\n    tag_98:\n        /* \"#utility.yul\":23068:23072   */\n      0x00\n        /* \"#utility.yul\":23106:23108   */\n      0x20\n        /* \"#utility.yul\":23095:23104   */\n      dup3\n        /* \"#utility.yul\":23091:23109   */\n      add\n        /* \"#utility.yul\":23083:23109   */\n      swap1\n      pop\n        /* \"#utility.yul\":23119:23190   */\n      tag_681\n        /* \"#utility.yul\":23187:23188   */\n      0x00\n        /* \"#utility.yul\":23176:23185   */\n      dup4\n        /* \"#utility.yul\":23172:23189   */\n      add\n        /* \"#utility.yul\":23163:23169   */\n      dup5\n        /* \"#utility.yul\":23119:23190   */\n      tag_452\n      jump\t// in\n    tag_681:\n        /* \"#utility.yul\":22975:23197   */\n      swap3\n      swap2\n      pop\n      pop\n      jump\t// out\n        /* \"#utility.yul\":23227:24101   */\n    tag_453:\n        /* \"#utility.yul\":23330:23333   */\n      0x00\n        /* \"#utility.yul\":23367:23372   */\n      dup2\n        /* \"#utility.yul\":23361:23373   */\n      sload\n        /* \"#utility.yul\":23396:23432   */\n      tag_683\n        /* \"#utility.yul\":23422:23431   */\n      dup2\n        /* \"#utility.yul\":23396:23432   */\n      tag_60\n      jump\t// in\n    tag_683:\n        /* \"#utility.yul\":23448:23537   */\n      tag_684\n        /* \"#utility.yul\":23530:23536   */\n      dup2\n        /* \"#utility.yul\":23525:23528   */\n      dup7\n        /* \"#utility.yul\":23448:23537   */\n      tag_421\n      jump\t// in\n    tag_684:\n        /* \"#utility.yul\":23441:23537   */\n      swap5\n      pop\n        /* \"#utility.yul\":23568:23569   */\n      0x01\n        /* \"#utility.yul\":23557:23566   */\n      dup3\n        /* \"#utility.yul\":23553:23570   */\n      and\n        /* \"#utility.yul\":23584:23585   */\n      0x00\n        /* \"#utility.yul\":23579:23745   */\n      dup2\n      eq\n      tag_686\n      jumpi\n        /* \"#utility.yul\":23759:23760   */\n      0x01\n        /* \"#utility.yul\":23754:24095   */\n      dup2\n      eq\n      tag_687\n      jumpi\n        /* \"#utility.yul\":23546:24095   */\n      jump(tag_685)\n        /* \"#utility.yul\":23579:23745   */\n    tag_686:\n        /* \"#utility.yul\":23663:23667   */\n      0xff\n        /* \"#utility.yul\":23659:23668   */\n      not\n        /* \"#utility.yul\":23648:23657   */\n      dup4\n        /* \"#utility.yul\":23644:23669   */\n      and\n        /* \"#utility.yul\":23639:23642   */\n      dup7\n        /* \"#utility.yul\":23632:23670   */\n      mstore\n        /* \"#utility.yul\":23725:23731   */\n      dup2\n        /* \"#utility.yul\":23718:23732   */\n      iszero\n        /* \"#utility.yul\":23711:23733   */\n      iszero\n        /* \"#utility.yul\":23703:23709   */\n      dup3\n        /* \"#utility.yul\":23699:23734   */\n      mul\n        /* \"#utility.yul\":23694:23697   */\n      dup7\n        /* \"#utility.yul\":23690:23735   */\n      add\n        /* \"#utility.yul\":23683:23735   */\n      swap4\n      pop\n        /* \"#utility.yul\":23579:23745   */\n      jump(tag_685)\n        /* \"#utility.yul\":23754:24095   */\n    tag_687:\n        /* \"#utility.yul\":23821:23859   */\n      tag_688\n        /* \"#utility.yul\":23853:23858   */\n      dup6\n        /* \"#utility.yul\":23821:23859   */\n      tag_436\n      jump\t// in\n    tag_688:\n        /* \"#utility.yul\":23881:23882   */\n      0x00\n        /* \"#utility.yul\":23895:24049   */\n    tag_689:\n        /* \"#utility.yul\":23909:23915   */\n      dup4\n        /* \"#utility.yul\":23906:23907   */\n      dup2\n        /* \"#utility.yul\":23903:23916   */\n      lt\n        /* \"#utility.yul\":23895:24049   */\n      iszero\n      tag_691\n      jumpi\n        /* \"#utility.yul\":23983:23990   */\n      dup2\n        /* \"#utility.yul\":23977:23991   */\n      sload\n        /* \"#utility.yul\":23973:23974   */\n      dup2\n        /* \"#utility.yul\":23968:23971   */\n      dup10\n        /* \"#utility.yul\":23964:23975   */\n      add\n        /* \"#utility.yul\":23957:23992   */\n      mstore\n        /* \"#utility.yul\":24033:24034   */\n      0x01\n        /* \"#utility.yul\":24024:24031   */\n      dup3\n        /* \"#utility.yul\":24020:24035   */\n      add\n        /* \"#utility.yul\":24009:24035   */\n      swap2\n      pop\n        /* \"#utility.yul\":23931:23935   */\n      0x20\n        /* \"#utility.yul\":23928:23929   */\n      dup2\n        /* \"#utility.yul\":23924:23936   */\n      add\n        /* \"#utility.yul\":23919:23936   */\n      swap1\n      pop\n        /* \"#utility.yul\":23895:24049   */\n      jump(tag_689)\n    tag_691:\n        /* \"#utility.yul\":24078:24084   */\n      dup4\n        /* \"#utility.yul\":24073:24076   */\n      dup9\n        /* \"#utility.yul\":24069:24085   */\n      add\n        /* \"#utility.yul\":24062:24085   */\n      swap6\n      pop\n        /* \"#utility.yul\":23761:24095   */\n      pop\n      pop\n        /* \"#utility.yul\":23546:24095   */\n    tag_685:\n      pop\n        /* \"#utility.yul\":23334:24101   */\n      pop\n      pop\n        /* \"#utility.yul\":23227:24101   */\n      swap3\n      swap2\n      pop\n      pop\n      jump\t// out\n        /* \"#utility.yul\":24107:24376   */\n    tag_105:\n        /* \"#utility.yul\":24236:24239   */\n      0x00\n        /* \"#utility.yul\":24258:24350   */\n      tag_693\n        /* \"#utility.yul\":24346:24349   */\n      dup3\n        /* \"#utility.yul\":24337:24343   */\n      dup5\n        /* \"#utility.yul\":24258:24350   */\n      tag_453\n      jump\t// in\n    tag_693:\n        /* \"#utility.yul\":24251:24350   */\n      swap2\n      pop\n        /* \"#utility.yul\":24367:24370   */\n      dup2\n        /* \"#utility.yul\":24360:24370   */\n      swap1\n      pop\n        /* \"#utility.yul\":24107:24376   */\n      swap3\n      swap2\n      pop\n      pop\n      jump\t// out\n        /* \"#utility.yul\":24382:24562   */\n    tag_111:\n        /* \"#utility.yul\":24430:24507   */\n      0x4e487b7100000000000000000000000000000000000000000000000000000000\n        /* \"#utility.yul\":24427:24428   */\n      0x00\n        /* \"#utility.yul\":24420:24508   */\n      mstore\n        /* \"#utility.yul\":24527:24531   */\n      0x32\n        /* \"#utility.yul\":24524:24525   */\n      0x04\n        /* \"#utility.yul\":24517:24532   */\n      mstore\n        /* \"#utility.yul\":24551:24555   */\n      0x24\n        /* \"#utility.yul\":24548:24549   */\n      0x00\n        /* \"#utility.yul\":24541:24556   */\n      revert\n        /* \"#utility.yul\":24568:24748   */\n    tag_454:\n        /* \"#utility.yul\":24616:24693   */\n      0x4e487b7100000000000000000000000000000000000000000000000000000000\n        /* \"#utility.yul\":24613:24614   */\n      0x00\n        /* \"#utility.yul\":24606:24694   */\n      mstore\n        /* \"#utility.yul\":24713:24717   */\n      0x11\n        /* \"#utility.yul\":24710:24711   */\n      0x04\n        /* \"#utility.yul\":24703:24718   */\n      mstore\n        /* \"#utility.yul\":24737:24741   */\n      0x24\n        /* \"#utility.yul\":24734:24735   */\n      0x00\n        /* \"#utility.yul\":24727:24742   */\n      revert\n        /* \"#utility.yul\":24754:24987   */\n    tag_123:\n        /* \"#utility.yul\":24793:24796   */\n      0x00\n        /* \"#utility.yul\":24816:24840   */\n      tag_697\n        /* \"#utility.yul\":24834:24839   */\n      dup3\n        /* \"#utility.yul\":24816:24840   */\n      tag_397\n      jump\t// in\n    tag_697:\n        /* \"#utility.yul\":24807:24840   */\n      swap2\n      pop\n        /* \"#utility.yul\":24862:24928   */\n      0xffffffffffffffffffffffffffffffffffffffffffffffffffffffffffffffff\n        /* \"#utility.yul\":24855:24860   */\n      dup3\n        /* \"#utility.yul\":24852:24929   */\n      sub\n        /* \"#utility.yul\":24849:24952   */\n      tag_698\n      jumpi\n        /* \"#utility.yul\":24932:24950   */\n      tag_699\n      tag_454\n      jump\t// in\n    tag_699:\n        /* \"#utility.yul\":24849:24952   */\n    tag_698:\n        /* \"#utility.yul\":24979:24980   */\n      0x01\n        /* \"#utility.yul\":24972:24977   */\n      dup3\n        /* \"#utility.yul\":24968:24981   */\n      add\n        /* \"#utility.yul\":24961:24981   */\n      swap1\n      pop\n        /* \"#utility.yul\":24754:24987   */\n      swap2\n      swap1\n      pop\n      jump\t// out\n        /* \"#utility.yul\":24993:25163   */\n    tag_455:\n        /* \"#utility.yul\":25133:25155   */\n      0x596f7520617265206e6f7420616e2061646d696e000000000000000000000000\n        /* \"#utility.yul\":25129:25130   */\n      0x00\n        /* \"#utility.yul\":25121:25127   */\n      dup3\n        /* \"#utility.yul\":25117:25131   */\n      add\n        /* \"#utility.yul\":25110:25156   */\n      mstore\n        /* \"#utility.yul\":24993:25163   */\n      pop\n      jump\t// out\n        /* \"#utility.yul\":25169:25535   */\n    tag_456:\n        /* \"#utility.yul\":25311:25314   */\n      0x00\n        /* \"#utility.yul\":25332:25399   */\n      tag_702\n        /* \"#utility.yul\":25396:25398   */\n      0x14\n        /* \"#utility.yul\":25391:25394   */\n      dup4\n        /* \"#utility.yul\":25332:25399   */\n      tag_423\n      jump\t// in\n    tag_702:\n        /* \"#utility.yul\":25325:25399   */\n      swap2\n      pop\n        /* \"#utility.yul\":25408:25501   */\n      tag_703\n        /* \"#utility.yul\":25497:25500   */\n      dup3\n        /* \"#utility.yul\":25408:25501   */\n      tag_455\n      jump\t// in\n    tag_703:\n        /* \"#utility.yul\":25526:25528   */\n      0x20\n        /* \"#utility.yul\":25521:25524   */\n      dup3\n        /* \"#utility.yul\":25517:25529   */\n      add\n        /* \"#utility.yul\":25510:25529   */\n      swap1\n      pop\n        /* \"#utility.yul\":25169:25535   */\n      swap2\n      swap1\n      pop\n      jump\t// out\n        /* \"#utility.yul\":25541:25960   */\n    tag_178:\n        /* \"#utility.yul\":25707:25711   */\n      0x00\n        /* \"#utility.yul\":25745:25747   */\n      0x20\n        /* \"#utility.yul\":25734:25743   */\n      dup3\n        /* \"#utility.yul\":25730:25748   */\n      add\n        /* \"#utility.yul\":25722:25748   */\n      swap1\n      pop\n        /* \"#utility.yul\":25794:25803   */\n      dup2\n        /* \"#utility.yul\":25788:25792   */\n      dup2\n        /* \"#utility.yul\":25784:25804   */\n      sub\n        /* \"#utility.yul\":25780:25781   */\n      0x00\n        /* \"#utility.yul\":25769:25778   */\n      dup4\n        /* \"#utility.yul\":25765:25782   */\n      add\n        /* \"#utility.yul\":25758:25805   */\n      mstore\n        /* \"#utility.yul\":25822:25953   */\n      tag_705\n        /* \"#utility.yul\":25948:25952   */\n      dup2\n        /* \"#utility.yul\":25822:25953   */\n      tag_456\n      jump\t// in\n    tag_705:\n        /* \"#utility.yul\":25814:25953   */\n      swap1\n      pop\n        /* \"#utility.yul\":25541:25960   */\n      swap2\n      swap1\n      pop\n      jump\t// out\n        /* \"#utility.yul\":25966:27361   */\n    tag_238:\n        /* \"#utility.yul\":26083:26120   */\n      tag_707\n        /* \"#utility.yul\":26116:26119   */\n      dup3\n        /* \"#utility.yul\":26083:26120   */\n      tag_392\n      jump\t// in\n    tag_707:\n        /* \"#utility.yul\":26185:26203   */\n      0xffffffffffffffff\n        /* \"#utility.yul\":26177:26183   */\n      dup2\n        /* \"#utility.yul\":26174:26204   */\n      gt\n        /* \"#utility.yul\":26171:26227   */\n      iszero\n      tag_708\n      jumpi\n        /* \"#utility.yul\":26207:26225   */\n      tag_709\n      tag_126\n      jump\t// in\n    tag_709:\n        /* \"#utility.yul\":26171:26227   */\n    tag_708:\n        /* \"#utility.yul\":26251:26289   */\n      tag_710\n        /* \"#utility.yul\":26283:26287   */\n      dup3\n        /* \"#utility.yul\":26277:26288   */\n      sload\n        /* \"#utility.yul\":26251:26289   */\n      tag_60\n      jump\t// in\n    tag_710:\n        /* \"#utility.yul\":26336:26403   */\n      tag_711\n        /* \"#utility.yul\":26396:26402   */\n      dup3\n        /* \"#utility.yul\":26388:26394   */\n      dup3\n        /* \"#utility.yul\":26382:26386   */\n      dup6\n        /* \"#utility.yul\":26336:26403   */\n      tag_448\n      jump\t// in\n    tag_711:\n        /* \"#utility.yul\":26430:26431   */\n      0x00\n        /* \"#utility.yul\":26454:26458   */\n      0x20\n        /* \"#utility.yul\":26441:26458   */\n      swap1\n      pop\n        /* \"#utility.yul\":26486:26488   */\n      0x1f\n        /* \"#utility.yul\":26478:26484   */\n      dup4\n        /* \"#utility.yul\":26475:26489   */\n      gt\n        /* \"#utility.yul\":26503:26504   */\n      0x01\n        /* \"#utility.yul\":26498:27116   */\n      dup2\n      eq\n      tag_713\n      jumpi\n        /* \"#utility.yul\":27160:27161   */\n      0x00\n        /* \"#utility.yul\":27177:27183   */\n      dup5\n        /* \"#utility.yul\":27174:27251   */\n      iszero\n      tag_714\n      jumpi\n        /* \"#utility.yul\":27226:27235   */\n      dup3\n        /* \"#utility.yul\":27221:27224   */\n      dup8\n        /* \"#utility.yul\":27217:27236   */\n      add\n        /* \"#utility.yul\":27211:27237   */\n      mload\n        /* \"#utility.yul\":27202:27237   */\n      swap1\n      pop\n        /* \"#utility.yul\":27174:27251   */\n    tag_714:\n        /* \"#utility.yul\":27277:27344   */\n      tag_715\n        /* \"#utility.yul\":27337:27343   */\n      dup6\n        /* \"#utility.yul\":27330:27335   */\n      dup3\n        /* \"#utility.yul\":27277:27344   */\n      tag_451\n      jump\t// in\n    tag_715:\n        /* \"#utility.yul\":27271:27275   */\n      dup7\n        /* \"#utility.yul\":27264:27345   */\n      sstore\n        /* \"#utility.yul\":27133:27355   */\n      pop\n        /* \"#utility.yul\":26468:27355   */\n      jump(tag_712)\n        /* \"#utility.yul\":26498:27116   */\n    tag_713:\n        /* \"#utility.yul\":26550:26554   */\n      0x1f\n        /* \"#utility.yul\":26546:26555   */\n      not\n        /* \"#utility.yul\":26538:26544   */\n      dup5\n        /* \"#utility.yul\":26534:26556   */\n      and\n        /* \"#utility.yul\":26584:26621   */\n      tag_716\n        /* \"#utility.yul\":26616:26620   */\n      dup7\n        /* \"#utility.yul\":26584:26621   */\n      tag_436\n      jump\t// in\n    tag_716:\n        /* \"#utility.yul\":26643:26644   */\n      0x00\n        /* \"#utility.yul\":26657:26865   */\n    tag_717:\n        /* \"#utility.yul\":26671:26678   */\n      dup3\n        /* \"#utility.yul\":26668:26669   */\n      dup2\n        /* \"#utility.yul\":26665:26679   */\n      lt\n        /* \"#utility.yul\":26657:26865   */\n      iszero\n      tag_719\n      jumpi\n        /* \"#utility.yul\":26750:26759   */\n      dup5\n        /* \"#utility.yul\":26745:26748   */\n      dup10\n        /* \"#utility.yul\":26741:26760   */\n      add\n        /* \"#utility.yul\":26735:26761   */\n      mload\n        /* \"#utility.yul\":26727:26733   */\n      dup3\n        /* \"#utility.yul\":26720:26762   */\n      sstore\n        /* \"#utility.yul\":26801:26802   */\n      0x01\n        /* \"#utility.yul\":26793:26799   */\n      dup3\n        /* \"#utility.yul\":26789:26803   */\n      add\n        /* \"#utility.yul\":26779:26803   */\n      swap2\n      pop\n        /* \"#utility.yul\":26848:26850   */\n      0x20\n        /* \"#utility.yul\":26837:26846   */\n      dup6\n        /* \"#utility.yul\":26833:26851   */\n      add\n        /* \"#utility.yul\":26820:26851   */\n      swap5\n      pop\n        /* \"#utility.yul\":26694:26698   */\n      0x20\n        /* \"#utility.yul\":26691:26692   */\n      dup2\n        /* \"#utility.yul\":26687:26699   */\n      add\n        /* \"#utility.yul\":26682:26699   */\n      swap1\n      pop\n        /* \"#utility.yul\":26657:26865   */\n      jump(tag_717)\n    tag_719:\n        /* \"#utility.yul\":26893:26899   */\n      dup7\n        /* \"#utility.yul\":26884:26891   */\n      dup4\n        /* \"#utility.yul\":26881:26900   */\n      lt\n        /* \"#utility.yul\":26878:27057   */\n      iszero\n      tag_720\n      jumpi\n        /* \"#utility.yul\":26951:26960   */\n      dup5\n        /* \"#utility.yul\":26946:26949   */\n      dup10\n        /* \"#utility.yul\":26942:26961   */\n      add\n        /* \"#utility.yul\":26936:26962   */\n      mload\n        /* \"#utility.yul\":26994:27042   */\n      tag_721\n        /* \"#utility.yul\":27036:27040   */\n      0x1f\n        /* \"#utility.yul\":27028:27034   */\n      dup10\n        /* \"#utility.yul\":27024:27041   */\n      and\n        /* \"#utility.yul\":27013:27022   */\n      dup3\n        /* \"#utility.yul\":26994:27042   */\n      tag_450\n      jump\t// in\n    tag_721:\n        /* \"#utility.yul\":26986:26992   */\n      dup4\n        /* \"#utility.yul\":26979:27043   */\n      sstore\n        /* \"#utility.yul\":26901:27057   */\n      pop\n        /* \"#utility.yul\":26878:27057   */\n    tag_720:\n        /* \"#utility.yul\":27103:27104   */\n      0x01\n        /* \"#utility.yul\":27099:27100   */\n      0x02\n        /* \"#utility.yul\":27091:27097   */\n      dup9\n        /* \"#utility.yul\":27087:27101   */\n      mul\n        /* \"#utility.yul\":27083:27105   */\n      add\n        /* \"#utility.yul\":27077:27081   */\n      dup9\n        /* \"#utility.yul\":27070:27106   */\n      sstore\n        /* \"#utility.yul\":26505:27116   */\n      pop\n      pop\n      pop\n        /* \"#utility.yul\":26468:27355   */\n    tag_712:\n      pop\n        /* \"#utility.yul\":26058:27361   */\n      pop\n      pop\n      pop\n        /* \"#utility.yul\":25966:27361   */\n      pop\n      pop\n      jump\t// out\n        /* \"#utility.yul\":27367:27777   */\n    tag_249:\n        /* \"#utility.yul\":27407:27414   */\n      0x00\n        /* \"#utility.yul\":27430:27450   */\n      tag_723\n        /* \"#utility.yul\":27448:27449   */\n      dup3\n        /* \"#utility.yul\":27430:27450   */\n      tag_397\n      jump\t// in\n    tag_723:\n        /* \"#utility.yul\":27425:27450   */\n      swap2\n      pop\n        /* \"#utility.yul\":27464:27484   */\n      tag_724\n        /* \"#utility.yul\":27482:27483   */\n      dup4\n        /* \"#utility.yul\":27464:27484   */\n      tag_397\n      jump\t// in\n    tag_724:\n        /* \"#utility.yul\":27459:27484   */\n      swap3\n      pop\n        /* \"#utility.yul\":27519:27520   */\n      dup3\n        /* \"#utility.yul\":27516:27517   */\n      dup3\n        /* \"#utility.yul\":27512:27521   */\n      mul\n        /* \"#utility.yul\":27541:27571   */\n      tag_725\n        /* \"#utility.yul\":27559:27570   */\n      dup2\n        /* \"#utility.yul\":27541:27571   */\n      tag_397\n      jump\t// in\n    tag_725:\n        /* \"#utility.yul\":27530:27571   */\n      swap2\n      pop\n        /* \"#utility.yul\":27720:27721   */\n      dup3\n        /* \"#utility.yul\":27711:27718   */\n      dup3\n        /* \"#utility.yul\":27707:27722   */\n      div\n        /* \"#utility.yul\":27704:27705   */\n      dup5\n        /* \"#utility.yul\":27701:27723   */\n      eq\n        /* \"#utility.yul\":27681:27682   */\n      dup4\n        /* \"#utility.yul\":27674:27683   */\n      iszero\n        /* \"#utility.yul\":27654:27737   */\n      or\n        /* \"#utility.yul\":27631:27770   */\n      tag_726\n      jumpi\n        /* \"#utility.yul\":27750:27768   */\n      tag_727\n      tag_454\n      jump\t// in\n    tag_727:\n        /* \"#utility.yul\":27631:27770   */\n    tag_726:\n        /* \"#utility.yul\":27415:27777   */\n      pop\n        /* \"#utility.yul\":27367:27777   */\n      swap3\n      swap2\n      pop\n      pop\n      jump\t// out\n        /* \"#utility.yul\":27783:27963   */\n    tag_457:\n        /* \"#utility.yul\":27831:27908   */\n      0x4e487b7100000000000000000000000000000000000000000000000000000000\n        /* \"#utility.yul\":27828:27829   */\n      0x00\n        /* \"#utility.yul\":27821:27909   */\n      mstore\n        /* \"#utility.yul\":27928:27932   */\n      0x12\n        /* \"#utility.yul\":27925:27926   */\n      0x04\n        /* \"#utility.yul\":27918:27933   */\n      mstore\n        /* \"#utility.yul\":27952:27956   */\n      0x24\n        /* \"#utility.yul\":27949:27950   */\n      0x00\n        /* \"#utility.yul\":27942:27957   */\n      revert\n        /* \"#utility.yul\":27969:28154   */\n    tag_251:\n        /* \"#utility.yul\":28009:28010   */\n      0x00\n        /* \"#utility.yul\":28026:28046   */\n      tag_730\n        /* \"#utility.yul\":28044:28045   */\n      dup3\n        /* \"#utility.yul\":28026:28046   */\n      tag_397\n      jump\t// in\n    tag_730:\n        /* \"#utility.yul\":28021:28046   */\n      swap2\n      pop\n        /* \"#utility.yul\":28060:28080   */\n      tag_731\n        /* \"#utility.yul\":28078:28079   */\n      dup4\n        /* \"#utility.yul\":28060:28080   */\n      tag_397\n      jump\t// in\n    tag_731:\n        /* \"#utility.yul\":28055:28080   */\n      swap3\n      pop\n        /* \"#utility.yul\":28099:28100   */\n      dup3\n        /* \"#utility.yul\":28089:28124   */\n      tag_732\n      jumpi\n        /* \"#utility.yul\":28104:28122   */\n      tag_733\n      tag_457\n      jump\t// in\n    tag_733:\n        /* \"#utility.yul\":28089:28124   */\n    tag_732:\n        /* \"#utility.yul\":28146:28147   */\n      dup3\n        /* \"#utility.yul\":28143:28144   */\n      dup3\n        /* \"#utility.yul\":28139:28148   */\n      div\n        /* \"#utility.yul\":28134:28148   */\n      swap1\n      pop\n        /* \"#utility.yul\":27969:28154   */\n      swap3\n      swap2\n      pop\n      pop\n      jump\t// out\n        /* \"#utility.yul\":28160:28537   */\n    tag_458:\n        /* \"#utility.yul\":28248:28251   */\n      0x00\n        /* \"#utility.yul\":28276:28315   */\n      tag_735\n        /* \"#utility.yul\":28309:28314   */\n      dup3\n        /* \"#utility.yul\":28276:28315   */\n      tag_392\n      jump\t// in\n    tag_735:\n        /* \"#utility.yul\":28331:28402   */\n      tag_736\n        /* \"#utility.yul\":28395:28401   */\n      dup2\n        /* \"#utility.yul\":28390:28393   */\n      dup6\n        /* \"#utility.yul\":28331:28402   */\n      tag_423\n      jump\t// in\n    tag_736:\n        /* \"#utility.yul\":28324:28402   */\n      swap4\n      pop\n        /* \"#utility.yul\":28411:28476   */\n      tag_737\n        /* \"#utility.yul\":28469:28475   */\n      dup2\n        /* \"#utility.yul\":28464:28467   */\n      dup6\n        /* \"#utility.yul\":28457:28461   */\n      0x20\n        /* \"#utility.yul\":28450:28455   */\n      dup7\n        /* \"#utility.yul\":28446:28462   */\n      add\n        /* \"#utility.yul\":28411:28476   */\n      tag_394\n      jump\t// in\n    tag_737:\n        /* \"#utility.yul\":28501:28530   */\n      tag_738\n        /* \"#utility.yul\":28523:28529   */\n      dup2\n        /* \"#utility.yul\":28501:28530   */\n      tag_395\n      jump\t// in\n    tag_738:\n        /* \"#utility.yul\":28496:28499   */\n      dup5\n        /* \"#utility.yul\":28492:28531   */\n      add\n        /* \"#utility.yul\":28485:28531   */\n      swap2\n      pop\n        /* \"#utility.yul\":28252:28537   */\n      pop\n        /* \"#utility.yul\":28160:28537   */\n      swap3\n      swap2\n      pop\n      pop\n      jump\t// out\n        /* \"#utility.yul\":28543:28966   */\n    tag_257:\n        /* \"#utility.yul\":28684:28688   */\n      0x00\n        /* \"#utility.yul\":28722:28724   */\n      0x40\n        /* \"#utility.yul\":28711:28720   */\n      dup3\n        /* \"#utility.yul\":28707:28725   */\n      add\n        /* \"#utility.yul\":28699:28725   */\n      swap1\n      pop\n        /* \"#utility.yul\":28771:28780   */\n      dup2\n        /* \"#utility.yul\":28765:28769   */\n      dup2\n        /* \"#utility.yul\":28761:28781   */\n      sub\n        /* \"#utility.yul\":28757:28758   */\n      0x00\n        /* \"#utility.yul\":28746:28755   */\n      dup4\n        /* \"#utility.yul\":28742:28759   */\n      add\n        /* \"#utility.yul\":28735:28782   */\n      mstore\n        /* \"#utility.yul\":28799:28877   */\n      tag_740\n        /* \"#utility.yul\":28872:28876   */\n      dup2\n        /* \"#utility.yul\":28863:28869   */\n      dup6\n        /* \"#utility.yul\":28799:28877   */\n      tag_458\n      jump\t// in\n    tag_740:\n        /* \"#utility.yul\":28791:28877   */\n      swap1\n      pop\n        /* \"#utility.yul\":28887:28959   */\n      tag_741\n        /* \"#utility.yul\":28955:28957   */\n      0x20\n        /* \"#utility.yul\":28944:28953   */\n      dup4\n        /* \"#utility.yul\":28940:28958   */\n      add\n        /* \"#utility.yul\":28931:28937   */\n      dup5\n        /* \"#utility.yul\":28887:28959   */\n      tag_452\n      jump\t// in\n    tag_741:\n        /* \"#utility.yul\":28543:28966   */\n      swap4\n      swap3\n      pop\n      pop\n      pop\n      jump\t// out\n        /* \"#utility.yul\":28972:29148   */\n    tag_337:\n        /* \"#utility.yul\":29004:29005   */\n      0x00\n        /* \"#utility.yul\":29021:29041   */\n      tag_743\n        /* \"#utility.yul\":29039:29040   */\n      dup3\n        /* \"#utility.yul\":29021:29041   */\n      tag_397\n      jump\t// in\n    tag_743:\n        /* \"#utility.yul\":29016:29041   */\n      swap2\n      pop\n        /* \"#utility.yul\":29055:29075   */\n      tag_744\n        /* \"#utility.yul\":29073:29074   */\n      dup4\n        /* \"#utility.yul\":29055:29075   */\n      tag_397\n      jump\t// in\n    tag_744:\n        /* \"#utility.yul\":29050:29075   */\n      swap3\n      pop\n        /* \"#utility.yul\":29094:29095   */\n      dup3\n        /* \"#utility.yul\":29084:29119   */\n      tag_745\n      jumpi\n        /* \"#utility.yul\":29099:29117   */\n      tag_746\n      tag_457\n      jump\t// in\n    tag_746:\n        /* \"#utility.yul\":29084:29119   */\n    tag_745:\n        /* \"#utility.yul\":29140:29141   */\n      dup3\n        /* \"#utility.yul\":29137:29138   */\n      dup3\n        /* \"#utility.yul\":29133:29142   */\n      mod\n        /* \"#utility.yul\":29128:29142   */\n      swap1\n      pop\n        /* \"#utility.yul\":28972:29148   */\n      swap3\n      swap2\n      pop\n      pop\n      jump\t// out\n        /* \"#utility.yul\":29154:29345   */\n    tag_339:\n        /* \"#utility.yul\":29194:29197   */\n      0x00\n        /* \"#utility.yul\":29213:29233   */\n      tag_748\n        /* \"#utility.yul\":29231:29232   */\n      dup3\n        /* \"#utility.yul\":29213:29233   */\n      tag_397\n      jump\t// in\n    tag_748:\n        /* \"#utility.yul\":29208:29233   */\n      swap2\n      pop\n        /* \"#utility.yul\":29247:29267   */\n      tag_749\n        /* \"#utility.yul\":29265:29266   */\n      dup4\n        /* \"#utility.yul\":29247:29267   */\n      tag_397\n      jump\t// in\n    tag_749:\n        /* \"#utility.yul\":29242:29267   */\n      swap3\n      pop\n        /* \"#utility.yul\":29290:29291   */\n      dup3\n        /* \"#utility.yul\":29287:29288   */\n      dup3\n        /* \"#utility.yul\":29283:29292   */\n      add\n        /* \"#utility.yul\":29276:29292   */\n      swap1\n      pop\n        /* \"#utility.yul\":29311:29314   */\n      dup1\n        /* \"#utility.yul\":29308:29309   */\n      dup3\n        /* \"#utility.yul\":29305:29315   */\n      gt\n        /* \"#utility.yul\":29302:29338   */\n      iszero\n      tag_750\n      jumpi\n        /* \"#utility.yul\":29318:29336   */\n      tag_751\n      tag_454\n      jump\t// in\n    tag_751:\n        /* \"#utility.yul\":29302:29338   */\n    tag_750:\n        /* \"#utility.yul\":29154:29345   */\n      swap3\n      swap2\n      pop\n      pop\n      jump\t// out\n        /* \"#utility.yul\":29351:29519   */\n    tag_459:\n        /* \"#utility.yul\":29491:29511   */\n      0x436f6465206973204e6f7420556e697175650000000000000000000000000000\n        /* \"#utility.yul\":29487:29488   */\n      0x00\n        /* \"#utility.yul\":29479:29485   */\n      dup3\n        /* \"#utility.yul\":29475:29489   */\n      add\n        /* \"#utility.yul\":29468:29512   */\n      mstore\n        /* \"#utility.yul\":29351:29519   */\n      pop\n      jump\t// out\n        /* \"#utility.yul\":29525:29891   */\n    tag_460:\n        /* \"#utility.yul\":29667:29670   */\n      0x00\n        /* \"#utility.yul\":29688:29755   */\n      tag_754\n        /* \"#utility.yul\":29752:29754   */\n      0x12\n        /* \"#utility.yul\":29747:29750   */\n      dup4\n        /* \"#utility.yul\":29688:29755   */\n      tag_423\n      jump\t// in\n    tag_754:\n        /* \"#utility.yul\":29681:29755   */\n      swap2\n      pop\n        /* \"#utility.yul\":29764:29857   */\n      tag_755\n        /* \"#utility.yul\":29853:29856   */\n      dup3\n        /* \"#utility.yul\":29764:29857   */\n      tag_459\n      jump\t// in\n    tag_755:\n        /* \"#utility.yul\":29882:29884   */\n      0x20\n        /* \"#utility.yul\":29877:29880   */\n      dup3\n        /* \"#utility.yul\":29873:29885   */\n      add\n        /* \"#utility.yul\":29866:29885   */\n      swap1\n      pop\n        /* \"#utility.yul\":29525:29891   */\n      swap2\n      swap1\n      pop\n      jump\t// out\n        /* \"#utility.yul\":29897:30316   */\n    tag_354:\n        /* \"#utility.yul\":30063:30067   */\n      0x00\n        /* \"#utility.yul\":30101:30103   */\n      0x20\n        /* \"#utility.yul\":30090:30099   */\n      dup3\n        /* \"#utility.yul\":30086:30104   */\n      add\n        /* \"#utility.yul\":30078:30104   */\n      swap1\n      pop\n        /* \"#utility.yul\":30150:30159   */\n      dup2\n        /* \"#utility.yul\":30144:30148   */\n      dup2\n        /* \"#utility.yul\":30140:30160   */\n      sub\n        /* \"#utility.yul\":30136:30137   */\n      0x00\n        /* \"#utility.yul\":30125:30134   */\n      dup4\n        /* \"#utility.yul\":30121:30138   */\n      add\n        /* \"#utility.yul\":30114:30161   */\n      mstore\n        /* \"#utility.yul\":30178:30309   */\n      tag_757\n        /* \"#utility.yul\":30304:30308   */\n      dup2\n        /* \"#utility.yul\":30178:30309   */\n      tag_460\n      jump\t// in\n    tag_757:\n        /* \"#utility.yul\":30170:30309   */\n      swap1\n      pop\n        /* \"#utility.yul\":29897:30316   */\n      swap2\n      swap1\n      pop\n      jump\t// out\n        /* \"#utility.yul\":30322:30401   */\n    tag_461:\n        /* \"#utility.yul\":30361:30368   */\n      0x00\n        /* \"#utility.yul\":30390:30395   */\n      dup2\n        /* \"#utility.yul\":30379:30395   */\n      swap1\n      pop\n        /* \"#utility.yul\":30322:30401   */\n      swap2\n      swap1\n      pop\n      jump\t// out\n        /* \"#utility.yul\":30407:30564   */\n    tag_462:\n        /* \"#utility.yul\":30512:30557   */\n      tag_760\n        /* \"#utility.yul\":30532:30556   */\n      tag_761\n        /* \"#utility.yul\":30550:30555   */\n      dup3\n        /* \"#utility.yul\":30532:30556   */\n      tag_397\n      jump\t// in\n    tag_761:\n        /* \"#utility.yul\":30512:30557   */\n      tag_461\n      jump\t// in\n    tag_760:\n        /* \"#utility.yul\":30507:30510   */\n      dup3\n        /* \"#utility.yul\":30500:30558   */\n      mstore\n        /* \"#utility.yul\":30407:30564   */\n      pop\n      pop\n      jump\t// out\n        /* \"#utility.yul\":30570:31108   */\n    tag_372:\n        /* \"#utility.yul\":30738:30741   */\n      0x00\n        /* \"#utility.yul\":30753:30828   */\n      tag_763\n        /* \"#utility.yul\":30824:30827   */\n      dup3\n        /* \"#utility.yul\":30815:30821   */\n      dup7\n        /* \"#utility.yul\":30753:30828   */\n      tag_462\n      jump\t// in\n    tag_763:\n        /* \"#utility.yul\":30853:30855   */\n      0x20\n        /* \"#utility.yul\":30848:30851   */\n      dup3\n        /* \"#utility.yul\":30844:30856   */\n      add\n        /* \"#utility.yul\":30837:30856   */\n      swap2\n      pop\n        /* \"#utility.yul\":30866:30941   */\n      tag_764\n        /* \"#utility.yul\":30937:30940   */\n      dup3\n        /* \"#utility.yul\":30928:30934   */\n      dup6\n        /* \"#utility.yul\":30866:30941   */\n      tag_462\n      jump\t// in\n    tag_764:\n        /* \"#utility.yul\":30966:30968   */\n      0x20\n        /* \"#utility.yul\":30961:30964   */\n      dup3\n        /* \"#utility.yul\":30957:30969   */\n      add\n        /* \"#utility.yul\":30950:30969   */\n      swap2\n      pop\n        /* \"#utility.yul\":30979:31054   */\n      tag_765\n        /* \"#utility.yul\":31050:31053   */\n      dup3\n        /* \"#utility.yul\":31041:31047   */\n      dup5\n        /* \"#utility.yul\":30979:31054   */\n      tag_462\n      jump\t// in\n    tag_765:\n        /* \"#utility.yul\":31079:31081   */\n      0x20\n        /* \"#utility.yul\":31074:31077   */\n      dup3\n        /* \"#utility.yul\":31070:31082   */\n      add\n        /* \"#utility.yul\":31063:31082   */\n      swap2\n      pop\n        /* \"#utility.yul\":31099:31102   */\n      dup2\n        /* \"#utility.yul\":31092:31102   */\n      swap1\n      pop\n        /* \"#utility.yul\":30570:31108   */\n      swap5\n      swap4\n      pop\n      pop\n      pop\n      pop\n      jump\t// out\n\n    auxdata: 0xa264697066735822122037e96de6da9554dbdbe77075f940240dfe0a2d946e2a348410f464760c75d80364736f6c634300081a0033\n}\n",
				"bytecode": {
					"linkReferences": {},
					"object": "608060405234801561000f575f80fd5b5060405180606001604052806040518060400160405280600f81526020017f4962726168696d204d6f68616d65640000000000000000000000000000000000815250815260200160018081111561006957610068610371565b5b815260200160018081111561008157610080610371565b5b8152505f80738dc03105ba1a429fc962ebe37766b8601d70e0d673ffffffffffffffffffffffffffffffffffffffff1673ffffffffffffffffffffffffffffffffffffffff1681526020019081526020015f205f820151815f0190816100e791906105d8565b506020820151816001015f6101000a81548160ff0219169083600181111561011257610111610371565b5b021790555060408201518160010160016101000a81548160ff0219169083600181111561014257610141610371565b5b02179055509050506004738dc03105ba1a429fc962ebe37766b8601d70e0d6908060018154018082558091505060019003905f5260205f20015f9091909190916101000a81548173ffffffffffffffffffffffffffffffffffffffff021916908373ffffffffffffffffffffffffffffffffffffffff16021790555060405180606001604052806040518060400160405280600b81526020017f4f62616461205361667761000000000000000000000000000000000000000000815250815260200160018081111561021757610216610371565b5b815260200160018081111561022f5761022e610371565b5b8152505f8073ad009219d5052664e665c2a95f12e4abea6730c073ffffffffffffffffffffffffffffffffffffffff1673ffffffffffffffffffffffffffffffffffffffff1681526020019081526020015f205f820151815f01908161029591906105d8565b506020820151816001015f6101000a81548160ff021916908360018111156102c0576102bf610371565b5b021790555060408201518160010160016101000a81548160ff021916908360018111156102f0576102ef610371565b5b0217905550905050600473ad009219d5052664e665c2a95f12e4abea6730c0908060018154018082558091505060019003905f5260205f20015f9091909190916101000a81548173ffffffffffffffffffffffffffffffffffffffff021916908373ffffffffffffffffffffffffffffffffffffffff1602179055506106a7565b7f4e487b71000000000000000000000000000000000000000000000000000000005f52602160045260245ffd5b5f81519050919050565b7f4e487b71000000000000000000000000000000000000000000000000000000005f52604160045260245ffd5b7f4e487b71000000000000000000000000000000000000000000000000000000005f52602260045260245ffd5b5f600282049050600182168061041957607f821691505b60208210810361042c5761042b6103d5565b5b50919050565b5f819050815f5260205f209050919050565b5f6020601f8301049050919050565b5f82821b905092915050565b5f6008830261048e7fffffffffffffffffffffffffffffffffffffffffffffffffffffffffffffffff82610453565b6104988683610453565b95508019841693508086168417925050509392505050565b5f819050919050565b5f819050919050565b5f6104dc6104d76104d2846104b0565b6104b9565b6104b0565b9050919050565b5f819050919050565b6104f5836104c2565b610509610501826104e3565b84845461045f565b825550505050565b5f90565b61051d610511565b6105288184846104ec565b505050565b5b8181101561054b576105405f82610515565b60018101905061052e565b5050565b601f8211156105905761056181610432565b61056a84610444565b81016020851015610579578190505b61058d61058585610444565b83018261052d565b50505b505050565b5f82821c905092915050565b5f6105b05f1984600802610595565b1980831691505092915050565b5f6105c883836105a1565b9150826002028217905092915050565b6105e18261039e565b67ffffffffffffffff8111156105fa576105f96103a8565b5b6106048254610402565b61060f82828561054f565b5f60209050601f831160018114610640575f841561062e578287015190505b61063885826105bd565b86555061069f565b601f19841661064e86610432565b5f5b8281101561067557848901518255600182019150602085019450602081019050610650565b86831015610692578489015161068e601f8916826105a1565b8355505b6001600288020188555050505b505050505050565b612c09806106b45f395ff3fe608060405260043610610089575f3560e01c80638f0e582f116100585780638f0e582f1461014a578063a34f011c14610172578063a927db0d1461017c578063b6db75a0146101a6578063d9c8a38b146101d057610090565b8063223668441461009257806327e26c8c146100bc5780632b4a9dda146100e45780634cf571381461010e57610090565b3661009057005b005b34801561009d575f80fd5b506100a66101fa565b6040516100b39190611ceb565b60405180910390f35b3480156100c7575f80fd5b506100e260048036038101906100dd9190611d6d565b61024d565b005b3480156100ef575f80fd5b506100f86105dc565b6040516101059190611fd5565b60405180910390f35b348015610119575f80fd5b50610134600480360381019061012f9190612018565b610af7565b6040516101419190611fd5565b60405180910390f35b348015610155575f80fd5b50610170600480360381019061016b9190612066565b610f9e565b005b61017a611137565b005b348015610187575f80fd5b50610190611231565b60405161019d9190611fd5565b60405180910390f35b3480156101b1575f80fd5b506101ba6115b6565b6040516101c79190611ceb565b60405180910390f35b3480156101db575f80fd5b506101e46116bb565b6040516101f1919061219c565b60405180910390f35b5f805f803373ffffffffffffffffffffffffffffffffffffffff1673ffffffffffffffffffffffffffffffffffffffff1681526020019081526020015f205f018054610245906121e9565b905011905090565b81818080601f0160208091040260200160405190810160405280939291908181526020018383808284375f81840152601f19601f820116905080830192505050505050506001808111156102a4576102a3611e69565b5b6001826040516102b49190612253565b90815260200160405180910390206002015f9054906101000a900460ff1660018111156102e4576102e3611e69565b5b14610324576040517f08c379a000000000000000000000000000000000000000000000000000000000815260040161031b906122c3565b60405180910390fd5b5f805f3373ffffffffffffffffffffffffffffffffffffffff1673ffffffffffffffffffffffffffffffffffffffff1681526020019081526020015f205f01805461036e906121e9565b9050116103b0576040517f08c379a00000000000000000000000000000000000000000000000000000000081526004016103a79061232b565b60405180910390fd5b60025f9054906101000a900460ff16156103ff576040517f08c379a00000000000000000000000000000000000000000000000000000000081526004016103f690612393565b60405180910390fd5b600160025f6101000a81548160ff0219169083151502179055505f3373ffffffffffffffffffffffffffffffffffffffff16600185856040516104439291906123e3565b90815260200160405180910390206001015460405161046190612428565b5f6040518083038185875af1925050503d805f811461049b576040519150601f19603f3d011682016040523d82523d5f602084013e6104a0565b606091505b5050905080156105bd575f600185856040516104bd9291906123e3565b90815260200160405180910390206002015f6101000a81548160ff021916908360018111156104ef576104ee611e69565b5b02179055505f803373ffffffffffffffffffffffffffffffffffffffff1673ffffffffffffffffffffffffffffffffffffffff1681526020019081526020015f205f01600185856040516105449291906123e3565b90815260200160405180910390206003019081610561919061262d565b507f604d6de1b6eb3f39c6ab9d4981a20d17f88c5bef33495ae58dabeb097ba7a41a600185856040516105959291906123e3565b9081526020016040518091039020600101546040516105b49190612721565b60405180910390a15b505f60025f6101000a81548160ff021916908315150217905550505050565b60605f805f3373ffffffffffffffffffffffffffffffffffffffff1673ffffffffffffffffffffffffffffffffffffffff1681526020019081526020015f205f018054610628906121e9565b90501161066a576040517f08c379a00000000000000000000000000000000000000000000000000000000081526004016106619061232b565b60405180910390fd5b5f80805f3373ffffffffffffffffffffffffffffffffffffffff1673ffffffffffffffffffffffffffffffffffffffff1681526020019081526020015f205f016040516020016106ba91906127ba565b6040516020818303038152906040528051906020012090505f5b6003805490508110156107d057816001600383815481106106f8576106f76127d0565b5b905f5260205f200160405161070d91906127ba565b90815260200160405180910390205f0160405160200161072d91906127ba565b6040516020818303038152906040528051906020012014806107af575081600160038381548110610761576107606127d0565b5b905f5260205f200160405161077691906127ba565b908152602001604051809103902060030160405160200161079791906127ba565b60405160208183030381529060405280519060200120145b156107c35782806107bf9061282a565b9350505b80806001019150506106d4565b505f8267ffffffffffffffff8111156107ec576107eb612451565b5b60405190808252806020026020018201604052801561082557816020015b610812611c56565b81526020019060019003908161080a5790505b5090505f805b600380549050811015610aec578360016003838154811061084f5761084e6127d0565b5b905f5260205f200160405161086491906127ba565b90815260200160405180910390205f0160405160200161088491906127ba565b6040516020818303038152906040528051906020012014806109065750836001600383815481106108b8576108b76127d0565b5b905f5260205f20016040516108cd91906127ba565b90815260200160405180910390206003016040516020016108ee91906127ba565b60405160208183030381529060405280519060200120145b15610adf57600160038281548110610921576109206127d0565b5b905f5260205f200160405161093691906127ba565b90815260200160405180910390206040518060800160405290815f8201805461095e906121e9565b80601f016020809104026020016040519081016040528092919081815260200182805461098a906121e9565b80156109d55780601f106109ac576101008083540402835291602001916109d5565b820191905f5260205f20905b8154815290600101906020018083116109b857829003601f168201915b5050505050815260200160018201548152602001600282015f9054906101000a900460ff166001811115610a0c57610a0b611e69565b5b6001811115610a1e57610a1d611e69565b5b8152602001600382018054610a32906121e9565b80601f0160208091040260200160405190810160405280929190818152602001828054610a5e906121e9565b8015610aa95780601f10610a8057610100808354040283529160200191610aa9565b820191905f5260205f20905b815481529060010190602001808311610a8c57829003601f168201915b505050505081525050838381518110610ac557610ac46127d0565b5b60200260200101819052508180610adb9061282a565b9250505b808060010191505061082b565b508194505050505090565b60605f805f3373ffffffffffffffffffffffffffffffffffffffff1673ffffffffffffffffffffffffffffffffffffffff1681526020019081526020015f205f018054610b43906121e9565b905011610b85576040517f08c379a0000000000000000000000000000000000000000000000000000000008152600401610b7c9061232b565b60405180910390fd5b600180811115610b9857610b97611e69565b5b5f803373ffffffffffffffffffffffffffffffffffffffff1673ffffffffffffffffffffffffffffffffffffffff1681526020019081526020015f2060010160019054906101000a900460ff166001811115610bf757610bf6611e69565b5b14610c37576040517f08c379a0000000000000000000000000000000000000000000000000000000008152600401610c2e906128bb565b60405180910390fd5b5f8060038054905090505f5b81811015610cda57846001811115610c5e57610c5d611e69565b5b600160038381548110610c7457610c736127d0565b5b905f5260205f2001604051610c8991906127ba565b90815260200160405180910390206002015f9054906101000a900460ff166001811115610cb957610cb8611e69565b5b03610ccd578280610cc99061282a565b9350505b8080600101915050610c43565b505f8267ffffffffffffffff811115610cf657610cf5612451565b5b604051908082528060200260200182016040528015610d2f57816020015b610d1c611c56565b815260200190600190039081610d145790505b5090505f805b83811015610f9157866001811115610d5057610d4f611e69565b5b600160038381548110610d6657610d656127d0565b5b905f5260205f2001604051610d7b91906127ba565b90815260200160405180910390206002015f9054906101000a900460ff166001811115610dab57610daa611e69565b5b03610f8457600160038281548110610dc657610dc56127d0565b5b905f5260205f2001604051610ddb91906127ba565b90815260200160405180910390206040518060800160405290815f82018054610e03906121e9565b80601f0160208091040260200160405190810160405280929190818152602001828054610e2f906121e9565b8015610e7a5780601f10610e5157610100808354040283529160200191610e7a565b820191905f5260205f20905b815481529060010190602001808311610e5d57829003601f168201915b5050505050815260200160018201548152602001600282015f9054906101000a900460ff166001811115610eb157610eb0611e69565b5b6001811115610ec357610ec2611e69565b5b8152602001600382018054610ed7906121e9565b80601f0160208091040260200160405190810160405280929190818152602001828054610f03906121e9565b8015610f4e5780601f10610f2557610100808354040283529160200191610f4e565b820191905f5260205f20905b815481529060010190602001808311610f3157829003601f168201915b505050505081525050838381518110610f6a57610f696127d0565b5b60200260200101819052508180610f809061282a565b9250505b8080600101915050610d35565b5081945050505050919050565b600433908060018154018082558091505060019003905f5260205f20015f9091909190916101000a81548173ffffffffffffffffffffffffffffffffffffffff021916908373ffffffffffffffffffffffffffffffffffffffff160217905550604051806060016040528084848080601f0160208091040260200160405190810160405280939291908181526020018383808284375f81840152601f19601f82011690508083019250505050505050815260200182600181111561106557611064611e69565b5b81526020015f600181111561107d5761107c611e69565b5b8152505f803373ffffffffffffffffffffffffffffffffffffffff1673ffffffffffffffffffffffffffffffffffffffff1681526020019081526020015f205f820151815f0190816110cf91906128d9565b506020820151816001015f6101000a81548160ff021916908360018111156110fa576110f9611e69565b5b021790555060408201518160010160016101000a81548160ff0219169083600181111561112a57611129611e69565b5b0217905550905050505050565b5f805f3373ffffffffffffffffffffffffffffffffffffffff1673ffffffffffffffffffffffffffffffffffffffff1681526020019081526020015f205f018054611181906121e9565b9050116111c3576040517f08c379a00000000000000000000000000000000000000000000000000000000081526004016111ba9061232b565b60405180910390fd5b5f6064605a346111d391906129a8565b6111dd9190612a16565b90505f6111e861189f565b90506111f4818361197c565b7f19446f6741eca6d71b8406898c4308b5f1b9844f9f1ea7614b48264e453b9bd28183604051611225929190612a7e565b60405180910390a15050565b60605f805f3373ffffffffffffffffffffffffffffffffffffffff1673ffffffffffffffffffffffffffffffffffffffff1681526020019081526020015f205f01805461127d906121e9565b9050116112bf576040517f08c379a00000000000000000000000000000000000000000000000000000000081526004016112b69061232b565b60405180910390fd5b6001808111156112d2576112d1611e69565b5b5f803373ffffffffffffffffffffffffffffffffffffffff1673ffffffffffffffffffffffffffffffffffffffff1681526020019081526020015f2060010160019054906101000a900460ff16600181111561133157611330611e69565b5b14611371576040517f08c379a0000000000000000000000000000000000000000000000000000000008152600401611368906128bb565b60405180910390fd5b5f60038054905090505f8167ffffffffffffffff81111561139557611394612451565b5b6040519080825280602002602001820160405280156113ce57816020015b6113bb611c56565b8152602001906001900390816113b35790505b5090505f5b828110156115ad576001600382815481106113f1576113f06127d0565b5b905f5260205f200160405161140691906127ba565b90815260200160405180910390206040518060800160405290815f8201805461142e906121e9565b80601f016020809104026020016040519081016040528092919081815260200182805461145a906121e9565b80156114a55780601f1061147c576101008083540402835291602001916114a5565b820191905f5260205f20905b81548152906001019060200180831161148857829003601f168201915b5050505050815260200160018201548152602001600282015f9054906101000a900460ff1660018111156114dc576114db611e69565b5b60018111156114ee576114ed611e69565b5b8152602001600382018054611502906121e9565b80601f016020809104026020016040519081016040528092919081815260200182805461152e906121e9565b80156115795780601f1061155057610100808354040283529160200191611579565b820191905f5260205f20905b81548152906001019060200180831161155c57829003601f168201915b505050505081525050828281518110611595576115946127d0565b5b602002602001018190525080806001019150506113d3565b50809250505090565b5f805f803373ffffffffffffffffffffffffffffffffffffffff1673ffffffffffffffffffffffffffffffffffffffff1681526020019081526020015f205f018054611601906121e9565b905011611643576040517f08c379a000000000000000000000000000000000000000000000000000000000815260040161163a9061232b565b60405180910390fd5b60018081111561165657611655611e69565b5b5f803373ffffffffffffffffffffffffffffffffffffffff1673ffffffffffffffffffffffffffffffffffffffff1681526020019081526020015f2060010160019054906101000a900460ff1660018111156116b5576116b4611e69565b5b14905090565b6116c3611c8e565b5f805f3373ffffffffffffffffffffffffffffffffffffffff1673ffffffffffffffffffffffffffffffffffffffff1681526020019081526020015f205f01805461170d906121e9565b90501161174f576040517f08c379a00000000000000000000000000000000000000000000000000000000081526004016117469061232b565b60405180910390fd5b5f803373ffffffffffffffffffffffffffffffffffffffff1673ffffffffffffffffffffffffffffffffffffffff1681526020019081526020015f206040518060600160405290815f820180546117a5906121e9565b80601f01602080910402602001604051908101604052809291908181526020018280546117d1906121e9565b801561181c5780601f106117f35761010080835404028352916020019161181c565b820191905f5260205f20905b8154815290600101906020018083116117ff57829003601f168201915b50505050508152602001600182015f9054906101000a900460ff16600181111561184957611848611e69565b5b600181111561185b5761185a611e69565b5b81526020016001820160019054906101000a900460ff16600181111561188457611883611e69565b5b600181111561189657611895611e69565b5b81525050905090565b60605f600f67ffffffffffffffff8111156118bd576118bc612451565b5b6040519080825280601f01601f1916602001820160405280156118ef5781602001600182028036833780820191505090505b5090505f5b600f811015611974575f61190782611c14565b9050601a816119169190612aac565b60616119229190612adc565b60f81b838381518110611938576119376127d0565b5b60200101907effffffffffffffffffffffffffffffffffffffffffffffffffffffffffffff191690815f1a9053505080806001019150506118f4565b508091505090565b815f805b600380549050811015611a11578260405160200161199e9190612253565b60405160208183030381529060405280519060200120600382815481106119c8576119c76127d0565b5b905f5260205f20016040516020016119e091906127ba565b6040516020818303038152906040528051906020012003611a045760019150611a11565b8080600101915050611980565b508015611a53576040517f08c379a0000000000000000000000000000000000000000000000000000000008152600401611a4a90612b59565b60405180910390fd5b600384908060018154018082558091505060019003905f5260205f20015f909190919091509081611a8491906128d9565b5060405180608001604052805f803373ffffffffffffffffffffffffffffffffffffffff1673ffffffffffffffffffffffffffffffffffffffff1681526020019081526020015f205f018054611ad9906121e9565b80601f0160208091040260200160405190810160405280929190818152602001828054611b05906121e9565b8015611b505780601f10611b2757610100808354040283529160200191611b50565b820191905f5260205f20905b815481529060010190602001808311611b3357829003601f168201915b50505050508152602001848152602001600180811115611b7357611b72611e69565b5b815260200160405180602001604052805f815250815250600185604051611b9a9190612253565b90815260200160405180910390205f820151815f019081611bbb91906128d9565b50602082015181600101556040820151816002015f6101000a81548160ff02191690836001811115611bf057611bef611e69565b5b02179055506060820151816003019081611c0a91906128d9565b5090505050505050565b5f612710424484604051602001611c2d93929190612b97565b604051602081830303815290604052805190602001205f1c611c4f9190612aac565b9050919050565b6040518060800160405280606081526020015f81526020015f6001811115611c8157611c80611e69565b5b8152602001606081525090565b6040518060600160405280606081526020015f6001811115611cb357611cb2611e69565b5b81526020015f6001811115611ccb57611cca611e69565b5b81525090565b5f8115159050919050565b611ce581611cd1565b82525050565b5f602082019050611cfe5f830184611cdc565b92915050565b5f80fd5b5f80fd5b5f80fd5b5f80fd5b5f80fd5b5f8083601f840112611d2d57611d2c611d0c565b5b8235905067ffffffffffffffff811115611d4a57611d49611d10565b5b602083019150836001820283011115611d6657611d65611d14565b5b9250929050565b5f8060208385031215611d8357611d82611d04565b5b5f83013567ffffffffffffffff811115611da057611d9f611d08565b5b611dac85828601611d18565b92509250509250929050565b5f81519050919050565b5f82825260208201905092915050565b5f819050602082019050919050565b5f81519050919050565b5f82825260208201905092915050565b8281835e5f83830152505050565b5f601f19601f8301169050919050565b5f611e2382611de1565b611e2d8185611deb565b9350611e3d818560208601611dfb565b611e4681611e09565b840191505092915050565b5f819050919050565b611e6381611e51565b82525050565b7f4e487b71000000000000000000000000000000000000000000000000000000005f52602160045260245ffd5b60028110611ea757611ea6611e69565b5b50565b5f819050611eb782611e96565b919050565b5f611ec682611eaa565b9050919050565b611ed681611ebc565b82525050565b5f608083015f8301518482035f860152611ef68282611e19565b9150506020830151611f0b6020860182611e5a565b506040830151611f1e6040860182611ecd565b5060608301518482036060860152611f368282611e19565b9150508091505092915050565b5f611f4e8383611edc565b905092915050565b5f602082019050919050565b5f611f6c82611db8565b611f768185611dc2565b935083602082028501611f8885611dd2565b805f5b85811015611fc35784840389528151611fa48582611f43565b9450611faf83611f56565b925060208a01995050600181019050611f8b565b50829750879550505050505092915050565b5f6020820190508181035f830152611fed8184611f62565b905092915050565b60028110612001575f80fd5b50565b5f8135905061201281611ff5565b92915050565b5f6020828403121561202d5761202c611d04565b5b5f61203a84828501612004565b91505092915050565b6002811061204f575f80fd5b50565b5f8135905061206081612043565b92915050565b5f805f6040848603121561207d5761207c611d04565b5b5f84013567ffffffffffffffff81111561209a57612099611d08565b5b6120a686828701611d18565b935093505060206120b986828701612052565b9150509250925092565b600281106120d4576120d3611e69565b5b50565b5f8190506120e4826120c3565b919050565b5f6120f3826120d7565b9050919050565b612103816120e9565b82525050565b6002811061211a57612119611e69565b5b50565b5f81905061212a82612109565b919050565b5f6121398261211d565b9050919050565b6121498161212f565b82525050565b5f606083015f8301518482035f8601526121698282611e19565b915050602083015161217e60208601826120fa565b5060408301516121916040860182612140565b508091505092915050565b5f6020820190508181035f8301526121b4818461214f565b905092915050565b7f4e487b71000000000000000000000000000000000000000000000000000000005f52602260045260245ffd5b5f600282049050600182168061220057607f821691505b602082108103612213576122126121bc565b5b50919050565b5f81905092915050565b5f61222d82611de1565b6122378185612219565b9350612247818560208601611dfb565b80840191505092915050565b5f61225e8284612223565b915081905092915050565b5f82825260208201905092915050565b7f4361726420697320496e76616c696400000000000000000000000000000000005f82015250565b5f6122ad600f83612269565b91506122b882612279565b602082019050919050565b5f6020820190508181035f8301526122da816122a1565b9050919050565b7f5573657220646f6573206e6f74206578697374000000000000000000000000005f82015250565b5f612315601383612269565b9150612320826122e1565b602082019050919050565b5f6020820190508181035f83015261234281612309565b9050919050565b7f5265656e7472616e637947756172643a207265656e7472616e742063616c6c005f82015250565b5f61237d601f83612269565b915061238882612349565b602082019050919050565b5f6020820190508181035f8301526123aa81612371565b9050919050565b828183375f83830152505050565b5f6123ca8385612219565b93506123d78385846123b1565b82840190509392505050565b5f6123ef8284866123bf565b91508190509392505050565b5f81905092915050565b50565b5f6124135f836123fb565b915061241e82612405565b5f82019050919050565b5f61243282612408565b9150819050919050565b5f8154905061244a816121e9565b9050919050565b7f4e487b71000000000000000000000000000000000000000000000000000000005f52604160045260245ffd5b5f819050815f5260205f209050919050565b5f819050815f5260205f209050919050565b5f6020601f8301049050919050565b5f82821b905092915050565b5f600883026124ec7fffffffffffffffffffffffffffffffffffffffffffffffffffffffffffffffff826124b1565b6124f686836124b1565b95508019841693508086168417925050509392505050565b5f819050919050565b5f61253161252c61252784611e51565b61250e565b611e51565b9050919050565b5f819050919050565b61254a83612517565b61255e61255682612538565b8484546124bd565b825550505050565b5f90565b612572612566565b61257d818484612541565b505050565b5b818110156125a0576125955f8261256a565b600181019050612583565b5050565b601f8211156125e5576125b68161247e565b6125bf846124a2565b810160208510156125ce578190505b6125e26125da856124a2565b830182612582565b50505b505050565b5f82821c905092915050565b5f6126055f19846008026125ea565b1980831691505092915050565b5f61261d83836125f6565b9150826002028217905092915050565b81810361263b575050612710565b6126448261243c565b67ffffffffffffffff81111561265d5761265c612451565b5b61266782546121e9565b6126728282856125a4565b5f601f83116001811461269f575f841561268d578287015490505b6126978582612612565b865550612709565b601f1984166126ad87612490565b96506126b88661247e565b5f5b828110156126df578489015482556001820191506001850194506020810190506126ba565b868310156126fc57848901546126f8601f8916826125f6565b8355505b6001600288020188555050505b5050505050505b565b61271b81611e51565b82525050565b5f6020820190506127345f830184612712565b92915050565b5f8154612746816121e9565b6127508186612219565b9450600182165f811461276a576001811461277f576127b1565b60ff19831686528115158202860193506127b1565b6127888561247e565b5f5b838110156127a95781548189015260018201915060208101905061278a565b838801955050505b50505092915050565b5f6127c5828461273a565b915081905092915050565b7f4e487b71000000000000000000000000000000000000000000000000000000005f52603260045260245ffd5b7f4e487b71000000000000000000000000000000000000000000000000000000005f52601160045260245ffd5b5f61283482611e51565b91507fffffffffffffffffffffffffffffffffffffffffffffffffffffffffffffffff8203612866576128656127fd565b5b600182019050919050565b7f596f7520617265206e6f7420616e2061646d696e0000000000000000000000005f82015250565b5f6128a5601483612269565b91506128b082612871565b602082019050919050565b5f6020820190508181035f8301526128d281612899565b9050919050565b6128e282611de1565b67ffffffffffffffff8111156128fb576128fa612451565b5b61290582546121e9565b6129108282856125a4565b5f60209050601f831160018114612941575f841561292f578287015190505b6129398582612612565b8655506129a0565b601f19841661294f8661247e565b5f5b8281101561297657848901518255600182019150602085019450602081019050612951565b86831015612993578489015161298f601f8916826125f6565b8355505b6001600288020188555050505b505050505050565b5f6129b282611e51565b91506129bd83611e51565b92508282026129cb81611e51565b915082820484148315176129e2576129e16127fd565b5b5092915050565b7f4e487b71000000000000000000000000000000000000000000000000000000005f52601260045260245ffd5b5f612a2082611e51565b9150612a2b83611e51565b925082612a3b57612a3a6129e9565b5b828204905092915050565b5f612a5082611de1565b612a5a8185612269565b9350612a6a818560208601611dfb565b612a7381611e09565b840191505092915050565b5f6040820190508181035f830152612a968185612a46565b9050612aa56020830184612712565b9392505050565b5f612ab682611e51565b9150612ac183611e51565b925082612ad157612ad06129e9565b5b828206905092915050565b5f612ae682611e51565b9150612af183611e51565b9250828201905080821115612b0957612b086127fd565b5b92915050565b7f436f6465206973204e6f7420556e6971756500000000000000000000000000005f82015250565b5f612b43601283612269565b9150612b4e82612b0f565b602082019050919050565b5f6020820190508181035f830152612b7081612b37565b9050919050565b5f819050919050565b612b91612b8c82611e51565b612b77565b82525050565b5f612ba28286612b80565b602082019150612bb28285612b80565b602082019150612bc28284612b80565b60208201915081905094935050505056fea264697066735822122037e96de6da9554dbdbe77075f940240dfe0a2d946e2a348410f464760c75d80364736f6c634300081a0033",
					"opcodes": "PUSH1 0x80 PUSH1 0x40 MSTORE CALLVALUE DUP1 ISZERO PUSH2 0xF JUMPI PUSH0 DUP1 REVERT JUMPDEST POP PUSH1 0x40 MLOAD DUP1 PUSH1 0x60 ADD PUSH1 0x40 MSTORE DUP1 PUSH1 0x40 MLOAD DUP1 PUSH1 0x40 ADD PUSH1 0x40 MSTORE DUP1 PUSH1 0xF DUP2 MSTORE PUSH1 0x20 ADD PUSH32 0x4962726168696D204D6F68616D65640000000000000000000000000000000000 DUP2 MSTORE POP DUP2 MSTORE PUSH1 0x20 ADD PUSH1 0x1 DUP1 DUP2 GT ISZERO PUSH2 0x69 JUMPI PUSH2 0x68 PUSH2 0x371 JUMP JUMPDEST JUMPDEST DUP2 MSTORE PUSH1 0x20 ADD PUSH1 0x1 DUP1 DUP2 GT ISZERO PUSH2 0x81 JUMPI PUSH2 0x80 PUSH2 0x371 JUMP JUMPDEST JUMPDEST DUP2 MSTORE POP PUSH0 DUP1 PUSH20 0x8DC03105BA1A429FC962EBE37766B8601D70E0D6 PUSH20 0xFFFFFFFFFFFFFFFFFFFFFFFFFFFFFFFFFFFFFFFF AND PUSH20 0xFFFFFFFFFFFFFFFFFFFFFFFFFFFFFFFFFFFFFFFF AND DUP2 MSTORE PUSH1 0x20 ADD SWAP1 DUP2 MSTORE PUSH1 0x20 ADD PUSH0 KECCAK256 PUSH0 DUP3 ADD MLOAD DUP2 PUSH0 ADD SWAP1 DUP2 PUSH2 0xE7 SWAP2 SWAP1 PUSH2 0x5D8 JUMP JUMPDEST POP PUSH1 0x20 DUP3 ADD MLOAD DUP2 PUSH1 0x1 ADD PUSH0 PUSH2 0x100 EXP DUP2 SLOAD DUP2 PUSH1 0xFF MUL NOT AND SWAP1 DUP4 PUSH1 0x1 DUP2 GT ISZERO PUSH2 0x112 JUMPI PUSH2 0x111 PUSH2 0x371 JUMP JUMPDEST JUMPDEST MUL OR SWAP1 SSTORE POP PUSH1 0x40 DUP3 ADD MLOAD DUP2 PUSH1 0x1 ADD PUSH1 0x1 PUSH2 0x100 EXP DUP2 SLOAD DUP2 PUSH1 0xFF MUL NOT AND SWAP1 DUP4 PUSH1 0x1 DUP2 GT ISZERO PUSH2 0x142 JUMPI PUSH2 0x141 PUSH2 0x371 JUMP JUMPDEST JUMPDEST MUL OR SWAP1 SSTORE POP SWAP1 POP POP PUSH1 0x4 PUSH20 0x8DC03105BA1A429FC962EBE37766B8601D70E0D6 SWAP1 DUP1 PUSH1 0x1 DUP2 SLOAD ADD DUP1 DUP3 SSTORE DUP1 SWAP2 POP POP PUSH1 0x1 SWAP1 SUB SWAP1 PUSH0 MSTORE PUSH1 0x20 PUSH0 KECCAK256 ADD PUSH0 SWAP1 SWAP2 SWAP1 SWAP2 SWAP1 SWAP2 PUSH2 0x100 EXP DUP2 SLOAD DUP2 PUSH20 0xFFFFFFFFFFFFFFFFFFFFFFFFFFFFFFFFFFFFFFFF MUL NOT AND SWAP1 DUP4 PUSH20 0xFFFFFFFFFFFFFFFFFFFFFFFFFFFFFFFFFFFFFFFF AND MUL OR SWAP1 SSTORE POP PUSH1 0x40 MLOAD DUP1 PUSH1 0x60 ADD PUSH1 0x40 MSTORE DUP1 PUSH1 0x40 MLOAD DUP1 PUSH1 0x40 ADD PUSH1 0x40 MSTORE DUP1 PUSH1 0xB DUP2 MSTORE PUSH1 0x20 ADD PUSH32 0x4F62616461205361667761000000000000000000000000000000000000000000 DUP2 MSTORE POP DUP2 MSTORE PUSH1 0x20 ADD PUSH1 0x1 DUP1 DUP2 GT ISZERO PUSH2 0x217 JUMPI PUSH2 0x216 PUSH2 0x371 JUMP JUMPDEST JUMPDEST DUP2 MSTORE PUSH1 0x20 ADD PUSH1 0x1 DUP1 DUP2 GT ISZERO PUSH2 0x22F JUMPI PUSH2 0x22E PUSH2 0x371 JUMP JUMPDEST JUMPDEST DUP2 MSTORE POP PUSH0 DUP1 PUSH20 0xAD009219D5052664E665C2A95F12E4ABEA6730C0 PUSH20 0xFFFFFFFFFFFFFFFFFFFFFFFFFFFFFFFFFFFFFFFF AND PUSH20 0xFFFFFFFFFFFFFFFFFFFFFFFFFFFFFFFFFFFFFFFF AND DUP2 MSTORE PUSH1 0x20 ADD SWAP1 DUP2 MSTORE PUSH1 0x20 ADD PUSH0 KECCAK256 PUSH0 DUP3 ADD MLOAD DUP2 PUSH0 ADD SWAP1 DUP2 PUSH2 0x295 SWAP2 SWAP1 PUSH2 0x5D8 JUMP JUMPDEST POP PUSH1 0x20 DUP3 ADD MLOAD DUP2 PUSH1 0x1 ADD PUSH0 PUSH2 0x100 EXP DUP2 SLOAD DUP2 PUSH1 0xFF MUL NOT AND SWAP1 DUP4 PUSH1 0x1 DUP2 GT ISZERO PUSH2 0x2C0 JUMPI PUSH2 0x2BF PUSH2 0x371 JUMP JUMPDEST JUMPDEST MUL OR SWAP1 SSTORE POP PUSH1 0x40 DUP3 ADD MLOAD DUP2 PUSH1 0x1 ADD PUSH1 0x1 PUSH2 0x100 EXP DUP2 SLOAD DUP2 PUSH1 0xFF MUL NOT AND SWAP1 DUP4 PUSH1 0x1 DUP2 GT ISZERO PUSH2 0x2F0 JUMPI PUSH2 0x2EF PUSH2 0x371 JUMP JUMPDEST JUMPDEST MUL OR SWAP1 SSTORE POP SWAP1 POP POP PUSH1 0x4 PUSH20 0xAD009219D5052664E665C2A95F12E4ABEA6730C0 SWAP1 DUP1 PUSH1 0x1 DUP2 SLOAD ADD DUP1 DUP3 SSTORE DUP1 SWAP2 POP POP PUSH1 0x1 SWAP1 SUB SWAP1 PUSH0 MSTORE PUSH1 0x20 PUSH0 KECCAK256 ADD PUSH0 SWAP1 SWAP2 SWAP1 SWAP2 SWAP1 SWAP2 PUSH2 0x100 EXP DUP2 SLOAD DUP2 PUSH20 0xFFFFFFFFFFFFFFFFFFFFFFFFFFFFFFFFFFFFFFFF MUL NOT AND SWAP1 DUP4 PUSH20 0xFFFFFFFFFFFFFFFFFFFFFFFFFFFFFFFFFFFFFFFF AND MUL OR SWAP1 SSTORE POP PUSH2 0x6A7 JUMP JUMPDEST PUSH32 0x4E487B7100000000000000000000000000000000000000000000000000000000 PUSH0 MSTORE PUSH1 0x21 PUSH1 0x4 MSTORE PUSH1 0x24 PUSH0 REVERT JUMPDEST PUSH0 DUP2 MLOAD SWAP1 POP SWAP2 SWAP1 POP JUMP JUMPDEST PUSH32 0x4E487B7100000000000000000000000000000000000000000000000000000000 PUSH0 MSTORE PUSH1 0x41 PUSH1 0x4 MSTORE PUSH1 0x24 PUSH0 REVERT JUMPDEST PUSH32 0x4E487B7100000000000000000000000000000000000000000000000000000000 PUSH0 MSTORE PUSH1 0x22 PUSH1 0x4 MSTORE PUSH1 0x24 PUSH0 REVERT JUMPDEST PUSH0 PUSH1 0x2 DUP3 DIV SWAP1 POP PUSH1 0x1 DUP3 AND DUP1 PUSH2 0x419 JUMPI PUSH1 0x7F DUP3 AND SWAP2 POP JUMPDEST PUSH1 0x20 DUP3 LT DUP2 SUB PUSH2 0x42C JUMPI PUSH2 0x42B PUSH2 0x3D5 JUMP JUMPDEST JUMPDEST POP SWAP2 SWAP1 POP JUMP JUMPDEST PUSH0 DUP2 SWAP1 POP DUP2 PUSH0 MSTORE PUSH1 0x20 PUSH0 KECCAK256 SWAP1 POP SWAP2 SWAP1 POP JUMP JUMPDEST PUSH0 PUSH1 0x20 PUSH1 0x1F DUP4 ADD DIV SWAP1 POP SWAP2 SWAP1 POP JUMP JUMPDEST PUSH0 DUP3 DUP3 SHL SWAP1 POP SWAP3 SWAP2 POP POP JUMP JUMPDEST PUSH0 PUSH1 0x8 DUP4 MUL PUSH2 0x48E PUSH32 0xFFFFFFFFFFFFFFFFFFFFFFFFFFFFFFFFFFFFFFFFFFFFFFFFFFFFFFFFFFFFFFFF DUP3 PUSH2 0x453 JUMP JUMPDEST PUSH2 0x498 DUP7 DUP4 PUSH2 0x453 JUMP JUMPDEST SWAP6 POP DUP1 NOT DUP5 AND SWAP4 POP DUP1 DUP7 AND DUP5 OR SWAP3 POP POP POP SWAP4 SWAP3 POP POP POP JUMP JUMPDEST PUSH0 DUP2 SWAP1 POP SWAP2 SWAP1 POP JUMP JUMPDEST PUSH0 DUP2 SWAP1 POP SWAP2 SWAP1 POP JUMP JUMPDEST PUSH0 PUSH2 0x4DC PUSH2 0x4D7 PUSH2 0x4D2 DUP5 PUSH2 0x4B0 JUMP JUMPDEST PUSH2 0x4B9 JUMP JUMPDEST PUSH2 0x4B0 JUMP JUMPDEST SWAP1 POP SWAP2 SWAP1 POP JUMP JUMPDEST PUSH0 DUP2 SWAP1 POP SWAP2 SWAP1 POP JUMP JUMPDEST PUSH2 0x4F5 DUP4 PUSH2 0x4C2 JUMP JUMPDEST PUSH2 0x509 PUSH2 0x501 DUP3 PUSH2 0x4E3 JUMP JUMPDEST DUP5 DUP5 SLOAD PUSH2 0x45F JUMP JUMPDEST DUP3 SSTORE POP POP POP POP JUMP JUMPDEST PUSH0 SWAP1 JUMP JUMPDEST PUSH2 0x51D PUSH2 0x511 JUMP JUMPDEST PUSH2 0x528 DUP2 DUP5 DUP5 PUSH2 0x4EC JUMP JUMPDEST POP POP POP JUMP JUMPDEST JUMPDEST DUP2 DUP2 LT ISZERO PUSH2 0x54B JUMPI PUSH2 0x540 PUSH0 DUP3 PUSH2 0x515 JUMP JUMPDEST PUSH1 0x1 DUP2 ADD SWAP1 POP PUSH2 0x52E JUMP JUMPDEST POP POP JUMP JUMPDEST PUSH1 0x1F DUP3 GT ISZERO PUSH2 0x590 JUMPI PUSH2 0x561 DUP2 PUSH2 0x432 JUMP JUMPDEST PUSH2 0x56A DUP5 PUSH2 0x444 JUMP JUMPDEST DUP2 ADD PUSH1 0x20 DUP6 LT ISZERO PUSH2 0x579 JUMPI DUP2 SWAP1 POP JUMPDEST PUSH2 0x58D PUSH2 0x585 DUP6 PUSH2 0x444 JUMP JUMPDEST DUP4 ADD DUP3 PUSH2 0x52D JUMP JUMPDEST POP POP JUMPDEST POP POP POP JUMP JUMPDEST PUSH0 DUP3 DUP3 SHR SWAP1 POP SWAP3 SWAP2 POP POP JUMP JUMPDEST PUSH0 PUSH2 0x5B0 PUSH0 NOT DUP5 PUSH1 0x8 MUL PUSH2 0x595 JUMP JUMPDEST NOT DUP1 DUP4 AND SWAP2 POP POP SWAP3 SWAP2 POP POP JUMP JUMPDEST PUSH0 PUSH2 0x5C8 DUP4 DUP4 PUSH2 0x5A1 JUMP JUMPDEST SWAP2 POP DUP3 PUSH1 0x2 MUL DUP3 OR SWAP1 POP SWAP3 SWAP2 POP POP JUMP JUMPDEST PUSH2 0x5E1 DUP3 PUSH2 0x39E JUMP JUMPDEST PUSH8 0xFFFFFFFFFFFFFFFF DUP2 GT ISZERO PUSH2 0x5FA JUMPI PUSH2 0x5F9 PUSH2 0x3A8 JUMP JUMPDEST JUMPDEST PUSH2 0x604 DUP3 SLOAD PUSH2 0x402 JUMP JUMPDEST PUSH2 0x60F DUP3 DUP3 DUP6 PUSH2 0x54F JUMP JUMPDEST PUSH0 PUSH1 0x20 SWAP1 POP PUSH1 0x1F DUP4 GT PUSH1 0x1 DUP2 EQ PUSH2 0x640 JUMPI PUSH0 DUP5 ISZERO PUSH2 0x62E JUMPI DUP3 DUP8 ADD MLOAD SWAP1 POP JUMPDEST PUSH2 0x638 DUP6 DUP3 PUSH2 0x5BD JUMP JUMPDEST DUP7 SSTORE POP PUSH2 0x69F JUMP JUMPDEST PUSH1 0x1F NOT DUP5 AND PUSH2 0x64E DUP7 PUSH2 0x432 JUMP JUMPDEST PUSH0 JUMPDEST DUP3 DUP2 LT ISZERO PUSH2 0x675 JUMPI DUP5 DUP10 ADD MLOAD DUP3 SSTORE PUSH1 0x1 DUP3 ADD SWAP2 POP PUSH1 0x20 DUP6 ADD SWAP5 POP PUSH1 0x20 DUP2 ADD SWAP1 POP PUSH2 0x650 JUMP JUMPDEST DUP7 DUP4 LT ISZERO PUSH2 0x692 JUMPI DUP5 DUP10 ADD MLOAD PUSH2 0x68E PUSH1 0x1F DUP10 AND DUP3 PUSH2 0x5A1 JUMP JUMPDEST DUP4 SSTORE POP JUMPDEST PUSH1 0x1 PUSH1 0x2 DUP9 MUL ADD DUP9 SSTORE POP POP POP JUMPDEST POP POP POP POP POP POP JUMP JUMPDEST PUSH2 0x2C09 DUP1 PUSH2 0x6B4 PUSH0 CODECOPY PUSH0 RETURN INVALID PUSH1 0x80 PUSH1 0x40 MSTORE PUSH1 0x4 CALLDATASIZE LT PUSH2 0x89 JUMPI PUSH0 CALLDATALOAD PUSH1 0xE0 SHR DUP1 PUSH4 0x8F0E582F GT PUSH2 0x58 JUMPI DUP1 PUSH4 0x8F0E582F EQ PUSH2 0x14A JUMPI DUP1 PUSH4 0xA34F011C EQ PUSH2 0x172 JUMPI DUP1 PUSH4 0xA927DB0D EQ PUSH2 0x17C JUMPI DUP1 PUSH4 0xB6DB75A0 EQ PUSH2 0x1A6 JUMPI DUP1 PUSH4 0xD9C8A38B EQ PUSH2 0x1D0 JUMPI PUSH2 0x90 JUMP JUMPDEST DUP1 PUSH4 0x22366844 EQ PUSH2 0x92 JUMPI DUP1 PUSH4 0x27E26C8C EQ PUSH2 0xBC JUMPI DUP1 PUSH4 0x2B4A9DDA EQ PUSH2 0xE4 JUMPI DUP1 PUSH4 0x4CF57138 EQ PUSH2 0x10E JUMPI PUSH2 0x90 JUMP JUMPDEST CALLDATASIZE PUSH2 0x90 JUMPI STOP JUMPDEST STOP JUMPDEST CALLVALUE DUP1 ISZERO PUSH2 0x9D JUMPI PUSH0 DUP1 REVERT JUMPDEST POP PUSH2 0xA6 PUSH2 0x1FA JUMP JUMPDEST PUSH1 0x40 MLOAD PUSH2 0xB3 SWAP2 SWAP1 PUSH2 0x1CEB JUMP JUMPDEST PUSH1 0x40 MLOAD DUP1 SWAP2 SUB SWAP1 RETURN JUMPDEST CALLVALUE DUP1 ISZERO PUSH2 0xC7 JUMPI PUSH0 DUP1 REVERT JUMPDEST POP PUSH2 0xE2 PUSH1 0x4 DUP1 CALLDATASIZE SUB DUP2 ADD SWAP1 PUSH2 0xDD SWAP2 SWAP1 PUSH2 0x1D6D JUMP JUMPDEST PUSH2 0x24D JUMP JUMPDEST STOP JUMPDEST CALLVALUE DUP1 ISZERO PUSH2 0xEF JUMPI PUSH0 DUP1 REVERT JUMPDEST POP PUSH2 0xF8 PUSH2 0x5DC JUMP JUMPDEST PUSH1 0x40 MLOAD PUSH2 0x105 SWAP2 SWAP1 PUSH2 0x1FD5 JUMP JUMPDEST PUSH1 0x40 MLOAD DUP1 SWAP2 SUB SWAP1 RETURN JUMPDEST CALLVALUE DUP1 ISZERO PUSH2 0x119 JUMPI PUSH0 DUP1 REVERT JUMPDEST POP PUSH2 0x134 PUSH1 0x4 DUP1 CALLDATASIZE SUB DUP2 ADD SWAP1 PUSH2 0x12F SWAP2 SWAP1 PUSH2 0x2018 JUMP JUMPDEST PUSH2 0xAF7 JUMP JUMPDEST PUSH1 0x40 MLOAD PUSH2 0x141 SWAP2 SWAP1 PUSH2 0x1FD5 JUMP JUMPDEST PUSH1 0x40 MLOAD DUP1 SWAP2 SUB SWAP1 RETURN JUMPDEST CALLVALUE DUP1 ISZERO PUSH2 0x155 JUMPI PUSH0 DUP1 REVERT JUMPDEST POP PUSH2 0x170 PUSH1 0x4 DUP1 CALLDATASIZE SUB DUP2 ADD SWAP1 PUSH2 0x16B SWAP2 SWAP1 PUSH2 0x2066 JUMP JUMPDEST PUSH2 0xF9E JUMP JUMPDEST STOP JUMPDEST PUSH2 0x17A PUSH2 0x1137 JUMP JUMPDEST STOP JUMPDEST CALLVALUE DUP1 ISZERO PUSH2 0x187 JUMPI PUSH0 DUP1 REVERT JUMPDEST POP PUSH2 0x190 PUSH2 0x1231 JUMP JUMPDEST PUSH1 0x40 MLOAD PUSH2 0x19D SWAP2 SWAP1 PUSH2 0x1FD5 JUMP JUMPDEST PUSH1 0x40 MLOAD DUP1 SWAP2 SUB SWAP1 RETURN JUMPDEST CALLVALUE DUP1 ISZERO PUSH2 0x1B1 JUMPI PUSH0 DUP1 REVERT JUMPDEST POP PUSH2 0x1BA PUSH2 0x15B6 JUMP JUMPDEST PUSH1 0x40 MLOAD PUSH2 0x1C7 SWAP2 SWAP1 PUSH2 0x1CEB JUMP JUMPDEST PUSH1 0x40 MLOAD DUP1 SWAP2 SUB SWAP1 RETURN JUMPDEST CALLVALUE DUP1 ISZERO PUSH2 0x1DB JUMPI PUSH0 DUP1 REVERT JUMPDEST POP PUSH2 0x1E4 PUSH2 0x16BB JUMP JUMPDEST PUSH1 0x40 MLOAD PUSH2 0x1F1 SWAP2 SWAP1 PUSH2 0x219C JUMP JUMPDEST PUSH1 0x40 MLOAD DUP1 SWAP2 SUB SWAP1 RETURN JUMPDEST PUSH0 DUP1 PUSH0 DUP1 CALLER PUSH20 0xFFFFFFFFFFFFFFFFFFFFFFFFFFFFFFFFFFFFFFFF AND PUSH20 0xFFFFFFFFFFFFFFFFFFFFFFFFFFFFFFFFFFFFFFFF AND DUP2 MSTORE PUSH1 0x20 ADD SWAP1 DUP2 MSTORE PUSH1 0x20 ADD PUSH0 KECCAK256 PUSH0 ADD DUP1 SLOAD PUSH2 0x245 SWAP1 PUSH2 0x21E9 JUMP JUMPDEST SWAP1 POP GT SWAP1 POP SWAP1 JUMP JUMPDEST DUP2 DUP2 DUP1 DUP1 PUSH1 0x1F ADD PUSH1 0x20 DUP1 SWAP2 DIV MUL PUSH1 0x20 ADD PUSH1 0x40 MLOAD SWAP1 DUP2 ADD PUSH1 0x40 MSTORE DUP1 SWAP4 SWAP3 SWAP2 SWAP1 DUP2 DUP2 MSTORE PUSH1 0x20 ADD DUP4 DUP4 DUP1 DUP3 DUP5 CALLDATACOPY PUSH0 DUP2 DUP5 ADD MSTORE PUSH1 0x1F NOT PUSH1 0x1F DUP3 ADD AND SWAP1 POP DUP1 DUP4 ADD SWAP3 POP POP POP POP POP POP POP PUSH1 0x1 DUP1 DUP2 GT ISZERO PUSH2 0x2A4 JUMPI PUSH2 0x2A3 PUSH2 0x1E69 JUMP JUMPDEST JUMPDEST PUSH1 0x1 DUP3 PUSH1 0x40 MLOAD PUSH2 0x2B4 SWAP2 SWAP1 PUSH2 0x2253 JUMP JUMPDEST SWAP1 DUP2 MSTORE PUSH1 0x20 ADD PUSH1 0x40 MLOAD DUP1 SWAP2 SUB SWAP1 KECCAK256 PUSH1 0x2 ADD PUSH0 SWAP1 SLOAD SWAP1 PUSH2 0x100 EXP SWAP1 DIV PUSH1 0xFF AND PUSH1 0x1 DUP2 GT ISZERO PUSH2 0x2E4 JUMPI PUSH2 0x2E3 PUSH2 0x1E69 JUMP JUMPDEST JUMPDEST EQ PUSH2 0x324 JUMPI PUSH1 0x40 MLOAD PUSH32 0x8C379A000000000000000000000000000000000000000000000000000000000 DUP2 MSTORE PUSH1 0x4 ADD PUSH2 0x31B SWAP1 PUSH2 0x22C3 JUMP JUMPDEST PUSH1 0x40 MLOAD DUP1 SWAP2 SUB SWAP1 REVERT JUMPDEST PUSH0 DUP1 PUSH0 CALLER PUSH20 0xFFFFFFFFFFFFFFFFFFFFFFFFFFFFFFFFFFFFFFFF AND PUSH20 0xFFFFFFFFFFFFFFFFFFFFFFFFFFFFFFFFFFFFFFFF AND DUP2 MSTORE PUSH1 0x20 ADD SWAP1 DUP2 MSTORE PUSH1 0x20 ADD PUSH0 KECCAK256 PUSH0 ADD DUP1 SLOAD PUSH2 0x36E SWAP1 PUSH2 0x21E9 JUMP JUMPDEST SWAP1 POP GT PUSH2 0x3B0 JUMPI PUSH1 0x40 MLOAD PUSH32 0x8C379A000000000000000000000000000000000000000000000000000000000 DUP2 MSTORE PUSH1 0x4 ADD PUSH2 0x3A7 SWAP1 PUSH2 0x232B JUMP JUMPDEST PUSH1 0x40 MLOAD DUP1 SWAP2 SUB SWAP1 REVERT JUMPDEST PUSH1 0x2 PUSH0 SWAP1 SLOAD SWAP1 PUSH2 0x100 EXP SWAP1 DIV PUSH1 0xFF AND ISZERO PUSH2 0x3FF JUMPI PUSH1 0x40 MLOAD PUSH32 0x8C379A000000000000000000000000000000000000000000000000000000000 DUP2 MSTORE PUSH1 0x4 ADD PUSH2 0x3F6 SWAP1 PUSH2 0x2393 JUMP JUMPDEST PUSH1 0x40 MLOAD DUP1 SWAP2 SUB SWAP1 REVERT JUMPDEST PUSH1 0x1 PUSH1 0x2 PUSH0 PUSH2 0x100 EXP DUP2 SLOAD DUP2 PUSH1 0xFF MUL NOT AND SWAP1 DUP4 ISZERO ISZERO MUL OR SWAP1 SSTORE POP PUSH0 CALLER PUSH20 0xFFFFFFFFFFFFFFFFFFFFFFFFFFFFFFFFFFFFFFFF AND PUSH1 0x1 DUP6 DUP6 PUSH1 0x40 MLOAD PUSH2 0x443 SWAP3 SWAP2 SWAP1 PUSH2 0x23E3 JUMP JUMPDEST SWAP1 DUP2 MSTORE PUSH1 0x20 ADD PUSH1 0x40 MLOAD DUP1 SWAP2 SUB SWAP1 KECCAK256 PUSH1 0x1 ADD SLOAD PUSH1 0x40 MLOAD PUSH2 0x461 SWAP1 PUSH2 0x2428 JUMP JUMPDEST PUSH0 PUSH1 0x40 MLOAD DUP1 DUP4 SUB DUP2 DUP6 DUP8 GAS CALL SWAP3 POP POP POP RETURNDATASIZE DUP1 PUSH0 DUP2 EQ PUSH2 0x49B JUMPI PUSH1 0x40 MLOAD SWAP2 POP PUSH1 0x1F NOT PUSH1 0x3F RETURNDATASIZE ADD AND DUP3 ADD PUSH1 0x40 MSTORE RETURNDATASIZE DUP3 MSTORE RETURNDATASIZE PUSH0 PUSH1 0x20 DUP5 ADD RETURNDATACOPY PUSH2 0x4A0 JUMP JUMPDEST PUSH1 0x60 SWAP2 POP JUMPDEST POP POP SWAP1 POP DUP1 ISZERO PUSH2 0x5BD JUMPI PUSH0 PUSH1 0x1 DUP6 DUP6 PUSH1 0x40 MLOAD PUSH2 0x4BD SWAP3 SWAP2 SWAP1 PUSH2 0x23E3 JUMP JUMPDEST SWAP1 DUP2 MSTORE PUSH1 0x20 ADD PUSH1 0x40 MLOAD DUP1 SWAP2 SUB SWAP1 KECCAK256 PUSH1 0x2 ADD PUSH0 PUSH2 0x100 EXP DUP2 SLOAD DUP2 PUSH1 0xFF MUL NOT AND SWAP1 DUP4 PUSH1 0x1 DUP2 GT ISZERO PUSH2 0x4EF JUMPI PUSH2 0x4EE PUSH2 0x1E69 JUMP JUMPDEST JUMPDEST MUL OR SWAP1 SSTORE POP PUSH0 DUP1 CALLER PUSH20 0xFFFFFFFFFFFFFFFFFFFFFFFFFFFFFFFFFFFFFFFF AND PUSH20 0xFFFFFFFFFFFFFFFFFFFFFFFFFFFFFFFFFFFFFFFF AND DUP2 MSTORE PUSH1 0x20 ADD SWAP1 DUP2 MSTORE PUSH1 0x20 ADD PUSH0 KECCAK256 PUSH0 ADD PUSH1 0x1 DUP6 DUP6 PUSH1 0x40 MLOAD PUSH2 0x544 SWAP3 SWAP2 SWAP1 PUSH2 0x23E3 JUMP JUMPDEST SWAP1 DUP2 MSTORE PUSH1 0x20 ADD PUSH1 0x40 MLOAD DUP1 SWAP2 SUB SWAP1 KECCAK256 PUSH1 0x3 ADD SWAP1 DUP2 PUSH2 0x561 SWAP2 SWAP1 PUSH2 0x262D JUMP JUMPDEST POP PUSH32 0x604D6DE1B6EB3F39C6AB9D4981A20D17F88C5BEF33495AE58DABEB097BA7A41A PUSH1 0x1 DUP6 DUP6 PUSH1 0x40 MLOAD PUSH2 0x595 SWAP3 SWAP2 SWAP1 PUSH2 0x23E3 JUMP JUMPDEST SWAP1 DUP2 MSTORE PUSH1 0x20 ADD PUSH1 0x40 MLOAD DUP1 SWAP2 SUB SWAP1 KECCAK256 PUSH1 0x1 ADD SLOAD PUSH1 0x40 MLOAD PUSH2 0x5B4 SWAP2 SWAP1 PUSH2 0x2721 JUMP JUMPDEST PUSH1 0x40 MLOAD DUP1 SWAP2 SUB SWAP1 LOG1 JUMPDEST POP PUSH0 PUSH1 0x2 PUSH0 PUSH2 0x100 EXP DUP2 SLOAD DUP2 PUSH1 0xFF MUL NOT AND SWAP1 DUP4 ISZERO ISZERO MUL OR SWAP1 SSTORE POP POP POP POP JUMP JUMPDEST PUSH1 0x60 PUSH0 DUP1 PUSH0 CALLER PUSH20 0xFFFFFFFFFFFFFFFFFFFFFFFFFFFFFFFFFFFFFFFF AND PUSH20 0xFFFFFFFFFFFFFFFFFFFFFFFFFFFFFFFFFFFFFFFF AND DUP2 MSTORE PUSH1 0x20 ADD SWAP1 DUP2 MSTORE PUSH1 0x20 ADD PUSH0 KECCAK256 PUSH0 ADD DUP1 SLOAD PUSH2 0x628 SWAP1 PUSH2 0x21E9 JUMP JUMPDEST SWAP1 POP GT PUSH2 0x66A JUMPI PUSH1 0x40 MLOAD PUSH32 0x8C379A000000000000000000000000000000000000000000000000000000000 DUP2 MSTORE PUSH1 0x4 ADD PUSH2 0x661 SWAP1 PUSH2 0x232B JUMP JUMPDEST PUSH1 0x40 MLOAD DUP1 SWAP2 SUB SWAP1 REVERT JUMPDEST PUSH0 DUP1 DUP1 PUSH0 CALLER PUSH20 0xFFFFFFFFFFFFFFFFFFFFFFFFFFFFFFFFFFFFFFFF AND PUSH20 0xFFFFFFFFFFFFFFFFFFFFFFFFFFFFFFFFFFFFFFFF AND DUP2 MSTORE PUSH1 0x20 ADD SWAP1 DUP2 MSTORE PUSH1 0x20 ADD PUSH0 KECCAK256 PUSH0 ADD PUSH1 0x40 MLOAD PUSH1 0x20 ADD PUSH2 0x6BA SWAP2 SWAP1 PUSH2 0x27BA JUMP JUMPDEST PUSH1 0x40 MLOAD PUSH1 0x20 DUP2 DUP4 SUB SUB DUP2 MSTORE SWAP1 PUSH1 0x40 MSTORE DUP1 MLOAD SWAP1 PUSH1 0x20 ADD KECCAK256 SWAP1 POP PUSH0 JUMPDEST PUSH1 0x3 DUP1 SLOAD SWAP1 POP DUP2 LT ISZERO PUSH2 0x7D0 JUMPI DUP2 PUSH1 0x1 PUSH1 0x3 DUP4 DUP2 SLOAD DUP2 LT PUSH2 0x6F8 JUMPI PUSH2 0x6F7 PUSH2 0x27D0 JUMP JUMPDEST JUMPDEST SWAP1 PUSH0 MSTORE PUSH1 0x20 PUSH0 KECCAK256 ADD PUSH1 0x40 MLOAD PUSH2 0x70D SWAP2 SWAP1 PUSH2 0x27BA JUMP JUMPDEST SWAP1 DUP2 MSTORE PUSH1 0x20 ADD PUSH1 0x40 MLOAD DUP1 SWAP2 SUB SWAP1 KECCAK256 PUSH0 ADD PUSH1 0x40 MLOAD PUSH1 0x20 ADD PUSH2 0x72D SWAP2 SWAP1 PUSH2 0x27BA JUMP JUMPDEST PUSH1 0x40 MLOAD PUSH1 0x20 DUP2 DUP4 SUB SUB DUP2 MSTORE SWAP1 PUSH1 0x40 MSTORE DUP1 MLOAD SWAP1 PUSH1 0x20 ADD KECCAK256 EQ DUP1 PUSH2 0x7AF JUMPI POP DUP2 PUSH1 0x1 PUSH1 0x3 DUP4 DUP2 SLOAD DUP2 LT PUSH2 0x761 JUMPI PUSH2 0x760 PUSH2 0x27D0 JUMP JUMPDEST JUMPDEST SWAP1 PUSH0 MSTORE PUSH1 0x20 PUSH0 KECCAK256 ADD PUSH1 0x40 MLOAD PUSH2 0x776 SWAP2 SWAP1 PUSH2 0x27BA JUMP JUMPDEST SWAP1 DUP2 MSTORE PUSH1 0x20 ADD PUSH1 0x40 MLOAD DUP1 SWAP2 SUB SWAP1 KECCAK256 PUSH1 0x3 ADD PUSH1 0x40 MLOAD PUSH1 0x20 ADD PUSH2 0x797 SWAP2 SWAP1 PUSH2 0x27BA JUMP JUMPDEST PUSH1 0x40 MLOAD PUSH1 0x20 DUP2 DUP4 SUB SUB DUP2 MSTORE SWAP1 PUSH1 0x40 MSTORE DUP1 MLOAD SWAP1 PUSH1 0x20 ADD KECCAK256 EQ JUMPDEST ISZERO PUSH2 0x7C3 JUMPI DUP3 DUP1 PUSH2 0x7BF SWAP1 PUSH2 0x282A JUMP JUMPDEST SWAP4 POP POP JUMPDEST DUP1 DUP1 PUSH1 0x1 ADD SWAP2 POP POP PUSH2 0x6D4 JUMP JUMPDEST POP PUSH0 DUP3 PUSH8 0xFFFFFFFFFFFFFFFF DUP2 GT ISZERO PUSH2 0x7EC JUMPI PUSH2 0x7EB PUSH2 0x2451 JUMP JUMPDEST JUMPDEST PUSH1 0x40 MLOAD SWAP1 DUP1 DUP3 MSTORE DUP1 PUSH1 0x20 MUL PUSH1 0x20 ADD DUP3 ADD PUSH1 0x40 MSTORE DUP1 ISZERO PUSH2 0x825 JUMPI DUP2 PUSH1 0x20 ADD JUMPDEST PUSH2 0x812 PUSH2 0x1C56 JUMP JUMPDEST DUP2 MSTORE PUSH1 0x20 ADD SWAP1 PUSH1 0x1 SWAP1 SUB SWAP1 DUP2 PUSH2 0x80A JUMPI SWAP1 POP JUMPDEST POP SWAP1 POP PUSH0 DUP1 JUMPDEST PUSH1 0x3 DUP1 SLOAD SWAP1 POP DUP2 LT ISZERO PUSH2 0xAEC JUMPI DUP4 PUSH1 0x1 PUSH1 0x3 DUP4 DUP2 SLOAD DUP2 LT PUSH2 0x84F JUMPI PUSH2 0x84E PUSH2 0x27D0 JUMP JUMPDEST JUMPDEST SWAP1 PUSH0 MSTORE PUSH1 0x20 PUSH0 KECCAK256 ADD PUSH1 0x40 MLOAD PUSH2 0x864 SWAP2 SWAP1 PUSH2 0x27BA JUMP JUMPDEST SWAP1 DUP2 MSTORE PUSH1 0x20 ADD PUSH1 0x40 MLOAD DUP1 SWAP2 SUB SWAP1 KECCAK256 PUSH0 ADD PUSH1 0x40 MLOAD PUSH1 0x20 ADD PUSH2 0x884 SWAP2 SWAP1 PUSH2 0x27BA JUMP JUMPDEST PUSH1 0x40 MLOAD PUSH1 0x20 DUP2 DUP4 SUB SUB DUP2 MSTORE SWAP1 PUSH1 0x40 MSTORE DUP1 MLOAD SWAP1 PUSH1 0x20 ADD KECCAK256 EQ DUP1 PUSH2 0x906 JUMPI POP DUP4 PUSH1 0x1 PUSH1 0x3 DUP4 DUP2 SLOAD DUP2 LT PUSH2 0x8B8 JUMPI PUSH2 0x8B7 PUSH2 0x27D0 JUMP JUMPDEST JUMPDEST SWAP1 PUSH0 MSTORE PUSH1 0x20 PUSH0 KECCAK256 ADD PUSH1 0x40 MLOAD PUSH2 0x8CD SWAP2 SWAP1 PUSH2 0x27BA JUMP JUMPDEST SWAP1 DUP2 MSTORE PUSH1 0x20 ADD PUSH1 0x40 MLOAD DUP1 SWAP2 SUB SWAP1 KECCAK256 PUSH1 0x3 ADD PUSH1 0x40 MLOAD PUSH1 0x20 ADD PUSH2 0x8EE SWAP2 SWAP1 PUSH2 0x27BA JUMP JUMPDEST PUSH1 0x40 MLOAD PUSH1 0x20 DUP2 DUP4 SUB SUB DUP2 MSTORE SWAP1 PUSH1 0x40 MSTORE DUP1 MLOAD SWAP1 PUSH1 0x20 ADD KECCAK256 EQ JUMPDEST ISZERO PUSH2 0xADF JUMPI PUSH1 0x1 PUSH1 0x3 DUP3 DUP2 SLOAD DUP2 LT PUSH2 0x921 JUMPI PUSH2 0x920 PUSH2 0x27D0 JUMP JUMPDEST JUMPDEST SWAP1 PUSH0 MSTORE PUSH1 0x20 PUSH0 KECCAK256 ADD PUSH1 0x40 MLOAD PUSH2 0x936 SWAP2 SWAP1 PUSH2 0x27BA JUMP JUMPDEST SWAP1 DUP2 MSTORE PUSH1 0x20 ADD PUSH1 0x40 MLOAD DUP1 SWAP2 SUB SWAP1 KECCAK256 PUSH1 0x40 MLOAD DUP1 PUSH1 0x80 ADD PUSH1 0x40 MSTORE SWAP1 DUP2 PUSH0 DUP3 ADD DUP1 SLOAD PUSH2 0x95E SWAP1 PUSH2 0x21E9 JUMP JUMPDEST DUP1 PUSH1 0x1F ADD PUSH1 0x20 DUP1 SWAP2 DIV MUL PUSH1 0x20 ADD PUSH1 0x40 MLOAD SWAP1 DUP2 ADD PUSH1 0x40 MSTORE DUP1 SWAP3 SWAP2 SWAP1 DUP2 DUP2 MSTORE PUSH1 0x20 ADD DUP3 DUP1 SLOAD PUSH2 0x98A SWAP1 PUSH2 0x21E9 JUMP JUMPDEST DUP1 ISZERO PUSH2 0x9D5 JUMPI DUP1 PUSH1 0x1F LT PUSH2 0x9AC JUMPI PUSH2 0x100 DUP1 DUP4 SLOAD DIV MUL DUP4 MSTORE SWAP2 PUSH1 0x20 ADD SWAP2 PUSH2 0x9D5 JUMP JUMPDEST DUP3 ADD SWAP2 SWAP1 PUSH0 MSTORE PUSH1 0x20 PUSH0 KECCAK256 SWAP1 JUMPDEST DUP2 SLOAD DUP2 MSTORE SWAP1 PUSH1 0x1 ADD SWAP1 PUSH1 0x20 ADD DUP1 DUP4 GT PUSH2 0x9B8 JUMPI DUP3 SWAP1 SUB PUSH1 0x1F AND DUP3 ADD SWAP2 JUMPDEST POP POP POP POP POP DUP2 MSTORE PUSH1 0x20 ADD PUSH1 0x1 DUP3 ADD SLOAD DUP2 MSTORE PUSH1 0x20 ADD PUSH1 0x2 DUP3 ADD PUSH0 SWAP1 SLOAD SWAP1 PUSH2 0x100 EXP SWAP1 DIV PUSH1 0xFF AND PUSH1 0x1 DUP2 GT ISZERO PUSH2 0xA0C JUMPI PUSH2 0xA0B PUSH2 0x1E69 JUMP JUMPDEST JUMPDEST PUSH1 0x1 DUP2 GT ISZERO PUSH2 0xA1E JUMPI PUSH2 0xA1D PUSH2 0x1E69 JUMP JUMPDEST JUMPDEST DUP2 MSTORE PUSH1 0x20 ADD PUSH1 0x3 DUP3 ADD DUP1 SLOAD PUSH2 0xA32 SWAP1 PUSH2 0x21E9 JUMP JUMPDEST DUP1 PUSH1 0x1F ADD PUSH1 0x20 DUP1 SWAP2 DIV MUL PUSH1 0x20 ADD PUSH1 0x40 MLOAD SWAP1 DUP2 ADD PUSH1 0x40 MSTORE DUP1 SWAP3 SWAP2 SWAP1 DUP2 DUP2 MSTORE PUSH1 0x20 ADD DUP3 DUP1 SLOAD PUSH2 0xA5E SWAP1 PUSH2 0x21E9 JUMP JUMPDEST DUP1 ISZERO PUSH2 0xAA9 JUMPI DUP1 PUSH1 0x1F LT PUSH2 0xA80 JUMPI PUSH2 0x100 DUP1 DUP4 SLOAD DIV MUL DUP4 MSTORE SWAP2 PUSH1 0x20 ADD SWAP2 PUSH2 0xAA9 JUMP JUMPDEST DUP3 ADD SWAP2 SWAP1 PUSH0 MSTORE PUSH1 0x20 PUSH0 KECCAK256 SWAP1 JUMPDEST DUP2 SLOAD DUP2 MSTORE SWAP1 PUSH1 0x1 ADD SWAP1 PUSH1 0x20 ADD DUP1 DUP4 GT PUSH2 0xA8C JUMPI DUP3 SWAP1 SUB PUSH1 0x1F AND DUP3 ADD SWAP2 JUMPDEST POP POP POP POP POP DUP2 MSTORE POP POP DUP4 DUP4 DUP2 MLOAD DUP2 LT PUSH2 0xAC5 JUMPI PUSH2 0xAC4 PUSH2 0x27D0 JUMP JUMPDEST JUMPDEST PUSH1 0x20 MUL PUSH1 0x20 ADD ADD DUP2 SWAP1 MSTORE POP DUP2 DUP1 PUSH2 0xADB SWAP1 PUSH2 0x282A JUMP JUMPDEST SWAP3 POP POP JUMPDEST DUP1 DUP1 PUSH1 0x1 ADD SWAP2 POP POP PUSH2 0x82B JUMP JUMPDEST POP DUP2 SWAP5 POP POP POP POP POP SWAP1 JUMP JUMPDEST PUSH1 0x60 PUSH0 DUP1 PUSH0 CALLER PUSH20 0xFFFFFFFFFFFFFFFFFFFFFFFFFFFFFFFFFFFFFFFF AND PUSH20 0xFFFFFFFFFFFFFFFFFFFFFFFFFFFFFFFFFFFFFFFF AND DUP2 MSTORE PUSH1 0x20 ADD SWAP1 DUP2 MSTORE PUSH1 0x20 ADD PUSH0 KECCAK256 PUSH0 ADD DUP1 SLOAD PUSH2 0xB43 SWAP1 PUSH2 0x21E9 JUMP JUMPDEST SWAP1 POP GT PUSH2 0xB85 JUMPI PUSH1 0x40 MLOAD PUSH32 0x8C379A000000000000000000000000000000000000000000000000000000000 DUP2 MSTORE PUSH1 0x4 ADD PUSH2 0xB7C SWAP1 PUSH2 0x232B JUMP JUMPDEST PUSH1 0x40 MLOAD DUP1 SWAP2 SUB SWAP1 REVERT JUMPDEST PUSH1 0x1 DUP1 DUP2 GT ISZERO PUSH2 0xB98 JUMPI PUSH2 0xB97 PUSH2 0x1E69 JUMP JUMPDEST JUMPDEST PUSH0 DUP1 CALLER PUSH20 0xFFFFFFFFFFFFFFFFFFFFFFFFFFFFFFFFFFFFFFFF AND PUSH20 0xFFFFFFFFFFFFFFFFFFFFFFFFFFFFFFFFFFFFFFFF AND DUP2 MSTORE PUSH1 0x20 ADD SWAP1 DUP2 MSTORE PUSH1 0x20 ADD PUSH0 KECCAK256 PUSH1 0x1 ADD PUSH1 0x1 SWAP1 SLOAD SWAP1 PUSH2 0x100 EXP SWAP1 DIV PUSH1 0xFF AND PUSH1 0x1 DUP2 GT ISZERO PUSH2 0xBF7 JUMPI PUSH2 0xBF6 PUSH2 0x1E69 JUMP JUMPDEST JUMPDEST EQ PUSH2 0xC37 JUMPI PUSH1 0x40 MLOAD PUSH32 0x8C379A000000000000000000000000000000000000000000000000000000000 DUP2 MSTORE PUSH1 0x4 ADD PUSH2 0xC2E SWAP1 PUSH2 0x28BB JUMP JUMPDEST PUSH1 0x40 MLOAD DUP1 SWAP2 SUB SWAP1 REVERT JUMPDEST PUSH0 DUP1 PUSH1 0x3 DUP1 SLOAD SWAP1 POP SWAP1 POP PUSH0 JUMPDEST DUP2 DUP2 LT ISZERO PUSH2 0xCDA JUMPI DUP5 PUSH1 0x1 DUP2 GT ISZERO PUSH2 0xC5E JUMPI PUSH2 0xC5D PUSH2 0x1E69 JUMP JUMPDEST JUMPDEST PUSH1 0x1 PUSH1 0x3 DUP4 DUP2 SLOAD DUP2 LT PUSH2 0xC74 JUMPI PUSH2 0xC73 PUSH2 0x27D0 JUMP JUMPDEST JUMPDEST SWAP1 PUSH0 MSTORE PUSH1 0x20 PUSH0 KECCAK256 ADD PUSH1 0x40 MLOAD PUSH2 0xC89 SWAP2 SWAP1 PUSH2 0x27BA JUMP JUMPDEST SWAP1 DUP2 MSTORE PUSH1 0x20 ADD PUSH1 0x40 MLOAD DUP1 SWAP2 SUB SWAP1 KECCAK256 PUSH1 0x2 ADD PUSH0 SWAP1 SLOAD SWAP1 PUSH2 0x100 EXP SWAP1 DIV PUSH1 0xFF AND PUSH1 0x1 DUP2 GT ISZERO PUSH2 0xCB9 JUMPI PUSH2 0xCB8 PUSH2 0x1E69 JUMP JUMPDEST JUMPDEST SUB PUSH2 0xCCD JUMPI DUP3 DUP1 PUSH2 0xCC9 SWAP1 PUSH2 0x282A JUMP JUMPDEST SWAP4 POP POP JUMPDEST DUP1 DUP1 PUSH1 0x1 ADD SWAP2 POP POP PUSH2 0xC43 JUMP JUMPDEST POP PUSH0 DUP3 PUSH8 0xFFFFFFFFFFFFFFFF DUP2 GT ISZERO PUSH2 0xCF6 JUMPI PUSH2 0xCF5 PUSH2 0x2451 JUMP JUMPDEST JUMPDEST PUSH1 0x40 MLOAD SWAP1 DUP1 DUP3 MSTORE DUP1 PUSH1 0x20 MUL PUSH1 0x20 ADD DUP3 ADD PUSH1 0x40 MSTORE DUP1 ISZERO PUSH2 0xD2F JUMPI DUP2 PUSH1 0x20 ADD JUMPDEST PUSH2 0xD1C PUSH2 0x1C56 JUMP JUMPDEST DUP2 MSTORE PUSH1 0x20 ADD SWAP1 PUSH1 0x1 SWAP1 SUB SWAP1 DUP2 PUSH2 0xD14 JUMPI SWAP1 POP JUMPDEST POP SWAP1 POP PUSH0 DUP1 JUMPDEST DUP4 DUP2 LT ISZERO PUSH2 0xF91 JUMPI DUP7 PUSH1 0x1 DUP2 GT ISZERO PUSH2 0xD50 JUMPI PUSH2 0xD4F PUSH2 0x1E69 JUMP JUMPDEST JUMPDEST PUSH1 0x1 PUSH1 0x3 DUP4 DUP2 SLOAD DUP2 LT PUSH2 0xD66 JUMPI PUSH2 0xD65 PUSH2 0x27D0 JUMP JUMPDEST JUMPDEST SWAP1 PUSH0 MSTORE PUSH1 0x20 PUSH0 KECCAK256 ADD PUSH1 0x40 MLOAD PUSH2 0xD7B SWAP2 SWAP1 PUSH2 0x27BA JUMP JUMPDEST SWAP1 DUP2 MSTORE PUSH1 0x20 ADD PUSH1 0x40 MLOAD DUP1 SWAP2 SUB SWAP1 KECCAK256 PUSH1 0x2 ADD PUSH0 SWAP1 SLOAD SWAP1 PUSH2 0x100 EXP SWAP1 DIV PUSH1 0xFF AND PUSH1 0x1 DUP2 GT ISZERO PUSH2 0xDAB JUMPI PUSH2 0xDAA PUSH2 0x1E69 JUMP JUMPDEST JUMPDEST SUB PUSH2 0xF84 JUMPI PUSH1 0x1 PUSH1 0x3 DUP3 DUP2 SLOAD DUP2 LT PUSH2 0xDC6 JUMPI PUSH2 0xDC5 PUSH2 0x27D0 JUMP JUMPDEST JUMPDEST SWAP1 PUSH0 MSTORE PUSH1 0x20 PUSH0 KECCAK256 ADD PUSH1 0x40 MLOAD PUSH2 0xDDB SWAP2 SWAP1 PUSH2 0x27BA JUMP JUMPDEST SWAP1 DUP2 MSTORE PUSH1 0x20 ADD PUSH1 0x40 MLOAD DUP1 SWAP2 SUB SWAP1 KECCAK256 PUSH1 0x40 MLOAD DUP1 PUSH1 0x80 ADD PUSH1 0x40 MSTORE SWAP1 DUP2 PUSH0 DUP3 ADD DUP1 SLOAD PUSH2 0xE03 SWAP1 PUSH2 0x21E9 JUMP JUMPDEST DUP1 PUSH1 0x1F ADD PUSH1 0x20 DUP1 SWAP2 DIV MUL PUSH1 0x20 ADD PUSH1 0x40 MLOAD SWAP1 DUP2 ADD PUSH1 0x40 MSTORE DUP1 SWAP3 SWAP2 SWAP1 DUP2 DUP2 MSTORE PUSH1 0x20 ADD DUP3 DUP1 SLOAD PUSH2 0xE2F SWAP1 PUSH2 0x21E9 JUMP JUMPDEST DUP1 ISZERO PUSH2 0xE7A JUMPI DUP1 PUSH1 0x1F LT PUSH2 0xE51 JUMPI PUSH2 0x100 DUP1 DUP4 SLOAD DIV MUL DUP4 MSTORE SWAP2 PUSH1 0x20 ADD SWAP2 PUSH2 0xE7A JUMP JUMPDEST DUP3 ADD SWAP2 SWAP1 PUSH0 MSTORE PUSH1 0x20 PUSH0 KECCAK256 SWAP1 JUMPDEST DUP2 SLOAD DUP2 MSTORE SWAP1 PUSH1 0x1 ADD SWAP1 PUSH1 0x20 ADD DUP1 DUP4 GT PUSH2 0xE5D JUMPI DUP3 SWAP1 SUB PUSH1 0x1F AND DUP3 ADD SWAP2 JUMPDEST POP POP POP POP POP DUP2 MSTORE PUSH1 0x20 ADD PUSH1 0x1 DUP3 ADD SLOAD DUP2 MSTORE PUSH1 0x20 ADD PUSH1 0x2 DUP3 ADD PUSH0 SWAP1 SLOAD SWAP1 PUSH2 0x100 EXP SWAP1 DIV PUSH1 0xFF AND PUSH1 0x1 DUP2 GT ISZERO PUSH2 0xEB1 JUMPI PUSH2 0xEB0 PUSH2 0x1E69 JUMP JUMPDEST JUMPDEST PUSH1 0x1 DUP2 GT ISZERO PUSH2 0xEC3 JUMPI PUSH2 0xEC2 PUSH2 0x1E69 JUMP JUMPDEST JUMPDEST DUP2 MSTORE PUSH1 0x20 ADD PUSH1 0x3 DUP3 ADD DUP1 SLOAD PUSH2 0xED7 SWAP1 PUSH2 0x21E9 JUMP JUMPDEST DUP1 PUSH1 0x1F ADD PUSH1 0x20 DUP1 SWAP2 DIV MUL PUSH1 0x20 ADD PUSH1 0x40 MLOAD SWAP1 DUP2 ADD PUSH1 0x40 MSTORE DUP1 SWAP3 SWAP2 SWAP1 DUP2 DUP2 MSTORE PUSH1 0x20 ADD DUP3 DUP1 SLOAD PUSH2 0xF03 SWAP1 PUSH2 0x21E9 JUMP JUMPDEST DUP1 ISZERO PUSH2 0xF4E JUMPI DUP1 PUSH1 0x1F LT PUSH2 0xF25 JUMPI PUSH2 0x100 DUP1 DUP4 SLOAD DIV MUL DUP4 MSTORE SWAP2 PUSH1 0x20 ADD SWAP2 PUSH2 0xF4E JUMP JUMPDEST DUP3 ADD SWAP2 SWAP1 PUSH0 MSTORE PUSH1 0x20 PUSH0 KECCAK256 SWAP1 JUMPDEST DUP2 SLOAD DUP2 MSTORE SWAP1 PUSH1 0x1 ADD SWAP1 PUSH1 0x20 ADD DUP1 DUP4 GT PUSH2 0xF31 JUMPI DUP3 SWAP1 SUB PUSH1 0x1F AND DUP3 ADD SWAP2 JUMPDEST POP POP POP POP POP DUP2 MSTORE POP POP DUP4 DUP4 DUP2 MLOAD DUP2 LT PUSH2 0xF6A JUMPI PUSH2 0xF69 PUSH2 0x27D0 JUMP JUMPDEST JUMPDEST PUSH1 0x20 MUL PUSH1 0x20 ADD ADD DUP2 SWAP1 MSTORE POP DUP2 DUP1 PUSH2 0xF80 SWAP1 PUSH2 0x282A JUMP JUMPDEST SWAP3 POP POP JUMPDEST DUP1 DUP1 PUSH1 0x1 ADD SWAP2 POP POP PUSH2 0xD35 JUMP JUMPDEST POP DUP2 SWAP5 POP POP POP POP POP SWAP2 SWAP1 POP JUMP JUMPDEST PUSH1 0x4 CALLER SWAP1 DUP1 PUSH1 0x1 DUP2 SLOAD ADD DUP1 DUP3 SSTORE DUP1 SWAP2 POP POP PUSH1 0x1 SWAP1 SUB SWAP1 PUSH0 MSTORE PUSH1 0x20 PUSH0 KECCAK256 ADD PUSH0 SWAP1 SWAP2 SWAP1 SWAP2 SWAP1 SWAP2 PUSH2 0x100 EXP DUP2 SLOAD DUP2 PUSH20 0xFFFFFFFFFFFFFFFFFFFFFFFFFFFFFFFFFFFFFFFF MUL NOT AND SWAP1 DUP4 PUSH20 0xFFFFFFFFFFFFFFFFFFFFFFFFFFFFFFFFFFFFFFFF AND MUL OR SWAP1 SSTORE POP PUSH1 0x40 MLOAD DUP1 PUSH1 0x60 ADD PUSH1 0x40 MSTORE DUP1 DUP5 DUP5 DUP1 DUP1 PUSH1 0x1F ADD PUSH1 0x20 DUP1 SWAP2 DIV MUL PUSH1 0x20 ADD PUSH1 0x40 MLOAD SWAP1 DUP2 ADD PUSH1 0x40 MSTORE DUP1 SWAP4 SWAP3 SWAP2 SWAP1 DUP2 DUP2 MSTORE PUSH1 0x20 ADD DUP4 DUP4 DUP1 DUP3 DUP5 CALLDATACOPY PUSH0 DUP2 DUP5 ADD MSTORE PUSH1 0x1F NOT PUSH1 0x1F DUP3 ADD AND SWAP1 POP DUP1 DUP4 ADD SWAP3 POP POP POP POP POP POP POP DUP2 MSTORE PUSH1 0x20 ADD DUP3 PUSH1 0x1 DUP2 GT ISZERO PUSH2 0x1065 JUMPI PUSH2 0x1064 PUSH2 0x1E69 JUMP JUMPDEST JUMPDEST DUP2 MSTORE PUSH1 0x20 ADD PUSH0 PUSH1 0x1 DUP2 GT ISZERO PUSH2 0x107D JUMPI PUSH2 0x107C PUSH2 0x1E69 JUMP JUMPDEST JUMPDEST DUP2 MSTORE POP PUSH0 DUP1 CALLER PUSH20 0xFFFFFFFFFFFFFFFFFFFFFFFFFFFFFFFFFFFFFFFF AND PUSH20 0xFFFFFFFFFFFFFFFFFFFFFFFFFFFFFFFFFFFFFFFF AND DUP2 MSTORE PUSH1 0x20 ADD SWAP1 DUP2 MSTORE PUSH1 0x20 ADD PUSH0 KECCAK256 PUSH0 DUP3 ADD MLOAD DUP2 PUSH0 ADD SWAP1 DUP2 PUSH2 0x10CF SWAP2 SWAP1 PUSH2 0x28D9 JUMP JUMPDEST POP PUSH1 0x20 DUP3 ADD MLOAD DUP2 PUSH1 0x1 ADD PUSH0 PUSH2 0x100 EXP DUP2 SLOAD DUP2 PUSH1 0xFF MUL NOT AND SWAP1 DUP4 PUSH1 0x1 DUP2 GT ISZERO PUSH2 0x10FA JUMPI PUSH2 0x10F9 PUSH2 0x1E69 JUMP JUMPDEST JUMPDEST MUL OR SWAP1 SSTORE POP PUSH1 0x40 DUP3 ADD MLOAD DUP2 PUSH1 0x1 ADD PUSH1 0x1 PUSH2 0x100 EXP DUP2 SLOAD DUP2 PUSH1 0xFF MUL NOT AND SWAP1 DUP4 PUSH1 0x1 DUP2 GT ISZERO PUSH2 0x112A JUMPI PUSH2 0x1129 PUSH2 0x1E69 JUMP JUMPDEST JUMPDEST MUL OR SWAP1 SSTORE POP SWAP1 POP POP POP POP POP JUMP JUMPDEST PUSH0 DUP1 PUSH0 CALLER PUSH20 0xFFFFFFFFFFFFFFFFFFFFFFFFFFFFFFFFFFFFFFFF AND PUSH20 0xFFFFFFFFFFFFFFFFFFFFFFFFFFFFFFFFFFFFFFFF AND DUP2 MSTORE PUSH1 0x20 ADD SWAP1 DUP2 MSTORE PUSH1 0x20 ADD PUSH0 KECCAK256 PUSH0 ADD DUP1 SLOAD PUSH2 0x1181 SWAP1 PUSH2 0x21E9 JUMP JUMPDEST SWAP1 POP GT PUSH2 0x11C3 JUMPI PUSH1 0x40 MLOAD PUSH32 0x8C379A000000000000000000000000000000000000000000000000000000000 DUP2 MSTORE PUSH1 0x4 ADD PUSH2 0x11BA SWAP1 PUSH2 0x232B JUMP JUMPDEST PUSH1 0x40 MLOAD DUP1 SWAP2 SUB SWAP1 REVERT JUMPDEST PUSH0 PUSH1 0x64 PUSH1 0x5A CALLVALUE PUSH2 0x11D3 SWAP2 SWAP1 PUSH2 0x29A8 JUMP JUMPDEST PUSH2 0x11DD SWAP2 SWAP1 PUSH2 0x2A16 JUMP JUMPDEST SWAP1 POP PUSH0 PUSH2 0x11E8 PUSH2 0x189F JUMP JUMPDEST SWAP1 POP PUSH2 0x11F4 DUP2 DUP4 PUSH2 0x197C JUMP JUMPDEST PUSH32 0x19446F6741ECA6D71B8406898C4308B5F1B9844F9F1EA7614B48264E453B9BD2 DUP2 DUP4 PUSH1 0x40 MLOAD PUSH2 0x1225 SWAP3 SWAP2 SWAP1 PUSH2 0x2A7E JUMP JUMPDEST PUSH1 0x40 MLOAD DUP1 SWAP2 SUB SWAP1 LOG1 POP POP JUMP JUMPDEST PUSH1 0x60 PUSH0 DUP1 PUSH0 CALLER PUSH20 0xFFFFFFFFFFFFFFFFFFFFFFFFFFFFFFFFFFFFFFFF AND PUSH20 0xFFFFFFFFFFFFFFFFFFFFFFFFFFFFFFFFFFFFFFFF AND DUP2 MSTORE PUSH1 0x20 ADD SWAP1 DUP2 MSTORE PUSH1 0x20 ADD PUSH0 KECCAK256 PUSH0 ADD DUP1 SLOAD PUSH2 0x127D SWAP1 PUSH2 0x21E9 JUMP JUMPDEST SWAP1 POP GT PUSH2 0x12BF JUMPI PUSH1 0x40 MLOAD PUSH32 0x8C379A000000000000000000000000000000000000000000000000000000000 DUP2 MSTORE PUSH1 0x4 ADD PUSH2 0x12B6 SWAP1 PUSH2 0x232B JUMP JUMPDEST PUSH1 0x40 MLOAD DUP1 SWAP2 SUB SWAP1 REVERT JUMPDEST PUSH1 0x1 DUP1 DUP2 GT ISZERO PUSH2 0x12D2 JUMPI PUSH2 0x12D1 PUSH2 0x1E69 JUMP JUMPDEST JUMPDEST PUSH0 DUP1 CALLER PUSH20 0xFFFFFFFFFFFFFFFFFFFFFFFFFFFFFFFFFFFFFFFF AND PUSH20 0xFFFFFFFFFFFFFFFFFFFFFFFFFFFFFFFFFFFFFFFF AND DUP2 MSTORE PUSH1 0x20 ADD SWAP1 DUP2 MSTORE PUSH1 0x20 ADD PUSH0 KECCAK256 PUSH1 0x1 ADD PUSH1 0x1 SWAP1 SLOAD SWAP1 PUSH2 0x100 EXP SWAP1 DIV PUSH1 0xFF AND PUSH1 0x1 DUP2 GT ISZERO PUSH2 0x1331 JUMPI PUSH2 0x1330 PUSH2 0x1E69 JUMP JUMPDEST JUMPDEST EQ PUSH2 0x1371 JUMPI PUSH1 0x40 MLOAD PUSH32 0x8C379A000000000000000000000000000000000000000000000000000000000 DUP2 MSTORE PUSH1 0x4 ADD PUSH2 0x1368 SWAP1 PUSH2 0x28BB JUMP JUMPDEST PUSH1 0x40 MLOAD DUP1 SWAP2 SUB SWAP1 REVERT JUMPDEST PUSH0 PUSH1 0x3 DUP1 SLOAD SWAP1 POP SWAP1 POP PUSH0 DUP2 PUSH8 0xFFFFFFFFFFFFFFFF DUP2 GT ISZERO PUSH2 0x1395 JUMPI PUSH2 0x1394 PUSH2 0x2451 JUMP JUMPDEST JUMPDEST PUSH1 0x40 MLOAD SWAP1 DUP1 DUP3 MSTORE DUP1 PUSH1 0x20 MUL PUSH1 0x20 ADD DUP3 ADD PUSH1 0x40 MSTORE DUP1 ISZERO PUSH2 0x13CE JUMPI DUP2 PUSH1 0x20 ADD JUMPDEST PUSH2 0x13BB PUSH2 0x1C56 JUMP JUMPDEST DUP2 MSTORE PUSH1 0x20 ADD SWAP1 PUSH1 0x1 SWAP1 SUB SWAP1 DUP2 PUSH2 0x13B3 JUMPI SWAP1 POP JUMPDEST POP SWAP1 POP PUSH0 JUMPDEST DUP3 DUP2 LT ISZERO PUSH2 0x15AD JUMPI PUSH1 0x1 PUSH1 0x3 DUP3 DUP2 SLOAD DUP2 LT PUSH2 0x13F1 JUMPI PUSH2 0x13F0 PUSH2 0x27D0 JUMP JUMPDEST JUMPDEST SWAP1 PUSH0 MSTORE PUSH1 0x20 PUSH0 KECCAK256 ADD PUSH1 0x40 MLOAD PUSH2 0x1406 SWAP2 SWAP1 PUSH2 0x27BA JUMP JUMPDEST SWAP1 DUP2 MSTORE PUSH1 0x20 ADD PUSH1 0x40 MLOAD DUP1 SWAP2 SUB SWAP1 KECCAK256 PUSH1 0x40 MLOAD DUP1 PUSH1 0x80 ADD PUSH1 0x40 MSTORE SWAP1 DUP2 PUSH0 DUP3 ADD DUP1 SLOAD PUSH2 0x142E SWAP1 PUSH2 0x21E9 JUMP JUMPDEST DUP1 PUSH1 0x1F ADD PUSH1 0x20 DUP1 SWAP2 DIV MUL PUSH1 0x20 ADD PUSH1 0x40 MLOAD SWAP1 DUP2 ADD PUSH1 0x40 MSTORE DUP1 SWAP3 SWAP2 SWAP1 DUP2 DUP2 MSTORE PUSH1 0x20 ADD DUP3 DUP1 SLOAD PUSH2 0x145A SWAP1 PUSH2 0x21E9 JUMP JUMPDEST DUP1 ISZERO PUSH2 0x14A5 JUMPI DUP1 PUSH1 0x1F LT PUSH2 0x147C JUMPI PUSH2 0x100 DUP1 DUP4 SLOAD DIV MUL DUP4 MSTORE SWAP2 PUSH1 0x20 ADD SWAP2 PUSH2 0x14A5 JUMP JUMPDEST DUP3 ADD SWAP2 SWAP1 PUSH0 MSTORE PUSH1 0x20 PUSH0 KECCAK256 SWAP1 JUMPDEST DUP2 SLOAD DUP2 MSTORE SWAP1 PUSH1 0x1 ADD SWAP1 PUSH1 0x20 ADD DUP1 DUP4 GT PUSH2 0x1488 JUMPI DUP3 SWAP1 SUB PUSH1 0x1F AND DUP3 ADD SWAP2 JUMPDEST POP POP POP POP POP DUP2 MSTORE PUSH1 0x20 ADD PUSH1 0x1 DUP3 ADD SLOAD DUP2 MSTORE PUSH1 0x20 ADD PUSH1 0x2 DUP3 ADD PUSH0 SWAP1 SLOAD SWAP1 PUSH2 0x100 EXP SWAP1 DIV PUSH1 0xFF AND PUSH1 0x1 DUP2 GT ISZERO PUSH2 0x14DC JUMPI PUSH2 0x14DB PUSH2 0x1E69 JUMP JUMPDEST JUMPDEST PUSH1 0x1 DUP2 GT ISZERO PUSH2 0x14EE JUMPI PUSH2 0x14ED PUSH2 0x1E69 JUMP JUMPDEST JUMPDEST DUP2 MSTORE PUSH1 0x20 ADD PUSH1 0x3 DUP3 ADD DUP1 SLOAD PUSH2 0x1502 SWAP1 PUSH2 0x21E9 JUMP JUMPDEST DUP1 PUSH1 0x1F ADD PUSH1 0x20 DUP1 SWAP2 DIV MUL PUSH1 0x20 ADD PUSH1 0x40 MLOAD SWAP1 DUP2 ADD PUSH1 0x40 MSTORE DUP1 SWAP3 SWAP2 SWAP1 DUP2 DUP2 MSTORE PUSH1 0x20 ADD DUP3 DUP1 SLOAD PUSH2 0x152E SWAP1 PUSH2 0x21E9 JUMP JUMPDEST DUP1 ISZERO PUSH2 0x1579 JUMPI DUP1 PUSH1 0x1F LT PUSH2 0x1550 JUMPI PUSH2 0x100 DUP1 DUP4 SLOAD DIV MUL DUP4 MSTORE SWAP2 PUSH1 0x20 ADD SWAP2 PUSH2 0x1579 JUMP JUMPDEST DUP3 ADD SWAP2 SWAP1 PUSH0 MSTORE PUSH1 0x20 PUSH0 KECCAK256 SWAP1 JUMPDEST DUP2 SLOAD DUP2 MSTORE SWAP1 PUSH1 0x1 ADD SWAP1 PUSH1 0x20 ADD DUP1 DUP4 GT PUSH2 0x155C JUMPI DUP3 SWAP1 SUB PUSH1 0x1F AND DUP3 ADD SWAP2 JUMPDEST POP POP POP POP POP DUP2 MSTORE POP POP DUP3 DUP3 DUP2 MLOAD DUP2 LT PUSH2 0x1595 JUMPI PUSH2 0x1594 PUSH2 0x27D0 JUMP JUMPDEST JUMPDEST PUSH1 0x20 MUL PUSH1 0x20 ADD ADD DUP2 SWAP1 MSTORE POP DUP1 DUP1 PUSH1 0x1 ADD SWAP2 POP POP PUSH2 0x13D3 JUMP JUMPDEST POP DUP1 SWAP3 POP POP POP SWAP1 JUMP JUMPDEST PUSH0 DUP1 PUSH0 DUP1 CALLER PUSH20 0xFFFFFFFFFFFFFFFFFFFFFFFFFFFFFFFFFFFFFFFF AND PUSH20 0xFFFFFFFFFFFFFFFFFFFFFFFFFFFFFFFFFFFFFFFF AND DUP2 MSTORE PUSH1 0x20 ADD SWAP1 DUP2 MSTORE PUSH1 0x20 ADD PUSH0 KECCAK256 PUSH0 ADD DUP1 SLOAD PUSH2 0x1601 SWAP1 PUSH2 0x21E9 JUMP JUMPDEST SWAP1 POP GT PUSH2 0x1643 JUMPI PUSH1 0x40 MLOAD PUSH32 0x8C379A000000000000000000000000000000000000000000000000000000000 DUP2 MSTORE PUSH1 0x4 ADD PUSH2 0x163A SWAP1 PUSH2 0x232B JUMP JUMPDEST PUSH1 0x40 MLOAD DUP1 SWAP2 SUB SWAP1 REVERT JUMPDEST PUSH1 0x1 DUP1 DUP2 GT ISZERO PUSH2 0x1656 JUMPI PUSH2 0x1655 PUSH2 0x1E69 JUMP JUMPDEST JUMPDEST PUSH0 DUP1 CALLER PUSH20 0xFFFFFFFFFFFFFFFFFFFFFFFFFFFFFFFFFFFFFFFF AND PUSH20 0xFFFFFFFFFFFFFFFFFFFFFFFFFFFFFFFFFFFFFFFF AND DUP2 MSTORE PUSH1 0x20 ADD SWAP1 DUP2 MSTORE PUSH1 0x20 ADD PUSH0 KECCAK256 PUSH1 0x1 ADD PUSH1 0x1 SWAP1 SLOAD SWAP1 PUSH2 0x100 EXP SWAP1 DIV PUSH1 0xFF AND PUSH1 0x1 DUP2 GT ISZERO PUSH2 0x16B5 JUMPI PUSH2 0x16B4 PUSH2 0x1E69 JUMP JUMPDEST JUMPDEST EQ SWAP1 POP SWAP1 JUMP JUMPDEST PUSH2 0x16C3 PUSH2 0x1C8E JUMP JUMPDEST PUSH0 DUP1 PUSH0 CALLER PUSH20 0xFFFFFFFFFFFFFFFFFFFFFFFFFFFFFFFFFFFFFFFF AND PUSH20 0xFFFFFFFFFFFFFFFFFFFFFFFFFFFFFFFFFFFFFFFF AND DUP2 MSTORE PUSH1 0x20 ADD SWAP1 DUP2 MSTORE PUSH1 0x20 ADD PUSH0 KECCAK256 PUSH0 ADD DUP1 SLOAD PUSH2 0x170D SWAP1 PUSH2 0x21E9 JUMP JUMPDEST SWAP1 POP GT PUSH2 0x174F JUMPI PUSH1 0x40 MLOAD PUSH32 0x8C379A000000000000000000000000000000000000000000000000000000000 DUP2 MSTORE PUSH1 0x4 ADD PUSH2 0x1746 SWAP1 PUSH2 0x232B JUMP JUMPDEST PUSH1 0x40 MLOAD DUP1 SWAP2 SUB SWAP1 REVERT JUMPDEST PUSH0 DUP1 CALLER PUSH20 0xFFFFFFFFFFFFFFFFFFFFFFFFFFFFFFFFFFFFFFFF AND PUSH20 0xFFFFFFFFFFFFFFFFFFFFFFFFFFFFFFFFFFFFFFFF AND DUP2 MSTORE PUSH1 0x20 ADD SWAP1 DUP2 MSTORE PUSH1 0x20 ADD PUSH0 KECCAK256 PUSH1 0x40 MLOAD DUP1 PUSH1 0x60 ADD PUSH1 0x40 MSTORE SWAP1 DUP2 PUSH0 DUP3 ADD DUP1 SLOAD PUSH2 0x17A5 SWAP1 PUSH2 0x21E9 JUMP JUMPDEST DUP1 PUSH1 0x1F ADD PUSH1 0x20 DUP1 SWAP2 DIV MUL PUSH1 0x20 ADD PUSH1 0x40 MLOAD SWAP1 DUP2 ADD PUSH1 0x40 MSTORE DUP1 SWAP3 SWAP2 SWAP1 DUP2 DUP2 MSTORE PUSH1 0x20 ADD DUP3 DUP1 SLOAD PUSH2 0x17D1 SWAP1 PUSH2 0x21E9 JUMP JUMPDEST DUP1 ISZERO PUSH2 0x181C JUMPI DUP1 PUSH1 0x1F LT PUSH2 0x17F3 JUMPI PUSH2 0x100 DUP1 DUP4 SLOAD DIV MUL DUP4 MSTORE SWAP2 PUSH1 0x20 ADD SWAP2 PUSH2 0x181C JUMP JUMPDEST DUP3 ADD SWAP2 SWAP1 PUSH0 MSTORE PUSH1 0x20 PUSH0 KECCAK256 SWAP1 JUMPDEST DUP2 SLOAD DUP2 MSTORE SWAP1 PUSH1 0x1 ADD SWAP1 PUSH1 0x20 ADD DUP1 DUP4 GT PUSH2 0x17FF JUMPI DUP3 SWAP1 SUB PUSH1 0x1F AND DUP3 ADD SWAP2 JUMPDEST POP POP POP POP POP DUP2 MSTORE PUSH1 0x20 ADD PUSH1 0x1 DUP3 ADD PUSH0 SWAP1 SLOAD SWAP1 PUSH2 0x100 EXP SWAP1 DIV PUSH1 0xFF AND PUSH1 0x1 DUP2 GT ISZERO PUSH2 0x1849 JUMPI PUSH2 0x1848 PUSH2 0x1E69 JUMP JUMPDEST JUMPDEST PUSH1 0x1 DUP2 GT ISZERO PUSH2 0x185B JUMPI PUSH2 0x185A PUSH2 0x1E69 JUMP JUMPDEST JUMPDEST DUP2 MSTORE PUSH1 0x20 ADD PUSH1 0x1 DUP3 ADD PUSH1 0x1 SWAP1 SLOAD SWAP1 PUSH2 0x100 EXP SWAP1 DIV PUSH1 0xFF AND PUSH1 0x1 DUP2 GT ISZERO PUSH2 0x1884 JUMPI PUSH2 0x1883 PUSH2 0x1E69 JUMP JUMPDEST JUMPDEST PUSH1 0x1 DUP2 GT ISZERO PUSH2 0x1896 JUMPI PUSH2 0x1895 PUSH2 0x1E69 JUMP JUMPDEST JUMPDEST DUP2 MSTORE POP POP SWAP1 POP SWAP1 JUMP JUMPDEST PUSH1 0x60 PUSH0 PUSH1 0xF PUSH8 0xFFFFFFFFFFFFFFFF DUP2 GT ISZERO PUSH2 0x18BD JUMPI PUSH2 0x18BC PUSH2 0x2451 JUMP JUMPDEST JUMPDEST PUSH1 0x40 MLOAD SWAP1 DUP1 DUP3 MSTORE DUP1 PUSH1 0x1F ADD PUSH1 0x1F NOT AND PUSH1 0x20 ADD DUP3 ADD PUSH1 0x40 MSTORE DUP1 ISZERO PUSH2 0x18EF JUMPI DUP2 PUSH1 0x20 ADD PUSH1 0x1 DUP3 MUL DUP1 CALLDATASIZE DUP4 CALLDATACOPY DUP1 DUP3 ADD SWAP2 POP POP SWAP1 POP JUMPDEST POP SWAP1 POP PUSH0 JUMPDEST PUSH1 0xF DUP2 LT ISZERO PUSH2 0x1974 JUMPI PUSH0 PUSH2 0x1907 DUP3 PUSH2 0x1C14 JUMP JUMPDEST SWAP1 POP PUSH1 0x1A DUP2 PUSH2 0x1916 SWAP2 SWAP1 PUSH2 0x2AAC JUMP JUMPDEST PUSH1 0x61 PUSH2 0x1922 SWAP2 SWAP1 PUSH2 0x2ADC JUMP JUMPDEST PUSH1 0xF8 SHL DUP4 DUP4 DUP2 MLOAD DUP2 LT PUSH2 0x1938 JUMPI PUSH2 0x1937 PUSH2 0x27D0 JUMP JUMPDEST JUMPDEST PUSH1 0x20 ADD ADD SWAP1 PUSH31 0xFFFFFFFFFFFFFFFFFFFFFFFFFFFFFFFFFFFFFFFFFFFFFFFFFFFFFFFFFFFFFF NOT AND SWAP1 DUP2 PUSH0 BYTE SWAP1 MSTORE8 POP POP DUP1 DUP1 PUSH1 0x1 ADD SWAP2 POP POP PUSH2 0x18F4 JUMP JUMPDEST POP DUP1 SWAP2 POP POP SWAP1 JUMP JUMPDEST DUP2 PUSH0 DUP1 JUMPDEST PUSH1 0x3 DUP1 SLOAD SWAP1 POP DUP2 LT ISZERO PUSH2 0x1A11 JUMPI DUP3 PUSH1 0x40 MLOAD PUSH1 0x20 ADD PUSH2 0x199E SWAP2 SWAP1 PUSH2 0x2253 JUMP JUMPDEST PUSH1 0x40 MLOAD PUSH1 0x20 DUP2 DUP4 SUB SUB DUP2 MSTORE SWAP1 PUSH1 0x40 MSTORE DUP1 MLOAD SWAP1 PUSH1 0x20 ADD KECCAK256 PUSH1 0x3 DUP3 DUP2 SLOAD DUP2 LT PUSH2 0x19C8 JUMPI PUSH2 0x19C7 PUSH2 0x27D0 JUMP JUMPDEST JUMPDEST SWAP1 PUSH0 MSTORE PUSH1 0x20 PUSH0 KECCAK256 ADD PUSH1 0x40 MLOAD PUSH1 0x20 ADD PUSH2 0x19E0 SWAP2 SWAP1 PUSH2 0x27BA JUMP JUMPDEST PUSH1 0x40 MLOAD PUSH1 0x20 DUP2 DUP4 SUB SUB DUP2 MSTORE SWAP1 PUSH1 0x40 MSTORE DUP1 MLOAD SWAP1 PUSH1 0x20 ADD KECCAK256 SUB PUSH2 0x1A04 JUMPI PUSH1 0x1 SWAP2 POP PUSH2 0x1A11 JUMP JUMPDEST DUP1 DUP1 PUSH1 0x1 ADD SWAP2 POP POP PUSH2 0x1980 JUMP JUMPDEST POP DUP1 ISZERO PUSH2 0x1A53 JUMPI PUSH1 0x40 MLOAD PUSH32 0x8C379A000000000000000000000000000000000000000000000000000000000 DUP2 MSTORE PUSH1 0x4 ADD PUSH2 0x1A4A SWAP1 PUSH2 0x2B59 JUMP JUMPDEST PUSH1 0x40 MLOAD DUP1 SWAP2 SUB SWAP1 REVERT JUMPDEST PUSH1 0x3 DUP5 SWAP1 DUP1 PUSH1 0x1 DUP2 SLOAD ADD DUP1 DUP3 SSTORE DUP1 SWAP2 POP POP PUSH1 0x1 SWAP1 SUB SWAP1 PUSH0 MSTORE PUSH1 0x20 PUSH0 KECCAK256 ADD PUSH0 SWAP1 SWAP2 SWAP1 SWAP2 SWAP1 SWAP2 POP SWAP1 DUP2 PUSH2 0x1A84 SWAP2 SWAP1 PUSH2 0x28D9 JUMP JUMPDEST POP PUSH1 0x40 MLOAD DUP1 PUSH1 0x80 ADD PUSH1 0x40 MSTORE DUP1 PUSH0 DUP1 CALLER PUSH20 0xFFFFFFFFFFFFFFFFFFFFFFFFFFFFFFFFFFFFFFFF AND PUSH20 0xFFFFFFFFFFFFFFFFFFFFFFFFFFFFFFFFFFFFFFFF AND DUP2 MSTORE PUSH1 0x20 ADD SWAP1 DUP2 MSTORE PUSH1 0x20 ADD PUSH0 KECCAK256 PUSH0 ADD DUP1 SLOAD PUSH2 0x1AD9 SWAP1 PUSH2 0x21E9 JUMP JUMPDEST DUP1 PUSH1 0x1F ADD PUSH1 0x20 DUP1 SWAP2 DIV MUL PUSH1 0x20 ADD PUSH1 0x40 MLOAD SWAP1 DUP2 ADD PUSH1 0x40 MSTORE DUP1 SWAP3 SWAP2 SWAP1 DUP2 DUP2 MSTORE PUSH1 0x20 ADD DUP3 DUP1 SLOAD PUSH2 0x1B05 SWAP1 PUSH2 0x21E9 JUMP JUMPDEST DUP1 ISZERO PUSH2 0x1B50 JUMPI DUP1 PUSH1 0x1F LT PUSH2 0x1B27 JUMPI PUSH2 0x100 DUP1 DUP4 SLOAD DIV MUL DUP4 MSTORE SWAP2 PUSH1 0x20 ADD SWAP2 PUSH2 0x1B50 JUMP JUMPDEST DUP3 ADD SWAP2 SWAP1 PUSH0 MSTORE PUSH1 0x20 PUSH0 KECCAK256 SWAP1 JUMPDEST DUP2 SLOAD DUP2 MSTORE SWAP1 PUSH1 0x1 ADD SWAP1 PUSH1 0x20 ADD DUP1 DUP4 GT PUSH2 0x1B33 JUMPI DUP3 SWAP1 SUB PUSH1 0x1F AND DUP3 ADD SWAP2 JUMPDEST POP POP POP POP POP DUP2 MSTORE PUSH1 0x20 ADD DUP5 DUP2 MSTORE PUSH1 0x20 ADD PUSH1 0x1 DUP1 DUP2 GT ISZERO PUSH2 0x1B73 JUMPI PUSH2 0x1B72 PUSH2 0x1E69 JUMP JUMPDEST JUMPDEST DUP2 MSTORE PUSH1 0x20 ADD PUSH1 0x40 MLOAD DUP1 PUSH1 0x20 ADD PUSH1 0x40 MSTORE DUP1 PUSH0 DUP2 MSTORE POP DUP2 MSTORE POP PUSH1 0x1 DUP6 PUSH1 0x40 MLOAD PUSH2 0x1B9A SWAP2 SWAP1 PUSH2 0x2253 JUMP JUMPDEST SWAP1 DUP2 MSTORE PUSH1 0x20 ADD PUSH1 0x40 MLOAD DUP1 SWAP2 SUB SWAP1 KECCAK256 PUSH0 DUP3 ADD MLOAD DUP2 PUSH0 ADD SWAP1 DUP2 PUSH2 0x1BBB SWAP2 SWAP1 PUSH2 0x28D9 JUMP JUMPDEST POP PUSH1 0x20 DUP3 ADD MLOAD DUP2 PUSH1 0x1 ADD SSTORE PUSH1 0x40 DUP3 ADD MLOAD DUP2 PUSH1 0x2 ADD PUSH0 PUSH2 0x100 EXP DUP2 SLOAD DUP2 PUSH1 0xFF MUL NOT AND SWAP1 DUP4 PUSH1 0x1 DUP2 GT ISZERO PUSH2 0x1BF0 JUMPI PUSH2 0x1BEF PUSH2 0x1E69 JUMP JUMPDEST JUMPDEST MUL OR SWAP1 SSTORE POP PUSH1 0x60 DUP3 ADD MLOAD DUP2 PUSH1 0x3 ADD SWAP1 DUP2 PUSH2 0x1C0A SWAP2 SWAP1 PUSH2 0x28D9 JUMP JUMPDEST POP SWAP1 POP POP POP POP POP POP JUMP JUMPDEST PUSH0 PUSH2 0x2710 TIMESTAMP PREVRANDAO DUP5 PUSH1 0x40 MLOAD PUSH1 0x20 ADD PUSH2 0x1C2D SWAP4 SWAP3 SWAP2 SWAP1 PUSH2 0x2B97 JUMP JUMPDEST PUSH1 0x40 MLOAD PUSH1 0x20 DUP2 DUP4 SUB SUB DUP2 MSTORE SWAP1 PUSH1 0x40 MSTORE DUP1 MLOAD SWAP1 PUSH1 0x20 ADD KECCAK256 PUSH0 SHR PUSH2 0x1C4F SWAP2 SWAP1 PUSH2 0x2AAC JUMP JUMPDEST SWAP1 POP SWAP2 SWAP1 POP JUMP JUMPDEST PUSH1 0x40 MLOAD DUP1 PUSH1 0x80 ADD PUSH1 0x40 MSTORE DUP1 PUSH1 0x60 DUP2 MSTORE PUSH1 0x20 ADD PUSH0 DUP2 MSTORE PUSH1 0x20 ADD PUSH0 PUSH1 0x1 DUP2 GT ISZERO PUSH2 0x1C81 JUMPI PUSH2 0x1C80 PUSH2 0x1E69 JUMP JUMPDEST JUMPDEST DUP2 MSTORE PUSH1 0x20 ADD PUSH1 0x60 DUP2 MSTORE POP SWAP1 JUMP JUMPDEST PUSH1 0x40 MLOAD DUP1 PUSH1 0x60 ADD PUSH1 0x40 MSTORE DUP1 PUSH1 0x60 DUP2 MSTORE PUSH1 0x20 ADD PUSH0 PUSH1 0x1 DUP2 GT ISZERO PUSH2 0x1CB3 JUMPI PUSH2 0x1CB2 PUSH2 0x1E69 JUMP JUMPDEST JUMPDEST DUP2 MSTORE PUSH1 0x20 ADD PUSH0 PUSH1 0x1 DUP2 GT ISZERO PUSH2 0x1CCB JUMPI PUSH2 0x1CCA PUSH2 0x1E69 JUMP JUMPDEST JUMPDEST DUP2 MSTORE POP SWAP1 JUMP JUMPDEST PUSH0 DUP2 ISZERO ISZERO SWAP1 POP SWAP2 SWAP1 POP JUMP JUMPDEST PUSH2 0x1CE5 DUP2 PUSH2 0x1CD1 JUMP JUMPDEST DUP3 MSTORE POP POP JUMP JUMPDEST PUSH0 PUSH1 0x20 DUP3 ADD SWAP1 POP PUSH2 0x1CFE PUSH0 DUP4 ADD DUP5 PUSH2 0x1CDC JUMP JUMPDEST SWAP3 SWAP2 POP POP JUMP JUMPDEST PUSH0 DUP1 REVERT JUMPDEST PUSH0 DUP1 REVERT JUMPDEST PUSH0 DUP1 REVERT JUMPDEST PUSH0 DUP1 REVERT JUMPDEST PUSH0 DUP1 REVERT JUMPDEST PUSH0 DUP1 DUP4 PUSH1 0x1F DUP5 ADD SLT PUSH2 0x1D2D JUMPI PUSH2 0x1D2C PUSH2 0x1D0C JUMP JUMPDEST JUMPDEST DUP3 CALLDATALOAD SWAP1 POP PUSH8 0xFFFFFFFFFFFFFFFF DUP2 GT ISZERO PUSH2 0x1D4A JUMPI PUSH2 0x1D49 PUSH2 0x1D10 JUMP JUMPDEST JUMPDEST PUSH1 0x20 DUP4 ADD SWAP2 POP DUP4 PUSH1 0x1 DUP3 MUL DUP4 ADD GT ISZERO PUSH2 0x1D66 JUMPI PUSH2 0x1D65 PUSH2 0x1D14 JUMP JUMPDEST JUMPDEST SWAP3 POP SWAP3 SWAP1 POP JUMP JUMPDEST PUSH0 DUP1 PUSH1 0x20 DUP4 DUP6 SUB SLT ISZERO PUSH2 0x1D83 JUMPI PUSH2 0x1D82 PUSH2 0x1D04 JUMP JUMPDEST JUMPDEST PUSH0 DUP4 ADD CALLDATALOAD PUSH8 0xFFFFFFFFFFFFFFFF DUP2 GT ISZERO PUSH2 0x1DA0 JUMPI PUSH2 0x1D9F PUSH2 0x1D08 JUMP JUMPDEST JUMPDEST PUSH2 0x1DAC DUP6 DUP3 DUP7 ADD PUSH2 0x1D18 JUMP JUMPDEST SWAP3 POP SWAP3 POP POP SWAP3 POP SWAP3 SWAP1 POP JUMP JUMPDEST PUSH0 DUP2 MLOAD SWAP1 POP SWAP2 SWAP1 POP JUMP JUMPDEST PUSH0 DUP3 DUP3 MSTORE PUSH1 0x20 DUP3 ADD SWAP1 POP SWAP3 SWAP2 POP POP JUMP JUMPDEST PUSH0 DUP2 SWAP1 POP PUSH1 0x20 DUP3 ADD SWAP1 POP SWAP2 SWAP1 POP JUMP JUMPDEST PUSH0 DUP2 MLOAD SWAP1 POP SWAP2 SWAP1 POP JUMP JUMPDEST PUSH0 DUP3 DUP3 MSTORE PUSH1 0x20 DUP3 ADD SWAP1 POP SWAP3 SWAP2 POP POP JUMP JUMPDEST DUP3 DUP2 DUP4 MCOPY PUSH0 DUP4 DUP4 ADD MSTORE POP POP POP JUMP JUMPDEST PUSH0 PUSH1 0x1F NOT PUSH1 0x1F DUP4 ADD AND SWAP1 POP SWAP2 SWAP1 POP JUMP JUMPDEST PUSH0 PUSH2 0x1E23 DUP3 PUSH2 0x1DE1 JUMP JUMPDEST PUSH2 0x1E2D DUP2 DUP6 PUSH2 0x1DEB JUMP JUMPDEST SWAP4 POP PUSH2 0x1E3D DUP2 DUP6 PUSH1 0x20 DUP7 ADD PUSH2 0x1DFB JUMP JUMPDEST PUSH2 0x1E46 DUP2 PUSH2 0x1E09 JUMP JUMPDEST DUP5 ADD SWAP2 POP POP SWAP3 SWAP2 POP POP JUMP JUMPDEST PUSH0 DUP2 SWAP1 POP SWAP2 SWAP1 POP JUMP JUMPDEST PUSH2 0x1E63 DUP2 PUSH2 0x1E51 JUMP JUMPDEST DUP3 MSTORE POP POP JUMP JUMPDEST PUSH32 0x4E487B7100000000000000000000000000000000000000000000000000000000 PUSH0 MSTORE PUSH1 0x21 PUSH1 0x4 MSTORE PUSH1 0x24 PUSH0 REVERT JUMPDEST PUSH1 0x2 DUP2 LT PUSH2 0x1EA7 JUMPI PUSH2 0x1EA6 PUSH2 0x1E69 JUMP JUMPDEST JUMPDEST POP JUMP JUMPDEST PUSH0 DUP2 SWAP1 POP PUSH2 0x1EB7 DUP3 PUSH2 0x1E96 JUMP JUMPDEST SWAP2 SWAP1 POP JUMP JUMPDEST PUSH0 PUSH2 0x1EC6 DUP3 PUSH2 0x1EAA JUMP JUMPDEST SWAP1 POP SWAP2 SWAP1 POP JUMP JUMPDEST PUSH2 0x1ED6 DUP2 PUSH2 0x1EBC JUMP JUMPDEST DUP3 MSTORE POP POP JUMP JUMPDEST PUSH0 PUSH1 0x80 DUP4 ADD PUSH0 DUP4 ADD MLOAD DUP5 DUP3 SUB PUSH0 DUP7 ADD MSTORE PUSH2 0x1EF6 DUP3 DUP3 PUSH2 0x1E19 JUMP JUMPDEST SWAP2 POP POP PUSH1 0x20 DUP4 ADD MLOAD PUSH2 0x1F0B PUSH1 0x20 DUP7 ADD DUP3 PUSH2 0x1E5A JUMP JUMPDEST POP PUSH1 0x40 DUP4 ADD MLOAD PUSH2 0x1F1E PUSH1 0x40 DUP7 ADD DUP3 PUSH2 0x1ECD JUMP JUMPDEST POP PUSH1 0x60 DUP4 ADD MLOAD DUP5 DUP3 SUB PUSH1 0x60 DUP7 ADD MSTORE PUSH2 0x1F36 DUP3 DUP3 PUSH2 0x1E19 JUMP JUMPDEST SWAP2 POP POP DUP1 SWAP2 POP POP SWAP3 SWAP2 POP POP JUMP JUMPDEST PUSH0 PUSH2 0x1F4E DUP4 DUP4 PUSH2 0x1EDC JUMP JUMPDEST SWAP1 POP SWAP3 SWAP2 POP POP JUMP JUMPDEST PUSH0 PUSH1 0x20 DUP3 ADD SWAP1 POP SWAP2 SWAP1 POP JUMP JUMPDEST PUSH0 PUSH2 0x1F6C DUP3 PUSH2 0x1DB8 JUMP JUMPDEST PUSH2 0x1F76 DUP2 DUP6 PUSH2 0x1DC2 JUMP JUMPDEST SWAP4 POP DUP4 PUSH1 0x20 DUP3 MUL DUP6 ADD PUSH2 0x1F88 DUP6 PUSH2 0x1DD2 JUMP JUMPDEST DUP1 PUSH0 JUMPDEST DUP6 DUP2 LT ISZERO PUSH2 0x1FC3 JUMPI DUP5 DUP5 SUB DUP10 MSTORE DUP2 MLOAD PUSH2 0x1FA4 DUP6 DUP3 PUSH2 0x1F43 JUMP JUMPDEST SWAP5 POP PUSH2 0x1FAF DUP4 PUSH2 0x1F56 JUMP JUMPDEST SWAP3 POP PUSH1 0x20 DUP11 ADD SWAP10 POP POP PUSH1 0x1 DUP2 ADD SWAP1 POP PUSH2 0x1F8B JUMP JUMPDEST POP DUP3 SWAP8 POP DUP8 SWAP6 POP POP POP POP POP POP SWAP3 SWAP2 POP POP JUMP JUMPDEST PUSH0 PUSH1 0x20 DUP3 ADD SWAP1 POP DUP2 DUP2 SUB PUSH0 DUP4 ADD MSTORE PUSH2 0x1FED DUP2 DUP5 PUSH2 0x1F62 JUMP JUMPDEST SWAP1 POP SWAP3 SWAP2 POP POP JUMP JUMPDEST PUSH1 0x2 DUP2 LT PUSH2 0x2001 JUMPI PUSH0 DUP1 REVERT JUMPDEST POP JUMP JUMPDEST PUSH0 DUP2 CALLDATALOAD SWAP1 POP PUSH2 0x2012 DUP2 PUSH2 0x1FF5 JUMP JUMPDEST SWAP3 SWAP2 POP POP JUMP JUMPDEST PUSH0 PUSH1 0x20 DUP3 DUP5 SUB SLT ISZERO PUSH2 0x202D JUMPI PUSH2 0x202C PUSH2 0x1D04 JUMP JUMPDEST JUMPDEST PUSH0 PUSH2 0x203A DUP5 DUP3 DUP6 ADD PUSH2 0x2004 JUMP JUMPDEST SWAP2 POP POP SWAP3 SWAP2 POP POP JUMP JUMPDEST PUSH1 0x2 DUP2 LT PUSH2 0x204F JUMPI PUSH0 DUP1 REVERT JUMPDEST POP JUMP JUMPDEST PUSH0 DUP2 CALLDATALOAD SWAP1 POP PUSH2 0x2060 DUP2 PUSH2 0x2043 JUMP JUMPDEST SWAP3 SWAP2 POP POP JUMP JUMPDEST PUSH0 DUP1 PUSH0 PUSH1 0x40 DUP5 DUP7 SUB SLT ISZERO PUSH2 0x207D JUMPI PUSH2 0x207C PUSH2 0x1D04 JUMP JUMPDEST JUMPDEST PUSH0 DUP5 ADD CALLDATALOAD PUSH8 0xFFFFFFFFFFFFFFFF DUP2 GT ISZERO PUSH2 0x209A JUMPI PUSH2 0x2099 PUSH2 0x1D08 JUMP JUMPDEST JUMPDEST PUSH2 0x20A6 DUP7 DUP3 DUP8 ADD PUSH2 0x1D18 JUMP JUMPDEST SWAP4 POP SWAP4 POP POP PUSH1 0x20 PUSH2 0x20B9 DUP7 DUP3 DUP8 ADD PUSH2 0x2052 JUMP JUMPDEST SWAP2 POP POP SWAP3 POP SWAP3 POP SWAP3 JUMP JUMPDEST PUSH1 0x2 DUP2 LT PUSH2 0x20D4 JUMPI PUSH2 0x20D3 PUSH2 0x1E69 JUMP JUMPDEST JUMPDEST POP JUMP JUMPDEST PUSH0 DUP2 SWAP1 POP PUSH2 0x20E4 DUP3 PUSH2 0x20C3 JUMP JUMPDEST SWAP2 SWAP1 POP JUMP JUMPDEST PUSH0 PUSH2 0x20F3 DUP3 PUSH2 0x20D7 JUMP JUMPDEST SWAP1 POP SWAP2 SWAP1 POP JUMP JUMPDEST PUSH2 0x2103 DUP2 PUSH2 0x20E9 JUMP JUMPDEST DUP3 MSTORE POP POP JUMP JUMPDEST PUSH1 0x2 DUP2 LT PUSH2 0x211A JUMPI PUSH2 0x2119 PUSH2 0x1E69 JUMP JUMPDEST JUMPDEST POP JUMP JUMPDEST PUSH0 DUP2 SWAP1 POP PUSH2 0x212A DUP3 PUSH2 0x2109 JUMP JUMPDEST SWAP2 SWAP1 POP JUMP JUMPDEST PUSH0 PUSH2 0x2139 DUP3 PUSH2 0x211D JUMP JUMPDEST SWAP1 POP SWAP2 SWAP1 POP JUMP JUMPDEST PUSH2 0x2149 DUP2 PUSH2 0x212F JUMP JUMPDEST DUP3 MSTORE POP POP JUMP JUMPDEST PUSH0 PUSH1 0x60 DUP4 ADD PUSH0 DUP4 ADD MLOAD DUP5 DUP3 SUB PUSH0 DUP7 ADD MSTORE PUSH2 0x2169 DUP3 DUP3 PUSH2 0x1E19 JUMP JUMPDEST SWAP2 POP POP PUSH1 0x20 DUP4 ADD MLOAD PUSH2 0x217E PUSH1 0x20 DUP7 ADD DUP3 PUSH2 0x20FA JUMP JUMPDEST POP PUSH1 0x40 DUP4 ADD MLOAD PUSH2 0x2191 PUSH1 0x40 DUP7 ADD DUP3 PUSH2 0x2140 JUMP JUMPDEST POP DUP1 SWAP2 POP POP SWAP3 SWAP2 POP POP JUMP JUMPDEST PUSH0 PUSH1 0x20 DUP3 ADD SWAP1 POP DUP2 DUP2 SUB PUSH0 DUP4 ADD MSTORE PUSH2 0x21B4 DUP2 DUP5 PUSH2 0x214F JUMP JUMPDEST SWAP1 POP SWAP3 SWAP2 POP POP JUMP JUMPDEST PUSH32 0x4E487B7100000000000000000000000000000000000000000000000000000000 PUSH0 MSTORE PUSH1 0x22 PUSH1 0x4 MSTORE PUSH1 0x24 PUSH0 REVERT JUMPDEST PUSH0 PUSH1 0x2 DUP3 DIV SWAP1 POP PUSH1 0x1 DUP3 AND DUP1 PUSH2 0x2200 JUMPI PUSH1 0x7F DUP3 AND SWAP2 POP JUMPDEST PUSH1 0x20 DUP3 LT DUP2 SUB PUSH2 0x2213 JUMPI PUSH2 0x2212 PUSH2 0x21BC JUMP JUMPDEST JUMPDEST POP SWAP2 SWAP1 POP JUMP JUMPDEST PUSH0 DUP2 SWAP1 POP SWAP3 SWAP2 POP POP JUMP JUMPDEST PUSH0 PUSH2 0x222D DUP3 PUSH2 0x1DE1 JUMP JUMPDEST PUSH2 0x2237 DUP2 DUP6 PUSH2 0x2219 JUMP JUMPDEST SWAP4 POP PUSH2 0x2247 DUP2 DUP6 PUSH1 0x20 DUP7 ADD PUSH2 0x1DFB JUMP JUMPDEST DUP1 DUP5 ADD SWAP2 POP POP SWAP3 SWAP2 POP POP JUMP JUMPDEST PUSH0 PUSH2 0x225E DUP3 DUP5 PUSH2 0x2223 JUMP JUMPDEST SWAP2 POP DUP2 SWAP1 POP SWAP3 SWAP2 POP POP JUMP JUMPDEST PUSH0 DUP3 DUP3 MSTORE PUSH1 0x20 DUP3 ADD SWAP1 POP SWAP3 SWAP2 POP POP JUMP JUMPDEST PUSH32 0x4361726420697320496E76616C69640000000000000000000000000000000000 PUSH0 DUP3 ADD MSTORE POP JUMP JUMPDEST PUSH0 PUSH2 0x22AD PUSH1 0xF DUP4 PUSH2 0x2269 JUMP JUMPDEST SWAP2 POP PUSH2 0x22B8 DUP3 PUSH2 0x2279 JUMP JUMPDEST PUSH1 0x20 DUP3 ADD SWAP1 POP SWAP2 SWAP1 POP JUMP JUMPDEST PUSH0 PUSH1 0x20 DUP3 ADD SWAP1 POP DUP2 DUP2 SUB PUSH0 DUP4 ADD MSTORE PUSH2 0x22DA DUP2 PUSH2 0x22A1 JUMP JUMPDEST SWAP1 POP SWAP2 SWAP1 POP JUMP JUMPDEST PUSH32 0x5573657220646F6573206E6F7420657869737400000000000000000000000000 PUSH0 DUP3 ADD MSTORE POP JUMP JUMPDEST PUSH0 PUSH2 0x2315 PUSH1 0x13 DUP4 PUSH2 0x2269 JUMP JUMPDEST SWAP2 POP PUSH2 0x2320 DUP3 PUSH2 0x22E1 JUMP JUMPDEST PUSH1 0x20 DUP3 ADD SWAP1 POP SWAP2 SWAP1 POP JUMP JUMPDEST PUSH0 PUSH1 0x20 DUP3 ADD SWAP1 POP DUP2 DUP2 SUB PUSH0 DUP4 ADD MSTORE PUSH2 0x2342 DUP2 PUSH2 0x2309 JUMP JUMPDEST SWAP1 POP SWAP2 SWAP1 POP JUMP JUMPDEST PUSH32 0x5265656E7472616E637947756172643A207265656E7472616E742063616C6C00 PUSH0 DUP3 ADD MSTORE POP JUMP JUMPDEST PUSH0 PUSH2 0x237D PUSH1 0x1F DUP4 PUSH2 0x2269 JUMP JUMPDEST SWAP2 POP PUSH2 0x2388 DUP3 PUSH2 0x2349 JUMP JUMPDEST PUSH1 0x20 DUP3 ADD SWAP1 POP SWAP2 SWAP1 POP JUMP JUMPDEST PUSH0 PUSH1 0x20 DUP3 ADD SWAP1 POP DUP2 DUP2 SUB PUSH0 DUP4 ADD MSTORE PUSH2 0x23AA DUP2 PUSH2 0x2371 JUMP JUMPDEST SWAP1 POP SWAP2 SWAP1 POP JUMP JUMPDEST DUP3 DUP2 DUP4 CALLDATACOPY PUSH0 DUP4 DUP4 ADD MSTORE POP POP POP JUMP JUMPDEST PUSH0 PUSH2 0x23CA DUP4 DUP6 PUSH2 0x2219 JUMP JUMPDEST SWAP4 POP PUSH2 0x23D7 DUP4 DUP6 DUP5 PUSH2 0x23B1 JUMP JUMPDEST DUP3 DUP5 ADD SWAP1 POP SWAP4 SWAP3 POP POP POP JUMP JUMPDEST PUSH0 PUSH2 0x23EF DUP3 DUP5 DUP7 PUSH2 0x23BF JUMP JUMPDEST SWAP2 POP DUP2 SWAP1 POP SWAP4 SWAP3 POP POP POP JUMP JUMPDEST PUSH0 DUP2 SWAP1 POP SWAP3 SWAP2 POP POP JUMP JUMPDEST POP JUMP JUMPDEST PUSH0 PUSH2 0x2413 PUSH0 DUP4 PUSH2 0x23FB JUMP JUMPDEST SWAP2 POP PUSH2 0x241E DUP3 PUSH2 0x2405 JUMP JUMPDEST PUSH0 DUP3 ADD SWAP1 POP SWAP2 SWAP1 POP JUMP JUMPDEST PUSH0 PUSH2 0x2432 DUP3 PUSH2 0x2408 JUMP JUMPDEST SWAP2 POP DUP2 SWAP1 POP SWAP2 SWAP1 POP JUMP JUMPDEST PUSH0 DUP2 SLOAD SWAP1 POP PUSH2 0x244A DUP2 PUSH2 0x21E9 JUMP JUMPDEST SWAP1 POP SWAP2 SWAP1 POP JUMP JUMPDEST PUSH32 0x4E487B7100000000000000000000000000000000000000000000000000000000 PUSH0 MSTORE PUSH1 0x41 PUSH1 0x4 MSTORE PUSH1 0x24 PUSH0 REVERT JUMPDEST PUSH0 DUP2 SWAP1 POP DUP2 PUSH0 MSTORE PUSH1 0x20 PUSH0 KECCAK256 SWAP1 POP SWAP2 SWAP1 POP JUMP JUMPDEST PUSH0 DUP2 SWAP1 POP DUP2 PUSH0 MSTORE PUSH1 0x20 PUSH0 KECCAK256 SWAP1 POP SWAP2 SWAP1 POP JUMP JUMPDEST PUSH0 PUSH1 0x20 PUSH1 0x1F DUP4 ADD DIV SWAP1 POP SWAP2 SWAP1 POP JUMP JUMPDEST PUSH0 DUP3 DUP3 SHL SWAP1 POP SWAP3 SWAP2 POP POP JUMP JUMPDEST PUSH0 PUSH1 0x8 DUP4 MUL PUSH2 0x24EC PUSH32 0xFFFFFFFFFFFFFFFFFFFFFFFFFFFFFFFFFFFFFFFFFFFFFFFFFFFFFFFFFFFFFFFF DUP3 PUSH2 0x24B1 JUMP JUMPDEST PUSH2 0x24F6 DUP7 DUP4 PUSH2 0x24B1 JUMP JUMPDEST SWAP6 POP DUP1 NOT DUP5 AND SWAP4 POP DUP1 DUP7 AND DUP5 OR SWAP3 POP POP POP SWAP4 SWAP3 POP POP POP JUMP JUMPDEST PUSH0 DUP2 SWAP1 POP SWAP2 SWAP1 POP JUMP JUMPDEST PUSH0 PUSH2 0x2531 PUSH2 0x252C PUSH2 0x2527 DUP5 PUSH2 0x1E51 JUMP JUMPDEST PUSH2 0x250E JUMP JUMPDEST PUSH2 0x1E51 JUMP JUMPDEST SWAP1 POP SWAP2 SWAP1 POP JUMP JUMPDEST PUSH0 DUP2 SWAP1 POP SWAP2 SWAP1 POP JUMP JUMPDEST PUSH2 0x254A DUP4 PUSH2 0x2517 JUMP JUMPDEST PUSH2 0x255E PUSH2 0x2556 DUP3 PUSH2 0x2538 JUMP JUMPDEST DUP5 DUP5 SLOAD PUSH2 0x24BD JUMP JUMPDEST DUP3 SSTORE POP POP POP POP JUMP JUMPDEST PUSH0 SWAP1 JUMP JUMPDEST PUSH2 0x2572 PUSH2 0x2566 JUMP JUMPDEST PUSH2 0x257D DUP2 DUP5 DUP5 PUSH2 0x2541 JUMP JUMPDEST POP POP POP JUMP JUMPDEST JUMPDEST DUP2 DUP2 LT ISZERO PUSH2 0x25A0 JUMPI PUSH2 0x2595 PUSH0 DUP3 PUSH2 0x256A JUMP JUMPDEST PUSH1 0x1 DUP2 ADD SWAP1 POP PUSH2 0x2583 JUMP JUMPDEST POP POP JUMP JUMPDEST PUSH1 0x1F DUP3 GT ISZERO PUSH2 0x25E5 JUMPI PUSH2 0x25B6 DUP2 PUSH2 0x247E JUMP JUMPDEST PUSH2 0x25BF DUP5 PUSH2 0x24A2 JUMP JUMPDEST DUP2 ADD PUSH1 0x20 DUP6 LT ISZERO PUSH2 0x25CE JUMPI DUP2 SWAP1 POP JUMPDEST PUSH2 0x25E2 PUSH2 0x25DA DUP6 PUSH2 0x24A2 JUMP JUMPDEST DUP4 ADD DUP3 PUSH2 0x2582 JUMP JUMPDEST POP POP JUMPDEST POP POP POP JUMP JUMPDEST PUSH0 DUP3 DUP3 SHR SWAP1 POP SWAP3 SWAP2 POP POP JUMP JUMPDEST PUSH0 PUSH2 0x2605 PUSH0 NOT DUP5 PUSH1 0x8 MUL PUSH2 0x25EA JUMP JUMPDEST NOT DUP1 DUP4 AND SWAP2 POP POP SWAP3 SWAP2 POP POP JUMP JUMPDEST PUSH0 PUSH2 0x261D DUP4 DUP4 PUSH2 0x25F6 JUMP JUMPDEST SWAP2 POP DUP3 PUSH1 0x2 MUL DUP3 OR SWAP1 POP SWAP3 SWAP2 POP POP JUMP JUMPDEST DUP2 DUP2 SUB PUSH2 0x263B JUMPI POP POP PUSH2 0x2710 JUMP JUMPDEST PUSH2 0x2644 DUP3 PUSH2 0x243C JUMP JUMPDEST PUSH8 0xFFFFFFFFFFFFFFFF DUP2 GT ISZERO PUSH2 0x265D JUMPI PUSH2 0x265C PUSH2 0x2451 JUMP JUMPDEST JUMPDEST PUSH2 0x2667 DUP3 SLOAD PUSH2 0x21E9 JUMP JUMPDEST PUSH2 0x2672 DUP3 DUP3 DUP6 PUSH2 0x25A4 JUMP JUMPDEST PUSH0 PUSH1 0x1F DUP4 GT PUSH1 0x1 DUP2 EQ PUSH2 0x269F JUMPI PUSH0 DUP5 ISZERO PUSH2 0x268D JUMPI DUP3 DUP8 ADD SLOAD SWAP1 POP JUMPDEST PUSH2 0x2697 DUP6 DUP3 PUSH2 0x2612 JUMP JUMPDEST DUP7 SSTORE POP PUSH2 0x2709 JUMP JUMPDEST PUSH1 0x1F NOT DUP5 AND PUSH2 0x26AD DUP8 PUSH2 0x2490 JUMP JUMPDEST SWAP7 POP PUSH2 0x26B8 DUP7 PUSH2 0x247E JUMP JUMPDEST PUSH0 JUMPDEST DUP3 DUP2 LT ISZERO PUSH2 0x26DF JUMPI DUP5 DUP10 ADD SLOAD DUP3 SSTORE PUSH1 0x1 DUP3 ADD SWAP2 POP PUSH1 0x1 DUP6 ADD SWAP5 POP PUSH1 0x20 DUP2 ADD SWAP1 POP PUSH2 0x26BA JUMP JUMPDEST DUP7 DUP4 LT ISZERO PUSH2 0x26FC JUMPI DUP5 DUP10 ADD SLOAD PUSH2 0x26F8 PUSH1 0x1F DUP10 AND DUP3 PUSH2 0x25F6 JUMP JUMPDEST DUP4 SSTORE POP JUMPDEST PUSH1 0x1 PUSH1 0x2 DUP9 MUL ADD DUP9 SSTORE POP POP POP JUMPDEST POP POP POP POP POP POP JUMPDEST JUMP JUMPDEST PUSH2 0x271B DUP2 PUSH2 0x1E51 JUMP JUMPDEST DUP3 MSTORE POP POP JUMP JUMPDEST PUSH0 PUSH1 0x20 DUP3 ADD SWAP1 POP PUSH2 0x2734 PUSH0 DUP4 ADD DUP5 PUSH2 0x2712 JUMP JUMPDEST SWAP3 SWAP2 POP POP JUMP JUMPDEST PUSH0 DUP2 SLOAD PUSH2 0x2746 DUP2 PUSH2 0x21E9 JUMP JUMPDEST PUSH2 0x2750 DUP2 DUP7 PUSH2 0x2219 JUMP JUMPDEST SWAP5 POP PUSH1 0x1 DUP3 AND PUSH0 DUP2 EQ PUSH2 0x276A JUMPI PUSH1 0x1 DUP2 EQ PUSH2 0x277F JUMPI PUSH2 0x27B1 JUMP JUMPDEST PUSH1 0xFF NOT DUP4 AND DUP7 MSTORE DUP2 ISZERO ISZERO DUP3 MUL DUP7 ADD SWAP4 POP PUSH2 0x27B1 JUMP JUMPDEST PUSH2 0x2788 DUP6 PUSH2 0x247E JUMP JUMPDEST PUSH0 JUMPDEST DUP4 DUP2 LT ISZERO PUSH2 0x27A9 JUMPI DUP2 SLOAD DUP2 DUP10 ADD MSTORE PUSH1 0x1 DUP3 ADD SWAP2 POP PUSH1 0x20 DUP2 ADD SWAP1 POP PUSH2 0x278A JUMP JUMPDEST DUP4 DUP9 ADD SWAP6 POP POP POP JUMPDEST POP POP POP SWAP3 SWAP2 POP POP JUMP JUMPDEST PUSH0 PUSH2 0x27C5 DUP3 DUP5 PUSH2 0x273A JUMP JUMPDEST SWAP2 POP DUP2 SWAP1 POP SWAP3 SWAP2 POP POP JUMP JUMPDEST PUSH32 0x4E487B7100000000000000000000000000000000000000000000000000000000 PUSH0 MSTORE PUSH1 0x32 PUSH1 0x4 MSTORE PUSH1 0x24 PUSH0 REVERT JUMPDEST PUSH32 0x4E487B7100000000000000000000000000000000000000000000000000000000 PUSH0 MSTORE PUSH1 0x11 PUSH1 0x4 MSTORE PUSH1 0x24 PUSH0 REVERT JUMPDEST PUSH0 PUSH2 0x2834 DUP3 PUSH2 0x1E51 JUMP JUMPDEST SWAP2 POP PUSH32 0xFFFFFFFFFFFFFFFFFFFFFFFFFFFFFFFFFFFFFFFFFFFFFFFFFFFFFFFFFFFFFFFF DUP3 SUB PUSH2 0x2866 JUMPI PUSH2 0x2865 PUSH2 0x27FD JUMP JUMPDEST JUMPDEST PUSH1 0x1 DUP3 ADD SWAP1 POP SWAP2 SWAP1 POP JUMP JUMPDEST PUSH32 0x596F7520617265206E6F7420616E2061646D696E000000000000000000000000 PUSH0 DUP3 ADD MSTORE POP JUMP JUMPDEST PUSH0 PUSH2 0x28A5 PUSH1 0x14 DUP4 PUSH2 0x2269 JUMP JUMPDEST SWAP2 POP PUSH2 0x28B0 DUP3 PUSH2 0x2871 JUMP JUMPDEST PUSH1 0x20 DUP3 ADD SWAP1 POP SWAP2 SWAP1 POP JUMP JUMPDEST PUSH0 PUSH1 0x20 DUP3 ADD SWAP1 POP DUP2 DUP2 SUB PUSH0 DUP4 ADD MSTORE PUSH2 0x28D2 DUP2 PUSH2 0x2899 JUMP JUMPDEST SWAP1 POP SWAP2 SWAP1 POP JUMP JUMPDEST PUSH2 0x28E2 DUP3 PUSH2 0x1DE1 JUMP JUMPDEST PUSH8 0xFFFFFFFFFFFFFFFF DUP2 GT ISZERO PUSH2 0x28FB JUMPI PUSH2 0x28FA PUSH2 0x2451 JUMP JUMPDEST JUMPDEST PUSH2 0x2905 DUP3 SLOAD PUSH2 0x21E9 JUMP JUMPDEST PUSH2 0x2910 DUP3 DUP3 DUP6 PUSH2 0x25A4 JUMP JUMPDEST PUSH0 PUSH1 0x20 SWAP1 POP PUSH1 0x1F DUP4 GT PUSH1 0x1 DUP2 EQ PUSH2 0x2941 JUMPI PUSH0 DUP5 ISZERO PUSH2 0x292F JUMPI DUP3 DUP8 ADD MLOAD SWAP1 POP JUMPDEST PUSH2 0x2939 DUP6 DUP3 PUSH2 0x2612 JUMP JUMPDEST DUP7 SSTORE POP PUSH2 0x29A0 JUMP JUMPDEST PUSH1 0x1F NOT DUP5 AND PUSH2 0x294F DUP7 PUSH2 0x247E JUMP JUMPDEST PUSH0 JUMPDEST DUP3 DUP2 LT ISZERO PUSH2 0x2976 JUMPI DUP5 DUP10 ADD MLOAD DUP3 SSTORE PUSH1 0x1 DUP3 ADD SWAP2 POP PUSH1 0x20 DUP6 ADD SWAP5 POP PUSH1 0x20 DUP2 ADD SWAP1 POP PUSH2 0x2951 JUMP JUMPDEST DUP7 DUP4 LT ISZERO PUSH2 0x2993 JUMPI DUP5 DUP10 ADD MLOAD PUSH2 0x298F PUSH1 0x1F DUP10 AND DUP3 PUSH2 0x25F6 JUMP JUMPDEST DUP4 SSTORE POP JUMPDEST PUSH1 0x1 PUSH1 0x2 DUP9 MUL ADD DUP9 SSTORE POP POP POP JUMPDEST POP POP POP POP POP POP JUMP JUMPDEST PUSH0 PUSH2 0x29B2 DUP3 PUSH2 0x1E51 JUMP JUMPDEST SWAP2 POP PUSH2 0x29BD DUP4 PUSH2 0x1E51 JUMP JUMPDEST SWAP3 POP DUP3 DUP3 MUL PUSH2 0x29CB DUP2 PUSH2 0x1E51 JUMP JUMPDEST SWAP2 POP DUP3 DUP3 DIV DUP5 EQ DUP4 ISZERO OR PUSH2 0x29E2 JUMPI PUSH2 0x29E1 PUSH2 0x27FD JUMP JUMPDEST JUMPDEST POP SWAP3 SWAP2 POP POP JUMP JUMPDEST PUSH32 0x4E487B7100000000000000000000000000000000000000000000000000000000 PUSH0 MSTORE PUSH1 0x12 PUSH1 0x4 MSTORE PUSH1 0x24 PUSH0 REVERT JUMPDEST PUSH0 PUSH2 0x2A20 DUP3 PUSH2 0x1E51 JUMP JUMPDEST SWAP2 POP PUSH2 0x2A2B DUP4 PUSH2 0x1E51 JUMP JUMPDEST SWAP3 POP DUP3 PUSH2 0x2A3B JUMPI PUSH2 0x2A3A PUSH2 0x29E9 JUMP JUMPDEST JUMPDEST DUP3 DUP3 DIV SWAP1 POP SWAP3 SWAP2 POP POP JUMP JUMPDEST PUSH0 PUSH2 0x2A50 DUP3 PUSH2 0x1DE1 JUMP JUMPDEST PUSH2 0x2A5A DUP2 DUP6 PUSH2 0x2269 JUMP JUMPDEST SWAP4 POP PUSH2 0x2A6A DUP2 DUP6 PUSH1 0x20 DUP7 ADD PUSH2 0x1DFB JUMP JUMPDEST PUSH2 0x2A73 DUP2 PUSH2 0x1E09 JUMP JUMPDEST DUP5 ADD SWAP2 POP POP SWAP3 SWAP2 POP POP JUMP JUMPDEST PUSH0 PUSH1 0x40 DUP3 ADD SWAP1 POP DUP2 DUP2 SUB PUSH0 DUP4 ADD MSTORE PUSH2 0x2A96 DUP2 DUP6 PUSH2 0x2A46 JUMP JUMPDEST SWAP1 POP PUSH2 0x2AA5 PUSH1 0x20 DUP4 ADD DUP5 PUSH2 0x2712 JUMP JUMPDEST SWAP4 SWAP3 POP POP POP JUMP JUMPDEST PUSH0 PUSH2 0x2AB6 DUP3 PUSH2 0x1E51 JUMP JUMPDEST SWAP2 POP PUSH2 0x2AC1 DUP4 PUSH2 0x1E51 JUMP JUMPDEST SWAP3 POP DUP3 PUSH2 0x2AD1 JUMPI PUSH2 0x2AD0 PUSH2 0x29E9 JUMP JUMPDEST JUMPDEST DUP3 DUP3 MOD SWAP1 POP SWAP3 SWAP2 POP POP JUMP JUMPDEST PUSH0 PUSH2 0x2AE6 DUP3 PUSH2 0x1E51 JUMP JUMPDEST SWAP2 POP PUSH2 0x2AF1 DUP4 PUSH2 0x1E51 JUMP JUMPDEST SWAP3 POP DUP3 DUP3 ADD SWAP1 POP DUP1 DUP3 GT ISZERO PUSH2 0x2B09 JUMPI PUSH2 0x2B08 PUSH2 0x27FD JUMP JUMPDEST JUMPDEST SWAP3 SWAP2 POP POP JUMP JUMPDEST PUSH32 0x436F6465206973204E6F7420556E697175650000000000000000000000000000 PUSH0 DUP3 ADD MSTORE POP JUMP JUMPDEST PUSH0 PUSH2 0x2B43 PUSH1 0x12 DUP4 PUSH2 0x2269 JUMP JUMPDEST SWAP2 POP PUSH2 0x2B4E DUP3 PUSH2 0x2B0F JUMP JUMPDEST PUSH1 0x20 DUP3 ADD SWAP1 POP SWAP2 SWAP1 POP JUMP JUMPDEST PUSH0 PUSH1 0x20 DUP3 ADD SWAP1 POP DUP2 DUP2 SUB PUSH0 DUP4 ADD MSTORE PUSH2 0x2B70 DUP2 PUSH2 0x2B37 JUMP JUMPDEST SWAP1 POP SWAP2 SWAP1 POP JUMP JUMPDEST PUSH0 DUP2 SWAP1 POP SWAP2 SWAP1 POP JUMP JUMPDEST PUSH2 0x2B91 PUSH2 0x2B8C DUP3 PUSH2 0x1E51 JUMP JUMPDEST PUSH2 0x2B77 JUMP JUMPDEST DUP3 MSTORE POP POP JUMP JUMPDEST PUSH0 PUSH2 0x2BA2 DUP3 DUP7 PUSH2 0x2B80 JUMP JUMPDEST PUSH1 0x20 DUP3 ADD SWAP2 POP PUSH2 0x2BB2 DUP3 DUP6 PUSH2 0x2B80 JUMP JUMPDEST PUSH1 0x20 DUP3 ADD SWAP2 POP PUSH2 0x2BC2 DUP3 DUP5 PUSH2 0x2B80 JUMP JUMPDEST PUSH1 0x20 DUP3 ADD SWAP2 POP DUP2 SWAP1 POP SWAP5 SWAP4 POP POP POP POP JUMP INVALID LOG2 PUSH5 0x6970667358 0x22 SLT KECCAK256 CALLDATACOPY 0xE9 PUSH14 0xE6DA9554DBDBE77075F940240DFE EXP 0x2D SWAP5 PUSH15 0x2A348410F464760C75D80364736F6C PUSH4 0x4300081A STOP CALLER "
				},
				"gasEstimates": {
					"creation": {
						"codeDepositCost": "2254600",
						"executionCost": "infinite",
						"totalCost": "infinite"
					},
					"external": {
						"": "173",
						"buyGiftCard()": "infinite",
						"getAllGiftCards()": "infinite",
						"getGiftCardByStatus(uint8)": "infinite",
						"getMyCard()": "infinite",
						"getMyData()": "infinite",
						"isAdmin()": "5088",
						"isRegistered()": "2669",
						"redeemCard(string)": "infinite",
						"registration(string,uint8)": "infinite"
					},
					"internal": {
						"addCard(string memory,uint256)": "infinite",
						"generateGiftCardCode()": "infinite",
						"getRandomNumber(uint256)": "infinite"
					}
				},
				"methodIdentifiers": {
					"buyGiftCard()": "a34f011c",
					"getAllGiftCards()": "a927db0d",
					"getGiftCardByStatus(uint8)": "4cf57138",
					"getMyCard()": "2b4a9dda",
					"getMyData()": "d9c8a38b",
					"isAdmin()": "b6db75a0",
					"isRegistered()": "22366844",
					"redeemCard(string)": "27e26c8c",
					"registration(string,uint8)": "8f0e582f"
				}
			},
			"storageLayout": {
				"storage": [
					{
						"astId": 34,
						"contract": "contracts/GiftCardETH.sol:GiftCardETH",
						"label": "users",
						"offset": 0,
						"slot": "0",
						"type": "t_mapping(t_address,t_struct(User)19_storage)"
					},
					{
						"astId": 39,
						"contract": "contracts/GiftCardETH.sol:GiftCardETH",
						"label": "giftCards",
						"offset": 0,
						"slot": "1",
						"type": "t_mapping(t_string_memory_ptr,t_struct(GiftCard)29_storage)"
					},
					{
						"astId": 41,
						"contract": "contracts/GiftCardETH.sol:GiftCardETH",
						"label": "locked",
						"offset": 0,
						"slot": "2",
						"type": "t_bool"
					},
					{
						"astId": 44,
						"contract": "contracts/GiftCardETH.sol:GiftCardETH",
						"label": "giftCardCodes",
						"offset": 0,
						"slot": "3",
						"type": "t_array(t_string_storage)dyn_storage"
					},
					{
						"astId": 47,
						"contract": "contracts/GiftCardETH.sol:GiftCardETH",
						"label": "userAddresses",
						"offset": 0,
						"slot": "4",
						"type": "t_array(t_address)dyn_storage"
					}
				],
				"types": {
					"t_address": {
						"encoding": "inplace",
						"label": "address",
						"numberOfBytes": "20"
					},
					"t_array(t_address)dyn_storage": {
						"base": "t_address",
						"encoding": "dynamic_array",
						"label": "address[]",
						"numberOfBytes": "32"
					},
					"t_array(t_string_storage)dyn_storage": {
						"base": "t_string_storage",
						"encoding": "dynamic_array",
						"label": "string[]",
						"numberOfBytes": "32"
					},
					"t_bool": {
						"encoding": "inplace",
						"label": "bool",
						"numberOfBytes": "1"
					},
					"t_enum(Gender)10": {
						"encoding": "inplace",
						"label": "enum Gender",
						"numberOfBytes": "1"
					},
					"t_enum(GiftCardStatus)7": {
						"encoding": "inplace",
						"label": "enum GiftCardStatus",
						"numberOfBytes": "1"
					},
					"t_enum(UserType)4": {
						"encoding": "inplace",
						"label": "enum UserType",
						"numberOfBytes": "1"
					},
					"t_mapping(t_address,t_struct(User)19_storage)": {
						"encoding": "mapping",
						"key": "t_address",
						"label": "mapping(address => struct User)",
						"numberOfBytes": "32",
						"value": "t_struct(User)19_storage"
					},
					"t_mapping(t_string_memory_ptr,t_struct(GiftCard)29_storage)": {
						"encoding": "mapping",
						"key": "t_string_memory_ptr",
						"label": "mapping(string => struct GiftCard)",
						"numberOfBytes": "32",
						"value": "t_struct(GiftCard)29_storage"
					},
					"t_string_memory_ptr": {
						"encoding": "bytes",
						"label": "string",
						"numberOfBytes": "32"
					},
					"t_string_storage": {
						"encoding": "bytes",
						"label": "string",
						"numberOfBytes": "32"
					},
					"t_struct(GiftCard)29_storage": {
						"encoding": "inplace",
						"label": "struct GiftCard",
						"members": [
							{
								"astId": 21,
								"contract": "contracts/GiftCardETH.sol:GiftCardETH",
								"label": "buyer",
								"offset": 0,
								"slot": "0",
								"type": "t_string_storage"
							},
							{
								"astId": 23,
								"contract": "contracts/GiftCardETH.sol:GiftCardETH",
								"label": "amount",
								"offset": 0,
								"slot": "1",
								"type": "t_uint256"
							},
							{
								"astId": 26,
								"contract": "contracts/GiftCardETH.sol:GiftCardETH",
								"label": "giftCardStatus",
								"offset": 0,
								"slot": "2",
								"type": "t_enum(GiftCardStatus)7"
							},
							{
								"astId": 28,
								"contract": "contracts/GiftCardETH.sol:GiftCardETH",
								"label": "getter",
								"offset": 0,
								"slot": "3",
								"type": "t_string_storage"
							}
						],
						"numberOfBytes": "128"
					},
					"t_struct(User)19_storage": {
						"encoding": "inplace",
						"label": "struct User",
						"members": [
							{
								"astId": 12,
								"contract": "contracts/GiftCardETH.sol:GiftCardETH",
								"label": "name",
								"offset": 0,
								"slot": "0",
								"type": "t_string_storage"
							},
							{
								"astId": 15,
								"contract": "contracts/GiftCardETH.sol:GiftCardETH",
								"label": "gender",
								"offset": 0,
								"slot": "1",
								"type": "t_enum(Gender)10"
							},
							{
								"astId": 18,
								"contract": "contracts/GiftCardETH.sol:GiftCardETH",
								"label": "userType",
								"offset": 1,
								"slot": "1",
								"type": "t_enum(UserType)4"
							}
						],
						"numberOfBytes": "64"
					},
					"t_uint256": {
						"encoding": "inplace",
						"label": "uint256",
						"numberOfBytes": "32"
					}
				}
			},
			"userdoc": {
				"kind": "user",
				"methods": {},
				"version": 1
			}
		}
	}
}