{
	"contracts/GiftCardETH.sol": {
		"GiftCardETH": {
			"abi": [
				{
					"inputs": [],
					"stateMutability": "nonpayable",
					"type": "constructor"
				},
				{
					"anonymous": false,
					"inputs": [
						{
							"indexed": false,
							"internalType": "string",
							"name": "code",
							"type": "string"
						},
						{
							"indexed": false,
							"internalType": "uint256",
							"name": "amount",
							"type": "uint256"
						}
					],
					"name": "CardBought",
					"type": "event"
				},
				{
					"anonymous": false,
					"inputs": [
						{
							"indexed": false,
							"internalType": "uint256",
							"name": "amount",
							"type": "uint256"
						}
					],
					"name": "CardRedeemed",
					"type": "event"
				},
				{
					"stateMutability": "payable",
					"type": "fallback"
				},
				{
					"inputs": [],
					"name": "buyGiftCard",
					"outputs": [],
					"stateMutability": "payable",
					"type": "function"
				},
				{
					"inputs": [],
					"name": "getAllGiftCards",
					"outputs": [
						{
							"components": [
								{
									"internalType": "string",
									"name": "buyer",
									"type": "string"
								},
								{
									"internalType": "uint256",
									"name": "amount",
									"type": "uint256"
								},
								{
									"internalType": "enum GiftCardStatus",
									"name": "giftCardStatus",
									"type": "uint8"
								},
								{
									"internalType": "string",
									"name": "getter",
									"type": "string"
								}
							],
							"internalType": "struct GiftCard[]",
							"name": "giftcards",
							"type": "tuple[]"
						}
					],
					"stateMutability": "view",
					"type": "function"
				},
				{
					"inputs": [
						{
							"internalType": "enum GiftCardStatus",
							"name": "status",
							"type": "uint8"
						}
					],
					"name": "getGiftCardByStatus",
					"outputs": [
						{
							"components": [
								{
									"internalType": "string",
									"name": "buyer",
									"type": "string"
								},
								{
									"internalType": "uint256",
									"name": "amount",
									"type": "uint256"
								},
								{
									"internalType": "enum GiftCardStatus",
									"name": "giftCardStatus",
									"type": "uint8"
								},
								{
									"internalType": "string",
									"name": "getter",
									"type": "string"
								}
							],
							"internalType": "struct GiftCard[]",
							"name": "giftcards",
							"type": "tuple[]"
						}
					],
					"stateMutability": "view",
					"type": "function"
				},
				{
					"inputs": [],
					"name": "getMyCard",
					"outputs": [
						{
							"components": [
								{
									"internalType": "string",
									"name": "buyer",
									"type": "string"
								},
								{
									"internalType": "uint256",
									"name": "amount",
									"type": "uint256"
								},
								{
									"internalType": "enum GiftCardStatus",
									"name": "giftCardStatus",
									"type": "uint8"
								},
								{
									"internalType": "string",
									"name": "getter",
									"type": "string"
								}
							],
							"internalType": "struct GiftCard[]",
							"name": "",
							"type": "tuple[]"
						}
					],
					"stateMutability": "view",
					"type": "function"
				},
				{
					"inputs": [
						{
							"internalType": "string",
							"name": "_code",
							"type": "string"
						}
					],
					"name": "redeemCard",
					"outputs": [],
					"stateMutability": "nonpayable",
					"type": "function"
				},
				{
					"stateMutability": "payable",
					"type": "receive"
				}
			],
			"devdoc": {
				"kind": "dev",
				"methods": {},
				"version": 1
			},
			"evm": {
				"assembly": "    /* \"contracts/GiftCardETH.sol\":313:6135  contract GiftCardETH {... */\n  mstore(0x40, 0x80)\n    /* \"contracts/GiftCardETH.sol\":502:933  constructor() {... */\n  callvalue\n  dup1\n  iszero\n  tag_1\n  jumpi\n  0x00\n  dup1\n  revert\ntag_1:\n  pop\n    /* \"contracts/GiftCardETH.sol\":578:651  User(... */\n  mload(0x40)\n  dup1\n  0x40\n  add\n  0x40\n  mstore\n  dup1\n  mload(0x40)\n  dup1\n  0x40\n  add\n  0x40\n  mstore\n  dup1\n  0x0f\n  dup2\n  mstore\n  0x20\n  add\n  0x4962726168696d204d6f68616d65640000000000000000000000000000000000\n  dup2\n  mstore\n  pop\n  dup2\n  mstore\n  0x20\n  add\n    /* \"contracts/GiftCardETH.sol\":627:641  UserType.ADMIN */\n  0x00\n    /* \"contracts/GiftCardETH.sol\":578:651  User(... */\n  0x01\n  dup2\n  gt\n  iszero\n  tag_4\n  jumpi\n  tag_5\n  tag_6\n  jump\t// in\ntag_5:\ntag_4:\n  dup2\n  mstore\n  pop\n    /* \"contracts/GiftCardETH.sol\":526:531  users */\n  0x00\n    /* \"contracts/GiftCardETH.sol\":526:575  users[0x8dC03105bA1A429fc962EbE37766B8601D70e0D6] */\n  dup1\n    /* \"contracts/GiftCardETH.sol\":532:574  0x8dC03105bA1A429fc962EbE37766B8601D70e0D6 */\n  0x8dc03105ba1a429fc962ebe37766b8601d70e0d6\n    /* \"contracts/GiftCardETH.sol\":526:575  users[0x8dC03105bA1A429fc962EbE37766B8601D70e0D6] */\n  0xffffffffffffffffffffffffffffffffffffffff\n  and\n  0xffffffffffffffffffffffffffffffffffffffff\n  and\n  dup2\n  mstore\n  0x20\n  add\n  swap1\n  dup2\n  mstore\n  0x20\n  add\n  0x00\n  keccak256\n    /* \"contracts/GiftCardETH.sol\":526:651  users[0x8dC03105bA1A429fc962EbE37766B8601D70e0D6] = User(... */\n  0x00\n  dup3\n  add\n  mload\n  dup2\n  0x00\n  add\n  swap1\n  dup2\n  tag_7\n  swap2\n  swap1\n  tag_8\n  jump\t// in\ntag_7:\n  pop\n  0x20\n  dup3\n  add\n  mload\n  dup2\n  0x01\n  add\n  exp(0x0100, 0x00)\n  dup2\n  sload\n  dup2\n  0xff\n  mul\n  not\n  and\n  swap1\n  dup4\n  0x01\n  dup2\n  gt\n  iszero\n  tag_9\n  jumpi\n  tag_10\n  tag_6\n  jump\t// in\ntag_10:\ntag_9:\n  mul\n  or\n  swap1\n  sstore\n  pop\n  swap1\n  pop\n  pop\n    /* \"contracts/GiftCardETH.sol\":661:674  userAddresses */\n  0x04\n    /* \"contracts/GiftCardETH.sol\":680:722  0x8dC03105bA1A429fc962EbE37766B8601D70e0D6 */\n  0x8dc03105ba1a429fc962ebe37766b8601d70e0d6\n    /* \"contracts/GiftCardETH.sol\":661:723  userAddresses.push(0x8dC03105bA1A429fc962EbE37766B8601D70e0D6) */\n  swap1\n  dup1\n  0x01\n  dup2\n  sload\n  add\n  dup1\n  dup3\n  sstore\n  dup1\n  swap2\n  pop\n  pop\n  0x01\n  swap1\n  sub\n  swap1\n  0x00\n  mstore\n  keccak256(0x00, 0x20)\n  add\n  0x00\n  swap1\n  swap2\n  swap1\n  swap2\n  swap1\n  swap2\n  0x0100\n  exp\n  dup2\n  sload\n  dup2\n  0xffffffffffffffffffffffffffffffffffffffff\n  mul\n  not\n  and\n  swap1\n  dup4\n  0xffffffffffffffffffffffffffffffffffffffff\n  and\n  mul\n  or\n  swap1\n  sstore\n  pop\n    /* \"contracts/GiftCardETH.sol\":785:854  User(... */\n  mload(0x40)\n  dup1\n  0x40\n  add\n  0x40\n  mstore\n  dup1\n  mload(0x40)\n  dup1\n  0x40\n  add\n  0x40\n  mstore\n  dup1\n  0x0b\n  dup2\n  mstore\n  0x20\n  add\n  0x4f62616461205361667761000000000000000000000000000000000000000000\n  dup2\n  mstore\n  pop\n  dup2\n  mstore\n  0x20\n  add\n    /* \"contracts/GiftCardETH.sol\":830:844  UserType.ADMIN */\n  0x00\n    /* \"contracts/GiftCardETH.sol\":785:854  User(... */\n  0x01\n  dup2\n  gt\n  iszero\n  tag_12\n  jumpi\n  tag_13\n  tag_6\n  jump\t// in\ntag_13:\ntag_12:\n  dup2\n  mstore\n  pop\n    /* \"contracts/GiftCardETH.sol\":733:738  users */\n  0x00\n    /* \"contracts/GiftCardETH.sol\":733:782  users[0xAd009219D5052664e665c2A95f12e4aBeA6730C0] */\n  dup1\n    /* \"contracts/GiftCardETH.sol\":739:781  0xAd009219D5052664e665c2A95f12e4aBeA6730C0 */\n  0xad009219d5052664e665c2a95f12e4abea6730c0\n    /* \"contracts/GiftCardETH.sol\":733:782  users[0xAd009219D5052664e665c2A95f12e4aBeA6730C0] */\n  0xffffffffffffffffffffffffffffffffffffffff\n  and\n  0xffffffffffffffffffffffffffffffffffffffff\n  and\n  dup2\n  mstore\n  0x20\n  add\n  swap1\n  dup2\n  mstore\n  0x20\n  add\n  0x00\n  keccak256\n    /* \"contracts/GiftCardETH.sol\":733:854  users[0xAd009219D5052664e665c2A95f12e4aBeA6730C0] = User(... */\n  0x00\n  dup3\n  add\n  mload\n  dup2\n  0x00\n  add\n  swap1\n  dup2\n  tag_14\n  swap2\n  swap1\n  tag_8\n  jump\t// in\ntag_14:\n  pop\n  0x20\n  dup3\n  add\n  mload\n  dup2\n  0x01\n  add\n  exp(0x0100, 0x00)\n  dup2\n  sload\n  dup2\n  0xff\n  mul\n  not\n  and\n  swap1\n  dup4\n  0x01\n  dup2\n  gt\n  iszero\n  tag_15\n  jumpi\n  tag_16\n  tag_6\n  jump\t// in\ntag_16:\ntag_15:\n  mul\n  or\n  swap1\n  sstore\n  pop\n  swap1\n  pop\n  pop\n    /* \"contracts/GiftCardETH.sol\":864:877  userAddresses */\n  0x04\n    /* \"contracts/GiftCardETH.sol\":883:925  0xAd009219D5052664e665c2A95f12e4aBeA6730C0 */\n  0xad009219d5052664e665c2a95f12e4abea6730c0\n    /* \"contracts/GiftCardETH.sol\":864:926  userAddresses.push(0xAd009219D5052664e665c2A95f12e4aBeA6730C0) */\n  swap1\n  dup1\n  0x01\n  dup2\n  sload\n  add\n  dup1\n  dup3\n  sstore\n  dup1\n  swap2\n  pop\n  pop\n  0x01\n  swap1\n  sub\n  swap1\n  0x00\n  mstore\n  keccak256(0x00, 0x20)\n  add\n  0x00\n  swap1\n  swap2\n  swap1\n  swap2\n  swap1\n  swap2\n  0x0100\n  exp\n  dup2\n  sload\n  dup2\n  0xffffffffffffffffffffffffffffffffffffffff\n  mul\n  not\n  and\n  swap1\n  dup4\n  0xffffffffffffffffffffffffffffffffffffffff\n  and\n  mul\n  or\n  swap1\n  sstore\n  pop\n    /* \"contracts/GiftCardETH.sol\":313:6135  contract GiftCardETH {... */\n  jump(tag_18)\n    /* \"#utility.yul\":7:187   */\ntag_6:\n    /* \"#utility.yul\":55:132   */\n  0x4e487b7100000000000000000000000000000000000000000000000000000000\n    /* \"#utility.yul\":52:53   */\n  0x00\n    /* \"#utility.yul\":45:133   */\n  mstore\n    /* \"#utility.yul\":152:156   */\n  0x21\n    /* \"#utility.yul\":149:150   */\n  0x04\n    /* \"#utility.yul\":142:157   */\n  mstore\n    /* \"#utility.yul\":176:180   */\n  0x24\n    /* \"#utility.yul\":173:174   */\n  0x00\n    /* \"#utility.yul\":166:181   */\n  revert\n    /* \"#utility.yul\":193:292   */\ntag_19:\n    /* \"#utility.yul\":245:251   */\n  0x00\n    /* \"#utility.yul\":279:284   */\n  dup2\n    /* \"#utility.yul\":273:285   */\n  mload\n    /* \"#utility.yul\":263:285   */\n  swap1\n  pop\n    /* \"#utility.yul\":193:292   */\n  swap2\n  swap1\n  pop\n  jump\t// out\n    /* \"#utility.yul\":298:478   */\ntag_20:\n    /* \"#utility.yul\":346:423   */\n  0x4e487b7100000000000000000000000000000000000000000000000000000000\n    /* \"#utility.yul\":343:344   */\n  0x00\n    /* \"#utility.yul\":336:424   */\n  mstore\n    /* \"#utility.yul\":443:447   */\n  0x41\n    /* \"#utility.yul\":440:441   */\n  0x04\n    /* \"#utility.yul\":433:448   */\n  mstore\n    /* \"#utility.yul\":467:471   */\n  0x24\n    /* \"#utility.yul\":464:465   */\n  0x00\n    /* \"#utility.yul\":457:472   */\n  revert\n    /* \"#utility.yul\":484:664   */\ntag_21:\n    /* \"#utility.yul\":532:609   */\n  0x4e487b7100000000000000000000000000000000000000000000000000000000\n    /* \"#utility.yul\":529:530   */\n  0x00\n    /* \"#utility.yul\":522:610   */\n  mstore\n    /* \"#utility.yul\":629:633   */\n  0x22\n    /* \"#utility.yul\":626:627   */\n  0x04\n    /* \"#utility.yul\":619:634   */\n  mstore\n    /* \"#utility.yul\":653:657   */\n  0x24\n    /* \"#utility.yul\":650:651   */\n  0x00\n    /* \"#utility.yul\":643:658   */\n  revert\n    /* \"#utility.yul\":670:990   */\ntag_22:\n    /* \"#utility.yul\":714:720   */\n  0x00\n    /* \"#utility.yul\":751:752   */\n  0x02\n    /* \"#utility.yul\":745:749   */\n  dup3\n    /* \"#utility.yul\":741:753   */\n  div\n    /* \"#utility.yul\":731:753   */\n  swap1\n  pop\n    /* \"#utility.yul\":798:799   */\n  0x01\n    /* \"#utility.yul\":792:796   */\n  dup3\n    /* \"#utility.yul\":788:800   */\n  and\n    /* \"#utility.yul\":819:837   */\n  dup1\n    /* \"#utility.yul\":809:890   */\n  tag_45\n  jumpi\n    /* \"#utility.yul\":875:879   */\n  0x7f\n    /* \"#utility.yul\":867:873   */\n  dup3\n    /* \"#utility.yul\":863:880   */\n  and\n    /* \"#utility.yul\":853:880   */\n  swap2\n  pop\n    /* \"#utility.yul\":809:890   */\ntag_45:\n    /* \"#utility.yul\":937:939   */\n  0x20\n    /* \"#utility.yul\":929:935   */\n  dup3\n    /* \"#utility.yul\":926:940   */\n  lt\n    /* \"#utility.yul\":906:924   */\n  dup2\n    /* \"#utility.yul\":903:941   */\n  sub\n    /* \"#utility.yul\":900:984   */\n  tag_46\n  jumpi\n    /* \"#utility.yul\":956:974   */\n  tag_47\n  tag_21\n  jump\t// in\ntag_47:\n    /* \"#utility.yul\":900:984   */\ntag_46:\n    /* \"#utility.yul\":721:990   */\n  pop\n    /* \"#utility.yul\":670:990   */\n  swap2\n  swap1\n  pop\n  jump\t// out\n    /* \"#utility.yul\":996:1137   */\ntag_23:\n    /* \"#utility.yul\":1045:1049   */\n  0x00\n    /* \"#utility.yul\":1068:1071   */\n  dup2\n    /* \"#utility.yul\":1060:1071   */\n  swap1\n  pop\n    /* \"#utility.yul\":1091:1094   */\n  dup2\n    /* \"#utility.yul\":1088:1089   */\n  0x00\n    /* \"#utility.yul\":1081:1095   */\n  mstore\n    /* \"#utility.yul\":1125:1129   */\n  0x20\n    /* \"#utility.yul\":1122:1123   */\n  0x00\n    /* \"#utility.yul\":1112:1130   */\n  keccak256\n    /* \"#utility.yul\":1104:1130   */\n  swap1\n  pop\n    /* \"#utility.yul\":996:1137   */\n  swap2\n  swap1\n  pop\n  jump\t// out\n    /* \"#utility.yul\":1143:1236   */\ntag_24:\n    /* \"#utility.yul\":1180:1186   */\n  0x00\n    /* \"#utility.yul\":1227:1229   */\n  0x20\n    /* \"#utility.yul\":1222:1224   */\n  0x1f\n    /* \"#utility.yul\":1215:1220   */\n  dup4\n    /* \"#utility.yul\":1211:1225   */\n  add\n    /* \"#utility.yul\":1207:1230   */\n  div\n    /* \"#utility.yul\":1197:1230   */\n  swap1\n  pop\n    /* \"#utility.yul\":1143:1236   */\n  swap2\n  swap1\n  pop\n  jump\t// out\n    /* \"#utility.yul\":1242:1349   */\ntag_25:\n    /* \"#utility.yul\":1286:1294   */\n  0x00\n    /* \"#utility.yul\":1336:1341   */\n  dup3\n    /* \"#utility.yul\":1330:1334   */\n  dup3\n    /* \"#utility.yul\":1326:1342   */\n  shl\n    /* \"#utility.yul\":1305:1342   */\n  swap1\n  pop\n    /* \"#utility.yul\":1242:1349   */\n  swap3\n  swap2\n  pop\n  pop\n  jump\t// out\n    /* \"#utility.yul\":1355:1748   */\ntag_26:\n    /* \"#utility.yul\":1424:1430   */\n  0x00\n    /* \"#utility.yul\":1474:1475   */\n  0x08\n    /* \"#utility.yul\":1462:1472   */\n  dup4\n    /* \"#utility.yul\":1458:1476   */\n  mul\n    /* \"#utility.yul\":1497:1594   */\n  tag_52\n    /* \"#utility.yul\":1527:1593   */\n  0xffffffffffffffffffffffffffffffffffffffffffffffffffffffffffffffff\n    /* \"#utility.yul\":1516:1525   */\n  dup3\n    /* \"#utility.yul\":1497:1594   */\n  tag_25\n  jump\t// in\ntag_52:\n    /* \"#utility.yul\":1615:1654   */\n  tag_53\n    /* \"#utility.yul\":1645:1653   */\n  dup7\n    /* \"#utility.yul\":1634:1643   */\n  dup4\n    /* \"#utility.yul\":1615:1654   */\n  tag_25\n  jump\t// in\ntag_53:\n    /* \"#utility.yul\":1603:1654   */\n  swap6\n  pop\n    /* \"#utility.yul\":1687:1691   */\n  dup1\n    /* \"#utility.yul\":1683:1692   */\n  not\n    /* \"#utility.yul\":1676:1681   */\n  dup5\n    /* \"#utility.yul\":1672:1693   */\n  and\n    /* \"#utility.yul\":1663:1693   */\n  swap4\n  pop\n    /* \"#utility.yul\":1736:1740   */\n  dup1\n    /* \"#utility.yul\":1726:1734   */\n  dup7\n    /* \"#utility.yul\":1722:1741   */\n  and\n    /* \"#utility.yul\":1715:1720   */\n  dup5\n    /* \"#utility.yul\":1712:1742   */\n  or\n    /* \"#utility.yul\":1702:1742   */\n  swap3\n  pop\n    /* \"#utility.yul\":1431:1748   */\n  pop\n  pop\n    /* \"#utility.yul\":1355:1748   */\n  swap4\n  swap3\n  pop\n  pop\n  pop\n  jump\t// out\n    /* \"#utility.yul\":1754:1831   */\ntag_27:\n    /* \"#utility.yul\":1791:1798   */\n  0x00\n    /* \"#utility.yul\":1820:1825   */\n  dup2\n    /* \"#utility.yul\":1809:1825   */\n  swap1\n  pop\n    /* \"#utility.yul\":1754:1831   */\n  swap2\n  swap1\n  pop\n  jump\t// out\n    /* \"#utility.yul\":1837:1897   */\ntag_28:\n    /* \"#utility.yul\":1865:1868   */\n  0x00\n    /* \"#utility.yul\":1886:1891   */\n  dup2\n    /* \"#utility.yul\":1879:1891   */\n  swap1\n  pop\n    /* \"#utility.yul\":1837:1897   */\n  swap2\n  swap1\n  pop\n  jump\t// out\n    /* \"#utility.yul\":1903:2045   */\ntag_29:\n    /* \"#utility.yul\":1953:1962   */\n  0x00\n    /* \"#utility.yul\":1986:2039   */\n  tag_57\n    /* \"#utility.yul\":2004:2038   */\n  tag_58\n    /* \"#utility.yul\":2013:2037   */\n  tag_59\n    /* \"#utility.yul\":2031:2036   */\n  dup5\n    /* \"#utility.yul\":2013:2037   */\n  tag_27\n  jump\t// in\ntag_59:\n    /* \"#utility.yul\":2004:2038   */\n  tag_28\n  jump\t// in\ntag_58:\n    /* \"#utility.yul\":1986:2039   */\n  tag_27\n  jump\t// in\ntag_57:\n    /* \"#utility.yul\":1973:2039   */\n  swap1\n  pop\n    /* \"#utility.yul\":1903:2045   */\n  swap2\n  swap1\n  pop\n  jump\t// out\n    /* \"#utility.yul\":2051:2126   */\ntag_30:\n    /* \"#utility.yul\":2094:2097   */\n  0x00\n    /* \"#utility.yul\":2115:2120   */\n  dup2\n    /* \"#utility.yul\":2108:2120   */\n  swap1\n  pop\n    /* \"#utility.yul\":2051:2126   */\n  swap2\n  swap1\n  pop\n  jump\t// out\n    /* \"#utility.yul\":2132:2401   */\ntag_31:\n    /* \"#utility.yul\":2242:2281   */\n  tag_62\n    /* \"#utility.yul\":2273:2280   */\n  dup4\n    /* \"#utility.yul\":2242:2281   */\n  tag_29\n  jump\t// in\ntag_62:\n    /* \"#utility.yul\":2303:2394   */\n  tag_63\n    /* \"#utility.yul\":2352:2393   */\n  tag_64\n    /* \"#utility.yul\":2376:2392   */\n  dup3\n    /* \"#utility.yul\":2352:2393   */\n  tag_30\n  jump\t// in\ntag_64:\n    /* \"#utility.yul\":2344:2350   */\n  dup5\n    /* \"#utility.yul\":2337:2341   */\n  dup5\n    /* \"#utility.yul\":2331:2342   */\n  sload\n    /* \"#utility.yul\":2303:2394   */\n  tag_26\n  jump\t// in\ntag_63:\n    /* \"#utility.yul\":2297:2301   */\n  dup3\n    /* \"#utility.yul\":2290:2395   */\n  sstore\n    /* \"#utility.yul\":2208:2401   */\n  pop\n    /* \"#utility.yul\":2132:2401   */\n  pop\n  pop\n  pop\n  jump\t// out\n    /* \"#utility.yul\":2407:2480   */\ntag_32:\n    /* \"#utility.yul\":2452:2455   */\n  0x00\n    /* \"#utility.yul\":2407:2480   */\n  swap1\n  jump\t// out\n    /* \"#utility.yul\":2486:2675   */\ntag_33:\n    /* \"#utility.yul\":2563:2595   */\n  tag_67\n  tag_32\n  jump\t// in\ntag_67:\n    /* \"#utility.yul\":2604:2669   */\n  tag_68\n    /* \"#utility.yul\":2662:2668   */\n  dup2\n    /* \"#utility.yul\":2654:2660   */\n  dup5\n    /* \"#utility.yul\":2648:2652   */\n  dup5\n    /* \"#utility.yul\":2604:2669   */\n  tag_31\n  jump\t// in\ntag_68:\n    /* \"#utility.yul\":2539:2675   */\n  pop\n    /* \"#utility.yul\":2486:2675   */\n  pop\n  pop\n  jump\t// out\n    /* \"#utility.yul\":2681:2867   */\ntag_34:\n    /* \"#utility.yul\":2741:2861   */\ntag_70:\n    /* \"#utility.yul\":2758:2761   */\n  dup2\n    /* \"#utility.yul\":2751:2756   */\n  dup2\n    /* \"#utility.yul\":2748:2762   */\n  lt\n    /* \"#utility.yul\":2741:2861   */\n  iszero\n  tag_72\n  jumpi\n    /* \"#utility.yul\":2812:2851   */\n  tag_73\n    /* \"#utility.yul\":2849:2850   */\n  0x00\n    /* \"#utility.yul\":2842:2847   */\n  dup3\n    /* \"#utility.yul\":2812:2851   */\n  tag_33\n  jump\t// in\ntag_73:\n    /* \"#utility.yul\":2785:2786   */\n  0x01\n    /* \"#utility.yul\":2778:2783   */\n  dup2\n    /* \"#utility.yul\":2774:2787   */\n  add\n    /* \"#utility.yul\":2765:2787   */\n  swap1\n  pop\n    /* \"#utility.yul\":2741:2861   */\n  jump(tag_70)\ntag_72:\n    /* \"#utility.yul\":2681:2867   */\n  pop\n  pop\n  jump\t// out\n    /* \"#utility.yul\":2873:3416   */\ntag_35:\n    /* \"#utility.yul\":2974:2976   */\n  0x1f\n    /* \"#utility.yul\":2969:2972   */\n  dup3\n    /* \"#utility.yul\":2966:2977   */\n  gt\n    /* \"#utility.yul\":2963:3409   */\n  iszero\n  tag_75\n  jumpi\n    /* \"#utility.yul\":3008:3046   */\n  tag_76\n    /* \"#utility.yul\":3040:3045   */\n  dup2\n    /* \"#utility.yul\":3008:3046   */\n  tag_23\n  jump\t// in\ntag_76:\n    /* \"#utility.yul\":3092:3121   */\n  tag_77\n    /* \"#utility.yul\":3110:3120   */\n  dup5\n    /* \"#utility.yul\":3092:3121   */\n  tag_24\n  jump\t// in\ntag_77:\n    /* \"#utility.yul\":3082:3090   */\n  dup2\n    /* \"#utility.yul\":3078:3122   */\n  add\n    /* \"#utility.yul\":3275:3277   */\n  0x20\n    /* \"#utility.yul\":3263:3273   */\n  dup6\n    /* \"#utility.yul\":3260:3278   */\n  lt\n    /* \"#utility.yul\":3257:3306   */\n  iszero\n  tag_78\n  jumpi\n    /* \"#utility.yul\":3296:3304   */\n  dup2\n    /* \"#utility.yul\":3281:3304   */\n  swap1\n  pop\n    /* \"#utility.yul\":3257:3306   */\ntag_78:\n    /* \"#utility.yul\":3319:3399   */\n  tag_79\n    /* \"#utility.yul\":3375:3397   */\n  tag_80\n    /* \"#utility.yul\":3393:3396   */\n  dup6\n    /* \"#utility.yul\":3375:3397   */\n  tag_24\n  jump\t// in\ntag_80:\n    /* \"#utility.yul\":3365:3373   */\n  dup4\n    /* \"#utility.yul\":3361:3398   */\n  add\n    /* \"#utility.yul\":3348:3359   */\n  dup3\n    /* \"#utility.yul\":3319:3399   */\n  tag_34\n  jump\t// in\ntag_79:\n    /* \"#utility.yul\":2978:3409   */\n  pop\n  pop\n    /* \"#utility.yul\":2963:3409   */\ntag_75:\n    /* \"#utility.yul\":2873:3416   */\n  pop\n  pop\n  pop\n  jump\t// out\n    /* \"#utility.yul\":3422:3539   */\ntag_36:\n    /* \"#utility.yul\":3476:3484   */\n  0x00\n    /* \"#utility.yul\":3526:3531   */\n  dup3\n    /* \"#utility.yul\":3520:3524   */\n  dup3\n    /* \"#utility.yul\":3516:3532   */\n  shr\n    /* \"#utility.yul\":3495:3532   */\n  swap1\n  pop\n    /* \"#utility.yul\":3422:3539   */\n  swap3\n  swap2\n  pop\n  pop\n  jump\t// out\n    /* \"#utility.yul\":3545:3714   */\ntag_37:\n    /* \"#utility.yul\":3589:3595   */\n  0x00\n    /* \"#utility.yul\":3622:3673   */\n  tag_83\n    /* \"#utility.yul\":3670:3671   */\n  0x00\n    /* \"#utility.yul\":3666:3672   */\n  not\n    /* \"#utility.yul\":3658:3663   */\n  dup5\n    /* \"#utility.yul\":3655:3656   */\n  0x08\n    /* \"#utility.yul\":3651:3664   */\n  mul\n    /* \"#utility.yul\":3622:3673   */\n  tag_36\n  jump\t// in\ntag_83:\n    /* \"#utility.yul\":3618:3674   */\n  not\n    /* \"#utility.yul\":3703:3707   */\n  dup1\n    /* \"#utility.yul\":3697:3701   */\n  dup4\n    /* \"#utility.yul\":3693:3708   */\n  and\n    /* \"#utility.yul\":3683:3708   */\n  swap2\n  pop\n    /* \"#utility.yul\":3596:3714   */\n  pop\n    /* \"#utility.yul\":3545:3714   */\n  swap3\n  swap2\n  pop\n  pop\n  jump\t// out\n    /* \"#utility.yul\":3719:4014   */\ntag_38:\n    /* \"#utility.yul\":3795:3799   */\n  0x00\n    /* \"#utility.yul\":3941:3970   */\n  tag_85\n    /* \"#utility.yul\":3966:3969   */\n  dup4\n    /* \"#utility.yul\":3960:3964   */\n  dup4\n    /* \"#utility.yul\":3941:3970   */\n  tag_37\n  jump\t// in\ntag_85:\n    /* \"#utility.yul\":3933:3970   */\n  swap2\n  pop\n    /* \"#utility.yul\":4003:4006   */\n  dup3\n    /* \"#utility.yul\":4000:4001   */\n  0x02\n    /* \"#utility.yul\":3996:4007   */\n  mul\n    /* \"#utility.yul\":3990:3994   */\n  dup3\n    /* \"#utility.yul\":3987:4008   */\n  or\n    /* \"#utility.yul\":3979:4008   */\n  swap1\n  pop\n    /* \"#utility.yul\":3719:4014   */\n  swap3\n  swap2\n  pop\n  pop\n  jump\t// out\n    /* \"#utility.yul\":4019:5414   */\ntag_8:\n    /* \"#utility.yul\":4136:4173   */\n  tag_87\n    /* \"#utility.yul\":4169:4172   */\n  dup3\n    /* \"#utility.yul\":4136:4173   */\n  tag_19\n  jump\t// in\ntag_87:\n    /* \"#utility.yul\":4238:4256   */\n  0xffffffffffffffff\n    /* \"#utility.yul\":4230:4236   */\n  dup2\n    /* \"#utility.yul\":4227:4257   */\n  gt\n    /* \"#utility.yul\":4224:4280   */\n  iszero\n  tag_88\n  jumpi\n    /* \"#utility.yul\":4260:4278   */\n  tag_89\n  tag_20\n  jump\t// in\ntag_89:\n    /* \"#utility.yul\":4224:4280   */\ntag_88:\n    /* \"#utility.yul\":4304:4342   */\n  tag_90\n    /* \"#utility.yul\":4336:4340   */\n  dup3\n    /* \"#utility.yul\":4330:4341   */\n  sload\n    /* \"#utility.yul\":4304:4342   */\n  tag_22\n  jump\t// in\ntag_90:\n    /* \"#utility.yul\":4389:4456   */\n  tag_91\n    /* \"#utility.yul\":4449:4455   */\n  dup3\n    /* \"#utility.yul\":4441:4447   */\n  dup3\n    /* \"#utility.yul\":4435:4439   */\n  dup6\n    /* \"#utility.yul\":4389:4456   */\n  tag_35\n  jump\t// in\ntag_91:\n    /* \"#utility.yul\":4483:4484   */\n  0x00\n    /* \"#utility.yul\":4507:4511   */\n  0x20\n    /* \"#utility.yul\":4494:4511   */\n  swap1\n  pop\n    /* \"#utility.yul\":4539:4541   */\n  0x1f\n    /* \"#utility.yul\":4531:4537   */\n  dup4\n    /* \"#utility.yul\":4528:4542   */\n  gt\n    /* \"#utility.yul\":4556:4557   */\n  0x01\n    /* \"#utility.yul\":4551:5169   */\n  dup2\n  eq\n  tag_93\n  jumpi\n    /* \"#utility.yul\":5213:5214   */\n  0x00\n    /* \"#utility.yul\":5230:5236   */\n  dup5\n    /* \"#utility.yul\":5227:5304   */\n  iszero\n  tag_94\n  jumpi\n    /* \"#utility.yul\":5279:5288   */\n  dup3\n    /* \"#utility.yul\":5274:5277   */\n  dup8\n    /* \"#utility.yul\":5270:5289   */\n  add\n    /* \"#utility.yul\":5264:5290   */\n  mload\n    /* \"#utility.yul\":5255:5290   */\n  swap1\n  pop\n    /* \"#utility.yul\":5227:5304   */\ntag_94:\n    /* \"#utility.yul\":5330:5397   */\n  tag_95\n    /* \"#utility.yul\":5390:5396   */\n  dup6\n    /* \"#utility.yul\":5383:5388   */\n  dup3\n    /* \"#utility.yul\":5330:5397   */\n  tag_38\n  jump\t// in\ntag_95:\n    /* \"#utility.yul\":5324:5328   */\n  dup7\n    /* \"#utility.yul\":5317:5398   */\n  sstore\n    /* \"#utility.yul\":5186:5408   */\n  pop\n    /* \"#utility.yul\":4521:5408   */\n  jump(tag_92)\n    /* \"#utility.yul\":4551:5169   */\ntag_93:\n    /* \"#utility.yul\":4603:4607   */\n  0x1f\n    /* \"#utility.yul\":4599:4608   */\n  not\n    /* \"#utility.yul\":4591:4597   */\n  dup5\n    /* \"#utility.yul\":4587:4609   */\n  and\n    /* \"#utility.yul\":4637:4674   */\n  tag_96\n    /* \"#utility.yul\":4669:4673   */\n  dup7\n    /* \"#utility.yul\":4637:4674   */\n  tag_23\n  jump\t// in\ntag_96:\n    /* \"#utility.yul\":4696:4697   */\n  0x00\n    /* \"#utility.yul\":4710:4918   */\ntag_97:\n    /* \"#utility.yul\":4724:4731   */\n  dup3\n    /* \"#utility.yul\":4721:4722   */\n  dup2\n    /* \"#utility.yul\":4718:4732   */\n  lt\n    /* \"#utility.yul\":4710:4918   */\n  iszero\n  tag_99\n  jumpi\n    /* \"#utility.yul\":4803:4812   */\n  dup5\n    /* \"#utility.yul\":4798:4801   */\n  dup10\n    /* \"#utility.yul\":4794:4813   */\n  add\n    /* \"#utility.yul\":4788:4814   */\n  mload\n    /* \"#utility.yul\":4780:4786   */\n  dup3\n    /* \"#utility.yul\":4773:4815   */\n  sstore\n    /* \"#utility.yul\":4854:4855   */\n  0x01\n    /* \"#utility.yul\":4846:4852   */\n  dup3\n    /* \"#utility.yul\":4842:4856   */\n  add\n    /* \"#utility.yul\":4832:4856   */\n  swap2\n  pop\n    /* \"#utility.yul\":4901:4903   */\n  0x20\n    /* \"#utility.yul\":4890:4899   */\n  dup6\n    /* \"#utility.yul\":4886:4904   */\n  add\n    /* \"#utility.yul\":4873:4904   */\n  swap5\n  pop\n    /* \"#utility.yul\":4747:4751   */\n  0x20\n    /* \"#utility.yul\":4744:4745   */\n  dup2\n    /* \"#utility.yul\":4740:4752   */\n  add\n    /* \"#utility.yul\":4735:4752   */\n  swap1\n  pop\n    /* \"#utility.yul\":4710:4918   */\n  jump(tag_97)\ntag_99:\n    /* \"#utility.yul\":4946:4952   */\n  dup7\n    /* \"#utility.yul\":4937:4944   */\n  dup4\n    /* \"#utility.yul\":4934:4953   */\n  lt\n    /* \"#utility.yul\":4931:5110   */\n  iszero\n  tag_100\n  jumpi\n    /* \"#utility.yul\":5004:5013   */\n  dup5\n    /* \"#utility.yul\":4999:5002   */\n  dup10\n    /* \"#utility.yul\":4995:5014   */\n  add\n    /* \"#utility.yul\":4989:5015   */\n  mload\n    /* \"#utility.yul\":5047:5095   */\n  tag_101\n    /* \"#utility.yul\":5089:5093   */\n  0x1f\n    /* \"#utility.yul\":5081:5087   */\n  dup10\n    /* \"#utility.yul\":5077:5094   */\n  and\n    /* \"#utility.yul\":5066:5075   */\n  dup3\n    /* \"#utility.yul\":5047:5095   */\n  tag_37\n  jump\t// in\ntag_101:\n    /* \"#utility.yul\":5039:5045   */\n  dup4\n    /* \"#utility.yul\":5032:5096   */\n  sstore\n    /* \"#utility.yul\":4954:5110   */\n  pop\n    /* \"#utility.yul\":4931:5110   */\ntag_100:\n    /* \"#utility.yul\":5156:5157   */\n  0x01\n    /* \"#utility.yul\":5152:5153   */\n  0x02\n    /* \"#utility.yul\":5144:5150   */\n  dup9\n    /* \"#utility.yul\":5140:5154   */\n  mul\n    /* \"#utility.yul\":5136:5158   */\n  add\n    /* \"#utility.yul\":5130:5134   */\n  dup9\n    /* \"#utility.yul\":5123:5159   */\n  sstore\n    /* \"#utility.yul\":4558:5169   */\n  pop\n  pop\n  pop\n    /* \"#utility.yul\":4521:5408   */\ntag_92:\n  pop\n    /* \"#utility.yul\":4111:5414   */\n  pop\n  pop\n  pop\n    /* \"#utility.yul\":4019:5414   */\n  pop\n  pop\n  jump\t// out\n    /* \"contracts/GiftCardETH.sol\":313:6135  contract GiftCardETH {... */\ntag_18:\n  dataSize(sub_0)\n  dup1\n  dataOffset(sub_0)\n  0x00\n  codecopy\n  0x00\n  return\nstop\n\nsub_0: assembly {\n        /* \"contracts/GiftCardETH.sol\":313:6135  contract GiftCardETH {... */\n      mstore(0x40, 0x80)\n      jumpi(tag_1, lt(calldatasize, 0x04))\n      shr(0xe0, calldataload(0x00))\n      dup1\n      0x27e26c8c\n      eq\n      tag_3\n      jumpi\n      dup1\n      0x2b4a9dda\n      eq\n      tag_4\n      jumpi\n      dup1\n      0x4cf57138\n      eq\n      tag_5\n      jumpi\n      dup1\n      0xa34f011c\n      eq\n      tag_6\n      jumpi\n      dup1\n      0xa927db0d\n      eq\n      tag_7\n      jumpi\n      jump(tag_2)\n    tag_1:\n      jumpi(tag_2, calldatasize)\n      stop\n    tag_2:\n      stop\n        /* \"contracts/GiftCardETH.sol\":5667:6062  function redeemCard(string calldata _code) public checkGiftCardStatus(_code) reentrancyGuard{... */\n    tag_3:\n      callvalue\n      dup1\n      iszero\n      tag_12\n      jumpi\n      0x00\n      dup1\n      revert\n    tag_12:\n      pop\n      tag_13\n      0x04\n      dup1\n      calldatasize\n      sub\n      dup2\n      add\n      swap1\n      tag_14\n      swap2\n      swap1\n      tag_15\n      jump\t// in\n    tag_14:\n      tag_16\n      jump\t// in\n    tag_13:\n      stop\n        /* \"contracts/GiftCardETH.sol\":4385:5662  function getMyCard() public view returns (GiftCard[] memory) {... */\n    tag_4:\n      callvalue\n      dup1\n      iszero\n      tag_17\n      jumpi\n      0x00\n      dup1\n      revert\n    tag_17:\n      pop\n      tag_18\n      tag_19\n      jump\t// in\n    tag_18:\n      mload(0x40)\n      tag_20\n      swap2\n      swap1\n      tag_21\n      jump\t// in\n    tag_20:\n      mload(0x40)\n      dup1\n      swap2\n      sub\n      swap1\n      return\n        /* \"contracts/GiftCardETH.sol\":2146:2864  function getGiftCardByStatus(GiftCardStatus status)... */\n    tag_5:\n      callvalue\n      dup1\n      iszero\n      tag_22\n      jumpi\n      0x00\n      dup1\n      revert\n    tag_22:\n      pop\n      tag_23\n      0x04\n      dup1\n      calldatasize\n      sub\n      dup2\n      add\n      swap1\n      tag_24\n      swap2\n      swap1\n      tag_25\n      jump\t// in\n    tag_24:\n      tag_26\n      jump\t// in\n    tag_23:\n      mload(0x40)\n      tag_27\n      swap2\n      swap1\n      tag_21\n      jump\t// in\n    tag_27:\n      mload(0x40)\n      dup1\n      swap2\n      sub\n      swap1\n      return\n        /* \"contracts/GiftCardETH.sol\":4173:4379  function buyGiftCard() external payable {... */\n    tag_6:\n      tag_28\n      tag_29\n      jump\t// in\n    tag_28:\n      stop\n        /* \"contracts/GiftCardETH.sol\":2870:3241  function getAllGiftCards()... */\n    tag_7:\n      callvalue\n      dup1\n      iszero\n      tag_30\n      jumpi\n      0x00\n      dup1\n      revert\n    tag_30:\n      pop\n      tag_31\n      tag_32\n      jump\t// in\n    tag_31:\n      mload(0x40)\n      tag_33\n      swap2\n      swap1\n      tag_21\n      jump\t// in\n    tag_33:\n      mload(0x40)\n      dup1\n      swap2\n      sub\n      swap1\n      return\n        /* \"contracts/GiftCardETH.sol\":5667:6062  function redeemCard(string calldata _code) public checkGiftCardStatus(_code) reentrancyGuard{... */\n    tag_16:\n        /* \"contracts/GiftCardETH.sol\":5737:5742  _code */\n      dup2\n      dup2\n        /* \"contracts/GiftCardETH.sol\":1504:1697  modifier checkGiftCardStatus(string memory code) {... */\n      dup1\n      dup1\n      0x1f\n      add\n      0x20\n      dup1\n      swap2\n      div\n      mul\n      0x20\n      add\n      mload(0x40)\n      swap1\n      dup2\n      add\n      0x40\n      mstore\n      dup1\n      swap4\n      swap3\n      swap2\n      swap1\n      dup2\n      dup2\n      mstore\n      0x20\n      add\n      dup4\n      dup4\n      dup1\n      dup3\n      dup5\n      calldatacopy\n      0x00\n      dup2\n      dup5\n      add\n      mstore\n      not(0x1f)\n      0x1f\n      dup3\n      add\n      and\n      swap1\n      pop\n      dup1\n      dup4\n      add\n      swap3\n      pop\n      pop\n      pop\n      pop\n      pop\n      pop\n      pop\n        /* \"contracts/GiftCardETH.sol\":1618:1638  GiftCardStatus.VALID */\n      0x01\n        /* \"contracts/GiftCardETH.sol\":1584:1638  giftCards[code].giftCardStatus == GiftCardStatus.VALID */\n      dup1\n      dup2\n      gt\n      iszero\n      tag_35\n      jumpi\n      tag_36\n      tag_37\n      jump\t// in\n    tag_36:\n    tag_35:\n        /* \"contracts/GiftCardETH.sol\":1584:1593  giftCards */\n      0x01\n        /* \"contracts/GiftCardETH.sol\":1594:1598  code */\n      dup3\n        /* \"contracts/GiftCardETH.sol\":1584:1599  giftCards[code] */\n      mload(0x40)\n      tag_38\n      swap2\n      swap1\n      tag_39\n      jump\t// in\n    tag_38:\n      swap1\n      dup2\n      mstore\n      0x20\n      add\n      mload(0x40)\n      dup1\n      swap2\n      sub\n      swap1\n      keccak256\n        /* \"contracts/GiftCardETH.sol\":1584:1614  giftCards[code].giftCardStatus */\n      0x02\n      add\n      0x00\n      swap1\n      sload\n      swap1\n      0x0100\n      exp\n      swap1\n      div\n      0xff\n      and\n        /* \"contracts/GiftCardETH.sol\":1584:1638  giftCards[code].giftCardStatus == GiftCardStatus.VALID */\n      0x01\n      dup2\n      gt\n      iszero\n      tag_40\n      jumpi\n      tag_41\n      tag_37\n      jump\t// in\n    tag_41:\n    tag_40:\n      eq\n        /* \"contracts/GiftCardETH.sol\":1563:1679  require(... */\n      tag_42\n      jumpi\n      mload(0x40)\n      0x08c379a000000000000000000000000000000000000000000000000000000000\n      dup2\n      mstore\n      0x04\n      add\n      tag_43\n      swap1\n      tag_44\n      jump\t// in\n    tag_43:\n      mload(0x40)\n      dup1\n      swap2\n      sub\n      swap1\n      revert\n    tag_42:\n        /* \"contracts/GiftCardETH.sol\":1392:1398  locked */\n      0x02\n      0x00\n      swap1\n      sload\n      swap1\n      0x0100\n      exp\n      swap1\n      div\n      0xff\n      and\n        /* \"contracts/GiftCardETH.sol\":1391:1398  !locked */\n      iszero\n        /* \"contracts/GiftCardETH.sol\":1383:1434  require(!locked, \"ReentrancyGuard: reentrant call\") */\n      tag_46\n      jumpi\n      mload(0x40)\n      0x08c379a000000000000000000000000000000000000000000000000000000000\n      dup2\n      mstore\n      0x04\n      add\n      tag_47\n      swap1\n      tag_48\n      jump\t// in\n    tag_47:\n      mload(0x40)\n      dup1\n      swap2\n      sub\n      swap1\n      revert\n    tag_46:\n        /* \"contracts/GiftCardETH.sol\":1453:1457  true */\n      0x01\n        /* \"contracts/GiftCardETH.sol\":1444:1450  locked */\n      0x02\n      0x00\n        /* \"contracts/GiftCardETH.sol\":1444:1457  locked = true */\n      0x0100\n      exp\n      dup2\n      sload\n      dup2\n      0xff\n      mul\n      not\n      and\n      swap1\n      dup4\n      iszero\n      iszero\n      mul\n      or\n      swap1\n      sstore\n      pop\n        /* \"contracts/GiftCardETH.sol\":5770:5781  bool status */\n      0x00\n        /* \"contracts/GiftCardETH.sol\":5786:5796  msg.sender */\n      caller\n        /* \"contracts/GiftCardETH.sol\":5786:5801  msg.sender.call */\n      0xffffffffffffffffffffffffffffffffffffffff\n      and\n        /* \"contracts/GiftCardETH.sol\":5808:5817  giftCards */\n      0x01\n        /* \"contracts/GiftCardETH.sol\":5818:5823  _code */\n      dup6\n      dup6\n        /* \"contracts/GiftCardETH.sol\":5808:5824  giftCards[_code] */\n      mload(0x40)\n      tag_50\n      swap3\n      swap2\n      swap1\n      tag_51\n      jump\t// in\n    tag_50:\n      swap1\n      dup2\n      mstore\n      0x20\n      add\n      mload(0x40)\n      dup1\n      swap2\n      sub\n      swap1\n      keccak256\n        /* \"contracts/GiftCardETH.sol\":5808:5831  giftCards[_code].amount */\n      0x01\n      add\n      sload\n        /* \"contracts/GiftCardETH.sol\":5786:5836  msg.sender.call{value:giftCards[_code].amount}(\"\") */\n      mload(0x40)\n      tag_52\n      swap1\n      tag_53\n      jump\t// in\n    tag_52:\n      0x00\n      mload(0x40)\n      dup1\n      dup4\n      sub\n      dup2\n      dup6\n      dup8\n      gas\n      call\n      swap3\n      pop\n      pop\n      pop\n      returndatasize\n      dup1\n      0x00\n      dup2\n      eq\n      tag_56\n      jumpi\n      mload(0x40)\n      swap2\n      pop\n      and(add(returndatasize, 0x3f), not(0x1f))\n      dup3\n      add\n      0x40\n      mstore\n      returndatasize\n      dup3\n      mstore\n      returndatasize\n      0x00\n      0x20\n      dup5\n      add\n      returndatacopy\n      jump(tag_55)\n    tag_56:\n      0x60\n      swap2\n      pop\n    tag_55:\n      pop\n        /* \"contracts/GiftCardETH.sol\":5769:5836  (bool status,) = msg.sender.call{value:giftCards[_code].amount}(\"\") */\n      pop\n      swap1\n      pop\n        /* \"contracts/GiftCardETH.sol\":5849:5855  status */\n      dup1\n        /* \"contracts/GiftCardETH.sol\":5846:6055  if(status){... */\n      iszero\n      tag_57\n      jumpi\n        /* \"contracts/GiftCardETH.sol\":5904:5926  GiftCardStatus.EXPIRED */\n      0x00\n        /* \"contracts/GiftCardETH.sol\":5870:5879  giftCards */\n      0x01\n        /* \"contracts/GiftCardETH.sol\":5880:5885  _code */\n      dup6\n      dup6\n        /* \"contracts/GiftCardETH.sol\":5870:5886  giftCards[_code] */\n      mload(0x40)\n      tag_58\n      swap3\n      swap2\n      swap1\n      tag_51\n      jump\t// in\n    tag_58:\n      swap1\n      dup2\n      mstore\n      0x20\n      add\n      mload(0x40)\n      dup1\n      swap2\n      sub\n      swap1\n      keccak256\n        /* \"contracts/GiftCardETH.sol\":5870:5901  giftCards[_code].giftCardStatus */\n      0x02\n      add\n      0x00\n        /* \"contracts/GiftCardETH.sol\":5870:5926  giftCards[_code].giftCardStatus = GiftCardStatus.EXPIRED */\n      0x0100\n      exp\n      dup2\n      sload\n      dup2\n      0xff\n      mul\n      not\n      and\n      swap1\n      dup4\n      0x01\n      dup2\n      gt\n      iszero\n      tag_59\n      jumpi\n      tag_60\n      tag_37\n      jump\t// in\n    tag_60:\n    tag_59:\n      mul\n      or\n      swap1\n      sstore\n      pop\n        /* \"contracts/GiftCardETH.sol\":5966:5971  users */\n      0x00\n        /* \"contracts/GiftCardETH.sol\":5966:5983  users[msg.sender] */\n      dup1\n        /* \"contracts/GiftCardETH.sol\":5972:5982  msg.sender */\n      caller\n        /* \"contracts/GiftCardETH.sol\":5966:5983  users[msg.sender] */\n      0xffffffffffffffffffffffffffffffffffffffff\n      and\n      0xffffffffffffffffffffffffffffffffffffffff\n      and\n      dup2\n      mstore\n      0x20\n      add\n      swap1\n      dup2\n      mstore\n      0x20\n      add\n      0x00\n      keccak256\n        /* \"contracts/GiftCardETH.sol\":5966:5988  users[msg.sender].name */\n      0x00\n      add\n        /* \"contracts/GiftCardETH.sol\":5940:5949  giftCards */\n      0x01\n        /* \"contracts/GiftCardETH.sol\":5950:5955  _code */\n      dup6\n      dup6\n        /* \"contracts/GiftCardETH.sol\":5940:5956  giftCards[_code] */\n      mload(0x40)\n      tag_61\n      swap3\n      swap2\n      swap1\n      tag_51\n      jump\t// in\n    tag_61:\n      swap1\n      dup2\n      mstore\n      0x20\n      add\n      mload(0x40)\n      dup1\n      swap2\n      sub\n      swap1\n      keccak256\n        /* \"contracts/GiftCardETH.sol\":5940:5963  giftCards[_code].getter */\n      0x03\n      add\n        /* \"contracts/GiftCardETH.sol\":5940:5988  giftCards[_code].getter = users[msg.sender].name */\n      swap1\n      dup2\n      tag_62\n      swap2\n      swap1\n      tag_63\n      jump\t// in\n    tag_62:\n      pop\n        /* \"contracts/GiftCardETH.sol\":6007:6044  CardRedeemed(giftCards[_code].amount) */\n      0x604d6de1b6eb3f39c6ab9d4981a20d17f88c5bef33495ae58dabeb097ba7a41a\n        /* \"contracts/GiftCardETH.sol\":6020:6029  giftCards */\n      0x01\n        /* \"contracts/GiftCardETH.sol\":6030:6035  _code */\n      dup6\n      dup6\n        /* \"contracts/GiftCardETH.sol\":6020:6036  giftCards[_code] */\n      mload(0x40)\n      tag_64\n      swap3\n      swap2\n      swap1\n      tag_51\n      jump\t// in\n    tag_64:\n      swap1\n      dup2\n      mstore\n      0x20\n      add\n      mload(0x40)\n      dup1\n      swap2\n      sub\n      swap1\n      keccak256\n        /* \"contracts/GiftCardETH.sol\":6020:6043  giftCards[_code].amount */\n      0x01\n      add\n      sload\n        /* \"contracts/GiftCardETH.sol\":6007:6044  CardRedeemed(giftCards[_code].amount) */\n      mload(0x40)\n      tag_65\n      swap2\n      swap1\n      tag_66\n      jump\t// in\n    tag_65:\n      mload(0x40)\n      dup1\n      swap2\n      sub\n      swap1\n      log1\n        /* \"contracts/GiftCardETH.sol\":5846:6055  if(status){... */\n    tag_57:\n        /* \"contracts/GiftCardETH.sol\":5759:6062  {... */\n      pop\n        /* \"contracts/GiftCardETH.sol\":1487:1492  false */\n      0x00\n        /* \"contracts/GiftCardETH.sol\":1478:1484  locked */\n      0x02\n      0x00\n        /* \"contracts/GiftCardETH.sol\":1478:1492  locked = false */\n      0x0100\n      exp\n      dup2\n      sload\n      dup2\n      0xff\n      mul\n      not\n      and\n      swap1\n      dup4\n      iszero\n      iszero\n      mul\n      or\n      swap1\n      sstore\n      pop\n        /* \"contracts/GiftCardETH.sol\":5667:6062  function redeemCard(string calldata _code) public checkGiftCardStatus(_code) reentrancyGuard{... */\n      pop\n      pop\n      pop\n      jump\t// out\n        /* \"contracts/GiftCardETH.sol\":4385:5662  function getMyCard() public view returns (GiftCard[] memory) {... */\n    tag_19:\n        /* \"contracts/GiftCardETH.sol\":4427:4444  GiftCard[] memory */\n      0x60\n        /* \"contracts/GiftCardETH.sol\":4456:4469  uint256 count */\n      0x00\n        /* \"contracts/GiftCardETH.sol\":4483:4505  bytes32 senderNameHash */\n      dup1\n        /* \"contracts/GiftCardETH.sol\":4548:4553  users */\n      dup1\n        /* \"contracts/GiftCardETH.sol\":4548:4565  users[msg.sender] */\n      0x00\n        /* \"contracts/GiftCardETH.sol\":4554:4564  msg.sender */\n      caller\n        /* \"contracts/GiftCardETH.sol\":4548:4565  users[msg.sender] */\n      0xffffffffffffffffffffffffffffffffffffffff\n      and\n      0xffffffffffffffffffffffffffffffffffffffff\n      and\n      dup2\n      mstore\n      0x20\n      add\n      swap1\n      dup2\n      mstore\n      0x20\n      add\n      0x00\n      keccak256\n        /* \"contracts/GiftCardETH.sol\":4548:4570  users[msg.sender].name */\n      0x00\n      add\n        /* \"contracts/GiftCardETH.sol\":4531:4571  abi.encodePacked(users[msg.sender].name) */\n      add(0x20, mload(0x40))\n      tag_68\n      swap2\n      swap1\n      tag_69\n      jump\t// in\n    tag_68:\n      mload(0x40)\n      0x20\n      dup2\n      dup4\n      sub\n      sub\n      dup2\n      mstore\n      swap1\n      0x40\n      mstore\n        /* \"contracts/GiftCardETH.sol\":4508:4581  keccak256(... */\n      dup1\n      mload\n      swap1\n      0x20\n      add\n      keccak256\n        /* \"contracts/GiftCardETH.sol\":4483:4581  bytes32 senderNameHash = keccak256(... */\n      swap1\n      pop\n        /* \"contracts/GiftCardETH.sol\":4597:4606  uint256 i */\n      0x00\n        /* \"contracts/GiftCardETH.sol\":4592:5032  for (uint256 i = 0; i < giftCardCodes.length; i++) {... */\n    tag_70:\n        /* \"contracts/GiftCardETH.sol\":4616:4629  giftCardCodes */\n      0x03\n        /* \"contracts/GiftCardETH.sol\":4616:4636  giftCardCodes.length */\n      dup1\n      sload\n      swap1\n      pop\n        /* \"contracts/GiftCardETH.sol\":4612:4613  i */\n      dup2\n        /* \"contracts/GiftCardETH.sol\":4612:4636  i < giftCardCodes.length */\n      lt\n        /* \"contracts/GiftCardETH.sol\":4592:5032  for (uint256 i = 0; i < giftCardCodes.length; i++) {... */\n      iszero\n      tag_71\n      jumpi\n        /* \"contracts/GiftCardETH.sol\":4798:4812  senderNameHash */\n      dup2\n        /* \"contracts/GiftCardETH.sol\":4726:4735  giftCards */\n      0x01\n        /* \"contracts/GiftCardETH.sol\":4736:4749  giftCardCodes */\n      0x03\n        /* \"contracts/GiftCardETH.sol\":4750:4751  i */\n      dup4\n        /* \"contracts/GiftCardETH.sol\":4736:4752  giftCardCodes[i] */\n      dup2\n      sload\n      dup2\n      lt\n      tag_73\n      jumpi\n      tag_74\n      tag_75\n      jump\t// in\n    tag_74:\n    tag_73:\n      swap1\n      0x00\n      mstore\n      keccak256(0x00, 0x20)\n      add\n        /* \"contracts/GiftCardETH.sol\":4726:4753  giftCards[giftCardCodes[i]] */\n      mload(0x40)\n      tag_77\n      swap2\n      swap1\n      tag_69\n      jump\t// in\n    tag_77:\n      swap1\n      dup2\n      mstore\n      0x20\n      add\n      mload(0x40)\n      dup1\n      swap2\n      sub\n      swap1\n      keccak256\n        /* \"contracts/GiftCardETH.sol\":4726:4759  giftCards[giftCardCodes[i]].buyer */\n      0x00\n      add\n        /* \"contracts/GiftCardETH.sol\":4709:4760  abi.encodePacked(giftCards[giftCardCodes[i]].buyer) */\n      add(0x20, mload(0x40))\n      tag_78\n      swap2\n      swap1\n      tag_69\n      jump\t// in\n    tag_78:\n      mload(0x40)\n      0x20\n      dup2\n      dup4\n      sub\n      sub\n      dup2\n      mstore\n      swap1\n      0x40\n      mstore\n        /* \"contracts/GiftCardETH.sol\":4678:4778  keccak256(... */\n      dup1\n      mload\n      swap1\n      0x20\n      add\n      keccak256\n        /* \"contracts/GiftCardETH.sol\":4678:4812  keccak256(... */\n      eq\n        /* \"contracts/GiftCardETH.sol\":4678:4967  keccak256(... */\n      dup1\n      tag_79\n      jumpi\n      pop\n        /* \"contracts/GiftCardETH.sol\":4953:4967  senderNameHash */\n      dup2\n        /* \"contracts/GiftCardETH.sol\":4880:4889  giftCards */\n      0x01\n        /* \"contracts/GiftCardETH.sol\":4890:4903  giftCardCodes */\n      0x03\n        /* \"contracts/GiftCardETH.sol\":4904:4905  i */\n      dup4\n        /* \"contracts/GiftCardETH.sol\":4890:4906  giftCardCodes[i] */\n      dup2\n      sload\n      dup2\n      lt\n      tag_80\n      jumpi\n      tag_81\n      tag_75\n      jump\t// in\n    tag_81:\n    tag_80:\n      swap1\n      0x00\n      mstore\n      keccak256(0x00, 0x20)\n      add\n        /* \"contracts/GiftCardETH.sol\":4880:4907  giftCards[giftCardCodes[i]] */\n      mload(0x40)\n      tag_83\n      swap2\n      swap1\n      tag_69\n      jump\t// in\n    tag_83:\n      swap1\n      dup2\n      mstore\n      0x20\n      add\n      mload(0x40)\n      dup1\n      swap2\n      sub\n      swap1\n      keccak256\n        /* \"contracts/GiftCardETH.sol\":4880:4914  giftCards[giftCardCodes[i]].getter */\n      0x03\n      add\n        /* \"contracts/GiftCardETH.sol\":4863:4915  abi.encodePacked(giftCards[giftCardCodes[i]].getter) */\n      add(0x20, mload(0x40))\n      tag_84\n      swap2\n      swap1\n      tag_69\n      jump\t// in\n    tag_84:\n      mload(0x40)\n      0x20\n      dup2\n      dup4\n      sub\n      sub\n      dup2\n      mstore\n      swap1\n      0x40\n      mstore\n        /* \"contracts/GiftCardETH.sol\":4832:4933  keccak256(... */\n      dup1\n      mload\n      swap1\n      0x20\n      add\n      keccak256\n        /* \"contracts/GiftCardETH.sol\":4832:4967  keccak256(... */\n      eq\n        /* \"contracts/GiftCardETH.sol\":4678:4967  keccak256(... */\n    tag_79:\n        /* \"contracts/GiftCardETH.sol\":4657:5022  if (... */\n      iszero\n      tag_85\n      jumpi\n        /* \"contracts/GiftCardETH.sol\":5000:5007  count++ */\n      dup3\n      dup1\n      tag_86\n      swap1\n      tag_87\n      jump\t// in\n    tag_86:\n      swap4\n      pop\n      pop\n        /* \"contracts/GiftCardETH.sol\":4657:5022  if (... */\n    tag_85:\n        /* \"contracts/GiftCardETH.sol\":4638:4641  i++ */\n      dup1\n      dup1\n      0x01\n      add\n      swap2\n      pop\n      pop\n        /* \"contracts/GiftCardETH.sol\":4592:5032  for (uint256 i = 0; i < giftCardCodes.length; i++) {... */\n      jump(tag_70)\n    tag_71:\n      pop\n        /* \"contracts/GiftCardETH.sol\":5042:5067  GiftCard[] memory myCards */\n      0x00\n        /* \"contracts/GiftCardETH.sol\":5085:5090  count */\n      dup3\n        /* \"contracts/GiftCardETH.sol\":5070:5091  new GiftCard[](count) */\n      0xffffffffffffffff\n      dup2\n      gt\n      iszero\n      tag_88\n      jumpi\n      tag_89\n      tag_90\n      jump\t// in\n    tag_89:\n    tag_88:\n      mload(0x40)\n      swap1\n      dup1\n      dup3\n      mstore\n      dup1\n      0x20\n      mul\n      0x20\n      add\n      dup3\n      add\n      0x40\n      mstore\n      dup1\n      iszero\n      tag_91\n      jumpi\n      dup2\n      0x20\n      add\n    tag_92:\n      tag_93\n      tag_94\n      jump\t// in\n    tag_93:\n      dup2\n      mstore\n      0x20\n      add\n      swap1\n      0x01\n      swap1\n      sub\n      swap1\n      dup2\n      tag_92\n      jumpi\n      swap1\n      pop\n    tag_91:\n      pop\n        /* \"contracts/GiftCardETH.sol\":5042:5091  GiftCard[] memory myCards = new GiftCard[](count) */\n      swap1\n      pop\n        /* \"contracts/GiftCardETH.sol\":5101:5114  uint256 index */\n      0x00\n        /* \"contracts/GiftCardETH.sol\":5134:5143  uint256 i */\n      dup1\n        /* \"contracts/GiftCardETH.sol\":5129:5631  for (uint256 i = 0; i < giftCardCodes.length; i++) {... */\n    tag_95:\n        /* \"contracts/GiftCardETH.sol\":5153:5166  giftCardCodes */\n      0x03\n        /* \"contracts/GiftCardETH.sol\":5153:5173  giftCardCodes.length */\n      dup1\n      sload\n      swap1\n      pop\n        /* \"contracts/GiftCardETH.sol\":5149:5150  i */\n      dup2\n        /* \"contracts/GiftCardETH.sol\":5149:5173  i < giftCardCodes.length */\n      lt\n        /* \"contracts/GiftCardETH.sol\":5129:5631  for (uint256 i = 0; i < giftCardCodes.length; i++) {... */\n      iszero\n      tag_96\n      jumpi\n        /* \"contracts/GiftCardETH.sol\":5335:5349  senderNameHash */\n      dup4\n        /* \"contracts/GiftCardETH.sol\":5263:5272  giftCards */\n      0x01\n        /* \"contracts/GiftCardETH.sol\":5273:5286  giftCardCodes */\n      0x03\n        /* \"contracts/GiftCardETH.sol\":5287:5288  i */\n      dup4\n        /* \"contracts/GiftCardETH.sol\":5273:5289  giftCardCodes[i] */\n      dup2\n      sload\n      dup2\n      lt\n      tag_98\n      jumpi\n      tag_99\n      tag_75\n      jump\t// in\n    tag_99:\n    tag_98:\n      swap1\n      0x00\n      mstore\n      keccak256(0x00, 0x20)\n      add\n        /* \"contracts/GiftCardETH.sol\":5263:5290  giftCards[giftCardCodes[i]] */\n      mload(0x40)\n      tag_101\n      swap2\n      swap1\n      tag_69\n      jump\t// in\n    tag_101:\n      swap1\n      dup2\n      mstore\n      0x20\n      add\n      mload(0x40)\n      dup1\n      swap2\n      sub\n      swap1\n      keccak256\n        /* \"contracts/GiftCardETH.sol\":5263:5296  giftCards[giftCardCodes[i]].buyer */\n      0x00\n      add\n        /* \"contracts/GiftCardETH.sol\":5246:5297  abi.encodePacked(giftCards[giftCardCodes[i]].buyer) */\n      add(0x20, mload(0x40))\n      tag_102\n      swap2\n      swap1\n      tag_69\n      jump\t// in\n    tag_102:\n      mload(0x40)\n      0x20\n      dup2\n      dup4\n      sub\n      sub\n      dup2\n      mstore\n      swap1\n      0x40\n      mstore\n        /* \"contracts/GiftCardETH.sol\":5215:5315  keccak256(... */\n      dup1\n      mload\n      swap1\n      0x20\n      add\n      keccak256\n        /* \"contracts/GiftCardETH.sol\":5215:5349  keccak256(... */\n      eq\n        /* \"contracts/GiftCardETH.sol\":5215:5504  keccak256(... */\n      dup1\n      tag_103\n      jumpi\n      pop\n        /* \"contracts/GiftCardETH.sol\":5490:5504  senderNameHash */\n      dup4\n        /* \"contracts/GiftCardETH.sol\":5417:5426  giftCards */\n      0x01\n        /* \"contracts/GiftCardETH.sol\":5427:5440  giftCardCodes */\n      0x03\n        /* \"contracts/GiftCardETH.sol\":5441:5442  i */\n      dup4\n        /* \"contracts/GiftCardETH.sol\":5427:5443  giftCardCodes[i] */\n      dup2\n      sload\n      dup2\n      lt\n      tag_104\n      jumpi\n      tag_105\n      tag_75\n      jump\t// in\n    tag_105:\n    tag_104:\n      swap1\n      0x00\n      mstore\n      keccak256(0x00, 0x20)\n      add\n        /* \"contracts/GiftCardETH.sol\":5417:5444  giftCards[giftCardCodes[i]] */\n      mload(0x40)\n      tag_107\n      swap2\n      swap1\n      tag_69\n      jump\t// in\n    tag_107:\n      swap1\n      dup2\n      mstore\n      0x20\n      add\n      mload(0x40)\n      dup1\n      swap2\n      sub\n      swap1\n      keccak256\n        /* \"contracts/GiftCardETH.sol\":5417:5451  giftCards[giftCardCodes[i]].getter */\n      0x03\n      add\n        /* \"contracts/GiftCardETH.sol\":5400:5452  abi.encodePacked(giftCards[giftCardCodes[i]].getter) */\n      add(0x20, mload(0x40))\n      tag_108\n      swap2\n      swap1\n      tag_69\n      jump\t// in\n    tag_108:\n      mload(0x40)\n      0x20\n      dup2\n      dup4\n      sub\n      sub\n      dup2\n      mstore\n      swap1\n      0x40\n      mstore\n        /* \"contracts/GiftCardETH.sol\":5369:5470  keccak256(... */\n      dup1\n      mload\n      swap1\n      0x20\n      add\n      keccak256\n        /* \"contracts/GiftCardETH.sol\":5369:5504  keccak256(... */\n      eq\n        /* \"contracts/GiftCardETH.sol\":5215:5504  keccak256(... */\n    tag_103:\n        /* \"contracts/GiftCardETH.sol\":5194:5621  if (... */\n      iszero\n      tag_109\n      jumpi\n        /* \"contracts/GiftCardETH.sol\":5554:5563  giftCards */\n      0x01\n        /* \"contracts/GiftCardETH.sol\":5564:5577  giftCardCodes */\n      0x03\n        /* \"contracts/GiftCardETH.sol\":5578:5579  i */\n      dup3\n        /* \"contracts/GiftCardETH.sol\":5564:5580  giftCardCodes[i] */\n      dup2\n      sload\n      dup2\n      lt\n      tag_110\n      jumpi\n      tag_111\n      tag_75\n      jump\t// in\n    tag_111:\n    tag_110:\n      swap1\n      0x00\n      mstore\n      keccak256(0x00, 0x20)\n      add\n        /* \"contracts/GiftCardETH.sol\":5554:5581  giftCards[giftCardCodes[i]] */\n      mload(0x40)\n      tag_113\n      swap2\n      swap1\n      tag_69\n      jump\t// in\n    tag_113:\n      swap1\n      dup2\n      mstore\n      0x20\n      add\n      mload(0x40)\n      dup1\n      swap2\n      sub\n      swap1\n      keccak256\n        /* \"contracts/GiftCardETH.sol\":5537:5581  myCards[index] = giftCards[giftCardCodes[i]] */\n      mload(0x40)\n      dup1\n      0x80\n      add\n      0x40\n      mstore\n      swap1\n      dup2\n      0x00\n      dup3\n      add\n      dup1\n      sload\n      tag_114\n      swap1\n      tag_115\n      jump\t// in\n    tag_114:\n      dup1\n      0x1f\n      add\n      0x20\n      dup1\n      swap2\n      div\n      mul\n      0x20\n      add\n      mload(0x40)\n      swap1\n      dup2\n      add\n      0x40\n      mstore\n      dup1\n      swap3\n      swap2\n      swap1\n      dup2\n      dup2\n      mstore\n      0x20\n      add\n      dup3\n      dup1\n      sload\n      tag_116\n      swap1\n      tag_115\n      jump\t// in\n    tag_116:\n      dup1\n      iszero\n      tag_117\n      jumpi\n      dup1\n      0x1f\n      lt\n      tag_118\n      jumpi\n      0x0100\n      dup1\n      dup4\n      sload\n      div\n      mul\n      dup4\n      mstore\n      swap2\n      0x20\n      add\n      swap2\n      jump(tag_117)\n    tag_118:\n      dup3\n      add\n      swap2\n      swap1\n      0x00\n      mstore\n      keccak256(0x00, 0x20)\n      swap1\n    tag_119:\n      dup2\n      sload\n      dup2\n      mstore\n      swap1\n      0x01\n      add\n      swap1\n      0x20\n      add\n      dup1\n      dup4\n      gt\n      tag_119\n      jumpi\n      dup3\n      swap1\n      sub\n      0x1f\n      and\n      dup3\n      add\n      swap2\n    tag_117:\n      pop\n      pop\n      pop\n      pop\n      pop\n      dup2\n      mstore\n      0x20\n      add\n      0x01\n      dup3\n      add\n      sload\n      dup2\n      mstore\n      0x20\n      add\n      0x02\n      dup3\n      add\n      0x00\n      swap1\n      sload\n      swap1\n      0x0100\n      exp\n      swap1\n      div\n      0xff\n      and\n      0x01\n      dup2\n      gt\n      iszero\n      tag_120\n      jumpi\n      tag_121\n      tag_37\n      jump\t// in\n    tag_121:\n    tag_120:\n      0x01\n      dup2\n      gt\n      iszero\n      tag_122\n      jumpi\n      tag_123\n      tag_37\n      jump\t// in\n    tag_123:\n    tag_122:\n      dup2\n      mstore\n      0x20\n      add\n      0x03\n      dup3\n      add\n      dup1\n      sload\n      tag_124\n      swap1\n      tag_115\n      jump\t// in\n    tag_124:\n      dup1\n      0x1f\n      add\n      0x20\n      dup1\n      swap2\n      div\n      mul\n      0x20\n      add\n      mload(0x40)\n      swap1\n      dup2\n      add\n      0x40\n      mstore\n      dup1\n      swap3\n      swap2\n      swap1\n      dup2\n      dup2\n      mstore\n      0x20\n      add\n      dup3\n      dup1\n      sload\n      tag_125\n      swap1\n      tag_115\n      jump\t// in\n    tag_125:\n      dup1\n      iszero\n      tag_126\n      jumpi\n      dup1\n      0x1f\n      lt\n      tag_127\n      jumpi\n      0x0100\n      dup1\n      dup4\n      sload\n      div\n      mul\n      dup4\n      mstore\n      swap2\n      0x20\n      add\n      swap2\n      jump(tag_126)\n    tag_127:\n      dup3\n      add\n      swap2\n      swap1\n      0x00\n      mstore\n      keccak256(0x00, 0x20)\n      swap1\n    tag_128:\n      dup2\n      sload\n      dup2\n      mstore\n      swap1\n      0x01\n      add\n      swap1\n      0x20\n      add\n      dup1\n      dup4\n      gt\n      tag_128\n      jumpi\n      dup3\n      swap1\n      sub\n      0x1f\n      and\n      dup3\n      add\n      swap2\n    tag_126:\n      pop\n      pop\n      pop\n      pop\n      pop\n      dup2\n      mstore\n      pop\n      pop\n        /* \"contracts/GiftCardETH.sol\":5537:5544  myCards */\n      dup4\n        /* \"contracts/GiftCardETH.sol\":5545:5550  index */\n      dup4\n        /* \"contracts/GiftCardETH.sol\":5537:5551  myCards[index] */\n      dup2\n      mload\n      dup2\n      lt\n      tag_129\n      jumpi\n      tag_130\n      tag_75\n      jump\t// in\n    tag_130:\n    tag_129:\n      0x20\n      mul\n      0x20\n      add\n      add\n        /* \"contracts/GiftCardETH.sol\":5537:5581  myCards[index] = giftCards[giftCardCodes[i]] */\n      dup2\n      swap1\n      mstore\n      pop\n        /* \"contracts/GiftCardETH.sol\":5599:5606  index++ */\n      dup2\n      dup1\n      tag_131\n      swap1\n      tag_87\n      jump\t// in\n    tag_131:\n      swap3\n      pop\n      pop\n        /* \"contracts/GiftCardETH.sol\":5194:5621  if (... */\n    tag_109:\n        /* \"contracts/GiftCardETH.sol\":5175:5178  i++ */\n      dup1\n      dup1\n      0x01\n      add\n      swap2\n      pop\n      pop\n        /* \"contracts/GiftCardETH.sol\":5129:5631  for (uint256 i = 0; i < giftCardCodes.length; i++) {... */\n      jump(tag_95)\n    tag_96:\n      pop\n        /* \"contracts/GiftCardETH.sol\":5648:5655  myCards */\n      dup2\n        /* \"contracts/GiftCardETH.sol\":5641:5655  return myCards */\n      swap5\n      pop\n      pop\n      pop\n      pop\n      pop\n        /* \"contracts/GiftCardETH.sol\":4385:5662  function getMyCard() public view returns (GiftCard[] memory) {... */\n      swap1\n      jump\t// out\n        /* \"contracts/GiftCardETH.sol\":2146:2864  function getGiftCardByStatus(GiftCardStatus status)... */\n    tag_26:\n        /* \"contracts/GiftCardETH.sol\":2245:2272  GiftCard[] memory giftcards */\n      0x60\n        /* \"contracts/GiftCardETH.sol\":2288:2301  uint256 count */\n      0x00\n        /* \"contracts/GiftCardETH.sol\":2315:2329  uint256 length */\n      dup1\n        /* \"contracts/GiftCardETH.sol\":2332:2345  giftCardCodes */\n      0x03\n        /* \"contracts/GiftCardETH.sol\":2332:2352  giftCardCodes.length */\n      dup1\n      sload\n      swap1\n      pop\n        /* \"contracts/GiftCardETH.sol\":2315:2352  uint256 length = giftCardCodes.length */\n      swap1\n      pop\n        /* \"contracts/GiftCardETH.sol\":2367:2376  uint256 i */\n      0x00\n        /* \"contracts/GiftCardETH.sol\":2362:2521  for (uint256 i = 0; i < length; i++) {... */\n    tag_133:\n        /* \"contracts/GiftCardETH.sol\":2386:2392  length */\n      dup2\n        /* \"contracts/GiftCardETH.sol\":2382:2383  i */\n      dup2\n        /* \"contracts/GiftCardETH.sol\":2382:2392  i < length */\n      lt\n        /* \"contracts/GiftCardETH.sol\":2362:2521  for (uint256 i = 0; i < length; i++) {... */\n      iszero\n      tag_134\n      jumpi\n        /* \"contracts/GiftCardETH.sol\":2463:2469  status */\n      dup5\n        /* \"contracts/GiftCardETH.sol\":2417:2469  giftCards[giftCardCodes[i]].giftCardStatus == status */\n      0x01\n      dup2\n      gt\n      iszero\n      tag_136\n      jumpi\n      tag_137\n      tag_37\n      jump\t// in\n    tag_137:\n    tag_136:\n        /* \"contracts/GiftCardETH.sol\":2417:2426  giftCards */\n      0x01\n        /* \"contracts/GiftCardETH.sol\":2427:2440  giftCardCodes */\n      0x03\n        /* \"contracts/GiftCardETH.sol\":2441:2442  i */\n      dup4\n        /* \"contracts/GiftCardETH.sol\":2427:2443  giftCardCodes[i] */\n      dup2\n      sload\n      dup2\n      lt\n      tag_138\n      jumpi\n      tag_139\n      tag_75\n      jump\t// in\n    tag_139:\n    tag_138:\n      swap1\n      0x00\n      mstore\n      keccak256(0x00, 0x20)\n      add\n        /* \"contracts/GiftCardETH.sol\":2417:2444  giftCards[giftCardCodes[i]] */\n      mload(0x40)\n      tag_141\n      swap2\n      swap1\n      tag_69\n      jump\t// in\n    tag_141:\n      swap1\n      dup2\n      mstore\n      0x20\n      add\n      mload(0x40)\n      dup1\n      swap2\n      sub\n      swap1\n      keccak256\n        /* \"contracts/GiftCardETH.sol\":2417:2459  giftCards[giftCardCodes[i]].giftCardStatus */\n      0x02\n      add\n      0x00\n      swap1\n      sload\n      swap1\n      0x0100\n      exp\n      swap1\n      div\n      0xff\n      and\n        /* \"contracts/GiftCardETH.sol\":2417:2469  giftCards[giftCardCodes[i]].giftCardStatus == status */\n      0x01\n      dup2\n      gt\n      iszero\n      tag_142\n      jumpi\n      tag_143\n      tag_37\n      jump\t// in\n    tag_143:\n    tag_142:\n      sub\n        /* \"contracts/GiftCardETH.sol\":2413:2511  if (giftCards[giftCardCodes[i]].giftCardStatus == status) {... */\n      tag_144\n      jumpi\n        /* \"contracts/GiftCardETH.sol\":2489:2496  count++ */\n      dup3\n      dup1\n      tag_145\n      swap1\n      tag_87\n      jump\t// in\n    tag_145:\n      swap4\n      pop\n      pop\n        /* \"contracts/GiftCardETH.sol\":2413:2511  if (giftCards[giftCardCodes[i]].giftCardStatus == status) {... */\n    tag_144:\n        /* \"contracts/GiftCardETH.sol\":2394:2397  i++ */\n      dup1\n      dup1\n      0x01\n      add\n      swap2\n      pop\n      pop\n        /* \"contracts/GiftCardETH.sol\":2362:2521  for (uint256 i = 0; i < length; i++) {... */\n      jump(tag_133)\n    tag_134:\n      pop\n        /* \"contracts/GiftCardETH.sol\":2530:2554  GiftCard[] memory result */\n      0x00\n        /* \"contracts/GiftCardETH.sol\":2572:2577  count */\n      dup3\n        /* \"contracts/GiftCardETH.sol\":2557:2578  new GiftCard[](count) */\n      0xffffffffffffffff\n      dup2\n      gt\n      iszero\n      tag_146\n      jumpi\n      tag_147\n      tag_90\n      jump\t// in\n    tag_147:\n    tag_146:\n      mload(0x40)\n      swap1\n      dup1\n      dup3\n      mstore\n      dup1\n      0x20\n      mul\n      0x20\n      add\n      dup3\n      add\n      0x40\n      mstore\n      dup1\n      iszero\n      tag_148\n      jumpi\n      dup2\n      0x20\n      add\n    tag_149:\n      tag_150\n      tag_94\n      jump\t// in\n    tag_150:\n      dup2\n      mstore\n      0x20\n      add\n      swap1\n      0x01\n      swap1\n      sub\n      swap1\n      dup2\n      tag_149\n      jumpi\n      swap1\n      pop\n    tag_148:\n      pop\n        /* \"contracts/GiftCardETH.sol\":2530:2578  GiftCard[] memory result = new GiftCard[](count) */\n      swap1\n      pop\n        /* \"contracts/GiftCardETH.sol\":2588:2601  uint256 index */\n      0x00\n        /* \"contracts/GiftCardETH.sol\":2620:2629  uint256 i */\n      dup1\n        /* \"contracts/GiftCardETH.sol\":2615:2835  for (uint256 i = 0; i < length; i++) {... */\n    tag_151:\n        /* \"contracts/GiftCardETH.sol\":2639:2645  length */\n      dup4\n        /* \"contracts/GiftCardETH.sol\":2635:2636  i */\n      dup2\n        /* \"contracts/GiftCardETH.sol\":2635:2645  i < length */\n      lt\n        /* \"contracts/GiftCardETH.sol\":2615:2835  for (uint256 i = 0; i < length; i++) {... */\n      iszero\n      tag_152\n      jumpi\n        /* \"contracts/GiftCardETH.sol\":2716:2722  status */\n      dup7\n        /* \"contracts/GiftCardETH.sol\":2670:2722  giftCards[giftCardCodes[i]].giftCardStatus == status */\n      0x01\n      dup2\n      gt\n      iszero\n      tag_154\n      jumpi\n      tag_155\n      tag_37\n      jump\t// in\n    tag_155:\n    tag_154:\n        /* \"contracts/GiftCardETH.sol\":2670:2679  giftCards */\n      0x01\n        /* \"contracts/GiftCardETH.sol\":2680:2693  giftCardCodes */\n      0x03\n        /* \"contracts/GiftCardETH.sol\":2694:2695  i */\n      dup4\n        /* \"contracts/GiftCardETH.sol\":2680:2696  giftCardCodes[i] */\n      dup2\n      sload\n      dup2\n      lt\n      tag_156\n      jumpi\n      tag_157\n      tag_75\n      jump\t// in\n    tag_157:\n    tag_156:\n      swap1\n      0x00\n      mstore\n      keccak256(0x00, 0x20)\n      add\n        /* \"contracts/GiftCardETH.sol\":2670:2697  giftCards[giftCardCodes[i]] */\n      mload(0x40)\n      tag_159\n      swap2\n      swap1\n      tag_69\n      jump\t// in\n    tag_159:\n      swap1\n      dup2\n      mstore\n      0x20\n      add\n      mload(0x40)\n      dup1\n      swap2\n      sub\n      swap1\n      keccak256\n        /* \"contracts/GiftCardETH.sol\":2670:2712  giftCards[giftCardCodes[i]].giftCardStatus */\n      0x02\n      add\n      0x00\n      swap1\n      sload\n      swap1\n      0x0100\n      exp\n      swap1\n      div\n      0xff\n      and\n        /* \"contracts/GiftCardETH.sol\":2670:2722  giftCards[giftCardCodes[i]].giftCardStatus == status */\n      0x01\n      dup2\n      gt\n      iszero\n      tag_160\n      jumpi\n      tag_161\n      tag_37\n      jump\t// in\n    tag_161:\n    tag_160:\n      sub\n        /* \"contracts/GiftCardETH.sol\":2666:2825  if (giftCards[giftCardCodes[i]].giftCardStatus == status) {... */\n      tag_162\n      jumpi\n        /* \"contracts/GiftCardETH.sol\":2758:2767  giftCards */\n      0x01\n        /* \"contracts/GiftCardETH.sol\":2768:2781  giftCardCodes */\n      0x03\n        /* \"contracts/GiftCardETH.sol\":2782:2783  i */\n      dup3\n        /* \"contracts/GiftCardETH.sol\":2768:2784  giftCardCodes[i] */\n      dup2\n      sload\n      dup2\n      lt\n      tag_163\n      jumpi\n      tag_164\n      tag_75\n      jump\t// in\n    tag_164:\n    tag_163:\n      swap1\n      0x00\n      mstore\n      keccak256(0x00, 0x20)\n      add\n        /* \"contracts/GiftCardETH.sol\":2758:2785  giftCards[giftCardCodes[i]] */\n      mload(0x40)\n      tag_166\n      swap2\n      swap1\n      tag_69\n      jump\t// in\n    tag_166:\n      swap1\n      dup2\n      mstore\n      0x20\n      add\n      mload(0x40)\n      dup1\n      swap2\n      sub\n      swap1\n      keccak256\n        /* \"contracts/GiftCardETH.sol\":2742:2785  result[index] = giftCards[giftCardCodes[i]] */\n      mload(0x40)\n      dup1\n      0x80\n      add\n      0x40\n      mstore\n      swap1\n      dup2\n      0x00\n      dup3\n      add\n      dup1\n      sload\n      tag_167\n      swap1\n      tag_115\n      jump\t// in\n    tag_167:\n      dup1\n      0x1f\n      add\n      0x20\n      dup1\n      swap2\n      div\n      mul\n      0x20\n      add\n      mload(0x40)\n      swap1\n      dup2\n      add\n      0x40\n      mstore\n      dup1\n      swap3\n      swap2\n      swap1\n      dup2\n      dup2\n      mstore\n      0x20\n      add\n      dup3\n      dup1\n      sload\n      tag_168\n      swap1\n      tag_115\n      jump\t// in\n    tag_168:\n      dup1\n      iszero\n      tag_169\n      jumpi\n      dup1\n      0x1f\n      lt\n      tag_170\n      jumpi\n      0x0100\n      dup1\n      dup4\n      sload\n      div\n      mul\n      dup4\n      mstore\n      swap2\n      0x20\n      add\n      swap2\n      jump(tag_169)\n    tag_170:\n      dup3\n      add\n      swap2\n      swap1\n      0x00\n      mstore\n      keccak256(0x00, 0x20)\n      swap1\n    tag_171:\n      dup2\n      sload\n      dup2\n      mstore\n      swap1\n      0x01\n      add\n      swap1\n      0x20\n      add\n      dup1\n      dup4\n      gt\n      tag_171\n      jumpi\n      dup3\n      swap1\n      sub\n      0x1f\n      and\n      dup3\n      add\n      swap2\n    tag_169:\n      pop\n      pop\n      pop\n      pop\n      pop\n      dup2\n      mstore\n      0x20\n      add\n      0x01\n      dup3\n      add\n      sload\n      dup2\n      mstore\n      0x20\n      add\n      0x02\n      dup3\n      add\n      0x00\n      swap1\n      sload\n      swap1\n      0x0100\n      exp\n      swap1\n      div\n      0xff\n      and\n      0x01\n      dup2\n      gt\n      iszero\n      tag_172\n      jumpi\n      tag_173\n      tag_37\n      jump\t// in\n    tag_173:\n    tag_172:\n      0x01\n      dup2\n      gt\n      iszero\n      tag_174\n      jumpi\n      tag_175\n      tag_37\n      jump\t// in\n    tag_175:\n    tag_174:\n      dup2\n      mstore\n      0x20\n      add\n      0x03\n      dup3\n      add\n      dup1\n      sload\n      tag_176\n      swap1\n      tag_115\n      jump\t// in\n    tag_176:\n      dup1\n      0x1f\n      add\n      0x20\n      dup1\n      swap2\n      div\n      mul\n      0x20\n      add\n      mload(0x40)\n      swap1\n      dup2\n      add\n      0x40\n      mstore\n      dup1\n      swap3\n      swap2\n      swap1\n      dup2\n      dup2\n      mstore\n      0x20\n      add\n      dup3\n      dup1\n      sload\n      tag_177\n      swap1\n      tag_115\n      jump\t// in\n    tag_177:\n      dup1\n      iszero\n      tag_178\n      jumpi\n      dup1\n      0x1f\n      lt\n      tag_179\n      jumpi\n      0x0100\n      dup1\n      dup4\n      sload\n      div\n      mul\n      dup4\n      mstore\n      swap2\n      0x20\n      add\n      swap2\n      jump(tag_178)\n    tag_179:\n      dup3\n      add\n      swap2\n      swap1\n      0x00\n      mstore\n      keccak256(0x00, 0x20)\n      swap1\n    tag_180:\n      dup2\n      sload\n      dup2\n      mstore\n      swap1\n      0x01\n      add\n      swap1\n      0x20\n      add\n      dup1\n      dup4\n      gt\n      tag_180\n      jumpi\n      dup3\n      swap1\n      sub\n      0x1f\n      and\n      dup3\n      add\n      swap2\n    tag_178:\n      pop\n      pop\n      pop\n      pop\n      pop\n      dup2\n      mstore\n      pop\n      pop\n        /* \"contracts/GiftCardETH.sol\":2742:2748  result */\n      dup4\n        /* \"contracts/GiftCardETH.sol\":2749:2754  index */\n      dup4\n        /* \"contracts/GiftCardETH.sol\":2742:2755  result[index] */\n      dup2\n      mload\n      dup2\n      lt\n      tag_181\n      jumpi\n      tag_182\n      tag_75\n      jump\t// in\n    tag_182:\n    tag_181:\n      0x20\n      mul\n      0x20\n      add\n      add\n        /* \"contracts/GiftCardETH.sol\":2742:2785  result[index] = giftCards[giftCardCodes[i]] */\n      dup2\n      swap1\n      mstore\n      pop\n        /* \"contracts/GiftCardETH.sol\":2803:2810  index++ */\n      dup2\n      dup1\n      tag_183\n      swap1\n      tag_87\n      jump\t// in\n    tag_183:\n      swap3\n      pop\n      pop\n        /* \"contracts/GiftCardETH.sol\":2666:2825  if (giftCards[giftCardCodes[i]].giftCardStatus == status) {... */\n    tag_162:\n        /* \"contracts/GiftCardETH.sol\":2647:2650  i++ */\n      dup1\n      dup1\n      0x01\n      add\n      swap2\n      pop\n      pop\n        /* \"contracts/GiftCardETH.sol\":2615:2835  for (uint256 i = 0; i < length; i++) {... */\n      jump(tag_151)\n    tag_152:\n      pop\n        /* \"contracts/GiftCardETH.sol\":2851:2857  result */\n      dup2\n        /* \"contracts/GiftCardETH.sol\":2844:2857  return result */\n      swap5\n      pop\n      pop\n      pop\n      pop\n      pop\n        /* \"contracts/GiftCardETH.sol\":2146:2864  function getGiftCardByStatus(GiftCardStatus status)... */\n      swap2\n      swap1\n      pop\n      jump\t// out\n        /* \"contracts/GiftCardETH.sol\":4173:4379  function buyGiftCard() external payable {... */\n    tag_29:\n        /* \"contracts/GiftCardETH.sol\":4223:4237  uint256 amount */\n      0x00\n        /* \"contracts/GiftCardETH.sol\":4240:4249  msg.value */\n      callvalue\n        /* \"contracts/GiftCardETH.sol\":4223:4249  uint256 amount = msg.value */\n      swap1\n      pop\n        /* \"contracts/GiftCardETH.sol\":4259:4277  string memory code */\n      0x00\n        /* \"contracts/GiftCardETH.sol\":4280:4302  generateGiftCardCode() */\n      tag_185\n        /* \"contracts/GiftCardETH.sol\":4280:4300  generateGiftCardCode */\n      tag_186\n        /* \"contracts/GiftCardETH.sol\":4280:4302  generateGiftCardCode() */\n      jump\t// in\n    tag_185:\n        /* \"contracts/GiftCardETH.sol\":4259:4302  string memory code = generateGiftCardCode() */\n      swap1\n      pop\n        /* \"contracts/GiftCardETH.sol\":4312:4333  addCard(code, amount) */\n      tag_187\n        /* \"contracts/GiftCardETH.sol\":4320:4324  code */\n      dup2\n        /* \"contracts/GiftCardETH.sol\":4326:4332  amount */\n      dup4\n        /* \"contracts/GiftCardETH.sol\":4312:4319  addCard */\n      tag_188\n        /* \"contracts/GiftCardETH.sol\":4312:4333  addCard(code, amount) */\n      jump\t// in\n    tag_187:\n        /* \"contracts/GiftCardETH.sol\":4348:4372  CardBought(code, amount) */\n      0x19446f6741eca6d71b8406898c4308b5f1b9844f9f1ea7614b48264e453b9bd2\n        /* \"contracts/GiftCardETH.sol\":4359:4363  code */\n      dup2\n        /* \"contracts/GiftCardETH.sol\":4365:4371  amount */\n      dup4\n        /* \"contracts/GiftCardETH.sol\":4348:4372  CardBought(code, amount) */\n      mload(0x40)\n      tag_189\n      swap3\n      swap2\n      swap1\n      tag_190\n      jump\t// in\n    tag_189:\n      mload(0x40)\n      dup1\n      swap2\n      sub\n      swap1\n      log1\n        /* \"contracts/GiftCardETH.sol\":4213:4379  {... */\n      pop\n      pop\n        /* \"contracts/GiftCardETH.sol\":4173:4379  function buyGiftCard() external payable {... */\n      jump\t// out\n        /* \"contracts/GiftCardETH.sol\":2870:3241  function getAllGiftCards()... */\n    tag_32:\n        /* \"contracts/GiftCardETH.sol\":2962:2989  GiftCard[] memory giftcards */\n      0x60\n        /* \"contracts/GiftCardETH.sol\":1121:1122  0 */\n      0x00\n        /* \"contracts/GiftCardETH.sol\":1088:1093  users */\n      dup1\n        /* \"contracts/GiftCardETH.sol\":1088:1105  users[msg.sender] */\n      0x00\n        /* \"contracts/GiftCardETH.sol\":1094:1104  msg.sender */\n      caller\n        /* \"contracts/GiftCardETH.sol\":1088:1105  users[msg.sender] */\n      0xffffffffffffffffffffffffffffffffffffffff\n      and\n      0xffffffffffffffffffffffffffffffffffffffff\n      and\n      dup2\n      mstore\n      0x20\n      add\n      swap1\n      dup2\n      mstore\n      0x20\n      add\n      0x00\n      keccak256\n        /* \"contracts/GiftCardETH.sol\":1088:1110  users[msg.sender].name */\n      0x00\n      add\n        /* \"contracts/GiftCardETH.sol\":1082:1118  bytes(users[msg.sender].name).length */\n      dup1\n      sload\n      tag_192\n      swap1\n      tag_115\n      jump\t// in\n    tag_192:\n      swap1\n      pop\n        /* \"contracts/GiftCardETH.sol\":1082:1122  bytes(users[msg.sender].name).length > 0 */\n      gt\n        /* \"contracts/GiftCardETH.sol\":1061:1167  require(... */\n      tag_193\n      jumpi\n      mload(0x40)\n      0x08c379a000000000000000000000000000000000000000000000000000000000\n      dup2\n      mstore\n      0x04\n      add\n      tag_194\n      swap1\n      tag_195\n      jump\t// in\n    tag_194:\n      mload(0x40)\n      dup1\n      swap2\n      sub\n      swap1\n      revert\n    tag_193:\n        /* \"contracts/GiftCardETH.sol\":1228:1242  UserType.ADMIN */\n      0x00\n        /* \"contracts/GiftCardETH.sol\":1198:1242  users[msg.sender].userType == UserType.ADMIN */\n      0x01\n      dup2\n      gt\n      iszero\n      tag_196\n      jumpi\n      tag_197\n      tag_37\n      jump\t// in\n    tag_197:\n    tag_196:\n        /* \"contracts/GiftCardETH.sol\":1198:1203  users */\n      0x00\n        /* \"contracts/GiftCardETH.sol\":1198:1215  users[msg.sender] */\n      dup1\n        /* \"contracts/GiftCardETH.sol\":1204:1214  msg.sender */\n      caller\n        /* \"contracts/GiftCardETH.sol\":1198:1215  users[msg.sender] */\n      0xffffffffffffffffffffffffffffffffffffffff\n      and\n      0xffffffffffffffffffffffffffffffffffffffff\n      and\n      dup2\n      mstore\n      0x20\n      add\n      swap1\n      dup2\n      mstore\n      0x20\n      add\n      0x00\n      keccak256\n        /* \"contracts/GiftCardETH.sol\":1198:1224  users[msg.sender].userType */\n      0x01\n      add\n      0x00\n      swap1\n      sload\n      swap1\n      0x0100\n      exp\n      swap1\n      div\n      0xff\n      and\n        /* \"contracts/GiftCardETH.sol\":1198:1242  users[msg.sender].userType == UserType.ADMIN */\n      0x01\n      dup2\n      gt\n      iszero\n      tag_198\n      jumpi\n      tag_199\n      tag_37\n      jump\t// in\n    tag_199:\n    tag_198:\n      eq\n        /* \"contracts/GiftCardETH.sol\":1177:1288  require(... */\n      tag_200\n      jumpi\n      mload(0x40)\n      0x08c379a000000000000000000000000000000000000000000000000000000000\n      dup2\n      mstore\n      0x04\n      add\n      tag_201\n      swap1\n      tag_202\n      jump\t// in\n    tag_201:\n      mload(0x40)\n      dup1\n      swap2\n      sub\n      swap1\n      revert\n    tag_200:\n        /* \"contracts/GiftCardETH.sol\":3005:3019  uint256 length */\n      0x00\n        /* \"contracts/GiftCardETH.sol\":3022:3035  giftCardCodes */\n      0x03\n        /* \"contracts/GiftCardETH.sol\":3022:3042  giftCardCodes.length */\n      dup1\n      sload\n      swap1\n      pop\n        /* \"contracts/GiftCardETH.sol\":3005:3042  uint256 length = giftCardCodes.length */\n      swap1\n      pop\n        /* \"contracts/GiftCardETH.sol\":3052:3076  GiftCard[] memory result */\n      0x00\n        /* \"contracts/GiftCardETH.sol\":3094:3100  length */\n      dup2\n        /* \"contracts/GiftCardETH.sol\":3079:3101  new GiftCard[](length) */\n      0xffffffffffffffff\n      dup2\n      gt\n      iszero\n      tag_204\n      jumpi\n      tag_205\n      tag_90\n      jump\t// in\n    tag_205:\n    tag_204:\n      mload(0x40)\n      swap1\n      dup1\n      dup3\n      mstore\n      dup1\n      0x20\n      mul\n      0x20\n      add\n      dup3\n      add\n      0x40\n      mstore\n      dup1\n      iszero\n      tag_206\n      jumpi\n      dup2\n      0x20\n      add\n    tag_207:\n      tag_208\n      tag_94\n      jump\t// in\n    tag_208:\n      dup2\n      mstore\n      0x20\n      add\n      swap1\n      0x01\n      swap1\n      sub\n      swap1\n      dup2\n      tag_207\n      jumpi\n      swap1\n      pop\n    tag_206:\n      pop\n        /* \"contracts/GiftCardETH.sol\":3052:3101  GiftCard[] memory result = new GiftCard[](length) */\n      swap1\n      pop\n        /* \"contracts/GiftCardETH.sol\":3116:3125  uint256 i */\n      0x00\n        /* \"contracts/GiftCardETH.sol\":3111:3212  for (uint256 i = 0; i < length; i++) {... */\n    tag_209:\n        /* \"contracts/GiftCardETH.sol\":3135:3141  length */\n      dup3\n        /* \"contracts/GiftCardETH.sol\":3131:3132  i */\n      dup2\n        /* \"contracts/GiftCardETH.sol\":3131:3141  i < length */\n      lt\n        /* \"contracts/GiftCardETH.sol\":3111:3212  for (uint256 i = 0; i < length; i++) {... */\n      iszero\n      tag_210\n      jumpi\n        /* \"contracts/GiftCardETH.sol\":3174:3183  giftCards */\n      0x01\n        /* \"contracts/GiftCardETH.sol\":3184:3197  giftCardCodes */\n      0x03\n        /* \"contracts/GiftCardETH.sol\":3198:3199  i */\n      dup3\n        /* \"contracts/GiftCardETH.sol\":3184:3200  giftCardCodes[i] */\n      dup2\n      sload\n      dup2\n      lt\n      tag_212\n      jumpi\n      tag_213\n      tag_75\n      jump\t// in\n    tag_213:\n    tag_212:\n      swap1\n      0x00\n      mstore\n      keccak256(0x00, 0x20)\n      add\n        /* \"contracts/GiftCardETH.sol\":3174:3201  giftCards[giftCardCodes[i]] */\n      mload(0x40)\n      tag_215\n      swap2\n      swap1\n      tag_69\n      jump\t// in\n    tag_215:\n      swap1\n      dup2\n      mstore\n      0x20\n      add\n      mload(0x40)\n      dup1\n      swap2\n      sub\n      swap1\n      keccak256\n        /* \"contracts/GiftCardETH.sol\":3162:3201  result[i] = giftCards[giftCardCodes[i]] */\n      mload(0x40)\n      dup1\n      0x80\n      add\n      0x40\n      mstore\n      swap1\n      dup2\n      0x00\n      dup3\n      add\n      dup1\n      sload\n      tag_216\n      swap1\n      tag_115\n      jump\t// in\n    tag_216:\n      dup1\n      0x1f\n      add\n      0x20\n      dup1\n      swap2\n      div\n      mul\n      0x20\n      add\n      mload(0x40)\n      swap1\n      dup2\n      add\n      0x40\n      mstore\n      dup1\n      swap3\n      swap2\n      swap1\n      dup2\n      dup2\n      mstore\n      0x20\n      add\n      dup3\n      dup1\n      sload\n      tag_217\n      swap1\n      tag_115\n      jump\t// in\n    tag_217:\n      dup1\n      iszero\n      tag_218\n      jumpi\n      dup1\n      0x1f\n      lt\n      tag_219\n      jumpi\n      0x0100\n      dup1\n      dup4\n      sload\n      div\n      mul\n      dup4\n      mstore\n      swap2\n      0x20\n      add\n      swap2\n      jump(tag_218)\n    tag_219:\n      dup3\n      add\n      swap2\n      swap1\n      0x00\n      mstore\n      keccak256(0x00, 0x20)\n      swap1\n    tag_220:\n      dup2\n      sload\n      dup2\n      mstore\n      swap1\n      0x01\n      add\n      swap1\n      0x20\n      add\n      dup1\n      dup4\n      gt\n      tag_220\n      jumpi\n      dup3\n      swap1\n      sub\n      0x1f\n      and\n      dup3\n      add\n      swap2\n    tag_218:\n      pop\n      pop\n      pop\n      pop\n      pop\n      dup2\n      mstore\n      0x20\n      add\n      0x01\n      dup3\n      add\n      sload\n      dup2\n      mstore\n      0x20\n      add\n      0x02\n      dup3\n      add\n      0x00\n      swap1\n      sload\n      swap1\n      0x0100\n      exp\n      swap1\n      div\n      0xff\n      and\n      0x01\n      dup2\n      gt\n      iszero\n      tag_221\n      jumpi\n      tag_222\n      tag_37\n      jump\t// in\n    tag_222:\n    tag_221:\n      0x01\n      dup2\n      gt\n      iszero\n      tag_223\n      jumpi\n      tag_224\n      tag_37\n      jump\t// in\n    tag_224:\n    tag_223:\n      dup2\n      mstore\n      0x20\n      add\n      0x03\n      dup3\n      add\n      dup1\n      sload\n      tag_225\n      swap1\n      tag_115\n      jump\t// in\n    tag_225:\n      dup1\n      0x1f\n      add\n      0x20\n      dup1\n      swap2\n      div\n      mul\n      0x20\n      add\n      mload(0x40)\n      swap1\n      dup2\n      add\n      0x40\n      mstore\n      dup1\n      swap3\n      swap2\n      swap1\n      dup2\n      dup2\n      mstore\n      0x20\n      add\n      dup3\n      dup1\n      sload\n      tag_226\n      swap1\n      tag_115\n      jump\t// in\n    tag_226:\n      dup1\n      iszero\n      tag_227\n      jumpi\n      dup1\n      0x1f\n      lt\n      tag_228\n      jumpi\n      0x0100\n      dup1\n      dup4\n      sload\n      div\n      mul\n      dup4\n      mstore\n      swap2\n      0x20\n      add\n      swap2\n      jump(tag_227)\n    tag_228:\n      dup3\n      add\n      swap2\n      swap1\n      0x00\n      mstore\n      keccak256(0x00, 0x20)\n      swap1\n    tag_229:\n      dup2\n      sload\n      dup2\n      mstore\n      swap1\n      0x01\n      add\n      swap1\n      0x20\n      add\n      dup1\n      dup4\n      gt\n      tag_229\n      jumpi\n      dup3\n      swap1\n      sub\n      0x1f\n      and\n      dup3\n      add\n      swap2\n    tag_227:\n      pop\n      pop\n      pop\n      pop\n      pop\n      dup2\n      mstore\n      pop\n      pop\n        /* \"contracts/GiftCardETH.sol\":3162:3168  result */\n      dup3\n        /* \"contracts/GiftCardETH.sol\":3169:3170  i */\n      dup3\n        /* \"contracts/GiftCardETH.sol\":3162:3171  result[i] */\n      dup2\n      mload\n      dup2\n      lt\n      tag_230\n      jumpi\n      tag_231\n      tag_75\n      jump\t// in\n    tag_231:\n    tag_230:\n      0x20\n      mul\n      0x20\n      add\n      add\n        /* \"contracts/GiftCardETH.sol\":3162:3201  result[i] = giftCards[giftCardCodes[i]] */\n      dup2\n      swap1\n      mstore\n      pop\n        /* \"contracts/GiftCardETH.sol\":3143:3146  i++ */\n      dup1\n      dup1\n      0x01\n      add\n      swap2\n      pop\n      pop\n        /* \"contracts/GiftCardETH.sol\":3111:3212  for (uint256 i = 0; i < length; i++) {... */\n      jump(tag_209)\n    tag_210:\n      pop\n        /* \"contracts/GiftCardETH.sol\":3228:3234  result */\n      dup1\n        /* \"contracts/GiftCardETH.sol\":3221:3234  return result */\n      swap3\n      pop\n      pop\n      pop\n        /* \"contracts/GiftCardETH.sol\":2870:3241  function getAllGiftCards()... */\n      swap1\n      jump\t// out\n        /* \"contracts/GiftCardETH.sol\":3512:3857  function generateGiftCardCode() private view returns (string memory) {... */\n    tag_186:\n        /* \"contracts/GiftCardETH.sol\":3566:3579  string memory */\n      0x60\n        /* \"contracts/GiftCardETH.sol\":3591:3616  bytes memory randomString */\n      0x00\n        /* \"contracts/GiftCardETH.sol\":3629:3630  8 */\n      0x08\n        /* \"contracts/GiftCardETH.sol\":3619:3631  new bytes(8) */\n      0xffffffffffffffff\n      dup2\n      gt\n      iszero\n      tag_233\n      jumpi\n      tag_234\n      tag_90\n      jump\t// in\n    tag_234:\n    tag_233:\n      mload(0x40)\n      swap1\n      dup1\n      dup3\n      mstore\n      dup1\n      0x1f\n      add\n      not(0x1f)\n      and\n      0x20\n      add\n      dup3\n      add\n      0x40\n      mstore\n      dup1\n      iszero\n      tag_235\n      jumpi\n      dup2\n      0x20\n      add\n      0x01\n      dup3\n      mul\n      dup1\n      calldatasize\n      dup4\n      calldatacopy\n      dup1\n      dup3\n      add\n      swap2\n      pop\n      pop\n      swap1\n      pop\n    tag_235:\n      pop\n        /* \"contracts/GiftCardETH.sol\":3591:3631  bytes memory randomString = new bytes(8) */\n      swap1\n      pop\n        /* \"contracts/GiftCardETH.sol\":3646:3655  uint256 i */\n      0x00\n        /* \"contracts/GiftCardETH.sol\":3641:3814  for (uint256 i = 0; i < 8; i++) {... */\n    tag_236:\n        /* \"contracts/GiftCardETH.sol\":3665:3666  8 */\n      0x08\n        /* \"contracts/GiftCardETH.sol\":3661:3662  i */\n      dup2\n        /* \"contracts/GiftCardETH.sol\":3661:3666  i < 8 */\n      lt\n        /* \"contracts/GiftCardETH.sol\":3641:3814  for (uint256 i = 0; i < 8; i++) {... */\n      iszero\n      tag_237\n      jumpi\n        /* \"contracts/GiftCardETH.sol\":3687:3709  uint256 randomCharCode */\n      0x00\n        /* \"contracts/GiftCardETH.sol\":3712:3730  getRandomNumber(i) */\n      tag_239\n        /* \"contracts/GiftCardETH.sol\":3728:3729  i */\n      dup3\n        /* \"contracts/GiftCardETH.sol\":3712:3727  getRandomNumber */\n      tag_240\n        /* \"contracts/GiftCardETH.sol\":3712:3730  getRandomNumber(i) */\n      jump\t// in\n    tag_239:\n        /* \"contracts/GiftCardETH.sol\":3687:3730  uint256 randomCharCode = getRandomNumber(i) */\n      swap1\n      pop\n        /* \"contracts/GiftCardETH.sol\":3798:3800  26 */\n      0x1a\n        /* \"contracts/GiftCardETH.sol\":3781:3795  randomCharCode */\n      dup2\n        /* \"contracts/GiftCardETH.sol\":3781:3800  randomCharCode % 26 */\n      tag_241\n      swap2\n      swap1\n      tag_242\n      jump\t// in\n    tag_241:\n        /* \"contracts/GiftCardETH.sol\":3775:3777  97 */\n      0x61\n        /* \"contracts/GiftCardETH.sol\":3775:3801  97 + (randomCharCode % 26) */\n      tag_243\n      swap2\n      swap1\n      tag_244\n      jump\t// in\n    tag_243:\n        /* \"contracts/GiftCardETH.sol\":3762:3803  bytes1(uint8(97 + (randomCharCode % 26))) */\n      0xf8\n      shl\n        /* \"contracts/GiftCardETH.sol\":3744:3756  randomString */\n      dup4\n        /* \"contracts/GiftCardETH.sol\":3757:3758  i */\n      dup4\n        /* \"contracts/GiftCardETH.sol\":3744:3759  randomString[i] */\n      dup2\n      mload\n      dup2\n      lt\n      tag_245\n      jumpi\n      tag_246\n      tag_75\n      jump\t// in\n    tag_246:\n    tag_245:\n      0x20\n      add\n      add\n        /* \"contracts/GiftCardETH.sol\":3744:3803  randomString[i] = bytes1(uint8(97 + (randomCharCode % 26))) */\n      swap1\n      not(0xffffffffffffffffffffffffffffffffffffffffffffffffffffffffffffff)\n      and\n      swap1\n      dup2\n      0x00\n      byte\n      swap1\n      mstore8\n      pop\n        /* \"contracts/GiftCardETH.sol\":3673:3814  {... */\n      pop\n        /* \"contracts/GiftCardETH.sol\":3668:3671  i++ */\n      dup1\n      dup1\n      0x01\n      add\n      swap2\n      pop\n      pop\n        /* \"contracts/GiftCardETH.sol\":3641:3814  for (uint256 i = 0; i < 8; i++) {... */\n      jump(tag_236)\n    tag_237:\n      pop\n        /* \"contracts/GiftCardETH.sol\":3837:3849  randomString */\n      dup1\n        /* \"contracts/GiftCardETH.sol\":3823:3850  return string(randomString) */\n      swap2\n      pop\n      pop\n        /* \"contracts/GiftCardETH.sol\":3512:3857  function generateGiftCardCode() private view returns (string memory) {... */\n      swap1\n      jump\t// out\n        /* \"contracts/GiftCardETH.sol\":3863:4167  function addCard(string memory code, uint256 amount)... */\n    tag_188:\n        /* \"contracts/GiftCardETH.sol\":3964:3968  code */\n      dup2\n        /* \"contracts/GiftCardETH.sol\":1765:1777  bool isExist */\n      0x00\n        /* \"contracts/GiftCardETH.sol\":1800:1809  uint256 i */\n      dup1\n        /* \"contracts/GiftCardETH.sol\":1795:2074  for (uint256 i = 0; i < giftCardCodes.length; i++) {... */\n    tag_248:\n        /* \"contracts/GiftCardETH.sol\":1819:1832  giftCardCodes */\n      0x03\n        /* \"contracts/GiftCardETH.sol\":1819:1839  giftCardCodes.length */\n      dup1\n      sload\n      swap1\n      pop\n        /* \"contracts/GiftCardETH.sol\":1815:1816  i */\n      dup2\n        /* \"contracts/GiftCardETH.sol\":1815:1839  i < giftCardCodes.length */\n      lt\n        /* \"contracts/GiftCardETH.sol\":1795:2074  for (uint256 i = 0; i < giftCardCodes.length; i++) {... */\n      iszero\n      tag_249\n      jumpi\n        /* \"contracts/GiftCardETH.sol\":1973:1977  code */\n      dup3\n        /* \"contracts/GiftCardETH.sol\":1956:1978  abi.encodePacked(code) */\n      add(0x20, mload(0x40))\n      tag_251\n      swap2\n      swap1\n      tag_39\n      jump\t// in\n    tag_251:\n      mload(0x40)\n      0x20\n      dup2\n      dup4\n      sub\n      sub\n      dup2\n      mstore\n      swap1\n      0x40\n      mstore\n        /* \"contracts/GiftCardETH.sol\":1946:1979  keccak256(abi.encodePacked(code)) */\n      dup1\n      mload\n      swap1\n      0x20\n      add\n      keccak256\n        /* \"contracts/GiftCardETH.sol\":1908:1921  giftCardCodes */\n      0x03\n        /* \"contracts/GiftCardETH.sol\":1922:1923  i */\n      dup3\n        /* \"contracts/GiftCardETH.sol\":1908:1924  giftCardCodes[i] */\n      dup2\n      sload\n      dup2\n      lt\n      tag_252\n      jumpi\n      tag_253\n      tag_75\n      jump\t// in\n    tag_253:\n    tag_252:\n      swap1\n      0x00\n      mstore\n      keccak256(0x00, 0x20)\n      add\n        /* \"contracts/GiftCardETH.sol\":1891:1925  abi.encodePacked(giftCardCodes[i]) */\n      add(0x20, mload(0x40))\n      tag_255\n      swap2\n      swap1\n      tag_69\n      jump\t// in\n    tag_255:\n      mload(0x40)\n      0x20\n      dup2\n      dup4\n      sub\n      sub\n      dup2\n      mstore\n      swap1\n      0x40\n      mstore\n        /* \"contracts/GiftCardETH.sol\":1881:1926  keccak256(abi.encodePacked(giftCardCodes[i])) */\n      dup1\n      mload\n      swap1\n      0x20\n      add\n      keccak256\n        /* \"contracts/GiftCardETH.sol\":1881:1979  keccak256(abi.encodePacked(giftCardCodes[i])) ==... */\n      sub\n        /* \"contracts/GiftCardETH.sol\":1860:2064  if (... */\n      tag_256\n      jumpi\n        /* \"contracts/GiftCardETH.sol\":2022:2026  true */\n      0x01\n        /* \"contracts/GiftCardETH.sol\":2012:2026  isExist = true */\n      swap2\n      pop\n        /* \"contracts/GiftCardETH.sol\":2044:2049  break */\n      jump(tag_249)\n        /* \"contracts/GiftCardETH.sol\":1860:2064  if (... */\n    tag_256:\n        /* \"contracts/GiftCardETH.sol\":1841:1844  i++ */\n      dup1\n      dup1\n      0x01\n      add\n      swap2\n      pop\n      pop\n        /* \"contracts/GiftCardETH.sol\":1795:2074  for (uint256 i = 0; i < giftCardCodes.length; i++) {... */\n      jump(tag_248)\n    tag_249:\n      pop\n        /* \"contracts/GiftCardETH.sol\":2092:2099  isExist */\n      dup1\n        /* \"contracts/GiftCardETH.sol\":2091:2099  !isExist */\n      iszero\n        /* \"contracts/GiftCardETH.sol\":2083:2122  require(!isExist, \"Code is Not Unique\") */\n      tag_257\n      jumpi\n      mload(0x40)\n      0x08c379a000000000000000000000000000000000000000000000000000000000\n      dup2\n      mstore\n      0x04\n      add\n      tag_258\n      swap1\n      tag_259\n      jump\t// in\n    tag_258:\n      mload(0x40)\n      dup1\n      swap2\n      sub\n      swap1\n      revert\n    tag_257:\n        /* \"contracts/GiftCardETH.sol\":3984:3997  giftCardCodes */\n      0x03\n        /* \"contracts/GiftCardETH.sol\":4003:4007  code */\n      dup5\n        /* \"contracts/GiftCardETH.sol\":3984:4008  giftCardCodes.push(code) */\n      swap1\n      dup1\n      0x01\n      dup2\n      sload\n      add\n      dup1\n      dup3\n      sstore\n      dup1\n      swap2\n      pop\n      pop\n      0x01\n      swap1\n      sub\n      swap1\n      0x00\n      mstore\n      keccak256(0x00, 0x20)\n      add\n      0x00\n      swap1\n      swap2\n      swap1\n      swap2\n      swap1\n      swap2\n      pop\n      swap1\n      dup2\n      tag_262\n      swap2\n      swap1\n      tag_263\n      jump\t// in\n    tag_262:\n      pop\n        /* \"contracts/GiftCardETH.sol\":4036:4160  GiftCard(... */\n      mload(0x40)\n      dup1\n      0x80\n      add\n      0x40\n      mstore\n      dup1\n        /* \"contracts/GiftCardETH.sol\":4058:4063  users */\n      0x00\n        /* \"contracts/GiftCardETH.sol\":4058:4075  users[msg.sender] */\n      dup1\n        /* \"contracts/GiftCardETH.sol\":4064:4074  msg.sender */\n      caller\n        /* \"contracts/GiftCardETH.sol\":4058:4075  users[msg.sender] */\n      0xffffffffffffffffffffffffffffffffffffffff\n      and\n      0xffffffffffffffffffffffffffffffffffffffff\n      and\n      dup2\n      mstore\n      0x20\n      add\n      swap1\n      dup2\n      mstore\n      0x20\n      add\n      0x00\n      keccak256\n        /* \"contracts/GiftCardETH.sol\":4058:4080  users[msg.sender].name */\n      0x00\n      add\n        /* \"contracts/GiftCardETH.sol\":4036:4160  GiftCard(... */\n      dup1\n      sload\n      tag_264\n      swap1\n      tag_115\n      jump\t// in\n    tag_264:\n      dup1\n      0x1f\n      add\n      0x20\n      dup1\n      swap2\n      div\n      mul\n      0x20\n      add\n      mload(0x40)\n      swap1\n      dup2\n      add\n      0x40\n      mstore\n      dup1\n      swap3\n      swap2\n      swap1\n      dup2\n      dup2\n      mstore\n      0x20\n      add\n      dup3\n      dup1\n      sload\n      tag_265\n      swap1\n      tag_115\n      jump\t// in\n    tag_265:\n      dup1\n      iszero\n      tag_266\n      jumpi\n      dup1\n      0x1f\n      lt\n      tag_267\n      jumpi\n      0x0100\n      dup1\n      dup4\n      sload\n      div\n      mul\n      dup4\n      mstore\n      swap2\n      0x20\n      add\n      swap2\n      jump(tag_266)\n    tag_267:\n      dup3\n      add\n      swap2\n      swap1\n      0x00\n      mstore\n      keccak256(0x00, 0x20)\n      swap1\n    tag_268:\n      dup2\n      sload\n      dup2\n      mstore\n      swap1\n      0x01\n      add\n      swap1\n      0x20\n      add\n      dup1\n      dup4\n      gt\n      tag_268\n      jumpi\n      dup3\n      swap1\n      sub\n      0x1f\n      and\n      dup3\n      add\n      swap2\n    tag_266:\n      pop\n      pop\n      pop\n      pop\n      pop\n      dup2\n      mstore\n      0x20\n      add\n        /* \"contracts/GiftCardETH.sol\":4094:4100  amount */\n      dup5\n        /* \"contracts/GiftCardETH.sol\":4036:4160  GiftCard(... */\n      dup2\n      mstore\n      0x20\n      add\n        /* \"contracts/GiftCardETH.sol\":4114:4134  GiftCardStatus.VALID */\n      0x01\n        /* \"contracts/GiftCardETH.sol\":4036:4160  GiftCard(... */\n      dup1\n      dup2\n      gt\n      iszero\n      tag_269\n      jumpi\n      tag_270\n      tag_37\n      jump\t// in\n    tag_270:\n    tag_269:\n      dup2\n      mstore\n      0x20\n      add\n      mload(0x40)\n      dup1\n      0x20\n      add\n      0x40\n      mstore\n      dup1\n      0x00\n      dup2\n      mstore\n      pop\n      dup2\n      mstore\n      pop\n        /* \"contracts/GiftCardETH.sol\":4018:4027  giftCards */\n      0x01\n        /* \"contracts/GiftCardETH.sol\":4028:4032  code */\n      dup6\n        /* \"contracts/GiftCardETH.sol\":4018:4033  giftCards[code] */\n      mload(0x40)\n      tag_271\n      swap2\n      swap1\n      tag_39\n      jump\t// in\n    tag_271:\n      swap1\n      dup2\n      mstore\n      0x20\n      add\n      mload(0x40)\n      dup1\n      swap2\n      sub\n      swap1\n      keccak256\n        /* \"contracts/GiftCardETH.sol\":4018:4160  giftCards[code] = GiftCard(... */\n      0x00\n      dup3\n      add\n      mload\n      dup2\n      0x00\n      add\n      swap1\n      dup2\n      tag_272\n      swap2\n      swap1\n      tag_263\n      jump\t// in\n    tag_272:\n      pop\n      0x20\n      dup3\n      add\n      mload\n      dup2\n      0x01\n      add\n      sstore\n      0x40\n      dup3\n      add\n      mload\n      dup2\n      0x02\n      add\n      exp(0x0100, 0x00)\n      dup2\n      sload\n      dup2\n      0xff\n      mul\n      not\n      and\n      swap1\n      dup4\n      0x01\n      dup2\n      gt\n      iszero\n      tag_273\n      jumpi\n      tag_274\n      tag_37\n      jump\t// in\n    tag_274:\n    tag_273:\n      mul\n      or\n      swap1\n      sstore\n      pop\n      0x60\n      dup3\n      add\n      mload\n      dup2\n      0x03\n      add\n      swap1\n      dup2\n      tag_275\n      swap2\n      swap1\n      tag_263\n      jump\t// in\n    tag_275:\n      pop\n      swap1\n      pop\n      pop\n        /* \"contracts/GiftCardETH.sol\":1755:2140  {... */\n      pop\n        /* \"contracts/GiftCardETH.sol\":3863:4167  function addCard(string memory code, uint256 amount)... */\n      pop\n      pop\n      pop\n      jump\t// out\n        /* \"contracts/GiftCardETH.sol\":3247:3506  function getRandomNumber(uint256 seed) private view returns (uint256) {... */\n    tag_240:\n        /* \"contracts/GiftCardETH.sol\":3308:3315  uint256 */\n      0x00\n        /* \"contracts/GiftCardETH.sol\":3494:3499  10000 */\n      0x2710\n        /* \"contracts/GiftCardETH.sol\":3419:3434  block.timestamp */\n      timestamp\n        /* \"contracts/GiftCardETH.sol\":3436:3452  block.prevrandao */\n      prevrandao\n        /* \"contracts/GiftCardETH.sol\":3454:3458  seed */\n      dup5\n        /* \"contracts/GiftCardETH.sol\":3402:3459  abi.encodePacked(block.timestamp, block.prevrandao, seed) */\n      add(0x20, mload(0x40))\n      tag_277\n      swap4\n      swap3\n      swap2\n      swap1\n      tag_278\n      jump\t// in\n    tag_277:\n      mload(0x40)\n      0x20\n      dup2\n      dup4\n      sub\n      sub\n      dup2\n      mstore\n      swap1\n      0x40\n      mstore\n        /* \"contracts/GiftCardETH.sol\":3371:3477  keccak256(... */\n      dup1\n      mload\n      swap1\n      0x20\n      add\n      keccak256\n        /* \"contracts/GiftCardETH.sol\":3346:3491  uint256(... */\n      0x00\n      shr\n        /* \"contracts/GiftCardETH.sol\":3346:3499  uint256(... */\n      tag_279\n      swap2\n      swap1\n      tag_242\n      jump\t// in\n    tag_279:\n        /* \"contracts/GiftCardETH.sol\":3327:3499  return... */\n      swap1\n      pop\n        /* \"contracts/GiftCardETH.sol\":3247:3506  function getRandomNumber(uint256 seed) private view returns (uint256) {... */\n      swap2\n      swap1\n      pop\n      jump\t// out\n    tag_94:\n      mload(0x40)\n      dup1\n      0x80\n      add\n      0x40\n      mstore\n      dup1\n      0x60\n      dup2\n      mstore\n      0x20\n      add\n      0x00\n      dup2\n      mstore\n      0x20\n      add\n      0x00\n      0x01\n      dup2\n      gt\n      iszero\n      tag_280\n      jumpi\n      tag_281\n      tag_37\n      jump\t// in\n    tag_281:\n    tag_280:\n      dup2\n      mstore\n      0x20\n      add\n      0x60\n      dup2\n      mstore\n      pop\n      swap1\n      jump\t// out\n        /* \"#utility.yul\":88:205   */\n    tag_283:\n        /* \"#utility.yul\":197:198   */\n      0x00\n        /* \"#utility.yul\":194:195   */\n      dup1\n        /* \"#utility.yul\":187:199   */\n      revert\n        /* \"#utility.yul\":211:328   */\n    tag_284:\n        /* \"#utility.yul\":320:321   */\n      0x00\n        /* \"#utility.yul\":317:318   */\n      dup1\n        /* \"#utility.yul\":310:322   */\n      revert\n        /* \"#utility.yul\":334:451   */\n    tag_285:\n        /* \"#utility.yul\":443:444   */\n      0x00\n        /* \"#utility.yul\":440:441   */\n      dup1\n        /* \"#utility.yul\":433:445   */\n      revert\n        /* \"#utility.yul\":457:574   */\n    tag_286:\n        /* \"#utility.yul\":566:567   */\n      0x00\n        /* \"#utility.yul\":563:564   */\n      dup1\n        /* \"#utility.yul\":556:568   */\n      revert\n        /* \"#utility.yul\":580:697   */\n    tag_287:\n        /* \"#utility.yul\":689:690   */\n      0x00\n        /* \"#utility.yul\":686:687   */\n      dup1\n        /* \"#utility.yul\":679:691   */\n      revert\n        /* \"#utility.yul\":717:1270   */\n    tag_288:\n        /* \"#utility.yul\":775:783   */\n      0x00\n        /* \"#utility.yul\":785:791   */\n      dup1\n        /* \"#utility.yul\":835:838   */\n      dup4\n        /* \"#utility.yul\":828:832   */\n      0x1f\n        /* \"#utility.yul\":820:826   */\n      dup5\n        /* \"#utility.yul\":816:833   */\n      add\n        /* \"#utility.yul\":812:839   */\n      slt\n        /* \"#utility.yul\":802:924   */\n      tag_360\n      jumpi\n        /* \"#utility.yul\":843:922   */\n      tag_361\n      tag_285\n      jump\t// in\n    tag_361:\n        /* \"#utility.yul\":802:924   */\n    tag_360:\n        /* \"#utility.yul\":956:962   */\n      dup3\n        /* \"#utility.yul\":943:963   */\n      calldataload\n        /* \"#utility.yul\":933:963   */\n      swap1\n      pop\n        /* \"#utility.yul\":986:1004   */\n      0xffffffffffffffff\n        /* \"#utility.yul\":978:984   */\n      dup2\n        /* \"#utility.yul\":975:1005   */\n      gt\n        /* \"#utility.yul\":972:1089   */\n      iszero\n      tag_362\n      jumpi\n        /* \"#utility.yul\":1008:1087   */\n      tag_363\n      tag_286\n      jump\t// in\n    tag_363:\n        /* \"#utility.yul\":972:1089   */\n    tag_362:\n        /* \"#utility.yul\":1122:1126   */\n      0x20\n        /* \"#utility.yul\":1114:1120   */\n      dup4\n        /* \"#utility.yul\":1110:1127   */\n      add\n        /* \"#utility.yul\":1098:1127   */\n      swap2\n      pop\n        /* \"#utility.yul\":1176:1179   */\n      dup4\n        /* \"#utility.yul\":1168:1172   */\n      0x01\n        /* \"#utility.yul\":1160:1166   */\n      dup3\n        /* \"#utility.yul\":1156:1173   */\n      mul\n        /* \"#utility.yul\":1146:1154   */\n      dup4\n        /* \"#utility.yul\":1142:1174   */\n      add\n        /* \"#utility.yul\":1139:1180   */\n      gt\n        /* \"#utility.yul\":1136:1264   */\n      iszero\n      tag_364\n      jumpi\n        /* \"#utility.yul\":1183:1262   */\n      tag_365\n      tag_287\n      jump\t// in\n    tag_365:\n        /* \"#utility.yul\":1136:1264   */\n    tag_364:\n        /* \"#utility.yul\":717:1270   */\n      swap3\n      pop\n      swap3\n      swap1\n      pop\n      jump\t// out\n        /* \"#utility.yul\":1276:1805   */\n    tag_15:\n        /* \"#utility.yul\":1347:1353   */\n      0x00\n        /* \"#utility.yul\":1355:1361   */\n      dup1\n        /* \"#utility.yul\":1404:1406   */\n      0x20\n        /* \"#utility.yul\":1392:1401   */\n      dup4\n        /* \"#utility.yul\":1383:1390   */\n      dup6\n        /* \"#utility.yul\":1379:1402   */\n      sub\n        /* \"#utility.yul\":1375:1407   */\n      slt\n        /* \"#utility.yul\":1372:1491   */\n      iszero\n      tag_367\n      jumpi\n        /* \"#utility.yul\":1410:1489   */\n      tag_368\n      tag_283\n      jump\t// in\n    tag_368:\n        /* \"#utility.yul\":1372:1491   */\n    tag_367:\n        /* \"#utility.yul\":1558:1559   */\n      0x00\n        /* \"#utility.yul\":1547:1556   */\n      dup4\n        /* \"#utility.yul\":1543:1560   */\n      add\n        /* \"#utility.yul\":1530:1561   */\n      calldataload\n        /* \"#utility.yul\":1588:1606   */\n      0xffffffffffffffff\n        /* \"#utility.yul\":1580:1586   */\n      dup2\n        /* \"#utility.yul\":1577:1607   */\n      gt\n        /* \"#utility.yul\":1574:1691   */\n      iszero\n      tag_369\n      jumpi\n        /* \"#utility.yul\":1610:1689   */\n      tag_370\n      tag_284\n      jump\t// in\n    tag_370:\n        /* \"#utility.yul\":1574:1691   */\n    tag_369:\n        /* \"#utility.yul\":1723:1788   */\n      tag_371\n        /* \"#utility.yul\":1780:1787   */\n      dup6\n        /* \"#utility.yul\":1771:1777   */\n      dup3\n        /* \"#utility.yul\":1760:1769   */\n      dup7\n        /* \"#utility.yul\":1756:1778   */\n      add\n        /* \"#utility.yul\":1723:1788   */\n      tag_288\n      jump\t// in\n    tag_371:\n        /* \"#utility.yul\":1705:1788   */\n      swap3\n      pop\n      swap3\n      pop\n        /* \"#utility.yul\":1501:1798   */\n      pop\n        /* \"#utility.yul\":1276:1805   */\n      swap3\n      pop\n      swap3\n      swap1\n      pop\n      jump\t// out\n        /* \"#utility.yul\":1811:1949   */\n    tag_289:\n        /* \"#utility.yul\":1902:1908   */\n      0x00\n        /* \"#utility.yul\":1936:1941   */\n      dup2\n        /* \"#utility.yul\":1930:1942   */\n      mload\n        /* \"#utility.yul\":1920:1942   */\n      swap1\n      pop\n        /* \"#utility.yul\":1811:1949   */\n      swap2\n      swap1\n      pop\n      jump\t// out\n        /* \"#utility.yul\":1955:2163   */\n    tag_290:\n        /* \"#utility.yul\":2078:2089   */\n      0x00\n        /* \"#utility.yul\":2112:2118   */\n      dup3\n        /* \"#utility.yul\":2107:2110   */\n      dup3\n        /* \"#utility.yul\":2100:2119   */\n      mstore\n        /* \"#utility.yul\":2152:2156   */\n      0x20\n        /* \"#utility.yul\":2147:2150   */\n      dup3\n        /* \"#utility.yul\":2143:2157   */\n      add\n        /* \"#utility.yul\":2128:2157   */\n      swap1\n      pop\n        /* \"#utility.yul\":1955:2163   */\n      swap3\n      swap2\n      pop\n      pop\n      jump\t// out\n        /* \"#utility.yul\":2169:2325   */\n    tag_291:\n        /* \"#utility.yul\":2260:2264   */\n      0x00\n        /* \"#utility.yul\":2283:2286   */\n      dup2\n        /* \"#utility.yul\":2275:2286   */\n      swap1\n      pop\n        /* \"#utility.yul\":2313:2317   */\n      0x20\n        /* \"#utility.yul\":2308:2311   */\n      dup3\n        /* \"#utility.yul\":2304:2318   */\n      add\n        /* \"#utility.yul\":2296:2318   */\n      swap1\n      pop\n        /* \"#utility.yul\":2169:2325   */\n      swap2\n      swap1\n      pop\n      jump\t// out\n        /* \"#utility.yul\":2331:2430   */\n    tag_292:\n        /* \"#utility.yul\":2383:2389   */\n      0x00\n        /* \"#utility.yul\":2417:2422   */\n      dup2\n        /* \"#utility.yul\":2411:2423   */\n      mload\n        /* \"#utility.yul\":2401:2423   */\n      swap1\n      pop\n        /* \"#utility.yul\":2331:2430   */\n      swap2\n      swap1\n      pop\n      jump\t// out\n        /* \"#utility.yul\":2436:2595   */\n    tag_293:\n        /* \"#utility.yul\":2510:2521   */\n      0x00\n        /* \"#utility.yul\":2544:2550   */\n      dup3\n        /* \"#utility.yul\":2539:2542   */\n      dup3\n        /* \"#utility.yul\":2532:2551   */\n      mstore\n        /* \"#utility.yul\":2584:2588   */\n      0x20\n        /* \"#utility.yul\":2579:2582   */\n      dup3\n        /* \"#utility.yul\":2575:2589   */\n      add\n        /* \"#utility.yul\":2560:2589   */\n      swap1\n      pop\n        /* \"#utility.yul\":2436:2595   */\n      swap3\n      swap2\n      pop\n      pop\n      jump\t// out\n        /* \"#utility.yul\":2601:2740   */\n    tag_294:\n        /* \"#utility.yul\":2690:2696   */\n      dup3\n        /* \"#utility.yul\":2685:2688   */\n      dup2\n        /* \"#utility.yul\":2680:2683   */\n      dup4\n        /* \"#utility.yul\":2674:2697   */\n      mcopy\n        /* \"#utility.yul\":2731:2732   */\n      0x00\n        /* \"#utility.yul\":2722:2728   */\n      dup4\n        /* \"#utility.yul\":2717:2720   */\n      dup4\n        /* \"#utility.yul\":2713:2729   */\n      add\n        /* \"#utility.yul\":2706:2733   */\n      mstore\n        /* \"#utility.yul\":2601:2740   */\n      pop\n      pop\n      pop\n      jump\t// out\n        /* \"#utility.yul\":2746:2848   */\n    tag_295:\n        /* \"#utility.yul\":2787:2793   */\n      0x00\n        /* \"#utility.yul\":2838:2840   */\n      0x1f\n        /* \"#utility.yul\":2834:2841   */\n      not\n        /* \"#utility.yul\":2829:2831   */\n      0x1f\n        /* \"#utility.yul\":2822:2827   */\n      dup4\n        /* \"#utility.yul\":2818:2832   */\n      add\n        /* \"#utility.yul\":2814:2842   */\n      and\n        /* \"#utility.yul\":2804:2842   */\n      swap1\n      pop\n        /* \"#utility.yul\":2746:2848   */\n      swap2\n      swap1\n      pop\n      jump\t// out\n        /* \"#utility.yul\":2854:3211   */\n    tag_296:\n        /* \"#utility.yul\":2932:2935   */\n      0x00\n        /* \"#utility.yul\":2960:2999   */\n      tag_380\n        /* \"#utility.yul\":2993:2998   */\n      dup3\n        /* \"#utility.yul\":2960:2999   */\n      tag_292\n      jump\t// in\n    tag_380:\n        /* \"#utility.yul\":3015:3076   */\n      tag_381\n        /* \"#utility.yul\":3069:3075   */\n      dup2\n        /* \"#utility.yul\":3064:3067   */\n      dup6\n        /* \"#utility.yul\":3015:3076   */\n      tag_293\n      jump\t// in\n    tag_381:\n        /* \"#utility.yul\":3008:3076   */\n      swap4\n      pop\n        /* \"#utility.yul\":3085:3150   */\n      tag_382\n        /* \"#utility.yul\":3143:3149   */\n      dup2\n        /* \"#utility.yul\":3138:3141   */\n      dup6\n        /* \"#utility.yul\":3131:3135   */\n      0x20\n        /* \"#utility.yul\":3124:3129   */\n      dup7\n        /* \"#utility.yul\":3120:3136   */\n      add\n        /* \"#utility.yul\":3085:3150   */\n      tag_294\n      jump\t// in\n    tag_382:\n        /* \"#utility.yul\":3175:3204   */\n      tag_383\n        /* \"#utility.yul\":3197:3203   */\n      dup2\n        /* \"#utility.yul\":3175:3204   */\n      tag_295\n      jump\t// in\n    tag_383:\n        /* \"#utility.yul\":3170:3173   */\n      dup5\n        /* \"#utility.yul\":3166:3205   */\n      add\n        /* \"#utility.yul\":3159:3205   */\n      swap2\n      pop\n        /* \"#utility.yul\":2936:3211   */\n      pop\n        /* \"#utility.yul\":2854:3211   */\n      swap3\n      swap2\n      pop\n      pop\n      jump\t// out\n        /* \"#utility.yul\":3217:3294   */\n    tag_297:\n        /* \"#utility.yul\":3254:3261   */\n      0x00\n        /* \"#utility.yul\":3283:3288   */\n      dup2\n        /* \"#utility.yul\":3272:3288   */\n      swap1\n      pop\n        /* \"#utility.yul\":3217:3294   */\n      swap2\n      swap1\n      pop\n      jump\t// out\n        /* \"#utility.yul\":3300:3408   */\n    tag_298:\n        /* \"#utility.yul\":3377:3401   */\n      tag_386\n        /* \"#utility.yul\":3395:3400   */\n      dup2\n        /* \"#utility.yul\":3377:3401   */\n      tag_297\n      jump\t// in\n    tag_386:\n        /* \"#utility.yul\":3372:3375   */\n      dup3\n        /* \"#utility.yul\":3365:3402   */\n      mstore\n        /* \"#utility.yul\":3300:3408   */\n      pop\n      pop\n      jump\t// out\n        /* \"#utility.yul\":3414:3594   */\n    tag_37:\n        /* \"#utility.yul\":3462:3539   */\n      0x4e487b7100000000000000000000000000000000000000000000000000000000\n        /* \"#utility.yul\":3459:3460   */\n      0x00\n        /* \"#utility.yul\":3452:3540   */\n      mstore\n        /* \"#utility.yul\":3559:3563   */\n      0x21\n        /* \"#utility.yul\":3556:3557   */\n      0x04\n        /* \"#utility.yul\":3549:3564   */\n      mstore\n        /* \"#utility.yul\":3583:3587   */\n      0x24\n        /* \"#utility.yul\":3580:3581   */\n      0x00\n        /* \"#utility.yul\":3573:3588   */\n      revert\n        /* \"#utility.yul\":3600:3721   */\n    tag_299:\n        /* \"#utility.yul\":3689:3690   */\n      0x02\n        /* \"#utility.yul\":3682:3687   */\n      dup2\n        /* \"#utility.yul\":3679:3691   */\n      lt\n        /* \"#utility.yul\":3669:3715   */\n      tag_389\n      jumpi\n        /* \"#utility.yul\":3695:3713   */\n      tag_390\n      tag_37\n      jump\t// in\n    tag_390:\n        /* \"#utility.yul\":3669:3715   */\n    tag_389:\n        /* \"#utility.yul\":3600:3721   */\n      pop\n      jump\t// out\n        /* \"#utility.yul\":3727:3870   */\n    tag_300:\n        /* \"#utility.yul\":3780:3787   */\n      0x00\n        /* \"#utility.yul\":3809:3814   */\n      dup2\n        /* \"#utility.yul\":3798:3814   */\n      swap1\n      pop\n        /* \"#utility.yul\":3815:3864   */\n      tag_392\n        /* \"#utility.yul\":3858:3863   */\n      dup3\n        /* \"#utility.yul\":3815:3864   */\n      tag_299\n      jump\t// in\n    tag_392:\n        /* \"#utility.yul\":3727:3870   */\n      swap2\n      swap1\n      pop\n      jump\t// out\n        /* \"#utility.yul\":3876:4019   */\n    tag_301:\n        /* \"#utility.yul\":3940:3949   */\n      0x00\n        /* \"#utility.yul\":3973:4013   */\n      tag_394\n        /* \"#utility.yul\":4007:4012   */\n      dup3\n        /* \"#utility.yul\":3973:4013   */\n      tag_300\n      jump\t// in\n    tag_394:\n        /* \"#utility.yul\":3960:4013   */\n      swap1\n      pop\n        /* \"#utility.yul\":3876:4019   */\n      swap2\n      swap1\n      pop\n      jump\t// out\n        /* \"#utility.yul\":4025:4174   */\n    tag_302:\n        /* \"#utility.yul\":4116:4167   */\n      tag_396\n        /* \"#utility.yul\":4161:4166   */\n      dup2\n        /* \"#utility.yul\":4116:4167   */\n      tag_301\n      jump\t// in\n    tag_396:\n        /* \"#utility.yul\":4111:4114   */\n      dup3\n        /* \"#utility.yul\":4104:4168   */\n      mstore\n        /* \"#utility.yul\":4025:4174   */\n      pop\n      pop\n      jump\t// out\n        /* \"#utility.yul\":4222:5264   */\n    tag_303:\n        /* \"#utility.yul\":4329:4332   */\n      0x00\n        /* \"#utility.yul\":4365:4369   */\n      0x80\n        /* \"#utility.yul\":4360:4363   */\n      dup4\n        /* \"#utility.yul\":4356:4370   */\n      add\n        /* \"#utility.yul\":4453:4457   */\n      0x00\n        /* \"#utility.yul\":4446:4451   */\n      dup4\n        /* \"#utility.yul\":4442:4458   */\n      add\n        /* \"#utility.yul\":4436:4459   */\n      mload\n        /* \"#utility.yul\":4506:4509   */\n      dup5\n        /* \"#utility.yul\":4500:4504   */\n      dup3\n        /* \"#utility.yul\":4496:4510   */\n      sub\n        /* \"#utility.yul\":4489:4493   */\n      0x00\n        /* \"#utility.yul\":4484:4487   */\n      dup7\n        /* \"#utility.yul\":4480:4494   */\n      add\n        /* \"#utility.yul\":4473:4511   */\n      mstore\n        /* \"#utility.yul\":4532:4605   */\n      tag_398\n        /* \"#utility.yul\":4600:4604   */\n      dup3\n        /* \"#utility.yul\":4586:4598   */\n      dup3\n        /* \"#utility.yul\":4532:4605   */\n      tag_296\n      jump\t// in\n    tag_398:\n        /* \"#utility.yul\":4524:4605   */\n      swap2\n      pop\n        /* \"#utility.yul\":4380:4616   */\n      pop\n        /* \"#utility.yul\":4700:4704   */\n      0x20\n        /* \"#utility.yul\":4693:4698   */\n      dup4\n        /* \"#utility.yul\":4689:4705   */\n      add\n        /* \"#utility.yul\":4683:4706   */\n      mload\n        /* \"#utility.yul\":4719:4782   */\n      tag_399\n        /* \"#utility.yul\":4776:4780   */\n      0x20\n        /* \"#utility.yul\":4771:4774   */\n      dup7\n        /* \"#utility.yul\":4767:4781   */\n      add\n        /* \"#utility.yul\":4753:4765   */\n      dup3\n        /* \"#utility.yul\":4719:4782   */\n      tag_298\n      jump\t// in\n    tag_399:\n        /* \"#utility.yul\":4626:4792   */\n      pop\n        /* \"#utility.yul\":4884:4888   */\n      0x40\n        /* \"#utility.yul\":4877:4882   */\n      dup4\n        /* \"#utility.yul\":4873:4889   */\n      add\n        /* \"#utility.yul\":4867:4890   */\n      mload\n        /* \"#utility.yul\":4903:4980   */\n      tag_400\n        /* \"#utility.yul\":4974:4978   */\n      0x40\n        /* \"#utility.yul\":4969:4972   */\n      dup7\n        /* \"#utility.yul\":4965:4979   */\n      add\n        /* \"#utility.yul\":4951:4963   */\n      dup3\n        /* \"#utility.yul\":4903:4980   */\n      tag_302\n      jump\t// in\n    tag_400:\n        /* \"#utility.yul\":4802:4990   */\n      pop\n        /* \"#utility.yul\":5074:5078   */\n      0x60\n        /* \"#utility.yul\":5067:5072   */\n      dup4\n        /* \"#utility.yul\":5063:5079   */\n      add\n        /* \"#utility.yul\":5057:5080   */\n      mload\n        /* \"#utility.yul\":5127:5130   */\n      dup5\n        /* \"#utility.yul\":5121:5125   */\n      dup3\n        /* \"#utility.yul\":5117:5131   */\n      sub\n        /* \"#utility.yul\":5110:5114   */\n      0x60\n        /* \"#utility.yul\":5105:5108   */\n      dup7\n        /* \"#utility.yul\":5101:5115   */\n      add\n        /* \"#utility.yul\":5094:5132   */\n      mstore\n        /* \"#utility.yul\":5153:5226   */\n      tag_401\n        /* \"#utility.yul\":5221:5225   */\n      dup3\n        /* \"#utility.yul\":5207:5219   */\n      dup3\n        /* \"#utility.yul\":5153:5226   */\n      tag_296\n      jump\t// in\n    tag_401:\n        /* \"#utility.yul\":5145:5226   */\n      swap2\n      pop\n        /* \"#utility.yul\":5000:5237   */\n      pop\n        /* \"#utility.yul\":5254:5258   */\n      dup1\n        /* \"#utility.yul\":5247:5258   */\n      swap2\n      pop\n        /* \"#utility.yul\":4334:5264   */\n      pop\n        /* \"#utility.yul\":4222:5264   */\n      swap3\n      swap2\n      pop\n      pop\n      jump\t// out\n        /* \"#utility.yul\":5270:5522   */\n    tag_304:\n        /* \"#utility.yul\":5387:5397   */\n      0x00\n        /* \"#utility.yul\":5422:5516   */\n      tag_403\n        /* \"#utility.yul\":5512:5515   */\n      dup4\n        /* \"#utility.yul\":5504:5510   */\n      dup4\n        /* \"#utility.yul\":5422:5516   */\n      tag_303\n      jump\t// in\n    tag_403:\n        /* \"#utility.yul\":5408:5516   */\n      swap1\n      pop\n        /* \"#utility.yul\":5270:5522   */\n      swap3\n      swap2\n      pop\n      pop\n      jump\t// out\n        /* \"#utility.yul\":5528:5665   */\n    tag_305:\n        /* \"#utility.yul\":5622:5626   */\n      0x00\n        /* \"#utility.yul\":5654:5658   */\n      0x20\n        /* \"#utility.yul\":5649:5652   */\n      dup3\n        /* \"#utility.yul\":5645:5659   */\n      add\n        /* \"#utility.yul\":5637:5659   */\n      swap1\n      pop\n        /* \"#utility.yul\":5528:5665   */\n      swap2\n      swap1\n      pop\n      jump\t// out\n        /* \"#utility.yul\":5717:6820   */\n    tag_306:\n        /* \"#utility.yul\":5884:5887   */\n      0x00\n        /* \"#utility.yul\":5913:5991   */\n      tag_406\n        /* \"#utility.yul\":5985:5990   */\n      dup3\n        /* \"#utility.yul\":5913:5991   */\n      tag_289\n      jump\t// in\n    tag_406:\n        /* \"#utility.yul\":6007:6117   */\n      tag_407\n        /* \"#utility.yul\":6110:6116   */\n      dup2\n        /* \"#utility.yul\":6105:6108   */\n      dup6\n        /* \"#utility.yul\":6007:6117   */\n      tag_290\n      jump\t// in\n    tag_407:\n        /* \"#utility.yul\":6000:6117   */\n      swap4\n      pop\n        /* \"#utility.yul\":6143:6146   */\n      dup4\n        /* \"#utility.yul\":6188:6192   */\n      0x20\n        /* \"#utility.yul\":6180:6186   */\n      dup3\n        /* \"#utility.yul\":6176:6193   */\n      mul\n        /* \"#utility.yul\":6171:6174   */\n      dup6\n        /* \"#utility.yul\":6167:6194   */\n      add\n        /* \"#utility.yul\":6218:6298   */\n      tag_408\n        /* \"#utility.yul\":6292:6297   */\n      dup6\n        /* \"#utility.yul\":6218:6298   */\n      tag_291\n      jump\t// in\n    tag_408:\n        /* \"#utility.yul\":6321:6328   */\n      dup1\n        /* \"#utility.yul\":6352:6353   */\n      0x00\n        /* \"#utility.yul\":6337:6775   */\n    tag_409:\n        /* \"#utility.yul\":6362:6368   */\n      dup6\n        /* \"#utility.yul\":6359:6360   */\n      dup2\n        /* \"#utility.yul\":6356:6369   */\n      lt\n        /* \"#utility.yul\":6337:6775   */\n      iszero\n      tag_411\n      jumpi\n        /* \"#utility.yul\":6433:6442   */\n      dup5\n        /* \"#utility.yul\":6427:6431   */\n      dup5\n        /* \"#utility.yul\":6423:6443   */\n      sub\n        /* \"#utility.yul\":6418:6421   */\n      dup10\n        /* \"#utility.yul\":6411:6444   */\n      mstore\n        /* \"#utility.yul\":6484:6490   */\n      dup2\n        /* \"#utility.yul\":6478:6491   */\n      mload\n        /* \"#utility.yul\":6512:6624   */\n      tag_412\n        /* \"#utility.yul\":6619:6623   */\n      dup6\n        /* \"#utility.yul\":6604:6617   */\n      dup3\n        /* \"#utility.yul\":6512:6624   */\n      tag_304\n      jump\t// in\n    tag_412:\n        /* \"#utility.yul\":6504:6624   */\n      swap5\n      pop\n        /* \"#utility.yul\":6647:6731   */\n      tag_413\n        /* \"#utility.yul\":6724:6730   */\n      dup4\n        /* \"#utility.yul\":6647:6731   */\n      tag_305\n      jump\t// in\n    tag_413:\n        /* \"#utility.yul\":6637:6731   */\n      swap3\n      pop\n        /* \"#utility.yul\":6760:6764   */\n      0x20\n        /* \"#utility.yul\":6755:6758   */\n      dup11\n        /* \"#utility.yul\":6751:6765   */\n      add\n        /* \"#utility.yul\":6744:6765   */\n      swap10\n      pop\n        /* \"#utility.yul\":6397:6775   */\n      pop\n        /* \"#utility.yul\":6384:6385   */\n      0x01\n        /* \"#utility.yul\":6381:6382   */\n      dup2\n        /* \"#utility.yul\":6377:6386   */\n      add\n        /* \"#utility.yul\":6372:6386   */\n      swap1\n      pop\n        /* \"#utility.yul\":6337:6775   */\n      jump(tag_409)\n    tag_411:\n        /* \"#utility.yul\":6341:6355   */\n      pop\n        /* \"#utility.yul\":6791:6795   */\n      dup3\n        /* \"#utility.yul\":6784:6795   */\n      swap8\n      pop\n        /* \"#utility.yul\":6811:6814   */\n      dup8\n        /* \"#utility.yul\":6804:6814   */\n      swap6\n      pop\n        /* \"#utility.yul\":5889:6820   */\n      pop\n      pop\n      pop\n      pop\n      pop\n        /* \"#utility.yul\":5717:6820   */\n      swap3\n      swap2\n      pop\n      pop\n      jump\t// out\n        /* \"#utility.yul\":6826:7295   */\n    tag_21:\n        /* \"#utility.yul\":7017:7021   */\n      0x00\n        /* \"#utility.yul\":7055:7057   */\n      0x20\n        /* \"#utility.yul\":7044:7053   */\n      dup3\n        /* \"#utility.yul\":7040:7058   */\n      add\n        /* \"#utility.yul\":7032:7058   */\n      swap1\n      pop\n        /* \"#utility.yul\":7104:7113   */\n      dup2\n        /* \"#utility.yul\":7098:7102   */\n      dup2\n        /* \"#utility.yul\":7094:7114   */\n      sub\n        /* \"#utility.yul\":7090:7091   */\n      0x00\n        /* \"#utility.yul\":7079:7088   */\n      dup4\n        /* \"#utility.yul\":7075:7092   */\n      add\n        /* \"#utility.yul\":7068:7115   */\n      mstore\n        /* \"#utility.yul\":7132:7288   */\n      tag_415\n        /* \"#utility.yul\":7283:7287   */\n      dup2\n        /* \"#utility.yul\":7274:7280   */\n      dup5\n        /* \"#utility.yul\":7132:7288   */\n      tag_306\n      jump\t// in\n    tag_415:\n        /* \"#utility.yul\":7124:7288   */\n      swap1\n      pop\n        /* \"#utility.yul\":6826:7295   */\n      swap3\n      swap2\n      pop\n      pop\n      jump\t// out\n        /* \"#utility.yul\":7301:7416   */\n    tag_307:\n        /* \"#utility.yul\":7390:7391   */\n      0x02\n        /* \"#utility.yul\":7383:7388   */\n      dup2\n        /* \"#utility.yul\":7380:7392   */\n      lt\n        /* \"#utility.yul\":7370:7410   */\n      tag_417\n      jumpi\n        /* \"#utility.yul\":7406:7407   */\n      0x00\n        /* \"#utility.yul\":7403:7404   */\n      dup1\n        /* \"#utility.yul\":7396:7408   */\n      revert\n        /* \"#utility.yul\":7370:7410   */\n    tag_417:\n        /* \"#utility.yul\":7301:7416   */\n      pop\n      jump\t// out\n        /* \"#utility.yul\":7422:7593   */\n    tag_308:\n        /* \"#utility.yul\":7484:7489   */\n      0x00\n        /* \"#utility.yul\":7522:7528   */\n      dup2\n        /* \"#utility.yul\":7509:7529   */\n      calldataload\n        /* \"#utility.yul\":7500:7529   */\n      swap1\n      pop\n        /* \"#utility.yul\":7538:7587   */\n      tag_419\n        /* \"#utility.yul\":7581:7586   */\n      dup2\n        /* \"#utility.yul\":7538:7587   */\n      tag_307\n      jump\t// in\n    tag_419:\n        /* \"#utility.yul\":7422:7593   */\n      swap3\n      swap2\n      pop\n      pop\n      jump\t// out\n        /* \"#utility.yul\":7599:7960   */\n    tag_25:\n        /* \"#utility.yul\":7674:7680   */\n      0x00\n        /* \"#utility.yul\":7723:7725   */\n      0x20\n        /* \"#utility.yul\":7711:7720   */\n      dup3\n        /* \"#utility.yul\":7702:7709   */\n      dup5\n        /* \"#utility.yul\":7698:7721   */\n      sub\n        /* \"#utility.yul\":7694:7726   */\n      slt\n        /* \"#utility.yul\":7691:7810   */\n      iszero\n      tag_421\n      jumpi\n        /* \"#utility.yul\":7729:7808   */\n      tag_422\n      tag_283\n      jump\t// in\n    tag_422:\n        /* \"#utility.yul\":7691:7810   */\n    tag_421:\n        /* \"#utility.yul\":7849:7850   */\n      0x00\n        /* \"#utility.yul\":7874:7943   */\n      tag_423\n        /* \"#utility.yul\":7935:7942   */\n      dup5\n        /* \"#utility.yul\":7926:7932   */\n      dup3\n        /* \"#utility.yul\":7915:7924   */\n      dup6\n        /* \"#utility.yul\":7911:7933   */\n      add\n        /* \"#utility.yul\":7874:7943   */\n      tag_308\n      jump\t// in\n    tag_423:\n        /* \"#utility.yul\":7864:7943   */\n      swap2\n      pop\n        /* \"#utility.yul\":7820:7953   */\n      pop\n        /* \"#utility.yul\":7599:7960   */\n      swap3\n      swap2\n      pop\n      pop\n      jump\t// out\n        /* \"#utility.yul\":7966:8114   */\n    tag_309:\n        /* \"#utility.yul\":8068:8079   */\n      0x00\n        /* \"#utility.yul\":8105:8108   */\n      dup2\n        /* \"#utility.yul\":8090:8108   */\n      swap1\n      pop\n        /* \"#utility.yul\":7966:8114   */\n      swap3\n      swap2\n      pop\n      pop\n      jump\t// out\n        /* \"#utility.yul\":8120:8510   */\n    tag_310:\n        /* \"#utility.yul\":8226:8229   */\n      0x00\n        /* \"#utility.yul\":8254:8293   */\n      tag_426\n        /* \"#utility.yul\":8287:8292   */\n      dup3\n        /* \"#utility.yul\":8254:8293   */\n      tag_292\n      jump\t// in\n    tag_426:\n        /* \"#utility.yul\":8309:8398   */\n      tag_427\n        /* \"#utility.yul\":8391:8397   */\n      dup2\n        /* \"#utility.yul\":8386:8389   */\n      dup6\n        /* \"#utility.yul\":8309:8398   */\n      tag_309\n      jump\t// in\n    tag_427:\n        /* \"#utility.yul\":8302:8398   */\n      swap4\n      pop\n        /* \"#utility.yul\":8407:8472   */\n      tag_428\n        /* \"#utility.yul\":8465:8471   */\n      dup2\n        /* \"#utility.yul\":8460:8463   */\n      dup6\n        /* \"#utility.yul\":8453:8457   */\n      0x20\n        /* \"#utility.yul\":8446:8451   */\n      dup7\n        /* \"#utility.yul\":8442:8458   */\n      add\n        /* \"#utility.yul\":8407:8472   */\n      tag_294\n      jump\t// in\n    tag_428:\n        /* \"#utility.yul\":8497:8503   */\n      dup1\n        /* \"#utility.yul\":8492:8495   */\n      dup5\n        /* \"#utility.yul\":8488:8504   */\n      add\n        /* \"#utility.yul\":8481:8504   */\n      swap2\n      pop\n        /* \"#utility.yul\":8230:8510   */\n      pop\n        /* \"#utility.yul\":8120:8510   */\n      swap3\n      swap2\n      pop\n      pop\n      jump\t// out\n        /* \"#utility.yul\":8516:8791   */\n    tag_39:\n        /* \"#utility.yul\":8648:8651   */\n      0x00\n        /* \"#utility.yul\":8670:8765   */\n      tag_430\n        /* \"#utility.yul\":8761:8764   */\n      dup3\n        /* \"#utility.yul\":8752:8758   */\n      dup5\n        /* \"#utility.yul\":8670:8765   */\n      tag_310\n      jump\t// in\n    tag_430:\n        /* \"#utility.yul\":8663:8765   */\n      swap2\n      pop\n        /* \"#utility.yul\":8782:8785   */\n      dup2\n        /* \"#utility.yul\":8775:8785   */\n      swap1\n      pop\n        /* \"#utility.yul\":8516:8791   */\n      swap3\n      swap2\n      pop\n      pop\n      jump\t// out\n        /* \"#utility.yul\":8797:8966   */\n    tag_311:\n        /* \"#utility.yul\":8881:8892   */\n      0x00\n        /* \"#utility.yul\":8915:8921   */\n      dup3\n        /* \"#utility.yul\":8910:8913   */\n      dup3\n        /* \"#utility.yul\":8903:8922   */\n      mstore\n        /* \"#utility.yul\":8955:8959   */\n      0x20\n        /* \"#utility.yul\":8950:8953   */\n      dup3\n        /* \"#utility.yul\":8946:8960   */\n      add\n        /* \"#utility.yul\":8931:8960   */\n      swap1\n      pop\n        /* \"#utility.yul\":8797:8966   */\n      swap3\n      swap2\n      pop\n      pop\n      jump\t// out\n        /* \"#utility.yul\":8972:9137   */\n    tag_312:\n        /* \"#utility.yul\":9112:9129   */\n      0x4361726420697320496e76616c69640000000000000000000000000000000000\n        /* \"#utility.yul\":9108:9109   */\n      0x00\n        /* \"#utility.yul\":9100:9106   */\n      dup3\n        /* \"#utility.yul\":9096:9110   */\n      add\n        /* \"#utility.yul\":9089:9130   */\n      mstore\n        /* \"#utility.yul\":8972:9137   */\n      pop\n      jump\t// out\n        /* \"#utility.yul\":9143:9509   */\n    tag_313:\n        /* \"#utility.yul\":9285:9288   */\n      0x00\n        /* \"#utility.yul\":9306:9373   */\n      tag_434\n        /* \"#utility.yul\":9370:9372   */\n      0x0f\n        /* \"#utility.yul\":9365:9368   */\n      dup4\n        /* \"#utility.yul\":9306:9373   */\n      tag_311\n      jump\t// in\n    tag_434:\n        /* \"#utility.yul\":9299:9373   */\n      swap2\n      pop\n        /* \"#utility.yul\":9382:9475   */\n      tag_435\n        /* \"#utility.yul\":9471:9474   */\n      dup3\n        /* \"#utility.yul\":9382:9475   */\n      tag_312\n      jump\t// in\n    tag_435:\n        /* \"#utility.yul\":9500:9502   */\n      0x20\n        /* \"#utility.yul\":9495:9498   */\n      dup3\n        /* \"#utility.yul\":9491:9503   */\n      add\n        /* \"#utility.yul\":9484:9503   */\n      swap1\n      pop\n        /* \"#utility.yul\":9143:9509   */\n      swap2\n      swap1\n      pop\n      jump\t// out\n        /* \"#utility.yul\":9515:9934   */\n    tag_44:\n        /* \"#utility.yul\":9681:9685   */\n      0x00\n        /* \"#utility.yul\":9719:9721   */\n      0x20\n        /* \"#utility.yul\":9708:9717   */\n      dup3\n        /* \"#utility.yul\":9704:9722   */\n      add\n        /* \"#utility.yul\":9696:9722   */\n      swap1\n      pop\n        /* \"#utility.yul\":9768:9777   */\n      dup2\n        /* \"#utility.yul\":9762:9766   */\n      dup2\n        /* \"#utility.yul\":9758:9778   */\n      sub\n        /* \"#utility.yul\":9754:9755   */\n      0x00\n        /* \"#utility.yul\":9743:9752   */\n      dup4\n        /* \"#utility.yul\":9739:9756   */\n      add\n        /* \"#utility.yul\":9732:9779   */\n      mstore\n        /* \"#utility.yul\":9796:9927   */\n      tag_437\n        /* \"#utility.yul\":9922:9926   */\n      dup2\n        /* \"#utility.yul\":9796:9927   */\n      tag_313\n      jump\t// in\n    tag_437:\n        /* \"#utility.yul\":9788:9927   */\n      swap1\n      pop\n        /* \"#utility.yul\":9515:9934   */\n      swap2\n      swap1\n      pop\n      jump\t// out\n        /* \"#utility.yul\":9940:10121   */\n    tag_314:\n        /* \"#utility.yul\":10080:10113   */\n      0x5265656e7472616e637947756172643a207265656e7472616e742063616c6c00\n        /* \"#utility.yul\":10076:10077   */\n      0x00\n        /* \"#utility.yul\":10068:10074   */\n      dup3\n        /* \"#utility.yul\":10064:10078   */\n      add\n        /* \"#utility.yul\":10057:10114   */\n      mstore\n        /* \"#utility.yul\":9940:10121   */\n      pop\n      jump\t// out\n        /* \"#utility.yul\":10127:10493   */\n    tag_315:\n        /* \"#utility.yul\":10269:10272   */\n      0x00\n        /* \"#utility.yul\":10290:10357   */\n      tag_440\n        /* \"#utility.yul\":10354:10356   */\n      0x1f\n        /* \"#utility.yul\":10349:10352   */\n      dup4\n        /* \"#utility.yul\":10290:10357   */\n      tag_311\n      jump\t// in\n    tag_440:\n        /* \"#utility.yul\":10283:10357   */\n      swap2\n      pop\n        /* \"#utility.yul\":10366:10459   */\n      tag_441\n        /* \"#utility.yul\":10455:10458   */\n      dup3\n        /* \"#utility.yul\":10366:10459   */\n      tag_314\n      jump\t// in\n    tag_441:\n        /* \"#utility.yul\":10484:10486   */\n      0x20\n        /* \"#utility.yul\":10479:10482   */\n      dup3\n        /* \"#utility.yul\":10475:10487   */\n      add\n        /* \"#utility.yul\":10468:10487   */\n      swap1\n      pop\n        /* \"#utility.yul\":10127:10493   */\n      swap2\n      swap1\n      pop\n      jump\t// out\n        /* \"#utility.yul\":10499:10918   */\n    tag_48:\n        /* \"#utility.yul\":10665:10669   */\n      0x00\n        /* \"#utility.yul\":10703:10705   */\n      0x20\n        /* \"#utility.yul\":10692:10701   */\n      dup3\n        /* \"#utility.yul\":10688:10706   */\n      add\n        /* \"#utility.yul\":10680:10706   */\n      swap1\n      pop\n        /* \"#utility.yul\":10752:10761   */\n      dup2\n        /* \"#utility.yul\":10746:10750   */\n      dup2\n        /* \"#utility.yul\":10742:10762   */\n      sub\n        /* \"#utility.yul\":10738:10739   */\n      0x00\n        /* \"#utility.yul\":10727:10736   */\n      dup4\n        /* \"#utility.yul\":10723:10740   */\n      add\n        /* \"#utility.yul\":10716:10763   */\n      mstore\n        /* \"#utility.yul\":10780:10911   */\n      tag_443\n        /* \"#utility.yul\":10906:10910   */\n      dup2\n        /* \"#utility.yul\":10780:10911   */\n      tag_315\n      jump\t// in\n    tag_443:\n        /* \"#utility.yul\":10772:10911   */\n      swap1\n      pop\n        /* \"#utility.yul\":10499:10918   */\n      swap2\n      swap1\n      pop\n      jump\t// out\n        /* \"#utility.yul\":10924:11072   */\n    tag_316:\n        /* \"#utility.yul\":11022:11028   */\n      dup3\n        /* \"#utility.yul\":11017:11020   */\n      dup2\n        /* \"#utility.yul\":11012:11015   */\n      dup4\n        /* \"#utility.yul\":10999:11029   */\n      calldatacopy\n        /* \"#utility.yul\":11063:11064   */\n      0x00\n        /* \"#utility.yul\":11054:11060   */\n      dup4\n        /* \"#utility.yul\":11049:11052   */\n      dup4\n        /* \"#utility.yul\":11045:11061   */\n      add\n        /* \"#utility.yul\":11038:11065   */\n      mstore\n        /* \"#utility.yul\":10924:11072   */\n      pop\n      pop\n      pop\n      jump\t// out\n        /* \"#utility.yul\":11102:11432   */\n    tag_317:\n        /* \"#utility.yul\":11218:11221   */\n      0x00\n        /* \"#utility.yul\":11239:11328   */\n      tag_446\n        /* \"#utility.yul\":11321:11327   */\n      dup4\n        /* \"#utility.yul\":11316:11319   */\n      dup6\n        /* \"#utility.yul\":11239:11328   */\n      tag_309\n      jump\t// in\n    tag_446:\n        /* \"#utility.yul\":11232:11328   */\n      swap4\n      pop\n        /* \"#utility.yul\":11338:11394   */\n      tag_447\n        /* \"#utility.yul\":11387:11393   */\n      dup4\n        /* \"#utility.yul\":11382:11385   */\n      dup6\n        /* \"#utility.yul\":11375:11380   */\n      dup5\n        /* \"#utility.yul\":11338:11394   */\n      tag_316\n      jump\t// in\n    tag_447:\n        /* \"#utility.yul\":11419:11425   */\n      dup3\n        /* \"#utility.yul\":11414:11417   */\n      dup5\n        /* \"#utility.yul\":11410:11426   */\n      add\n        /* \"#utility.yul\":11403:11426   */\n      swap1\n      pop\n        /* \"#utility.yul\":11102:11432   */\n      swap4\n      swap3\n      pop\n      pop\n      pop\n      jump\t// out\n        /* \"#utility.yul\":11438:11733   */\n    tag_51:\n        /* \"#utility.yul\":11580:11583   */\n      0x00\n        /* \"#utility.yul\":11602:11707   */\n      tag_449\n        /* \"#utility.yul\":11703:11706   */\n      dup3\n        /* \"#utility.yul\":11694:11700   */\n      dup5\n        /* \"#utility.yul\":11686:11692   */\n      dup7\n        /* \"#utility.yul\":11602:11707   */\n      tag_317\n      jump\t// in\n    tag_449:\n        /* \"#utility.yul\":11595:11707   */\n      swap2\n      pop\n        /* \"#utility.yul\":11724:11727   */\n      dup2\n        /* \"#utility.yul\":11717:11727   */\n      swap1\n      pop\n        /* \"#utility.yul\":11438:11733   */\n      swap4\n      swap3\n      pop\n      pop\n      pop\n      jump\t// out\n        /* \"#utility.yul\":11739:11886   */\n    tag_318:\n        /* \"#utility.yul\":11840:11851   */\n      0x00\n        /* \"#utility.yul\":11877:11880   */\n      dup2\n        /* \"#utility.yul\":11862:11880   */\n      swap1\n      pop\n        /* \"#utility.yul\":11739:11886   */\n      swap3\n      swap2\n      pop\n      pop\n      jump\t// out\n        /* \"#utility.yul\":11892:12006   */\n    tag_319:\n      pop\n      jump\t// out\n        /* \"#utility.yul\":12012:12410   */\n    tag_320:\n        /* \"#utility.yul\":12171:12174   */\n      0x00\n        /* \"#utility.yul\":12192:12275   */\n      tag_453\n        /* \"#utility.yul\":12273:12274   */\n      0x00\n        /* \"#utility.yul\":12268:12271   */\n      dup4\n        /* \"#utility.yul\":12192:12275   */\n      tag_318\n      jump\t// in\n    tag_453:\n        /* \"#utility.yul\":12185:12275   */\n      swap2\n      pop\n        /* \"#utility.yul\":12284:12377   */\n      tag_454\n        /* \"#utility.yul\":12373:12376   */\n      dup3\n        /* \"#utility.yul\":12284:12377   */\n      tag_319\n      jump\t// in\n    tag_454:\n        /* \"#utility.yul\":12402:12403   */\n      0x00\n        /* \"#utility.yul\":12397:12400   */\n      dup3\n        /* \"#utility.yul\":12393:12404   */\n      add\n        /* \"#utility.yul\":12386:12404   */\n      swap1\n      pop\n        /* \"#utility.yul\":12012:12410   */\n      swap2\n      swap1\n      pop\n      jump\t// out\n        /* \"#utility.yul\":12416:12795   */\n    tag_53:\n        /* \"#utility.yul\":12600:12603   */\n      0x00\n        /* \"#utility.yul\":12622:12769   */\n      tag_456\n        /* \"#utility.yul\":12765:12768   */\n      dup3\n        /* \"#utility.yul\":12622:12769   */\n      tag_320\n      jump\t// in\n    tag_456:\n        /* \"#utility.yul\":12615:12769   */\n      swap2\n      pop\n        /* \"#utility.yul\":12786:12789   */\n      dup2\n        /* \"#utility.yul\":12779:12789   */\n      swap1\n      pop\n        /* \"#utility.yul\":12416:12795   */\n      swap2\n      swap1\n      pop\n      jump\t// out\n        /* \"#utility.yul\":12801:12981   */\n    tag_321:\n        /* \"#utility.yul\":12849:12926   */\n      0x4e487b7100000000000000000000000000000000000000000000000000000000\n        /* \"#utility.yul\":12846:12847   */\n      0x00\n        /* \"#utility.yul\":12839:12927   */\n      mstore\n        /* \"#utility.yul\":12946:12950   */\n      0x22\n        /* \"#utility.yul\":12943:12944   */\n      0x04\n        /* \"#utility.yul\":12936:12951   */\n      mstore\n        /* \"#utility.yul\":12970:12974   */\n      0x24\n        /* \"#utility.yul\":12967:12968   */\n      0x00\n        /* \"#utility.yul\":12960:12975   */\n      revert\n        /* \"#utility.yul\":12987:13307   */\n    tag_115:\n        /* \"#utility.yul\":13031:13037   */\n      0x00\n        /* \"#utility.yul\":13068:13069   */\n      0x02\n        /* \"#utility.yul\":13062:13066   */\n      dup3\n        /* \"#utility.yul\":13058:13070   */\n      div\n        /* \"#utility.yul\":13048:13070   */\n      swap1\n      pop\n        /* \"#utility.yul\":13115:13116   */\n      0x01\n        /* \"#utility.yul\":13109:13113   */\n      dup3\n        /* \"#utility.yul\":13105:13117   */\n      and\n        /* \"#utility.yul\":13136:13154   */\n      dup1\n        /* \"#utility.yul\":13126:13207   */\n      tag_459\n      jumpi\n        /* \"#utility.yul\":13192:13196   */\n      0x7f\n        /* \"#utility.yul\":13184:13190   */\n      dup3\n        /* \"#utility.yul\":13180:13197   */\n      and\n        /* \"#utility.yul\":13170:13197   */\n      swap2\n      pop\n        /* \"#utility.yul\":13126:13207   */\n    tag_459:\n        /* \"#utility.yul\":13254:13256   */\n      0x20\n        /* \"#utility.yul\":13246:13252   */\n      dup3\n        /* \"#utility.yul\":13243:13257   */\n      lt\n        /* \"#utility.yul\":13223:13241   */\n      dup2\n        /* \"#utility.yul\":13220:13258   */\n      sub\n        /* \"#utility.yul\":13217:13301   */\n      tag_460\n      jumpi\n        /* \"#utility.yul\":13273:13291   */\n      tag_461\n      tag_321\n      jump\t// in\n    tag_461:\n        /* \"#utility.yul\":13217:13301   */\n    tag_460:\n        /* \"#utility.yul\":13038:13307   */\n      pop\n        /* \"#utility.yul\":12987:13307   */\n      swap2\n      swap1\n      pop\n      jump\t// out\n        /* \"#utility.yul\":13313:13466   */\n    tag_322:\n        /* \"#utility.yul\":13366:13372   */\n      0x00\n        /* \"#utility.yul\":13400:13405   */\n      dup2\n        /* \"#utility.yul\":13394:13406   */\n      sload\n        /* \"#utility.yul\":13384:13406   */\n      swap1\n      pop\n        /* \"#utility.yul\":13426:13459   */\n      tag_463\n        /* \"#utility.yul\":13452:13458   */\n      dup2\n        /* \"#utility.yul\":13426:13459   */\n      tag_115\n      jump\t// in\n    tag_463:\n        /* \"#utility.yul\":13416:13459   */\n      swap1\n      pop\n        /* \"#utility.yul\":13313:13466   */\n      swap2\n      swap1\n      pop\n      jump\t// out\n        /* \"#utility.yul\":13472:13652   */\n    tag_90:\n        /* \"#utility.yul\":13520:13597   */\n      0x4e487b7100000000000000000000000000000000000000000000000000000000\n        /* \"#utility.yul\":13517:13518   */\n      0x00\n        /* \"#utility.yul\":13510:13598   */\n      mstore\n        /* \"#utility.yul\":13617:13621   */\n      0x41\n        /* \"#utility.yul\":13614:13615   */\n      0x04\n        /* \"#utility.yul\":13607:13622   */\n      mstore\n        /* \"#utility.yul\":13641:13645   */\n      0x24\n        /* \"#utility.yul\":13638:13639   */\n      0x00\n        /* \"#utility.yul\":13631:13646   */\n      revert\n        /* \"#utility.yul\":13658:13799   */\n    tag_323:\n        /* \"#utility.yul\":13707:13711   */\n      0x00\n        /* \"#utility.yul\":13730:13733   */\n      dup2\n        /* \"#utility.yul\":13722:13733   */\n      swap1\n      pop\n        /* \"#utility.yul\":13753:13756   */\n      dup2\n        /* \"#utility.yul\":13750:13751   */\n      0x00\n        /* \"#utility.yul\":13743:13757   */\n      mstore\n        /* \"#utility.yul\":13787:13791   */\n      0x20\n        /* \"#utility.yul\":13784:13785   */\n      0x00\n        /* \"#utility.yul\":13774:13792   */\n      keccak256\n        /* \"#utility.yul\":13766:13792   */\n      swap1\n      pop\n        /* \"#utility.yul\":13658:13799   */\n      swap2\n      swap1\n      pop\n      jump\t// out\n        /* \"#utility.yul\":13805:13950   */\n    tag_324:\n        /* \"#utility.yul\":13858:13862   */\n      0x00\n        /* \"#utility.yul\":13881:13884   */\n      dup2\n        /* \"#utility.yul\":13873:13884   */\n      swap1\n      pop\n        /* \"#utility.yul\":13904:13907   */\n      dup2\n        /* \"#utility.yul\":13901:13902   */\n      0x00\n        /* \"#utility.yul\":13894:13908   */\n      mstore\n        /* \"#utility.yul\":13938:13942   */\n      0x20\n        /* \"#utility.yul\":13935:13936   */\n      0x00\n        /* \"#utility.yul\":13925:13943   */\n      keccak256\n        /* \"#utility.yul\":13917:13943   */\n      swap1\n      pop\n        /* \"#utility.yul\":13805:13950   */\n      swap2\n      swap1\n      pop\n      jump\t// out\n        /* \"#utility.yul\":13956:14049   */\n    tag_325:\n        /* \"#utility.yul\":13993:13999   */\n      0x00\n        /* \"#utility.yul\":14040:14042   */\n      0x20\n        /* \"#utility.yul\":14035:14037   */\n      0x1f\n        /* \"#utility.yul\":14028:14033   */\n      dup4\n        /* \"#utility.yul\":14024:14038   */\n      add\n        /* \"#utility.yul\":14020:14043   */\n      div\n        /* \"#utility.yul\":14010:14043   */\n      swap1\n      pop\n        /* \"#utility.yul\":13956:14049   */\n      swap2\n      swap1\n      pop\n      jump\t// out\n        /* \"#utility.yul\":14055:14162   */\n    tag_326:\n        /* \"#utility.yul\":14099:14107   */\n      0x00\n        /* \"#utility.yul\":14149:14154   */\n      dup3\n        /* \"#utility.yul\":14143:14147   */\n      dup3\n        /* \"#utility.yul\":14139:14155   */\n      shl\n        /* \"#utility.yul\":14118:14155   */\n      swap1\n      pop\n        /* \"#utility.yul\":14055:14162   */\n      swap3\n      swap2\n      pop\n      pop\n      jump\t// out\n        /* \"#utility.yul\":14168:14561   */\n    tag_327:\n        /* \"#utility.yul\":14237:14243   */\n      0x00\n        /* \"#utility.yul\":14287:14288   */\n      0x08\n        /* \"#utility.yul\":14275:14285   */\n      dup4\n        /* \"#utility.yul\":14271:14289   */\n      mul\n        /* \"#utility.yul\":14310:14407   */\n      tag_470\n        /* \"#utility.yul\":14340:14406   */\n      0xffffffffffffffffffffffffffffffffffffffffffffffffffffffffffffffff\n        /* \"#utility.yul\":14329:14338   */\n      dup3\n        /* \"#utility.yul\":14310:14407   */\n      tag_326\n      jump\t// in\n    tag_470:\n        /* \"#utility.yul\":14428:14467   */\n      tag_471\n        /* \"#utility.yul\":14458:14466   */\n      dup7\n        /* \"#utility.yul\":14447:14456   */\n      dup4\n        /* \"#utility.yul\":14428:14467   */\n      tag_326\n      jump\t// in\n    tag_471:\n        /* \"#utility.yul\":14416:14467   */\n      swap6\n      pop\n        /* \"#utility.yul\":14500:14504   */\n      dup1\n        /* \"#utility.yul\":14496:14505   */\n      not\n        /* \"#utility.yul\":14489:14494   */\n      dup5\n        /* \"#utility.yul\":14485:14506   */\n      and\n        /* \"#utility.yul\":14476:14506   */\n      swap4\n      pop\n        /* \"#utility.yul\":14549:14553   */\n      dup1\n        /* \"#utility.yul\":14539:14547   */\n      dup7\n        /* \"#utility.yul\":14535:14554   */\n      and\n        /* \"#utility.yul\":14528:14533   */\n      dup5\n        /* \"#utility.yul\":14525:14555   */\n      or\n        /* \"#utility.yul\":14515:14555   */\n      swap3\n      pop\n        /* \"#utility.yul\":14244:14561   */\n      pop\n      pop\n        /* \"#utility.yul\":14168:14561   */\n      swap4\n      swap3\n      pop\n      pop\n      pop\n      jump\t// out\n        /* \"#utility.yul\":14567:14627   */\n    tag_328:\n        /* \"#utility.yul\":14595:14598   */\n      0x00\n        /* \"#utility.yul\":14616:14621   */\n      dup2\n        /* \"#utility.yul\":14609:14621   */\n      swap1\n      pop\n        /* \"#utility.yul\":14567:14627   */\n      swap2\n      swap1\n      pop\n      jump\t// out\n        /* \"#utility.yul\":14633:14775   */\n    tag_329:\n        /* \"#utility.yul\":14683:14692   */\n      0x00\n        /* \"#utility.yul\":14716:14769   */\n      tag_474\n        /* \"#utility.yul\":14734:14768   */\n      tag_475\n        /* \"#utility.yul\":14743:14767   */\n      tag_476\n        /* \"#utility.yul\":14761:14766   */\n      dup5\n        /* \"#utility.yul\":14743:14767   */\n      tag_297\n      jump\t// in\n    tag_476:\n        /* \"#utility.yul\":14734:14768   */\n      tag_328\n      jump\t// in\n    tag_475:\n        /* \"#utility.yul\":14716:14769   */\n      tag_297\n      jump\t// in\n    tag_474:\n        /* \"#utility.yul\":14703:14769   */\n      swap1\n      pop\n        /* \"#utility.yul\":14633:14775   */\n      swap2\n      swap1\n      pop\n      jump\t// out\n        /* \"#utility.yul\":14781:14856   */\n    tag_330:\n        /* \"#utility.yul\":14824:14827   */\n      0x00\n        /* \"#utility.yul\":14845:14850   */\n      dup2\n        /* \"#utility.yul\":14838:14850   */\n      swap1\n      pop\n        /* \"#utility.yul\":14781:14856   */\n      swap2\n      swap1\n      pop\n      jump\t// out\n        /* \"#utility.yul\":14862:15131   */\n    tag_331:\n        /* \"#utility.yul\":14972:15011   */\n      tag_479\n        /* \"#utility.yul\":15003:15010   */\n      dup4\n        /* \"#utility.yul\":14972:15011   */\n      tag_329\n      jump\t// in\n    tag_479:\n        /* \"#utility.yul\":15033:15124   */\n      tag_480\n        /* \"#utility.yul\":15082:15123   */\n      tag_481\n        /* \"#utility.yul\":15106:15122   */\n      dup3\n        /* \"#utility.yul\":15082:15123   */\n      tag_330\n      jump\t// in\n    tag_481:\n        /* \"#utility.yul\":15074:15080   */\n      dup5\n        /* \"#utility.yul\":15067:15071   */\n      dup5\n        /* \"#utility.yul\":15061:15072   */\n      sload\n        /* \"#utility.yul\":15033:15124   */\n      tag_327\n      jump\t// in\n    tag_480:\n        /* \"#utility.yul\":15027:15031   */\n      dup3\n        /* \"#utility.yul\":15020:15125   */\n      sstore\n        /* \"#utility.yul\":14938:15131   */\n      pop\n        /* \"#utility.yul\":14862:15131   */\n      pop\n      pop\n      pop\n      jump\t// out\n        /* \"#utility.yul\":15137:15210   */\n    tag_332:\n        /* \"#utility.yul\":15182:15185   */\n      0x00\n        /* \"#utility.yul\":15137:15210   */\n      swap1\n      jump\t// out\n        /* \"#utility.yul\":15216:15405   */\n    tag_333:\n        /* \"#utility.yul\":15293:15325   */\n      tag_484\n      tag_332\n      jump\t// in\n    tag_484:\n        /* \"#utility.yul\":15334:15399   */\n      tag_485\n        /* \"#utility.yul\":15392:15398   */\n      dup2\n        /* \"#utility.yul\":15384:15390   */\n      dup5\n        /* \"#utility.yul\":15378:15382   */\n      dup5\n        /* \"#utility.yul\":15334:15399   */\n      tag_331\n      jump\t// in\n    tag_485:\n        /* \"#utility.yul\":15269:15405   */\n      pop\n        /* \"#utility.yul\":15216:15405   */\n      pop\n      pop\n      jump\t// out\n        /* \"#utility.yul\":15411:15597   */\n    tag_334:\n        /* \"#utility.yul\":15471:15591   */\n    tag_487:\n        /* \"#utility.yul\":15488:15491   */\n      dup2\n        /* \"#utility.yul\":15481:15486   */\n      dup2\n        /* \"#utility.yul\":15478:15492   */\n      lt\n        /* \"#utility.yul\":15471:15591   */\n      iszero\n      tag_489\n      jumpi\n        /* \"#utility.yul\":15542:15581   */\n      tag_490\n        /* \"#utility.yul\":15579:15580   */\n      0x00\n        /* \"#utility.yul\":15572:15577   */\n      dup3\n        /* \"#utility.yul\":15542:15581   */\n      tag_333\n      jump\t// in\n    tag_490:\n        /* \"#utility.yul\":15515:15516   */\n      0x01\n        /* \"#utility.yul\":15508:15513   */\n      dup2\n        /* \"#utility.yul\":15504:15517   */\n      add\n        /* \"#utility.yul\":15495:15517   */\n      swap1\n      pop\n        /* \"#utility.yul\":15471:15591   */\n      jump(tag_487)\n    tag_489:\n        /* \"#utility.yul\":15411:15597   */\n      pop\n      pop\n      jump\t// out\n        /* \"#utility.yul\":15603:16146   */\n    tag_335:\n        /* \"#utility.yul\":15704:15706   */\n      0x1f\n        /* \"#utility.yul\":15699:15702   */\n      dup3\n        /* \"#utility.yul\":15696:15707   */\n      gt\n        /* \"#utility.yul\":15693:16139   */\n      iszero\n      tag_492\n      jumpi\n        /* \"#utility.yul\":15738:15776   */\n      tag_493\n        /* \"#utility.yul\":15770:15775   */\n      dup2\n        /* \"#utility.yul\":15738:15776   */\n      tag_323\n      jump\t// in\n    tag_493:\n        /* \"#utility.yul\":15822:15851   */\n      tag_494\n        /* \"#utility.yul\":15840:15850   */\n      dup5\n        /* \"#utility.yul\":15822:15851   */\n      tag_325\n      jump\t// in\n    tag_494:\n        /* \"#utility.yul\":15812:15820   */\n      dup2\n        /* \"#utility.yul\":15808:15852   */\n      add\n        /* \"#utility.yul\":16005:16007   */\n      0x20\n        /* \"#utility.yul\":15993:16003   */\n      dup6\n        /* \"#utility.yul\":15990:16008   */\n      lt\n        /* \"#utility.yul\":15987:16036   */\n      iszero\n      tag_495\n      jumpi\n        /* \"#utility.yul\":16026:16034   */\n      dup2\n        /* \"#utility.yul\":16011:16034   */\n      swap1\n      pop\n        /* \"#utility.yul\":15987:16036   */\n    tag_495:\n        /* \"#utility.yul\":16049:16129   */\n      tag_496\n        /* \"#utility.yul\":16105:16127   */\n      tag_497\n        /* \"#utility.yul\":16123:16126   */\n      dup6\n        /* \"#utility.yul\":16105:16127   */\n      tag_325\n      jump\t// in\n    tag_497:\n        /* \"#utility.yul\":16095:16103   */\n      dup4\n        /* \"#utility.yul\":16091:16128   */\n      add\n        /* \"#utility.yul\":16078:16089   */\n      dup3\n        /* \"#utility.yul\":16049:16129   */\n      tag_334\n      jump\t// in\n    tag_496:\n        /* \"#utility.yul\":15708:16139   */\n      pop\n      pop\n        /* \"#utility.yul\":15693:16139   */\n    tag_492:\n        /* \"#utility.yul\":15603:16146   */\n      pop\n      pop\n      pop\n      jump\t// out\n        /* \"#utility.yul\":16152:16269   */\n    tag_336:\n        /* \"#utility.yul\":16206:16214   */\n      0x00\n        /* \"#utility.yul\":16256:16261   */\n      dup3\n        /* \"#utility.yul\":16250:16254   */\n      dup3\n        /* \"#utility.yul\":16246:16262   */\n      shr\n        /* \"#utility.yul\":16225:16262   */\n      swap1\n      pop\n        /* \"#utility.yul\":16152:16269   */\n      swap3\n      swap2\n      pop\n      pop\n      jump\t// out\n        /* \"#utility.yul\":16275:16444   */\n    tag_337:\n        /* \"#utility.yul\":16319:16325   */\n      0x00\n        /* \"#utility.yul\":16352:16403   */\n      tag_500\n        /* \"#utility.yul\":16400:16401   */\n      0x00\n        /* \"#utility.yul\":16396:16402   */\n      not\n        /* \"#utility.yul\":16388:16393   */\n      dup5\n        /* \"#utility.yul\":16385:16386   */\n      0x08\n        /* \"#utility.yul\":16381:16394   */\n      mul\n        /* \"#utility.yul\":16352:16403   */\n      tag_336\n      jump\t// in\n    tag_500:\n        /* \"#utility.yul\":16348:16404   */\n      not\n        /* \"#utility.yul\":16433:16437   */\n      dup1\n        /* \"#utility.yul\":16427:16431   */\n      dup4\n        /* \"#utility.yul\":16423:16438   */\n      and\n        /* \"#utility.yul\":16413:16438   */\n      swap2\n      pop\n        /* \"#utility.yul\":16326:16444   */\n      pop\n        /* \"#utility.yul\":16275:16444   */\n      swap3\n      swap2\n      pop\n      pop\n      jump\t// out\n        /* \"#utility.yul\":16449:16744   */\n    tag_338:\n        /* \"#utility.yul\":16525:16529   */\n      0x00\n        /* \"#utility.yul\":16671:16700   */\n      tag_502\n        /* \"#utility.yul\":16696:16699   */\n      dup4\n        /* \"#utility.yul\":16690:16694   */\n      dup4\n        /* \"#utility.yul\":16671:16700   */\n      tag_337\n      jump\t// in\n    tag_502:\n        /* \"#utility.yul\":16663:16700   */\n      swap2\n      pop\n        /* \"#utility.yul\":16733:16736   */\n      dup3\n        /* \"#utility.yul\":16730:16731   */\n      0x02\n        /* \"#utility.yul\":16726:16737   */\n      mul\n        /* \"#utility.yul\":16720:16724   */\n      dup3\n        /* \"#utility.yul\":16717:16738   */\n      or\n        /* \"#utility.yul\":16709:16738   */\n      swap1\n      pop\n        /* \"#utility.yul\":16449:16744   */\n      swap3\n      swap2\n      pop\n      pop\n      jump\t// out\n        /* \"#utility.yul\":16749:18212   */\n    tag_63:\n        /* \"#utility.yul\":16864:16867   */\n      dup2\n        /* \"#utility.yul\":16858:16862   */\n      dup2\n        /* \"#utility.yul\":16855:16868   */\n      sub\n        /* \"#utility.yul\":16852:16878   */\n      tag_504\n      jumpi\n        /* \"#utility.yul\":16871:16876   */\n      pop\n      pop\n      jump(tag_503)\n        /* \"#utility.yul\":16852:16878   */\n    tag_504:\n        /* \"#utility.yul\":16902:16940   */\n      tag_505\n        /* \"#utility.yul\":16936:16939   */\n      dup3\n        /* \"#utility.yul\":16902:16940   */\n      tag_322\n      jump\t// in\n    tag_505:\n        /* \"#utility.yul\":17005:17023   */\n      0xffffffffffffffff\n        /* \"#utility.yul\":16997:17003   */\n      dup2\n        /* \"#utility.yul\":16994:17024   */\n      gt\n        /* \"#utility.yul\":16991:17047   */\n      iszero\n      tag_506\n      jumpi\n        /* \"#utility.yul\":17027:17045   */\n      tag_507\n      tag_90\n      jump\t// in\n    tag_507:\n        /* \"#utility.yul\":16991:17047   */\n    tag_506:\n        /* \"#utility.yul\":17071:17109   */\n      tag_508\n        /* \"#utility.yul\":17103:17107   */\n      dup3\n        /* \"#utility.yul\":17097:17108   */\n      sload\n        /* \"#utility.yul\":17071:17109   */\n      tag_115\n      jump\t// in\n    tag_508:\n        /* \"#utility.yul\":17156:17223   */\n      tag_509\n        /* \"#utility.yul\":17216:17222   */\n      dup3\n        /* \"#utility.yul\":17208:17214   */\n      dup3\n        /* \"#utility.yul\":17202:17206   */\n      dup6\n        /* \"#utility.yul\":17156:17223   */\n      tag_335\n      jump\t// in\n    tag_509:\n        /* \"#utility.yul\":17250:17251   */\n      0x00\n        /* \"#utility.yul\":17279:17281   */\n      0x1f\n        /* \"#utility.yul\":17271:17277   */\n      dup4\n        /* \"#utility.yul\":17268:17282   */\n      gt\n        /* \"#utility.yul\":17296:17297   */\n      0x01\n        /* \"#utility.yul\":17291:17967   */\n      dup2\n      eq\n      tag_511\n      jumpi\n        /* \"#utility.yul\":18011:18012   */\n      0x00\n        /* \"#utility.yul\":18028:18034   */\n      dup5\n        /* \"#utility.yul\":18025:18102   */\n      iszero\n      tag_512\n      jumpi\n        /* \"#utility.yul\":18077:18086   */\n      dup3\n        /* \"#utility.yul\":18072:18075   */\n      dup8\n        /* \"#utility.yul\":18068:18087   */\n      add\n        /* \"#utility.yul\":18062:18088   */\n      sload\n        /* \"#utility.yul\":18053:18088   */\n      swap1\n      pop\n        /* \"#utility.yul\":18025:18102   */\n    tag_512:\n        /* \"#utility.yul\":18128:18195   */\n      tag_513\n        /* \"#utility.yul\":18188:18194   */\n      dup6\n        /* \"#utility.yul\":18181:18186   */\n      dup3\n        /* \"#utility.yul\":18128:18195   */\n      tag_338\n      jump\t// in\n    tag_513:\n        /* \"#utility.yul\":18122:18126   */\n      dup7\n        /* \"#utility.yul\":18115:18196   */\n      sstore\n        /* \"#utility.yul\":17984:18206   */\n      pop\n        /* \"#utility.yul\":17261:18206   */\n      jump(tag_510)\n        /* \"#utility.yul\":17291:17967   */\n    tag_511:\n        /* \"#utility.yul\":17343:17347   */\n      0x1f\n        /* \"#utility.yul\":17339:17348   */\n      not\n        /* \"#utility.yul\":17331:17337   */\n      dup5\n        /* \"#utility.yul\":17327:17349   */\n      and\n        /* \"#utility.yul\":17369:17409   */\n      tag_514\n        /* \"#utility.yul\":17405:17408   */\n      dup8\n        /* \"#utility.yul\":17369:17409   */\n      tag_324\n      jump\t// in\n    tag_514:\n        /* \"#utility.yul\":17362:17409   */\n      swap7\n      pop\n        /* \"#utility.yul\":17436:17473   */\n      tag_515\n        /* \"#utility.yul\":17468:17472   */\n      dup7\n        /* \"#utility.yul\":17436:17473   */\n      tag_323\n      jump\t// in\n    tag_515:\n        /* \"#utility.yul\":17495:17496   */\n      0x00\n        /* \"#utility.yul\":17509:17716   */\n    tag_516:\n        /* \"#utility.yul\":17523:17530   */\n      dup3\n        /* \"#utility.yul\":17520:17521   */\n      dup2\n        /* \"#utility.yul\":17517:17531   */\n      lt\n        /* \"#utility.yul\":17509:17716   */\n      iszero\n      tag_518\n      jumpi\n        /* \"#utility.yul\":17602:17611   */\n      dup5\n        /* \"#utility.yul\":17597:17600   */\n      dup10\n        /* \"#utility.yul\":17593:17612   */\n      add\n        /* \"#utility.yul\":17587:17613   */\n      sload\n        /* \"#utility.yul\":17579:17585   */\n      dup3\n        /* \"#utility.yul\":17572:17614   */\n      sstore\n        /* \"#utility.yul\":17653:17654   */\n      0x01\n        /* \"#utility.yul\":17645:17651   */\n      dup3\n        /* \"#utility.yul\":17641:17655   */\n      add\n        /* \"#utility.yul\":17631:17655   */\n      swap2\n      pop\n        /* \"#utility.yul\":17700:17701   */\n      0x01\n        /* \"#utility.yul\":17689:17698   */\n      dup6\n        /* \"#utility.yul\":17685:17702   */\n      add\n        /* \"#utility.yul\":17672:17702   */\n      swap5\n      pop\n        /* \"#utility.yul\":17546:17550   */\n      0x20\n        /* \"#utility.yul\":17543:17544   */\n      dup2\n        /* \"#utility.yul\":17539:17551   */\n      add\n        /* \"#utility.yul\":17534:17551   */\n      swap1\n      pop\n        /* \"#utility.yul\":17509:17716   */\n      jump(tag_516)\n    tag_518:\n        /* \"#utility.yul\":17744:17750   */\n      dup7\n        /* \"#utility.yul\":17735:17742   */\n      dup4\n        /* \"#utility.yul\":17732:17751   */\n      lt\n        /* \"#utility.yul\":17729:17908   */\n      iszero\n      tag_519\n      jumpi\n        /* \"#utility.yul\":17802:17811   */\n      dup5\n        /* \"#utility.yul\":17797:17800   */\n      dup10\n        /* \"#utility.yul\":17793:17812   */\n      add\n        /* \"#utility.yul\":17787:17813   */\n      sload\n        /* \"#utility.yul\":17845:17893   */\n      tag_520\n        /* \"#utility.yul\":17887:17891   */\n      0x1f\n        /* \"#utility.yul\":17879:17885   */\n      dup10\n        /* \"#utility.yul\":17875:17892   */\n      and\n        /* \"#utility.yul\":17864:17873   */\n      dup3\n        /* \"#utility.yul\":17845:17893   */\n      tag_337\n      jump\t// in\n    tag_520:\n        /* \"#utility.yul\":17837:17843   */\n      dup4\n        /* \"#utility.yul\":17830:17894   */\n      sstore\n        /* \"#utility.yul\":17752:17908   */\n      pop\n        /* \"#utility.yul\":17729:17908   */\n    tag_519:\n        /* \"#utility.yul\":17954:17955   */\n      0x01\n        /* \"#utility.yul\":17950:17951   */\n      0x02\n        /* \"#utility.yul\":17942:17948   */\n      dup9\n        /* \"#utility.yul\":17938:17952   */\n      mul\n        /* \"#utility.yul\":17934:17956   */\n      add\n        /* \"#utility.yul\":17928:17932   */\n      dup9\n        /* \"#utility.yul\":17921:17957   */\n      sstore\n        /* \"#utility.yul\":17298:17967   */\n      pop\n      pop\n      pop\n        /* \"#utility.yul\":17261:18206   */\n    tag_510:\n      pop\n        /* \"#utility.yul\":16842:18212   */\n      pop\n      pop\n      pop\n        /* \"#utility.yul\":16749:18212   */\n      pop\n      pop\n    tag_503:\n      jump\t// out\n        /* \"#utility.yul\":18218:18336   */\n    tag_339:\n        /* \"#utility.yul\":18305:18329   */\n      tag_522\n        /* \"#utility.yul\":18323:18328   */\n      dup2\n        /* \"#utility.yul\":18305:18329   */\n      tag_297\n      jump\t// in\n    tag_522:\n        /* \"#utility.yul\":18300:18303   */\n      dup3\n        /* \"#utility.yul\":18293:18330   */\n      mstore\n        /* \"#utility.yul\":18218:18336   */\n      pop\n      pop\n      jump\t// out\n        /* \"#utility.yul\":18342:18564   */\n    tag_66:\n        /* \"#utility.yul\":18435:18439   */\n      0x00\n        /* \"#utility.yul\":18473:18475   */\n      0x20\n        /* \"#utility.yul\":18462:18471   */\n      dup3\n        /* \"#utility.yul\":18458:18476   */\n      add\n        /* \"#utility.yul\":18450:18476   */\n      swap1\n      pop\n        /* \"#utility.yul\":18486:18557   */\n      tag_524\n        /* \"#utility.yul\":18554:18555   */\n      0x00\n        /* \"#utility.yul\":18543:18552   */\n      dup4\n        /* \"#utility.yul\":18539:18556   */\n      add\n        /* \"#utility.yul\":18530:18536   */\n      dup5\n        /* \"#utility.yul\":18486:18557   */\n      tag_339\n      jump\t// in\n    tag_524:\n        /* \"#utility.yul\":18342:18564   */\n      swap3\n      swap2\n      pop\n      pop\n      jump\t// out\n        /* \"#utility.yul\":18594:19468   */\n    tag_340:\n        /* \"#utility.yul\":18697:18700   */\n      0x00\n        /* \"#utility.yul\":18734:18739   */\n      dup2\n        /* \"#utility.yul\":18728:18740   */\n      sload\n        /* \"#utility.yul\":18763:18799   */\n      tag_526\n        /* \"#utility.yul\":18789:18798   */\n      dup2\n        /* \"#utility.yul\":18763:18799   */\n      tag_115\n      jump\t// in\n    tag_526:\n        /* \"#utility.yul\":18815:18904   */\n      tag_527\n        /* \"#utility.yul\":18897:18903   */\n      dup2\n        /* \"#utility.yul\":18892:18895   */\n      dup7\n        /* \"#utility.yul\":18815:18904   */\n      tag_309\n      jump\t// in\n    tag_527:\n        /* \"#utility.yul\":18808:18904   */\n      swap5\n      pop\n        /* \"#utility.yul\":18935:18936   */\n      0x01\n        /* \"#utility.yul\":18924:18933   */\n      dup3\n        /* \"#utility.yul\":18920:18937   */\n      and\n        /* \"#utility.yul\":18951:18952   */\n      0x00\n        /* \"#utility.yul\":18946:19112   */\n      dup2\n      eq\n      tag_529\n      jumpi\n        /* \"#utility.yul\":19126:19127   */\n      0x01\n        /* \"#utility.yul\":19121:19462   */\n      dup2\n      eq\n      tag_530\n      jumpi\n        /* \"#utility.yul\":18913:19462   */\n      jump(tag_528)\n        /* \"#utility.yul\":18946:19112   */\n    tag_529:\n        /* \"#utility.yul\":19030:19034   */\n      0xff\n        /* \"#utility.yul\":19026:19035   */\n      not\n        /* \"#utility.yul\":19015:19024   */\n      dup4\n        /* \"#utility.yul\":19011:19036   */\n      and\n        /* \"#utility.yul\":19006:19009   */\n      dup7\n        /* \"#utility.yul\":18999:19037   */\n      mstore\n        /* \"#utility.yul\":19092:19098   */\n      dup2\n        /* \"#utility.yul\":19085:19099   */\n      iszero\n        /* \"#utility.yul\":19078:19100   */\n      iszero\n        /* \"#utility.yul\":19070:19076   */\n      dup3\n        /* \"#utility.yul\":19066:19101   */\n      mul\n        /* \"#utility.yul\":19061:19064   */\n      dup7\n        /* \"#utility.yul\":19057:19102   */\n      add\n        /* \"#utility.yul\":19050:19102   */\n      swap4\n      pop\n        /* \"#utility.yul\":18946:19112   */\n      jump(tag_528)\n        /* \"#utility.yul\":19121:19462   */\n    tag_530:\n        /* \"#utility.yul\":19188:19226   */\n      tag_531\n        /* \"#utility.yul\":19220:19225   */\n      dup6\n        /* \"#utility.yul\":19188:19226   */\n      tag_323\n      jump\t// in\n    tag_531:\n        /* \"#utility.yul\":19248:19249   */\n      0x00\n        /* \"#utility.yul\":19262:19416   */\n    tag_532:\n        /* \"#utility.yul\":19276:19282   */\n      dup4\n        /* \"#utility.yul\":19273:19274   */\n      dup2\n        /* \"#utility.yul\":19270:19283   */\n      lt\n        /* \"#utility.yul\":19262:19416   */\n      iszero\n      tag_534\n      jumpi\n        /* \"#utility.yul\":19350:19357   */\n      dup2\n        /* \"#utility.yul\":19344:19358   */\n      sload\n        /* \"#utility.yul\":19340:19341   */\n      dup2\n        /* \"#utility.yul\":19335:19338   */\n      dup10\n        /* \"#utility.yul\":19331:19342   */\n      add\n        /* \"#utility.yul\":19324:19359   */\n      mstore\n        /* \"#utility.yul\":19400:19401   */\n      0x01\n        /* \"#utility.yul\":19391:19398   */\n      dup3\n        /* \"#utility.yul\":19387:19402   */\n      add\n        /* \"#utility.yul\":19376:19402   */\n      swap2\n      pop\n        /* \"#utility.yul\":19298:19302   */\n      0x20\n        /* \"#utility.yul\":19295:19296   */\n      dup2\n        /* \"#utility.yul\":19291:19303   */\n      add\n        /* \"#utility.yul\":19286:19303   */\n      swap1\n      pop\n        /* \"#utility.yul\":19262:19416   */\n      jump(tag_532)\n    tag_534:\n        /* \"#utility.yul\":19445:19451   */\n      dup4\n        /* \"#utility.yul\":19440:19443   */\n      dup9\n        /* \"#utility.yul\":19436:19452   */\n      add\n        /* \"#utility.yul\":19429:19452   */\n      swap6\n      pop\n        /* \"#utility.yul\":19128:19462   */\n      pop\n      pop\n        /* \"#utility.yul\":18913:19462   */\n    tag_528:\n      pop\n        /* \"#utility.yul\":18701:19468   */\n      pop\n      pop\n        /* \"#utility.yul\":18594:19468   */\n      swap3\n      swap2\n      pop\n      pop\n      jump\t// out\n        /* \"#utility.yul\":19474:19743   */\n    tag_69:\n        /* \"#utility.yul\":19603:19606   */\n      0x00\n        /* \"#utility.yul\":19625:19717   */\n      tag_536\n        /* \"#utility.yul\":19713:19716   */\n      dup3\n        /* \"#utility.yul\":19704:19710   */\n      dup5\n        /* \"#utility.yul\":19625:19717   */\n      tag_340\n      jump\t// in\n    tag_536:\n        /* \"#utility.yul\":19618:19717   */\n      swap2\n      pop\n        /* \"#utility.yul\":19734:19737   */\n      dup2\n        /* \"#utility.yul\":19727:19737   */\n      swap1\n      pop\n        /* \"#utility.yul\":19474:19743   */\n      swap3\n      swap2\n      pop\n      pop\n      jump\t// out\n        /* \"#utility.yul\":19749:19929   */\n    tag_75:\n        /* \"#utility.yul\":19797:19874   */\n      0x4e487b7100000000000000000000000000000000000000000000000000000000\n        /* \"#utility.yul\":19794:19795   */\n      0x00\n        /* \"#utility.yul\":19787:19875   */\n      mstore\n        /* \"#utility.yul\":19894:19898   */\n      0x32\n        /* \"#utility.yul\":19891:19892   */\n      0x04\n        /* \"#utility.yul\":19884:19899   */\n      mstore\n        /* \"#utility.yul\":19918:19922   */\n      0x24\n        /* \"#utility.yul\":19915:19916   */\n      0x00\n        /* \"#utility.yul\":19908:19923   */\n      revert\n        /* \"#utility.yul\":19935:20115   */\n    tag_341:\n        /* \"#utility.yul\":19983:20060   */\n      0x4e487b7100000000000000000000000000000000000000000000000000000000\n        /* \"#utility.yul\":19980:19981   */\n      0x00\n        /* \"#utility.yul\":19973:20061   */\n      mstore\n        /* \"#utility.yul\":20080:20084   */\n      0x11\n        /* \"#utility.yul\":20077:20078   */\n      0x04\n        /* \"#utility.yul\":20070:20085   */\n      mstore\n        /* \"#utility.yul\":20104:20108   */\n      0x24\n        /* \"#utility.yul\":20101:20102   */\n      0x00\n        /* \"#utility.yul\":20094:20109   */\n      revert\n        /* \"#utility.yul\":20121:20354   */\n    tag_87:\n        /* \"#utility.yul\":20160:20163   */\n      0x00\n        /* \"#utility.yul\":20183:20207   */\n      tag_540\n        /* \"#utility.yul\":20201:20206   */\n      dup3\n        /* \"#utility.yul\":20183:20207   */\n      tag_297\n      jump\t// in\n    tag_540:\n        /* \"#utility.yul\":20174:20207   */\n      swap2\n      pop\n        /* \"#utility.yul\":20229:20295   */\n      0xffffffffffffffffffffffffffffffffffffffffffffffffffffffffffffffff\n        /* \"#utility.yul\":20222:20227   */\n      dup3\n        /* \"#utility.yul\":20219:20296   */\n      sub\n        /* \"#utility.yul\":20216:20319   */\n      tag_541\n      jumpi\n        /* \"#utility.yul\":20299:20317   */\n      tag_542\n      tag_341\n      jump\t// in\n    tag_542:\n        /* \"#utility.yul\":20216:20319   */\n    tag_541:\n        /* \"#utility.yul\":20346:20347   */\n      0x01\n        /* \"#utility.yul\":20339:20344   */\n      dup3\n        /* \"#utility.yul\":20335:20348   */\n      add\n        /* \"#utility.yul\":20328:20348   */\n      swap1\n      pop\n        /* \"#utility.yul\":20121:20354   */\n      swap2\n      swap1\n      pop\n      jump\t// out\n        /* \"#utility.yul\":20360:20737   */\n    tag_342:\n        /* \"#utility.yul\":20448:20451   */\n      0x00\n        /* \"#utility.yul\":20476:20515   */\n      tag_544\n        /* \"#utility.yul\":20509:20514   */\n      dup3\n        /* \"#utility.yul\":20476:20515   */\n      tag_292\n      jump\t// in\n    tag_544:\n        /* \"#utility.yul\":20531:20602   */\n      tag_545\n        /* \"#utility.yul\":20595:20601   */\n      dup2\n        /* \"#utility.yul\":20590:20593   */\n      dup6\n        /* \"#utility.yul\":20531:20602   */\n      tag_311\n      jump\t// in\n    tag_545:\n        /* \"#utility.yul\":20524:20602   */\n      swap4\n      pop\n        /* \"#utility.yul\":20611:20676   */\n      tag_546\n        /* \"#utility.yul\":20669:20675   */\n      dup2\n        /* \"#utility.yul\":20664:20667   */\n      dup6\n        /* \"#utility.yul\":20657:20661   */\n      0x20\n        /* \"#utility.yul\":20650:20655   */\n      dup7\n        /* \"#utility.yul\":20646:20662   */\n      add\n        /* \"#utility.yul\":20611:20676   */\n      tag_294\n      jump\t// in\n    tag_546:\n        /* \"#utility.yul\":20701:20730   */\n      tag_547\n        /* \"#utility.yul\":20723:20729   */\n      dup2\n        /* \"#utility.yul\":20701:20730   */\n      tag_295\n      jump\t// in\n    tag_547:\n        /* \"#utility.yul\":20696:20699   */\n      dup5\n        /* \"#utility.yul\":20692:20731   */\n      add\n        /* \"#utility.yul\":20685:20731   */\n      swap2\n      pop\n        /* \"#utility.yul\":20452:20737   */\n      pop\n        /* \"#utility.yul\":20360:20737   */\n      swap3\n      swap2\n      pop\n      pop\n      jump\t// out\n        /* \"#utility.yul\":20743:21166   */\n    tag_190:\n        /* \"#utility.yul\":20884:20888   */\n      0x00\n        /* \"#utility.yul\":20922:20924   */\n      0x40\n        /* \"#utility.yul\":20911:20920   */\n      dup3\n        /* \"#utility.yul\":20907:20925   */\n      add\n        /* \"#utility.yul\":20899:20925   */\n      swap1\n      pop\n        /* \"#utility.yul\":20971:20980   */\n      dup2\n        /* \"#utility.yul\":20965:20969   */\n      dup2\n        /* \"#utility.yul\":20961:20981   */\n      sub\n        /* \"#utility.yul\":20957:20958   */\n      0x00\n        /* \"#utility.yul\":20946:20955   */\n      dup4\n        /* \"#utility.yul\":20942:20959   */\n      add\n        /* \"#utility.yul\":20935:20982   */\n      mstore\n        /* \"#utility.yul\":20999:21077   */\n      tag_549\n        /* \"#utility.yul\":21072:21076   */\n      dup2\n        /* \"#utility.yul\":21063:21069   */\n      dup6\n        /* \"#utility.yul\":20999:21077   */\n      tag_342\n      jump\t// in\n    tag_549:\n        /* \"#utility.yul\":20991:21077   */\n      swap1\n      pop\n        /* \"#utility.yul\":21087:21159   */\n      tag_550\n        /* \"#utility.yul\":21155:21157   */\n      0x20\n        /* \"#utility.yul\":21144:21153   */\n      dup4\n        /* \"#utility.yul\":21140:21158   */\n      add\n        /* \"#utility.yul\":21131:21137   */\n      dup5\n        /* \"#utility.yul\":21087:21159   */\n      tag_339\n      jump\t// in\n    tag_550:\n        /* \"#utility.yul\":20743:21166   */\n      swap4\n      swap3\n      pop\n      pop\n      pop\n      jump\t// out\n        /* \"#utility.yul\":21172:21341   */\n    tag_343:\n        /* \"#utility.yul\":21312:21333   */\n      0x5573657220646f6573206e6f7420657869737400000000000000000000000000\n        /* \"#utility.yul\":21308:21309   */\n      0x00\n        /* \"#utility.yul\":21300:21306   */\n      dup3\n        /* \"#utility.yul\":21296:21310   */\n      add\n        /* \"#utility.yul\":21289:21334   */\n      mstore\n        /* \"#utility.yul\":21172:21341   */\n      pop\n      jump\t// out\n        /* \"#utility.yul\":21347:21713   */\n    tag_344:\n        /* \"#utility.yul\":21489:21492   */\n      0x00\n        /* \"#utility.yul\":21510:21577   */\n      tag_553\n        /* \"#utility.yul\":21574:21576   */\n      0x13\n        /* \"#utility.yul\":21569:21572   */\n      dup4\n        /* \"#utility.yul\":21510:21577   */\n      tag_311\n      jump\t// in\n    tag_553:\n        /* \"#utility.yul\":21503:21577   */\n      swap2\n      pop\n        /* \"#utility.yul\":21586:21679   */\n      tag_554\n        /* \"#utility.yul\":21675:21678   */\n      dup3\n        /* \"#utility.yul\":21586:21679   */\n      tag_343\n      jump\t// in\n    tag_554:\n        /* \"#utility.yul\":21704:21706   */\n      0x20\n        /* \"#utility.yul\":21699:21702   */\n      dup3\n        /* \"#utility.yul\":21695:21707   */\n      add\n        /* \"#utility.yul\":21688:21707   */\n      swap1\n      pop\n        /* \"#utility.yul\":21347:21713   */\n      swap2\n      swap1\n      pop\n      jump\t// out\n        /* \"#utility.yul\":21719:22138   */\n    tag_195:\n        /* \"#utility.yul\":21885:21889   */\n      0x00\n        /* \"#utility.yul\":21923:21925   */\n      0x20\n        /* \"#utility.yul\":21912:21921   */\n      dup3\n        /* \"#utility.yul\":21908:21926   */\n      add\n        /* \"#utility.yul\":21900:21926   */\n      swap1\n      pop\n        /* \"#utility.yul\":21972:21981   */\n      dup2\n        /* \"#utility.yul\":21966:21970   */\n      dup2\n        /* \"#utility.yul\":21962:21982   */\n      sub\n        /* \"#utility.yul\":21958:21959   */\n      0x00\n        /* \"#utility.yul\":21947:21956   */\n      dup4\n        /* \"#utility.yul\":21943:21960   */\n      add\n        /* \"#utility.yul\":21936:21983   */\n      mstore\n        /* \"#utility.yul\":22000:22131   */\n      tag_556\n        /* \"#utility.yul\":22126:22130   */\n      dup2\n        /* \"#utility.yul\":22000:22131   */\n      tag_344\n      jump\t// in\n    tag_556:\n        /* \"#utility.yul\":21992:22131   */\n      swap1\n      pop\n        /* \"#utility.yul\":21719:22138   */\n      swap2\n      swap1\n      pop\n      jump\t// out\n        /* \"#utility.yul\":22144:22314   */\n    tag_345:\n        /* \"#utility.yul\":22284:22306   */\n      0x596f7520617265206e6f7420616e2061646d696e000000000000000000000000\n        /* \"#utility.yul\":22280:22281   */\n      0x00\n        /* \"#utility.yul\":22272:22278   */\n      dup3\n        /* \"#utility.yul\":22268:22282   */\n      add\n        /* \"#utility.yul\":22261:22307   */\n      mstore\n        /* \"#utility.yul\":22144:22314   */\n      pop\n      jump\t// out\n        /* \"#utility.yul\":22320:22686   */\n    tag_346:\n        /* \"#utility.yul\":22462:22465   */\n      0x00\n        /* \"#utility.yul\":22483:22550   */\n      tag_559\n        /* \"#utility.yul\":22547:22549   */\n      0x14\n        /* \"#utility.yul\":22542:22545   */\n      dup4\n        /* \"#utility.yul\":22483:22550   */\n      tag_311\n      jump\t// in\n    tag_559:\n        /* \"#utility.yul\":22476:22550   */\n      swap2\n      pop\n        /* \"#utility.yul\":22559:22652   */\n      tag_560\n        /* \"#utility.yul\":22648:22651   */\n      dup3\n        /* \"#utility.yul\":22559:22652   */\n      tag_345\n      jump\t// in\n    tag_560:\n        /* \"#utility.yul\":22677:22679   */\n      0x20\n        /* \"#utility.yul\":22672:22675   */\n      dup3\n        /* \"#utility.yul\":22668:22680   */\n      add\n        /* \"#utility.yul\":22661:22680   */\n      swap1\n      pop\n        /* \"#utility.yul\":22320:22686   */\n      swap2\n      swap1\n      pop\n      jump\t// out\n        /* \"#utility.yul\":22692:23111   */\n    tag_202:\n        /* \"#utility.yul\":22858:22862   */\n      0x00\n        /* \"#utility.yul\":22896:22898   */\n      0x20\n        /* \"#utility.yul\":22885:22894   */\n      dup3\n        /* \"#utility.yul\":22881:22899   */\n      add\n        /* \"#utility.yul\":22873:22899   */\n      swap1\n      pop\n        /* \"#utility.yul\":22945:22954   */\n      dup2\n        /* \"#utility.yul\":22939:22943   */\n      dup2\n        /* \"#utility.yul\":22935:22955   */\n      sub\n        /* \"#utility.yul\":22931:22932   */\n      0x00\n        /* \"#utility.yul\":22920:22929   */\n      dup4\n        /* \"#utility.yul\":22916:22933   */\n      add\n        /* \"#utility.yul\":22909:22956   */\n      mstore\n        /* \"#utility.yul\":22973:23104   */\n      tag_562\n        /* \"#utility.yul\":23099:23103   */\n      dup2\n        /* \"#utility.yul\":22973:23104   */\n      tag_346\n      jump\t// in\n    tag_562:\n        /* \"#utility.yul\":22965:23104   */\n      swap1\n      pop\n        /* \"#utility.yul\":22692:23111   */\n      swap2\n      swap1\n      pop\n      jump\t// out\n        /* \"#utility.yul\":23117:23297   */\n    tag_347:\n        /* \"#utility.yul\":23165:23242   */\n      0x4e487b7100000000000000000000000000000000000000000000000000000000\n        /* \"#utility.yul\":23162:23163   */\n      0x00\n        /* \"#utility.yul\":23155:23243   */\n      mstore\n        /* \"#utility.yul\":23262:23266   */\n      0x12\n        /* \"#utility.yul\":23259:23260   */\n      0x04\n        /* \"#utility.yul\":23252:23267   */\n      mstore\n        /* \"#utility.yul\":23286:23290   */\n      0x24\n        /* \"#utility.yul\":23283:23284   */\n      0x00\n        /* \"#utility.yul\":23276:23291   */\n      revert\n        /* \"#utility.yul\":23303:23479   */\n    tag_242:\n        /* \"#utility.yul\":23335:23336   */\n      0x00\n        /* \"#utility.yul\":23352:23372   */\n      tag_565\n        /* \"#utility.yul\":23370:23371   */\n      dup3\n        /* \"#utility.yul\":23352:23372   */\n      tag_297\n      jump\t// in\n    tag_565:\n        /* \"#utility.yul\":23347:23372   */\n      swap2\n      pop\n        /* \"#utility.yul\":23386:23406   */\n      tag_566\n        /* \"#utility.yul\":23404:23405   */\n      dup4\n        /* \"#utility.yul\":23386:23406   */\n      tag_297\n      jump\t// in\n    tag_566:\n        /* \"#utility.yul\":23381:23406   */\n      swap3\n      pop\n        /* \"#utility.yul\":23425:23426   */\n      dup3\n        /* \"#utility.yul\":23415:23450   */\n      tag_567\n      jumpi\n        /* \"#utility.yul\":23430:23448   */\n      tag_568\n      tag_347\n      jump\t// in\n    tag_568:\n        /* \"#utility.yul\":23415:23450   */\n    tag_567:\n        /* \"#utility.yul\":23471:23472   */\n      dup3\n        /* \"#utility.yul\":23468:23469   */\n      dup3\n        /* \"#utility.yul\":23464:23473   */\n      mod\n        /* \"#utility.yul\":23459:23473   */\n      swap1\n      pop\n        /* \"#utility.yul\":23303:23479   */\n      swap3\n      swap2\n      pop\n      pop\n      jump\t// out\n        /* \"#utility.yul\":23485:23676   */\n    tag_244:\n        /* \"#utility.yul\":23525:23528   */\n      0x00\n        /* \"#utility.yul\":23544:23564   */\n      tag_570\n        /* \"#utility.yul\":23562:23563   */\n      dup3\n        /* \"#utility.yul\":23544:23564   */\n      tag_297\n      jump\t// in\n    tag_570:\n        /* \"#utility.yul\":23539:23564   */\n      swap2\n      pop\n        /* \"#utility.yul\":23578:23598   */\n      tag_571\n        /* \"#utility.yul\":23596:23597   */\n      dup4\n        /* \"#utility.yul\":23578:23598   */\n      tag_297\n      jump\t// in\n    tag_571:\n        /* \"#utility.yul\":23573:23598   */\n      swap3\n      pop\n        /* \"#utility.yul\":23621:23622   */\n      dup3\n        /* \"#utility.yul\":23618:23619   */\n      dup3\n        /* \"#utility.yul\":23614:23623   */\n      add\n        /* \"#utility.yul\":23607:23623   */\n      swap1\n      pop\n        /* \"#utility.yul\":23642:23645   */\n      dup1\n        /* \"#utility.yul\":23639:23640   */\n      dup3\n        /* \"#utility.yul\":23636:23646   */\n      gt\n        /* \"#utility.yul\":23633:23669   */\n      iszero\n      tag_572\n      jumpi\n        /* \"#utility.yul\":23649:23667   */\n      tag_573\n      tag_341\n      jump\t// in\n    tag_573:\n        /* \"#utility.yul\":23633:23669   */\n    tag_572:\n        /* \"#utility.yul\":23485:23676   */\n      swap3\n      swap2\n      pop\n      pop\n      jump\t// out\n        /* \"#utility.yul\":23682:23850   */\n    tag_348:\n        /* \"#utility.yul\":23822:23842   */\n      0x436f6465206973204e6f7420556e697175650000000000000000000000000000\n        /* \"#utility.yul\":23818:23819   */\n      0x00\n        /* \"#utility.yul\":23810:23816   */\n      dup3\n        /* \"#utility.yul\":23806:23820   */\n      add\n        /* \"#utility.yul\":23799:23843   */\n      mstore\n        /* \"#utility.yul\":23682:23850   */\n      pop\n      jump\t// out\n        /* \"#utility.yul\":23856:24222   */\n    tag_349:\n        /* \"#utility.yul\":23998:24001   */\n      0x00\n        /* \"#utility.yul\":24019:24086   */\n      tag_576\n        /* \"#utility.yul\":24083:24085   */\n      0x12\n        /* \"#utility.yul\":24078:24081   */\n      dup4\n        /* \"#utility.yul\":24019:24086   */\n      tag_311\n      jump\t// in\n    tag_576:\n        /* \"#utility.yul\":24012:24086   */\n      swap2\n      pop\n        /* \"#utility.yul\":24095:24188   */\n      tag_577\n        /* \"#utility.yul\":24184:24187   */\n      dup3\n        /* \"#utility.yul\":24095:24188   */\n      tag_348\n      jump\t// in\n    tag_577:\n        /* \"#utility.yul\":24213:24215   */\n      0x20\n        /* \"#utility.yul\":24208:24211   */\n      dup3\n        /* \"#utility.yul\":24204:24216   */\n      add\n        /* \"#utility.yul\":24197:24216   */\n      swap1\n      pop\n        /* \"#utility.yul\":23856:24222   */\n      swap2\n      swap1\n      pop\n      jump\t// out\n        /* \"#utility.yul\":24228:24647   */\n    tag_259:\n        /* \"#utility.yul\":24394:24398   */\n      0x00\n        /* \"#utility.yul\":24432:24434   */\n      0x20\n        /* \"#utility.yul\":24421:24430   */\n      dup3\n        /* \"#utility.yul\":24417:24435   */\n      add\n        /* \"#utility.yul\":24409:24435   */\n      swap1\n      pop\n        /* \"#utility.yul\":24481:24490   */\n      dup2\n        /* \"#utility.yul\":24475:24479   */\n      dup2\n        /* \"#utility.yul\":24471:24491   */\n      sub\n        /* \"#utility.yul\":24467:24468   */\n      0x00\n        /* \"#utility.yul\":24456:24465   */\n      dup4\n        /* \"#utility.yul\":24452:24469   */\n      add\n        /* \"#utility.yul\":24445:24492   */\n      mstore\n        /* \"#utility.yul\":24509:24640   */\n      tag_579\n        /* \"#utility.yul\":24635:24639   */\n      dup2\n        /* \"#utility.yul\":24509:24640   */\n      tag_349\n      jump\t// in\n    tag_579:\n        /* \"#utility.yul\":24501:24640   */\n      swap1\n      pop\n        /* \"#utility.yul\":24228:24647   */\n      swap2\n      swap1\n      pop\n      jump\t// out\n        /* \"#utility.yul\":24653:26048   */\n    tag_263:\n        /* \"#utility.yul\":24770:24807   */\n      tag_581\n        /* \"#utility.yul\":24803:24806   */\n      dup3\n        /* \"#utility.yul\":24770:24807   */\n      tag_292\n      jump\t// in\n    tag_581:\n        /* \"#utility.yul\":24872:24890   */\n      0xffffffffffffffff\n        /* \"#utility.yul\":24864:24870   */\n      dup2\n        /* \"#utility.yul\":24861:24891   */\n      gt\n        /* \"#utility.yul\":24858:24914   */\n      iszero\n      tag_582\n      jumpi\n        /* \"#utility.yul\":24894:24912   */\n      tag_583\n      tag_90\n      jump\t// in\n    tag_583:\n        /* \"#utility.yul\":24858:24914   */\n    tag_582:\n        /* \"#utility.yul\":24938:24976   */\n      tag_584\n        /* \"#utility.yul\":24970:24974   */\n      dup3\n        /* \"#utility.yul\":24964:24975   */\n      sload\n        /* \"#utility.yul\":24938:24976   */\n      tag_115\n      jump\t// in\n    tag_584:\n        /* \"#utility.yul\":25023:25090   */\n      tag_585\n        /* \"#utility.yul\":25083:25089   */\n      dup3\n        /* \"#utility.yul\":25075:25081   */\n      dup3\n        /* \"#utility.yul\":25069:25073   */\n      dup6\n        /* \"#utility.yul\":25023:25090   */\n      tag_335\n      jump\t// in\n    tag_585:\n        /* \"#utility.yul\":25117:25118   */\n      0x00\n        /* \"#utility.yul\":25141:25145   */\n      0x20\n        /* \"#utility.yul\":25128:25145   */\n      swap1\n      pop\n        /* \"#utility.yul\":25173:25175   */\n      0x1f\n        /* \"#utility.yul\":25165:25171   */\n      dup4\n        /* \"#utility.yul\":25162:25176   */\n      gt\n        /* \"#utility.yul\":25190:25191   */\n      0x01\n        /* \"#utility.yul\":25185:25803   */\n      dup2\n      eq\n      tag_587\n      jumpi\n        /* \"#utility.yul\":25847:25848   */\n      0x00\n        /* \"#utility.yul\":25864:25870   */\n      dup5\n        /* \"#utility.yul\":25861:25938   */\n      iszero\n      tag_588\n      jumpi\n        /* \"#utility.yul\":25913:25922   */\n      dup3\n        /* \"#utility.yul\":25908:25911   */\n      dup8\n        /* \"#utility.yul\":25904:25923   */\n      add\n        /* \"#utility.yul\":25898:25924   */\n      mload\n        /* \"#utility.yul\":25889:25924   */\n      swap1\n      pop\n        /* \"#utility.yul\":25861:25938   */\n    tag_588:\n        /* \"#utility.yul\":25964:26031   */\n      tag_589\n        /* \"#utility.yul\":26024:26030   */\n      dup6\n        /* \"#utility.yul\":26017:26022   */\n      dup3\n        /* \"#utility.yul\":25964:26031   */\n      tag_338\n      jump\t// in\n    tag_589:\n        /* \"#utility.yul\":25958:25962   */\n      dup7\n        /* \"#utility.yul\":25951:26032   */\n      sstore\n        /* \"#utility.yul\":25820:26042   */\n      pop\n        /* \"#utility.yul\":25155:26042   */\n      jump(tag_586)\n        /* \"#utility.yul\":25185:25803   */\n    tag_587:\n        /* \"#utility.yul\":25237:25241   */\n      0x1f\n        /* \"#utility.yul\":25233:25242   */\n      not\n        /* \"#utility.yul\":25225:25231   */\n      dup5\n        /* \"#utility.yul\":25221:25243   */\n      and\n        /* \"#utility.yul\":25271:25308   */\n      tag_590\n        /* \"#utility.yul\":25303:25307   */\n      dup7\n        /* \"#utility.yul\":25271:25308   */\n      tag_323\n      jump\t// in\n    tag_590:\n        /* \"#utility.yul\":25330:25331   */\n      0x00\n        /* \"#utility.yul\":25344:25552   */\n    tag_591:\n        /* \"#utility.yul\":25358:25365   */\n      dup3\n        /* \"#utility.yul\":25355:25356   */\n      dup2\n        /* \"#utility.yul\":25352:25366   */\n      lt\n        /* \"#utility.yul\":25344:25552   */\n      iszero\n      tag_593\n      jumpi\n        /* \"#utility.yul\":25437:25446   */\n      dup5\n        /* \"#utility.yul\":25432:25435   */\n      dup10\n        /* \"#utility.yul\":25428:25447   */\n      add\n        /* \"#utility.yul\":25422:25448   */\n      mload\n        /* \"#utility.yul\":25414:25420   */\n      dup3\n        /* \"#utility.yul\":25407:25449   */\n      sstore\n        /* \"#utility.yul\":25488:25489   */\n      0x01\n        /* \"#utility.yul\":25480:25486   */\n      dup3\n        /* \"#utility.yul\":25476:25490   */\n      add\n        /* \"#utility.yul\":25466:25490   */\n      swap2\n      pop\n        /* \"#utility.yul\":25535:25537   */\n      0x20\n        /* \"#utility.yul\":25524:25533   */\n      dup6\n        /* \"#utility.yul\":25520:25538   */\n      add\n        /* \"#utility.yul\":25507:25538   */\n      swap5\n      pop\n        /* \"#utility.yul\":25381:25385   */\n      0x20\n        /* \"#utility.yul\":25378:25379   */\n      dup2\n        /* \"#utility.yul\":25374:25386   */\n      add\n        /* \"#utility.yul\":25369:25386   */\n      swap1\n      pop\n        /* \"#utility.yul\":25344:25552   */\n      jump(tag_591)\n    tag_593:\n        /* \"#utility.yul\":25580:25586   */\n      dup7\n        /* \"#utility.yul\":25571:25578   */\n      dup4\n        /* \"#utility.yul\":25568:25587   */\n      lt\n        /* \"#utility.yul\":25565:25744   */\n      iszero\n      tag_594\n      jumpi\n        /* \"#utility.yul\":25638:25647   */\n      dup5\n        /* \"#utility.yul\":25633:25636   */\n      dup10\n        /* \"#utility.yul\":25629:25648   */\n      add\n        /* \"#utility.yul\":25623:25649   */\n      mload\n        /* \"#utility.yul\":25681:25729   */\n      tag_595\n        /* \"#utility.yul\":25723:25727   */\n      0x1f\n        /* \"#utility.yul\":25715:25721   */\n      dup10\n        /* \"#utility.yul\":25711:25728   */\n      and\n        /* \"#utility.yul\":25700:25709   */\n      dup3\n        /* \"#utility.yul\":25681:25729   */\n      tag_337\n      jump\t// in\n    tag_595:\n        /* \"#utility.yul\":25673:25679   */\n      dup4\n        /* \"#utility.yul\":25666:25730   */\n      sstore\n        /* \"#utility.yul\":25588:25744   */\n      pop\n        /* \"#utility.yul\":25565:25744   */\n    tag_594:\n        /* \"#utility.yul\":25790:25791   */\n      0x01\n        /* \"#utility.yul\":25786:25787   */\n      0x02\n        /* \"#utility.yul\":25778:25784   */\n      dup9\n        /* \"#utility.yul\":25774:25788   */\n      mul\n        /* \"#utility.yul\":25770:25792   */\n      add\n        /* \"#utility.yul\":25764:25768   */\n      dup9\n        /* \"#utility.yul\":25757:25793   */\n      sstore\n        /* \"#utility.yul\":25192:25803   */\n      pop\n      pop\n      pop\n        /* \"#utility.yul\":25155:26042   */\n    tag_586:\n      pop\n        /* \"#utility.yul\":24745:26048   */\n      pop\n      pop\n      pop\n        /* \"#utility.yul\":24653:26048   */\n      pop\n      pop\n      jump\t// out\n        /* \"#utility.yul\":26054:26133   */\n    tag_350:\n        /* \"#utility.yul\":26093:26100   */\n      0x00\n        /* \"#utility.yul\":26122:26127   */\n      dup2\n        /* \"#utility.yul\":26111:26127   */\n      swap1\n      pop\n        /* \"#utility.yul\":26054:26133   */\n      swap2\n      swap1\n      pop\n      jump\t// out\n        /* \"#utility.yul\":26139:26296   */\n    tag_351:\n        /* \"#utility.yul\":26244:26289   */\n      tag_598\n        /* \"#utility.yul\":26264:26288   */\n      tag_599\n        /* \"#utility.yul\":26282:26287   */\n      dup3\n        /* \"#utility.yul\":26264:26288   */\n      tag_297\n      jump\t// in\n    tag_599:\n        /* \"#utility.yul\":26244:26289   */\n      tag_350\n      jump\t// in\n    tag_598:\n        /* \"#utility.yul\":26239:26242   */\n      dup3\n        /* \"#utility.yul\":26232:26290   */\n      mstore\n        /* \"#utility.yul\":26139:26296   */\n      pop\n      pop\n      jump\t// out\n        /* \"#utility.yul\":26302:26840   */\n    tag_278:\n        /* \"#utility.yul\":26470:26473   */\n      0x00\n        /* \"#utility.yul\":26485:26560   */\n      tag_601\n        /* \"#utility.yul\":26556:26559   */\n      dup3\n        /* \"#utility.yul\":26547:26553   */\n      dup7\n        /* \"#utility.yul\":26485:26560   */\n      tag_351\n      jump\t// in\n    tag_601:\n        /* \"#utility.yul\":26585:26587   */\n      0x20\n        /* \"#utility.yul\":26580:26583   */\n      dup3\n        /* \"#utility.yul\":26576:26588   */\n      add\n        /* \"#utility.yul\":26569:26588   */\n      swap2\n      pop\n        /* \"#utility.yul\":26598:26673   */\n      tag_602\n        /* \"#utility.yul\":26669:26672   */\n      dup3\n        /* \"#utility.yul\":26660:26666   */\n      dup6\n        /* \"#utility.yul\":26598:26673   */\n      tag_351\n      jump\t// in\n    tag_602:\n        /* \"#utility.yul\":26698:26700   */\n      0x20\n        /* \"#utility.yul\":26693:26696   */\n      dup3\n        /* \"#utility.yul\":26689:26701   */\n      add\n        /* \"#utility.yul\":26682:26701   */\n      swap2\n      pop\n        /* \"#utility.yul\":26711:26786   */\n      tag_603\n        /* \"#utility.yul\":26782:26785   */\n      dup3\n        /* \"#utility.yul\":26773:26779   */\n      dup5\n        /* \"#utility.yul\":26711:26786   */\n      tag_351\n      jump\t// in\n    tag_603:\n        /* \"#utility.yul\":26811:26813   */\n      0x20\n        /* \"#utility.yul\":26806:26809   */\n      dup3\n        /* \"#utility.yul\":26802:26814   */\n      add\n        /* \"#utility.yul\":26795:26814   */\n      swap2\n      pop\n        /* \"#utility.yul\":26831:26834   */\n      dup2\n        /* \"#utility.yul\":26824:26834   */\n      swap1\n      pop\n        /* \"#utility.yul\":26302:26840   */\n      swap5\n      swap4\n      pop\n      pop\n      pop\n      pop\n      jump\t// out\n\n    auxdata: 0xa264697066735822122079bb5b85eadf70f2151deb1ae25e77e3b779c3b3ab24b0d6facbe03918a9c04464736f6c634300081a0033\n}\n",
				"bytecode": {
					"linkReferences": {},
					"object": "608060405234801561000f575f80fd5b5060405180604001604052806040518060400160405280600f81526020017f4962726168696d204d6f68616d6564000000000000000000000000000000000081525081526020015f6001811115610069576100686102e1565b5b8152505f80738dc03105ba1a429fc962ebe37766b8601d70e0d673ffffffffffffffffffffffffffffffffffffffff1673ffffffffffffffffffffffffffffffffffffffff1681526020019081526020015f205f820151815f0190816100cf9190610548565b506020820151816001015f6101000a81548160ff021916908360018111156100fa576100f96102e1565b5b02179055509050506004738dc03105ba1a429fc962ebe37766b8601d70e0d6908060018154018082558091505060019003905f5260205f20015f9091909190916101000a81548173ffffffffffffffffffffffffffffffffffffffff021916908373ffffffffffffffffffffffffffffffffffffffff16021790555060405180604001604052806040518060400160405280600b81526020017f4f6261646120536166776100000000000000000000000000000000000000000081525081526020015f60018111156101cf576101ce6102e1565b5b8152505f8073ad009219d5052664e665c2a95f12e4abea6730c073ffffffffffffffffffffffffffffffffffffffff1673ffffffffffffffffffffffffffffffffffffffff1681526020019081526020015f205f820151815f0190816102359190610548565b506020820151816001015f6101000a81548160ff021916908360018111156102605761025f6102e1565b5b0217905550905050600473ad009219d5052664e665c2a95f12e4abea6730c0908060018154018082558091505060019003905f5260205f20015f9091909190916101000a81548173ffffffffffffffffffffffffffffffffffffffff021916908373ffffffffffffffffffffffffffffffffffffffff160217905550610617565b7f4e487b71000000000000000000000000000000000000000000000000000000005f52602160045260245ffd5b5f81519050919050565b7f4e487b71000000000000000000000000000000000000000000000000000000005f52604160045260245ffd5b7f4e487b71000000000000000000000000000000000000000000000000000000005f52602260045260245ffd5b5f600282049050600182168061038957607f821691505b60208210810361039c5761039b610345565b5b50919050565b5f819050815f5260205f209050919050565b5f6020601f8301049050919050565b5f82821b905092915050565b5f600883026103fe7fffffffffffffffffffffffffffffffffffffffffffffffffffffffffffffffff826103c3565b61040886836103c3565b95508019841693508086168417925050509392505050565b5f819050919050565b5f819050919050565b5f61044c61044761044284610420565b610429565b610420565b9050919050565b5f819050919050565b61046583610432565b61047961047182610453565b8484546103cf565b825550505050565b5f90565b61048d610481565b61049881848461045c565b505050565b5b818110156104bb576104b05f82610485565b60018101905061049e565b5050565b601f821115610500576104d1816103a2565b6104da846103b4565b810160208510156104e9578190505b6104fd6104f5856103b4565b83018261049d565b50505b505050565b5f82821c905092915050565b5f6105205f1984600802610505565b1980831691505092915050565b5f6105388383610511565b9150826002028217905092915050565b6105518261030e565b67ffffffffffffffff81111561056a57610569610318565b5b6105748254610372565b61057f8282856104bf565b5f60209050601f8311600181146105b0575f841561059e578287015190505b6105a8858261052d565b86555061060f565b601f1984166105be866103a2565b5f5b828110156105e5578489015182556001820191506020850194506020810190506105c0565b8683101561060257848901516105fe601f891682610511565b8355505b6001600288020188555050505b505050505050565b6120f7806106245f395ff3fe60806040526004361061004d575f3560e01c806327e26c8c146100565780632b4a9dda1461007e5780634cf57138146100a8578063a34f011c146100e4578063a927db0d146100ee57610054565b3661005457005b005b348015610061575f80fd5b5061007c60048036038101906100779190611445565b610118565b005b348015610089575f80fd5b5061009261041b565b60405161009f91906116ad565b60405180910390f35b3480156100b3575f80fd5b506100ce60048036038101906100c991906116f0565b6108aa565b6040516100db91906116ad565b60405180910390f35b6100ec610c13565b005b3480156100f9575f80fd5b50610102610c69565b60405161010f91906116ad565b60405180910390f35b81818080601f0160208091040260200160405190810160405280939291908181526020018383808284375f81840152601f19601f8201169050808301925050505050505060018081111561016f5761016e611541565b5b60018260405161017f9190611755565b90815260200160405180910390206002015f9054906101000a900460ff1660018111156101af576101ae611541565b5b146101ef576040517f08c379a00000000000000000000000000000000000000000000000000000000081526004016101e6906117c5565b60405180910390fd5b60025f9054906101000a900460ff161561023e576040517f08c379a00000000000000000000000000000000000000000000000000000000081526004016102359061182d565b60405180910390fd5b600160025f6101000a81548160ff0219169083151502179055505f3373ffffffffffffffffffffffffffffffffffffffff166001858560405161028292919061187d565b9081526020016040518091039020600101546040516102a0906118c2565b5f6040518083038185875af1925050503d805f81146102da576040519150601f19603f3d011682016040523d82523d5f602084013e6102df565b606091505b5050905080156103fc575f600185856040516102fc92919061187d565b90815260200160405180910390206002015f6101000a81548160ff0219169083600181111561032e5761032d611541565b5b02179055505f803373ffffffffffffffffffffffffffffffffffffffff1673ffffffffffffffffffffffffffffffffffffffff1681526020019081526020015f205f016001858560405161038392919061187d565b908152602001604051809103902060030190816103a09190611b24565b507f604d6de1b6eb3f39c6ab9d4981a20d17f88c5bef33495ae58dabeb097ba7a41a600185856040516103d492919061187d565b9081526020016040518091039020600101546040516103f39190611c18565b60405180910390a15b505f60025f6101000a81548160ff021916908315150217905550505050565b60605f80805f3373ffffffffffffffffffffffffffffffffffffffff1673ffffffffffffffffffffffffffffffffffffffff1681526020019081526020015f205f0160405160200161046d9190611cb1565b6040516020818303038152906040528051906020012090505f5b60038054905081101561058357816001600383815481106104ab576104aa611cc7565b5b905f5260205f20016040516104c09190611cb1565b90815260200160405180910390205f016040516020016104e09190611cb1565b60405160208183030381529060405280519060200120148061056257508160016003838154811061051457610513611cc7565b5b905f5260205f20016040516105299190611cb1565b908152602001604051809103902060030160405160200161054a9190611cb1565b60405160208183030381529060405280519060200120145b1561057657828061057290611d21565b9350505b8080600101915050610487565b505f8267ffffffffffffffff81111561059f5761059e611948565b5b6040519080825280602002602001820160405280156105d857816020015b6105c56113a4565b8152602001906001900390816105bd5790505b5090505f805b60038054905081101561089f578360016003838154811061060257610601611cc7565b5b905f5260205f20016040516106179190611cb1565b90815260200160405180910390205f016040516020016106379190611cb1565b6040516020818303038152906040528051906020012014806106b957508360016003838154811061066b5761066a611cc7565b5b905f5260205f20016040516106809190611cb1565b90815260200160405180910390206003016040516020016106a19190611cb1565b60405160208183030381529060405280519060200120145b15610892576001600382815481106106d4576106d3611cc7565b5b905f5260205f20016040516106e99190611cb1565b90815260200160405180910390206040518060800160405290815f8201805461071190611903565b80601f016020809104026020016040519081016040528092919081815260200182805461073d90611903565b80156107885780601f1061075f57610100808354040283529160200191610788565b820191905f5260205f20905b81548152906001019060200180831161076b57829003601f168201915b5050505050815260200160018201548152602001600282015f9054906101000a900460ff1660018111156107bf576107be611541565b5b60018111156107d1576107d0611541565b5b81526020016003820180546107e590611903565b80601f016020809104026020016040519081016040528092919081815260200182805461081190611903565b801561085c5780601f106108335761010080835404028352916020019161085c565b820191905f5260205f20905b81548152906001019060200180831161083f57829003601f168201915b50505050508152505083838151811061087857610877611cc7565b5b6020026020010181905250818061088e90611d21565b9250505b80806001019150506105de565b508194505050505090565b60605f8060038054905090505f5b8181101561094f578460018111156108d3576108d2611541565b5b6001600383815481106108e9576108e8611cc7565b5b905f5260205f20016040516108fe9190611cb1565b90815260200160405180910390206002015f9054906101000a900460ff16600181111561092e5761092d611541565b5b0361094257828061093e90611d21565b9350505b80806001019150506108b8565b505f8267ffffffffffffffff81111561096b5761096a611948565b5b6040519080825280602002602001820160405280156109a457816020015b6109916113a4565b8152602001906001900390816109895790505b5090505f805b83811015610c06578660018111156109c5576109c4611541565b5b6001600383815481106109db576109da611cc7565b5b905f5260205f20016040516109f09190611cb1565b90815260200160405180910390206002015f9054906101000a900460ff166001811115610a2057610a1f611541565b5b03610bf957600160038281548110610a3b57610a3a611cc7565b5b905f5260205f2001604051610a509190611cb1565b90815260200160405180910390206040518060800160405290815f82018054610a7890611903565b80601f0160208091040260200160405190810160405280929190818152602001828054610aa490611903565b8015610aef5780601f10610ac657610100808354040283529160200191610aef565b820191905f5260205f20905b815481529060010190602001808311610ad257829003601f168201915b5050505050815260200160018201548152602001600282015f9054906101000a900460ff166001811115610b2657610b25611541565b5b6001811115610b3857610b37611541565b5b8152602001600382018054610b4c90611903565b80601f0160208091040260200160405190810160405280929190818152602001828054610b7890611903565b8015610bc35780601f10610b9a57610100808354040283529160200191610bc3565b820191905f5260205f20905b815481529060010190602001808311610ba657829003601f168201915b505050505081525050838381518110610bdf57610bde611cc7565b5b60200260200101819052508180610bf590611d21565b9250505b80806001019150506109aa565b5081945050505050919050565b5f3490505f610c20610fed565b9050610c2c81836110ca565b7f19446f6741eca6d71b8406898c4308b5f1b9844f9f1ea7614b48264e453b9bd28183604051610c5d929190611da0565b60405180910390a15050565b60605f805f3373ffffffffffffffffffffffffffffffffffffffff1673ffffffffffffffffffffffffffffffffffffffff1681526020019081526020015f205f018054610cb590611903565b905011610cf7576040517f08c379a0000000000000000000000000000000000000000000000000000000008152600401610cee90611e18565b60405180910390fd5b5f6001811115610d0a57610d09611541565b5b5f803373ffffffffffffffffffffffffffffffffffffffff1673ffffffffffffffffffffffffffffffffffffffff1681526020019081526020015f206001015f9054906101000a900460ff166001811115610d6857610d67611541565b5b14610da8576040517f08c379a0000000000000000000000000000000000000000000000000000000008152600401610d9f90611e80565b60405180910390fd5b5f60038054905090505f8167ffffffffffffffff811115610dcc57610dcb611948565b5b604051908082528060200260200182016040528015610e0557816020015b610df26113a4565b815260200190600190039081610dea5790505b5090505f5b82811015610fe457600160038281548110610e2857610e27611cc7565b5b905f5260205f2001604051610e3d9190611cb1565b90815260200160405180910390206040518060800160405290815f82018054610e6590611903565b80601f0160208091040260200160405190810160405280929190818152602001828054610e9190611903565b8015610edc5780601f10610eb357610100808354040283529160200191610edc565b820191905f5260205f20905b815481529060010190602001808311610ebf57829003601f168201915b5050505050815260200160018201548152602001600282015f9054906101000a900460ff166001811115610f1357610f12611541565b5b6001811115610f2557610f24611541565b5b8152602001600382018054610f3990611903565b80601f0160208091040260200160405190810160405280929190818152602001828054610f6590611903565b8015610fb05780601f10610f8757610100808354040283529160200191610fb0565b820191905f5260205f20905b815481529060010190602001808311610f9357829003601f168201915b505050505081525050828281518110610fcc57610fcb611cc7565b5b60200260200101819052508080600101915050610e0a565b50809250505090565b60605f600867ffffffffffffffff81111561100b5761100a611948565b5b6040519080825280601f01601f19166020018201604052801561103d5781602001600182028036833780820191505090505b5090505f5b60088110156110c2575f61105582611362565b9050601a816110649190611ecb565b60616110709190611efb565b60f81b83838151811061108657611085611cc7565b5b60200101907effffffffffffffffffffffffffffffffffffffffffffffffffffffffffffff191690815f1a905350508080600101915050611042565b508091505090565b815f805b60038054905081101561115f57826040516020016110ec9190611755565b604051602081830303815290604052805190602001206003828154811061111657611115611cc7565b5b905f5260205f200160405160200161112e9190611cb1565b6040516020818303038152906040528051906020012003611152576001915061115f565b80806001019150506110ce565b5080156111a1576040517f08c379a000000000000000000000000000000000000000000000000000000000815260040161119890611f78565b60405180910390fd5b600384908060018154018082558091505060019003905f5260205f20015f9091909190915090816111d29190611f96565b5060405180608001604052805f803373ffffffffffffffffffffffffffffffffffffffff1673ffffffffffffffffffffffffffffffffffffffff1681526020019081526020015f205f01805461122790611903565b80601f016020809104026020016040519081016040528092919081815260200182805461125390611903565b801561129e5780601f106112755761010080835404028352916020019161129e565b820191905f5260205f20905b81548152906001019060200180831161128157829003601f168201915b505050505081526020018481526020016001808111156112c1576112c0611541565b5b815260200160405180602001604052805f8152508152506001856040516112e89190611755565b90815260200160405180910390205f820151815f0190816113099190611f96565b50602082015181600101556040820151816002015f6101000a81548160ff0219169083600181111561133e5761133d611541565b5b021790555060608201518160030190816113589190611f96565b5090505050505050565b5f61271042448460405160200161137b93929190612085565b604051602081830303815290604052805190602001205f1c61139d9190611ecb565b9050919050565b6040518060800160405280606081526020015f81526020015f60018111156113cf576113ce611541565b5b8152602001606081525090565b5f80fd5b5f80fd5b5f80fd5b5f80fd5b5f80fd5b5f8083601f840112611405576114046113e4565b5b8235905067ffffffffffffffff811115611422576114216113e8565b5b60208301915083600182028301111561143e5761143d6113ec565b5b9250929050565b5f806020838503121561145b5761145a6113dc565b5b5f83013567ffffffffffffffff811115611478576114776113e0565b5b611484858286016113f0565b92509250509250929050565b5f81519050919050565b5f82825260208201905092915050565b5f819050602082019050919050565b5f81519050919050565b5f82825260208201905092915050565b8281835e5f83830152505050565b5f601f19601f8301169050919050565b5f6114fb826114b9565b61150581856114c3565b93506115158185602086016114d3565b61151e816114e1565b840191505092915050565b5f819050919050565b61153b81611529565b82525050565b7f4e487b71000000000000000000000000000000000000000000000000000000005f52602160045260245ffd5b6002811061157f5761157e611541565b5b50565b5f81905061158f8261156e565b919050565b5f61159e82611582565b9050919050565b6115ae81611594565b82525050565b5f608083015f8301518482035f8601526115ce82826114f1565b91505060208301516115e36020860182611532565b5060408301516115f660408601826115a5565b506060830151848203606086015261160e82826114f1565b9150508091505092915050565b5f61162683836115b4565b905092915050565b5f602082019050919050565b5f61164482611490565b61164e818561149a565b935083602082028501611660856114aa565b805f5b8581101561169b578484038952815161167c858261161b565b94506116878361162e565b925060208a01995050600181019050611663565b50829750879550505050505092915050565b5f6020820190508181035f8301526116c5818461163a565b905092915050565b600281106116d9575f80fd5b50565b5f813590506116ea816116cd565b92915050565b5f60208284031215611705576117046113dc565b5b5f611712848285016116dc565b91505092915050565b5f81905092915050565b5f61172f826114b9565b611739818561171b565b93506117498185602086016114d3565b80840191505092915050565b5f6117608284611725565b915081905092915050565b5f82825260208201905092915050565b7f4361726420697320496e76616c696400000000000000000000000000000000005f82015250565b5f6117af600f8361176b565b91506117ba8261177b565b602082019050919050565b5f6020820190508181035f8301526117dc816117a3565b9050919050565b7f5265656e7472616e637947756172643a207265656e7472616e742063616c6c005f82015250565b5f611817601f8361176b565b9150611822826117e3565b602082019050919050565b5f6020820190508181035f8301526118448161180b565b9050919050565b828183375f83830152505050565b5f611864838561171b565b935061187183858461184b565b82840190509392505050565b5f611889828486611859565b91508190509392505050565b5f81905092915050565b50565b5f6118ad5f83611895565b91506118b88261189f565b5f82019050919050565b5f6118cc826118a2565b9150819050919050565b7f4e487b71000000000000000000000000000000000000000000000000000000005f52602260045260245ffd5b5f600282049050600182168061191a57607f821691505b60208210810361192d5761192c6118d6565b5b50919050565b5f8154905061194181611903565b9050919050565b7f4e487b71000000000000000000000000000000000000000000000000000000005f52604160045260245ffd5b5f819050815f5260205f209050919050565b5f819050815f5260205f209050919050565b5f6020601f8301049050919050565b5f82821b905092915050565b5f600883026119e37fffffffffffffffffffffffffffffffffffffffffffffffffffffffffffffffff826119a8565b6119ed86836119a8565b95508019841693508086168417925050509392505050565b5f819050919050565b5f611a28611a23611a1e84611529565b611a05565b611529565b9050919050565b5f819050919050565b611a4183611a0e565b611a55611a4d82611a2f565b8484546119b4565b825550505050565b5f90565b611a69611a5d565b611a74818484611a38565b505050565b5b81811015611a9757611a8c5f82611a61565b600181019050611a7a565b5050565b601f821115611adc57611aad81611975565b611ab684611999565b81016020851015611ac5578190505b611ad9611ad185611999565b830182611a79565b50505b505050565b5f82821c905092915050565b5f611afc5f1984600802611ae1565b1980831691505092915050565b5f611b148383611aed565b9150826002028217905092915050565b818103611b32575050611c07565b611b3b82611933565b67ffffffffffffffff811115611b5457611b53611948565b5b611b5e8254611903565b611b69828285611a9b565b5f601f831160018114611b96575f8415611b84578287015490505b611b8e8582611b09565b865550611c00565b601f198416611ba487611987565b9650611baf86611975565b5f5b82811015611bd657848901548255600182019150600185019450602081019050611bb1565b86831015611bf35784890154611bef601f891682611aed565b8355505b6001600288020188555050505b5050505050505b565b611c1281611529565b82525050565b5f602082019050611c2b5f830184611c09565b92915050565b5f8154611c3d81611903565b611c47818661171b565b9450600182165f8114611c615760018114611c7657611ca8565b60ff1983168652811515820286019350611ca8565b611c7f85611975565b5f5b83811015611ca057815481890152600182019150602081019050611c81565b838801955050505b50505092915050565b5f611cbc8284611c31565b915081905092915050565b7f4e487b71000000000000000000000000000000000000000000000000000000005f52603260045260245ffd5b7f4e487b71000000000000000000000000000000000000000000000000000000005f52601160045260245ffd5b5f611d2b82611529565b91507fffffffffffffffffffffffffffffffffffffffffffffffffffffffffffffffff8203611d5d57611d5c611cf4565b5b600182019050919050565b5f611d72826114b9565b611d7c818561176b565b9350611d8c8185602086016114d3565b611d95816114e1565b840191505092915050565b5f6040820190508181035f830152611db88185611d68565b9050611dc76020830184611c09565b9392505050565b7f5573657220646f6573206e6f74206578697374000000000000000000000000005f82015250565b5f611e0260138361176b565b9150611e0d82611dce565b602082019050919050565b5f6020820190508181035f830152611e2f81611df6565b9050919050565b7f596f7520617265206e6f7420616e2061646d696e0000000000000000000000005f82015250565b5f611e6a60148361176b565b9150611e7582611e36565b602082019050919050565b5f6020820190508181035f830152611e9781611e5e565b9050919050565b7f4e487b71000000000000000000000000000000000000000000000000000000005f52601260045260245ffd5b5f611ed582611529565b9150611ee083611529565b925082611ef057611eef611e9e565b5b828206905092915050565b5f611f0582611529565b9150611f1083611529565b9250828201905080821115611f2857611f27611cf4565b5b92915050565b7f436f6465206973204e6f7420556e6971756500000000000000000000000000005f82015250565b5f611f6260128361176b565b9150611f6d82611f2e565b602082019050919050565b5f6020820190508181035f830152611f8f81611f56565b9050919050565b611f9f826114b9565b67ffffffffffffffff811115611fb857611fb7611948565b5b611fc28254611903565b611fcd828285611a9b565b5f60209050601f831160018114611ffe575f8415611fec578287015190505b611ff68582611b09565b86555061205d565b601f19841661200c86611975565b5f5b828110156120335784890151825560018201915060208501945060208101905061200e565b86831015612050578489015161204c601f891682611aed565b8355505b6001600288020188555050505b505050505050565b5f819050919050565b61207f61207a82611529565b612065565b82525050565b5f612090828661206e565b6020820191506120a0828561206e565b6020820191506120b0828461206e565b60208201915081905094935050505056fea264697066735822122079bb5b85eadf70f2151deb1ae25e77e3b779c3b3ab24b0d6facbe03918a9c04464736f6c634300081a0033",
					"opcodes": "PUSH1 0x80 PUSH1 0x40 MSTORE CALLVALUE DUP1 ISZERO PUSH2 0xF JUMPI PUSH0 DUP1 REVERT JUMPDEST POP PUSH1 0x40 MLOAD DUP1 PUSH1 0x40 ADD PUSH1 0x40 MSTORE DUP1 PUSH1 0x40 MLOAD DUP1 PUSH1 0x40 ADD PUSH1 0x40 MSTORE DUP1 PUSH1 0xF DUP2 MSTORE PUSH1 0x20 ADD PUSH32 0x4962726168696D204D6F68616D65640000000000000000000000000000000000 DUP2 MSTORE POP DUP2 MSTORE PUSH1 0x20 ADD PUSH0 PUSH1 0x1 DUP2 GT ISZERO PUSH2 0x69 JUMPI PUSH2 0x68 PUSH2 0x2E1 JUMP JUMPDEST JUMPDEST DUP2 MSTORE POP PUSH0 DUP1 PUSH20 0x8DC03105BA1A429FC962EBE37766B8601D70E0D6 PUSH20 0xFFFFFFFFFFFFFFFFFFFFFFFFFFFFFFFFFFFFFFFF AND PUSH20 0xFFFFFFFFFFFFFFFFFFFFFFFFFFFFFFFFFFFFFFFF AND DUP2 MSTORE PUSH1 0x20 ADD SWAP1 DUP2 MSTORE PUSH1 0x20 ADD PUSH0 KECCAK256 PUSH0 DUP3 ADD MLOAD DUP2 PUSH0 ADD SWAP1 DUP2 PUSH2 0xCF SWAP2 SWAP1 PUSH2 0x548 JUMP JUMPDEST POP PUSH1 0x20 DUP3 ADD MLOAD DUP2 PUSH1 0x1 ADD PUSH0 PUSH2 0x100 EXP DUP2 SLOAD DUP2 PUSH1 0xFF MUL NOT AND SWAP1 DUP4 PUSH1 0x1 DUP2 GT ISZERO PUSH2 0xFA JUMPI PUSH2 0xF9 PUSH2 0x2E1 JUMP JUMPDEST JUMPDEST MUL OR SWAP1 SSTORE POP SWAP1 POP POP PUSH1 0x4 PUSH20 0x8DC03105BA1A429FC962EBE37766B8601D70E0D6 SWAP1 DUP1 PUSH1 0x1 DUP2 SLOAD ADD DUP1 DUP3 SSTORE DUP1 SWAP2 POP POP PUSH1 0x1 SWAP1 SUB SWAP1 PUSH0 MSTORE PUSH1 0x20 PUSH0 KECCAK256 ADD PUSH0 SWAP1 SWAP2 SWAP1 SWAP2 SWAP1 SWAP2 PUSH2 0x100 EXP DUP2 SLOAD DUP2 PUSH20 0xFFFFFFFFFFFFFFFFFFFFFFFFFFFFFFFFFFFFFFFF MUL NOT AND SWAP1 DUP4 PUSH20 0xFFFFFFFFFFFFFFFFFFFFFFFFFFFFFFFFFFFFFFFF AND MUL OR SWAP1 SSTORE POP PUSH1 0x40 MLOAD DUP1 PUSH1 0x40 ADD PUSH1 0x40 MSTORE DUP1 PUSH1 0x40 MLOAD DUP1 PUSH1 0x40 ADD PUSH1 0x40 MSTORE DUP1 PUSH1 0xB DUP2 MSTORE PUSH1 0x20 ADD PUSH32 0x4F62616461205361667761000000000000000000000000000000000000000000 DUP2 MSTORE POP DUP2 MSTORE PUSH1 0x20 ADD PUSH0 PUSH1 0x1 DUP2 GT ISZERO PUSH2 0x1CF JUMPI PUSH2 0x1CE PUSH2 0x2E1 JUMP JUMPDEST JUMPDEST DUP2 MSTORE POP PUSH0 DUP1 PUSH20 0xAD009219D5052664E665C2A95F12E4ABEA6730C0 PUSH20 0xFFFFFFFFFFFFFFFFFFFFFFFFFFFFFFFFFFFFFFFF AND PUSH20 0xFFFFFFFFFFFFFFFFFFFFFFFFFFFFFFFFFFFFFFFF AND DUP2 MSTORE PUSH1 0x20 ADD SWAP1 DUP2 MSTORE PUSH1 0x20 ADD PUSH0 KECCAK256 PUSH0 DUP3 ADD MLOAD DUP2 PUSH0 ADD SWAP1 DUP2 PUSH2 0x235 SWAP2 SWAP1 PUSH2 0x548 JUMP JUMPDEST POP PUSH1 0x20 DUP3 ADD MLOAD DUP2 PUSH1 0x1 ADD PUSH0 PUSH2 0x100 EXP DUP2 SLOAD DUP2 PUSH1 0xFF MUL NOT AND SWAP1 DUP4 PUSH1 0x1 DUP2 GT ISZERO PUSH2 0x260 JUMPI PUSH2 0x25F PUSH2 0x2E1 JUMP JUMPDEST JUMPDEST MUL OR SWAP1 SSTORE POP SWAP1 POP POP PUSH1 0x4 PUSH20 0xAD009219D5052664E665C2A95F12E4ABEA6730C0 SWAP1 DUP1 PUSH1 0x1 DUP2 SLOAD ADD DUP1 DUP3 SSTORE DUP1 SWAP2 POP POP PUSH1 0x1 SWAP1 SUB SWAP1 PUSH0 MSTORE PUSH1 0x20 PUSH0 KECCAK256 ADD PUSH0 SWAP1 SWAP2 SWAP1 SWAP2 SWAP1 SWAP2 PUSH2 0x100 EXP DUP2 SLOAD DUP2 PUSH20 0xFFFFFFFFFFFFFFFFFFFFFFFFFFFFFFFFFFFFFFFF MUL NOT AND SWAP1 DUP4 PUSH20 0xFFFFFFFFFFFFFFFFFFFFFFFFFFFFFFFFFFFFFFFF AND MUL OR SWAP1 SSTORE POP PUSH2 0x617 JUMP JUMPDEST PUSH32 0x4E487B7100000000000000000000000000000000000000000000000000000000 PUSH0 MSTORE PUSH1 0x21 PUSH1 0x4 MSTORE PUSH1 0x24 PUSH0 REVERT JUMPDEST PUSH0 DUP2 MLOAD SWAP1 POP SWAP2 SWAP1 POP JUMP JUMPDEST PUSH32 0x4E487B7100000000000000000000000000000000000000000000000000000000 PUSH0 MSTORE PUSH1 0x41 PUSH1 0x4 MSTORE PUSH1 0x24 PUSH0 REVERT JUMPDEST PUSH32 0x4E487B7100000000000000000000000000000000000000000000000000000000 PUSH0 MSTORE PUSH1 0x22 PUSH1 0x4 MSTORE PUSH1 0x24 PUSH0 REVERT JUMPDEST PUSH0 PUSH1 0x2 DUP3 DIV SWAP1 POP PUSH1 0x1 DUP3 AND DUP1 PUSH2 0x389 JUMPI PUSH1 0x7F DUP3 AND SWAP2 POP JUMPDEST PUSH1 0x20 DUP3 LT DUP2 SUB PUSH2 0x39C JUMPI PUSH2 0x39B PUSH2 0x345 JUMP JUMPDEST JUMPDEST POP SWAP2 SWAP1 POP JUMP JUMPDEST PUSH0 DUP2 SWAP1 POP DUP2 PUSH0 MSTORE PUSH1 0x20 PUSH0 KECCAK256 SWAP1 POP SWAP2 SWAP1 POP JUMP JUMPDEST PUSH0 PUSH1 0x20 PUSH1 0x1F DUP4 ADD DIV SWAP1 POP SWAP2 SWAP1 POP JUMP JUMPDEST PUSH0 DUP3 DUP3 SHL SWAP1 POP SWAP3 SWAP2 POP POP JUMP JUMPDEST PUSH0 PUSH1 0x8 DUP4 MUL PUSH2 0x3FE PUSH32 0xFFFFFFFFFFFFFFFFFFFFFFFFFFFFFFFFFFFFFFFFFFFFFFFFFFFFFFFFFFFFFFFF DUP3 PUSH2 0x3C3 JUMP JUMPDEST PUSH2 0x408 DUP7 DUP4 PUSH2 0x3C3 JUMP JUMPDEST SWAP6 POP DUP1 NOT DUP5 AND SWAP4 POP DUP1 DUP7 AND DUP5 OR SWAP3 POP POP POP SWAP4 SWAP3 POP POP POP JUMP JUMPDEST PUSH0 DUP2 SWAP1 POP SWAP2 SWAP1 POP JUMP JUMPDEST PUSH0 DUP2 SWAP1 POP SWAP2 SWAP1 POP JUMP JUMPDEST PUSH0 PUSH2 0x44C PUSH2 0x447 PUSH2 0x442 DUP5 PUSH2 0x420 JUMP JUMPDEST PUSH2 0x429 JUMP JUMPDEST PUSH2 0x420 JUMP JUMPDEST SWAP1 POP SWAP2 SWAP1 POP JUMP JUMPDEST PUSH0 DUP2 SWAP1 POP SWAP2 SWAP1 POP JUMP JUMPDEST PUSH2 0x465 DUP4 PUSH2 0x432 JUMP JUMPDEST PUSH2 0x479 PUSH2 0x471 DUP3 PUSH2 0x453 JUMP JUMPDEST DUP5 DUP5 SLOAD PUSH2 0x3CF JUMP JUMPDEST DUP3 SSTORE POP POP POP POP JUMP JUMPDEST PUSH0 SWAP1 JUMP JUMPDEST PUSH2 0x48D PUSH2 0x481 JUMP JUMPDEST PUSH2 0x498 DUP2 DUP5 DUP5 PUSH2 0x45C JUMP JUMPDEST POP POP POP JUMP JUMPDEST JUMPDEST DUP2 DUP2 LT ISZERO PUSH2 0x4BB JUMPI PUSH2 0x4B0 PUSH0 DUP3 PUSH2 0x485 JUMP JUMPDEST PUSH1 0x1 DUP2 ADD SWAP1 POP PUSH2 0x49E JUMP JUMPDEST POP POP JUMP JUMPDEST PUSH1 0x1F DUP3 GT ISZERO PUSH2 0x500 JUMPI PUSH2 0x4D1 DUP2 PUSH2 0x3A2 JUMP JUMPDEST PUSH2 0x4DA DUP5 PUSH2 0x3B4 JUMP JUMPDEST DUP2 ADD PUSH1 0x20 DUP6 LT ISZERO PUSH2 0x4E9 JUMPI DUP2 SWAP1 POP JUMPDEST PUSH2 0x4FD PUSH2 0x4F5 DUP6 PUSH2 0x3B4 JUMP JUMPDEST DUP4 ADD DUP3 PUSH2 0x49D JUMP JUMPDEST POP POP JUMPDEST POP POP POP JUMP JUMPDEST PUSH0 DUP3 DUP3 SHR SWAP1 POP SWAP3 SWAP2 POP POP JUMP JUMPDEST PUSH0 PUSH2 0x520 PUSH0 NOT DUP5 PUSH1 0x8 MUL PUSH2 0x505 JUMP JUMPDEST NOT DUP1 DUP4 AND SWAP2 POP POP SWAP3 SWAP2 POP POP JUMP JUMPDEST PUSH0 PUSH2 0x538 DUP4 DUP4 PUSH2 0x511 JUMP JUMPDEST SWAP2 POP DUP3 PUSH1 0x2 MUL DUP3 OR SWAP1 POP SWAP3 SWAP2 POP POP JUMP JUMPDEST PUSH2 0x551 DUP3 PUSH2 0x30E JUMP JUMPDEST PUSH8 0xFFFFFFFFFFFFFFFF DUP2 GT ISZERO PUSH2 0x56A JUMPI PUSH2 0x569 PUSH2 0x318 JUMP JUMPDEST JUMPDEST PUSH2 0x574 DUP3 SLOAD PUSH2 0x372 JUMP JUMPDEST PUSH2 0x57F DUP3 DUP3 DUP6 PUSH2 0x4BF JUMP JUMPDEST PUSH0 PUSH1 0x20 SWAP1 POP PUSH1 0x1F DUP4 GT PUSH1 0x1 DUP2 EQ PUSH2 0x5B0 JUMPI PUSH0 DUP5 ISZERO PUSH2 0x59E JUMPI DUP3 DUP8 ADD MLOAD SWAP1 POP JUMPDEST PUSH2 0x5A8 DUP6 DUP3 PUSH2 0x52D JUMP JUMPDEST DUP7 SSTORE POP PUSH2 0x60F JUMP JUMPDEST PUSH1 0x1F NOT DUP5 AND PUSH2 0x5BE DUP7 PUSH2 0x3A2 JUMP JUMPDEST PUSH0 JUMPDEST DUP3 DUP2 LT ISZERO PUSH2 0x5E5 JUMPI DUP5 DUP10 ADD MLOAD DUP3 SSTORE PUSH1 0x1 DUP3 ADD SWAP2 POP PUSH1 0x20 DUP6 ADD SWAP5 POP PUSH1 0x20 DUP2 ADD SWAP1 POP PUSH2 0x5C0 JUMP JUMPDEST DUP7 DUP4 LT ISZERO PUSH2 0x602 JUMPI DUP5 DUP10 ADD MLOAD PUSH2 0x5FE PUSH1 0x1F DUP10 AND DUP3 PUSH2 0x511 JUMP JUMPDEST DUP4 SSTORE POP JUMPDEST PUSH1 0x1 PUSH1 0x2 DUP9 MUL ADD DUP9 SSTORE POP POP POP JUMPDEST POP POP POP POP POP POP JUMP JUMPDEST PUSH2 0x20F7 DUP1 PUSH2 0x624 PUSH0 CODECOPY PUSH0 RETURN INVALID PUSH1 0x80 PUSH1 0x40 MSTORE PUSH1 0x4 CALLDATASIZE LT PUSH2 0x4D JUMPI PUSH0 CALLDATALOAD PUSH1 0xE0 SHR DUP1 PUSH4 0x27E26C8C EQ PUSH2 0x56 JUMPI DUP1 PUSH4 0x2B4A9DDA EQ PUSH2 0x7E JUMPI DUP1 PUSH4 0x4CF57138 EQ PUSH2 0xA8 JUMPI DUP1 PUSH4 0xA34F011C EQ PUSH2 0xE4 JUMPI DUP1 PUSH4 0xA927DB0D EQ PUSH2 0xEE JUMPI PUSH2 0x54 JUMP JUMPDEST CALLDATASIZE PUSH2 0x54 JUMPI STOP JUMPDEST STOP JUMPDEST CALLVALUE DUP1 ISZERO PUSH2 0x61 JUMPI PUSH0 DUP1 REVERT JUMPDEST POP PUSH2 0x7C PUSH1 0x4 DUP1 CALLDATASIZE SUB DUP2 ADD SWAP1 PUSH2 0x77 SWAP2 SWAP1 PUSH2 0x1445 JUMP JUMPDEST PUSH2 0x118 JUMP JUMPDEST STOP JUMPDEST CALLVALUE DUP1 ISZERO PUSH2 0x89 JUMPI PUSH0 DUP1 REVERT JUMPDEST POP PUSH2 0x92 PUSH2 0x41B JUMP JUMPDEST PUSH1 0x40 MLOAD PUSH2 0x9F SWAP2 SWAP1 PUSH2 0x16AD JUMP JUMPDEST PUSH1 0x40 MLOAD DUP1 SWAP2 SUB SWAP1 RETURN JUMPDEST CALLVALUE DUP1 ISZERO PUSH2 0xB3 JUMPI PUSH0 DUP1 REVERT JUMPDEST POP PUSH2 0xCE PUSH1 0x4 DUP1 CALLDATASIZE SUB DUP2 ADD SWAP1 PUSH2 0xC9 SWAP2 SWAP1 PUSH2 0x16F0 JUMP JUMPDEST PUSH2 0x8AA JUMP JUMPDEST PUSH1 0x40 MLOAD PUSH2 0xDB SWAP2 SWAP1 PUSH2 0x16AD JUMP JUMPDEST PUSH1 0x40 MLOAD DUP1 SWAP2 SUB SWAP1 RETURN JUMPDEST PUSH2 0xEC PUSH2 0xC13 JUMP JUMPDEST STOP JUMPDEST CALLVALUE DUP1 ISZERO PUSH2 0xF9 JUMPI PUSH0 DUP1 REVERT JUMPDEST POP PUSH2 0x102 PUSH2 0xC69 JUMP JUMPDEST PUSH1 0x40 MLOAD PUSH2 0x10F SWAP2 SWAP1 PUSH2 0x16AD JUMP JUMPDEST PUSH1 0x40 MLOAD DUP1 SWAP2 SUB SWAP1 RETURN JUMPDEST DUP2 DUP2 DUP1 DUP1 PUSH1 0x1F ADD PUSH1 0x20 DUP1 SWAP2 DIV MUL PUSH1 0x20 ADD PUSH1 0x40 MLOAD SWAP1 DUP2 ADD PUSH1 0x40 MSTORE DUP1 SWAP4 SWAP3 SWAP2 SWAP1 DUP2 DUP2 MSTORE PUSH1 0x20 ADD DUP4 DUP4 DUP1 DUP3 DUP5 CALLDATACOPY PUSH0 DUP2 DUP5 ADD MSTORE PUSH1 0x1F NOT PUSH1 0x1F DUP3 ADD AND SWAP1 POP DUP1 DUP4 ADD SWAP3 POP POP POP POP POP POP POP PUSH1 0x1 DUP1 DUP2 GT ISZERO PUSH2 0x16F JUMPI PUSH2 0x16E PUSH2 0x1541 JUMP JUMPDEST JUMPDEST PUSH1 0x1 DUP3 PUSH1 0x40 MLOAD PUSH2 0x17F SWAP2 SWAP1 PUSH2 0x1755 JUMP JUMPDEST SWAP1 DUP2 MSTORE PUSH1 0x20 ADD PUSH1 0x40 MLOAD DUP1 SWAP2 SUB SWAP1 KECCAK256 PUSH1 0x2 ADD PUSH0 SWAP1 SLOAD SWAP1 PUSH2 0x100 EXP SWAP1 DIV PUSH1 0xFF AND PUSH1 0x1 DUP2 GT ISZERO PUSH2 0x1AF JUMPI PUSH2 0x1AE PUSH2 0x1541 JUMP JUMPDEST JUMPDEST EQ PUSH2 0x1EF JUMPI PUSH1 0x40 MLOAD PUSH32 0x8C379A000000000000000000000000000000000000000000000000000000000 DUP2 MSTORE PUSH1 0x4 ADD PUSH2 0x1E6 SWAP1 PUSH2 0x17C5 JUMP JUMPDEST PUSH1 0x40 MLOAD DUP1 SWAP2 SUB SWAP1 REVERT JUMPDEST PUSH1 0x2 PUSH0 SWAP1 SLOAD SWAP1 PUSH2 0x100 EXP SWAP1 DIV PUSH1 0xFF AND ISZERO PUSH2 0x23E JUMPI PUSH1 0x40 MLOAD PUSH32 0x8C379A000000000000000000000000000000000000000000000000000000000 DUP2 MSTORE PUSH1 0x4 ADD PUSH2 0x235 SWAP1 PUSH2 0x182D JUMP JUMPDEST PUSH1 0x40 MLOAD DUP1 SWAP2 SUB SWAP1 REVERT JUMPDEST PUSH1 0x1 PUSH1 0x2 PUSH0 PUSH2 0x100 EXP DUP2 SLOAD DUP2 PUSH1 0xFF MUL NOT AND SWAP1 DUP4 ISZERO ISZERO MUL OR SWAP1 SSTORE POP PUSH0 CALLER PUSH20 0xFFFFFFFFFFFFFFFFFFFFFFFFFFFFFFFFFFFFFFFF AND PUSH1 0x1 DUP6 DUP6 PUSH1 0x40 MLOAD PUSH2 0x282 SWAP3 SWAP2 SWAP1 PUSH2 0x187D JUMP JUMPDEST SWAP1 DUP2 MSTORE PUSH1 0x20 ADD PUSH1 0x40 MLOAD DUP1 SWAP2 SUB SWAP1 KECCAK256 PUSH1 0x1 ADD SLOAD PUSH1 0x40 MLOAD PUSH2 0x2A0 SWAP1 PUSH2 0x18C2 JUMP JUMPDEST PUSH0 PUSH1 0x40 MLOAD DUP1 DUP4 SUB DUP2 DUP6 DUP8 GAS CALL SWAP3 POP POP POP RETURNDATASIZE DUP1 PUSH0 DUP2 EQ PUSH2 0x2DA JUMPI PUSH1 0x40 MLOAD SWAP2 POP PUSH1 0x1F NOT PUSH1 0x3F RETURNDATASIZE ADD AND DUP3 ADD PUSH1 0x40 MSTORE RETURNDATASIZE DUP3 MSTORE RETURNDATASIZE PUSH0 PUSH1 0x20 DUP5 ADD RETURNDATACOPY PUSH2 0x2DF JUMP JUMPDEST PUSH1 0x60 SWAP2 POP JUMPDEST POP POP SWAP1 POP DUP1 ISZERO PUSH2 0x3FC JUMPI PUSH0 PUSH1 0x1 DUP6 DUP6 PUSH1 0x40 MLOAD PUSH2 0x2FC SWAP3 SWAP2 SWAP1 PUSH2 0x187D JUMP JUMPDEST SWAP1 DUP2 MSTORE PUSH1 0x20 ADD PUSH1 0x40 MLOAD DUP1 SWAP2 SUB SWAP1 KECCAK256 PUSH1 0x2 ADD PUSH0 PUSH2 0x100 EXP DUP2 SLOAD DUP2 PUSH1 0xFF MUL NOT AND SWAP1 DUP4 PUSH1 0x1 DUP2 GT ISZERO PUSH2 0x32E JUMPI PUSH2 0x32D PUSH2 0x1541 JUMP JUMPDEST JUMPDEST MUL OR SWAP1 SSTORE POP PUSH0 DUP1 CALLER PUSH20 0xFFFFFFFFFFFFFFFFFFFFFFFFFFFFFFFFFFFFFFFF AND PUSH20 0xFFFFFFFFFFFFFFFFFFFFFFFFFFFFFFFFFFFFFFFF AND DUP2 MSTORE PUSH1 0x20 ADD SWAP1 DUP2 MSTORE PUSH1 0x20 ADD PUSH0 KECCAK256 PUSH0 ADD PUSH1 0x1 DUP6 DUP6 PUSH1 0x40 MLOAD PUSH2 0x383 SWAP3 SWAP2 SWAP1 PUSH2 0x187D JUMP JUMPDEST SWAP1 DUP2 MSTORE PUSH1 0x20 ADD PUSH1 0x40 MLOAD DUP1 SWAP2 SUB SWAP1 KECCAK256 PUSH1 0x3 ADD SWAP1 DUP2 PUSH2 0x3A0 SWAP2 SWAP1 PUSH2 0x1B24 JUMP JUMPDEST POP PUSH32 0x604D6DE1B6EB3F39C6AB9D4981A20D17F88C5BEF33495AE58DABEB097BA7A41A PUSH1 0x1 DUP6 DUP6 PUSH1 0x40 MLOAD PUSH2 0x3D4 SWAP3 SWAP2 SWAP1 PUSH2 0x187D JUMP JUMPDEST SWAP1 DUP2 MSTORE PUSH1 0x20 ADD PUSH1 0x40 MLOAD DUP1 SWAP2 SUB SWAP1 KECCAK256 PUSH1 0x1 ADD SLOAD PUSH1 0x40 MLOAD PUSH2 0x3F3 SWAP2 SWAP1 PUSH2 0x1C18 JUMP JUMPDEST PUSH1 0x40 MLOAD DUP1 SWAP2 SUB SWAP1 LOG1 JUMPDEST POP PUSH0 PUSH1 0x2 PUSH0 PUSH2 0x100 EXP DUP2 SLOAD DUP2 PUSH1 0xFF MUL NOT AND SWAP1 DUP4 ISZERO ISZERO MUL OR SWAP1 SSTORE POP POP POP POP JUMP JUMPDEST PUSH1 0x60 PUSH0 DUP1 DUP1 PUSH0 CALLER PUSH20 0xFFFFFFFFFFFFFFFFFFFFFFFFFFFFFFFFFFFFFFFF AND PUSH20 0xFFFFFFFFFFFFFFFFFFFFFFFFFFFFFFFFFFFFFFFF AND DUP2 MSTORE PUSH1 0x20 ADD SWAP1 DUP2 MSTORE PUSH1 0x20 ADD PUSH0 KECCAK256 PUSH0 ADD PUSH1 0x40 MLOAD PUSH1 0x20 ADD PUSH2 0x46D SWAP2 SWAP1 PUSH2 0x1CB1 JUMP JUMPDEST PUSH1 0x40 MLOAD PUSH1 0x20 DUP2 DUP4 SUB SUB DUP2 MSTORE SWAP1 PUSH1 0x40 MSTORE DUP1 MLOAD SWAP1 PUSH1 0x20 ADD KECCAK256 SWAP1 POP PUSH0 JUMPDEST PUSH1 0x3 DUP1 SLOAD SWAP1 POP DUP2 LT ISZERO PUSH2 0x583 JUMPI DUP2 PUSH1 0x1 PUSH1 0x3 DUP4 DUP2 SLOAD DUP2 LT PUSH2 0x4AB JUMPI PUSH2 0x4AA PUSH2 0x1CC7 JUMP JUMPDEST JUMPDEST SWAP1 PUSH0 MSTORE PUSH1 0x20 PUSH0 KECCAK256 ADD PUSH1 0x40 MLOAD PUSH2 0x4C0 SWAP2 SWAP1 PUSH2 0x1CB1 JUMP JUMPDEST SWAP1 DUP2 MSTORE PUSH1 0x20 ADD PUSH1 0x40 MLOAD DUP1 SWAP2 SUB SWAP1 KECCAK256 PUSH0 ADD PUSH1 0x40 MLOAD PUSH1 0x20 ADD PUSH2 0x4E0 SWAP2 SWAP1 PUSH2 0x1CB1 JUMP JUMPDEST PUSH1 0x40 MLOAD PUSH1 0x20 DUP2 DUP4 SUB SUB DUP2 MSTORE SWAP1 PUSH1 0x40 MSTORE DUP1 MLOAD SWAP1 PUSH1 0x20 ADD KECCAK256 EQ DUP1 PUSH2 0x562 JUMPI POP DUP2 PUSH1 0x1 PUSH1 0x3 DUP4 DUP2 SLOAD DUP2 LT PUSH2 0x514 JUMPI PUSH2 0x513 PUSH2 0x1CC7 JUMP JUMPDEST JUMPDEST SWAP1 PUSH0 MSTORE PUSH1 0x20 PUSH0 KECCAK256 ADD PUSH1 0x40 MLOAD PUSH2 0x529 SWAP2 SWAP1 PUSH2 0x1CB1 JUMP JUMPDEST SWAP1 DUP2 MSTORE PUSH1 0x20 ADD PUSH1 0x40 MLOAD DUP1 SWAP2 SUB SWAP1 KECCAK256 PUSH1 0x3 ADD PUSH1 0x40 MLOAD PUSH1 0x20 ADD PUSH2 0x54A SWAP2 SWAP1 PUSH2 0x1CB1 JUMP JUMPDEST PUSH1 0x40 MLOAD PUSH1 0x20 DUP2 DUP4 SUB SUB DUP2 MSTORE SWAP1 PUSH1 0x40 MSTORE DUP1 MLOAD SWAP1 PUSH1 0x20 ADD KECCAK256 EQ JUMPDEST ISZERO PUSH2 0x576 JUMPI DUP3 DUP1 PUSH2 0x572 SWAP1 PUSH2 0x1D21 JUMP JUMPDEST SWAP4 POP POP JUMPDEST DUP1 DUP1 PUSH1 0x1 ADD SWAP2 POP POP PUSH2 0x487 JUMP JUMPDEST POP PUSH0 DUP3 PUSH8 0xFFFFFFFFFFFFFFFF DUP2 GT ISZERO PUSH2 0x59F JUMPI PUSH2 0x59E PUSH2 0x1948 JUMP JUMPDEST JUMPDEST PUSH1 0x40 MLOAD SWAP1 DUP1 DUP3 MSTORE DUP1 PUSH1 0x20 MUL PUSH1 0x20 ADD DUP3 ADD PUSH1 0x40 MSTORE DUP1 ISZERO PUSH2 0x5D8 JUMPI DUP2 PUSH1 0x20 ADD JUMPDEST PUSH2 0x5C5 PUSH2 0x13A4 JUMP JUMPDEST DUP2 MSTORE PUSH1 0x20 ADD SWAP1 PUSH1 0x1 SWAP1 SUB SWAP1 DUP2 PUSH2 0x5BD JUMPI SWAP1 POP JUMPDEST POP SWAP1 POP PUSH0 DUP1 JUMPDEST PUSH1 0x3 DUP1 SLOAD SWAP1 POP DUP2 LT ISZERO PUSH2 0x89F JUMPI DUP4 PUSH1 0x1 PUSH1 0x3 DUP4 DUP2 SLOAD DUP2 LT PUSH2 0x602 JUMPI PUSH2 0x601 PUSH2 0x1CC7 JUMP JUMPDEST JUMPDEST SWAP1 PUSH0 MSTORE PUSH1 0x20 PUSH0 KECCAK256 ADD PUSH1 0x40 MLOAD PUSH2 0x617 SWAP2 SWAP1 PUSH2 0x1CB1 JUMP JUMPDEST SWAP1 DUP2 MSTORE PUSH1 0x20 ADD PUSH1 0x40 MLOAD DUP1 SWAP2 SUB SWAP1 KECCAK256 PUSH0 ADD PUSH1 0x40 MLOAD PUSH1 0x20 ADD PUSH2 0x637 SWAP2 SWAP1 PUSH2 0x1CB1 JUMP JUMPDEST PUSH1 0x40 MLOAD PUSH1 0x20 DUP2 DUP4 SUB SUB DUP2 MSTORE SWAP1 PUSH1 0x40 MSTORE DUP1 MLOAD SWAP1 PUSH1 0x20 ADD KECCAK256 EQ DUP1 PUSH2 0x6B9 JUMPI POP DUP4 PUSH1 0x1 PUSH1 0x3 DUP4 DUP2 SLOAD DUP2 LT PUSH2 0x66B JUMPI PUSH2 0x66A PUSH2 0x1CC7 JUMP JUMPDEST JUMPDEST SWAP1 PUSH0 MSTORE PUSH1 0x20 PUSH0 KECCAK256 ADD PUSH1 0x40 MLOAD PUSH2 0x680 SWAP2 SWAP1 PUSH2 0x1CB1 JUMP JUMPDEST SWAP1 DUP2 MSTORE PUSH1 0x20 ADD PUSH1 0x40 MLOAD DUP1 SWAP2 SUB SWAP1 KECCAK256 PUSH1 0x3 ADD PUSH1 0x40 MLOAD PUSH1 0x20 ADD PUSH2 0x6A1 SWAP2 SWAP1 PUSH2 0x1CB1 JUMP JUMPDEST PUSH1 0x40 MLOAD PUSH1 0x20 DUP2 DUP4 SUB SUB DUP2 MSTORE SWAP1 PUSH1 0x40 MSTORE DUP1 MLOAD SWAP1 PUSH1 0x20 ADD KECCAK256 EQ JUMPDEST ISZERO PUSH2 0x892 JUMPI PUSH1 0x1 PUSH1 0x3 DUP3 DUP2 SLOAD DUP2 LT PUSH2 0x6D4 JUMPI PUSH2 0x6D3 PUSH2 0x1CC7 JUMP JUMPDEST JUMPDEST SWAP1 PUSH0 MSTORE PUSH1 0x20 PUSH0 KECCAK256 ADD PUSH1 0x40 MLOAD PUSH2 0x6E9 SWAP2 SWAP1 PUSH2 0x1CB1 JUMP JUMPDEST SWAP1 DUP2 MSTORE PUSH1 0x20 ADD PUSH1 0x40 MLOAD DUP1 SWAP2 SUB SWAP1 KECCAK256 PUSH1 0x40 MLOAD DUP1 PUSH1 0x80 ADD PUSH1 0x40 MSTORE SWAP1 DUP2 PUSH0 DUP3 ADD DUP1 SLOAD PUSH2 0x711 SWAP1 PUSH2 0x1903 JUMP JUMPDEST DUP1 PUSH1 0x1F ADD PUSH1 0x20 DUP1 SWAP2 DIV MUL PUSH1 0x20 ADD PUSH1 0x40 MLOAD SWAP1 DUP2 ADD PUSH1 0x40 MSTORE DUP1 SWAP3 SWAP2 SWAP1 DUP2 DUP2 MSTORE PUSH1 0x20 ADD DUP3 DUP1 SLOAD PUSH2 0x73D SWAP1 PUSH2 0x1903 JUMP JUMPDEST DUP1 ISZERO PUSH2 0x788 JUMPI DUP1 PUSH1 0x1F LT PUSH2 0x75F JUMPI PUSH2 0x100 DUP1 DUP4 SLOAD DIV MUL DUP4 MSTORE SWAP2 PUSH1 0x20 ADD SWAP2 PUSH2 0x788 JUMP JUMPDEST DUP3 ADD SWAP2 SWAP1 PUSH0 MSTORE PUSH1 0x20 PUSH0 KECCAK256 SWAP1 JUMPDEST DUP2 SLOAD DUP2 MSTORE SWAP1 PUSH1 0x1 ADD SWAP1 PUSH1 0x20 ADD DUP1 DUP4 GT PUSH2 0x76B JUMPI DUP3 SWAP1 SUB PUSH1 0x1F AND DUP3 ADD SWAP2 JUMPDEST POP POP POP POP POP DUP2 MSTORE PUSH1 0x20 ADD PUSH1 0x1 DUP3 ADD SLOAD DUP2 MSTORE PUSH1 0x20 ADD PUSH1 0x2 DUP3 ADD PUSH0 SWAP1 SLOAD SWAP1 PUSH2 0x100 EXP SWAP1 DIV PUSH1 0xFF AND PUSH1 0x1 DUP2 GT ISZERO PUSH2 0x7BF JUMPI PUSH2 0x7BE PUSH2 0x1541 JUMP JUMPDEST JUMPDEST PUSH1 0x1 DUP2 GT ISZERO PUSH2 0x7D1 JUMPI PUSH2 0x7D0 PUSH2 0x1541 JUMP JUMPDEST JUMPDEST DUP2 MSTORE PUSH1 0x20 ADD PUSH1 0x3 DUP3 ADD DUP1 SLOAD PUSH2 0x7E5 SWAP1 PUSH2 0x1903 JUMP JUMPDEST DUP1 PUSH1 0x1F ADD PUSH1 0x20 DUP1 SWAP2 DIV MUL PUSH1 0x20 ADD PUSH1 0x40 MLOAD SWAP1 DUP2 ADD PUSH1 0x40 MSTORE DUP1 SWAP3 SWAP2 SWAP1 DUP2 DUP2 MSTORE PUSH1 0x20 ADD DUP3 DUP1 SLOAD PUSH2 0x811 SWAP1 PUSH2 0x1903 JUMP JUMPDEST DUP1 ISZERO PUSH2 0x85C JUMPI DUP1 PUSH1 0x1F LT PUSH2 0x833 JUMPI PUSH2 0x100 DUP1 DUP4 SLOAD DIV MUL DUP4 MSTORE SWAP2 PUSH1 0x20 ADD SWAP2 PUSH2 0x85C JUMP JUMPDEST DUP3 ADD SWAP2 SWAP1 PUSH0 MSTORE PUSH1 0x20 PUSH0 KECCAK256 SWAP1 JUMPDEST DUP2 SLOAD DUP2 MSTORE SWAP1 PUSH1 0x1 ADD SWAP1 PUSH1 0x20 ADD DUP1 DUP4 GT PUSH2 0x83F JUMPI DUP3 SWAP1 SUB PUSH1 0x1F AND DUP3 ADD SWAP2 JUMPDEST POP POP POP POP POP DUP2 MSTORE POP POP DUP4 DUP4 DUP2 MLOAD DUP2 LT PUSH2 0x878 JUMPI PUSH2 0x877 PUSH2 0x1CC7 JUMP JUMPDEST JUMPDEST PUSH1 0x20 MUL PUSH1 0x20 ADD ADD DUP2 SWAP1 MSTORE POP DUP2 DUP1 PUSH2 0x88E SWAP1 PUSH2 0x1D21 JUMP JUMPDEST SWAP3 POP POP JUMPDEST DUP1 DUP1 PUSH1 0x1 ADD SWAP2 POP POP PUSH2 0x5DE JUMP JUMPDEST POP DUP2 SWAP5 POP POP POP POP POP SWAP1 JUMP JUMPDEST PUSH1 0x60 PUSH0 DUP1 PUSH1 0x3 DUP1 SLOAD SWAP1 POP SWAP1 POP PUSH0 JUMPDEST DUP2 DUP2 LT ISZERO PUSH2 0x94F JUMPI DUP5 PUSH1 0x1 DUP2 GT ISZERO PUSH2 0x8D3 JUMPI PUSH2 0x8D2 PUSH2 0x1541 JUMP JUMPDEST JUMPDEST PUSH1 0x1 PUSH1 0x3 DUP4 DUP2 SLOAD DUP2 LT PUSH2 0x8E9 JUMPI PUSH2 0x8E8 PUSH2 0x1CC7 JUMP JUMPDEST JUMPDEST SWAP1 PUSH0 MSTORE PUSH1 0x20 PUSH0 KECCAK256 ADD PUSH1 0x40 MLOAD PUSH2 0x8FE SWAP2 SWAP1 PUSH2 0x1CB1 JUMP JUMPDEST SWAP1 DUP2 MSTORE PUSH1 0x20 ADD PUSH1 0x40 MLOAD DUP1 SWAP2 SUB SWAP1 KECCAK256 PUSH1 0x2 ADD PUSH0 SWAP1 SLOAD SWAP1 PUSH2 0x100 EXP SWAP1 DIV PUSH1 0xFF AND PUSH1 0x1 DUP2 GT ISZERO PUSH2 0x92E JUMPI PUSH2 0x92D PUSH2 0x1541 JUMP JUMPDEST JUMPDEST SUB PUSH2 0x942 JUMPI DUP3 DUP1 PUSH2 0x93E SWAP1 PUSH2 0x1D21 JUMP JUMPDEST SWAP4 POP POP JUMPDEST DUP1 DUP1 PUSH1 0x1 ADD SWAP2 POP POP PUSH2 0x8B8 JUMP JUMPDEST POP PUSH0 DUP3 PUSH8 0xFFFFFFFFFFFFFFFF DUP2 GT ISZERO PUSH2 0x96B JUMPI PUSH2 0x96A PUSH2 0x1948 JUMP JUMPDEST JUMPDEST PUSH1 0x40 MLOAD SWAP1 DUP1 DUP3 MSTORE DUP1 PUSH1 0x20 MUL PUSH1 0x20 ADD DUP3 ADD PUSH1 0x40 MSTORE DUP1 ISZERO PUSH2 0x9A4 JUMPI DUP2 PUSH1 0x20 ADD JUMPDEST PUSH2 0x991 PUSH2 0x13A4 JUMP JUMPDEST DUP2 MSTORE PUSH1 0x20 ADD SWAP1 PUSH1 0x1 SWAP1 SUB SWAP1 DUP2 PUSH2 0x989 JUMPI SWAP1 POP JUMPDEST POP SWAP1 POP PUSH0 DUP1 JUMPDEST DUP4 DUP2 LT ISZERO PUSH2 0xC06 JUMPI DUP7 PUSH1 0x1 DUP2 GT ISZERO PUSH2 0x9C5 JUMPI PUSH2 0x9C4 PUSH2 0x1541 JUMP JUMPDEST JUMPDEST PUSH1 0x1 PUSH1 0x3 DUP4 DUP2 SLOAD DUP2 LT PUSH2 0x9DB JUMPI PUSH2 0x9DA PUSH2 0x1CC7 JUMP JUMPDEST JUMPDEST SWAP1 PUSH0 MSTORE PUSH1 0x20 PUSH0 KECCAK256 ADD PUSH1 0x40 MLOAD PUSH2 0x9F0 SWAP2 SWAP1 PUSH2 0x1CB1 JUMP JUMPDEST SWAP1 DUP2 MSTORE PUSH1 0x20 ADD PUSH1 0x40 MLOAD DUP1 SWAP2 SUB SWAP1 KECCAK256 PUSH1 0x2 ADD PUSH0 SWAP1 SLOAD SWAP1 PUSH2 0x100 EXP SWAP1 DIV PUSH1 0xFF AND PUSH1 0x1 DUP2 GT ISZERO PUSH2 0xA20 JUMPI PUSH2 0xA1F PUSH2 0x1541 JUMP JUMPDEST JUMPDEST SUB PUSH2 0xBF9 JUMPI PUSH1 0x1 PUSH1 0x3 DUP3 DUP2 SLOAD DUP2 LT PUSH2 0xA3B JUMPI PUSH2 0xA3A PUSH2 0x1CC7 JUMP JUMPDEST JUMPDEST SWAP1 PUSH0 MSTORE PUSH1 0x20 PUSH0 KECCAK256 ADD PUSH1 0x40 MLOAD PUSH2 0xA50 SWAP2 SWAP1 PUSH2 0x1CB1 JUMP JUMPDEST SWAP1 DUP2 MSTORE PUSH1 0x20 ADD PUSH1 0x40 MLOAD DUP1 SWAP2 SUB SWAP1 KECCAK256 PUSH1 0x40 MLOAD DUP1 PUSH1 0x80 ADD PUSH1 0x40 MSTORE SWAP1 DUP2 PUSH0 DUP3 ADD DUP1 SLOAD PUSH2 0xA78 SWAP1 PUSH2 0x1903 JUMP JUMPDEST DUP1 PUSH1 0x1F ADD PUSH1 0x20 DUP1 SWAP2 DIV MUL PUSH1 0x20 ADD PUSH1 0x40 MLOAD SWAP1 DUP2 ADD PUSH1 0x40 MSTORE DUP1 SWAP3 SWAP2 SWAP1 DUP2 DUP2 MSTORE PUSH1 0x20 ADD DUP3 DUP1 SLOAD PUSH2 0xAA4 SWAP1 PUSH2 0x1903 JUMP JUMPDEST DUP1 ISZERO PUSH2 0xAEF JUMPI DUP1 PUSH1 0x1F LT PUSH2 0xAC6 JUMPI PUSH2 0x100 DUP1 DUP4 SLOAD DIV MUL DUP4 MSTORE SWAP2 PUSH1 0x20 ADD SWAP2 PUSH2 0xAEF JUMP JUMPDEST DUP3 ADD SWAP2 SWAP1 PUSH0 MSTORE PUSH1 0x20 PUSH0 KECCAK256 SWAP1 JUMPDEST DUP2 SLOAD DUP2 MSTORE SWAP1 PUSH1 0x1 ADD SWAP1 PUSH1 0x20 ADD DUP1 DUP4 GT PUSH2 0xAD2 JUMPI DUP3 SWAP1 SUB PUSH1 0x1F AND DUP3 ADD SWAP2 JUMPDEST POP POP POP POP POP DUP2 MSTORE PUSH1 0x20 ADD PUSH1 0x1 DUP3 ADD SLOAD DUP2 MSTORE PUSH1 0x20 ADD PUSH1 0x2 DUP3 ADD PUSH0 SWAP1 SLOAD SWAP1 PUSH2 0x100 EXP SWAP1 DIV PUSH1 0xFF AND PUSH1 0x1 DUP2 GT ISZERO PUSH2 0xB26 JUMPI PUSH2 0xB25 PUSH2 0x1541 JUMP JUMPDEST JUMPDEST PUSH1 0x1 DUP2 GT ISZERO PUSH2 0xB38 JUMPI PUSH2 0xB37 PUSH2 0x1541 JUMP JUMPDEST JUMPDEST DUP2 MSTORE PUSH1 0x20 ADD PUSH1 0x3 DUP3 ADD DUP1 SLOAD PUSH2 0xB4C SWAP1 PUSH2 0x1903 JUMP JUMPDEST DUP1 PUSH1 0x1F ADD PUSH1 0x20 DUP1 SWAP2 DIV MUL PUSH1 0x20 ADD PUSH1 0x40 MLOAD SWAP1 DUP2 ADD PUSH1 0x40 MSTORE DUP1 SWAP3 SWAP2 SWAP1 DUP2 DUP2 MSTORE PUSH1 0x20 ADD DUP3 DUP1 SLOAD PUSH2 0xB78 SWAP1 PUSH2 0x1903 JUMP JUMPDEST DUP1 ISZERO PUSH2 0xBC3 JUMPI DUP1 PUSH1 0x1F LT PUSH2 0xB9A JUMPI PUSH2 0x100 DUP1 DUP4 SLOAD DIV MUL DUP4 MSTORE SWAP2 PUSH1 0x20 ADD SWAP2 PUSH2 0xBC3 JUMP JUMPDEST DUP3 ADD SWAP2 SWAP1 PUSH0 MSTORE PUSH1 0x20 PUSH0 KECCAK256 SWAP1 JUMPDEST DUP2 SLOAD DUP2 MSTORE SWAP1 PUSH1 0x1 ADD SWAP1 PUSH1 0x20 ADD DUP1 DUP4 GT PUSH2 0xBA6 JUMPI DUP3 SWAP1 SUB PUSH1 0x1F AND DUP3 ADD SWAP2 JUMPDEST POP POP POP POP POP DUP2 MSTORE POP POP DUP4 DUP4 DUP2 MLOAD DUP2 LT PUSH2 0xBDF JUMPI PUSH2 0xBDE PUSH2 0x1CC7 JUMP JUMPDEST JUMPDEST PUSH1 0x20 MUL PUSH1 0x20 ADD ADD DUP2 SWAP1 MSTORE POP DUP2 DUP1 PUSH2 0xBF5 SWAP1 PUSH2 0x1D21 JUMP JUMPDEST SWAP3 POP POP JUMPDEST DUP1 DUP1 PUSH1 0x1 ADD SWAP2 POP POP PUSH2 0x9AA JUMP JUMPDEST POP DUP2 SWAP5 POP POP POP POP POP SWAP2 SWAP1 POP JUMP JUMPDEST PUSH0 CALLVALUE SWAP1 POP PUSH0 PUSH2 0xC20 PUSH2 0xFED JUMP JUMPDEST SWAP1 POP PUSH2 0xC2C DUP2 DUP4 PUSH2 0x10CA JUMP JUMPDEST PUSH32 0x19446F6741ECA6D71B8406898C4308B5F1B9844F9F1EA7614B48264E453B9BD2 DUP2 DUP4 PUSH1 0x40 MLOAD PUSH2 0xC5D SWAP3 SWAP2 SWAP1 PUSH2 0x1DA0 JUMP JUMPDEST PUSH1 0x40 MLOAD DUP1 SWAP2 SUB SWAP1 LOG1 POP POP JUMP JUMPDEST PUSH1 0x60 PUSH0 DUP1 PUSH0 CALLER PUSH20 0xFFFFFFFFFFFFFFFFFFFFFFFFFFFFFFFFFFFFFFFF AND PUSH20 0xFFFFFFFFFFFFFFFFFFFFFFFFFFFFFFFFFFFFFFFF AND DUP2 MSTORE PUSH1 0x20 ADD SWAP1 DUP2 MSTORE PUSH1 0x20 ADD PUSH0 KECCAK256 PUSH0 ADD DUP1 SLOAD PUSH2 0xCB5 SWAP1 PUSH2 0x1903 JUMP JUMPDEST SWAP1 POP GT PUSH2 0xCF7 JUMPI PUSH1 0x40 MLOAD PUSH32 0x8C379A000000000000000000000000000000000000000000000000000000000 DUP2 MSTORE PUSH1 0x4 ADD PUSH2 0xCEE SWAP1 PUSH2 0x1E18 JUMP JUMPDEST PUSH1 0x40 MLOAD DUP1 SWAP2 SUB SWAP1 REVERT JUMPDEST PUSH0 PUSH1 0x1 DUP2 GT ISZERO PUSH2 0xD0A JUMPI PUSH2 0xD09 PUSH2 0x1541 JUMP JUMPDEST JUMPDEST PUSH0 DUP1 CALLER PUSH20 0xFFFFFFFFFFFFFFFFFFFFFFFFFFFFFFFFFFFFFFFF AND PUSH20 0xFFFFFFFFFFFFFFFFFFFFFFFFFFFFFFFFFFFFFFFF AND DUP2 MSTORE PUSH1 0x20 ADD SWAP1 DUP2 MSTORE PUSH1 0x20 ADD PUSH0 KECCAK256 PUSH1 0x1 ADD PUSH0 SWAP1 SLOAD SWAP1 PUSH2 0x100 EXP SWAP1 DIV PUSH1 0xFF AND PUSH1 0x1 DUP2 GT ISZERO PUSH2 0xD68 JUMPI PUSH2 0xD67 PUSH2 0x1541 JUMP JUMPDEST JUMPDEST EQ PUSH2 0xDA8 JUMPI PUSH1 0x40 MLOAD PUSH32 0x8C379A000000000000000000000000000000000000000000000000000000000 DUP2 MSTORE PUSH1 0x4 ADD PUSH2 0xD9F SWAP1 PUSH2 0x1E80 JUMP JUMPDEST PUSH1 0x40 MLOAD DUP1 SWAP2 SUB SWAP1 REVERT JUMPDEST PUSH0 PUSH1 0x3 DUP1 SLOAD SWAP1 POP SWAP1 POP PUSH0 DUP2 PUSH8 0xFFFFFFFFFFFFFFFF DUP2 GT ISZERO PUSH2 0xDCC JUMPI PUSH2 0xDCB PUSH2 0x1948 JUMP JUMPDEST JUMPDEST PUSH1 0x40 MLOAD SWAP1 DUP1 DUP3 MSTORE DUP1 PUSH1 0x20 MUL PUSH1 0x20 ADD DUP3 ADD PUSH1 0x40 MSTORE DUP1 ISZERO PUSH2 0xE05 JUMPI DUP2 PUSH1 0x20 ADD JUMPDEST PUSH2 0xDF2 PUSH2 0x13A4 JUMP JUMPDEST DUP2 MSTORE PUSH1 0x20 ADD SWAP1 PUSH1 0x1 SWAP1 SUB SWAP1 DUP2 PUSH2 0xDEA JUMPI SWAP1 POP JUMPDEST POP SWAP1 POP PUSH0 JUMPDEST DUP3 DUP2 LT ISZERO PUSH2 0xFE4 JUMPI PUSH1 0x1 PUSH1 0x3 DUP3 DUP2 SLOAD DUP2 LT PUSH2 0xE28 JUMPI PUSH2 0xE27 PUSH2 0x1CC7 JUMP JUMPDEST JUMPDEST SWAP1 PUSH0 MSTORE PUSH1 0x20 PUSH0 KECCAK256 ADD PUSH1 0x40 MLOAD PUSH2 0xE3D SWAP2 SWAP1 PUSH2 0x1CB1 JUMP JUMPDEST SWAP1 DUP2 MSTORE PUSH1 0x20 ADD PUSH1 0x40 MLOAD DUP1 SWAP2 SUB SWAP1 KECCAK256 PUSH1 0x40 MLOAD DUP1 PUSH1 0x80 ADD PUSH1 0x40 MSTORE SWAP1 DUP2 PUSH0 DUP3 ADD DUP1 SLOAD PUSH2 0xE65 SWAP1 PUSH2 0x1903 JUMP JUMPDEST DUP1 PUSH1 0x1F ADD PUSH1 0x20 DUP1 SWAP2 DIV MUL PUSH1 0x20 ADD PUSH1 0x40 MLOAD SWAP1 DUP2 ADD PUSH1 0x40 MSTORE DUP1 SWAP3 SWAP2 SWAP1 DUP2 DUP2 MSTORE PUSH1 0x20 ADD DUP3 DUP1 SLOAD PUSH2 0xE91 SWAP1 PUSH2 0x1903 JUMP JUMPDEST DUP1 ISZERO PUSH2 0xEDC JUMPI DUP1 PUSH1 0x1F LT PUSH2 0xEB3 JUMPI PUSH2 0x100 DUP1 DUP4 SLOAD DIV MUL DUP4 MSTORE SWAP2 PUSH1 0x20 ADD SWAP2 PUSH2 0xEDC JUMP JUMPDEST DUP3 ADD SWAP2 SWAP1 PUSH0 MSTORE PUSH1 0x20 PUSH0 KECCAK256 SWAP1 JUMPDEST DUP2 SLOAD DUP2 MSTORE SWAP1 PUSH1 0x1 ADD SWAP1 PUSH1 0x20 ADD DUP1 DUP4 GT PUSH2 0xEBF JUMPI DUP3 SWAP1 SUB PUSH1 0x1F AND DUP3 ADD SWAP2 JUMPDEST POP POP POP POP POP DUP2 MSTORE PUSH1 0x20 ADD PUSH1 0x1 DUP3 ADD SLOAD DUP2 MSTORE PUSH1 0x20 ADD PUSH1 0x2 DUP3 ADD PUSH0 SWAP1 SLOAD SWAP1 PUSH2 0x100 EXP SWAP1 DIV PUSH1 0xFF AND PUSH1 0x1 DUP2 GT ISZERO PUSH2 0xF13 JUMPI PUSH2 0xF12 PUSH2 0x1541 JUMP JUMPDEST JUMPDEST PUSH1 0x1 DUP2 GT ISZERO PUSH2 0xF25 JUMPI PUSH2 0xF24 PUSH2 0x1541 JUMP JUMPDEST JUMPDEST DUP2 MSTORE PUSH1 0x20 ADD PUSH1 0x3 DUP3 ADD DUP1 SLOAD PUSH2 0xF39 SWAP1 PUSH2 0x1903 JUMP JUMPDEST DUP1 PUSH1 0x1F ADD PUSH1 0x20 DUP1 SWAP2 DIV MUL PUSH1 0x20 ADD PUSH1 0x40 MLOAD SWAP1 DUP2 ADD PUSH1 0x40 MSTORE DUP1 SWAP3 SWAP2 SWAP1 DUP2 DUP2 MSTORE PUSH1 0x20 ADD DUP3 DUP1 SLOAD PUSH2 0xF65 SWAP1 PUSH2 0x1903 JUMP JUMPDEST DUP1 ISZERO PUSH2 0xFB0 JUMPI DUP1 PUSH1 0x1F LT PUSH2 0xF87 JUMPI PUSH2 0x100 DUP1 DUP4 SLOAD DIV MUL DUP4 MSTORE SWAP2 PUSH1 0x20 ADD SWAP2 PUSH2 0xFB0 JUMP JUMPDEST DUP3 ADD SWAP2 SWAP1 PUSH0 MSTORE PUSH1 0x20 PUSH0 KECCAK256 SWAP1 JUMPDEST DUP2 SLOAD DUP2 MSTORE SWAP1 PUSH1 0x1 ADD SWAP1 PUSH1 0x20 ADD DUP1 DUP4 GT PUSH2 0xF93 JUMPI DUP3 SWAP1 SUB PUSH1 0x1F AND DUP3 ADD SWAP2 JUMPDEST POP POP POP POP POP DUP2 MSTORE POP POP DUP3 DUP3 DUP2 MLOAD DUP2 LT PUSH2 0xFCC JUMPI PUSH2 0xFCB PUSH2 0x1CC7 JUMP JUMPDEST JUMPDEST PUSH1 0x20 MUL PUSH1 0x20 ADD ADD DUP2 SWAP1 MSTORE POP DUP1 DUP1 PUSH1 0x1 ADD SWAP2 POP POP PUSH2 0xE0A JUMP JUMPDEST POP DUP1 SWAP3 POP POP POP SWAP1 JUMP JUMPDEST PUSH1 0x60 PUSH0 PUSH1 0x8 PUSH8 0xFFFFFFFFFFFFFFFF DUP2 GT ISZERO PUSH2 0x100B JUMPI PUSH2 0x100A PUSH2 0x1948 JUMP JUMPDEST JUMPDEST PUSH1 0x40 MLOAD SWAP1 DUP1 DUP3 MSTORE DUP1 PUSH1 0x1F ADD PUSH1 0x1F NOT AND PUSH1 0x20 ADD DUP3 ADD PUSH1 0x40 MSTORE DUP1 ISZERO PUSH2 0x103D JUMPI DUP2 PUSH1 0x20 ADD PUSH1 0x1 DUP3 MUL DUP1 CALLDATASIZE DUP4 CALLDATACOPY DUP1 DUP3 ADD SWAP2 POP POP SWAP1 POP JUMPDEST POP SWAP1 POP PUSH0 JUMPDEST PUSH1 0x8 DUP2 LT ISZERO PUSH2 0x10C2 JUMPI PUSH0 PUSH2 0x1055 DUP3 PUSH2 0x1362 JUMP JUMPDEST SWAP1 POP PUSH1 0x1A DUP2 PUSH2 0x1064 SWAP2 SWAP1 PUSH2 0x1ECB JUMP JUMPDEST PUSH1 0x61 PUSH2 0x1070 SWAP2 SWAP1 PUSH2 0x1EFB JUMP JUMPDEST PUSH1 0xF8 SHL DUP4 DUP4 DUP2 MLOAD DUP2 LT PUSH2 0x1086 JUMPI PUSH2 0x1085 PUSH2 0x1CC7 JUMP JUMPDEST JUMPDEST PUSH1 0x20 ADD ADD SWAP1 PUSH31 0xFFFFFFFFFFFFFFFFFFFFFFFFFFFFFFFFFFFFFFFFFFFFFFFFFFFFFFFFFFFFFF NOT AND SWAP1 DUP2 PUSH0 BYTE SWAP1 MSTORE8 POP POP DUP1 DUP1 PUSH1 0x1 ADD SWAP2 POP POP PUSH2 0x1042 JUMP JUMPDEST POP DUP1 SWAP2 POP POP SWAP1 JUMP JUMPDEST DUP2 PUSH0 DUP1 JUMPDEST PUSH1 0x3 DUP1 SLOAD SWAP1 POP DUP2 LT ISZERO PUSH2 0x115F JUMPI DUP3 PUSH1 0x40 MLOAD PUSH1 0x20 ADD PUSH2 0x10EC SWAP2 SWAP1 PUSH2 0x1755 JUMP JUMPDEST PUSH1 0x40 MLOAD PUSH1 0x20 DUP2 DUP4 SUB SUB DUP2 MSTORE SWAP1 PUSH1 0x40 MSTORE DUP1 MLOAD SWAP1 PUSH1 0x20 ADD KECCAK256 PUSH1 0x3 DUP3 DUP2 SLOAD DUP2 LT PUSH2 0x1116 JUMPI PUSH2 0x1115 PUSH2 0x1CC7 JUMP JUMPDEST JUMPDEST SWAP1 PUSH0 MSTORE PUSH1 0x20 PUSH0 KECCAK256 ADD PUSH1 0x40 MLOAD PUSH1 0x20 ADD PUSH2 0x112E SWAP2 SWAP1 PUSH2 0x1CB1 JUMP JUMPDEST PUSH1 0x40 MLOAD PUSH1 0x20 DUP2 DUP4 SUB SUB DUP2 MSTORE SWAP1 PUSH1 0x40 MSTORE DUP1 MLOAD SWAP1 PUSH1 0x20 ADD KECCAK256 SUB PUSH2 0x1152 JUMPI PUSH1 0x1 SWAP2 POP PUSH2 0x115F JUMP JUMPDEST DUP1 DUP1 PUSH1 0x1 ADD SWAP2 POP POP PUSH2 0x10CE JUMP JUMPDEST POP DUP1 ISZERO PUSH2 0x11A1 JUMPI PUSH1 0x40 MLOAD PUSH32 0x8C379A000000000000000000000000000000000000000000000000000000000 DUP2 MSTORE PUSH1 0x4 ADD PUSH2 0x1198 SWAP1 PUSH2 0x1F78 JUMP JUMPDEST PUSH1 0x40 MLOAD DUP1 SWAP2 SUB SWAP1 REVERT JUMPDEST PUSH1 0x3 DUP5 SWAP1 DUP1 PUSH1 0x1 DUP2 SLOAD ADD DUP1 DUP3 SSTORE DUP1 SWAP2 POP POP PUSH1 0x1 SWAP1 SUB SWAP1 PUSH0 MSTORE PUSH1 0x20 PUSH0 KECCAK256 ADD PUSH0 SWAP1 SWAP2 SWAP1 SWAP2 SWAP1 SWAP2 POP SWAP1 DUP2 PUSH2 0x11D2 SWAP2 SWAP1 PUSH2 0x1F96 JUMP JUMPDEST POP PUSH1 0x40 MLOAD DUP1 PUSH1 0x80 ADD PUSH1 0x40 MSTORE DUP1 PUSH0 DUP1 CALLER PUSH20 0xFFFFFFFFFFFFFFFFFFFFFFFFFFFFFFFFFFFFFFFF AND PUSH20 0xFFFFFFFFFFFFFFFFFFFFFFFFFFFFFFFFFFFFFFFF AND DUP2 MSTORE PUSH1 0x20 ADD SWAP1 DUP2 MSTORE PUSH1 0x20 ADD PUSH0 KECCAK256 PUSH0 ADD DUP1 SLOAD PUSH2 0x1227 SWAP1 PUSH2 0x1903 JUMP JUMPDEST DUP1 PUSH1 0x1F ADD PUSH1 0x20 DUP1 SWAP2 DIV MUL PUSH1 0x20 ADD PUSH1 0x40 MLOAD SWAP1 DUP2 ADD PUSH1 0x40 MSTORE DUP1 SWAP3 SWAP2 SWAP1 DUP2 DUP2 MSTORE PUSH1 0x20 ADD DUP3 DUP1 SLOAD PUSH2 0x1253 SWAP1 PUSH2 0x1903 JUMP JUMPDEST DUP1 ISZERO PUSH2 0x129E JUMPI DUP1 PUSH1 0x1F LT PUSH2 0x1275 JUMPI PUSH2 0x100 DUP1 DUP4 SLOAD DIV MUL DUP4 MSTORE SWAP2 PUSH1 0x20 ADD SWAP2 PUSH2 0x129E JUMP JUMPDEST DUP3 ADD SWAP2 SWAP1 PUSH0 MSTORE PUSH1 0x20 PUSH0 KECCAK256 SWAP1 JUMPDEST DUP2 SLOAD DUP2 MSTORE SWAP1 PUSH1 0x1 ADD SWAP1 PUSH1 0x20 ADD DUP1 DUP4 GT PUSH2 0x1281 JUMPI DUP3 SWAP1 SUB PUSH1 0x1F AND DUP3 ADD SWAP2 JUMPDEST POP POP POP POP POP DUP2 MSTORE PUSH1 0x20 ADD DUP5 DUP2 MSTORE PUSH1 0x20 ADD PUSH1 0x1 DUP1 DUP2 GT ISZERO PUSH2 0x12C1 JUMPI PUSH2 0x12C0 PUSH2 0x1541 JUMP JUMPDEST JUMPDEST DUP2 MSTORE PUSH1 0x20 ADD PUSH1 0x40 MLOAD DUP1 PUSH1 0x20 ADD PUSH1 0x40 MSTORE DUP1 PUSH0 DUP2 MSTORE POP DUP2 MSTORE POP PUSH1 0x1 DUP6 PUSH1 0x40 MLOAD PUSH2 0x12E8 SWAP2 SWAP1 PUSH2 0x1755 JUMP JUMPDEST SWAP1 DUP2 MSTORE PUSH1 0x20 ADD PUSH1 0x40 MLOAD DUP1 SWAP2 SUB SWAP1 KECCAK256 PUSH0 DUP3 ADD MLOAD DUP2 PUSH0 ADD SWAP1 DUP2 PUSH2 0x1309 SWAP2 SWAP1 PUSH2 0x1F96 JUMP JUMPDEST POP PUSH1 0x20 DUP3 ADD MLOAD DUP2 PUSH1 0x1 ADD SSTORE PUSH1 0x40 DUP3 ADD MLOAD DUP2 PUSH1 0x2 ADD PUSH0 PUSH2 0x100 EXP DUP2 SLOAD DUP2 PUSH1 0xFF MUL NOT AND SWAP1 DUP4 PUSH1 0x1 DUP2 GT ISZERO PUSH2 0x133E JUMPI PUSH2 0x133D PUSH2 0x1541 JUMP JUMPDEST JUMPDEST MUL OR SWAP1 SSTORE POP PUSH1 0x60 DUP3 ADD MLOAD DUP2 PUSH1 0x3 ADD SWAP1 DUP2 PUSH2 0x1358 SWAP2 SWAP1 PUSH2 0x1F96 JUMP JUMPDEST POP SWAP1 POP POP POP POP POP POP JUMP JUMPDEST PUSH0 PUSH2 0x2710 TIMESTAMP PREVRANDAO DUP5 PUSH1 0x40 MLOAD PUSH1 0x20 ADD PUSH2 0x137B SWAP4 SWAP3 SWAP2 SWAP1 PUSH2 0x2085 JUMP JUMPDEST PUSH1 0x40 MLOAD PUSH1 0x20 DUP2 DUP4 SUB SUB DUP2 MSTORE SWAP1 PUSH1 0x40 MSTORE DUP1 MLOAD SWAP1 PUSH1 0x20 ADD KECCAK256 PUSH0 SHR PUSH2 0x139D SWAP2 SWAP1 PUSH2 0x1ECB JUMP JUMPDEST SWAP1 POP SWAP2 SWAP1 POP JUMP JUMPDEST PUSH1 0x40 MLOAD DUP1 PUSH1 0x80 ADD PUSH1 0x40 MSTORE DUP1 PUSH1 0x60 DUP2 MSTORE PUSH1 0x20 ADD PUSH0 DUP2 MSTORE PUSH1 0x20 ADD PUSH0 PUSH1 0x1 DUP2 GT ISZERO PUSH2 0x13CF JUMPI PUSH2 0x13CE PUSH2 0x1541 JUMP JUMPDEST JUMPDEST DUP2 MSTORE PUSH1 0x20 ADD PUSH1 0x60 DUP2 MSTORE POP SWAP1 JUMP JUMPDEST PUSH0 DUP1 REVERT JUMPDEST PUSH0 DUP1 REVERT JUMPDEST PUSH0 DUP1 REVERT JUMPDEST PUSH0 DUP1 REVERT JUMPDEST PUSH0 DUP1 REVERT JUMPDEST PUSH0 DUP1 DUP4 PUSH1 0x1F DUP5 ADD SLT PUSH2 0x1405 JUMPI PUSH2 0x1404 PUSH2 0x13E4 JUMP JUMPDEST JUMPDEST DUP3 CALLDATALOAD SWAP1 POP PUSH8 0xFFFFFFFFFFFFFFFF DUP2 GT ISZERO PUSH2 0x1422 JUMPI PUSH2 0x1421 PUSH2 0x13E8 JUMP JUMPDEST JUMPDEST PUSH1 0x20 DUP4 ADD SWAP2 POP DUP4 PUSH1 0x1 DUP3 MUL DUP4 ADD GT ISZERO PUSH2 0x143E JUMPI PUSH2 0x143D PUSH2 0x13EC JUMP JUMPDEST JUMPDEST SWAP3 POP SWAP3 SWAP1 POP JUMP JUMPDEST PUSH0 DUP1 PUSH1 0x20 DUP4 DUP6 SUB SLT ISZERO PUSH2 0x145B JUMPI PUSH2 0x145A PUSH2 0x13DC JUMP JUMPDEST JUMPDEST PUSH0 DUP4 ADD CALLDATALOAD PUSH8 0xFFFFFFFFFFFFFFFF DUP2 GT ISZERO PUSH2 0x1478 JUMPI PUSH2 0x1477 PUSH2 0x13E0 JUMP JUMPDEST JUMPDEST PUSH2 0x1484 DUP6 DUP3 DUP7 ADD PUSH2 0x13F0 JUMP JUMPDEST SWAP3 POP SWAP3 POP POP SWAP3 POP SWAP3 SWAP1 POP JUMP JUMPDEST PUSH0 DUP2 MLOAD SWAP1 POP SWAP2 SWAP1 POP JUMP JUMPDEST PUSH0 DUP3 DUP3 MSTORE PUSH1 0x20 DUP3 ADD SWAP1 POP SWAP3 SWAP2 POP POP JUMP JUMPDEST PUSH0 DUP2 SWAP1 POP PUSH1 0x20 DUP3 ADD SWAP1 POP SWAP2 SWAP1 POP JUMP JUMPDEST PUSH0 DUP2 MLOAD SWAP1 POP SWAP2 SWAP1 POP JUMP JUMPDEST PUSH0 DUP3 DUP3 MSTORE PUSH1 0x20 DUP3 ADD SWAP1 POP SWAP3 SWAP2 POP POP JUMP JUMPDEST DUP3 DUP2 DUP4 MCOPY PUSH0 DUP4 DUP4 ADD MSTORE POP POP POP JUMP JUMPDEST PUSH0 PUSH1 0x1F NOT PUSH1 0x1F DUP4 ADD AND SWAP1 POP SWAP2 SWAP1 POP JUMP JUMPDEST PUSH0 PUSH2 0x14FB DUP3 PUSH2 0x14B9 JUMP JUMPDEST PUSH2 0x1505 DUP2 DUP6 PUSH2 0x14C3 JUMP JUMPDEST SWAP4 POP PUSH2 0x1515 DUP2 DUP6 PUSH1 0x20 DUP7 ADD PUSH2 0x14D3 JUMP JUMPDEST PUSH2 0x151E DUP2 PUSH2 0x14E1 JUMP JUMPDEST DUP5 ADD SWAP2 POP POP SWAP3 SWAP2 POP POP JUMP JUMPDEST PUSH0 DUP2 SWAP1 POP SWAP2 SWAP1 POP JUMP JUMPDEST PUSH2 0x153B DUP2 PUSH2 0x1529 JUMP JUMPDEST DUP3 MSTORE POP POP JUMP JUMPDEST PUSH32 0x4E487B7100000000000000000000000000000000000000000000000000000000 PUSH0 MSTORE PUSH1 0x21 PUSH1 0x4 MSTORE PUSH1 0x24 PUSH0 REVERT JUMPDEST PUSH1 0x2 DUP2 LT PUSH2 0x157F JUMPI PUSH2 0x157E PUSH2 0x1541 JUMP JUMPDEST JUMPDEST POP JUMP JUMPDEST PUSH0 DUP2 SWAP1 POP PUSH2 0x158F DUP3 PUSH2 0x156E JUMP JUMPDEST SWAP2 SWAP1 POP JUMP JUMPDEST PUSH0 PUSH2 0x159E DUP3 PUSH2 0x1582 JUMP JUMPDEST SWAP1 POP SWAP2 SWAP1 POP JUMP JUMPDEST PUSH2 0x15AE DUP2 PUSH2 0x1594 JUMP JUMPDEST DUP3 MSTORE POP POP JUMP JUMPDEST PUSH0 PUSH1 0x80 DUP4 ADD PUSH0 DUP4 ADD MLOAD DUP5 DUP3 SUB PUSH0 DUP7 ADD MSTORE PUSH2 0x15CE DUP3 DUP3 PUSH2 0x14F1 JUMP JUMPDEST SWAP2 POP POP PUSH1 0x20 DUP4 ADD MLOAD PUSH2 0x15E3 PUSH1 0x20 DUP7 ADD DUP3 PUSH2 0x1532 JUMP JUMPDEST POP PUSH1 0x40 DUP4 ADD MLOAD PUSH2 0x15F6 PUSH1 0x40 DUP7 ADD DUP3 PUSH2 0x15A5 JUMP JUMPDEST POP PUSH1 0x60 DUP4 ADD MLOAD DUP5 DUP3 SUB PUSH1 0x60 DUP7 ADD MSTORE PUSH2 0x160E DUP3 DUP3 PUSH2 0x14F1 JUMP JUMPDEST SWAP2 POP POP DUP1 SWAP2 POP POP SWAP3 SWAP2 POP POP JUMP JUMPDEST PUSH0 PUSH2 0x1626 DUP4 DUP4 PUSH2 0x15B4 JUMP JUMPDEST SWAP1 POP SWAP3 SWAP2 POP POP JUMP JUMPDEST PUSH0 PUSH1 0x20 DUP3 ADD SWAP1 POP SWAP2 SWAP1 POP JUMP JUMPDEST PUSH0 PUSH2 0x1644 DUP3 PUSH2 0x1490 JUMP JUMPDEST PUSH2 0x164E DUP2 DUP6 PUSH2 0x149A JUMP JUMPDEST SWAP4 POP DUP4 PUSH1 0x20 DUP3 MUL DUP6 ADD PUSH2 0x1660 DUP6 PUSH2 0x14AA JUMP JUMPDEST DUP1 PUSH0 JUMPDEST DUP6 DUP2 LT ISZERO PUSH2 0x169B JUMPI DUP5 DUP5 SUB DUP10 MSTORE DUP2 MLOAD PUSH2 0x167C DUP6 DUP3 PUSH2 0x161B JUMP JUMPDEST SWAP5 POP PUSH2 0x1687 DUP4 PUSH2 0x162E JUMP JUMPDEST SWAP3 POP PUSH1 0x20 DUP11 ADD SWAP10 POP POP PUSH1 0x1 DUP2 ADD SWAP1 POP PUSH2 0x1663 JUMP JUMPDEST POP DUP3 SWAP8 POP DUP8 SWAP6 POP POP POP POP POP POP SWAP3 SWAP2 POP POP JUMP JUMPDEST PUSH0 PUSH1 0x20 DUP3 ADD SWAP1 POP DUP2 DUP2 SUB PUSH0 DUP4 ADD MSTORE PUSH2 0x16C5 DUP2 DUP5 PUSH2 0x163A JUMP JUMPDEST SWAP1 POP SWAP3 SWAP2 POP POP JUMP JUMPDEST PUSH1 0x2 DUP2 LT PUSH2 0x16D9 JUMPI PUSH0 DUP1 REVERT JUMPDEST POP JUMP JUMPDEST PUSH0 DUP2 CALLDATALOAD SWAP1 POP PUSH2 0x16EA DUP2 PUSH2 0x16CD JUMP JUMPDEST SWAP3 SWAP2 POP POP JUMP JUMPDEST PUSH0 PUSH1 0x20 DUP3 DUP5 SUB SLT ISZERO PUSH2 0x1705 JUMPI PUSH2 0x1704 PUSH2 0x13DC JUMP JUMPDEST JUMPDEST PUSH0 PUSH2 0x1712 DUP5 DUP3 DUP6 ADD PUSH2 0x16DC JUMP JUMPDEST SWAP2 POP POP SWAP3 SWAP2 POP POP JUMP JUMPDEST PUSH0 DUP2 SWAP1 POP SWAP3 SWAP2 POP POP JUMP JUMPDEST PUSH0 PUSH2 0x172F DUP3 PUSH2 0x14B9 JUMP JUMPDEST PUSH2 0x1739 DUP2 DUP6 PUSH2 0x171B JUMP JUMPDEST SWAP4 POP PUSH2 0x1749 DUP2 DUP6 PUSH1 0x20 DUP7 ADD PUSH2 0x14D3 JUMP JUMPDEST DUP1 DUP5 ADD SWAP2 POP POP SWAP3 SWAP2 POP POP JUMP JUMPDEST PUSH0 PUSH2 0x1760 DUP3 DUP5 PUSH2 0x1725 JUMP JUMPDEST SWAP2 POP DUP2 SWAP1 POP SWAP3 SWAP2 POP POP JUMP JUMPDEST PUSH0 DUP3 DUP3 MSTORE PUSH1 0x20 DUP3 ADD SWAP1 POP SWAP3 SWAP2 POP POP JUMP JUMPDEST PUSH32 0x4361726420697320496E76616C69640000000000000000000000000000000000 PUSH0 DUP3 ADD MSTORE POP JUMP JUMPDEST PUSH0 PUSH2 0x17AF PUSH1 0xF DUP4 PUSH2 0x176B JUMP JUMPDEST SWAP2 POP PUSH2 0x17BA DUP3 PUSH2 0x177B JUMP JUMPDEST PUSH1 0x20 DUP3 ADD SWAP1 POP SWAP2 SWAP1 POP JUMP JUMPDEST PUSH0 PUSH1 0x20 DUP3 ADD SWAP1 POP DUP2 DUP2 SUB PUSH0 DUP4 ADD MSTORE PUSH2 0x17DC DUP2 PUSH2 0x17A3 JUMP JUMPDEST SWAP1 POP SWAP2 SWAP1 POP JUMP JUMPDEST PUSH32 0x5265656E7472616E637947756172643A207265656E7472616E742063616C6C00 PUSH0 DUP3 ADD MSTORE POP JUMP JUMPDEST PUSH0 PUSH2 0x1817 PUSH1 0x1F DUP4 PUSH2 0x176B JUMP JUMPDEST SWAP2 POP PUSH2 0x1822 DUP3 PUSH2 0x17E3 JUMP JUMPDEST PUSH1 0x20 DUP3 ADD SWAP1 POP SWAP2 SWAP1 POP JUMP JUMPDEST PUSH0 PUSH1 0x20 DUP3 ADD SWAP1 POP DUP2 DUP2 SUB PUSH0 DUP4 ADD MSTORE PUSH2 0x1844 DUP2 PUSH2 0x180B JUMP JUMPDEST SWAP1 POP SWAP2 SWAP1 POP JUMP JUMPDEST DUP3 DUP2 DUP4 CALLDATACOPY PUSH0 DUP4 DUP4 ADD MSTORE POP POP POP JUMP JUMPDEST PUSH0 PUSH2 0x1864 DUP4 DUP6 PUSH2 0x171B JUMP JUMPDEST SWAP4 POP PUSH2 0x1871 DUP4 DUP6 DUP5 PUSH2 0x184B JUMP JUMPDEST DUP3 DUP5 ADD SWAP1 POP SWAP4 SWAP3 POP POP POP JUMP JUMPDEST PUSH0 PUSH2 0x1889 DUP3 DUP5 DUP7 PUSH2 0x1859 JUMP JUMPDEST SWAP2 POP DUP2 SWAP1 POP SWAP4 SWAP3 POP POP POP JUMP JUMPDEST PUSH0 DUP2 SWAP1 POP SWAP3 SWAP2 POP POP JUMP JUMPDEST POP JUMP JUMPDEST PUSH0 PUSH2 0x18AD PUSH0 DUP4 PUSH2 0x1895 JUMP JUMPDEST SWAP2 POP PUSH2 0x18B8 DUP3 PUSH2 0x189F JUMP JUMPDEST PUSH0 DUP3 ADD SWAP1 POP SWAP2 SWAP1 POP JUMP JUMPDEST PUSH0 PUSH2 0x18CC DUP3 PUSH2 0x18A2 JUMP JUMPDEST SWAP2 POP DUP2 SWAP1 POP SWAP2 SWAP1 POP JUMP JUMPDEST PUSH32 0x4E487B7100000000000000000000000000000000000000000000000000000000 PUSH0 MSTORE PUSH1 0x22 PUSH1 0x4 MSTORE PUSH1 0x24 PUSH0 REVERT JUMPDEST PUSH0 PUSH1 0x2 DUP3 DIV SWAP1 POP PUSH1 0x1 DUP3 AND DUP1 PUSH2 0x191A JUMPI PUSH1 0x7F DUP3 AND SWAP2 POP JUMPDEST PUSH1 0x20 DUP3 LT DUP2 SUB PUSH2 0x192D JUMPI PUSH2 0x192C PUSH2 0x18D6 JUMP JUMPDEST JUMPDEST POP SWAP2 SWAP1 POP JUMP JUMPDEST PUSH0 DUP2 SLOAD SWAP1 POP PUSH2 0x1941 DUP2 PUSH2 0x1903 JUMP JUMPDEST SWAP1 POP SWAP2 SWAP1 POP JUMP JUMPDEST PUSH32 0x4E487B7100000000000000000000000000000000000000000000000000000000 PUSH0 MSTORE PUSH1 0x41 PUSH1 0x4 MSTORE PUSH1 0x24 PUSH0 REVERT JUMPDEST PUSH0 DUP2 SWAP1 POP DUP2 PUSH0 MSTORE PUSH1 0x20 PUSH0 KECCAK256 SWAP1 POP SWAP2 SWAP1 POP JUMP JUMPDEST PUSH0 DUP2 SWAP1 POP DUP2 PUSH0 MSTORE PUSH1 0x20 PUSH0 KECCAK256 SWAP1 POP SWAP2 SWAP1 POP JUMP JUMPDEST PUSH0 PUSH1 0x20 PUSH1 0x1F DUP4 ADD DIV SWAP1 POP SWAP2 SWAP1 POP JUMP JUMPDEST PUSH0 DUP3 DUP3 SHL SWAP1 POP SWAP3 SWAP2 POP POP JUMP JUMPDEST PUSH0 PUSH1 0x8 DUP4 MUL PUSH2 0x19E3 PUSH32 0xFFFFFFFFFFFFFFFFFFFFFFFFFFFFFFFFFFFFFFFFFFFFFFFFFFFFFFFFFFFFFFFF DUP3 PUSH2 0x19A8 JUMP JUMPDEST PUSH2 0x19ED DUP7 DUP4 PUSH2 0x19A8 JUMP JUMPDEST SWAP6 POP DUP1 NOT DUP5 AND SWAP4 POP DUP1 DUP7 AND DUP5 OR SWAP3 POP POP POP SWAP4 SWAP3 POP POP POP JUMP JUMPDEST PUSH0 DUP2 SWAP1 POP SWAP2 SWAP1 POP JUMP JUMPDEST PUSH0 PUSH2 0x1A28 PUSH2 0x1A23 PUSH2 0x1A1E DUP5 PUSH2 0x1529 JUMP JUMPDEST PUSH2 0x1A05 JUMP JUMPDEST PUSH2 0x1529 JUMP JUMPDEST SWAP1 POP SWAP2 SWAP1 POP JUMP JUMPDEST PUSH0 DUP2 SWAP1 POP SWAP2 SWAP1 POP JUMP JUMPDEST PUSH2 0x1A41 DUP4 PUSH2 0x1A0E JUMP JUMPDEST PUSH2 0x1A55 PUSH2 0x1A4D DUP3 PUSH2 0x1A2F JUMP JUMPDEST DUP5 DUP5 SLOAD PUSH2 0x19B4 JUMP JUMPDEST DUP3 SSTORE POP POP POP POP JUMP JUMPDEST PUSH0 SWAP1 JUMP JUMPDEST PUSH2 0x1A69 PUSH2 0x1A5D JUMP JUMPDEST PUSH2 0x1A74 DUP2 DUP5 DUP5 PUSH2 0x1A38 JUMP JUMPDEST POP POP POP JUMP JUMPDEST JUMPDEST DUP2 DUP2 LT ISZERO PUSH2 0x1A97 JUMPI PUSH2 0x1A8C PUSH0 DUP3 PUSH2 0x1A61 JUMP JUMPDEST PUSH1 0x1 DUP2 ADD SWAP1 POP PUSH2 0x1A7A JUMP JUMPDEST POP POP JUMP JUMPDEST PUSH1 0x1F DUP3 GT ISZERO PUSH2 0x1ADC JUMPI PUSH2 0x1AAD DUP2 PUSH2 0x1975 JUMP JUMPDEST PUSH2 0x1AB6 DUP5 PUSH2 0x1999 JUMP JUMPDEST DUP2 ADD PUSH1 0x20 DUP6 LT ISZERO PUSH2 0x1AC5 JUMPI DUP2 SWAP1 POP JUMPDEST PUSH2 0x1AD9 PUSH2 0x1AD1 DUP6 PUSH2 0x1999 JUMP JUMPDEST DUP4 ADD DUP3 PUSH2 0x1A79 JUMP JUMPDEST POP POP JUMPDEST POP POP POP JUMP JUMPDEST PUSH0 DUP3 DUP3 SHR SWAP1 POP SWAP3 SWAP2 POP POP JUMP JUMPDEST PUSH0 PUSH2 0x1AFC PUSH0 NOT DUP5 PUSH1 0x8 MUL PUSH2 0x1AE1 JUMP JUMPDEST NOT DUP1 DUP4 AND SWAP2 POP POP SWAP3 SWAP2 POP POP JUMP JUMPDEST PUSH0 PUSH2 0x1B14 DUP4 DUP4 PUSH2 0x1AED JUMP JUMPDEST SWAP2 POP DUP3 PUSH1 0x2 MUL DUP3 OR SWAP1 POP SWAP3 SWAP2 POP POP JUMP JUMPDEST DUP2 DUP2 SUB PUSH2 0x1B32 JUMPI POP POP PUSH2 0x1C07 JUMP JUMPDEST PUSH2 0x1B3B DUP3 PUSH2 0x1933 JUMP JUMPDEST PUSH8 0xFFFFFFFFFFFFFFFF DUP2 GT ISZERO PUSH2 0x1B54 JUMPI PUSH2 0x1B53 PUSH2 0x1948 JUMP JUMPDEST JUMPDEST PUSH2 0x1B5E DUP3 SLOAD PUSH2 0x1903 JUMP JUMPDEST PUSH2 0x1B69 DUP3 DUP3 DUP6 PUSH2 0x1A9B JUMP JUMPDEST PUSH0 PUSH1 0x1F DUP4 GT PUSH1 0x1 DUP2 EQ PUSH2 0x1B96 JUMPI PUSH0 DUP5 ISZERO PUSH2 0x1B84 JUMPI DUP3 DUP8 ADD SLOAD SWAP1 POP JUMPDEST PUSH2 0x1B8E DUP6 DUP3 PUSH2 0x1B09 JUMP JUMPDEST DUP7 SSTORE POP PUSH2 0x1C00 JUMP JUMPDEST PUSH1 0x1F NOT DUP5 AND PUSH2 0x1BA4 DUP8 PUSH2 0x1987 JUMP JUMPDEST SWAP7 POP PUSH2 0x1BAF DUP7 PUSH2 0x1975 JUMP JUMPDEST PUSH0 JUMPDEST DUP3 DUP2 LT ISZERO PUSH2 0x1BD6 JUMPI DUP5 DUP10 ADD SLOAD DUP3 SSTORE PUSH1 0x1 DUP3 ADD SWAP2 POP PUSH1 0x1 DUP6 ADD SWAP5 POP PUSH1 0x20 DUP2 ADD SWAP1 POP PUSH2 0x1BB1 JUMP JUMPDEST DUP7 DUP4 LT ISZERO PUSH2 0x1BF3 JUMPI DUP5 DUP10 ADD SLOAD PUSH2 0x1BEF PUSH1 0x1F DUP10 AND DUP3 PUSH2 0x1AED JUMP JUMPDEST DUP4 SSTORE POP JUMPDEST PUSH1 0x1 PUSH1 0x2 DUP9 MUL ADD DUP9 SSTORE POP POP POP JUMPDEST POP POP POP POP POP POP JUMPDEST JUMP JUMPDEST PUSH2 0x1C12 DUP2 PUSH2 0x1529 JUMP JUMPDEST DUP3 MSTORE POP POP JUMP JUMPDEST PUSH0 PUSH1 0x20 DUP3 ADD SWAP1 POP PUSH2 0x1C2B PUSH0 DUP4 ADD DUP5 PUSH2 0x1C09 JUMP JUMPDEST SWAP3 SWAP2 POP POP JUMP JUMPDEST PUSH0 DUP2 SLOAD PUSH2 0x1C3D DUP2 PUSH2 0x1903 JUMP JUMPDEST PUSH2 0x1C47 DUP2 DUP7 PUSH2 0x171B JUMP JUMPDEST SWAP5 POP PUSH1 0x1 DUP3 AND PUSH0 DUP2 EQ PUSH2 0x1C61 JUMPI PUSH1 0x1 DUP2 EQ PUSH2 0x1C76 JUMPI PUSH2 0x1CA8 JUMP JUMPDEST PUSH1 0xFF NOT DUP4 AND DUP7 MSTORE DUP2 ISZERO ISZERO DUP3 MUL DUP7 ADD SWAP4 POP PUSH2 0x1CA8 JUMP JUMPDEST PUSH2 0x1C7F DUP6 PUSH2 0x1975 JUMP JUMPDEST PUSH0 JUMPDEST DUP4 DUP2 LT ISZERO PUSH2 0x1CA0 JUMPI DUP2 SLOAD DUP2 DUP10 ADD MSTORE PUSH1 0x1 DUP3 ADD SWAP2 POP PUSH1 0x20 DUP2 ADD SWAP1 POP PUSH2 0x1C81 JUMP JUMPDEST DUP4 DUP9 ADD SWAP6 POP POP POP JUMPDEST POP POP POP SWAP3 SWAP2 POP POP JUMP JUMPDEST PUSH0 PUSH2 0x1CBC DUP3 DUP5 PUSH2 0x1C31 JUMP JUMPDEST SWAP2 POP DUP2 SWAP1 POP SWAP3 SWAP2 POP POP JUMP JUMPDEST PUSH32 0x4E487B7100000000000000000000000000000000000000000000000000000000 PUSH0 MSTORE PUSH1 0x32 PUSH1 0x4 MSTORE PUSH1 0x24 PUSH0 REVERT JUMPDEST PUSH32 0x4E487B7100000000000000000000000000000000000000000000000000000000 PUSH0 MSTORE PUSH1 0x11 PUSH1 0x4 MSTORE PUSH1 0x24 PUSH0 REVERT JUMPDEST PUSH0 PUSH2 0x1D2B DUP3 PUSH2 0x1529 JUMP JUMPDEST SWAP2 POP PUSH32 0xFFFFFFFFFFFFFFFFFFFFFFFFFFFFFFFFFFFFFFFFFFFFFFFFFFFFFFFFFFFFFFFF DUP3 SUB PUSH2 0x1D5D JUMPI PUSH2 0x1D5C PUSH2 0x1CF4 JUMP JUMPDEST JUMPDEST PUSH1 0x1 DUP3 ADD SWAP1 POP SWAP2 SWAP1 POP JUMP JUMPDEST PUSH0 PUSH2 0x1D72 DUP3 PUSH2 0x14B9 JUMP JUMPDEST PUSH2 0x1D7C DUP2 DUP6 PUSH2 0x176B JUMP JUMPDEST SWAP4 POP PUSH2 0x1D8C DUP2 DUP6 PUSH1 0x20 DUP7 ADD PUSH2 0x14D3 JUMP JUMPDEST PUSH2 0x1D95 DUP2 PUSH2 0x14E1 JUMP JUMPDEST DUP5 ADD SWAP2 POP POP SWAP3 SWAP2 POP POP JUMP JUMPDEST PUSH0 PUSH1 0x40 DUP3 ADD SWAP1 POP DUP2 DUP2 SUB PUSH0 DUP4 ADD MSTORE PUSH2 0x1DB8 DUP2 DUP6 PUSH2 0x1D68 JUMP JUMPDEST SWAP1 POP PUSH2 0x1DC7 PUSH1 0x20 DUP4 ADD DUP5 PUSH2 0x1C09 JUMP JUMPDEST SWAP4 SWAP3 POP POP POP JUMP JUMPDEST PUSH32 0x5573657220646F6573206E6F7420657869737400000000000000000000000000 PUSH0 DUP3 ADD MSTORE POP JUMP JUMPDEST PUSH0 PUSH2 0x1E02 PUSH1 0x13 DUP4 PUSH2 0x176B JUMP JUMPDEST SWAP2 POP PUSH2 0x1E0D DUP3 PUSH2 0x1DCE JUMP JUMPDEST PUSH1 0x20 DUP3 ADD SWAP1 POP SWAP2 SWAP1 POP JUMP JUMPDEST PUSH0 PUSH1 0x20 DUP3 ADD SWAP1 POP DUP2 DUP2 SUB PUSH0 DUP4 ADD MSTORE PUSH2 0x1E2F DUP2 PUSH2 0x1DF6 JUMP JUMPDEST SWAP1 POP SWAP2 SWAP1 POP JUMP JUMPDEST PUSH32 0x596F7520617265206E6F7420616E2061646D696E000000000000000000000000 PUSH0 DUP3 ADD MSTORE POP JUMP JUMPDEST PUSH0 PUSH2 0x1E6A PUSH1 0x14 DUP4 PUSH2 0x176B JUMP JUMPDEST SWAP2 POP PUSH2 0x1E75 DUP3 PUSH2 0x1E36 JUMP JUMPDEST PUSH1 0x20 DUP3 ADD SWAP1 POP SWAP2 SWAP1 POP JUMP JUMPDEST PUSH0 PUSH1 0x20 DUP3 ADD SWAP1 POP DUP2 DUP2 SUB PUSH0 DUP4 ADD MSTORE PUSH2 0x1E97 DUP2 PUSH2 0x1E5E JUMP JUMPDEST SWAP1 POP SWAP2 SWAP1 POP JUMP JUMPDEST PUSH32 0x4E487B7100000000000000000000000000000000000000000000000000000000 PUSH0 MSTORE PUSH1 0x12 PUSH1 0x4 MSTORE PUSH1 0x24 PUSH0 REVERT JUMPDEST PUSH0 PUSH2 0x1ED5 DUP3 PUSH2 0x1529 JUMP JUMPDEST SWAP2 POP PUSH2 0x1EE0 DUP4 PUSH2 0x1529 JUMP JUMPDEST SWAP3 POP DUP3 PUSH2 0x1EF0 JUMPI PUSH2 0x1EEF PUSH2 0x1E9E JUMP JUMPDEST JUMPDEST DUP3 DUP3 MOD SWAP1 POP SWAP3 SWAP2 POP POP JUMP JUMPDEST PUSH0 PUSH2 0x1F05 DUP3 PUSH2 0x1529 JUMP JUMPDEST SWAP2 POP PUSH2 0x1F10 DUP4 PUSH2 0x1529 JUMP JUMPDEST SWAP3 POP DUP3 DUP3 ADD SWAP1 POP DUP1 DUP3 GT ISZERO PUSH2 0x1F28 JUMPI PUSH2 0x1F27 PUSH2 0x1CF4 JUMP JUMPDEST JUMPDEST SWAP3 SWAP2 POP POP JUMP JUMPDEST PUSH32 0x436F6465206973204E6F7420556E697175650000000000000000000000000000 PUSH0 DUP3 ADD MSTORE POP JUMP JUMPDEST PUSH0 PUSH2 0x1F62 PUSH1 0x12 DUP4 PUSH2 0x176B JUMP JUMPDEST SWAP2 POP PUSH2 0x1F6D DUP3 PUSH2 0x1F2E JUMP JUMPDEST PUSH1 0x20 DUP3 ADD SWAP1 POP SWAP2 SWAP1 POP JUMP JUMPDEST PUSH0 PUSH1 0x20 DUP3 ADD SWAP1 POP DUP2 DUP2 SUB PUSH0 DUP4 ADD MSTORE PUSH2 0x1F8F DUP2 PUSH2 0x1F56 JUMP JUMPDEST SWAP1 POP SWAP2 SWAP1 POP JUMP JUMPDEST PUSH2 0x1F9F DUP3 PUSH2 0x14B9 JUMP JUMPDEST PUSH8 0xFFFFFFFFFFFFFFFF DUP2 GT ISZERO PUSH2 0x1FB8 JUMPI PUSH2 0x1FB7 PUSH2 0x1948 JUMP JUMPDEST JUMPDEST PUSH2 0x1FC2 DUP3 SLOAD PUSH2 0x1903 JUMP JUMPDEST PUSH2 0x1FCD DUP3 DUP3 DUP6 PUSH2 0x1A9B JUMP JUMPDEST PUSH0 PUSH1 0x20 SWAP1 POP PUSH1 0x1F DUP4 GT PUSH1 0x1 DUP2 EQ PUSH2 0x1FFE JUMPI PUSH0 DUP5 ISZERO PUSH2 0x1FEC JUMPI DUP3 DUP8 ADD MLOAD SWAP1 POP JUMPDEST PUSH2 0x1FF6 DUP6 DUP3 PUSH2 0x1B09 JUMP JUMPDEST DUP7 SSTORE POP PUSH2 0x205D JUMP JUMPDEST PUSH1 0x1F NOT DUP5 AND PUSH2 0x200C DUP7 PUSH2 0x1975 JUMP JUMPDEST PUSH0 JUMPDEST DUP3 DUP2 LT ISZERO PUSH2 0x2033 JUMPI DUP5 DUP10 ADD MLOAD DUP3 SSTORE PUSH1 0x1 DUP3 ADD SWAP2 POP PUSH1 0x20 DUP6 ADD SWAP5 POP PUSH1 0x20 DUP2 ADD SWAP1 POP PUSH2 0x200E JUMP JUMPDEST DUP7 DUP4 LT ISZERO PUSH2 0x2050 JUMPI DUP5 DUP10 ADD MLOAD PUSH2 0x204C PUSH1 0x1F DUP10 AND DUP3 PUSH2 0x1AED JUMP JUMPDEST DUP4 SSTORE POP JUMPDEST PUSH1 0x1 PUSH1 0x2 DUP9 MUL ADD DUP9 SSTORE POP POP POP JUMPDEST POP POP POP POP POP POP JUMP JUMPDEST PUSH0 DUP2 SWAP1 POP SWAP2 SWAP1 POP JUMP JUMPDEST PUSH2 0x207F PUSH2 0x207A DUP3 PUSH2 0x1529 JUMP JUMPDEST PUSH2 0x2065 JUMP JUMPDEST DUP3 MSTORE POP POP JUMP JUMPDEST PUSH0 PUSH2 0x2090 DUP3 DUP7 PUSH2 0x206E JUMP JUMPDEST PUSH1 0x20 DUP3 ADD SWAP2 POP PUSH2 0x20A0 DUP3 DUP6 PUSH2 0x206E JUMP JUMPDEST PUSH1 0x20 DUP3 ADD SWAP2 POP PUSH2 0x20B0 DUP3 DUP5 PUSH2 0x206E JUMP JUMPDEST PUSH1 0x20 DUP3 ADD SWAP2 POP DUP2 SWAP1 POP SWAP5 SWAP4 POP POP POP POP JUMP INVALID LOG2 PUSH5 0x6970667358 0x22 SLT KECCAK256 PUSH26 0xBB5B85EADF70F2151DEB1AE25E77E3B779C3B3AB24B0D6FACBE0 CODECOPY XOR 0xA9 0xC0 PREVRANDAO PUSH5 0x736F6C6343 STOP ADDMOD BYTE STOP CALLER "
				},
				"gasEstimates": {
					"creation": {
						"codeDepositCost": "1687800",
						"executionCost": "infinite",
						"totalCost": "infinite"
					},
					"external": {
						"": "172",
						"buyGiftCard()": "infinite",
						"getAllGiftCards()": "infinite",
						"getGiftCardByStatus(uint8)": "infinite",
						"getMyCard()": "infinite",
						"redeemCard(string)": "infinite"
					},
					"internal": {
						"addCard(string memory,uint256)": "infinite",
						"generateGiftCardCode()": "infinite",
						"getRandomNumber(uint256)": "infinite"
					}
				},
				"methodIdentifiers": {
					"buyGiftCard()": "a34f011c",
					"getAllGiftCards()": "a927db0d",
					"getGiftCardByStatus(uint8)": "4cf57138",
					"getMyCard()": "2b4a9dda",
					"redeemCard(string)": "27e26c8c"
				}
			},
			"storageLayout": {
				"storage": [
					{
						"astId": 28,
						"contract": "contracts/GiftCardETH.sol:GiftCardETH",
						"label": "users",
						"offset": 0,
						"slot": "0",
						"type": "t_mapping(t_address,t_struct(User)13_storage)"
					},
					{
						"astId": 33,
						"contract": "contracts/GiftCardETH.sol:GiftCardETH",
						"label": "giftCards",
						"offset": 0,
						"slot": "1",
						"type": "t_mapping(t_string_memory_ptr,t_struct(GiftCard)23_storage)"
					},
					{
						"astId": 35,
						"contract": "contracts/GiftCardETH.sol:GiftCardETH",
						"label": "locked",
						"offset": 0,
						"slot": "2",
						"type": "t_bool"
					},
					{
						"astId": 38,
						"contract": "contracts/GiftCardETH.sol:GiftCardETH",
						"label": "giftCardCodes",
						"offset": 0,
						"slot": "3",
						"type": "t_array(t_string_storage)dyn_storage"
					},
					{
						"astId": 41,
						"contract": "contracts/GiftCardETH.sol:GiftCardETH",
						"label": "userAddresses",
						"offset": 0,
						"slot": "4",
						"type": "t_array(t_address)dyn_storage"
					}
				],
				"types": {
					"t_address": {
						"encoding": "inplace",
						"label": "address",
						"numberOfBytes": "20"
					},
					"t_array(t_address)dyn_storage": {
						"base": "t_address",
						"encoding": "dynamic_array",
						"label": "address[]",
						"numberOfBytes": "32"
					},
					"t_array(t_string_storage)dyn_storage": {
						"base": "t_string_storage",
						"encoding": "dynamic_array",
						"label": "string[]",
						"numberOfBytes": "32"
					},
					"t_bool": {
						"encoding": "inplace",
						"label": "bool",
						"numberOfBytes": "1"
					},
					"t_enum(GiftCardStatus)7": {
						"encoding": "inplace",
						"label": "enum GiftCardStatus",
						"numberOfBytes": "1"
					},
					"t_enum(UserType)4": {
						"encoding": "inplace",
						"label": "enum UserType",
						"numberOfBytes": "1"
					},
					"t_mapping(t_address,t_struct(User)13_storage)": {
						"encoding": "mapping",
						"key": "t_address",
						"label": "mapping(address => struct User)",
						"numberOfBytes": "32",
						"value": "t_struct(User)13_storage"
					},
					"t_mapping(t_string_memory_ptr,t_struct(GiftCard)23_storage)": {
						"encoding": "mapping",
						"key": "t_string_memory_ptr",
						"label": "mapping(string => struct GiftCard)",
						"numberOfBytes": "32",
						"value": "t_struct(GiftCard)23_storage"
					},
					"t_string_memory_ptr": {
						"encoding": "bytes",
						"label": "string",
						"numberOfBytes": "32"
					},
					"t_string_storage": {
						"encoding": "bytes",
						"label": "string",
						"numberOfBytes": "32"
					},
					"t_struct(GiftCard)23_storage": {
						"encoding": "inplace",
						"label": "struct GiftCard",
						"members": [
							{
								"astId": 15,
								"contract": "contracts/GiftCardETH.sol:GiftCardETH",
								"label": "buyer",
								"offset": 0,
								"slot": "0",
								"type": "t_string_storage"
							},
							{
								"astId": 17,
								"contract": "contracts/GiftCardETH.sol:GiftCardETH",
								"label": "amount",
								"offset": 0,
								"slot": "1",
								"type": "t_uint256"
							},
							{
								"astId": 20,
								"contract": "contracts/GiftCardETH.sol:GiftCardETH",
								"label": "giftCardStatus",
								"offset": 0,
								"slot": "2",
								"type": "t_enum(GiftCardStatus)7"
							},
							{
								"astId": 22,
								"contract": "contracts/GiftCardETH.sol:GiftCardETH",
								"label": "getter",
								"offset": 0,
								"slot": "3",
								"type": "t_string_storage"
							}
						],
						"numberOfBytes": "128"
					},
					"t_struct(User)13_storage": {
						"encoding": "inplace",
						"label": "struct User",
						"members": [
							{
								"astId": 9,
								"contract": "contracts/GiftCardETH.sol:GiftCardETH",
								"label": "name",
								"offset": 0,
								"slot": "0",
								"type": "t_string_storage"
							},
							{
								"astId": 12,
								"contract": "contracts/GiftCardETH.sol:GiftCardETH",
								"label": "userType",
								"offset": 0,
								"slot": "1",
								"type": "t_enum(UserType)4"
							}
						],
						"numberOfBytes": "64"
					},
					"t_uint256": {
						"encoding": "inplace",
						"label": "uint256",
						"numberOfBytes": "32"
					}
				}
			},
			"userdoc": {
				"kind": "user",
				"methods": {},
				"version": 1
			}
		}
	}
}