{
	"contracts/GiftCardETH.sol": {
		"GiftCardETH": {
			"abi": [
				{
					"inputs": [],
					"stateMutability": "nonpayable",
					"type": "constructor"
				},
				{
					"anonymous": false,
					"inputs": [
						{
							"indexed": false,
							"internalType": "string",
							"name": "code",
							"type": "string"
						},
						{
							"indexed": false,
							"internalType": "uint256",
							"name": "amount",
							"type": "uint256"
						}
					],
					"name": "CardBought",
					"type": "event"
				},
				{
					"anonymous": false,
					"inputs": [
						{
							"indexed": false,
							"internalType": "uint256",
							"name": "amount",
							"type": "uint256"
						}
					],
					"name": "CardRedeemed",
					"type": "event"
				},
				{
					"stateMutability": "payable",
					"type": "fallback"
				},
				{
					"inputs": [],
					"name": "buyGiftCard",
					"outputs": [],
					"stateMutability": "payable",
					"type": "function"
				},
				{
					"inputs": [],
					"name": "getAllGiftCards",
					"outputs": [
						{
							"components": [
								{
									"internalType": "string",
									"name": "code",
									"type": "string"
								},
								{
									"internalType": "string",
									"name": "buyer",
									"type": "string"
								},
								{
									"internalType": "uint256",
									"name": "amount",
									"type": "uint256"
								},
								{
									"internalType": "enum GiftCardStatus",
									"name": "giftCardStatus",
									"type": "uint8"
								},
								{
									"internalType": "string",
									"name": "getter",
									"type": "string"
								}
							],
							"internalType": "struct GiftCard[]",
							"name": "giftcards",
							"type": "tuple[]"
						}
					],
					"stateMutability": "view",
					"type": "function"
				},
				{
					"inputs": [],
					"name": "getMyCard",
					"outputs": [
						{
							"components": [
								{
									"internalType": "string",
									"name": "code",
									"type": "string"
								},
								{
									"internalType": "string",
									"name": "buyer",
									"type": "string"
								},
								{
									"internalType": "uint256",
									"name": "amount",
									"type": "uint256"
								},
								{
									"internalType": "enum GiftCardStatus",
									"name": "giftCardStatus",
									"type": "uint8"
								},
								{
									"internalType": "string",
									"name": "getter",
									"type": "string"
								}
							],
							"internalType": "struct GiftCard[]",
							"name": "",
							"type": "tuple[]"
						}
					],
					"stateMutability": "view",
					"type": "function"
				},
				{
					"inputs": [],
					"name": "getMyData",
					"outputs": [
						{
							"components": [
								{
									"internalType": "string",
									"name": "name",
									"type": "string"
								},
								{
									"internalType": "enum Gender",
									"name": "gender",
									"type": "uint8"
								},
								{
									"internalType": "enum UserType",
									"name": "userType",
									"type": "uint8"
								}
							],
							"internalType": "struct User",
							"name": "",
							"type": "tuple"
						}
					],
					"stateMutability": "view",
					"type": "function"
				},
				{
					"inputs": [],
					"name": "isAdmin",
					"outputs": [
						{
							"internalType": "bool",
							"name": "",
							"type": "bool"
						}
					],
					"stateMutability": "view",
					"type": "function"
				},
				{
					"inputs": [],
					"name": "isRegistered",
					"outputs": [
						{
							"internalType": "bool",
							"name": "",
							"type": "bool"
						}
					],
					"stateMutability": "view",
					"type": "function"
				},
				{
					"inputs": [
						{
							"internalType": "string",
							"name": "_code",
							"type": "string"
						}
					],
					"name": "redeemCard",
					"outputs": [],
					"stateMutability": "nonpayable",
					"type": "function"
				},
				{
					"inputs": [
						{
							"internalType": "string",
							"name": "name",
							"type": "string"
						},
						{
							"internalType": "enum Gender",
							"name": "gender",
							"type": "uint8"
						}
					],
					"name": "registration",
					"outputs": [],
					"stateMutability": "nonpayable",
					"type": "function"
				},
				{
					"stateMutability": "payable",
					"type": "receive"
				}
			],
			"devdoc": {
				"kind": "dev",
				"methods": {},
				"version": 1
			},
			"evm": {
				"assembly": "    /* \"contracts/GiftCardETH.sol\":385:6461  contract GiftCardETH {... */\n  mstore(0x40, 0x80)\n    /* \"contracts/GiftCardETH.sol\":574:1055  constructor() {... */\n  callvalue\n  dup1\n  iszero\n  tag_1\n  jumpi\n  0x00\n  dup1\n  revert\ntag_1:\n  pop\n    /* \"contracts/GiftCardETH.sol\":650:748  User(... */\n  mload(0x40)\n  dup1\n  0x60\n  add\n  0x40\n  mstore\n  dup1\n  mload(0x40)\n  dup1\n  0x40\n  add\n  0x40\n  mstore\n  dup1\n  0x0f\n  dup2\n  mstore\n  0x20\n  add\n  0x4962726168696d204d6f68616d65640000000000000000000000000000000000\n  dup2\n  mstore\n  pop\n  dup2\n  mstore\n  0x20\n  add\n    /* \"contracts/GiftCardETH.sol\":699:710  Gender.MALE */\n  0x01\n    /* \"contracts/GiftCardETH.sol\":650:748  User(... */\n  dup1\n  dup2\n  gt\n  iszero\n  tag_4\n  jumpi\n  tag_5\n  tag_6\n  jump\t// in\ntag_5:\ntag_4:\n  dup2\n  mstore\n  0x20\n  add\n    /* \"contracts/GiftCardETH.sol\":724:738  UserType.ADMIN */\n  0x01\n    /* \"contracts/GiftCardETH.sol\":650:748  User(... */\n  dup1\n  dup2\n  gt\n  iszero\n  tag_7\n  jumpi\n  tag_8\n  tag_6\n  jump\t// in\ntag_8:\ntag_7:\n  dup2\n  mstore\n  pop\n    /* \"contracts/GiftCardETH.sol\":598:603  users */\n  0x00\n    /* \"contracts/GiftCardETH.sol\":598:647  users[0x8dC03105bA1A429fc962EbE37766B8601D70e0D6] */\n  dup1\n    /* \"contracts/GiftCardETH.sol\":604:646  0x8dC03105bA1A429fc962EbE37766B8601D70e0D6 */\n  0x8dc03105ba1a429fc962ebe37766b8601d70e0d6\n    /* \"contracts/GiftCardETH.sol\":598:647  users[0x8dC03105bA1A429fc962EbE37766B8601D70e0D6] */\n  0xffffffffffffffffffffffffffffffffffffffff\n  and\n  0xffffffffffffffffffffffffffffffffffffffff\n  and\n  dup2\n  mstore\n  0x20\n  add\n  swap1\n  dup2\n  mstore\n  0x20\n  add\n  0x00\n  keccak256\n    /* \"contracts/GiftCardETH.sol\":598:748  users[0x8dC03105bA1A429fc962EbE37766B8601D70e0D6] = User(... */\n  0x00\n  dup3\n  add\n  mload\n  dup2\n  0x00\n  add\n  swap1\n  dup2\n  tag_9\n  swap2\n  swap1\n  tag_10\n  jump\t// in\ntag_9:\n  pop\n  0x20\n  dup3\n  add\n  mload\n  dup2\n  0x01\n  add\n  exp(0x0100, 0x00)\n  dup2\n  sload\n  dup2\n  0xff\n  mul\n  not\n  and\n  swap1\n  dup4\n  0x01\n  dup2\n  gt\n  iszero\n  tag_11\n  jumpi\n  tag_12\n  tag_6\n  jump\t// in\ntag_12:\ntag_11:\n  mul\n  or\n  swap1\n  sstore\n  pop\n  0x40\n  dup3\n  add\n  mload\n  dup2\n  0x01\n  add\n  exp(0x0100, 0x01)\n  dup2\n  sload\n  dup2\n  0xff\n  mul\n  not\n  and\n  swap1\n  dup4\n  0x01\n  dup2\n  gt\n  iszero\n  tag_13\n  jumpi\n  tag_14\n  tag_6\n  jump\t// in\ntag_14:\ntag_13:\n  mul\n  or\n  swap1\n  sstore\n  pop\n  swap1\n  pop\n  pop\n    /* \"contracts/GiftCardETH.sol\":758:771  userAddresses */\n  0x04\n    /* \"contracts/GiftCardETH.sol\":777:819  0x8dC03105bA1A429fc962EbE37766B8601D70e0D6 */\n  0x8dc03105ba1a429fc962ebe37766b8601d70e0d6\n    /* \"contracts/GiftCardETH.sol\":758:820  userAddresses.push(0x8dC03105bA1A429fc962EbE37766B8601D70e0D6) */\n  swap1\n  dup1\n  0x01\n  dup2\n  sload\n  add\n  dup1\n  dup3\n  sstore\n  dup1\n  swap2\n  pop\n  pop\n  0x01\n  swap1\n  sub\n  swap1\n  0x00\n  mstore\n  keccak256(0x00, 0x20)\n  add\n  0x00\n  swap1\n  swap2\n  swap1\n  swap2\n  swap1\n  swap2\n  0x0100\n  exp\n  dup2\n  sload\n  dup2\n  0xffffffffffffffffffffffffffffffffffffffff\n  mul\n  not\n  and\n  swap1\n  dup4\n  0xffffffffffffffffffffffffffffffffffffffff\n  and\n  mul\n  or\n  swap1\n  sstore\n  pop\n    /* \"contracts/GiftCardETH.sol\":882:976  User(... */\n  mload(0x40)\n  dup1\n  0x60\n  add\n  0x40\n  mstore\n  dup1\n  mload(0x40)\n  dup1\n  0x40\n  add\n  0x40\n  mstore\n  dup1\n  0x0b\n  dup2\n  mstore\n  0x20\n  add\n  0x4f62616461205361667761000000000000000000000000000000000000000000\n  dup2\n  mstore\n  pop\n  dup2\n  mstore\n  0x20\n  add\n    /* \"contracts/GiftCardETH.sol\":927:938  Gender.MALE */\n  0x01\n    /* \"contracts/GiftCardETH.sol\":882:976  User(... */\n  dup1\n  dup2\n  gt\n  iszero\n  tag_16\n  jumpi\n  tag_17\n  tag_6\n  jump\t// in\ntag_17:\ntag_16:\n  dup2\n  mstore\n  0x20\n  add\n    /* \"contracts/GiftCardETH.sol\":952:966  UserType.ADMIN */\n  0x01\n    /* \"contracts/GiftCardETH.sol\":882:976  User(... */\n  dup1\n  dup2\n  gt\n  iszero\n  tag_18\n  jumpi\n  tag_19\n  tag_6\n  jump\t// in\ntag_19:\ntag_18:\n  dup2\n  mstore\n  pop\n    /* \"contracts/GiftCardETH.sol\":830:835  users */\n  0x00\n    /* \"contracts/GiftCardETH.sol\":830:879  users[0xAd009219D5052664e665c2A95f12e4aBeA6730C0] */\n  dup1\n    /* \"contracts/GiftCardETH.sol\":836:878  0xAd009219D5052664e665c2A95f12e4aBeA6730C0 */\n  0xad009219d5052664e665c2a95f12e4abea6730c0\n    /* \"contracts/GiftCardETH.sol\":830:879  users[0xAd009219D5052664e665c2A95f12e4aBeA6730C0] */\n  0xffffffffffffffffffffffffffffffffffffffff\n  and\n  0xffffffffffffffffffffffffffffffffffffffff\n  and\n  dup2\n  mstore\n  0x20\n  add\n  swap1\n  dup2\n  mstore\n  0x20\n  add\n  0x00\n  keccak256\n    /* \"contracts/GiftCardETH.sol\":830:976  users[0xAd009219D5052664e665c2A95f12e4aBeA6730C0] = User(... */\n  0x00\n  dup3\n  add\n  mload\n  dup2\n  0x00\n  add\n  swap1\n  dup2\n  tag_20\n  swap2\n  swap1\n  tag_10\n  jump\t// in\ntag_20:\n  pop\n  0x20\n  dup3\n  add\n  mload\n  dup2\n  0x01\n  add\n  exp(0x0100, 0x00)\n  dup2\n  sload\n  dup2\n  0xff\n  mul\n  not\n  and\n  swap1\n  dup4\n  0x01\n  dup2\n  gt\n  iszero\n  tag_21\n  jumpi\n  tag_22\n  tag_6\n  jump\t// in\ntag_22:\ntag_21:\n  mul\n  or\n  swap1\n  sstore\n  pop\n  0x40\n  dup3\n  add\n  mload\n  dup2\n  0x01\n  add\n  exp(0x0100, 0x01)\n  dup2\n  sload\n  dup2\n  0xff\n  mul\n  not\n  and\n  swap1\n  dup4\n  0x01\n  dup2\n  gt\n  iszero\n  tag_23\n  jumpi\n  tag_24\n  tag_6\n  jump\t// in\ntag_24:\ntag_23:\n  mul\n  or\n  swap1\n  sstore\n  pop\n  swap1\n  pop\n  pop\n    /* \"contracts/GiftCardETH.sol\":986:999  userAddresses */\n  0x04\n    /* \"contracts/GiftCardETH.sol\":1005:1047  0xAd009219D5052664e665c2A95f12e4aBeA6730C0 */\n  0xad009219d5052664e665c2a95f12e4abea6730c0\n    /* \"contracts/GiftCardETH.sol\":986:1048  userAddresses.push(0xAd009219D5052664e665c2A95f12e4aBeA6730C0) */\n  swap1\n  dup1\n  0x01\n  dup2\n  sload\n  add\n  dup1\n  dup3\n  sstore\n  dup1\n  swap2\n  pop\n  pop\n  0x01\n  swap1\n  sub\n  swap1\n  0x00\n  mstore\n  keccak256(0x00, 0x20)\n  add\n  0x00\n  swap1\n  swap2\n  swap1\n  swap2\n  swap1\n  swap2\n  0x0100\n  exp\n  dup2\n  sload\n  dup2\n  0xffffffffffffffffffffffffffffffffffffffff\n  mul\n  not\n  and\n  swap1\n  dup4\n  0xffffffffffffffffffffffffffffffffffffffff\n  and\n  mul\n  or\n  swap1\n  sstore\n  pop\n    /* \"contracts/GiftCardETH.sol\":385:6461  contract GiftCardETH {... */\n  jump(tag_26)\n    /* \"#utility.yul\":7:187   */\ntag_6:\n    /* \"#utility.yul\":55:132   */\n  0x4e487b7100000000000000000000000000000000000000000000000000000000\n    /* \"#utility.yul\":52:53   */\n  0x00\n    /* \"#utility.yul\":45:133   */\n  mstore\n    /* \"#utility.yul\":152:156   */\n  0x21\n    /* \"#utility.yul\":149:150   */\n  0x04\n    /* \"#utility.yul\":142:157   */\n  mstore\n    /* \"#utility.yul\":176:180   */\n  0x24\n    /* \"#utility.yul\":173:174   */\n  0x00\n    /* \"#utility.yul\":166:181   */\n  revert\n    /* \"#utility.yul\":193:292   */\ntag_27:\n    /* \"#utility.yul\":245:251   */\n  0x00\n    /* \"#utility.yul\":279:284   */\n  dup2\n    /* \"#utility.yul\":273:285   */\n  mload\n    /* \"#utility.yul\":263:285   */\n  swap1\n  pop\n    /* \"#utility.yul\":193:292   */\n  swap2\n  swap1\n  pop\n  jump\t// out\n    /* \"#utility.yul\":298:478   */\ntag_28:\n    /* \"#utility.yul\":346:423   */\n  0x4e487b7100000000000000000000000000000000000000000000000000000000\n    /* \"#utility.yul\":343:344   */\n  0x00\n    /* \"#utility.yul\":336:424   */\n  mstore\n    /* \"#utility.yul\":443:447   */\n  0x41\n    /* \"#utility.yul\":440:441   */\n  0x04\n    /* \"#utility.yul\":433:448   */\n  mstore\n    /* \"#utility.yul\":467:471   */\n  0x24\n    /* \"#utility.yul\":464:465   */\n  0x00\n    /* \"#utility.yul\":457:472   */\n  revert\n    /* \"#utility.yul\":484:664   */\ntag_29:\n    /* \"#utility.yul\":532:609   */\n  0x4e487b7100000000000000000000000000000000000000000000000000000000\n    /* \"#utility.yul\":529:530   */\n  0x00\n    /* \"#utility.yul\":522:610   */\n  mstore\n    /* \"#utility.yul\":629:633   */\n  0x22\n    /* \"#utility.yul\":626:627   */\n  0x04\n    /* \"#utility.yul\":619:634   */\n  mstore\n    /* \"#utility.yul\":653:657   */\n  0x24\n    /* \"#utility.yul\":650:651   */\n  0x00\n    /* \"#utility.yul\":643:658   */\n  revert\n    /* \"#utility.yul\":670:990   */\ntag_30:\n    /* \"#utility.yul\":714:720   */\n  0x00\n    /* \"#utility.yul\":751:752   */\n  0x02\n    /* \"#utility.yul\":745:749   */\n  dup3\n    /* \"#utility.yul\":741:753   */\n  div\n    /* \"#utility.yul\":731:753   */\n  swap1\n  pop\n    /* \"#utility.yul\":798:799   */\n  0x01\n    /* \"#utility.yul\":792:796   */\n  dup3\n    /* \"#utility.yul\":788:800   */\n  and\n    /* \"#utility.yul\":819:837   */\n  dup1\n    /* \"#utility.yul\":809:890   */\n  tag_53\n  jumpi\n    /* \"#utility.yul\":875:879   */\n  0x7f\n    /* \"#utility.yul\":867:873   */\n  dup3\n    /* \"#utility.yul\":863:880   */\n  and\n    /* \"#utility.yul\":853:880   */\n  swap2\n  pop\n    /* \"#utility.yul\":809:890   */\ntag_53:\n    /* \"#utility.yul\":937:939   */\n  0x20\n    /* \"#utility.yul\":929:935   */\n  dup3\n    /* \"#utility.yul\":926:940   */\n  lt\n    /* \"#utility.yul\":906:924   */\n  dup2\n    /* \"#utility.yul\":903:941   */\n  sub\n    /* \"#utility.yul\":900:984   */\n  tag_54\n  jumpi\n    /* \"#utility.yul\":956:974   */\n  tag_55\n  tag_29\n  jump\t// in\ntag_55:\n    /* \"#utility.yul\":900:984   */\ntag_54:\n    /* \"#utility.yul\":721:990   */\n  pop\n    /* \"#utility.yul\":670:990   */\n  swap2\n  swap1\n  pop\n  jump\t// out\n    /* \"#utility.yul\":996:1137   */\ntag_31:\n    /* \"#utility.yul\":1045:1049   */\n  0x00\n    /* \"#utility.yul\":1068:1071   */\n  dup2\n    /* \"#utility.yul\":1060:1071   */\n  swap1\n  pop\n    /* \"#utility.yul\":1091:1094   */\n  dup2\n    /* \"#utility.yul\":1088:1089   */\n  0x00\n    /* \"#utility.yul\":1081:1095   */\n  mstore\n    /* \"#utility.yul\":1125:1129   */\n  0x20\n    /* \"#utility.yul\":1122:1123   */\n  0x00\n    /* \"#utility.yul\":1112:1130   */\n  keccak256\n    /* \"#utility.yul\":1104:1130   */\n  swap1\n  pop\n    /* \"#utility.yul\":996:1137   */\n  swap2\n  swap1\n  pop\n  jump\t// out\n    /* \"#utility.yul\":1143:1236   */\ntag_32:\n    /* \"#utility.yul\":1180:1186   */\n  0x00\n    /* \"#utility.yul\":1227:1229   */\n  0x20\n    /* \"#utility.yul\":1222:1224   */\n  0x1f\n    /* \"#utility.yul\":1215:1220   */\n  dup4\n    /* \"#utility.yul\":1211:1225   */\n  add\n    /* \"#utility.yul\":1207:1230   */\n  div\n    /* \"#utility.yul\":1197:1230   */\n  swap1\n  pop\n    /* \"#utility.yul\":1143:1236   */\n  swap2\n  swap1\n  pop\n  jump\t// out\n    /* \"#utility.yul\":1242:1349   */\ntag_33:\n    /* \"#utility.yul\":1286:1294   */\n  0x00\n    /* \"#utility.yul\":1336:1341   */\n  dup3\n    /* \"#utility.yul\":1330:1334   */\n  dup3\n    /* \"#utility.yul\":1326:1342   */\n  shl\n    /* \"#utility.yul\":1305:1342   */\n  swap1\n  pop\n    /* \"#utility.yul\":1242:1349   */\n  swap3\n  swap2\n  pop\n  pop\n  jump\t// out\n    /* \"#utility.yul\":1355:1748   */\ntag_34:\n    /* \"#utility.yul\":1424:1430   */\n  0x00\n    /* \"#utility.yul\":1474:1475   */\n  0x08\n    /* \"#utility.yul\":1462:1472   */\n  dup4\n    /* \"#utility.yul\":1458:1476   */\n  mul\n    /* \"#utility.yul\":1497:1594   */\n  tag_60\n    /* \"#utility.yul\":1527:1593   */\n  0xffffffffffffffffffffffffffffffffffffffffffffffffffffffffffffffff\n    /* \"#utility.yul\":1516:1525   */\n  dup3\n    /* \"#utility.yul\":1497:1594   */\n  tag_33\n  jump\t// in\ntag_60:\n    /* \"#utility.yul\":1615:1654   */\n  tag_61\n    /* \"#utility.yul\":1645:1653   */\n  dup7\n    /* \"#utility.yul\":1634:1643   */\n  dup4\n    /* \"#utility.yul\":1615:1654   */\n  tag_33\n  jump\t// in\ntag_61:\n    /* \"#utility.yul\":1603:1654   */\n  swap6\n  pop\n    /* \"#utility.yul\":1687:1691   */\n  dup1\n    /* \"#utility.yul\":1683:1692   */\n  not\n    /* \"#utility.yul\":1676:1681   */\n  dup5\n    /* \"#utility.yul\":1672:1693   */\n  and\n    /* \"#utility.yul\":1663:1693   */\n  swap4\n  pop\n    /* \"#utility.yul\":1736:1740   */\n  dup1\n    /* \"#utility.yul\":1726:1734   */\n  dup7\n    /* \"#utility.yul\":1722:1741   */\n  and\n    /* \"#utility.yul\":1715:1720   */\n  dup5\n    /* \"#utility.yul\":1712:1742   */\n  or\n    /* \"#utility.yul\":1702:1742   */\n  swap3\n  pop\n    /* \"#utility.yul\":1431:1748   */\n  pop\n  pop\n    /* \"#utility.yul\":1355:1748   */\n  swap4\n  swap3\n  pop\n  pop\n  pop\n  jump\t// out\n    /* \"#utility.yul\":1754:1831   */\ntag_35:\n    /* \"#utility.yul\":1791:1798   */\n  0x00\n    /* \"#utility.yul\":1820:1825   */\n  dup2\n    /* \"#utility.yul\":1809:1825   */\n  swap1\n  pop\n    /* \"#utility.yul\":1754:1831   */\n  swap2\n  swap1\n  pop\n  jump\t// out\n    /* \"#utility.yul\":1837:1897   */\ntag_36:\n    /* \"#utility.yul\":1865:1868   */\n  0x00\n    /* \"#utility.yul\":1886:1891   */\n  dup2\n    /* \"#utility.yul\":1879:1891   */\n  swap1\n  pop\n    /* \"#utility.yul\":1837:1897   */\n  swap2\n  swap1\n  pop\n  jump\t// out\n    /* \"#utility.yul\":1903:2045   */\ntag_37:\n    /* \"#utility.yul\":1953:1962   */\n  0x00\n    /* \"#utility.yul\":1986:2039   */\n  tag_65\n    /* \"#utility.yul\":2004:2038   */\n  tag_66\n    /* \"#utility.yul\":2013:2037   */\n  tag_67\n    /* \"#utility.yul\":2031:2036   */\n  dup5\n    /* \"#utility.yul\":2013:2037   */\n  tag_35\n  jump\t// in\ntag_67:\n    /* \"#utility.yul\":2004:2038   */\n  tag_36\n  jump\t// in\ntag_66:\n    /* \"#utility.yul\":1986:2039   */\n  tag_35\n  jump\t// in\ntag_65:\n    /* \"#utility.yul\":1973:2039   */\n  swap1\n  pop\n    /* \"#utility.yul\":1903:2045   */\n  swap2\n  swap1\n  pop\n  jump\t// out\n    /* \"#utility.yul\":2051:2126   */\ntag_38:\n    /* \"#utility.yul\":2094:2097   */\n  0x00\n    /* \"#utility.yul\":2115:2120   */\n  dup2\n    /* \"#utility.yul\":2108:2120   */\n  swap1\n  pop\n    /* \"#utility.yul\":2051:2126   */\n  swap2\n  swap1\n  pop\n  jump\t// out\n    /* \"#utility.yul\":2132:2401   */\ntag_39:\n    /* \"#utility.yul\":2242:2281   */\n  tag_70\n    /* \"#utility.yul\":2273:2280   */\n  dup4\n    /* \"#utility.yul\":2242:2281   */\n  tag_37\n  jump\t// in\ntag_70:\n    /* \"#utility.yul\":2303:2394   */\n  tag_71\n    /* \"#utility.yul\":2352:2393   */\n  tag_72\n    /* \"#utility.yul\":2376:2392   */\n  dup3\n    /* \"#utility.yul\":2352:2393   */\n  tag_38\n  jump\t// in\ntag_72:\n    /* \"#utility.yul\":2344:2350   */\n  dup5\n    /* \"#utility.yul\":2337:2341   */\n  dup5\n    /* \"#utility.yul\":2331:2342   */\n  sload\n    /* \"#utility.yul\":2303:2394   */\n  tag_34\n  jump\t// in\ntag_71:\n    /* \"#utility.yul\":2297:2301   */\n  dup3\n    /* \"#utility.yul\":2290:2395   */\n  sstore\n    /* \"#utility.yul\":2208:2401   */\n  pop\n    /* \"#utility.yul\":2132:2401   */\n  pop\n  pop\n  pop\n  jump\t// out\n    /* \"#utility.yul\":2407:2480   */\ntag_40:\n    /* \"#utility.yul\":2452:2455   */\n  0x00\n    /* \"#utility.yul\":2407:2480   */\n  swap1\n  jump\t// out\n    /* \"#utility.yul\":2486:2675   */\ntag_41:\n    /* \"#utility.yul\":2563:2595   */\n  tag_75\n  tag_40\n  jump\t// in\ntag_75:\n    /* \"#utility.yul\":2604:2669   */\n  tag_76\n    /* \"#utility.yul\":2662:2668   */\n  dup2\n    /* \"#utility.yul\":2654:2660   */\n  dup5\n    /* \"#utility.yul\":2648:2652   */\n  dup5\n    /* \"#utility.yul\":2604:2669   */\n  tag_39\n  jump\t// in\ntag_76:\n    /* \"#utility.yul\":2539:2675   */\n  pop\n    /* \"#utility.yul\":2486:2675   */\n  pop\n  pop\n  jump\t// out\n    /* \"#utility.yul\":2681:2867   */\ntag_42:\n    /* \"#utility.yul\":2741:2861   */\ntag_78:\n    /* \"#utility.yul\":2758:2761   */\n  dup2\n    /* \"#utility.yul\":2751:2756   */\n  dup2\n    /* \"#utility.yul\":2748:2762   */\n  lt\n    /* \"#utility.yul\":2741:2861   */\n  iszero\n  tag_80\n  jumpi\n    /* \"#utility.yul\":2812:2851   */\n  tag_81\n    /* \"#utility.yul\":2849:2850   */\n  0x00\n    /* \"#utility.yul\":2842:2847   */\n  dup3\n    /* \"#utility.yul\":2812:2851   */\n  tag_41\n  jump\t// in\ntag_81:\n    /* \"#utility.yul\":2785:2786   */\n  0x01\n    /* \"#utility.yul\":2778:2783   */\n  dup2\n    /* \"#utility.yul\":2774:2787   */\n  add\n    /* \"#utility.yul\":2765:2787   */\n  swap1\n  pop\n    /* \"#utility.yul\":2741:2861   */\n  jump(tag_78)\ntag_80:\n    /* \"#utility.yul\":2681:2867   */\n  pop\n  pop\n  jump\t// out\n    /* \"#utility.yul\":2873:3416   */\ntag_43:\n    /* \"#utility.yul\":2974:2976   */\n  0x1f\n    /* \"#utility.yul\":2969:2972   */\n  dup3\n    /* \"#utility.yul\":2966:2977   */\n  gt\n    /* \"#utility.yul\":2963:3409   */\n  iszero\n  tag_83\n  jumpi\n    /* \"#utility.yul\":3008:3046   */\n  tag_84\n    /* \"#utility.yul\":3040:3045   */\n  dup2\n    /* \"#utility.yul\":3008:3046   */\n  tag_31\n  jump\t// in\ntag_84:\n    /* \"#utility.yul\":3092:3121   */\n  tag_85\n    /* \"#utility.yul\":3110:3120   */\n  dup5\n    /* \"#utility.yul\":3092:3121   */\n  tag_32\n  jump\t// in\ntag_85:\n    /* \"#utility.yul\":3082:3090   */\n  dup2\n    /* \"#utility.yul\":3078:3122   */\n  add\n    /* \"#utility.yul\":3275:3277   */\n  0x20\n    /* \"#utility.yul\":3263:3273   */\n  dup6\n    /* \"#utility.yul\":3260:3278   */\n  lt\n    /* \"#utility.yul\":3257:3306   */\n  iszero\n  tag_86\n  jumpi\n    /* \"#utility.yul\":3296:3304   */\n  dup2\n    /* \"#utility.yul\":3281:3304   */\n  swap1\n  pop\n    /* \"#utility.yul\":3257:3306   */\ntag_86:\n    /* \"#utility.yul\":3319:3399   */\n  tag_87\n    /* \"#utility.yul\":3375:3397   */\n  tag_88\n    /* \"#utility.yul\":3393:3396   */\n  dup6\n    /* \"#utility.yul\":3375:3397   */\n  tag_32\n  jump\t// in\ntag_88:\n    /* \"#utility.yul\":3365:3373   */\n  dup4\n    /* \"#utility.yul\":3361:3398   */\n  add\n    /* \"#utility.yul\":3348:3359   */\n  dup3\n    /* \"#utility.yul\":3319:3399   */\n  tag_42\n  jump\t// in\ntag_87:\n    /* \"#utility.yul\":2978:3409   */\n  pop\n  pop\n    /* \"#utility.yul\":2963:3409   */\ntag_83:\n    /* \"#utility.yul\":2873:3416   */\n  pop\n  pop\n  pop\n  jump\t// out\n    /* \"#utility.yul\":3422:3539   */\ntag_44:\n    /* \"#utility.yul\":3476:3484   */\n  0x00\n    /* \"#utility.yul\":3526:3531   */\n  dup3\n    /* \"#utility.yul\":3520:3524   */\n  dup3\n    /* \"#utility.yul\":3516:3532   */\n  shr\n    /* \"#utility.yul\":3495:3532   */\n  swap1\n  pop\n    /* \"#utility.yul\":3422:3539   */\n  swap3\n  swap2\n  pop\n  pop\n  jump\t// out\n    /* \"#utility.yul\":3545:3714   */\ntag_45:\n    /* \"#utility.yul\":3589:3595   */\n  0x00\n    /* \"#utility.yul\":3622:3673   */\n  tag_91\n    /* \"#utility.yul\":3670:3671   */\n  0x00\n    /* \"#utility.yul\":3666:3672   */\n  not\n    /* \"#utility.yul\":3658:3663   */\n  dup5\n    /* \"#utility.yul\":3655:3656   */\n  0x08\n    /* \"#utility.yul\":3651:3664   */\n  mul\n    /* \"#utility.yul\":3622:3673   */\n  tag_44\n  jump\t// in\ntag_91:\n    /* \"#utility.yul\":3618:3674   */\n  not\n    /* \"#utility.yul\":3703:3707   */\n  dup1\n    /* \"#utility.yul\":3697:3701   */\n  dup4\n    /* \"#utility.yul\":3693:3708   */\n  and\n    /* \"#utility.yul\":3683:3708   */\n  swap2\n  pop\n    /* \"#utility.yul\":3596:3714   */\n  pop\n    /* \"#utility.yul\":3545:3714   */\n  swap3\n  swap2\n  pop\n  pop\n  jump\t// out\n    /* \"#utility.yul\":3719:4014   */\ntag_46:\n    /* \"#utility.yul\":3795:3799   */\n  0x00\n    /* \"#utility.yul\":3941:3970   */\n  tag_93\n    /* \"#utility.yul\":3966:3969   */\n  dup4\n    /* \"#utility.yul\":3960:3964   */\n  dup4\n    /* \"#utility.yul\":3941:3970   */\n  tag_45\n  jump\t// in\ntag_93:\n    /* \"#utility.yul\":3933:3970   */\n  swap2\n  pop\n    /* \"#utility.yul\":4003:4006   */\n  dup3\n    /* \"#utility.yul\":4000:4001   */\n  0x02\n    /* \"#utility.yul\":3996:4007   */\n  mul\n    /* \"#utility.yul\":3990:3994   */\n  dup3\n    /* \"#utility.yul\":3987:4008   */\n  or\n    /* \"#utility.yul\":3979:4008   */\n  swap1\n  pop\n    /* \"#utility.yul\":3719:4014   */\n  swap3\n  swap2\n  pop\n  pop\n  jump\t// out\n    /* \"#utility.yul\":4019:5414   */\ntag_10:\n    /* \"#utility.yul\":4136:4173   */\n  tag_95\n    /* \"#utility.yul\":4169:4172   */\n  dup3\n    /* \"#utility.yul\":4136:4173   */\n  tag_27\n  jump\t// in\ntag_95:\n    /* \"#utility.yul\":4238:4256   */\n  0xffffffffffffffff\n    /* \"#utility.yul\":4230:4236   */\n  dup2\n    /* \"#utility.yul\":4227:4257   */\n  gt\n    /* \"#utility.yul\":4224:4280   */\n  iszero\n  tag_96\n  jumpi\n    /* \"#utility.yul\":4260:4278   */\n  tag_97\n  tag_28\n  jump\t// in\ntag_97:\n    /* \"#utility.yul\":4224:4280   */\ntag_96:\n    /* \"#utility.yul\":4304:4342   */\n  tag_98\n    /* \"#utility.yul\":4336:4340   */\n  dup3\n    /* \"#utility.yul\":4330:4341   */\n  sload\n    /* \"#utility.yul\":4304:4342   */\n  tag_30\n  jump\t// in\ntag_98:\n    /* \"#utility.yul\":4389:4456   */\n  tag_99\n    /* \"#utility.yul\":4449:4455   */\n  dup3\n    /* \"#utility.yul\":4441:4447   */\n  dup3\n    /* \"#utility.yul\":4435:4439   */\n  dup6\n    /* \"#utility.yul\":4389:4456   */\n  tag_43\n  jump\t// in\ntag_99:\n    /* \"#utility.yul\":4483:4484   */\n  0x00\n    /* \"#utility.yul\":4507:4511   */\n  0x20\n    /* \"#utility.yul\":4494:4511   */\n  swap1\n  pop\n    /* \"#utility.yul\":4539:4541   */\n  0x1f\n    /* \"#utility.yul\":4531:4537   */\n  dup4\n    /* \"#utility.yul\":4528:4542   */\n  gt\n    /* \"#utility.yul\":4556:4557   */\n  0x01\n    /* \"#utility.yul\":4551:5169   */\n  dup2\n  eq\n  tag_101\n  jumpi\n    /* \"#utility.yul\":5213:5214   */\n  0x00\n    /* \"#utility.yul\":5230:5236   */\n  dup5\n    /* \"#utility.yul\":5227:5304   */\n  iszero\n  tag_102\n  jumpi\n    /* \"#utility.yul\":5279:5288   */\n  dup3\n    /* \"#utility.yul\":5274:5277   */\n  dup8\n    /* \"#utility.yul\":5270:5289   */\n  add\n    /* \"#utility.yul\":5264:5290   */\n  mload\n    /* \"#utility.yul\":5255:5290   */\n  swap1\n  pop\n    /* \"#utility.yul\":5227:5304   */\ntag_102:\n    /* \"#utility.yul\":5330:5397   */\n  tag_103\n    /* \"#utility.yul\":5390:5396   */\n  dup6\n    /* \"#utility.yul\":5383:5388   */\n  dup3\n    /* \"#utility.yul\":5330:5397   */\n  tag_46\n  jump\t// in\ntag_103:\n    /* \"#utility.yul\":5324:5328   */\n  dup7\n    /* \"#utility.yul\":5317:5398   */\n  sstore\n    /* \"#utility.yul\":5186:5408   */\n  pop\n    /* \"#utility.yul\":4521:5408   */\n  jump(tag_100)\n    /* \"#utility.yul\":4551:5169   */\ntag_101:\n    /* \"#utility.yul\":4603:4607   */\n  0x1f\n    /* \"#utility.yul\":4599:4608   */\n  not\n    /* \"#utility.yul\":4591:4597   */\n  dup5\n    /* \"#utility.yul\":4587:4609   */\n  and\n    /* \"#utility.yul\":4637:4674   */\n  tag_104\n    /* \"#utility.yul\":4669:4673   */\n  dup7\n    /* \"#utility.yul\":4637:4674   */\n  tag_31\n  jump\t// in\ntag_104:\n    /* \"#utility.yul\":4696:4697   */\n  0x00\n    /* \"#utility.yul\":4710:4918   */\ntag_105:\n    /* \"#utility.yul\":4724:4731   */\n  dup3\n    /* \"#utility.yul\":4721:4722   */\n  dup2\n    /* \"#utility.yul\":4718:4732   */\n  lt\n    /* \"#utility.yul\":4710:4918   */\n  iszero\n  tag_107\n  jumpi\n    /* \"#utility.yul\":4803:4812   */\n  dup5\n    /* \"#utility.yul\":4798:4801   */\n  dup10\n    /* \"#utility.yul\":4794:4813   */\n  add\n    /* \"#utility.yul\":4788:4814   */\n  mload\n    /* \"#utility.yul\":4780:4786   */\n  dup3\n    /* \"#utility.yul\":4773:4815   */\n  sstore\n    /* \"#utility.yul\":4854:4855   */\n  0x01\n    /* \"#utility.yul\":4846:4852   */\n  dup3\n    /* \"#utility.yul\":4842:4856   */\n  add\n    /* \"#utility.yul\":4832:4856   */\n  swap2\n  pop\n    /* \"#utility.yul\":4901:4903   */\n  0x20\n    /* \"#utility.yul\":4890:4899   */\n  dup6\n    /* \"#utility.yul\":4886:4904   */\n  add\n    /* \"#utility.yul\":4873:4904   */\n  swap5\n  pop\n    /* \"#utility.yul\":4747:4751   */\n  0x20\n    /* \"#utility.yul\":4744:4745   */\n  dup2\n    /* \"#utility.yul\":4740:4752   */\n  add\n    /* \"#utility.yul\":4735:4752   */\n  swap1\n  pop\n    /* \"#utility.yul\":4710:4918   */\n  jump(tag_105)\ntag_107:\n    /* \"#utility.yul\":4946:4952   */\n  dup7\n    /* \"#utility.yul\":4937:4944   */\n  dup4\n    /* \"#utility.yul\":4934:4953   */\n  lt\n    /* \"#utility.yul\":4931:5110   */\n  iszero\n  tag_108\n  jumpi\n    /* \"#utility.yul\":5004:5013   */\n  dup5\n    /* \"#utility.yul\":4999:5002   */\n  dup10\n    /* \"#utility.yul\":4995:5014   */\n  add\n    /* \"#utility.yul\":4989:5015   */\n  mload\n    /* \"#utility.yul\":5047:5095   */\n  tag_109\n    /* \"#utility.yul\":5089:5093   */\n  0x1f\n    /* \"#utility.yul\":5081:5087   */\n  dup10\n    /* \"#utility.yul\":5077:5094   */\n  and\n    /* \"#utility.yul\":5066:5075   */\n  dup3\n    /* \"#utility.yul\":5047:5095   */\n  tag_45\n  jump\t// in\ntag_109:\n    /* \"#utility.yul\":5039:5045   */\n  dup4\n    /* \"#utility.yul\":5032:5096   */\n  sstore\n    /* \"#utility.yul\":4954:5110   */\n  pop\n    /* \"#utility.yul\":4931:5110   */\ntag_108:\n    /* \"#utility.yul\":5156:5157   */\n  0x01\n    /* \"#utility.yul\":5152:5153   */\n  0x02\n    /* \"#utility.yul\":5144:5150   */\n  dup9\n    /* \"#utility.yul\":5140:5154   */\n  mul\n    /* \"#utility.yul\":5136:5158   */\n  add\n    /* \"#utility.yul\":5130:5134   */\n  dup9\n    /* \"#utility.yul\":5123:5159   */\n  sstore\n    /* \"#utility.yul\":4558:5169   */\n  pop\n  pop\n  pop\n    /* \"#utility.yul\":4521:5408   */\ntag_100:\n  pop\n    /* \"#utility.yul\":4111:5414   */\n  pop\n  pop\n  pop\n    /* \"#utility.yul\":4019:5414   */\n  pop\n  pop\n  jump\t// out\n    /* \"contracts/GiftCardETH.sol\":385:6461  contract GiftCardETH {... */\ntag_26:\n  dataSize(sub_0)\n  dup1\n  dataOffset(sub_0)\n  0x00\n  codecopy\n  0x00\n  return\nstop\n\nsub_0: assembly {\n        /* \"contracts/GiftCardETH.sol\":385:6461  contract GiftCardETH {... */\n      mstore(0x40, 0x80)\n      jumpi(tag_1, lt(calldatasize, 0x04))\n      shr(0xe0, calldataload(0x00))\n      dup1\n      0xa34f011c\n      gt\n      tag_11\n      jumpi\n      dup1\n      0xa34f011c\n      eq\n      tag_7\n      jumpi\n      dup1\n      0xa927db0d\n      eq\n      tag_8\n      jumpi\n      dup1\n      0xb6db75a0\n      eq\n      tag_9\n      jumpi\n      dup1\n      0xd9c8a38b\n      eq\n      tag_10\n      jumpi\n      jump(tag_2)\n    tag_11:\n      dup1\n      0x22366844\n      eq\n      tag_3\n      jumpi\n      dup1\n      0x27e26c8c\n      eq\n      tag_4\n      jumpi\n      dup1\n      0x2b4a9dda\n      eq\n      tag_5\n      jumpi\n      dup1\n      0x8f0e582f\n      eq\n      tag_6\n      jumpi\n      jump(tag_2)\n    tag_1:\n      jumpi(tag_2, calldatasize)\n      stop\n    tag_2:\n      stop\n        /* \"contracts/GiftCardETH.sol\":2766:2879  function isRegistered() public view returns(bool){... */\n    tag_3:\n      callvalue\n      dup1\n      iszero\n      tag_16\n      jumpi\n      0x00\n      dup1\n      revert\n    tag_16:\n      pop\n      tag_17\n      tag_18\n      jump\t// in\n    tag_17:\n      mload(0x40)\n      tag_19\n      swap2\n      swap1\n      tag_20\n      jump\t// in\n    tag_19:\n      mload(0x40)\n      dup1\n      swap2\n      sub\n      swap1\n      return\n        /* \"contracts/GiftCardETH.sol\":5813:6387  function redeemCard(string calldata _code)... */\n    tag_4:\n      callvalue\n      dup1\n      iszero\n      tag_21\n      jumpi\n      0x00\n      dup1\n      revert\n    tag_21:\n      pop\n      tag_22\n      0x04\n      dup1\n      calldatasize\n      sub\n      dup2\n      add\n      swap1\n      tag_23\n      swap2\n      swap1\n      tag_24\n      jump\t// in\n    tag_23:\n      tag_25\n      jump\t// in\n    tag_22:\n      stop\n        /* \"contracts/GiftCardETH.sol\":4475:5808  function getMyCard()... */\n    tag_5:\n      callvalue\n      dup1\n      iszero\n      tag_26\n      jumpi\n      0x00\n      dup1\n      revert\n    tag_26:\n      pop\n      tag_27\n      tag_28\n      jump\t// in\n    tag_27:\n      mload(0x40)\n      tag_29\n      swap2\n      swap1\n      tag_30\n      jump\t// in\n    tag_29:\n      mload(0x40)\n      dup1\n      swap2\n      sub\n      swap1\n      return\n        /* \"contracts/GiftCardETH.sol\":2321:2501  function registration(string calldata name, Gender gender) external {... */\n    tag_6:\n      callvalue\n      dup1\n      iszero\n      tag_31\n      jumpi\n      0x00\n      dup1\n      revert\n    tag_31:\n      pop\n      tag_32\n      0x04\n      dup1\n      calldatasize\n      sub\n      dup2\n      add\n      swap1\n      tag_33\n      swap2\n      swap1\n      tag_34\n      jump\t// in\n    tag_33:\n      tag_35\n      jump\t// in\n    tag_32:\n      stop\n        /* \"contracts/GiftCardETH.sol\":4231:4470  function buyGiftCard() external payable registeredUsersOnly {... */\n    tag_7:\n      tag_36\n      tag_37\n      jump\t// in\n    tag_36:\n      stop\n        /* \"contracts/GiftCardETH.sol\":2884:3283  function getAllGiftCards()... */\n    tag_8:\n      callvalue\n      dup1\n      iszero\n      tag_38\n      jumpi\n      0x00\n      dup1\n      revert\n    tag_38:\n      pop\n      tag_39\n      tag_40\n      jump\t// in\n    tag_39:\n      mload(0x40)\n      tag_41\n      swap2\n      swap1\n      tag_30\n      jump\t// in\n    tag_41:\n      mload(0x40)\n      dup1\n      swap2\n      sub\n      swap1\n      return\n        /* \"contracts/GiftCardETH.sol\":2506:2640  function isAdmin() public view registeredUsersOnly returns (bool) {... */\n    tag_9:\n      callvalue\n      dup1\n      iszero\n      tag_42\n      jumpi\n      0x00\n      dup1\n      revert\n    tag_42:\n      pop\n      tag_43\n      tag_44\n      jump\t// in\n    tag_43:\n      mload(0x40)\n      tag_45\n      swap2\n      swap1\n      tag_20\n      jump\t// in\n    tag_45:\n      mload(0x40)\n      dup1\n      swap2\n      sub\n      swap1\n      return\n        /* \"contracts/GiftCardETH.sol\":2645:2761  function getMyData() public registeredUsersOnly view returns (User memory) {... */\n    tag_10:\n      callvalue\n      dup1\n      iszero\n      tag_46\n      jumpi\n      0x00\n      dup1\n      revert\n    tag_46:\n      pop\n      tag_47\n      tag_48\n      jump\t// in\n    tag_47:\n      mload(0x40)\n      tag_49\n      swap2\n      swap1\n      tag_50\n      jump\t// in\n    tag_49:\n      mload(0x40)\n      dup1\n      swap2\n      sub\n      swap1\n      return\n        /* \"contracts/GiftCardETH.sol\":2766:2879  function isRegistered() public view returns(bool){... */\n    tag_18:\n        /* \"contracts/GiftCardETH.sol\":2810:2814  bool */\n      0x00\n        /* \"contracts/GiftCardETH.sol\":2871:2872  0 */\n      dup1\n        /* \"contracts/GiftCardETH.sol\":2838:2843  users */\n      0x00\n        /* \"contracts/GiftCardETH.sol\":2838:2855  users[msg.sender] */\n      dup1\n        /* \"contracts/GiftCardETH.sol\":2844:2854  msg.sender */\n      caller\n        /* \"contracts/GiftCardETH.sol\":2838:2855  users[msg.sender] */\n      0xffffffffffffffffffffffffffffffffffffffff\n      and\n      0xffffffffffffffffffffffffffffffffffffffff\n      and\n      dup2\n      mstore\n      0x20\n      add\n      swap1\n      dup2\n      mstore\n      0x20\n      add\n      0x00\n      keccak256\n        /* \"contracts/GiftCardETH.sol\":2838:2860  users[msg.sender].name */\n      0x00\n      add\n        /* \"contracts/GiftCardETH.sol\":2832:2868  bytes(users[msg.sender].name).length */\n      dup1\n      sload\n      tag_52\n      swap1\n      tag_53\n      jump\t// in\n    tag_52:\n      swap1\n      pop\n        /* \"contracts/GiftCardETH.sol\":2832:2872  bytes(users[msg.sender].name).length > 0 */\n      gt\n        /* \"contracts/GiftCardETH.sol\":2825:2872  return bytes(users[msg.sender].name).length > 0 */\n      swap1\n      pop\n        /* \"contracts/GiftCardETH.sol\":2766:2879  function isRegistered() public view returns(bool){... */\n      swap1\n      jump\t// out\n        /* \"contracts/GiftCardETH.sol\":5813:6387  function redeemCard(string calldata _code)... */\n    tag_25:\n        /* \"contracts/GiftCardETH.sol\":5901:5906  _code */\n      dup2\n      dup2\n        /* \"contracts/GiftCardETH.sol\":1680:1873  modifier checkGiftCardStatus(string memory code) {... */\n      dup1\n      dup1\n      0x1f\n      add\n      0x20\n      dup1\n      swap2\n      div\n      mul\n      0x20\n      add\n      mload(0x40)\n      swap1\n      dup2\n      add\n      0x40\n      mstore\n      dup1\n      swap4\n      swap3\n      swap2\n      swap1\n      dup2\n      dup2\n      mstore\n      0x20\n      add\n      dup4\n      dup4\n      dup1\n      dup3\n      dup5\n      calldatacopy\n      0x00\n      dup2\n      dup5\n      add\n      mstore\n      not(0x1f)\n      0x1f\n      dup3\n      add\n      and\n      swap1\n      pop\n      dup1\n      dup4\n      add\n      swap3\n      pop\n      pop\n      pop\n      pop\n      pop\n      pop\n      pop\n        /* \"contracts/GiftCardETH.sol\":1794:1814  GiftCardStatus.VALID */\n      0x01\n        /* \"contracts/GiftCardETH.sol\":1760:1814  giftCards[code].giftCardStatus == GiftCardStatus.VALID */\n      dup1\n      dup2\n      gt\n      iszero\n      tag_55\n      jumpi\n      tag_56\n      tag_57\n      jump\t// in\n    tag_56:\n    tag_55:\n        /* \"contracts/GiftCardETH.sol\":1760:1769  giftCards */\n      0x01\n        /* \"contracts/GiftCardETH.sol\":1770:1774  code */\n      dup3\n        /* \"contracts/GiftCardETH.sol\":1760:1775  giftCards[code] */\n      mload(0x40)\n      tag_58\n      swap2\n      swap1\n      tag_59\n      jump\t// in\n    tag_58:\n      swap1\n      dup2\n      mstore\n      0x20\n      add\n      mload(0x40)\n      dup1\n      swap2\n      sub\n      swap1\n      keccak256\n        /* \"contracts/GiftCardETH.sol\":1760:1790  giftCards[code].giftCardStatus */\n      0x03\n      add\n      0x00\n      swap1\n      sload\n      swap1\n      0x0100\n      exp\n      swap1\n      div\n      0xff\n      and\n        /* \"contracts/GiftCardETH.sol\":1760:1814  giftCards[code].giftCardStatus == GiftCardStatus.VALID */\n      0x01\n      dup2\n      gt\n      iszero\n      tag_60\n      jumpi\n      tag_61\n      tag_57\n      jump\t// in\n    tag_61:\n    tag_60:\n      eq\n        /* \"contracts/GiftCardETH.sol\":1739:1855  require(... */\n      tag_62\n      jumpi\n      mload(0x40)\n      0x08c379a000000000000000000000000000000000000000000000000000000000\n      dup2\n      mstore\n      0x04\n      add\n      tag_63\n      swap1\n      tag_64\n      jump\t// in\n    tag_63:\n      mload(0x40)\n      dup1\n      swap2\n      sub\n      swap1\n      revert\n    tag_62:\n        /* \"contracts/GiftCardETH.sol\":1253:1254  0 */\n      0x00\n        /* \"contracts/GiftCardETH.sol\":1220:1225  users */\n      dup1\n        /* \"contracts/GiftCardETH.sol\":1220:1237  users[msg.sender] */\n      0x00\n        /* \"contracts/GiftCardETH.sol\":1226:1236  msg.sender */\n      caller\n        /* \"contracts/GiftCardETH.sol\":1220:1237  users[msg.sender] */\n      0xffffffffffffffffffffffffffffffffffffffff\n      and\n      0xffffffffffffffffffffffffffffffffffffffff\n      and\n      dup2\n      mstore\n      0x20\n      add\n      swap1\n      dup2\n      mstore\n      0x20\n      add\n      0x00\n      keccak256\n        /* \"contracts/GiftCardETH.sol\":1220:1242  users[msg.sender].name */\n      0x00\n      add\n        /* \"contracts/GiftCardETH.sol\":1214:1250  bytes(users[msg.sender].name).length */\n      dup1\n      sload\n      tag_66\n      swap1\n      tag_53\n      jump\t// in\n    tag_66:\n      swap1\n      pop\n        /* \"contracts/GiftCardETH.sol\":1214:1254  bytes(users[msg.sender].name).length > 0 */\n      gt\n        /* \"contracts/GiftCardETH.sol\":1193:1299  require(... */\n      tag_67\n      jumpi\n      mload(0x40)\n      0x08c379a000000000000000000000000000000000000000000000000000000000\n      dup2\n      mstore\n      0x04\n      add\n      tag_68\n      swap1\n      tag_69\n      jump\t// in\n    tag_68:\n      mload(0x40)\n      dup1\n      swap2\n      sub\n      swap1\n      revert\n    tag_67:\n        /* \"contracts/GiftCardETH.sol\":1568:1574  locked */\n      0x02\n      0x00\n      swap1\n      sload\n      swap1\n      0x0100\n      exp\n      swap1\n      div\n      0xff\n      and\n        /* \"contracts/GiftCardETH.sol\":1567:1574  !locked */\n      iszero\n        /* \"contracts/GiftCardETH.sol\":1559:1610  require(!locked, \"ReentrancyGuard: reentrant call\") */\n      tag_71\n      jumpi\n      mload(0x40)\n      0x08c379a000000000000000000000000000000000000000000000000000000000\n      dup2\n      mstore\n      0x04\n      add\n      tag_72\n      swap1\n      tag_73\n      jump\t// in\n    tag_72:\n      mload(0x40)\n      dup1\n      swap2\n      sub\n      swap1\n      revert\n    tag_71:\n        /* \"contracts/GiftCardETH.sol\":1629:1633  true */\n      0x01\n        /* \"contracts/GiftCardETH.sol\":1620:1626  locked */\n      0x02\n      0x00\n        /* \"contracts/GiftCardETH.sol\":1620:1633  locked = true */\n      0x0100\n      exp\n      dup2\n      sload\n      dup2\n      0xff\n      mul\n      not\n      and\n      swap1\n      dup4\n      iszero\n      iszero\n      mul\n      or\n      swap1\n      sstore\n      pop\n        /* \"contracts/GiftCardETH.sol\":5974:5999  GiftCard storage giftCard */\n      0x00\n        /* \"contracts/GiftCardETH.sol\":6002:6011  giftCards */\n      0x01\n        /* \"contracts/GiftCardETH.sol\":6012:6017  _code */\n      dup5\n      dup5\n        /* \"contracts/GiftCardETH.sol\":6002:6018  giftCards[_code] */\n      mload(0x40)\n      tag_75\n      swap3\n      swap2\n      swap1\n      tag_76\n      jump\t// in\n    tag_75:\n      swap1\n      dup2\n      mstore\n      0x20\n      add\n      mload(0x40)\n      dup1\n      swap2\n      sub\n      swap1\n      keccak256\n        /* \"contracts/GiftCardETH.sol\":5974:6018  GiftCard storage giftCard = giftCards[_code] */\n      swap1\n      pop\n        /* \"contracts/GiftCardETH.sol\":6029:6043  uint256 amount */\n      0x00\n        /* \"contracts/GiftCardETH.sol\":6046:6054  giftCard */\n      dup2\n        /* \"contracts/GiftCardETH.sol\":6046:6061  giftCard.amount */\n      0x02\n      add\n      sload\n        /* \"contracts/GiftCardETH.sol\":6029:6061  uint256 amount = giftCard.amount */\n      swap1\n      pop\n        /* \"contracts/GiftCardETH.sol\":6089:6090  0 */\n      0x00\n        /* \"contracts/GiftCardETH.sol\":6080:6086  amount */\n      dup2\n        /* \"contracts/GiftCardETH.sol\":6080:6090  amount > 0 */\n      gt\n        /* \"contracts/GiftCardETH.sol\":6072:6119  require(amount > 0, \"Gift card has no balance\") */\n      tag_77\n      jumpi\n      mload(0x40)\n      0x08c379a000000000000000000000000000000000000000000000000000000000\n      dup2\n      mstore\n      0x04\n      add\n      tag_78\n      swap1\n      tag_79\n      jump\t// in\n    tag_78:\n      mload(0x40)\n      dup1\n      swap2\n      sub\n      swap1\n      revert\n    tag_77:\n        /* \"contracts/GiftCardETH.sol\":6156:6178  GiftCardStatus.EXPIRED */\n      0x00\n        /* \"contracts/GiftCardETH.sol\":6130:6138  giftCard */\n      dup3\n        /* \"contracts/GiftCardETH.sol\":6130:6153  giftCard.giftCardStatus */\n      0x03\n      add\n      0x00\n        /* \"contracts/GiftCardETH.sol\":6130:6178  giftCard.giftCardStatus = GiftCardStatus.EXPIRED */\n      0x0100\n      exp\n      dup2\n      sload\n      dup2\n      0xff\n      mul\n      not\n      and\n      swap1\n      dup4\n      0x01\n      dup2\n      gt\n      iszero\n      tag_80\n      jumpi\n      tag_81\n      tag_57\n      jump\t// in\n    tag_81:\n    tag_80:\n      mul\n      or\n      swap1\n      sstore\n      pop\n        /* \"contracts/GiftCardETH.sol\":6206:6211  users */\n      0x00\n        /* \"contracts/GiftCardETH.sol\":6206:6223  users[msg.sender] */\n      dup1\n        /* \"contracts/GiftCardETH.sol\":6212:6222  msg.sender */\n      caller\n        /* \"contracts/GiftCardETH.sol\":6206:6223  users[msg.sender] */\n      0xffffffffffffffffffffffffffffffffffffffff\n      and\n      0xffffffffffffffffffffffffffffffffffffffff\n      and\n      dup2\n      mstore\n      0x20\n      add\n      swap1\n      dup2\n      mstore\n      0x20\n      add\n      0x00\n      keccak256\n        /* \"contracts/GiftCardETH.sol\":6206:6228  users[msg.sender].name */\n      0x00\n      add\n        /* \"contracts/GiftCardETH.sol\":6188:6196  giftCard */\n      dup3\n        /* \"contracts/GiftCardETH.sol\":6188:6203  giftCard.getter */\n      0x04\n      add\n        /* \"contracts/GiftCardETH.sol\":6188:6228  giftCard.getter = users[msg.sender].name */\n      swap1\n      dup2\n      tag_82\n      swap2\n      swap1\n      tag_83\n      jump\t// in\n    tag_82:\n      pop\n        /* \"contracts/GiftCardETH.sol\":6240:6252  bool success */\n      0x00\n        /* \"contracts/GiftCardETH.sol\":6258:6268  msg.sender */\n      caller\n        /* \"contracts/GiftCardETH.sol\":6258:6273  msg.sender.call */\n      0xffffffffffffffffffffffffffffffffffffffff\n      and\n        /* \"contracts/GiftCardETH.sol\":6281:6287  amount */\n      dup3\n        /* \"contracts/GiftCardETH.sol\":6258:6292  msg.sender.call{value: amount}(\"\") */\n      mload(0x40)\n      tag_84\n      swap1\n      tag_85\n      jump\t// in\n    tag_84:\n      0x00\n      mload(0x40)\n      dup1\n      dup4\n      sub\n      dup2\n      dup6\n      dup8\n      gas\n      call\n      swap3\n      pop\n      pop\n      pop\n      returndatasize\n      dup1\n      0x00\n      dup2\n      eq\n      tag_88\n      jumpi\n      mload(0x40)\n      swap2\n      pop\n      and(add(returndatasize, 0x3f), not(0x1f))\n      dup3\n      add\n      0x40\n      mstore\n      returndatasize\n      dup3\n      mstore\n      returndatasize\n      0x00\n      0x20\n      dup5\n      add\n      returndatacopy\n      jump(tag_87)\n    tag_88:\n      0x60\n      swap2\n      pop\n    tag_87:\n      pop\n        /* \"contracts/GiftCardETH.sol\":6239:6292  (bool success, ) = msg.sender.call{value: amount}(\"\") */\n      pop\n      swap1\n      pop\n        /* \"contracts/GiftCardETH.sol\":6310:6317  success */\n      dup1\n        /* \"contracts/GiftCardETH.sol\":6302:6343  require(success, \"Ether transfer failed\") */\n      tag_89\n      jumpi\n      mload(0x40)\n      0x08c379a000000000000000000000000000000000000000000000000000000000\n      dup2\n      mstore\n      0x04\n      add\n      tag_90\n      swap1\n      tag_91\n      jump\t// in\n    tag_90:\n      mload(0x40)\n      dup1\n      swap2\n      sub\n      swap1\n      revert\n    tag_89:\n        /* \"contracts/GiftCardETH.sol\":6359:6379  CardRedeemed(amount) */\n      0x604d6de1b6eb3f39c6ab9d4981a20d17f88c5bef33495ae58dabeb097ba7a41a\n        /* \"contracts/GiftCardETH.sol\":6372:6378  amount */\n      dup3\n        /* \"contracts/GiftCardETH.sol\":6359:6379  CardRedeemed(amount) */\n      mload(0x40)\n      tag_92\n      swap2\n      swap1\n      tag_93\n      jump\t// in\n    tag_92:\n      mload(0x40)\n      dup1\n      swap2\n      sub\n      swap1\n      log1\n        /* \"contracts/GiftCardETH.sol\":5964:6387  {... */\n      pop\n      pop\n      pop\n        /* \"contracts/GiftCardETH.sol\":1663:1668  false */\n      0x00\n        /* \"contracts/GiftCardETH.sol\":1654:1660  locked */\n      0x02\n      0x00\n        /* \"contracts/GiftCardETH.sol\":1654:1668  locked = false */\n      0x0100\n      exp\n      dup2\n      sload\n      dup2\n      0xff\n      mul\n      not\n      and\n      swap1\n      dup4\n      iszero\n      iszero\n      mul\n      or\n      swap1\n      sstore\n      pop\n        /* \"contracts/GiftCardETH.sol\":5813:6387  function redeemCard(string calldata _code)... */\n      pop\n      pop\n      pop\n      jump\t// out\n        /* \"contracts/GiftCardETH.sol\":4475:5808  function getMyCard()... */\n    tag_28:\n        /* \"contracts/GiftCardETH.sol\":4569:4586  GiftCard[] memory */\n      0x60\n        /* \"contracts/GiftCardETH.sol\":1253:1254  0 */\n      0x00\n        /* \"contracts/GiftCardETH.sol\":1220:1225  users */\n      dup1\n        /* \"contracts/GiftCardETH.sol\":1220:1237  users[msg.sender] */\n      0x00\n        /* \"contracts/GiftCardETH.sol\":1226:1236  msg.sender */\n      caller\n        /* \"contracts/GiftCardETH.sol\":1220:1237  users[msg.sender] */\n      0xffffffffffffffffffffffffffffffffffffffff\n      and\n      0xffffffffffffffffffffffffffffffffffffffff\n      and\n      dup2\n      mstore\n      0x20\n      add\n      swap1\n      dup2\n      mstore\n      0x20\n      add\n      0x00\n      keccak256\n        /* \"contracts/GiftCardETH.sol\":1220:1242  users[msg.sender].name */\n      0x00\n      add\n        /* \"contracts/GiftCardETH.sol\":1214:1250  bytes(users[msg.sender].name).length */\n      dup1\n      sload\n      tag_95\n      swap1\n      tag_53\n      jump\t// in\n    tag_95:\n      swap1\n      pop\n        /* \"contracts/GiftCardETH.sol\":1214:1254  bytes(users[msg.sender].name).length > 0 */\n      gt\n        /* \"contracts/GiftCardETH.sol\":1193:1299  require(... */\n      tag_96\n      jumpi\n      mload(0x40)\n      0x08c379a000000000000000000000000000000000000000000000000000000000\n      dup2\n      mstore\n      0x04\n      add\n      tag_97\n      swap1\n      tag_69\n      jump\t// in\n    tag_97:\n      mload(0x40)\n      dup1\n      swap2\n      sub\n      swap1\n      revert\n    tag_96:\n        /* \"contracts/GiftCardETH.sol\":4602:4615  uint256 count */\n      0x00\n        /* \"contracts/GiftCardETH.sol\":4629:4651  bytes32 senderNameHash */\n      dup1\n        /* \"contracts/GiftCardETH.sol\":4694:4699  users */\n      dup1\n        /* \"contracts/GiftCardETH.sol\":4694:4711  users[msg.sender] */\n      0x00\n        /* \"contracts/GiftCardETH.sol\":4700:4710  msg.sender */\n      caller\n        /* \"contracts/GiftCardETH.sol\":4694:4711  users[msg.sender] */\n      0xffffffffffffffffffffffffffffffffffffffff\n      and\n      0xffffffffffffffffffffffffffffffffffffffff\n      and\n      dup2\n      mstore\n      0x20\n      add\n      swap1\n      dup2\n      mstore\n      0x20\n      add\n      0x00\n      keccak256\n        /* \"contracts/GiftCardETH.sol\":4694:4716  users[msg.sender].name */\n      0x00\n      add\n        /* \"contracts/GiftCardETH.sol\":4677:4717  abi.encodePacked(users[msg.sender].name) */\n      add(0x20, mload(0x40))\n      tag_99\n      swap2\n      swap1\n      tag_100\n      jump\t// in\n    tag_99:\n      mload(0x40)\n      0x20\n      dup2\n      dup4\n      sub\n      sub\n      dup2\n      mstore\n      swap1\n      0x40\n      mstore\n        /* \"contracts/GiftCardETH.sol\":4654:4727  keccak256(... */\n      dup1\n      mload\n      swap1\n      0x20\n      add\n      keccak256\n        /* \"contracts/GiftCardETH.sol\":4629:4727  bytes32 senderNameHash = keccak256(... */\n      swap1\n      pop\n        /* \"contracts/GiftCardETH.sol\":4743:4752  uint256 i */\n      0x00\n        /* \"contracts/GiftCardETH.sol\":4738:5178  for (uint256 i = 0; i < giftCardCodes.length; i++) {... */\n    tag_101:\n        /* \"contracts/GiftCardETH.sol\":4762:4775  giftCardCodes */\n      0x03\n        /* \"contracts/GiftCardETH.sol\":4762:4782  giftCardCodes.length */\n      dup1\n      sload\n      swap1\n      pop\n        /* \"contracts/GiftCardETH.sol\":4758:4759  i */\n      dup2\n        /* \"contracts/GiftCardETH.sol\":4758:4782  i < giftCardCodes.length */\n      lt\n        /* \"contracts/GiftCardETH.sol\":4738:5178  for (uint256 i = 0; i < giftCardCodes.length; i++) {... */\n      iszero\n      tag_102\n      jumpi\n        /* \"contracts/GiftCardETH.sol\":4944:4958  senderNameHash */\n      dup2\n        /* \"contracts/GiftCardETH.sol\":4872:4881  giftCards */\n      0x01\n        /* \"contracts/GiftCardETH.sol\":4882:4895  giftCardCodes */\n      0x03\n        /* \"contracts/GiftCardETH.sol\":4896:4897  i */\n      dup4\n        /* \"contracts/GiftCardETH.sol\":4882:4898  giftCardCodes[i] */\n      dup2\n      sload\n      dup2\n      lt\n      tag_104\n      jumpi\n      tag_105\n      tag_106\n      jump\t// in\n    tag_105:\n    tag_104:\n      swap1\n      0x00\n      mstore\n      keccak256(0x00, 0x20)\n      add\n        /* \"contracts/GiftCardETH.sol\":4872:4899  giftCards[giftCardCodes[i]] */\n      mload(0x40)\n      tag_108\n      swap2\n      swap1\n      tag_100\n      jump\t// in\n    tag_108:\n      swap1\n      dup2\n      mstore\n      0x20\n      add\n      mload(0x40)\n      dup1\n      swap2\n      sub\n      swap1\n      keccak256\n        /* \"contracts/GiftCardETH.sol\":4872:4905  giftCards[giftCardCodes[i]].buyer */\n      0x01\n      add\n        /* \"contracts/GiftCardETH.sol\":4855:4906  abi.encodePacked(giftCards[giftCardCodes[i]].buyer) */\n      add(0x20, mload(0x40))\n      tag_109\n      swap2\n      swap1\n      tag_100\n      jump\t// in\n    tag_109:\n      mload(0x40)\n      0x20\n      dup2\n      dup4\n      sub\n      sub\n      dup2\n      mstore\n      swap1\n      0x40\n      mstore\n        /* \"contracts/GiftCardETH.sol\":4824:4924  keccak256(... */\n      dup1\n      mload\n      swap1\n      0x20\n      add\n      keccak256\n        /* \"contracts/GiftCardETH.sol\":4824:4958  keccak256(... */\n      eq\n        /* \"contracts/GiftCardETH.sol\":4824:5113  keccak256(... */\n      dup1\n      tag_110\n      jumpi\n      pop\n        /* \"contracts/GiftCardETH.sol\":5099:5113  senderNameHash */\n      dup2\n        /* \"contracts/GiftCardETH.sol\":5026:5035  giftCards */\n      0x01\n        /* \"contracts/GiftCardETH.sol\":5036:5049  giftCardCodes */\n      0x03\n        /* \"contracts/GiftCardETH.sol\":5050:5051  i */\n      dup4\n        /* \"contracts/GiftCardETH.sol\":5036:5052  giftCardCodes[i] */\n      dup2\n      sload\n      dup2\n      lt\n      tag_111\n      jumpi\n      tag_112\n      tag_106\n      jump\t// in\n    tag_112:\n    tag_111:\n      swap1\n      0x00\n      mstore\n      keccak256(0x00, 0x20)\n      add\n        /* \"contracts/GiftCardETH.sol\":5026:5053  giftCards[giftCardCodes[i]] */\n      mload(0x40)\n      tag_114\n      swap2\n      swap1\n      tag_100\n      jump\t// in\n    tag_114:\n      swap1\n      dup2\n      mstore\n      0x20\n      add\n      mload(0x40)\n      dup1\n      swap2\n      sub\n      swap1\n      keccak256\n        /* \"contracts/GiftCardETH.sol\":5026:5060  giftCards[giftCardCodes[i]].getter */\n      0x04\n      add\n        /* \"contracts/GiftCardETH.sol\":5009:5061  abi.encodePacked(giftCards[giftCardCodes[i]].getter) */\n      add(0x20, mload(0x40))\n      tag_115\n      swap2\n      swap1\n      tag_100\n      jump\t// in\n    tag_115:\n      mload(0x40)\n      0x20\n      dup2\n      dup4\n      sub\n      sub\n      dup2\n      mstore\n      swap1\n      0x40\n      mstore\n        /* \"contracts/GiftCardETH.sol\":4978:5079  keccak256(... */\n      dup1\n      mload\n      swap1\n      0x20\n      add\n      keccak256\n        /* \"contracts/GiftCardETH.sol\":4978:5113  keccak256(... */\n      eq\n        /* \"contracts/GiftCardETH.sol\":4824:5113  keccak256(... */\n    tag_110:\n        /* \"contracts/GiftCardETH.sol\":4803:5168  if (... */\n      iszero\n      tag_116\n      jumpi\n        /* \"contracts/GiftCardETH.sol\":5146:5153  count++ */\n      dup3\n      dup1\n      tag_117\n      swap1\n      tag_118\n      jump\t// in\n    tag_117:\n      swap4\n      pop\n      pop\n        /* \"contracts/GiftCardETH.sol\":4803:5168  if (... */\n    tag_116:\n        /* \"contracts/GiftCardETH.sol\":4784:4787  i++ */\n      dup1\n      dup1\n      0x01\n      add\n      swap2\n      pop\n      pop\n        /* \"contracts/GiftCardETH.sol\":4738:5178  for (uint256 i = 0; i < giftCardCodes.length; i++) {... */\n      jump(tag_101)\n    tag_102:\n      pop\n        /* \"contracts/GiftCardETH.sol\":5188:5213  GiftCard[] memory myCards */\n      0x00\n        /* \"contracts/GiftCardETH.sol\":5231:5236  count */\n      dup3\n        /* \"contracts/GiftCardETH.sol\":5216:5237  new GiftCard[](count) */\n      0xffffffffffffffff\n      dup2\n      gt\n      iszero\n      tag_119\n      jumpi\n      tag_120\n      tag_121\n      jump\t// in\n    tag_120:\n    tag_119:\n      mload(0x40)\n      swap1\n      dup1\n      dup3\n      mstore\n      dup1\n      0x20\n      mul\n      0x20\n      add\n      dup3\n      add\n      0x40\n      mstore\n      dup1\n      iszero\n      tag_122\n      jumpi\n      dup2\n      0x20\n      add\n    tag_123:\n      tag_124\n      tag_125\n      jump\t// in\n    tag_124:\n      dup2\n      mstore\n      0x20\n      add\n      swap1\n      0x01\n      swap1\n      sub\n      swap1\n      dup2\n      tag_123\n      jumpi\n      swap1\n      pop\n    tag_122:\n      pop\n        /* \"contracts/GiftCardETH.sol\":5188:5237  GiftCard[] memory myCards = new GiftCard[](count) */\n      swap1\n      pop\n        /* \"contracts/GiftCardETH.sol\":5247:5260  uint256 index */\n      0x00\n        /* \"contracts/GiftCardETH.sol\":5280:5289  uint256 i */\n      dup1\n        /* \"contracts/GiftCardETH.sol\":5275:5777  for (uint256 i = 0; i < giftCardCodes.length; i++) {... */\n    tag_126:\n        /* \"contracts/GiftCardETH.sol\":5299:5312  giftCardCodes */\n      0x03\n        /* \"contracts/GiftCardETH.sol\":5299:5319  giftCardCodes.length */\n      dup1\n      sload\n      swap1\n      pop\n        /* \"contracts/GiftCardETH.sol\":5295:5296  i */\n      dup2\n        /* \"contracts/GiftCardETH.sol\":5295:5319  i < giftCardCodes.length */\n      lt\n        /* \"contracts/GiftCardETH.sol\":5275:5777  for (uint256 i = 0; i < giftCardCodes.length; i++) {... */\n      iszero\n      tag_127\n      jumpi\n        /* \"contracts/GiftCardETH.sol\":5481:5495  senderNameHash */\n      dup4\n        /* \"contracts/GiftCardETH.sol\":5409:5418  giftCards */\n      0x01\n        /* \"contracts/GiftCardETH.sol\":5419:5432  giftCardCodes */\n      0x03\n        /* \"contracts/GiftCardETH.sol\":5433:5434  i */\n      dup4\n        /* \"contracts/GiftCardETH.sol\":5419:5435  giftCardCodes[i] */\n      dup2\n      sload\n      dup2\n      lt\n      tag_129\n      jumpi\n      tag_130\n      tag_106\n      jump\t// in\n    tag_130:\n    tag_129:\n      swap1\n      0x00\n      mstore\n      keccak256(0x00, 0x20)\n      add\n        /* \"contracts/GiftCardETH.sol\":5409:5436  giftCards[giftCardCodes[i]] */\n      mload(0x40)\n      tag_132\n      swap2\n      swap1\n      tag_100\n      jump\t// in\n    tag_132:\n      swap1\n      dup2\n      mstore\n      0x20\n      add\n      mload(0x40)\n      dup1\n      swap2\n      sub\n      swap1\n      keccak256\n        /* \"contracts/GiftCardETH.sol\":5409:5442  giftCards[giftCardCodes[i]].buyer */\n      0x01\n      add\n        /* \"contracts/GiftCardETH.sol\":5392:5443  abi.encodePacked(giftCards[giftCardCodes[i]].buyer) */\n      add(0x20, mload(0x40))\n      tag_133\n      swap2\n      swap1\n      tag_100\n      jump\t// in\n    tag_133:\n      mload(0x40)\n      0x20\n      dup2\n      dup4\n      sub\n      sub\n      dup2\n      mstore\n      swap1\n      0x40\n      mstore\n        /* \"contracts/GiftCardETH.sol\":5361:5461  keccak256(... */\n      dup1\n      mload\n      swap1\n      0x20\n      add\n      keccak256\n        /* \"contracts/GiftCardETH.sol\":5361:5495  keccak256(... */\n      eq\n        /* \"contracts/GiftCardETH.sol\":5361:5650  keccak256(... */\n      dup1\n      tag_134\n      jumpi\n      pop\n        /* \"contracts/GiftCardETH.sol\":5636:5650  senderNameHash */\n      dup4\n        /* \"contracts/GiftCardETH.sol\":5563:5572  giftCards */\n      0x01\n        /* \"contracts/GiftCardETH.sol\":5573:5586  giftCardCodes */\n      0x03\n        /* \"contracts/GiftCardETH.sol\":5587:5588  i */\n      dup4\n        /* \"contracts/GiftCardETH.sol\":5573:5589  giftCardCodes[i] */\n      dup2\n      sload\n      dup2\n      lt\n      tag_135\n      jumpi\n      tag_136\n      tag_106\n      jump\t// in\n    tag_136:\n    tag_135:\n      swap1\n      0x00\n      mstore\n      keccak256(0x00, 0x20)\n      add\n        /* \"contracts/GiftCardETH.sol\":5563:5590  giftCards[giftCardCodes[i]] */\n      mload(0x40)\n      tag_138\n      swap2\n      swap1\n      tag_100\n      jump\t// in\n    tag_138:\n      swap1\n      dup2\n      mstore\n      0x20\n      add\n      mload(0x40)\n      dup1\n      swap2\n      sub\n      swap1\n      keccak256\n        /* \"contracts/GiftCardETH.sol\":5563:5597  giftCards[giftCardCodes[i]].getter */\n      0x04\n      add\n        /* \"contracts/GiftCardETH.sol\":5546:5598  abi.encodePacked(giftCards[giftCardCodes[i]].getter) */\n      add(0x20, mload(0x40))\n      tag_139\n      swap2\n      swap1\n      tag_100\n      jump\t// in\n    tag_139:\n      mload(0x40)\n      0x20\n      dup2\n      dup4\n      sub\n      sub\n      dup2\n      mstore\n      swap1\n      0x40\n      mstore\n        /* \"contracts/GiftCardETH.sol\":5515:5616  keccak256(... */\n      dup1\n      mload\n      swap1\n      0x20\n      add\n      keccak256\n        /* \"contracts/GiftCardETH.sol\":5515:5650  keccak256(... */\n      eq\n        /* \"contracts/GiftCardETH.sol\":5361:5650  keccak256(... */\n    tag_134:\n        /* \"contracts/GiftCardETH.sol\":5340:5767  if (... */\n      iszero\n      tag_140\n      jumpi\n        /* \"contracts/GiftCardETH.sol\":5700:5709  giftCards */\n      0x01\n        /* \"contracts/GiftCardETH.sol\":5710:5723  giftCardCodes */\n      0x03\n        /* \"contracts/GiftCardETH.sol\":5724:5725  i */\n      dup3\n        /* \"contracts/GiftCardETH.sol\":5710:5726  giftCardCodes[i] */\n      dup2\n      sload\n      dup2\n      lt\n      tag_141\n      jumpi\n      tag_142\n      tag_106\n      jump\t// in\n    tag_142:\n    tag_141:\n      swap1\n      0x00\n      mstore\n      keccak256(0x00, 0x20)\n      add\n        /* \"contracts/GiftCardETH.sol\":5700:5727  giftCards[giftCardCodes[i]] */\n      mload(0x40)\n      tag_144\n      swap2\n      swap1\n      tag_100\n      jump\t// in\n    tag_144:\n      swap1\n      dup2\n      mstore\n      0x20\n      add\n      mload(0x40)\n      dup1\n      swap2\n      sub\n      swap1\n      keccak256\n        /* \"contracts/GiftCardETH.sol\":5683:5727  myCards[index] = giftCards[giftCardCodes[i]] */\n      mload(0x40)\n      dup1\n      0xa0\n      add\n      0x40\n      mstore\n      swap1\n      dup2\n      0x00\n      dup3\n      add\n      dup1\n      sload\n      tag_145\n      swap1\n      tag_53\n      jump\t// in\n    tag_145:\n      dup1\n      0x1f\n      add\n      0x20\n      dup1\n      swap2\n      div\n      mul\n      0x20\n      add\n      mload(0x40)\n      swap1\n      dup2\n      add\n      0x40\n      mstore\n      dup1\n      swap3\n      swap2\n      swap1\n      dup2\n      dup2\n      mstore\n      0x20\n      add\n      dup3\n      dup1\n      sload\n      tag_146\n      swap1\n      tag_53\n      jump\t// in\n    tag_146:\n      dup1\n      iszero\n      tag_147\n      jumpi\n      dup1\n      0x1f\n      lt\n      tag_148\n      jumpi\n      0x0100\n      dup1\n      dup4\n      sload\n      div\n      mul\n      dup4\n      mstore\n      swap2\n      0x20\n      add\n      swap2\n      jump(tag_147)\n    tag_148:\n      dup3\n      add\n      swap2\n      swap1\n      0x00\n      mstore\n      keccak256(0x00, 0x20)\n      swap1\n    tag_149:\n      dup2\n      sload\n      dup2\n      mstore\n      swap1\n      0x01\n      add\n      swap1\n      0x20\n      add\n      dup1\n      dup4\n      gt\n      tag_149\n      jumpi\n      dup3\n      swap1\n      sub\n      0x1f\n      and\n      dup3\n      add\n      swap2\n    tag_147:\n      pop\n      pop\n      pop\n      pop\n      pop\n      dup2\n      mstore\n      0x20\n      add\n      0x01\n      dup3\n      add\n      dup1\n      sload\n      tag_150\n      swap1\n      tag_53\n      jump\t// in\n    tag_150:\n      dup1\n      0x1f\n      add\n      0x20\n      dup1\n      swap2\n      div\n      mul\n      0x20\n      add\n      mload(0x40)\n      swap1\n      dup2\n      add\n      0x40\n      mstore\n      dup1\n      swap3\n      swap2\n      swap1\n      dup2\n      dup2\n      mstore\n      0x20\n      add\n      dup3\n      dup1\n      sload\n      tag_151\n      swap1\n      tag_53\n      jump\t// in\n    tag_151:\n      dup1\n      iszero\n      tag_152\n      jumpi\n      dup1\n      0x1f\n      lt\n      tag_153\n      jumpi\n      0x0100\n      dup1\n      dup4\n      sload\n      div\n      mul\n      dup4\n      mstore\n      swap2\n      0x20\n      add\n      swap2\n      jump(tag_152)\n    tag_153:\n      dup3\n      add\n      swap2\n      swap1\n      0x00\n      mstore\n      keccak256(0x00, 0x20)\n      swap1\n    tag_154:\n      dup2\n      sload\n      dup2\n      mstore\n      swap1\n      0x01\n      add\n      swap1\n      0x20\n      add\n      dup1\n      dup4\n      gt\n      tag_154\n      jumpi\n      dup3\n      swap1\n      sub\n      0x1f\n      and\n      dup3\n      add\n      swap2\n    tag_152:\n      pop\n      pop\n      pop\n      pop\n      pop\n      dup2\n      mstore\n      0x20\n      add\n      0x02\n      dup3\n      add\n      sload\n      dup2\n      mstore\n      0x20\n      add\n      0x03\n      dup3\n      add\n      0x00\n      swap1\n      sload\n      swap1\n      0x0100\n      exp\n      swap1\n      div\n      0xff\n      and\n      0x01\n      dup2\n      gt\n      iszero\n      tag_155\n      jumpi\n      tag_156\n      tag_57\n      jump\t// in\n    tag_156:\n    tag_155:\n      0x01\n      dup2\n      gt\n      iszero\n      tag_157\n      jumpi\n      tag_158\n      tag_57\n      jump\t// in\n    tag_158:\n    tag_157:\n      dup2\n      mstore\n      0x20\n      add\n      0x04\n      dup3\n      add\n      dup1\n      sload\n      tag_159\n      swap1\n      tag_53\n      jump\t// in\n    tag_159:\n      dup1\n      0x1f\n      add\n      0x20\n      dup1\n      swap2\n      div\n      mul\n      0x20\n      add\n      mload(0x40)\n      swap1\n      dup2\n      add\n      0x40\n      mstore\n      dup1\n      swap3\n      swap2\n      swap1\n      dup2\n      dup2\n      mstore\n      0x20\n      add\n      dup3\n      dup1\n      sload\n      tag_160\n      swap1\n      tag_53\n      jump\t// in\n    tag_160:\n      dup1\n      iszero\n      tag_161\n      jumpi\n      dup1\n      0x1f\n      lt\n      tag_162\n      jumpi\n      0x0100\n      dup1\n      dup4\n      sload\n      div\n      mul\n      dup4\n      mstore\n      swap2\n      0x20\n      add\n      swap2\n      jump(tag_161)\n    tag_162:\n      dup3\n      add\n      swap2\n      swap1\n      0x00\n      mstore\n      keccak256(0x00, 0x20)\n      swap1\n    tag_163:\n      dup2\n      sload\n      dup2\n      mstore\n      swap1\n      0x01\n      add\n      swap1\n      0x20\n      add\n      dup1\n      dup4\n      gt\n      tag_163\n      jumpi\n      dup3\n      swap1\n      sub\n      0x1f\n      and\n      dup3\n      add\n      swap2\n    tag_161:\n      pop\n      pop\n      pop\n      pop\n      pop\n      dup2\n      mstore\n      pop\n      pop\n        /* \"contracts/GiftCardETH.sol\":5683:5690  myCards */\n      dup4\n        /* \"contracts/GiftCardETH.sol\":5691:5696  index */\n      dup4\n        /* \"contracts/GiftCardETH.sol\":5683:5697  myCards[index] */\n      dup2\n      mload\n      dup2\n      lt\n      tag_164\n      jumpi\n      tag_165\n      tag_106\n      jump\t// in\n    tag_165:\n    tag_164:\n      0x20\n      mul\n      0x20\n      add\n      add\n        /* \"contracts/GiftCardETH.sol\":5683:5727  myCards[index] = giftCards[giftCardCodes[i]] */\n      dup2\n      swap1\n      mstore\n      pop\n        /* \"contracts/GiftCardETH.sol\":5745:5752  index++ */\n      dup2\n      dup1\n      tag_166\n      swap1\n      tag_118\n      jump\t// in\n    tag_166:\n      swap3\n      pop\n      pop\n        /* \"contracts/GiftCardETH.sol\":5340:5767  if (... */\n    tag_140:\n        /* \"contracts/GiftCardETH.sol\":5321:5324  i++ */\n      dup1\n      dup1\n      0x01\n      add\n      swap2\n      pop\n      pop\n        /* \"contracts/GiftCardETH.sol\":5275:5777  for (uint256 i = 0; i < giftCardCodes.length; i++) {... */\n      jump(tag_126)\n    tag_127:\n      pop\n        /* \"contracts/GiftCardETH.sol\":5794:5801  myCards */\n      dup2\n        /* \"contracts/GiftCardETH.sol\":5787:5801  return myCards */\n      swap5\n      pop\n      pop\n      pop\n      pop\n      pop\n        /* \"contracts/GiftCardETH.sol\":4475:5808  function getMyCard()... */\n      swap1\n      jump\t// out\n        /* \"contracts/GiftCardETH.sol\":2321:2501  function registration(string calldata name, Gender gender) external {... */\n    tag_35:\n        /* \"contracts/GiftCardETH.sol\":2399:2412  userAddresses */\n      0x04\n        /* \"contracts/GiftCardETH.sol\":2418:2428  msg.sender */\n      caller\n        /* \"contracts/GiftCardETH.sol\":2399:2429  userAddresses.push(msg.sender) */\n      swap1\n      dup1\n      0x01\n      dup2\n      sload\n      add\n      dup1\n      dup3\n      sstore\n      dup1\n      swap2\n      pop\n      pop\n      0x01\n      swap1\n      sub\n      swap1\n      0x00\n      mstore\n      keccak256(0x00, 0x20)\n      add\n      0x00\n      swap1\n      swap2\n      swap1\n      swap2\n      swap1\n      swap2\n      0x0100\n      exp\n      dup2\n      sload\n      dup2\n      0xffffffffffffffffffffffffffffffffffffffff\n      mul\n      not\n      and\n      swap1\n      dup4\n      0xffffffffffffffffffffffffffffffffffffffff\n      and\n      mul\n      or\n      swap1\n      sstore\n      pop\n        /* \"contracts/GiftCardETH.sol\":2459:2494  User(name, gender, UserType.NORMAL) */\n      mload(0x40)\n      dup1\n      0x60\n      add\n      0x40\n      mstore\n      dup1\n        /* \"contracts/GiftCardETH.sol\":2464:2468  name */\n      dup5\n      dup5\n        /* \"contracts/GiftCardETH.sol\":2459:2494  User(name, gender, UserType.NORMAL) */\n      dup1\n      dup1\n      0x1f\n      add\n      0x20\n      dup1\n      swap2\n      div\n      mul\n      0x20\n      add\n      mload(0x40)\n      swap1\n      dup2\n      add\n      0x40\n      mstore\n      dup1\n      swap4\n      swap3\n      swap2\n      swap1\n      dup2\n      dup2\n      mstore\n      0x20\n      add\n      dup4\n      dup4\n      dup1\n      dup3\n      dup5\n      calldatacopy\n      0x00\n      dup2\n      dup5\n      add\n      mstore\n      not(0x1f)\n      0x1f\n      dup3\n      add\n      and\n      swap1\n      pop\n      dup1\n      dup4\n      add\n      swap3\n      pop\n      pop\n      pop\n      pop\n      pop\n      pop\n      pop\n      dup2\n      mstore\n      0x20\n      add\n        /* \"contracts/GiftCardETH.sol\":2470:2476  gender */\n      dup3\n        /* \"contracts/GiftCardETH.sol\":2459:2494  User(name, gender, UserType.NORMAL) */\n      0x01\n      dup2\n      gt\n      iszero\n      tag_169\n      jumpi\n      tag_170\n      tag_57\n      jump\t// in\n    tag_170:\n    tag_169:\n      dup2\n      mstore\n      0x20\n      add\n        /* \"contracts/GiftCardETH.sol\":2478:2493  UserType.NORMAL */\n      0x00\n        /* \"contracts/GiftCardETH.sol\":2459:2494  User(name, gender, UserType.NORMAL) */\n      0x01\n      dup2\n      gt\n      iszero\n      tag_171\n      jumpi\n      tag_172\n      tag_57\n      jump\t// in\n    tag_172:\n    tag_171:\n      dup2\n      mstore\n      pop\n        /* \"contracts/GiftCardETH.sol\":2439:2444  users */\n      0x00\n        /* \"contracts/GiftCardETH.sol\":2439:2456  users[msg.sender] */\n      dup1\n        /* \"contracts/GiftCardETH.sol\":2445:2455  msg.sender */\n      caller\n        /* \"contracts/GiftCardETH.sol\":2439:2456  users[msg.sender] */\n      0xffffffffffffffffffffffffffffffffffffffff\n      and\n      0xffffffffffffffffffffffffffffffffffffffff\n      and\n      dup2\n      mstore\n      0x20\n      add\n      swap1\n      dup2\n      mstore\n      0x20\n      add\n      0x00\n      keccak256\n        /* \"contracts/GiftCardETH.sol\":2439:2494  users[msg.sender] = User(name, gender, UserType.NORMAL) */\n      0x00\n      dup3\n      add\n      mload\n      dup2\n      0x00\n      add\n      swap1\n      dup2\n      tag_173\n      swap2\n      swap1\n      tag_174\n      jump\t// in\n    tag_173:\n      pop\n      0x20\n      dup3\n      add\n      mload\n      dup2\n      0x01\n      add\n      exp(0x0100, 0x00)\n      dup2\n      sload\n      dup2\n      0xff\n      mul\n      not\n      and\n      swap1\n      dup4\n      0x01\n      dup2\n      gt\n      iszero\n      tag_175\n      jumpi\n      tag_176\n      tag_57\n      jump\t// in\n    tag_176:\n    tag_175:\n      mul\n      or\n      swap1\n      sstore\n      pop\n      0x40\n      dup3\n      add\n      mload\n      dup2\n      0x01\n      add\n      exp(0x0100, 0x01)\n      dup2\n      sload\n      dup2\n      0xff\n      mul\n      not\n      and\n      swap1\n      dup4\n      0x01\n      dup2\n      gt\n      iszero\n      tag_177\n      jumpi\n      tag_178\n      tag_57\n      jump\t// in\n    tag_178:\n    tag_177:\n      mul\n      or\n      swap1\n      sstore\n      pop\n      swap1\n      pop\n      pop\n        /* \"contracts/GiftCardETH.sol\":2321:2501  function registration(string calldata name, Gender gender) external {... */\n      pop\n      pop\n      pop\n      jump\t// out\n        /* \"contracts/GiftCardETH.sol\":4231:4470  function buyGiftCard() external payable registeredUsersOnly {... */\n    tag_37:\n        /* \"contracts/GiftCardETH.sol\":1253:1254  0 */\n      0x00\n        /* \"contracts/GiftCardETH.sol\":1220:1225  users */\n      dup1\n        /* \"contracts/GiftCardETH.sol\":1220:1237  users[msg.sender] */\n      0x00\n        /* \"contracts/GiftCardETH.sol\":1226:1236  msg.sender */\n      caller\n        /* \"contracts/GiftCardETH.sol\":1220:1237  users[msg.sender] */\n      0xffffffffffffffffffffffffffffffffffffffff\n      and\n      0xffffffffffffffffffffffffffffffffffffffff\n      and\n      dup2\n      mstore\n      0x20\n      add\n      swap1\n      dup2\n      mstore\n      0x20\n      add\n      0x00\n      keccak256\n        /* \"contracts/GiftCardETH.sol\":1220:1242  users[msg.sender].name */\n      0x00\n      add\n        /* \"contracts/GiftCardETH.sol\":1214:1250  bytes(users[msg.sender].name).length */\n      dup1\n      sload\n      tag_180\n      swap1\n      tag_53\n      jump\t// in\n    tag_180:\n      swap1\n      pop\n        /* \"contracts/GiftCardETH.sol\":1214:1254  bytes(users[msg.sender].name).length > 0 */\n      gt\n        /* \"contracts/GiftCardETH.sol\":1193:1299  require(... */\n      tag_181\n      jumpi\n      mload(0x40)\n      0x08c379a000000000000000000000000000000000000000000000000000000000\n      dup2\n      mstore\n      0x04\n      add\n      tag_182\n      swap1\n      tag_69\n      jump\t// in\n    tag_182:\n      mload(0x40)\n      dup1\n      swap2\n      sub\n      swap1\n      revert\n    tag_181:\n        /* \"contracts/GiftCardETH.sol\":4301:4315  uint256 amount */\n      0x00\n        /* \"contracts/GiftCardETH.sol\":4337:4340  100 */\n      0x64\n        /* \"contracts/GiftCardETH.sol\":4331:4333  90 */\n      0x5a\n        /* \"contracts/GiftCardETH.sol\":4319:4328  msg.value */\n      callvalue\n        /* \"contracts/GiftCardETH.sol\":4319:4333  msg.value * 90 */\n      tag_184\n      swap2\n      swap1\n      tag_185\n      jump\t// in\n    tag_184:\n        /* \"contracts/GiftCardETH.sol\":4318:4340  (msg.value * 90) / 100 */\n      tag_186\n      swap2\n      swap1\n      tag_187\n      jump\t// in\n    tag_186:\n        /* \"contracts/GiftCardETH.sol\":4301:4340  uint256 amount = (msg.value * 90) / 100 */\n      swap1\n      pop\n        /* \"contracts/GiftCardETH.sol\":4350:4368  string memory code */\n      0x00\n        /* \"contracts/GiftCardETH.sol\":4371:4393  generateGiftCardCode() */\n      tag_188\n        /* \"contracts/GiftCardETH.sol\":4371:4391  generateGiftCardCode */\n      tag_189\n        /* \"contracts/GiftCardETH.sol\":4371:4393  generateGiftCardCode() */\n      jump\t// in\n    tag_188:\n        /* \"contracts/GiftCardETH.sol\":4350:4393  string memory code = generateGiftCardCode() */\n      swap1\n      pop\n        /* \"contracts/GiftCardETH.sol\":4403:4424  addCard(code, amount) */\n      tag_190\n        /* \"contracts/GiftCardETH.sol\":4411:4415  code */\n      dup2\n        /* \"contracts/GiftCardETH.sol\":4417:4423  amount */\n      dup4\n        /* \"contracts/GiftCardETH.sol\":4403:4410  addCard */\n      tag_191\n        /* \"contracts/GiftCardETH.sol\":4403:4424  addCard(code, amount) */\n      jump\t// in\n    tag_190:\n        /* \"contracts/GiftCardETH.sol\":4439:4463  CardBought(code, amount) */\n      0x19446f6741eca6d71b8406898c4308b5f1b9844f9f1ea7614b48264e453b9bd2\n        /* \"contracts/GiftCardETH.sol\":4450:4454  code */\n      dup2\n        /* \"contracts/GiftCardETH.sol\":4456:4462  amount */\n      dup4\n        /* \"contracts/GiftCardETH.sol\":4439:4463  CardBought(code, amount) */\n      mload(0x40)\n      tag_192\n      swap3\n      swap2\n      swap1\n      tag_193\n      jump\t// in\n    tag_192:\n      mload(0x40)\n      dup1\n      swap2\n      sub\n      swap1\n      log1\n        /* \"contracts/GiftCardETH.sol\":4291:4470  {... */\n      pop\n      pop\n        /* \"contracts/GiftCardETH.sol\":4231:4470  function buyGiftCard() external payable registeredUsersOnly {... */\n      jump\t// out\n        /* \"contracts/GiftCardETH.sol\":2884:3283  function getAllGiftCards()... */\n    tag_40:\n        /* \"contracts/GiftCardETH.sol\":3004:3031  GiftCard[] memory giftcards */\n      0x60\n        /* \"contracts/GiftCardETH.sol\":1253:1254  0 */\n      0x00\n        /* \"contracts/GiftCardETH.sol\":1220:1225  users */\n      dup1\n        /* \"contracts/GiftCardETH.sol\":1220:1237  users[msg.sender] */\n      0x00\n        /* \"contracts/GiftCardETH.sol\":1226:1236  msg.sender */\n      caller\n        /* \"contracts/GiftCardETH.sol\":1220:1237  users[msg.sender] */\n      0xffffffffffffffffffffffffffffffffffffffff\n      and\n      0xffffffffffffffffffffffffffffffffffffffff\n      and\n      dup2\n      mstore\n      0x20\n      add\n      swap1\n      dup2\n      mstore\n      0x20\n      add\n      0x00\n      keccak256\n        /* \"contracts/GiftCardETH.sol\":1220:1242  users[msg.sender].name */\n      0x00\n      add\n        /* \"contracts/GiftCardETH.sol\":1214:1250  bytes(users[msg.sender].name).length */\n      dup1\n      sload\n      tag_195\n      swap1\n      tag_53\n      jump\t// in\n    tag_195:\n      swap1\n      pop\n        /* \"contracts/GiftCardETH.sol\":1214:1254  bytes(users[msg.sender].name).length > 0 */\n      gt\n        /* \"contracts/GiftCardETH.sol\":1193:1299  require(... */\n      tag_196\n      jumpi\n      mload(0x40)\n      0x08c379a000000000000000000000000000000000000000000000000000000000\n      dup2\n      mstore\n      0x04\n      add\n      tag_197\n      swap1\n      tag_69\n      jump\t// in\n    tag_197:\n      mload(0x40)\n      dup1\n      swap2\n      sub\n      swap1\n      revert\n    tag_196:\n        /* \"contracts/GiftCardETH.sol\":1404:1418  UserType.ADMIN */\n      0x01\n        /* \"contracts/GiftCardETH.sol\":1374:1418  users[msg.sender].userType == UserType.ADMIN */\n      dup1\n      dup2\n      gt\n      iszero\n      tag_199\n      jumpi\n      tag_200\n      tag_57\n      jump\t// in\n    tag_200:\n    tag_199:\n        /* \"contracts/GiftCardETH.sol\":1374:1379  users */\n      0x00\n        /* \"contracts/GiftCardETH.sol\":1374:1391  users[msg.sender] */\n      dup1\n        /* \"contracts/GiftCardETH.sol\":1380:1390  msg.sender */\n      caller\n        /* \"contracts/GiftCardETH.sol\":1374:1391  users[msg.sender] */\n      0xffffffffffffffffffffffffffffffffffffffff\n      and\n      0xffffffffffffffffffffffffffffffffffffffff\n      and\n      dup2\n      mstore\n      0x20\n      add\n      swap1\n      dup2\n      mstore\n      0x20\n      add\n      0x00\n      keccak256\n        /* \"contracts/GiftCardETH.sol\":1374:1400  users[msg.sender].userType */\n      0x01\n      add\n      0x01\n      swap1\n      sload\n      swap1\n      0x0100\n      exp\n      swap1\n      div\n      0xff\n      and\n        /* \"contracts/GiftCardETH.sol\":1374:1418  users[msg.sender].userType == UserType.ADMIN */\n      0x01\n      dup2\n      gt\n      iszero\n      tag_201\n      jumpi\n      tag_202\n      tag_57\n      jump\t// in\n    tag_202:\n    tag_201:\n      eq\n        /* \"contracts/GiftCardETH.sol\":1353:1464  require(... */\n      tag_203\n      jumpi\n      mload(0x40)\n      0x08c379a000000000000000000000000000000000000000000000000000000000\n      dup2\n      mstore\n      0x04\n      add\n      tag_204\n      swap1\n      tag_205\n      jump\t// in\n    tag_204:\n      mload(0x40)\n      dup1\n      swap2\n      sub\n      swap1\n      revert\n    tag_203:\n        /* \"contracts/GiftCardETH.sol\":3047:3061  uint256 length */\n      0x00\n        /* \"contracts/GiftCardETH.sol\":3064:3077  giftCardCodes */\n      0x03\n        /* \"contracts/GiftCardETH.sol\":3064:3084  giftCardCodes.length */\n      dup1\n      sload\n      swap1\n      pop\n        /* \"contracts/GiftCardETH.sol\":3047:3084  uint256 length = giftCardCodes.length */\n      swap1\n      pop\n        /* \"contracts/GiftCardETH.sol\":3094:3118  GiftCard[] memory result */\n      0x00\n        /* \"contracts/GiftCardETH.sol\":3136:3142  length */\n      dup2\n        /* \"contracts/GiftCardETH.sol\":3121:3143  new GiftCard[](length) */\n      0xffffffffffffffff\n      dup2\n      gt\n      iszero\n      tag_207\n      jumpi\n      tag_208\n      tag_121\n      jump\t// in\n    tag_208:\n    tag_207:\n      mload(0x40)\n      swap1\n      dup1\n      dup3\n      mstore\n      dup1\n      0x20\n      mul\n      0x20\n      add\n      dup3\n      add\n      0x40\n      mstore\n      dup1\n      iszero\n      tag_209\n      jumpi\n      dup2\n      0x20\n      add\n    tag_210:\n      tag_211\n      tag_125\n      jump\t// in\n    tag_211:\n      dup2\n      mstore\n      0x20\n      add\n      swap1\n      0x01\n      swap1\n      sub\n      swap1\n      dup2\n      tag_210\n      jumpi\n      swap1\n      pop\n    tag_209:\n      pop\n        /* \"contracts/GiftCardETH.sol\":3094:3143  GiftCard[] memory result = new GiftCard[](length) */\n      swap1\n      pop\n        /* \"contracts/GiftCardETH.sol\":3158:3167  uint256 i */\n      0x00\n        /* \"contracts/GiftCardETH.sol\":3153:3254  for (uint256 i = 0; i < length; i++) {... */\n    tag_212:\n        /* \"contracts/GiftCardETH.sol\":3177:3183  length */\n      dup3\n        /* \"contracts/GiftCardETH.sol\":3173:3174  i */\n      dup2\n        /* \"contracts/GiftCardETH.sol\":3173:3183  i < length */\n      lt\n        /* \"contracts/GiftCardETH.sol\":3153:3254  for (uint256 i = 0; i < length; i++) {... */\n      iszero\n      tag_213\n      jumpi\n        /* \"contracts/GiftCardETH.sol\":3216:3225  giftCards */\n      0x01\n        /* \"contracts/GiftCardETH.sol\":3226:3239  giftCardCodes */\n      0x03\n        /* \"contracts/GiftCardETH.sol\":3240:3241  i */\n      dup3\n        /* \"contracts/GiftCardETH.sol\":3226:3242  giftCardCodes[i] */\n      dup2\n      sload\n      dup2\n      lt\n      tag_215\n      jumpi\n      tag_216\n      tag_106\n      jump\t// in\n    tag_216:\n    tag_215:\n      swap1\n      0x00\n      mstore\n      keccak256(0x00, 0x20)\n      add\n        /* \"contracts/GiftCardETH.sol\":3216:3243  giftCards[giftCardCodes[i]] */\n      mload(0x40)\n      tag_218\n      swap2\n      swap1\n      tag_100\n      jump\t// in\n    tag_218:\n      swap1\n      dup2\n      mstore\n      0x20\n      add\n      mload(0x40)\n      dup1\n      swap2\n      sub\n      swap1\n      keccak256\n        /* \"contracts/GiftCardETH.sol\":3204:3243  result[i] = giftCards[giftCardCodes[i]] */\n      mload(0x40)\n      dup1\n      0xa0\n      add\n      0x40\n      mstore\n      swap1\n      dup2\n      0x00\n      dup3\n      add\n      dup1\n      sload\n      tag_219\n      swap1\n      tag_53\n      jump\t// in\n    tag_219:\n      dup1\n      0x1f\n      add\n      0x20\n      dup1\n      swap2\n      div\n      mul\n      0x20\n      add\n      mload(0x40)\n      swap1\n      dup2\n      add\n      0x40\n      mstore\n      dup1\n      swap3\n      swap2\n      swap1\n      dup2\n      dup2\n      mstore\n      0x20\n      add\n      dup3\n      dup1\n      sload\n      tag_220\n      swap1\n      tag_53\n      jump\t// in\n    tag_220:\n      dup1\n      iszero\n      tag_221\n      jumpi\n      dup1\n      0x1f\n      lt\n      tag_222\n      jumpi\n      0x0100\n      dup1\n      dup4\n      sload\n      div\n      mul\n      dup4\n      mstore\n      swap2\n      0x20\n      add\n      swap2\n      jump(tag_221)\n    tag_222:\n      dup3\n      add\n      swap2\n      swap1\n      0x00\n      mstore\n      keccak256(0x00, 0x20)\n      swap1\n    tag_223:\n      dup2\n      sload\n      dup2\n      mstore\n      swap1\n      0x01\n      add\n      swap1\n      0x20\n      add\n      dup1\n      dup4\n      gt\n      tag_223\n      jumpi\n      dup3\n      swap1\n      sub\n      0x1f\n      and\n      dup3\n      add\n      swap2\n    tag_221:\n      pop\n      pop\n      pop\n      pop\n      pop\n      dup2\n      mstore\n      0x20\n      add\n      0x01\n      dup3\n      add\n      dup1\n      sload\n      tag_224\n      swap1\n      tag_53\n      jump\t// in\n    tag_224:\n      dup1\n      0x1f\n      add\n      0x20\n      dup1\n      swap2\n      div\n      mul\n      0x20\n      add\n      mload(0x40)\n      swap1\n      dup2\n      add\n      0x40\n      mstore\n      dup1\n      swap3\n      swap2\n      swap1\n      dup2\n      dup2\n      mstore\n      0x20\n      add\n      dup3\n      dup1\n      sload\n      tag_225\n      swap1\n      tag_53\n      jump\t// in\n    tag_225:\n      dup1\n      iszero\n      tag_226\n      jumpi\n      dup1\n      0x1f\n      lt\n      tag_227\n      jumpi\n      0x0100\n      dup1\n      dup4\n      sload\n      div\n      mul\n      dup4\n      mstore\n      swap2\n      0x20\n      add\n      swap2\n      jump(tag_226)\n    tag_227:\n      dup3\n      add\n      swap2\n      swap1\n      0x00\n      mstore\n      keccak256(0x00, 0x20)\n      swap1\n    tag_228:\n      dup2\n      sload\n      dup2\n      mstore\n      swap1\n      0x01\n      add\n      swap1\n      0x20\n      add\n      dup1\n      dup4\n      gt\n      tag_228\n      jumpi\n      dup3\n      swap1\n      sub\n      0x1f\n      and\n      dup3\n      add\n      swap2\n    tag_226:\n      pop\n      pop\n      pop\n      pop\n      pop\n      dup2\n      mstore\n      0x20\n      add\n      0x02\n      dup3\n      add\n      sload\n      dup2\n      mstore\n      0x20\n      add\n      0x03\n      dup3\n      add\n      0x00\n      swap1\n      sload\n      swap1\n      0x0100\n      exp\n      swap1\n      div\n      0xff\n      and\n      0x01\n      dup2\n      gt\n      iszero\n      tag_229\n      jumpi\n      tag_230\n      tag_57\n      jump\t// in\n    tag_230:\n    tag_229:\n      0x01\n      dup2\n      gt\n      iszero\n      tag_231\n      jumpi\n      tag_232\n      tag_57\n      jump\t// in\n    tag_232:\n    tag_231:\n      dup2\n      mstore\n      0x20\n      add\n      0x04\n      dup3\n      add\n      dup1\n      sload\n      tag_233\n      swap1\n      tag_53\n      jump\t// in\n    tag_233:\n      dup1\n      0x1f\n      add\n      0x20\n      dup1\n      swap2\n      div\n      mul\n      0x20\n      add\n      mload(0x40)\n      swap1\n      dup2\n      add\n      0x40\n      mstore\n      dup1\n      swap3\n      swap2\n      swap1\n      dup2\n      dup2\n      mstore\n      0x20\n      add\n      dup3\n      dup1\n      sload\n      tag_234\n      swap1\n      tag_53\n      jump\t// in\n    tag_234:\n      dup1\n      iszero\n      tag_235\n      jumpi\n      dup1\n      0x1f\n      lt\n      tag_236\n      jumpi\n      0x0100\n      dup1\n      dup4\n      sload\n      div\n      mul\n      dup4\n      mstore\n      swap2\n      0x20\n      add\n      swap2\n      jump(tag_235)\n    tag_236:\n      dup3\n      add\n      swap2\n      swap1\n      0x00\n      mstore\n      keccak256(0x00, 0x20)\n      swap1\n    tag_237:\n      dup2\n      sload\n      dup2\n      mstore\n      swap1\n      0x01\n      add\n      swap1\n      0x20\n      add\n      dup1\n      dup4\n      gt\n      tag_237\n      jumpi\n      dup3\n      swap1\n      sub\n      0x1f\n      and\n      dup3\n      add\n      swap2\n    tag_235:\n      pop\n      pop\n      pop\n      pop\n      pop\n      dup2\n      mstore\n      pop\n      pop\n        /* \"contracts/GiftCardETH.sol\":3204:3210  result */\n      dup3\n        /* \"contracts/GiftCardETH.sol\":3211:3212  i */\n      dup3\n        /* \"contracts/GiftCardETH.sol\":3204:3213  result[i] */\n      dup2\n      mload\n      dup2\n      lt\n      tag_238\n      jumpi\n      tag_239\n      tag_106\n      jump\t// in\n    tag_239:\n    tag_238:\n      0x20\n      mul\n      0x20\n      add\n      add\n        /* \"contracts/GiftCardETH.sol\":3204:3243  result[i] = giftCards[giftCardCodes[i]] */\n      dup2\n      swap1\n      mstore\n      pop\n        /* \"contracts/GiftCardETH.sol\":3185:3188  i++ */\n      dup1\n      dup1\n      0x01\n      add\n      swap2\n      pop\n      pop\n        /* \"contracts/GiftCardETH.sol\":3153:3254  for (uint256 i = 0; i < length; i++) {... */\n      jump(tag_212)\n    tag_213:\n      pop\n        /* \"contracts/GiftCardETH.sol\":3270:3276  result */\n      dup1\n        /* \"contracts/GiftCardETH.sol\":3263:3276  return result */\n      swap3\n      pop\n      pop\n      pop\n        /* \"contracts/GiftCardETH.sol\":2884:3283  function getAllGiftCards()... */\n      swap1\n      jump\t// out\n        /* \"contracts/GiftCardETH.sol\":2506:2640  function isAdmin() public view registeredUsersOnly returns (bool) {... */\n    tag_44:\n        /* \"contracts/GiftCardETH.sol\":2566:2570  bool */\n      0x00\n        /* \"contracts/GiftCardETH.sol\":1253:1254  0 */\n      dup1\n        /* \"contracts/GiftCardETH.sol\":1220:1225  users */\n      0x00\n        /* \"contracts/GiftCardETH.sol\":1220:1237  users[msg.sender] */\n      dup1\n        /* \"contracts/GiftCardETH.sol\":1226:1236  msg.sender */\n      caller\n        /* \"contracts/GiftCardETH.sol\":1220:1237  users[msg.sender] */\n      0xffffffffffffffffffffffffffffffffffffffff\n      and\n      0xffffffffffffffffffffffffffffffffffffffff\n      and\n      dup2\n      mstore\n      0x20\n      add\n      swap1\n      dup2\n      mstore\n      0x20\n      add\n      0x00\n      keccak256\n        /* \"contracts/GiftCardETH.sol\":1220:1242  users[msg.sender].name */\n      0x00\n      add\n        /* \"contracts/GiftCardETH.sol\":1214:1250  bytes(users[msg.sender].name).length */\n      dup1\n      sload\n      tag_241\n      swap1\n      tag_53\n      jump\t// in\n    tag_241:\n      swap1\n      pop\n        /* \"contracts/GiftCardETH.sol\":1214:1254  bytes(users[msg.sender].name).length > 0 */\n      gt\n        /* \"contracts/GiftCardETH.sol\":1193:1299  require(... */\n      tag_242\n      jumpi\n      mload(0x40)\n      0x08c379a000000000000000000000000000000000000000000000000000000000\n      dup2\n      mstore\n      0x04\n      add\n      tag_243\n      swap1\n      tag_69\n      jump\t// in\n    tag_243:\n      mload(0x40)\n      dup1\n      swap2\n      sub\n      swap1\n      revert\n    tag_242:\n        /* \"contracts/GiftCardETH.sol\":2619:2633  UserType.ADMIN */\n      0x01\n        /* \"contracts/GiftCardETH.sol\":2589:2633  users[msg.sender].userType == UserType.ADMIN */\n      dup1\n      dup2\n      gt\n      iszero\n      tag_245\n      jumpi\n      tag_246\n      tag_57\n      jump\t// in\n    tag_246:\n    tag_245:\n        /* \"contracts/GiftCardETH.sol\":2589:2594  users */\n      0x00\n        /* \"contracts/GiftCardETH.sol\":2589:2606  users[msg.sender] */\n      dup1\n        /* \"contracts/GiftCardETH.sol\":2595:2605  msg.sender */\n      caller\n        /* \"contracts/GiftCardETH.sol\":2589:2606  users[msg.sender] */\n      0xffffffffffffffffffffffffffffffffffffffff\n      and\n      0xffffffffffffffffffffffffffffffffffffffff\n      and\n      dup2\n      mstore\n      0x20\n      add\n      swap1\n      dup2\n      mstore\n      0x20\n      add\n      0x00\n      keccak256\n        /* \"contracts/GiftCardETH.sol\":2589:2615  users[msg.sender].userType */\n      0x01\n      add\n      0x01\n      swap1\n      sload\n      swap1\n      0x0100\n      exp\n      swap1\n      div\n      0xff\n      and\n        /* \"contracts/GiftCardETH.sol\":2589:2633  users[msg.sender].userType == UserType.ADMIN */\n      0x01\n      dup2\n      gt\n      iszero\n      tag_247\n      jumpi\n      tag_248\n      tag_57\n      jump\t// in\n    tag_248:\n    tag_247:\n      eq\n        /* \"contracts/GiftCardETH.sol\":2582:2633  return users[msg.sender].userType == UserType.ADMIN */\n      swap1\n      pop\n        /* \"contracts/GiftCardETH.sol\":2506:2640  function isAdmin() public view registeredUsersOnly returns (bool) {... */\n      swap1\n      jump\t// out\n        /* \"contracts/GiftCardETH.sol\":2645:2761  function getMyData() public registeredUsersOnly view returns (User memory) {... */\n    tag_48:\n        /* \"contracts/GiftCardETH.sol\":2707:2718  User memory */\n      tag_249\n      tag_250\n      jump\t// in\n    tag_249:\n        /* \"contracts/GiftCardETH.sol\":1253:1254  0 */\n      0x00\n        /* \"contracts/GiftCardETH.sol\":1220:1225  users */\n      dup1\n        /* \"contracts/GiftCardETH.sol\":1220:1237  users[msg.sender] */\n      0x00\n        /* \"contracts/GiftCardETH.sol\":1226:1236  msg.sender */\n      caller\n        /* \"contracts/GiftCardETH.sol\":1220:1237  users[msg.sender] */\n      0xffffffffffffffffffffffffffffffffffffffff\n      and\n      0xffffffffffffffffffffffffffffffffffffffff\n      and\n      dup2\n      mstore\n      0x20\n      add\n      swap1\n      dup2\n      mstore\n      0x20\n      add\n      0x00\n      keccak256\n        /* \"contracts/GiftCardETH.sol\":1220:1242  users[msg.sender].name */\n      0x00\n      add\n        /* \"contracts/GiftCardETH.sol\":1214:1250  bytes(users[msg.sender].name).length */\n      dup1\n      sload\n      tag_252\n      swap1\n      tag_53\n      jump\t// in\n    tag_252:\n      swap1\n      pop\n        /* \"contracts/GiftCardETH.sol\":1214:1254  bytes(users[msg.sender].name).length > 0 */\n      gt\n        /* \"contracts/GiftCardETH.sol\":1193:1299  require(... */\n      tag_253\n      jumpi\n      mload(0x40)\n      0x08c379a000000000000000000000000000000000000000000000000000000000\n      dup2\n      mstore\n      0x04\n      add\n      tag_254\n      swap1\n      tag_69\n      jump\t// in\n    tag_254:\n      mload(0x40)\n      dup1\n      swap2\n      sub\n      swap1\n      revert\n    tag_253:\n        /* \"contracts/GiftCardETH.sol\":2737:2742  users */\n      0x00\n        /* \"contracts/GiftCardETH.sol\":2737:2754  users[msg.sender] */\n      dup1\n        /* \"contracts/GiftCardETH.sol\":2743:2753  msg.sender */\n      caller\n        /* \"contracts/GiftCardETH.sol\":2737:2754  users[msg.sender] */\n      0xffffffffffffffffffffffffffffffffffffffff\n      and\n      0xffffffffffffffffffffffffffffffffffffffff\n      and\n      dup2\n      mstore\n      0x20\n      add\n      swap1\n      dup2\n      mstore\n      0x20\n      add\n      0x00\n      keccak256\n        /* \"contracts/GiftCardETH.sol\":2730:2754  return users[msg.sender] */\n      mload(0x40)\n      dup1\n      0x60\n      add\n      0x40\n      mstore\n      swap1\n      dup2\n      0x00\n      dup3\n      add\n      dup1\n      sload\n      tag_256\n      swap1\n      tag_53\n      jump\t// in\n    tag_256:\n      dup1\n      0x1f\n      add\n      0x20\n      dup1\n      swap2\n      div\n      mul\n      0x20\n      add\n      mload(0x40)\n      swap1\n      dup2\n      add\n      0x40\n      mstore\n      dup1\n      swap3\n      swap2\n      swap1\n      dup2\n      dup2\n      mstore\n      0x20\n      add\n      dup3\n      dup1\n      sload\n      tag_257\n      swap1\n      tag_53\n      jump\t// in\n    tag_257:\n      dup1\n      iszero\n      tag_258\n      jumpi\n      dup1\n      0x1f\n      lt\n      tag_259\n      jumpi\n      0x0100\n      dup1\n      dup4\n      sload\n      div\n      mul\n      dup4\n      mstore\n      swap2\n      0x20\n      add\n      swap2\n      jump(tag_258)\n    tag_259:\n      dup3\n      add\n      swap2\n      swap1\n      0x00\n      mstore\n      keccak256(0x00, 0x20)\n      swap1\n    tag_260:\n      dup2\n      sload\n      dup2\n      mstore\n      swap1\n      0x01\n      add\n      swap1\n      0x20\n      add\n      dup1\n      dup4\n      gt\n      tag_260\n      jumpi\n      dup3\n      swap1\n      sub\n      0x1f\n      and\n      dup3\n      add\n      swap2\n    tag_258:\n      pop\n      pop\n      pop\n      pop\n      pop\n      dup2\n      mstore\n      0x20\n      add\n      0x01\n      dup3\n      add\n      0x00\n      swap1\n      sload\n      swap1\n      0x0100\n      exp\n      swap1\n      div\n      0xff\n      and\n      0x01\n      dup2\n      gt\n      iszero\n      tag_261\n      jumpi\n      tag_262\n      tag_57\n      jump\t// in\n    tag_262:\n    tag_261:\n      0x01\n      dup2\n      gt\n      iszero\n      tag_263\n      jumpi\n      tag_264\n      tag_57\n      jump\t// in\n    tag_264:\n    tag_263:\n      dup2\n      mstore\n      0x20\n      add\n      0x01\n      dup3\n      add\n      0x01\n      swap1\n      sload\n      swap1\n      0x0100\n      exp\n      swap1\n      div\n      0xff\n      and\n      0x01\n      dup2\n      gt\n      iszero\n      tag_265\n      jumpi\n      tag_266\n      tag_57\n      jump\t// in\n    tag_266:\n    tag_265:\n      0x01\n      dup2\n      gt\n      iszero\n      tag_267\n      jumpi\n      tag_268\n      tag_57\n      jump\t// in\n    tag_268:\n    tag_267:\n      dup2\n      mstore\n      pop\n      pop\n      swap1\n      pop\n        /* \"contracts/GiftCardETH.sol\":2645:2761  function getMyData() public registeredUsersOnly view returns (User memory) {... */\n      swap1\n      jump\t// out\n        /* \"contracts/GiftCardETH.sol\":3552:3899  function generateGiftCardCode() private view returns (string memory) {... */\n    tag_189:\n        /* \"contracts/GiftCardETH.sol\":3606:3619  string memory */\n      0x60\n        /* \"contracts/GiftCardETH.sol\":3631:3656  bytes memory randomString */\n      0x00\n        /* \"contracts/GiftCardETH.sol\":3669:3671  15 */\n      0x0f\n        /* \"contracts/GiftCardETH.sol\":3659:3672  new bytes(15) */\n      0xffffffffffffffff\n      dup2\n      gt\n      iszero\n      tag_270\n      jumpi\n      tag_271\n      tag_121\n      jump\t// in\n    tag_271:\n    tag_270:\n      mload(0x40)\n      swap1\n      dup1\n      dup3\n      mstore\n      dup1\n      0x1f\n      add\n      not(0x1f)\n      and\n      0x20\n      add\n      dup3\n      add\n      0x40\n      mstore\n      dup1\n      iszero\n      tag_272\n      jumpi\n      dup2\n      0x20\n      add\n      0x01\n      dup3\n      mul\n      dup1\n      calldatasize\n      dup4\n      calldatacopy\n      dup1\n      dup3\n      add\n      swap2\n      pop\n      pop\n      swap1\n      pop\n    tag_272:\n      pop\n        /* \"contracts/GiftCardETH.sol\":3631:3672  bytes memory randomString = new bytes(15) */\n      swap1\n      pop\n        /* \"contracts/GiftCardETH.sol\":3687:3696  uint256 i */\n      0x00\n        /* \"contracts/GiftCardETH.sol\":3682:3856  for (uint256 i = 0; i < 15; i++) {... */\n    tag_273:\n        /* \"contracts/GiftCardETH.sol\":3706:3708  15 */\n      0x0f\n        /* \"contracts/GiftCardETH.sol\":3702:3703  i */\n      dup2\n        /* \"contracts/GiftCardETH.sol\":3702:3708  i < 15 */\n      lt\n        /* \"contracts/GiftCardETH.sol\":3682:3856  for (uint256 i = 0; i < 15; i++) {... */\n      iszero\n      tag_274\n      jumpi\n        /* \"contracts/GiftCardETH.sol\":3729:3751  uint256 randomCharCode */\n      0x00\n        /* \"contracts/GiftCardETH.sol\":3754:3772  getRandomNumber(i) */\n      tag_276\n        /* \"contracts/GiftCardETH.sol\":3770:3771  i */\n      dup3\n        /* \"contracts/GiftCardETH.sol\":3754:3769  getRandomNumber */\n      tag_277\n        /* \"contracts/GiftCardETH.sol\":3754:3772  getRandomNumber(i) */\n      jump\t// in\n    tag_276:\n        /* \"contracts/GiftCardETH.sol\":3729:3772  uint256 randomCharCode = getRandomNumber(i) */\n      swap1\n      pop\n        /* \"contracts/GiftCardETH.sol\":3840:3842  26 */\n      0x1a\n        /* \"contracts/GiftCardETH.sol\":3823:3837  randomCharCode */\n      dup2\n        /* \"contracts/GiftCardETH.sol\":3823:3842  randomCharCode % 26 */\n      tag_278\n      swap2\n      swap1\n      tag_279\n      jump\t// in\n    tag_278:\n        /* \"contracts/GiftCardETH.sol\":3817:3819  97 */\n      0x61\n        /* \"contracts/GiftCardETH.sol\":3817:3843  97 + (randomCharCode % 26) */\n      tag_280\n      swap2\n      swap1\n      tag_281\n      jump\t// in\n    tag_280:\n        /* \"contracts/GiftCardETH.sol\":3804:3845  bytes1(uint8(97 + (randomCharCode % 26))) */\n      0xf8\n      shl\n        /* \"contracts/GiftCardETH.sol\":3786:3798  randomString */\n      dup4\n        /* \"contracts/GiftCardETH.sol\":3799:3800  i */\n      dup4\n        /* \"contracts/GiftCardETH.sol\":3786:3801  randomString[i] */\n      dup2\n      mload\n      dup2\n      lt\n      tag_282\n      jumpi\n      tag_283\n      tag_106\n      jump\t// in\n    tag_283:\n    tag_282:\n      0x20\n      add\n      add\n        /* \"contracts/GiftCardETH.sol\":3786:3845  randomString[i] = bytes1(uint8(97 + (randomCharCode % 26))) */\n      swap1\n      not(0xffffffffffffffffffffffffffffffffffffffffffffffffffffffffffffff)\n      and\n      swap1\n      dup2\n      0x00\n      byte\n      swap1\n      mstore8\n      pop\n        /* \"contracts/GiftCardETH.sol\":3715:3856  {... */\n      pop\n        /* \"contracts/GiftCardETH.sol\":3710:3713  i++ */\n      dup1\n      dup1\n      0x01\n      add\n      swap2\n      pop\n      pop\n        /* \"contracts/GiftCardETH.sol\":3682:3856  for (uint256 i = 0; i < 15; i++) {... */\n      jump(tag_273)\n    tag_274:\n      pop\n        /* \"contracts/GiftCardETH.sol\":3879:3891  randomString */\n      dup1\n        /* \"contracts/GiftCardETH.sol\":3865:3892  return string(randomString) */\n      swap2\n      pop\n      pop\n        /* \"contracts/GiftCardETH.sol\":3552:3899  function generateGiftCardCode() private view returns (string memory) {... */\n      swap1\n      jump\t// out\n        /* \"contracts/GiftCardETH.sol\":3904:4226  function addCard(string memory code, uint256 amount)... */\n    tag_191:\n        /* \"contracts/GiftCardETH.sol\":4005:4009  code */\n      dup2\n        /* \"contracts/GiftCardETH.sol\":1941:1953  bool isExist */\n      0x00\n        /* \"contracts/GiftCardETH.sol\":1976:1985  uint256 i */\n      dup1\n        /* \"contracts/GiftCardETH.sol\":1971:2250  for (uint256 i = 0; i < giftCardCodes.length; i++) {... */\n    tag_285:\n        /* \"contracts/GiftCardETH.sol\":1995:2008  giftCardCodes */\n      0x03\n        /* \"contracts/GiftCardETH.sol\":1995:2015  giftCardCodes.length */\n      dup1\n      sload\n      swap1\n      pop\n        /* \"contracts/GiftCardETH.sol\":1991:1992  i */\n      dup2\n        /* \"contracts/GiftCardETH.sol\":1991:2015  i < giftCardCodes.length */\n      lt\n        /* \"contracts/GiftCardETH.sol\":1971:2250  for (uint256 i = 0; i < giftCardCodes.length; i++) {... */\n      iszero\n      tag_286\n      jumpi\n        /* \"contracts/GiftCardETH.sol\":2149:2153  code */\n      dup3\n        /* \"contracts/GiftCardETH.sol\":2132:2154  abi.encodePacked(code) */\n      add(0x20, mload(0x40))\n      tag_288\n      swap2\n      swap1\n      tag_59\n      jump\t// in\n    tag_288:\n      mload(0x40)\n      0x20\n      dup2\n      dup4\n      sub\n      sub\n      dup2\n      mstore\n      swap1\n      0x40\n      mstore\n        /* \"contracts/GiftCardETH.sol\":2122:2155  keccak256(abi.encodePacked(code)) */\n      dup1\n      mload\n      swap1\n      0x20\n      add\n      keccak256\n        /* \"contracts/GiftCardETH.sol\":2084:2097  giftCardCodes */\n      0x03\n        /* \"contracts/GiftCardETH.sol\":2098:2099  i */\n      dup3\n        /* \"contracts/GiftCardETH.sol\":2084:2100  giftCardCodes[i] */\n      dup2\n      sload\n      dup2\n      lt\n      tag_289\n      jumpi\n      tag_290\n      tag_106\n      jump\t// in\n    tag_290:\n    tag_289:\n      swap1\n      0x00\n      mstore\n      keccak256(0x00, 0x20)\n      add\n        /* \"contracts/GiftCardETH.sol\":2067:2101  abi.encodePacked(giftCardCodes[i]) */\n      add(0x20, mload(0x40))\n      tag_292\n      swap2\n      swap1\n      tag_100\n      jump\t// in\n    tag_292:\n      mload(0x40)\n      0x20\n      dup2\n      dup4\n      sub\n      sub\n      dup2\n      mstore\n      swap1\n      0x40\n      mstore\n        /* \"contracts/GiftCardETH.sol\":2057:2102  keccak256(abi.encodePacked(giftCardCodes[i])) */\n      dup1\n      mload\n      swap1\n      0x20\n      add\n      keccak256\n        /* \"contracts/GiftCardETH.sol\":2057:2155  keccak256(abi.encodePacked(giftCardCodes[i])) ==... */\n      sub\n        /* \"contracts/GiftCardETH.sol\":2036:2240  if (... */\n      tag_293\n      jumpi\n        /* \"contracts/GiftCardETH.sol\":2198:2202  true */\n      0x01\n        /* \"contracts/GiftCardETH.sol\":2188:2202  isExist = true */\n      swap2\n      pop\n        /* \"contracts/GiftCardETH.sol\":2220:2225  break */\n      jump(tag_286)\n        /* \"contracts/GiftCardETH.sol\":2036:2240  if (... */\n    tag_293:\n        /* \"contracts/GiftCardETH.sol\":2017:2020  i++ */\n      dup1\n      dup1\n      0x01\n      add\n      swap2\n      pop\n      pop\n        /* \"contracts/GiftCardETH.sol\":1971:2250  for (uint256 i = 0; i < giftCardCodes.length; i++) {... */\n      jump(tag_285)\n    tag_286:\n      pop\n        /* \"contracts/GiftCardETH.sol\":2268:2275  isExist */\n      dup1\n        /* \"contracts/GiftCardETH.sol\":2267:2275  !isExist */\n      iszero\n        /* \"contracts/GiftCardETH.sol\":2259:2298  require(!isExist, \"Code is Not Unique\") */\n      tag_294\n      jumpi\n      mload(0x40)\n      0x08c379a000000000000000000000000000000000000000000000000000000000\n      dup2\n      mstore\n      0x04\n      add\n      tag_295\n      swap1\n      tag_296\n      jump\t// in\n    tag_295:\n      mload(0x40)\n      dup1\n      swap2\n      sub\n      swap1\n      revert\n    tag_294:\n        /* \"contracts/GiftCardETH.sol\":4025:4038  giftCardCodes */\n      0x03\n        /* \"contracts/GiftCardETH.sol\":4044:4048  code */\n      dup5\n        /* \"contracts/GiftCardETH.sol\":4025:4049  giftCardCodes.push(code) */\n      swap1\n      dup1\n      0x01\n      dup2\n      sload\n      add\n      dup1\n      dup3\n      sstore\n      dup1\n      swap2\n      pop\n      pop\n      0x01\n      swap1\n      sub\n      swap1\n      0x00\n      mstore\n      keccak256(0x00, 0x20)\n      add\n      0x00\n      swap1\n      swap2\n      swap1\n      swap2\n      swap1\n      swap2\n      pop\n      swap1\n      dup2\n      tag_299\n      swap2\n      swap1\n      tag_174\n      jump\t// in\n    tag_299:\n      pop\n        /* \"contracts/GiftCardETH.sol\":4077:4219  GiftCard(... */\n      mload(0x40)\n      dup1\n      0xa0\n      add\n      0x40\n      mstore\n      dup1\n        /* \"contracts/GiftCardETH.sol\":4099:4103  code */\n      dup6\n        /* \"contracts/GiftCardETH.sol\":4077:4219  GiftCard(... */\n      dup2\n      mstore\n      0x20\n      add\n        /* \"contracts/GiftCardETH.sol\":4117:4122  users */\n      0x00\n        /* \"contracts/GiftCardETH.sol\":4117:4134  users[msg.sender] */\n      dup1\n        /* \"contracts/GiftCardETH.sol\":4123:4133  msg.sender */\n      caller\n        /* \"contracts/GiftCardETH.sol\":4117:4134  users[msg.sender] */\n      0xffffffffffffffffffffffffffffffffffffffff\n      and\n      0xffffffffffffffffffffffffffffffffffffffff\n      and\n      dup2\n      mstore\n      0x20\n      add\n      swap1\n      dup2\n      mstore\n      0x20\n      add\n      0x00\n      keccak256\n        /* \"contracts/GiftCardETH.sol\":4117:4139  users[msg.sender].name */\n      0x00\n      add\n        /* \"contracts/GiftCardETH.sol\":4077:4219  GiftCard(... */\n      dup1\n      sload\n      tag_300\n      swap1\n      tag_53\n      jump\t// in\n    tag_300:\n      dup1\n      0x1f\n      add\n      0x20\n      dup1\n      swap2\n      div\n      mul\n      0x20\n      add\n      mload(0x40)\n      swap1\n      dup2\n      add\n      0x40\n      mstore\n      dup1\n      swap3\n      swap2\n      swap1\n      dup2\n      dup2\n      mstore\n      0x20\n      add\n      dup3\n      dup1\n      sload\n      tag_301\n      swap1\n      tag_53\n      jump\t// in\n    tag_301:\n      dup1\n      iszero\n      tag_302\n      jumpi\n      dup1\n      0x1f\n      lt\n      tag_303\n      jumpi\n      0x0100\n      dup1\n      dup4\n      sload\n      div\n      mul\n      dup4\n      mstore\n      swap2\n      0x20\n      add\n      swap2\n      jump(tag_302)\n    tag_303:\n      dup3\n      add\n      swap2\n      swap1\n      0x00\n      mstore\n      keccak256(0x00, 0x20)\n      swap1\n    tag_304:\n      dup2\n      sload\n      dup2\n      mstore\n      swap1\n      0x01\n      add\n      swap1\n      0x20\n      add\n      dup1\n      dup4\n      gt\n      tag_304\n      jumpi\n      dup3\n      swap1\n      sub\n      0x1f\n      and\n      dup3\n      add\n      swap2\n    tag_302:\n      pop\n      pop\n      pop\n      pop\n      pop\n      dup2\n      mstore\n      0x20\n      add\n        /* \"contracts/GiftCardETH.sol\":4153:4159  amount */\n      dup5\n        /* \"contracts/GiftCardETH.sol\":4077:4219  GiftCard(... */\n      dup2\n      mstore\n      0x20\n      add\n        /* \"contracts/GiftCardETH.sol\":4173:4193  GiftCardStatus.VALID */\n      0x01\n        /* \"contracts/GiftCardETH.sol\":4077:4219  GiftCard(... */\n      dup1\n      dup2\n      gt\n      iszero\n      tag_305\n      jumpi\n      tag_306\n      tag_57\n      jump\t// in\n    tag_306:\n    tag_305:\n      dup2\n      mstore\n      0x20\n      add\n      mload(0x40)\n      dup1\n      0x20\n      add\n      0x40\n      mstore\n      dup1\n      0x00\n      dup2\n      mstore\n      pop\n      dup2\n      mstore\n      pop\n        /* \"contracts/GiftCardETH.sol\":4059:4068  giftCards */\n      0x01\n        /* \"contracts/GiftCardETH.sol\":4069:4073  code */\n      dup6\n        /* \"contracts/GiftCardETH.sol\":4059:4074  giftCards[code] */\n      mload(0x40)\n      tag_307\n      swap2\n      swap1\n      tag_59\n      jump\t// in\n    tag_307:\n      swap1\n      dup2\n      mstore\n      0x20\n      add\n      mload(0x40)\n      dup1\n      swap2\n      sub\n      swap1\n      keccak256\n        /* \"contracts/GiftCardETH.sol\":4059:4219  giftCards[code] = GiftCard(... */\n      0x00\n      dup3\n      add\n      mload\n      dup2\n      0x00\n      add\n      swap1\n      dup2\n      tag_308\n      swap2\n      swap1\n      tag_174\n      jump\t// in\n    tag_308:\n      pop\n      0x20\n      dup3\n      add\n      mload\n      dup2\n      0x01\n      add\n      swap1\n      dup2\n      tag_309\n      swap2\n      swap1\n      tag_174\n      jump\t// in\n    tag_309:\n      pop\n      0x40\n      dup3\n      add\n      mload\n      dup2\n      0x02\n      add\n      sstore\n      0x60\n      dup3\n      add\n      mload\n      dup2\n      0x03\n      add\n      exp(0x0100, 0x00)\n      dup2\n      sload\n      dup2\n      0xff\n      mul\n      not\n      and\n      swap1\n      dup4\n      0x01\n      dup2\n      gt\n      iszero\n      tag_310\n      jumpi\n      tag_311\n      tag_57\n      jump\t// in\n    tag_311:\n    tag_310:\n      mul\n      or\n      swap1\n      sstore\n      pop\n      0x80\n      dup3\n      add\n      mload\n      dup2\n      0x04\n      add\n      swap1\n      dup2\n      tag_312\n      swap2\n      swap1\n      tag_174\n      jump\t// in\n    tag_312:\n      pop\n      swap1\n      pop\n      pop\n        /* \"contracts/GiftCardETH.sol\":1931:2316  {... */\n      pop\n        /* \"contracts/GiftCardETH.sol\":3904:4226  function addCard(string memory code, uint256 amount)... */\n      pop\n      pop\n      pop\n      jump\t// out\n        /* \"contracts/GiftCardETH.sol\":3288:3547  function getRandomNumber(uint256 seed) private view returns (uint256) {... */\n    tag_277:\n        /* \"contracts/GiftCardETH.sol\":3349:3356  uint256 */\n      0x00\n        /* \"contracts/GiftCardETH.sol\":3535:3540  10000 */\n      0x2710\n        /* \"contracts/GiftCardETH.sol\":3460:3475  block.timestamp */\n      timestamp\n        /* \"contracts/GiftCardETH.sol\":3477:3493  block.prevrandao */\n      prevrandao\n        /* \"contracts/GiftCardETH.sol\":3495:3499  seed */\n      dup5\n        /* \"contracts/GiftCardETH.sol\":3443:3500  abi.encodePacked(block.timestamp, block.prevrandao, seed) */\n      add(0x20, mload(0x40))\n      tag_314\n      swap4\n      swap3\n      swap2\n      swap1\n      tag_315\n      jump\t// in\n    tag_314:\n      mload(0x40)\n      0x20\n      dup2\n      dup4\n      sub\n      sub\n      dup2\n      mstore\n      swap1\n      0x40\n      mstore\n        /* \"contracts/GiftCardETH.sol\":3412:3518  keccak256(... */\n      dup1\n      mload\n      swap1\n      0x20\n      add\n      keccak256\n        /* \"contracts/GiftCardETH.sol\":3387:3532  uint256(... */\n      0x00\n      shr\n        /* \"contracts/GiftCardETH.sol\":3387:3540  uint256(... */\n      tag_316\n      swap2\n      swap1\n      tag_279\n      jump\t// in\n    tag_316:\n        /* \"contracts/GiftCardETH.sol\":3368:3540  return... */\n      swap1\n      pop\n        /* \"contracts/GiftCardETH.sol\":3288:3547  function getRandomNumber(uint256 seed) private view returns (uint256) {... */\n      swap2\n      swap1\n      pop\n      jump\t// out\n    tag_125:\n      mload(0x40)\n      dup1\n      0xa0\n      add\n      0x40\n      mstore\n      dup1\n      0x60\n      dup2\n      mstore\n      0x20\n      add\n      0x60\n      dup2\n      mstore\n      0x20\n      add\n      0x00\n      dup2\n      mstore\n      0x20\n      add\n      0x00\n      0x01\n      dup2\n      gt\n      iszero\n      tag_317\n      jumpi\n      tag_318\n      tag_57\n      jump\t// in\n    tag_318:\n    tag_317:\n      dup2\n      mstore\n      0x20\n      add\n      0x60\n      dup2\n      mstore\n      pop\n      swap1\n      jump\t// out\n    tag_250:\n      mload(0x40)\n      dup1\n      0x60\n      add\n      0x40\n      mstore\n      dup1\n      0x60\n      dup2\n      mstore\n      0x20\n      add\n      0x00\n      0x01\n      dup2\n      gt\n      iszero\n      tag_319\n      jumpi\n      tag_320\n      tag_57\n      jump\t// in\n    tag_320:\n    tag_319:\n      dup2\n      mstore\n      0x20\n      add\n      0x00\n      0x01\n      dup2\n      gt\n      iszero\n      tag_321\n      jumpi\n      tag_322\n      tag_57\n      jump\t// in\n    tag_322:\n    tag_321:\n      dup2\n      mstore\n      pop\n      swap1\n      jump\t// out\n        /* \"#utility.yul\":7:97   */\n    tag_323:\n        /* \"#utility.yul\":41:48   */\n      0x00\n        /* \"#utility.yul\":84:89   */\n      dup2\n        /* \"#utility.yul\":77:90   */\n      iszero\n        /* \"#utility.yul\":70:91   */\n      iszero\n        /* \"#utility.yul\":59:91   */\n      swap1\n      pop\n        /* \"#utility.yul\":7:97   */\n      swap2\n      swap1\n      pop\n      jump\t// out\n        /* \"#utility.yul\":103:212   */\n    tag_324:\n        /* \"#utility.yul\":184:205   */\n      tag_411\n        /* \"#utility.yul\":199:204   */\n      dup2\n        /* \"#utility.yul\":184:205   */\n      tag_323\n      jump\t// in\n    tag_411:\n        /* \"#utility.yul\":179:182   */\n      dup3\n        /* \"#utility.yul\":172:206   */\n      mstore\n        /* \"#utility.yul\":103:212   */\n      pop\n      pop\n      jump\t// out\n        /* \"#utility.yul\":218:428   */\n    tag_20:\n        /* \"#utility.yul\":305:309   */\n      0x00\n        /* \"#utility.yul\":343:345   */\n      0x20\n        /* \"#utility.yul\":332:341   */\n      dup3\n        /* \"#utility.yul\":328:346   */\n      add\n        /* \"#utility.yul\":320:346   */\n      swap1\n      pop\n        /* \"#utility.yul\":356:421   */\n      tag_413\n        /* \"#utility.yul\":418:419   */\n      0x00\n        /* \"#utility.yul\":407:416   */\n      dup4\n        /* \"#utility.yul\":403:420   */\n      add\n        /* \"#utility.yul\":394:400   */\n      dup5\n        /* \"#utility.yul\":356:421   */\n      tag_324\n      jump\t// in\n    tag_413:\n        /* \"#utility.yul\":218:428   */\n      swap3\n      swap2\n      pop\n      pop\n      jump\t// out\n        /* \"#utility.yul\":515:632   */\n    tag_326:\n        /* \"#utility.yul\":624:625   */\n      0x00\n        /* \"#utility.yul\":621:622   */\n      dup1\n        /* \"#utility.yul\":614:626   */\n      revert\n        /* \"#utility.yul\":638:755   */\n    tag_327:\n        /* \"#utility.yul\":747:748   */\n      0x00\n        /* \"#utility.yul\":744:745   */\n      dup1\n        /* \"#utility.yul\":737:749   */\n      revert\n        /* \"#utility.yul\":761:878   */\n    tag_328:\n        /* \"#utility.yul\":870:871   */\n      0x00\n        /* \"#utility.yul\":867:868   */\n      dup1\n        /* \"#utility.yul\":860:872   */\n      revert\n        /* \"#utility.yul\":884:1001   */\n    tag_329:\n        /* \"#utility.yul\":993:994   */\n      0x00\n        /* \"#utility.yul\":990:991   */\n      dup1\n        /* \"#utility.yul\":983:995   */\n      revert\n        /* \"#utility.yul\":1007:1124   */\n    tag_330:\n        /* \"#utility.yul\":1116:1117   */\n      0x00\n        /* \"#utility.yul\":1113:1114   */\n      dup1\n        /* \"#utility.yul\":1106:1118   */\n      revert\n        /* \"#utility.yul\":1144:1697   */\n    tag_331:\n        /* \"#utility.yul\":1202:1210   */\n      0x00\n        /* \"#utility.yul\":1212:1218   */\n      dup1\n        /* \"#utility.yul\":1262:1265   */\n      dup4\n        /* \"#utility.yul\":1255:1259   */\n      0x1f\n        /* \"#utility.yul\":1247:1253   */\n      dup5\n        /* \"#utility.yul\":1243:1260   */\n      add\n        /* \"#utility.yul\":1239:1266   */\n      slt\n        /* \"#utility.yul\":1229:1351   */\n      tag_421\n      jumpi\n        /* \"#utility.yul\":1270:1349   */\n      tag_422\n      tag_328\n      jump\t// in\n    tag_422:\n        /* \"#utility.yul\":1229:1351   */\n    tag_421:\n        /* \"#utility.yul\":1383:1389   */\n      dup3\n        /* \"#utility.yul\":1370:1390   */\n      calldataload\n        /* \"#utility.yul\":1360:1390   */\n      swap1\n      pop\n        /* \"#utility.yul\":1413:1431   */\n      0xffffffffffffffff\n        /* \"#utility.yul\":1405:1411   */\n      dup2\n        /* \"#utility.yul\":1402:1432   */\n      gt\n        /* \"#utility.yul\":1399:1516   */\n      iszero\n      tag_423\n      jumpi\n        /* \"#utility.yul\":1435:1514   */\n      tag_424\n      tag_329\n      jump\t// in\n    tag_424:\n        /* \"#utility.yul\":1399:1516   */\n    tag_423:\n        /* \"#utility.yul\":1549:1553   */\n      0x20\n        /* \"#utility.yul\":1541:1547   */\n      dup4\n        /* \"#utility.yul\":1537:1554   */\n      add\n        /* \"#utility.yul\":1525:1554   */\n      swap2\n      pop\n        /* \"#utility.yul\":1603:1606   */\n      dup4\n        /* \"#utility.yul\":1595:1599   */\n      0x01\n        /* \"#utility.yul\":1587:1593   */\n      dup3\n        /* \"#utility.yul\":1583:1600   */\n      mul\n        /* \"#utility.yul\":1573:1581   */\n      dup4\n        /* \"#utility.yul\":1569:1601   */\n      add\n        /* \"#utility.yul\":1566:1607   */\n      gt\n        /* \"#utility.yul\":1563:1691   */\n      iszero\n      tag_425\n      jumpi\n        /* \"#utility.yul\":1610:1689   */\n      tag_426\n      tag_330\n      jump\t// in\n    tag_426:\n        /* \"#utility.yul\":1563:1691   */\n    tag_425:\n        /* \"#utility.yul\":1144:1697   */\n      swap3\n      pop\n      swap3\n      swap1\n      pop\n      jump\t// out\n        /* \"#utility.yul\":1703:2232   */\n    tag_24:\n        /* \"#utility.yul\":1774:1780   */\n      0x00\n        /* \"#utility.yul\":1782:1788   */\n      dup1\n        /* \"#utility.yul\":1831:1833   */\n      0x20\n        /* \"#utility.yul\":1819:1828   */\n      dup4\n        /* \"#utility.yul\":1810:1817   */\n      dup6\n        /* \"#utility.yul\":1806:1829   */\n      sub\n        /* \"#utility.yul\":1802:1834   */\n      slt\n        /* \"#utility.yul\":1799:1918   */\n      iszero\n      tag_428\n      jumpi\n        /* \"#utility.yul\":1837:1916   */\n      tag_429\n      tag_326\n      jump\t// in\n    tag_429:\n        /* \"#utility.yul\":1799:1918   */\n    tag_428:\n        /* \"#utility.yul\":1985:1986   */\n      0x00\n        /* \"#utility.yul\":1974:1983   */\n      dup4\n        /* \"#utility.yul\":1970:1987   */\n      add\n        /* \"#utility.yul\":1957:1988   */\n      calldataload\n        /* \"#utility.yul\":2015:2033   */\n      0xffffffffffffffff\n        /* \"#utility.yul\":2007:2013   */\n      dup2\n        /* \"#utility.yul\":2004:2034   */\n      gt\n        /* \"#utility.yul\":2001:2118   */\n      iszero\n      tag_430\n      jumpi\n        /* \"#utility.yul\":2037:2116   */\n      tag_431\n      tag_327\n      jump\t// in\n    tag_431:\n        /* \"#utility.yul\":2001:2118   */\n    tag_430:\n        /* \"#utility.yul\":2150:2215   */\n      tag_432\n        /* \"#utility.yul\":2207:2214   */\n      dup6\n        /* \"#utility.yul\":2198:2204   */\n      dup3\n        /* \"#utility.yul\":2187:2196   */\n      dup7\n        /* \"#utility.yul\":2183:2205   */\n      add\n        /* \"#utility.yul\":2150:2215   */\n      tag_331\n      jump\t// in\n    tag_432:\n        /* \"#utility.yul\":2132:2215   */\n      swap3\n      pop\n      swap3\n      pop\n        /* \"#utility.yul\":1928:2225   */\n      pop\n        /* \"#utility.yul\":1703:2232   */\n      swap3\n      pop\n      swap3\n      swap1\n      pop\n      jump\t// out\n        /* \"#utility.yul\":2238:2376   */\n    tag_332:\n        /* \"#utility.yul\":2329:2335   */\n      0x00\n        /* \"#utility.yul\":2363:2368   */\n      dup2\n        /* \"#utility.yul\":2357:2369   */\n      mload\n        /* \"#utility.yul\":2347:2369   */\n      swap1\n      pop\n        /* \"#utility.yul\":2238:2376   */\n      swap2\n      swap1\n      pop\n      jump\t// out\n        /* \"#utility.yul\":2382:2590   */\n    tag_333:\n        /* \"#utility.yul\":2505:2516   */\n      0x00\n        /* \"#utility.yul\":2539:2545   */\n      dup3\n        /* \"#utility.yul\":2534:2537   */\n      dup3\n        /* \"#utility.yul\":2527:2546   */\n      mstore\n        /* \"#utility.yul\":2579:2583   */\n      0x20\n        /* \"#utility.yul\":2574:2577   */\n      dup3\n        /* \"#utility.yul\":2570:2584   */\n      add\n        /* \"#utility.yul\":2555:2584   */\n      swap1\n      pop\n        /* \"#utility.yul\":2382:2590   */\n      swap3\n      swap2\n      pop\n      pop\n      jump\t// out\n        /* \"#utility.yul\":2596:2752   */\n    tag_334:\n        /* \"#utility.yul\":2687:2691   */\n      0x00\n        /* \"#utility.yul\":2710:2713   */\n      dup2\n        /* \"#utility.yul\":2702:2713   */\n      swap1\n      pop\n        /* \"#utility.yul\":2740:2744   */\n      0x20\n        /* \"#utility.yul\":2735:2738   */\n      dup3\n        /* \"#utility.yul\":2731:2745   */\n      add\n        /* \"#utility.yul\":2723:2745   */\n      swap1\n      pop\n        /* \"#utility.yul\":2596:2752   */\n      swap2\n      swap1\n      pop\n      jump\t// out\n        /* \"#utility.yul\":2758:2857   */\n    tag_335:\n        /* \"#utility.yul\":2810:2816   */\n      0x00\n        /* \"#utility.yul\":2844:2849   */\n      dup2\n        /* \"#utility.yul\":2838:2850   */\n      mload\n        /* \"#utility.yul\":2828:2850   */\n      swap1\n      pop\n        /* \"#utility.yul\":2758:2857   */\n      swap2\n      swap1\n      pop\n      jump\t// out\n        /* \"#utility.yul\":2863:3022   */\n    tag_336:\n        /* \"#utility.yul\":2937:2948   */\n      0x00\n        /* \"#utility.yul\":2971:2977   */\n      dup3\n        /* \"#utility.yul\":2966:2969   */\n      dup3\n        /* \"#utility.yul\":2959:2978   */\n      mstore\n        /* \"#utility.yul\":3011:3015   */\n      0x20\n        /* \"#utility.yul\":3006:3009   */\n      dup3\n        /* \"#utility.yul\":3002:3016   */\n      add\n        /* \"#utility.yul\":2987:3016   */\n      swap1\n      pop\n        /* \"#utility.yul\":2863:3022   */\n      swap3\n      swap2\n      pop\n      pop\n      jump\t// out\n        /* \"#utility.yul\":3028:3167   */\n    tag_337:\n        /* \"#utility.yul\":3117:3123   */\n      dup3\n        /* \"#utility.yul\":3112:3115   */\n      dup2\n        /* \"#utility.yul\":3107:3110   */\n      dup4\n        /* \"#utility.yul\":3101:3124   */\n      mcopy\n        /* \"#utility.yul\":3158:3159   */\n      0x00\n        /* \"#utility.yul\":3149:3155   */\n      dup4\n        /* \"#utility.yul\":3144:3147   */\n      dup4\n        /* \"#utility.yul\":3140:3156   */\n      add\n        /* \"#utility.yul\":3133:3160   */\n      mstore\n        /* \"#utility.yul\":3028:3167   */\n      pop\n      pop\n      pop\n      jump\t// out\n        /* \"#utility.yul\":3173:3275   */\n    tag_338:\n        /* \"#utility.yul\":3214:3220   */\n      0x00\n        /* \"#utility.yul\":3265:3267   */\n      0x1f\n        /* \"#utility.yul\":3261:3268   */\n      not\n        /* \"#utility.yul\":3256:3258   */\n      0x1f\n        /* \"#utility.yul\":3249:3254   */\n      dup4\n        /* \"#utility.yul\":3245:3259   */\n      add\n        /* \"#utility.yul\":3241:3269   */\n      and\n        /* \"#utility.yul\":3231:3269   */\n      swap1\n      pop\n        /* \"#utility.yul\":3173:3275   */\n      swap2\n      swap1\n      pop\n      jump\t// out\n        /* \"#utility.yul\":3281:3638   */\n    tag_339:\n        /* \"#utility.yul\":3359:3362   */\n      0x00\n        /* \"#utility.yul\":3387:3426   */\n      tag_441\n        /* \"#utility.yul\":3420:3425   */\n      dup3\n        /* \"#utility.yul\":3387:3426   */\n      tag_335\n      jump\t// in\n    tag_441:\n        /* \"#utility.yul\":3442:3503   */\n      tag_442\n        /* \"#utility.yul\":3496:3502   */\n      dup2\n        /* \"#utility.yul\":3491:3494   */\n      dup6\n        /* \"#utility.yul\":3442:3503   */\n      tag_336\n      jump\t// in\n    tag_442:\n        /* \"#utility.yul\":3435:3503   */\n      swap4\n      pop\n        /* \"#utility.yul\":3512:3577   */\n      tag_443\n        /* \"#utility.yul\":3570:3576   */\n      dup2\n        /* \"#utility.yul\":3565:3568   */\n      dup6\n        /* \"#utility.yul\":3558:3562   */\n      0x20\n        /* \"#utility.yul\":3551:3556   */\n      dup7\n        /* \"#utility.yul\":3547:3563   */\n      add\n        /* \"#utility.yul\":3512:3577   */\n      tag_337\n      jump\t// in\n    tag_443:\n        /* \"#utility.yul\":3602:3631   */\n      tag_444\n        /* \"#utility.yul\":3624:3630   */\n      dup2\n        /* \"#utility.yul\":3602:3631   */\n      tag_338\n      jump\t// in\n    tag_444:\n        /* \"#utility.yul\":3597:3600   */\n      dup5\n        /* \"#utility.yul\":3593:3632   */\n      add\n        /* \"#utility.yul\":3586:3632   */\n      swap2\n      pop\n        /* \"#utility.yul\":3363:3638   */\n      pop\n        /* \"#utility.yul\":3281:3638   */\n      swap3\n      swap2\n      pop\n      pop\n      jump\t// out\n        /* \"#utility.yul\":3644:3721   */\n    tag_340:\n        /* \"#utility.yul\":3681:3688   */\n      0x00\n        /* \"#utility.yul\":3710:3715   */\n      dup2\n        /* \"#utility.yul\":3699:3715   */\n      swap1\n      pop\n        /* \"#utility.yul\":3644:3721   */\n      swap2\n      swap1\n      pop\n      jump\t// out\n        /* \"#utility.yul\":3727:3835   */\n    tag_341:\n        /* \"#utility.yul\":3804:3828   */\n      tag_447\n        /* \"#utility.yul\":3822:3827   */\n      dup2\n        /* \"#utility.yul\":3804:3828   */\n      tag_340\n      jump\t// in\n    tag_447:\n        /* \"#utility.yul\":3799:3802   */\n      dup3\n        /* \"#utility.yul\":3792:3829   */\n      mstore\n        /* \"#utility.yul\":3727:3835   */\n      pop\n      pop\n      jump\t// out\n        /* \"#utility.yul\":3841:4021   */\n    tag_57:\n        /* \"#utility.yul\":3889:3966   */\n      0x4e487b7100000000000000000000000000000000000000000000000000000000\n        /* \"#utility.yul\":3886:3887   */\n      0x00\n        /* \"#utility.yul\":3879:3967   */\n      mstore\n        /* \"#utility.yul\":3986:3990   */\n      0x21\n        /* \"#utility.yul\":3983:3984   */\n      0x04\n        /* \"#utility.yul\":3976:3991   */\n      mstore\n        /* \"#utility.yul\":4010:4014   */\n      0x24\n        /* \"#utility.yul\":4007:4008   */\n      0x00\n        /* \"#utility.yul\":4000:4015   */\n      revert\n        /* \"#utility.yul\":4027:4148   */\n    tag_342:\n        /* \"#utility.yul\":4116:4117   */\n      0x02\n        /* \"#utility.yul\":4109:4114   */\n      dup2\n        /* \"#utility.yul\":4106:4118   */\n      lt\n        /* \"#utility.yul\":4096:4142   */\n      tag_450\n      jumpi\n        /* \"#utility.yul\":4122:4140   */\n      tag_451\n      tag_57\n      jump\t// in\n    tag_451:\n        /* \"#utility.yul\":4096:4142   */\n    tag_450:\n        /* \"#utility.yul\":4027:4148   */\n      pop\n      jump\t// out\n        /* \"#utility.yul\":4154:4297   */\n    tag_343:\n        /* \"#utility.yul\":4207:4214   */\n      0x00\n        /* \"#utility.yul\":4236:4241   */\n      dup2\n        /* \"#utility.yul\":4225:4241   */\n      swap1\n      pop\n        /* \"#utility.yul\":4242:4291   */\n      tag_453\n        /* \"#utility.yul\":4285:4290   */\n      dup3\n        /* \"#utility.yul\":4242:4291   */\n      tag_342\n      jump\t// in\n    tag_453:\n        /* \"#utility.yul\":4154:4297   */\n      swap2\n      swap1\n      pop\n      jump\t// out\n        /* \"#utility.yul\":4303:4446   */\n    tag_344:\n        /* \"#utility.yul\":4367:4376   */\n      0x00\n        /* \"#utility.yul\":4400:4440   */\n      tag_455\n        /* \"#utility.yul\":4434:4439   */\n      dup3\n        /* \"#utility.yul\":4400:4440   */\n      tag_343\n      jump\t// in\n    tag_455:\n        /* \"#utility.yul\":4387:4440   */\n      swap1\n      pop\n        /* \"#utility.yul\":4303:4446   */\n      swap2\n      swap1\n      pop\n      jump\t// out\n        /* \"#utility.yul\":4452:4601   */\n    tag_345:\n        /* \"#utility.yul\":4543:4594   */\n      tag_457\n        /* \"#utility.yul\":4588:4593   */\n      dup2\n        /* \"#utility.yul\":4543:4594   */\n      tag_344\n      jump\t// in\n    tag_457:\n        /* \"#utility.yul\":4538:4541   */\n      dup3\n        /* \"#utility.yul\":4531:4595   */\n      mstore\n        /* \"#utility.yul\":4452:4601   */\n      pop\n      pop\n      jump\t// out\n        /* \"#utility.yul\":4649:5936   */\n    tag_346:\n        /* \"#utility.yul\":4756:4759   */\n      0x00\n        /* \"#utility.yul\":4792:4796   */\n      0xa0\n        /* \"#utility.yul\":4787:4790   */\n      dup4\n        /* \"#utility.yul\":4783:4797   */\n      add\n        /* \"#utility.yul\":4879:4883   */\n      0x00\n        /* \"#utility.yul\":4872:4877   */\n      dup4\n        /* \"#utility.yul\":4868:4884   */\n      add\n        /* \"#utility.yul\":4862:4885   */\n      mload\n        /* \"#utility.yul\":4932:4935   */\n      dup5\n        /* \"#utility.yul\":4926:4930   */\n      dup3\n        /* \"#utility.yul\":4922:4936   */\n      sub\n        /* \"#utility.yul\":4915:4919   */\n      0x00\n        /* \"#utility.yul\":4910:4913   */\n      dup7\n        /* \"#utility.yul\":4906:4920   */\n      add\n        /* \"#utility.yul\":4899:4937   */\n      mstore\n        /* \"#utility.yul\":4958:5031   */\n      tag_459\n        /* \"#utility.yul\":5026:5030   */\n      dup3\n        /* \"#utility.yul\":5012:5024   */\n      dup3\n        /* \"#utility.yul\":4958:5031   */\n      tag_339\n      jump\t// in\n    tag_459:\n        /* \"#utility.yul\":4950:5031   */\n      swap2\n      pop\n        /* \"#utility.yul\":4807:5042   */\n      pop\n        /* \"#utility.yul\":5125:5129   */\n      0x20\n        /* \"#utility.yul\":5118:5123   */\n      dup4\n        /* \"#utility.yul\":5114:5130   */\n      add\n        /* \"#utility.yul\":5108:5131   */\n      mload\n        /* \"#utility.yul\":5178:5181   */\n      dup5\n        /* \"#utility.yul\":5172:5176   */\n      dup3\n        /* \"#utility.yul\":5168:5182   */\n      sub\n        /* \"#utility.yul\":5161:5165   */\n      0x20\n        /* \"#utility.yul\":5156:5159   */\n      dup7\n        /* \"#utility.yul\":5152:5166   */\n      add\n        /* \"#utility.yul\":5145:5183   */\n      mstore\n        /* \"#utility.yul\":5204:5277   */\n      tag_460\n        /* \"#utility.yul\":5272:5276   */\n      dup3\n        /* \"#utility.yul\":5258:5270   */\n      dup3\n        /* \"#utility.yul\":5204:5277   */\n      tag_339\n      jump\t// in\n    tag_460:\n        /* \"#utility.yul\":5196:5277   */\n      swap2\n      pop\n        /* \"#utility.yul\":5052:5288   */\n      pop\n        /* \"#utility.yul\":5372:5376   */\n      0x40\n        /* \"#utility.yul\":5365:5370   */\n      dup4\n        /* \"#utility.yul\":5361:5377   */\n      add\n        /* \"#utility.yul\":5355:5378   */\n      mload\n        /* \"#utility.yul\":5391:5454   */\n      tag_461\n        /* \"#utility.yul\":5448:5452   */\n      0x40\n        /* \"#utility.yul\":5443:5446   */\n      dup7\n        /* \"#utility.yul\":5439:5453   */\n      add\n        /* \"#utility.yul\":5425:5437   */\n      dup3\n        /* \"#utility.yul\":5391:5454   */\n      tag_341\n      jump\t// in\n    tag_461:\n        /* \"#utility.yul\":5298:5464   */\n      pop\n        /* \"#utility.yul\":5556:5560   */\n      0x60\n        /* \"#utility.yul\":5549:5554   */\n      dup4\n        /* \"#utility.yul\":5545:5561   */\n      add\n        /* \"#utility.yul\":5539:5562   */\n      mload\n        /* \"#utility.yul\":5575:5652   */\n      tag_462\n        /* \"#utility.yul\":5646:5650   */\n      0x60\n        /* \"#utility.yul\":5641:5644   */\n      dup7\n        /* \"#utility.yul\":5637:5651   */\n      add\n        /* \"#utility.yul\":5623:5635   */\n      dup3\n        /* \"#utility.yul\":5575:5652   */\n      tag_345\n      jump\t// in\n    tag_462:\n        /* \"#utility.yul\":5474:5662   */\n      pop\n        /* \"#utility.yul\":5746:5750   */\n      0x80\n        /* \"#utility.yul\":5739:5744   */\n      dup4\n        /* \"#utility.yul\":5735:5751   */\n      add\n        /* \"#utility.yul\":5729:5752   */\n      mload\n        /* \"#utility.yul\":5799:5802   */\n      dup5\n        /* \"#utility.yul\":5793:5797   */\n      dup3\n        /* \"#utility.yul\":5789:5803   */\n      sub\n        /* \"#utility.yul\":5782:5786   */\n      0x80\n        /* \"#utility.yul\":5777:5780   */\n      dup7\n        /* \"#utility.yul\":5773:5787   */\n      add\n        /* \"#utility.yul\":5766:5804   */\n      mstore\n        /* \"#utility.yul\":5825:5898   */\n      tag_463\n        /* \"#utility.yul\":5893:5897   */\n      dup3\n        /* \"#utility.yul\":5879:5891   */\n      dup3\n        /* \"#utility.yul\":5825:5898   */\n      tag_339\n      jump\t// in\n    tag_463:\n        /* \"#utility.yul\":5817:5898   */\n      swap2\n      pop\n        /* \"#utility.yul\":5672:5909   */\n      pop\n        /* \"#utility.yul\":5926:5930   */\n      dup1\n        /* \"#utility.yul\":5919:5930   */\n      swap2\n      pop\n        /* \"#utility.yul\":4761:5936   */\n      pop\n        /* \"#utility.yul\":4649:5936   */\n      swap3\n      swap2\n      pop\n      pop\n      jump\t// out\n        /* \"#utility.yul\":5942:6194   */\n    tag_347:\n        /* \"#utility.yul\":6059:6069   */\n      0x00\n        /* \"#utility.yul\":6094:6188   */\n      tag_465\n        /* \"#utility.yul\":6184:6187   */\n      dup4\n        /* \"#utility.yul\":6176:6182   */\n      dup4\n        /* \"#utility.yul\":6094:6188   */\n      tag_346\n      jump\t// in\n    tag_465:\n        /* \"#utility.yul\":6080:6188   */\n      swap1\n      pop\n        /* \"#utility.yul\":5942:6194   */\n      swap3\n      swap2\n      pop\n      pop\n      jump\t// out\n        /* \"#utility.yul\":6200:6337   */\n    tag_348:\n        /* \"#utility.yul\":6294:6298   */\n      0x00\n        /* \"#utility.yul\":6326:6330   */\n      0x20\n        /* \"#utility.yul\":6321:6324   */\n      dup3\n        /* \"#utility.yul\":6317:6331   */\n      add\n        /* \"#utility.yul\":6309:6331   */\n      swap1\n      pop\n        /* \"#utility.yul\":6200:6337   */\n      swap2\n      swap1\n      pop\n      jump\t// out\n        /* \"#utility.yul\":6389:7492   */\n    tag_349:\n        /* \"#utility.yul\":6556:6559   */\n      0x00\n        /* \"#utility.yul\":6585:6663   */\n      tag_468\n        /* \"#utility.yul\":6657:6662   */\n      dup3\n        /* \"#utility.yul\":6585:6663   */\n      tag_332\n      jump\t// in\n    tag_468:\n        /* \"#utility.yul\":6679:6789   */\n      tag_469\n        /* \"#utility.yul\":6782:6788   */\n      dup2\n        /* \"#utility.yul\":6777:6780   */\n      dup6\n        /* \"#utility.yul\":6679:6789   */\n      tag_333\n      jump\t// in\n    tag_469:\n        /* \"#utility.yul\":6672:6789   */\n      swap4\n      pop\n        /* \"#utility.yul\":6815:6818   */\n      dup4\n        /* \"#utility.yul\":6860:6864   */\n      0x20\n        /* \"#utility.yul\":6852:6858   */\n      dup3\n        /* \"#utility.yul\":6848:6865   */\n      mul\n        /* \"#utility.yul\":6843:6846   */\n      dup6\n        /* \"#utility.yul\":6839:6866   */\n      add\n        /* \"#utility.yul\":6890:6970   */\n      tag_470\n        /* \"#utility.yul\":6964:6969   */\n      dup6\n        /* \"#utility.yul\":6890:6970   */\n      tag_334\n      jump\t// in\n    tag_470:\n        /* \"#utility.yul\":6993:7000   */\n      dup1\n        /* \"#utility.yul\":7024:7025   */\n      0x00\n        /* \"#utility.yul\":7009:7447   */\n    tag_471:\n        /* \"#utility.yul\":7034:7040   */\n      dup6\n        /* \"#utility.yul\":7031:7032   */\n      dup2\n        /* \"#utility.yul\":7028:7041   */\n      lt\n        /* \"#utility.yul\":7009:7447   */\n      iszero\n      tag_473\n      jumpi\n        /* \"#utility.yul\":7105:7114   */\n      dup5\n        /* \"#utility.yul\":7099:7103   */\n      dup5\n        /* \"#utility.yul\":7095:7115   */\n      sub\n        /* \"#utility.yul\":7090:7093   */\n      dup10\n        /* \"#utility.yul\":7083:7116   */\n      mstore\n        /* \"#utility.yul\":7156:7162   */\n      dup2\n        /* \"#utility.yul\":7150:7163   */\n      mload\n        /* \"#utility.yul\":7184:7296   */\n      tag_474\n        /* \"#utility.yul\":7291:7295   */\n      dup6\n        /* \"#utility.yul\":7276:7289   */\n      dup3\n        /* \"#utility.yul\":7184:7296   */\n      tag_347\n      jump\t// in\n    tag_474:\n        /* \"#utility.yul\":7176:7296   */\n      swap5\n      pop\n        /* \"#utility.yul\":7319:7403   */\n      tag_475\n        /* \"#utility.yul\":7396:7402   */\n      dup4\n        /* \"#utility.yul\":7319:7403   */\n      tag_348\n      jump\t// in\n    tag_475:\n        /* \"#utility.yul\":7309:7403   */\n      swap3\n      pop\n        /* \"#utility.yul\":7432:7436   */\n      0x20\n        /* \"#utility.yul\":7427:7430   */\n      dup11\n        /* \"#utility.yul\":7423:7437   */\n      add\n        /* \"#utility.yul\":7416:7437   */\n      swap10\n      pop\n        /* \"#utility.yul\":7069:7447   */\n      pop\n        /* \"#utility.yul\":7056:7057   */\n      0x01\n        /* \"#utility.yul\":7053:7054   */\n      dup2\n        /* \"#utility.yul\":7049:7058   */\n      add\n        /* \"#utility.yul\":7044:7058   */\n      swap1\n      pop\n        /* \"#utility.yul\":7009:7447   */\n      jump(tag_471)\n    tag_473:\n        /* \"#utility.yul\":7013:7027   */\n      pop\n        /* \"#utility.yul\":7463:7467   */\n      dup3\n        /* \"#utility.yul\":7456:7467   */\n      swap8\n      pop\n        /* \"#utility.yul\":7483:7486   */\n      dup8\n        /* \"#utility.yul\":7476:7486   */\n      swap6\n      pop\n        /* \"#utility.yul\":6561:7492   */\n      pop\n      pop\n      pop\n      pop\n      pop\n        /* \"#utility.yul\":6389:7492   */\n      swap3\n      swap2\n      pop\n      pop\n      jump\t// out\n        /* \"#utility.yul\":7498:7967   */\n    tag_30:\n        /* \"#utility.yul\":7689:7693   */\n      0x00\n        /* \"#utility.yul\":7727:7729   */\n      0x20\n        /* \"#utility.yul\":7716:7725   */\n      dup3\n        /* \"#utility.yul\":7712:7730   */\n      add\n        /* \"#utility.yul\":7704:7730   */\n      swap1\n      pop\n        /* \"#utility.yul\":7776:7785   */\n      dup2\n        /* \"#utility.yul\":7770:7774   */\n      dup2\n        /* \"#utility.yul\":7766:7786   */\n      sub\n        /* \"#utility.yul\":7762:7763   */\n      0x00\n        /* \"#utility.yul\":7751:7760   */\n      dup4\n        /* \"#utility.yul\":7747:7764   */\n      add\n        /* \"#utility.yul\":7740:7787   */\n      mstore\n        /* \"#utility.yul\":7804:7960   */\n      tag_477\n        /* \"#utility.yul\":7955:7959   */\n      dup2\n        /* \"#utility.yul\":7946:7952   */\n      dup5\n        /* \"#utility.yul\":7804:7960   */\n      tag_349\n      jump\t// in\n    tag_477:\n        /* \"#utility.yul\":7796:7960   */\n      swap1\n      pop\n        /* \"#utility.yul\":7498:7967   */\n      swap3\n      swap2\n      pop\n      pop\n      jump\t// out\n        /* \"#utility.yul\":7973:8081   */\n    tag_350:\n        /* \"#utility.yul\":8055:8056   */\n      0x02\n        /* \"#utility.yul\":8048:8053   */\n      dup2\n        /* \"#utility.yul\":8045:8057   */\n      lt\n        /* \"#utility.yul\":8035:8075   */\n      tag_479\n      jumpi\n        /* \"#utility.yul\":8071:8072   */\n      0x00\n        /* \"#utility.yul\":8068:8069   */\n      dup1\n        /* \"#utility.yul\":8061:8073   */\n      revert\n        /* \"#utility.yul\":8035:8075   */\n    tag_479:\n        /* \"#utility.yul\":7973:8081   */\n      pop\n      jump\t// out\n        /* \"#utility.yul\":8087:8244   */\n    tag_351:\n        /* \"#utility.yul\":8142:8147   */\n      0x00\n        /* \"#utility.yul\":8180:8186   */\n      dup2\n        /* \"#utility.yul\":8167:8187   */\n      calldataload\n        /* \"#utility.yul\":8158:8187   */\n      swap1\n      pop\n        /* \"#utility.yul\":8196:8238   */\n      tag_481\n        /* \"#utility.yul\":8232:8237   */\n      dup2\n        /* \"#utility.yul\":8196:8238   */\n      tag_350\n      jump\t// in\n    tag_481:\n        /* \"#utility.yul\":8087:8244   */\n      swap3\n      swap2\n      pop\n      pop\n      jump\t// out\n        /* \"#utility.yul\":8250:8942   */\n    tag_34:\n        /* \"#utility.yul\":8339:8345   */\n      0x00\n        /* \"#utility.yul\":8347:8353   */\n      dup1\n        /* \"#utility.yul\":8355:8361   */\n      0x00\n        /* \"#utility.yul\":8404:8406   */\n      0x40\n        /* \"#utility.yul\":8392:8401   */\n      dup5\n        /* \"#utility.yul\":8383:8390   */\n      dup7\n        /* \"#utility.yul\":8379:8402   */\n      sub\n        /* \"#utility.yul\":8375:8407   */\n      slt\n        /* \"#utility.yul\":8372:8491   */\n      iszero\n      tag_483\n      jumpi\n        /* \"#utility.yul\":8410:8489   */\n      tag_484\n      tag_326\n      jump\t// in\n    tag_484:\n        /* \"#utility.yul\":8372:8491   */\n    tag_483:\n        /* \"#utility.yul\":8558:8559   */\n      0x00\n        /* \"#utility.yul\":8547:8556   */\n      dup5\n        /* \"#utility.yul\":8543:8560   */\n      add\n        /* \"#utility.yul\":8530:8561   */\n      calldataload\n        /* \"#utility.yul\":8588:8606   */\n      0xffffffffffffffff\n        /* \"#utility.yul\":8580:8586   */\n      dup2\n        /* \"#utility.yul\":8577:8607   */\n      gt\n        /* \"#utility.yul\":8574:8691   */\n      iszero\n      tag_485\n      jumpi\n        /* \"#utility.yul\":8610:8689   */\n      tag_486\n      tag_327\n      jump\t// in\n    tag_486:\n        /* \"#utility.yul\":8574:8691   */\n    tag_485:\n        /* \"#utility.yul\":8723:8788   */\n      tag_487\n        /* \"#utility.yul\":8780:8787   */\n      dup7\n        /* \"#utility.yul\":8771:8777   */\n      dup3\n        /* \"#utility.yul\":8760:8769   */\n      dup8\n        /* \"#utility.yul\":8756:8778   */\n      add\n        /* \"#utility.yul\":8723:8788   */\n      tag_331\n      jump\t// in\n    tag_487:\n        /* \"#utility.yul\":8705:8788   */\n      swap4\n      pop\n      swap4\n      pop\n        /* \"#utility.yul\":8501:8798   */\n      pop\n        /* \"#utility.yul\":8837:8839   */\n      0x20\n        /* \"#utility.yul\":8863:8925   */\n      tag_488\n        /* \"#utility.yul\":8917:8924   */\n      dup7\n        /* \"#utility.yul\":8908:8914   */\n      dup3\n        /* \"#utility.yul\":8897:8906   */\n      dup8\n        /* \"#utility.yul\":8893:8915   */\n      add\n        /* \"#utility.yul\":8863:8925   */\n      tag_351\n      jump\t// in\n    tag_488:\n        /* \"#utility.yul\":8853:8925   */\n      swap2\n      pop\n        /* \"#utility.yul\":8808:8935   */\n      pop\n        /* \"#utility.yul\":8250:8942   */\n      swap3\n      pop\n      swap3\n      pop\n      swap3\n      jump\t// out\n        /* \"#utility.yul\":8948:9062   */\n    tag_352:\n        /* \"#utility.yul\":9030:9031   */\n      0x02\n        /* \"#utility.yul\":9023:9028   */\n      dup2\n        /* \"#utility.yul\":9020:9032   */\n      lt\n        /* \"#utility.yul\":9010:9056   */\n      tag_490\n      jumpi\n        /* \"#utility.yul\":9036:9054   */\n      tag_491\n      tag_57\n      jump\t// in\n    tag_491:\n        /* \"#utility.yul\":9010:9056   */\n    tag_490:\n        /* \"#utility.yul\":8948:9062   */\n      pop\n      jump\t// out\n        /* \"#utility.yul\":9068:9197   */\n    tag_353:\n        /* \"#utility.yul\":9114:9121   */\n      0x00\n        /* \"#utility.yul\":9143:9148   */\n      dup2\n        /* \"#utility.yul\":9132:9148   */\n      swap1\n      pop\n        /* \"#utility.yul\":9149:9191   */\n      tag_493\n        /* \"#utility.yul\":9185:9190   */\n      dup3\n        /* \"#utility.yul\":9149:9191   */\n      tag_352\n      jump\t// in\n    tag_493:\n        /* \"#utility.yul\":9068:9197   */\n      swap2\n      swap1\n      pop\n      jump\t// out\n        /* \"#utility.yul\":9203:9332   */\n    tag_354:\n        /* \"#utility.yul\":9260:9269   */\n      0x00\n        /* \"#utility.yul\":9293:9326   */\n      tag_495\n        /* \"#utility.yul\":9320:9325   */\n      dup3\n        /* \"#utility.yul\":9293:9326   */\n      tag_353\n      jump\t// in\n    tag_495:\n        /* \"#utility.yul\":9280:9326   */\n      swap1\n      pop\n        /* \"#utility.yul\":9203:9332   */\n      swap2\n      swap1\n      pop\n      jump\t// out\n        /* \"#utility.yul\":9338:9473   */\n    tag_355:\n        /* \"#utility.yul\":9422:9466   */\n      tag_497\n        /* \"#utility.yul\":9460:9465   */\n      dup2\n        /* \"#utility.yul\":9422:9466   */\n      tag_354\n      jump\t// in\n    tag_497:\n        /* \"#utility.yul\":9417:9420   */\n      dup3\n        /* \"#utility.yul\":9410:9467   */\n      mstore\n        /* \"#utility.yul\":9338:9473   */\n      pop\n      pop\n      jump\t// out\n        /* \"#utility.yul\":9479:9594   */\n    tag_356:\n        /* \"#utility.yul\":9562:9563   */\n      0x02\n        /* \"#utility.yul\":9555:9560   */\n      dup2\n        /* \"#utility.yul\":9552:9564   */\n      lt\n        /* \"#utility.yul\":9542:9588   */\n      tag_499\n      jumpi\n        /* \"#utility.yul\":9568:9586   */\n      tag_500\n      tag_57\n      jump\t// in\n    tag_500:\n        /* \"#utility.yul\":9542:9588   */\n    tag_499:\n        /* \"#utility.yul\":9479:9594   */\n      pop\n      jump\t// out\n        /* \"#utility.yul\":9600:9731   */\n    tag_357:\n        /* \"#utility.yul\":9647:9654   */\n      0x00\n        /* \"#utility.yul\":9676:9681   */\n      dup2\n        /* \"#utility.yul\":9665:9681   */\n      swap1\n      pop\n        /* \"#utility.yul\":9682:9725   */\n      tag_502\n        /* \"#utility.yul\":9719:9724   */\n      dup3\n        /* \"#utility.yul\":9682:9725   */\n      tag_356\n      jump\t// in\n    tag_502:\n        /* \"#utility.yul\":9600:9731   */\n      swap2\n      swap1\n      pop\n      jump\t// out\n        /* \"#utility.yul\":9737:9868   */\n    tag_358:\n        /* \"#utility.yul\":9795:9804   */\n      0x00\n        /* \"#utility.yul\":9828:9862   */\n      tag_504\n        /* \"#utility.yul\":9856:9861   */\n      dup3\n        /* \"#utility.yul\":9828:9862   */\n      tag_357\n      jump\t// in\n    tag_504:\n        /* \"#utility.yul\":9815:9862   */\n      swap1\n      pop\n        /* \"#utility.yul\":9737:9868   */\n      swap2\n      swap1\n      pop\n      jump\t// out\n        /* \"#utility.yul\":9874:10011   */\n    tag_359:\n        /* \"#utility.yul\":9959:10004   */\n      tag_506\n        /* \"#utility.yul\":9998:10003   */\n      dup2\n        /* \"#utility.yul\":9959:10004   */\n      tag_358\n      jump\t// in\n    tag_506:\n        /* \"#utility.yul\":9954:9957   */\n      dup3\n        /* \"#utility.yul\":9947:10005   */\n      mstore\n        /* \"#utility.yul\":9874:10011   */\n      pop\n      pop\n      jump\t// out\n        /* \"#utility.yul\":10051:10842   */\n    tag_360:\n        /* \"#utility.yul\":10160:10163   */\n      0x00\n        /* \"#utility.yul\":10196:10200   */\n      0x60\n        /* \"#utility.yul\":10191:10194   */\n      dup4\n        /* \"#utility.yul\":10187:10201   */\n      add\n        /* \"#utility.yul\":10283:10287   */\n      0x00\n        /* \"#utility.yul\":10276:10281   */\n      dup4\n        /* \"#utility.yul\":10272:10288   */\n      add\n        /* \"#utility.yul\":10266:10289   */\n      mload\n        /* \"#utility.yul\":10336:10339   */\n      dup5\n        /* \"#utility.yul\":10330:10334   */\n      dup3\n        /* \"#utility.yul\":10326:10340   */\n      sub\n        /* \"#utility.yul\":10319:10323   */\n      0x00\n        /* \"#utility.yul\":10314:10317   */\n      dup7\n        /* \"#utility.yul\":10310:10324   */\n      add\n        /* \"#utility.yul\":10303:10341   */\n      mstore\n        /* \"#utility.yul\":10362:10435   */\n      tag_508\n        /* \"#utility.yul\":10430:10434   */\n      dup3\n        /* \"#utility.yul\":10416:10428   */\n      dup3\n        /* \"#utility.yul\":10362:10435   */\n      tag_339\n      jump\t// in\n    tag_508:\n        /* \"#utility.yul\":10354:10435   */\n      swap2\n      pop\n        /* \"#utility.yul\":10211:10446   */\n      pop\n        /* \"#utility.yul\":10530:10534   */\n      0x20\n        /* \"#utility.yul\":10523:10528   */\n      dup4\n        /* \"#utility.yul\":10519:10535   */\n      add\n        /* \"#utility.yul\":10513:10536   */\n      mload\n        /* \"#utility.yul\":10549:10619   */\n      tag_509\n        /* \"#utility.yul\":10613:10617   */\n      0x20\n        /* \"#utility.yul\":10608:10611   */\n      dup7\n        /* \"#utility.yul\":10604:10618   */\n      add\n        /* \"#utility.yul\":10590:10602   */\n      dup3\n        /* \"#utility.yul\":10549:10619   */\n      tag_355\n      jump\t// in\n    tag_509:\n        /* \"#utility.yul\":10456:10629   */\n      pop\n        /* \"#utility.yul\":10715:10719   */\n      0x40\n        /* \"#utility.yul\":10708:10713   */\n      dup4\n        /* \"#utility.yul\":10704:10720   */\n      add\n        /* \"#utility.yul\":10698:10721   */\n      mload\n        /* \"#utility.yul\":10734:10805   */\n      tag_510\n        /* \"#utility.yul\":10799:10803   */\n      0x40\n        /* \"#utility.yul\":10794:10797   */\n      dup7\n        /* \"#utility.yul\":10790:10804   */\n      add\n        /* \"#utility.yul\":10776:10788   */\n      dup3\n        /* \"#utility.yul\":10734:10805   */\n      tag_359\n      jump\t// in\n    tag_510:\n        /* \"#utility.yul\":10639:10815   */\n      pop\n        /* \"#utility.yul\":10832:10836   */\n      dup1\n        /* \"#utility.yul\":10825:10836   */\n      swap2\n      pop\n        /* \"#utility.yul\":10165:10842   */\n      pop\n        /* \"#utility.yul\":10051:10842   */\n      swap3\n      swap2\n      pop\n      pop\n      jump\t// out\n        /* \"#utility.yul\":10848:11201   */\n    tag_50:\n        /* \"#utility.yul\":10981:10985   */\n      0x00\n        /* \"#utility.yul\":11019:11021   */\n      0x20\n        /* \"#utility.yul\":11008:11017   */\n      dup3\n        /* \"#utility.yul\":11004:11022   */\n      add\n        /* \"#utility.yul\":10996:11022   */\n      swap1\n      pop\n        /* \"#utility.yul\":11068:11077   */\n      dup2\n        /* \"#utility.yul\":11062:11066   */\n      dup2\n        /* \"#utility.yul\":11058:11078   */\n      sub\n        /* \"#utility.yul\":11054:11055   */\n      0x00\n        /* \"#utility.yul\":11043:11052   */\n      dup4\n        /* \"#utility.yul\":11039:11056   */\n      add\n        /* \"#utility.yul\":11032:11079   */\n      mstore\n        /* \"#utility.yul\":11096:11194   */\n      tag_512\n        /* \"#utility.yul\":11189:11193   */\n      dup2\n        /* \"#utility.yul\":11180:11186   */\n      dup5\n        /* \"#utility.yul\":11096:11194   */\n      tag_360\n      jump\t// in\n    tag_512:\n        /* \"#utility.yul\":11088:11194   */\n      swap1\n      pop\n        /* \"#utility.yul\":10848:11201   */\n      swap3\n      swap2\n      pop\n      pop\n      jump\t// out\n        /* \"#utility.yul\":11207:11387   */\n    tag_361:\n        /* \"#utility.yul\":11255:11332   */\n      0x4e487b7100000000000000000000000000000000000000000000000000000000\n        /* \"#utility.yul\":11252:11253   */\n      0x00\n        /* \"#utility.yul\":11245:11333   */\n      mstore\n        /* \"#utility.yul\":11352:11356   */\n      0x22\n        /* \"#utility.yul\":11349:11350   */\n      0x04\n        /* \"#utility.yul\":11342:11357   */\n      mstore\n        /* \"#utility.yul\":11376:11380   */\n      0x24\n        /* \"#utility.yul\":11373:11374   */\n      0x00\n        /* \"#utility.yul\":11366:11381   */\n      revert\n        /* \"#utility.yul\":11393:11713   */\n    tag_53:\n        /* \"#utility.yul\":11437:11443   */\n      0x00\n        /* \"#utility.yul\":11474:11475   */\n      0x02\n        /* \"#utility.yul\":11468:11472   */\n      dup3\n        /* \"#utility.yul\":11464:11476   */\n      div\n        /* \"#utility.yul\":11454:11476   */\n      swap1\n      pop\n        /* \"#utility.yul\":11521:11522   */\n      0x01\n        /* \"#utility.yul\":11515:11519   */\n      dup3\n        /* \"#utility.yul\":11511:11523   */\n      and\n        /* \"#utility.yul\":11542:11560   */\n      dup1\n        /* \"#utility.yul\":11532:11613   */\n      tag_515\n      jumpi\n        /* \"#utility.yul\":11598:11602   */\n      0x7f\n        /* \"#utility.yul\":11590:11596   */\n      dup3\n        /* \"#utility.yul\":11586:11603   */\n      and\n        /* \"#utility.yul\":11576:11603   */\n      swap2\n      pop\n        /* \"#utility.yul\":11532:11613   */\n    tag_515:\n        /* \"#utility.yul\":11660:11662   */\n      0x20\n        /* \"#utility.yul\":11652:11658   */\n      dup3\n        /* \"#utility.yul\":11649:11663   */\n      lt\n        /* \"#utility.yul\":11629:11647   */\n      dup2\n        /* \"#utility.yul\":11626:11664   */\n      sub\n        /* \"#utility.yul\":11623:11707   */\n      tag_516\n      jumpi\n        /* \"#utility.yul\":11679:11697   */\n      tag_517\n      tag_361\n      jump\t// in\n    tag_517:\n        /* \"#utility.yul\":11623:11707   */\n    tag_516:\n        /* \"#utility.yul\":11444:11713   */\n      pop\n        /* \"#utility.yul\":11393:11713   */\n      swap2\n      swap1\n      pop\n      jump\t// out\n        /* \"#utility.yul\":11719:11867   */\n    tag_362:\n        /* \"#utility.yul\":11821:11832   */\n      0x00\n        /* \"#utility.yul\":11858:11861   */\n      dup2\n        /* \"#utility.yul\":11843:11861   */\n      swap1\n      pop\n        /* \"#utility.yul\":11719:11867   */\n      swap3\n      swap2\n      pop\n      pop\n      jump\t// out\n        /* \"#utility.yul\":11873:12263   */\n    tag_363:\n        /* \"#utility.yul\":11979:11982   */\n      0x00\n        /* \"#utility.yul\":12007:12046   */\n      tag_520\n        /* \"#utility.yul\":12040:12045   */\n      dup3\n        /* \"#utility.yul\":12007:12046   */\n      tag_335\n      jump\t// in\n    tag_520:\n        /* \"#utility.yul\":12062:12151   */\n      tag_521\n        /* \"#utility.yul\":12144:12150   */\n      dup2\n        /* \"#utility.yul\":12139:12142   */\n      dup6\n        /* \"#utility.yul\":12062:12151   */\n      tag_362\n      jump\t// in\n    tag_521:\n        /* \"#utility.yul\":12055:12151   */\n      swap4\n      pop\n        /* \"#utility.yul\":12160:12225   */\n      tag_522\n        /* \"#utility.yul\":12218:12224   */\n      dup2\n        /* \"#utility.yul\":12213:12216   */\n      dup6\n        /* \"#utility.yul\":12206:12210   */\n      0x20\n        /* \"#utility.yul\":12199:12204   */\n      dup7\n        /* \"#utility.yul\":12195:12211   */\n      add\n        /* \"#utility.yul\":12160:12225   */\n      tag_337\n      jump\t// in\n    tag_522:\n        /* \"#utility.yul\":12250:12256   */\n      dup1\n        /* \"#utility.yul\":12245:12248   */\n      dup5\n        /* \"#utility.yul\":12241:12257   */\n      add\n        /* \"#utility.yul\":12234:12257   */\n      swap2\n      pop\n        /* \"#utility.yul\":11983:12263   */\n      pop\n        /* \"#utility.yul\":11873:12263   */\n      swap3\n      swap2\n      pop\n      pop\n      jump\t// out\n        /* \"#utility.yul\":12269:12544   */\n    tag_59:\n        /* \"#utility.yul\":12401:12404   */\n      0x00\n        /* \"#utility.yul\":12423:12518   */\n      tag_524\n        /* \"#utility.yul\":12514:12517   */\n      dup3\n        /* \"#utility.yul\":12505:12511   */\n      dup5\n        /* \"#utility.yul\":12423:12518   */\n      tag_363\n      jump\t// in\n    tag_524:\n        /* \"#utility.yul\":12416:12518   */\n      swap2\n      pop\n        /* \"#utility.yul\":12535:12538   */\n      dup2\n        /* \"#utility.yul\":12528:12538   */\n      swap1\n      pop\n        /* \"#utility.yul\":12269:12544   */\n      swap3\n      swap2\n      pop\n      pop\n      jump\t// out\n        /* \"#utility.yul\":12550:12719   */\n    tag_364:\n        /* \"#utility.yul\":12634:12645   */\n      0x00\n        /* \"#utility.yul\":12668:12674   */\n      dup3\n        /* \"#utility.yul\":12663:12666   */\n      dup3\n        /* \"#utility.yul\":12656:12675   */\n      mstore\n        /* \"#utility.yul\":12708:12712   */\n      0x20\n        /* \"#utility.yul\":12703:12706   */\n      dup3\n        /* \"#utility.yul\":12699:12713   */\n      add\n        /* \"#utility.yul\":12684:12713   */\n      swap1\n      pop\n        /* \"#utility.yul\":12550:12719   */\n      swap3\n      swap2\n      pop\n      pop\n      jump\t// out\n        /* \"#utility.yul\":12725:12890   */\n    tag_365:\n        /* \"#utility.yul\":12865:12882   */\n      0x4361726420697320496e76616c69640000000000000000000000000000000000\n        /* \"#utility.yul\":12861:12862   */\n      0x00\n        /* \"#utility.yul\":12853:12859   */\n      dup3\n        /* \"#utility.yul\":12849:12863   */\n      add\n        /* \"#utility.yul\":12842:12883   */\n      mstore\n        /* \"#utility.yul\":12725:12890   */\n      pop\n      jump\t// out\n        /* \"#utility.yul\":12896:13262   */\n    tag_366:\n        /* \"#utility.yul\":13038:13041   */\n      0x00\n        /* \"#utility.yul\":13059:13126   */\n      tag_528\n        /* \"#utility.yul\":13123:13125   */\n      0x0f\n        /* \"#utility.yul\":13118:13121   */\n      dup4\n        /* \"#utility.yul\":13059:13126   */\n      tag_364\n      jump\t// in\n    tag_528:\n        /* \"#utility.yul\":13052:13126   */\n      swap2\n      pop\n        /* \"#utility.yul\":13135:13228   */\n      tag_529\n        /* \"#utility.yul\":13224:13227   */\n      dup3\n        /* \"#utility.yul\":13135:13228   */\n      tag_365\n      jump\t// in\n    tag_529:\n        /* \"#utility.yul\":13253:13255   */\n      0x20\n        /* \"#utility.yul\":13248:13251   */\n      dup3\n        /* \"#utility.yul\":13244:13256   */\n      add\n        /* \"#utility.yul\":13237:13256   */\n      swap1\n      pop\n        /* \"#utility.yul\":12896:13262   */\n      swap2\n      swap1\n      pop\n      jump\t// out\n        /* \"#utility.yul\":13268:13687   */\n    tag_64:\n        /* \"#utility.yul\":13434:13438   */\n      0x00\n        /* \"#utility.yul\":13472:13474   */\n      0x20\n        /* \"#utility.yul\":13461:13470   */\n      dup3\n        /* \"#utility.yul\":13457:13475   */\n      add\n        /* \"#utility.yul\":13449:13475   */\n      swap1\n      pop\n        /* \"#utility.yul\":13521:13530   */\n      dup2\n        /* \"#utility.yul\":13515:13519   */\n      dup2\n        /* \"#utility.yul\":13511:13531   */\n      sub\n        /* \"#utility.yul\":13507:13508   */\n      0x00\n        /* \"#utility.yul\":13496:13505   */\n      dup4\n        /* \"#utility.yul\":13492:13509   */\n      add\n        /* \"#utility.yul\":13485:13532   */\n      mstore\n        /* \"#utility.yul\":13549:13680   */\n      tag_531\n        /* \"#utility.yul\":13675:13679   */\n      dup2\n        /* \"#utility.yul\":13549:13680   */\n      tag_366\n      jump\t// in\n    tag_531:\n        /* \"#utility.yul\":13541:13680   */\n      swap1\n      pop\n        /* \"#utility.yul\":13268:13687   */\n      swap2\n      swap1\n      pop\n      jump\t// out\n        /* \"#utility.yul\":13693:13862   */\n    tag_367:\n        /* \"#utility.yul\":13833:13854   */\n      0x5573657220646f6573206e6f7420657869737400000000000000000000000000\n        /* \"#utility.yul\":13829:13830   */\n      0x00\n        /* \"#utility.yul\":13821:13827   */\n      dup3\n        /* \"#utility.yul\":13817:13831   */\n      add\n        /* \"#utility.yul\":13810:13855   */\n      mstore\n        /* \"#utility.yul\":13693:13862   */\n      pop\n      jump\t// out\n        /* \"#utility.yul\":13868:14234   */\n    tag_368:\n        /* \"#utility.yul\":14010:14013   */\n      0x00\n        /* \"#utility.yul\":14031:14098   */\n      tag_534\n        /* \"#utility.yul\":14095:14097   */\n      0x13\n        /* \"#utility.yul\":14090:14093   */\n      dup4\n        /* \"#utility.yul\":14031:14098   */\n      tag_364\n      jump\t// in\n    tag_534:\n        /* \"#utility.yul\":14024:14098   */\n      swap2\n      pop\n        /* \"#utility.yul\":14107:14200   */\n      tag_535\n        /* \"#utility.yul\":14196:14199   */\n      dup3\n        /* \"#utility.yul\":14107:14200   */\n      tag_367\n      jump\t// in\n    tag_535:\n        /* \"#utility.yul\":14225:14227   */\n      0x20\n        /* \"#utility.yul\":14220:14223   */\n      dup3\n        /* \"#utility.yul\":14216:14228   */\n      add\n        /* \"#utility.yul\":14209:14228   */\n      swap1\n      pop\n        /* \"#utility.yul\":13868:14234   */\n      swap2\n      swap1\n      pop\n      jump\t// out\n        /* \"#utility.yul\":14240:14659   */\n    tag_69:\n        /* \"#utility.yul\":14406:14410   */\n      0x00\n        /* \"#utility.yul\":14444:14446   */\n      0x20\n        /* \"#utility.yul\":14433:14442   */\n      dup3\n        /* \"#utility.yul\":14429:14447   */\n      add\n        /* \"#utility.yul\":14421:14447   */\n      swap1\n      pop\n        /* \"#utility.yul\":14493:14502   */\n      dup2\n        /* \"#utility.yul\":14487:14491   */\n      dup2\n        /* \"#utility.yul\":14483:14503   */\n      sub\n        /* \"#utility.yul\":14479:14480   */\n      0x00\n        /* \"#utility.yul\":14468:14477   */\n      dup4\n        /* \"#utility.yul\":14464:14481   */\n      add\n        /* \"#utility.yul\":14457:14504   */\n      mstore\n        /* \"#utility.yul\":14521:14652   */\n      tag_537\n        /* \"#utility.yul\":14647:14651   */\n      dup2\n        /* \"#utility.yul\":14521:14652   */\n      tag_368\n      jump\t// in\n    tag_537:\n        /* \"#utility.yul\":14513:14652   */\n      swap1\n      pop\n        /* \"#utility.yul\":14240:14659   */\n      swap2\n      swap1\n      pop\n      jump\t// out\n        /* \"#utility.yul\":14665:14846   */\n    tag_369:\n        /* \"#utility.yul\":14805:14838   */\n      0x5265656e7472616e637947756172643a207265656e7472616e742063616c6c00\n        /* \"#utility.yul\":14801:14802   */\n      0x00\n        /* \"#utility.yul\":14793:14799   */\n      dup3\n        /* \"#utility.yul\":14789:14803   */\n      add\n        /* \"#utility.yul\":14782:14839   */\n      mstore\n        /* \"#utility.yul\":14665:14846   */\n      pop\n      jump\t// out\n        /* \"#utility.yul\":14852:15218   */\n    tag_370:\n        /* \"#utility.yul\":14994:14997   */\n      0x00\n        /* \"#utility.yul\":15015:15082   */\n      tag_540\n        /* \"#utility.yul\":15079:15081   */\n      0x1f\n        /* \"#utility.yul\":15074:15077   */\n      dup4\n        /* \"#utility.yul\":15015:15082   */\n      tag_364\n      jump\t// in\n    tag_540:\n        /* \"#utility.yul\":15008:15082   */\n      swap2\n      pop\n        /* \"#utility.yul\":15091:15184   */\n      tag_541\n        /* \"#utility.yul\":15180:15183   */\n      dup3\n        /* \"#utility.yul\":15091:15184   */\n      tag_369\n      jump\t// in\n    tag_541:\n        /* \"#utility.yul\":15209:15211   */\n      0x20\n        /* \"#utility.yul\":15204:15207   */\n      dup3\n        /* \"#utility.yul\":15200:15212   */\n      add\n        /* \"#utility.yul\":15193:15212   */\n      swap1\n      pop\n        /* \"#utility.yul\":14852:15218   */\n      swap2\n      swap1\n      pop\n      jump\t// out\n        /* \"#utility.yul\":15224:15643   */\n    tag_73:\n        /* \"#utility.yul\":15390:15394   */\n      0x00\n        /* \"#utility.yul\":15428:15430   */\n      0x20\n        /* \"#utility.yul\":15417:15426   */\n      dup3\n        /* \"#utility.yul\":15413:15431   */\n      add\n        /* \"#utility.yul\":15405:15431   */\n      swap1\n      pop\n        /* \"#utility.yul\":15477:15486   */\n      dup2\n        /* \"#utility.yul\":15471:15475   */\n      dup2\n        /* \"#utility.yul\":15467:15487   */\n      sub\n        /* \"#utility.yul\":15463:15464   */\n      0x00\n        /* \"#utility.yul\":15452:15461   */\n      dup4\n        /* \"#utility.yul\":15448:15465   */\n      add\n        /* \"#utility.yul\":15441:15488   */\n      mstore\n        /* \"#utility.yul\":15505:15636   */\n      tag_543\n        /* \"#utility.yul\":15631:15635   */\n      dup2\n        /* \"#utility.yul\":15505:15636   */\n      tag_370\n      jump\t// in\n    tag_543:\n        /* \"#utility.yul\":15497:15636   */\n      swap1\n      pop\n        /* \"#utility.yul\":15224:15643   */\n      swap2\n      swap1\n      pop\n      jump\t// out\n        /* \"#utility.yul\":15649:15797   */\n    tag_371:\n        /* \"#utility.yul\":15747:15753   */\n      dup3\n        /* \"#utility.yul\":15742:15745   */\n      dup2\n        /* \"#utility.yul\":15737:15740   */\n      dup4\n        /* \"#utility.yul\":15724:15754   */\n      calldatacopy\n        /* \"#utility.yul\":15788:15789   */\n      0x00\n        /* \"#utility.yul\":15779:15785   */\n      dup4\n        /* \"#utility.yul\":15774:15777   */\n      dup4\n        /* \"#utility.yul\":15770:15786   */\n      add\n        /* \"#utility.yul\":15763:15790   */\n      mstore\n        /* \"#utility.yul\":15649:15797   */\n      pop\n      pop\n      pop\n      jump\t// out\n        /* \"#utility.yul\":15827:16157   */\n    tag_372:\n        /* \"#utility.yul\":15943:15946   */\n      0x00\n        /* \"#utility.yul\":15964:16053   */\n      tag_546\n        /* \"#utility.yul\":16046:16052   */\n      dup4\n        /* \"#utility.yul\":16041:16044   */\n      dup6\n        /* \"#utility.yul\":15964:16053   */\n      tag_362\n      jump\t// in\n    tag_546:\n        /* \"#utility.yul\":15957:16053   */\n      swap4\n      pop\n        /* \"#utility.yul\":16063:16119   */\n      tag_547\n        /* \"#utility.yul\":16112:16118   */\n      dup4\n        /* \"#utility.yul\":16107:16110   */\n      dup6\n        /* \"#utility.yul\":16100:16105   */\n      dup5\n        /* \"#utility.yul\":16063:16119   */\n      tag_371\n      jump\t// in\n    tag_547:\n        /* \"#utility.yul\":16144:16150   */\n      dup3\n        /* \"#utility.yul\":16139:16142   */\n      dup5\n        /* \"#utility.yul\":16135:16151   */\n      add\n        /* \"#utility.yul\":16128:16151   */\n      swap1\n      pop\n        /* \"#utility.yul\":15827:16157   */\n      swap4\n      swap3\n      pop\n      pop\n      pop\n      jump\t// out\n        /* \"#utility.yul\":16163:16458   */\n    tag_76:\n        /* \"#utility.yul\":16305:16308   */\n      0x00\n        /* \"#utility.yul\":16327:16432   */\n      tag_549\n        /* \"#utility.yul\":16428:16431   */\n      dup3\n        /* \"#utility.yul\":16419:16425   */\n      dup5\n        /* \"#utility.yul\":16411:16417   */\n      dup7\n        /* \"#utility.yul\":16327:16432   */\n      tag_372\n      jump\t// in\n    tag_549:\n        /* \"#utility.yul\":16320:16432   */\n      swap2\n      pop\n        /* \"#utility.yul\":16449:16452   */\n      dup2\n        /* \"#utility.yul\":16442:16452   */\n      swap1\n      pop\n        /* \"#utility.yul\":16163:16458   */\n      swap4\n      swap3\n      pop\n      pop\n      pop\n      jump\t// out\n        /* \"#utility.yul\":16464:16638   */\n    tag_373:\n        /* \"#utility.yul\":16604:16630   */\n      0x47696674206361726420686173206e6f2062616c616e63650000000000000000\n        /* \"#utility.yul\":16600:16601   */\n      0x00\n        /* \"#utility.yul\":16592:16598   */\n      dup3\n        /* \"#utility.yul\":16588:16602   */\n      add\n        /* \"#utility.yul\":16581:16631   */\n      mstore\n        /* \"#utility.yul\":16464:16638   */\n      pop\n      jump\t// out\n        /* \"#utility.yul\":16644:17010   */\n    tag_374:\n        /* \"#utility.yul\":16786:16789   */\n      0x00\n        /* \"#utility.yul\":16807:16874   */\n      tag_552\n        /* \"#utility.yul\":16871:16873   */\n      0x18\n        /* \"#utility.yul\":16866:16869   */\n      dup4\n        /* \"#utility.yul\":16807:16874   */\n      tag_364\n      jump\t// in\n    tag_552:\n        /* \"#utility.yul\":16800:16874   */\n      swap2\n      pop\n        /* \"#utility.yul\":16883:16976   */\n      tag_553\n        /* \"#utility.yul\":16972:16975   */\n      dup3\n        /* \"#utility.yul\":16883:16976   */\n      tag_373\n      jump\t// in\n    tag_553:\n        /* \"#utility.yul\":17001:17003   */\n      0x20\n        /* \"#utility.yul\":16996:16999   */\n      dup3\n        /* \"#utility.yul\":16992:17004   */\n      add\n        /* \"#utility.yul\":16985:17004   */\n      swap1\n      pop\n        /* \"#utility.yul\":16644:17010   */\n      swap2\n      swap1\n      pop\n      jump\t// out\n        /* \"#utility.yul\":17016:17435   */\n    tag_79:\n        /* \"#utility.yul\":17182:17186   */\n      0x00\n        /* \"#utility.yul\":17220:17222   */\n      0x20\n        /* \"#utility.yul\":17209:17218   */\n      dup3\n        /* \"#utility.yul\":17205:17223   */\n      add\n        /* \"#utility.yul\":17197:17223   */\n      swap1\n      pop\n        /* \"#utility.yul\":17269:17278   */\n      dup2\n        /* \"#utility.yul\":17263:17267   */\n      dup2\n        /* \"#utility.yul\":17259:17279   */\n      sub\n        /* \"#utility.yul\":17255:17256   */\n      0x00\n        /* \"#utility.yul\":17244:17253   */\n      dup4\n        /* \"#utility.yul\":17240:17257   */\n      add\n        /* \"#utility.yul\":17233:17280   */\n      mstore\n        /* \"#utility.yul\":17297:17428   */\n      tag_555\n        /* \"#utility.yul\":17423:17427   */\n      dup2\n        /* \"#utility.yul\":17297:17428   */\n      tag_374\n      jump\t// in\n    tag_555:\n        /* \"#utility.yul\":17289:17428   */\n      swap1\n      pop\n        /* \"#utility.yul\":17016:17435   */\n      swap2\n      swap1\n      pop\n      jump\t// out\n        /* \"#utility.yul\":17441:17594   */\n    tag_375:\n        /* \"#utility.yul\":17494:17500   */\n      0x00\n        /* \"#utility.yul\":17528:17533   */\n      dup2\n        /* \"#utility.yul\":17522:17534   */\n      sload\n        /* \"#utility.yul\":17512:17534   */\n      swap1\n      pop\n        /* \"#utility.yul\":17554:17587   */\n      tag_557\n        /* \"#utility.yul\":17580:17586   */\n      dup2\n        /* \"#utility.yul\":17554:17587   */\n      tag_53\n      jump\t// in\n    tag_557:\n        /* \"#utility.yul\":17544:17587   */\n      swap1\n      pop\n        /* \"#utility.yul\":17441:17594   */\n      swap2\n      swap1\n      pop\n      jump\t// out\n        /* \"#utility.yul\":17600:17780   */\n    tag_121:\n        /* \"#utility.yul\":17648:17725   */\n      0x4e487b7100000000000000000000000000000000000000000000000000000000\n        /* \"#utility.yul\":17645:17646   */\n      0x00\n        /* \"#utility.yul\":17638:17726   */\n      mstore\n        /* \"#utility.yul\":17745:17749   */\n      0x41\n        /* \"#utility.yul\":17742:17743   */\n      0x04\n        /* \"#utility.yul\":17735:17750   */\n      mstore\n        /* \"#utility.yul\":17769:17773   */\n      0x24\n        /* \"#utility.yul\":17766:17767   */\n      0x00\n        /* \"#utility.yul\":17759:17774   */\n      revert\n        /* \"#utility.yul\":17786:17927   */\n    tag_376:\n        /* \"#utility.yul\":17835:17839   */\n      0x00\n        /* \"#utility.yul\":17858:17861   */\n      dup2\n        /* \"#utility.yul\":17850:17861   */\n      swap1\n      pop\n        /* \"#utility.yul\":17881:17884   */\n      dup2\n        /* \"#utility.yul\":17878:17879   */\n      0x00\n        /* \"#utility.yul\":17871:17885   */\n      mstore\n        /* \"#utility.yul\":17915:17919   */\n      0x20\n        /* \"#utility.yul\":17912:17913   */\n      0x00\n        /* \"#utility.yul\":17902:17920   */\n      keccak256\n        /* \"#utility.yul\":17894:17920   */\n      swap1\n      pop\n        /* \"#utility.yul\":17786:17927   */\n      swap2\n      swap1\n      pop\n      jump\t// out\n        /* \"#utility.yul\":17933:18078   */\n    tag_377:\n        /* \"#utility.yul\":17986:17990   */\n      0x00\n        /* \"#utility.yul\":18009:18012   */\n      dup2\n        /* \"#utility.yul\":18001:18012   */\n      swap1\n      pop\n        /* \"#utility.yul\":18032:18035   */\n      dup2\n        /* \"#utility.yul\":18029:18030   */\n      0x00\n        /* \"#utility.yul\":18022:18036   */\n      mstore\n        /* \"#utility.yul\":18066:18070   */\n      0x20\n        /* \"#utility.yul\":18063:18064   */\n      0x00\n        /* \"#utility.yul\":18053:18071   */\n      keccak256\n        /* \"#utility.yul\":18045:18071   */\n      swap1\n      pop\n        /* \"#utility.yul\":17933:18078   */\n      swap2\n      swap1\n      pop\n      jump\t// out\n        /* \"#utility.yul\":18084:18177   */\n    tag_378:\n        /* \"#utility.yul\":18121:18127   */\n      0x00\n        /* \"#utility.yul\":18168:18170   */\n      0x20\n        /* \"#utility.yul\":18163:18165   */\n      0x1f\n        /* \"#utility.yul\":18156:18161   */\n      dup4\n        /* \"#utility.yul\":18152:18166   */\n      add\n        /* \"#utility.yul\":18148:18171   */\n      div\n        /* \"#utility.yul\":18138:18171   */\n      swap1\n      pop\n        /* \"#utility.yul\":18084:18177   */\n      swap2\n      swap1\n      pop\n      jump\t// out\n        /* \"#utility.yul\":18183:18290   */\n    tag_379:\n        /* \"#utility.yul\":18227:18235   */\n      0x00\n        /* \"#utility.yul\":18277:18282   */\n      dup3\n        /* \"#utility.yul\":18271:18275   */\n      dup3\n        /* \"#utility.yul\":18267:18283   */\n      shl\n        /* \"#utility.yul\":18246:18283   */\n      swap1\n      pop\n        /* \"#utility.yul\":18183:18290   */\n      swap3\n      swap2\n      pop\n      pop\n      jump\t// out\n        /* \"#utility.yul\":18296:18689   */\n    tag_380:\n        /* \"#utility.yul\":18365:18371   */\n      0x00\n        /* \"#utility.yul\":18415:18416   */\n      0x08\n        /* \"#utility.yul\":18403:18413   */\n      dup4\n        /* \"#utility.yul\":18399:18417   */\n      mul\n        /* \"#utility.yul\":18438:18535   */\n      tag_564\n        /* \"#utility.yul\":18468:18534   */\n      0xffffffffffffffffffffffffffffffffffffffffffffffffffffffffffffffff\n        /* \"#utility.yul\":18457:18466   */\n      dup3\n        /* \"#utility.yul\":18438:18535   */\n      tag_379\n      jump\t// in\n    tag_564:\n        /* \"#utility.yul\":18556:18595   */\n      tag_565\n        /* \"#utility.yul\":18586:18594   */\n      dup7\n        /* \"#utility.yul\":18575:18584   */\n      dup4\n        /* \"#utility.yul\":18556:18595   */\n      tag_379\n      jump\t// in\n    tag_565:\n        /* \"#utility.yul\":18544:18595   */\n      swap6\n      pop\n        /* \"#utility.yul\":18628:18632   */\n      dup1\n        /* \"#utility.yul\":18624:18633   */\n      not\n        /* \"#utility.yul\":18617:18622   */\n      dup5\n        /* \"#utility.yul\":18613:18634   */\n      and\n        /* \"#utility.yul\":18604:18634   */\n      swap4\n      pop\n        /* \"#utility.yul\":18677:18681   */\n      dup1\n        /* \"#utility.yul\":18667:18675   */\n      dup7\n        /* \"#utility.yul\":18663:18682   */\n      and\n        /* \"#utility.yul\":18656:18661   */\n      dup5\n        /* \"#utility.yul\":18653:18683   */\n      or\n        /* \"#utility.yul\":18643:18683   */\n      swap3\n      pop\n        /* \"#utility.yul\":18372:18689   */\n      pop\n      pop\n        /* \"#utility.yul\":18296:18689   */\n      swap4\n      swap3\n      pop\n      pop\n      pop\n      jump\t// out\n        /* \"#utility.yul\":18695:18755   */\n    tag_381:\n        /* \"#utility.yul\":18723:18726   */\n      0x00\n        /* \"#utility.yul\":18744:18749   */\n      dup2\n        /* \"#utility.yul\":18737:18749   */\n      swap1\n      pop\n        /* \"#utility.yul\":18695:18755   */\n      swap2\n      swap1\n      pop\n      jump\t// out\n        /* \"#utility.yul\":18761:18903   */\n    tag_382:\n        /* \"#utility.yul\":18811:18820   */\n      0x00\n        /* \"#utility.yul\":18844:18897   */\n      tag_568\n        /* \"#utility.yul\":18862:18896   */\n      tag_569\n        /* \"#utility.yul\":18871:18895   */\n      tag_570\n        /* \"#utility.yul\":18889:18894   */\n      dup5\n        /* \"#utility.yul\":18871:18895   */\n      tag_340\n      jump\t// in\n    tag_570:\n        /* \"#utility.yul\":18862:18896   */\n      tag_381\n      jump\t// in\n    tag_569:\n        /* \"#utility.yul\":18844:18897   */\n      tag_340\n      jump\t// in\n    tag_568:\n        /* \"#utility.yul\":18831:18897   */\n      swap1\n      pop\n        /* \"#utility.yul\":18761:18903   */\n      swap2\n      swap1\n      pop\n      jump\t// out\n        /* \"#utility.yul\":18909:18984   */\n    tag_383:\n        /* \"#utility.yul\":18952:18955   */\n      0x00\n        /* \"#utility.yul\":18973:18978   */\n      dup2\n        /* \"#utility.yul\":18966:18978   */\n      swap1\n      pop\n        /* \"#utility.yul\":18909:18984   */\n      swap2\n      swap1\n      pop\n      jump\t// out\n        /* \"#utility.yul\":18990:19259   */\n    tag_384:\n        /* \"#utility.yul\":19100:19139   */\n      tag_573\n        /* \"#utility.yul\":19131:19138   */\n      dup4\n        /* \"#utility.yul\":19100:19139   */\n      tag_382\n      jump\t// in\n    tag_573:\n        /* \"#utility.yul\":19161:19252   */\n      tag_574\n        /* \"#utility.yul\":19210:19251   */\n      tag_575\n        /* \"#utility.yul\":19234:19250   */\n      dup3\n        /* \"#utility.yul\":19210:19251   */\n      tag_383\n      jump\t// in\n    tag_575:\n        /* \"#utility.yul\":19202:19208   */\n      dup5\n        /* \"#utility.yul\":19195:19199   */\n      dup5\n        /* \"#utility.yul\":19189:19200   */\n      sload\n        /* \"#utility.yul\":19161:19252   */\n      tag_380\n      jump\t// in\n    tag_574:\n        /* \"#utility.yul\":19155:19159   */\n      dup3\n        /* \"#utility.yul\":19148:19253   */\n      sstore\n        /* \"#utility.yul\":19066:19259   */\n      pop\n        /* \"#utility.yul\":18990:19259   */\n      pop\n      pop\n      pop\n      jump\t// out\n        /* \"#utility.yul\":19265:19338   */\n    tag_385:\n        /* \"#utility.yul\":19310:19313   */\n      0x00\n        /* \"#utility.yul\":19265:19338   */\n      swap1\n      jump\t// out\n        /* \"#utility.yul\":19344:19533   */\n    tag_386:\n        /* \"#utility.yul\":19421:19453   */\n      tag_578\n      tag_385\n      jump\t// in\n    tag_578:\n        /* \"#utility.yul\":19462:19527   */\n      tag_579\n        /* \"#utility.yul\":19520:19526   */\n      dup2\n        /* \"#utility.yul\":19512:19518   */\n      dup5\n        /* \"#utility.yul\":19506:19510   */\n      dup5\n        /* \"#utility.yul\":19462:19527   */\n      tag_384\n      jump\t// in\n    tag_579:\n        /* \"#utility.yul\":19397:19533   */\n      pop\n        /* \"#utility.yul\":19344:19533   */\n      pop\n      pop\n      jump\t// out\n        /* \"#utility.yul\":19539:19725   */\n    tag_387:\n        /* \"#utility.yul\":19599:19719   */\n    tag_581:\n        /* \"#utility.yul\":19616:19619   */\n      dup2\n        /* \"#utility.yul\":19609:19614   */\n      dup2\n        /* \"#utility.yul\":19606:19620   */\n      lt\n        /* \"#utility.yul\":19599:19719   */\n      iszero\n      tag_583\n      jumpi\n        /* \"#utility.yul\":19670:19709   */\n      tag_584\n        /* \"#utility.yul\":19707:19708   */\n      0x00\n        /* \"#utility.yul\":19700:19705   */\n      dup3\n        /* \"#utility.yul\":19670:19709   */\n      tag_386\n      jump\t// in\n    tag_584:\n        /* \"#utility.yul\":19643:19644   */\n      0x01\n        /* \"#utility.yul\":19636:19641   */\n      dup2\n        /* \"#utility.yul\":19632:19645   */\n      add\n        /* \"#utility.yul\":19623:19645   */\n      swap1\n      pop\n        /* \"#utility.yul\":19599:19719   */\n      jump(tag_581)\n    tag_583:\n        /* \"#utility.yul\":19539:19725   */\n      pop\n      pop\n      jump\t// out\n        /* \"#utility.yul\":19731:20274   */\n    tag_388:\n        /* \"#utility.yul\":19832:19834   */\n      0x1f\n        /* \"#utility.yul\":19827:19830   */\n      dup3\n        /* \"#utility.yul\":19824:19835   */\n      gt\n        /* \"#utility.yul\":19821:20267   */\n      iszero\n      tag_586\n      jumpi\n        /* \"#utility.yul\":19866:19904   */\n      tag_587\n        /* \"#utility.yul\":19898:19903   */\n      dup2\n        /* \"#utility.yul\":19866:19904   */\n      tag_376\n      jump\t// in\n    tag_587:\n        /* \"#utility.yul\":19950:19979   */\n      tag_588\n        /* \"#utility.yul\":19968:19978   */\n      dup5\n        /* \"#utility.yul\":19950:19979   */\n      tag_378\n      jump\t// in\n    tag_588:\n        /* \"#utility.yul\":19940:19948   */\n      dup2\n        /* \"#utility.yul\":19936:19980   */\n      add\n        /* \"#utility.yul\":20133:20135   */\n      0x20\n        /* \"#utility.yul\":20121:20131   */\n      dup6\n        /* \"#utility.yul\":20118:20136   */\n      lt\n        /* \"#utility.yul\":20115:20164   */\n      iszero\n      tag_589\n      jumpi\n        /* \"#utility.yul\":20154:20162   */\n      dup2\n        /* \"#utility.yul\":20139:20162   */\n      swap1\n      pop\n        /* \"#utility.yul\":20115:20164   */\n    tag_589:\n        /* \"#utility.yul\":20177:20257   */\n      tag_590\n        /* \"#utility.yul\":20233:20255   */\n      tag_591\n        /* \"#utility.yul\":20251:20254   */\n      dup6\n        /* \"#utility.yul\":20233:20255   */\n      tag_378\n      jump\t// in\n    tag_591:\n        /* \"#utility.yul\":20223:20231   */\n      dup4\n        /* \"#utility.yul\":20219:20256   */\n      add\n        /* \"#utility.yul\":20206:20217   */\n      dup3\n        /* \"#utility.yul\":20177:20257   */\n      tag_387\n      jump\t// in\n    tag_590:\n        /* \"#utility.yul\":19836:20267   */\n      pop\n      pop\n        /* \"#utility.yul\":19821:20267   */\n    tag_586:\n        /* \"#utility.yul\":19731:20274   */\n      pop\n      pop\n      pop\n      jump\t// out\n        /* \"#utility.yul\":20280:20397   */\n    tag_389:\n        /* \"#utility.yul\":20334:20342   */\n      0x00\n        /* \"#utility.yul\":20384:20389   */\n      dup3\n        /* \"#utility.yul\":20378:20382   */\n      dup3\n        /* \"#utility.yul\":20374:20390   */\n      shr\n        /* \"#utility.yul\":20353:20390   */\n      swap1\n      pop\n        /* \"#utility.yul\":20280:20397   */\n      swap3\n      swap2\n      pop\n      pop\n      jump\t// out\n        /* \"#utility.yul\":20403:20572   */\n    tag_390:\n        /* \"#utility.yul\":20447:20453   */\n      0x00\n        /* \"#utility.yul\":20480:20531   */\n      tag_594\n        /* \"#utility.yul\":20528:20529   */\n      0x00\n        /* \"#utility.yul\":20524:20530   */\n      not\n        /* \"#utility.yul\":20516:20521   */\n      dup5\n        /* \"#utility.yul\":20513:20514   */\n      0x08\n        /* \"#utility.yul\":20509:20522   */\n      mul\n        /* \"#utility.yul\":20480:20531   */\n      tag_389\n      jump\t// in\n    tag_594:\n        /* \"#utility.yul\":20476:20532   */\n      not\n        /* \"#utility.yul\":20561:20565   */\n      dup1\n        /* \"#utility.yul\":20555:20559   */\n      dup4\n        /* \"#utility.yul\":20551:20566   */\n      and\n        /* \"#utility.yul\":20541:20566   */\n      swap2\n      pop\n        /* \"#utility.yul\":20454:20572   */\n      pop\n        /* \"#utility.yul\":20403:20572   */\n      swap3\n      swap2\n      pop\n      pop\n      jump\t// out\n        /* \"#utility.yul\":20577:20872   */\n    tag_391:\n        /* \"#utility.yul\":20653:20657   */\n      0x00\n        /* \"#utility.yul\":20799:20828   */\n      tag_596\n        /* \"#utility.yul\":20824:20827   */\n      dup4\n        /* \"#utility.yul\":20818:20822   */\n      dup4\n        /* \"#utility.yul\":20799:20828   */\n      tag_390\n      jump\t// in\n    tag_596:\n        /* \"#utility.yul\":20791:20828   */\n      swap2\n      pop\n        /* \"#utility.yul\":20861:20864   */\n      dup3\n        /* \"#utility.yul\":20858:20859   */\n      0x02\n        /* \"#utility.yul\":20854:20865   */\n      mul\n        /* \"#utility.yul\":20848:20852   */\n      dup3\n        /* \"#utility.yul\":20845:20866   */\n      or\n        /* \"#utility.yul\":20837:20866   */\n      swap1\n      pop\n        /* \"#utility.yul\":20577:20872   */\n      swap3\n      swap2\n      pop\n      pop\n      jump\t// out\n        /* \"#utility.yul\":20877:22340   */\n    tag_83:\n        /* \"#utility.yul\":20992:20995   */\n      dup2\n        /* \"#utility.yul\":20986:20990   */\n      dup2\n        /* \"#utility.yul\":20983:20996   */\n      sub\n        /* \"#utility.yul\":20980:21006   */\n      tag_598\n      jumpi\n        /* \"#utility.yul\":20999:21004   */\n      pop\n      pop\n      jump(tag_597)\n        /* \"#utility.yul\":20980:21006   */\n    tag_598:\n        /* \"#utility.yul\":21030:21068   */\n      tag_599\n        /* \"#utility.yul\":21064:21067   */\n      dup3\n        /* \"#utility.yul\":21030:21068   */\n      tag_375\n      jump\t// in\n    tag_599:\n        /* \"#utility.yul\":21133:21151   */\n      0xffffffffffffffff\n        /* \"#utility.yul\":21125:21131   */\n      dup2\n        /* \"#utility.yul\":21122:21152   */\n      gt\n        /* \"#utility.yul\":21119:21175   */\n      iszero\n      tag_600\n      jumpi\n        /* \"#utility.yul\":21155:21173   */\n      tag_601\n      tag_121\n      jump\t// in\n    tag_601:\n        /* \"#utility.yul\":21119:21175   */\n    tag_600:\n        /* \"#utility.yul\":21199:21237   */\n      tag_602\n        /* \"#utility.yul\":21231:21235   */\n      dup3\n        /* \"#utility.yul\":21225:21236   */\n      sload\n        /* \"#utility.yul\":21199:21237   */\n      tag_53\n      jump\t// in\n    tag_602:\n        /* \"#utility.yul\":21284:21351   */\n      tag_603\n        /* \"#utility.yul\":21344:21350   */\n      dup3\n        /* \"#utility.yul\":21336:21342   */\n      dup3\n        /* \"#utility.yul\":21330:21334   */\n      dup6\n        /* \"#utility.yul\":21284:21351   */\n      tag_388\n      jump\t// in\n    tag_603:\n        /* \"#utility.yul\":21378:21379   */\n      0x00\n        /* \"#utility.yul\":21407:21409   */\n      0x1f\n        /* \"#utility.yul\":21399:21405   */\n      dup4\n        /* \"#utility.yul\":21396:21410   */\n      gt\n        /* \"#utility.yul\":21424:21425   */\n      0x01\n        /* \"#utility.yul\":21419:22095   */\n      dup2\n      eq\n      tag_605\n      jumpi\n        /* \"#utility.yul\":22139:22140   */\n      0x00\n        /* \"#utility.yul\":22156:22162   */\n      dup5\n        /* \"#utility.yul\":22153:22230   */\n      iszero\n      tag_606\n      jumpi\n        /* \"#utility.yul\":22205:22214   */\n      dup3\n        /* \"#utility.yul\":22200:22203   */\n      dup8\n        /* \"#utility.yul\":22196:22215   */\n      add\n        /* \"#utility.yul\":22190:22216   */\n      sload\n        /* \"#utility.yul\":22181:22216   */\n      swap1\n      pop\n        /* \"#utility.yul\":22153:22230   */\n    tag_606:\n        /* \"#utility.yul\":22256:22323   */\n      tag_607\n        /* \"#utility.yul\":22316:22322   */\n      dup6\n        /* \"#utility.yul\":22309:22314   */\n      dup3\n        /* \"#utility.yul\":22256:22323   */\n      tag_391\n      jump\t// in\n    tag_607:\n        /* \"#utility.yul\":22250:22254   */\n      dup7\n        /* \"#utility.yul\":22243:22324   */\n      sstore\n        /* \"#utility.yul\":22112:22334   */\n      pop\n        /* \"#utility.yul\":21389:22334   */\n      jump(tag_604)\n        /* \"#utility.yul\":21419:22095   */\n    tag_605:\n        /* \"#utility.yul\":21471:21475   */\n      0x1f\n        /* \"#utility.yul\":21467:21476   */\n      not\n        /* \"#utility.yul\":21459:21465   */\n      dup5\n        /* \"#utility.yul\":21455:21477   */\n      and\n        /* \"#utility.yul\":21497:21537   */\n      tag_608\n        /* \"#utility.yul\":21533:21536   */\n      dup8\n        /* \"#utility.yul\":21497:21537   */\n      tag_377\n      jump\t// in\n    tag_608:\n        /* \"#utility.yul\":21490:21537   */\n      swap7\n      pop\n        /* \"#utility.yul\":21564:21601   */\n      tag_609\n        /* \"#utility.yul\":21596:21600   */\n      dup7\n        /* \"#utility.yul\":21564:21601   */\n      tag_376\n      jump\t// in\n    tag_609:\n        /* \"#utility.yul\":21623:21624   */\n      0x00\n        /* \"#utility.yul\":21637:21844   */\n    tag_610:\n        /* \"#utility.yul\":21651:21658   */\n      dup3\n        /* \"#utility.yul\":21648:21649   */\n      dup2\n        /* \"#utility.yul\":21645:21659   */\n      lt\n        /* \"#utility.yul\":21637:21844   */\n      iszero\n      tag_612\n      jumpi\n        /* \"#utility.yul\":21730:21739   */\n      dup5\n        /* \"#utility.yul\":21725:21728   */\n      dup10\n        /* \"#utility.yul\":21721:21740   */\n      add\n        /* \"#utility.yul\":21715:21741   */\n      sload\n        /* \"#utility.yul\":21707:21713   */\n      dup3\n        /* \"#utility.yul\":21700:21742   */\n      sstore\n        /* \"#utility.yul\":21781:21782   */\n      0x01\n        /* \"#utility.yul\":21773:21779   */\n      dup3\n        /* \"#utility.yul\":21769:21783   */\n      add\n        /* \"#utility.yul\":21759:21783   */\n      swap2\n      pop\n        /* \"#utility.yul\":21828:21829   */\n      0x01\n        /* \"#utility.yul\":21817:21826   */\n      dup6\n        /* \"#utility.yul\":21813:21830   */\n      add\n        /* \"#utility.yul\":21800:21830   */\n      swap5\n      pop\n        /* \"#utility.yul\":21674:21678   */\n      0x20\n        /* \"#utility.yul\":21671:21672   */\n      dup2\n        /* \"#utility.yul\":21667:21679   */\n      add\n        /* \"#utility.yul\":21662:21679   */\n      swap1\n      pop\n        /* \"#utility.yul\":21637:21844   */\n      jump(tag_610)\n    tag_612:\n        /* \"#utility.yul\":21872:21878   */\n      dup7\n        /* \"#utility.yul\":21863:21870   */\n      dup4\n        /* \"#utility.yul\":21860:21879   */\n      lt\n        /* \"#utility.yul\":21857:22036   */\n      iszero\n      tag_613\n      jumpi\n        /* \"#utility.yul\":21930:21939   */\n      dup5\n        /* \"#utility.yul\":21925:21928   */\n      dup10\n        /* \"#utility.yul\":21921:21940   */\n      add\n        /* \"#utility.yul\":21915:21941   */\n      sload\n        /* \"#utility.yul\":21973:22021   */\n      tag_614\n        /* \"#utility.yul\":22015:22019   */\n      0x1f\n        /* \"#utility.yul\":22007:22013   */\n      dup10\n        /* \"#utility.yul\":22003:22020   */\n      and\n        /* \"#utility.yul\":21992:22001   */\n      dup3\n        /* \"#utility.yul\":21973:22021   */\n      tag_390\n      jump\t// in\n    tag_614:\n        /* \"#utility.yul\":21965:21971   */\n      dup4\n        /* \"#utility.yul\":21958:22022   */\n      sstore\n        /* \"#utility.yul\":21880:22036   */\n      pop\n        /* \"#utility.yul\":21857:22036   */\n    tag_613:\n        /* \"#utility.yul\":22082:22083   */\n      0x01\n        /* \"#utility.yul\":22078:22079   */\n      0x02\n        /* \"#utility.yul\":22070:22076   */\n      dup9\n        /* \"#utility.yul\":22066:22080   */\n      mul\n        /* \"#utility.yul\":22062:22084   */\n      add\n        /* \"#utility.yul\":22056:22060   */\n      dup9\n        /* \"#utility.yul\":22049:22085   */\n      sstore\n        /* \"#utility.yul\":21426:22095   */\n      pop\n      pop\n      pop\n        /* \"#utility.yul\":21389:22334   */\n    tag_604:\n      pop\n        /* \"#utility.yul\":20970:22340   */\n      pop\n      pop\n      pop\n        /* \"#utility.yul\":20877:22340   */\n      pop\n      pop\n    tag_597:\n      jump\t// out\n        /* \"#utility.yul\":22346:22493   */\n    tag_392:\n        /* \"#utility.yul\":22447:22458   */\n      0x00\n        /* \"#utility.yul\":22484:22487   */\n      dup2\n        /* \"#utility.yul\":22469:22487   */\n      swap1\n      pop\n        /* \"#utility.yul\":22346:22493   */\n      swap3\n      swap2\n      pop\n      pop\n      jump\t// out\n        /* \"#utility.yul\":22499:22613   */\n    tag_393:\n      pop\n      jump\t// out\n        /* \"#utility.yul\":22619:23017   */\n    tag_394:\n        /* \"#utility.yul\":22778:22781   */\n      0x00\n        /* \"#utility.yul\":22799:22882   */\n      tag_618\n        /* \"#utility.yul\":22880:22881   */\n      0x00\n        /* \"#utility.yul\":22875:22878   */\n      dup4\n        /* \"#utility.yul\":22799:22882   */\n      tag_392\n      jump\t// in\n    tag_618:\n        /* \"#utility.yul\":22792:22882   */\n      swap2\n      pop\n        /* \"#utility.yul\":22891:22984   */\n      tag_619\n        /* \"#utility.yul\":22980:22983   */\n      dup3\n        /* \"#utility.yul\":22891:22984   */\n      tag_393\n      jump\t// in\n    tag_619:\n        /* \"#utility.yul\":23009:23010   */\n      0x00\n        /* \"#utility.yul\":23004:23007   */\n      dup3\n        /* \"#utility.yul\":23000:23011   */\n      add\n        /* \"#utility.yul\":22993:23011   */\n      swap1\n      pop\n        /* \"#utility.yul\":22619:23017   */\n      swap2\n      swap1\n      pop\n      jump\t// out\n        /* \"#utility.yul\":23023:23402   */\n    tag_85:\n        /* \"#utility.yul\":23207:23210   */\n      0x00\n        /* \"#utility.yul\":23229:23376   */\n      tag_621\n        /* \"#utility.yul\":23372:23375   */\n      dup3\n        /* \"#utility.yul\":23229:23376   */\n      tag_394\n      jump\t// in\n    tag_621:\n        /* \"#utility.yul\":23222:23376   */\n      swap2\n      pop\n        /* \"#utility.yul\":23393:23396   */\n      dup2\n        /* \"#utility.yul\":23386:23396   */\n      swap1\n      pop\n        /* \"#utility.yul\":23023:23402   */\n      swap2\n      swap1\n      pop\n      jump\t// out\n        /* \"#utility.yul\":23408:23579   */\n    tag_395:\n        /* \"#utility.yul\":23548:23571   */\n      0x4574686572207472616e73666572206661696c65640000000000000000000000\n        /* \"#utility.yul\":23544:23545   */\n      0x00\n        /* \"#utility.yul\":23536:23542   */\n      dup3\n        /* \"#utility.yul\":23532:23546   */\n      add\n        /* \"#utility.yul\":23525:23572   */\n      mstore\n        /* \"#utility.yul\":23408:23579   */\n      pop\n      jump\t// out\n        /* \"#utility.yul\":23585:23951   */\n    tag_396:\n        /* \"#utility.yul\":23727:23730   */\n      0x00\n        /* \"#utility.yul\":23748:23815   */\n      tag_624\n        /* \"#utility.yul\":23812:23814   */\n      0x15\n        /* \"#utility.yul\":23807:23810   */\n      dup4\n        /* \"#utility.yul\":23748:23815   */\n      tag_364\n      jump\t// in\n    tag_624:\n        /* \"#utility.yul\":23741:23815   */\n      swap2\n      pop\n        /* \"#utility.yul\":23824:23917   */\n      tag_625\n        /* \"#utility.yul\":23913:23916   */\n      dup3\n        /* \"#utility.yul\":23824:23917   */\n      tag_395\n      jump\t// in\n    tag_625:\n        /* \"#utility.yul\":23942:23944   */\n      0x20\n        /* \"#utility.yul\":23937:23940   */\n      dup3\n        /* \"#utility.yul\":23933:23945   */\n      add\n        /* \"#utility.yul\":23926:23945   */\n      swap1\n      pop\n        /* \"#utility.yul\":23585:23951   */\n      swap2\n      swap1\n      pop\n      jump\t// out\n        /* \"#utility.yul\":23957:24376   */\n    tag_91:\n        /* \"#utility.yul\":24123:24127   */\n      0x00\n        /* \"#utility.yul\":24161:24163   */\n      0x20\n        /* \"#utility.yul\":24150:24159   */\n      dup3\n        /* \"#utility.yul\":24146:24164   */\n      add\n        /* \"#utility.yul\":24138:24164   */\n      swap1\n      pop\n        /* \"#utility.yul\":24210:24219   */\n      dup2\n        /* \"#utility.yul\":24204:24208   */\n      dup2\n        /* \"#utility.yul\":24200:24220   */\n      sub\n        /* \"#utility.yul\":24196:24197   */\n      0x00\n        /* \"#utility.yul\":24185:24194   */\n      dup4\n        /* \"#utility.yul\":24181:24198   */\n      add\n        /* \"#utility.yul\":24174:24221   */\n      mstore\n        /* \"#utility.yul\":24238:24369   */\n      tag_627\n        /* \"#utility.yul\":24364:24368   */\n      dup2\n        /* \"#utility.yul\":24238:24369   */\n      tag_396\n      jump\t// in\n    tag_627:\n        /* \"#utility.yul\":24230:24369   */\n      swap1\n      pop\n        /* \"#utility.yul\":23957:24376   */\n      swap2\n      swap1\n      pop\n      jump\t// out\n        /* \"#utility.yul\":24382:24500   */\n    tag_397:\n        /* \"#utility.yul\":24469:24493   */\n      tag_629\n        /* \"#utility.yul\":24487:24492   */\n      dup2\n        /* \"#utility.yul\":24469:24493   */\n      tag_340\n      jump\t// in\n    tag_629:\n        /* \"#utility.yul\":24464:24467   */\n      dup3\n        /* \"#utility.yul\":24457:24494   */\n      mstore\n        /* \"#utility.yul\":24382:24500   */\n      pop\n      pop\n      jump\t// out\n        /* \"#utility.yul\":24506:24728   */\n    tag_93:\n        /* \"#utility.yul\":24599:24603   */\n      0x00\n        /* \"#utility.yul\":24637:24639   */\n      0x20\n        /* \"#utility.yul\":24626:24635   */\n      dup3\n        /* \"#utility.yul\":24622:24640   */\n      add\n        /* \"#utility.yul\":24614:24640   */\n      swap1\n      pop\n        /* \"#utility.yul\":24650:24721   */\n      tag_631\n        /* \"#utility.yul\":24718:24719   */\n      0x00\n        /* \"#utility.yul\":24707:24716   */\n      dup4\n        /* \"#utility.yul\":24703:24720   */\n      add\n        /* \"#utility.yul\":24694:24700   */\n      dup5\n        /* \"#utility.yul\":24650:24721   */\n      tag_397\n      jump\t// in\n    tag_631:\n        /* \"#utility.yul\":24506:24728   */\n      swap3\n      swap2\n      pop\n      pop\n      jump\t// out\n        /* \"#utility.yul\":24758:25632   */\n    tag_398:\n        /* \"#utility.yul\":24861:24864   */\n      0x00\n        /* \"#utility.yul\":24898:24903   */\n      dup2\n        /* \"#utility.yul\":24892:24904   */\n      sload\n        /* \"#utility.yul\":24927:24963   */\n      tag_633\n        /* \"#utility.yul\":24953:24962   */\n      dup2\n        /* \"#utility.yul\":24927:24963   */\n      tag_53\n      jump\t// in\n    tag_633:\n        /* \"#utility.yul\":24979:25068   */\n      tag_634\n        /* \"#utility.yul\":25061:25067   */\n      dup2\n        /* \"#utility.yul\":25056:25059   */\n      dup7\n        /* \"#utility.yul\":24979:25068   */\n      tag_362\n      jump\t// in\n    tag_634:\n        /* \"#utility.yul\":24972:25068   */\n      swap5\n      pop\n        /* \"#utility.yul\":25099:25100   */\n      0x01\n        /* \"#utility.yul\":25088:25097   */\n      dup3\n        /* \"#utility.yul\":25084:25101   */\n      and\n        /* \"#utility.yul\":25115:25116   */\n      0x00\n        /* \"#utility.yul\":25110:25276   */\n      dup2\n      eq\n      tag_636\n      jumpi\n        /* \"#utility.yul\":25290:25291   */\n      0x01\n        /* \"#utility.yul\":25285:25626   */\n      dup2\n      eq\n      tag_637\n      jumpi\n        /* \"#utility.yul\":25077:25626   */\n      jump(tag_635)\n        /* \"#utility.yul\":25110:25276   */\n    tag_636:\n        /* \"#utility.yul\":25194:25198   */\n      0xff\n        /* \"#utility.yul\":25190:25199   */\n      not\n        /* \"#utility.yul\":25179:25188   */\n      dup4\n        /* \"#utility.yul\":25175:25200   */\n      and\n        /* \"#utility.yul\":25170:25173   */\n      dup7\n        /* \"#utility.yul\":25163:25201   */\n      mstore\n        /* \"#utility.yul\":25256:25262   */\n      dup2\n        /* \"#utility.yul\":25249:25263   */\n      iszero\n        /* \"#utility.yul\":25242:25264   */\n      iszero\n        /* \"#utility.yul\":25234:25240   */\n      dup3\n        /* \"#utility.yul\":25230:25265   */\n      mul\n        /* \"#utility.yul\":25225:25228   */\n      dup7\n        /* \"#utility.yul\":25221:25266   */\n      add\n        /* \"#utility.yul\":25214:25266   */\n      swap4\n      pop\n        /* \"#utility.yul\":25110:25276   */\n      jump(tag_635)\n        /* \"#utility.yul\":25285:25626   */\n    tag_637:\n        /* \"#utility.yul\":25352:25390   */\n      tag_638\n        /* \"#utility.yul\":25384:25389   */\n      dup6\n        /* \"#utility.yul\":25352:25390   */\n      tag_376\n      jump\t// in\n    tag_638:\n        /* \"#utility.yul\":25412:25413   */\n      0x00\n        /* \"#utility.yul\":25426:25580   */\n    tag_639:\n        /* \"#utility.yul\":25440:25446   */\n      dup4\n        /* \"#utility.yul\":25437:25438   */\n      dup2\n        /* \"#utility.yul\":25434:25447   */\n      lt\n        /* \"#utility.yul\":25426:25580   */\n      iszero\n      tag_641\n      jumpi\n        /* \"#utility.yul\":25514:25521   */\n      dup2\n        /* \"#utility.yul\":25508:25522   */\n      sload\n        /* \"#utility.yul\":25504:25505   */\n      dup2\n        /* \"#utility.yul\":25499:25502   */\n      dup10\n        /* \"#utility.yul\":25495:25506   */\n      add\n        /* \"#utility.yul\":25488:25523   */\n      mstore\n        /* \"#utility.yul\":25564:25565   */\n      0x01\n        /* \"#utility.yul\":25555:25562   */\n      dup3\n        /* \"#utility.yul\":25551:25566   */\n      add\n        /* \"#utility.yul\":25540:25566   */\n      swap2\n      pop\n        /* \"#utility.yul\":25462:25466   */\n      0x20\n        /* \"#utility.yul\":25459:25460   */\n      dup2\n        /* \"#utility.yul\":25455:25467   */\n      add\n        /* \"#utility.yul\":25450:25467   */\n      swap1\n      pop\n        /* \"#utility.yul\":25426:25580   */\n      jump(tag_639)\n    tag_641:\n        /* \"#utility.yul\":25609:25615   */\n      dup4\n        /* \"#utility.yul\":25604:25607   */\n      dup9\n        /* \"#utility.yul\":25600:25616   */\n      add\n        /* \"#utility.yul\":25593:25616   */\n      swap6\n      pop\n        /* \"#utility.yul\":25292:25626   */\n      pop\n      pop\n        /* \"#utility.yul\":25077:25626   */\n    tag_635:\n      pop\n        /* \"#utility.yul\":24865:25632   */\n      pop\n      pop\n        /* \"#utility.yul\":24758:25632   */\n      swap3\n      swap2\n      pop\n      pop\n      jump\t// out\n        /* \"#utility.yul\":25638:25907   */\n    tag_100:\n        /* \"#utility.yul\":25767:25770   */\n      0x00\n        /* \"#utility.yul\":25789:25881   */\n      tag_643\n        /* \"#utility.yul\":25877:25880   */\n      dup3\n        /* \"#utility.yul\":25868:25874   */\n      dup5\n        /* \"#utility.yul\":25789:25881   */\n      tag_398\n      jump\t// in\n    tag_643:\n        /* \"#utility.yul\":25782:25881   */\n      swap2\n      pop\n        /* \"#utility.yul\":25898:25901   */\n      dup2\n        /* \"#utility.yul\":25891:25901   */\n      swap1\n      pop\n        /* \"#utility.yul\":25638:25907   */\n      swap3\n      swap2\n      pop\n      pop\n      jump\t// out\n        /* \"#utility.yul\":25913:26093   */\n    tag_106:\n        /* \"#utility.yul\":25961:26038   */\n      0x4e487b7100000000000000000000000000000000000000000000000000000000\n        /* \"#utility.yul\":25958:25959   */\n      0x00\n        /* \"#utility.yul\":25951:26039   */\n      mstore\n        /* \"#utility.yul\":26058:26062   */\n      0x32\n        /* \"#utility.yul\":26055:26056   */\n      0x04\n        /* \"#utility.yul\":26048:26063   */\n      mstore\n        /* \"#utility.yul\":26082:26086   */\n      0x24\n        /* \"#utility.yul\":26079:26080   */\n      0x00\n        /* \"#utility.yul\":26072:26087   */\n      revert\n        /* \"#utility.yul\":26099:26279   */\n    tag_399:\n        /* \"#utility.yul\":26147:26224   */\n      0x4e487b7100000000000000000000000000000000000000000000000000000000\n        /* \"#utility.yul\":26144:26145   */\n      0x00\n        /* \"#utility.yul\":26137:26225   */\n      mstore\n        /* \"#utility.yul\":26244:26248   */\n      0x11\n        /* \"#utility.yul\":26241:26242   */\n      0x04\n        /* \"#utility.yul\":26234:26249   */\n      mstore\n        /* \"#utility.yul\":26268:26272   */\n      0x24\n        /* \"#utility.yul\":26265:26266   */\n      0x00\n        /* \"#utility.yul\":26258:26273   */\n      revert\n        /* \"#utility.yul\":26285:26518   */\n    tag_118:\n        /* \"#utility.yul\":26324:26327   */\n      0x00\n        /* \"#utility.yul\":26347:26371   */\n      tag_647\n        /* \"#utility.yul\":26365:26370   */\n      dup3\n        /* \"#utility.yul\":26347:26371   */\n      tag_340\n      jump\t// in\n    tag_647:\n        /* \"#utility.yul\":26338:26371   */\n      swap2\n      pop\n        /* \"#utility.yul\":26393:26459   */\n      0xffffffffffffffffffffffffffffffffffffffffffffffffffffffffffffffff\n        /* \"#utility.yul\":26386:26391   */\n      dup3\n        /* \"#utility.yul\":26383:26460   */\n      sub\n        /* \"#utility.yul\":26380:26483   */\n      tag_648\n      jumpi\n        /* \"#utility.yul\":26463:26481   */\n      tag_649\n      tag_399\n      jump\t// in\n    tag_649:\n        /* \"#utility.yul\":26380:26483   */\n    tag_648:\n        /* \"#utility.yul\":26510:26511   */\n      0x01\n        /* \"#utility.yul\":26503:26508   */\n      dup3\n        /* \"#utility.yul\":26499:26512   */\n      add\n        /* \"#utility.yul\":26492:26512   */\n      swap1\n      pop\n        /* \"#utility.yul\":26285:26518   */\n      swap2\n      swap1\n      pop\n      jump\t// out\n        /* \"#utility.yul\":26524:27919   */\n    tag_174:\n        /* \"#utility.yul\":26641:26678   */\n      tag_651\n        /* \"#utility.yul\":26674:26677   */\n      dup3\n        /* \"#utility.yul\":26641:26678   */\n      tag_335\n      jump\t// in\n    tag_651:\n        /* \"#utility.yul\":26743:26761   */\n      0xffffffffffffffff\n        /* \"#utility.yul\":26735:26741   */\n      dup2\n        /* \"#utility.yul\":26732:26762   */\n      gt\n        /* \"#utility.yul\":26729:26785   */\n      iszero\n      tag_652\n      jumpi\n        /* \"#utility.yul\":26765:26783   */\n      tag_653\n      tag_121\n      jump\t// in\n    tag_653:\n        /* \"#utility.yul\":26729:26785   */\n    tag_652:\n        /* \"#utility.yul\":26809:26847   */\n      tag_654\n        /* \"#utility.yul\":26841:26845   */\n      dup3\n        /* \"#utility.yul\":26835:26846   */\n      sload\n        /* \"#utility.yul\":26809:26847   */\n      tag_53\n      jump\t// in\n    tag_654:\n        /* \"#utility.yul\":26894:26961   */\n      tag_655\n        /* \"#utility.yul\":26954:26960   */\n      dup3\n        /* \"#utility.yul\":26946:26952   */\n      dup3\n        /* \"#utility.yul\":26940:26944   */\n      dup6\n        /* \"#utility.yul\":26894:26961   */\n      tag_388\n      jump\t// in\n    tag_655:\n        /* \"#utility.yul\":26988:26989   */\n      0x00\n        /* \"#utility.yul\":27012:27016   */\n      0x20\n        /* \"#utility.yul\":26999:27016   */\n      swap1\n      pop\n        /* \"#utility.yul\":27044:27046   */\n      0x1f\n        /* \"#utility.yul\":27036:27042   */\n      dup4\n        /* \"#utility.yul\":27033:27047   */\n      gt\n        /* \"#utility.yul\":27061:27062   */\n      0x01\n        /* \"#utility.yul\":27056:27674   */\n      dup2\n      eq\n      tag_657\n      jumpi\n        /* \"#utility.yul\":27718:27719   */\n      0x00\n        /* \"#utility.yul\":27735:27741   */\n      dup5\n        /* \"#utility.yul\":27732:27809   */\n      iszero\n      tag_658\n      jumpi\n        /* \"#utility.yul\":27784:27793   */\n      dup3\n        /* \"#utility.yul\":27779:27782   */\n      dup8\n        /* \"#utility.yul\":27775:27794   */\n      add\n        /* \"#utility.yul\":27769:27795   */\n      mload\n        /* \"#utility.yul\":27760:27795   */\n      swap1\n      pop\n        /* \"#utility.yul\":27732:27809   */\n    tag_658:\n        /* \"#utility.yul\":27835:27902   */\n      tag_659\n        /* \"#utility.yul\":27895:27901   */\n      dup6\n        /* \"#utility.yul\":27888:27893   */\n      dup3\n        /* \"#utility.yul\":27835:27902   */\n      tag_391\n      jump\t// in\n    tag_659:\n        /* \"#utility.yul\":27829:27833   */\n      dup7\n        /* \"#utility.yul\":27822:27903   */\n      sstore\n        /* \"#utility.yul\":27691:27913   */\n      pop\n        /* \"#utility.yul\":27026:27913   */\n      jump(tag_656)\n        /* \"#utility.yul\":27056:27674   */\n    tag_657:\n        /* \"#utility.yul\":27108:27112   */\n      0x1f\n        /* \"#utility.yul\":27104:27113   */\n      not\n        /* \"#utility.yul\":27096:27102   */\n      dup5\n        /* \"#utility.yul\":27092:27114   */\n      and\n        /* \"#utility.yul\":27142:27179   */\n      tag_660\n        /* \"#utility.yul\":27174:27178   */\n      dup7\n        /* \"#utility.yul\":27142:27179   */\n      tag_376\n      jump\t// in\n    tag_660:\n        /* \"#utility.yul\":27201:27202   */\n      0x00\n        /* \"#utility.yul\":27215:27423   */\n    tag_661:\n        /* \"#utility.yul\":27229:27236   */\n      dup3\n        /* \"#utility.yul\":27226:27227   */\n      dup2\n        /* \"#utility.yul\":27223:27237   */\n      lt\n        /* \"#utility.yul\":27215:27423   */\n      iszero\n      tag_663\n      jumpi\n        /* \"#utility.yul\":27308:27317   */\n      dup5\n        /* \"#utility.yul\":27303:27306   */\n      dup10\n        /* \"#utility.yul\":27299:27318   */\n      add\n        /* \"#utility.yul\":27293:27319   */\n      mload\n        /* \"#utility.yul\":27285:27291   */\n      dup3\n        /* \"#utility.yul\":27278:27320   */\n      sstore\n        /* \"#utility.yul\":27359:27360   */\n      0x01\n        /* \"#utility.yul\":27351:27357   */\n      dup3\n        /* \"#utility.yul\":27347:27361   */\n      add\n        /* \"#utility.yul\":27337:27361   */\n      swap2\n      pop\n        /* \"#utility.yul\":27406:27408   */\n      0x20\n        /* \"#utility.yul\":27395:27404   */\n      dup6\n        /* \"#utility.yul\":27391:27409   */\n      add\n        /* \"#utility.yul\":27378:27409   */\n      swap5\n      pop\n        /* \"#utility.yul\":27252:27256   */\n      0x20\n        /* \"#utility.yul\":27249:27250   */\n      dup2\n        /* \"#utility.yul\":27245:27257   */\n      add\n        /* \"#utility.yul\":27240:27257   */\n      swap1\n      pop\n        /* \"#utility.yul\":27215:27423   */\n      jump(tag_661)\n    tag_663:\n        /* \"#utility.yul\":27451:27457   */\n      dup7\n        /* \"#utility.yul\":27442:27449   */\n      dup4\n        /* \"#utility.yul\":27439:27458   */\n      lt\n        /* \"#utility.yul\":27436:27615   */\n      iszero\n      tag_664\n      jumpi\n        /* \"#utility.yul\":27509:27518   */\n      dup5\n        /* \"#utility.yul\":27504:27507   */\n      dup10\n        /* \"#utility.yul\":27500:27519   */\n      add\n        /* \"#utility.yul\":27494:27520   */\n      mload\n        /* \"#utility.yul\":27552:27600   */\n      tag_665\n        /* \"#utility.yul\":27594:27598   */\n      0x1f\n        /* \"#utility.yul\":27586:27592   */\n      dup10\n        /* \"#utility.yul\":27582:27599   */\n      and\n        /* \"#utility.yul\":27571:27580   */\n      dup3\n        /* \"#utility.yul\":27552:27600   */\n      tag_390\n      jump\t// in\n    tag_665:\n        /* \"#utility.yul\":27544:27550   */\n      dup4\n        /* \"#utility.yul\":27537:27601   */\n      sstore\n        /* \"#utility.yul\":27459:27615   */\n      pop\n        /* \"#utility.yul\":27436:27615   */\n    tag_664:\n        /* \"#utility.yul\":27661:27662   */\n      0x01\n        /* \"#utility.yul\":27657:27658   */\n      0x02\n        /* \"#utility.yul\":27649:27655   */\n      dup9\n        /* \"#utility.yul\":27645:27659   */\n      mul\n        /* \"#utility.yul\":27641:27663   */\n      add\n        /* \"#utility.yul\":27635:27639   */\n      dup9\n        /* \"#utility.yul\":27628:27664   */\n      sstore\n        /* \"#utility.yul\":27063:27674   */\n      pop\n      pop\n      pop\n        /* \"#utility.yul\":27026:27913   */\n    tag_656:\n      pop\n        /* \"#utility.yul\":26616:27919   */\n      pop\n      pop\n      pop\n        /* \"#utility.yul\":26524:27919   */\n      pop\n      pop\n      jump\t// out\n        /* \"#utility.yul\":27925:28335   */\n    tag_185:\n        /* \"#utility.yul\":27965:27972   */\n      0x00\n        /* \"#utility.yul\":27988:28008   */\n      tag_667\n        /* \"#utility.yul\":28006:28007   */\n      dup3\n        /* \"#utility.yul\":27988:28008   */\n      tag_340\n      jump\t// in\n    tag_667:\n        /* \"#utility.yul\":27983:28008   */\n      swap2\n      pop\n        /* \"#utility.yul\":28022:28042   */\n      tag_668\n        /* \"#utility.yul\":28040:28041   */\n      dup4\n        /* \"#utility.yul\":28022:28042   */\n      tag_340\n      jump\t// in\n    tag_668:\n        /* \"#utility.yul\":28017:28042   */\n      swap3\n      pop\n        /* \"#utility.yul\":28077:28078   */\n      dup3\n        /* \"#utility.yul\":28074:28075   */\n      dup3\n        /* \"#utility.yul\":28070:28079   */\n      mul\n        /* \"#utility.yul\":28099:28129   */\n      tag_669\n        /* \"#utility.yul\":28117:28128   */\n      dup2\n        /* \"#utility.yul\":28099:28129   */\n      tag_340\n      jump\t// in\n    tag_669:\n        /* \"#utility.yul\":28088:28129   */\n      swap2\n      pop\n        /* \"#utility.yul\":28278:28279   */\n      dup3\n        /* \"#utility.yul\":28269:28276   */\n      dup3\n        /* \"#utility.yul\":28265:28280   */\n      div\n        /* \"#utility.yul\":28262:28263   */\n      dup5\n        /* \"#utility.yul\":28259:28281   */\n      eq\n        /* \"#utility.yul\":28239:28240   */\n      dup4\n        /* \"#utility.yul\":28232:28241   */\n      iszero\n        /* \"#utility.yul\":28212:28295   */\n      or\n        /* \"#utility.yul\":28189:28328   */\n      tag_670\n      jumpi\n        /* \"#utility.yul\":28308:28326   */\n      tag_671\n      tag_399\n      jump\t// in\n    tag_671:\n        /* \"#utility.yul\":28189:28328   */\n    tag_670:\n        /* \"#utility.yul\":27973:28335   */\n      pop\n        /* \"#utility.yul\":27925:28335   */\n      swap3\n      swap2\n      pop\n      pop\n      jump\t// out\n        /* \"#utility.yul\":28341:28521   */\n    tag_400:\n        /* \"#utility.yul\":28389:28466   */\n      0x4e487b7100000000000000000000000000000000000000000000000000000000\n        /* \"#utility.yul\":28386:28387   */\n      0x00\n        /* \"#utility.yul\":28379:28467   */\n      mstore\n        /* \"#utility.yul\":28486:28490   */\n      0x12\n        /* \"#utility.yul\":28483:28484   */\n      0x04\n        /* \"#utility.yul\":28476:28491   */\n      mstore\n        /* \"#utility.yul\":28510:28514   */\n      0x24\n        /* \"#utility.yul\":28507:28508   */\n      0x00\n        /* \"#utility.yul\":28500:28515   */\n      revert\n        /* \"#utility.yul\":28527:28712   */\n    tag_187:\n        /* \"#utility.yul\":28567:28568   */\n      0x00\n        /* \"#utility.yul\":28584:28604   */\n      tag_674\n        /* \"#utility.yul\":28602:28603   */\n      dup3\n        /* \"#utility.yul\":28584:28604   */\n      tag_340\n      jump\t// in\n    tag_674:\n        /* \"#utility.yul\":28579:28604   */\n      swap2\n      pop\n        /* \"#utility.yul\":28618:28638   */\n      tag_675\n        /* \"#utility.yul\":28636:28637   */\n      dup4\n        /* \"#utility.yul\":28618:28638   */\n      tag_340\n      jump\t// in\n    tag_675:\n        /* \"#utility.yul\":28613:28638   */\n      swap3\n      pop\n        /* \"#utility.yul\":28657:28658   */\n      dup3\n        /* \"#utility.yul\":28647:28682   */\n      tag_676\n      jumpi\n        /* \"#utility.yul\":28662:28680   */\n      tag_677\n      tag_400\n      jump\t// in\n    tag_677:\n        /* \"#utility.yul\":28647:28682   */\n    tag_676:\n        /* \"#utility.yul\":28704:28705   */\n      dup3\n        /* \"#utility.yul\":28701:28702   */\n      dup3\n        /* \"#utility.yul\":28697:28706   */\n      div\n        /* \"#utility.yul\":28692:28706   */\n      swap1\n      pop\n        /* \"#utility.yul\":28527:28712   */\n      swap3\n      swap2\n      pop\n      pop\n      jump\t// out\n        /* \"#utility.yul\":28718:29095   */\n    tag_401:\n        /* \"#utility.yul\":28806:28809   */\n      0x00\n        /* \"#utility.yul\":28834:28873   */\n      tag_679\n        /* \"#utility.yul\":28867:28872   */\n      dup3\n        /* \"#utility.yul\":28834:28873   */\n      tag_335\n      jump\t// in\n    tag_679:\n        /* \"#utility.yul\":28889:28960   */\n      tag_680\n        /* \"#utility.yul\":28953:28959   */\n      dup2\n        /* \"#utility.yul\":28948:28951   */\n      dup6\n        /* \"#utility.yul\":28889:28960   */\n      tag_364\n      jump\t// in\n    tag_680:\n        /* \"#utility.yul\":28882:28960   */\n      swap4\n      pop\n        /* \"#utility.yul\":28969:29034   */\n      tag_681\n        /* \"#utility.yul\":29027:29033   */\n      dup2\n        /* \"#utility.yul\":29022:29025   */\n      dup6\n        /* \"#utility.yul\":29015:29019   */\n      0x20\n        /* \"#utility.yul\":29008:29013   */\n      dup7\n        /* \"#utility.yul\":29004:29020   */\n      add\n        /* \"#utility.yul\":28969:29034   */\n      tag_337\n      jump\t// in\n    tag_681:\n        /* \"#utility.yul\":29059:29088   */\n      tag_682\n        /* \"#utility.yul\":29081:29087   */\n      dup2\n        /* \"#utility.yul\":29059:29088   */\n      tag_338\n      jump\t// in\n    tag_682:\n        /* \"#utility.yul\":29054:29057   */\n      dup5\n        /* \"#utility.yul\":29050:29089   */\n      add\n        /* \"#utility.yul\":29043:29089   */\n      swap2\n      pop\n        /* \"#utility.yul\":28810:29095   */\n      pop\n        /* \"#utility.yul\":28718:29095   */\n      swap3\n      swap2\n      pop\n      pop\n      jump\t// out\n        /* \"#utility.yul\":29101:29524   */\n    tag_193:\n        /* \"#utility.yul\":29242:29246   */\n      0x00\n        /* \"#utility.yul\":29280:29282   */\n      0x40\n        /* \"#utility.yul\":29269:29278   */\n      dup3\n        /* \"#utility.yul\":29265:29283   */\n      add\n        /* \"#utility.yul\":29257:29283   */\n      swap1\n      pop\n        /* \"#utility.yul\":29329:29338   */\n      dup2\n        /* \"#utility.yul\":29323:29327   */\n      dup2\n        /* \"#utility.yul\":29319:29339   */\n      sub\n        /* \"#utility.yul\":29315:29316   */\n      0x00\n        /* \"#utility.yul\":29304:29313   */\n      dup4\n        /* \"#utility.yul\":29300:29317   */\n      add\n        /* \"#utility.yul\":29293:29340   */\n      mstore\n        /* \"#utility.yul\":29357:29435   */\n      tag_684\n        /* \"#utility.yul\":29430:29434   */\n      dup2\n        /* \"#utility.yul\":29421:29427   */\n      dup6\n        /* \"#utility.yul\":29357:29435   */\n      tag_401\n      jump\t// in\n    tag_684:\n        /* \"#utility.yul\":29349:29435   */\n      swap1\n      pop\n        /* \"#utility.yul\":29445:29517   */\n      tag_685\n        /* \"#utility.yul\":29513:29515   */\n      0x20\n        /* \"#utility.yul\":29502:29511   */\n      dup4\n        /* \"#utility.yul\":29498:29516   */\n      add\n        /* \"#utility.yul\":29489:29495   */\n      dup5\n        /* \"#utility.yul\":29445:29517   */\n      tag_397\n      jump\t// in\n    tag_685:\n        /* \"#utility.yul\":29101:29524   */\n      swap4\n      swap3\n      pop\n      pop\n      pop\n      jump\t// out\n        /* \"#utility.yul\":29530:29700   */\n    tag_402:\n        /* \"#utility.yul\":29670:29692   */\n      0x596f7520617265206e6f7420616e2061646d696e000000000000000000000000\n        /* \"#utility.yul\":29666:29667   */\n      0x00\n        /* \"#utility.yul\":29658:29664   */\n      dup3\n        /* \"#utility.yul\":29654:29668   */\n      add\n        /* \"#utility.yul\":29647:29693   */\n      mstore\n        /* \"#utility.yul\":29530:29700   */\n      pop\n      jump\t// out\n        /* \"#utility.yul\":29706:30072   */\n    tag_403:\n        /* \"#utility.yul\":29848:29851   */\n      0x00\n        /* \"#utility.yul\":29869:29936   */\n      tag_688\n        /* \"#utility.yul\":29933:29935   */\n      0x14\n        /* \"#utility.yul\":29928:29931   */\n      dup4\n        /* \"#utility.yul\":29869:29936   */\n      tag_364\n      jump\t// in\n    tag_688:\n        /* \"#utility.yul\":29862:29936   */\n      swap2\n      pop\n        /* \"#utility.yul\":29945:30038   */\n      tag_689\n        /* \"#utility.yul\":30034:30037   */\n      dup3\n        /* \"#utility.yul\":29945:30038   */\n      tag_402\n      jump\t// in\n    tag_689:\n        /* \"#utility.yul\":30063:30065   */\n      0x20\n        /* \"#utility.yul\":30058:30061   */\n      dup3\n        /* \"#utility.yul\":30054:30066   */\n      add\n        /* \"#utility.yul\":30047:30066   */\n      swap1\n      pop\n        /* \"#utility.yul\":29706:30072   */\n      swap2\n      swap1\n      pop\n      jump\t// out\n        /* \"#utility.yul\":30078:30497   */\n    tag_205:\n        /* \"#utility.yul\":30244:30248   */\n      0x00\n        /* \"#utility.yul\":30282:30284   */\n      0x20\n        /* \"#utility.yul\":30271:30280   */\n      dup3\n        /* \"#utility.yul\":30267:30285   */\n      add\n        /* \"#utility.yul\":30259:30285   */\n      swap1\n      pop\n        /* \"#utility.yul\":30331:30340   */\n      dup2\n        /* \"#utility.yul\":30325:30329   */\n      dup2\n        /* \"#utility.yul\":30321:30341   */\n      sub\n        /* \"#utility.yul\":30317:30318   */\n      0x00\n        /* \"#utility.yul\":30306:30315   */\n      dup4\n        /* \"#utility.yul\":30302:30319   */\n      add\n        /* \"#utility.yul\":30295:30342   */\n      mstore\n        /* \"#utility.yul\":30359:30490   */\n      tag_691\n        /* \"#utility.yul\":30485:30489   */\n      dup2\n        /* \"#utility.yul\":30359:30490   */\n      tag_403\n      jump\t// in\n    tag_691:\n        /* \"#utility.yul\":30351:30490   */\n      swap1\n      pop\n        /* \"#utility.yul\":30078:30497   */\n      swap2\n      swap1\n      pop\n      jump\t// out\n        /* \"#utility.yul\":30503:30679   */\n    tag_279:\n        /* \"#utility.yul\":30535:30536   */\n      0x00\n        /* \"#utility.yul\":30552:30572   */\n      tag_693\n        /* \"#utility.yul\":30570:30571   */\n      dup3\n        /* \"#utility.yul\":30552:30572   */\n      tag_340\n      jump\t// in\n    tag_693:\n        /* \"#utility.yul\":30547:30572   */\n      swap2\n      pop\n        /* \"#utility.yul\":30586:30606   */\n      tag_694\n        /* \"#utility.yul\":30604:30605   */\n      dup4\n        /* \"#utility.yul\":30586:30606   */\n      tag_340\n      jump\t// in\n    tag_694:\n        /* \"#utility.yul\":30581:30606   */\n      swap3\n      pop\n        /* \"#utility.yul\":30625:30626   */\n      dup3\n        /* \"#utility.yul\":30615:30650   */\n      tag_695\n      jumpi\n        /* \"#utility.yul\":30630:30648   */\n      tag_696\n      tag_400\n      jump\t// in\n    tag_696:\n        /* \"#utility.yul\":30615:30650   */\n    tag_695:\n        /* \"#utility.yul\":30671:30672   */\n      dup3\n        /* \"#utility.yul\":30668:30669   */\n      dup3\n        /* \"#utility.yul\":30664:30673   */\n      mod\n        /* \"#utility.yul\":30659:30673   */\n      swap1\n      pop\n        /* \"#utility.yul\":30503:30679   */\n      swap3\n      swap2\n      pop\n      pop\n      jump\t// out\n        /* \"#utility.yul\":30685:30876   */\n    tag_281:\n        /* \"#utility.yul\":30725:30728   */\n      0x00\n        /* \"#utility.yul\":30744:30764   */\n      tag_698\n        /* \"#utility.yul\":30762:30763   */\n      dup3\n        /* \"#utility.yul\":30744:30764   */\n      tag_340\n      jump\t// in\n    tag_698:\n        /* \"#utility.yul\":30739:30764   */\n      swap2\n      pop\n        /* \"#utility.yul\":30778:30798   */\n      tag_699\n        /* \"#utility.yul\":30796:30797   */\n      dup4\n        /* \"#utility.yul\":30778:30798   */\n      tag_340\n      jump\t// in\n    tag_699:\n        /* \"#utility.yul\":30773:30798   */\n      swap3\n      pop\n        /* \"#utility.yul\":30821:30822   */\n      dup3\n        /* \"#utility.yul\":30818:30819   */\n      dup3\n        /* \"#utility.yul\":30814:30823   */\n      add\n        /* \"#utility.yul\":30807:30823   */\n      swap1\n      pop\n        /* \"#utility.yul\":30842:30845   */\n      dup1\n        /* \"#utility.yul\":30839:30840   */\n      dup3\n        /* \"#utility.yul\":30836:30846   */\n      gt\n        /* \"#utility.yul\":30833:30869   */\n      iszero\n      tag_700\n      jumpi\n        /* \"#utility.yul\":30849:30867   */\n      tag_701\n      tag_399\n      jump\t// in\n    tag_701:\n        /* \"#utility.yul\":30833:30869   */\n    tag_700:\n        /* \"#utility.yul\":30685:30876   */\n      swap3\n      swap2\n      pop\n      pop\n      jump\t// out\n        /* \"#utility.yul\":30882:31050   */\n    tag_404:\n        /* \"#utility.yul\":31022:31042   */\n      0x436f6465206973204e6f7420556e697175650000000000000000000000000000\n        /* \"#utility.yul\":31018:31019   */\n      0x00\n        /* \"#utility.yul\":31010:31016   */\n      dup3\n        /* \"#utility.yul\":31006:31020   */\n      add\n        /* \"#utility.yul\":30999:31043   */\n      mstore\n        /* \"#utility.yul\":30882:31050   */\n      pop\n      jump\t// out\n        /* \"#utility.yul\":31056:31422   */\n    tag_405:\n        /* \"#utility.yul\":31198:31201   */\n      0x00\n        /* \"#utility.yul\":31219:31286   */\n      tag_704\n        /* \"#utility.yul\":31283:31285   */\n      0x12\n        /* \"#utility.yul\":31278:31281   */\n      dup4\n        /* \"#utility.yul\":31219:31286   */\n      tag_364\n      jump\t// in\n    tag_704:\n        /* \"#utility.yul\":31212:31286   */\n      swap2\n      pop\n        /* \"#utility.yul\":31295:31388   */\n      tag_705\n        /* \"#utility.yul\":31384:31387   */\n      dup3\n        /* \"#utility.yul\":31295:31388   */\n      tag_404\n      jump\t// in\n    tag_705:\n        /* \"#utility.yul\":31413:31415   */\n      0x20\n        /* \"#utility.yul\":31408:31411   */\n      dup3\n        /* \"#utility.yul\":31404:31416   */\n      add\n        /* \"#utility.yul\":31397:31416   */\n      swap1\n      pop\n        /* \"#utility.yul\":31056:31422   */\n      swap2\n      swap1\n      pop\n      jump\t// out\n        /* \"#utility.yul\":31428:31847   */\n    tag_296:\n        /* \"#utility.yul\":31594:31598   */\n      0x00\n        /* \"#utility.yul\":31632:31634   */\n      0x20\n        /* \"#utility.yul\":31621:31630   */\n      dup3\n        /* \"#utility.yul\":31617:31635   */\n      add\n        /* \"#utility.yul\":31609:31635   */\n      swap1\n      pop\n        /* \"#utility.yul\":31681:31690   */\n      dup2\n        /* \"#utility.yul\":31675:31679   */\n      dup2\n        /* \"#utility.yul\":31671:31691   */\n      sub\n        /* \"#utility.yul\":31667:31668   */\n      0x00\n        /* \"#utility.yul\":31656:31665   */\n      dup4\n        /* \"#utility.yul\":31652:31669   */\n      add\n        /* \"#utility.yul\":31645:31692   */\n      mstore\n        /* \"#utility.yul\":31709:31840   */\n      tag_707\n        /* \"#utility.yul\":31835:31839   */\n      dup2\n        /* \"#utility.yul\":31709:31840   */\n      tag_405\n      jump\t// in\n    tag_707:\n        /* \"#utility.yul\":31701:31840   */\n      swap1\n      pop\n        /* \"#utility.yul\":31428:31847   */\n      swap2\n      swap1\n      pop\n      jump\t// out\n        /* \"#utility.yul\":31853:31932   */\n    tag_406:\n        /* \"#utility.yul\":31892:31899   */\n      0x00\n        /* \"#utility.yul\":31921:31926   */\n      dup2\n        /* \"#utility.yul\":31910:31926   */\n      swap1\n      pop\n        /* \"#utility.yul\":31853:31932   */\n      swap2\n      swap1\n      pop\n      jump\t// out\n        /* \"#utility.yul\":31938:32095   */\n    tag_407:\n        /* \"#utility.yul\":32043:32088   */\n      tag_710\n        /* \"#utility.yul\":32063:32087   */\n      tag_711\n        /* \"#utility.yul\":32081:32086   */\n      dup3\n        /* \"#utility.yul\":32063:32087   */\n      tag_340\n      jump\t// in\n    tag_711:\n        /* \"#utility.yul\":32043:32088   */\n      tag_406\n      jump\t// in\n    tag_710:\n        /* \"#utility.yul\":32038:32041   */\n      dup3\n        /* \"#utility.yul\":32031:32089   */\n      mstore\n        /* \"#utility.yul\":31938:32095   */\n      pop\n      pop\n      jump\t// out\n        /* \"#utility.yul\":32101:32639   */\n    tag_315:\n        /* \"#utility.yul\":32269:32272   */\n      0x00\n        /* \"#utility.yul\":32284:32359   */\n      tag_713\n        /* \"#utility.yul\":32355:32358   */\n      dup3\n        /* \"#utility.yul\":32346:32352   */\n      dup7\n        /* \"#utility.yul\":32284:32359   */\n      tag_407\n      jump\t// in\n    tag_713:\n        /* \"#utility.yul\":32384:32386   */\n      0x20\n        /* \"#utility.yul\":32379:32382   */\n      dup3\n        /* \"#utility.yul\":32375:32387   */\n      add\n        /* \"#utility.yul\":32368:32387   */\n      swap2\n      pop\n        /* \"#utility.yul\":32397:32472   */\n      tag_714\n        /* \"#utility.yul\":32468:32471   */\n      dup3\n        /* \"#utility.yul\":32459:32465   */\n      dup6\n        /* \"#utility.yul\":32397:32472   */\n      tag_407\n      jump\t// in\n    tag_714:\n        /* \"#utility.yul\":32497:32499   */\n      0x20\n        /* \"#utility.yul\":32492:32495   */\n      dup3\n        /* \"#utility.yul\":32488:32500   */\n      add\n        /* \"#utility.yul\":32481:32500   */\n      swap2\n      pop\n        /* \"#utility.yul\":32510:32585   */\n      tag_715\n        /* \"#utility.yul\":32581:32584   */\n      dup3\n        /* \"#utility.yul\":32572:32578   */\n      dup5\n        /* \"#utility.yul\":32510:32585   */\n      tag_407\n      jump\t// in\n    tag_715:\n        /* \"#utility.yul\":32610:32612   */\n      0x20\n        /* \"#utility.yul\":32605:32608   */\n      dup3\n        /* \"#utility.yul\":32601:32613   */\n      add\n        /* \"#utility.yul\":32594:32613   */\n      swap2\n      pop\n        /* \"#utility.yul\":32630:32633   */\n      dup2\n        /* \"#utility.yul\":32623:32633   */\n      swap1\n      pop\n        /* \"#utility.yul\":32101:32639   */\n      swap5\n      swap4\n      pop\n      pop\n      pop\n      pop\n      jump\t// out\n\n    auxdata: 0xa2646970667358221220a4796945b075d5bb3dbc9141717859ee3e17e70c5565e309428b65a79fe00e1d64736f6c634300081a0033\n}\n",
				"bytecode": {
					"linkReferences": {},
					"object": "608060405234801561000f575f80fd5b5060405180606001604052806040518060400160405280600f81526020017f4962726168696d204d6f68616d65640000000000000000000000000000000000815250815260200160018081111561006957610068610371565b5b815260200160018081111561008157610080610371565b5b8152505f80738dc03105ba1a429fc962ebe37766b8601d70e0d673ffffffffffffffffffffffffffffffffffffffff1673ffffffffffffffffffffffffffffffffffffffff1681526020019081526020015f205f820151815f0190816100e791906105d8565b506020820151816001015f6101000a81548160ff0219169083600181111561011257610111610371565b5b021790555060408201518160010160016101000a81548160ff0219169083600181111561014257610141610371565b5b02179055509050506004738dc03105ba1a429fc962ebe37766b8601d70e0d6908060018154018082558091505060019003905f5260205f20015f9091909190916101000a81548173ffffffffffffffffffffffffffffffffffffffff021916908373ffffffffffffffffffffffffffffffffffffffff16021790555060405180606001604052806040518060400160405280600b81526020017f4f62616461205361667761000000000000000000000000000000000000000000815250815260200160018081111561021757610216610371565b5b815260200160018081111561022f5761022e610371565b5b8152505f8073ad009219d5052664e665c2a95f12e4abea6730c073ffffffffffffffffffffffffffffffffffffffff1673ffffffffffffffffffffffffffffffffffffffff1681526020019081526020015f205f820151815f01908161029591906105d8565b506020820151816001015f6101000a81548160ff021916908360018111156102c0576102bf610371565b5b021790555060408201518160010160016101000a81548160ff021916908360018111156102f0576102ef610371565b5b0217905550905050600473ad009219d5052664e665c2a95f12e4abea6730c0908060018154018082558091505060019003905f5260205f20015f9091909190916101000a81548173ffffffffffffffffffffffffffffffffffffffff021916908373ffffffffffffffffffffffffffffffffffffffff1602179055506106a7565b7f4e487b71000000000000000000000000000000000000000000000000000000005f52602160045260245ffd5b5f81519050919050565b7f4e487b71000000000000000000000000000000000000000000000000000000005f52604160045260245ffd5b7f4e487b71000000000000000000000000000000000000000000000000000000005f52602260045260245ffd5b5f600282049050600182168061041957607f821691505b60208210810361042c5761042b6103d5565b5b50919050565b5f819050815f5260205f209050919050565b5f6020601f8301049050919050565b5f82821b905092915050565b5f6008830261048e7fffffffffffffffffffffffffffffffffffffffffffffffffffffffffffffffff82610453565b6104988683610453565b95508019841693508086168417925050509392505050565b5f819050919050565b5f819050919050565b5f6104dc6104d76104d2846104b0565b6104b9565b6104b0565b9050919050565b5f819050919050565b6104f5836104c2565b610509610501826104e3565b84845461045f565b825550505050565b5f90565b61051d610511565b6105288184846104ec565b505050565b5b8181101561054b576105405f82610515565b60018101905061052e565b5050565b601f8211156105905761056181610432565b61056a84610444565b81016020851015610579578190505b61058d61058585610444565b83018261052d565b50505b505050565b5f82821c905092915050565b5f6105b05f1984600802610595565b1980831691505092915050565b5f6105c883836105a1565b9150826002028217905092915050565b6105e18261039e565b67ffffffffffffffff8111156105fa576105f96103a8565b5b6106048254610402565b61060f82828561054f565b5f60209050601f831160018114610640575f841561062e578287015190505b61063885826105bd565b86555061069f565b601f19841661064e86610432565b5f5b8281101561067557848901518255600182019150602085019450602081019050610650565b86831015610692578489015161068e601f8916826105a1565b8355505b6001600288020188555050505b505050505050565b612920806106b45f395ff3fe60806040526004361061007e575f3560e01c8063a34f011c1161004d578063a34f011c1461012b578063a927db0d14610135578063b6db75a01461015f578063d9c8a38b1461018957610085565b8063223668441461008757806327e26c8c146100b15780632b4a9dda146100d95780638f0e582f1461010357610085565b3661008557005b005b348015610092575f80fd5b5061009b6101b3565b6040516100a89190611966565b60405180910390f35b3480156100bc575f80fd5b506100d760048036038101906100d291906119e8565b610206565b005b3480156100e4575f80fd5b506100ed6105b9565b6040516100fa9190611c6a565b60405180910390f35b34801561010e575f80fd5b5061012960048036038101906101249190611cad565b610b66565b005b610133610cff565b005b348015610140575f80fd5b50610149610df9565b6040516101569190611c6a565b60405180910390f35b34801561016a575f80fd5b5061017361120e565b6040516101809190611966565b60405180910390f35b348015610194575f80fd5b5061019d611313565b6040516101aa9190611de3565b60405180910390f35b5f805f803373ffffffffffffffffffffffffffffffffffffffff1673ffffffffffffffffffffffffffffffffffffffff1681526020019081526020015f205f0180546101fe90611e30565b905011905090565b81818080601f0160208091040260200160405190810160405280939291908181526020018383808284375f81840152601f19601f8201169050808301925050505050505060018081111561025d5761025c611ae4565b5b60018260405161026d9190611e9a565b90815260200160405180910390206003015f9054906101000a900460ff16600181111561029d5761029c611ae4565b5b146102dd576040517f08c379a00000000000000000000000000000000000000000000000000000000081526004016102d490611f0a565b60405180910390fd5b5f805f3373ffffffffffffffffffffffffffffffffffffffff1673ffffffffffffffffffffffffffffffffffffffff1681526020019081526020015f205f01805461032790611e30565b905011610369576040517f08c379a000000000000000000000000000000000000000000000000000000000815260040161036090611f72565b60405180910390fd5b60025f9054906101000a900460ff16156103b8576040517f08c379a00000000000000000000000000000000000000000000000000000000081526004016103af90611fda565b60405180910390fd5b600160025f6101000a81548160ff0219169083151502179055505f600184846040516103e592919061202a565b908152602001604051809103902090505f816002015490505f811161043f576040517f08c379a00000000000000000000000000000000000000000000000000000000081526004016104369061208c565b60405180910390fd5b5f826003015f6101000a81548160ff0219169083600181111561046557610464611ae4565b5b02179055505f803373ffffffffffffffffffffffffffffffffffffffff1673ffffffffffffffffffffffffffffffffffffffff1681526020019081526020015f205f018260040190816104b8919061229b565b505f3373ffffffffffffffffffffffffffffffffffffffff16826040516104de906123ad565b5f6040518083038185875af1925050503d805f8114610518576040519150601f19603f3d011682016040523d82523d5f602084013e61051d565b606091505b5050905080610561576040517f08c379a00000000000000000000000000000000000000000000000000000000081526004016105589061240b565b60405180910390fd5b7f604d6de1b6eb3f39c6ab9d4981a20d17f88c5bef33495ae58dabeb097ba7a41a826040516105909190612438565b60405180910390a15050505f60025f6101000a81548160ff021916908315150217905550505050565b60605f805f3373ffffffffffffffffffffffffffffffffffffffff1673ffffffffffffffffffffffffffffffffffffffff1681526020019081526020015f205f01805461060590611e30565b905011610647576040517f08c379a000000000000000000000000000000000000000000000000000000000815260040161063e90611f72565b60405180910390fd5b5f80805f3373ffffffffffffffffffffffffffffffffffffffff1673ffffffffffffffffffffffffffffffffffffffff1681526020019081526020015f205f0160405160200161069791906124d1565b6040516020818303038152906040528051906020012090505f5b6003805490508110156107ae57816001600383815481106106d5576106d46124e7565b5b905f5260205f20016040516106ea91906124d1565b908152602001604051809103902060010160405160200161070b91906124d1565b60405160208183030381529060405280519060200120148061078d57508160016003838154811061073f5761073e6124e7565b5b905f5260205f200160405161075491906124d1565b908152602001604051809103902060040160405160200161077591906124d1565b60405160208183030381529060405280519060200120145b156107a157828061079d90612541565b9350505b80806001019150506106b1565b505f8267ffffffffffffffff8111156107ca576107c96120bf565b5b60405190808252806020026020018201604052801561080357816020015b6107f06118ca565b8152602001906001900390816107e85790505b5090505f805b600380549050811015610b5b578360016003838154811061082d5761082c6124e7565b5b905f5260205f200160405161084291906124d1565b908152602001604051809103902060010160405160200161086391906124d1565b6040516020818303038152906040528051906020012014806108e5575083600160038381548110610897576108966124e7565b5b905f5260205f20016040516108ac91906124d1565b90815260200160405180910390206004016040516020016108cd91906124d1565b60405160208183030381529060405280519060200120145b15610b4e57600160038281548110610900576108ff6124e7565b5b905f5260205f200160405161091591906124d1565b90815260200160405180910390206040518060a00160405290815f8201805461093d90611e30565b80601f016020809104026020016040519081016040528092919081815260200182805461096990611e30565b80156109b45780601f1061098b576101008083540402835291602001916109b4565b820191905f5260205f20905b81548152906001019060200180831161099757829003601f168201915b505050505081526020016001820180546109cd90611e30565b80601f01602080910402602001604051908101604052809291908181526020018280546109f990611e30565b8015610a445780601f10610a1b57610100808354040283529160200191610a44565b820191905f5260205f20905b815481529060010190602001808311610a2757829003601f168201915b5050505050815260200160028201548152602001600382015f9054906101000a900460ff166001811115610a7b57610a7a611ae4565b5b6001811115610a8d57610a8c611ae4565b5b8152602001600482018054610aa190611e30565b80601f0160208091040260200160405190810160405280929190818152602001828054610acd90611e30565b8015610b185780601f10610aef57610100808354040283529160200191610b18565b820191905f5260205f20905b815481529060010190602001808311610afb57829003601f168201915b505050505081525050838381518110610b3457610b336124e7565b5b60200260200101819052508180610b4a90612541565b9250505b8080600101915050610809565b508194505050505090565b600433908060018154018082558091505060019003905f5260205f20015f9091909190916101000a81548173ffffffffffffffffffffffffffffffffffffffff021916908373ffffffffffffffffffffffffffffffffffffffff160217905550604051806060016040528084848080601f0160208091040260200160405190810160405280939291908181526020018383808284375f81840152601f19601f820116905080830192505050505050508152602001826001811115610c2d57610c2c611ae4565b5b81526020015f6001811115610c4557610c44611ae4565b5b8152505f803373ffffffffffffffffffffffffffffffffffffffff1673ffffffffffffffffffffffffffffffffffffffff1681526020019081526020015f205f820151815f019081610c979190612588565b506020820151816001015f6101000a81548160ff02191690836001811115610cc257610cc1611ae4565b5b021790555060408201518160010160016101000a81548160ff02191690836001811115610cf257610cf1611ae4565b5b0217905550905050505050565b5f805f3373ffffffffffffffffffffffffffffffffffffffff1673ffffffffffffffffffffffffffffffffffffffff1681526020019081526020015f205f018054610d4990611e30565b905011610d8b576040517f08c379a0000000000000000000000000000000000000000000000000000000008152600401610d8290611f72565b60405180910390fd5b5f6064605a34610d9b9190612657565b610da591906126c5565b90505f610db06114f7565b9050610dbc81836115d4565b7f19446f6741eca6d71b8406898c4308b5f1b9844f9f1ea7614b48264e453b9bd28183604051610ded92919061272d565b60405180910390a15050565b60605f805f3373ffffffffffffffffffffffffffffffffffffffff1673ffffffffffffffffffffffffffffffffffffffff1681526020019081526020015f205f018054610e4590611e30565b905011610e87576040517f08c379a0000000000000000000000000000000000000000000000000000000008152600401610e7e90611f72565b60405180910390fd5b600180811115610e9a57610e99611ae4565b5b5f803373ffffffffffffffffffffffffffffffffffffffff1673ffffffffffffffffffffffffffffffffffffffff1681526020019081526020015f2060010160019054906101000a900460ff166001811115610ef957610ef8611ae4565b5b14610f39576040517f08c379a0000000000000000000000000000000000000000000000000000000008152600401610f30906127a5565b60405180910390fd5b5f60038054905090505f8167ffffffffffffffff811115610f5d57610f5c6120bf565b5b604051908082528060200260200182016040528015610f9657816020015b610f836118ca565b815260200190600190039081610f7b5790505b5090505f5b8281101561120557600160038281548110610fb957610fb86124e7565b5b905f5260205f2001604051610fce91906124d1565b90815260200160405180910390206040518060a00160405290815f82018054610ff690611e30565b80601f016020809104026020016040519081016040528092919081815260200182805461102290611e30565b801561106d5780601f106110445761010080835404028352916020019161106d565b820191905f5260205f20905b81548152906001019060200180831161105057829003601f168201915b5050505050815260200160018201805461108690611e30565b80601f01602080910402602001604051908101604052809291908181526020018280546110b290611e30565b80156110fd5780601f106110d4576101008083540402835291602001916110fd565b820191905f5260205f20905b8154815290600101906020018083116110e057829003601f168201915b5050505050815260200160028201548152602001600382015f9054906101000a900460ff16600181111561113457611133611ae4565b5b600181111561114657611145611ae4565b5b815260200160048201805461115a90611e30565b80601f016020809104026020016040519081016040528092919081815260200182805461118690611e30565b80156111d15780601f106111a8576101008083540402835291602001916111d1565b820191905f5260205f20905b8154815290600101906020018083116111b457829003601f168201915b5050505050815250508282815181106111ed576111ec6124e7565b5b60200260200101819052508080600101915050610f9b565b50809250505090565b5f805f803373ffffffffffffffffffffffffffffffffffffffff1673ffffffffffffffffffffffffffffffffffffffff1681526020019081526020015f205f01805461125990611e30565b90501161129b576040517f08c379a000000000000000000000000000000000000000000000000000000000815260040161129290611f72565b60405180910390fd5b6001808111156112ae576112ad611ae4565b5b5f803373ffffffffffffffffffffffffffffffffffffffff1673ffffffffffffffffffffffffffffffffffffffff1681526020019081526020015f2060010160019054906101000a900460ff16600181111561130d5761130c611ae4565b5b14905090565b61131b611909565b5f805f3373ffffffffffffffffffffffffffffffffffffffff1673ffffffffffffffffffffffffffffffffffffffff1681526020019081526020015f205f01805461136590611e30565b9050116113a7576040517f08c379a000000000000000000000000000000000000000000000000000000000815260040161139e90611f72565b60405180910390fd5b5f803373ffffffffffffffffffffffffffffffffffffffff1673ffffffffffffffffffffffffffffffffffffffff1681526020019081526020015f206040518060600160405290815f820180546113fd90611e30565b80601f016020809104026020016040519081016040528092919081815260200182805461142990611e30565b80156114745780601f1061144b57610100808354040283529160200191611474565b820191905f5260205f20905b81548152906001019060200180831161145757829003601f168201915b50505050508152602001600182015f9054906101000a900460ff1660018111156114a1576114a0611ae4565b5b60018111156114b3576114b2611ae4565b5b81526020016001820160019054906101000a900460ff1660018111156114dc576114db611ae4565b5b60018111156114ee576114ed611ae4565b5b81525050905090565b60605f600f67ffffffffffffffff811115611515576115146120bf565b5b6040519080825280601f01601f1916602001820160405280156115475781602001600182028036833780820191505090505b5090505f5b600f8110156115cc575f61155f82611888565b9050601a8161156e91906127c3565b606161157a91906127f3565b60f81b8383815181106115905761158f6124e7565b5b60200101907effffffffffffffffffffffffffffffffffffffffffffffffffffffffffffff191690815f1a90535050808060010191505061154c565b508091505090565b815f805b60038054905081101561166957826040516020016115f69190611e9a565b60405160208183030381529060405280519060200120600382815481106116205761161f6124e7565b5b905f5260205f200160405160200161163891906124d1565b604051602081830303815290604052805190602001200361165c5760019150611669565b80806001019150506115d8565b5080156116ab576040517f08c379a00000000000000000000000000000000000000000000000000000000081526004016116a290612870565b60405180910390fd5b600384908060018154018082558091505060019003905f5260205f20015f9091909190915090816116dc9190612588565b506040518060a001604052808581526020015f803373ffffffffffffffffffffffffffffffffffffffff1673ffffffffffffffffffffffffffffffffffffffff1681526020019081526020015f205f01805461173790611e30565b80601f016020809104026020016040519081016040528092919081815260200182805461176390611e30565b80156117ae5780601f10611785576101008083540402835291602001916117ae565b820191905f5260205f20905b81548152906001019060200180831161179157829003601f168201915b505050505081526020018481526020016001808111156117d1576117d0611ae4565b5b815260200160405180602001604052805f8152508152506001856040516117f89190611e9a565b90815260200160405180910390205f820151815f0190816118199190612588565b50602082015181600101908161182f9190612588565b50604082015181600201556060820151816003015f6101000a81548160ff0219169083600181111561186457611863611ae4565b5b0217905550608082015181600401908161187e9190612588565b5090505050505050565b5f6127104244846040516020016118a1939291906128ae565b604051602081830303815290604052805190602001205f1c6118c391906127c3565b9050919050565b6040518060a0016040528060608152602001606081526020015f81526020015f60018111156118fc576118fb611ae4565b5b8152602001606081525090565b6040518060600160405280606081526020015f600181111561192e5761192d611ae4565b5b81526020015f600181111561194657611945611ae4565b5b81525090565b5f8115159050919050565b6119608161194c565b82525050565b5f6020820190506119795f830184611957565b92915050565b5f80fd5b5f80fd5b5f80fd5b5f80fd5b5f80fd5b5f8083601f8401126119a8576119a7611987565b5b8235905067ffffffffffffffff8111156119c5576119c461198b565b5b6020830191508360018202830111156119e1576119e061198f565b5b9250929050565b5f80602083850312156119fe576119fd61197f565b5b5f83013567ffffffffffffffff811115611a1b57611a1a611983565b5b611a2785828601611993565b92509250509250929050565b5f81519050919050565b5f82825260208201905092915050565b5f819050602082019050919050565b5f81519050919050565b5f82825260208201905092915050565b8281835e5f83830152505050565b5f601f19601f8301169050919050565b5f611a9e82611a5c565b611aa88185611a66565b9350611ab8818560208601611a76565b611ac181611a84565b840191505092915050565b5f819050919050565b611ade81611acc565b82525050565b7f4e487b71000000000000000000000000000000000000000000000000000000005f52602160045260245ffd5b60028110611b2257611b21611ae4565b5b50565b5f819050611b3282611b11565b919050565b5f611b4182611b25565b9050919050565b611b5181611b37565b82525050565b5f60a083015f8301518482035f860152611b718282611a94565b91505060208301518482036020860152611b8b8282611a94565b9150506040830151611ba06040860182611ad5565b506060830151611bb36060860182611b48565b5060808301518482036080860152611bcb8282611a94565b9150508091505092915050565b5f611be38383611b57565b905092915050565b5f602082019050919050565b5f611c0182611a33565b611c0b8185611a3d565b935083602082028501611c1d85611a4d565b805f5b85811015611c585784840389528151611c398582611bd8565b9450611c4483611beb565b925060208a01995050600181019050611c20565b50829750879550505050505092915050565b5f6020820190508181035f830152611c828184611bf7565b905092915050565b60028110611c96575f80fd5b50565b5f81359050611ca781611c8a565b92915050565b5f805f60408486031215611cc457611cc361197f565b5b5f84013567ffffffffffffffff811115611ce157611ce0611983565b5b611ced86828701611993565b93509350506020611d0086828701611c99565b9150509250925092565b60028110611d1b57611d1a611ae4565b5b50565b5f819050611d2b82611d0a565b919050565b5f611d3a82611d1e565b9050919050565b611d4a81611d30565b82525050565b60028110611d6157611d60611ae4565b5b50565b5f819050611d7182611d50565b919050565b5f611d8082611d64565b9050919050565b611d9081611d76565b82525050565b5f606083015f8301518482035f860152611db08282611a94565b9150506020830151611dc56020860182611d41565b506040830151611dd86040860182611d87565b508091505092915050565b5f6020820190508181035f830152611dfb8184611d96565b905092915050565b7f4e487b71000000000000000000000000000000000000000000000000000000005f52602260045260245ffd5b5f6002820490506001821680611e4757607f821691505b602082108103611e5a57611e59611e03565b5b50919050565b5f81905092915050565b5f611e7482611a5c565b611e7e8185611e60565b9350611e8e818560208601611a76565b80840191505092915050565b5f611ea58284611e6a565b915081905092915050565b5f82825260208201905092915050565b7f4361726420697320496e76616c696400000000000000000000000000000000005f82015250565b5f611ef4600f83611eb0565b9150611eff82611ec0565b602082019050919050565b5f6020820190508181035f830152611f2181611ee8565b9050919050565b7f5573657220646f6573206e6f74206578697374000000000000000000000000005f82015250565b5f611f5c601383611eb0565b9150611f6782611f28565b602082019050919050565b5f6020820190508181035f830152611f8981611f50565b9050919050565b7f5265656e7472616e637947756172643a207265656e7472616e742063616c6c005f82015250565b5f611fc4601f83611eb0565b9150611fcf82611f90565b602082019050919050565b5f6020820190508181035f830152611ff181611fb8565b9050919050565b828183375f83830152505050565b5f6120118385611e60565b935061201e838584611ff8565b82840190509392505050565b5f612036828486612006565b91508190509392505050565b7f47696674206361726420686173206e6f2062616c616e636500000000000000005f82015250565b5f612076601883611eb0565b915061208182612042565b602082019050919050565b5f6020820190508181035f8301526120a38161206a565b9050919050565b5f815490506120b881611e30565b9050919050565b7f4e487b71000000000000000000000000000000000000000000000000000000005f52604160045260245ffd5b5f819050815f5260205f209050919050565b5f819050815f5260205f209050919050565b5f6020601f8301049050919050565b5f82821b905092915050565b5f6008830261215a7fffffffffffffffffffffffffffffffffffffffffffffffffffffffffffffffff8261211f565b612164868361211f565b95508019841693508086168417925050509392505050565b5f819050919050565b5f61219f61219a61219584611acc565b61217c565b611acc565b9050919050565b5f819050919050565b6121b883612185565b6121cc6121c4826121a6565b84845461212b565b825550505050565b5f90565b6121e06121d4565b6121eb8184846121af565b505050565b5b8181101561220e576122035f826121d8565b6001810190506121f1565b5050565b601f82111561225357612224816120ec565b61222d84612110565b8101602085101561223c578190505b61225061224885612110565b8301826121f0565b50505b505050565b5f82821c905092915050565b5f6122735f1984600802612258565b1980831691505092915050565b5f61228b8383612264565b9150826002028217905092915050565b8181036122a957505061237e565b6122b2826120aa565b67ffffffffffffffff8111156122cb576122ca6120bf565b5b6122d58254611e30565b6122e0828285612212565b5f601f83116001811461230d575f84156122fb578287015490505b6123058582612280565b865550612377565b601f19841661231b876120fe565b9650612326866120ec565b5f5b8281101561234d57848901548255600182019150600185019450602081019050612328565b8683101561236a5784890154612366601f891682612264565b8355505b6001600288020188555050505b5050505050505b565b5f81905092915050565b50565b5f6123985f83612380565b91506123a38261238a565b5f82019050919050565b5f6123b78261238d565b9150819050919050565b7f4574686572207472616e73666572206661696c656400000000000000000000005f82015250565b5f6123f5601583611eb0565b9150612400826123c1565b602082019050919050565b5f6020820190508181035f830152612422816123e9565b9050919050565b61243281611acc565b82525050565b5f60208201905061244b5f830184612429565b92915050565b5f815461245d81611e30565b6124678186611e60565b9450600182165f81146124815760018114612496576124c8565b60ff19831686528115158202860193506124c8565b61249f856120ec565b5f5b838110156124c0578154818901526001820191506020810190506124a1565b838801955050505b50505092915050565b5f6124dc8284612451565b915081905092915050565b7f4e487b71000000000000000000000000000000000000000000000000000000005f52603260045260245ffd5b7f4e487b71000000000000000000000000000000000000000000000000000000005f52601160045260245ffd5b5f61254b82611acc565b91507fffffffffffffffffffffffffffffffffffffffffffffffffffffffffffffffff820361257d5761257c612514565b5b600182019050919050565b61259182611a5c565b67ffffffffffffffff8111156125aa576125a96120bf565b5b6125b48254611e30565b6125bf828285612212565b5f60209050601f8311600181146125f0575f84156125de578287015190505b6125e88582612280565b86555061264f565b601f1984166125fe866120ec565b5f5b8281101561262557848901518255600182019150602085019450602081019050612600565b86831015612642578489015161263e601f891682612264565b8355505b6001600288020188555050505b505050505050565b5f61266182611acc565b915061266c83611acc565b925082820261267a81611acc565b9150828204841483151761269157612690612514565b5b5092915050565b7f4e487b71000000000000000000000000000000000000000000000000000000005f52601260045260245ffd5b5f6126cf82611acc565b91506126da83611acc565b9250826126ea576126e9612698565b5b828204905092915050565b5f6126ff82611a5c565b6127098185611eb0565b9350612719818560208601611a76565b61272281611a84565b840191505092915050565b5f6040820190508181035f83015261274581856126f5565b90506127546020830184612429565b9392505050565b7f596f7520617265206e6f7420616e2061646d696e0000000000000000000000005f82015250565b5f61278f601483611eb0565b915061279a8261275b565b602082019050919050565b5f6020820190508181035f8301526127bc81612783565b9050919050565b5f6127cd82611acc565b91506127d883611acc565b9250826127e8576127e7612698565b5b828206905092915050565b5f6127fd82611acc565b915061280883611acc565b92508282019050808211156128205761281f612514565b5b92915050565b7f436f6465206973204e6f7420556e6971756500000000000000000000000000005f82015250565b5f61285a601283611eb0565b915061286582612826565b602082019050919050565b5f6020820190508181035f8301526128878161284e565b9050919050565b5f819050919050565b6128a86128a382611acc565b61288e565b82525050565b5f6128b98286612897565b6020820191506128c98285612897565b6020820191506128d98284612897565b60208201915081905094935050505056fea2646970667358221220a4796945b075d5bb3dbc9141717859ee3e17e70c5565e309428b65a79fe00e1d64736f6c634300081a0033",
					"opcodes": "PUSH1 0x80 PUSH1 0x40 MSTORE CALLVALUE DUP1 ISZERO PUSH2 0xF JUMPI PUSH0 DUP1 REVERT JUMPDEST POP PUSH1 0x40 MLOAD DUP1 PUSH1 0x60 ADD PUSH1 0x40 MSTORE DUP1 PUSH1 0x40 MLOAD DUP1 PUSH1 0x40 ADD PUSH1 0x40 MSTORE DUP1 PUSH1 0xF DUP2 MSTORE PUSH1 0x20 ADD PUSH32 0x4962726168696D204D6F68616D65640000000000000000000000000000000000 DUP2 MSTORE POP DUP2 MSTORE PUSH1 0x20 ADD PUSH1 0x1 DUP1 DUP2 GT ISZERO PUSH2 0x69 JUMPI PUSH2 0x68 PUSH2 0x371 JUMP JUMPDEST JUMPDEST DUP2 MSTORE PUSH1 0x20 ADD PUSH1 0x1 DUP1 DUP2 GT ISZERO PUSH2 0x81 JUMPI PUSH2 0x80 PUSH2 0x371 JUMP JUMPDEST JUMPDEST DUP2 MSTORE POP PUSH0 DUP1 PUSH20 0x8DC03105BA1A429FC962EBE37766B8601D70E0D6 PUSH20 0xFFFFFFFFFFFFFFFFFFFFFFFFFFFFFFFFFFFFFFFF AND PUSH20 0xFFFFFFFFFFFFFFFFFFFFFFFFFFFFFFFFFFFFFFFF AND DUP2 MSTORE PUSH1 0x20 ADD SWAP1 DUP2 MSTORE PUSH1 0x20 ADD PUSH0 KECCAK256 PUSH0 DUP3 ADD MLOAD DUP2 PUSH0 ADD SWAP1 DUP2 PUSH2 0xE7 SWAP2 SWAP1 PUSH2 0x5D8 JUMP JUMPDEST POP PUSH1 0x20 DUP3 ADD MLOAD DUP2 PUSH1 0x1 ADD PUSH0 PUSH2 0x100 EXP DUP2 SLOAD DUP2 PUSH1 0xFF MUL NOT AND SWAP1 DUP4 PUSH1 0x1 DUP2 GT ISZERO PUSH2 0x112 JUMPI PUSH2 0x111 PUSH2 0x371 JUMP JUMPDEST JUMPDEST MUL OR SWAP1 SSTORE POP PUSH1 0x40 DUP3 ADD MLOAD DUP2 PUSH1 0x1 ADD PUSH1 0x1 PUSH2 0x100 EXP DUP2 SLOAD DUP2 PUSH1 0xFF MUL NOT AND SWAP1 DUP4 PUSH1 0x1 DUP2 GT ISZERO PUSH2 0x142 JUMPI PUSH2 0x141 PUSH2 0x371 JUMP JUMPDEST JUMPDEST MUL OR SWAP1 SSTORE POP SWAP1 POP POP PUSH1 0x4 PUSH20 0x8DC03105BA1A429FC962EBE37766B8601D70E0D6 SWAP1 DUP1 PUSH1 0x1 DUP2 SLOAD ADD DUP1 DUP3 SSTORE DUP1 SWAP2 POP POP PUSH1 0x1 SWAP1 SUB SWAP1 PUSH0 MSTORE PUSH1 0x20 PUSH0 KECCAK256 ADD PUSH0 SWAP1 SWAP2 SWAP1 SWAP2 SWAP1 SWAP2 PUSH2 0x100 EXP DUP2 SLOAD DUP2 PUSH20 0xFFFFFFFFFFFFFFFFFFFFFFFFFFFFFFFFFFFFFFFF MUL NOT AND SWAP1 DUP4 PUSH20 0xFFFFFFFFFFFFFFFFFFFFFFFFFFFFFFFFFFFFFFFF AND MUL OR SWAP1 SSTORE POP PUSH1 0x40 MLOAD DUP1 PUSH1 0x60 ADD PUSH1 0x40 MSTORE DUP1 PUSH1 0x40 MLOAD DUP1 PUSH1 0x40 ADD PUSH1 0x40 MSTORE DUP1 PUSH1 0xB DUP2 MSTORE PUSH1 0x20 ADD PUSH32 0x4F62616461205361667761000000000000000000000000000000000000000000 DUP2 MSTORE POP DUP2 MSTORE PUSH1 0x20 ADD PUSH1 0x1 DUP1 DUP2 GT ISZERO PUSH2 0x217 JUMPI PUSH2 0x216 PUSH2 0x371 JUMP JUMPDEST JUMPDEST DUP2 MSTORE PUSH1 0x20 ADD PUSH1 0x1 DUP1 DUP2 GT ISZERO PUSH2 0x22F JUMPI PUSH2 0x22E PUSH2 0x371 JUMP JUMPDEST JUMPDEST DUP2 MSTORE POP PUSH0 DUP1 PUSH20 0xAD009219D5052664E665C2A95F12E4ABEA6730C0 PUSH20 0xFFFFFFFFFFFFFFFFFFFFFFFFFFFFFFFFFFFFFFFF AND PUSH20 0xFFFFFFFFFFFFFFFFFFFFFFFFFFFFFFFFFFFFFFFF AND DUP2 MSTORE PUSH1 0x20 ADD SWAP1 DUP2 MSTORE PUSH1 0x20 ADD PUSH0 KECCAK256 PUSH0 DUP3 ADD MLOAD DUP2 PUSH0 ADD SWAP1 DUP2 PUSH2 0x295 SWAP2 SWAP1 PUSH2 0x5D8 JUMP JUMPDEST POP PUSH1 0x20 DUP3 ADD MLOAD DUP2 PUSH1 0x1 ADD PUSH0 PUSH2 0x100 EXP DUP2 SLOAD DUP2 PUSH1 0xFF MUL NOT AND SWAP1 DUP4 PUSH1 0x1 DUP2 GT ISZERO PUSH2 0x2C0 JUMPI PUSH2 0x2BF PUSH2 0x371 JUMP JUMPDEST JUMPDEST MUL OR SWAP1 SSTORE POP PUSH1 0x40 DUP3 ADD MLOAD DUP2 PUSH1 0x1 ADD PUSH1 0x1 PUSH2 0x100 EXP DUP2 SLOAD DUP2 PUSH1 0xFF MUL NOT AND SWAP1 DUP4 PUSH1 0x1 DUP2 GT ISZERO PUSH2 0x2F0 JUMPI PUSH2 0x2EF PUSH2 0x371 JUMP JUMPDEST JUMPDEST MUL OR SWAP1 SSTORE POP SWAP1 POP POP PUSH1 0x4 PUSH20 0xAD009219D5052664E665C2A95F12E4ABEA6730C0 SWAP1 DUP1 PUSH1 0x1 DUP2 SLOAD ADD DUP1 DUP3 SSTORE DUP1 SWAP2 POP POP PUSH1 0x1 SWAP1 SUB SWAP1 PUSH0 MSTORE PUSH1 0x20 PUSH0 KECCAK256 ADD PUSH0 SWAP1 SWAP2 SWAP1 SWAP2 SWAP1 SWAP2 PUSH2 0x100 EXP DUP2 SLOAD DUP2 PUSH20 0xFFFFFFFFFFFFFFFFFFFFFFFFFFFFFFFFFFFFFFFF MUL NOT AND SWAP1 DUP4 PUSH20 0xFFFFFFFFFFFFFFFFFFFFFFFFFFFFFFFFFFFFFFFF AND MUL OR SWAP1 SSTORE POP PUSH2 0x6A7 JUMP JUMPDEST PUSH32 0x4E487B7100000000000000000000000000000000000000000000000000000000 PUSH0 MSTORE PUSH1 0x21 PUSH1 0x4 MSTORE PUSH1 0x24 PUSH0 REVERT JUMPDEST PUSH0 DUP2 MLOAD SWAP1 POP SWAP2 SWAP1 POP JUMP JUMPDEST PUSH32 0x4E487B7100000000000000000000000000000000000000000000000000000000 PUSH0 MSTORE PUSH1 0x41 PUSH1 0x4 MSTORE PUSH1 0x24 PUSH0 REVERT JUMPDEST PUSH32 0x4E487B7100000000000000000000000000000000000000000000000000000000 PUSH0 MSTORE PUSH1 0x22 PUSH1 0x4 MSTORE PUSH1 0x24 PUSH0 REVERT JUMPDEST PUSH0 PUSH1 0x2 DUP3 DIV SWAP1 POP PUSH1 0x1 DUP3 AND DUP1 PUSH2 0x419 JUMPI PUSH1 0x7F DUP3 AND SWAP2 POP JUMPDEST PUSH1 0x20 DUP3 LT DUP2 SUB PUSH2 0x42C JUMPI PUSH2 0x42B PUSH2 0x3D5 JUMP JUMPDEST JUMPDEST POP SWAP2 SWAP1 POP JUMP JUMPDEST PUSH0 DUP2 SWAP1 POP DUP2 PUSH0 MSTORE PUSH1 0x20 PUSH0 KECCAK256 SWAP1 POP SWAP2 SWAP1 POP JUMP JUMPDEST PUSH0 PUSH1 0x20 PUSH1 0x1F DUP4 ADD DIV SWAP1 POP SWAP2 SWAP1 POP JUMP JUMPDEST PUSH0 DUP3 DUP3 SHL SWAP1 POP SWAP3 SWAP2 POP POP JUMP JUMPDEST PUSH0 PUSH1 0x8 DUP4 MUL PUSH2 0x48E PUSH32 0xFFFFFFFFFFFFFFFFFFFFFFFFFFFFFFFFFFFFFFFFFFFFFFFFFFFFFFFFFFFFFFFF DUP3 PUSH2 0x453 JUMP JUMPDEST PUSH2 0x498 DUP7 DUP4 PUSH2 0x453 JUMP JUMPDEST SWAP6 POP DUP1 NOT DUP5 AND SWAP4 POP DUP1 DUP7 AND DUP5 OR SWAP3 POP POP POP SWAP4 SWAP3 POP POP POP JUMP JUMPDEST PUSH0 DUP2 SWAP1 POP SWAP2 SWAP1 POP JUMP JUMPDEST PUSH0 DUP2 SWAP1 POP SWAP2 SWAP1 POP JUMP JUMPDEST PUSH0 PUSH2 0x4DC PUSH2 0x4D7 PUSH2 0x4D2 DUP5 PUSH2 0x4B0 JUMP JUMPDEST PUSH2 0x4B9 JUMP JUMPDEST PUSH2 0x4B0 JUMP JUMPDEST SWAP1 POP SWAP2 SWAP1 POP JUMP JUMPDEST PUSH0 DUP2 SWAP1 POP SWAP2 SWAP1 POP JUMP JUMPDEST PUSH2 0x4F5 DUP4 PUSH2 0x4C2 JUMP JUMPDEST PUSH2 0x509 PUSH2 0x501 DUP3 PUSH2 0x4E3 JUMP JUMPDEST DUP5 DUP5 SLOAD PUSH2 0x45F JUMP JUMPDEST DUP3 SSTORE POP POP POP POP JUMP JUMPDEST PUSH0 SWAP1 JUMP JUMPDEST PUSH2 0x51D PUSH2 0x511 JUMP JUMPDEST PUSH2 0x528 DUP2 DUP5 DUP5 PUSH2 0x4EC JUMP JUMPDEST POP POP POP JUMP JUMPDEST JUMPDEST DUP2 DUP2 LT ISZERO PUSH2 0x54B JUMPI PUSH2 0x540 PUSH0 DUP3 PUSH2 0x515 JUMP JUMPDEST PUSH1 0x1 DUP2 ADD SWAP1 POP PUSH2 0x52E JUMP JUMPDEST POP POP JUMP JUMPDEST PUSH1 0x1F DUP3 GT ISZERO PUSH2 0x590 JUMPI PUSH2 0x561 DUP2 PUSH2 0x432 JUMP JUMPDEST PUSH2 0x56A DUP5 PUSH2 0x444 JUMP JUMPDEST DUP2 ADD PUSH1 0x20 DUP6 LT ISZERO PUSH2 0x579 JUMPI DUP2 SWAP1 POP JUMPDEST PUSH2 0x58D PUSH2 0x585 DUP6 PUSH2 0x444 JUMP JUMPDEST DUP4 ADD DUP3 PUSH2 0x52D JUMP JUMPDEST POP POP JUMPDEST POP POP POP JUMP JUMPDEST PUSH0 DUP3 DUP3 SHR SWAP1 POP SWAP3 SWAP2 POP POP JUMP JUMPDEST PUSH0 PUSH2 0x5B0 PUSH0 NOT DUP5 PUSH1 0x8 MUL PUSH2 0x595 JUMP JUMPDEST NOT DUP1 DUP4 AND SWAP2 POP POP SWAP3 SWAP2 POP POP JUMP JUMPDEST PUSH0 PUSH2 0x5C8 DUP4 DUP4 PUSH2 0x5A1 JUMP JUMPDEST SWAP2 POP DUP3 PUSH1 0x2 MUL DUP3 OR SWAP1 POP SWAP3 SWAP2 POP POP JUMP JUMPDEST PUSH2 0x5E1 DUP3 PUSH2 0x39E JUMP JUMPDEST PUSH8 0xFFFFFFFFFFFFFFFF DUP2 GT ISZERO PUSH2 0x5FA JUMPI PUSH2 0x5F9 PUSH2 0x3A8 JUMP JUMPDEST JUMPDEST PUSH2 0x604 DUP3 SLOAD PUSH2 0x402 JUMP JUMPDEST PUSH2 0x60F DUP3 DUP3 DUP6 PUSH2 0x54F JUMP JUMPDEST PUSH0 PUSH1 0x20 SWAP1 POP PUSH1 0x1F DUP4 GT PUSH1 0x1 DUP2 EQ PUSH2 0x640 JUMPI PUSH0 DUP5 ISZERO PUSH2 0x62E JUMPI DUP3 DUP8 ADD MLOAD SWAP1 POP JUMPDEST PUSH2 0x638 DUP6 DUP3 PUSH2 0x5BD JUMP JUMPDEST DUP7 SSTORE POP PUSH2 0x69F JUMP JUMPDEST PUSH1 0x1F NOT DUP5 AND PUSH2 0x64E DUP7 PUSH2 0x432 JUMP JUMPDEST PUSH0 JUMPDEST DUP3 DUP2 LT ISZERO PUSH2 0x675 JUMPI DUP5 DUP10 ADD MLOAD DUP3 SSTORE PUSH1 0x1 DUP3 ADD SWAP2 POP PUSH1 0x20 DUP6 ADD SWAP5 POP PUSH1 0x20 DUP2 ADD SWAP1 POP PUSH2 0x650 JUMP JUMPDEST DUP7 DUP4 LT ISZERO PUSH2 0x692 JUMPI DUP5 DUP10 ADD MLOAD PUSH2 0x68E PUSH1 0x1F DUP10 AND DUP3 PUSH2 0x5A1 JUMP JUMPDEST DUP4 SSTORE POP JUMPDEST PUSH1 0x1 PUSH1 0x2 DUP9 MUL ADD DUP9 SSTORE POP POP POP JUMPDEST POP POP POP POP POP POP JUMP JUMPDEST PUSH2 0x2920 DUP1 PUSH2 0x6B4 PUSH0 CODECOPY PUSH0 RETURN INVALID PUSH1 0x80 PUSH1 0x40 MSTORE PUSH1 0x4 CALLDATASIZE LT PUSH2 0x7E JUMPI PUSH0 CALLDATALOAD PUSH1 0xE0 SHR DUP1 PUSH4 0xA34F011C GT PUSH2 0x4D JUMPI DUP1 PUSH4 0xA34F011C EQ PUSH2 0x12B JUMPI DUP1 PUSH4 0xA927DB0D EQ PUSH2 0x135 JUMPI DUP1 PUSH4 0xB6DB75A0 EQ PUSH2 0x15F JUMPI DUP1 PUSH4 0xD9C8A38B EQ PUSH2 0x189 JUMPI PUSH2 0x85 JUMP JUMPDEST DUP1 PUSH4 0x22366844 EQ PUSH2 0x87 JUMPI DUP1 PUSH4 0x27E26C8C EQ PUSH2 0xB1 JUMPI DUP1 PUSH4 0x2B4A9DDA EQ PUSH2 0xD9 JUMPI DUP1 PUSH4 0x8F0E582F EQ PUSH2 0x103 JUMPI PUSH2 0x85 JUMP JUMPDEST CALLDATASIZE PUSH2 0x85 JUMPI STOP JUMPDEST STOP JUMPDEST CALLVALUE DUP1 ISZERO PUSH2 0x92 JUMPI PUSH0 DUP1 REVERT JUMPDEST POP PUSH2 0x9B PUSH2 0x1B3 JUMP JUMPDEST PUSH1 0x40 MLOAD PUSH2 0xA8 SWAP2 SWAP1 PUSH2 0x1966 JUMP JUMPDEST PUSH1 0x40 MLOAD DUP1 SWAP2 SUB SWAP1 RETURN JUMPDEST CALLVALUE DUP1 ISZERO PUSH2 0xBC JUMPI PUSH0 DUP1 REVERT JUMPDEST POP PUSH2 0xD7 PUSH1 0x4 DUP1 CALLDATASIZE SUB DUP2 ADD SWAP1 PUSH2 0xD2 SWAP2 SWAP1 PUSH2 0x19E8 JUMP JUMPDEST PUSH2 0x206 JUMP JUMPDEST STOP JUMPDEST CALLVALUE DUP1 ISZERO PUSH2 0xE4 JUMPI PUSH0 DUP1 REVERT JUMPDEST POP PUSH2 0xED PUSH2 0x5B9 JUMP JUMPDEST PUSH1 0x40 MLOAD PUSH2 0xFA SWAP2 SWAP1 PUSH2 0x1C6A JUMP JUMPDEST PUSH1 0x40 MLOAD DUP1 SWAP2 SUB SWAP1 RETURN JUMPDEST CALLVALUE DUP1 ISZERO PUSH2 0x10E JUMPI PUSH0 DUP1 REVERT JUMPDEST POP PUSH2 0x129 PUSH1 0x4 DUP1 CALLDATASIZE SUB DUP2 ADD SWAP1 PUSH2 0x124 SWAP2 SWAP1 PUSH2 0x1CAD JUMP JUMPDEST PUSH2 0xB66 JUMP JUMPDEST STOP JUMPDEST PUSH2 0x133 PUSH2 0xCFF JUMP JUMPDEST STOP JUMPDEST CALLVALUE DUP1 ISZERO PUSH2 0x140 JUMPI PUSH0 DUP1 REVERT JUMPDEST POP PUSH2 0x149 PUSH2 0xDF9 JUMP JUMPDEST PUSH1 0x40 MLOAD PUSH2 0x156 SWAP2 SWAP1 PUSH2 0x1C6A JUMP JUMPDEST PUSH1 0x40 MLOAD DUP1 SWAP2 SUB SWAP1 RETURN JUMPDEST CALLVALUE DUP1 ISZERO PUSH2 0x16A JUMPI PUSH0 DUP1 REVERT JUMPDEST POP PUSH2 0x173 PUSH2 0x120E JUMP JUMPDEST PUSH1 0x40 MLOAD PUSH2 0x180 SWAP2 SWAP1 PUSH2 0x1966 JUMP JUMPDEST PUSH1 0x40 MLOAD DUP1 SWAP2 SUB SWAP1 RETURN JUMPDEST CALLVALUE DUP1 ISZERO PUSH2 0x194 JUMPI PUSH0 DUP1 REVERT JUMPDEST POP PUSH2 0x19D PUSH2 0x1313 JUMP JUMPDEST PUSH1 0x40 MLOAD PUSH2 0x1AA SWAP2 SWAP1 PUSH2 0x1DE3 JUMP JUMPDEST PUSH1 0x40 MLOAD DUP1 SWAP2 SUB SWAP1 RETURN JUMPDEST PUSH0 DUP1 PUSH0 DUP1 CALLER PUSH20 0xFFFFFFFFFFFFFFFFFFFFFFFFFFFFFFFFFFFFFFFF AND PUSH20 0xFFFFFFFFFFFFFFFFFFFFFFFFFFFFFFFFFFFFFFFF AND DUP2 MSTORE PUSH1 0x20 ADD SWAP1 DUP2 MSTORE PUSH1 0x20 ADD PUSH0 KECCAK256 PUSH0 ADD DUP1 SLOAD PUSH2 0x1FE SWAP1 PUSH2 0x1E30 JUMP JUMPDEST SWAP1 POP GT SWAP1 POP SWAP1 JUMP JUMPDEST DUP2 DUP2 DUP1 DUP1 PUSH1 0x1F ADD PUSH1 0x20 DUP1 SWAP2 DIV MUL PUSH1 0x20 ADD PUSH1 0x40 MLOAD SWAP1 DUP2 ADD PUSH1 0x40 MSTORE DUP1 SWAP4 SWAP3 SWAP2 SWAP1 DUP2 DUP2 MSTORE PUSH1 0x20 ADD DUP4 DUP4 DUP1 DUP3 DUP5 CALLDATACOPY PUSH0 DUP2 DUP5 ADD MSTORE PUSH1 0x1F NOT PUSH1 0x1F DUP3 ADD AND SWAP1 POP DUP1 DUP4 ADD SWAP3 POP POP POP POP POP POP POP PUSH1 0x1 DUP1 DUP2 GT ISZERO PUSH2 0x25D JUMPI PUSH2 0x25C PUSH2 0x1AE4 JUMP JUMPDEST JUMPDEST PUSH1 0x1 DUP3 PUSH1 0x40 MLOAD PUSH2 0x26D SWAP2 SWAP1 PUSH2 0x1E9A JUMP JUMPDEST SWAP1 DUP2 MSTORE PUSH1 0x20 ADD PUSH1 0x40 MLOAD DUP1 SWAP2 SUB SWAP1 KECCAK256 PUSH1 0x3 ADD PUSH0 SWAP1 SLOAD SWAP1 PUSH2 0x100 EXP SWAP1 DIV PUSH1 0xFF AND PUSH1 0x1 DUP2 GT ISZERO PUSH2 0x29D JUMPI PUSH2 0x29C PUSH2 0x1AE4 JUMP JUMPDEST JUMPDEST EQ PUSH2 0x2DD JUMPI PUSH1 0x40 MLOAD PUSH32 0x8C379A000000000000000000000000000000000000000000000000000000000 DUP2 MSTORE PUSH1 0x4 ADD PUSH2 0x2D4 SWAP1 PUSH2 0x1F0A JUMP JUMPDEST PUSH1 0x40 MLOAD DUP1 SWAP2 SUB SWAP1 REVERT JUMPDEST PUSH0 DUP1 PUSH0 CALLER PUSH20 0xFFFFFFFFFFFFFFFFFFFFFFFFFFFFFFFFFFFFFFFF AND PUSH20 0xFFFFFFFFFFFFFFFFFFFFFFFFFFFFFFFFFFFFFFFF AND DUP2 MSTORE PUSH1 0x20 ADD SWAP1 DUP2 MSTORE PUSH1 0x20 ADD PUSH0 KECCAK256 PUSH0 ADD DUP1 SLOAD PUSH2 0x327 SWAP1 PUSH2 0x1E30 JUMP JUMPDEST SWAP1 POP GT PUSH2 0x369 JUMPI PUSH1 0x40 MLOAD PUSH32 0x8C379A000000000000000000000000000000000000000000000000000000000 DUP2 MSTORE PUSH1 0x4 ADD PUSH2 0x360 SWAP1 PUSH2 0x1F72 JUMP JUMPDEST PUSH1 0x40 MLOAD DUP1 SWAP2 SUB SWAP1 REVERT JUMPDEST PUSH1 0x2 PUSH0 SWAP1 SLOAD SWAP1 PUSH2 0x100 EXP SWAP1 DIV PUSH1 0xFF AND ISZERO PUSH2 0x3B8 JUMPI PUSH1 0x40 MLOAD PUSH32 0x8C379A000000000000000000000000000000000000000000000000000000000 DUP2 MSTORE PUSH1 0x4 ADD PUSH2 0x3AF SWAP1 PUSH2 0x1FDA JUMP JUMPDEST PUSH1 0x40 MLOAD DUP1 SWAP2 SUB SWAP1 REVERT JUMPDEST PUSH1 0x1 PUSH1 0x2 PUSH0 PUSH2 0x100 EXP DUP2 SLOAD DUP2 PUSH1 0xFF MUL NOT AND SWAP1 DUP4 ISZERO ISZERO MUL OR SWAP1 SSTORE POP PUSH0 PUSH1 0x1 DUP5 DUP5 PUSH1 0x40 MLOAD PUSH2 0x3E5 SWAP3 SWAP2 SWAP1 PUSH2 0x202A JUMP JUMPDEST SWAP1 DUP2 MSTORE PUSH1 0x20 ADD PUSH1 0x40 MLOAD DUP1 SWAP2 SUB SWAP1 KECCAK256 SWAP1 POP PUSH0 DUP2 PUSH1 0x2 ADD SLOAD SWAP1 POP PUSH0 DUP2 GT PUSH2 0x43F JUMPI PUSH1 0x40 MLOAD PUSH32 0x8C379A000000000000000000000000000000000000000000000000000000000 DUP2 MSTORE PUSH1 0x4 ADD PUSH2 0x436 SWAP1 PUSH2 0x208C JUMP JUMPDEST PUSH1 0x40 MLOAD DUP1 SWAP2 SUB SWAP1 REVERT JUMPDEST PUSH0 DUP3 PUSH1 0x3 ADD PUSH0 PUSH2 0x100 EXP DUP2 SLOAD DUP2 PUSH1 0xFF MUL NOT AND SWAP1 DUP4 PUSH1 0x1 DUP2 GT ISZERO PUSH2 0x465 JUMPI PUSH2 0x464 PUSH2 0x1AE4 JUMP JUMPDEST JUMPDEST MUL OR SWAP1 SSTORE POP PUSH0 DUP1 CALLER PUSH20 0xFFFFFFFFFFFFFFFFFFFFFFFFFFFFFFFFFFFFFFFF AND PUSH20 0xFFFFFFFFFFFFFFFFFFFFFFFFFFFFFFFFFFFFFFFF AND DUP2 MSTORE PUSH1 0x20 ADD SWAP1 DUP2 MSTORE PUSH1 0x20 ADD PUSH0 KECCAK256 PUSH0 ADD DUP3 PUSH1 0x4 ADD SWAP1 DUP2 PUSH2 0x4B8 SWAP2 SWAP1 PUSH2 0x229B JUMP JUMPDEST POP PUSH0 CALLER PUSH20 0xFFFFFFFFFFFFFFFFFFFFFFFFFFFFFFFFFFFFFFFF AND DUP3 PUSH1 0x40 MLOAD PUSH2 0x4DE SWAP1 PUSH2 0x23AD JUMP JUMPDEST PUSH0 PUSH1 0x40 MLOAD DUP1 DUP4 SUB DUP2 DUP6 DUP8 GAS CALL SWAP3 POP POP POP RETURNDATASIZE DUP1 PUSH0 DUP2 EQ PUSH2 0x518 JUMPI PUSH1 0x40 MLOAD SWAP2 POP PUSH1 0x1F NOT PUSH1 0x3F RETURNDATASIZE ADD AND DUP3 ADD PUSH1 0x40 MSTORE RETURNDATASIZE DUP3 MSTORE RETURNDATASIZE PUSH0 PUSH1 0x20 DUP5 ADD RETURNDATACOPY PUSH2 0x51D JUMP JUMPDEST PUSH1 0x60 SWAP2 POP JUMPDEST POP POP SWAP1 POP DUP1 PUSH2 0x561 JUMPI PUSH1 0x40 MLOAD PUSH32 0x8C379A000000000000000000000000000000000000000000000000000000000 DUP2 MSTORE PUSH1 0x4 ADD PUSH2 0x558 SWAP1 PUSH2 0x240B JUMP JUMPDEST PUSH1 0x40 MLOAD DUP1 SWAP2 SUB SWAP1 REVERT JUMPDEST PUSH32 0x604D6DE1B6EB3F39C6AB9D4981A20D17F88C5BEF33495AE58DABEB097BA7A41A DUP3 PUSH1 0x40 MLOAD PUSH2 0x590 SWAP2 SWAP1 PUSH2 0x2438 JUMP JUMPDEST PUSH1 0x40 MLOAD DUP1 SWAP2 SUB SWAP1 LOG1 POP POP POP PUSH0 PUSH1 0x2 PUSH0 PUSH2 0x100 EXP DUP2 SLOAD DUP2 PUSH1 0xFF MUL NOT AND SWAP1 DUP4 ISZERO ISZERO MUL OR SWAP1 SSTORE POP POP POP POP JUMP JUMPDEST PUSH1 0x60 PUSH0 DUP1 PUSH0 CALLER PUSH20 0xFFFFFFFFFFFFFFFFFFFFFFFFFFFFFFFFFFFFFFFF AND PUSH20 0xFFFFFFFFFFFFFFFFFFFFFFFFFFFFFFFFFFFFFFFF AND DUP2 MSTORE PUSH1 0x20 ADD SWAP1 DUP2 MSTORE PUSH1 0x20 ADD PUSH0 KECCAK256 PUSH0 ADD DUP1 SLOAD PUSH2 0x605 SWAP1 PUSH2 0x1E30 JUMP JUMPDEST SWAP1 POP GT PUSH2 0x647 JUMPI PUSH1 0x40 MLOAD PUSH32 0x8C379A000000000000000000000000000000000000000000000000000000000 DUP2 MSTORE PUSH1 0x4 ADD PUSH2 0x63E SWAP1 PUSH2 0x1F72 JUMP JUMPDEST PUSH1 0x40 MLOAD DUP1 SWAP2 SUB SWAP1 REVERT JUMPDEST PUSH0 DUP1 DUP1 PUSH0 CALLER PUSH20 0xFFFFFFFFFFFFFFFFFFFFFFFFFFFFFFFFFFFFFFFF AND PUSH20 0xFFFFFFFFFFFFFFFFFFFFFFFFFFFFFFFFFFFFFFFF AND DUP2 MSTORE PUSH1 0x20 ADD SWAP1 DUP2 MSTORE PUSH1 0x20 ADD PUSH0 KECCAK256 PUSH0 ADD PUSH1 0x40 MLOAD PUSH1 0x20 ADD PUSH2 0x697 SWAP2 SWAP1 PUSH2 0x24D1 JUMP JUMPDEST PUSH1 0x40 MLOAD PUSH1 0x20 DUP2 DUP4 SUB SUB DUP2 MSTORE SWAP1 PUSH1 0x40 MSTORE DUP1 MLOAD SWAP1 PUSH1 0x20 ADD KECCAK256 SWAP1 POP PUSH0 JUMPDEST PUSH1 0x3 DUP1 SLOAD SWAP1 POP DUP2 LT ISZERO PUSH2 0x7AE JUMPI DUP2 PUSH1 0x1 PUSH1 0x3 DUP4 DUP2 SLOAD DUP2 LT PUSH2 0x6D5 JUMPI PUSH2 0x6D4 PUSH2 0x24E7 JUMP JUMPDEST JUMPDEST SWAP1 PUSH0 MSTORE PUSH1 0x20 PUSH0 KECCAK256 ADD PUSH1 0x40 MLOAD PUSH2 0x6EA SWAP2 SWAP1 PUSH2 0x24D1 JUMP JUMPDEST SWAP1 DUP2 MSTORE PUSH1 0x20 ADD PUSH1 0x40 MLOAD DUP1 SWAP2 SUB SWAP1 KECCAK256 PUSH1 0x1 ADD PUSH1 0x40 MLOAD PUSH1 0x20 ADD PUSH2 0x70B SWAP2 SWAP1 PUSH2 0x24D1 JUMP JUMPDEST PUSH1 0x40 MLOAD PUSH1 0x20 DUP2 DUP4 SUB SUB DUP2 MSTORE SWAP1 PUSH1 0x40 MSTORE DUP1 MLOAD SWAP1 PUSH1 0x20 ADD KECCAK256 EQ DUP1 PUSH2 0x78D JUMPI POP DUP2 PUSH1 0x1 PUSH1 0x3 DUP4 DUP2 SLOAD DUP2 LT PUSH2 0x73F JUMPI PUSH2 0x73E PUSH2 0x24E7 JUMP JUMPDEST JUMPDEST SWAP1 PUSH0 MSTORE PUSH1 0x20 PUSH0 KECCAK256 ADD PUSH1 0x40 MLOAD PUSH2 0x754 SWAP2 SWAP1 PUSH2 0x24D1 JUMP JUMPDEST SWAP1 DUP2 MSTORE PUSH1 0x20 ADD PUSH1 0x40 MLOAD DUP1 SWAP2 SUB SWAP1 KECCAK256 PUSH1 0x4 ADD PUSH1 0x40 MLOAD PUSH1 0x20 ADD PUSH2 0x775 SWAP2 SWAP1 PUSH2 0x24D1 JUMP JUMPDEST PUSH1 0x40 MLOAD PUSH1 0x20 DUP2 DUP4 SUB SUB DUP2 MSTORE SWAP1 PUSH1 0x40 MSTORE DUP1 MLOAD SWAP1 PUSH1 0x20 ADD KECCAK256 EQ JUMPDEST ISZERO PUSH2 0x7A1 JUMPI DUP3 DUP1 PUSH2 0x79D SWAP1 PUSH2 0x2541 JUMP JUMPDEST SWAP4 POP POP JUMPDEST DUP1 DUP1 PUSH1 0x1 ADD SWAP2 POP POP PUSH2 0x6B1 JUMP JUMPDEST POP PUSH0 DUP3 PUSH8 0xFFFFFFFFFFFFFFFF DUP2 GT ISZERO PUSH2 0x7CA JUMPI PUSH2 0x7C9 PUSH2 0x20BF JUMP JUMPDEST JUMPDEST PUSH1 0x40 MLOAD SWAP1 DUP1 DUP3 MSTORE DUP1 PUSH1 0x20 MUL PUSH1 0x20 ADD DUP3 ADD PUSH1 0x40 MSTORE DUP1 ISZERO PUSH2 0x803 JUMPI DUP2 PUSH1 0x20 ADD JUMPDEST PUSH2 0x7F0 PUSH2 0x18CA JUMP JUMPDEST DUP2 MSTORE PUSH1 0x20 ADD SWAP1 PUSH1 0x1 SWAP1 SUB SWAP1 DUP2 PUSH2 0x7E8 JUMPI SWAP1 POP JUMPDEST POP SWAP1 POP PUSH0 DUP1 JUMPDEST PUSH1 0x3 DUP1 SLOAD SWAP1 POP DUP2 LT ISZERO PUSH2 0xB5B JUMPI DUP4 PUSH1 0x1 PUSH1 0x3 DUP4 DUP2 SLOAD DUP2 LT PUSH2 0x82D JUMPI PUSH2 0x82C PUSH2 0x24E7 JUMP JUMPDEST JUMPDEST SWAP1 PUSH0 MSTORE PUSH1 0x20 PUSH0 KECCAK256 ADD PUSH1 0x40 MLOAD PUSH2 0x842 SWAP2 SWAP1 PUSH2 0x24D1 JUMP JUMPDEST SWAP1 DUP2 MSTORE PUSH1 0x20 ADD PUSH1 0x40 MLOAD DUP1 SWAP2 SUB SWAP1 KECCAK256 PUSH1 0x1 ADD PUSH1 0x40 MLOAD PUSH1 0x20 ADD PUSH2 0x863 SWAP2 SWAP1 PUSH2 0x24D1 JUMP JUMPDEST PUSH1 0x40 MLOAD PUSH1 0x20 DUP2 DUP4 SUB SUB DUP2 MSTORE SWAP1 PUSH1 0x40 MSTORE DUP1 MLOAD SWAP1 PUSH1 0x20 ADD KECCAK256 EQ DUP1 PUSH2 0x8E5 JUMPI POP DUP4 PUSH1 0x1 PUSH1 0x3 DUP4 DUP2 SLOAD DUP2 LT PUSH2 0x897 JUMPI PUSH2 0x896 PUSH2 0x24E7 JUMP JUMPDEST JUMPDEST SWAP1 PUSH0 MSTORE PUSH1 0x20 PUSH0 KECCAK256 ADD PUSH1 0x40 MLOAD PUSH2 0x8AC SWAP2 SWAP1 PUSH2 0x24D1 JUMP JUMPDEST SWAP1 DUP2 MSTORE PUSH1 0x20 ADD PUSH1 0x40 MLOAD DUP1 SWAP2 SUB SWAP1 KECCAK256 PUSH1 0x4 ADD PUSH1 0x40 MLOAD PUSH1 0x20 ADD PUSH2 0x8CD SWAP2 SWAP1 PUSH2 0x24D1 JUMP JUMPDEST PUSH1 0x40 MLOAD PUSH1 0x20 DUP2 DUP4 SUB SUB DUP2 MSTORE SWAP1 PUSH1 0x40 MSTORE DUP1 MLOAD SWAP1 PUSH1 0x20 ADD KECCAK256 EQ JUMPDEST ISZERO PUSH2 0xB4E JUMPI PUSH1 0x1 PUSH1 0x3 DUP3 DUP2 SLOAD DUP2 LT PUSH2 0x900 JUMPI PUSH2 0x8FF PUSH2 0x24E7 JUMP JUMPDEST JUMPDEST SWAP1 PUSH0 MSTORE PUSH1 0x20 PUSH0 KECCAK256 ADD PUSH1 0x40 MLOAD PUSH2 0x915 SWAP2 SWAP1 PUSH2 0x24D1 JUMP JUMPDEST SWAP1 DUP2 MSTORE PUSH1 0x20 ADD PUSH1 0x40 MLOAD DUP1 SWAP2 SUB SWAP1 KECCAK256 PUSH1 0x40 MLOAD DUP1 PUSH1 0xA0 ADD PUSH1 0x40 MSTORE SWAP1 DUP2 PUSH0 DUP3 ADD DUP1 SLOAD PUSH2 0x93D SWAP1 PUSH2 0x1E30 JUMP JUMPDEST DUP1 PUSH1 0x1F ADD PUSH1 0x20 DUP1 SWAP2 DIV MUL PUSH1 0x20 ADD PUSH1 0x40 MLOAD SWAP1 DUP2 ADD PUSH1 0x40 MSTORE DUP1 SWAP3 SWAP2 SWAP1 DUP2 DUP2 MSTORE PUSH1 0x20 ADD DUP3 DUP1 SLOAD PUSH2 0x969 SWAP1 PUSH2 0x1E30 JUMP JUMPDEST DUP1 ISZERO PUSH2 0x9B4 JUMPI DUP1 PUSH1 0x1F LT PUSH2 0x98B JUMPI PUSH2 0x100 DUP1 DUP4 SLOAD DIV MUL DUP4 MSTORE SWAP2 PUSH1 0x20 ADD SWAP2 PUSH2 0x9B4 JUMP JUMPDEST DUP3 ADD SWAP2 SWAP1 PUSH0 MSTORE PUSH1 0x20 PUSH0 KECCAK256 SWAP1 JUMPDEST DUP2 SLOAD DUP2 MSTORE SWAP1 PUSH1 0x1 ADD SWAP1 PUSH1 0x20 ADD DUP1 DUP4 GT PUSH2 0x997 JUMPI DUP3 SWAP1 SUB PUSH1 0x1F AND DUP3 ADD SWAP2 JUMPDEST POP POP POP POP POP DUP2 MSTORE PUSH1 0x20 ADD PUSH1 0x1 DUP3 ADD DUP1 SLOAD PUSH2 0x9CD SWAP1 PUSH2 0x1E30 JUMP JUMPDEST DUP1 PUSH1 0x1F ADD PUSH1 0x20 DUP1 SWAP2 DIV MUL PUSH1 0x20 ADD PUSH1 0x40 MLOAD SWAP1 DUP2 ADD PUSH1 0x40 MSTORE DUP1 SWAP3 SWAP2 SWAP1 DUP2 DUP2 MSTORE PUSH1 0x20 ADD DUP3 DUP1 SLOAD PUSH2 0x9F9 SWAP1 PUSH2 0x1E30 JUMP JUMPDEST DUP1 ISZERO PUSH2 0xA44 JUMPI DUP1 PUSH1 0x1F LT PUSH2 0xA1B JUMPI PUSH2 0x100 DUP1 DUP4 SLOAD DIV MUL DUP4 MSTORE SWAP2 PUSH1 0x20 ADD SWAP2 PUSH2 0xA44 JUMP JUMPDEST DUP3 ADD SWAP2 SWAP1 PUSH0 MSTORE PUSH1 0x20 PUSH0 KECCAK256 SWAP1 JUMPDEST DUP2 SLOAD DUP2 MSTORE SWAP1 PUSH1 0x1 ADD SWAP1 PUSH1 0x20 ADD DUP1 DUP4 GT PUSH2 0xA27 JUMPI DUP3 SWAP1 SUB PUSH1 0x1F AND DUP3 ADD SWAP2 JUMPDEST POP POP POP POP POP DUP2 MSTORE PUSH1 0x20 ADD PUSH1 0x2 DUP3 ADD SLOAD DUP2 MSTORE PUSH1 0x20 ADD PUSH1 0x3 DUP3 ADD PUSH0 SWAP1 SLOAD SWAP1 PUSH2 0x100 EXP SWAP1 DIV PUSH1 0xFF AND PUSH1 0x1 DUP2 GT ISZERO PUSH2 0xA7B JUMPI PUSH2 0xA7A PUSH2 0x1AE4 JUMP JUMPDEST JUMPDEST PUSH1 0x1 DUP2 GT ISZERO PUSH2 0xA8D JUMPI PUSH2 0xA8C PUSH2 0x1AE4 JUMP JUMPDEST JUMPDEST DUP2 MSTORE PUSH1 0x20 ADD PUSH1 0x4 DUP3 ADD DUP1 SLOAD PUSH2 0xAA1 SWAP1 PUSH2 0x1E30 JUMP JUMPDEST DUP1 PUSH1 0x1F ADD PUSH1 0x20 DUP1 SWAP2 DIV MUL PUSH1 0x20 ADD PUSH1 0x40 MLOAD SWAP1 DUP2 ADD PUSH1 0x40 MSTORE DUP1 SWAP3 SWAP2 SWAP1 DUP2 DUP2 MSTORE PUSH1 0x20 ADD DUP3 DUP1 SLOAD PUSH2 0xACD SWAP1 PUSH2 0x1E30 JUMP JUMPDEST DUP1 ISZERO PUSH2 0xB18 JUMPI DUP1 PUSH1 0x1F LT PUSH2 0xAEF JUMPI PUSH2 0x100 DUP1 DUP4 SLOAD DIV MUL DUP4 MSTORE SWAP2 PUSH1 0x20 ADD SWAP2 PUSH2 0xB18 JUMP JUMPDEST DUP3 ADD SWAP2 SWAP1 PUSH0 MSTORE PUSH1 0x20 PUSH0 KECCAK256 SWAP1 JUMPDEST DUP2 SLOAD DUP2 MSTORE SWAP1 PUSH1 0x1 ADD SWAP1 PUSH1 0x20 ADD DUP1 DUP4 GT PUSH2 0xAFB JUMPI DUP3 SWAP1 SUB PUSH1 0x1F AND DUP3 ADD SWAP2 JUMPDEST POP POP POP POP POP DUP2 MSTORE POP POP DUP4 DUP4 DUP2 MLOAD DUP2 LT PUSH2 0xB34 JUMPI PUSH2 0xB33 PUSH2 0x24E7 JUMP JUMPDEST JUMPDEST PUSH1 0x20 MUL PUSH1 0x20 ADD ADD DUP2 SWAP1 MSTORE POP DUP2 DUP1 PUSH2 0xB4A SWAP1 PUSH2 0x2541 JUMP JUMPDEST SWAP3 POP POP JUMPDEST DUP1 DUP1 PUSH1 0x1 ADD SWAP2 POP POP PUSH2 0x809 JUMP JUMPDEST POP DUP2 SWAP5 POP POP POP POP POP SWAP1 JUMP JUMPDEST PUSH1 0x4 CALLER SWAP1 DUP1 PUSH1 0x1 DUP2 SLOAD ADD DUP1 DUP3 SSTORE DUP1 SWAP2 POP POP PUSH1 0x1 SWAP1 SUB SWAP1 PUSH0 MSTORE PUSH1 0x20 PUSH0 KECCAK256 ADD PUSH0 SWAP1 SWAP2 SWAP1 SWAP2 SWAP1 SWAP2 PUSH2 0x100 EXP DUP2 SLOAD DUP2 PUSH20 0xFFFFFFFFFFFFFFFFFFFFFFFFFFFFFFFFFFFFFFFF MUL NOT AND SWAP1 DUP4 PUSH20 0xFFFFFFFFFFFFFFFFFFFFFFFFFFFFFFFFFFFFFFFF AND MUL OR SWAP1 SSTORE POP PUSH1 0x40 MLOAD DUP1 PUSH1 0x60 ADD PUSH1 0x40 MSTORE DUP1 DUP5 DUP5 DUP1 DUP1 PUSH1 0x1F ADD PUSH1 0x20 DUP1 SWAP2 DIV MUL PUSH1 0x20 ADD PUSH1 0x40 MLOAD SWAP1 DUP2 ADD PUSH1 0x40 MSTORE DUP1 SWAP4 SWAP3 SWAP2 SWAP1 DUP2 DUP2 MSTORE PUSH1 0x20 ADD DUP4 DUP4 DUP1 DUP3 DUP5 CALLDATACOPY PUSH0 DUP2 DUP5 ADD MSTORE PUSH1 0x1F NOT PUSH1 0x1F DUP3 ADD AND SWAP1 POP DUP1 DUP4 ADD SWAP3 POP POP POP POP POP POP POP DUP2 MSTORE PUSH1 0x20 ADD DUP3 PUSH1 0x1 DUP2 GT ISZERO PUSH2 0xC2D JUMPI PUSH2 0xC2C PUSH2 0x1AE4 JUMP JUMPDEST JUMPDEST DUP2 MSTORE PUSH1 0x20 ADD PUSH0 PUSH1 0x1 DUP2 GT ISZERO PUSH2 0xC45 JUMPI PUSH2 0xC44 PUSH2 0x1AE4 JUMP JUMPDEST JUMPDEST DUP2 MSTORE POP PUSH0 DUP1 CALLER PUSH20 0xFFFFFFFFFFFFFFFFFFFFFFFFFFFFFFFFFFFFFFFF AND PUSH20 0xFFFFFFFFFFFFFFFFFFFFFFFFFFFFFFFFFFFFFFFF AND DUP2 MSTORE PUSH1 0x20 ADD SWAP1 DUP2 MSTORE PUSH1 0x20 ADD PUSH0 KECCAK256 PUSH0 DUP3 ADD MLOAD DUP2 PUSH0 ADD SWAP1 DUP2 PUSH2 0xC97 SWAP2 SWAP1 PUSH2 0x2588 JUMP JUMPDEST POP PUSH1 0x20 DUP3 ADD MLOAD DUP2 PUSH1 0x1 ADD PUSH0 PUSH2 0x100 EXP DUP2 SLOAD DUP2 PUSH1 0xFF MUL NOT AND SWAP1 DUP4 PUSH1 0x1 DUP2 GT ISZERO PUSH2 0xCC2 JUMPI PUSH2 0xCC1 PUSH2 0x1AE4 JUMP JUMPDEST JUMPDEST MUL OR SWAP1 SSTORE POP PUSH1 0x40 DUP3 ADD MLOAD DUP2 PUSH1 0x1 ADD PUSH1 0x1 PUSH2 0x100 EXP DUP2 SLOAD DUP2 PUSH1 0xFF MUL NOT AND SWAP1 DUP4 PUSH1 0x1 DUP2 GT ISZERO PUSH2 0xCF2 JUMPI PUSH2 0xCF1 PUSH2 0x1AE4 JUMP JUMPDEST JUMPDEST MUL OR SWAP1 SSTORE POP SWAP1 POP POP POP POP POP JUMP JUMPDEST PUSH0 DUP1 PUSH0 CALLER PUSH20 0xFFFFFFFFFFFFFFFFFFFFFFFFFFFFFFFFFFFFFFFF AND PUSH20 0xFFFFFFFFFFFFFFFFFFFFFFFFFFFFFFFFFFFFFFFF AND DUP2 MSTORE PUSH1 0x20 ADD SWAP1 DUP2 MSTORE PUSH1 0x20 ADD PUSH0 KECCAK256 PUSH0 ADD DUP1 SLOAD PUSH2 0xD49 SWAP1 PUSH2 0x1E30 JUMP JUMPDEST SWAP1 POP GT PUSH2 0xD8B JUMPI PUSH1 0x40 MLOAD PUSH32 0x8C379A000000000000000000000000000000000000000000000000000000000 DUP2 MSTORE PUSH1 0x4 ADD PUSH2 0xD82 SWAP1 PUSH2 0x1F72 JUMP JUMPDEST PUSH1 0x40 MLOAD DUP1 SWAP2 SUB SWAP1 REVERT JUMPDEST PUSH0 PUSH1 0x64 PUSH1 0x5A CALLVALUE PUSH2 0xD9B SWAP2 SWAP1 PUSH2 0x2657 JUMP JUMPDEST PUSH2 0xDA5 SWAP2 SWAP1 PUSH2 0x26C5 JUMP JUMPDEST SWAP1 POP PUSH0 PUSH2 0xDB0 PUSH2 0x14F7 JUMP JUMPDEST SWAP1 POP PUSH2 0xDBC DUP2 DUP4 PUSH2 0x15D4 JUMP JUMPDEST PUSH32 0x19446F6741ECA6D71B8406898C4308B5F1B9844F9F1EA7614B48264E453B9BD2 DUP2 DUP4 PUSH1 0x40 MLOAD PUSH2 0xDED SWAP3 SWAP2 SWAP1 PUSH2 0x272D JUMP JUMPDEST PUSH1 0x40 MLOAD DUP1 SWAP2 SUB SWAP1 LOG1 POP POP JUMP JUMPDEST PUSH1 0x60 PUSH0 DUP1 PUSH0 CALLER PUSH20 0xFFFFFFFFFFFFFFFFFFFFFFFFFFFFFFFFFFFFFFFF AND PUSH20 0xFFFFFFFFFFFFFFFFFFFFFFFFFFFFFFFFFFFFFFFF AND DUP2 MSTORE PUSH1 0x20 ADD SWAP1 DUP2 MSTORE PUSH1 0x20 ADD PUSH0 KECCAK256 PUSH0 ADD DUP1 SLOAD PUSH2 0xE45 SWAP1 PUSH2 0x1E30 JUMP JUMPDEST SWAP1 POP GT PUSH2 0xE87 JUMPI PUSH1 0x40 MLOAD PUSH32 0x8C379A000000000000000000000000000000000000000000000000000000000 DUP2 MSTORE PUSH1 0x4 ADD PUSH2 0xE7E SWAP1 PUSH2 0x1F72 JUMP JUMPDEST PUSH1 0x40 MLOAD DUP1 SWAP2 SUB SWAP1 REVERT JUMPDEST PUSH1 0x1 DUP1 DUP2 GT ISZERO PUSH2 0xE9A JUMPI PUSH2 0xE99 PUSH2 0x1AE4 JUMP JUMPDEST JUMPDEST PUSH0 DUP1 CALLER PUSH20 0xFFFFFFFFFFFFFFFFFFFFFFFFFFFFFFFFFFFFFFFF AND PUSH20 0xFFFFFFFFFFFFFFFFFFFFFFFFFFFFFFFFFFFFFFFF AND DUP2 MSTORE PUSH1 0x20 ADD SWAP1 DUP2 MSTORE PUSH1 0x20 ADD PUSH0 KECCAK256 PUSH1 0x1 ADD PUSH1 0x1 SWAP1 SLOAD SWAP1 PUSH2 0x100 EXP SWAP1 DIV PUSH1 0xFF AND PUSH1 0x1 DUP2 GT ISZERO PUSH2 0xEF9 JUMPI PUSH2 0xEF8 PUSH2 0x1AE4 JUMP JUMPDEST JUMPDEST EQ PUSH2 0xF39 JUMPI PUSH1 0x40 MLOAD PUSH32 0x8C379A000000000000000000000000000000000000000000000000000000000 DUP2 MSTORE PUSH1 0x4 ADD PUSH2 0xF30 SWAP1 PUSH2 0x27A5 JUMP JUMPDEST PUSH1 0x40 MLOAD DUP1 SWAP2 SUB SWAP1 REVERT JUMPDEST PUSH0 PUSH1 0x3 DUP1 SLOAD SWAP1 POP SWAP1 POP PUSH0 DUP2 PUSH8 0xFFFFFFFFFFFFFFFF DUP2 GT ISZERO PUSH2 0xF5D JUMPI PUSH2 0xF5C PUSH2 0x20BF JUMP JUMPDEST JUMPDEST PUSH1 0x40 MLOAD SWAP1 DUP1 DUP3 MSTORE DUP1 PUSH1 0x20 MUL PUSH1 0x20 ADD DUP3 ADD PUSH1 0x40 MSTORE DUP1 ISZERO PUSH2 0xF96 JUMPI DUP2 PUSH1 0x20 ADD JUMPDEST PUSH2 0xF83 PUSH2 0x18CA JUMP JUMPDEST DUP2 MSTORE PUSH1 0x20 ADD SWAP1 PUSH1 0x1 SWAP1 SUB SWAP1 DUP2 PUSH2 0xF7B JUMPI SWAP1 POP JUMPDEST POP SWAP1 POP PUSH0 JUMPDEST DUP3 DUP2 LT ISZERO PUSH2 0x1205 JUMPI PUSH1 0x1 PUSH1 0x3 DUP3 DUP2 SLOAD DUP2 LT PUSH2 0xFB9 JUMPI PUSH2 0xFB8 PUSH2 0x24E7 JUMP JUMPDEST JUMPDEST SWAP1 PUSH0 MSTORE PUSH1 0x20 PUSH0 KECCAK256 ADD PUSH1 0x40 MLOAD PUSH2 0xFCE SWAP2 SWAP1 PUSH2 0x24D1 JUMP JUMPDEST SWAP1 DUP2 MSTORE PUSH1 0x20 ADD PUSH1 0x40 MLOAD DUP1 SWAP2 SUB SWAP1 KECCAK256 PUSH1 0x40 MLOAD DUP1 PUSH1 0xA0 ADD PUSH1 0x40 MSTORE SWAP1 DUP2 PUSH0 DUP3 ADD DUP1 SLOAD PUSH2 0xFF6 SWAP1 PUSH2 0x1E30 JUMP JUMPDEST DUP1 PUSH1 0x1F ADD PUSH1 0x20 DUP1 SWAP2 DIV MUL PUSH1 0x20 ADD PUSH1 0x40 MLOAD SWAP1 DUP2 ADD PUSH1 0x40 MSTORE DUP1 SWAP3 SWAP2 SWAP1 DUP2 DUP2 MSTORE PUSH1 0x20 ADD DUP3 DUP1 SLOAD PUSH2 0x1022 SWAP1 PUSH2 0x1E30 JUMP JUMPDEST DUP1 ISZERO PUSH2 0x106D JUMPI DUP1 PUSH1 0x1F LT PUSH2 0x1044 JUMPI PUSH2 0x100 DUP1 DUP4 SLOAD DIV MUL DUP4 MSTORE SWAP2 PUSH1 0x20 ADD SWAP2 PUSH2 0x106D JUMP JUMPDEST DUP3 ADD SWAP2 SWAP1 PUSH0 MSTORE PUSH1 0x20 PUSH0 KECCAK256 SWAP1 JUMPDEST DUP2 SLOAD DUP2 MSTORE SWAP1 PUSH1 0x1 ADD SWAP1 PUSH1 0x20 ADD DUP1 DUP4 GT PUSH2 0x1050 JUMPI DUP3 SWAP1 SUB PUSH1 0x1F AND DUP3 ADD SWAP2 JUMPDEST POP POP POP POP POP DUP2 MSTORE PUSH1 0x20 ADD PUSH1 0x1 DUP3 ADD DUP1 SLOAD PUSH2 0x1086 SWAP1 PUSH2 0x1E30 JUMP JUMPDEST DUP1 PUSH1 0x1F ADD PUSH1 0x20 DUP1 SWAP2 DIV MUL PUSH1 0x20 ADD PUSH1 0x40 MLOAD SWAP1 DUP2 ADD PUSH1 0x40 MSTORE DUP1 SWAP3 SWAP2 SWAP1 DUP2 DUP2 MSTORE PUSH1 0x20 ADD DUP3 DUP1 SLOAD PUSH2 0x10B2 SWAP1 PUSH2 0x1E30 JUMP JUMPDEST DUP1 ISZERO PUSH2 0x10FD JUMPI DUP1 PUSH1 0x1F LT PUSH2 0x10D4 JUMPI PUSH2 0x100 DUP1 DUP4 SLOAD DIV MUL DUP4 MSTORE SWAP2 PUSH1 0x20 ADD SWAP2 PUSH2 0x10FD JUMP JUMPDEST DUP3 ADD SWAP2 SWAP1 PUSH0 MSTORE PUSH1 0x20 PUSH0 KECCAK256 SWAP1 JUMPDEST DUP2 SLOAD DUP2 MSTORE SWAP1 PUSH1 0x1 ADD SWAP1 PUSH1 0x20 ADD DUP1 DUP4 GT PUSH2 0x10E0 JUMPI DUP3 SWAP1 SUB PUSH1 0x1F AND DUP3 ADD SWAP2 JUMPDEST POP POP POP POP POP DUP2 MSTORE PUSH1 0x20 ADD PUSH1 0x2 DUP3 ADD SLOAD DUP2 MSTORE PUSH1 0x20 ADD PUSH1 0x3 DUP3 ADD PUSH0 SWAP1 SLOAD SWAP1 PUSH2 0x100 EXP SWAP1 DIV PUSH1 0xFF AND PUSH1 0x1 DUP2 GT ISZERO PUSH2 0x1134 JUMPI PUSH2 0x1133 PUSH2 0x1AE4 JUMP JUMPDEST JUMPDEST PUSH1 0x1 DUP2 GT ISZERO PUSH2 0x1146 JUMPI PUSH2 0x1145 PUSH2 0x1AE4 JUMP JUMPDEST JUMPDEST DUP2 MSTORE PUSH1 0x20 ADD PUSH1 0x4 DUP3 ADD DUP1 SLOAD PUSH2 0x115A SWAP1 PUSH2 0x1E30 JUMP JUMPDEST DUP1 PUSH1 0x1F ADD PUSH1 0x20 DUP1 SWAP2 DIV MUL PUSH1 0x20 ADD PUSH1 0x40 MLOAD SWAP1 DUP2 ADD PUSH1 0x40 MSTORE DUP1 SWAP3 SWAP2 SWAP1 DUP2 DUP2 MSTORE PUSH1 0x20 ADD DUP3 DUP1 SLOAD PUSH2 0x1186 SWAP1 PUSH2 0x1E30 JUMP JUMPDEST DUP1 ISZERO PUSH2 0x11D1 JUMPI DUP1 PUSH1 0x1F LT PUSH2 0x11A8 JUMPI PUSH2 0x100 DUP1 DUP4 SLOAD DIV MUL DUP4 MSTORE SWAP2 PUSH1 0x20 ADD SWAP2 PUSH2 0x11D1 JUMP JUMPDEST DUP3 ADD SWAP2 SWAP1 PUSH0 MSTORE PUSH1 0x20 PUSH0 KECCAK256 SWAP1 JUMPDEST DUP2 SLOAD DUP2 MSTORE SWAP1 PUSH1 0x1 ADD SWAP1 PUSH1 0x20 ADD DUP1 DUP4 GT PUSH2 0x11B4 JUMPI DUP3 SWAP1 SUB PUSH1 0x1F AND DUP3 ADD SWAP2 JUMPDEST POP POP POP POP POP DUP2 MSTORE POP POP DUP3 DUP3 DUP2 MLOAD DUP2 LT PUSH2 0x11ED JUMPI PUSH2 0x11EC PUSH2 0x24E7 JUMP JUMPDEST JUMPDEST PUSH1 0x20 MUL PUSH1 0x20 ADD ADD DUP2 SWAP1 MSTORE POP DUP1 DUP1 PUSH1 0x1 ADD SWAP2 POP POP PUSH2 0xF9B JUMP JUMPDEST POP DUP1 SWAP3 POP POP POP SWAP1 JUMP JUMPDEST PUSH0 DUP1 PUSH0 DUP1 CALLER PUSH20 0xFFFFFFFFFFFFFFFFFFFFFFFFFFFFFFFFFFFFFFFF AND PUSH20 0xFFFFFFFFFFFFFFFFFFFFFFFFFFFFFFFFFFFFFFFF AND DUP2 MSTORE PUSH1 0x20 ADD SWAP1 DUP2 MSTORE PUSH1 0x20 ADD PUSH0 KECCAK256 PUSH0 ADD DUP1 SLOAD PUSH2 0x1259 SWAP1 PUSH2 0x1E30 JUMP JUMPDEST SWAP1 POP GT PUSH2 0x129B JUMPI PUSH1 0x40 MLOAD PUSH32 0x8C379A000000000000000000000000000000000000000000000000000000000 DUP2 MSTORE PUSH1 0x4 ADD PUSH2 0x1292 SWAP1 PUSH2 0x1F72 JUMP JUMPDEST PUSH1 0x40 MLOAD DUP1 SWAP2 SUB SWAP1 REVERT JUMPDEST PUSH1 0x1 DUP1 DUP2 GT ISZERO PUSH2 0x12AE JUMPI PUSH2 0x12AD PUSH2 0x1AE4 JUMP JUMPDEST JUMPDEST PUSH0 DUP1 CALLER PUSH20 0xFFFFFFFFFFFFFFFFFFFFFFFFFFFFFFFFFFFFFFFF AND PUSH20 0xFFFFFFFFFFFFFFFFFFFFFFFFFFFFFFFFFFFFFFFF AND DUP2 MSTORE PUSH1 0x20 ADD SWAP1 DUP2 MSTORE PUSH1 0x20 ADD PUSH0 KECCAK256 PUSH1 0x1 ADD PUSH1 0x1 SWAP1 SLOAD SWAP1 PUSH2 0x100 EXP SWAP1 DIV PUSH1 0xFF AND PUSH1 0x1 DUP2 GT ISZERO PUSH2 0x130D JUMPI PUSH2 0x130C PUSH2 0x1AE4 JUMP JUMPDEST JUMPDEST EQ SWAP1 POP SWAP1 JUMP JUMPDEST PUSH2 0x131B PUSH2 0x1909 JUMP JUMPDEST PUSH0 DUP1 PUSH0 CALLER PUSH20 0xFFFFFFFFFFFFFFFFFFFFFFFFFFFFFFFFFFFFFFFF AND PUSH20 0xFFFFFFFFFFFFFFFFFFFFFFFFFFFFFFFFFFFFFFFF AND DUP2 MSTORE PUSH1 0x20 ADD SWAP1 DUP2 MSTORE PUSH1 0x20 ADD PUSH0 KECCAK256 PUSH0 ADD DUP1 SLOAD PUSH2 0x1365 SWAP1 PUSH2 0x1E30 JUMP JUMPDEST SWAP1 POP GT PUSH2 0x13A7 JUMPI PUSH1 0x40 MLOAD PUSH32 0x8C379A000000000000000000000000000000000000000000000000000000000 DUP2 MSTORE PUSH1 0x4 ADD PUSH2 0x139E SWAP1 PUSH2 0x1F72 JUMP JUMPDEST PUSH1 0x40 MLOAD DUP1 SWAP2 SUB SWAP1 REVERT JUMPDEST PUSH0 DUP1 CALLER PUSH20 0xFFFFFFFFFFFFFFFFFFFFFFFFFFFFFFFFFFFFFFFF AND PUSH20 0xFFFFFFFFFFFFFFFFFFFFFFFFFFFFFFFFFFFFFFFF AND DUP2 MSTORE PUSH1 0x20 ADD SWAP1 DUP2 MSTORE PUSH1 0x20 ADD PUSH0 KECCAK256 PUSH1 0x40 MLOAD DUP1 PUSH1 0x60 ADD PUSH1 0x40 MSTORE SWAP1 DUP2 PUSH0 DUP3 ADD DUP1 SLOAD PUSH2 0x13FD SWAP1 PUSH2 0x1E30 JUMP JUMPDEST DUP1 PUSH1 0x1F ADD PUSH1 0x20 DUP1 SWAP2 DIV MUL PUSH1 0x20 ADD PUSH1 0x40 MLOAD SWAP1 DUP2 ADD PUSH1 0x40 MSTORE DUP1 SWAP3 SWAP2 SWAP1 DUP2 DUP2 MSTORE PUSH1 0x20 ADD DUP3 DUP1 SLOAD PUSH2 0x1429 SWAP1 PUSH2 0x1E30 JUMP JUMPDEST DUP1 ISZERO PUSH2 0x1474 JUMPI DUP1 PUSH1 0x1F LT PUSH2 0x144B JUMPI PUSH2 0x100 DUP1 DUP4 SLOAD DIV MUL DUP4 MSTORE SWAP2 PUSH1 0x20 ADD SWAP2 PUSH2 0x1474 JUMP JUMPDEST DUP3 ADD SWAP2 SWAP1 PUSH0 MSTORE PUSH1 0x20 PUSH0 KECCAK256 SWAP1 JUMPDEST DUP2 SLOAD DUP2 MSTORE SWAP1 PUSH1 0x1 ADD SWAP1 PUSH1 0x20 ADD DUP1 DUP4 GT PUSH2 0x1457 JUMPI DUP3 SWAP1 SUB PUSH1 0x1F AND DUP3 ADD SWAP2 JUMPDEST POP POP POP POP POP DUP2 MSTORE PUSH1 0x20 ADD PUSH1 0x1 DUP3 ADD PUSH0 SWAP1 SLOAD SWAP1 PUSH2 0x100 EXP SWAP1 DIV PUSH1 0xFF AND PUSH1 0x1 DUP2 GT ISZERO PUSH2 0x14A1 JUMPI PUSH2 0x14A0 PUSH2 0x1AE4 JUMP JUMPDEST JUMPDEST PUSH1 0x1 DUP2 GT ISZERO PUSH2 0x14B3 JUMPI PUSH2 0x14B2 PUSH2 0x1AE4 JUMP JUMPDEST JUMPDEST DUP2 MSTORE PUSH1 0x20 ADD PUSH1 0x1 DUP3 ADD PUSH1 0x1 SWAP1 SLOAD SWAP1 PUSH2 0x100 EXP SWAP1 DIV PUSH1 0xFF AND PUSH1 0x1 DUP2 GT ISZERO PUSH2 0x14DC JUMPI PUSH2 0x14DB PUSH2 0x1AE4 JUMP JUMPDEST JUMPDEST PUSH1 0x1 DUP2 GT ISZERO PUSH2 0x14EE JUMPI PUSH2 0x14ED PUSH2 0x1AE4 JUMP JUMPDEST JUMPDEST DUP2 MSTORE POP POP SWAP1 POP SWAP1 JUMP JUMPDEST PUSH1 0x60 PUSH0 PUSH1 0xF PUSH8 0xFFFFFFFFFFFFFFFF DUP2 GT ISZERO PUSH2 0x1515 JUMPI PUSH2 0x1514 PUSH2 0x20BF JUMP JUMPDEST JUMPDEST PUSH1 0x40 MLOAD SWAP1 DUP1 DUP3 MSTORE DUP1 PUSH1 0x1F ADD PUSH1 0x1F NOT AND PUSH1 0x20 ADD DUP3 ADD PUSH1 0x40 MSTORE DUP1 ISZERO PUSH2 0x1547 JUMPI DUP2 PUSH1 0x20 ADD PUSH1 0x1 DUP3 MUL DUP1 CALLDATASIZE DUP4 CALLDATACOPY DUP1 DUP3 ADD SWAP2 POP POP SWAP1 POP JUMPDEST POP SWAP1 POP PUSH0 JUMPDEST PUSH1 0xF DUP2 LT ISZERO PUSH2 0x15CC JUMPI PUSH0 PUSH2 0x155F DUP3 PUSH2 0x1888 JUMP JUMPDEST SWAP1 POP PUSH1 0x1A DUP2 PUSH2 0x156E SWAP2 SWAP1 PUSH2 0x27C3 JUMP JUMPDEST PUSH1 0x61 PUSH2 0x157A SWAP2 SWAP1 PUSH2 0x27F3 JUMP JUMPDEST PUSH1 0xF8 SHL DUP4 DUP4 DUP2 MLOAD DUP2 LT PUSH2 0x1590 JUMPI PUSH2 0x158F PUSH2 0x24E7 JUMP JUMPDEST JUMPDEST PUSH1 0x20 ADD ADD SWAP1 PUSH31 0xFFFFFFFFFFFFFFFFFFFFFFFFFFFFFFFFFFFFFFFFFFFFFFFFFFFFFFFFFFFFFF NOT AND SWAP1 DUP2 PUSH0 BYTE SWAP1 MSTORE8 POP POP DUP1 DUP1 PUSH1 0x1 ADD SWAP2 POP POP PUSH2 0x154C JUMP JUMPDEST POP DUP1 SWAP2 POP POP SWAP1 JUMP JUMPDEST DUP2 PUSH0 DUP1 JUMPDEST PUSH1 0x3 DUP1 SLOAD SWAP1 POP DUP2 LT ISZERO PUSH2 0x1669 JUMPI DUP3 PUSH1 0x40 MLOAD PUSH1 0x20 ADD PUSH2 0x15F6 SWAP2 SWAP1 PUSH2 0x1E9A JUMP JUMPDEST PUSH1 0x40 MLOAD PUSH1 0x20 DUP2 DUP4 SUB SUB DUP2 MSTORE SWAP1 PUSH1 0x40 MSTORE DUP1 MLOAD SWAP1 PUSH1 0x20 ADD KECCAK256 PUSH1 0x3 DUP3 DUP2 SLOAD DUP2 LT PUSH2 0x1620 JUMPI PUSH2 0x161F PUSH2 0x24E7 JUMP JUMPDEST JUMPDEST SWAP1 PUSH0 MSTORE PUSH1 0x20 PUSH0 KECCAK256 ADD PUSH1 0x40 MLOAD PUSH1 0x20 ADD PUSH2 0x1638 SWAP2 SWAP1 PUSH2 0x24D1 JUMP JUMPDEST PUSH1 0x40 MLOAD PUSH1 0x20 DUP2 DUP4 SUB SUB DUP2 MSTORE SWAP1 PUSH1 0x40 MSTORE DUP1 MLOAD SWAP1 PUSH1 0x20 ADD KECCAK256 SUB PUSH2 0x165C JUMPI PUSH1 0x1 SWAP2 POP PUSH2 0x1669 JUMP JUMPDEST DUP1 DUP1 PUSH1 0x1 ADD SWAP2 POP POP PUSH2 0x15D8 JUMP JUMPDEST POP DUP1 ISZERO PUSH2 0x16AB JUMPI PUSH1 0x40 MLOAD PUSH32 0x8C379A000000000000000000000000000000000000000000000000000000000 DUP2 MSTORE PUSH1 0x4 ADD PUSH2 0x16A2 SWAP1 PUSH2 0x2870 JUMP JUMPDEST PUSH1 0x40 MLOAD DUP1 SWAP2 SUB SWAP1 REVERT JUMPDEST PUSH1 0x3 DUP5 SWAP1 DUP1 PUSH1 0x1 DUP2 SLOAD ADD DUP1 DUP3 SSTORE DUP1 SWAP2 POP POP PUSH1 0x1 SWAP1 SUB SWAP1 PUSH0 MSTORE PUSH1 0x20 PUSH0 KECCAK256 ADD PUSH0 SWAP1 SWAP2 SWAP1 SWAP2 SWAP1 SWAP2 POP SWAP1 DUP2 PUSH2 0x16DC SWAP2 SWAP1 PUSH2 0x2588 JUMP JUMPDEST POP PUSH1 0x40 MLOAD DUP1 PUSH1 0xA0 ADD PUSH1 0x40 MSTORE DUP1 DUP6 DUP2 MSTORE PUSH1 0x20 ADD PUSH0 DUP1 CALLER PUSH20 0xFFFFFFFFFFFFFFFFFFFFFFFFFFFFFFFFFFFFFFFF AND PUSH20 0xFFFFFFFFFFFFFFFFFFFFFFFFFFFFFFFFFFFFFFFF AND DUP2 MSTORE PUSH1 0x20 ADD SWAP1 DUP2 MSTORE PUSH1 0x20 ADD PUSH0 KECCAK256 PUSH0 ADD DUP1 SLOAD PUSH2 0x1737 SWAP1 PUSH2 0x1E30 JUMP JUMPDEST DUP1 PUSH1 0x1F ADD PUSH1 0x20 DUP1 SWAP2 DIV MUL PUSH1 0x20 ADD PUSH1 0x40 MLOAD SWAP1 DUP2 ADD PUSH1 0x40 MSTORE DUP1 SWAP3 SWAP2 SWAP1 DUP2 DUP2 MSTORE PUSH1 0x20 ADD DUP3 DUP1 SLOAD PUSH2 0x1763 SWAP1 PUSH2 0x1E30 JUMP JUMPDEST DUP1 ISZERO PUSH2 0x17AE JUMPI DUP1 PUSH1 0x1F LT PUSH2 0x1785 JUMPI PUSH2 0x100 DUP1 DUP4 SLOAD DIV MUL DUP4 MSTORE SWAP2 PUSH1 0x20 ADD SWAP2 PUSH2 0x17AE JUMP JUMPDEST DUP3 ADD SWAP2 SWAP1 PUSH0 MSTORE PUSH1 0x20 PUSH0 KECCAK256 SWAP1 JUMPDEST DUP2 SLOAD DUP2 MSTORE SWAP1 PUSH1 0x1 ADD SWAP1 PUSH1 0x20 ADD DUP1 DUP4 GT PUSH2 0x1791 JUMPI DUP3 SWAP1 SUB PUSH1 0x1F AND DUP3 ADD SWAP2 JUMPDEST POP POP POP POP POP DUP2 MSTORE PUSH1 0x20 ADD DUP5 DUP2 MSTORE PUSH1 0x20 ADD PUSH1 0x1 DUP1 DUP2 GT ISZERO PUSH2 0x17D1 JUMPI PUSH2 0x17D0 PUSH2 0x1AE4 JUMP JUMPDEST JUMPDEST DUP2 MSTORE PUSH1 0x20 ADD PUSH1 0x40 MLOAD DUP1 PUSH1 0x20 ADD PUSH1 0x40 MSTORE DUP1 PUSH0 DUP2 MSTORE POP DUP2 MSTORE POP PUSH1 0x1 DUP6 PUSH1 0x40 MLOAD PUSH2 0x17F8 SWAP2 SWAP1 PUSH2 0x1E9A JUMP JUMPDEST SWAP1 DUP2 MSTORE PUSH1 0x20 ADD PUSH1 0x40 MLOAD DUP1 SWAP2 SUB SWAP1 KECCAK256 PUSH0 DUP3 ADD MLOAD DUP2 PUSH0 ADD SWAP1 DUP2 PUSH2 0x1819 SWAP2 SWAP1 PUSH2 0x2588 JUMP JUMPDEST POP PUSH1 0x20 DUP3 ADD MLOAD DUP2 PUSH1 0x1 ADD SWAP1 DUP2 PUSH2 0x182F SWAP2 SWAP1 PUSH2 0x2588 JUMP JUMPDEST POP PUSH1 0x40 DUP3 ADD MLOAD DUP2 PUSH1 0x2 ADD SSTORE PUSH1 0x60 DUP3 ADD MLOAD DUP2 PUSH1 0x3 ADD PUSH0 PUSH2 0x100 EXP DUP2 SLOAD DUP2 PUSH1 0xFF MUL NOT AND SWAP1 DUP4 PUSH1 0x1 DUP2 GT ISZERO PUSH2 0x1864 JUMPI PUSH2 0x1863 PUSH2 0x1AE4 JUMP JUMPDEST JUMPDEST MUL OR SWAP1 SSTORE POP PUSH1 0x80 DUP3 ADD MLOAD DUP2 PUSH1 0x4 ADD SWAP1 DUP2 PUSH2 0x187E SWAP2 SWAP1 PUSH2 0x2588 JUMP JUMPDEST POP SWAP1 POP POP POP POP POP POP JUMP JUMPDEST PUSH0 PUSH2 0x2710 TIMESTAMP PREVRANDAO DUP5 PUSH1 0x40 MLOAD PUSH1 0x20 ADD PUSH2 0x18A1 SWAP4 SWAP3 SWAP2 SWAP1 PUSH2 0x28AE JUMP JUMPDEST PUSH1 0x40 MLOAD PUSH1 0x20 DUP2 DUP4 SUB SUB DUP2 MSTORE SWAP1 PUSH1 0x40 MSTORE DUP1 MLOAD SWAP1 PUSH1 0x20 ADD KECCAK256 PUSH0 SHR PUSH2 0x18C3 SWAP2 SWAP1 PUSH2 0x27C3 JUMP JUMPDEST SWAP1 POP SWAP2 SWAP1 POP JUMP JUMPDEST PUSH1 0x40 MLOAD DUP1 PUSH1 0xA0 ADD PUSH1 0x40 MSTORE DUP1 PUSH1 0x60 DUP2 MSTORE PUSH1 0x20 ADD PUSH1 0x60 DUP2 MSTORE PUSH1 0x20 ADD PUSH0 DUP2 MSTORE PUSH1 0x20 ADD PUSH0 PUSH1 0x1 DUP2 GT ISZERO PUSH2 0x18FC JUMPI PUSH2 0x18FB PUSH2 0x1AE4 JUMP JUMPDEST JUMPDEST DUP2 MSTORE PUSH1 0x20 ADD PUSH1 0x60 DUP2 MSTORE POP SWAP1 JUMP JUMPDEST PUSH1 0x40 MLOAD DUP1 PUSH1 0x60 ADD PUSH1 0x40 MSTORE DUP1 PUSH1 0x60 DUP2 MSTORE PUSH1 0x20 ADD PUSH0 PUSH1 0x1 DUP2 GT ISZERO PUSH2 0x192E JUMPI PUSH2 0x192D PUSH2 0x1AE4 JUMP JUMPDEST JUMPDEST DUP2 MSTORE PUSH1 0x20 ADD PUSH0 PUSH1 0x1 DUP2 GT ISZERO PUSH2 0x1946 JUMPI PUSH2 0x1945 PUSH2 0x1AE4 JUMP JUMPDEST JUMPDEST DUP2 MSTORE POP SWAP1 JUMP JUMPDEST PUSH0 DUP2 ISZERO ISZERO SWAP1 POP SWAP2 SWAP1 POP JUMP JUMPDEST PUSH2 0x1960 DUP2 PUSH2 0x194C JUMP JUMPDEST DUP3 MSTORE POP POP JUMP JUMPDEST PUSH0 PUSH1 0x20 DUP3 ADD SWAP1 POP PUSH2 0x1979 PUSH0 DUP4 ADD DUP5 PUSH2 0x1957 JUMP JUMPDEST SWAP3 SWAP2 POP POP JUMP JUMPDEST PUSH0 DUP1 REVERT JUMPDEST PUSH0 DUP1 REVERT JUMPDEST PUSH0 DUP1 REVERT JUMPDEST PUSH0 DUP1 REVERT JUMPDEST PUSH0 DUP1 REVERT JUMPDEST PUSH0 DUP1 DUP4 PUSH1 0x1F DUP5 ADD SLT PUSH2 0x19A8 JUMPI PUSH2 0x19A7 PUSH2 0x1987 JUMP JUMPDEST JUMPDEST DUP3 CALLDATALOAD SWAP1 POP PUSH8 0xFFFFFFFFFFFFFFFF DUP2 GT ISZERO PUSH2 0x19C5 JUMPI PUSH2 0x19C4 PUSH2 0x198B JUMP JUMPDEST JUMPDEST PUSH1 0x20 DUP4 ADD SWAP2 POP DUP4 PUSH1 0x1 DUP3 MUL DUP4 ADD GT ISZERO PUSH2 0x19E1 JUMPI PUSH2 0x19E0 PUSH2 0x198F JUMP JUMPDEST JUMPDEST SWAP3 POP SWAP3 SWAP1 POP JUMP JUMPDEST PUSH0 DUP1 PUSH1 0x20 DUP4 DUP6 SUB SLT ISZERO PUSH2 0x19FE JUMPI PUSH2 0x19FD PUSH2 0x197F JUMP JUMPDEST JUMPDEST PUSH0 DUP4 ADD CALLDATALOAD PUSH8 0xFFFFFFFFFFFFFFFF DUP2 GT ISZERO PUSH2 0x1A1B JUMPI PUSH2 0x1A1A PUSH2 0x1983 JUMP JUMPDEST JUMPDEST PUSH2 0x1A27 DUP6 DUP3 DUP7 ADD PUSH2 0x1993 JUMP JUMPDEST SWAP3 POP SWAP3 POP POP SWAP3 POP SWAP3 SWAP1 POP JUMP JUMPDEST PUSH0 DUP2 MLOAD SWAP1 POP SWAP2 SWAP1 POP JUMP JUMPDEST PUSH0 DUP3 DUP3 MSTORE PUSH1 0x20 DUP3 ADD SWAP1 POP SWAP3 SWAP2 POP POP JUMP JUMPDEST PUSH0 DUP2 SWAP1 POP PUSH1 0x20 DUP3 ADD SWAP1 POP SWAP2 SWAP1 POP JUMP JUMPDEST PUSH0 DUP2 MLOAD SWAP1 POP SWAP2 SWAP1 POP JUMP JUMPDEST PUSH0 DUP3 DUP3 MSTORE PUSH1 0x20 DUP3 ADD SWAP1 POP SWAP3 SWAP2 POP POP JUMP JUMPDEST DUP3 DUP2 DUP4 MCOPY PUSH0 DUP4 DUP4 ADD MSTORE POP POP POP JUMP JUMPDEST PUSH0 PUSH1 0x1F NOT PUSH1 0x1F DUP4 ADD AND SWAP1 POP SWAP2 SWAP1 POP JUMP JUMPDEST PUSH0 PUSH2 0x1A9E DUP3 PUSH2 0x1A5C JUMP JUMPDEST PUSH2 0x1AA8 DUP2 DUP6 PUSH2 0x1A66 JUMP JUMPDEST SWAP4 POP PUSH2 0x1AB8 DUP2 DUP6 PUSH1 0x20 DUP7 ADD PUSH2 0x1A76 JUMP JUMPDEST PUSH2 0x1AC1 DUP2 PUSH2 0x1A84 JUMP JUMPDEST DUP5 ADD SWAP2 POP POP SWAP3 SWAP2 POP POP JUMP JUMPDEST PUSH0 DUP2 SWAP1 POP SWAP2 SWAP1 POP JUMP JUMPDEST PUSH2 0x1ADE DUP2 PUSH2 0x1ACC JUMP JUMPDEST DUP3 MSTORE POP POP JUMP JUMPDEST PUSH32 0x4E487B7100000000000000000000000000000000000000000000000000000000 PUSH0 MSTORE PUSH1 0x21 PUSH1 0x4 MSTORE PUSH1 0x24 PUSH0 REVERT JUMPDEST PUSH1 0x2 DUP2 LT PUSH2 0x1B22 JUMPI PUSH2 0x1B21 PUSH2 0x1AE4 JUMP JUMPDEST JUMPDEST POP JUMP JUMPDEST PUSH0 DUP2 SWAP1 POP PUSH2 0x1B32 DUP3 PUSH2 0x1B11 JUMP JUMPDEST SWAP2 SWAP1 POP JUMP JUMPDEST PUSH0 PUSH2 0x1B41 DUP3 PUSH2 0x1B25 JUMP JUMPDEST SWAP1 POP SWAP2 SWAP1 POP JUMP JUMPDEST PUSH2 0x1B51 DUP2 PUSH2 0x1B37 JUMP JUMPDEST DUP3 MSTORE POP POP JUMP JUMPDEST PUSH0 PUSH1 0xA0 DUP4 ADD PUSH0 DUP4 ADD MLOAD DUP5 DUP3 SUB PUSH0 DUP7 ADD MSTORE PUSH2 0x1B71 DUP3 DUP3 PUSH2 0x1A94 JUMP JUMPDEST SWAP2 POP POP PUSH1 0x20 DUP4 ADD MLOAD DUP5 DUP3 SUB PUSH1 0x20 DUP7 ADD MSTORE PUSH2 0x1B8B DUP3 DUP3 PUSH2 0x1A94 JUMP JUMPDEST SWAP2 POP POP PUSH1 0x40 DUP4 ADD MLOAD PUSH2 0x1BA0 PUSH1 0x40 DUP7 ADD DUP3 PUSH2 0x1AD5 JUMP JUMPDEST POP PUSH1 0x60 DUP4 ADD MLOAD PUSH2 0x1BB3 PUSH1 0x60 DUP7 ADD DUP3 PUSH2 0x1B48 JUMP JUMPDEST POP PUSH1 0x80 DUP4 ADD MLOAD DUP5 DUP3 SUB PUSH1 0x80 DUP7 ADD MSTORE PUSH2 0x1BCB DUP3 DUP3 PUSH2 0x1A94 JUMP JUMPDEST SWAP2 POP POP DUP1 SWAP2 POP POP SWAP3 SWAP2 POP POP JUMP JUMPDEST PUSH0 PUSH2 0x1BE3 DUP4 DUP4 PUSH2 0x1B57 JUMP JUMPDEST SWAP1 POP SWAP3 SWAP2 POP POP JUMP JUMPDEST PUSH0 PUSH1 0x20 DUP3 ADD SWAP1 POP SWAP2 SWAP1 POP JUMP JUMPDEST PUSH0 PUSH2 0x1C01 DUP3 PUSH2 0x1A33 JUMP JUMPDEST PUSH2 0x1C0B DUP2 DUP6 PUSH2 0x1A3D JUMP JUMPDEST SWAP4 POP DUP4 PUSH1 0x20 DUP3 MUL DUP6 ADD PUSH2 0x1C1D DUP6 PUSH2 0x1A4D JUMP JUMPDEST DUP1 PUSH0 JUMPDEST DUP6 DUP2 LT ISZERO PUSH2 0x1C58 JUMPI DUP5 DUP5 SUB DUP10 MSTORE DUP2 MLOAD PUSH2 0x1C39 DUP6 DUP3 PUSH2 0x1BD8 JUMP JUMPDEST SWAP5 POP PUSH2 0x1C44 DUP4 PUSH2 0x1BEB JUMP JUMPDEST SWAP3 POP PUSH1 0x20 DUP11 ADD SWAP10 POP POP PUSH1 0x1 DUP2 ADD SWAP1 POP PUSH2 0x1C20 JUMP JUMPDEST POP DUP3 SWAP8 POP DUP8 SWAP6 POP POP POP POP POP POP SWAP3 SWAP2 POP POP JUMP JUMPDEST PUSH0 PUSH1 0x20 DUP3 ADD SWAP1 POP DUP2 DUP2 SUB PUSH0 DUP4 ADD MSTORE PUSH2 0x1C82 DUP2 DUP5 PUSH2 0x1BF7 JUMP JUMPDEST SWAP1 POP SWAP3 SWAP2 POP POP JUMP JUMPDEST PUSH1 0x2 DUP2 LT PUSH2 0x1C96 JUMPI PUSH0 DUP1 REVERT JUMPDEST POP JUMP JUMPDEST PUSH0 DUP2 CALLDATALOAD SWAP1 POP PUSH2 0x1CA7 DUP2 PUSH2 0x1C8A JUMP JUMPDEST SWAP3 SWAP2 POP POP JUMP JUMPDEST PUSH0 DUP1 PUSH0 PUSH1 0x40 DUP5 DUP7 SUB SLT ISZERO PUSH2 0x1CC4 JUMPI PUSH2 0x1CC3 PUSH2 0x197F JUMP JUMPDEST JUMPDEST PUSH0 DUP5 ADD CALLDATALOAD PUSH8 0xFFFFFFFFFFFFFFFF DUP2 GT ISZERO PUSH2 0x1CE1 JUMPI PUSH2 0x1CE0 PUSH2 0x1983 JUMP JUMPDEST JUMPDEST PUSH2 0x1CED DUP7 DUP3 DUP8 ADD PUSH2 0x1993 JUMP JUMPDEST SWAP4 POP SWAP4 POP POP PUSH1 0x20 PUSH2 0x1D00 DUP7 DUP3 DUP8 ADD PUSH2 0x1C99 JUMP JUMPDEST SWAP2 POP POP SWAP3 POP SWAP3 POP SWAP3 JUMP JUMPDEST PUSH1 0x2 DUP2 LT PUSH2 0x1D1B JUMPI PUSH2 0x1D1A PUSH2 0x1AE4 JUMP JUMPDEST JUMPDEST POP JUMP JUMPDEST PUSH0 DUP2 SWAP1 POP PUSH2 0x1D2B DUP3 PUSH2 0x1D0A JUMP JUMPDEST SWAP2 SWAP1 POP JUMP JUMPDEST PUSH0 PUSH2 0x1D3A DUP3 PUSH2 0x1D1E JUMP JUMPDEST SWAP1 POP SWAP2 SWAP1 POP JUMP JUMPDEST PUSH2 0x1D4A DUP2 PUSH2 0x1D30 JUMP JUMPDEST DUP3 MSTORE POP POP JUMP JUMPDEST PUSH1 0x2 DUP2 LT PUSH2 0x1D61 JUMPI PUSH2 0x1D60 PUSH2 0x1AE4 JUMP JUMPDEST JUMPDEST POP JUMP JUMPDEST PUSH0 DUP2 SWAP1 POP PUSH2 0x1D71 DUP3 PUSH2 0x1D50 JUMP JUMPDEST SWAP2 SWAP1 POP JUMP JUMPDEST PUSH0 PUSH2 0x1D80 DUP3 PUSH2 0x1D64 JUMP JUMPDEST SWAP1 POP SWAP2 SWAP1 POP JUMP JUMPDEST PUSH2 0x1D90 DUP2 PUSH2 0x1D76 JUMP JUMPDEST DUP3 MSTORE POP POP JUMP JUMPDEST PUSH0 PUSH1 0x60 DUP4 ADD PUSH0 DUP4 ADD MLOAD DUP5 DUP3 SUB PUSH0 DUP7 ADD MSTORE PUSH2 0x1DB0 DUP3 DUP3 PUSH2 0x1A94 JUMP JUMPDEST SWAP2 POP POP PUSH1 0x20 DUP4 ADD MLOAD PUSH2 0x1DC5 PUSH1 0x20 DUP7 ADD DUP3 PUSH2 0x1D41 JUMP JUMPDEST POP PUSH1 0x40 DUP4 ADD MLOAD PUSH2 0x1DD8 PUSH1 0x40 DUP7 ADD DUP3 PUSH2 0x1D87 JUMP JUMPDEST POP DUP1 SWAP2 POP POP SWAP3 SWAP2 POP POP JUMP JUMPDEST PUSH0 PUSH1 0x20 DUP3 ADD SWAP1 POP DUP2 DUP2 SUB PUSH0 DUP4 ADD MSTORE PUSH2 0x1DFB DUP2 DUP5 PUSH2 0x1D96 JUMP JUMPDEST SWAP1 POP SWAP3 SWAP2 POP POP JUMP JUMPDEST PUSH32 0x4E487B7100000000000000000000000000000000000000000000000000000000 PUSH0 MSTORE PUSH1 0x22 PUSH1 0x4 MSTORE PUSH1 0x24 PUSH0 REVERT JUMPDEST PUSH0 PUSH1 0x2 DUP3 DIV SWAP1 POP PUSH1 0x1 DUP3 AND DUP1 PUSH2 0x1E47 JUMPI PUSH1 0x7F DUP3 AND SWAP2 POP JUMPDEST PUSH1 0x20 DUP3 LT DUP2 SUB PUSH2 0x1E5A JUMPI PUSH2 0x1E59 PUSH2 0x1E03 JUMP JUMPDEST JUMPDEST POP SWAP2 SWAP1 POP JUMP JUMPDEST PUSH0 DUP2 SWAP1 POP SWAP3 SWAP2 POP POP JUMP JUMPDEST PUSH0 PUSH2 0x1E74 DUP3 PUSH2 0x1A5C JUMP JUMPDEST PUSH2 0x1E7E DUP2 DUP6 PUSH2 0x1E60 JUMP JUMPDEST SWAP4 POP PUSH2 0x1E8E DUP2 DUP6 PUSH1 0x20 DUP7 ADD PUSH2 0x1A76 JUMP JUMPDEST DUP1 DUP5 ADD SWAP2 POP POP SWAP3 SWAP2 POP POP JUMP JUMPDEST PUSH0 PUSH2 0x1EA5 DUP3 DUP5 PUSH2 0x1E6A JUMP JUMPDEST SWAP2 POP DUP2 SWAP1 POP SWAP3 SWAP2 POP POP JUMP JUMPDEST PUSH0 DUP3 DUP3 MSTORE PUSH1 0x20 DUP3 ADD SWAP1 POP SWAP3 SWAP2 POP POP JUMP JUMPDEST PUSH32 0x4361726420697320496E76616C69640000000000000000000000000000000000 PUSH0 DUP3 ADD MSTORE POP JUMP JUMPDEST PUSH0 PUSH2 0x1EF4 PUSH1 0xF DUP4 PUSH2 0x1EB0 JUMP JUMPDEST SWAP2 POP PUSH2 0x1EFF DUP3 PUSH2 0x1EC0 JUMP JUMPDEST PUSH1 0x20 DUP3 ADD SWAP1 POP SWAP2 SWAP1 POP JUMP JUMPDEST PUSH0 PUSH1 0x20 DUP3 ADD SWAP1 POP DUP2 DUP2 SUB PUSH0 DUP4 ADD MSTORE PUSH2 0x1F21 DUP2 PUSH2 0x1EE8 JUMP JUMPDEST SWAP1 POP SWAP2 SWAP1 POP JUMP JUMPDEST PUSH32 0x5573657220646F6573206E6F7420657869737400000000000000000000000000 PUSH0 DUP3 ADD MSTORE POP JUMP JUMPDEST PUSH0 PUSH2 0x1F5C PUSH1 0x13 DUP4 PUSH2 0x1EB0 JUMP JUMPDEST SWAP2 POP PUSH2 0x1F67 DUP3 PUSH2 0x1F28 JUMP JUMPDEST PUSH1 0x20 DUP3 ADD SWAP1 POP SWAP2 SWAP1 POP JUMP JUMPDEST PUSH0 PUSH1 0x20 DUP3 ADD SWAP1 POP DUP2 DUP2 SUB PUSH0 DUP4 ADD MSTORE PUSH2 0x1F89 DUP2 PUSH2 0x1F50 JUMP JUMPDEST SWAP1 POP SWAP2 SWAP1 POP JUMP JUMPDEST PUSH32 0x5265656E7472616E637947756172643A207265656E7472616E742063616C6C00 PUSH0 DUP3 ADD MSTORE POP JUMP JUMPDEST PUSH0 PUSH2 0x1FC4 PUSH1 0x1F DUP4 PUSH2 0x1EB0 JUMP JUMPDEST SWAP2 POP PUSH2 0x1FCF DUP3 PUSH2 0x1F90 JUMP JUMPDEST PUSH1 0x20 DUP3 ADD SWAP1 POP SWAP2 SWAP1 POP JUMP JUMPDEST PUSH0 PUSH1 0x20 DUP3 ADD SWAP1 POP DUP2 DUP2 SUB PUSH0 DUP4 ADD MSTORE PUSH2 0x1FF1 DUP2 PUSH2 0x1FB8 JUMP JUMPDEST SWAP1 POP SWAP2 SWAP1 POP JUMP JUMPDEST DUP3 DUP2 DUP4 CALLDATACOPY PUSH0 DUP4 DUP4 ADD MSTORE POP POP POP JUMP JUMPDEST PUSH0 PUSH2 0x2011 DUP4 DUP6 PUSH2 0x1E60 JUMP JUMPDEST SWAP4 POP PUSH2 0x201E DUP4 DUP6 DUP5 PUSH2 0x1FF8 JUMP JUMPDEST DUP3 DUP5 ADD SWAP1 POP SWAP4 SWAP3 POP POP POP JUMP JUMPDEST PUSH0 PUSH2 0x2036 DUP3 DUP5 DUP7 PUSH2 0x2006 JUMP JUMPDEST SWAP2 POP DUP2 SWAP1 POP SWAP4 SWAP3 POP POP POP JUMP JUMPDEST PUSH32 0x47696674206361726420686173206E6F2062616C616E63650000000000000000 PUSH0 DUP3 ADD MSTORE POP JUMP JUMPDEST PUSH0 PUSH2 0x2076 PUSH1 0x18 DUP4 PUSH2 0x1EB0 JUMP JUMPDEST SWAP2 POP PUSH2 0x2081 DUP3 PUSH2 0x2042 JUMP JUMPDEST PUSH1 0x20 DUP3 ADD SWAP1 POP SWAP2 SWAP1 POP JUMP JUMPDEST PUSH0 PUSH1 0x20 DUP3 ADD SWAP1 POP DUP2 DUP2 SUB PUSH0 DUP4 ADD MSTORE PUSH2 0x20A3 DUP2 PUSH2 0x206A JUMP JUMPDEST SWAP1 POP SWAP2 SWAP1 POP JUMP JUMPDEST PUSH0 DUP2 SLOAD SWAP1 POP PUSH2 0x20B8 DUP2 PUSH2 0x1E30 JUMP JUMPDEST SWAP1 POP SWAP2 SWAP1 POP JUMP JUMPDEST PUSH32 0x4E487B7100000000000000000000000000000000000000000000000000000000 PUSH0 MSTORE PUSH1 0x41 PUSH1 0x4 MSTORE PUSH1 0x24 PUSH0 REVERT JUMPDEST PUSH0 DUP2 SWAP1 POP DUP2 PUSH0 MSTORE PUSH1 0x20 PUSH0 KECCAK256 SWAP1 POP SWAP2 SWAP1 POP JUMP JUMPDEST PUSH0 DUP2 SWAP1 POP DUP2 PUSH0 MSTORE PUSH1 0x20 PUSH0 KECCAK256 SWAP1 POP SWAP2 SWAP1 POP JUMP JUMPDEST PUSH0 PUSH1 0x20 PUSH1 0x1F DUP4 ADD DIV SWAP1 POP SWAP2 SWAP1 POP JUMP JUMPDEST PUSH0 DUP3 DUP3 SHL SWAP1 POP SWAP3 SWAP2 POP POP JUMP JUMPDEST PUSH0 PUSH1 0x8 DUP4 MUL PUSH2 0x215A PUSH32 0xFFFFFFFFFFFFFFFFFFFFFFFFFFFFFFFFFFFFFFFFFFFFFFFFFFFFFFFFFFFFFFFF DUP3 PUSH2 0x211F JUMP JUMPDEST PUSH2 0x2164 DUP7 DUP4 PUSH2 0x211F JUMP JUMPDEST SWAP6 POP DUP1 NOT DUP5 AND SWAP4 POP DUP1 DUP7 AND DUP5 OR SWAP3 POP POP POP SWAP4 SWAP3 POP POP POP JUMP JUMPDEST PUSH0 DUP2 SWAP1 POP SWAP2 SWAP1 POP JUMP JUMPDEST PUSH0 PUSH2 0x219F PUSH2 0x219A PUSH2 0x2195 DUP5 PUSH2 0x1ACC JUMP JUMPDEST PUSH2 0x217C JUMP JUMPDEST PUSH2 0x1ACC JUMP JUMPDEST SWAP1 POP SWAP2 SWAP1 POP JUMP JUMPDEST PUSH0 DUP2 SWAP1 POP SWAP2 SWAP1 POP JUMP JUMPDEST PUSH2 0x21B8 DUP4 PUSH2 0x2185 JUMP JUMPDEST PUSH2 0x21CC PUSH2 0x21C4 DUP3 PUSH2 0x21A6 JUMP JUMPDEST DUP5 DUP5 SLOAD PUSH2 0x212B JUMP JUMPDEST DUP3 SSTORE POP POP POP POP JUMP JUMPDEST PUSH0 SWAP1 JUMP JUMPDEST PUSH2 0x21E0 PUSH2 0x21D4 JUMP JUMPDEST PUSH2 0x21EB DUP2 DUP5 DUP5 PUSH2 0x21AF JUMP JUMPDEST POP POP POP JUMP JUMPDEST JUMPDEST DUP2 DUP2 LT ISZERO PUSH2 0x220E JUMPI PUSH2 0x2203 PUSH0 DUP3 PUSH2 0x21D8 JUMP JUMPDEST PUSH1 0x1 DUP2 ADD SWAP1 POP PUSH2 0x21F1 JUMP JUMPDEST POP POP JUMP JUMPDEST PUSH1 0x1F DUP3 GT ISZERO PUSH2 0x2253 JUMPI PUSH2 0x2224 DUP2 PUSH2 0x20EC JUMP JUMPDEST PUSH2 0x222D DUP5 PUSH2 0x2110 JUMP JUMPDEST DUP2 ADD PUSH1 0x20 DUP6 LT ISZERO PUSH2 0x223C JUMPI DUP2 SWAP1 POP JUMPDEST PUSH2 0x2250 PUSH2 0x2248 DUP6 PUSH2 0x2110 JUMP JUMPDEST DUP4 ADD DUP3 PUSH2 0x21F0 JUMP JUMPDEST POP POP JUMPDEST POP POP POP JUMP JUMPDEST PUSH0 DUP3 DUP3 SHR SWAP1 POP SWAP3 SWAP2 POP POP JUMP JUMPDEST PUSH0 PUSH2 0x2273 PUSH0 NOT DUP5 PUSH1 0x8 MUL PUSH2 0x2258 JUMP JUMPDEST NOT DUP1 DUP4 AND SWAP2 POP POP SWAP3 SWAP2 POP POP JUMP JUMPDEST PUSH0 PUSH2 0x228B DUP4 DUP4 PUSH2 0x2264 JUMP JUMPDEST SWAP2 POP DUP3 PUSH1 0x2 MUL DUP3 OR SWAP1 POP SWAP3 SWAP2 POP POP JUMP JUMPDEST DUP2 DUP2 SUB PUSH2 0x22A9 JUMPI POP POP PUSH2 0x237E JUMP JUMPDEST PUSH2 0x22B2 DUP3 PUSH2 0x20AA JUMP JUMPDEST PUSH8 0xFFFFFFFFFFFFFFFF DUP2 GT ISZERO PUSH2 0x22CB JUMPI PUSH2 0x22CA PUSH2 0x20BF JUMP JUMPDEST JUMPDEST PUSH2 0x22D5 DUP3 SLOAD PUSH2 0x1E30 JUMP JUMPDEST PUSH2 0x22E0 DUP3 DUP3 DUP6 PUSH2 0x2212 JUMP JUMPDEST PUSH0 PUSH1 0x1F DUP4 GT PUSH1 0x1 DUP2 EQ PUSH2 0x230D JUMPI PUSH0 DUP5 ISZERO PUSH2 0x22FB JUMPI DUP3 DUP8 ADD SLOAD SWAP1 POP JUMPDEST PUSH2 0x2305 DUP6 DUP3 PUSH2 0x2280 JUMP JUMPDEST DUP7 SSTORE POP PUSH2 0x2377 JUMP JUMPDEST PUSH1 0x1F NOT DUP5 AND PUSH2 0x231B DUP8 PUSH2 0x20FE JUMP JUMPDEST SWAP7 POP PUSH2 0x2326 DUP7 PUSH2 0x20EC JUMP JUMPDEST PUSH0 JUMPDEST DUP3 DUP2 LT ISZERO PUSH2 0x234D JUMPI DUP5 DUP10 ADD SLOAD DUP3 SSTORE PUSH1 0x1 DUP3 ADD SWAP2 POP PUSH1 0x1 DUP6 ADD SWAP5 POP PUSH1 0x20 DUP2 ADD SWAP1 POP PUSH2 0x2328 JUMP JUMPDEST DUP7 DUP4 LT ISZERO PUSH2 0x236A JUMPI DUP5 DUP10 ADD SLOAD PUSH2 0x2366 PUSH1 0x1F DUP10 AND DUP3 PUSH2 0x2264 JUMP JUMPDEST DUP4 SSTORE POP JUMPDEST PUSH1 0x1 PUSH1 0x2 DUP9 MUL ADD DUP9 SSTORE POP POP POP JUMPDEST POP POP POP POP POP POP JUMPDEST JUMP JUMPDEST PUSH0 DUP2 SWAP1 POP SWAP3 SWAP2 POP POP JUMP JUMPDEST POP JUMP JUMPDEST PUSH0 PUSH2 0x2398 PUSH0 DUP4 PUSH2 0x2380 JUMP JUMPDEST SWAP2 POP PUSH2 0x23A3 DUP3 PUSH2 0x238A JUMP JUMPDEST PUSH0 DUP3 ADD SWAP1 POP SWAP2 SWAP1 POP JUMP JUMPDEST PUSH0 PUSH2 0x23B7 DUP3 PUSH2 0x238D JUMP JUMPDEST SWAP2 POP DUP2 SWAP1 POP SWAP2 SWAP1 POP JUMP JUMPDEST PUSH32 0x4574686572207472616E73666572206661696C65640000000000000000000000 PUSH0 DUP3 ADD MSTORE POP JUMP JUMPDEST PUSH0 PUSH2 0x23F5 PUSH1 0x15 DUP4 PUSH2 0x1EB0 JUMP JUMPDEST SWAP2 POP PUSH2 0x2400 DUP3 PUSH2 0x23C1 JUMP JUMPDEST PUSH1 0x20 DUP3 ADD SWAP1 POP SWAP2 SWAP1 POP JUMP JUMPDEST PUSH0 PUSH1 0x20 DUP3 ADD SWAP1 POP DUP2 DUP2 SUB PUSH0 DUP4 ADD MSTORE PUSH2 0x2422 DUP2 PUSH2 0x23E9 JUMP JUMPDEST SWAP1 POP SWAP2 SWAP1 POP JUMP JUMPDEST PUSH2 0x2432 DUP2 PUSH2 0x1ACC JUMP JUMPDEST DUP3 MSTORE POP POP JUMP JUMPDEST PUSH0 PUSH1 0x20 DUP3 ADD SWAP1 POP PUSH2 0x244B PUSH0 DUP4 ADD DUP5 PUSH2 0x2429 JUMP JUMPDEST SWAP3 SWAP2 POP POP JUMP JUMPDEST PUSH0 DUP2 SLOAD PUSH2 0x245D DUP2 PUSH2 0x1E30 JUMP JUMPDEST PUSH2 0x2467 DUP2 DUP7 PUSH2 0x1E60 JUMP JUMPDEST SWAP5 POP PUSH1 0x1 DUP3 AND PUSH0 DUP2 EQ PUSH2 0x2481 JUMPI PUSH1 0x1 DUP2 EQ PUSH2 0x2496 JUMPI PUSH2 0x24C8 JUMP JUMPDEST PUSH1 0xFF NOT DUP4 AND DUP7 MSTORE DUP2 ISZERO ISZERO DUP3 MUL DUP7 ADD SWAP4 POP PUSH2 0x24C8 JUMP JUMPDEST PUSH2 0x249F DUP6 PUSH2 0x20EC JUMP JUMPDEST PUSH0 JUMPDEST DUP4 DUP2 LT ISZERO PUSH2 0x24C0 JUMPI DUP2 SLOAD DUP2 DUP10 ADD MSTORE PUSH1 0x1 DUP3 ADD SWAP2 POP PUSH1 0x20 DUP2 ADD SWAP1 POP PUSH2 0x24A1 JUMP JUMPDEST DUP4 DUP9 ADD SWAP6 POP POP POP JUMPDEST POP POP POP SWAP3 SWAP2 POP POP JUMP JUMPDEST PUSH0 PUSH2 0x24DC DUP3 DUP5 PUSH2 0x2451 JUMP JUMPDEST SWAP2 POP DUP2 SWAP1 POP SWAP3 SWAP2 POP POP JUMP JUMPDEST PUSH32 0x4E487B7100000000000000000000000000000000000000000000000000000000 PUSH0 MSTORE PUSH1 0x32 PUSH1 0x4 MSTORE PUSH1 0x24 PUSH0 REVERT JUMPDEST PUSH32 0x4E487B7100000000000000000000000000000000000000000000000000000000 PUSH0 MSTORE PUSH1 0x11 PUSH1 0x4 MSTORE PUSH1 0x24 PUSH0 REVERT JUMPDEST PUSH0 PUSH2 0x254B DUP3 PUSH2 0x1ACC JUMP JUMPDEST SWAP2 POP PUSH32 0xFFFFFFFFFFFFFFFFFFFFFFFFFFFFFFFFFFFFFFFFFFFFFFFFFFFFFFFFFFFFFFFF DUP3 SUB PUSH2 0x257D JUMPI PUSH2 0x257C PUSH2 0x2514 JUMP JUMPDEST JUMPDEST PUSH1 0x1 DUP3 ADD SWAP1 POP SWAP2 SWAP1 POP JUMP JUMPDEST PUSH2 0x2591 DUP3 PUSH2 0x1A5C JUMP JUMPDEST PUSH8 0xFFFFFFFFFFFFFFFF DUP2 GT ISZERO PUSH2 0x25AA JUMPI PUSH2 0x25A9 PUSH2 0x20BF JUMP JUMPDEST JUMPDEST PUSH2 0x25B4 DUP3 SLOAD PUSH2 0x1E30 JUMP JUMPDEST PUSH2 0x25BF DUP3 DUP3 DUP6 PUSH2 0x2212 JUMP JUMPDEST PUSH0 PUSH1 0x20 SWAP1 POP PUSH1 0x1F DUP4 GT PUSH1 0x1 DUP2 EQ PUSH2 0x25F0 JUMPI PUSH0 DUP5 ISZERO PUSH2 0x25DE JUMPI DUP3 DUP8 ADD MLOAD SWAP1 POP JUMPDEST PUSH2 0x25E8 DUP6 DUP3 PUSH2 0x2280 JUMP JUMPDEST DUP7 SSTORE POP PUSH2 0x264F JUMP JUMPDEST PUSH1 0x1F NOT DUP5 AND PUSH2 0x25FE DUP7 PUSH2 0x20EC JUMP JUMPDEST PUSH0 JUMPDEST DUP3 DUP2 LT ISZERO PUSH2 0x2625 JUMPI DUP5 DUP10 ADD MLOAD DUP3 SSTORE PUSH1 0x1 DUP3 ADD SWAP2 POP PUSH1 0x20 DUP6 ADD SWAP5 POP PUSH1 0x20 DUP2 ADD SWAP1 POP PUSH2 0x2600 JUMP JUMPDEST DUP7 DUP4 LT ISZERO PUSH2 0x2642 JUMPI DUP5 DUP10 ADD MLOAD PUSH2 0x263E PUSH1 0x1F DUP10 AND DUP3 PUSH2 0x2264 JUMP JUMPDEST DUP4 SSTORE POP JUMPDEST PUSH1 0x1 PUSH1 0x2 DUP9 MUL ADD DUP9 SSTORE POP POP POP JUMPDEST POP POP POP POP POP POP JUMP JUMPDEST PUSH0 PUSH2 0x2661 DUP3 PUSH2 0x1ACC JUMP JUMPDEST SWAP2 POP PUSH2 0x266C DUP4 PUSH2 0x1ACC JUMP JUMPDEST SWAP3 POP DUP3 DUP3 MUL PUSH2 0x267A DUP2 PUSH2 0x1ACC JUMP JUMPDEST SWAP2 POP DUP3 DUP3 DIV DUP5 EQ DUP4 ISZERO OR PUSH2 0x2691 JUMPI PUSH2 0x2690 PUSH2 0x2514 JUMP JUMPDEST JUMPDEST POP SWAP3 SWAP2 POP POP JUMP JUMPDEST PUSH32 0x4E487B7100000000000000000000000000000000000000000000000000000000 PUSH0 MSTORE PUSH1 0x12 PUSH1 0x4 MSTORE PUSH1 0x24 PUSH0 REVERT JUMPDEST PUSH0 PUSH2 0x26CF DUP3 PUSH2 0x1ACC JUMP JUMPDEST SWAP2 POP PUSH2 0x26DA DUP4 PUSH2 0x1ACC JUMP JUMPDEST SWAP3 POP DUP3 PUSH2 0x26EA JUMPI PUSH2 0x26E9 PUSH2 0x2698 JUMP JUMPDEST JUMPDEST DUP3 DUP3 DIV SWAP1 POP SWAP3 SWAP2 POP POP JUMP JUMPDEST PUSH0 PUSH2 0x26FF DUP3 PUSH2 0x1A5C JUMP JUMPDEST PUSH2 0x2709 DUP2 DUP6 PUSH2 0x1EB0 JUMP JUMPDEST SWAP4 POP PUSH2 0x2719 DUP2 DUP6 PUSH1 0x20 DUP7 ADD PUSH2 0x1A76 JUMP JUMPDEST PUSH2 0x2722 DUP2 PUSH2 0x1A84 JUMP JUMPDEST DUP5 ADD SWAP2 POP POP SWAP3 SWAP2 POP POP JUMP JUMPDEST PUSH0 PUSH1 0x40 DUP3 ADD SWAP1 POP DUP2 DUP2 SUB PUSH0 DUP4 ADD MSTORE PUSH2 0x2745 DUP2 DUP6 PUSH2 0x26F5 JUMP JUMPDEST SWAP1 POP PUSH2 0x2754 PUSH1 0x20 DUP4 ADD DUP5 PUSH2 0x2429 JUMP JUMPDEST SWAP4 SWAP3 POP POP POP JUMP JUMPDEST PUSH32 0x596F7520617265206E6F7420616E2061646D696E000000000000000000000000 PUSH0 DUP3 ADD MSTORE POP JUMP JUMPDEST PUSH0 PUSH2 0x278F PUSH1 0x14 DUP4 PUSH2 0x1EB0 JUMP JUMPDEST SWAP2 POP PUSH2 0x279A DUP3 PUSH2 0x275B JUMP JUMPDEST PUSH1 0x20 DUP3 ADD SWAP1 POP SWAP2 SWAP1 POP JUMP JUMPDEST PUSH0 PUSH1 0x20 DUP3 ADD SWAP1 POP DUP2 DUP2 SUB PUSH0 DUP4 ADD MSTORE PUSH2 0x27BC DUP2 PUSH2 0x2783 JUMP JUMPDEST SWAP1 POP SWAP2 SWAP1 POP JUMP JUMPDEST PUSH0 PUSH2 0x27CD DUP3 PUSH2 0x1ACC JUMP JUMPDEST SWAP2 POP PUSH2 0x27D8 DUP4 PUSH2 0x1ACC JUMP JUMPDEST SWAP3 POP DUP3 PUSH2 0x27E8 JUMPI PUSH2 0x27E7 PUSH2 0x2698 JUMP JUMPDEST JUMPDEST DUP3 DUP3 MOD SWAP1 POP SWAP3 SWAP2 POP POP JUMP JUMPDEST PUSH0 PUSH2 0x27FD DUP3 PUSH2 0x1ACC JUMP JUMPDEST SWAP2 POP PUSH2 0x2808 DUP4 PUSH2 0x1ACC JUMP JUMPDEST SWAP3 POP DUP3 DUP3 ADD SWAP1 POP DUP1 DUP3 GT ISZERO PUSH2 0x2820 JUMPI PUSH2 0x281F PUSH2 0x2514 JUMP JUMPDEST JUMPDEST SWAP3 SWAP2 POP POP JUMP JUMPDEST PUSH32 0x436F6465206973204E6F7420556E697175650000000000000000000000000000 PUSH0 DUP3 ADD MSTORE POP JUMP JUMPDEST PUSH0 PUSH2 0x285A PUSH1 0x12 DUP4 PUSH2 0x1EB0 JUMP JUMPDEST SWAP2 POP PUSH2 0x2865 DUP3 PUSH2 0x2826 JUMP JUMPDEST PUSH1 0x20 DUP3 ADD SWAP1 POP SWAP2 SWAP1 POP JUMP JUMPDEST PUSH0 PUSH1 0x20 DUP3 ADD SWAP1 POP DUP2 DUP2 SUB PUSH0 DUP4 ADD MSTORE PUSH2 0x2887 DUP2 PUSH2 0x284E JUMP JUMPDEST SWAP1 POP SWAP2 SWAP1 POP JUMP JUMPDEST PUSH0 DUP2 SWAP1 POP SWAP2 SWAP1 POP JUMP JUMPDEST PUSH2 0x28A8 PUSH2 0x28A3 DUP3 PUSH2 0x1ACC JUMP JUMPDEST PUSH2 0x288E JUMP JUMPDEST DUP3 MSTORE POP POP JUMP JUMPDEST PUSH0 PUSH2 0x28B9 DUP3 DUP7 PUSH2 0x2897 JUMP JUMPDEST PUSH1 0x20 DUP3 ADD SWAP2 POP PUSH2 0x28C9 DUP3 DUP6 PUSH2 0x2897 JUMP JUMPDEST PUSH1 0x20 DUP3 ADD SWAP2 POP PUSH2 0x28D9 DUP3 DUP5 PUSH2 0x2897 JUMP JUMPDEST PUSH1 0x20 DUP3 ADD SWAP2 POP DUP2 SWAP1 POP SWAP5 SWAP4 POP POP POP POP JUMP INVALID LOG2 PUSH5 0x6970667358 0x22 SLT KECCAK256 LOG4 PUSH26 0x6945B075D5BB3DBC9141717859EE3E17E70C5565E309428B65A7 SWAP16 0xE0 0xE SAR PUSH5 0x736F6C6343 STOP ADDMOD BYTE STOP CALLER "
				},
				"gasEstimates": {
					"creation": {
						"codeDepositCost": "2105600",
						"executionCost": "infinite",
						"totalCost": "infinite"
					},
					"external": {
						"": "173",
						"buyGiftCard()": "infinite",
						"getAllGiftCards()": "infinite",
						"getMyCard()": "infinite",
						"getMyData()": "infinite",
						"isAdmin()": "5066",
						"isRegistered()": "2669",
						"redeemCard(string)": "infinite",
						"registration(string,uint8)": "infinite"
					},
					"internal": {
						"addCard(string memory,uint256)": "infinite",
						"generateGiftCardCode()": "infinite",
						"getRandomNumber(uint256)": "infinite"
					}
				},
				"methodIdentifiers": {
					"buyGiftCard()": "a34f011c",
					"getAllGiftCards()": "a927db0d",
					"getMyCard()": "2b4a9dda",
					"getMyData()": "d9c8a38b",
					"isAdmin()": "b6db75a0",
					"isRegistered()": "22366844",
					"redeemCard(string)": "27e26c8c",
					"registration(string,uint8)": "8f0e582f"
				}
			},
			"storageLayout": {
				"storage": [
					{
						"astId": 36,
						"contract": "contracts/GiftCardETH.sol:GiftCardETH",
						"label": "users",
						"offset": 0,
						"slot": "0",
						"type": "t_mapping(t_address,t_struct(User)19_storage)"
					},
					{
						"astId": 41,
						"contract": "contracts/GiftCardETH.sol:GiftCardETH",
						"label": "giftCards",
						"offset": 0,
						"slot": "1",
						"type": "t_mapping(t_string_memory_ptr,t_struct(GiftCard)31_storage)"
					},
					{
						"astId": 43,
						"contract": "contracts/GiftCardETH.sol:GiftCardETH",
						"label": "locked",
						"offset": 0,
						"slot": "2",
						"type": "t_bool"
					},
					{
						"astId": 46,
						"contract": "contracts/GiftCardETH.sol:GiftCardETH",
						"label": "giftCardCodes",
						"offset": 0,
						"slot": "3",
						"type": "t_array(t_string_storage)dyn_storage"
					},
					{
						"astId": 49,
						"contract": "contracts/GiftCardETH.sol:GiftCardETH",
						"label": "userAddresses",
						"offset": 0,
						"slot": "4",
						"type": "t_array(t_address)dyn_storage"
					}
				],
				"types": {
					"t_address": {
						"encoding": "inplace",
						"label": "address",
						"numberOfBytes": "20"
					},
					"t_array(t_address)dyn_storage": {
						"base": "t_address",
						"encoding": "dynamic_array",
						"label": "address[]",
						"numberOfBytes": "32"
					},
					"t_array(t_string_storage)dyn_storage": {
						"base": "t_string_storage",
						"encoding": "dynamic_array",
						"label": "string[]",
						"numberOfBytes": "32"
					},
					"t_bool": {
						"encoding": "inplace",
						"label": "bool",
						"numberOfBytes": "1"
					},
					"t_enum(Gender)10": {
						"encoding": "inplace",
						"label": "enum Gender",
						"numberOfBytes": "1"
					},
					"t_enum(GiftCardStatus)7": {
						"encoding": "inplace",
						"label": "enum GiftCardStatus",
						"numberOfBytes": "1"
					},
					"t_enum(UserType)4": {
						"encoding": "inplace",
						"label": "enum UserType",
						"numberOfBytes": "1"
					},
					"t_mapping(t_address,t_struct(User)19_storage)": {
						"encoding": "mapping",
						"key": "t_address",
						"label": "mapping(address => struct User)",
						"numberOfBytes": "32",
						"value": "t_struct(User)19_storage"
					},
					"t_mapping(t_string_memory_ptr,t_struct(GiftCard)31_storage)": {
						"encoding": "mapping",
						"key": "t_string_memory_ptr",
						"label": "mapping(string => struct GiftCard)",
						"numberOfBytes": "32",
						"value": "t_struct(GiftCard)31_storage"
					},
					"t_string_memory_ptr": {
						"encoding": "bytes",
						"label": "string",
						"numberOfBytes": "32"
					},
					"t_string_storage": {
						"encoding": "bytes",
						"label": "string",
						"numberOfBytes": "32"
					},
					"t_struct(GiftCard)31_storage": {
						"encoding": "inplace",
						"label": "struct GiftCard",
						"members": [
							{
								"astId": 21,
								"contract": "contracts/GiftCardETH.sol:GiftCardETH",
								"label": "code",
								"offset": 0,
								"slot": "0",
								"type": "t_string_storage"
							},
							{
								"astId": 23,
								"contract": "contracts/GiftCardETH.sol:GiftCardETH",
								"label": "buyer",
								"offset": 0,
								"slot": "1",
								"type": "t_string_storage"
							},
							{
								"astId": 25,
								"contract": "contracts/GiftCardETH.sol:GiftCardETH",
								"label": "amount",
								"offset": 0,
								"slot": "2",
								"type": "t_uint256"
							},
							{
								"astId": 28,
								"contract": "contracts/GiftCardETH.sol:GiftCardETH",
								"label": "giftCardStatus",
								"offset": 0,
								"slot": "3",
								"type": "t_enum(GiftCardStatus)7"
							},
							{
								"astId": 30,
								"contract": "contracts/GiftCardETH.sol:GiftCardETH",
								"label": "getter",
								"offset": 0,
								"slot": "4",
								"type": "t_string_storage"
							}
						],
						"numberOfBytes": "160"
					},
					"t_struct(User)19_storage": {
						"encoding": "inplace",
						"label": "struct User",
						"members": [
							{
								"astId": 12,
								"contract": "contracts/GiftCardETH.sol:GiftCardETH",
								"label": "name",
								"offset": 0,
								"slot": "0",
								"type": "t_string_storage"
							},
							{
								"astId": 15,
								"contract": "contracts/GiftCardETH.sol:GiftCardETH",
								"label": "gender",
								"offset": 0,
								"slot": "1",
								"type": "t_enum(Gender)10"
							},
							{
								"astId": 18,
								"contract": "contracts/GiftCardETH.sol:GiftCardETH",
								"label": "userType",
								"offset": 1,
								"slot": "1",
								"type": "t_enum(UserType)4"
							}
						],
						"numberOfBytes": "64"
					},
					"t_uint256": {
						"encoding": "inplace",
						"label": "uint256",
						"numberOfBytes": "32"
					}
				}
			},
			"userdoc": {
				"kind": "user",
				"methods": {},
				"version": 1
			}
		}
	}
}