{
  "contracts/GiftCardETH.sol": {
    "GiftCardETH": {
      "abi": [
        {
          "inputs": [],
          "stateMutability": "nonpayable",
          "type": "constructor"
        },
        {
          "anonymous": false,
          "inputs": [
            {
              "indexed": false,
              "internalType": "string",
              "name": "code",
              "type": "string"
            },
            {
              "indexed": false,
              "internalType": "uint256",
              "name": "amount",
              "type": "uint256"
            }
          ],
          "name": "CardBought",
          "type": "event"
        },
        {
          "anonymous": false,
          "inputs": [
            {
              "indexed": false,
              "internalType": "uint256",
              "name": "amount",
              "type": "uint256"
            }
          ],
          "name": "CardRedeemed",
          "type": "event"
        },
        {
          "stateMutability": "payable",
          "type": "fallback"
        },
        {
          "inputs": [],
          "name": "buyGiftCard",
          "outputs": [],
          "stateMutability": "payable",
          "type": "function"
        },
        {
          "inputs": [],
          "name": "contractBalance",
          "outputs": [
            {
              "internalType": "uint256",
              "name": "",
              "type": "uint256"
            }
          ],
          "stateMutability": "view",
          "type": "function"
        },
        {
          "inputs": [],
          "name": "getAllGiftCards",
          "outputs": [
            {
              "components": [
                {
                  "internalType": "string",
                  "name": "code",
                  "type": "string"
                },
                {
                  "internalType": "string",
                  "name": "buyer",
                  "type": "string"
                },
                {
                  "internalType": "uint256",
                  "name": "amount",
                  "type": "uint256"
                },
                {
                  "internalType": "enum GiftCardStatus",
                  "name": "giftCardStatus",
                  "type": "uint8"
                },
                {
                  "internalType": "string",
                  "name": "getter",
                  "type": "string"
                }
              ],
              "internalType": "struct GiftCard[]",
              "name": "giftcards",
              "type": "tuple[]"
            }
          ],
          "stateMutability": "view",
          "type": "function"
        },
        {
          "inputs": [],
          "name": "getMyCard",
          "outputs": [
            {
              "components": [
                {
                  "internalType": "string",
                  "name": "code",
                  "type": "string"
                },
                {
                  "internalType": "string",
                  "name": "buyer",
                  "type": "string"
                },
                {
                  "internalType": "uint256",
                  "name": "amount",
                  "type": "uint256"
                },
                {
                  "internalType": "enum GiftCardStatus",
                  "name": "giftCardStatus",
                  "type": "uint8"
                },
                {
                  "internalType": "string",
                  "name": "getter",
                  "type": "string"
                }
              ],
              "internalType": "struct GiftCard[]",
              "name": "",
              "type": "tuple[]"
            }
          ],
          "stateMutability": "view",
          "type": "function"
        },
        {
          "inputs": [],
          "name": "getMyData",
          "outputs": [
            {
              "components": [
                {
                  "internalType": "string",
                  "name": "name",
                  "type": "string"
                },
                {
                  "internalType": "enum Gender",
                  "name": "gender",
                  "type": "uint8"
                },
                {
                  "internalType": "enum UserType",
                  "name": "userType",
                  "type": "uint8"
                }
              ],
              "internalType": "struct User",
              "name": "",
              "type": "tuple"
            }
          ],
          "stateMutability": "view",
          "type": "function"
        },
        {
          "inputs": [],
          "name": "isAdmin",
          "outputs": [
            {
              "internalType": "bool",
              "name": "",
              "type": "bool"
            }
          ],
          "stateMutability": "view",
          "type": "function"
        },
        {
          "inputs": [],
          "name": "isRegistered",
          "outputs": [
            {
              "internalType": "bool",
              "name": "",
              "type": "bool"
            }
          ],
          "stateMutability": "view",
          "type": "function"
        },
        {
          "inputs": [
            {
              "internalType": "string",
              "name": "_code",
              "type": "string"
            }
          ],
          "name": "redeemCard",
          "outputs": [],
          "stateMutability": "nonpayable",
          "type": "function"
        },
        {
          "inputs": [
            {
              "internalType": "string",
              "name": "name",
              "type": "string"
            },
            {
              "internalType": "enum Gender",
              "name": "gender",
              "type": "uint8"
            }
          ],
          "name": "registration",
          "outputs": [],
          "stateMutability": "nonpayable",
          "type": "function"
        },
        {
          "inputs": [],
          "name": "withdrawBalance",
          "outputs": [
            {
              "internalType": "bool",
              "name": "",
              "type": "bool"
            }
          ],
          "stateMutability": "payable",
          "type": "function"
        },
        {
          "stateMutability": "payable",
          "type": "receive"
        }
      ],
      "devdoc": {
        "kind": "dev",
        "methods": {},
        "version": 1
      },
      "evm": {
        "assembly": "    /* \"contracts/GiftCardETH.sol\":385:6836  contract GiftCardETH {... */\n  mstore(0x40, 0x80)\n    /* \"contracts/GiftCardETH.sol\":588:589  0 */\n  0x00\n    /* \"contracts/GiftCardETH.sol\":573:589  uint balance = 0 */\n  0x05\n  sstore\n    /* \"contracts/GiftCardETH.sol\":596:1014  constructor() {... */\n  callvalue\n  dup1\n  iszero\n  tag_1\n  jumpi\n  0x00\n  dup1\n  revert\ntag_1:\n  pop\n    /* \"contracts/GiftCardETH.sol\":640:738  User(... */\n  mload(0x40)\n  dup1\n  0x60\n  add\n  0x40\n  mstore\n  dup1\n  mload(0x40)\n  dup1\n  0x40\n  add\n  0x40\n  mstore\n  dup1\n  0x0f\n  dup2\n  mstore\n  0x20\n  add\n  0x4962726168696d204d6f68616d65640000000000000000000000000000000000\n  dup2\n  mstore\n  pop\n  dup2\n  mstore\n  0x20\n  add\n    /* \"contracts/GiftCardETH.sol\":689:700  Gender.MALE */\n  0x01\n    /* \"contracts/GiftCardETH.sol\":640:738  User(... */\n  dup1\n  dup2\n  gt\n  iszero\n  tag_4\n  jumpi\n  tag_5\n  tag_6\n  jump\t// in\ntag_5:\ntag_4:\n  dup2\n  mstore\n  0x20\n  add\n    /* \"contracts/GiftCardETH.sol\":714:728  UserType.ADMIN */\n  0x01\n    /* \"contracts/GiftCardETH.sol\":640:738  User(... */\n  dup1\n  dup2\n  gt\n  iszero\n  tag_7\n  jumpi\n  tag_8\n  tag_6\n  jump\t// in\ntag_8:\ntag_7:\n  dup2\n  mstore\n  pop\n    /* \"contracts/GiftCardETH.sol\":620:625  users */\n  0x00\n    /* \"contracts/GiftCardETH.sol\":620:637  users[msg.sender] */\n  dup1\n    /* \"contracts/GiftCardETH.sol\":626:636  msg.sender */\n  caller\n    /* \"contracts/GiftCardETH.sol\":620:637  users[msg.sender] */\n  0xffffffffffffffffffffffffffffffffffffffff\n  and\n  0xffffffffffffffffffffffffffffffffffffffff\n  and\n  dup2\n  mstore\n  0x20\n  add\n  swap1\n  dup2\n  mstore\n  0x20\n  add\n  0x00\n  keccak256\n    /* \"contracts/GiftCardETH.sol\":620:738  users[msg.sender] = User(... */\n  0x00\n  dup3\n  add\n  mload\n  dup2\n  0x00\n  add\n  swap1\n  dup2\n  tag_9\n  swap2\n  swap1\n  tag_10\n  jump\t// in\ntag_9:\n  pop\n  0x20\n  dup3\n  add\n  mload\n  dup2\n  0x01\n  add\n  exp(0x0100, 0x00)\n  dup2\n  sload\n  dup2\n  0xff\n  mul\n  not\n  and\n  swap1\n  dup4\n  0x01\n  dup2\n  gt\n  iszero\n  tag_11\n  jumpi\n  tag_12\n  tag_6\n  jump\t// in\ntag_12:\ntag_11:\n  mul\n  or\n  swap1\n  sstore\n  pop\n  0x40\n  dup3\n  add\n  mload\n  dup2\n  0x01\n  add\n  exp(0x0100, 0x01)\n  dup2\n  sload\n  dup2\n  0xff\n  mul\n  not\n  and\n  swap1\n  dup4\n  0x01\n  dup2\n  gt\n  iszero\n  tag_13\n  jumpi\n  tag_14\n  tag_6\n  jump\t// in\ntag_14:\ntag_13:\n  mul\n  or\n  swap1\n  sstore\n  pop\n  swap1\n  pop\n  pop\n    /* \"contracts/GiftCardETH.sol\":748:761  userAddresses */\n  0x04\n    /* \"contracts/GiftCardETH.sol\":767:777  msg.sender */\n  caller\n    /* \"contracts/GiftCardETH.sol\":748:778  userAddresses.push(msg.sender) */\n  swap1\n  dup1\n  0x01\n  dup2\n  sload\n  add\n  dup1\n  dup3\n  sstore\n  dup1\n  swap2\n  pop\n  pop\n  0x01\n  swap1\n  sub\n  swap1\n  0x00\n  mstore\n  keccak256(0x00, 0x20)\n  add\n  0x00\n  swap1\n  swap2\n  swap1\n  swap2\n  swap1\n  swap2\n  0x0100\n  exp\n  dup2\n  sload\n  dup2\n  0xffffffffffffffffffffffffffffffffffffffff\n  mul\n  not\n  and\n  swap1\n  dup4\n  0xffffffffffffffffffffffffffffffffffffffff\n  and\n  mul\n  or\n  swap1\n  sstore\n  pop\n    /* \"contracts/GiftCardETH.sol\":841:935  User(... */\n  mload(0x40)\n  dup1\n  0x60\n  add\n  0x40\n  mstore\n  dup1\n  mload(0x40)\n  dup1\n  0x40\n  add\n  0x40\n  mstore\n  dup1\n  0x0b\n  dup2\n  mstore\n  0x20\n  add\n  0x4f62616461205361667761000000000000000000000000000000000000000000\n  dup2\n  mstore\n  pop\n  dup2\n  mstore\n  0x20\n  add\n    /* \"contracts/GiftCardETH.sol\":886:897  Gender.MALE */\n  0x01\n    /* \"contracts/GiftCardETH.sol\":841:935  User(... */\n  dup1\n  dup2\n  gt\n  iszero\n  tag_16\n  jumpi\n  tag_17\n  tag_6\n  jump\t// in\ntag_17:\ntag_16:\n  dup2\n  mstore\n  0x20\n  add\n    /* \"contracts/GiftCardETH.sol\":911:925  UserType.ADMIN */\n  0x01\n    /* \"contracts/GiftCardETH.sol\":841:935  User(... */\n  dup1\n  dup2\n  gt\n  iszero\n  tag_18\n  jumpi\n  tag_19\n  tag_6\n  jump\t// in\ntag_19:\ntag_18:\n  dup2\n  mstore\n  pop\n    /* \"contracts/GiftCardETH.sol\":789:794  users */\n  0x00\n    /* \"contracts/GiftCardETH.sol\":789:838  users[0xAd009219D5052664e665c2A95f12e4aBeA6730C0] */\n  dup1\n    /* \"contracts/GiftCardETH.sol\":795:837  0xAd009219D5052664e665c2A95f12e4aBeA6730C0 */\n  0xad009219d5052664e665c2a95f12e4abea6730c0\n    /* \"contracts/GiftCardETH.sol\":789:838  users[0xAd009219D5052664e665c2A95f12e4aBeA6730C0] */\n  0xffffffffffffffffffffffffffffffffffffffff\n  and\n  0xffffffffffffffffffffffffffffffffffffffff\n  and\n  dup2\n  mstore\n  0x20\n  add\n  swap1\n  dup2\n  mstore\n  0x20\n  add\n  0x00\n  keccak256\n    /* \"contracts/GiftCardETH.sol\":789:935  users[0xAd009219D5052664e665c2A95f12e4aBeA6730C0] = User(... */\n  0x00\n  dup3\n  add\n  mload\n  dup2\n  0x00\n  add\n  swap1\n  dup2\n  tag_20\n  swap2\n  swap1\n  tag_10\n  jump\t// in\ntag_20:\n  pop\n  0x20\n  dup3\n  add\n  mload\n  dup2\n  0x01\n  add\n  exp(0x0100, 0x00)\n  dup2\n  sload\n  dup2\n  0xff\n  mul\n  not\n  and\n  swap1\n  dup4\n  0x01\n  dup2\n  gt\n  iszero\n  tag_21\n  jumpi\n  tag_22\n  tag_6\n  jump\t// in\ntag_22:\ntag_21:\n  mul\n  or\n  swap1\n  sstore\n  pop\n  0x40\n  dup3\n  add\n  mload\n  dup2\n  0x01\n  add\n  exp(0x0100, 0x01)\n  dup2\n  sload\n  dup2\n  0xff\n  mul\n  not\n  and\n  swap1\n  dup4\n  0x01\n  dup2\n  gt\n  iszero\n  tag_23\n  jumpi\n  tag_24\n  tag_6\n  jump\t// in\ntag_24:\ntag_23:\n  mul\n  or\n  swap1\n  sstore\n  pop\n  swap1\n  pop\n  pop\n    /* \"contracts/GiftCardETH.sol\":945:958  userAddresses */\n  0x04\n    /* \"contracts/GiftCardETH.sol\":964:1006  0xAd009219D5052664e665c2A95f12e4aBeA6730C0 */\n  0xad009219d5052664e665c2a95f12e4abea6730c0\n    /* \"contracts/GiftCardETH.sol\":945:1007  userAddresses.push(0xAd009219D5052664e665c2A95f12e4aBeA6730C0) */\n  swap1\n  dup1\n  0x01\n  dup2\n  sload\n  add\n  dup1\n  dup3\n  sstore\n  dup1\n  swap2\n  pop\n  pop\n  0x01\n  swap1\n  sub\n  swap1\n  0x00\n  mstore\n  keccak256(0x00, 0x20)\n  add\n  0x00\n  swap1\n  swap2\n  swap1\n  swap2\n  swap1\n  swap2\n  0x0100\n  exp\n  dup2\n  sload\n  dup2\n  0xffffffffffffffffffffffffffffffffffffffff\n  mul\n  not\n  and\n  swap1\n  dup4\n  0xffffffffffffffffffffffffffffffffffffffff\n  and\n  mul\n  or\n  swap1\n  sstore\n  pop\n    /* \"contracts/GiftCardETH.sol\":385:6836  contract GiftCardETH {... */\n  jump(tag_26)\n    /* \"#utility.yul\":7:187   */\ntag_6:\n    /* \"#utility.yul\":55:132   */\n  0x4e487b7100000000000000000000000000000000000000000000000000000000\n    /* \"#utility.yul\":52:53   */\n  0x00\n    /* \"#utility.yul\":45:133   */\n  mstore\n    /* \"#utility.yul\":152:156   */\n  0x21\n    /* \"#utility.yul\":149:150   */\n  0x04\n    /* \"#utility.yul\":142:157   */\n  mstore\n    /* \"#utility.yul\":176:180   */\n  0x24\n    /* \"#utility.yul\":173:174   */\n  0x00\n    /* \"#utility.yul\":166:181   */\n  revert\n    /* \"#utility.yul\":193:292   */\ntag_27:\n    /* \"#utility.yul\":245:251   */\n  0x00\n    /* \"#utility.yul\":279:284   */\n  dup2\n    /* \"#utility.yul\":273:285   */\n  mload\n    /* \"#utility.yul\":263:285   */\n  swap1\n  pop\n    /* \"#utility.yul\":193:292   */\n  swap2\n  swap1\n  pop\n  jump\t// out\n    /* \"#utility.yul\":298:478   */\ntag_28:\n    /* \"#utility.yul\":346:423   */\n  0x4e487b7100000000000000000000000000000000000000000000000000000000\n    /* \"#utility.yul\":343:344   */\n  0x00\n    /* \"#utility.yul\":336:424   */\n  mstore\n    /* \"#utility.yul\":443:447   */\n  0x41\n    /* \"#utility.yul\":440:441   */\n  0x04\n    /* \"#utility.yul\":433:448   */\n  mstore\n    /* \"#utility.yul\":467:471   */\n  0x24\n    /* \"#utility.yul\":464:465   */\n  0x00\n    /* \"#utility.yul\":457:472   */\n  revert\n    /* \"#utility.yul\":484:664   */\ntag_29:\n    /* \"#utility.yul\":532:609   */\n  0x4e487b7100000000000000000000000000000000000000000000000000000000\n    /* \"#utility.yul\":529:530   */\n  0x00\n    /* \"#utility.yul\":522:610   */\n  mstore\n    /* \"#utility.yul\":629:633   */\n  0x22\n    /* \"#utility.yul\":626:627   */\n  0x04\n    /* \"#utility.yul\":619:634   */\n  mstore\n    /* \"#utility.yul\":653:657   */\n  0x24\n    /* \"#utility.yul\":650:651   */\n  0x00\n    /* \"#utility.yul\":643:658   */\n  revert\n    /* \"#utility.yul\":670:990   */\ntag_30:\n    /* \"#utility.yul\":714:720   */\n  0x00\n    /* \"#utility.yul\":751:752   */\n  0x02\n    /* \"#utility.yul\":745:749   */\n  dup3\n    /* \"#utility.yul\":741:753   */\n  div\n    /* \"#utility.yul\":731:753   */\n  swap1\n  pop\n    /* \"#utility.yul\":798:799   */\n  0x01\n    /* \"#utility.yul\":792:796   */\n  dup3\n    /* \"#utility.yul\":788:800   */\n  and\n    /* \"#utility.yul\":819:837   */\n  dup1\n    /* \"#utility.yul\":809:890   */\n  tag_53\n  jumpi\n    /* \"#utility.yul\":875:879   */\n  0x7f\n    /* \"#utility.yul\":867:873   */\n  dup3\n    /* \"#utility.yul\":863:880   */\n  and\n    /* \"#utility.yul\":853:880   */\n  swap2\n  pop\n    /* \"#utility.yul\":809:890   */\ntag_53:\n    /* \"#utility.yul\":937:939   */\n  0x20\n    /* \"#utility.yul\":929:935   */\n  dup3\n    /* \"#utility.yul\":926:940   */\n  lt\n    /* \"#utility.yul\":906:924   */\n  dup2\n    /* \"#utility.yul\":903:941   */\n  sub\n    /* \"#utility.yul\":900:984   */\n  tag_54\n  jumpi\n    /* \"#utility.yul\":956:974   */\n  tag_55\n  tag_29\n  jump\t// in\ntag_55:\n    /* \"#utility.yul\":900:984   */\ntag_54:\n    /* \"#utility.yul\":721:990   */\n  pop\n    /* \"#utility.yul\":670:990   */\n  swap2\n  swap1\n  pop\n  jump\t// out\n    /* \"#utility.yul\":996:1137   */\ntag_31:\n    /* \"#utility.yul\":1045:1049   */\n  0x00\n    /* \"#utility.yul\":1068:1071   */\n  dup2\n    /* \"#utility.yul\":1060:1071   */\n  swap1\n  pop\n    /* \"#utility.yul\":1091:1094   */\n  dup2\n    /* \"#utility.yul\":1088:1089   */\n  0x00\n    /* \"#utility.yul\":1081:1095   */\n  mstore\n    /* \"#utility.yul\":1125:1129   */\n  0x20\n    /* \"#utility.yul\":1122:1123   */\n  0x00\n    /* \"#utility.yul\":1112:1130   */\n  keccak256\n    /* \"#utility.yul\":1104:1130   */\n  swap1\n  pop\n    /* \"#utility.yul\":996:1137   */\n  swap2\n  swap1\n  pop\n  jump\t// out\n    /* \"#utility.yul\":1143:1236   */\ntag_32:\n    /* \"#utility.yul\":1180:1186   */\n  0x00\n    /* \"#utility.yul\":1227:1229   */\n  0x20\n    /* \"#utility.yul\":1222:1224   */\n  0x1f\n    /* \"#utility.yul\":1215:1220   */\n  dup4\n    /* \"#utility.yul\":1211:1225   */\n  add\n    /* \"#utility.yul\":1207:1230   */\n  div\n    /* \"#utility.yul\":1197:1230   */\n  swap1\n  pop\n    /* \"#utility.yul\":1143:1236   */\n  swap2\n  swap1\n  pop\n  jump\t// out\n    /* \"#utility.yul\":1242:1349   */\ntag_33:\n    /* \"#utility.yul\":1286:1294   */\n  0x00\n    /* \"#utility.yul\":1336:1341   */\n  dup3\n    /* \"#utility.yul\":1330:1334   */\n  dup3\n    /* \"#utility.yul\":1326:1342   */\n  shl\n    /* \"#utility.yul\":1305:1342   */\n  swap1\n  pop\n    /* \"#utility.yul\":1242:1349   */\n  swap3\n  swap2\n  pop\n  pop\n  jump\t// out\n    /* \"#utility.yul\":1355:1748   */\ntag_34:\n    /* \"#utility.yul\":1424:1430   */\n  0x00\n    /* \"#utility.yul\":1474:1475   */\n  0x08\n    /* \"#utility.yul\":1462:1472   */\n  dup4\n    /* \"#utility.yul\":1458:1476   */\n  mul\n    /* \"#utility.yul\":1497:1594   */\n  tag_60\n    /* \"#utility.yul\":1527:1593   */\n  0xffffffffffffffffffffffffffffffffffffffffffffffffffffffffffffffff\n    /* \"#utility.yul\":1516:1525   */\n  dup3\n    /* \"#utility.yul\":1497:1594   */\n  tag_33\n  jump\t// in\ntag_60:\n    /* \"#utility.yul\":1615:1654   */\n  tag_61\n    /* \"#utility.yul\":1645:1653   */\n  dup7\n    /* \"#utility.yul\":1634:1643   */\n  dup4\n    /* \"#utility.yul\":1615:1654   */\n  tag_33\n  jump\t// in\ntag_61:\n    /* \"#utility.yul\":1603:1654   */\n  swap6\n  pop\n    /* \"#utility.yul\":1687:1691   */\n  dup1\n    /* \"#utility.yul\":1683:1692   */\n  not\n    /* \"#utility.yul\":1676:1681   */\n  dup5\n    /* \"#utility.yul\":1672:1693   */\n  and\n    /* \"#utility.yul\":1663:1693   */\n  swap4\n  pop\n    /* \"#utility.yul\":1736:1740   */\n  dup1\n    /* \"#utility.yul\":1726:1734   */\n  dup7\n    /* \"#utility.yul\":1722:1741   */\n  and\n    /* \"#utility.yul\":1715:1720   */\n  dup5\n    /* \"#utility.yul\":1712:1742   */\n  or\n    /* \"#utility.yul\":1702:1742   */\n  swap3\n  pop\n    /* \"#utility.yul\":1431:1748   */\n  pop\n  pop\n    /* \"#utility.yul\":1355:1748   */\n  swap4\n  swap3\n  pop\n  pop\n  pop\n  jump\t// out\n    /* \"#utility.yul\":1754:1831   */\ntag_35:\n    /* \"#utility.yul\":1791:1798   */\n  0x00\n    /* \"#utility.yul\":1820:1825   */\n  dup2\n    /* \"#utility.yul\":1809:1825   */\n  swap1\n  pop\n    /* \"#utility.yul\":1754:1831   */\n  swap2\n  swap1\n  pop\n  jump\t// out\n    /* \"#utility.yul\":1837:1897   */\ntag_36:\n    /* \"#utility.yul\":1865:1868   */\n  0x00\n    /* \"#utility.yul\":1886:1891   */\n  dup2\n    /* \"#utility.yul\":1879:1891   */\n  swap1\n  pop\n    /* \"#utility.yul\":1837:1897   */\n  swap2\n  swap1\n  pop\n  jump\t// out\n    /* \"#utility.yul\":1903:2045   */\ntag_37:\n    /* \"#utility.yul\":1953:1962   */\n  0x00\n    /* \"#utility.yul\":1986:2039   */\n  tag_65\n    /* \"#utility.yul\":2004:2038   */\n  tag_66\n    /* \"#utility.yul\":2013:2037   */\n  tag_67\n    /* \"#utility.yul\":2031:2036   */\n  dup5\n    /* \"#utility.yul\":2013:2037   */\n  tag_35\n  jump\t// in\ntag_67:\n    /* \"#utility.yul\":2004:2038   */\n  tag_36\n  jump\t// in\ntag_66:\n    /* \"#utility.yul\":1986:2039   */\n  tag_35\n  jump\t// in\ntag_65:\n    /* \"#utility.yul\":1973:2039   */\n  swap1\n  pop\n    /* \"#utility.yul\":1903:2045   */\n  swap2\n  swap1\n  pop\n  jump\t// out\n    /* \"#utility.yul\":2051:2126   */\ntag_38:\n    /* \"#utility.yul\":2094:2097   */\n  0x00\n    /* \"#utility.yul\":2115:2120   */\n  dup2\n    /* \"#utility.yul\":2108:2120   */\n  swap1\n  pop\n    /* \"#utility.yul\":2051:2126   */\n  swap2\n  swap1\n  pop\n  jump\t// out\n    /* \"#utility.yul\":2132:2401   */\ntag_39:\n    /* \"#utility.yul\":2242:2281   */\n  tag_70\n    /* \"#utility.yul\":2273:2280   */\n  dup4\n    /* \"#utility.yul\":2242:2281   */\n  tag_37\n  jump\t// in\ntag_70:\n    /* \"#utility.yul\":2303:2394   */\n  tag_71\n    /* \"#utility.yul\":2352:2393   */\n  tag_72\n    /* \"#utility.yul\":2376:2392   */\n  dup3\n    /* \"#utility.yul\":2352:2393   */\n  tag_38\n  jump\t// in\ntag_72:\n    /* \"#utility.yul\":2344:2350   */\n  dup5\n    /* \"#utility.yul\":2337:2341   */\n  dup5\n    /* \"#utility.yul\":2331:2342   */\n  sload\n    /* \"#utility.yul\":2303:2394   */\n  tag_34\n  jump\t// in\ntag_71:\n    /* \"#utility.yul\":2297:2301   */\n  dup3\n    /* \"#utility.yul\":2290:2395   */\n  sstore\n    /* \"#utility.yul\":2208:2401   */\n  pop\n    /* \"#utility.yul\":2132:2401   */\n  pop\n  pop\n  pop\n  jump\t// out\n    /* \"#utility.yul\":2407:2480   */\ntag_40:\n    /* \"#utility.yul\":2452:2455   */\n  0x00\n    /* \"#utility.yul\":2407:2480   */\n  swap1\n  jump\t// out\n    /* \"#utility.yul\":2486:2675   */\ntag_41:\n    /* \"#utility.yul\":2563:2595   */\n  tag_75\n  tag_40\n  jump\t// in\ntag_75:\n    /* \"#utility.yul\":2604:2669   */\n  tag_76\n    /* \"#utility.yul\":2662:2668   */\n  dup2\n    /* \"#utility.yul\":2654:2660   */\n  dup5\n    /* \"#utility.yul\":2648:2652   */\n  dup5\n    /* \"#utility.yul\":2604:2669   */\n  tag_39\n  jump\t// in\ntag_76:\n    /* \"#utility.yul\":2539:2675   */\n  pop\n    /* \"#utility.yul\":2486:2675   */\n  pop\n  pop\n  jump\t// out\n    /* \"#utility.yul\":2681:2867   */\ntag_42:\n    /* \"#utility.yul\":2741:2861   */\ntag_78:\n    /* \"#utility.yul\":2758:2761   */\n  dup2\n    /* \"#utility.yul\":2751:2756   */\n  dup2\n    /* \"#utility.yul\":2748:2762   */\n  lt\n    /* \"#utility.yul\":2741:2861   */\n  iszero\n  tag_80\n  jumpi\n    /* \"#utility.yul\":2812:2851   */\n  tag_81\n    /* \"#utility.yul\":2849:2850   */\n  0x00\n    /* \"#utility.yul\":2842:2847   */\n  dup3\n    /* \"#utility.yul\":2812:2851   */\n  tag_41\n  jump\t// in\ntag_81:\n    /* \"#utility.yul\":2785:2786   */\n  0x01\n    /* \"#utility.yul\":2778:2783   */\n  dup2\n    /* \"#utility.yul\":2774:2787   */\n  add\n    /* \"#utility.yul\":2765:2787   */\n  swap1\n  pop\n    /* \"#utility.yul\":2741:2861   */\n  jump(tag_78)\ntag_80:\n    /* \"#utility.yul\":2681:2867   */\n  pop\n  pop\n  jump\t// out\n    /* \"#utility.yul\":2873:3416   */\ntag_43:\n    /* \"#utility.yul\":2974:2976   */\n  0x1f\n    /* \"#utility.yul\":2969:2972   */\n  dup3\n    /* \"#utility.yul\":2966:2977   */\n  gt\n    /* \"#utility.yul\":2963:3409   */\n  iszero\n  tag_83\n  jumpi\n    /* \"#utility.yul\":3008:3046   */\n  tag_84\n    /* \"#utility.yul\":3040:3045   */\n  dup2\n    /* \"#utility.yul\":3008:3046   */\n  tag_31\n  jump\t// in\ntag_84:\n    /* \"#utility.yul\":3092:3121   */\n  tag_85\n    /* \"#utility.yul\":3110:3120   */\n  dup5\n    /* \"#utility.yul\":3092:3121   */\n  tag_32\n  jump\t// in\ntag_85:\n    /* \"#utility.yul\":3082:3090   */\n  dup2\n    /* \"#utility.yul\":3078:3122   */\n  add\n    /* \"#utility.yul\":3275:3277   */\n  0x20\n    /* \"#utility.yul\":3263:3273   */\n  dup6\n    /* \"#utility.yul\":3260:3278   */\n  lt\n    /* \"#utility.yul\":3257:3306   */\n  iszero\n  tag_86\n  jumpi\n    /* \"#utility.yul\":3296:3304   */\n  dup2\n    /* \"#utility.yul\":3281:3304   */\n  swap1\n  pop\n    /* \"#utility.yul\":3257:3306   */\ntag_86:\n    /* \"#utility.yul\":3319:3399   */\n  tag_87\n    /* \"#utility.yul\":3375:3397   */\n  tag_88\n    /* \"#utility.yul\":3393:3396   */\n  dup6\n    /* \"#utility.yul\":3375:3397   */\n  tag_32\n  jump\t// in\ntag_88:\n    /* \"#utility.yul\":3365:3373   */\n  dup4\n    /* \"#utility.yul\":3361:3398   */\n  add\n    /* \"#utility.yul\":3348:3359   */\n  dup3\n    /* \"#utility.yul\":3319:3399   */\n  tag_42\n  jump\t// in\ntag_87:\n    /* \"#utility.yul\":2978:3409   */\n  pop\n  pop\n    /* \"#utility.yul\":2963:3409   */\ntag_83:\n    /* \"#utility.yul\":2873:3416   */\n  pop\n  pop\n  pop\n  jump\t// out\n    /* \"#utility.yul\":3422:3539   */\ntag_44:\n    /* \"#utility.yul\":3476:3484   */\n  0x00\n    /* \"#utility.yul\":3526:3531   */\n  dup3\n    /* \"#utility.yul\":3520:3524   */\n  dup3\n    /* \"#utility.yul\":3516:3532   */\n  shr\n    /* \"#utility.yul\":3495:3532   */\n  swap1\n  pop\n    /* \"#utility.yul\":3422:3539   */\n  swap3\n  swap2\n  pop\n  pop\n  jump\t// out\n    /* \"#utility.yul\":3545:3714   */\ntag_45:\n    /* \"#utility.yul\":3589:3595   */\n  0x00\n    /* \"#utility.yul\":3622:3673   */\n  tag_91\n    /* \"#utility.yul\":3670:3671   */\n  0x00\n    /* \"#utility.yul\":3666:3672   */\n  not\n    /* \"#utility.yul\":3658:3663   */\n  dup5\n    /* \"#utility.yul\":3655:3656   */\n  0x08\n    /* \"#utility.yul\":3651:3664   */\n  mul\n    /* \"#utility.yul\":3622:3673   */\n  tag_44\n  jump\t// in\ntag_91:\n    /* \"#utility.yul\":3618:3674   */\n  not\n    /* \"#utility.yul\":3703:3707   */\n  dup1\n    /* \"#utility.yul\":3697:3701   */\n  dup4\n    /* \"#utility.yul\":3693:3708   */\n  and\n    /* \"#utility.yul\":3683:3708   */\n  swap2\n  pop\n    /* \"#utility.yul\":3596:3714   */\n  pop\n    /* \"#utility.yul\":3545:3714   */\n  swap3\n  swap2\n  pop\n  pop\n  jump\t// out\n    /* \"#utility.yul\":3719:4014   */\ntag_46:\n    /* \"#utility.yul\":3795:3799   */\n  0x00\n    /* \"#utility.yul\":3941:3970   */\n  tag_93\n    /* \"#utility.yul\":3966:3969   */\n  dup4\n    /* \"#utility.yul\":3960:3964   */\n  dup4\n    /* \"#utility.yul\":3941:3970   */\n  tag_45\n  jump\t// in\ntag_93:\n    /* \"#utility.yul\":3933:3970   */\n  swap2\n  pop\n    /* \"#utility.yul\":4003:4006   */\n  dup3\n    /* \"#utility.yul\":4000:4001   */\n  0x02\n    /* \"#utility.yul\":3996:4007   */\n  mul\n    /* \"#utility.yul\":3990:3994   */\n  dup3\n    /* \"#utility.yul\":3987:4008   */\n  or\n    /* \"#utility.yul\":3979:4008   */\n  swap1\n  pop\n    /* \"#utility.yul\":3719:4014   */\n  swap3\n  swap2\n  pop\n  pop\n  jump\t// out\n    /* \"#utility.yul\":4019:5414   */\ntag_10:\n    /* \"#utility.yul\":4136:4173   */\n  tag_95\n    /* \"#utility.yul\":4169:4172   */\n  dup3\n    /* \"#utility.yul\":4136:4173   */\n  tag_27\n  jump\t// in\ntag_95:\n    /* \"#utility.yul\":4238:4256   */\n  0xffffffffffffffff\n    /* \"#utility.yul\":4230:4236   */\n  dup2\n    /* \"#utility.yul\":4227:4257   */\n  gt\n    /* \"#utility.yul\":4224:4280   */\n  iszero\n  tag_96\n  jumpi\n    /* \"#utility.yul\":4260:4278   */\n  tag_97\n  tag_28\n  jump\t// in\ntag_97:\n    /* \"#utility.yul\":4224:4280   */\ntag_96:\n    /* \"#utility.yul\":4304:4342   */\n  tag_98\n    /* \"#utility.yul\":4336:4340   */\n  dup3\n    /* \"#utility.yul\":4330:4341   */\n  sload\n    /* \"#utility.yul\":4304:4342   */\n  tag_30\n  jump\t// in\ntag_98:\n    /* \"#utility.yul\":4389:4456   */\n  tag_99\n    /* \"#utility.yul\":4449:4455   */\n  dup3\n    /* \"#utility.yul\":4441:4447   */\n  dup3\n    /* \"#utility.yul\":4435:4439   */\n  dup6\n    /* \"#utility.yul\":4389:4456   */\n  tag_43\n  jump\t// in\ntag_99:\n    /* \"#utility.yul\":4483:4484   */\n  0x00\n    /* \"#utility.yul\":4507:4511   */\n  0x20\n    /* \"#utility.yul\":4494:4511   */\n  swap1\n  pop\n    /* \"#utility.yul\":4539:4541   */\n  0x1f\n    /* \"#utility.yul\":4531:4537   */\n  dup4\n    /* \"#utility.yul\":4528:4542   */\n  gt\n    /* \"#utility.yul\":4556:4557   */\n  0x01\n    /* \"#utility.yul\":4551:5169   */\n  dup2\n  eq\n  tag_101\n  jumpi\n    /* \"#utility.yul\":5213:5214   */\n  0x00\n    /* \"#utility.yul\":5230:5236   */\n  dup5\n    /* \"#utility.yul\":5227:5304   */\n  iszero\n  tag_102\n  jumpi\n    /* \"#utility.yul\":5279:5288   */\n  dup3\n    /* \"#utility.yul\":5274:5277   */\n  dup8\n    /* \"#utility.yul\":5270:5289   */\n  add\n    /* \"#utility.yul\":5264:5290   */\n  mload\n    /* \"#utility.yul\":5255:5290   */\n  swap1\n  pop\n    /* \"#utility.yul\":5227:5304   */\ntag_102:\n    /* \"#utility.yul\":5330:5397   */\n  tag_103\n    /* \"#utility.yul\":5390:5396   */\n  dup6\n    /* \"#utility.yul\":5383:5388   */\n  dup3\n    /* \"#utility.yul\":5330:5397   */\n  tag_46\n  jump\t// in\ntag_103:\n    /* \"#utility.yul\":5324:5328   */\n  dup7\n    /* \"#utility.yul\":5317:5398   */\n  sstore\n    /* \"#utility.yul\":5186:5408   */\n  pop\n    /* \"#utility.yul\":4521:5408   */\n  jump(tag_100)\n    /* \"#utility.yul\":4551:5169   */\ntag_101:\n    /* \"#utility.yul\":4603:4607   */\n  0x1f\n    /* \"#utility.yul\":4599:4608   */\n  not\n    /* \"#utility.yul\":4591:4597   */\n  dup5\n    /* \"#utility.yul\":4587:4609   */\n  and\n    /* \"#utility.yul\":4637:4674   */\n  tag_104\n    /* \"#utility.yul\":4669:4673   */\n  dup7\n    /* \"#utility.yul\":4637:4674   */\n  tag_31\n  jump\t// in\ntag_104:\n    /* \"#utility.yul\":4696:4697   */\n  0x00\n    /* \"#utility.yul\":4710:4918   */\ntag_105:\n    /* \"#utility.yul\":4724:4731   */\n  dup3\n    /* \"#utility.yul\":4721:4722   */\n  dup2\n    /* \"#utility.yul\":4718:4732   */\n  lt\n    /* \"#utility.yul\":4710:4918   */\n  iszero\n  tag_107\n  jumpi\n    /* \"#utility.yul\":4803:4812   */\n  dup5\n    /* \"#utility.yul\":4798:4801   */\n  dup10\n    /* \"#utility.yul\":4794:4813   */\n  add\n    /* \"#utility.yul\":4788:4814   */\n  mload\n    /* \"#utility.yul\":4780:4786   */\n  dup3\n    /* \"#utility.yul\":4773:4815   */\n  sstore\n    /* \"#utility.yul\":4854:4855   */\n  0x01\n    /* \"#utility.yul\":4846:4852   */\n  dup3\n    /* \"#utility.yul\":4842:4856   */\n  add\n    /* \"#utility.yul\":4832:4856   */\n  swap2\n  pop\n    /* \"#utility.yul\":4901:4903   */\n  0x20\n    /* \"#utility.yul\":4890:4899   */\n  dup6\n    /* \"#utility.yul\":4886:4904   */\n  add\n    /* \"#utility.yul\":4873:4904   */\n  swap5\n  pop\n    /* \"#utility.yul\":4747:4751   */\n  0x20\n    /* \"#utility.yul\":4744:4745   */\n  dup2\n    /* \"#utility.yul\":4740:4752   */\n  add\n    /* \"#utility.yul\":4735:4752   */\n  swap1\n  pop\n    /* \"#utility.yul\":4710:4918   */\n  jump(tag_105)\ntag_107:\n    /* \"#utility.yul\":4946:4952   */\n  dup7\n    /* \"#utility.yul\":4937:4944   */\n  dup4\n    /* \"#utility.yul\":4934:4953   */\n  lt\n    /* \"#utility.yul\":4931:5110   */\n  iszero\n  tag_108\n  jumpi\n    /* \"#utility.yul\":5004:5013   */\n  dup5\n    /* \"#utility.yul\":4999:5002   */\n  dup10\n    /* \"#utility.yul\":4995:5014   */\n  add\n    /* \"#utility.yul\":4989:5015   */\n  mload\n    /* \"#utility.yul\":5047:5095   */\n  tag_109\n    /* \"#utility.yul\":5089:5093   */\n  0x1f\n    /* \"#utility.yul\":5081:5087   */\n  dup10\n    /* \"#utility.yul\":5077:5094   */\n  and\n    /* \"#utility.yul\":5066:5075   */\n  dup3\n    /* \"#utility.yul\":5047:5095   */\n  tag_45\n  jump\t// in\ntag_109:\n    /* \"#utility.yul\":5039:5045   */\n  dup4\n    /* \"#utility.yul\":5032:5096   */\n  sstore\n    /* \"#utility.yul\":4954:5110   */\n  pop\n    /* \"#utility.yul\":4931:5110   */\ntag_108:\n    /* \"#utility.yul\":5156:5157   */\n  0x01\n    /* \"#utility.yul\":5152:5153   */\n  0x02\n    /* \"#utility.yul\":5144:5150   */\n  dup9\n    /* \"#utility.yul\":5140:5154   */\n  mul\n    /* \"#utility.yul\":5136:5158   */\n  add\n    /* \"#utility.yul\":5130:5134   */\n  dup9\n    /* \"#utility.yul\":5123:5159   */\n  sstore\n    /* \"#utility.yul\":4558:5169   */\n  pop\n  pop\n  pop\n    /* \"#utility.yul\":4521:5408   */\ntag_100:\n  pop\n    /* \"#utility.yul\":4111:5414   */\n  pop\n  pop\n  pop\n    /* \"#utility.yul\":4019:5414   */\n  pop\n  pop\n  jump\t// out\n    /* \"contracts/GiftCardETH.sol\":385:6836  contract GiftCardETH {... */\ntag_26:\n  dataSize(sub_0)\n  dup1\n  dataOffset(sub_0)\n  0x00\n  codecopy\n  0x00\n  return\nstop\n\nsub_0: assembly {\n        /* \"contracts/GiftCardETH.sol\":385:6836  contract GiftCardETH {... */\n      mstore(0x40, 0x80)\n      jumpi(tag_1, lt(calldatasize, 0x04))\n      shr(0xe0, calldataload(0x00))\n      dup1\n      0x8f0e582f\n      gt\n      tag_13\n      jumpi\n      dup1\n      0x8f0e582f\n      eq\n      tag_8\n      jumpi\n      dup1\n      0xa34f011c\n      eq\n      tag_9\n      jumpi\n      dup1\n      0xa927db0d\n      eq\n      tag_10\n      jumpi\n      dup1\n      0xb6db75a0\n      eq\n      tag_11\n      jumpi\n      dup1\n      0xd9c8a38b\n      eq\n      tag_12\n      jumpi\n      jump(tag_2)\n    tag_13:\n      dup1\n      0x22366844\n      eq\n      tag_3\n      jumpi\n      dup1\n      0x27e26c8c\n      eq\n      tag_4\n      jumpi\n      dup1\n      0x2b4a9dda\n      eq\n      tag_5\n      jumpi\n      dup1\n      0x5fd8c710\n      eq\n      tag_6\n      jumpi\n      dup1\n      0x8b7afe2e\n      eq\n      tag_7\n      jumpi\n      jump(tag_2)\n    tag_1:\n      jumpi(tag_2, calldatasize)\n      stop\n    tag_2:\n      stop\n        /* \"contracts/GiftCardETH.sol\":2725:2838  function isRegistered() public view returns(bool){... */\n    tag_3:\n      callvalue\n      dup1\n      iszero\n      tag_18\n      jumpi\n      0x00\n      dup1\n      revert\n    tag_18:\n      pop\n      tag_19\n      tag_20\n      jump\t// in\n    tag_19:\n      mload(0x40)\n      tag_21\n      swap2\n      swap1\n      tag_22\n      jump\t// in\n    tag_21:\n      mload(0x40)\n      dup1\n      swap2\n      sub\n      swap1\n      return\n        /* \"contracts/GiftCardETH.sol\":5815:6389  function redeemCard(string calldata _code)... */\n    tag_4:\n      callvalue\n      dup1\n      iszero\n      tag_23\n      jumpi\n      0x00\n      dup1\n      revert\n    tag_23:\n      pop\n      tag_24\n      0x04\n      dup1\n      calldatasize\n      sub\n      dup2\n      add\n      swap1\n      tag_25\n      swap2\n      swap1\n      tag_26\n      jump\t// in\n    tag_25:\n      tag_27\n      jump\t// in\n    tag_24:\n      stop\n        /* \"contracts/GiftCardETH.sol\":4477:5810  function getMyCard()... */\n    tag_5:\n      callvalue\n      dup1\n      iszero\n      tag_28\n      jumpi\n      0x00\n      dup1\n      revert\n    tag_28:\n      pop\n      tag_29\n      tag_30\n      jump\t// in\n    tag_29:\n      mload(0x40)\n      tag_31\n      swap2\n      swap1\n      tag_32\n      jump\t// in\n    tag_31:\n      mload(0x40)\n      dup1\n      swap2\n      sub\n      swap1\n      return\n        /* \"contracts/GiftCardETH.sol\":6514:6762  function withdrawBalance() external registeredUsersOnly adminOnly payable returns(bool) {... */\n    tag_6:\n      tag_33\n      tag_34\n      jump\t// in\n    tag_33:\n      mload(0x40)\n      tag_35\n      swap2\n      swap1\n      tag_22\n      jump\t// in\n    tag_35:\n      mload(0x40)\n      dup1\n      swap2\n      sub\n      swap1\n      return\n        /* \"contracts/GiftCardETH.sol\":6394:6509  function contractBalance() external registeredUsersOnly adminOnly view returns(uint){... */\n    tag_7:\n      callvalue\n      dup1\n      iszero\n      tag_36\n      jumpi\n      0x00\n      dup1\n      revert\n    tag_36:\n      pop\n      tag_37\n      tag_38\n      jump\t// in\n    tag_37:\n      mload(0x40)\n      tag_39\n      swap2\n      swap1\n      tag_40\n      jump\t// in\n    tag_39:\n      mload(0x40)\n      dup1\n      swap2\n      sub\n      swap1\n      return\n        /* \"contracts/GiftCardETH.sol\":2280:2460  function registration(string calldata name, Gender gender) external {... */\n    tag_8:\n      callvalue\n      dup1\n      iszero\n      tag_41\n      jumpi\n      0x00\n      dup1\n      revert\n    tag_41:\n      pop\n      tag_42\n      0x04\n      dup1\n      calldatasize\n      sub\n      dup2\n      add\n      swap1\n      tag_43\n      swap2\n      swap1\n      tag_44\n      jump\t// in\n    tag_43:\n      tag_45\n      jump\t// in\n    tag_42:\n      stop\n        /* \"contracts/GiftCardETH.sol\":4190:4472  function buyGiftCard() external payable registeredUsersOnly {... */\n    tag_9:\n      tag_46\n      tag_47\n      jump\t// in\n    tag_46:\n      stop\n        /* \"contracts/GiftCardETH.sol\":2843:3242  function getAllGiftCards()... */\n    tag_10:\n      callvalue\n      dup1\n      iszero\n      tag_48\n      jumpi\n      0x00\n      dup1\n      revert\n    tag_48:\n      pop\n      tag_49\n      tag_50\n      jump\t// in\n    tag_49:\n      mload(0x40)\n      tag_51\n      swap2\n      swap1\n      tag_32\n      jump\t// in\n    tag_51:\n      mload(0x40)\n      dup1\n      swap2\n      sub\n      swap1\n      return\n        /* \"contracts/GiftCardETH.sol\":2465:2599  function isAdmin() public view registeredUsersOnly returns (bool) {... */\n    tag_11:\n      callvalue\n      dup1\n      iszero\n      tag_52\n      jumpi\n      0x00\n      dup1\n      revert\n    tag_52:\n      pop\n      tag_53\n      tag_54\n      jump\t// in\n    tag_53:\n      mload(0x40)\n      tag_55\n      swap2\n      swap1\n      tag_22\n      jump\t// in\n    tag_55:\n      mload(0x40)\n      dup1\n      swap2\n      sub\n      swap1\n      return\n        /* \"contracts/GiftCardETH.sol\":2604:2720  function getMyData() public registeredUsersOnly view returns (User memory) {... */\n    tag_12:\n      callvalue\n      dup1\n      iszero\n      tag_56\n      jumpi\n      0x00\n      dup1\n      revert\n    tag_56:\n      pop\n      tag_57\n      tag_58\n      jump\t// in\n    tag_57:\n      mload(0x40)\n      tag_59\n      swap2\n      swap1\n      tag_60\n      jump\t// in\n    tag_59:\n      mload(0x40)\n      dup1\n      swap2\n      sub\n      swap1\n      return\n        /* \"contracts/GiftCardETH.sol\":2725:2838  function isRegistered() public view returns(bool){... */\n    tag_20:\n        /* \"contracts/GiftCardETH.sol\":2769:2773  bool */\n      0x00\n        /* \"contracts/GiftCardETH.sol\":2830:2831  0 */\n      dup1\n        /* \"contracts/GiftCardETH.sol\":2797:2802  users */\n      0x00\n        /* \"contracts/GiftCardETH.sol\":2797:2814  users[msg.sender] */\n      dup1\n        /* \"contracts/GiftCardETH.sol\":2803:2813  msg.sender */\n      caller\n        /* \"contracts/GiftCardETH.sol\":2797:2814  users[msg.sender] */\n      0xffffffffffffffffffffffffffffffffffffffff\n      and\n      0xffffffffffffffffffffffffffffffffffffffff\n      and\n      dup2\n      mstore\n      0x20\n      add\n      swap1\n      dup2\n      mstore\n      0x20\n      add\n      0x00\n      keccak256\n        /* \"contracts/GiftCardETH.sol\":2797:2819  users[msg.sender].name */\n      0x00\n      add\n        /* \"contracts/GiftCardETH.sol\":2791:2827  bytes(users[msg.sender].name).length */\n      dup1\n      sload\n      tag_62\n      swap1\n      tag_63\n      jump\t// in\n    tag_62:\n      swap1\n      pop\n        /* \"contracts/GiftCardETH.sol\":2791:2831  bytes(users[msg.sender].name).length > 0 */\n      gt\n        /* \"contracts/GiftCardETH.sol\":2784:2831  return bytes(users[msg.sender].name).length > 0 */\n      swap1\n      pop\n        /* \"contracts/GiftCardETH.sol\":2725:2838  function isRegistered() public view returns(bool){... */\n      swap1\n      jump\t// out\n        /* \"contracts/GiftCardETH.sol\":5815:6389  function redeemCard(string calldata _code)... */\n    tag_27:\n        /* \"contracts/GiftCardETH.sol\":5903:5908  _code */\n      dup2\n      dup2\n        /* \"contracts/GiftCardETH.sol\":1639:1832  modifier checkGiftCardStatus(string memory code) {... */\n      dup1\n      dup1\n      0x1f\n      add\n      0x20\n      dup1\n      swap2\n      div\n      mul\n      0x20\n      add\n      mload(0x40)\n      swap1\n      dup2\n      add\n      0x40\n      mstore\n      dup1\n      swap4\n      swap3\n      swap2\n      swap1\n      dup2\n      dup2\n      mstore\n      0x20\n      add\n      dup4\n      dup4\n      dup1\n      dup3\n      dup5\n      calldatacopy\n      0x00\n      dup2\n      dup5\n      add\n      mstore\n      not(0x1f)\n      0x1f\n      dup3\n      add\n      and\n      swap1\n      pop\n      dup1\n      dup4\n      add\n      swap3\n      pop\n      pop\n      pop\n      pop\n      pop\n      pop\n      pop\n        /* \"contracts/GiftCardETH.sol\":1753:1773  GiftCardStatus.VALID */\n      0x01\n        /* \"contracts/GiftCardETH.sol\":1719:1773  giftCards[code].giftCardStatus == GiftCardStatus.VALID */\n      dup1\n      dup2\n      gt\n      iszero\n      tag_65\n      jumpi\n      tag_66\n      tag_67\n      jump\t// in\n    tag_66:\n    tag_65:\n        /* \"contracts/GiftCardETH.sol\":1719:1728  giftCards */\n      0x01\n        /* \"contracts/GiftCardETH.sol\":1729:1733  code */\n      dup3\n        /* \"contracts/GiftCardETH.sol\":1719:1734  giftCards[code] */\n      mload(0x40)\n      tag_68\n      swap2\n      swap1\n      tag_69\n      jump\t// in\n    tag_68:\n      swap1\n      dup2\n      mstore\n      0x20\n      add\n      mload(0x40)\n      dup1\n      swap2\n      sub\n      swap1\n      keccak256\n        /* \"contracts/GiftCardETH.sol\":1719:1749  giftCards[code].giftCardStatus */\n      0x03\n      add\n      0x00\n      swap1\n      sload\n      swap1\n      0x0100\n      exp\n      swap1\n      div\n      0xff\n      and\n        /* \"contracts/GiftCardETH.sol\":1719:1773  giftCards[code].giftCardStatus == GiftCardStatus.VALID */\n      0x01\n      dup2\n      gt\n      iszero\n      tag_70\n      jumpi\n      tag_71\n      tag_67\n      jump\t// in\n    tag_71:\n    tag_70:\n      eq\n        /* \"contracts/GiftCardETH.sol\":1698:1814  require(... */\n      tag_72\n      jumpi\n      mload(0x40)\n      0x08c379a000000000000000000000000000000000000000000000000000000000\n      dup2\n      mstore\n      0x04\n      add\n      tag_73\n      swap1\n      tag_74\n      jump\t// in\n    tag_73:\n      mload(0x40)\n      dup1\n      swap2\n      sub\n      swap1\n      revert\n    tag_72:\n        /* \"contracts/GiftCardETH.sol\":1212:1213  0 */\n      0x00\n        /* \"contracts/GiftCardETH.sol\":1179:1184  users */\n      dup1\n        /* \"contracts/GiftCardETH.sol\":1179:1196  users[msg.sender] */\n      0x00\n        /* \"contracts/GiftCardETH.sol\":1185:1195  msg.sender */\n      caller\n        /* \"contracts/GiftCardETH.sol\":1179:1196  users[msg.sender] */\n      0xffffffffffffffffffffffffffffffffffffffff\n      and\n      0xffffffffffffffffffffffffffffffffffffffff\n      and\n      dup2\n      mstore\n      0x20\n      add\n      swap1\n      dup2\n      mstore\n      0x20\n      add\n      0x00\n      keccak256\n        /* \"contracts/GiftCardETH.sol\":1179:1201  users[msg.sender].name */\n      0x00\n      add\n        /* \"contracts/GiftCardETH.sol\":1173:1209  bytes(users[msg.sender].name).length */\n      dup1\n      sload\n      tag_76\n      swap1\n      tag_63\n      jump\t// in\n    tag_76:\n      swap1\n      pop\n        /* \"contracts/GiftCardETH.sol\":1173:1213  bytes(users[msg.sender].name).length > 0 */\n      gt\n        /* \"contracts/GiftCardETH.sol\":1152:1258  require(... */\n      tag_77\n      jumpi\n      mload(0x40)\n      0x08c379a000000000000000000000000000000000000000000000000000000000\n      dup2\n      mstore\n      0x04\n      add\n      tag_78\n      swap1\n      tag_79\n      jump\t// in\n    tag_78:\n      mload(0x40)\n      dup1\n      swap2\n      sub\n      swap1\n      revert\n    tag_77:\n        /* \"contracts/GiftCardETH.sol\":1527:1533  locked */\n      0x02\n      0x00\n      swap1\n      sload\n      swap1\n      0x0100\n      exp\n      swap1\n      div\n      0xff\n      and\n        /* \"contracts/GiftCardETH.sol\":1526:1533  !locked */\n      iszero\n        /* \"contracts/GiftCardETH.sol\":1518:1569  require(!locked, \"ReentrancyGuard: reentrant call\") */\n      tag_81\n      jumpi\n      mload(0x40)\n      0x08c379a000000000000000000000000000000000000000000000000000000000\n      dup2\n      mstore\n      0x04\n      add\n      tag_82\n      swap1\n      tag_83\n      jump\t// in\n    tag_82:\n      mload(0x40)\n      dup1\n      swap2\n      sub\n      swap1\n      revert\n    tag_81:\n        /* \"contracts/GiftCardETH.sol\":1588:1592  true */\n      0x01\n        /* \"contracts/GiftCardETH.sol\":1579:1585  locked */\n      0x02\n      0x00\n        /* \"contracts/GiftCardETH.sol\":1579:1592  locked = true */\n      0x0100\n      exp\n      dup2\n      sload\n      dup2\n      0xff\n      mul\n      not\n      and\n      swap1\n      dup4\n      iszero\n      iszero\n      mul\n      or\n      swap1\n      sstore\n      pop\n        /* \"contracts/GiftCardETH.sol\":5976:6001  GiftCard storage giftCard */\n      0x00\n        /* \"contracts/GiftCardETH.sol\":6004:6013  giftCards */\n      0x01\n        /* \"contracts/GiftCardETH.sol\":6014:6019  _code */\n      dup5\n      dup5\n        /* \"contracts/GiftCardETH.sol\":6004:6020  giftCards[_code] */\n      mload(0x40)\n      tag_85\n      swap3\n      swap2\n      swap1\n      tag_86\n      jump\t// in\n    tag_85:\n      swap1\n      dup2\n      mstore\n      0x20\n      add\n      mload(0x40)\n      dup1\n      swap2\n      sub\n      swap1\n      keccak256\n        /* \"contracts/GiftCardETH.sol\":5976:6020  GiftCard storage giftCard = giftCards[_code] */\n      swap1\n      pop\n        /* \"contracts/GiftCardETH.sol\":6031:6045  uint256 amount */\n      0x00\n        /* \"contracts/GiftCardETH.sol\":6048:6056  giftCard */\n      dup2\n        /* \"contracts/GiftCardETH.sol\":6048:6063  giftCard.amount */\n      0x02\n      add\n      sload\n        /* \"contracts/GiftCardETH.sol\":6031:6063  uint256 amount = giftCard.amount */\n      swap1\n      pop\n        /* \"contracts/GiftCardETH.sol\":6091:6092  0 */\n      0x00\n        /* \"contracts/GiftCardETH.sol\":6082:6088  amount */\n      dup2\n        /* \"contracts/GiftCardETH.sol\":6082:6092  amount > 0 */\n      gt\n        /* \"contracts/GiftCardETH.sol\":6074:6121  require(amount > 0, \"Gift card has no balance\") */\n      tag_87\n      jumpi\n      mload(0x40)\n      0x08c379a000000000000000000000000000000000000000000000000000000000\n      dup2\n      mstore\n      0x04\n      add\n      tag_88\n      swap1\n      tag_89\n      jump\t// in\n    tag_88:\n      mload(0x40)\n      dup1\n      swap2\n      sub\n      swap1\n      revert\n    tag_87:\n        /* \"contracts/GiftCardETH.sol\":6158:6180  GiftCardStatus.EXPIRED */\n      0x00\n        /* \"contracts/GiftCardETH.sol\":6132:6140  giftCard */\n      dup3\n        /* \"contracts/GiftCardETH.sol\":6132:6155  giftCard.giftCardStatus */\n      0x03\n      add\n      0x00\n        /* \"contracts/GiftCardETH.sol\":6132:6180  giftCard.giftCardStatus = GiftCardStatus.EXPIRED */\n      0x0100\n      exp\n      dup2\n      sload\n      dup2\n      0xff\n      mul\n      not\n      and\n      swap1\n      dup4\n      0x01\n      dup2\n      gt\n      iszero\n      tag_90\n      jumpi\n      tag_91\n      tag_67\n      jump\t// in\n    tag_91:\n    tag_90:\n      mul\n      or\n      swap1\n      sstore\n      pop\n        /* \"contracts/GiftCardETH.sol\":6208:6213  users */\n      0x00\n        /* \"contracts/GiftCardETH.sol\":6208:6225  users[msg.sender] */\n      dup1\n        /* \"contracts/GiftCardETH.sol\":6214:6224  msg.sender */\n      caller\n        /* \"contracts/GiftCardETH.sol\":6208:6225  users[msg.sender] */\n      0xffffffffffffffffffffffffffffffffffffffff\n      and\n      0xffffffffffffffffffffffffffffffffffffffff\n      and\n      dup2\n      mstore\n      0x20\n      add\n      swap1\n      dup2\n      mstore\n      0x20\n      add\n      0x00\n      keccak256\n        /* \"contracts/GiftCardETH.sol\":6208:6230  users[msg.sender].name */\n      0x00\n      add\n        /* \"contracts/GiftCardETH.sol\":6190:6198  giftCard */\n      dup3\n        /* \"contracts/GiftCardETH.sol\":6190:6205  giftCard.getter */\n      0x04\n      add\n        /* \"contracts/GiftCardETH.sol\":6190:6230  giftCard.getter = users[msg.sender].name */\n      swap1\n      dup2\n      tag_92\n      swap2\n      swap1\n      tag_93\n      jump\t// in\n    tag_92:\n      pop\n        /* \"contracts/GiftCardETH.sol\":6242:6254  bool success */\n      0x00\n        /* \"contracts/GiftCardETH.sol\":6260:6270  msg.sender */\n      caller\n        /* \"contracts/GiftCardETH.sol\":6260:6275  msg.sender.call */\n      0xffffffffffffffffffffffffffffffffffffffff\n      and\n        /* \"contracts/GiftCardETH.sol\":6283:6289  amount */\n      dup3\n        /* \"contracts/GiftCardETH.sol\":6260:6294  msg.sender.call{value: amount}(\"\") */\n      mload(0x40)\n      tag_94\n      swap1\n      tag_95\n      jump\t// in\n    tag_94:\n      0x00\n      mload(0x40)\n      dup1\n      dup4\n      sub\n      dup2\n      dup6\n      dup8\n      gas\n      call\n      swap3\n      pop\n      pop\n      pop\n      returndatasize\n      dup1\n      0x00\n      dup2\n      eq\n      tag_98\n      jumpi\n      mload(0x40)\n      swap2\n      pop\n      and(add(returndatasize, 0x3f), not(0x1f))\n      dup3\n      add\n      0x40\n      mstore\n      returndatasize\n      dup3\n      mstore\n      returndatasize\n      0x00\n      0x20\n      dup5\n      add\n      returndatacopy\n      jump(tag_97)\n    tag_98:\n      0x60\n      swap2\n      pop\n    tag_97:\n      pop\n        /* \"contracts/GiftCardETH.sol\":6241:6294  (bool success, ) = msg.sender.call{value: amount}(\"\") */\n      pop\n      swap1\n      pop\n        /* \"contracts/GiftCardETH.sol\":6312:6319  success */\n      dup1\n        /* \"contracts/GiftCardETH.sol\":6304:6345  require(success, \"Ether transfer failed\") */\n      tag_99\n      jumpi\n      mload(0x40)\n      0x08c379a000000000000000000000000000000000000000000000000000000000\n      dup2\n      mstore\n      0x04\n      add\n      tag_100\n      swap1\n      tag_101\n      jump\t// in\n    tag_100:\n      mload(0x40)\n      dup1\n      swap2\n      sub\n      swap1\n      revert\n    tag_99:\n        /* \"contracts/GiftCardETH.sol\":6361:6381  CardRedeemed(amount) */\n      0x604d6de1b6eb3f39c6ab9d4981a20d17f88c5bef33495ae58dabeb097ba7a41a\n        /* \"contracts/GiftCardETH.sol\":6374:6380  amount */\n      dup3\n        /* \"contracts/GiftCardETH.sol\":6361:6381  CardRedeemed(amount) */\n      mload(0x40)\n      tag_102\n      swap2\n      swap1\n      tag_40\n      jump\t// in\n    tag_102:\n      mload(0x40)\n      dup1\n      swap2\n      sub\n      swap1\n      log1\n        /* \"contracts/GiftCardETH.sol\":5966:6389  {... */\n      pop\n      pop\n      pop\n        /* \"contracts/GiftCardETH.sol\":1622:1627  false */\n      0x00\n        /* \"contracts/GiftCardETH.sol\":1613:1619  locked */\n      0x02\n      0x00\n        /* \"contracts/GiftCardETH.sol\":1613:1627  locked = false */\n      0x0100\n      exp\n      dup2\n      sload\n      dup2\n      0xff\n      mul\n      not\n      and\n      swap1\n      dup4\n      iszero\n      iszero\n      mul\n      or\n      swap1\n      sstore\n      pop\n        /* \"contracts/GiftCardETH.sol\":5815:6389  function redeemCard(string calldata _code)... */\n      pop\n      pop\n      pop\n      jump\t// out\n        /* \"contracts/GiftCardETH.sol\":4477:5810  function getMyCard()... */\n    tag_30:\n        /* \"contracts/GiftCardETH.sol\":4571:4588  GiftCard[] memory */\n      0x60\n        /* \"contracts/GiftCardETH.sol\":1212:1213  0 */\n      0x00\n        /* \"contracts/GiftCardETH.sol\":1179:1184  users */\n      dup1\n        /* \"contracts/GiftCardETH.sol\":1179:1196  users[msg.sender] */\n      0x00\n        /* \"contracts/GiftCardETH.sol\":1185:1195  msg.sender */\n      caller\n        /* \"contracts/GiftCardETH.sol\":1179:1196  users[msg.sender] */\n      0xffffffffffffffffffffffffffffffffffffffff\n      and\n      0xffffffffffffffffffffffffffffffffffffffff\n      and\n      dup2\n      mstore\n      0x20\n      add\n      swap1\n      dup2\n      mstore\n      0x20\n      add\n      0x00\n      keccak256\n        /* \"contracts/GiftCardETH.sol\":1179:1201  users[msg.sender].name */\n      0x00\n      add\n        /* \"contracts/GiftCardETH.sol\":1173:1209  bytes(users[msg.sender].name).length */\n      dup1\n      sload\n      tag_104\n      swap1\n      tag_63\n      jump\t// in\n    tag_104:\n      swap1\n      pop\n        /* \"contracts/GiftCardETH.sol\":1173:1213  bytes(users[msg.sender].name).length > 0 */\n      gt\n        /* \"contracts/GiftCardETH.sol\":1152:1258  require(... */\n      tag_105\n      jumpi\n      mload(0x40)\n      0x08c379a000000000000000000000000000000000000000000000000000000000\n      dup2\n      mstore\n      0x04\n      add\n      tag_106\n      swap1\n      tag_79\n      jump\t// in\n    tag_106:\n      mload(0x40)\n      dup1\n      swap2\n      sub\n      swap1\n      revert\n    tag_105:\n        /* \"contracts/GiftCardETH.sol\":4604:4617  uint256 count */\n      0x00\n        /* \"contracts/GiftCardETH.sol\":4631:4653  bytes32 senderNameHash */\n      dup1\n        /* \"contracts/GiftCardETH.sol\":4696:4701  users */\n      dup1\n        /* \"contracts/GiftCardETH.sol\":4696:4713  users[msg.sender] */\n      0x00\n        /* \"contracts/GiftCardETH.sol\":4702:4712  msg.sender */\n      caller\n        /* \"contracts/GiftCardETH.sol\":4696:4713  users[msg.sender] */\n      0xffffffffffffffffffffffffffffffffffffffff\n      and\n      0xffffffffffffffffffffffffffffffffffffffff\n      and\n      dup2\n      mstore\n      0x20\n      add\n      swap1\n      dup2\n      mstore\n      0x20\n      add\n      0x00\n      keccak256\n        /* \"contracts/GiftCardETH.sol\":4696:4718  users[msg.sender].name */\n      0x00\n      add\n        /* \"contracts/GiftCardETH.sol\":4679:4719  abi.encodePacked(users[msg.sender].name) */\n      add(0x20, mload(0x40))\n      tag_108\n      swap2\n      swap1\n      tag_109\n      jump\t// in\n    tag_108:\n      mload(0x40)\n      0x20\n      dup2\n      dup4\n      sub\n      sub\n      dup2\n      mstore\n      swap1\n      0x40\n      mstore\n        /* \"contracts/GiftCardETH.sol\":4656:4729  keccak256(... */\n      dup1\n      mload\n      swap1\n      0x20\n      add\n      keccak256\n        /* \"contracts/GiftCardETH.sol\":4631:4729  bytes32 senderNameHash = keccak256(... */\n      swap1\n      pop\n        /* \"contracts/GiftCardETH.sol\":4745:4754  uint256 i */\n      0x00\n        /* \"contracts/GiftCardETH.sol\":4740:5180  for (uint256 i = 0; i < giftCardCodes.length; i++) {... */\n    tag_110:\n        /* \"contracts/GiftCardETH.sol\":4764:4777  giftCardCodes */\n      0x03\n        /* \"contracts/GiftCardETH.sol\":4764:4784  giftCardCodes.length */\n      dup1\n      sload\n      swap1\n      pop\n        /* \"contracts/GiftCardETH.sol\":4760:4761  i */\n      dup2\n        /* \"contracts/GiftCardETH.sol\":4760:4784  i < giftCardCodes.length */\n      lt\n        /* \"contracts/GiftCardETH.sol\":4740:5180  for (uint256 i = 0; i < giftCardCodes.length; i++) {... */\n      iszero\n      tag_111\n      jumpi\n        /* \"contracts/GiftCardETH.sol\":4946:4960  senderNameHash */\n      dup2\n        /* \"contracts/GiftCardETH.sol\":4874:4883  giftCards */\n      0x01\n        /* \"contracts/GiftCardETH.sol\":4884:4897  giftCardCodes */\n      0x03\n        /* \"contracts/GiftCardETH.sol\":4898:4899  i */\n      dup4\n        /* \"contracts/GiftCardETH.sol\":4884:4900  giftCardCodes[i] */\n      dup2\n      sload\n      dup2\n      lt\n      tag_113\n      jumpi\n      tag_114\n      tag_115\n      jump\t// in\n    tag_114:\n    tag_113:\n      swap1\n      0x00\n      mstore\n      keccak256(0x00, 0x20)\n      add\n        /* \"contracts/GiftCardETH.sol\":4874:4901  giftCards[giftCardCodes[i]] */\n      mload(0x40)\n      tag_117\n      swap2\n      swap1\n      tag_109\n      jump\t// in\n    tag_117:\n      swap1\n      dup2\n      mstore\n      0x20\n      add\n      mload(0x40)\n      dup1\n      swap2\n      sub\n      swap1\n      keccak256\n        /* \"contracts/GiftCardETH.sol\":4874:4907  giftCards[giftCardCodes[i]].buyer */\n      0x01\n      add\n        /* \"contracts/GiftCardETH.sol\":4857:4908  abi.encodePacked(giftCards[giftCardCodes[i]].buyer) */\n      add(0x20, mload(0x40))\n      tag_118\n      swap2\n      swap1\n      tag_109\n      jump\t// in\n    tag_118:\n      mload(0x40)\n      0x20\n      dup2\n      dup4\n      sub\n      sub\n      dup2\n      mstore\n      swap1\n      0x40\n      mstore\n        /* \"contracts/GiftCardETH.sol\":4826:4926  keccak256(... */\n      dup1\n      mload\n      swap1\n      0x20\n      add\n      keccak256\n        /* \"contracts/GiftCardETH.sol\":4826:4960  keccak256(... */\n      eq\n        /* \"contracts/GiftCardETH.sol\":4826:5115  keccak256(... */\n      dup1\n      tag_119\n      jumpi\n      pop\n        /* \"contracts/GiftCardETH.sol\":5101:5115  senderNameHash */\n      dup2\n        /* \"contracts/GiftCardETH.sol\":5028:5037  giftCards */\n      0x01\n        /* \"contracts/GiftCardETH.sol\":5038:5051  giftCardCodes */\n      0x03\n        /* \"contracts/GiftCardETH.sol\":5052:5053  i */\n      dup4\n        /* \"contracts/GiftCardETH.sol\":5038:5054  giftCardCodes[i] */\n      dup2\n      sload\n      dup2\n      lt\n      tag_120\n      jumpi\n      tag_121\n      tag_115\n      jump\t// in\n    tag_121:\n    tag_120:\n      swap1\n      0x00\n      mstore\n      keccak256(0x00, 0x20)\n      add\n        /* \"contracts/GiftCardETH.sol\":5028:5055  giftCards[giftCardCodes[i]] */\n      mload(0x40)\n      tag_123\n      swap2\n      swap1\n      tag_109\n      jump\t// in\n    tag_123:\n      swap1\n      dup2\n      mstore\n      0x20\n      add\n      mload(0x40)\n      dup1\n      swap2\n      sub\n      swap1\n      keccak256\n        /* \"contracts/GiftCardETH.sol\":5028:5062  giftCards[giftCardCodes[i]].getter */\n      0x04\n      add\n        /* \"contracts/GiftCardETH.sol\":5011:5063  abi.encodePacked(giftCards[giftCardCodes[i]].getter) */\n      add(0x20, mload(0x40))\n      tag_124\n      swap2\n      swap1\n      tag_109\n      jump\t// in\n    tag_124:\n      mload(0x40)\n      0x20\n      dup2\n      dup4\n      sub\n      sub\n      dup2\n      mstore\n      swap1\n      0x40\n      mstore\n        /* \"contracts/GiftCardETH.sol\":4980:5081  keccak256(... */\n      dup1\n      mload\n      swap1\n      0x20\n      add\n      keccak256\n        /* \"contracts/GiftCardETH.sol\":4980:5115  keccak256(... */\n      eq\n        /* \"contracts/GiftCardETH.sol\":4826:5115  keccak256(... */\n    tag_119:\n        /* \"contracts/GiftCardETH.sol\":4805:5170  if (... */\n      iszero\n      tag_125\n      jumpi\n        /* \"contracts/GiftCardETH.sol\":5148:5155  count++ */\n      dup3\n      dup1\n      tag_126\n      swap1\n      tag_127\n      jump\t// in\n    tag_126:\n      swap4\n      pop\n      pop\n        /* \"contracts/GiftCardETH.sol\":4805:5170  if (... */\n    tag_125:\n        /* \"contracts/GiftCardETH.sol\":4786:4789  i++ */\n      dup1\n      dup1\n      0x01\n      add\n      swap2\n      pop\n      pop\n        /* \"contracts/GiftCardETH.sol\":4740:5180  for (uint256 i = 0; i < giftCardCodes.length; i++) {... */\n      jump(tag_110)\n    tag_111:\n      pop\n        /* \"contracts/GiftCardETH.sol\":5190:5215  GiftCard[] memory myCards */\n      0x00\n        /* \"contracts/GiftCardETH.sol\":5233:5238  count */\n      dup3\n        /* \"contracts/GiftCardETH.sol\":5218:5239  new GiftCard[](count) */\n      0xffffffffffffffff\n      dup2\n      gt\n      iszero\n      tag_128\n      jumpi\n      tag_129\n      tag_130\n      jump\t// in\n    tag_129:\n    tag_128:\n      mload(0x40)\n      swap1\n      dup1\n      dup3\n      mstore\n      dup1\n      0x20\n      mul\n      0x20\n      add\n      dup3\n      add\n      0x40\n      mstore\n      dup1\n      iszero\n      tag_131\n      jumpi\n      dup2\n      0x20\n      add\n    tag_132:\n      tag_133\n      tag_134\n      jump\t// in\n    tag_133:\n      dup2\n      mstore\n      0x20\n      add\n      swap1\n      0x01\n      swap1\n      sub\n      swap1\n      dup2\n      tag_132\n      jumpi\n      swap1\n      pop\n    tag_131:\n      pop\n        /* \"contracts/GiftCardETH.sol\":5190:5239  GiftCard[] memory myCards = new GiftCard[](count) */\n      swap1\n      pop\n        /* \"contracts/GiftCardETH.sol\":5249:5262  uint256 index */\n      0x00\n        /* \"contracts/GiftCardETH.sol\":5282:5291  uint256 i */\n      dup1\n        /* \"contracts/GiftCardETH.sol\":5277:5779  for (uint256 i = 0; i < giftCardCodes.length; i++) {... */\n    tag_135:\n        /* \"contracts/GiftCardETH.sol\":5301:5314  giftCardCodes */\n      0x03\n        /* \"contracts/GiftCardETH.sol\":5301:5321  giftCardCodes.length */\n      dup1\n      sload\n      swap1\n      pop\n        /* \"contracts/GiftCardETH.sol\":5297:5298  i */\n      dup2\n        /* \"contracts/GiftCardETH.sol\":5297:5321  i < giftCardCodes.length */\n      lt\n        /* \"contracts/GiftCardETH.sol\":5277:5779  for (uint256 i = 0; i < giftCardCodes.length; i++) {... */\n      iszero\n      tag_136\n      jumpi\n        /* \"contracts/GiftCardETH.sol\":5483:5497  senderNameHash */\n      dup4\n        /* \"contracts/GiftCardETH.sol\":5411:5420  giftCards */\n      0x01\n        /* \"contracts/GiftCardETH.sol\":5421:5434  giftCardCodes */\n      0x03\n        /* \"contracts/GiftCardETH.sol\":5435:5436  i */\n      dup4\n        /* \"contracts/GiftCardETH.sol\":5421:5437  giftCardCodes[i] */\n      dup2\n      sload\n      dup2\n      lt\n      tag_138\n      jumpi\n      tag_139\n      tag_115\n      jump\t// in\n    tag_139:\n    tag_138:\n      swap1\n      0x00\n      mstore\n      keccak256(0x00, 0x20)\n      add\n        /* \"contracts/GiftCardETH.sol\":5411:5438  giftCards[giftCardCodes[i]] */\n      mload(0x40)\n      tag_141\n      swap2\n      swap1\n      tag_109\n      jump\t// in\n    tag_141:\n      swap1\n      dup2\n      mstore\n      0x20\n      add\n      mload(0x40)\n      dup1\n      swap2\n      sub\n      swap1\n      keccak256\n        /* \"contracts/GiftCardETH.sol\":5411:5444  giftCards[giftCardCodes[i]].buyer */\n      0x01\n      add\n        /* \"contracts/GiftCardETH.sol\":5394:5445  abi.encodePacked(giftCards[giftCardCodes[i]].buyer) */\n      add(0x20, mload(0x40))\n      tag_142\n      swap2\n      swap1\n      tag_109\n      jump\t// in\n    tag_142:\n      mload(0x40)\n      0x20\n      dup2\n      dup4\n      sub\n      sub\n      dup2\n      mstore\n      swap1\n      0x40\n      mstore\n        /* \"contracts/GiftCardETH.sol\":5363:5463  keccak256(... */\n      dup1\n      mload\n      swap1\n      0x20\n      add\n      keccak256\n        /* \"contracts/GiftCardETH.sol\":5363:5497  keccak256(... */\n      eq\n        /* \"contracts/GiftCardETH.sol\":5363:5652  keccak256(... */\n      dup1\n      tag_143\n      jumpi\n      pop\n        /* \"contracts/GiftCardETH.sol\":5638:5652  senderNameHash */\n      dup4\n        /* \"contracts/GiftCardETH.sol\":5565:5574  giftCards */\n      0x01\n        /* \"contracts/GiftCardETH.sol\":5575:5588  giftCardCodes */\n      0x03\n        /* \"contracts/GiftCardETH.sol\":5589:5590  i */\n      dup4\n        /* \"contracts/GiftCardETH.sol\":5575:5591  giftCardCodes[i] */\n      dup2\n      sload\n      dup2\n      lt\n      tag_144\n      jumpi\n      tag_145\n      tag_115\n      jump\t// in\n    tag_145:\n    tag_144:\n      swap1\n      0x00\n      mstore\n      keccak256(0x00, 0x20)\n      add\n        /* \"contracts/GiftCardETH.sol\":5565:5592  giftCards[giftCardCodes[i]] */\n      mload(0x40)\n      tag_147\n      swap2\n      swap1\n      tag_109\n      jump\t// in\n    tag_147:\n      swap1\n      dup2\n      mstore\n      0x20\n      add\n      mload(0x40)\n      dup1\n      swap2\n      sub\n      swap1\n      keccak256\n        /* \"contracts/GiftCardETH.sol\":5565:5599  giftCards[giftCardCodes[i]].getter */\n      0x04\n      add\n        /* \"contracts/GiftCardETH.sol\":5548:5600  abi.encodePacked(giftCards[giftCardCodes[i]].getter) */\n      add(0x20, mload(0x40))\n      tag_148\n      swap2\n      swap1\n      tag_109\n      jump\t// in\n    tag_148:\n      mload(0x40)\n      0x20\n      dup2\n      dup4\n      sub\n      sub\n      dup2\n      mstore\n      swap1\n      0x40\n      mstore\n        /* \"contracts/GiftCardETH.sol\":5517:5618  keccak256(... */\n      dup1\n      mload\n      swap1\n      0x20\n      add\n      keccak256\n        /* \"contracts/GiftCardETH.sol\":5517:5652  keccak256(... */\n      eq\n        /* \"contracts/GiftCardETH.sol\":5363:5652  keccak256(... */\n    tag_143:\n        /* \"contracts/GiftCardETH.sol\":5342:5769  if (... */\n      iszero\n      tag_149\n      jumpi\n        /* \"contracts/GiftCardETH.sol\":5702:5711  giftCards */\n      0x01\n        /* \"contracts/GiftCardETH.sol\":5712:5725  giftCardCodes */\n      0x03\n        /* \"contracts/GiftCardETH.sol\":5726:5727  i */\n      dup3\n        /* \"contracts/GiftCardETH.sol\":5712:5728  giftCardCodes[i] */\n      dup2\n      sload\n      dup2\n      lt\n      tag_150\n      jumpi\n      tag_151\n      tag_115\n      jump\t// in\n    tag_151:\n    tag_150:\n      swap1\n      0x00\n      mstore\n      keccak256(0x00, 0x20)\n      add\n        /* \"contracts/GiftCardETH.sol\":5702:5729  giftCards[giftCardCodes[i]] */\n      mload(0x40)\n      tag_153\n      swap2\n      swap1\n      tag_109\n      jump\t// in\n    tag_153:\n      swap1\n      dup2\n      mstore\n      0x20\n      add\n      mload(0x40)\n      dup1\n      swap2\n      sub\n      swap1\n      keccak256\n        /* \"contracts/GiftCardETH.sol\":5685:5729  myCards[index] = giftCards[giftCardCodes[i]] */\n      mload(0x40)\n      dup1\n      0xa0\n      add\n      0x40\n      mstore\n      swap1\n      dup2\n      0x00\n      dup3\n      add\n      dup1\n      sload\n      tag_154\n      swap1\n      tag_63\n      jump\t// in\n    tag_154:\n      dup1\n      0x1f\n      add\n      0x20\n      dup1\n      swap2\n      div\n      mul\n      0x20\n      add\n      mload(0x40)\n      swap1\n      dup2\n      add\n      0x40\n      mstore\n      dup1\n      swap3\n      swap2\n      swap1\n      dup2\n      dup2\n      mstore\n      0x20\n      add\n      dup3\n      dup1\n      sload\n      tag_155\n      swap1\n      tag_63\n      jump\t// in\n    tag_155:\n      dup1\n      iszero\n      tag_156\n      jumpi\n      dup1\n      0x1f\n      lt\n      tag_157\n      jumpi\n      0x0100\n      dup1\n      dup4\n      sload\n      div\n      mul\n      dup4\n      mstore\n      swap2\n      0x20\n      add\n      swap2\n      jump(tag_156)\n    tag_157:\n      dup3\n      add\n      swap2\n      swap1\n      0x00\n      mstore\n      keccak256(0x00, 0x20)\n      swap1\n    tag_158:\n      dup2\n      sload\n      dup2\n      mstore\n      swap1\n      0x01\n      add\n      swap1\n      0x20\n      add\n      dup1\n      dup4\n      gt\n      tag_158\n      jumpi\n      dup3\n      swap1\n      sub\n      0x1f\n      and\n      dup3\n      add\n      swap2\n    tag_156:\n      pop\n      pop\n      pop\n      pop\n      pop\n      dup2\n      mstore\n      0x20\n      add\n      0x01\n      dup3\n      add\n      dup1\n      sload\n      tag_159\n      swap1\n      tag_63\n      jump\t// in\n    tag_159:\n      dup1\n      0x1f\n      add\n      0x20\n      dup1\n      swap2\n      div\n      mul\n      0x20\n      add\n      mload(0x40)\n      swap1\n      dup2\n      add\n      0x40\n      mstore\n      dup1\n      swap3\n      swap2\n      swap1\n      dup2\n      dup2\n      mstore\n      0x20\n      add\n      dup3\n      dup1\n      sload\n      tag_160\n      swap1\n      tag_63\n      jump\t// in\n    tag_160:\n      dup1\n      iszero\n      tag_161\n      jumpi\n      dup1\n      0x1f\n      lt\n      tag_162\n      jumpi\n      0x0100\n      dup1\n      dup4\n      sload\n      div\n      mul\n      dup4\n      mstore\n      swap2\n      0x20\n      add\n      swap2\n      jump(tag_161)\n    tag_162:\n      dup3\n      add\n      swap2\n      swap1\n      0x00\n      mstore\n      keccak256(0x00, 0x20)\n      swap1\n    tag_163:\n      dup2\n      sload\n      dup2\n      mstore\n      swap1\n      0x01\n      add\n      swap1\n      0x20\n      add\n      dup1\n      dup4\n      gt\n      tag_163\n      jumpi\n      dup3\n      swap1\n      sub\n      0x1f\n      and\n      dup3\n      add\n      swap2\n    tag_161:\n      pop\n      pop\n      pop\n      pop\n      pop\n      dup2\n      mstore\n      0x20\n      add\n      0x02\n      dup3\n      add\n      sload\n      dup2\n      mstore\n      0x20\n      add\n      0x03\n      dup3\n      add\n      0x00\n      swap1\n      sload\n      swap1\n      0x0100\n      exp\n      swap1\n      div\n      0xff\n      and\n      0x01\n      dup2\n      gt\n      iszero\n      tag_164\n      jumpi\n      tag_165\n      tag_67\n      jump\t// in\n    tag_165:\n    tag_164:\n      0x01\n      dup2\n      gt\n      iszero\n      tag_166\n      jumpi\n      tag_167\n      tag_67\n      jump\t// in\n    tag_167:\n    tag_166:\n      dup2\n      mstore\n      0x20\n      add\n      0x04\n      dup3\n      add\n      dup1\n      sload\n      tag_168\n      swap1\n      tag_63\n      jump\t// in\n    tag_168:\n      dup1\n      0x1f\n      add\n      0x20\n      dup1\n      swap2\n      div\n      mul\n      0x20\n      add\n      mload(0x40)\n      swap1\n      dup2\n      add\n      0x40\n      mstore\n      dup1\n      swap3\n      swap2\n      swap1\n      dup2\n      dup2\n      mstore\n      0x20\n      add\n      dup3\n      dup1\n      sload\n      tag_169\n      swap1\n      tag_63\n      jump\t// in\n    tag_169:\n      dup1\n      iszero\n      tag_170\n      jumpi\n      dup1\n      0x1f\n      lt\n      tag_171\n      jumpi\n      0x0100\n      dup1\n      dup4\n      sload\n      div\n      mul\n      dup4\n      mstore\n      swap2\n      0x20\n      add\n      swap2\n      jump(tag_170)\n    tag_171:\n      dup3\n      add\n      swap2\n      swap1\n      0x00\n      mstore\n      keccak256(0x00, 0x20)\n      swap1\n    tag_172:\n      dup2\n      sload\n      dup2\n      mstore\n      swap1\n      0x01\n      add\n      swap1\n      0x20\n      add\n      dup1\n      dup4\n      gt\n      tag_172\n      jumpi\n      dup3\n      swap1\n      sub\n      0x1f\n      and\n      dup3\n      add\n      swap2\n    tag_170:\n      pop\n      pop\n      pop\n      pop\n      pop\n      dup2\n      mstore\n      pop\n      pop\n        /* \"contracts/GiftCardETH.sol\":5685:5692  myCards */\n      dup4\n        /* \"contracts/GiftCardETH.sol\":5693:5698  index */\n      dup4\n        /* \"contracts/GiftCardETH.sol\":5685:5699  myCards[index] */\n      dup2\n      mload\n      dup2\n      lt\n      tag_173\n      jumpi\n      tag_174\n      tag_115\n      jump\t// in\n    tag_174:\n    tag_173:\n      0x20\n      mul\n      0x20\n      add\n      add\n        /* \"contracts/GiftCardETH.sol\":5685:5729  myCards[index] = giftCards[giftCardCodes[i]] */\n      dup2\n      swap1\n      mstore\n      pop\n        /* \"contracts/GiftCardETH.sol\":5747:5754  index++ */\n      dup2\n      dup1\n      tag_175\n      swap1\n      tag_127\n      jump\t// in\n    tag_175:\n      swap3\n      pop\n      pop\n        /* \"contracts/GiftCardETH.sol\":5342:5769  if (... */\n    tag_149:\n        /* \"contracts/GiftCardETH.sol\":5323:5326  i++ */\n      dup1\n      dup1\n      0x01\n      add\n      swap2\n      pop\n      pop\n        /* \"contracts/GiftCardETH.sol\":5277:5779  for (uint256 i = 0; i < giftCardCodes.length; i++) {... */\n      jump(tag_135)\n    tag_136:\n      pop\n        /* \"contracts/GiftCardETH.sol\":5796:5803  myCards */\n      dup2\n        /* \"contracts/GiftCardETH.sol\":5789:5803  return myCards */\n      swap5\n      pop\n      pop\n      pop\n      pop\n      pop\n        /* \"contracts/GiftCardETH.sol\":4477:5810  function getMyCard()... */\n      swap1\n      jump\t// out\n        /* \"contracts/GiftCardETH.sol\":6514:6762  function withdrawBalance() external registeredUsersOnly adminOnly payable returns(bool) {... */\n    tag_34:\n        /* \"contracts/GiftCardETH.sol\":6596:6600  bool */\n      0x00\n        /* \"contracts/GiftCardETH.sol\":1212:1213  0 */\n      dup1\n        /* \"contracts/GiftCardETH.sol\":1179:1184  users */\n      0x00\n        /* \"contracts/GiftCardETH.sol\":1179:1196  users[msg.sender] */\n      dup1\n        /* \"contracts/GiftCardETH.sol\":1185:1195  msg.sender */\n      caller\n        /* \"contracts/GiftCardETH.sol\":1179:1196  users[msg.sender] */\n      0xffffffffffffffffffffffffffffffffffffffff\n      and\n      0xffffffffffffffffffffffffffffffffffffffff\n      and\n      dup2\n      mstore\n      0x20\n      add\n      swap1\n      dup2\n      mstore\n      0x20\n      add\n      0x00\n      keccak256\n        /* \"contracts/GiftCardETH.sol\":1179:1201  users[msg.sender].name */\n      0x00\n      add\n        /* \"contracts/GiftCardETH.sol\":1173:1209  bytes(users[msg.sender].name).length */\n      dup1\n      sload\n      tag_177\n      swap1\n      tag_63\n      jump\t// in\n    tag_177:\n      swap1\n      pop\n        /* \"contracts/GiftCardETH.sol\":1173:1213  bytes(users[msg.sender].name).length > 0 */\n      gt\n        /* \"contracts/GiftCardETH.sol\":1152:1258  require(... */\n      tag_178\n      jumpi\n      mload(0x40)\n      0x08c379a000000000000000000000000000000000000000000000000000000000\n      dup2\n      mstore\n      0x04\n      add\n      tag_179\n      swap1\n      tag_79\n      jump\t// in\n    tag_179:\n      mload(0x40)\n      dup1\n      swap2\n      sub\n      swap1\n      revert\n    tag_178:\n        /* \"contracts/GiftCardETH.sol\":1363:1377  UserType.ADMIN */\n      0x01\n        /* \"contracts/GiftCardETH.sol\":1333:1377  users[msg.sender].userType == UserType.ADMIN */\n      dup1\n      dup2\n      gt\n      iszero\n      tag_181\n      jumpi\n      tag_182\n      tag_67\n      jump\t// in\n    tag_182:\n    tag_181:\n        /* \"contracts/GiftCardETH.sol\":1333:1338  users */\n      0x00\n        /* \"contracts/GiftCardETH.sol\":1333:1350  users[msg.sender] */\n      dup1\n        /* \"contracts/GiftCardETH.sol\":1339:1349  msg.sender */\n      caller\n        /* \"contracts/GiftCardETH.sol\":1333:1350  users[msg.sender] */\n      0xffffffffffffffffffffffffffffffffffffffff\n      and\n      0xffffffffffffffffffffffffffffffffffffffff\n      and\n      dup2\n      mstore\n      0x20\n      add\n      swap1\n      dup2\n      mstore\n      0x20\n      add\n      0x00\n      keccak256\n        /* \"contracts/GiftCardETH.sol\":1333:1359  users[msg.sender].userType */\n      0x01\n      add\n      0x01\n      swap1\n      sload\n      swap1\n      0x0100\n      exp\n      swap1\n      div\n      0xff\n      and\n        /* \"contracts/GiftCardETH.sol\":1333:1377  users[msg.sender].userType == UserType.ADMIN */\n      0x01\n      dup2\n      gt\n      iszero\n      tag_183\n      jumpi\n      tag_184\n      tag_67\n      jump\t// in\n    tag_184:\n    tag_183:\n      eq\n        /* \"contracts/GiftCardETH.sol\":1312:1423  require(... */\n      tag_185\n      jumpi\n      mload(0x40)\n      0x08c379a000000000000000000000000000000000000000000000000000000000\n      dup2\n      mstore\n      0x04\n      add\n      tag_186\n      swap1\n      tag_187\n      jump\t// in\n    tag_186:\n      mload(0x40)\n      dup1\n      swap2\n      sub\n      swap1\n      revert\n    tag_185:\n        /* \"contracts/GiftCardETH.sol\":6613:6625  bool success */\n      0x00\n        /* \"contracts/GiftCardETH.sol\":6631:6641  msg.sender */\n      caller\n        /* \"contracts/GiftCardETH.sol\":6631:6646  msg.sender.call */\n      0xffffffffffffffffffffffffffffffffffffffff\n      and\n        /* \"contracts/GiftCardETH.sol\":6654:6675  address(this).balance */\n      selfbalance\n        /* \"contracts/GiftCardETH.sol\":6631:6680  msg.sender.call{value: address(this).balance}(\"\") */\n      mload(0x40)\n      tag_189\n      swap1\n      tag_95\n      jump\t// in\n    tag_189:\n      0x00\n      mload(0x40)\n      dup1\n      dup4\n      sub\n      dup2\n      dup6\n      dup8\n      gas\n      call\n      swap3\n      pop\n      pop\n      pop\n      returndatasize\n      dup1\n      0x00\n      dup2\n      eq\n      tag_192\n      jumpi\n      mload(0x40)\n      swap2\n      pop\n      and(add(returndatasize, 0x3f), not(0x1f))\n      dup3\n      add\n      0x40\n      mstore\n      returndatasize\n      dup3\n      mstore\n      returndatasize\n      0x00\n      0x20\n      dup5\n      add\n      returndatacopy\n      jump(tag_191)\n    tag_192:\n      0x60\n      swap2\n      pop\n    tag_191:\n      pop\n        /* \"contracts/GiftCardETH.sol\":6612:6680  (bool success, ) = msg.sender.call{value: address(this).balance}(\"\") */\n      pop\n      swap1\n      pop\n        /* \"contracts/GiftCardETH.sol\":6698:6705  success */\n      dup1\n        /* \"contracts/GiftCardETH.sol\":6690:6731  require(success, \"Ether transfer failed\") */\n      tag_193\n      jumpi\n      mload(0x40)\n      0x08c379a000000000000000000000000000000000000000000000000000000000\n      dup2\n      mstore\n      0x04\n      add\n      tag_194\n      swap1\n      tag_101\n      jump\t// in\n    tag_194:\n      mload(0x40)\n      dup1\n      swap2\n      sub\n      swap1\n      revert\n    tag_193:\n        /* \"contracts/GiftCardETH.sol\":6748:6755  success */\n      dup1\n        /* \"contracts/GiftCardETH.sol\":6741:6755  return success */\n      swap2\n      pop\n      pop\n        /* \"contracts/GiftCardETH.sol\":6514:6762  function withdrawBalance() external registeredUsersOnly adminOnly payable returns(bool) {... */\n      swap1\n      jump\t// out\n        /* \"contracts/GiftCardETH.sol\":6394:6509  function contractBalance() external registeredUsersOnly adminOnly view returns(uint){... */\n    tag_38:\n        /* \"contracts/GiftCardETH.sol\":6473:6477  uint */\n      0x00\n        /* \"contracts/GiftCardETH.sol\":1212:1213  0 */\n      dup1\n        /* \"contracts/GiftCardETH.sol\":1179:1184  users */\n      0x00\n        /* \"contracts/GiftCardETH.sol\":1179:1196  users[msg.sender] */\n      dup1\n        /* \"contracts/GiftCardETH.sol\":1185:1195  msg.sender */\n      caller\n        /* \"contracts/GiftCardETH.sol\":1179:1196  users[msg.sender] */\n      0xffffffffffffffffffffffffffffffffffffffff\n      and\n      0xffffffffffffffffffffffffffffffffffffffff\n      and\n      dup2\n      mstore\n      0x20\n      add\n      swap1\n      dup2\n      mstore\n      0x20\n      add\n      0x00\n      keccak256\n        /* \"contracts/GiftCardETH.sol\":1179:1201  users[msg.sender].name */\n      0x00\n      add\n        /* \"contracts/GiftCardETH.sol\":1173:1209  bytes(users[msg.sender].name).length */\n      dup1\n      sload\n      tag_196\n      swap1\n      tag_63\n      jump\t// in\n    tag_196:\n      swap1\n      pop\n        /* \"contracts/GiftCardETH.sol\":1173:1213  bytes(users[msg.sender].name).length > 0 */\n      gt\n        /* \"contracts/GiftCardETH.sol\":1152:1258  require(... */\n      tag_197\n      jumpi\n      mload(0x40)\n      0x08c379a000000000000000000000000000000000000000000000000000000000\n      dup2\n      mstore\n      0x04\n      add\n      tag_198\n      swap1\n      tag_79\n      jump\t// in\n    tag_198:\n      mload(0x40)\n      dup1\n      swap2\n      sub\n      swap1\n      revert\n    tag_197:\n        /* \"contracts/GiftCardETH.sol\":1363:1377  UserType.ADMIN */\n      0x01\n        /* \"contracts/GiftCardETH.sol\":1333:1377  users[msg.sender].userType == UserType.ADMIN */\n      dup1\n      dup2\n      gt\n      iszero\n      tag_200\n      jumpi\n      tag_201\n      tag_67\n      jump\t// in\n    tag_201:\n    tag_200:\n        /* \"contracts/GiftCardETH.sol\":1333:1338  users */\n      0x00\n        /* \"contracts/GiftCardETH.sol\":1333:1350  users[msg.sender] */\n      dup1\n        /* \"contracts/GiftCardETH.sol\":1339:1349  msg.sender */\n      caller\n        /* \"contracts/GiftCardETH.sol\":1333:1350  users[msg.sender] */\n      0xffffffffffffffffffffffffffffffffffffffff\n      and\n      0xffffffffffffffffffffffffffffffffffffffff\n      and\n      dup2\n      mstore\n      0x20\n      add\n      swap1\n      dup2\n      mstore\n      0x20\n      add\n      0x00\n      keccak256\n        /* \"contracts/GiftCardETH.sol\":1333:1359  users[msg.sender].userType */\n      0x01\n      add\n      0x01\n      swap1\n      sload\n      swap1\n      0x0100\n      exp\n      swap1\n      div\n      0xff\n      and\n        /* \"contracts/GiftCardETH.sol\":1333:1377  users[msg.sender].userType == UserType.ADMIN */\n      0x01\n      dup2\n      gt\n      iszero\n      tag_202\n      jumpi\n      tag_203\n      tag_67\n      jump\t// in\n    tag_203:\n    tag_202:\n      eq\n        /* \"contracts/GiftCardETH.sol\":1312:1423  require(... */\n      tag_204\n      jumpi\n      mload(0x40)\n      0x08c379a000000000000000000000000000000000000000000000000000000000\n      dup2\n      mstore\n      0x04\n      add\n      tag_205\n      swap1\n      tag_187\n      jump\t// in\n    tag_205:\n      mload(0x40)\n      dup1\n      swap2\n      sub\n      swap1\n      revert\n    tag_204:\n        /* \"contracts/GiftCardETH.sol\":6495:6502  balance */\n      sload(0x05)\n        /* \"contracts/GiftCardETH.sol\":6488:6502  return balance */\n      swap1\n      pop\n        /* \"contracts/GiftCardETH.sol\":6394:6509  function contractBalance() external registeredUsersOnly adminOnly view returns(uint){... */\n      swap1\n      jump\t// out\n        /* \"contracts/GiftCardETH.sol\":2280:2460  function registration(string calldata name, Gender gender) external {... */\n    tag_45:\n        /* \"contracts/GiftCardETH.sol\":2358:2371  userAddresses */\n      0x04\n        /* \"contracts/GiftCardETH.sol\":2377:2387  msg.sender */\n      caller\n        /* \"contracts/GiftCardETH.sol\":2358:2388  userAddresses.push(msg.sender) */\n      swap1\n      dup1\n      0x01\n      dup2\n      sload\n      add\n      dup1\n      dup3\n      sstore\n      dup1\n      swap2\n      pop\n      pop\n      0x01\n      swap1\n      sub\n      swap1\n      0x00\n      mstore\n      keccak256(0x00, 0x20)\n      add\n      0x00\n      swap1\n      swap2\n      swap1\n      swap2\n      swap1\n      swap2\n      0x0100\n      exp\n      dup2\n      sload\n      dup2\n      0xffffffffffffffffffffffffffffffffffffffff\n      mul\n      not\n      and\n      swap1\n      dup4\n      0xffffffffffffffffffffffffffffffffffffffff\n      and\n      mul\n      or\n      swap1\n      sstore\n      pop\n        /* \"contracts/GiftCardETH.sol\":2418:2453  User(name, gender, UserType.NORMAL) */\n      mload(0x40)\n      dup1\n      0x60\n      add\n      0x40\n      mstore\n      dup1\n        /* \"contracts/GiftCardETH.sol\":2423:2427  name */\n      dup5\n      dup5\n        /* \"contracts/GiftCardETH.sol\":2418:2453  User(name, gender, UserType.NORMAL) */\n      dup1\n      dup1\n      0x1f\n      add\n      0x20\n      dup1\n      swap2\n      div\n      mul\n      0x20\n      add\n      mload(0x40)\n      swap1\n      dup2\n      add\n      0x40\n      mstore\n      dup1\n      swap4\n      swap3\n      swap2\n      swap1\n      dup2\n      dup2\n      mstore\n      0x20\n      add\n      dup4\n      dup4\n      dup1\n      dup3\n      dup5\n      calldatacopy\n      0x00\n      dup2\n      dup5\n      add\n      mstore\n      not(0x1f)\n      0x1f\n      dup3\n      add\n      and\n      swap1\n      pop\n      dup1\n      dup4\n      add\n      swap3\n      pop\n      pop\n      pop\n      pop\n      pop\n      pop\n      pop\n      dup2\n      mstore\n      0x20\n      add\n        /* \"contracts/GiftCardETH.sol\":2429:2435  gender */\n      dup3\n        /* \"contracts/GiftCardETH.sol\":2418:2453  User(name, gender, UserType.NORMAL) */\n      0x01\n      dup2\n      gt\n      iszero\n      tag_209\n      jumpi\n      tag_210\n      tag_67\n      jump\t// in\n    tag_210:\n    tag_209:\n      dup2\n      mstore\n      0x20\n      add\n        /* \"contracts/GiftCardETH.sol\":2437:2452  UserType.NORMAL */\n      0x00\n        /* \"contracts/GiftCardETH.sol\":2418:2453  User(name, gender, UserType.NORMAL) */\n      0x01\n      dup2\n      gt\n      iszero\n      tag_211\n      jumpi\n      tag_212\n      tag_67\n      jump\t// in\n    tag_212:\n    tag_211:\n      dup2\n      mstore\n      pop\n        /* \"contracts/GiftCardETH.sol\":2398:2403  users */\n      0x00\n        /* \"contracts/GiftCardETH.sol\":2398:2415  users[msg.sender] */\n      dup1\n        /* \"contracts/GiftCardETH.sol\":2404:2414  msg.sender */\n      caller\n        /* \"contracts/GiftCardETH.sol\":2398:2415  users[msg.sender] */\n      0xffffffffffffffffffffffffffffffffffffffff\n      and\n      0xffffffffffffffffffffffffffffffffffffffff\n      and\n      dup2\n      mstore\n      0x20\n      add\n      swap1\n      dup2\n      mstore\n      0x20\n      add\n      0x00\n      keccak256\n        /* \"contracts/GiftCardETH.sol\":2398:2453  users[msg.sender] = User(name, gender, UserType.NORMAL) */\n      0x00\n      dup3\n      add\n      mload\n      dup2\n      0x00\n      add\n      swap1\n      dup2\n      tag_213\n      swap2\n      swap1\n      tag_214\n      jump\t// in\n    tag_213:\n      pop\n      0x20\n      dup3\n      add\n      mload\n      dup2\n      0x01\n      add\n      exp(0x0100, 0x00)\n      dup2\n      sload\n      dup2\n      0xff\n      mul\n      not\n      and\n      swap1\n      dup4\n      0x01\n      dup2\n      gt\n      iszero\n      tag_215\n      jumpi\n      tag_216\n      tag_67\n      jump\t// in\n    tag_216:\n    tag_215:\n      mul\n      or\n      swap1\n      sstore\n      pop\n      0x40\n      dup3\n      add\n      mload\n      dup2\n      0x01\n      add\n      exp(0x0100, 0x01)\n      dup2\n      sload\n      dup2\n      0xff\n      mul\n      not\n      and\n      swap1\n      dup4\n      0x01\n      dup2\n      gt\n      iszero\n      tag_217\n      jumpi\n      tag_218\n      tag_67\n      jump\t// in\n    tag_218:\n    tag_217:\n      mul\n      or\n      swap1\n      sstore\n      pop\n      swap1\n      pop\n      pop\n        /* \"contracts/GiftCardETH.sol\":2280:2460  function registration(string calldata name, Gender gender) external {... */\n      pop\n      pop\n      pop\n      jump\t// out\n        /* \"contracts/GiftCardETH.sol\":4190:4472  function buyGiftCard() external payable registeredUsersOnly {... */\n    tag_47:\n        /* \"contracts/GiftCardETH.sol\":1212:1213  0 */\n      0x00\n        /* \"contracts/GiftCardETH.sol\":1179:1184  users */\n      dup1\n        /* \"contracts/GiftCardETH.sol\":1179:1196  users[msg.sender] */\n      0x00\n        /* \"contracts/GiftCardETH.sol\":1185:1195  msg.sender */\n      caller\n        /* \"contracts/GiftCardETH.sol\":1179:1196  users[msg.sender] */\n      0xffffffffffffffffffffffffffffffffffffffff\n      and\n      0xffffffffffffffffffffffffffffffffffffffff\n      and\n      dup2\n      mstore\n      0x20\n      add\n      swap1\n      dup2\n      mstore\n      0x20\n      add\n      0x00\n      keccak256\n        /* \"contracts/GiftCardETH.sol\":1179:1201  users[msg.sender].name */\n      0x00\n      add\n        /* \"contracts/GiftCardETH.sol\":1173:1209  bytes(users[msg.sender].name).length */\n      dup1\n      sload\n      tag_220\n      swap1\n      tag_63\n      jump\t// in\n    tag_220:\n      swap1\n      pop\n        /* \"contracts/GiftCardETH.sol\":1173:1213  bytes(users[msg.sender].name).length > 0 */\n      gt\n        /* \"contracts/GiftCardETH.sol\":1152:1258  require(... */\n      tag_221\n      jumpi\n      mload(0x40)\n      0x08c379a000000000000000000000000000000000000000000000000000000000\n      dup2\n      mstore\n      0x04\n      add\n      tag_222\n      swap1\n      tag_79\n      jump\t// in\n    tag_222:\n      mload(0x40)\n      dup1\n      swap2\n      sub\n      swap1\n      revert\n    tag_221:\n        /* \"contracts/GiftCardETH.sol\":4260:4274  uint256 amount */\n      0x00\n        /* \"contracts/GiftCardETH.sol\":4296:4299  100 */\n      0x64\n        /* \"contracts/GiftCardETH.sol\":4290:4292  90 */\n      0x5a\n        /* \"contracts/GiftCardETH.sol\":4278:4287  msg.value */\n      callvalue\n        /* \"contracts/GiftCardETH.sol\":4278:4292  msg.value * 90 */\n      tag_224\n      swap2\n      swap1\n      tag_225\n      jump\t// in\n    tag_224:\n        /* \"contracts/GiftCardETH.sol\":4277:4299  (msg.value * 90) / 100 */\n      tag_226\n      swap2\n      swap1\n      tag_227\n      jump\t// in\n    tag_226:\n        /* \"contracts/GiftCardETH.sol\":4260:4299  uint256 amount = (msg.value * 90) / 100 */\n      swap1\n      pop\n        /* \"contracts/GiftCardETH.sol\":4339:4342  100 */\n      0x64\n        /* \"contracts/GiftCardETH.sol\":4333:4335  10 */\n      0x0a\n        /* \"contracts/GiftCardETH.sol\":4321:4330  msg.value */\n      callvalue\n        /* \"contracts/GiftCardETH.sol\":4321:4335  msg.value * 10 */\n      tag_228\n      swap2\n      swap1\n      tag_225\n      jump\t// in\n    tag_228:\n        /* \"contracts/GiftCardETH.sol\":4320:4342  (msg.value * 10) / 100 */\n      tag_229\n      swap2\n      swap1\n      tag_227\n      jump\t// in\n    tag_229:\n        /* \"contracts/GiftCardETH.sol\":4309:4316  balance */\n      0x05\n      0x00\n        /* \"contracts/GiftCardETH.sol\":4309:4342  balance += (msg.value * 10) / 100 */\n      dup3\n      dup3\n      sload\n      tag_230\n      swap2\n      swap1\n      tag_231\n      jump\t// in\n    tag_230:\n      swap3\n      pop\n      pop\n      dup2\n      swap1\n      sstore\n      pop\n        /* \"contracts/GiftCardETH.sol\":4352:4370  string memory code */\n      0x00\n        /* \"contracts/GiftCardETH.sol\":4373:4395  generateGiftCardCode() */\n      tag_232\n        /* \"contracts/GiftCardETH.sol\":4373:4393  generateGiftCardCode */\n      tag_233\n        /* \"contracts/GiftCardETH.sol\":4373:4395  generateGiftCardCode() */\n      jump\t// in\n    tag_232:\n        /* \"contracts/GiftCardETH.sol\":4352:4395  string memory code = generateGiftCardCode() */\n      swap1\n      pop\n        /* \"contracts/GiftCardETH.sol\":4405:4426  addCard(code, amount) */\n      tag_234\n        /* \"contracts/GiftCardETH.sol\":4413:4417  code */\n      dup2\n        /* \"contracts/GiftCardETH.sol\":4419:4425  amount */\n      dup4\n        /* \"contracts/GiftCardETH.sol\":4405:4412  addCard */\n      tag_235\n        /* \"contracts/GiftCardETH.sol\":4405:4426  addCard(code, amount) */\n      jump\t// in\n    tag_234:\n        /* \"contracts/GiftCardETH.sol\":4441:4465  CardBought(code, amount) */\n      0x19446f6741eca6d71b8406898c4308b5f1b9844f9f1ea7614b48264e453b9bd2\n        /* \"contracts/GiftCardETH.sol\":4452:4456  code */\n      dup2\n        /* \"contracts/GiftCardETH.sol\":4458:4464  amount */\n      dup4\n        /* \"contracts/GiftCardETH.sol\":4441:4465  CardBought(code, amount) */\n      mload(0x40)\n      tag_236\n      swap3\n      swap2\n      swap1\n      tag_237\n      jump\t// in\n    tag_236:\n      mload(0x40)\n      dup1\n      swap2\n      sub\n      swap1\n      log1\n        /* \"contracts/GiftCardETH.sol\":4250:4472  {... */\n      pop\n      pop\n        /* \"contracts/GiftCardETH.sol\":4190:4472  function buyGiftCard() external payable registeredUsersOnly {... */\n      jump\t// out\n        /* \"contracts/GiftCardETH.sol\":2843:3242  function getAllGiftCards()... */\n    tag_50:\n        /* \"contracts/GiftCardETH.sol\":2963:2990  GiftCard[] memory giftcards */\n      0x60\n        /* \"contracts/GiftCardETH.sol\":1212:1213  0 */\n      0x00\n        /* \"contracts/GiftCardETH.sol\":1179:1184  users */\n      dup1\n        /* \"contracts/GiftCardETH.sol\":1179:1196  users[msg.sender] */\n      0x00\n        /* \"contracts/GiftCardETH.sol\":1185:1195  msg.sender */\n      caller\n        /* \"contracts/GiftCardETH.sol\":1179:1196  users[msg.sender] */\n      0xffffffffffffffffffffffffffffffffffffffff\n      and\n      0xffffffffffffffffffffffffffffffffffffffff\n      and\n      dup2\n      mstore\n      0x20\n      add\n      swap1\n      dup2\n      mstore\n      0x20\n      add\n      0x00\n      keccak256\n        /* \"contracts/GiftCardETH.sol\":1179:1201  users[msg.sender].name */\n      0x00\n      add\n        /* \"contracts/GiftCardETH.sol\":1173:1209  bytes(users[msg.sender].name).length */\n      dup1\n      sload\n      tag_239\n      swap1\n      tag_63\n      jump\t// in\n    tag_239:\n      swap1\n      pop\n        /* \"contracts/GiftCardETH.sol\":1173:1213  bytes(users[msg.sender].name).length > 0 */\n      gt\n        /* \"contracts/GiftCardETH.sol\":1152:1258  require(... */\n      tag_240\n      jumpi\n      mload(0x40)\n      0x08c379a000000000000000000000000000000000000000000000000000000000\n      dup2\n      mstore\n      0x04\n      add\n      tag_241\n      swap1\n      tag_79\n      jump\t// in\n    tag_241:\n      mload(0x40)\n      dup1\n      swap2\n      sub\n      swap1\n      revert\n    tag_240:\n        /* \"contracts/GiftCardETH.sol\":1363:1377  UserType.ADMIN */\n      0x01\n        /* \"contracts/GiftCardETH.sol\":1333:1377  users[msg.sender].userType == UserType.ADMIN */\n      dup1\n      dup2\n      gt\n      iszero\n      tag_243\n      jumpi\n      tag_244\n      tag_67\n      jump\t// in\n    tag_244:\n    tag_243:\n        /* \"contracts/GiftCardETH.sol\":1333:1338  users */\n      0x00\n        /* \"contracts/GiftCardETH.sol\":1333:1350  users[msg.sender] */\n      dup1\n        /* \"contracts/GiftCardETH.sol\":1339:1349  msg.sender */\n      caller\n        /* \"contracts/GiftCardETH.sol\":1333:1350  users[msg.sender] */\n      0xffffffffffffffffffffffffffffffffffffffff\n      and\n      0xffffffffffffffffffffffffffffffffffffffff\n      and\n      dup2\n      mstore\n      0x20\n      add\n      swap1\n      dup2\n      mstore\n      0x20\n      add\n      0x00\n      keccak256\n        /* \"contracts/GiftCardETH.sol\":1333:1359  users[msg.sender].userType */\n      0x01\n      add\n      0x01\n      swap1\n      sload\n      swap1\n      0x0100\n      exp\n      swap1\n      div\n      0xff\n      and\n        /* \"contracts/GiftCardETH.sol\":1333:1377  users[msg.sender].userType == UserType.ADMIN */\n      0x01\n      dup2\n      gt\n      iszero\n      tag_245\n      jumpi\n      tag_246\n      tag_67\n      jump\t// in\n    tag_246:\n    tag_245:\n      eq\n        /* \"contracts/GiftCardETH.sol\":1312:1423  require(... */\n      tag_247\n      jumpi\n      mload(0x40)\n      0x08c379a000000000000000000000000000000000000000000000000000000000\n      dup2\n      mstore\n      0x04\n      add\n      tag_248\n      swap1\n      tag_187\n      jump\t// in\n    tag_248:\n      mload(0x40)\n      dup1\n      swap2\n      sub\n      swap1\n      revert\n    tag_247:\n        /* \"contracts/GiftCardETH.sol\":3006:3020  uint256 length */\n      0x00\n        /* \"contracts/GiftCardETH.sol\":3023:3036  giftCardCodes */\n      0x03\n        /* \"contracts/GiftCardETH.sol\":3023:3043  giftCardCodes.length */\n      dup1\n      sload\n      swap1\n      pop\n        /* \"contracts/GiftCardETH.sol\":3006:3043  uint256 length = giftCardCodes.length */\n      swap1\n      pop\n        /* \"contracts/GiftCardETH.sol\":3053:3077  GiftCard[] memory result */\n      0x00\n        /* \"contracts/GiftCardETH.sol\":3095:3101  length */\n      dup2\n        /* \"contracts/GiftCardETH.sol\":3080:3102  new GiftCard[](length) */\n      0xffffffffffffffff\n      dup2\n      gt\n      iszero\n      tag_250\n      jumpi\n      tag_251\n      tag_130\n      jump\t// in\n    tag_251:\n    tag_250:\n      mload(0x40)\n      swap1\n      dup1\n      dup3\n      mstore\n      dup1\n      0x20\n      mul\n      0x20\n      add\n      dup3\n      add\n      0x40\n      mstore\n      dup1\n      iszero\n      tag_252\n      jumpi\n      dup2\n      0x20\n      add\n    tag_253:\n      tag_254\n      tag_134\n      jump\t// in\n    tag_254:\n      dup2\n      mstore\n      0x20\n      add\n      swap1\n      0x01\n      swap1\n      sub\n      swap1\n      dup2\n      tag_253\n      jumpi\n      swap1\n      pop\n    tag_252:\n      pop\n        /* \"contracts/GiftCardETH.sol\":3053:3102  GiftCard[] memory result = new GiftCard[](length) */\n      swap1\n      pop\n        /* \"contracts/GiftCardETH.sol\":3117:3126  uint256 i */\n      0x00\n        /* \"contracts/GiftCardETH.sol\":3112:3213  for (uint256 i = 0; i < length; i++) {... */\n    tag_255:\n        /* \"contracts/GiftCardETH.sol\":3136:3142  length */\n      dup3\n        /* \"contracts/GiftCardETH.sol\":3132:3133  i */\n      dup2\n        /* \"contracts/GiftCardETH.sol\":3132:3142  i < length */\n      lt\n        /* \"contracts/GiftCardETH.sol\":3112:3213  for (uint256 i = 0; i < length; i++) {... */\n      iszero\n      tag_256\n      jumpi\n        /* \"contracts/GiftCardETH.sol\":3175:3184  giftCards */\n      0x01\n        /* \"contracts/GiftCardETH.sol\":3185:3198  giftCardCodes */\n      0x03\n        /* \"contracts/GiftCardETH.sol\":3199:3200  i */\n      dup3\n        /* \"contracts/GiftCardETH.sol\":3185:3201  giftCardCodes[i] */\n      dup2\n      sload\n      dup2\n      lt\n      tag_258\n      jumpi\n      tag_259\n      tag_115\n      jump\t// in\n    tag_259:\n    tag_258:\n      swap1\n      0x00\n      mstore\n      keccak256(0x00, 0x20)\n      add\n        /* \"contracts/GiftCardETH.sol\":3175:3202  giftCards[giftCardCodes[i]] */\n      mload(0x40)\n      tag_261\n      swap2\n      swap1\n      tag_109\n      jump\t// in\n    tag_261:\n      swap1\n      dup2\n      mstore\n      0x20\n      add\n      mload(0x40)\n      dup1\n      swap2\n      sub\n      swap1\n      keccak256\n        /* \"contracts/GiftCardETH.sol\":3163:3202  result[i] = giftCards[giftCardCodes[i]] */\n      mload(0x40)\n      dup1\n      0xa0\n      add\n      0x40\n      mstore\n      swap1\n      dup2\n      0x00\n      dup3\n      add\n      dup1\n      sload\n      tag_262\n      swap1\n      tag_63\n      jump\t// in\n    tag_262:\n      dup1\n      0x1f\n      add\n      0x20\n      dup1\n      swap2\n      div\n      mul\n      0x20\n      add\n      mload(0x40)\n      swap1\n      dup2\n      add\n      0x40\n      mstore\n      dup1\n      swap3\n      swap2\n      swap1\n      dup2\n      dup2\n      mstore\n      0x20\n      add\n      dup3\n      dup1\n      sload\n      tag_263\n      swap1\n      tag_63\n      jump\t// in\n    tag_263:\n      dup1\n      iszero\n      tag_264\n      jumpi\n      dup1\n      0x1f\n      lt\n      tag_265\n      jumpi\n      0x0100\n      dup1\n      dup4\n      sload\n      div\n      mul\n      dup4\n      mstore\n      swap2\n      0x20\n      add\n      swap2\n      jump(tag_264)\n    tag_265:\n      dup3\n      add\n      swap2\n      swap1\n      0x00\n      mstore\n      keccak256(0x00, 0x20)\n      swap1\n    tag_266:\n      dup2\n      sload\n      dup2\n      mstore\n      swap1\n      0x01\n      add\n      swap1\n      0x20\n      add\n      dup1\n      dup4\n      gt\n      tag_266\n      jumpi\n      dup3\n      swap1\n      sub\n      0x1f\n      and\n      dup3\n      add\n      swap2\n    tag_264:\n      pop\n      pop\n      pop\n      pop\n      pop\n      dup2\n      mstore\n      0x20\n      add\n      0x01\n      dup3\n      add\n      dup1\n      sload\n      tag_267\n      swap1\n      tag_63\n      jump\t// in\n    tag_267:\n      dup1\n      0x1f\n      add\n      0x20\n      dup1\n      swap2\n      div\n      mul\n      0x20\n      add\n      mload(0x40)\n      swap1\n      dup2\n      add\n      0x40\n      mstore\n      dup1\n      swap3\n      swap2\n      swap1\n      dup2\n      dup2\n      mstore\n      0x20\n      add\n      dup3\n      dup1\n      sload\n      tag_268\n      swap1\n      tag_63\n      jump\t// in\n    tag_268:\n      dup1\n      iszero\n      tag_269\n      jumpi\n      dup1\n      0x1f\n      lt\n      tag_270\n      jumpi\n      0x0100\n      dup1\n      dup4\n      sload\n      div\n      mul\n      dup4\n      mstore\n      swap2\n      0x20\n      add\n      swap2\n      jump(tag_269)\n    tag_270:\n      dup3\n      add\n      swap2\n      swap1\n      0x00\n      mstore\n      keccak256(0x00, 0x20)\n      swap1\n    tag_271:\n      dup2\n      sload\n      dup2\n      mstore\n      swap1\n      0x01\n      add\n      swap1\n      0x20\n      add\n      dup1\n      dup4\n      gt\n      tag_271\n      jumpi\n      dup3\n      swap1\n      sub\n      0x1f\n      and\n      dup3\n      add\n      swap2\n    tag_269:\n      pop\n      pop\n      pop\n      pop\n      pop\n      dup2\n      mstore\n      0x20\n      add\n      0x02\n      dup3\n      add\n      sload\n      dup2\n      mstore\n      0x20\n      add\n      0x03\n      dup3\n      add\n      0x00\n      swap1\n      sload\n      swap1\n      0x0100\n      exp\n      swap1\n      div\n      0xff\n      and\n      0x01\n      dup2\n      gt\n      iszero\n      tag_272\n      jumpi\n      tag_273\n      tag_67\n      jump\t// in\n    tag_273:\n    tag_272:\n      0x01\n      dup2\n      gt\n      iszero\n      tag_274\n      jumpi\n      tag_275\n      tag_67\n      jump\t// in\n    tag_275:\n    tag_274:\n      dup2\n      mstore\n      0x20\n      add\n      0x04\n      dup3\n      add\n      dup1\n      sload\n      tag_276\n      swap1\n      tag_63\n      jump\t// in\n    tag_276:\n      dup1\n      0x1f\n      add\n      0x20\n      dup1\n      swap2\n      div\n      mul\n      0x20\n      add\n      mload(0x40)\n      swap1\n      dup2\n      add\n      0x40\n      mstore\n      dup1\n      swap3\n      swap2\n      swap1\n      dup2\n      dup2\n      mstore\n      0x20\n      add\n      dup3\n      dup1\n      sload\n      tag_277\n      swap1\n      tag_63\n      jump\t// in\n    tag_277:\n      dup1\n      iszero\n      tag_278\n      jumpi\n      dup1\n      0x1f\n      lt\n      tag_279\n      jumpi\n      0x0100\n      dup1\n      dup4\n      sload\n      div\n      mul\n      dup4\n      mstore\n      swap2\n      0x20\n      add\n      swap2\n      jump(tag_278)\n    tag_279:\n      dup3\n      add\n      swap2\n      swap1\n      0x00\n      mstore\n      keccak256(0x00, 0x20)\n      swap1\n    tag_280:\n      dup2\n      sload\n      dup2\n      mstore\n      swap1\n      0x01\n      add\n      swap1\n      0x20\n      add\n      dup1\n      dup4\n      gt\n      tag_280\n      jumpi\n      dup3\n      swap1\n      sub\n      0x1f\n      and\n      dup3\n      add\n      swap2\n    tag_278:\n      pop\n      pop\n      pop\n      pop\n      pop\n      dup2\n      mstore\n      pop\n      pop\n        /* \"contracts/GiftCardETH.sol\":3163:3169  result */\n      dup3\n        /* \"contracts/GiftCardETH.sol\":3170:3171  i */\n      dup3\n        /* \"contracts/GiftCardETH.sol\":3163:3172  result[i] */\n      dup2\n      mload\n      dup2\n      lt\n      tag_281\n      jumpi\n      tag_282\n      tag_115\n      jump\t// in\n    tag_282:\n    tag_281:\n      0x20\n      mul\n      0x20\n      add\n      add\n        /* \"contracts/GiftCardETH.sol\":3163:3202  result[i] = giftCards[giftCardCodes[i]] */\n      dup2\n      swap1\n      mstore\n      pop\n        /* \"contracts/GiftCardETH.sol\":3144:3147  i++ */\n      dup1\n      dup1\n      0x01\n      add\n      swap2\n      pop\n      pop\n        /* \"contracts/GiftCardETH.sol\":3112:3213  for (uint256 i = 0; i < length; i++) {... */\n      jump(tag_255)\n    tag_256:\n      pop\n        /* \"contracts/GiftCardETH.sol\":3229:3235  result */\n      dup1\n        /* \"contracts/GiftCardETH.sol\":3222:3235  return result */\n      swap3\n      pop\n      pop\n      pop\n        /* \"contracts/GiftCardETH.sol\":2843:3242  function getAllGiftCards()... */\n      swap1\n      jump\t// out\n        /* \"contracts/GiftCardETH.sol\":2465:2599  function isAdmin() public view registeredUsersOnly returns (bool) {... */\n    tag_54:\n        /* \"contracts/GiftCardETH.sol\":2525:2529  bool */\n      0x00\n        /* \"contracts/GiftCardETH.sol\":1212:1213  0 */\n      dup1\n        /* \"contracts/GiftCardETH.sol\":1179:1184  users */\n      0x00\n        /* \"contracts/GiftCardETH.sol\":1179:1196  users[msg.sender] */\n      dup1\n        /* \"contracts/GiftCardETH.sol\":1185:1195  msg.sender */\n      caller\n        /* \"contracts/GiftCardETH.sol\":1179:1196  users[msg.sender] */\n      0xffffffffffffffffffffffffffffffffffffffff\n      and\n      0xffffffffffffffffffffffffffffffffffffffff\n      and\n      dup2\n      mstore\n      0x20\n      add\n      swap1\n      dup2\n      mstore\n      0x20\n      add\n      0x00\n      keccak256\n        /* \"contracts/GiftCardETH.sol\":1179:1201  users[msg.sender].name */\n      0x00\n      add\n        /* \"contracts/GiftCardETH.sol\":1173:1209  bytes(users[msg.sender].name).length */\n      dup1\n      sload\n      tag_284\n      swap1\n      tag_63\n      jump\t// in\n    tag_284:\n      swap1\n      pop\n        /* \"contracts/GiftCardETH.sol\":1173:1213  bytes(users[msg.sender].name).length > 0 */\n      gt\n        /* \"contracts/GiftCardETH.sol\":1152:1258  require(... */\n      tag_285\n      jumpi\n      mload(0x40)\n      0x08c379a000000000000000000000000000000000000000000000000000000000\n      dup2\n      mstore\n      0x04\n      add\n      tag_286\n      swap1\n      tag_79\n      jump\t// in\n    tag_286:\n      mload(0x40)\n      dup1\n      swap2\n      sub\n      swap1\n      revert\n    tag_285:\n        /* \"contracts/GiftCardETH.sol\":2578:2592  UserType.ADMIN */\n      0x01\n        /* \"contracts/GiftCardETH.sol\":2548:2592  users[msg.sender].userType == UserType.ADMIN */\n      dup1\n      dup2\n      gt\n      iszero\n      tag_288\n      jumpi\n      tag_289\n      tag_67\n      jump\t// in\n    tag_289:\n    tag_288:\n        /* \"contracts/GiftCardETH.sol\":2548:2553  users */\n      0x00\n        /* \"contracts/GiftCardETH.sol\":2548:2565  users[msg.sender] */\n      dup1\n        /* \"contracts/GiftCardETH.sol\":2554:2564  msg.sender */\n      caller\n        /* \"contracts/GiftCardETH.sol\":2548:2565  users[msg.sender] */\n      0xffffffffffffffffffffffffffffffffffffffff\n      and\n      0xffffffffffffffffffffffffffffffffffffffff\n      and\n      dup2\n      mstore\n      0x20\n      add\n      swap1\n      dup2\n      mstore\n      0x20\n      add\n      0x00\n      keccak256\n        /* \"contracts/GiftCardETH.sol\":2548:2574  users[msg.sender].userType */\n      0x01\n      add\n      0x01\n      swap1\n      sload\n      swap1\n      0x0100\n      exp\n      swap1\n      div\n      0xff\n      and\n        /* \"contracts/GiftCardETH.sol\":2548:2592  users[msg.sender].userType == UserType.ADMIN */\n      0x01\n      dup2\n      gt\n      iszero\n      tag_290\n      jumpi\n      tag_291\n      tag_67\n      jump\t// in\n    tag_291:\n    tag_290:\n      eq\n        /* \"contracts/GiftCardETH.sol\":2541:2592  return users[msg.sender].userType == UserType.ADMIN */\n      swap1\n      pop\n        /* \"contracts/GiftCardETH.sol\":2465:2599  function isAdmin() public view registeredUsersOnly returns (bool) {... */\n      swap1\n      jump\t// out\n        /* \"contracts/GiftCardETH.sol\":2604:2720  function getMyData() public registeredUsersOnly view returns (User memory) {... */\n    tag_58:\n        /* \"contracts/GiftCardETH.sol\":2666:2677  User memory */\n      tag_292\n      tag_293\n      jump\t// in\n    tag_292:\n        /* \"contracts/GiftCardETH.sol\":1212:1213  0 */\n      0x00\n        /* \"contracts/GiftCardETH.sol\":1179:1184  users */\n      dup1\n        /* \"contracts/GiftCardETH.sol\":1179:1196  users[msg.sender] */\n      0x00\n        /* \"contracts/GiftCardETH.sol\":1185:1195  msg.sender */\n      caller\n        /* \"contracts/GiftCardETH.sol\":1179:1196  users[msg.sender] */\n      0xffffffffffffffffffffffffffffffffffffffff\n      and\n      0xffffffffffffffffffffffffffffffffffffffff\n      and\n      dup2\n      mstore\n      0x20\n      add\n      swap1\n      dup2\n      mstore\n      0x20\n      add\n      0x00\n      keccak256\n        /* \"contracts/GiftCardETH.sol\":1179:1201  users[msg.sender].name */\n      0x00\n      add\n        /* \"contracts/GiftCardETH.sol\":1173:1209  bytes(users[msg.sender].name).length */\n      dup1\n      sload\n      tag_295\n      swap1\n      tag_63\n      jump\t// in\n    tag_295:\n      swap1\n      pop\n        /* \"contracts/GiftCardETH.sol\":1173:1213  bytes(users[msg.sender].name).length > 0 */\n      gt\n        /* \"contracts/GiftCardETH.sol\":1152:1258  require(... */\n      tag_296\n      jumpi\n      mload(0x40)\n      0x08c379a000000000000000000000000000000000000000000000000000000000\n      dup2\n      mstore\n      0x04\n      add\n      tag_297\n      swap1\n      tag_79\n      jump\t// in\n    tag_297:\n      mload(0x40)\n      dup1\n      swap2\n      sub\n      swap1\n      revert\n    tag_296:\n        /* \"contracts/GiftCardETH.sol\":2696:2701  users */\n      0x00\n        /* \"contracts/GiftCardETH.sol\":2696:2713  users[msg.sender] */\n      dup1\n        /* \"contracts/GiftCardETH.sol\":2702:2712  msg.sender */\n      caller\n        /* \"contracts/GiftCardETH.sol\":2696:2713  users[msg.sender] */\n      0xffffffffffffffffffffffffffffffffffffffff\n      and\n      0xffffffffffffffffffffffffffffffffffffffff\n      and\n      dup2\n      mstore\n      0x20\n      add\n      swap1\n      dup2\n      mstore\n      0x20\n      add\n      0x00\n      keccak256\n        /* \"contracts/GiftCardETH.sol\":2689:2713  return users[msg.sender] */\n      mload(0x40)\n      dup1\n      0x60\n      add\n      0x40\n      mstore\n      swap1\n      dup2\n      0x00\n      dup3\n      add\n      dup1\n      sload\n      tag_299\n      swap1\n      tag_63\n      jump\t// in\n    tag_299:\n      dup1\n      0x1f\n      add\n      0x20\n      dup1\n      swap2\n      div\n      mul\n      0x20\n      add\n      mload(0x40)\n      swap1\n      dup2\n      add\n      0x40\n      mstore\n      dup1\n      swap3\n      swap2\n      swap1\n      dup2\n      dup2\n      mstore\n      0x20\n      add\n      dup3\n      dup1\n      sload\n      tag_300\n      swap1\n      tag_63\n      jump\t// in\n    tag_300:\n      dup1\n      iszero\n      tag_301\n      jumpi\n      dup1\n      0x1f\n      lt\n      tag_302\n      jumpi\n      0x0100\n      dup1\n      dup4\n      sload\n      div\n      mul\n      dup4\n      mstore\n      swap2\n      0x20\n      add\n      swap2\n      jump(tag_301)\n    tag_302:\n      dup3\n      add\n      swap2\n      swap1\n      0x00\n      mstore\n      keccak256(0x00, 0x20)\n      swap1\n    tag_303:\n      dup2\n      sload\n      dup2\n      mstore\n      swap1\n      0x01\n      add\n      swap1\n      0x20\n      add\n      dup1\n      dup4\n      gt\n      tag_303\n      jumpi\n      dup3\n      swap1\n      sub\n      0x1f\n      and\n      dup3\n      add\n      swap2\n    tag_301:\n      pop\n      pop\n      pop\n      pop\n      pop\n      dup2\n      mstore\n      0x20\n      add\n      0x01\n      dup3\n      add\n      0x00\n      swap1\n      sload\n      swap1\n      0x0100\n      exp\n      swap1\n      div\n      0xff\n      and\n      0x01\n      dup2\n      gt\n      iszero\n      tag_304\n      jumpi\n      tag_305\n      tag_67\n      jump\t// in\n    tag_305:\n    tag_304:\n      0x01\n      dup2\n      gt\n      iszero\n      tag_306\n      jumpi\n      tag_307\n      tag_67\n      jump\t// in\n    tag_307:\n    tag_306:\n      dup2\n      mstore\n      0x20\n      add\n      0x01\n      dup3\n      add\n      0x01\n      swap1\n      sload\n      swap1\n      0x0100\n      exp\n      swap1\n      div\n      0xff\n      and\n      0x01\n      dup2\n      gt\n      iszero\n      tag_308\n      jumpi\n      tag_309\n      tag_67\n      jump\t// in\n    tag_309:\n    tag_308:\n      0x01\n      dup2\n      gt\n      iszero\n      tag_310\n      jumpi\n      tag_311\n      tag_67\n      jump\t// in\n    tag_311:\n    tag_310:\n      dup2\n      mstore\n      pop\n      pop\n      swap1\n      pop\n        /* \"contracts/GiftCardETH.sol\":2604:2720  function getMyData() public registeredUsersOnly view returns (User memory) {... */\n      swap1\n      jump\t// out\n        /* \"contracts/GiftCardETH.sol\":3511:3858  function generateGiftCardCode() private view returns (string memory) {... */\n    tag_233:\n        /* \"contracts/GiftCardETH.sol\":3565:3578  string memory */\n      0x60\n        /* \"contracts/GiftCardETH.sol\":3590:3615  bytes memory randomString */\n      0x00\n        /* \"contracts/GiftCardETH.sol\":3628:3630  15 */\n      0x0f\n        /* \"contracts/GiftCardETH.sol\":3618:3631  new bytes(15) */\n      0xffffffffffffffff\n      dup2\n      gt\n      iszero\n      tag_313\n      jumpi\n      tag_314\n      tag_130\n      jump\t// in\n    tag_314:\n    tag_313:\n      mload(0x40)\n      swap1\n      dup1\n      dup3\n      mstore\n      dup1\n      0x1f\n      add\n      not(0x1f)\n      and\n      0x20\n      add\n      dup3\n      add\n      0x40\n      mstore\n      dup1\n      iszero\n      tag_315\n      jumpi\n      dup2\n      0x20\n      add\n      0x01\n      dup3\n      mul\n      dup1\n      calldatasize\n      dup4\n      calldatacopy\n      dup1\n      dup3\n      add\n      swap2\n      pop\n      pop\n      swap1\n      pop\n    tag_315:\n      pop\n        /* \"contracts/GiftCardETH.sol\":3590:3631  bytes memory randomString = new bytes(15) */\n      swap1\n      pop\n        /* \"contracts/GiftCardETH.sol\":3646:3655  uint256 i */\n      0x00\n        /* \"contracts/GiftCardETH.sol\":3641:3815  for (uint256 i = 0; i < 15; i++) {... */\n    tag_316:\n        /* \"contracts/GiftCardETH.sol\":3665:3667  15 */\n      0x0f\n        /* \"contracts/GiftCardETH.sol\":3661:3662  i */\n      dup2\n        /* \"contracts/GiftCardETH.sol\":3661:3667  i < 15 */\n      lt\n        /* \"contracts/GiftCardETH.sol\":3641:3815  for (uint256 i = 0; i < 15; i++) {... */\n      iszero\n      tag_317\n      jumpi\n        /* \"contracts/GiftCardETH.sol\":3688:3710  uint256 randomCharCode */\n      0x00\n        /* \"contracts/GiftCardETH.sol\":3713:3731  getRandomNumber(i) */\n      tag_319\n        /* \"contracts/GiftCardETH.sol\":3729:3730  i */\n      dup3\n        /* \"contracts/GiftCardETH.sol\":3713:3728  getRandomNumber */\n      tag_320\n        /* \"contracts/GiftCardETH.sol\":3713:3731  getRandomNumber(i) */\n      jump\t// in\n    tag_319:\n        /* \"contracts/GiftCardETH.sol\":3688:3731  uint256 randomCharCode = getRandomNumber(i) */\n      swap1\n      pop\n        /* \"contracts/GiftCardETH.sol\":3799:3801  26 */\n      0x1a\n        /* \"contracts/GiftCardETH.sol\":3782:3796  randomCharCode */\n      dup2\n        /* \"contracts/GiftCardETH.sol\":3782:3801  randomCharCode % 26 */\n      tag_321\n      swap2\n      swap1\n      tag_322\n      jump\t// in\n    tag_321:\n        /* \"contracts/GiftCardETH.sol\":3776:3778  97 */\n      0x61\n        /* \"contracts/GiftCardETH.sol\":3776:3802  97 + (randomCharCode % 26) */\n      tag_323\n      swap2\n      swap1\n      tag_231\n      jump\t// in\n    tag_323:\n        /* \"contracts/GiftCardETH.sol\":3763:3804  bytes1(uint8(97 + (randomCharCode % 26))) */\n      0xf8\n      shl\n        /* \"contracts/GiftCardETH.sol\":3745:3757  randomString */\n      dup4\n        /* \"contracts/GiftCardETH.sol\":3758:3759  i */\n      dup4\n        /* \"contracts/GiftCardETH.sol\":3745:3760  randomString[i] */\n      dup2\n      mload\n      dup2\n      lt\n      tag_324\n      jumpi\n      tag_325\n      tag_115\n      jump\t// in\n    tag_325:\n    tag_324:\n      0x20\n      add\n      add\n        /* \"contracts/GiftCardETH.sol\":3745:3804  randomString[i] = bytes1(uint8(97 + (randomCharCode % 26))) */\n      swap1\n      not(0xffffffffffffffffffffffffffffffffffffffffffffffffffffffffffffff)\n      and\n      swap1\n      dup2\n      0x00\n      byte\n      swap1\n      mstore8\n      pop\n        /* \"contracts/GiftCardETH.sol\":3674:3815  {... */\n      pop\n        /* \"contracts/GiftCardETH.sol\":3669:3672  i++ */\n      dup1\n      dup1\n      0x01\n      add\n      swap2\n      pop\n      pop\n        /* \"contracts/GiftCardETH.sol\":3641:3815  for (uint256 i = 0; i < 15; i++) {... */\n      jump(tag_316)\n    tag_317:\n      pop\n        /* \"contracts/GiftCardETH.sol\":3838:3850  randomString */\n      dup1\n        /* \"contracts/GiftCardETH.sol\":3824:3851  return string(randomString) */\n      swap2\n      pop\n      pop\n        /* \"contracts/GiftCardETH.sol\":3511:3858  function generateGiftCardCode() private view returns (string memory) {... */\n      swap1\n      jump\t// out\n        /* \"contracts/GiftCardETH.sol\":3863:4185  function addCard(string memory code, uint256 amount)... */\n    tag_235:\n        /* \"contracts/GiftCardETH.sol\":3964:3968  code */\n      dup2\n        /* \"contracts/GiftCardETH.sol\":1900:1912  bool isExist */\n      0x00\n        /* \"contracts/GiftCardETH.sol\":1935:1944  uint256 i */\n      dup1\n        /* \"contracts/GiftCardETH.sol\":1930:2209  for (uint256 i = 0; i < giftCardCodes.length; i++) {... */\n    tag_327:\n        /* \"contracts/GiftCardETH.sol\":1954:1967  giftCardCodes */\n      0x03\n        /* \"contracts/GiftCardETH.sol\":1954:1974  giftCardCodes.length */\n      dup1\n      sload\n      swap1\n      pop\n        /* \"contracts/GiftCardETH.sol\":1950:1951  i */\n      dup2\n        /* \"contracts/GiftCardETH.sol\":1950:1974  i < giftCardCodes.length */\n      lt\n        /* \"contracts/GiftCardETH.sol\":1930:2209  for (uint256 i = 0; i < giftCardCodes.length; i++) {... */\n      iszero\n      tag_328\n      jumpi\n        /* \"contracts/GiftCardETH.sol\":2108:2112  code */\n      dup3\n        /* \"contracts/GiftCardETH.sol\":2091:2113  abi.encodePacked(code) */\n      add(0x20, mload(0x40))\n      tag_330\n      swap2\n      swap1\n      tag_69\n      jump\t// in\n    tag_330:\n      mload(0x40)\n      0x20\n      dup2\n      dup4\n      sub\n      sub\n      dup2\n      mstore\n      swap1\n      0x40\n      mstore\n        /* \"contracts/GiftCardETH.sol\":2081:2114  keccak256(abi.encodePacked(code)) */\n      dup1\n      mload\n      swap1\n      0x20\n      add\n      keccak256\n        /* \"contracts/GiftCardETH.sol\":2043:2056  giftCardCodes */\n      0x03\n        /* \"contracts/GiftCardETH.sol\":2057:2058  i */\n      dup3\n        /* \"contracts/GiftCardETH.sol\":2043:2059  giftCardCodes[i] */\n      dup2\n      sload\n      dup2\n      lt\n      tag_331\n      jumpi\n      tag_332\n      tag_115\n      jump\t// in\n    tag_332:\n    tag_331:\n      swap1\n      0x00\n      mstore\n      keccak256(0x00, 0x20)\n      add\n        /* \"contracts/GiftCardETH.sol\":2026:2060  abi.encodePacked(giftCardCodes[i]) */\n      add(0x20, mload(0x40))\n      tag_334\n      swap2\n      swap1\n      tag_109\n      jump\t// in\n    tag_334:\n      mload(0x40)\n      0x20\n      dup2\n      dup4\n      sub\n      sub\n      dup2\n      mstore\n      swap1\n      0x40\n      mstore\n        /* \"contracts/GiftCardETH.sol\":2016:2061  keccak256(abi.encodePacked(giftCardCodes[i])) */\n      dup1\n      mload\n      swap1\n      0x20\n      add\n      keccak256\n        /* \"contracts/GiftCardETH.sol\":2016:2114  keccak256(abi.encodePacked(giftCardCodes[i])) ==... */\n      sub\n        /* \"contracts/GiftCardETH.sol\":1995:2199  if (... */\n      tag_335\n      jumpi\n        /* \"contracts/GiftCardETH.sol\":2157:2161  true */\n      0x01\n        /* \"contracts/GiftCardETH.sol\":2147:2161  isExist = true */\n      swap2\n      pop\n        /* \"contracts/GiftCardETH.sol\":2179:2184  break */\n      jump(tag_328)\n        /* \"contracts/GiftCardETH.sol\":1995:2199  if (... */\n    tag_335:\n        /* \"contracts/GiftCardETH.sol\":1976:1979  i++ */\n      dup1\n      dup1\n      0x01\n      add\n      swap2\n      pop\n      pop\n        /* \"contracts/GiftCardETH.sol\":1930:2209  for (uint256 i = 0; i < giftCardCodes.length; i++) {... */\n      jump(tag_327)\n    tag_328:\n      pop\n        /* \"contracts/GiftCardETH.sol\":2227:2234  isExist */\n      dup1\n        /* \"contracts/GiftCardETH.sol\":2226:2234  !isExist */\n      iszero\n        /* \"contracts/GiftCardETH.sol\":2218:2257  require(!isExist, \"Code is Not Unique\") */\n      tag_336\n      jumpi\n      mload(0x40)\n      0x08c379a000000000000000000000000000000000000000000000000000000000\n      dup2\n      mstore\n      0x04\n      add\n      tag_337\n      swap1\n      tag_338\n      jump\t// in\n    tag_337:\n      mload(0x40)\n      dup1\n      swap2\n      sub\n      swap1\n      revert\n    tag_336:\n        /* \"contracts/GiftCardETH.sol\":3984:3997  giftCardCodes */\n      0x03\n        /* \"contracts/GiftCardETH.sol\":4003:4007  code */\n      dup5\n        /* \"contracts/GiftCardETH.sol\":3984:4008  giftCardCodes.push(code) */\n      swap1\n      dup1\n      0x01\n      dup2\n      sload\n      add\n      dup1\n      dup3\n      sstore\n      dup1\n      swap2\n      pop\n      pop\n      0x01\n      swap1\n      sub\n      swap1\n      0x00\n      mstore\n      keccak256(0x00, 0x20)\n      add\n      0x00\n      swap1\n      swap2\n      swap1\n      swap2\n      swap1\n      swap2\n      pop\n      swap1\n      dup2\n      tag_341\n      swap2\n      swap1\n      tag_214\n      jump\t// in\n    tag_341:\n      pop\n        /* \"contracts/GiftCardETH.sol\":4036:4178  GiftCard(... */\n      mload(0x40)\n      dup1\n      0xa0\n      add\n      0x40\n      mstore\n      dup1\n        /* \"contracts/GiftCardETH.sol\":4058:4062  code */\n      dup6\n        /* \"contracts/GiftCardETH.sol\":4036:4178  GiftCard(... */\n      dup2\n      mstore\n      0x20\n      add\n        /* \"contracts/GiftCardETH.sol\":4076:4081  users */\n      0x00\n        /* \"contracts/GiftCardETH.sol\":4076:4093  users[msg.sender] */\n      dup1\n        /* \"contracts/GiftCardETH.sol\":4082:4092  msg.sender */\n      caller\n        /* \"contracts/GiftCardETH.sol\":4076:4093  users[msg.sender] */\n      0xffffffffffffffffffffffffffffffffffffffff\n      and\n      0xffffffffffffffffffffffffffffffffffffffff\n      and\n      dup2\n      mstore\n      0x20\n      add\n      swap1\n      dup2\n      mstore\n      0x20\n      add\n      0x00\n      keccak256\n        /* \"contracts/GiftCardETH.sol\":4076:4098  users[msg.sender].name */\n      0x00\n      add\n        /* \"contracts/GiftCardETH.sol\":4036:4178  GiftCard(... */\n      dup1\n      sload\n      tag_342\n      swap1\n      tag_63\n      jump\t// in\n    tag_342:\n      dup1\n      0x1f\n      add\n      0x20\n      dup1\n      swap2\n      div\n      mul\n      0x20\n      add\n      mload(0x40)\n      swap1\n      dup2\n      add\n      0x40\n      mstore\n      dup1\n      swap3\n      swap2\n      swap1\n      dup2\n      dup2\n      mstore\n      0x20\n      add\n      dup3\n      dup1\n      sload\n      tag_343\n      swap1\n      tag_63\n      jump\t// in\n    tag_343:\n      dup1\n      iszero\n      tag_344\n      jumpi\n      dup1\n      0x1f\n      lt\n      tag_345\n      jumpi\n      0x0100\n      dup1\n      dup4\n      sload\n      div\n      mul\n      dup4\n      mstore\n      swap2\n      0x20\n      add\n      swap2\n      jump(tag_344)\n    tag_345:\n      dup3\n      add\n      swap2\n      swap1\n      0x00\n      mstore\n      keccak256(0x00, 0x20)\n      swap1\n    tag_346:\n      dup2\n      sload\n      dup2\n      mstore\n      swap1\n      0x01\n      add\n      swap1\n      0x20\n      add\n      dup1\n      dup4\n      gt\n      tag_346\n      jumpi\n      dup3\n      swap1\n      sub\n      0x1f\n      and\n      dup3\n      add\n      swap2\n    tag_344:\n      pop\n      pop\n      pop\n      pop\n      pop\n      dup2\n      mstore\n      0x20\n      add\n        /* \"contracts/GiftCardETH.sol\":4112:4118  amount */\n      dup5\n        /* \"contracts/GiftCardETH.sol\":4036:4178  GiftCard(... */\n      dup2\n      mstore\n      0x20\n      add\n        /* \"contracts/GiftCardETH.sol\":4132:4152  GiftCardStatus.VALID */\n      0x01\n        /* \"contracts/GiftCardETH.sol\":4036:4178  GiftCard(... */\n      dup1\n      dup2\n      gt\n      iszero\n      tag_347\n      jumpi\n      tag_348\n      tag_67\n      jump\t// in\n    tag_348:\n    tag_347:\n      dup2\n      mstore\n      0x20\n      add\n      mload(0x40)\n      dup1\n      0x20\n      add\n      0x40\n      mstore\n      dup1\n      0x00\n      dup2\n      mstore\n      pop\n      dup2\n      mstore\n      pop\n        /* \"contracts/GiftCardETH.sol\":4018:4027  giftCards */\n      0x01\n        /* \"contracts/GiftCardETH.sol\":4028:4032  code */\n      dup6\n        /* \"contracts/GiftCardETH.sol\":4018:4033  giftCards[code] */\n      mload(0x40)\n      tag_349\n      swap2\n      swap1\n      tag_69\n      jump\t// in\n    tag_349:\n      swap1\n      dup2\n      mstore\n      0x20\n      add\n      mload(0x40)\n      dup1\n      swap2\n      sub\n      swap1\n      keccak256\n        /* \"contracts/GiftCardETH.sol\":4018:4178  giftCards[code] = GiftCard(... */\n      0x00\n      dup3\n      add\n      mload\n      dup2\n      0x00\n      add\n      swap1\n      dup2\n      tag_350\n      swap2\n      swap1\n      tag_214\n      jump\t// in\n    tag_350:\n      pop\n      0x20\n      dup3\n      add\n      mload\n      dup2\n      0x01\n      add\n      swap1\n      dup2\n      tag_351\n      swap2\n      swap1\n      tag_214\n      jump\t// in\n    tag_351:\n      pop\n      0x40\n      dup3\n      add\n      mload\n      dup2\n      0x02\n      add\n      sstore\n      0x60\n      dup3\n      add\n      mload\n      dup2\n      0x03\n      add\n      exp(0x0100, 0x00)\n      dup2\n      sload\n      dup2\n      0xff\n      mul\n      not\n      and\n      swap1\n      dup4\n      0x01\n      dup2\n      gt\n      iszero\n      tag_352\n      jumpi\n      tag_353\n      tag_67\n      jump\t// in\n    tag_353:\n    tag_352:\n      mul\n      or\n      swap1\n      sstore\n      pop\n      0x80\n      dup3\n      add\n      mload\n      dup2\n      0x04\n      add\n      swap1\n      dup2\n      tag_354\n      swap2\n      swap1\n      tag_214\n      jump\t// in\n    tag_354:\n      pop\n      swap1\n      pop\n      pop\n        /* \"contracts/GiftCardETH.sol\":1890:2275  {... */\n      pop\n        /* \"contracts/GiftCardETH.sol\":3863:4185  function addCard(string memory code, uint256 amount)... */\n      pop\n      pop\n      pop\n      jump\t// out\n        /* \"contracts/GiftCardETH.sol\":3247:3506  function getRandomNumber(uint256 seed) private view returns (uint256) {... */\n    tag_320:\n        /* \"contracts/GiftCardETH.sol\":3308:3315  uint256 */\n      0x00\n        /* \"contracts/GiftCardETH.sol\":3494:3499  10000 */\n      0x2710\n        /* \"contracts/GiftCardETH.sol\":3419:3434  block.timestamp */\n      timestamp\n        /* \"contracts/GiftCardETH.sol\":3436:3452  block.prevrandao */\n      prevrandao\n        /* \"contracts/GiftCardETH.sol\":3454:3458  seed */\n      dup5\n        /* \"contracts/GiftCardETH.sol\":3402:3459  abi.encodePacked(block.timestamp, block.prevrandao, seed) */\n      add(0x20, mload(0x40))\n      tag_356\n      swap4\n      swap3\n      swap2\n      swap1\n      tag_357\n      jump\t// in\n    tag_356:\n      mload(0x40)\n      0x20\n      dup2\n      dup4\n      sub\n      sub\n      dup2\n      mstore\n      swap1\n      0x40\n      mstore\n        /* \"contracts/GiftCardETH.sol\":3371:3477  keccak256(... */\n      dup1\n      mload\n      swap1\n      0x20\n      add\n      keccak256\n        /* \"contracts/GiftCardETH.sol\":3346:3491  uint256(... */\n      0x00\n      shr\n        /* \"contracts/GiftCardETH.sol\":3346:3499  uint256(... */\n      tag_358\n      swap2\n      swap1\n      tag_322\n      jump\t// in\n    tag_358:\n        /* \"contracts/GiftCardETH.sol\":3327:3499  return... */\n      swap1\n      pop\n        /* \"contracts/GiftCardETH.sol\":3247:3506  function getRandomNumber(uint256 seed) private view returns (uint256) {... */\n      swap2\n      swap1\n      pop\n      jump\t// out\n    tag_134:\n      mload(0x40)\n      dup1\n      0xa0\n      add\n      0x40\n      mstore\n      dup1\n      0x60\n      dup2\n      mstore\n      0x20\n      add\n      0x60\n      dup2\n      mstore\n      0x20\n      add\n      0x00\n      dup2\n      mstore\n      0x20\n      add\n      0x00\n      0x01\n      dup2\n      gt\n      iszero\n      tag_359\n      jumpi\n      tag_360\n      tag_67\n      jump\t// in\n    tag_360:\n    tag_359:\n      dup2\n      mstore\n      0x20\n      add\n      0x60\n      dup2\n      mstore\n      pop\n      swap1\n      jump\t// out\n    tag_293:\n      mload(0x40)\n      dup1\n      0x60\n      add\n      0x40\n      mstore\n      dup1\n      0x60\n      dup2\n      mstore\n      0x20\n      add\n      0x00\n      0x01\n      dup2\n      gt\n      iszero\n      tag_361\n      jumpi\n      tag_362\n      tag_67\n      jump\t// in\n    tag_362:\n    tag_361:\n      dup2\n      mstore\n      0x20\n      add\n      0x00\n      0x01\n      dup2\n      gt\n      iszero\n      tag_363\n      jumpi\n      tag_364\n      tag_67\n      jump\t// in\n    tag_364:\n    tag_363:\n      dup2\n      mstore\n      pop\n      swap1\n      jump\t// out\n        /* \"#utility.yul\":7:97   */\n    tag_365:\n        /* \"#utility.yul\":41:48   */\n      0x00\n        /* \"#utility.yul\":84:89   */\n      dup2\n        /* \"#utility.yul\":77:90   */\n      iszero\n        /* \"#utility.yul\":70:91   */\n      iszero\n        /* \"#utility.yul\":59:91   */\n      swap1\n      pop\n        /* \"#utility.yul\":7:97   */\n      swap2\n      swap1\n      pop\n      jump\t// out\n        /* \"#utility.yul\":103:212   */\n    tag_366:\n        /* \"#utility.yul\":184:205   */\n      tag_453\n        /* \"#utility.yul\":199:204   */\n      dup2\n        /* \"#utility.yul\":184:205   */\n      tag_365\n      jump\t// in\n    tag_453:\n        /* \"#utility.yul\":179:182   */\n      dup3\n        /* \"#utility.yul\":172:206   */\n      mstore\n        /* \"#utility.yul\":103:212   */\n      pop\n      pop\n      jump\t// out\n        /* \"#utility.yul\":218:428   */\n    tag_22:\n        /* \"#utility.yul\":305:309   */\n      0x00\n        /* \"#utility.yul\":343:345   */\n      0x20\n        /* \"#utility.yul\":332:341   */\n      dup3\n        /* \"#utility.yul\":328:346   */\n      add\n        /* \"#utility.yul\":320:346   */\n      swap1\n      pop\n        /* \"#utility.yul\":356:421   */\n      tag_455\n        /* \"#utility.yul\":418:419   */\n      0x00\n        /* \"#utility.yul\":407:416   */\n      dup4\n        /* \"#utility.yul\":403:420   */\n      add\n        /* \"#utility.yul\":394:400   */\n      dup5\n        /* \"#utility.yul\":356:421   */\n      tag_366\n      jump\t// in\n    tag_455:\n        /* \"#utility.yul\":218:428   */\n      swap3\n      swap2\n      pop\n      pop\n      jump\t// out\n        /* \"#utility.yul\":515:632   */\n    tag_368:\n        /* \"#utility.yul\":624:625   */\n      0x00\n        /* \"#utility.yul\":621:622   */\n      dup1\n        /* \"#utility.yul\":614:626   */\n      revert\n        /* \"#utility.yul\":638:755   */\n    tag_369:\n        /* \"#utility.yul\":747:748   */\n      0x00\n        /* \"#utility.yul\":744:745   */\n      dup1\n        /* \"#utility.yul\":737:749   */\n      revert\n        /* \"#utility.yul\":761:878   */\n    tag_370:\n        /* \"#utility.yul\":870:871   */\n      0x00\n        /* \"#utility.yul\":867:868   */\n      dup1\n        /* \"#utility.yul\":860:872   */\n      revert\n        /* \"#utility.yul\":884:1001   */\n    tag_371:\n        /* \"#utility.yul\":993:994   */\n      0x00\n        /* \"#utility.yul\":990:991   */\n      dup1\n        /* \"#utility.yul\":983:995   */\n      revert\n        /* \"#utility.yul\":1007:1124   */\n    tag_372:\n        /* \"#utility.yul\":1116:1117   */\n      0x00\n        /* \"#utility.yul\":1113:1114   */\n      dup1\n        /* \"#utility.yul\":1106:1118   */\n      revert\n        /* \"#utility.yul\":1144:1697   */\n    tag_373:\n        /* \"#utility.yul\":1202:1210   */\n      0x00\n        /* \"#utility.yul\":1212:1218   */\n      dup1\n        /* \"#utility.yul\":1262:1265   */\n      dup4\n        /* \"#utility.yul\":1255:1259   */\n      0x1f\n        /* \"#utility.yul\":1247:1253   */\n      dup5\n        /* \"#utility.yul\":1243:1260   */\n      add\n        /* \"#utility.yul\":1239:1266   */\n      slt\n        /* \"#utility.yul\":1229:1351   */\n      tag_463\n      jumpi\n        /* \"#utility.yul\":1270:1349   */\n      tag_464\n      tag_370\n      jump\t// in\n    tag_464:\n        /* \"#utility.yul\":1229:1351   */\n    tag_463:\n        /* \"#utility.yul\":1383:1389   */\n      dup3\n        /* \"#utility.yul\":1370:1390   */\n      calldataload\n        /* \"#utility.yul\":1360:1390   */\n      swap1\n      pop\n        /* \"#utility.yul\":1413:1431   */\n      0xffffffffffffffff\n        /* \"#utility.yul\":1405:1411   */\n      dup2\n        /* \"#utility.yul\":1402:1432   */\n      gt\n        /* \"#utility.yul\":1399:1516   */\n      iszero\n      tag_465\n      jumpi\n        /* \"#utility.yul\":1435:1514   */\n      tag_466\n      tag_371\n      jump\t// in\n    tag_466:\n        /* \"#utility.yul\":1399:1516   */\n    tag_465:\n        /* \"#utility.yul\":1549:1553   */\n      0x20\n        /* \"#utility.yul\":1541:1547   */\n      dup4\n        /* \"#utility.yul\":1537:1554   */\n      add\n        /* \"#utility.yul\":1525:1554   */\n      swap2\n      pop\n        /* \"#utility.yul\":1603:1606   */\n      dup4\n        /* \"#utility.yul\":1595:1599   */\n      0x01\n        /* \"#utility.yul\":1587:1593   */\n      dup3\n        /* \"#utility.yul\":1583:1600   */\n      mul\n        /* \"#utility.yul\":1573:1581   */\n      dup4\n        /* \"#utility.yul\":1569:1601   */\n      add\n        /* \"#utility.yul\":1566:1607   */\n      gt\n        /* \"#utility.yul\":1563:1691   */\n      iszero\n      tag_467\n      jumpi\n        /* \"#utility.yul\":1610:1689   */\n      tag_468\n      tag_372\n      jump\t// in\n    tag_468:\n        /* \"#utility.yul\":1563:1691   */\n    tag_467:\n        /* \"#utility.yul\":1144:1697   */\n      swap3\n      pop\n      swap3\n      swap1\n      pop\n      jump\t// out\n        /* \"#utility.yul\":1703:2232   */\n    tag_26:\n        /* \"#utility.yul\":1774:1780   */\n      0x00\n        /* \"#utility.yul\":1782:1788   */\n      dup1\n        /* \"#utility.yul\":1831:1833   */\n      0x20\n        /* \"#utility.yul\":1819:1828   */\n      dup4\n        /* \"#utility.yul\":1810:1817   */\n      dup6\n        /* \"#utility.yul\":1806:1829   */\n      sub\n        /* \"#utility.yul\":1802:1834   */\n      slt\n        /* \"#utility.yul\":1799:1918   */\n      iszero\n      tag_470\n      jumpi\n        /* \"#utility.yul\":1837:1916   */\n      tag_471\n      tag_368\n      jump\t// in\n    tag_471:\n        /* \"#utility.yul\":1799:1918   */\n    tag_470:\n        /* \"#utility.yul\":1985:1986   */\n      0x00\n        /* \"#utility.yul\":1974:1983   */\n      dup4\n        /* \"#utility.yul\":1970:1987   */\n      add\n        /* \"#utility.yul\":1957:1988   */\n      calldataload\n        /* \"#utility.yul\":2015:2033   */\n      0xffffffffffffffff\n        /* \"#utility.yul\":2007:2013   */\n      dup2\n        /* \"#utility.yul\":2004:2034   */\n      gt\n        /* \"#utility.yul\":2001:2118   */\n      iszero\n      tag_472\n      jumpi\n        /* \"#utility.yul\":2037:2116   */\n      tag_473\n      tag_369\n      jump\t// in\n    tag_473:\n        /* \"#utility.yul\":2001:2118   */\n    tag_472:\n        /* \"#utility.yul\":2150:2215   */\n      tag_474\n        /* \"#utility.yul\":2207:2214   */\n      dup6\n        /* \"#utility.yul\":2198:2204   */\n      dup3\n        /* \"#utility.yul\":2187:2196   */\n      dup7\n        /* \"#utility.yul\":2183:2205   */\n      add\n        /* \"#utility.yul\":2150:2215   */\n      tag_373\n      jump\t// in\n    tag_474:\n        /* \"#utility.yul\":2132:2215   */\n      swap3\n      pop\n      swap3\n      pop\n        /* \"#utility.yul\":1928:2225   */\n      pop\n        /* \"#utility.yul\":1703:2232   */\n      swap3\n      pop\n      swap3\n      swap1\n      pop\n      jump\t// out\n        /* \"#utility.yul\":2238:2376   */\n    tag_374:\n        /* \"#utility.yul\":2329:2335   */\n      0x00\n        /* \"#utility.yul\":2363:2368   */\n      dup2\n        /* \"#utility.yul\":2357:2369   */\n      mload\n        /* \"#utility.yul\":2347:2369   */\n      swap1\n      pop\n        /* \"#utility.yul\":2238:2376   */\n      swap2\n      swap1\n      pop\n      jump\t// out\n        /* \"#utility.yul\":2382:2590   */\n    tag_375:\n        /* \"#utility.yul\":2505:2516   */\n      0x00\n        /* \"#utility.yul\":2539:2545   */\n      dup3\n        /* \"#utility.yul\":2534:2537   */\n      dup3\n        /* \"#utility.yul\":2527:2546   */\n      mstore\n        /* \"#utility.yul\":2579:2583   */\n      0x20\n        /* \"#utility.yul\":2574:2577   */\n      dup3\n        /* \"#utility.yul\":2570:2584   */\n      add\n        /* \"#utility.yul\":2555:2584   */\n      swap1\n      pop\n        /* \"#utility.yul\":2382:2590   */\n      swap3\n      swap2\n      pop\n      pop\n      jump\t// out\n        /* \"#utility.yul\":2596:2752   */\n    tag_376:\n        /* \"#utility.yul\":2687:2691   */\n      0x00\n        /* \"#utility.yul\":2710:2713   */\n      dup2\n        /* \"#utility.yul\":2702:2713   */\n      swap1\n      pop\n        /* \"#utility.yul\":2740:2744   */\n      0x20\n        /* \"#utility.yul\":2735:2738   */\n      dup3\n        /* \"#utility.yul\":2731:2745   */\n      add\n        /* \"#utility.yul\":2723:2745   */\n      swap1\n      pop\n        /* \"#utility.yul\":2596:2752   */\n      swap2\n      swap1\n      pop\n      jump\t// out\n        /* \"#utility.yul\":2758:2857   */\n    tag_377:\n        /* \"#utility.yul\":2810:2816   */\n      0x00\n        /* \"#utility.yul\":2844:2849   */\n      dup2\n        /* \"#utility.yul\":2838:2850   */\n      mload\n        /* \"#utility.yul\":2828:2850   */\n      swap1\n      pop\n        /* \"#utility.yul\":2758:2857   */\n      swap2\n      swap1\n      pop\n      jump\t// out\n        /* \"#utility.yul\":2863:3022   */\n    tag_378:\n        /* \"#utility.yul\":2937:2948   */\n      0x00\n        /* \"#utility.yul\":2971:2977   */\n      dup3\n        /* \"#utility.yul\":2966:2969   */\n      dup3\n        /* \"#utility.yul\":2959:2978   */\n      mstore\n        /* \"#utility.yul\":3011:3015   */\n      0x20\n        /* \"#utility.yul\":3006:3009   */\n      dup3\n        /* \"#utility.yul\":3002:3016   */\n      add\n        /* \"#utility.yul\":2987:3016   */\n      swap1\n      pop\n        /* \"#utility.yul\":2863:3022   */\n      swap3\n      swap2\n      pop\n      pop\n      jump\t// out\n        /* \"#utility.yul\":3028:3167   */\n    tag_379:\n        /* \"#utility.yul\":3117:3123   */\n      dup3\n        /* \"#utility.yul\":3112:3115   */\n      dup2\n        /* \"#utility.yul\":3107:3110   */\n      dup4\n        /* \"#utility.yul\":3101:3124   */\n      mcopy\n        /* \"#utility.yul\":3158:3159   */\n      0x00\n        /* \"#utility.yul\":3149:3155   */\n      dup4\n        /* \"#utility.yul\":3144:3147   */\n      dup4\n        /* \"#utility.yul\":3140:3156   */\n      add\n        /* \"#utility.yul\":3133:3160   */\n      mstore\n        /* \"#utility.yul\":3028:3167   */\n      pop\n      pop\n      pop\n      jump\t// out\n        /* \"#utility.yul\":3173:3275   */\n    tag_380:\n        /* \"#utility.yul\":3214:3220   */\n      0x00\n        /* \"#utility.yul\":3265:3267   */\n      0x1f\n        /* \"#utility.yul\":3261:3268   */\n      not\n        /* \"#utility.yul\":3256:3258   */\n      0x1f\n        /* \"#utility.yul\":3249:3254   */\n      dup4\n        /* \"#utility.yul\":3245:3259   */\n      add\n        /* \"#utility.yul\":3241:3269   */\n      and\n        /* \"#utility.yul\":3231:3269   */\n      swap1\n      pop\n        /* \"#utility.yul\":3173:3275   */\n      swap2\n      swap1\n      pop\n      jump\t// out\n        /* \"#utility.yul\":3281:3638   */\n    tag_381:\n        /* \"#utility.yul\":3359:3362   */\n      0x00\n        /* \"#utility.yul\":3387:3426   */\n      tag_483\n        /* \"#utility.yul\":3420:3425   */\n      dup3\n        /* \"#utility.yul\":3387:3426   */\n      tag_377\n      jump\t// in\n    tag_483:\n        /* \"#utility.yul\":3442:3503   */\n      tag_484\n        /* \"#utility.yul\":3496:3502   */\n      dup2\n        /* \"#utility.yul\":3491:3494   */\n      dup6\n        /* \"#utility.yul\":3442:3503   */\n      tag_378\n      jump\t// in\n    tag_484:\n        /* \"#utility.yul\":3435:3503   */\n      swap4\n      pop\n        /* \"#utility.yul\":3512:3577   */\n      tag_485\n        /* \"#utility.yul\":3570:3576   */\n      dup2\n        /* \"#utility.yul\":3565:3568   */\n      dup6\n        /* \"#utility.yul\":3558:3562   */\n      0x20\n        /* \"#utility.yul\":3551:3556   */\n      dup7\n        /* \"#utility.yul\":3547:3563   */\n      add\n        /* \"#utility.yul\":3512:3577   */\n      tag_379\n      jump\t// in\n    tag_485:\n        /* \"#utility.yul\":3602:3631   */\n      tag_486\n        /* \"#utility.yul\":3624:3630   */\n      dup2\n        /* \"#utility.yul\":3602:3631   */\n      tag_380\n      jump\t// in\n    tag_486:\n        /* \"#utility.yul\":3597:3600   */\n      dup5\n        /* \"#utility.yul\":3593:3632   */\n      add\n        /* \"#utility.yul\":3586:3632   */\n      swap2\n      pop\n        /* \"#utility.yul\":3363:3638   */\n      pop\n        /* \"#utility.yul\":3281:3638   */\n      swap3\n      swap2\n      pop\n      pop\n      jump\t// out\n        /* \"#utility.yul\":3644:3721   */\n    tag_382:\n        /* \"#utility.yul\":3681:3688   */\n      0x00\n        /* \"#utility.yul\":3710:3715   */\n      dup2\n        /* \"#utility.yul\":3699:3715   */\n      swap1\n      pop\n        /* \"#utility.yul\":3644:3721   */\n      swap2\n      swap1\n      pop\n      jump\t// out\n        /* \"#utility.yul\":3727:3835   */\n    tag_383:\n        /* \"#utility.yul\":3804:3828   */\n      tag_489\n        /* \"#utility.yul\":3822:3827   */\n      dup2\n        /* \"#utility.yul\":3804:3828   */\n      tag_382\n      jump\t// in\n    tag_489:\n        /* \"#utility.yul\":3799:3802   */\n      dup3\n        /* \"#utility.yul\":3792:3829   */\n      mstore\n        /* \"#utility.yul\":3727:3835   */\n      pop\n      pop\n      jump\t// out\n        /* \"#utility.yul\":3841:4021   */\n    tag_67:\n        /* \"#utility.yul\":3889:3966   */\n      0x4e487b7100000000000000000000000000000000000000000000000000000000\n        /* \"#utility.yul\":3886:3887   */\n      0x00\n        /* \"#utility.yul\":3879:3967   */\n      mstore\n        /* \"#utility.yul\":3986:3990   */\n      0x21\n        /* \"#utility.yul\":3983:3984   */\n      0x04\n        /* \"#utility.yul\":3976:3991   */\n      mstore\n        /* \"#utility.yul\":4010:4014   */\n      0x24\n        /* \"#utility.yul\":4007:4008   */\n      0x00\n        /* \"#utility.yul\":4000:4015   */\n      revert\n        /* \"#utility.yul\":4027:4148   */\n    tag_384:\n        /* \"#utility.yul\":4116:4117   */\n      0x02\n        /* \"#utility.yul\":4109:4114   */\n      dup2\n        /* \"#utility.yul\":4106:4118   */\n      lt\n        /* \"#utility.yul\":4096:4142   */\n      tag_492\n      jumpi\n        /* \"#utility.yul\":4122:4140   */\n      tag_493\n      tag_67\n      jump\t// in\n    tag_493:\n        /* \"#utility.yul\":4096:4142   */\n    tag_492:\n        /* \"#utility.yul\":4027:4148   */\n      pop\n      jump\t// out\n        /* \"#utility.yul\":4154:4297   */\n    tag_385:\n        /* \"#utility.yul\":4207:4214   */\n      0x00\n        /* \"#utility.yul\":4236:4241   */\n      dup2\n        /* \"#utility.yul\":4225:4241   */\n      swap1\n      pop\n        /* \"#utility.yul\":4242:4291   */\n      tag_495\n        /* \"#utility.yul\":4285:4290   */\n      dup3\n        /* \"#utility.yul\":4242:4291   */\n      tag_384\n      jump\t// in\n    tag_495:\n        /* \"#utility.yul\":4154:4297   */\n      swap2\n      swap1\n      pop\n      jump\t// out\n        /* \"#utility.yul\":4303:4446   */\n    tag_386:\n        /* \"#utility.yul\":4367:4376   */\n      0x00\n        /* \"#utility.yul\":4400:4440   */\n      tag_497\n        /* \"#utility.yul\":4434:4439   */\n      dup3\n        /* \"#utility.yul\":4400:4440   */\n      tag_385\n      jump\t// in\n    tag_497:\n        /* \"#utility.yul\":4387:4440   */\n      swap1\n      pop\n        /* \"#utility.yul\":4303:4446   */\n      swap2\n      swap1\n      pop\n      jump\t// out\n        /* \"#utility.yul\":4452:4601   */\n    tag_387:\n        /* \"#utility.yul\":4543:4594   */\n      tag_499\n        /* \"#utility.yul\":4588:4593   */\n      dup2\n        /* \"#utility.yul\":4543:4594   */\n      tag_386\n      jump\t// in\n    tag_499:\n        /* \"#utility.yul\":4538:4541   */\n      dup3\n        /* \"#utility.yul\":4531:4595   */\n      mstore\n        /* \"#utility.yul\":4452:4601   */\n      pop\n      pop\n      jump\t// out\n        /* \"#utility.yul\":4649:5936   */\n    tag_388:\n        /* \"#utility.yul\":4756:4759   */\n      0x00\n        /* \"#utility.yul\":4792:4796   */\n      0xa0\n        /* \"#utility.yul\":4787:4790   */\n      dup4\n        /* \"#utility.yul\":4783:4797   */\n      add\n        /* \"#utility.yul\":4879:4883   */\n      0x00\n        /* \"#utility.yul\":4872:4877   */\n      dup4\n        /* \"#utility.yul\":4868:4884   */\n      add\n        /* \"#utility.yul\":4862:4885   */\n      mload\n        /* \"#utility.yul\":4932:4935   */\n      dup5\n        /* \"#utility.yul\":4926:4930   */\n      dup3\n        /* \"#utility.yul\":4922:4936   */\n      sub\n        /* \"#utility.yul\":4915:4919   */\n      0x00\n        /* \"#utility.yul\":4910:4913   */\n      dup7\n        /* \"#utility.yul\":4906:4920   */\n      add\n        /* \"#utility.yul\":4899:4937   */\n      mstore\n        /* \"#utility.yul\":4958:5031   */\n      tag_501\n        /* \"#utility.yul\":5026:5030   */\n      dup3\n        /* \"#utility.yul\":5012:5024   */\n      dup3\n        /* \"#utility.yul\":4958:5031   */\n      tag_381\n      jump\t// in\n    tag_501:\n        /* \"#utility.yul\":4950:5031   */\n      swap2\n      pop\n        /* \"#utility.yul\":4807:5042   */\n      pop\n        /* \"#utility.yul\":5125:5129   */\n      0x20\n        /* \"#utility.yul\":5118:5123   */\n      dup4\n        /* \"#utility.yul\":5114:5130   */\n      add\n        /* \"#utility.yul\":5108:5131   */\n      mload\n        /* \"#utility.yul\":5178:5181   */\n      dup5\n        /* \"#utility.yul\":5172:5176   */\n      dup3\n        /* \"#utility.yul\":5168:5182   */\n      sub\n        /* \"#utility.yul\":5161:5165   */\n      0x20\n        /* \"#utility.yul\":5156:5159   */\n      dup7\n        /* \"#utility.yul\":5152:5166   */\n      add\n        /* \"#utility.yul\":5145:5183   */\n      mstore\n        /* \"#utility.yul\":5204:5277   */\n      tag_502\n        /* \"#utility.yul\":5272:5276   */\n      dup3\n        /* \"#utility.yul\":5258:5270   */\n      dup3\n        /* \"#utility.yul\":5204:5277   */\n      tag_381\n      jump\t// in\n    tag_502:\n        /* \"#utility.yul\":5196:5277   */\n      swap2\n      pop\n        /* \"#utility.yul\":5052:5288   */\n      pop\n        /* \"#utility.yul\":5372:5376   */\n      0x40\n        /* \"#utility.yul\":5365:5370   */\n      dup4\n        /* \"#utility.yul\":5361:5377   */\n      add\n        /* \"#utility.yul\":5355:5378   */\n      mload\n        /* \"#utility.yul\":5391:5454   */\n      tag_503\n        /* \"#utility.yul\":5448:5452   */\n      0x40\n        /* \"#utility.yul\":5443:5446   */\n      dup7\n        /* \"#utility.yul\":5439:5453   */\n      add\n        /* \"#utility.yul\":5425:5437   */\n      dup3\n        /* \"#utility.yul\":5391:5454   */\n      tag_383\n      jump\t// in\n    tag_503:\n        /* \"#utility.yul\":5298:5464   */\n      pop\n        /* \"#utility.yul\":5556:5560   */\n      0x60\n        /* \"#utility.yul\":5549:5554   */\n      dup4\n        /* \"#utility.yul\":5545:5561   */\n      add\n        /* \"#utility.yul\":5539:5562   */\n      mload\n        /* \"#utility.yul\":5575:5652   */\n      tag_504\n        /* \"#utility.yul\":5646:5650   */\n      0x60\n        /* \"#utility.yul\":5641:5644   */\n      dup7\n        /* \"#utility.yul\":5637:5651   */\n      add\n        /* \"#utility.yul\":5623:5635   */\n      dup3\n        /* \"#utility.yul\":5575:5652   */\n      tag_387\n      jump\t// in\n    tag_504:\n        /* \"#utility.yul\":5474:5662   */\n      pop\n        /* \"#utility.yul\":5746:5750   */\n      0x80\n        /* \"#utility.yul\":5739:5744   */\n      dup4\n        /* \"#utility.yul\":5735:5751   */\n      add\n        /* \"#utility.yul\":5729:5752   */\n      mload\n        /* \"#utility.yul\":5799:5802   */\n      dup5\n        /* \"#utility.yul\":5793:5797   */\n      dup3\n        /* \"#utility.yul\":5789:5803   */\n      sub\n        /* \"#utility.yul\":5782:5786   */\n      0x80\n        /* \"#utility.yul\":5777:5780   */\n      dup7\n        /* \"#utility.yul\":5773:5787   */\n      add\n        /* \"#utility.yul\":5766:5804   */\n      mstore\n        /* \"#utility.yul\":5825:5898   */\n      tag_505\n        /* \"#utility.yul\":5893:5897   */\n      dup3\n        /* \"#utility.yul\":5879:5891   */\n      dup3\n        /* \"#utility.yul\":5825:5898   */\n      tag_381\n      jump\t// in\n    tag_505:\n        /* \"#utility.yul\":5817:5898   */\n      swap2\n      pop\n        /* \"#utility.yul\":5672:5909   */\n      pop\n        /* \"#utility.yul\":5926:5930   */\n      dup1\n        /* \"#utility.yul\":5919:5930   */\n      swap2\n      pop\n        /* \"#utility.yul\":4761:5936   */\n      pop\n        /* \"#utility.yul\":4649:5936   */\n      swap3\n      swap2\n      pop\n      pop\n      jump\t// out\n        /* \"#utility.yul\":5942:6194   */\n    tag_389:\n        /* \"#utility.yul\":6059:6069   */\n      0x00\n        /* \"#utility.yul\":6094:6188   */\n      tag_507\n        /* \"#utility.yul\":6184:6187   */\n      dup4\n        /* \"#utility.yul\":6176:6182   */\n      dup4\n        /* \"#utility.yul\":6094:6188   */\n      tag_388\n      jump\t// in\n    tag_507:\n        /* \"#utility.yul\":6080:6188   */\n      swap1\n      pop\n        /* \"#utility.yul\":5942:6194   */\n      swap3\n      swap2\n      pop\n      pop\n      jump\t// out\n        /* \"#utility.yul\":6200:6337   */\n    tag_390:\n        /* \"#utility.yul\":6294:6298   */\n      0x00\n        /* \"#utility.yul\":6326:6330   */\n      0x20\n        /* \"#utility.yul\":6321:6324   */\n      dup3\n        /* \"#utility.yul\":6317:6331   */\n      add\n        /* \"#utility.yul\":6309:6331   */\n      swap1\n      pop\n        /* \"#utility.yul\":6200:6337   */\n      swap2\n      swap1\n      pop\n      jump\t// out\n        /* \"#utility.yul\":6389:7492   */\n    tag_391:\n        /* \"#utility.yul\":6556:6559   */\n      0x00\n        /* \"#utility.yul\":6585:6663   */\n      tag_510\n        /* \"#utility.yul\":6657:6662   */\n      dup3\n        /* \"#utility.yul\":6585:6663   */\n      tag_374\n      jump\t// in\n    tag_510:\n        /* \"#utility.yul\":6679:6789   */\n      tag_511\n        /* \"#utility.yul\":6782:6788   */\n      dup2\n        /* \"#utility.yul\":6777:6780   */\n      dup6\n        /* \"#utility.yul\":6679:6789   */\n      tag_375\n      jump\t// in\n    tag_511:\n        /* \"#utility.yul\":6672:6789   */\n      swap4\n      pop\n        /* \"#utility.yul\":6815:6818   */\n      dup4\n        /* \"#utility.yul\":6860:6864   */\n      0x20\n        /* \"#utility.yul\":6852:6858   */\n      dup3\n        /* \"#utility.yul\":6848:6865   */\n      mul\n        /* \"#utility.yul\":6843:6846   */\n      dup6\n        /* \"#utility.yul\":6839:6866   */\n      add\n        /* \"#utility.yul\":6890:6970   */\n      tag_512\n        /* \"#utility.yul\":6964:6969   */\n      dup6\n        /* \"#utility.yul\":6890:6970   */\n      tag_376\n      jump\t// in\n    tag_512:\n        /* \"#utility.yul\":6993:7000   */\n      dup1\n        /* \"#utility.yul\":7024:7025   */\n      0x00\n        /* \"#utility.yul\":7009:7447   */\n    tag_513:\n        /* \"#utility.yul\":7034:7040   */\n      dup6\n        /* \"#utility.yul\":7031:7032   */\n      dup2\n        /* \"#utility.yul\":7028:7041   */\n      lt\n        /* \"#utility.yul\":7009:7447   */\n      iszero\n      tag_515\n      jumpi\n        /* \"#utility.yul\":7105:7114   */\n      dup5\n        /* \"#utility.yul\":7099:7103   */\n      dup5\n        /* \"#utility.yul\":7095:7115   */\n      sub\n        /* \"#utility.yul\":7090:7093   */\n      dup10\n        /* \"#utility.yul\":7083:7116   */\n      mstore\n        /* \"#utility.yul\":7156:7162   */\n      dup2\n        /* \"#utility.yul\":7150:7163   */\n      mload\n        /* \"#utility.yul\":7184:7296   */\n      tag_516\n        /* \"#utility.yul\":7291:7295   */\n      dup6\n        /* \"#utility.yul\":7276:7289   */\n      dup3\n        /* \"#utility.yul\":7184:7296   */\n      tag_389\n      jump\t// in\n    tag_516:\n        /* \"#utility.yul\":7176:7296   */\n      swap5\n      pop\n        /* \"#utility.yul\":7319:7403   */\n      tag_517\n        /* \"#utility.yul\":7396:7402   */\n      dup4\n        /* \"#utility.yul\":7319:7403   */\n      tag_390\n      jump\t// in\n    tag_517:\n        /* \"#utility.yul\":7309:7403   */\n      swap3\n      pop\n        /* \"#utility.yul\":7432:7436   */\n      0x20\n        /* \"#utility.yul\":7427:7430   */\n      dup11\n        /* \"#utility.yul\":7423:7437   */\n      add\n        /* \"#utility.yul\":7416:7437   */\n      swap10\n      pop\n        /* \"#utility.yul\":7069:7447   */\n      pop\n        /* \"#utility.yul\":7056:7057   */\n      0x01\n        /* \"#utility.yul\":7053:7054   */\n      dup2\n        /* \"#utility.yul\":7049:7058   */\n      add\n        /* \"#utility.yul\":7044:7058   */\n      swap1\n      pop\n        /* \"#utility.yul\":7009:7447   */\n      jump(tag_513)\n    tag_515:\n        /* \"#utility.yul\":7013:7027   */\n      pop\n        /* \"#utility.yul\":7463:7467   */\n      dup3\n        /* \"#utility.yul\":7456:7467   */\n      swap8\n      pop\n        /* \"#utility.yul\":7483:7486   */\n      dup8\n        /* \"#utility.yul\":7476:7486   */\n      swap6\n      pop\n        /* \"#utility.yul\":6561:7492   */\n      pop\n      pop\n      pop\n      pop\n      pop\n        /* \"#utility.yul\":6389:7492   */\n      swap3\n      swap2\n      pop\n      pop\n      jump\t// out\n        /* \"#utility.yul\":7498:7967   */\n    tag_32:\n        /* \"#utility.yul\":7689:7693   */\n      0x00\n        /* \"#utility.yul\":7727:7729   */\n      0x20\n        /* \"#utility.yul\":7716:7725   */\n      dup3\n        /* \"#utility.yul\":7712:7730   */\n      add\n        /* \"#utility.yul\":7704:7730   */\n      swap1\n      pop\n        /* \"#utility.yul\":7776:7785   */\n      dup2\n        /* \"#utility.yul\":7770:7774   */\n      dup2\n        /* \"#utility.yul\":7766:7786   */\n      sub\n        /* \"#utility.yul\":7762:7763   */\n      0x00\n        /* \"#utility.yul\":7751:7760   */\n      dup4\n        /* \"#utility.yul\":7747:7764   */\n      add\n        /* \"#utility.yul\":7740:7787   */\n      mstore\n        /* \"#utility.yul\":7804:7960   */\n      tag_519\n        /* \"#utility.yul\":7955:7959   */\n      dup2\n        /* \"#utility.yul\":7946:7952   */\n      dup5\n        /* \"#utility.yul\":7804:7960   */\n      tag_391\n      jump\t// in\n    tag_519:\n        /* \"#utility.yul\":7796:7960   */\n      swap1\n      pop\n        /* \"#utility.yul\":7498:7967   */\n      swap3\n      swap2\n      pop\n      pop\n      jump\t// out\n        /* \"#utility.yul\":7973:8091   */\n    tag_392:\n        /* \"#utility.yul\":8060:8084   */\n      tag_521\n        /* \"#utility.yul\":8078:8083   */\n      dup2\n        /* \"#utility.yul\":8060:8084   */\n      tag_382\n      jump\t// in\n    tag_521:\n        /* \"#utility.yul\":8055:8058   */\n      dup3\n        /* \"#utility.yul\":8048:8085   */\n      mstore\n        /* \"#utility.yul\":7973:8091   */\n      pop\n      pop\n      jump\t// out\n        /* \"#utility.yul\":8097:8319   */\n    tag_40:\n        /* \"#utility.yul\":8190:8194   */\n      0x00\n        /* \"#utility.yul\":8228:8230   */\n      0x20\n        /* \"#utility.yul\":8217:8226   */\n      dup3\n        /* \"#utility.yul\":8213:8231   */\n      add\n        /* \"#utility.yul\":8205:8231   */\n      swap1\n      pop\n        /* \"#utility.yul\":8241:8312   */\n      tag_523\n        /* \"#utility.yul\":8309:8310   */\n      0x00\n        /* \"#utility.yul\":8298:8307   */\n      dup4\n        /* \"#utility.yul\":8294:8311   */\n      add\n        /* \"#utility.yul\":8285:8291   */\n      dup5\n        /* \"#utility.yul\":8241:8312   */\n      tag_392\n      jump\t// in\n    tag_523:\n        /* \"#utility.yul\":8097:8319   */\n      swap3\n      swap2\n      pop\n      pop\n      jump\t// out\n        /* \"#utility.yul\":8325:8433   */\n    tag_393:\n        /* \"#utility.yul\":8407:8408   */\n      0x02\n        /* \"#utility.yul\":8400:8405   */\n      dup2\n        /* \"#utility.yul\":8397:8409   */\n      lt\n        /* \"#utility.yul\":8387:8427   */\n      tag_525\n      jumpi\n        /* \"#utility.yul\":8423:8424   */\n      0x00\n        /* \"#utility.yul\":8420:8421   */\n      dup1\n        /* \"#utility.yul\":8413:8425   */\n      revert\n        /* \"#utility.yul\":8387:8427   */\n    tag_525:\n        /* \"#utility.yul\":8325:8433   */\n      pop\n      jump\t// out\n        /* \"#utility.yul\":8439:8596   */\n    tag_394:\n        /* \"#utility.yul\":8494:8499   */\n      0x00\n        /* \"#utility.yul\":8532:8538   */\n      dup2\n        /* \"#utility.yul\":8519:8539   */\n      calldataload\n        /* \"#utility.yul\":8510:8539   */\n      swap1\n      pop\n        /* \"#utility.yul\":8548:8590   */\n      tag_527\n        /* \"#utility.yul\":8584:8589   */\n      dup2\n        /* \"#utility.yul\":8548:8590   */\n      tag_393\n      jump\t// in\n    tag_527:\n        /* \"#utility.yul\":8439:8596   */\n      swap3\n      swap2\n      pop\n      pop\n      jump\t// out\n        /* \"#utility.yul\":8602:9294   */\n    tag_44:\n        /* \"#utility.yul\":8691:8697   */\n      0x00\n        /* \"#utility.yul\":8699:8705   */\n      dup1\n        /* \"#utility.yul\":8707:8713   */\n      0x00\n        /* \"#utility.yul\":8756:8758   */\n      0x40\n        /* \"#utility.yul\":8744:8753   */\n      dup5\n        /* \"#utility.yul\":8735:8742   */\n      dup7\n        /* \"#utility.yul\":8731:8754   */\n      sub\n        /* \"#utility.yul\":8727:8759   */\n      slt\n        /* \"#utility.yul\":8724:8843   */\n      iszero\n      tag_529\n      jumpi\n        /* \"#utility.yul\":8762:8841   */\n      tag_530\n      tag_368\n      jump\t// in\n    tag_530:\n        /* \"#utility.yul\":8724:8843   */\n    tag_529:\n        /* \"#utility.yul\":8910:8911   */\n      0x00\n        /* \"#utility.yul\":8899:8908   */\n      dup5\n        /* \"#utility.yul\":8895:8912   */\n      add\n        /* \"#utility.yul\":8882:8913   */\n      calldataload\n        /* \"#utility.yul\":8940:8958   */\n      0xffffffffffffffff\n        /* \"#utility.yul\":8932:8938   */\n      dup2\n        /* \"#utility.yul\":8929:8959   */\n      gt\n        /* \"#utility.yul\":8926:9043   */\n      iszero\n      tag_531\n      jumpi\n        /* \"#utility.yul\":8962:9041   */\n      tag_532\n      tag_369\n      jump\t// in\n    tag_532:\n        /* \"#utility.yul\":8926:9043   */\n    tag_531:\n        /* \"#utility.yul\":9075:9140   */\n      tag_533\n        /* \"#utility.yul\":9132:9139   */\n      dup7\n        /* \"#utility.yul\":9123:9129   */\n      dup3\n        /* \"#utility.yul\":9112:9121   */\n      dup8\n        /* \"#utility.yul\":9108:9130   */\n      add\n        /* \"#utility.yul\":9075:9140   */\n      tag_373\n      jump\t// in\n    tag_533:\n        /* \"#utility.yul\":9057:9140   */\n      swap4\n      pop\n      swap4\n      pop\n        /* \"#utility.yul\":8853:9150   */\n      pop\n        /* \"#utility.yul\":9189:9191   */\n      0x20\n        /* \"#utility.yul\":9215:9277   */\n      tag_534\n        /* \"#utility.yul\":9269:9276   */\n      dup7\n        /* \"#utility.yul\":9260:9266   */\n      dup3\n        /* \"#utility.yul\":9249:9258   */\n      dup8\n        /* \"#utility.yul\":9245:9267   */\n      add\n        /* \"#utility.yul\":9215:9277   */\n      tag_394\n      jump\t// in\n    tag_534:\n        /* \"#utility.yul\":9205:9277   */\n      swap2\n      pop\n        /* \"#utility.yul\":9160:9287   */\n      pop\n        /* \"#utility.yul\":8602:9294   */\n      swap3\n      pop\n      swap3\n      pop\n      swap3\n      jump\t// out\n        /* \"#utility.yul\":9300:9414   */\n    tag_395:\n        /* \"#utility.yul\":9382:9383   */\n      0x02\n        /* \"#utility.yul\":9375:9380   */\n      dup2\n        /* \"#utility.yul\":9372:9384   */\n      lt\n        /* \"#utility.yul\":9362:9408   */\n      tag_536\n      jumpi\n        /* \"#utility.yul\":9388:9406   */\n      tag_537\n      tag_67\n      jump\t// in\n    tag_537:\n        /* \"#utility.yul\":9362:9408   */\n    tag_536:\n        /* \"#utility.yul\":9300:9414   */\n      pop\n      jump\t// out\n        /* \"#utility.yul\":9420:9549   */\n    tag_396:\n        /* \"#utility.yul\":9466:9473   */\n      0x00\n        /* \"#utility.yul\":9495:9500   */\n      dup2\n        /* \"#utility.yul\":9484:9500   */\n      swap1\n      pop\n        /* \"#utility.yul\":9501:9543   */\n      tag_539\n        /* \"#utility.yul\":9537:9542   */\n      dup3\n        /* \"#utility.yul\":9501:9543   */\n      tag_395\n      jump\t// in\n    tag_539:\n        /* \"#utility.yul\":9420:9549   */\n      swap2\n      swap1\n      pop\n      jump\t// out\n        /* \"#utility.yul\":9555:9684   */\n    tag_397:\n        /* \"#utility.yul\":9612:9621   */\n      0x00\n        /* \"#utility.yul\":9645:9678   */\n      tag_541\n        /* \"#utility.yul\":9672:9677   */\n      dup3\n        /* \"#utility.yul\":9645:9678   */\n      tag_396\n      jump\t// in\n    tag_541:\n        /* \"#utility.yul\":9632:9678   */\n      swap1\n      pop\n        /* \"#utility.yul\":9555:9684   */\n      swap2\n      swap1\n      pop\n      jump\t// out\n        /* \"#utility.yul\":9690:9825   */\n    tag_398:\n        /* \"#utility.yul\":9774:9818   */\n      tag_543\n        /* \"#utility.yul\":9812:9817   */\n      dup2\n        /* \"#utility.yul\":9774:9818   */\n      tag_397\n      jump\t// in\n    tag_543:\n        /* \"#utility.yul\":9769:9772   */\n      dup3\n        /* \"#utility.yul\":9762:9819   */\n      mstore\n        /* \"#utility.yul\":9690:9825   */\n      pop\n      pop\n      jump\t// out\n        /* \"#utility.yul\":9831:9946   */\n    tag_399:\n        /* \"#utility.yul\":9914:9915   */\n      0x02\n        /* \"#utility.yul\":9907:9912   */\n      dup2\n        /* \"#utility.yul\":9904:9916   */\n      lt\n        /* \"#utility.yul\":9894:9940   */\n      tag_545\n      jumpi\n        /* \"#utility.yul\":9920:9938   */\n      tag_546\n      tag_67\n      jump\t// in\n    tag_546:\n        /* \"#utility.yul\":9894:9940   */\n    tag_545:\n        /* \"#utility.yul\":9831:9946   */\n      pop\n      jump\t// out\n        /* \"#utility.yul\":9952:10083   */\n    tag_400:\n        /* \"#utility.yul\":9999:10006   */\n      0x00\n        /* \"#utility.yul\":10028:10033   */\n      dup2\n        /* \"#utility.yul\":10017:10033   */\n      swap1\n      pop\n        /* \"#utility.yul\":10034:10077   */\n      tag_548\n        /* \"#utility.yul\":10071:10076   */\n      dup3\n        /* \"#utility.yul\":10034:10077   */\n      tag_399\n      jump\t// in\n    tag_548:\n        /* \"#utility.yul\":9952:10083   */\n      swap2\n      swap1\n      pop\n      jump\t// out\n        /* \"#utility.yul\":10089:10220   */\n    tag_401:\n        /* \"#utility.yul\":10147:10156   */\n      0x00\n        /* \"#utility.yul\":10180:10214   */\n      tag_550\n        /* \"#utility.yul\":10208:10213   */\n      dup3\n        /* \"#utility.yul\":10180:10214   */\n      tag_400\n      jump\t// in\n    tag_550:\n        /* \"#utility.yul\":10167:10214   */\n      swap1\n      pop\n        /* \"#utility.yul\":10089:10220   */\n      swap2\n      swap1\n      pop\n      jump\t// out\n        /* \"#utility.yul\":10226:10363   */\n    tag_402:\n        /* \"#utility.yul\":10311:10356   */\n      tag_552\n        /* \"#utility.yul\":10350:10355   */\n      dup2\n        /* \"#utility.yul\":10311:10356   */\n      tag_401\n      jump\t// in\n    tag_552:\n        /* \"#utility.yul\":10306:10309   */\n      dup3\n        /* \"#utility.yul\":10299:10357   */\n      mstore\n        /* \"#utility.yul\":10226:10363   */\n      pop\n      pop\n      jump\t// out\n        /* \"#utility.yul\":10403:11194   */\n    tag_403:\n        /* \"#utility.yul\":10512:10515   */\n      0x00\n        /* \"#utility.yul\":10548:10552   */\n      0x60\n        /* \"#utility.yul\":10543:10546   */\n      dup4\n        /* \"#utility.yul\":10539:10553   */\n      add\n        /* \"#utility.yul\":10635:10639   */\n      0x00\n        /* \"#utility.yul\":10628:10633   */\n      dup4\n        /* \"#utility.yul\":10624:10640   */\n      add\n        /* \"#utility.yul\":10618:10641   */\n      mload\n        /* \"#utility.yul\":10688:10691   */\n      dup5\n        /* \"#utility.yul\":10682:10686   */\n      dup3\n        /* \"#utility.yul\":10678:10692   */\n      sub\n        /* \"#utility.yul\":10671:10675   */\n      0x00\n        /* \"#utility.yul\":10666:10669   */\n      dup7\n        /* \"#utility.yul\":10662:10676   */\n      add\n        /* \"#utility.yul\":10655:10693   */\n      mstore\n        /* \"#utility.yul\":10714:10787   */\n      tag_554\n        /* \"#utility.yul\":10782:10786   */\n      dup3\n        /* \"#utility.yul\":10768:10780   */\n      dup3\n        /* \"#utility.yul\":10714:10787   */\n      tag_381\n      jump\t// in\n    tag_554:\n        /* \"#utility.yul\":10706:10787   */\n      swap2\n      pop\n        /* \"#utility.yul\":10563:10798   */\n      pop\n        /* \"#utility.yul\":10882:10886   */\n      0x20\n        /* \"#utility.yul\":10875:10880   */\n      dup4\n        /* \"#utility.yul\":10871:10887   */\n      add\n        /* \"#utility.yul\":10865:10888   */\n      mload\n        /* \"#utility.yul\":10901:10971   */\n      tag_555\n        /* \"#utility.yul\":10965:10969   */\n      0x20\n        /* \"#utility.yul\":10960:10963   */\n      dup7\n        /* \"#utility.yul\":10956:10970   */\n      add\n        /* \"#utility.yul\":10942:10954   */\n      dup3\n        /* \"#utility.yul\":10901:10971   */\n      tag_398\n      jump\t// in\n    tag_555:\n        /* \"#utility.yul\":10808:10981   */\n      pop\n        /* \"#utility.yul\":11067:11071   */\n      0x40\n        /* \"#utility.yul\":11060:11065   */\n      dup4\n        /* \"#utility.yul\":11056:11072   */\n      add\n        /* \"#utility.yul\":11050:11073   */\n      mload\n        /* \"#utility.yul\":11086:11157   */\n      tag_556\n        /* \"#utility.yul\":11151:11155   */\n      0x40\n        /* \"#utility.yul\":11146:11149   */\n      dup7\n        /* \"#utility.yul\":11142:11156   */\n      add\n        /* \"#utility.yul\":11128:11140   */\n      dup3\n        /* \"#utility.yul\":11086:11157   */\n      tag_402\n      jump\t// in\n    tag_556:\n        /* \"#utility.yul\":10991:11167   */\n      pop\n        /* \"#utility.yul\":11184:11188   */\n      dup1\n        /* \"#utility.yul\":11177:11188   */\n      swap2\n      pop\n        /* \"#utility.yul\":10517:11194   */\n      pop\n        /* \"#utility.yul\":10403:11194   */\n      swap3\n      swap2\n      pop\n      pop\n      jump\t// out\n        /* \"#utility.yul\":11200:11553   */\n    tag_60:\n        /* \"#utility.yul\":11333:11337   */\n      0x00\n        /* \"#utility.yul\":11371:11373   */\n      0x20\n        /* \"#utility.yul\":11360:11369   */\n      dup3\n        /* \"#utility.yul\":11356:11374   */\n      add\n        /* \"#utility.yul\":11348:11374   */\n      swap1\n      pop\n        /* \"#utility.yul\":11420:11429   */\n      dup2\n        /* \"#utility.yul\":11414:11418   */\n      dup2\n        /* \"#utility.yul\":11410:11430   */\n      sub\n        /* \"#utility.yul\":11406:11407   */\n      0x00\n        /* \"#utility.yul\":11395:11404   */\n      dup4\n        /* \"#utility.yul\":11391:11408   */\n      add\n        /* \"#utility.yul\":11384:11431   */\n      mstore\n        /* \"#utility.yul\":11448:11546   */\n      tag_558\n        /* \"#utility.yul\":11541:11545   */\n      dup2\n        /* \"#utility.yul\":11532:11538   */\n      dup5\n        /* \"#utility.yul\":11448:11546   */\n      tag_403\n      jump\t// in\n    tag_558:\n        /* \"#utility.yul\":11440:11546   */\n      swap1\n      pop\n        /* \"#utility.yul\":11200:11553   */\n      swap3\n      swap2\n      pop\n      pop\n      jump\t// out\n        /* \"#utility.yul\":11559:11739   */\n    tag_404:\n        /* \"#utility.yul\":11607:11684   */\n      0x4e487b7100000000000000000000000000000000000000000000000000000000\n        /* \"#utility.yul\":11604:11605   */\n      0x00\n        /* \"#utility.yul\":11597:11685   */\n      mstore\n        /* \"#utility.yul\":11704:11708   */\n      0x22\n        /* \"#utility.yul\":11701:11702   */\n      0x04\n        /* \"#utility.yul\":11694:11709   */\n      mstore\n        /* \"#utility.yul\":11728:11732   */\n      0x24\n        /* \"#utility.yul\":11725:11726   */\n      0x00\n        /* \"#utility.yul\":11718:11733   */\n      revert\n        /* \"#utility.yul\":11745:12065   */\n    tag_63:\n        /* \"#utility.yul\":11789:11795   */\n      0x00\n        /* \"#utility.yul\":11826:11827   */\n      0x02\n        /* \"#utility.yul\":11820:11824   */\n      dup3\n        /* \"#utility.yul\":11816:11828   */\n      div\n        /* \"#utility.yul\":11806:11828   */\n      swap1\n      pop\n        /* \"#utility.yul\":11873:11874   */\n      0x01\n        /* \"#utility.yul\":11867:11871   */\n      dup3\n        /* \"#utility.yul\":11863:11875   */\n      and\n        /* \"#utility.yul\":11894:11912   */\n      dup1\n        /* \"#utility.yul\":11884:11965   */\n      tag_561\n      jumpi\n        /* \"#utility.yul\":11950:11954   */\n      0x7f\n        /* \"#utility.yul\":11942:11948   */\n      dup3\n        /* \"#utility.yul\":11938:11955   */\n      and\n        /* \"#utility.yul\":11928:11955   */\n      swap2\n      pop\n        /* \"#utility.yul\":11884:11965   */\n    tag_561:\n        /* \"#utility.yul\":12012:12014   */\n      0x20\n        /* \"#utility.yul\":12004:12010   */\n      dup3\n        /* \"#utility.yul\":12001:12015   */\n      lt\n        /* \"#utility.yul\":11981:11999   */\n      dup2\n        /* \"#utility.yul\":11978:12016   */\n      sub\n        /* \"#utility.yul\":11975:12059   */\n      tag_562\n      jumpi\n        /* \"#utility.yul\":12031:12049   */\n      tag_563\n      tag_404\n      jump\t// in\n    tag_563:\n        /* \"#utility.yul\":11975:12059   */\n    tag_562:\n        /* \"#utility.yul\":11796:12065   */\n      pop\n        /* \"#utility.yul\":11745:12065   */\n      swap2\n      swap1\n      pop\n      jump\t// out\n        /* \"#utility.yul\":12071:12219   */\n    tag_405:\n        /* \"#utility.yul\":12173:12184   */\n      0x00\n        /* \"#utility.yul\":12210:12213   */\n      dup2\n        /* \"#utility.yul\":12195:12213   */\n      swap1\n      pop\n        /* \"#utility.yul\":12071:12219   */\n      swap3\n      swap2\n      pop\n      pop\n      jump\t// out\n        /* \"#utility.yul\":12225:12615   */\n    tag_406:\n        /* \"#utility.yul\":12331:12334   */\n      0x00\n        /* \"#utility.yul\":12359:12398   */\n      tag_566\n        /* \"#utility.yul\":12392:12397   */\n      dup3\n        /* \"#utility.yul\":12359:12398   */\n      tag_377\n      jump\t// in\n    tag_566:\n        /* \"#utility.yul\":12414:12503   */\n      tag_567\n        /* \"#utility.yul\":12496:12502   */\n      dup2\n        /* \"#utility.yul\":12491:12494   */\n      dup6\n        /* \"#utility.yul\":12414:12503   */\n      tag_405\n      jump\t// in\n    tag_567:\n        /* \"#utility.yul\":12407:12503   */\n      swap4\n      pop\n        /* \"#utility.yul\":12512:12577   */\n      tag_568\n        /* \"#utility.yul\":12570:12576   */\n      dup2\n        /* \"#utility.yul\":12565:12568   */\n      dup6\n        /* \"#utility.yul\":12558:12562   */\n      0x20\n        /* \"#utility.yul\":12551:12556   */\n      dup7\n        /* \"#utility.yul\":12547:12563   */\n      add\n        /* \"#utility.yul\":12512:12577   */\n      tag_379\n      jump\t// in\n    tag_568:\n        /* \"#utility.yul\":12602:12608   */\n      dup1\n        /* \"#utility.yul\":12597:12600   */\n      dup5\n        /* \"#utility.yul\":12593:12609   */\n      add\n        /* \"#utility.yul\":12586:12609   */\n      swap2\n      pop\n        /* \"#utility.yul\":12335:12615   */\n      pop\n        /* \"#utility.yul\":12225:12615   */\n      swap3\n      swap2\n      pop\n      pop\n      jump\t// out\n        /* \"#utility.yul\":12621:12896   */\n    tag_69:\n        /* \"#utility.yul\":12753:12756   */\n      0x00\n        /* \"#utility.yul\":12775:12870   */\n      tag_570\n        /* \"#utility.yul\":12866:12869   */\n      dup3\n        /* \"#utility.yul\":12857:12863   */\n      dup5\n        /* \"#utility.yul\":12775:12870   */\n      tag_406\n      jump\t// in\n    tag_570:\n        /* \"#utility.yul\":12768:12870   */\n      swap2\n      pop\n        /* \"#utility.yul\":12887:12890   */\n      dup2\n        /* \"#utility.yul\":12880:12890   */\n      swap1\n      pop\n        /* \"#utility.yul\":12621:12896   */\n      swap3\n      swap2\n      pop\n      pop\n      jump\t// out\n        /* \"#utility.yul\":12902:13071   */\n    tag_407:\n        /* \"#utility.yul\":12986:12997   */\n      0x00\n        /* \"#utility.yul\":13020:13026   */\n      dup3\n        /* \"#utility.yul\":13015:13018   */\n      dup3\n        /* \"#utility.yul\":13008:13027   */\n      mstore\n        /* \"#utility.yul\":13060:13064   */\n      0x20\n        /* \"#utility.yul\":13055:13058   */\n      dup3\n        /* \"#utility.yul\":13051:13065   */\n      add\n        /* \"#utility.yul\":13036:13065   */\n      swap1\n      pop\n        /* \"#utility.yul\":12902:13071   */\n      swap3\n      swap2\n      pop\n      pop\n      jump\t// out\n        /* \"#utility.yul\":13077:13242   */\n    tag_408:\n        /* \"#utility.yul\":13217:13234   */\n      0x4361726420697320496e76616c69640000000000000000000000000000000000\n        /* \"#utility.yul\":13213:13214   */\n      0x00\n        /* \"#utility.yul\":13205:13211   */\n      dup3\n        /* \"#utility.yul\":13201:13215   */\n      add\n        /* \"#utility.yul\":13194:13235   */\n      mstore\n        /* \"#utility.yul\":13077:13242   */\n      pop\n      jump\t// out\n        /* \"#utility.yul\":13248:13614   */\n    tag_409:\n        /* \"#utility.yul\":13390:13393   */\n      0x00\n        /* \"#utility.yul\":13411:13478   */\n      tag_574\n        /* \"#utility.yul\":13475:13477   */\n      0x0f\n        /* \"#utility.yul\":13470:13473   */\n      dup4\n        /* \"#utility.yul\":13411:13478   */\n      tag_407\n      jump\t// in\n    tag_574:\n        /* \"#utility.yul\":13404:13478   */\n      swap2\n      pop\n        /* \"#utility.yul\":13487:13580   */\n      tag_575\n        /* \"#utility.yul\":13576:13579   */\n      dup3\n        /* \"#utility.yul\":13487:13580   */\n      tag_408\n      jump\t// in\n    tag_575:\n        /* \"#utility.yul\":13605:13607   */\n      0x20\n        /* \"#utility.yul\":13600:13603   */\n      dup3\n        /* \"#utility.yul\":13596:13608   */\n      add\n        /* \"#utility.yul\":13589:13608   */\n      swap1\n      pop\n        /* \"#utility.yul\":13248:13614   */\n      swap2\n      swap1\n      pop\n      jump\t// out\n        /* \"#utility.yul\":13620:14039   */\n    tag_74:\n        /* \"#utility.yul\":13786:13790   */\n      0x00\n        /* \"#utility.yul\":13824:13826   */\n      0x20\n        /* \"#utility.yul\":13813:13822   */\n      dup3\n        /* \"#utility.yul\":13809:13827   */\n      add\n        /* \"#utility.yul\":13801:13827   */\n      swap1\n      pop\n        /* \"#utility.yul\":13873:13882   */\n      dup2\n        /* \"#utility.yul\":13867:13871   */\n      dup2\n        /* \"#utility.yul\":13863:13883   */\n      sub\n        /* \"#utility.yul\":13859:13860   */\n      0x00\n        /* \"#utility.yul\":13848:13857   */\n      dup4\n        /* \"#utility.yul\":13844:13861   */\n      add\n        /* \"#utility.yul\":13837:13884   */\n      mstore\n        /* \"#utility.yul\":13901:14032   */\n      tag_577\n        /* \"#utility.yul\":14027:14031   */\n      dup2\n        /* \"#utility.yul\":13901:14032   */\n      tag_409\n      jump\t// in\n    tag_577:\n        /* \"#utility.yul\":13893:14032   */\n      swap1\n      pop\n        /* \"#utility.yul\":13620:14039   */\n      swap2\n      swap1\n      pop\n      jump\t// out\n        /* \"#utility.yul\":14045:14214   */\n    tag_410:\n        /* \"#utility.yul\":14185:14206   */\n      0x5573657220646f6573206e6f7420657869737400000000000000000000000000\n        /* \"#utility.yul\":14181:14182   */\n      0x00\n        /* \"#utility.yul\":14173:14179   */\n      dup3\n        /* \"#utility.yul\":14169:14183   */\n      add\n        /* \"#utility.yul\":14162:14207   */\n      mstore\n        /* \"#utility.yul\":14045:14214   */\n      pop\n      jump\t// out\n        /* \"#utility.yul\":14220:14586   */\n    tag_411:\n        /* \"#utility.yul\":14362:14365   */\n      0x00\n        /* \"#utility.yul\":14383:14450   */\n      tag_580\n        /* \"#utility.yul\":14447:14449   */\n      0x13\n        /* \"#utility.yul\":14442:14445   */\n      dup4\n        /* \"#utility.yul\":14383:14450   */\n      tag_407\n      jump\t// in\n    tag_580:\n        /* \"#utility.yul\":14376:14450   */\n      swap2\n      pop\n        /* \"#utility.yul\":14459:14552   */\n      tag_581\n        /* \"#utility.yul\":14548:14551   */\n      dup3\n        /* \"#utility.yul\":14459:14552   */\n      tag_410\n      jump\t// in\n    tag_581:\n        /* \"#utility.yul\":14577:14579   */\n      0x20\n        /* \"#utility.yul\":14572:14575   */\n      dup3\n        /* \"#utility.yul\":14568:14580   */\n      add\n        /* \"#utility.yul\":14561:14580   */\n      swap1\n      pop\n        /* \"#utility.yul\":14220:14586   */\n      swap2\n      swap1\n      pop\n      jump\t// out\n        /* \"#utility.yul\":14592:15011   */\n    tag_79:\n        /* \"#utility.yul\":14758:14762   */\n      0x00\n        /* \"#utility.yul\":14796:14798   */\n      0x20\n        /* \"#utility.yul\":14785:14794   */\n      dup3\n        /* \"#utility.yul\":14781:14799   */\n      add\n        /* \"#utility.yul\":14773:14799   */\n      swap1\n      pop\n        /* \"#utility.yul\":14845:14854   */\n      dup2\n        /* \"#utility.yul\":14839:14843   */\n      dup2\n        /* \"#utility.yul\":14835:14855   */\n      sub\n        /* \"#utility.yul\":14831:14832   */\n      0x00\n        /* \"#utility.yul\":14820:14829   */\n      dup4\n        /* \"#utility.yul\":14816:14833   */\n      add\n        /* \"#utility.yul\":14809:14856   */\n      mstore\n        /* \"#utility.yul\":14873:15004   */\n      tag_583\n        /* \"#utility.yul\":14999:15003   */\n      dup2\n        /* \"#utility.yul\":14873:15004   */\n      tag_411\n      jump\t// in\n    tag_583:\n        /* \"#utility.yul\":14865:15004   */\n      swap1\n      pop\n        /* \"#utility.yul\":14592:15011   */\n      swap2\n      swap1\n      pop\n      jump\t// out\n        /* \"#utility.yul\":15017:15198   */\n    tag_412:\n        /* \"#utility.yul\":15157:15190   */\n      0x5265656e7472616e637947756172643a207265656e7472616e742063616c6c00\n        /* \"#utility.yul\":15153:15154   */\n      0x00\n        /* \"#utility.yul\":15145:15151   */\n      dup3\n        /* \"#utility.yul\":15141:15155   */\n      add\n        /* \"#utility.yul\":15134:15191   */\n      mstore\n        /* \"#utility.yul\":15017:15198   */\n      pop\n      jump\t// out\n        /* \"#utility.yul\":15204:15570   */\n    tag_413:\n        /* \"#utility.yul\":15346:15349   */\n      0x00\n        /* \"#utility.yul\":15367:15434   */\n      tag_586\n        /* \"#utility.yul\":15431:15433   */\n      0x1f\n        /* \"#utility.yul\":15426:15429   */\n      dup4\n        /* \"#utility.yul\":15367:15434   */\n      tag_407\n      jump\t// in\n    tag_586:\n        /* \"#utility.yul\":15360:15434   */\n      swap2\n      pop\n        /* \"#utility.yul\":15443:15536   */\n      tag_587\n        /* \"#utility.yul\":15532:15535   */\n      dup3\n        /* \"#utility.yul\":15443:15536   */\n      tag_412\n      jump\t// in\n    tag_587:\n        /* \"#utility.yul\":15561:15563   */\n      0x20\n        /* \"#utility.yul\":15556:15559   */\n      dup3\n        /* \"#utility.yul\":15552:15564   */\n      add\n        /* \"#utility.yul\":15545:15564   */\n      swap1\n      pop\n        /* \"#utility.yul\":15204:15570   */\n      swap2\n      swap1\n      pop\n      jump\t// out\n        /* \"#utility.yul\":15576:15995   */\n    tag_83:\n        /* \"#utility.yul\":15742:15746   */\n      0x00\n        /* \"#utility.yul\":15780:15782   */\n      0x20\n        /* \"#utility.yul\":15769:15778   */\n      dup3\n        /* \"#utility.yul\":15765:15783   */\n      add\n        /* \"#utility.yul\":15757:15783   */\n      swap1\n      pop\n        /* \"#utility.yul\":15829:15838   */\n      dup2\n        /* \"#utility.yul\":15823:15827   */\n      dup2\n        /* \"#utility.yul\":15819:15839   */\n      sub\n        /* \"#utility.yul\":15815:15816   */\n      0x00\n        /* \"#utility.yul\":15804:15813   */\n      dup4\n        /* \"#utility.yul\":15800:15817   */\n      add\n        /* \"#utility.yul\":15793:15840   */\n      mstore\n        /* \"#utility.yul\":15857:15988   */\n      tag_589\n        /* \"#utility.yul\":15983:15987   */\n      dup2\n        /* \"#utility.yul\":15857:15988   */\n      tag_413\n      jump\t// in\n    tag_589:\n        /* \"#utility.yul\":15849:15988   */\n      swap1\n      pop\n        /* \"#utility.yul\":15576:15995   */\n      swap2\n      swap1\n      pop\n      jump\t// out\n        /* \"#utility.yul\":16001:16149   */\n    tag_414:\n        /* \"#utility.yul\":16099:16105   */\n      dup3\n        /* \"#utility.yul\":16094:16097   */\n      dup2\n        /* \"#utility.yul\":16089:16092   */\n      dup4\n        /* \"#utility.yul\":16076:16106   */\n      calldatacopy\n        /* \"#utility.yul\":16140:16141   */\n      0x00\n        /* \"#utility.yul\":16131:16137   */\n      dup4\n        /* \"#utility.yul\":16126:16129   */\n      dup4\n        /* \"#utility.yul\":16122:16138   */\n      add\n        /* \"#utility.yul\":16115:16142   */\n      mstore\n        /* \"#utility.yul\":16001:16149   */\n      pop\n      pop\n      pop\n      jump\t// out\n        /* \"#utility.yul\":16179:16509   */\n    tag_415:\n        /* \"#utility.yul\":16295:16298   */\n      0x00\n        /* \"#utility.yul\":16316:16405   */\n      tag_592\n        /* \"#utility.yul\":16398:16404   */\n      dup4\n        /* \"#utility.yul\":16393:16396   */\n      dup6\n        /* \"#utility.yul\":16316:16405   */\n      tag_405\n      jump\t// in\n    tag_592:\n        /* \"#utility.yul\":16309:16405   */\n      swap4\n      pop\n        /* \"#utility.yul\":16415:16471   */\n      tag_593\n        /* \"#utility.yul\":16464:16470   */\n      dup4\n        /* \"#utility.yul\":16459:16462   */\n      dup6\n        /* \"#utility.yul\":16452:16457   */\n      dup5\n        /* \"#utility.yul\":16415:16471   */\n      tag_414\n      jump\t// in\n    tag_593:\n        /* \"#utility.yul\":16496:16502   */\n      dup3\n        /* \"#utility.yul\":16491:16494   */\n      dup5\n        /* \"#utility.yul\":16487:16503   */\n      add\n        /* \"#utility.yul\":16480:16503   */\n      swap1\n      pop\n        /* \"#utility.yul\":16179:16509   */\n      swap4\n      swap3\n      pop\n      pop\n      pop\n      jump\t// out\n        /* \"#utility.yul\":16515:16810   */\n    tag_86:\n        /* \"#utility.yul\":16657:16660   */\n      0x00\n        /* \"#utility.yul\":16679:16784   */\n      tag_595\n        /* \"#utility.yul\":16780:16783   */\n      dup3\n        /* \"#utility.yul\":16771:16777   */\n      dup5\n        /* \"#utility.yul\":16763:16769   */\n      dup7\n        /* \"#utility.yul\":16679:16784   */\n      tag_415\n      jump\t// in\n    tag_595:\n        /* \"#utility.yul\":16672:16784   */\n      swap2\n      pop\n        /* \"#utility.yul\":16801:16804   */\n      dup2\n        /* \"#utility.yul\":16794:16804   */\n      swap1\n      pop\n        /* \"#utility.yul\":16515:16810   */\n      swap4\n      swap3\n      pop\n      pop\n      pop\n      jump\t// out\n        /* \"#utility.yul\":16816:16990   */\n    tag_416:\n        /* \"#utility.yul\":16956:16982   */\n      0x47696674206361726420686173206e6f2062616c616e63650000000000000000\n        /* \"#utility.yul\":16952:16953   */\n      0x00\n        /* \"#utility.yul\":16944:16950   */\n      dup3\n        /* \"#utility.yul\":16940:16954   */\n      add\n        /* \"#utility.yul\":16933:16983   */\n      mstore\n        /* \"#utility.yul\":16816:16990   */\n      pop\n      jump\t// out\n        /* \"#utility.yul\":16996:17362   */\n    tag_417:\n        /* \"#utility.yul\":17138:17141   */\n      0x00\n        /* \"#utility.yul\":17159:17226   */\n      tag_598\n        /* \"#utility.yul\":17223:17225   */\n      0x18\n        /* \"#utility.yul\":17218:17221   */\n      dup4\n        /* \"#utility.yul\":17159:17226   */\n      tag_407\n      jump\t// in\n    tag_598:\n        /* \"#utility.yul\":17152:17226   */\n      swap2\n      pop\n        /* \"#utility.yul\":17235:17328   */\n      tag_599\n        /* \"#utility.yul\":17324:17327   */\n      dup3\n        /* \"#utility.yul\":17235:17328   */\n      tag_416\n      jump\t// in\n    tag_599:\n        /* \"#utility.yul\":17353:17355   */\n      0x20\n        /* \"#utility.yul\":17348:17351   */\n      dup3\n        /* \"#utility.yul\":17344:17356   */\n      add\n        /* \"#utility.yul\":17337:17356   */\n      swap1\n      pop\n        /* \"#utility.yul\":16996:17362   */\n      swap2\n      swap1\n      pop\n      jump\t// out\n        /* \"#utility.yul\":17368:17787   */\n    tag_89:\n        /* \"#utility.yul\":17534:17538   */\n      0x00\n        /* \"#utility.yul\":17572:17574   */\n      0x20\n        /* \"#utility.yul\":17561:17570   */\n      dup3\n        /* \"#utility.yul\":17557:17575   */\n      add\n        /* \"#utility.yul\":17549:17575   */\n      swap1\n      pop\n        /* \"#utility.yul\":17621:17630   */\n      dup2\n        /* \"#utility.yul\":17615:17619   */\n      dup2\n        /* \"#utility.yul\":17611:17631   */\n      sub\n        /* \"#utility.yul\":17607:17608   */\n      0x00\n        /* \"#utility.yul\":17596:17605   */\n      dup4\n        /* \"#utility.yul\":17592:17609   */\n      add\n        /* \"#utility.yul\":17585:17632   */\n      mstore\n        /* \"#utility.yul\":17649:17780   */\n      tag_601\n        /* \"#utility.yul\":17775:17779   */\n      dup2\n        /* \"#utility.yul\":17649:17780   */\n      tag_417\n      jump\t// in\n    tag_601:\n        /* \"#utility.yul\":17641:17780   */\n      swap1\n      pop\n        /* \"#utility.yul\":17368:17787   */\n      swap2\n      swap1\n      pop\n      jump\t// out\n        /* \"#utility.yul\":17793:17946   */\n    tag_418:\n        /* \"#utility.yul\":17846:17852   */\n      0x00\n        /* \"#utility.yul\":17880:17885   */\n      dup2\n        /* \"#utility.yul\":17874:17886   */\n      sload\n        /* \"#utility.yul\":17864:17886   */\n      swap1\n      pop\n        /* \"#utility.yul\":17906:17939   */\n      tag_603\n        /* \"#utility.yul\":17932:17938   */\n      dup2\n        /* \"#utility.yul\":17906:17939   */\n      tag_63\n      jump\t// in\n    tag_603:\n        /* \"#utility.yul\":17896:17939   */\n      swap1\n      pop\n        /* \"#utility.yul\":17793:17946   */\n      swap2\n      swap1\n      pop\n      jump\t// out\n        /* \"#utility.yul\":17952:18132   */\n    tag_130:\n        /* \"#utility.yul\":18000:18077   */\n      0x4e487b7100000000000000000000000000000000000000000000000000000000\n        /* \"#utility.yul\":17997:17998   */\n      0x00\n        /* \"#utility.yul\":17990:18078   */\n      mstore\n        /* \"#utility.yul\":18097:18101   */\n      0x41\n        /* \"#utility.yul\":18094:18095   */\n      0x04\n        /* \"#utility.yul\":18087:18102   */\n      mstore\n        /* \"#utility.yul\":18121:18125   */\n      0x24\n        /* \"#utility.yul\":18118:18119   */\n      0x00\n        /* \"#utility.yul\":18111:18126   */\n      revert\n        /* \"#utility.yul\":18138:18279   */\n    tag_419:\n        /* \"#utility.yul\":18187:18191   */\n      0x00\n        /* \"#utility.yul\":18210:18213   */\n      dup2\n        /* \"#utility.yul\":18202:18213   */\n      swap1\n      pop\n        /* \"#utility.yul\":18233:18236   */\n      dup2\n        /* \"#utility.yul\":18230:18231   */\n      0x00\n        /* \"#utility.yul\":18223:18237   */\n      mstore\n        /* \"#utility.yul\":18267:18271   */\n      0x20\n        /* \"#utility.yul\":18264:18265   */\n      0x00\n        /* \"#utility.yul\":18254:18272   */\n      keccak256\n        /* \"#utility.yul\":18246:18272   */\n      swap1\n      pop\n        /* \"#utility.yul\":18138:18279   */\n      swap2\n      swap1\n      pop\n      jump\t// out\n        /* \"#utility.yul\":18285:18430   */\n    tag_420:\n        /* \"#utility.yul\":18338:18342   */\n      0x00\n        /* \"#utility.yul\":18361:18364   */\n      dup2\n        /* \"#utility.yul\":18353:18364   */\n      swap1\n      pop\n        /* \"#utility.yul\":18384:18387   */\n      dup2\n        /* \"#utility.yul\":18381:18382   */\n      0x00\n        /* \"#utility.yul\":18374:18388   */\n      mstore\n        /* \"#utility.yul\":18418:18422   */\n      0x20\n        /* \"#utility.yul\":18415:18416   */\n      0x00\n        /* \"#utility.yul\":18405:18423   */\n      keccak256\n        /* \"#utility.yul\":18397:18423   */\n      swap1\n      pop\n        /* \"#utility.yul\":18285:18430   */\n      swap2\n      swap1\n      pop\n      jump\t// out\n        /* \"#utility.yul\":18436:18529   */\n    tag_421:\n        /* \"#utility.yul\":18473:18479   */\n      0x00\n        /* \"#utility.yul\":18520:18522   */\n      0x20\n        /* \"#utility.yul\":18515:18517   */\n      0x1f\n        /* \"#utility.yul\":18508:18513   */\n      dup4\n        /* \"#utility.yul\":18504:18518   */\n      add\n        /* \"#utility.yul\":18500:18523   */\n      div\n        /* \"#utility.yul\":18490:18523   */\n      swap1\n      pop\n        /* \"#utility.yul\":18436:18529   */\n      swap2\n      swap1\n      pop\n      jump\t// out\n        /* \"#utility.yul\":18535:18642   */\n    tag_422:\n        /* \"#utility.yul\":18579:18587   */\n      0x00\n        /* \"#utility.yul\":18629:18634   */\n      dup3\n        /* \"#utility.yul\":18623:18627   */\n      dup3\n        /* \"#utility.yul\":18619:18635   */\n      shl\n        /* \"#utility.yul\":18598:18635   */\n      swap1\n      pop\n        /* \"#utility.yul\":18535:18642   */\n      swap3\n      swap2\n      pop\n      pop\n      jump\t// out\n        /* \"#utility.yul\":18648:19041   */\n    tag_423:\n        /* \"#utility.yul\":18717:18723   */\n      0x00\n        /* \"#utility.yul\":18767:18768   */\n      0x08\n        /* \"#utility.yul\":18755:18765   */\n      dup4\n        /* \"#utility.yul\":18751:18769   */\n      mul\n        /* \"#utility.yul\":18790:18887   */\n      tag_610\n        /* \"#utility.yul\":18820:18886   */\n      0xffffffffffffffffffffffffffffffffffffffffffffffffffffffffffffffff\n        /* \"#utility.yul\":18809:18818   */\n      dup3\n        /* \"#utility.yul\":18790:18887   */\n      tag_422\n      jump\t// in\n    tag_610:\n        /* \"#utility.yul\":18908:18947   */\n      tag_611\n        /* \"#utility.yul\":18938:18946   */\n      dup7\n        /* \"#utility.yul\":18927:18936   */\n      dup4\n        /* \"#utility.yul\":18908:18947   */\n      tag_422\n      jump\t// in\n    tag_611:\n        /* \"#utility.yul\":18896:18947   */\n      swap6\n      pop\n        /* \"#utility.yul\":18980:18984   */\n      dup1\n        /* \"#utility.yul\":18976:18985   */\n      not\n        /* \"#utility.yul\":18969:18974   */\n      dup5\n        /* \"#utility.yul\":18965:18986   */\n      and\n        /* \"#utility.yul\":18956:18986   */\n      swap4\n      pop\n        /* \"#utility.yul\":19029:19033   */\n      dup1\n        /* \"#utility.yul\":19019:19027   */\n      dup7\n        /* \"#utility.yul\":19015:19034   */\n      and\n        /* \"#utility.yul\":19008:19013   */\n      dup5\n        /* \"#utility.yul\":19005:19035   */\n      or\n        /* \"#utility.yul\":18995:19035   */\n      swap3\n      pop\n        /* \"#utility.yul\":18724:19041   */\n      pop\n      pop\n        /* \"#utility.yul\":18648:19041   */\n      swap4\n      swap3\n      pop\n      pop\n      pop\n      jump\t// out\n        /* \"#utility.yul\":19047:19107   */\n    tag_424:\n        /* \"#utility.yul\":19075:19078   */\n      0x00\n        /* \"#utility.yul\":19096:19101   */\n      dup2\n        /* \"#utility.yul\":19089:19101   */\n      swap1\n      pop\n        /* \"#utility.yul\":19047:19107   */\n      swap2\n      swap1\n      pop\n      jump\t// out\n        /* \"#utility.yul\":19113:19255   */\n    tag_425:\n        /* \"#utility.yul\":19163:19172   */\n      0x00\n        /* \"#utility.yul\":19196:19249   */\n      tag_614\n        /* \"#utility.yul\":19214:19248   */\n      tag_615\n        /* \"#utility.yul\":19223:19247   */\n      tag_616\n        /* \"#utility.yul\":19241:19246   */\n      dup5\n        /* \"#utility.yul\":19223:19247   */\n      tag_382\n      jump\t// in\n    tag_616:\n        /* \"#utility.yul\":19214:19248   */\n      tag_424\n      jump\t// in\n    tag_615:\n        /* \"#utility.yul\":19196:19249   */\n      tag_382\n      jump\t// in\n    tag_614:\n        /* \"#utility.yul\":19183:19249   */\n      swap1\n      pop\n        /* \"#utility.yul\":19113:19255   */\n      swap2\n      swap1\n      pop\n      jump\t// out\n        /* \"#utility.yul\":19261:19336   */\n    tag_426:\n        /* \"#utility.yul\":19304:19307   */\n      0x00\n        /* \"#utility.yul\":19325:19330   */\n      dup2\n        /* \"#utility.yul\":19318:19330   */\n      swap1\n      pop\n        /* \"#utility.yul\":19261:19336   */\n      swap2\n      swap1\n      pop\n      jump\t// out\n        /* \"#utility.yul\":19342:19611   */\n    tag_427:\n        /* \"#utility.yul\":19452:19491   */\n      tag_619\n        /* \"#utility.yul\":19483:19490   */\n      dup4\n        /* \"#utility.yul\":19452:19491   */\n      tag_425\n      jump\t// in\n    tag_619:\n        /* \"#utility.yul\":19513:19604   */\n      tag_620\n        /* \"#utility.yul\":19562:19603   */\n      tag_621\n        /* \"#utility.yul\":19586:19602   */\n      dup3\n        /* \"#utility.yul\":19562:19603   */\n      tag_426\n      jump\t// in\n    tag_621:\n        /* \"#utility.yul\":19554:19560   */\n      dup5\n        /* \"#utility.yul\":19547:19551   */\n      dup5\n        /* \"#utility.yul\":19541:19552   */\n      sload\n        /* \"#utility.yul\":19513:19604   */\n      tag_423\n      jump\t// in\n    tag_620:\n        /* \"#utility.yul\":19507:19511   */\n      dup3\n        /* \"#utility.yul\":19500:19605   */\n      sstore\n        /* \"#utility.yul\":19418:19611   */\n      pop\n        /* \"#utility.yul\":19342:19611   */\n      pop\n      pop\n      pop\n      jump\t// out\n        /* \"#utility.yul\":19617:19690   */\n    tag_428:\n        /* \"#utility.yul\":19662:19665   */\n      0x00\n        /* \"#utility.yul\":19617:19690   */\n      swap1\n      jump\t// out\n        /* \"#utility.yul\":19696:19885   */\n    tag_429:\n        /* \"#utility.yul\":19773:19805   */\n      tag_624\n      tag_428\n      jump\t// in\n    tag_624:\n        /* \"#utility.yul\":19814:19879   */\n      tag_625\n        /* \"#utility.yul\":19872:19878   */\n      dup2\n        /* \"#utility.yul\":19864:19870   */\n      dup5\n        /* \"#utility.yul\":19858:19862   */\n      dup5\n        /* \"#utility.yul\":19814:19879   */\n      tag_427\n      jump\t// in\n    tag_625:\n        /* \"#utility.yul\":19749:19885   */\n      pop\n        /* \"#utility.yul\":19696:19885   */\n      pop\n      pop\n      jump\t// out\n        /* \"#utility.yul\":19891:20077   */\n    tag_430:\n        /* \"#utility.yul\":19951:20071   */\n    tag_627:\n        /* \"#utility.yul\":19968:19971   */\n      dup2\n        /* \"#utility.yul\":19961:19966   */\n      dup2\n        /* \"#utility.yul\":19958:19972   */\n      lt\n        /* \"#utility.yul\":19951:20071   */\n      iszero\n      tag_629\n      jumpi\n        /* \"#utility.yul\":20022:20061   */\n      tag_630\n        /* \"#utility.yul\":20059:20060   */\n      0x00\n        /* \"#utility.yul\":20052:20057   */\n      dup3\n        /* \"#utility.yul\":20022:20061   */\n      tag_429\n      jump\t// in\n    tag_630:\n        /* \"#utility.yul\":19995:19996   */\n      0x01\n        /* \"#utility.yul\":19988:19993   */\n      dup2\n        /* \"#utility.yul\":19984:19997   */\n      add\n        /* \"#utility.yul\":19975:19997   */\n      swap1\n      pop\n        /* \"#utility.yul\":19951:20071   */\n      jump(tag_627)\n    tag_629:\n        /* \"#utility.yul\":19891:20077   */\n      pop\n      pop\n      jump\t// out\n        /* \"#utility.yul\":20083:20626   */\n    tag_431:\n        /* \"#utility.yul\":20184:20186   */\n      0x1f\n        /* \"#utility.yul\":20179:20182   */\n      dup3\n        /* \"#utility.yul\":20176:20187   */\n      gt\n        /* \"#utility.yul\":20173:20619   */\n      iszero\n      tag_632\n      jumpi\n        /* \"#utility.yul\":20218:20256   */\n      tag_633\n        /* \"#utility.yul\":20250:20255   */\n      dup2\n        /* \"#utility.yul\":20218:20256   */\n      tag_419\n      jump\t// in\n    tag_633:\n        /* \"#utility.yul\":20302:20331   */\n      tag_634\n        /* \"#utility.yul\":20320:20330   */\n      dup5\n        /* \"#utility.yul\":20302:20331   */\n      tag_421\n      jump\t// in\n    tag_634:\n        /* \"#utility.yul\":20292:20300   */\n      dup2\n        /* \"#utility.yul\":20288:20332   */\n      add\n        /* \"#utility.yul\":20485:20487   */\n      0x20\n        /* \"#utility.yul\":20473:20483   */\n      dup6\n        /* \"#utility.yul\":20470:20488   */\n      lt\n        /* \"#utility.yul\":20467:20516   */\n      iszero\n      tag_635\n      jumpi\n        /* \"#utility.yul\":20506:20514   */\n      dup2\n        /* \"#utility.yul\":20491:20514   */\n      swap1\n      pop\n        /* \"#utility.yul\":20467:20516   */\n    tag_635:\n        /* \"#utility.yul\":20529:20609   */\n      tag_636\n        /* \"#utility.yul\":20585:20607   */\n      tag_637\n        /* \"#utility.yul\":20603:20606   */\n      dup6\n        /* \"#utility.yul\":20585:20607   */\n      tag_421\n      jump\t// in\n    tag_637:\n        /* \"#utility.yul\":20575:20583   */\n      dup4\n        /* \"#utility.yul\":20571:20608   */\n      add\n        /* \"#utility.yul\":20558:20569   */\n      dup3\n        /* \"#utility.yul\":20529:20609   */\n      tag_430\n      jump\t// in\n    tag_636:\n        /* \"#utility.yul\":20188:20619   */\n      pop\n      pop\n        /* \"#utility.yul\":20173:20619   */\n    tag_632:\n        /* \"#utility.yul\":20083:20626   */\n      pop\n      pop\n      pop\n      jump\t// out\n        /* \"#utility.yul\":20632:20749   */\n    tag_432:\n        /* \"#utility.yul\":20686:20694   */\n      0x00\n        /* \"#utility.yul\":20736:20741   */\n      dup3\n        /* \"#utility.yul\":20730:20734   */\n      dup3\n        /* \"#utility.yul\":20726:20742   */\n      shr\n        /* \"#utility.yul\":20705:20742   */\n      swap1\n      pop\n        /* \"#utility.yul\":20632:20749   */\n      swap3\n      swap2\n      pop\n      pop\n      jump\t// out\n        /* \"#utility.yul\":20755:20924   */\n    tag_433:\n        /* \"#utility.yul\":20799:20805   */\n      0x00\n        /* \"#utility.yul\":20832:20883   */\n      tag_640\n        /* \"#utility.yul\":20880:20881   */\n      0x00\n        /* \"#utility.yul\":20876:20882   */\n      not\n        /* \"#utility.yul\":20868:20873   */\n      dup5\n        /* \"#utility.yul\":20865:20866   */\n      0x08\n        /* \"#utility.yul\":20861:20874   */\n      mul\n        /* \"#utility.yul\":20832:20883   */\n      tag_432\n      jump\t// in\n    tag_640:\n        /* \"#utility.yul\":20828:20884   */\n      not\n        /* \"#utility.yul\":20913:20917   */\n      dup1\n        /* \"#utility.yul\":20907:20911   */\n      dup4\n        /* \"#utility.yul\":20903:20918   */\n      and\n        /* \"#utility.yul\":20893:20918   */\n      swap2\n      pop\n        /* \"#utility.yul\":20806:20924   */\n      pop\n        /* \"#utility.yul\":20755:20924   */\n      swap3\n      swap2\n      pop\n      pop\n      jump\t// out\n        /* \"#utility.yul\":20929:21224   */\n    tag_434:\n        /* \"#utility.yul\":21005:21009   */\n      0x00\n        /* \"#utility.yul\":21151:21180   */\n      tag_642\n        /* \"#utility.yul\":21176:21179   */\n      dup4\n        /* \"#utility.yul\":21170:21174   */\n      dup4\n        /* \"#utility.yul\":21151:21180   */\n      tag_433\n      jump\t// in\n    tag_642:\n        /* \"#utility.yul\":21143:21180   */\n      swap2\n      pop\n        /* \"#utility.yul\":21213:21216   */\n      dup3\n        /* \"#utility.yul\":21210:21211   */\n      0x02\n        /* \"#utility.yul\":21206:21217   */\n      mul\n        /* \"#utility.yul\":21200:21204   */\n      dup3\n        /* \"#utility.yul\":21197:21218   */\n      or\n        /* \"#utility.yul\":21189:21218   */\n      swap1\n      pop\n        /* \"#utility.yul\":20929:21224   */\n      swap3\n      swap2\n      pop\n      pop\n      jump\t// out\n        /* \"#utility.yul\":21229:22692   */\n    tag_93:\n        /* \"#utility.yul\":21344:21347   */\n      dup2\n        /* \"#utility.yul\":21338:21342   */\n      dup2\n        /* \"#utility.yul\":21335:21348   */\n      sub\n        /* \"#utility.yul\":21332:21358   */\n      tag_644\n      jumpi\n        /* \"#utility.yul\":21351:21356   */\n      pop\n      pop\n      jump(tag_643)\n        /* \"#utility.yul\":21332:21358   */\n    tag_644:\n        /* \"#utility.yul\":21382:21420   */\n      tag_645\n        /* \"#utility.yul\":21416:21419   */\n      dup3\n        /* \"#utility.yul\":21382:21420   */\n      tag_418\n      jump\t// in\n    tag_645:\n        /* \"#utility.yul\":21485:21503   */\n      0xffffffffffffffff\n        /* \"#utility.yul\":21477:21483   */\n      dup2\n        /* \"#utility.yul\":21474:21504   */\n      gt\n        /* \"#utility.yul\":21471:21527   */\n      iszero\n      tag_646\n      jumpi\n        /* \"#utility.yul\":21507:21525   */\n      tag_647\n      tag_130\n      jump\t// in\n    tag_647:\n        /* \"#utility.yul\":21471:21527   */\n    tag_646:\n        /* \"#utility.yul\":21551:21589   */\n      tag_648\n        /* \"#utility.yul\":21583:21587   */\n      dup3\n        /* \"#utility.yul\":21577:21588   */\n      sload\n        /* \"#utility.yul\":21551:21589   */\n      tag_63\n      jump\t// in\n    tag_648:\n        /* \"#utility.yul\":21636:21703   */\n      tag_649\n        /* \"#utility.yul\":21696:21702   */\n      dup3\n        /* \"#utility.yul\":21688:21694   */\n      dup3\n        /* \"#utility.yul\":21682:21686   */\n      dup6\n        /* \"#utility.yul\":21636:21703   */\n      tag_431\n      jump\t// in\n    tag_649:\n        /* \"#utility.yul\":21730:21731   */\n      0x00\n        /* \"#utility.yul\":21759:21761   */\n      0x1f\n        /* \"#utility.yul\":21751:21757   */\n      dup4\n        /* \"#utility.yul\":21748:21762   */\n      gt\n        /* \"#utility.yul\":21776:21777   */\n      0x01\n        /* \"#utility.yul\":21771:22447   */\n      dup2\n      eq\n      tag_651\n      jumpi\n        /* \"#utility.yul\":22491:22492   */\n      0x00\n        /* \"#utility.yul\":22508:22514   */\n      dup5\n        /* \"#utility.yul\":22505:22582   */\n      iszero\n      tag_652\n      jumpi\n        /* \"#utility.yul\":22557:22566   */\n      dup3\n        /* \"#utility.yul\":22552:22555   */\n      dup8\n        /* \"#utility.yul\":22548:22567   */\n      add\n        /* \"#utility.yul\":22542:22568   */\n      sload\n        /* \"#utility.yul\":22533:22568   */\n      swap1\n      pop\n        /* \"#utility.yul\":22505:22582   */\n    tag_652:\n        /* \"#utility.yul\":22608:22675   */\n      tag_653\n        /* \"#utility.yul\":22668:22674   */\n      dup6\n        /* \"#utility.yul\":22661:22666   */\n      dup3\n        /* \"#utility.yul\":22608:22675   */\n      tag_434\n      jump\t// in\n    tag_653:\n        /* \"#utility.yul\":22602:22606   */\n      dup7\n        /* \"#utility.yul\":22595:22676   */\n      sstore\n        /* \"#utility.yul\":22464:22686   */\n      pop\n        /* \"#utility.yul\":21741:22686   */\n      jump(tag_650)\n        /* \"#utility.yul\":21771:22447   */\n    tag_651:\n        /* \"#utility.yul\":21823:21827   */\n      0x1f\n        /* \"#utility.yul\":21819:21828   */\n      not\n        /* \"#utility.yul\":21811:21817   */\n      dup5\n        /* \"#utility.yul\":21807:21829   */\n      and\n        /* \"#utility.yul\":21849:21889   */\n      tag_654\n        /* \"#utility.yul\":21885:21888   */\n      dup8\n        /* \"#utility.yul\":21849:21889   */\n      tag_420\n      jump\t// in\n    tag_654:\n        /* \"#utility.yul\":21842:21889   */\n      swap7\n      pop\n        /* \"#utility.yul\":21916:21953   */\n      tag_655\n        /* \"#utility.yul\":21948:21952   */\n      dup7\n        /* \"#utility.yul\":21916:21953   */\n      tag_419\n      jump\t// in\n    tag_655:\n        /* \"#utility.yul\":21975:21976   */\n      0x00\n        /* \"#utility.yul\":21989:22196   */\n    tag_656:\n        /* \"#utility.yul\":22003:22010   */\n      dup3\n        /* \"#utility.yul\":22000:22001   */\n      dup2\n        /* \"#utility.yul\":21997:22011   */\n      lt\n        /* \"#utility.yul\":21989:22196   */\n      iszero\n      tag_658\n      jumpi\n        /* \"#utility.yul\":22082:22091   */\n      dup5\n        /* \"#utility.yul\":22077:22080   */\n      dup10\n        /* \"#utility.yul\":22073:22092   */\n      add\n        /* \"#utility.yul\":22067:22093   */\n      sload\n        /* \"#utility.yul\":22059:22065   */\n      dup3\n        /* \"#utility.yul\":22052:22094   */\n      sstore\n        /* \"#utility.yul\":22133:22134   */\n      0x01\n        /* \"#utility.yul\":22125:22131   */\n      dup3\n        /* \"#utility.yul\":22121:22135   */\n      add\n        /* \"#utility.yul\":22111:22135   */\n      swap2\n      pop\n        /* \"#utility.yul\":22180:22181   */\n      0x01\n        /* \"#utility.yul\":22169:22178   */\n      dup6\n        /* \"#utility.yul\":22165:22182   */\n      add\n        /* \"#utility.yul\":22152:22182   */\n      swap5\n      pop\n        /* \"#utility.yul\":22026:22030   */\n      0x20\n        /* \"#utility.yul\":22023:22024   */\n      dup2\n        /* \"#utility.yul\":22019:22031   */\n      add\n        /* \"#utility.yul\":22014:22031   */\n      swap1\n      pop\n        /* \"#utility.yul\":21989:22196   */\n      jump(tag_656)\n    tag_658:\n        /* \"#utility.yul\":22224:22230   */\n      dup7\n        /* \"#utility.yul\":22215:22222   */\n      dup4\n        /* \"#utility.yul\":22212:22231   */\n      lt\n        /* \"#utility.yul\":22209:22388   */\n      iszero\n      tag_659\n      jumpi\n        /* \"#utility.yul\":22282:22291   */\n      dup5\n        /* \"#utility.yul\":22277:22280   */\n      dup10\n        /* \"#utility.yul\":22273:22292   */\n      add\n        /* \"#utility.yul\":22267:22293   */\n      sload\n        /* \"#utility.yul\":22325:22373   */\n      tag_660\n        /* \"#utility.yul\":22367:22371   */\n      0x1f\n        /* \"#utility.yul\":22359:22365   */\n      dup10\n        /* \"#utility.yul\":22355:22372   */\n      and\n        /* \"#utility.yul\":22344:22353   */\n      dup3\n        /* \"#utility.yul\":22325:22373   */\n      tag_433\n      jump\t// in\n    tag_660:\n        /* \"#utility.yul\":22317:22323   */\n      dup4\n        /* \"#utility.yul\":22310:22374   */\n      sstore\n        /* \"#utility.yul\":22232:22388   */\n      pop\n        /* \"#utility.yul\":22209:22388   */\n    tag_659:\n        /* \"#utility.yul\":22434:22435   */\n      0x01\n        /* \"#utility.yul\":22430:22431   */\n      0x02\n        /* \"#utility.yul\":22422:22428   */\n      dup9\n        /* \"#utility.yul\":22418:22432   */\n      mul\n        /* \"#utility.yul\":22414:22436   */\n      add\n        /* \"#utility.yul\":22408:22412   */\n      dup9\n        /* \"#utility.yul\":22401:22437   */\n      sstore\n        /* \"#utility.yul\":21778:22447   */\n      pop\n      pop\n      pop\n        /* \"#utility.yul\":21741:22686   */\n    tag_650:\n      pop\n        /* \"#utility.yul\":21322:22692   */\n      pop\n      pop\n      pop\n        /* \"#utility.yul\":21229:22692   */\n      pop\n      pop\n    tag_643:\n      jump\t// out\n        /* \"#utility.yul\":22698:22845   */\n    tag_435:\n        /* \"#utility.yul\":22799:22810   */\n      0x00\n        /* \"#utility.yul\":22836:22839   */\n      dup2\n        /* \"#utility.yul\":22821:22839   */\n      swap1\n      pop\n        /* \"#utility.yul\":22698:22845   */\n      swap3\n      swap2\n      pop\n      pop\n      jump\t// out\n        /* \"#utility.yul\":22851:22965   */\n    tag_436:\n      pop\n      jump\t// out\n        /* \"#utility.yul\":22971:23369   */\n    tag_437:\n        /* \"#utility.yul\":23130:23133   */\n      0x00\n        /* \"#utility.yul\":23151:23234   */\n      tag_664\n        /* \"#utility.yul\":23232:23233   */\n      0x00\n        /* \"#utility.yul\":23227:23230   */\n      dup4\n        /* \"#utility.yul\":23151:23234   */\n      tag_435\n      jump\t// in\n    tag_664:\n        /* \"#utility.yul\":23144:23234   */\n      swap2\n      pop\n        /* \"#utility.yul\":23243:23336   */\n      tag_665\n        /* \"#utility.yul\":23332:23335   */\n      dup3\n        /* \"#utility.yul\":23243:23336   */\n      tag_436\n      jump\t// in\n    tag_665:\n        /* \"#utility.yul\":23361:23362   */\n      0x00\n        /* \"#utility.yul\":23356:23359   */\n      dup3\n        /* \"#utility.yul\":23352:23363   */\n      add\n        /* \"#utility.yul\":23345:23363   */\n      swap1\n      pop\n        /* \"#utility.yul\":22971:23369   */\n      swap2\n      swap1\n      pop\n      jump\t// out\n        /* \"#utility.yul\":23375:23754   */\n    tag_95:\n        /* \"#utility.yul\":23559:23562   */\n      0x00\n        /* \"#utility.yul\":23581:23728   */\n      tag_667\n        /* \"#utility.yul\":23724:23727   */\n      dup3\n        /* \"#utility.yul\":23581:23728   */\n      tag_437\n      jump\t// in\n    tag_667:\n        /* \"#utility.yul\":23574:23728   */\n      swap2\n      pop\n        /* \"#utility.yul\":23745:23748   */\n      dup2\n        /* \"#utility.yul\":23738:23748   */\n      swap1\n      pop\n        /* \"#utility.yul\":23375:23754   */\n      swap2\n      swap1\n      pop\n      jump\t// out\n        /* \"#utility.yul\":23760:23931   */\n    tag_438:\n        /* \"#utility.yul\":23900:23923   */\n      0x4574686572207472616e73666572206661696c65640000000000000000000000\n        /* \"#utility.yul\":23896:23897   */\n      0x00\n        /* \"#utility.yul\":23888:23894   */\n      dup3\n        /* \"#utility.yul\":23884:23898   */\n      add\n        /* \"#utility.yul\":23877:23924   */\n      mstore\n        /* \"#utility.yul\":23760:23931   */\n      pop\n      jump\t// out\n        /* \"#utility.yul\":23937:24303   */\n    tag_439:\n        /* \"#utility.yul\":24079:24082   */\n      0x00\n        /* \"#utility.yul\":24100:24167   */\n      tag_670\n        /* \"#utility.yul\":24164:24166   */\n      0x15\n        /* \"#utility.yul\":24159:24162   */\n      dup4\n        /* \"#utility.yul\":24100:24167   */\n      tag_407\n      jump\t// in\n    tag_670:\n        /* \"#utility.yul\":24093:24167   */\n      swap2\n      pop\n        /* \"#utility.yul\":24176:24269   */\n      tag_671\n        /* \"#utility.yul\":24265:24268   */\n      dup3\n        /* \"#utility.yul\":24176:24269   */\n      tag_438\n      jump\t// in\n    tag_671:\n        /* \"#utility.yul\":24294:24296   */\n      0x20\n        /* \"#utility.yul\":24289:24292   */\n      dup3\n        /* \"#utility.yul\":24285:24297   */\n      add\n        /* \"#utility.yul\":24278:24297   */\n      swap1\n      pop\n        /* \"#utility.yul\":23937:24303   */\n      swap2\n      swap1\n      pop\n      jump\t// out\n        /* \"#utility.yul\":24309:24728   */\n    tag_101:\n        /* \"#utility.yul\":24475:24479   */\n      0x00\n        /* \"#utility.yul\":24513:24515   */\n      0x20\n        /* \"#utility.yul\":24502:24511   */\n      dup3\n        /* \"#utility.yul\":24498:24516   */\n      add\n        /* \"#utility.yul\":24490:24516   */\n      swap1\n      pop\n        /* \"#utility.yul\":24562:24571   */\n      dup2\n        /* \"#utility.yul\":24556:24560   */\n      dup2\n        /* \"#utility.yul\":24552:24572   */\n      sub\n        /* \"#utility.yul\":24548:24549   */\n      0x00\n        /* \"#utility.yul\":24537:24546   */\n      dup4\n        /* \"#utility.yul\":24533:24550   */\n      add\n        /* \"#utility.yul\":24526:24573   */\n      mstore\n        /* \"#utility.yul\":24590:24721   */\n      tag_673\n        /* \"#utility.yul\":24716:24720   */\n      dup2\n        /* \"#utility.yul\":24590:24721   */\n      tag_439\n      jump\t// in\n    tag_673:\n        /* \"#utility.yul\":24582:24721   */\n      swap1\n      pop\n        /* \"#utility.yul\":24309:24728   */\n      swap2\n      swap1\n      pop\n      jump\t// out\n        /* \"#utility.yul\":24758:25632   */\n    tag_440:\n        /* \"#utility.yul\":24861:24864   */\n      0x00\n        /* \"#utility.yul\":24898:24903   */\n      dup2\n        /* \"#utility.yul\":24892:24904   */\n      sload\n        /* \"#utility.yul\":24927:24963   */\n      tag_675\n        /* \"#utility.yul\":24953:24962   */\n      dup2\n        /* \"#utility.yul\":24927:24963   */\n      tag_63\n      jump\t// in\n    tag_675:\n        /* \"#utility.yul\":24979:25068   */\n      tag_676\n        /* \"#utility.yul\":25061:25067   */\n      dup2\n        /* \"#utility.yul\":25056:25059   */\n      dup7\n        /* \"#utility.yul\":24979:25068   */\n      tag_405\n      jump\t// in\n    tag_676:\n        /* \"#utility.yul\":24972:25068   */\n      swap5\n      pop\n        /* \"#utility.yul\":25099:25100   */\n      0x01\n        /* \"#utility.yul\":25088:25097   */\n      dup3\n        /* \"#utility.yul\":25084:25101   */\n      and\n        /* \"#utility.yul\":25115:25116   */\n      0x00\n        /* \"#utility.yul\":25110:25276   */\n      dup2\n      eq\n      tag_678\n      jumpi\n        /* \"#utility.yul\":25290:25291   */\n      0x01\n        /* \"#utility.yul\":25285:25626   */\n      dup2\n      eq\n      tag_679\n      jumpi\n        /* \"#utility.yul\":25077:25626   */\n      jump(tag_677)\n        /* \"#utility.yul\":25110:25276   */\n    tag_678:\n        /* \"#utility.yul\":25194:25198   */\n      0xff\n        /* \"#utility.yul\":25190:25199   */\n      not\n        /* \"#utility.yul\":25179:25188   */\n      dup4\n        /* \"#utility.yul\":25175:25200   */\n      and\n        /* \"#utility.yul\":25170:25173   */\n      dup7\n        /* \"#utility.yul\":25163:25201   */\n      mstore\n        /* \"#utility.yul\":25256:25262   */\n      dup2\n        /* \"#utility.yul\":25249:25263   */\n      iszero\n        /* \"#utility.yul\":25242:25264   */\n      iszero\n        /* \"#utility.yul\":25234:25240   */\n      dup3\n        /* \"#utility.yul\":25230:25265   */\n      mul\n        /* \"#utility.yul\":25225:25228   */\n      dup7\n        /* \"#utility.yul\":25221:25266   */\n      add\n        /* \"#utility.yul\":25214:25266   */\n      swap4\n      pop\n        /* \"#utility.yul\":25110:25276   */\n      jump(tag_677)\n        /* \"#utility.yul\":25285:25626   */\n    tag_679:\n        /* \"#utility.yul\":25352:25390   */\n      tag_680\n        /* \"#utility.yul\":25384:25389   */\n      dup6\n        /* \"#utility.yul\":25352:25390   */\n      tag_419\n      jump\t// in\n    tag_680:\n        /* \"#utility.yul\":25412:25413   */\n      0x00\n        /* \"#utility.yul\":25426:25580   */\n    tag_681:\n        /* \"#utility.yul\":25440:25446   */\n      dup4\n        /* \"#utility.yul\":25437:25438   */\n      dup2\n        /* \"#utility.yul\":25434:25447   */\n      lt\n        /* \"#utility.yul\":25426:25580   */\n      iszero\n      tag_683\n      jumpi\n        /* \"#utility.yul\":25514:25521   */\n      dup2\n        /* \"#utility.yul\":25508:25522   */\n      sload\n        /* \"#utility.yul\":25504:25505   */\n      dup2\n        /* \"#utility.yul\":25499:25502   */\n      dup10\n        /* \"#utility.yul\":25495:25506   */\n      add\n        /* \"#utility.yul\":25488:25523   */\n      mstore\n        /* \"#utility.yul\":25564:25565   */\n      0x01\n        /* \"#utility.yul\":25555:25562   */\n      dup3\n        /* \"#utility.yul\":25551:25566   */\n      add\n        /* \"#utility.yul\":25540:25566   */\n      swap2\n      pop\n        /* \"#utility.yul\":25462:25466   */\n      0x20\n        /* \"#utility.yul\":25459:25460   */\n      dup2\n        /* \"#utility.yul\":25455:25467   */\n      add\n        /* \"#utility.yul\":25450:25467   */\n      swap1\n      pop\n        /* \"#utility.yul\":25426:25580   */\n      jump(tag_681)\n    tag_683:\n        /* \"#utility.yul\":25609:25615   */\n      dup4\n        /* \"#utility.yul\":25604:25607   */\n      dup9\n        /* \"#utility.yul\":25600:25616   */\n      add\n        /* \"#utility.yul\":25593:25616   */\n      swap6\n      pop\n        /* \"#utility.yul\":25292:25626   */\n      pop\n      pop\n        /* \"#utility.yul\":25077:25626   */\n    tag_677:\n      pop\n        /* \"#utility.yul\":24865:25632   */\n      pop\n      pop\n        /* \"#utility.yul\":24758:25632   */\n      swap3\n      swap2\n      pop\n      pop\n      jump\t// out\n        /* \"#utility.yul\":25638:25907   */\n    tag_109:\n        /* \"#utility.yul\":25767:25770   */\n      0x00\n        /* \"#utility.yul\":25789:25881   */\n      tag_685\n        /* \"#utility.yul\":25877:25880   */\n      dup3\n        /* \"#utility.yul\":25868:25874   */\n      dup5\n        /* \"#utility.yul\":25789:25881   */\n      tag_440\n      jump\t// in\n    tag_685:\n        /* \"#utility.yul\":25782:25881   */\n      swap2\n      pop\n        /* \"#utility.yul\":25898:25901   */\n      dup2\n        /* \"#utility.yul\":25891:25901   */\n      swap1\n      pop\n        /* \"#utility.yul\":25638:25907   */\n      swap3\n      swap2\n      pop\n      pop\n      jump\t// out\n        /* \"#utility.yul\":25913:26093   */\n    tag_115:\n        /* \"#utility.yul\":25961:26038   */\n      0x4e487b7100000000000000000000000000000000000000000000000000000000\n        /* \"#utility.yul\":25958:25959   */\n      0x00\n        /* \"#utility.yul\":25951:26039   */\n      mstore\n        /* \"#utility.yul\":26058:26062   */\n      0x32\n        /* \"#utility.yul\":26055:26056   */\n      0x04\n        /* \"#utility.yul\":26048:26063   */\n      mstore\n        /* \"#utility.yul\":26082:26086   */\n      0x24\n        /* \"#utility.yul\":26079:26080   */\n      0x00\n        /* \"#utility.yul\":26072:26087   */\n      revert\n        /* \"#utility.yul\":26099:26279   */\n    tag_441:\n        /* \"#utility.yul\":26147:26224   */\n      0x4e487b7100000000000000000000000000000000000000000000000000000000\n        /* \"#utility.yul\":26144:26145   */\n      0x00\n        /* \"#utility.yul\":26137:26225   */\n      mstore\n        /* \"#utility.yul\":26244:26248   */\n      0x11\n        /* \"#utility.yul\":26241:26242   */\n      0x04\n        /* \"#utility.yul\":26234:26249   */\n      mstore\n        /* \"#utility.yul\":26268:26272   */\n      0x24\n        /* \"#utility.yul\":26265:26266   */\n      0x00\n        /* \"#utility.yul\":26258:26273   */\n      revert\n        /* \"#utility.yul\":26285:26518   */\n    tag_127:\n        /* \"#utility.yul\":26324:26327   */\n      0x00\n        /* \"#utility.yul\":26347:26371   */\n      tag_689\n        /* \"#utility.yul\":26365:26370   */\n      dup3\n        /* \"#utility.yul\":26347:26371   */\n      tag_382\n      jump\t// in\n    tag_689:\n        /* \"#utility.yul\":26338:26371   */\n      swap2\n      pop\n        /* \"#utility.yul\":26393:26459   */\n      0xffffffffffffffffffffffffffffffffffffffffffffffffffffffffffffffff\n        /* \"#utility.yul\":26386:26391   */\n      dup3\n        /* \"#utility.yul\":26383:26460   */\n      sub\n        /* \"#utility.yul\":26380:26483   */\n      tag_690\n      jumpi\n        /* \"#utility.yul\":26463:26481   */\n      tag_691\n      tag_441\n      jump\t// in\n    tag_691:\n        /* \"#utility.yul\":26380:26483   */\n    tag_690:\n        /* \"#utility.yul\":26510:26511   */\n      0x01\n        /* \"#utility.yul\":26503:26508   */\n      dup3\n        /* \"#utility.yul\":26499:26512   */\n      add\n        /* \"#utility.yul\":26492:26512   */\n      swap1\n      pop\n        /* \"#utility.yul\":26285:26518   */\n      swap2\n      swap1\n      pop\n      jump\t// out\n        /* \"#utility.yul\":26524:26694   */\n    tag_442:\n        /* \"#utility.yul\":26664:26686   */\n      0x596f7520617265206e6f7420616e2061646d696e000000000000000000000000\n        /* \"#utility.yul\":26660:26661   */\n      0x00\n        /* \"#utility.yul\":26652:26658   */\n      dup3\n        /* \"#utility.yul\":26648:26662   */\n      add\n        /* \"#utility.yul\":26641:26687   */\n      mstore\n        /* \"#utility.yul\":26524:26694   */\n      pop\n      jump\t// out\n        /* \"#utility.yul\":26700:27066   */\n    tag_443:\n        /* \"#utility.yul\":26842:26845   */\n      0x00\n        /* \"#utility.yul\":26863:26930   */\n      tag_694\n        /* \"#utility.yul\":26927:26929   */\n      0x14\n        /* \"#utility.yul\":26922:26925   */\n      dup4\n        /* \"#utility.yul\":26863:26930   */\n      tag_407\n      jump\t// in\n    tag_694:\n        /* \"#utility.yul\":26856:26930   */\n      swap2\n      pop\n        /* \"#utility.yul\":26939:27032   */\n      tag_695\n        /* \"#utility.yul\":27028:27031   */\n      dup3\n        /* \"#utility.yul\":26939:27032   */\n      tag_442\n      jump\t// in\n    tag_695:\n        /* \"#utility.yul\":27057:27059   */\n      0x20\n        /* \"#utility.yul\":27052:27055   */\n      dup3\n        /* \"#utility.yul\":27048:27060   */\n      add\n        /* \"#utility.yul\":27041:27060   */\n      swap1\n      pop\n        /* \"#utility.yul\":26700:27066   */\n      swap2\n      swap1\n      pop\n      jump\t// out\n        /* \"#utility.yul\":27072:27491   */\n    tag_187:\n        /* \"#utility.yul\":27238:27242   */\n      0x00\n        /* \"#utility.yul\":27276:27278   */\n      0x20\n        /* \"#utility.yul\":27265:27274   */\n      dup3\n        /* \"#utility.yul\":27261:27279   */\n      add\n        /* \"#utility.yul\":27253:27279   */\n      swap1\n      pop\n        /* \"#utility.yul\":27325:27334   */\n      dup2\n        /* \"#utility.yul\":27319:27323   */\n      dup2\n        /* \"#utility.yul\":27315:27335   */\n      sub\n        /* \"#utility.yul\":27311:27312   */\n      0x00\n        /* \"#utility.yul\":27300:27309   */\n      dup4\n        /* \"#utility.yul\":27296:27313   */\n      add\n        /* \"#utility.yul\":27289:27336   */\n      mstore\n        /* \"#utility.yul\":27353:27484   */\n      tag_697\n        /* \"#utility.yul\":27479:27483   */\n      dup2\n        /* \"#utility.yul\":27353:27484   */\n      tag_443\n      jump\t// in\n    tag_697:\n        /* \"#utility.yul\":27345:27484   */\n      swap1\n      pop\n        /* \"#utility.yul\":27072:27491   */\n      swap2\n      swap1\n      pop\n      jump\t// out\n        /* \"#utility.yul\":27497:28892   */\n    tag_214:\n        /* \"#utility.yul\":27614:27651   */\n      tag_699\n        /* \"#utility.yul\":27647:27650   */\n      dup3\n        /* \"#utility.yul\":27614:27651   */\n      tag_377\n      jump\t// in\n    tag_699:\n        /* \"#utility.yul\":27716:27734   */\n      0xffffffffffffffff\n        /* \"#utility.yul\":27708:27714   */\n      dup2\n        /* \"#utility.yul\":27705:27735   */\n      gt\n        /* \"#utility.yul\":27702:27758   */\n      iszero\n      tag_700\n      jumpi\n        /* \"#utility.yul\":27738:27756   */\n      tag_701\n      tag_130\n      jump\t// in\n    tag_701:\n        /* \"#utility.yul\":27702:27758   */\n    tag_700:\n        /* \"#utility.yul\":27782:27820   */\n      tag_702\n        /* \"#utility.yul\":27814:27818   */\n      dup3\n        /* \"#utility.yul\":27808:27819   */\n      sload\n        /* \"#utility.yul\":27782:27820   */\n      tag_63\n      jump\t// in\n    tag_702:\n        /* \"#utility.yul\":27867:27934   */\n      tag_703\n        /* \"#utility.yul\":27927:27933   */\n      dup3\n        /* \"#utility.yul\":27919:27925   */\n      dup3\n        /* \"#utility.yul\":27913:27917   */\n      dup6\n        /* \"#utility.yul\":27867:27934   */\n      tag_431\n      jump\t// in\n    tag_703:\n        /* \"#utility.yul\":27961:27962   */\n      0x00\n        /* \"#utility.yul\":27985:27989   */\n      0x20\n        /* \"#utility.yul\":27972:27989   */\n      swap1\n      pop\n        /* \"#utility.yul\":28017:28019   */\n      0x1f\n        /* \"#utility.yul\":28009:28015   */\n      dup4\n        /* \"#utility.yul\":28006:28020   */\n      gt\n        /* \"#utility.yul\":28034:28035   */\n      0x01\n        /* \"#utility.yul\":28029:28647   */\n      dup2\n      eq\n      tag_705\n      jumpi\n        /* \"#utility.yul\":28691:28692   */\n      0x00\n        /* \"#utility.yul\":28708:28714   */\n      dup5\n        /* \"#utility.yul\":28705:28782   */\n      iszero\n      tag_706\n      jumpi\n        /* \"#utility.yul\":28757:28766   */\n      dup3\n        /* \"#utility.yul\":28752:28755   */\n      dup8\n        /* \"#utility.yul\":28748:28767   */\n      add\n        /* \"#utility.yul\":28742:28768   */\n      mload\n        /* \"#utility.yul\":28733:28768   */\n      swap1\n      pop\n        /* \"#utility.yul\":28705:28782   */\n    tag_706:\n        /* \"#utility.yul\":28808:28875   */\n      tag_707\n        /* \"#utility.yul\":28868:28874   */\n      dup6\n        /* \"#utility.yul\":28861:28866   */\n      dup3\n        /* \"#utility.yul\":28808:28875   */\n      tag_434\n      jump\t// in\n    tag_707:\n        /* \"#utility.yul\":28802:28806   */\n      dup7\n        /* \"#utility.yul\":28795:28876   */\n      sstore\n        /* \"#utility.yul\":28664:28886   */\n      pop\n        /* \"#utility.yul\":27999:28886   */\n      jump(tag_704)\n        /* \"#utility.yul\":28029:28647   */\n    tag_705:\n        /* \"#utility.yul\":28081:28085   */\n      0x1f\n        /* \"#utility.yul\":28077:28086   */\n      not\n        /* \"#utility.yul\":28069:28075   */\n      dup5\n        /* \"#utility.yul\":28065:28087   */\n      and\n        /* \"#utility.yul\":28115:28152   */\n      tag_708\n        /* \"#utility.yul\":28147:28151   */\n      dup7\n        /* \"#utility.yul\":28115:28152   */\n      tag_419\n      jump\t// in\n    tag_708:\n        /* \"#utility.yul\":28174:28175   */\n      0x00\n        /* \"#utility.yul\":28188:28396   */\n    tag_709:\n        /* \"#utility.yul\":28202:28209   */\n      dup3\n        /* \"#utility.yul\":28199:28200   */\n      dup2\n        /* \"#utility.yul\":28196:28210   */\n      lt\n        /* \"#utility.yul\":28188:28396   */\n      iszero\n      tag_711\n      jumpi\n        /* \"#utility.yul\":28281:28290   */\n      dup5\n        /* \"#utility.yul\":28276:28279   */\n      dup10\n        /* \"#utility.yul\":28272:28291   */\n      add\n        /* \"#utility.yul\":28266:28292   */\n      mload\n        /* \"#utility.yul\":28258:28264   */\n      dup3\n        /* \"#utility.yul\":28251:28293   */\n      sstore\n        /* \"#utility.yul\":28332:28333   */\n      0x01\n        /* \"#utility.yul\":28324:28330   */\n      dup3\n        /* \"#utility.yul\":28320:28334   */\n      add\n        /* \"#utility.yul\":28310:28334   */\n      swap2\n      pop\n        /* \"#utility.yul\":28379:28381   */\n      0x20\n        /* \"#utility.yul\":28368:28377   */\n      dup6\n        /* \"#utility.yul\":28364:28382   */\n      add\n        /* \"#utility.yul\":28351:28382   */\n      swap5\n      pop\n        /* \"#utility.yul\":28225:28229   */\n      0x20\n        /* \"#utility.yul\":28222:28223   */\n      dup2\n        /* \"#utility.yul\":28218:28230   */\n      add\n        /* \"#utility.yul\":28213:28230   */\n      swap1\n      pop\n        /* \"#utility.yul\":28188:28396   */\n      jump(tag_709)\n    tag_711:\n        /* \"#utility.yul\":28424:28430   */\n      dup7\n        /* \"#utility.yul\":28415:28422   */\n      dup4\n        /* \"#utility.yul\":28412:28431   */\n      lt\n        /* \"#utility.yul\":28409:28588   */\n      iszero\n      tag_712\n      jumpi\n        /* \"#utility.yul\":28482:28491   */\n      dup5\n        /* \"#utility.yul\":28477:28480   */\n      dup10\n        /* \"#utility.yul\":28473:28492   */\n      add\n        /* \"#utility.yul\":28467:28493   */\n      mload\n        /* \"#utility.yul\":28525:28573   */\n      tag_713\n        /* \"#utility.yul\":28567:28571   */\n      0x1f\n        /* \"#utility.yul\":28559:28565   */\n      dup10\n        /* \"#utility.yul\":28555:28572   */\n      and\n        /* \"#utility.yul\":28544:28553   */\n      dup3\n        /* \"#utility.yul\":28525:28573   */\n      tag_433\n      jump\t// in\n    tag_713:\n        /* \"#utility.yul\":28517:28523   */\n      dup4\n        /* \"#utility.yul\":28510:28574   */\n      sstore\n        /* \"#utility.yul\":28432:28588   */\n      pop\n        /* \"#utility.yul\":28409:28588   */\n    tag_712:\n        /* \"#utility.yul\":28634:28635   */\n      0x01\n        /* \"#utility.yul\":28630:28631   */\n      0x02\n        /* \"#utility.yul\":28622:28628   */\n      dup9\n        /* \"#utility.yul\":28618:28632   */\n      mul\n        /* \"#utility.yul\":28614:28636   */\n      add\n        /* \"#utility.yul\":28608:28612   */\n      dup9\n        /* \"#utility.yul\":28601:28637   */\n      sstore\n        /* \"#utility.yul\":28036:28647   */\n      pop\n      pop\n      pop\n        /* \"#utility.yul\":27999:28886   */\n    tag_704:\n      pop\n        /* \"#utility.yul\":27589:28892   */\n      pop\n      pop\n      pop\n        /* \"#utility.yul\":27497:28892   */\n      pop\n      pop\n      jump\t// out\n        /* \"#utility.yul\":28898:29308   */\n    tag_225:\n        /* \"#utility.yul\":28938:28945   */\n      0x00\n        /* \"#utility.yul\":28961:28981   */\n      tag_715\n        /* \"#utility.yul\":28979:28980   */\n      dup3\n        /* \"#utility.yul\":28961:28981   */\n      tag_382\n      jump\t// in\n    tag_715:\n        /* \"#utility.yul\":28956:28981   */\n      swap2\n      pop\n        /* \"#utility.yul\":28995:29015   */\n      tag_716\n        /* \"#utility.yul\":29013:29014   */\n      dup4\n        /* \"#utility.yul\":28995:29015   */\n      tag_382\n      jump\t// in\n    tag_716:\n        /* \"#utility.yul\":28990:29015   */\n      swap3\n      pop\n        /* \"#utility.yul\":29050:29051   */\n      dup3\n        /* \"#utility.yul\":29047:29048   */\n      dup3\n        /* \"#utility.yul\":29043:29052   */\n      mul\n        /* \"#utility.yul\":29072:29102   */\n      tag_717\n        /* \"#utility.yul\":29090:29101   */\n      dup2\n        /* \"#utility.yul\":29072:29102   */\n      tag_382\n      jump\t// in\n    tag_717:\n        /* \"#utility.yul\":29061:29102   */\n      swap2\n      pop\n        /* \"#utility.yul\":29251:29252   */\n      dup3\n        /* \"#utility.yul\":29242:29249   */\n      dup3\n        /* \"#utility.yul\":29238:29253   */\n      div\n        /* \"#utility.yul\":29235:29236   */\n      dup5\n        /* \"#utility.yul\":29232:29254   */\n      eq\n        /* \"#utility.yul\":29212:29213   */\n      dup4\n        /* \"#utility.yul\":29205:29214   */\n      iszero\n        /* \"#utility.yul\":29185:29268   */\n      or\n        /* \"#utility.yul\":29162:29301   */\n      tag_718\n      jumpi\n        /* \"#utility.yul\":29281:29299   */\n      tag_719\n      tag_441\n      jump\t// in\n    tag_719:\n        /* \"#utility.yul\":29162:29301   */\n    tag_718:\n        /* \"#utility.yul\":28946:29308   */\n      pop\n        /* \"#utility.yul\":28898:29308   */\n      swap3\n      swap2\n      pop\n      pop\n      jump\t// out\n        /* \"#utility.yul\":29314:29494   */\n    tag_444:\n        /* \"#utility.yul\":29362:29439   */\n      0x4e487b7100000000000000000000000000000000000000000000000000000000\n        /* \"#utility.yul\":29359:29360   */\n      0x00\n        /* \"#utility.yul\":29352:29440   */\n      mstore\n        /* \"#utility.yul\":29459:29463   */\n      0x12\n        /* \"#utility.yul\":29456:29457   */\n      0x04\n        /* \"#utility.yul\":29449:29464   */\n      mstore\n        /* \"#utility.yul\":29483:29487   */\n      0x24\n        /* \"#utility.yul\":29480:29481   */\n      0x00\n        /* \"#utility.yul\":29473:29488   */\n      revert\n        /* \"#utility.yul\":29500:29685   */\n    tag_227:\n        /* \"#utility.yul\":29540:29541   */\n      0x00\n        /* \"#utility.yul\":29557:29577   */\n      tag_722\n        /* \"#utility.yul\":29575:29576   */\n      dup3\n        /* \"#utility.yul\":29557:29577   */\n      tag_382\n      jump\t// in\n    tag_722:\n        /* \"#utility.yul\":29552:29577   */\n      swap2\n      pop\n        /* \"#utility.yul\":29591:29611   */\n      tag_723\n        /* \"#utility.yul\":29609:29610   */\n      dup4\n        /* \"#utility.yul\":29591:29611   */\n      tag_382\n      jump\t// in\n    tag_723:\n        /* \"#utility.yul\":29586:29611   */\n      swap3\n      pop\n        /* \"#utility.yul\":29630:29631   */\n      dup3\n        /* \"#utility.yul\":29620:29655   */\n      tag_724\n      jumpi\n        /* \"#utility.yul\":29635:29653   */\n      tag_725\n      tag_444\n      jump\t// in\n    tag_725:\n        /* \"#utility.yul\":29620:29655   */\n    tag_724:\n        /* \"#utility.yul\":29677:29678   */\n      dup3\n        /* \"#utility.yul\":29674:29675   */\n      dup3\n        /* \"#utility.yul\":29670:29679   */\n      div\n        /* \"#utility.yul\":29665:29679   */\n      swap1\n      pop\n        /* \"#utility.yul\":29500:29685   */\n      swap3\n      swap2\n      pop\n      pop\n      jump\t// out\n        /* \"#utility.yul\":29691:29882   */\n    tag_231:\n        /* \"#utility.yul\":29731:29734   */\n      0x00\n        /* \"#utility.yul\":29750:29770   */\n      tag_727\n        /* \"#utility.yul\":29768:29769   */\n      dup3\n        /* \"#utility.yul\":29750:29770   */\n      tag_382\n      jump\t// in\n    tag_727:\n        /* \"#utility.yul\":29745:29770   */\n      swap2\n      pop\n        /* \"#utility.yul\":29784:29804   */\n      tag_728\n        /* \"#utility.yul\":29802:29803   */\n      dup4\n        /* \"#utility.yul\":29784:29804   */\n      tag_382\n      jump\t// in\n    tag_728:\n        /* \"#utility.yul\":29779:29804   */\n      swap3\n      pop\n        /* \"#utility.yul\":29827:29828   */\n      dup3\n        /* \"#utility.yul\":29824:29825   */\n      dup3\n        /* \"#utility.yul\":29820:29829   */\n      add\n        /* \"#utility.yul\":29813:29829   */\n      swap1\n      pop\n        /* \"#utility.yul\":29848:29851   */\n      dup1\n        /* \"#utility.yul\":29845:29846   */\n      dup3\n        /* \"#utility.yul\":29842:29852   */\n      gt\n        /* \"#utility.yul\":29839:29875   */\n      iszero\n      tag_729\n      jumpi\n        /* \"#utility.yul\":29855:29873   */\n      tag_730\n      tag_441\n      jump\t// in\n    tag_730:\n        /* \"#utility.yul\":29839:29875   */\n    tag_729:\n        /* \"#utility.yul\":29691:29882   */\n      swap3\n      swap2\n      pop\n      pop\n      jump\t// out\n        /* \"#utility.yul\":29888:30265   */\n    tag_445:\n        /* \"#utility.yul\":29976:29979   */\n      0x00\n        /* \"#utility.yul\":30004:30043   */\n      tag_732\n        /* \"#utility.yul\":30037:30042   */\n      dup3\n        /* \"#utility.yul\":30004:30043   */\n      tag_377\n      jump\t// in\n    tag_732:\n        /* \"#utility.yul\":30059:30130   */\n      tag_733\n        /* \"#utility.yul\":30123:30129   */\n      dup2\n        /* \"#utility.yul\":30118:30121   */\n      dup6\n        /* \"#utility.yul\":30059:30130   */\n      tag_407\n      jump\t// in\n    tag_733:\n        /* \"#utility.yul\":30052:30130   */\n      swap4\n      pop\n        /* \"#utility.yul\":30139:30204   */\n      tag_734\n        /* \"#utility.yul\":30197:30203   */\n      dup2\n        /* \"#utility.yul\":30192:30195   */\n      dup6\n        /* \"#utility.yul\":30185:30189   */\n      0x20\n        /* \"#utility.yul\":30178:30183   */\n      dup7\n        /* \"#utility.yul\":30174:30190   */\n      add\n        /* \"#utility.yul\":30139:30204   */\n      tag_379\n      jump\t// in\n    tag_734:\n        /* \"#utility.yul\":30229:30258   */\n      tag_735\n        /* \"#utility.yul\":30251:30257   */\n      dup2\n        /* \"#utility.yul\":30229:30258   */\n      tag_380\n      jump\t// in\n    tag_735:\n        /* \"#utility.yul\":30224:30227   */\n      dup5\n        /* \"#utility.yul\":30220:30259   */\n      add\n        /* \"#utility.yul\":30213:30259   */\n      swap2\n      pop\n        /* \"#utility.yul\":29980:30265   */\n      pop\n        /* \"#utility.yul\":29888:30265   */\n      swap3\n      swap2\n      pop\n      pop\n      jump\t// out\n        /* \"#utility.yul\":30271:30694   */\n    tag_237:\n        /* \"#utility.yul\":30412:30416   */\n      0x00\n        /* \"#utility.yul\":30450:30452   */\n      0x40\n        /* \"#utility.yul\":30439:30448   */\n      dup3\n        /* \"#utility.yul\":30435:30453   */\n      add\n        /* \"#utility.yul\":30427:30453   */\n      swap1\n      pop\n        /* \"#utility.yul\":30499:30508   */\n      dup2\n        /* \"#utility.yul\":30493:30497   */\n      dup2\n        /* \"#utility.yul\":30489:30509   */\n      sub\n        /* \"#utility.yul\":30485:30486   */\n      0x00\n        /* \"#utility.yul\":30474:30483   */\n      dup4\n        /* \"#utility.yul\":30470:30487   */\n      add\n        /* \"#utility.yul\":30463:30510   */\n      mstore\n        /* \"#utility.yul\":30527:30605   */\n      tag_737\n        /* \"#utility.yul\":30600:30604   */\n      dup2\n        /* \"#utility.yul\":30591:30597   */\n      dup6\n        /* \"#utility.yul\":30527:30605   */\n      tag_445\n      jump\t// in\n    tag_737:\n        /* \"#utility.yul\":30519:30605   */\n      swap1\n      pop\n        /* \"#utility.yul\":30615:30687   */\n      tag_738\n        /* \"#utility.yul\":30683:30685   */\n      0x20\n        /* \"#utility.yul\":30672:30681   */\n      dup4\n        /* \"#utility.yul\":30668:30686   */\n      add\n        /* \"#utility.yul\":30659:30665   */\n      dup5\n        /* \"#utility.yul\":30615:30687   */\n      tag_392\n      jump\t// in\n    tag_738:\n        /* \"#utility.yul\":30271:30694   */\n      swap4\n      swap3\n      pop\n      pop\n      pop\n      jump\t// out\n        /* \"#utility.yul\":30700:30876   */\n    tag_322:\n        /* \"#utility.yul\":30732:30733   */\n      0x00\n        /* \"#utility.yul\":30749:30769   */\n      tag_740\n        /* \"#utility.yul\":30767:30768   */\n      dup3\n        /* \"#utility.yul\":30749:30769   */\n      tag_382\n      jump\t// in\n    tag_740:\n        /* \"#utility.yul\":30744:30769   */\n      swap2\n      pop\n        /* \"#utility.yul\":30783:30803   */\n      tag_741\n        /* \"#utility.yul\":30801:30802   */\n      dup4\n        /* \"#utility.yul\":30783:30803   */\n      tag_382\n      jump\t// in\n    tag_741:\n        /* \"#utility.yul\":30778:30803   */\n      swap3\n      pop\n        /* \"#utility.yul\":30822:30823   */\n      dup3\n        /* \"#utility.yul\":30812:30847   */\n      tag_742\n      jumpi\n        /* \"#utility.yul\":30827:30845   */\n      tag_743\n      tag_444\n      jump\t// in\n    tag_743:\n        /* \"#utility.yul\":30812:30847   */\n    tag_742:\n        /* \"#utility.yul\":30868:30869   */\n      dup3\n        /* \"#utility.yul\":30865:30866   */\n      dup3\n        /* \"#utility.yul\":30861:30870   */\n      mod\n        /* \"#utility.yul\":30856:30870   */\n      swap1\n      pop\n        /* \"#utility.yul\":30700:30876   */\n      swap3\n      swap2\n      pop\n      pop\n      jump\t// out\n        /* \"#utility.yul\":30882:31050   */\n    tag_446:\n        /* \"#utility.yul\":31022:31042   */\n      0x436f6465206973204e6f7420556e697175650000000000000000000000000000\n        /* \"#utility.yul\":31018:31019   */\n      0x00\n        /* \"#utility.yul\":31010:31016   */\n      dup3\n        /* \"#utility.yul\":31006:31020   */\n      add\n        /* \"#utility.yul\":30999:31043   */\n      mstore\n        /* \"#utility.yul\":30882:31050   */\n      pop\n      jump\t// out\n        /* \"#utility.yul\":31056:31422   */\n    tag_447:\n        /* \"#utility.yul\":31198:31201   */\n      0x00\n        /* \"#utility.yul\":31219:31286   */\n      tag_746\n        /* \"#utility.yul\":31283:31285   */\n      0x12\n        /* \"#utility.yul\":31278:31281   */\n      dup4\n        /* \"#utility.yul\":31219:31286   */\n      tag_407\n      jump\t// in\n    tag_746:\n        /* \"#utility.yul\":31212:31286   */\n      swap2\n      pop\n        /* \"#utility.yul\":31295:31388   */\n      tag_747\n        /* \"#utility.yul\":31384:31387   */\n      dup3\n        /* \"#utility.yul\":31295:31388   */\n      tag_446\n      jump\t// in\n    tag_747:\n        /* \"#utility.yul\":31413:31415   */\n      0x20\n        /* \"#utility.yul\":31408:31411   */\n      dup3\n        /* \"#utility.yul\":31404:31416   */\n      add\n        /* \"#utility.yul\":31397:31416   */\n      swap1\n      pop\n        /* \"#utility.yul\":31056:31422   */\n      swap2\n      swap1\n      pop\n      jump\t// out\n        /* \"#utility.yul\":31428:31847   */\n    tag_338:\n        /* \"#utility.yul\":31594:31598   */\n      0x00\n        /* \"#utility.yul\":31632:31634   */\n      0x20\n        /* \"#utility.yul\":31621:31630   */\n      dup3\n        /* \"#utility.yul\":31617:31635   */\n      add\n        /* \"#utility.yul\":31609:31635   */\n      swap1\n      pop\n        /* \"#utility.yul\":31681:31690   */\n      dup2\n        /* \"#utility.yul\":31675:31679   */\n      dup2\n        /* \"#utility.yul\":31671:31691   */\n      sub\n        /* \"#utility.yul\":31667:31668   */\n      0x00\n        /* \"#utility.yul\":31656:31665   */\n      dup4\n        /* \"#utility.yul\":31652:31669   */\n      add\n        /* \"#utility.yul\":31645:31692   */\n      mstore\n        /* \"#utility.yul\":31709:31840   */\n      tag_749\n        /* \"#utility.yul\":31835:31839   */\n      dup2\n        /* \"#utility.yul\":31709:31840   */\n      tag_447\n      jump\t// in\n    tag_749:\n        /* \"#utility.yul\":31701:31840   */\n      swap1\n      pop\n        /* \"#utility.yul\":31428:31847   */\n      swap2\n      swap1\n      pop\n      jump\t// out\n        /* \"#utility.yul\":31853:31932   */\n    tag_448:\n        /* \"#utility.yul\":31892:31899   */\n      0x00\n        /* \"#utility.yul\":31921:31926   */\n      dup2\n        /* \"#utility.yul\":31910:31926   */\n      swap1\n      pop\n        /* \"#utility.yul\":31853:31932   */\n      swap2\n      swap1\n      pop\n      jump\t// out\n        /* \"#utility.yul\":31938:32095   */\n    tag_449:\n        /* \"#utility.yul\":32043:32088   */\n      tag_752\n        /* \"#utility.yul\":32063:32087   */\n      tag_753\n        /* \"#utility.yul\":32081:32086   */\n      dup3\n        /* \"#utility.yul\":32063:32087   */\n      tag_382\n      jump\t// in\n    tag_753:\n        /* \"#utility.yul\":32043:32088   */\n      tag_448\n      jump\t// in\n    tag_752:\n        /* \"#utility.yul\":32038:32041   */\n      dup3\n        /* \"#utility.yul\":32031:32089   */\n      mstore\n        /* \"#utility.yul\":31938:32095   */\n      pop\n      pop\n      jump\t// out\n        /* \"#utility.yul\":32101:32639   */\n    tag_357:\n        /* \"#utility.yul\":32269:32272   */\n      0x00\n        /* \"#utility.yul\":32284:32359   */\n      tag_755\n        /* \"#utility.yul\":32355:32358   */\n      dup3\n        /* \"#utility.yul\":32346:32352   */\n      dup7\n        /* \"#utility.yul\":32284:32359   */\n      tag_449\n      jump\t// in\n    tag_755:\n        /* \"#utility.yul\":32384:32386   */\n      0x20\n        /* \"#utility.yul\":32379:32382   */\n      dup3\n        /* \"#utility.yul\":32375:32387   */\n      add\n        /* \"#utility.yul\":32368:32387   */\n      swap2\n      pop\n        /* \"#utility.yul\":32397:32472   */\n      tag_756\n        /* \"#utility.yul\":32468:32471   */\n      dup3\n        /* \"#utility.yul\":32459:32465   */\n      dup6\n        /* \"#utility.yul\":32397:32472   */\n      tag_449\n      jump\t// in\n    tag_756:\n        /* \"#utility.yul\":32497:32499   */\n      0x20\n        /* \"#utility.yul\":32492:32495   */\n      dup3\n        /* \"#utility.yul\":32488:32500   */\n      add\n        /* \"#utility.yul\":32481:32500   */\n      swap2\n      pop\n        /* \"#utility.yul\":32510:32585   */\n      tag_757\n        /* \"#utility.yul\":32581:32584   */\n      dup3\n        /* \"#utility.yul\":32572:32578   */\n      dup5\n        /* \"#utility.yul\":32510:32585   */\n      tag_449\n      jump\t// in\n    tag_757:\n        /* \"#utility.yul\":32610:32612   */\n      0x20\n        /* \"#utility.yul\":32605:32608   */\n      dup3\n        /* \"#utility.yul\":32601:32613   */\n      add\n        /* \"#utility.yul\":32594:32613   */\n      swap2\n      pop\n        /* \"#utility.yul\":32630:32633   */\n      dup2\n        /* \"#utility.yul\":32623:32633   */\n      swap1\n      pop\n        /* \"#utility.yul\":32101:32639   */\n      swap5\n      swap4\n      pop\n      pop\n      pop\n      pop\n      jump\t// out\n\n    auxdata: 0xa2646970667358221220438aa1ecf37efab8e1fe20b1af86e067691fb94d38ba3096984ae63ac95e81b664736f6c634300081a0033\n}\n",
        "bytecode": {
          "linkReferences": {},
          "object": "60806040525f600555348015610013575f80fd5b5060405180606001604052806040518060400160405280600f81526020017f4962726168696d204d6f68616d65640000000000000000000000000000000000815250815260200160018081111561006d5761006c61034d565b5b81526020016001808111156100855761008461034d565b5b8152505f803373ffffffffffffffffffffffffffffffffffffffff1673ffffffffffffffffffffffffffffffffffffffff1681526020019081526020015f205f820151815f0190816100d791906105b4565b506020820151816001015f6101000a81548160ff021916908360018111156101025761010161034d565b5b021790555060408201518160010160016101000a81548160ff021916908360018111156101325761013161034d565b5b0217905550905050600433908060018154018082558091505060019003905f5260205f20015f9091909190916101000a81548173ffffffffffffffffffffffffffffffffffffffff021916908373ffffffffffffffffffffffffffffffffffffffff16021790555060405180606001604052806040518060400160405280600b81526020017f4f6261646120536166776100000000000000000000000000000000000000000081525081526020016001808111156101f3576101f261034d565b5b815260200160018081111561020b5761020a61034d565b5b8152505f8073ad009219d5052664e665c2a95f12e4abea6730c073ffffffffffffffffffffffffffffffffffffffff1673ffffffffffffffffffffffffffffffffffffffff1681526020019081526020015f205f820151815f01908161027191906105b4565b506020820151816001015f6101000a81548160ff0219169083600181111561029c5761029b61034d565b5b021790555060408201518160010160016101000a81548160ff021916908360018111156102cc576102cb61034d565b5b0217905550905050600473ad009219d5052664e665c2a95f12e4abea6730c0908060018154018082558091505060019003905f5260205f20015f9091909190916101000a81548173ffffffffffffffffffffffffffffffffffffffff021916908373ffffffffffffffffffffffffffffffffffffffff160217905550610683565b7f4e487b71000000000000000000000000000000000000000000000000000000005f52602160045260245ffd5b5f81519050919050565b7f4e487b71000000000000000000000000000000000000000000000000000000005f52604160045260245ffd5b7f4e487b71000000000000000000000000000000000000000000000000000000005f52602260045260245ffd5b5f60028204905060018216806103f557607f821691505b602082108103610408576104076103b1565b5b50919050565b5f819050815f5260205f209050919050565b5f6020601f8301049050919050565b5f82821b905092915050565b5f6008830261046a7fffffffffffffffffffffffffffffffffffffffffffffffffffffffffffffffff8261042f565b610474868361042f565b95508019841693508086168417925050509392505050565b5f819050919050565b5f819050919050565b5f6104b86104b36104ae8461048c565b610495565b61048c565b9050919050565b5f819050919050565b6104d18361049e565b6104e56104dd826104bf565b84845461043b565b825550505050565b5f90565b6104f96104ed565b6105048184846104c8565b505050565b5b818110156105275761051c5f826104f1565b60018101905061050a565b5050565b601f82111561056c5761053d8161040e565b61054684610420565b81016020851015610555578190505b61056961056185610420565b830182610509565b50505b505050565b5f82821c905092915050565b5f61058c5f1984600802610571565b1980831691505092915050565b5f6105a4838361057d565b9150826002028217905092915050565b6105bd8261037a565b67ffffffffffffffff8111156105d6576105d5610384565b5b6105e082546103de565b6105eb82828561052b565b5f60209050601f83116001811461061c575f841561060a578287015190505b6106148582610599565b86555061067b565b601f19841661062a8661040e565b5f5b828110156106515784890151825560018201915060208501945060208101905061062c565b8683101561066e578489015161066a601f89168261057d565b8355505b6001600288020188555050505b505050505050565b612ce3806106905f395ff3fe608060405260043610610094575f3560e01c80638f0e582f116100585780638f0e582f14610161578063a34f011c14610189578063a927db0d14610193578063b6db75a0146101bd578063d9c8a38b146101e75761009b565b8063223668441461009d57806327e26c8c146100c75780632b4a9dda146100ef5780635fd8c710146101195780638b7afe2e146101375761009b565b3661009b57005b005b3480156100a8575f80fd5b506100b1610211565b6040516100be9190611d29565b60405180910390f35b3480156100d2575f80fd5b506100ed60048036038101906100e89190611dab565b610264565b005b3480156100fa575f80fd5b50610103610617565b604051610110919061202d565b60405180910390f35b610121610bc4565b60405161012e9190611d29565b60405180910390f35b348015610142575f80fd5b5061014b610db2565b604051610158919061205c565b60405180910390f35b34801561016c575f80fd5b5061018760048036038101906101829190612098565b610ef9565b005b610191611092565b005b34801561019e575f80fd5b506101a76111bc565b6040516101b4919061202d565b60405180910390f35b3480156101c8575f80fd5b506101d16115d1565b6040516101de9190611d29565b60405180910390f35b3480156101f2575f80fd5b506101fb6116d6565b60405161020891906121ce565b60405180910390f35b5f805f803373ffffffffffffffffffffffffffffffffffffffff1673ffffffffffffffffffffffffffffffffffffffff1681526020019081526020015f205f01805461025c9061221b565b905011905090565b81818080601f0160208091040260200160405190810160405280939291908181526020018383808284375f81840152601f19601f820116905080830192505050505050506001808111156102bb576102ba611ea7565b5b6001826040516102cb9190612285565b90815260200160405180910390206003015f9054906101000a900460ff1660018111156102fb576102fa611ea7565b5b1461033b576040517f08c379a0000000000000000000000000000000000000000000000000000000008152600401610332906122f5565b60405180910390fd5b5f805f3373ffffffffffffffffffffffffffffffffffffffff1673ffffffffffffffffffffffffffffffffffffffff1681526020019081526020015f205f0180546103859061221b565b9050116103c7576040517f08c379a00000000000000000000000000000000000000000000000000000000081526004016103be9061235d565b60405180910390fd5b60025f9054906101000a900460ff1615610416576040517f08c379a000000000000000000000000000000000000000000000000000000000815260040161040d906123c5565b60405180910390fd5b600160025f6101000a81548160ff0219169083151502179055505f60018484604051610443929190612415565b908152602001604051809103902090505f816002015490505f811161049d576040517f08c379a000000000000000000000000000000000000000000000000000000000815260040161049490612477565b60405180910390fd5b5f826003015f6101000a81548160ff021916908360018111156104c3576104c2611ea7565b5b02179055505f803373ffffffffffffffffffffffffffffffffffffffff1673ffffffffffffffffffffffffffffffffffffffff1681526020019081526020015f205f018260040190816105169190612686565b505f3373ffffffffffffffffffffffffffffffffffffffff168260405161053c90612798565b5f6040518083038185875af1925050503d805f8114610576576040519150601f19603f3d011682016040523d82523d5f602084013e61057b565b606091505b50509050806105bf576040517f08c379a00000000000000000000000000000000000000000000000000000000081526004016105b6906127f6565b60405180910390fd5b7f604d6de1b6eb3f39c6ab9d4981a20d17f88c5bef33495ae58dabeb097ba7a41a826040516105ee919061205c565b60405180910390a15050505f60025f6101000a81548160ff021916908315150217905550505050565b60605f805f3373ffffffffffffffffffffffffffffffffffffffff1673ffffffffffffffffffffffffffffffffffffffff1681526020019081526020015f205f0180546106639061221b565b9050116106a5576040517f08c379a000000000000000000000000000000000000000000000000000000000815260040161069c9061235d565b60405180910390fd5b5f80805f3373ffffffffffffffffffffffffffffffffffffffff1673ffffffffffffffffffffffffffffffffffffffff1681526020019081526020015f205f016040516020016106f59190612894565b6040516020818303038152906040528051906020012090505f5b60038054905081101561080c5781600160038381548110610733576107326128aa565b5b905f5260205f20016040516107489190612894565b90815260200160405180910390206001016040516020016107699190612894565b6040516020818303038152906040528051906020012014806107eb57508160016003838154811061079d5761079c6128aa565b5b905f5260205f20016040516107b29190612894565b90815260200160405180910390206004016040516020016107d39190612894565b60405160208183030381529060405280519060200120145b156107ff5782806107fb90612904565b9350505b808060010191505061070f565b505f8267ffffffffffffffff811115610828576108276124aa565b5b60405190808252806020026020018201604052801561086157816020015b61084e611c8d565b8152602001906001900390816108465790505b5090505f805b600380549050811015610bb9578360016003838154811061088b5761088a6128aa565b5b905f5260205f20016040516108a09190612894565b90815260200160405180910390206001016040516020016108c19190612894565b6040516020818303038152906040528051906020012014806109435750836001600383815481106108f5576108f46128aa565b5b905f5260205f200160405161090a9190612894565b908152602001604051809103902060040160405160200161092b9190612894565b60405160208183030381529060405280519060200120145b15610bac5760016003828154811061095e5761095d6128aa565b5b905f5260205f20016040516109739190612894565b90815260200160405180910390206040518060a00160405290815f8201805461099b9061221b565b80601f01602080910402602001604051908101604052809291908181526020018280546109c79061221b565b8015610a125780601f106109e957610100808354040283529160200191610a12565b820191905f5260205f20905b8154815290600101906020018083116109f557829003601f168201915b50505050508152602001600182018054610a2b9061221b565b80601f0160208091040260200160405190810160405280929190818152602001828054610a579061221b565b8015610aa25780601f10610a7957610100808354040283529160200191610aa2565b820191905f5260205f20905b815481529060010190602001808311610a8557829003601f168201915b5050505050815260200160028201548152602001600382015f9054906101000a900460ff166001811115610ad957610ad8611ea7565b5b6001811115610aeb57610aea611ea7565b5b8152602001600482018054610aff9061221b565b80601f0160208091040260200160405190810160405280929190818152602001828054610b2b9061221b565b8015610b765780601f10610b4d57610100808354040283529160200191610b76565b820191905f5260205f20905b815481529060010190602001808311610b5957829003601f168201915b505050505081525050838381518110610b9257610b916128aa565b5b60200260200101819052508180610ba890612904565b9250505b8080600101915050610867565b508194505050505090565b5f805f803373ffffffffffffffffffffffffffffffffffffffff1673ffffffffffffffffffffffffffffffffffffffff1681526020019081526020015f205f018054610c0f9061221b565b905011610c51576040517f08c379a0000000000000000000000000000000000000000000000000000000008152600401610c489061235d565b60405180910390fd5b600180811115610c6457610c63611ea7565b5b5f803373ffffffffffffffffffffffffffffffffffffffff1673ffffffffffffffffffffffffffffffffffffffff1681526020019081526020015f2060010160019054906101000a900460ff166001811115610cc357610cc2611ea7565b5b14610d03576040517f08c379a0000000000000000000000000000000000000000000000000000000008152600401610cfa90612995565b60405180910390fd5b5f3373ffffffffffffffffffffffffffffffffffffffff1647604051610d2890612798565b5f6040518083038185875af1925050503d805f8114610d62576040519150601f19603f3d011682016040523d82523d5f602084013e610d67565b606091505b5050905080610dab576040517f08c379a0000000000000000000000000000000000000000000000000000000008152600401610da2906127f6565b60405180910390fd5b8091505090565b5f805f803373ffffffffffffffffffffffffffffffffffffffff1673ffffffffffffffffffffffffffffffffffffffff1681526020019081526020015f205f018054610dfd9061221b565b905011610e3f576040517f08c379a0000000000000000000000000000000000000000000000000000000008152600401610e369061235d565b60405180910390fd5b600180811115610e5257610e51611ea7565b5b5f803373ffffffffffffffffffffffffffffffffffffffff1673ffffffffffffffffffffffffffffffffffffffff1681526020019081526020015f2060010160019054906101000a900460ff166001811115610eb157610eb0611ea7565b5b14610ef1576040517f08c379a0000000000000000000000000000000000000000000000000000000008152600401610ee890612995565b60405180910390fd5b600554905090565b600433908060018154018082558091505060019003905f5260205f20015f9091909190916101000a81548173ffffffffffffffffffffffffffffffffffffffff021916908373ffffffffffffffffffffffffffffffffffffffff160217905550604051806060016040528084848080601f0160208091040260200160405190810160405280939291908181526020018383808284375f81840152601f19601f820116905080830192505050505050508152602001826001811115610fc057610fbf611ea7565b5b81526020015f6001811115610fd857610fd7611ea7565b5b8152505f803373ffffffffffffffffffffffffffffffffffffffff1673ffffffffffffffffffffffffffffffffffffffff1681526020019081526020015f205f820151815f01908161102a91906129b3565b506020820151816001015f6101000a81548160ff0219169083600181111561105557611054611ea7565b5b021790555060408201518160010160016101000a81548160ff0219169083600181111561108557611084611ea7565b5b0217905550905050505050565b5f805f3373ffffffffffffffffffffffffffffffffffffffff1673ffffffffffffffffffffffffffffffffffffffff1681526020019081526020015f205f0180546110dc9061221b565b90501161111e576040517f08c379a00000000000000000000000000000000000000000000000000000000081526004016111159061235d565b60405180910390fd5b5f6064605a3461112e9190612a82565b6111389190612af0565b90506064600a346111499190612a82565b6111539190612af0565b60055f8282546111639190612b20565b925050819055505f6111736118ba565b905061117f8183611997565b7f19446f6741eca6d71b8406898c4308b5f1b9844f9f1ea7614b48264e453b9bd281836040516111b0929190612b8b565b60405180910390a15050565b60605f805f3373ffffffffffffffffffffffffffffffffffffffff1673ffffffffffffffffffffffffffffffffffffffff1681526020019081526020015f205f0180546112089061221b565b90501161124a576040517f08c379a00000000000000000000000000000000000000000000000000000000081526004016112419061235d565b60405180910390fd5b60018081111561125d5761125c611ea7565b5b5f803373ffffffffffffffffffffffffffffffffffffffff1673ffffffffffffffffffffffffffffffffffffffff1681526020019081526020015f2060010160019054906101000a900460ff1660018111156112bc576112bb611ea7565b5b146112fc576040517f08c379a00000000000000000000000000000000000000000000000000000000081526004016112f390612995565b60405180910390fd5b5f60038054905090505f8167ffffffffffffffff8111156113205761131f6124aa565b5b60405190808252806020026020018201604052801561135957816020015b611346611c8d565b81526020019060019003908161133e5790505b5090505f5b828110156115c85760016003828154811061137c5761137b6128aa565b5b905f5260205f20016040516113919190612894565b90815260200160405180910390206040518060a00160405290815f820180546113b99061221b565b80601f01602080910402602001604051908101604052809291908181526020018280546113e59061221b565b80156114305780601f1061140757610100808354040283529160200191611430565b820191905f5260205f20905b81548152906001019060200180831161141357829003601f168201915b505050505081526020016001820180546114499061221b565b80601f01602080910402602001604051908101604052809291908181526020018280546114759061221b565b80156114c05780601f10611497576101008083540402835291602001916114c0565b820191905f5260205f20905b8154815290600101906020018083116114a357829003601f168201915b5050505050815260200160028201548152602001600382015f9054906101000a900460ff1660018111156114f7576114f6611ea7565b5b600181111561150957611508611ea7565b5b815260200160048201805461151d9061221b565b80601f01602080910402602001604051908101604052809291908181526020018280546115499061221b565b80156115945780601f1061156b57610100808354040283529160200191611594565b820191905f5260205f20905b81548152906001019060200180831161157757829003601f168201915b5050505050815250508282815181106115b0576115af6128aa565b5b6020026020010181905250808060010191505061135e565b50809250505090565b5f805f803373ffffffffffffffffffffffffffffffffffffffff1673ffffffffffffffffffffffffffffffffffffffff1681526020019081526020015f205f01805461161c9061221b565b90501161165e576040517f08c379a00000000000000000000000000000000000000000000000000000000081526004016116559061235d565b60405180910390fd5b60018081111561167157611670611ea7565b5b5f803373ffffffffffffffffffffffffffffffffffffffff1673ffffffffffffffffffffffffffffffffffffffff1681526020019081526020015f2060010160019054906101000a900460ff1660018111156116d0576116cf611ea7565b5b14905090565b6116de611ccc565b5f805f3373ffffffffffffffffffffffffffffffffffffffff1673ffffffffffffffffffffffffffffffffffffffff1681526020019081526020015f205f0180546117289061221b565b90501161176a576040517f08c379a00000000000000000000000000000000000000000000000000000000081526004016117619061235d565b60405180910390fd5b5f803373ffffffffffffffffffffffffffffffffffffffff1673ffffffffffffffffffffffffffffffffffffffff1681526020019081526020015f206040518060600160405290815f820180546117c09061221b565b80601f01602080910402602001604051908101604052809291908181526020018280546117ec9061221b565b80156118375780601f1061180e57610100808354040283529160200191611837565b820191905f5260205f20905b81548152906001019060200180831161181a57829003601f168201915b50505050508152602001600182015f9054906101000a900460ff16600181111561186457611863611ea7565b5b600181111561187657611875611ea7565b5b81526020016001820160019054906101000a900460ff16600181111561189f5761189e611ea7565b5b60018111156118b1576118b0611ea7565b5b81525050905090565b60605f600f67ffffffffffffffff8111156118d8576118d76124aa565b5b6040519080825280601f01601f19166020018201604052801561190a5781602001600182028036833780820191505090505b5090505f5b600f81101561198f575f61192282611c4b565b9050601a816119319190612bb9565b606161193d9190612b20565b60f81b838381518110611953576119526128aa565b5b60200101907effffffffffffffffffffffffffffffffffffffffffffffffffffffffffffff191690815f1a90535050808060010191505061190f565b508091505090565b815f805b600380549050811015611a2c57826040516020016119b99190612285565b60405160208183030381529060405280519060200120600382815481106119e3576119e26128aa565b5b905f5260205f20016040516020016119fb9190612894565b6040516020818303038152906040528051906020012003611a1f5760019150611a2c565b808060010191505061199b565b508015611a6e576040517f08c379a0000000000000000000000000000000000000000000000000000000008152600401611a6590612c33565b60405180910390fd5b600384908060018154018082558091505060019003905f5260205f20015f909190919091509081611a9f91906129b3565b506040518060a001604052808581526020015f803373ffffffffffffffffffffffffffffffffffffffff1673ffffffffffffffffffffffffffffffffffffffff1681526020019081526020015f205f018054611afa9061221b565b80601f0160208091040260200160405190810160405280929190818152602001828054611b269061221b565b8015611b715780601f10611b4857610100808354040283529160200191611b71565b820191905f5260205f20905b815481529060010190602001808311611b5457829003601f168201915b50505050508152602001848152602001600180811115611b9457611b93611ea7565b5b815260200160405180602001604052805f815250815250600185604051611bbb9190612285565b90815260200160405180910390205f820151815f019081611bdc91906129b3565b506020820151816001019081611bf291906129b3565b50604082015181600201556060820151816003015f6101000a81548160ff02191690836001811115611c2757611c26611ea7565b5b02179055506080820151816004019081611c4191906129b3565b5090505050505050565b5f612710424484604051602001611c6493929190612c71565b604051602081830303815290604052805190602001205f1c611c869190612bb9565b9050919050565b6040518060a0016040528060608152602001606081526020015f81526020015f6001811115611cbf57611cbe611ea7565b5b8152602001606081525090565b6040518060600160405280606081526020015f6001811115611cf157611cf0611ea7565b5b81526020015f6001811115611d0957611d08611ea7565b5b81525090565b5f8115159050919050565b611d2381611d0f565b82525050565b5f602082019050611d3c5f830184611d1a565b92915050565b5f80fd5b5f80fd5b5f80fd5b5f80fd5b5f80fd5b5f8083601f840112611d6b57611d6a611d4a565b5b8235905067ffffffffffffffff811115611d8857611d87611d4e565b5b602083019150836001820283011115611da457611da3611d52565b5b9250929050565b5f8060208385031215611dc157611dc0611d42565b5b5f83013567ffffffffffffffff811115611dde57611ddd611d46565b5b611dea85828601611d56565b92509250509250929050565b5f81519050919050565b5f82825260208201905092915050565b5f819050602082019050919050565b5f81519050919050565b5f82825260208201905092915050565b8281835e5f83830152505050565b5f601f19601f8301169050919050565b5f611e6182611e1f565b611e6b8185611e29565b9350611e7b818560208601611e39565b611e8481611e47565b840191505092915050565b5f819050919050565b611ea181611e8f565b82525050565b7f4e487b71000000000000000000000000000000000000000000000000000000005f52602160045260245ffd5b60028110611ee557611ee4611ea7565b5b50565b5f819050611ef582611ed4565b919050565b5f611f0482611ee8565b9050919050565b611f1481611efa565b82525050565b5f60a083015f8301518482035f860152611f348282611e57565b91505060208301518482036020860152611f4e8282611e57565b9150506040830151611f636040860182611e98565b506060830151611f766060860182611f0b565b5060808301518482036080860152611f8e8282611e57565b9150508091505092915050565b5f611fa68383611f1a565b905092915050565b5f602082019050919050565b5f611fc482611df6565b611fce8185611e00565b935083602082028501611fe085611e10565b805f5b8581101561201b5784840389528151611ffc8582611f9b565b945061200783611fae565b925060208a01995050600181019050611fe3565b50829750879550505050505092915050565b5f6020820190508181035f8301526120458184611fba565b905092915050565b61205681611e8f565b82525050565b5f60208201905061206f5f83018461204d565b92915050565b60028110612081575f80fd5b50565b5f8135905061209281612075565b92915050565b5f805f604084860312156120af576120ae611d42565b5b5f84013567ffffffffffffffff8111156120cc576120cb611d46565b5b6120d886828701611d56565b935093505060206120eb86828701612084565b9150509250925092565b6002811061210657612105611ea7565b5b50565b5f819050612116826120f5565b919050565b5f61212582612109565b9050919050565b6121358161211b565b82525050565b6002811061214c5761214b611ea7565b5b50565b5f81905061215c8261213b565b919050565b5f61216b8261214f565b9050919050565b61217b81612161565b82525050565b5f606083015f8301518482035f86015261219b8282611e57565b91505060208301516121b0602086018261212c565b5060408301516121c36040860182612172565b508091505092915050565b5f6020820190508181035f8301526121e68184612181565b905092915050565b7f4e487b71000000000000000000000000000000000000000000000000000000005f52602260045260245ffd5b5f600282049050600182168061223257607f821691505b602082108103612245576122446121ee565b5b50919050565b5f81905092915050565b5f61225f82611e1f565b612269818561224b565b9350612279818560208601611e39565b80840191505092915050565b5f6122908284612255565b915081905092915050565b5f82825260208201905092915050565b7f4361726420697320496e76616c696400000000000000000000000000000000005f82015250565b5f6122df600f8361229b565b91506122ea826122ab565b602082019050919050565b5f6020820190508181035f83015261230c816122d3565b9050919050565b7f5573657220646f6573206e6f74206578697374000000000000000000000000005f82015250565b5f61234760138361229b565b915061235282612313565b602082019050919050565b5f6020820190508181035f8301526123748161233b565b9050919050565b7f5265656e7472616e637947756172643a207265656e7472616e742063616c6c005f82015250565b5f6123af601f8361229b565b91506123ba8261237b565b602082019050919050565b5f6020820190508181035f8301526123dc816123a3565b9050919050565b828183375f83830152505050565b5f6123fc838561224b565b93506124098385846123e3565b82840190509392505050565b5f6124218284866123f1565b91508190509392505050565b7f47696674206361726420686173206e6f2062616c616e636500000000000000005f82015250565b5f61246160188361229b565b915061246c8261242d565b602082019050919050565b5f6020820190508181035f83015261248e81612455565b9050919050565b5f815490506124a38161221b565b9050919050565b7f4e487b71000000000000000000000000000000000000000000000000000000005f52604160045260245ffd5b5f819050815f5260205f209050919050565b5f819050815f5260205f209050919050565b5f6020601f8301049050919050565b5f82821b905092915050565b5f600883026125457fffffffffffffffffffffffffffffffffffffffffffffffffffffffffffffffff8261250a565b61254f868361250a565b95508019841693508086168417925050509392505050565b5f819050919050565b5f61258a61258561258084611e8f565b612567565b611e8f565b9050919050565b5f819050919050565b6125a383612570565b6125b76125af82612591565b848454612516565b825550505050565b5f90565b6125cb6125bf565b6125d681848461259a565b505050565b5b818110156125f9576125ee5f826125c3565b6001810190506125dc565b5050565b601f82111561263e5761260f816124d7565b612618846124fb565b81016020851015612627578190505b61263b612633856124fb565b8301826125db565b50505b505050565b5f82821c905092915050565b5f61265e5f1984600802612643565b1980831691505092915050565b5f612676838361264f565b9150826002028217905092915050565b818103612694575050612769565b61269d82612495565b67ffffffffffffffff8111156126b6576126b56124aa565b5b6126c0825461221b565b6126cb8282856125fd565b5f601f8311600181146126f8575f84156126e6578287015490505b6126f0858261266b565b865550612762565b601f198416612706876124e9565b9650612711866124d7565b5f5b8281101561273857848901548255600182019150600185019450602081019050612713565b868310156127555784890154612751601f89168261264f565b8355505b6001600288020188555050505b5050505050505b565b5f81905092915050565b50565b5f6127835f8361276b565b915061278e82612775565b5f82019050919050565b5f6127a282612778565b9150819050919050565b7f4574686572207472616e73666572206661696c656400000000000000000000005f82015250565b5f6127e060158361229b565b91506127eb826127ac565b602082019050919050565b5f6020820190508181035f83015261280d816127d4565b9050919050565b5f81546128208161221b565b61282a818661224b565b9450600182165f811461284457600181146128595761288b565b60ff198316865281151582028601935061288b565b612862856124d7565b5f5b8381101561288357815481890152600182019150602081019050612864565b838801955050505b50505092915050565b5f61289f8284612814565b915081905092915050565b7f4e487b71000000000000000000000000000000000000000000000000000000005f52603260045260245ffd5b7f4e487b71000000000000000000000000000000000000000000000000000000005f52601160045260245ffd5b5f61290e82611e8f565b91507fffffffffffffffffffffffffffffffffffffffffffffffffffffffffffffffff82036129405761293f6128d7565b5b600182019050919050565b7f596f7520617265206e6f7420616e2061646d696e0000000000000000000000005f82015250565b5f61297f60148361229b565b915061298a8261294b565b602082019050919050565b5f6020820190508181035f8301526129ac81612973565b9050919050565b6129bc82611e1f565b67ffffffffffffffff8111156129d5576129d46124aa565b5b6129df825461221b565b6129ea8282856125fd565b5f60209050601f831160018114612a1b575f8415612a09578287015190505b612a13858261266b565b865550612a7a565b601f198416612a29866124d7565b5f5b82811015612a5057848901518255600182019150602085019450602081019050612a2b565b86831015612a6d5784890151612a69601f89168261264f565b8355505b6001600288020188555050505b505050505050565b5f612a8c82611e8f565b9150612a9783611e8f565b9250828202612aa581611e8f565b91508282048414831517612abc57612abb6128d7565b5b5092915050565b7f4e487b71000000000000000000000000000000000000000000000000000000005f52601260045260245ffd5b5f612afa82611e8f565b9150612b0583611e8f565b925082612b1557612b14612ac3565b5b828204905092915050565b5f612b2a82611e8f565b9150612b3583611e8f565b9250828201905080821115612b4d57612b4c6128d7565b5b92915050565b5f612b5d82611e1f565b612b67818561229b565b9350612b77818560208601611e39565b612b8081611e47565b840191505092915050565b5f6040820190508181035f830152612ba38185612b53565b9050612bb2602083018461204d565b9392505050565b5f612bc382611e8f565b9150612bce83611e8f565b925082612bde57612bdd612ac3565b5b828206905092915050565b7f436f6465206973204e6f7420556e6971756500000000000000000000000000005f82015250565b5f612c1d60128361229b565b9150612c2882612be9565b602082019050919050565b5f6020820190508181035f830152612c4a81612c11565b9050919050565b5f819050919050565b612c6b612c6682611e8f565b612c51565b82525050565b5f612c7c8286612c5a565b602082019150612c8c8285612c5a565b602082019150612c9c8284612c5a565b60208201915081905094935050505056fea2646970667358221220438aa1ecf37efab8e1fe20b1af86e067691fb94d38ba3096984ae63ac95e81b664736f6c634300081a0033",
          "opcodes": "PUSH1 0x80 PUSH1 0x40 MSTORE PUSH0 PUSH1 0x5 SSTORE CALLVALUE DUP1 ISZERO PUSH2 0x13 JUMPI PUSH0 DUP1 REVERT JUMPDEST POP PUSH1 0x40 MLOAD DUP1 PUSH1 0x60 ADD PUSH1 0x40 MSTORE DUP1 PUSH1 0x40 MLOAD DUP1 PUSH1 0x40 ADD PUSH1 0x40 MSTORE DUP1 PUSH1 0xF DUP2 MSTORE PUSH1 0x20 ADD PUSH32 0x4962726168696D204D6F68616D65640000000000000000000000000000000000 DUP2 MSTORE POP DUP2 MSTORE PUSH1 0x20 ADD PUSH1 0x1 DUP1 DUP2 GT ISZERO PUSH2 0x6D JUMPI PUSH2 0x6C PUSH2 0x34D JUMP JUMPDEST JUMPDEST DUP2 MSTORE PUSH1 0x20 ADD PUSH1 0x1 DUP1 DUP2 GT ISZERO PUSH2 0x85 JUMPI PUSH2 0x84 PUSH2 0x34D JUMP JUMPDEST JUMPDEST DUP2 MSTORE POP PUSH0 DUP1 CALLER PUSH20 0xFFFFFFFFFFFFFFFFFFFFFFFFFFFFFFFFFFFFFFFF AND PUSH20 0xFFFFFFFFFFFFFFFFFFFFFFFFFFFFFFFFFFFFFFFF AND DUP2 MSTORE PUSH1 0x20 ADD SWAP1 DUP2 MSTORE PUSH1 0x20 ADD PUSH0 KECCAK256 PUSH0 DUP3 ADD MLOAD DUP2 PUSH0 ADD SWAP1 DUP2 PUSH2 0xD7 SWAP2 SWAP1 PUSH2 0x5B4 JUMP JUMPDEST POP PUSH1 0x20 DUP3 ADD MLOAD DUP2 PUSH1 0x1 ADD PUSH0 PUSH2 0x100 EXP DUP2 SLOAD DUP2 PUSH1 0xFF MUL NOT AND SWAP1 DUP4 PUSH1 0x1 DUP2 GT ISZERO PUSH2 0x102 JUMPI PUSH2 0x101 PUSH2 0x34D JUMP JUMPDEST JUMPDEST MUL OR SWAP1 SSTORE POP PUSH1 0x40 DUP3 ADD MLOAD DUP2 PUSH1 0x1 ADD PUSH1 0x1 PUSH2 0x100 EXP DUP2 SLOAD DUP2 PUSH1 0xFF MUL NOT AND SWAP1 DUP4 PUSH1 0x1 DUP2 GT ISZERO PUSH2 0x132 JUMPI PUSH2 0x131 PUSH2 0x34D JUMP JUMPDEST JUMPDEST MUL OR SWAP1 SSTORE POP SWAP1 POP POP PUSH1 0x4 CALLER SWAP1 DUP1 PUSH1 0x1 DUP2 SLOAD ADD DUP1 DUP3 SSTORE DUP1 SWAP2 POP POP PUSH1 0x1 SWAP1 SUB SWAP1 PUSH0 MSTORE PUSH1 0x20 PUSH0 KECCAK256 ADD PUSH0 SWAP1 SWAP2 SWAP1 SWAP2 SWAP1 SWAP2 PUSH2 0x100 EXP DUP2 SLOAD DUP2 PUSH20 0xFFFFFFFFFFFFFFFFFFFFFFFFFFFFFFFFFFFFFFFF MUL NOT AND SWAP1 DUP4 PUSH20 0xFFFFFFFFFFFFFFFFFFFFFFFFFFFFFFFFFFFFFFFF AND MUL OR SWAP1 SSTORE POP PUSH1 0x40 MLOAD DUP1 PUSH1 0x60 ADD PUSH1 0x40 MSTORE DUP1 PUSH1 0x40 MLOAD DUP1 PUSH1 0x40 ADD PUSH1 0x40 MSTORE DUP1 PUSH1 0xB DUP2 MSTORE PUSH1 0x20 ADD PUSH32 0x4F62616461205361667761000000000000000000000000000000000000000000 DUP2 MSTORE POP DUP2 MSTORE PUSH1 0x20 ADD PUSH1 0x1 DUP1 DUP2 GT ISZERO PUSH2 0x1F3 JUMPI PUSH2 0x1F2 PUSH2 0x34D JUMP JUMPDEST JUMPDEST DUP2 MSTORE PUSH1 0x20 ADD PUSH1 0x1 DUP1 DUP2 GT ISZERO PUSH2 0x20B JUMPI PUSH2 0x20A PUSH2 0x34D JUMP JUMPDEST JUMPDEST DUP2 MSTORE POP PUSH0 DUP1 PUSH20 0xAD009219D5052664E665C2A95F12E4ABEA6730C0 PUSH20 0xFFFFFFFFFFFFFFFFFFFFFFFFFFFFFFFFFFFFFFFF AND PUSH20 0xFFFFFFFFFFFFFFFFFFFFFFFFFFFFFFFFFFFFFFFF AND DUP2 MSTORE PUSH1 0x20 ADD SWAP1 DUP2 MSTORE PUSH1 0x20 ADD PUSH0 KECCAK256 PUSH0 DUP3 ADD MLOAD DUP2 PUSH0 ADD SWAP1 DUP2 PUSH2 0x271 SWAP2 SWAP1 PUSH2 0x5B4 JUMP JUMPDEST POP PUSH1 0x20 DUP3 ADD MLOAD DUP2 PUSH1 0x1 ADD PUSH0 PUSH2 0x100 EXP DUP2 SLOAD DUP2 PUSH1 0xFF MUL NOT AND SWAP1 DUP4 PUSH1 0x1 DUP2 GT ISZERO PUSH2 0x29C JUMPI PUSH2 0x29B PUSH2 0x34D JUMP JUMPDEST JUMPDEST MUL OR SWAP1 SSTORE POP PUSH1 0x40 DUP3 ADD MLOAD DUP2 PUSH1 0x1 ADD PUSH1 0x1 PUSH2 0x100 EXP DUP2 SLOAD DUP2 PUSH1 0xFF MUL NOT AND SWAP1 DUP4 PUSH1 0x1 DUP2 GT ISZERO PUSH2 0x2CC JUMPI PUSH2 0x2CB PUSH2 0x34D JUMP JUMPDEST JUMPDEST MUL OR SWAP1 SSTORE POP SWAP1 POP POP PUSH1 0x4 PUSH20 0xAD009219D5052664E665C2A95F12E4ABEA6730C0 SWAP1 DUP1 PUSH1 0x1 DUP2 SLOAD ADD DUP1 DUP3 SSTORE DUP1 SWAP2 POP POP PUSH1 0x1 SWAP1 SUB SWAP1 PUSH0 MSTORE PUSH1 0x20 PUSH0 KECCAK256 ADD PUSH0 SWAP1 SWAP2 SWAP1 SWAP2 SWAP1 SWAP2 PUSH2 0x100 EXP DUP2 SLOAD DUP2 PUSH20 0xFFFFFFFFFFFFFFFFFFFFFFFFFFFFFFFFFFFFFFFF MUL NOT AND SWAP1 DUP4 PUSH20 0xFFFFFFFFFFFFFFFFFFFFFFFFFFFFFFFFFFFFFFFF AND MUL OR SWAP1 SSTORE POP PUSH2 0x683 JUMP JUMPDEST PUSH32 0x4E487B7100000000000000000000000000000000000000000000000000000000 PUSH0 MSTORE PUSH1 0x21 PUSH1 0x4 MSTORE PUSH1 0x24 PUSH0 REVERT JUMPDEST PUSH0 DUP2 MLOAD SWAP1 POP SWAP2 SWAP1 POP JUMP JUMPDEST PUSH32 0x4E487B7100000000000000000000000000000000000000000000000000000000 PUSH0 MSTORE PUSH1 0x41 PUSH1 0x4 MSTORE PUSH1 0x24 PUSH0 REVERT JUMPDEST PUSH32 0x4E487B7100000000000000000000000000000000000000000000000000000000 PUSH0 MSTORE PUSH1 0x22 PUSH1 0x4 MSTORE PUSH1 0x24 PUSH0 REVERT JUMPDEST PUSH0 PUSH1 0x2 DUP3 DIV SWAP1 POP PUSH1 0x1 DUP3 AND DUP1 PUSH2 0x3F5 JUMPI PUSH1 0x7F DUP3 AND SWAP2 POP JUMPDEST PUSH1 0x20 DUP3 LT DUP2 SUB PUSH2 0x408 JUMPI PUSH2 0x407 PUSH2 0x3B1 JUMP JUMPDEST JUMPDEST POP SWAP2 SWAP1 POP JUMP JUMPDEST PUSH0 DUP2 SWAP1 POP DUP2 PUSH0 MSTORE PUSH1 0x20 PUSH0 KECCAK256 SWAP1 POP SWAP2 SWAP1 POP JUMP JUMPDEST PUSH0 PUSH1 0x20 PUSH1 0x1F DUP4 ADD DIV SWAP1 POP SWAP2 SWAP1 POP JUMP JUMPDEST PUSH0 DUP3 DUP3 SHL SWAP1 POP SWAP3 SWAP2 POP POP JUMP JUMPDEST PUSH0 PUSH1 0x8 DUP4 MUL PUSH2 0x46A PUSH32 0xFFFFFFFFFFFFFFFFFFFFFFFFFFFFFFFFFFFFFFFFFFFFFFFFFFFFFFFFFFFFFFFF DUP3 PUSH2 0x42F JUMP JUMPDEST PUSH2 0x474 DUP7 DUP4 PUSH2 0x42F JUMP JUMPDEST SWAP6 POP DUP1 NOT DUP5 AND SWAP4 POP DUP1 DUP7 AND DUP5 OR SWAP3 POP POP POP SWAP4 SWAP3 POP POP POP JUMP JUMPDEST PUSH0 DUP2 SWAP1 POP SWAP2 SWAP1 POP JUMP JUMPDEST PUSH0 DUP2 SWAP1 POP SWAP2 SWAP1 POP JUMP JUMPDEST PUSH0 PUSH2 0x4B8 PUSH2 0x4B3 PUSH2 0x4AE DUP5 PUSH2 0x48C JUMP JUMPDEST PUSH2 0x495 JUMP JUMPDEST PUSH2 0x48C JUMP JUMPDEST SWAP1 POP SWAP2 SWAP1 POP JUMP JUMPDEST PUSH0 DUP2 SWAP1 POP SWAP2 SWAP1 POP JUMP JUMPDEST PUSH2 0x4D1 DUP4 PUSH2 0x49E JUMP JUMPDEST PUSH2 0x4E5 PUSH2 0x4DD DUP3 PUSH2 0x4BF JUMP JUMPDEST DUP5 DUP5 SLOAD PUSH2 0x43B JUMP JUMPDEST DUP3 SSTORE POP POP POP POP JUMP JUMPDEST PUSH0 SWAP1 JUMP JUMPDEST PUSH2 0x4F9 PUSH2 0x4ED JUMP JUMPDEST PUSH2 0x504 DUP2 DUP5 DUP5 PUSH2 0x4C8 JUMP JUMPDEST POP POP POP JUMP JUMPDEST JUMPDEST DUP2 DUP2 LT ISZERO PUSH2 0x527 JUMPI PUSH2 0x51C PUSH0 DUP3 PUSH2 0x4F1 JUMP JUMPDEST PUSH1 0x1 DUP2 ADD SWAP1 POP PUSH2 0x50A JUMP JUMPDEST POP POP JUMP JUMPDEST PUSH1 0x1F DUP3 GT ISZERO PUSH2 0x56C JUMPI PUSH2 0x53D DUP2 PUSH2 0x40E JUMP JUMPDEST PUSH2 0x546 DUP5 PUSH2 0x420 JUMP JUMPDEST DUP2 ADD PUSH1 0x20 DUP6 LT ISZERO PUSH2 0x555 JUMPI DUP2 SWAP1 POP JUMPDEST PUSH2 0x569 PUSH2 0x561 DUP6 PUSH2 0x420 JUMP JUMPDEST DUP4 ADD DUP3 PUSH2 0x509 JUMP JUMPDEST POP POP JUMPDEST POP POP POP JUMP JUMPDEST PUSH0 DUP3 DUP3 SHR SWAP1 POP SWAP3 SWAP2 POP POP JUMP JUMPDEST PUSH0 PUSH2 0x58C PUSH0 NOT DUP5 PUSH1 0x8 MUL PUSH2 0x571 JUMP JUMPDEST NOT DUP1 DUP4 AND SWAP2 POP POP SWAP3 SWAP2 POP POP JUMP JUMPDEST PUSH0 PUSH2 0x5A4 DUP4 DUP4 PUSH2 0x57D JUMP JUMPDEST SWAP2 POP DUP3 PUSH1 0x2 MUL DUP3 OR SWAP1 POP SWAP3 SWAP2 POP POP JUMP JUMPDEST PUSH2 0x5BD DUP3 PUSH2 0x37A JUMP JUMPDEST PUSH8 0xFFFFFFFFFFFFFFFF DUP2 GT ISZERO PUSH2 0x5D6 JUMPI PUSH2 0x5D5 PUSH2 0x384 JUMP JUMPDEST JUMPDEST PUSH2 0x5E0 DUP3 SLOAD PUSH2 0x3DE JUMP JUMPDEST PUSH2 0x5EB DUP3 DUP3 DUP6 PUSH2 0x52B JUMP JUMPDEST PUSH0 PUSH1 0x20 SWAP1 POP PUSH1 0x1F DUP4 GT PUSH1 0x1 DUP2 EQ PUSH2 0x61C JUMPI PUSH0 DUP5 ISZERO PUSH2 0x60A JUMPI DUP3 DUP8 ADD MLOAD SWAP1 POP JUMPDEST PUSH2 0x614 DUP6 DUP3 PUSH2 0x599 JUMP JUMPDEST DUP7 SSTORE POP PUSH2 0x67B JUMP JUMPDEST PUSH1 0x1F NOT DUP5 AND PUSH2 0x62A DUP7 PUSH2 0x40E JUMP JUMPDEST PUSH0 JUMPDEST DUP3 DUP2 LT ISZERO PUSH2 0x651 JUMPI DUP5 DUP10 ADD MLOAD DUP3 SSTORE PUSH1 0x1 DUP3 ADD SWAP2 POP PUSH1 0x20 DUP6 ADD SWAP5 POP PUSH1 0x20 DUP2 ADD SWAP1 POP PUSH2 0x62C JUMP JUMPDEST DUP7 DUP4 LT ISZERO PUSH2 0x66E JUMPI DUP5 DUP10 ADD MLOAD PUSH2 0x66A PUSH1 0x1F DUP10 AND DUP3 PUSH2 0x57D JUMP JUMPDEST DUP4 SSTORE POP JUMPDEST PUSH1 0x1 PUSH1 0x2 DUP9 MUL ADD DUP9 SSTORE POP POP POP JUMPDEST POP POP POP POP POP POP JUMP JUMPDEST PUSH2 0x2CE3 DUP1 PUSH2 0x690 PUSH0 CODECOPY PUSH0 RETURN INVALID PUSH1 0x80 PUSH1 0x40 MSTORE PUSH1 0x4 CALLDATASIZE LT PUSH2 0x94 JUMPI PUSH0 CALLDATALOAD PUSH1 0xE0 SHR DUP1 PUSH4 0x8F0E582F GT PUSH2 0x58 JUMPI DUP1 PUSH4 0x8F0E582F EQ PUSH2 0x161 JUMPI DUP1 PUSH4 0xA34F011C EQ PUSH2 0x189 JUMPI DUP1 PUSH4 0xA927DB0D EQ PUSH2 0x193 JUMPI DUP1 PUSH4 0xB6DB75A0 EQ PUSH2 0x1BD JUMPI DUP1 PUSH4 0xD9C8A38B EQ PUSH2 0x1E7 JUMPI PUSH2 0x9B JUMP JUMPDEST DUP1 PUSH4 0x22366844 EQ PUSH2 0x9D JUMPI DUP1 PUSH4 0x27E26C8C EQ PUSH2 0xC7 JUMPI DUP1 PUSH4 0x2B4A9DDA EQ PUSH2 0xEF JUMPI DUP1 PUSH4 0x5FD8C710 EQ PUSH2 0x119 JUMPI DUP1 PUSH4 0x8B7AFE2E EQ PUSH2 0x137 JUMPI PUSH2 0x9B JUMP JUMPDEST CALLDATASIZE PUSH2 0x9B JUMPI STOP JUMPDEST STOP JUMPDEST CALLVALUE DUP1 ISZERO PUSH2 0xA8 JUMPI PUSH0 DUP1 REVERT JUMPDEST POP PUSH2 0xB1 PUSH2 0x211 JUMP JUMPDEST PUSH1 0x40 MLOAD PUSH2 0xBE SWAP2 SWAP1 PUSH2 0x1D29 JUMP JUMPDEST PUSH1 0x40 MLOAD DUP1 SWAP2 SUB SWAP1 RETURN JUMPDEST CALLVALUE DUP1 ISZERO PUSH2 0xD2 JUMPI PUSH0 DUP1 REVERT JUMPDEST POP PUSH2 0xED PUSH1 0x4 DUP1 CALLDATASIZE SUB DUP2 ADD SWAP1 PUSH2 0xE8 SWAP2 SWAP1 PUSH2 0x1DAB JUMP JUMPDEST PUSH2 0x264 JUMP JUMPDEST STOP JUMPDEST CALLVALUE DUP1 ISZERO PUSH2 0xFA JUMPI PUSH0 DUP1 REVERT JUMPDEST POP PUSH2 0x103 PUSH2 0x617 JUMP JUMPDEST PUSH1 0x40 MLOAD PUSH2 0x110 SWAP2 SWAP1 PUSH2 0x202D JUMP JUMPDEST PUSH1 0x40 MLOAD DUP1 SWAP2 SUB SWAP1 RETURN JUMPDEST PUSH2 0x121 PUSH2 0xBC4 JUMP JUMPDEST PUSH1 0x40 MLOAD PUSH2 0x12E SWAP2 SWAP1 PUSH2 0x1D29 JUMP JUMPDEST PUSH1 0x40 MLOAD DUP1 SWAP2 SUB SWAP1 RETURN JUMPDEST CALLVALUE DUP1 ISZERO PUSH2 0x142 JUMPI PUSH0 DUP1 REVERT JUMPDEST POP PUSH2 0x14B PUSH2 0xDB2 JUMP JUMPDEST PUSH1 0x40 MLOAD PUSH2 0x158 SWAP2 SWAP1 PUSH2 0x205C JUMP JUMPDEST PUSH1 0x40 MLOAD DUP1 SWAP2 SUB SWAP1 RETURN JUMPDEST CALLVALUE DUP1 ISZERO PUSH2 0x16C JUMPI PUSH0 DUP1 REVERT JUMPDEST POP PUSH2 0x187 PUSH1 0x4 DUP1 CALLDATASIZE SUB DUP2 ADD SWAP1 PUSH2 0x182 SWAP2 SWAP1 PUSH2 0x2098 JUMP JUMPDEST PUSH2 0xEF9 JUMP JUMPDEST STOP JUMPDEST PUSH2 0x191 PUSH2 0x1092 JUMP JUMPDEST STOP JUMPDEST CALLVALUE DUP1 ISZERO PUSH2 0x19E JUMPI PUSH0 DUP1 REVERT JUMPDEST POP PUSH2 0x1A7 PUSH2 0x11BC JUMP JUMPDEST PUSH1 0x40 MLOAD PUSH2 0x1B4 SWAP2 SWAP1 PUSH2 0x202D JUMP JUMPDEST PUSH1 0x40 MLOAD DUP1 SWAP2 SUB SWAP1 RETURN JUMPDEST CALLVALUE DUP1 ISZERO PUSH2 0x1C8 JUMPI PUSH0 DUP1 REVERT JUMPDEST POP PUSH2 0x1D1 PUSH2 0x15D1 JUMP JUMPDEST PUSH1 0x40 MLOAD PUSH2 0x1DE SWAP2 SWAP1 PUSH2 0x1D29 JUMP JUMPDEST PUSH1 0x40 MLOAD DUP1 SWAP2 SUB SWAP1 RETURN JUMPDEST CALLVALUE DUP1 ISZERO PUSH2 0x1F2 JUMPI PUSH0 DUP1 REVERT JUMPDEST POP PUSH2 0x1FB PUSH2 0x16D6 JUMP JUMPDEST PUSH1 0x40 MLOAD PUSH2 0x208 SWAP2 SWAP1 PUSH2 0x21CE JUMP JUMPDEST PUSH1 0x40 MLOAD DUP1 SWAP2 SUB SWAP1 RETURN JUMPDEST PUSH0 DUP1 PUSH0 DUP1 CALLER PUSH20 0xFFFFFFFFFFFFFFFFFFFFFFFFFFFFFFFFFFFFFFFF AND PUSH20 0xFFFFFFFFFFFFFFFFFFFFFFFFFFFFFFFFFFFFFFFF AND DUP2 MSTORE PUSH1 0x20 ADD SWAP1 DUP2 MSTORE PUSH1 0x20 ADD PUSH0 KECCAK256 PUSH0 ADD DUP1 SLOAD PUSH2 0x25C SWAP1 PUSH2 0x221B JUMP JUMPDEST SWAP1 POP GT SWAP1 POP SWAP1 JUMP JUMPDEST DUP2 DUP2 DUP1 DUP1 PUSH1 0x1F ADD PUSH1 0x20 DUP1 SWAP2 DIV MUL PUSH1 0x20 ADD PUSH1 0x40 MLOAD SWAP1 DUP2 ADD PUSH1 0x40 MSTORE DUP1 SWAP4 SWAP3 SWAP2 SWAP1 DUP2 DUP2 MSTORE PUSH1 0x20 ADD DUP4 DUP4 DUP1 DUP3 DUP5 CALLDATACOPY PUSH0 DUP2 DUP5 ADD MSTORE PUSH1 0x1F NOT PUSH1 0x1F DUP3 ADD AND SWAP1 POP DUP1 DUP4 ADD SWAP3 POP POP POP POP POP POP POP PUSH1 0x1 DUP1 DUP2 GT ISZERO PUSH2 0x2BB JUMPI PUSH2 0x2BA PUSH2 0x1EA7 JUMP JUMPDEST JUMPDEST PUSH1 0x1 DUP3 PUSH1 0x40 MLOAD PUSH2 0x2CB SWAP2 SWAP1 PUSH2 0x2285 JUMP JUMPDEST SWAP1 DUP2 MSTORE PUSH1 0x20 ADD PUSH1 0x40 MLOAD DUP1 SWAP2 SUB SWAP1 KECCAK256 PUSH1 0x3 ADD PUSH0 SWAP1 SLOAD SWAP1 PUSH2 0x100 EXP SWAP1 DIV PUSH1 0xFF AND PUSH1 0x1 DUP2 GT ISZERO PUSH2 0x2FB JUMPI PUSH2 0x2FA PUSH2 0x1EA7 JUMP JUMPDEST JUMPDEST EQ PUSH2 0x33B JUMPI PUSH1 0x40 MLOAD PUSH32 0x8C379A000000000000000000000000000000000000000000000000000000000 DUP2 MSTORE PUSH1 0x4 ADD PUSH2 0x332 SWAP1 PUSH2 0x22F5 JUMP JUMPDEST PUSH1 0x40 MLOAD DUP1 SWAP2 SUB SWAP1 REVERT JUMPDEST PUSH0 DUP1 PUSH0 CALLER PUSH20 0xFFFFFFFFFFFFFFFFFFFFFFFFFFFFFFFFFFFFFFFF AND PUSH20 0xFFFFFFFFFFFFFFFFFFFFFFFFFFFFFFFFFFFFFFFF AND DUP2 MSTORE PUSH1 0x20 ADD SWAP1 DUP2 MSTORE PUSH1 0x20 ADD PUSH0 KECCAK256 PUSH0 ADD DUP1 SLOAD PUSH2 0x385 SWAP1 PUSH2 0x221B JUMP JUMPDEST SWAP1 POP GT PUSH2 0x3C7 JUMPI PUSH1 0x40 MLOAD PUSH32 0x8C379A000000000000000000000000000000000000000000000000000000000 DUP2 MSTORE PUSH1 0x4 ADD PUSH2 0x3BE SWAP1 PUSH2 0x235D JUMP JUMPDEST PUSH1 0x40 MLOAD DUP1 SWAP2 SUB SWAP1 REVERT JUMPDEST PUSH1 0x2 PUSH0 SWAP1 SLOAD SWAP1 PUSH2 0x100 EXP SWAP1 DIV PUSH1 0xFF AND ISZERO PUSH2 0x416 JUMPI PUSH1 0x40 MLOAD PUSH32 0x8C379A000000000000000000000000000000000000000000000000000000000 DUP2 MSTORE PUSH1 0x4 ADD PUSH2 0x40D SWAP1 PUSH2 0x23C5 JUMP JUMPDEST PUSH1 0x40 MLOAD DUP1 SWAP2 SUB SWAP1 REVERT JUMPDEST PUSH1 0x1 PUSH1 0x2 PUSH0 PUSH2 0x100 EXP DUP2 SLOAD DUP2 PUSH1 0xFF MUL NOT AND SWAP1 DUP4 ISZERO ISZERO MUL OR SWAP1 SSTORE POP PUSH0 PUSH1 0x1 DUP5 DUP5 PUSH1 0x40 MLOAD PUSH2 0x443 SWAP3 SWAP2 SWAP1 PUSH2 0x2415 JUMP JUMPDEST SWAP1 DUP2 MSTORE PUSH1 0x20 ADD PUSH1 0x40 MLOAD DUP1 SWAP2 SUB SWAP1 KECCAK256 SWAP1 POP PUSH0 DUP2 PUSH1 0x2 ADD SLOAD SWAP1 POP PUSH0 DUP2 GT PUSH2 0x49D JUMPI PUSH1 0x40 MLOAD PUSH32 0x8C379A000000000000000000000000000000000000000000000000000000000 DUP2 MSTORE PUSH1 0x4 ADD PUSH2 0x494 SWAP1 PUSH2 0x2477 JUMP JUMPDEST PUSH1 0x40 MLOAD DUP1 SWAP2 SUB SWAP1 REVERT JUMPDEST PUSH0 DUP3 PUSH1 0x3 ADD PUSH0 PUSH2 0x100 EXP DUP2 SLOAD DUP2 PUSH1 0xFF MUL NOT AND SWAP1 DUP4 PUSH1 0x1 DUP2 GT ISZERO PUSH2 0x4C3 JUMPI PUSH2 0x4C2 PUSH2 0x1EA7 JUMP JUMPDEST JUMPDEST MUL OR SWAP1 SSTORE POP PUSH0 DUP1 CALLER PUSH20 0xFFFFFFFFFFFFFFFFFFFFFFFFFFFFFFFFFFFFFFFF AND PUSH20 0xFFFFFFFFFFFFFFFFFFFFFFFFFFFFFFFFFFFFFFFF AND DUP2 MSTORE PUSH1 0x20 ADD SWAP1 DUP2 MSTORE PUSH1 0x20 ADD PUSH0 KECCAK256 PUSH0 ADD DUP3 PUSH1 0x4 ADD SWAP1 DUP2 PUSH2 0x516 SWAP2 SWAP1 PUSH2 0x2686 JUMP JUMPDEST POP PUSH0 CALLER PUSH20 0xFFFFFFFFFFFFFFFFFFFFFFFFFFFFFFFFFFFFFFFF AND DUP3 PUSH1 0x40 MLOAD PUSH2 0x53C SWAP1 PUSH2 0x2798 JUMP JUMPDEST PUSH0 PUSH1 0x40 MLOAD DUP1 DUP4 SUB DUP2 DUP6 DUP8 GAS CALL SWAP3 POP POP POP RETURNDATASIZE DUP1 PUSH0 DUP2 EQ PUSH2 0x576 JUMPI PUSH1 0x40 MLOAD SWAP2 POP PUSH1 0x1F NOT PUSH1 0x3F RETURNDATASIZE ADD AND DUP3 ADD PUSH1 0x40 MSTORE RETURNDATASIZE DUP3 MSTORE RETURNDATASIZE PUSH0 PUSH1 0x20 DUP5 ADD RETURNDATACOPY PUSH2 0x57B JUMP JUMPDEST PUSH1 0x60 SWAP2 POP JUMPDEST POP POP SWAP1 POP DUP1 PUSH2 0x5BF JUMPI PUSH1 0x40 MLOAD PUSH32 0x8C379A000000000000000000000000000000000000000000000000000000000 DUP2 MSTORE PUSH1 0x4 ADD PUSH2 0x5B6 SWAP1 PUSH2 0x27F6 JUMP JUMPDEST PUSH1 0x40 MLOAD DUP1 SWAP2 SUB SWAP1 REVERT JUMPDEST PUSH32 0x604D6DE1B6EB3F39C6AB9D4981A20D17F88C5BEF33495AE58DABEB097BA7A41A DUP3 PUSH1 0x40 MLOAD PUSH2 0x5EE SWAP2 SWAP1 PUSH2 0x205C JUMP JUMPDEST PUSH1 0x40 MLOAD DUP1 SWAP2 SUB SWAP1 LOG1 POP POP POP PUSH0 PUSH1 0x2 PUSH0 PUSH2 0x100 EXP DUP2 SLOAD DUP2 PUSH1 0xFF MUL NOT AND SWAP1 DUP4 ISZERO ISZERO MUL OR SWAP1 SSTORE POP POP POP POP JUMP JUMPDEST PUSH1 0x60 PUSH0 DUP1 PUSH0 CALLER PUSH20 0xFFFFFFFFFFFFFFFFFFFFFFFFFFFFFFFFFFFFFFFF AND PUSH20 0xFFFFFFFFFFFFFFFFFFFFFFFFFFFFFFFFFFFFFFFF AND DUP2 MSTORE PUSH1 0x20 ADD SWAP1 DUP2 MSTORE PUSH1 0x20 ADD PUSH0 KECCAK256 PUSH0 ADD DUP1 SLOAD PUSH2 0x663 SWAP1 PUSH2 0x221B JUMP JUMPDEST SWAP1 POP GT PUSH2 0x6A5 JUMPI PUSH1 0x40 MLOAD PUSH32 0x8C379A000000000000000000000000000000000000000000000000000000000 DUP2 MSTORE PUSH1 0x4 ADD PUSH2 0x69C SWAP1 PUSH2 0x235D JUMP JUMPDEST PUSH1 0x40 MLOAD DUP1 SWAP2 SUB SWAP1 REVERT JUMPDEST PUSH0 DUP1 DUP1 PUSH0 CALLER PUSH20 0xFFFFFFFFFFFFFFFFFFFFFFFFFFFFFFFFFFFFFFFF AND PUSH20 0xFFFFFFFFFFFFFFFFFFFFFFFFFFFFFFFFFFFFFFFF AND DUP2 MSTORE PUSH1 0x20 ADD SWAP1 DUP2 MSTORE PUSH1 0x20 ADD PUSH0 KECCAK256 PUSH0 ADD PUSH1 0x40 MLOAD PUSH1 0x20 ADD PUSH2 0x6F5 SWAP2 SWAP1 PUSH2 0x2894 JUMP JUMPDEST PUSH1 0x40 MLOAD PUSH1 0x20 DUP2 DUP4 SUB SUB DUP2 MSTORE SWAP1 PUSH1 0x40 MSTORE DUP1 MLOAD SWAP1 PUSH1 0x20 ADD KECCAK256 SWAP1 POP PUSH0 JUMPDEST PUSH1 0x3 DUP1 SLOAD SWAP1 POP DUP2 LT ISZERO PUSH2 0x80C JUMPI DUP2 PUSH1 0x1 PUSH1 0x3 DUP4 DUP2 SLOAD DUP2 LT PUSH2 0x733 JUMPI PUSH2 0x732 PUSH2 0x28AA JUMP JUMPDEST JUMPDEST SWAP1 PUSH0 MSTORE PUSH1 0x20 PUSH0 KECCAK256 ADD PUSH1 0x40 MLOAD PUSH2 0x748 SWAP2 SWAP1 PUSH2 0x2894 JUMP JUMPDEST SWAP1 DUP2 MSTORE PUSH1 0x20 ADD PUSH1 0x40 MLOAD DUP1 SWAP2 SUB SWAP1 KECCAK256 PUSH1 0x1 ADD PUSH1 0x40 MLOAD PUSH1 0x20 ADD PUSH2 0x769 SWAP2 SWAP1 PUSH2 0x2894 JUMP JUMPDEST PUSH1 0x40 MLOAD PUSH1 0x20 DUP2 DUP4 SUB SUB DUP2 MSTORE SWAP1 PUSH1 0x40 MSTORE DUP1 MLOAD SWAP1 PUSH1 0x20 ADD KECCAK256 EQ DUP1 PUSH2 0x7EB JUMPI POP DUP2 PUSH1 0x1 PUSH1 0x3 DUP4 DUP2 SLOAD DUP2 LT PUSH2 0x79D JUMPI PUSH2 0x79C PUSH2 0x28AA JUMP JUMPDEST JUMPDEST SWAP1 PUSH0 MSTORE PUSH1 0x20 PUSH0 KECCAK256 ADD PUSH1 0x40 MLOAD PUSH2 0x7B2 SWAP2 SWAP1 PUSH2 0x2894 JUMP JUMPDEST SWAP1 DUP2 MSTORE PUSH1 0x20 ADD PUSH1 0x40 MLOAD DUP1 SWAP2 SUB SWAP1 KECCAK256 PUSH1 0x4 ADD PUSH1 0x40 MLOAD PUSH1 0x20 ADD PUSH2 0x7D3 SWAP2 SWAP1 PUSH2 0x2894 JUMP JUMPDEST PUSH1 0x40 MLOAD PUSH1 0x20 DUP2 DUP4 SUB SUB DUP2 MSTORE SWAP1 PUSH1 0x40 MSTORE DUP1 MLOAD SWAP1 PUSH1 0x20 ADD KECCAK256 EQ JUMPDEST ISZERO PUSH2 0x7FF JUMPI DUP3 DUP1 PUSH2 0x7FB SWAP1 PUSH2 0x2904 JUMP JUMPDEST SWAP4 POP POP JUMPDEST DUP1 DUP1 PUSH1 0x1 ADD SWAP2 POP POP PUSH2 0x70F JUMP JUMPDEST POP PUSH0 DUP3 PUSH8 0xFFFFFFFFFFFFFFFF DUP2 GT ISZERO PUSH2 0x828 JUMPI PUSH2 0x827 PUSH2 0x24AA JUMP JUMPDEST JUMPDEST PUSH1 0x40 MLOAD SWAP1 DUP1 DUP3 MSTORE DUP1 PUSH1 0x20 MUL PUSH1 0x20 ADD DUP3 ADD PUSH1 0x40 MSTORE DUP1 ISZERO PUSH2 0x861 JUMPI DUP2 PUSH1 0x20 ADD JUMPDEST PUSH2 0x84E PUSH2 0x1C8D JUMP JUMPDEST DUP2 MSTORE PUSH1 0x20 ADD SWAP1 PUSH1 0x1 SWAP1 SUB SWAP1 DUP2 PUSH2 0x846 JUMPI SWAP1 POP JUMPDEST POP SWAP1 POP PUSH0 DUP1 JUMPDEST PUSH1 0x3 DUP1 SLOAD SWAP1 POP DUP2 LT ISZERO PUSH2 0xBB9 JUMPI DUP4 PUSH1 0x1 PUSH1 0x3 DUP4 DUP2 SLOAD DUP2 LT PUSH2 0x88B JUMPI PUSH2 0x88A PUSH2 0x28AA JUMP JUMPDEST JUMPDEST SWAP1 PUSH0 MSTORE PUSH1 0x20 PUSH0 KECCAK256 ADD PUSH1 0x40 MLOAD PUSH2 0x8A0 SWAP2 SWAP1 PUSH2 0x2894 JUMP JUMPDEST SWAP1 DUP2 MSTORE PUSH1 0x20 ADD PUSH1 0x40 MLOAD DUP1 SWAP2 SUB SWAP1 KECCAK256 PUSH1 0x1 ADD PUSH1 0x40 MLOAD PUSH1 0x20 ADD PUSH2 0x8C1 SWAP2 SWAP1 PUSH2 0x2894 JUMP JUMPDEST PUSH1 0x40 MLOAD PUSH1 0x20 DUP2 DUP4 SUB SUB DUP2 MSTORE SWAP1 PUSH1 0x40 MSTORE DUP1 MLOAD SWAP1 PUSH1 0x20 ADD KECCAK256 EQ DUP1 PUSH2 0x943 JUMPI POP DUP4 PUSH1 0x1 PUSH1 0x3 DUP4 DUP2 SLOAD DUP2 LT PUSH2 0x8F5 JUMPI PUSH2 0x8F4 PUSH2 0x28AA JUMP JUMPDEST JUMPDEST SWAP1 PUSH0 MSTORE PUSH1 0x20 PUSH0 KECCAK256 ADD PUSH1 0x40 MLOAD PUSH2 0x90A SWAP2 SWAP1 PUSH2 0x2894 JUMP JUMPDEST SWAP1 DUP2 MSTORE PUSH1 0x20 ADD PUSH1 0x40 MLOAD DUP1 SWAP2 SUB SWAP1 KECCAK256 PUSH1 0x4 ADD PUSH1 0x40 MLOAD PUSH1 0x20 ADD PUSH2 0x92B SWAP2 SWAP1 PUSH2 0x2894 JUMP JUMPDEST PUSH1 0x40 MLOAD PUSH1 0x20 DUP2 DUP4 SUB SUB DUP2 MSTORE SWAP1 PUSH1 0x40 MSTORE DUP1 MLOAD SWAP1 PUSH1 0x20 ADD KECCAK256 EQ JUMPDEST ISZERO PUSH2 0xBAC JUMPI PUSH1 0x1 PUSH1 0x3 DUP3 DUP2 SLOAD DUP2 LT PUSH2 0x95E JUMPI PUSH2 0x95D PUSH2 0x28AA JUMP JUMPDEST JUMPDEST SWAP1 PUSH0 MSTORE PUSH1 0x20 PUSH0 KECCAK256 ADD PUSH1 0x40 MLOAD PUSH2 0x973 SWAP2 SWAP1 PUSH2 0x2894 JUMP JUMPDEST SWAP1 DUP2 MSTORE PUSH1 0x20 ADD PUSH1 0x40 MLOAD DUP1 SWAP2 SUB SWAP1 KECCAK256 PUSH1 0x40 MLOAD DUP1 PUSH1 0xA0 ADD PUSH1 0x40 MSTORE SWAP1 DUP2 PUSH0 DUP3 ADD DUP1 SLOAD PUSH2 0x99B SWAP1 PUSH2 0x221B JUMP JUMPDEST DUP1 PUSH1 0x1F ADD PUSH1 0x20 DUP1 SWAP2 DIV MUL PUSH1 0x20 ADD PUSH1 0x40 MLOAD SWAP1 DUP2 ADD PUSH1 0x40 MSTORE DUP1 SWAP3 SWAP2 SWAP1 DUP2 DUP2 MSTORE PUSH1 0x20 ADD DUP3 DUP1 SLOAD PUSH2 0x9C7 SWAP1 PUSH2 0x221B JUMP JUMPDEST DUP1 ISZERO PUSH2 0xA12 JUMPI DUP1 PUSH1 0x1F LT PUSH2 0x9E9 JUMPI PUSH2 0x100 DUP1 DUP4 SLOAD DIV MUL DUP4 MSTORE SWAP2 PUSH1 0x20 ADD SWAP2 PUSH2 0xA12 JUMP JUMPDEST DUP3 ADD SWAP2 SWAP1 PUSH0 MSTORE PUSH1 0x20 PUSH0 KECCAK256 SWAP1 JUMPDEST DUP2 SLOAD DUP2 MSTORE SWAP1 PUSH1 0x1 ADD SWAP1 PUSH1 0x20 ADD DUP1 DUP4 GT PUSH2 0x9F5 JUMPI DUP3 SWAP1 SUB PUSH1 0x1F AND DUP3 ADD SWAP2 JUMPDEST POP POP POP POP POP DUP2 MSTORE PUSH1 0x20 ADD PUSH1 0x1 DUP3 ADD DUP1 SLOAD PUSH2 0xA2B SWAP1 PUSH2 0x221B JUMP JUMPDEST DUP1 PUSH1 0x1F ADD PUSH1 0x20 DUP1 SWAP2 DIV MUL PUSH1 0x20 ADD PUSH1 0x40 MLOAD SWAP1 DUP2 ADD PUSH1 0x40 MSTORE DUP1 SWAP3 SWAP2 SWAP1 DUP2 DUP2 MSTORE PUSH1 0x20 ADD DUP3 DUP1 SLOAD PUSH2 0xA57 SWAP1 PUSH2 0x221B JUMP JUMPDEST DUP1 ISZERO PUSH2 0xAA2 JUMPI DUP1 PUSH1 0x1F LT PUSH2 0xA79 JUMPI PUSH2 0x100 DUP1 DUP4 SLOAD DIV MUL DUP4 MSTORE SWAP2 PUSH1 0x20 ADD SWAP2 PUSH2 0xAA2 JUMP JUMPDEST DUP3 ADD SWAP2 SWAP1 PUSH0 MSTORE PUSH1 0x20 PUSH0 KECCAK256 SWAP1 JUMPDEST DUP2 SLOAD DUP2 MSTORE SWAP1 PUSH1 0x1 ADD SWAP1 PUSH1 0x20 ADD DUP1 DUP4 GT PUSH2 0xA85 JUMPI DUP3 SWAP1 SUB PUSH1 0x1F AND DUP3 ADD SWAP2 JUMPDEST POP POP POP POP POP DUP2 MSTORE PUSH1 0x20 ADD PUSH1 0x2 DUP3 ADD SLOAD DUP2 MSTORE PUSH1 0x20 ADD PUSH1 0x3 DUP3 ADD PUSH0 SWAP1 SLOAD SWAP1 PUSH2 0x100 EXP SWAP1 DIV PUSH1 0xFF AND PUSH1 0x1 DUP2 GT ISZERO PUSH2 0xAD9 JUMPI PUSH2 0xAD8 PUSH2 0x1EA7 JUMP JUMPDEST JUMPDEST PUSH1 0x1 DUP2 GT ISZERO PUSH2 0xAEB JUMPI PUSH2 0xAEA PUSH2 0x1EA7 JUMP JUMPDEST JUMPDEST DUP2 MSTORE PUSH1 0x20 ADD PUSH1 0x4 DUP3 ADD DUP1 SLOAD PUSH2 0xAFF SWAP1 PUSH2 0x221B JUMP JUMPDEST DUP1 PUSH1 0x1F ADD PUSH1 0x20 DUP1 SWAP2 DIV MUL PUSH1 0x20 ADD PUSH1 0x40 MLOAD SWAP1 DUP2 ADD PUSH1 0x40 MSTORE DUP1 SWAP3 SWAP2 SWAP1 DUP2 DUP2 MSTORE PUSH1 0x20 ADD DUP3 DUP1 SLOAD PUSH2 0xB2B SWAP1 PUSH2 0x221B JUMP JUMPDEST DUP1 ISZERO PUSH2 0xB76 JUMPI DUP1 PUSH1 0x1F LT PUSH2 0xB4D JUMPI PUSH2 0x100 DUP1 DUP4 SLOAD DIV MUL DUP4 MSTORE SWAP2 PUSH1 0x20 ADD SWAP2 PUSH2 0xB76 JUMP JUMPDEST DUP3 ADD SWAP2 SWAP1 PUSH0 MSTORE PUSH1 0x20 PUSH0 KECCAK256 SWAP1 JUMPDEST DUP2 SLOAD DUP2 MSTORE SWAP1 PUSH1 0x1 ADD SWAP1 PUSH1 0x20 ADD DUP1 DUP4 GT PUSH2 0xB59 JUMPI DUP3 SWAP1 SUB PUSH1 0x1F AND DUP3 ADD SWAP2 JUMPDEST POP POP POP POP POP DUP2 MSTORE POP POP DUP4 DUP4 DUP2 MLOAD DUP2 LT PUSH2 0xB92 JUMPI PUSH2 0xB91 PUSH2 0x28AA JUMP JUMPDEST JUMPDEST PUSH1 0x20 MUL PUSH1 0x20 ADD ADD DUP2 SWAP1 MSTORE POP DUP2 DUP1 PUSH2 0xBA8 SWAP1 PUSH2 0x2904 JUMP JUMPDEST SWAP3 POP POP JUMPDEST DUP1 DUP1 PUSH1 0x1 ADD SWAP2 POP POP PUSH2 0x867 JUMP JUMPDEST POP DUP2 SWAP5 POP POP POP POP POP SWAP1 JUMP JUMPDEST PUSH0 DUP1 PUSH0 DUP1 CALLER PUSH20 0xFFFFFFFFFFFFFFFFFFFFFFFFFFFFFFFFFFFFFFFF AND PUSH20 0xFFFFFFFFFFFFFFFFFFFFFFFFFFFFFFFFFFFFFFFF AND DUP2 MSTORE PUSH1 0x20 ADD SWAP1 DUP2 MSTORE PUSH1 0x20 ADD PUSH0 KECCAK256 PUSH0 ADD DUP1 SLOAD PUSH2 0xC0F SWAP1 PUSH2 0x221B JUMP JUMPDEST SWAP1 POP GT PUSH2 0xC51 JUMPI PUSH1 0x40 MLOAD PUSH32 0x8C379A000000000000000000000000000000000000000000000000000000000 DUP2 MSTORE PUSH1 0x4 ADD PUSH2 0xC48 SWAP1 PUSH2 0x235D JUMP JUMPDEST PUSH1 0x40 MLOAD DUP1 SWAP2 SUB SWAP1 REVERT JUMPDEST PUSH1 0x1 DUP1 DUP2 GT ISZERO PUSH2 0xC64 JUMPI PUSH2 0xC63 PUSH2 0x1EA7 JUMP JUMPDEST JUMPDEST PUSH0 DUP1 CALLER PUSH20 0xFFFFFFFFFFFFFFFFFFFFFFFFFFFFFFFFFFFFFFFF AND PUSH20 0xFFFFFFFFFFFFFFFFFFFFFFFFFFFFFFFFFFFFFFFF AND DUP2 MSTORE PUSH1 0x20 ADD SWAP1 DUP2 MSTORE PUSH1 0x20 ADD PUSH0 KECCAK256 PUSH1 0x1 ADD PUSH1 0x1 SWAP1 SLOAD SWAP1 PUSH2 0x100 EXP SWAP1 DIV PUSH1 0xFF AND PUSH1 0x1 DUP2 GT ISZERO PUSH2 0xCC3 JUMPI PUSH2 0xCC2 PUSH2 0x1EA7 JUMP JUMPDEST JUMPDEST EQ PUSH2 0xD03 JUMPI PUSH1 0x40 MLOAD PUSH32 0x8C379A000000000000000000000000000000000000000000000000000000000 DUP2 MSTORE PUSH1 0x4 ADD PUSH2 0xCFA SWAP1 PUSH2 0x2995 JUMP JUMPDEST PUSH1 0x40 MLOAD DUP1 SWAP2 SUB SWAP1 REVERT JUMPDEST PUSH0 CALLER PUSH20 0xFFFFFFFFFFFFFFFFFFFFFFFFFFFFFFFFFFFFFFFF AND SELFBALANCE PUSH1 0x40 MLOAD PUSH2 0xD28 SWAP1 PUSH2 0x2798 JUMP JUMPDEST PUSH0 PUSH1 0x40 MLOAD DUP1 DUP4 SUB DUP2 DUP6 DUP8 GAS CALL SWAP3 POP POP POP RETURNDATASIZE DUP1 PUSH0 DUP2 EQ PUSH2 0xD62 JUMPI PUSH1 0x40 MLOAD SWAP2 POP PUSH1 0x1F NOT PUSH1 0x3F RETURNDATASIZE ADD AND DUP3 ADD PUSH1 0x40 MSTORE RETURNDATASIZE DUP3 MSTORE RETURNDATASIZE PUSH0 PUSH1 0x20 DUP5 ADD RETURNDATACOPY PUSH2 0xD67 JUMP JUMPDEST PUSH1 0x60 SWAP2 POP JUMPDEST POP POP SWAP1 POP DUP1 PUSH2 0xDAB JUMPI PUSH1 0x40 MLOAD PUSH32 0x8C379A000000000000000000000000000000000000000000000000000000000 DUP2 MSTORE PUSH1 0x4 ADD PUSH2 0xDA2 SWAP1 PUSH2 0x27F6 JUMP JUMPDEST PUSH1 0x40 MLOAD DUP1 SWAP2 SUB SWAP1 REVERT JUMPDEST DUP1 SWAP2 POP POP SWAP1 JUMP JUMPDEST PUSH0 DUP1 PUSH0 DUP1 CALLER PUSH20 0xFFFFFFFFFFFFFFFFFFFFFFFFFFFFFFFFFFFFFFFF AND PUSH20 0xFFFFFFFFFFFFFFFFFFFFFFFFFFFFFFFFFFFFFFFF AND DUP2 MSTORE PUSH1 0x20 ADD SWAP1 DUP2 MSTORE PUSH1 0x20 ADD PUSH0 KECCAK256 PUSH0 ADD DUP1 SLOAD PUSH2 0xDFD SWAP1 PUSH2 0x221B JUMP JUMPDEST SWAP1 POP GT PUSH2 0xE3F JUMPI PUSH1 0x40 MLOAD PUSH32 0x8C379A000000000000000000000000000000000000000000000000000000000 DUP2 MSTORE PUSH1 0x4 ADD PUSH2 0xE36 SWAP1 PUSH2 0x235D JUMP JUMPDEST PUSH1 0x40 MLOAD DUP1 SWAP2 SUB SWAP1 REVERT JUMPDEST PUSH1 0x1 DUP1 DUP2 GT ISZERO PUSH2 0xE52 JUMPI PUSH2 0xE51 PUSH2 0x1EA7 JUMP JUMPDEST JUMPDEST PUSH0 DUP1 CALLER PUSH20 0xFFFFFFFFFFFFFFFFFFFFFFFFFFFFFFFFFFFFFFFF AND PUSH20 0xFFFFFFFFFFFFFFFFFFFFFFFFFFFFFFFFFFFFFFFF AND DUP2 MSTORE PUSH1 0x20 ADD SWAP1 DUP2 MSTORE PUSH1 0x20 ADD PUSH0 KECCAK256 PUSH1 0x1 ADD PUSH1 0x1 SWAP1 SLOAD SWAP1 PUSH2 0x100 EXP SWAP1 DIV PUSH1 0xFF AND PUSH1 0x1 DUP2 GT ISZERO PUSH2 0xEB1 JUMPI PUSH2 0xEB0 PUSH2 0x1EA7 JUMP JUMPDEST JUMPDEST EQ PUSH2 0xEF1 JUMPI PUSH1 0x40 MLOAD PUSH32 0x8C379A000000000000000000000000000000000000000000000000000000000 DUP2 MSTORE PUSH1 0x4 ADD PUSH2 0xEE8 SWAP1 PUSH2 0x2995 JUMP JUMPDEST PUSH1 0x40 MLOAD DUP1 SWAP2 SUB SWAP1 REVERT JUMPDEST PUSH1 0x5 SLOAD SWAP1 POP SWAP1 JUMP JUMPDEST PUSH1 0x4 CALLER SWAP1 DUP1 PUSH1 0x1 DUP2 SLOAD ADD DUP1 DUP3 SSTORE DUP1 SWAP2 POP POP PUSH1 0x1 SWAP1 SUB SWAP1 PUSH0 MSTORE PUSH1 0x20 PUSH0 KECCAK256 ADD PUSH0 SWAP1 SWAP2 SWAP1 SWAP2 SWAP1 SWAP2 PUSH2 0x100 EXP DUP2 SLOAD DUP2 PUSH20 0xFFFFFFFFFFFFFFFFFFFFFFFFFFFFFFFFFFFFFFFF MUL NOT AND SWAP1 DUP4 PUSH20 0xFFFFFFFFFFFFFFFFFFFFFFFFFFFFFFFFFFFFFFFF AND MUL OR SWAP1 SSTORE POP PUSH1 0x40 MLOAD DUP1 PUSH1 0x60 ADD PUSH1 0x40 MSTORE DUP1 DUP5 DUP5 DUP1 DUP1 PUSH1 0x1F ADD PUSH1 0x20 DUP1 SWAP2 DIV MUL PUSH1 0x20 ADD PUSH1 0x40 MLOAD SWAP1 DUP2 ADD PUSH1 0x40 MSTORE DUP1 SWAP4 SWAP3 SWAP2 SWAP1 DUP2 DUP2 MSTORE PUSH1 0x20 ADD DUP4 DUP4 DUP1 DUP3 DUP5 CALLDATACOPY PUSH0 DUP2 DUP5 ADD MSTORE PUSH1 0x1F NOT PUSH1 0x1F DUP3 ADD AND SWAP1 POP DUP1 DUP4 ADD SWAP3 POP POP POP POP POP POP POP DUP2 MSTORE PUSH1 0x20 ADD DUP3 PUSH1 0x1 DUP2 GT ISZERO PUSH2 0xFC0 JUMPI PUSH2 0xFBF PUSH2 0x1EA7 JUMP JUMPDEST JUMPDEST DUP2 MSTORE PUSH1 0x20 ADD PUSH0 PUSH1 0x1 DUP2 GT ISZERO PUSH2 0xFD8 JUMPI PUSH2 0xFD7 PUSH2 0x1EA7 JUMP JUMPDEST JUMPDEST DUP2 MSTORE POP PUSH0 DUP1 CALLER PUSH20 0xFFFFFFFFFFFFFFFFFFFFFFFFFFFFFFFFFFFFFFFF AND PUSH20 0xFFFFFFFFFFFFFFFFFFFFFFFFFFFFFFFFFFFFFFFF AND DUP2 MSTORE PUSH1 0x20 ADD SWAP1 DUP2 MSTORE PUSH1 0x20 ADD PUSH0 KECCAK256 PUSH0 DUP3 ADD MLOAD DUP2 PUSH0 ADD SWAP1 DUP2 PUSH2 0x102A SWAP2 SWAP1 PUSH2 0x29B3 JUMP JUMPDEST POP PUSH1 0x20 DUP3 ADD MLOAD DUP2 PUSH1 0x1 ADD PUSH0 PUSH2 0x100 EXP DUP2 SLOAD DUP2 PUSH1 0xFF MUL NOT AND SWAP1 DUP4 PUSH1 0x1 DUP2 GT ISZERO PUSH2 0x1055 JUMPI PUSH2 0x1054 PUSH2 0x1EA7 JUMP JUMPDEST JUMPDEST MUL OR SWAP1 SSTORE POP PUSH1 0x40 DUP3 ADD MLOAD DUP2 PUSH1 0x1 ADD PUSH1 0x1 PUSH2 0x100 EXP DUP2 SLOAD DUP2 PUSH1 0xFF MUL NOT AND SWAP1 DUP4 PUSH1 0x1 DUP2 GT ISZERO PUSH2 0x1085 JUMPI PUSH2 0x1084 PUSH2 0x1EA7 JUMP JUMPDEST JUMPDEST MUL OR SWAP1 SSTORE POP SWAP1 POP POP POP POP POP JUMP JUMPDEST PUSH0 DUP1 PUSH0 CALLER PUSH20 0xFFFFFFFFFFFFFFFFFFFFFFFFFFFFFFFFFFFFFFFF AND PUSH20 0xFFFFFFFFFFFFFFFFFFFFFFFFFFFFFFFFFFFFFFFF AND DUP2 MSTORE PUSH1 0x20 ADD SWAP1 DUP2 MSTORE PUSH1 0x20 ADD PUSH0 KECCAK256 PUSH0 ADD DUP1 SLOAD PUSH2 0x10DC SWAP1 PUSH2 0x221B JUMP JUMPDEST SWAP1 POP GT PUSH2 0x111E JUMPI PUSH1 0x40 MLOAD PUSH32 0x8C379A000000000000000000000000000000000000000000000000000000000 DUP2 MSTORE PUSH1 0x4 ADD PUSH2 0x1115 SWAP1 PUSH2 0x235D JUMP JUMPDEST PUSH1 0x40 MLOAD DUP1 SWAP2 SUB SWAP1 REVERT JUMPDEST PUSH0 PUSH1 0x64 PUSH1 0x5A CALLVALUE PUSH2 0x112E SWAP2 SWAP1 PUSH2 0x2A82 JUMP JUMPDEST PUSH2 0x1138 SWAP2 SWAP1 PUSH2 0x2AF0 JUMP JUMPDEST SWAP1 POP PUSH1 0x64 PUSH1 0xA CALLVALUE PUSH2 0x1149 SWAP2 SWAP1 PUSH2 0x2A82 JUMP JUMPDEST PUSH2 0x1153 SWAP2 SWAP1 PUSH2 0x2AF0 JUMP JUMPDEST PUSH1 0x5 PUSH0 DUP3 DUP3 SLOAD PUSH2 0x1163 SWAP2 SWAP1 PUSH2 0x2B20 JUMP JUMPDEST SWAP3 POP POP DUP2 SWAP1 SSTORE POP PUSH0 PUSH2 0x1173 PUSH2 0x18BA JUMP JUMPDEST SWAP1 POP PUSH2 0x117F DUP2 DUP4 PUSH2 0x1997 JUMP JUMPDEST PUSH32 0x19446F6741ECA6D71B8406898C4308B5F1B9844F9F1EA7614B48264E453B9BD2 DUP2 DUP4 PUSH1 0x40 MLOAD PUSH2 0x11B0 SWAP3 SWAP2 SWAP1 PUSH2 0x2B8B JUMP JUMPDEST PUSH1 0x40 MLOAD DUP1 SWAP2 SUB SWAP1 LOG1 POP POP JUMP JUMPDEST PUSH1 0x60 PUSH0 DUP1 PUSH0 CALLER PUSH20 0xFFFFFFFFFFFFFFFFFFFFFFFFFFFFFFFFFFFFFFFF AND PUSH20 0xFFFFFFFFFFFFFFFFFFFFFFFFFFFFFFFFFFFFFFFF AND DUP2 MSTORE PUSH1 0x20 ADD SWAP1 DUP2 MSTORE PUSH1 0x20 ADD PUSH0 KECCAK256 PUSH0 ADD DUP1 SLOAD PUSH2 0x1208 SWAP1 PUSH2 0x221B JUMP JUMPDEST SWAP1 POP GT PUSH2 0x124A JUMPI PUSH1 0x40 MLOAD PUSH32 0x8C379A000000000000000000000000000000000000000000000000000000000 DUP2 MSTORE PUSH1 0x4 ADD PUSH2 0x1241 SWAP1 PUSH2 0x235D JUMP JUMPDEST PUSH1 0x40 MLOAD DUP1 SWAP2 SUB SWAP1 REVERT JUMPDEST PUSH1 0x1 DUP1 DUP2 GT ISZERO PUSH2 0x125D JUMPI PUSH2 0x125C PUSH2 0x1EA7 JUMP JUMPDEST JUMPDEST PUSH0 DUP1 CALLER PUSH20 0xFFFFFFFFFFFFFFFFFFFFFFFFFFFFFFFFFFFFFFFF AND PUSH20 0xFFFFFFFFFFFFFFFFFFFFFFFFFFFFFFFFFFFFFFFF AND DUP2 MSTORE PUSH1 0x20 ADD SWAP1 DUP2 MSTORE PUSH1 0x20 ADD PUSH0 KECCAK256 PUSH1 0x1 ADD PUSH1 0x1 SWAP1 SLOAD SWAP1 PUSH2 0x100 EXP SWAP1 DIV PUSH1 0xFF AND PUSH1 0x1 DUP2 GT ISZERO PUSH2 0x12BC JUMPI PUSH2 0x12BB PUSH2 0x1EA7 JUMP JUMPDEST JUMPDEST EQ PUSH2 0x12FC JUMPI PUSH1 0x40 MLOAD PUSH32 0x8C379A000000000000000000000000000000000000000000000000000000000 DUP2 MSTORE PUSH1 0x4 ADD PUSH2 0x12F3 SWAP1 PUSH2 0x2995 JUMP JUMPDEST PUSH1 0x40 MLOAD DUP1 SWAP2 SUB SWAP1 REVERT JUMPDEST PUSH0 PUSH1 0x3 DUP1 SLOAD SWAP1 POP SWAP1 POP PUSH0 DUP2 PUSH8 0xFFFFFFFFFFFFFFFF DUP2 GT ISZERO PUSH2 0x1320 JUMPI PUSH2 0x131F PUSH2 0x24AA JUMP JUMPDEST JUMPDEST PUSH1 0x40 MLOAD SWAP1 DUP1 DUP3 MSTORE DUP1 PUSH1 0x20 MUL PUSH1 0x20 ADD DUP3 ADD PUSH1 0x40 MSTORE DUP1 ISZERO PUSH2 0x1359 JUMPI DUP2 PUSH1 0x20 ADD JUMPDEST PUSH2 0x1346 PUSH2 0x1C8D JUMP JUMPDEST DUP2 MSTORE PUSH1 0x20 ADD SWAP1 PUSH1 0x1 SWAP1 SUB SWAP1 DUP2 PUSH2 0x133E JUMPI SWAP1 POP JUMPDEST POP SWAP1 POP PUSH0 JUMPDEST DUP3 DUP2 LT ISZERO PUSH2 0x15C8 JUMPI PUSH1 0x1 PUSH1 0x3 DUP3 DUP2 SLOAD DUP2 LT PUSH2 0x137C JUMPI PUSH2 0x137B PUSH2 0x28AA JUMP JUMPDEST JUMPDEST SWAP1 PUSH0 MSTORE PUSH1 0x20 PUSH0 KECCAK256 ADD PUSH1 0x40 MLOAD PUSH2 0x1391 SWAP2 SWAP1 PUSH2 0x2894 JUMP JUMPDEST SWAP1 DUP2 MSTORE PUSH1 0x20 ADD PUSH1 0x40 MLOAD DUP1 SWAP2 SUB SWAP1 KECCAK256 PUSH1 0x40 MLOAD DUP1 PUSH1 0xA0 ADD PUSH1 0x40 MSTORE SWAP1 DUP2 PUSH0 DUP3 ADD DUP1 SLOAD PUSH2 0x13B9 SWAP1 PUSH2 0x221B JUMP JUMPDEST DUP1 PUSH1 0x1F ADD PUSH1 0x20 DUP1 SWAP2 DIV MUL PUSH1 0x20 ADD PUSH1 0x40 MLOAD SWAP1 DUP2 ADD PUSH1 0x40 MSTORE DUP1 SWAP3 SWAP2 SWAP1 DUP2 DUP2 MSTORE PUSH1 0x20 ADD DUP3 DUP1 SLOAD PUSH2 0x13E5 SWAP1 PUSH2 0x221B JUMP JUMPDEST DUP1 ISZERO PUSH2 0x1430 JUMPI DUP1 PUSH1 0x1F LT PUSH2 0x1407 JUMPI PUSH2 0x100 DUP1 DUP4 SLOAD DIV MUL DUP4 MSTORE SWAP2 PUSH1 0x20 ADD SWAP2 PUSH2 0x1430 JUMP JUMPDEST DUP3 ADD SWAP2 SWAP1 PUSH0 MSTORE PUSH1 0x20 PUSH0 KECCAK256 SWAP1 JUMPDEST DUP2 SLOAD DUP2 MSTORE SWAP1 PUSH1 0x1 ADD SWAP1 PUSH1 0x20 ADD DUP1 DUP4 GT PUSH2 0x1413 JUMPI DUP3 SWAP1 SUB PUSH1 0x1F AND DUP3 ADD SWAP2 JUMPDEST POP POP POP POP POP DUP2 MSTORE PUSH1 0x20 ADD PUSH1 0x1 DUP3 ADD DUP1 SLOAD PUSH2 0x1449 SWAP1 PUSH2 0x221B JUMP JUMPDEST DUP1 PUSH1 0x1F ADD PUSH1 0x20 DUP1 SWAP2 DIV MUL PUSH1 0x20 ADD PUSH1 0x40 MLOAD SWAP1 DUP2 ADD PUSH1 0x40 MSTORE DUP1 SWAP3 SWAP2 SWAP1 DUP2 DUP2 MSTORE PUSH1 0x20 ADD DUP3 DUP1 SLOAD PUSH2 0x1475 SWAP1 PUSH2 0x221B JUMP JUMPDEST DUP1 ISZERO PUSH2 0x14C0 JUMPI DUP1 PUSH1 0x1F LT PUSH2 0x1497 JUMPI PUSH2 0x100 DUP1 DUP4 SLOAD DIV MUL DUP4 MSTORE SWAP2 PUSH1 0x20 ADD SWAP2 PUSH2 0x14C0 JUMP JUMPDEST DUP3 ADD SWAP2 SWAP1 PUSH0 MSTORE PUSH1 0x20 PUSH0 KECCAK256 SWAP1 JUMPDEST DUP2 SLOAD DUP2 MSTORE SWAP1 PUSH1 0x1 ADD SWAP1 PUSH1 0x20 ADD DUP1 DUP4 GT PUSH2 0x14A3 JUMPI DUP3 SWAP1 SUB PUSH1 0x1F AND DUP3 ADD SWAP2 JUMPDEST POP POP POP POP POP DUP2 MSTORE PUSH1 0x20 ADD PUSH1 0x2 DUP3 ADD SLOAD DUP2 MSTORE PUSH1 0x20 ADD PUSH1 0x3 DUP3 ADD PUSH0 SWAP1 SLOAD SWAP1 PUSH2 0x100 EXP SWAP1 DIV PUSH1 0xFF AND PUSH1 0x1 DUP2 GT ISZERO PUSH2 0x14F7 JUMPI PUSH2 0x14F6 PUSH2 0x1EA7 JUMP JUMPDEST JUMPDEST PUSH1 0x1 DUP2 GT ISZERO PUSH2 0x1509 JUMPI PUSH2 0x1508 PUSH2 0x1EA7 JUMP JUMPDEST JUMPDEST DUP2 MSTORE PUSH1 0x20 ADD PUSH1 0x4 DUP3 ADD DUP1 SLOAD PUSH2 0x151D SWAP1 PUSH2 0x221B JUMP JUMPDEST DUP1 PUSH1 0x1F ADD PUSH1 0x20 DUP1 SWAP2 DIV MUL PUSH1 0x20 ADD PUSH1 0x40 MLOAD SWAP1 DUP2 ADD PUSH1 0x40 MSTORE DUP1 SWAP3 SWAP2 SWAP1 DUP2 DUP2 MSTORE PUSH1 0x20 ADD DUP3 DUP1 SLOAD PUSH2 0x1549 SWAP1 PUSH2 0x221B JUMP JUMPDEST DUP1 ISZERO PUSH2 0x1594 JUMPI DUP1 PUSH1 0x1F LT PUSH2 0x156B JUMPI PUSH2 0x100 DUP1 DUP4 SLOAD DIV MUL DUP4 MSTORE SWAP2 PUSH1 0x20 ADD SWAP2 PUSH2 0x1594 JUMP JUMPDEST DUP3 ADD SWAP2 SWAP1 PUSH0 MSTORE PUSH1 0x20 PUSH0 KECCAK256 SWAP1 JUMPDEST DUP2 SLOAD DUP2 MSTORE SWAP1 PUSH1 0x1 ADD SWAP1 PUSH1 0x20 ADD DUP1 DUP4 GT PUSH2 0x1577 JUMPI DUP3 SWAP1 SUB PUSH1 0x1F AND DUP3 ADD SWAP2 JUMPDEST POP POP POP POP POP DUP2 MSTORE POP POP DUP3 DUP3 DUP2 MLOAD DUP2 LT PUSH2 0x15B0 JUMPI PUSH2 0x15AF PUSH2 0x28AA JUMP JUMPDEST JUMPDEST PUSH1 0x20 MUL PUSH1 0x20 ADD ADD DUP2 SWAP1 MSTORE POP DUP1 DUP1 PUSH1 0x1 ADD SWAP2 POP POP PUSH2 0x135E JUMP JUMPDEST POP DUP1 SWAP3 POP POP POP SWAP1 JUMP JUMPDEST PUSH0 DUP1 PUSH0 DUP1 CALLER PUSH20 0xFFFFFFFFFFFFFFFFFFFFFFFFFFFFFFFFFFFFFFFF AND PUSH20 0xFFFFFFFFFFFFFFFFFFFFFFFFFFFFFFFFFFFFFFFF AND DUP2 MSTORE PUSH1 0x20 ADD SWAP1 DUP2 MSTORE PUSH1 0x20 ADD PUSH0 KECCAK256 PUSH0 ADD DUP1 SLOAD PUSH2 0x161C SWAP1 PUSH2 0x221B JUMP JUMPDEST SWAP1 POP GT PUSH2 0x165E JUMPI PUSH1 0x40 MLOAD PUSH32 0x8C379A000000000000000000000000000000000000000000000000000000000 DUP2 MSTORE PUSH1 0x4 ADD PUSH2 0x1655 SWAP1 PUSH2 0x235D JUMP JUMPDEST PUSH1 0x40 MLOAD DUP1 SWAP2 SUB SWAP1 REVERT JUMPDEST PUSH1 0x1 DUP1 DUP2 GT ISZERO PUSH2 0x1671 JUMPI PUSH2 0x1670 PUSH2 0x1EA7 JUMP JUMPDEST JUMPDEST PUSH0 DUP1 CALLER PUSH20 0xFFFFFFFFFFFFFFFFFFFFFFFFFFFFFFFFFFFFFFFF AND PUSH20 0xFFFFFFFFFFFFFFFFFFFFFFFFFFFFFFFFFFFFFFFF AND DUP2 MSTORE PUSH1 0x20 ADD SWAP1 DUP2 MSTORE PUSH1 0x20 ADD PUSH0 KECCAK256 PUSH1 0x1 ADD PUSH1 0x1 SWAP1 SLOAD SWAP1 PUSH2 0x100 EXP SWAP1 DIV PUSH1 0xFF AND PUSH1 0x1 DUP2 GT ISZERO PUSH2 0x16D0 JUMPI PUSH2 0x16CF PUSH2 0x1EA7 JUMP JUMPDEST JUMPDEST EQ SWAP1 POP SWAP1 JUMP JUMPDEST PUSH2 0x16DE PUSH2 0x1CCC JUMP JUMPDEST PUSH0 DUP1 PUSH0 CALLER PUSH20 0xFFFFFFFFFFFFFFFFFFFFFFFFFFFFFFFFFFFFFFFF AND PUSH20 0xFFFFFFFFFFFFFFFFFFFFFFFFFFFFFFFFFFFFFFFF AND DUP2 MSTORE PUSH1 0x20 ADD SWAP1 DUP2 MSTORE PUSH1 0x20 ADD PUSH0 KECCAK256 PUSH0 ADD DUP1 SLOAD PUSH2 0x1728 SWAP1 PUSH2 0x221B JUMP JUMPDEST SWAP1 POP GT PUSH2 0x176A JUMPI PUSH1 0x40 MLOAD PUSH32 0x8C379A000000000000000000000000000000000000000000000000000000000 DUP2 MSTORE PUSH1 0x4 ADD PUSH2 0x1761 SWAP1 PUSH2 0x235D JUMP JUMPDEST PUSH1 0x40 MLOAD DUP1 SWAP2 SUB SWAP1 REVERT JUMPDEST PUSH0 DUP1 CALLER PUSH20 0xFFFFFFFFFFFFFFFFFFFFFFFFFFFFFFFFFFFFFFFF AND PUSH20 0xFFFFFFFFFFFFFFFFFFFFFFFFFFFFFFFFFFFFFFFF AND DUP2 MSTORE PUSH1 0x20 ADD SWAP1 DUP2 MSTORE PUSH1 0x20 ADD PUSH0 KECCAK256 PUSH1 0x40 MLOAD DUP1 PUSH1 0x60 ADD PUSH1 0x40 MSTORE SWAP1 DUP2 PUSH0 DUP3 ADD DUP1 SLOAD PUSH2 0x17C0 SWAP1 PUSH2 0x221B JUMP JUMPDEST DUP1 PUSH1 0x1F ADD PUSH1 0x20 DUP1 SWAP2 DIV MUL PUSH1 0x20 ADD PUSH1 0x40 MLOAD SWAP1 DUP2 ADD PUSH1 0x40 MSTORE DUP1 SWAP3 SWAP2 SWAP1 DUP2 DUP2 MSTORE PUSH1 0x20 ADD DUP3 DUP1 SLOAD PUSH2 0x17EC SWAP1 PUSH2 0x221B JUMP JUMPDEST DUP1 ISZERO PUSH2 0x1837 JUMPI DUP1 PUSH1 0x1F LT PUSH2 0x180E JUMPI PUSH2 0x100 DUP1 DUP4 SLOAD DIV MUL DUP4 MSTORE SWAP2 PUSH1 0x20 ADD SWAP2 PUSH2 0x1837 JUMP JUMPDEST DUP3 ADD SWAP2 SWAP1 PUSH0 MSTORE PUSH1 0x20 PUSH0 KECCAK256 SWAP1 JUMPDEST DUP2 SLOAD DUP2 MSTORE SWAP1 PUSH1 0x1 ADD SWAP1 PUSH1 0x20 ADD DUP1 DUP4 GT PUSH2 0x181A JUMPI DUP3 SWAP1 SUB PUSH1 0x1F AND DUP3 ADD SWAP2 JUMPDEST POP POP POP POP POP DUP2 MSTORE PUSH1 0x20 ADD PUSH1 0x1 DUP3 ADD PUSH0 SWAP1 SLOAD SWAP1 PUSH2 0x100 EXP SWAP1 DIV PUSH1 0xFF AND PUSH1 0x1 DUP2 GT ISZERO PUSH2 0x1864 JUMPI PUSH2 0x1863 PUSH2 0x1EA7 JUMP JUMPDEST JUMPDEST PUSH1 0x1 DUP2 GT ISZERO PUSH2 0x1876 JUMPI PUSH2 0x1875 PUSH2 0x1EA7 JUMP JUMPDEST JUMPDEST DUP2 MSTORE PUSH1 0x20 ADD PUSH1 0x1 DUP3 ADD PUSH1 0x1 SWAP1 SLOAD SWAP1 PUSH2 0x100 EXP SWAP1 DIV PUSH1 0xFF AND PUSH1 0x1 DUP2 GT ISZERO PUSH2 0x189F JUMPI PUSH2 0x189E PUSH2 0x1EA7 JUMP JUMPDEST JUMPDEST PUSH1 0x1 DUP2 GT ISZERO PUSH2 0x18B1 JUMPI PUSH2 0x18B0 PUSH2 0x1EA7 JUMP JUMPDEST JUMPDEST DUP2 MSTORE POP POP SWAP1 POP SWAP1 JUMP JUMPDEST PUSH1 0x60 PUSH0 PUSH1 0xF PUSH8 0xFFFFFFFFFFFFFFFF DUP2 GT ISZERO PUSH2 0x18D8 JUMPI PUSH2 0x18D7 PUSH2 0x24AA JUMP JUMPDEST JUMPDEST PUSH1 0x40 MLOAD SWAP1 DUP1 DUP3 MSTORE DUP1 PUSH1 0x1F ADD PUSH1 0x1F NOT AND PUSH1 0x20 ADD DUP3 ADD PUSH1 0x40 MSTORE DUP1 ISZERO PUSH2 0x190A JUMPI DUP2 PUSH1 0x20 ADD PUSH1 0x1 DUP3 MUL DUP1 CALLDATASIZE DUP4 CALLDATACOPY DUP1 DUP3 ADD SWAP2 POP POP SWAP1 POP JUMPDEST POP SWAP1 POP PUSH0 JUMPDEST PUSH1 0xF DUP2 LT ISZERO PUSH2 0x198F JUMPI PUSH0 PUSH2 0x1922 DUP3 PUSH2 0x1C4B JUMP JUMPDEST SWAP1 POP PUSH1 0x1A DUP2 PUSH2 0x1931 SWAP2 SWAP1 PUSH2 0x2BB9 JUMP JUMPDEST PUSH1 0x61 PUSH2 0x193D SWAP2 SWAP1 PUSH2 0x2B20 JUMP JUMPDEST PUSH1 0xF8 SHL DUP4 DUP4 DUP2 MLOAD DUP2 LT PUSH2 0x1953 JUMPI PUSH2 0x1952 PUSH2 0x28AA JUMP JUMPDEST JUMPDEST PUSH1 0x20 ADD ADD SWAP1 PUSH31 0xFFFFFFFFFFFFFFFFFFFFFFFFFFFFFFFFFFFFFFFFFFFFFFFFFFFFFFFFFFFFFF NOT AND SWAP1 DUP2 PUSH0 BYTE SWAP1 MSTORE8 POP POP DUP1 DUP1 PUSH1 0x1 ADD SWAP2 POP POP PUSH2 0x190F JUMP JUMPDEST POP DUP1 SWAP2 POP POP SWAP1 JUMP JUMPDEST DUP2 PUSH0 DUP1 JUMPDEST PUSH1 0x3 DUP1 SLOAD SWAP1 POP DUP2 LT ISZERO PUSH2 0x1A2C JUMPI DUP3 PUSH1 0x40 MLOAD PUSH1 0x20 ADD PUSH2 0x19B9 SWAP2 SWAP1 PUSH2 0x2285 JUMP JUMPDEST PUSH1 0x40 MLOAD PUSH1 0x20 DUP2 DUP4 SUB SUB DUP2 MSTORE SWAP1 PUSH1 0x40 MSTORE DUP1 MLOAD SWAP1 PUSH1 0x20 ADD KECCAK256 PUSH1 0x3 DUP3 DUP2 SLOAD DUP2 LT PUSH2 0x19E3 JUMPI PUSH2 0x19E2 PUSH2 0x28AA JUMP JUMPDEST JUMPDEST SWAP1 PUSH0 MSTORE PUSH1 0x20 PUSH0 KECCAK256 ADD PUSH1 0x40 MLOAD PUSH1 0x20 ADD PUSH2 0x19FB SWAP2 SWAP1 PUSH2 0x2894 JUMP JUMPDEST PUSH1 0x40 MLOAD PUSH1 0x20 DUP2 DUP4 SUB SUB DUP2 MSTORE SWAP1 PUSH1 0x40 MSTORE DUP1 MLOAD SWAP1 PUSH1 0x20 ADD KECCAK256 SUB PUSH2 0x1A1F JUMPI PUSH1 0x1 SWAP2 POP PUSH2 0x1A2C JUMP JUMPDEST DUP1 DUP1 PUSH1 0x1 ADD SWAP2 POP POP PUSH2 0x199B JUMP JUMPDEST POP DUP1 ISZERO PUSH2 0x1A6E JUMPI PUSH1 0x40 MLOAD PUSH32 0x8C379A000000000000000000000000000000000000000000000000000000000 DUP2 MSTORE PUSH1 0x4 ADD PUSH2 0x1A65 SWAP1 PUSH2 0x2C33 JUMP JUMPDEST PUSH1 0x40 MLOAD DUP1 SWAP2 SUB SWAP1 REVERT JUMPDEST PUSH1 0x3 DUP5 SWAP1 DUP1 PUSH1 0x1 DUP2 SLOAD ADD DUP1 DUP3 SSTORE DUP1 SWAP2 POP POP PUSH1 0x1 SWAP1 SUB SWAP1 PUSH0 MSTORE PUSH1 0x20 PUSH0 KECCAK256 ADD PUSH0 SWAP1 SWAP2 SWAP1 SWAP2 SWAP1 SWAP2 POP SWAP1 DUP2 PUSH2 0x1A9F SWAP2 SWAP1 PUSH2 0x29B3 JUMP JUMPDEST POP PUSH1 0x40 MLOAD DUP1 PUSH1 0xA0 ADD PUSH1 0x40 MSTORE DUP1 DUP6 DUP2 MSTORE PUSH1 0x20 ADD PUSH0 DUP1 CALLER PUSH20 0xFFFFFFFFFFFFFFFFFFFFFFFFFFFFFFFFFFFFFFFF AND PUSH20 0xFFFFFFFFFFFFFFFFFFFFFFFFFFFFFFFFFFFFFFFF AND DUP2 MSTORE PUSH1 0x20 ADD SWAP1 DUP2 MSTORE PUSH1 0x20 ADD PUSH0 KECCAK256 PUSH0 ADD DUP1 SLOAD PUSH2 0x1AFA SWAP1 PUSH2 0x221B JUMP JUMPDEST DUP1 PUSH1 0x1F ADD PUSH1 0x20 DUP1 SWAP2 DIV MUL PUSH1 0x20 ADD PUSH1 0x40 MLOAD SWAP1 DUP2 ADD PUSH1 0x40 MSTORE DUP1 SWAP3 SWAP2 SWAP1 DUP2 DUP2 MSTORE PUSH1 0x20 ADD DUP3 DUP1 SLOAD PUSH2 0x1B26 SWAP1 PUSH2 0x221B JUMP JUMPDEST DUP1 ISZERO PUSH2 0x1B71 JUMPI DUP1 PUSH1 0x1F LT PUSH2 0x1B48 JUMPI PUSH2 0x100 DUP1 DUP4 SLOAD DIV MUL DUP4 MSTORE SWAP2 PUSH1 0x20 ADD SWAP2 PUSH2 0x1B71 JUMP JUMPDEST DUP3 ADD SWAP2 SWAP1 PUSH0 MSTORE PUSH1 0x20 PUSH0 KECCAK256 SWAP1 JUMPDEST DUP2 SLOAD DUP2 MSTORE SWAP1 PUSH1 0x1 ADD SWAP1 PUSH1 0x20 ADD DUP1 DUP4 GT PUSH2 0x1B54 JUMPI DUP3 SWAP1 SUB PUSH1 0x1F AND DUP3 ADD SWAP2 JUMPDEST POP POP POP POP POP DUP2 MSTORE PUSH1 0x20 ADD DUP5 DUP2 MSTORE PUSH1 0x20 ADD PUSH1 0x1 DUP1 DUP2 GT ISZERO PUSH2 0x1B94 JUMPI PUSH2 0x1B93 PUSH2 0x1EA7 JUMP JUMPDEST JUMPDEST DUP2 MSTORE PUSH1 0x20 ADD PUSH1 0x40 MLOAD DUP1 PUSH1 0x20 ADD PUSH1 0x40 MSTORE DUP1 PUSH0 DUP2 MSTORE POP DUP2 MSTORE POP PUSH1 0x1 DUP6 PUSH1 0x40 MLOAD PUSH2 0x1BBB SWAP2 SWAP1 PUSH2 0x2285 JUMP JUMPDEST SWAP1 DUP2 MSTORE PUSH1 0x20 ADD PUSH1 0x40 MLOAD DUP1 SWAP2 SUB SWAP1 KECCAK256 PUSH0 DUP3 ADD MLOAD DUP2 PUSH0 ADD SWAP1 DUP2 PUSH2 0x1BDC SWAP2 SWAP1 PUSH2 0x29B3 JUMP JUMPDEST POP PUSH1 0x20 DUP3 ADD MLOAD DUP2 PUSH1 0x1 ADD SWAP1 DUP2 PUSH2 0x1BF2 SWAP2 SWAP1 PUSH2 0x29B3 JUMP JUMPDEST POP PUSH1 0x40 DUP3 ADD MLOAD DUP2 PUSH1 0x2 ADD SSTORE PUSH1 0x60 DUP3 ADD MLOAD DUP2 PUSH1 0x3 ADD PUSH0 PUSH2 0x100 EXP DUP2 SLOAD DUP2 PUSH1 0xFF MUL NOT AND SWAP1 DUP4 PUSH1 0x1 DUP2 GT ISZERO PUSH2 0x1C27 JUMPI PUSH2 0x1C26 PUSH2 0x1EA7 JUMP JUMPDEST JUMPDEST MUL OR SWAP1 SSTORE POP PUSH1 0x80 DUP3 ADD MLOAD DUP2 PUSH1 0x4 ADD SWAP1 DUP2 PUSH2 0x1C41 SWAP2 SWAP1 PUSH2 0x29B3 JUMP JUMPDEST POP SWAP1 POP POP POP POP POP POP JUMP JUMPDEST PUSH0 PUSH2 0x2710 TIMESTAMP PREVRANDAO DUP5 PUSH1 0x40 MLOAD PUSH1 0x20 ADD PUSH2 0x1C64 SWAP4 SWAP3 SWAP2 SWAP1 PUSH2 0x2C71 JUMP JUMPDEST PUSH1 0x40 MLOAD PUSH1 0x20 DUP2 DUP4 SUB SUB DUP2 MSTORE SWAP1 PUSH1 0x40 MSTORE DUP1 MLOAD SWAP1 PUSH1 0x20 ADD KECCAK256 PUSH0 SHR PUSH2 0x1C86 SWAP2 SWAP1 PUSH2 0x2BB9 JUMP JUMPDEST SWAP1 POP SWAP2 SWAP1 POP JUMP JUMPDEST PUSH1 0x40 MLOAD DUP1 PUSH1 0xA0 ADD PUSH1 0x40 MSTORE DUP1 PUSH1 0x60 DUP2 MSTORE PUSH1 0x20 ADD PUSH1 0x60 DUP2 MSTORE PUSH1 0x20 ADD PUSH0 DUP2 MSTORE PUSH1 0x20 ADD PUSH0 PUSH1 0x1 DUP2 GT ISZERO PUSH2 0x1CBF JUMPI PUSH2 0x1CBE PUSH2 0x1EA7 JUMP JUMPDEST JUMPDEST DUP2 MSTORE PUSH1 0x20 ADD PUSH1 0x60 DUP2 MSTORE POP SWAP1 JUMP JUMPDEST PUSH1 0x40 MLOAD DUP1 PUSH1 0x60 ADD PUSH1 0x40 MSTORE DUP1 PUSH1 0x60 DUP2 MSTORE PUSH1 0x20 ADD PUSH0 PUSH1 0x1 DUP2 GT ISZERO PUSH2 0x1CF1 JUMPI PUSH2 0x1CF0 PUSH2 0x1EA7 JUMP JUMPDEST JUMPDEST DUP2 MSTORE PUSH1 0x20 ADD PUSH0 PUSH1 0x1 DUP2 GT ISZERO PUSH2 0x1D09 JUMPI PUSH2 0x1D08 PUSH2 0x1EA7 JUMP JUMPDEST JUMPDEST DUP2 MSTORE POP SWAP1 JUMP JUMPDEST PUSH0 DUP2 ISZERO ISZERO SWAP1 POP SWAP2 SWAP1 POP JUMP JUMPDEST PUSH2 0x1D23 DUP2 PUSH2 0x1D0F JUMP JUMPDEST DUP3 MSTORE POP POP JUMP JUMPDEST PUSH0 PUSH1 0x20 DUP3 ADD SWAP1 POP PUSH2 0x1D3C PUSH0 DUP4 ADD DUP5 PUSH2 0x1D1A JUMP JUMPDEST SWAP3 SWAP2 POP POP JUMP JUMPDEST PUSH0 DUP1 REVERT JUMPDEST PUSH0 DUP1 REVERT JUMPDEST PUSH0 DUP1 REVERT JUMPDEST PUSH0 DUP1 REVERT JUMPDEST PUSH0 DUP1 REVERT JUMPDEST PUSH0 DUP1 DUP4 PUSH1 0x1F DUP5 ADD SLT PUSH2 0x1D6B JUMPI PUSH2 0x1D6A PUSH2 0x1D4A JUMP JUMPDEST JUMPDEST DUP3 CALLDATALOAD SWAP1 POP PUSH8 0xFFFFFFFFFFFFFFFF DUP2 GT ISZERO PUSH2 0x1D88 JUMPI PUSH2 0x1D87 PUSH2 0x1D4E JUMP JUMPDEST JUMPDEST PUSH1 0x20 DUP4 ADD SWAP2 POP DUP4 PUSH1 0x1 DUP3 MUL DUP4 ADD GT ISZERO PUSH2 0x1DA4 JUMPI PUSH2 0x1DA3 PUSH2 0x1D52 JUMP JUMPDEST JUMPDEST SWAP3 POP SWAP3 SWAP1 POP JUMP JUMPDEST PUSH0 DUP1 PUSH1 0x20 DUP4 DUP6 SUB SLT ISZERO PUSH2 0x1DC1 JUMPI PUSH2 0x1DC0 PUSH2 0x1D42 JUMP JUMPDEST JUMPDEST PUSH0 DUP4 ADD CALLDATALOAD PUSH8 0xFFFFFFFFFFFFFFFF DUP2 GT ISZERO PUSH2 0x1DDE JUMPI PUSH2 0x1DDD PUSH2 0x1D46 JUMP JUMPDEST JUMPDEST PUSH2 0x1DEA DUP6 DUP3 DUP7 ADD PUSH2 0x1D56 JUMP JUMPDEST SWAP3 POP SWAP3 POP POP SWAP3 POP SWAP3 SWAP1 POP JUMP JUMPDEST PUSH0 DUP2 MLOAD SWAP1 POP SWAP2 SWAP1 POP JUMP JUMPDEST PUSH0 DUP3 DUP3 MSTORE PUSH1 0x20 DUP3 ADD SWAP1 POP SWAP3 SWAP2 POP POP JUMP JUMPDEST PUSH0 DUP2 SWAP1 POP PUSH1 0x20 DUP3 ADD SWAP1 POP SWAP2 SWAP1 POP JUMP JUMPDEST PUSH0 DUP2 MLOAD SWAP1 POP SWAP2 SWAP1 POP JUMP JUMPDEST PUSH0 DUP3 DUP3 MSTORE PUSH1 0x20 DUP3 ADD SWAP1 POP SWAP3 SWAP2 POP POP JUMP JUMPDEST DUP3 DUP2 DUP4 MCOPY PUSH0 DUP4 DUP4 ADD MSTORE POP POP POP JUMP JUMPDEST PUSH0 PUSH1 0x1F NOT PUSH1 0x1F DUP4 ADD AND SWAP1 POP SWAP2 SWAP1 POP JUMP JUMPDEST PUSH0 PUSH2 0x1E61 DUP3 PUSH2 0x1E1F JUMP JUMPDEST PUSH2 0x1E6B DUP2 DUP6 PUSH2 0x1E29 JUMP JUMPDEST SWAP4 POP PUSH2 0x1E7B DUP2 DUP6 PUSH1 0x20 DUP7 ADD PUSH2 0x1E39 JUMP JUMPDEST PUSH2 0x1E84 DUP2 PUSH2 0x1E47 JUMP JUMPDEST DUP5 ADD SWAP2 POP POP SWAP3 SWAP2 POP POP JUMP JUMPDEST PUSH0 DUP2 SWAP1 POP SWAP2 SWAP1 POP JUMP JUMPDEST PUSH2 0x1EA1 DUP2 PUSH2 0x1E8F JUMP JUMPDEST DUP3 MSTORE POP POP JUMP JUMPDEST PUSH32 0x4E487B7100000000000000000000000000000000000000000000000000000000 PUSH0 MSTORE PUSH1 0x21 PUSH1 0x4 MSTORE PUSH1 0x24 PUSH0 REVERT JUMPDEST PUSH1 0x2 DUP2 LT PUSH2 0x1EE5 JUMPI PUSH2 0x1EE4 PUSH2 0x1EA7 JUMP JUMPDEST JUMPDEST POP JUMP JUMPDEST PUSH0 DUP2 SWAP1 POP PUSH2 0x1EF5 DUP3 PUSH2 0x1ED4 JUMP JUMPDEST SWAP2 SWAP1 POP JUMP JUMPDEST PUSH0 PUSH2 0x1F04 DUP3 PUSH2 0x1EE8 JUMP JUMPDEST SWAP1 POP SWAP2 SWAP1 POP JUMP JUMPDEST PUSH2 0x1F14 DUP2 PUSH2 0x1EFA JUMP JUMPDEST DUP3 MSTORE POP POP JUMP JUMPDEST PUSH0 PUSH1 0xA0 DUP4 ADD PUSH0 DUP4 ADD MLOAD DUP5 DUP3 SUB PUSH0 DUP7 ADD MSTORE PUSH2 0x1F34 DUP3 DUP3 PUSH2 0x1E57 JUMP JUMPDEST SWAP2 POP POP PUSH1 0x20 DUP4 ADD MLOAD DUP5 DUP3 SUB PUSH1 0x20 DUP7 ADD MSTORE PUSH2 0x1F4E DUP3 DUP3 PUSH2 0x1E57 JUMP JUMPDEST SWAP2 POP POP PUSH1 0x40 DUP4 ADD MLOAD PUSH2 0x1F63 PUSH1 0x40 DUP7 ADD DUP3 PUSH2 0x1E98 JUMP JUMPDEST POP PUSH1 0x60 DUP4 ADD MLOAD PUSH2 0x1F76 PUSH1 0x60 DUP7 ADD DUP3 PUSH2 0x1F0B JUMP JUMPDEST POP PUSH1 0x80 DUP4 ADD MLOAD DUP5 DUP3 SUB PUSH1 0x80 DUP7 ADD MSTORE PUSH2 0x1F8E DUP3 DUP3 PUSH2 0x1E57 JUMP JUMPDEST SWAP2 POP POP DUP1 SWAP2 POP POP SWAP3 SWAP2 POP POP JUMP JUMPDEST PUSH0 PUSH2 0x1FA6 DUP4 DUP4 PUSH2 0x1F1A JUMP JUMPDEST SWAP1 POP SWAP3 SWAP2 POP POP JUMP JUMPDEST PUSH0 PUSH1 0x20 DUP3 ADD SWAP1 POP SWAP2 SWAP1 POP JUMP JUMPDEST PUSH0 PUSH2 0x1FC4 DUP3 PUSH2 0x1DF6 JUMP JUMPDEST PUSH2 0x1FCE DUP2 DUP6 PUSH2 0x1E00 JUMP JUMPDEST SWAP4 POP DUP4 PUSH1 0x20 DUP3 MUL DUP6 ADD PUSH2 0x1FE0 DUP6 PUSH2 0x1E10 JUMP JUMPDEST DUP1 PUSH0 JUMPDEST DUP6 DUP2 LT ISZERO PUSH2 0x201B JUMPI DUP5 DUP5 SUB DUP10 MSTORE DUP2 MLOAD PUSH2 0x1FFC DUP6 DUP3 PUSH2 0x1F9B JUMP JUMPDEST SWAP5 POP PUSH2 0x2007 DUP4 PUSH2 0x1FAE JUMP JUMPDEST SWAP3 POP PUSH1 0x20 DUP11 ADD SWAP10 POP POP PUSH1 0x1 DUP2 ADD SWAP1 POP PUSH2 0x1FE3 JUMP JUMPDEST POP DUP3 SWAP8 POP DUP8 SWAP6 POP POP POP POP POP POP SWAP3 SWAP2 POP POP JUMP JUMPDEST PUSH0 PUSH1 0x20 DUP3 ADD SWAP1 POP DUP2 DUP2 SUB PUSH0 DUP4 ADD MSTORE PUSH2 0x2045 DUP2 DUP5 PUSH2 0x1FBA JUMP JUMPDEST SWAP1 POP SWAP3 SWAP2 POP POP JUMP JUMPDEST PUSH2 0x2056 DUP2 PUSH2 0x1E8F JUMP JUMPDEST DUP3 MSTORE POP POP JUMP JUMPDEST PUSH0 PUSH1 0x20 DUP3 ADD SWAP1 POP PUSH2 0x206F PUSH0 DUP4 ADD DUP5 PUSH2 0x204D JUMP JUMPDEST SWAP3 SWAP2 POP POP JUMP JUMPDEST PUSH1 0x2 DUP2 LT PUSH2 0x2081 JUMPI PUSH0 DUP1 REVERT JUMPDEST POP JUMP JUMPDEST PUSH0 DUP2 CALLDATALOAD SWAP1 POP PUSH2 0x2092 DUP2 PUSH2 0x2075 JUMP JUMPDEST SWAP3 SWAP2 POP POP JUMP JUMPDEST PUSH0 DUP1 PUSH0 PUSH1 0x40 DUP5 DUP7 SUB SLT ISZERO PUSH2 0x20AF JUMPI PUSH2 0x20AE PUSH2 0x1D42 JUMP JUMPDEST JUMPDEST PUSH0 DUP5 ADD CALLDATALOAD PUSH8 0xFFFFFFFFFFFFFFFF DUP2 GT ISZERO PUSH2 0x20CC JUMPI PUSH2 0x20CB PUSH2 0x1D46 JUMP JUMPDEST JUMPDEST PUSH2 0x20D8 DUP7 DUP3 DUP8 ADD PUSH2 0x1D56 JUMP JUMPDEST SWAP4 POP SWAP4 POP POP PUSH1 0x20 PUSH2 0x20EB DUP7 DUP3 DUP8 ADD PUSH2 0x2084 JUMP JUMPDEST SWAP2 POP POP SWAP3 POP SWAP3 POP SWAP3 JUMP JUMPDEST PUSH1 0x2 DUP2 LT PUSH2 0x2106 JUMPI PUSH2 0x2105 PUSH2 0x1EA7 JUMP JUMPDEST JUMPDEST POP JUMP JUMPDEST PUSH0 DUP2 SWAP1 POP PUSH2 0x2116 DUP3 PUSH2 0x20F5 JUMP JUMPDEST SWAP2 SWAP1 POP JUMP JUMPDEST PUSH0 PUSH2 0x2125 DUP3 PUSH2 0x2109 JUMP JUMPDEST SWAP1 POP SWAP2 SWAP1 POP JUMP JUMPDEST PUSH2 0x2135 DUP2 PUSH2 0x211B JUMP JUMPDEST DUP3 MSTORE POP POP JUMP JUMPDEST PUSH1 0x2 DUP2 LT PUSH2 0x214C JUMPI PUSH2 0x214B PUSH2 0x1EA7 JUMP JUMPDEST JUMPDEST POP JUMP JUMPDEST PUSH0 DUP2 SWAP1 POP PUSH2 0x215C DUP3 PUSH2 0x213B JUMP JUMPDEST SWAP2 SWAP1 POP JUMP JUMPDEST PUSH0 PUSH2 0x216B DUP3 PUSH2 0x214F JUMP JUMPDEST SWAP1 POP SWAP2 SWAP1 POP JUMP JUMPDEST PUSH2 0x217B DUP2 PUSH2 0x2161 JUMP JUMPDEST DUP3 MSTORE POP POP JUMP JUMPDEST PUSH0 PUSH1 0x60 DUP4 ADD PUSH0 DUP4 ADD MLOAD DUP5 DUP3 SUB PUSH0 DUP7 ADD MSTORE PUSH2 0x219B DUP3 DUP3 PUSH2 0x1E57 JUMP JUMPDEST SWAP2 POP POP PUSH1 0x20 DUP4 ADD MLOAD PUSH2 0x21B0 PUSH1 0x20 DUP7 ADD DUP3 PUSH2 0x212C JUMP JUMPDEST POP PUSH1 0x40 DUP4 ADD MLOAD PUSH2 0x21C3 PUSH1 0x40 DUP7 ADD DUP3 PUSH2 0x2172 JUMP JUMPDEST POP DUP1 SWAP2 POP POP SWAP3 SWAP2 POP POP JUMP JUMPDEST PUSH0 PUSH1 0x20 DUP3 ADD SWAP1 POP DUP2 DUP2 SUB PUSH0 DUP4 ADD MSTORE PUSH2 0x21E6 DUP2 DUP5 PUSH2 0x2181 JUMP JUMPDEST SWAP1 POP SWAP3 SWAP2 POP POP JUMP JUMPDEST PUSH32 0x4E487B7100000000000000000000000000000000000000000000000000000000 PUSH0 MSTORE PUSH1 0x22 PUSH1 0x4 MSTORE PUSH1 0x24 PUSH0 REVERT JUMPDEST PUSH0 PUSH1 0x2 DUP3 DIV SWAP1 POP PUSH1 0x1 DUP3 AND DUP1 PUSH2 0x2232 JUMPI PUSH1 0x7F DUP3 AND SWAP2 POP JUMPDEST PUSH1 0x20 DUP3 LT DUP2 SUB PUSH2 0x2245 JUMPI PUSH2 0x2244 PUSH2 0x21EE JUMP JUMPDEST JUMPDEST POP SWAP2 SWAP1 POP JUMP JUMPDEST PUSH0 DUP2 SWAP1 POP SWAP3 SWAP2 POP POP JUMP JUMPDEST PUSH0 PUSH2 0x225F DUP3 PUSH2 0x1E1F JUMP JUMPDEST PUSH2 0x2269 DUP2 DUP6 PUSH2 0x224B JUMP JUMPDEST SWAP4 POP PUSH2 0x2279 DUP2 DUP6 PUSH1 0x20 DUP7 ADD PUSH2 0x1E39 JUMP JUMPDEST DUP1 DUP5 ADD SWAP2 POP POP SWAP3 SWAP2 POP POP JUMP JUMPDEST PUSH0 PUSH2 0x2290 DUP3 DUP5 PUSH2 0x2255 JUMP JUMPDEST SWAP2 POP DUP2 SWAP1 POP SWAP3 SWAP2 POP POP JUMP JUMPDEST PUSH0 DUP3 DUP3 MSTORE PUSH1 0x20 DUP3 ADD SWAP1 POP SWAP3 SWAP2 POP POP JUMP JUMPDEST PUSH32 0x4361726420697320496E76616C69640000000000000000000000000000000000 PUSH0 DUP3 ADD MSTORE POP JUMP JUMPDEST PUSH0 PUSH2 0x22DF PUSH1 0xF DUP4 PUSH2 0x229B JUMP JUMPDEST SWAP2 POP PUSH2 0x22EA DUP3 PUSH2 0x22AB JUMP JUMPDEST PUSH1 0x20 DUP3 ADD SWAP1 POP SWAP2 SWAP1 POP JUMP JUMPDEST PUSH0 PUSH1 0x20 DUP3 ADD SWAP1 POP DUP2 DUP2 SUB PUSH0 DUP4 ADD MSTORE PUSH2 0x230C DUP2 PUSH2 0x22D3 JUMP JUMPDEST SWAP1 POP SWAP2 SWAP1 POP JUMP JUMPDEST PUSH32 0x5573657220646F6573206E6F7420657869737400000000000000000000000000 PUSH0 DUP3 ADD MSTORE POP JUMP JUMPDEST PUSH0 PUSH2 0x2347 PUSH1 0x13 DUP4 PUSH2 0x229B JUMP JUMPDEST SWAP2 POP PUSH2 0x2352 DUP3 PUSH2 0x2313 JUMP JUMPDEST PUSH1 0x20 DUP3 ADD SWAP1 POP SWAP2 SWAP1 POP JUMP JUMPDEST PUSH0 PUSH1 0x20 DUP3 ADD SWAP1 POP DUP2 DUP2 SUB PUSH0 DUP4 ADD MSTORE PUSH2 0x2374 DUP2 PUSH2 0x233B JUMP JUMPDEST SWAP1 POP SWAP2 SWAP1 POP JUMP JUMPDEST PUSH32 0x5265656E7472616E637947756172643A207265656E7472616E742063616C6C00 PUSH0 DUP3 ADD MSTORE POP JUMP JUMPDEST PUSH0 PUSH2 0x23AF PUSH1 0x1F DUP4 PUSH2 0x229B JUMP JUMPDEST SWAP2 POP PUSH2 0x23BA DUP3 PUSH2 0x237B JUMP JUMPDEST PUSH1 0x20 DUP3 ADD SWAP1 POP SWAP2 SWAP1 POP JUMP JUMPDEST PUSH0 PUSH1 0x20 DUP3 ADD SWAP1 POP DUP2 DUP2 SUB PUSH0 DUP4 ADD MSTORE PUSH2 0x23DC DUP2 PUSH2 0x23A3 JUMP JUMPDEST SWAP1 POP SWAP2 SWAP1 POP JUMP JUMPDEST DUP3 DUP2 DUP4 CALLDATACOPY PUSH0 DUP4 DUP4 ADD MSTORE POP POP POP JUMP JUMPDEST PUSH0 PUSH2 0x23FC DUP4 DUP6 PUSH2 0x224B JUMP JUMPDEST SWAP4 POP PUSH2 0x2409 DUP4 DUP6 DUP5 PUSH2 0x23E3 JUMP JUMPDEST DUP3 DUP5 ADD SWAP1 POP SWAP4 SWAP3 POP POP POP JUMP JUMPDEST PUSH0 PUSH2 0x2421 DUP3 DUP5 DUP7 PUSH2 0x23F1 JUMP JUMPDEST SWAP2 POP DUP2 SWAP1 POP SWAP4 SWAP3 POP POP POP JUMP JUMPDEST PUSH32 0x47696674206361726420686173206E6F2062616C616E63650000000000000000 PUSH0 DUP3 ADD MSTORE POP JUMP JUMPDEST PUSH0 PUSH2 0x2461 PUSH1 0x18 DUP4 PUSH2 0x229B JUMP JUMPDEST SWAP2 POP PUSH2 0x246C DUP3 PUSH2 0x242D JUMP JUMPDEST PUSH1 0x20 DUP3 ADD SWAP1 POP SWAP2 SWAP1 POP JUMP JUMPDEST PUSH0 PUSH1 0x20 DUP3 ADD SWAP1 POP DUP2 DUP2 SUB PUSH0 DUP4 ADD MSTORE PUSH2 0x248E DUP2 PUSH2 0x2455 JUMP JUMPDEST SWAP1 POP SWAP2 SWAP1 POP JUMP JUMPDEST PUSH0 DUP2 SLOAD SWAP1 POP PUSH2 0x24A3 DUP2 PUSH2 0x221B JUMP JUMPDEST SWAP1 POP SWAP2 SWAP1 POP JUMP JUMPDEST PUSH32 0x4E487B7100000000000000000000000000000000000000000000000000000000 PUSH0 MSTORE PUSH1 0x41 PUSH1 0x4 MSTORE PUSH1 0x24 PUSH0 REVERT JUMPDEST PUSH0 DUP2 SWAP1 POP DUP2 PUSH0 MSTORE PUSH1 0x20 PUSH0 KECCAK256 SWAP1 POP SWAP2 SWAP1 POP JUMP JUMPDEST PUSH0 DUP2 SWAP1 POP DUP2 PUSH0 MSTORE PUSH1 0x20 PUSH0 KECCAK256 SWAP1 POP SWAP2 SWAP1 POP JUMP JUMPDEST PUSH0 PUSH1 0x20 PUSH1 0x1F DUP4 ADD DIV SWAP1 POP SWAP2 SWAP1 POP JUMP JUMPDEST PUSH0 DUP3 DUP3 SHL SWAP1 POP SWAP3 SWAP2 POP POP JUMP JUMPDEST PUSH0 PUSH1 0x8 DUP4 MUL PUSH2 0x2545 PUSH32 0xFFFFFFFFFFFFFFFFFFFFFFFFFFFFFFFFFFFFFFFFFFFFFFFFFFFFFFFFFFFFFFFF DUP3 PUSH2 0x250A JUMP JUMPDEST PUSH2 0x254F DUP7 DUP4 PUSH2 0x250A JUMP JUMPDEST SWAP6 POP DUP1 NOT DUP5 AND SWAP4 POP DUP1 DUP7 AND DUP5 OR SWAP3 POP POP POP SWAP4 SWAP3 POP POP POP JUMP JUMPDEST PUSH0 DUP2 SWAP1 POP SWAP2 SWAP1 POP JUMP JUMPDEST PUSH0 PUSH2 0x258A PUSH2 0x2585 PUSH2 0x2580 DUP5 PUSH2 0x1E8F JUMP JUMPDEST PUSH2 0x2567 JUMP JUMPDEST PUSH2 0x1E8F JUMP JUMPDEST SWAP1 POP SWAP2 SWAP1 POP JUMP JUMPDEST PUSH0 DUP2 SWAP1 POP SWAP2 SWAP1 POP JUMP JUMPDEST PUSH2 0x25A3 DUP4 PUSH2 0x2570 JUMP JUMPDEST PUSH2 0x25B7 PUSH2 0x25AF DUP3 PUSH2 0x2591 JUMP JUMPDEST DUP5 DUP5 SLOAD PUSH2 0x2516 JUMP JUMPDEST DUP3 SSTORE POP POP POP POP JUMP JUMPDEST PUSH0 SWAP1 JUMP JUMPDEST PUSH2 0x25CB PUSH2 0x25BF JUMP JUMPDEST PUSH2 0x25D6 DUP2 DUP5 DUP5 PUSH2 0x259A JUMP JUMPDEST POP POP POP JUMP JUMPDEST JUMPDEST DUP2 DUP2 LT ISZERO PUSH2 0x25F9 JUMPI PUSH2 0x25EE PUSH0 DUP3 PUSH2 0x25C3 JUMP JUMPDEST PUSH1 0x1 DUP2 ADD SWAP1 POP PUSH2 0x25DC JUMP JUMPDEST POP POP JUMP JUMPDEST PUSH1 0x1F DUP3 GT ISZERO PUSH2 0x263E JUMPI PUSH2 0x260F DUP2 PUSH2 0x24D7 JUMP JUMPDEST PUSH2 0x2618 DUP5 PUSH2 0x24FB JUMP JUMPDEST DUP2 ADD PUSH1 0x20 DUP6 LT ISZERO PUSH2 0x2627 JUMPI DUP2 SWAP1 POP JUMPDEST PUSH2 0x263B PUSH2 0x2633 DUP6 PUSH2 0x24FB JUMP JUMPDEST DUP4 ADD DUP3 PUSH2 0x25DB JUMP JUMPDEST POP POP JUMPDEST POP POP POP JUMP JUMPDEST PUSH0 DUP3 DUP3 SHR SWAP1 POP SWAP3 SWAP2 POP POP JUMP JUMPDEST PUSH0 PUSH2 0x265E PUSH0 NOT DUP5 PUSH1 0x8 MUL PUSH2 0x2643 JUMP JUMPDEST NOT DUP1 DUP4 AND SWAP2 POP POP SWAP3 SWAP2 POP POP JUMP JUMPDEST PUSH0 PUSH2 0x2676 DUP4 DUP4 PUSH2 0x264F JUMP JUMPDEST SWAP2 POP DUP3 PUSH1 0x2 MUL DUP3 OR SWAP1 POP SWAP3 SWAP2 POP POP JUMP JUMPDEST DUP2 DUP2 SUB PUSH2 0x2694 JUMPI POP POP PUSH2 0x2769 JUMP JUMPDEST PUSH2 0x269D DUP3 PUSH2 0x2495 JUMP JUMPDEST PUSH8 0xFFFFFFFFFFFFFFFF DUP2 GT ISZERO PUSH2 0x26B6 JUMPI PUSH2 0x26B5 PUSH2 0x24AA JUMP JUMPDEST JUMPDEST PUSH2 0x26C0 DUP3 SLOAD PUSH2 0x221B JUMP JUMPDEST PUSH2 0x26CB DUP3 DUP3 DUP6 PUSH2 0x25FD JUMP JUMPDEST PUSH0 PUSH1 0x1F DUP4 GT PUSH1 0x1 DUP2 EQ PUSH2 0x26F8 JUMPI PUSH0 DUP5 ISZERO PUSH2 0x26E6 JUMPI DUP3 DUP8 ADD SLOAD SWAP1 POP JUMPDEST PUSH2 0x26F0 DUP6 DUP3 PUSH2 0x266B JUMP JUMPDEST DUP7 SSTORE POP PUSH2 0x2762 JUMP JUMPDEST PUSH1 0x1F NOT DUP5 AND PUSH2 0x2706 DUP8 PUSH2 0x24E9 JUMP JUMPDEST SWAP7 POP PUSH2 0x2711 DUP7 PUSH2 0x24D7 JUMP JUMPDEST PUSH0 JUMPDEST DUP3 DUP2 LT ISZERO PUSH2 0x2738 JUMPI DUP5 DUP10 ADD SLOAD DUP3 SSTORE PUSH1 0x1 DUP3 ADD SWAP2 POP PUSH1 0x1 DUP6 ADD SWAP5 POP PUSH1 0x20 DUP2 ADD SWAP1 POP PUSH2 0x2713 JUMP JUMPDEST DUP7 DUP4 LT ISZERO PUSH2 0x2755 JUMPI DUP5 DUP10 ADD SLOAD PUSH2 0x2751 PUSH1 0x1F DUP10 AND DUP3 PUSH2 0x264F JUMP JUMPDEST DUP4 SSTORE POP JUMPDEST PUSH1 0x1 PUSH1 0x2 DUP9 MUL ADD DUP9 SSTORE POP POP POP JUMPDEST POP POP POP POP POP POP JUMPDEST JUMP JUMPDEST PUSH0 DUP2 SWAP1 POP SWAP3 SWAP2 POP POP JUMP JUMPDEST POP JUMP JUMPDEST PUSH0 PUSH2 0x2783 PUSH0 DUP4 PUSH2 0x276B JUMP JUMPDEST SWAP2 POP PUSH2 0x278E DUP3 PUSH2 0x2775 JUMP JUMPDEST PUSH0 DUP3 ADD SWAP1 POP SWAP2 SWAP1 POP JUMP JUMPDEST PUSH0 PUSH2 0x27A2 DUP3 PUSH2 0x2778 JUMP JUMPDEST SWAP2 POP DUP2 SWAP1 POP SWAP2 SWAP1 POP JUMP JUMPDEST PUSH32 0x4574686572207472616E73666572206661696C65640000000000000000000000 PUSH0 DUP3 ADD MSTORE POP JUMP JUMPDEST PUSH0 PUSH2 0x27E0 PUSH1 0x15 DUP4 PUSH2 0x229B JUMP JUMPDEST SWAP2 POP PUSH2 0x27EB DUP3 PUSH2 0x27AC JUMP JUMPDEST PUSH1 0x20 DUP3 ADD SWAP1 POP SWAP2 SWAP1 POP JUMP JUMPDEST PUSH0 PUSH1 0x20 DUP3 ADD SWAP1 POP DUP2 DUP2 SUB PUSH0 DUP4 ADD MSTORE PUSH2 0x280D DUP2 PUSH2 0x27D4 JUMP JUMPDEST SWAP1 POP SWAP2 SWAP1 POP JUMP JUMPDEST PUSH0 DUP2 SLOAD PUSH2 0x2820 DUP2 PUSH2 0x221B JUMP JUMPDEST PUSH2 0x282A DUP2 DUP7 PUSH2 0x224B JUMP JUMPDEST SWAP5 POP PUSH1 0x1 DUP3 AND PUSH0 DUP2 EQ PUSH2 0x2844 JUMPI PUSH1 0x1 DUP2 EQ PUSH2 0x2859 JUMPI PUSH2 0x288B JUMP JUMPDEST PUSH1 0xFF NOT DUP4 AND DUP7 MSTORE DUP2 ISZERO ISZERO DUP3 MUL DUP7 ADD SWAP4 POP PUSH2 0x288B JUMP JUMPDEST PUSH2 0x2862 DUP6 PUSH2 0x24D7 JUMP JUMPDEST PUSH0 JUMPDEST DUP4 DUP2 LT ISZERO PUSH2 0x2883 JUMPI DUP2 SLOAD DUP2 DUP10 ADD MSTORE PUSH1 0x1 DUP3 ADD SWAP2 POP PUSH1 0x20 DUP2 ADD SWAP1 POP PUSH2 0x2864 JUMP JUMPDEST DUP4 DUP9 ADD SWAP6 POP POP POP JUMPDEST POP POP POP SWAP3 SWAP2 POP POP JUMP JUMPDEST PUSH0 PUSH2 0x289F DUP3 DUP5 PUSH2 0x2814 JUMP JUMPDEST SWAP2 POP DUP2 SWAP1 POP SWAP3 SWAP2 POP POP JUMP JUMPDEST PUSH32 0x4E487B7100000000000000000000000000000000000000000000000000000000 PUSH0 MSTORE PUSH1 0x32 PUSH1 0x4 MSTORE PUSH1 0x24 PUSH0 REVERT JUMPDEST PUSH32 0x4E487B7100000000000000000000000000000000000000000000000000000000 PUSH0 MSTORE PUSH1 0x11 PUSH1 0x4 MSTORE PUSH1 0x24 PUSH0 REVERT JUMPDEST PUSH0 PUSH2 0x290E DUP3 PUSH2 0x1E8F JUMP JUMPDEST SWAP2 POP PUSH32 0xFFFFFFFFFFFFFFFFFFFFFFFFFFFFFFFFFFFFFFFFFFFFFFFFFFFFFFFFFFFFFFFF DUP3 SUB PUSH2 0x2940 JUMPI PUSH2 0x293F PUSH2 0x28D7 JUMP JUMPDEST JUMPDEST PUSH1 0x1 DUP3 ADD SWAP1 POP SWAP2 SWAP1 POP JUMP JUMPDEST PUSH32 0x596F7520617265206E6F7420616E2061646D696E000000000000000000000000 PUSH0 DUP3 ADD MSTORE POP JUMP JUMPDEST PUSH0 PUSH2 0x297F PUSH1 0x14 DUP4 PUSH2 0x229B JUMP JUMPDEST SWAP2 POP PUSH2 0x298A DUP3 PUSH2 0x294B JUMP JUMPDEST PUSH1 0x20 DUP3 ADD SWAP1 POP SWAP2 SWAP1 POP JUMP JUMPDEST PUSH0 PUSH1 0x20 DUP3 ADD SWAP1 POP DUP2 DUP2 SUB PUSH0 DUP4 ADD MSTORE PUSH2 0x29AC DUP2 PUSH2 0x2973 JUMP JUMPDEST SWAP1 POP SWAP2 SWAP1 POP JUMP JUMPDEST PUSH2 0x29BC DUP3 PUSH2 0x1E1F JUMP JUMPDEST PUSH8 0xFFFFFFFFFFFFFFFF DUP2 GT ISZERO PUSH2 0x29D5 JUMPI PUSH2 0x29D4 PUSH2 0x24AA JUMP JUMPDEST JUMPDEST PUSH2 0x29DF DUP3 SLOAD PUSH2 0x221B JUMP JUMPDEST PUSH2 0x29EA DUP3 DUP3 DUP6 PUSH2 0x25FD JUMP JUMPDEST PUSH0 PUSH1 0x20 SWAP1 POP PUSH1 0x1F DUP4 GT PUSH1 0x1 DUP2 EQ PUSH2 0x2A1B JUMPI PUSH0 DUP5 ISZERO PUSH2 0x2A09 JUMPI DUP3 DUP8 ADD MLOAD SWAP1 POP JUMPDEST PUSH2 0x2A13 DUP6 DUP3 PUSH2 0x266B JUMP JUMPDEST DUP7 SSTORE POP PUSH2 0x2A7A JUMP JUMPDEST PUSH1 0x1F NOT DUP5 AND PUSH2 0x2A29 DUP7 PUSH2 0x24D7 JUMP JUMPDEST PUSH0 JUMPDEST DUP3 DUP2 LT ISZERO PUSH2 0x2A50 JUMPI DUP5 DUP10 ADD MLOAD DUP3 SSTORE PUSH1 0x1 DUP3 ADD SWAP2 POP PUSH1 0x20 DUP6 ADD SWAP5 POP PUSH1 0x20 DUP2 ADD SWAP1 POP PUSH2 0x2A2B JUMP JUMPDEST DUP7 DUP4 LT ISZERO PUSH2 0x2A6D JUMPI DUP5 DUP10 ADD MLOAD PUSH2 0x2A69 PUSH1 0x1F DUP10 AND DUP3 PUSH2 0x264F JUMP JUMPDEST DUP4 SSTORE POP JUMPDEST PUSH1 0x1 PUSH1 0x2 DUP9 MUL ADD DUP9 SSTORE POP POP POP JUMPDEST POP POP POP POP POP POP JUMP JUMPDEST PUSH0 PUSH2 0x2A8C DUP3 PUSH2 0x1E8F JUMP JUMPDEST SWAP2 POP PUSH2 0x2A97 DUP4 PUSH2 0x1E8F JUMP JUMPDEST SWAP3 POP DUP3 DUP3 MUL PUSH2 0x2AA5 DUP2 PUSH2 0x1E8F JUMP JUMPDEST SWAP2 POP DUP3 DUP3 DIV DUP5 EQ DUP4 ISZERO OR PUSH2 0x2ABC JUMPI PUSH2 0x2ABB PUSH2 0x28D7 JUMP JUMPDEST JUMPDEST POP SWAP3 SWAP2 POP POP JUMP JUMPDEST PUSH32 0x4E487B7100000000000000000000000000000000000000000000000000000000 PUSH0 MSTORE PUSH1 0x12 PUSH1 0x4 MSTORE PUSH1 0x24 PUSH0 REVERT JUMPDEST PUSH0 PUSH2 0x2AFA DUP3 PUSH2 0x1E8F JUMP JUMPDEST SWAP2 POP PUSH2 0x2B05 DUP4 PUSH2 0x1E8F JUMP JUMPDEST SWAP3 POP DUP3 PUSH2 0x2B15 JUMPI PUSH2 0x2B14 PUSH2 0x2AC3 JUMP JUMPDEST JUMPDEST DUP3 DUP3 DIV SWAP1 POP SWAP3 SWAP2 POP POP JUMP JUMPDEST PUSH0 PUSH2 0x2B2A DUP3 PUSH2 0x1E8F JUMP JUMPDEST SWAP2 POP PUSH2 0x2B35 DUP4 PUSH2 0x1E8F JUMP JUMPDEST SWAP3 POP DUP3 DUP3 ADD SWAP1 POP DUP1 DUP3 GT ISZERO PUSH2 0x2B4D JUMPI PUSH2 0x2B4C PUSH2 0x28D7 JUMP JUMPDEST JUMPDEST SWAP3 SWAP2 POP POP JUMP JUMPDEST PUSH0 PUSH2 0x2B5D DUP3 PUSH2 0x1E1F JUMP JUMPDEST PUSH2 0x2B67 DUP2 DUP6 PUSH2 0x229B JUMP JUMPDEST SWAP4 POP PUSH2 0x2B77 DUP2 DUP6 PUSH1 0x20 DUP7 ADD PUSH2 0x1E39 JUMP JUMPDEST PUSH2 0x2B80 DUP2 PUSH2 0x1E47 JUMP JUMPDEST DUP5 ADD SWAP2 POP POP SWAP3 SWAP2 POP POP JUMP JUMPDEST PUSH0 PUSH1 0x40 DUP3 ADD SWAP1 POP DUP2 DUP2 SUB PUSH0 DUP4 ADD MSTORE PUSH2 0x2BA3 DUP2 DUP6 PUSH2 0x2B53 JUMP JUMPDEST SWAP1 POP PUSH2 0x2BB2 PUSH1 0x20 DUP4 ADD DUP5 PUSH2 0x204D JUMP JUMPDEST SWAP4 SWAP3 POP POP POP JUMP JUMPDEST PUSH0 PUSH2 0x2BC3 DUP3 PUSH2 0x1E8F JUMP JUMPDEST SWAP2 POP PUSH2 0x2BCE DUP4 PUSH2 0x1E8F JUMP JUMPDEST SWAP3 POP DUP3 PUSH2 0x2BDE JUMPI PUSH2 0x2BDD PUSH2 0x2AC3 JUMP JUMPDEST JUMPDEST DUP3 DUP3 MOD SWAP1 POP SWAP3 SWAP2 POP POP JUMP JUMPDEST PUSH32 0x436F6465206973204E6F7420556E697175650000000000000000000000000000 PUSH0 DUP3 ADD MSTORE POP JUMP JUMPDEST PUSH0 PUSH2 0x2C1D PUSH1 0x12 DUP4 PUSH2 0x229B JUMP JUMPDEST SWAP2 POP PUSH2 0x2C28 DUP3 PUSH2 0x2BE9 JUMP JUMPDEST PUSH1 0x20 DUP3 ADD SWAP1 POP SWAP2 SWAP1 POP JUMP JUMPDEST PUSH0 PUSH1 0x20 DUP3 ADD SWAP1 POP DUP2 DUP2 SUB PUSH0 DUP4 ADD MSTORE PUSH2 0x2C4A DUP2 PUSH2 0x2C11 JUMP JUMPDEST SWAP1 POP SWAP2 SWAP1 POP JUMP JUMPDEST PUSH0 DUP2 SWAP1 POP SWAP2 SWAP1 POP JUMP JUMPDEST PUSH2 0x2C6B PUSH2 0x2C66 DUP3 PUSH2 0x1E8F JUMP JUMPDEST PUSH2 0x2C51 JUMP JUMPDEST DUP3 MSTORE POP POP JUMP JUMPDEST PUSH0 PUSH2 0x2C7C DUP3 DUP7 PUSH2 0x2C5A JUMP JUMPDEST PUSH1 0x20 DUP3 ADD SWAP2 POP PUSH2 0x2C8C DUP3 DUP6 PUSH2 0x2C5A JUMP JUMPDEST PUSH1 0x20 DUP3 ADD SWAP2 POP PUSH2 0x2C9C DUP3 DUP5 PUSH2 0x2C5A JUMP JUMPDEST PUSH1 0x20 DUP3 ADD SWAP2 POP DUP2 SWAP1 POP SWAP5 SWAP4 POP POP POP POP JUMP INVALID LOG2 PUSH5 0x6970667358 0x22 SLT KECCAK256 NUMBER DUP11 LOG1 0xEC RETURN PUSH31 0xFAB8E1FE20B1AF86E067691FB94D38BA3096984AE63AC95E81B664736F6C63 NUMBER STOP ADDMOD BYTE STOP CALLER "
        },
        "gasEstimates": {
          "creation": {
            "codeDepositCost": "2298200",
            "executionCost": "infinite",
            "totalCost": "infinite"
          },
          "external": {
            "": "195",
            "buyGiftCard()": "infinite",
            "contractBalance()": "7222",
            "getAllGiftCards()": "infinite",
            "getMyCard()": "infinite",
            "getMyData()": "infinite",
            "isAdmin()": "5088",
            "isRegistered()": "2669",
            "redeemCard(string)": "infinite",
            "registration(string,uint8)": "infinite",
            "withdrawBalance()": "infinite"
          },
          "internal": {
            "addCard(string memory,uint256)": "infinite",
            "generateGiftCardCode()": "infinite",
            "getRandomNumber(uint256)": "infinite"
          }
        },
        "methodIdentifiers": {
          "buyGiftCard()": "a34f011c",
          "contractBalance()": "8b7afe2e",
          "getAllGiftCards()": "a927db0d",
          "getMyCard()": "2b4a9dda",
          "getMyData()": "d9c8a38b",
          "isAdmin()": "b6db75a0",
          "isRegistered()": "22366844",
          "redeemCard(string)": "27e26c8c",
          "registration(string,uint8)": "8f0e582f",
          "withdrawBalance()": "5fd8c710"
        }
      },
      "storageLayout": {
        "storage": [
          {
            "astId": 36,
            "contract": "contracts/GiftCardETH.sol:GiftCardETH",
            "label": "users",
            "offset": 0,
            "slot": "0",
            "type": "t_mapping(t_address,t_struct(User)19_storage)"
          },
          {
            "astId": 41,
            "contract": "contracts/GiftCardETH.sol:GiftCardETH",
            "label": "giftCards",
            "offset": 0,
            "slot": "1",
            "type": "t_mapping(t_string_memory_ptr,t_struct(GiftCard)31_storage)"
          },
          {
            "astId": 43,
            "contract": "contracts/GiftCardETH.sol:GiftCardETH",
            "label": "locked",
            "offset": 0,
            "slot": "2",
            "type": "t_bool"
          },
          {
            "astId": 46,
            "contract": "contracts/GiftCardETH.sol:GiftCardETH",
            "label": "giftCardCodes",
            "offset": 0,
            "slot": "3",
            "type": "t_array(t_string_storage)dyn_storage"
          },
          {
            "astId": 49,
            "contract": "contracts/GiftCardETH.sol:GiftCardETH",
            "label": "userAddresses",
            "offset": 0,
            "slot": "4",
            "type": "t_array(t_address)dyn_storage"
          },
          {
            "astId": 52,
            "contract": "contracts/GiftCardETH.sol:GiftCardETH",
            "label": "balance",
            "offset": 0,
            "slot": "5",
            "type": "t_uint256"
          }
        ],
        "types": {
          "t_address": {
            "encoding": "inplace",
            "label": "address",
            "numberOfBytes": "20"
          },
          "t_array(t_address)dyn_storage": {
            "base": "t_address",
            "encoding": "dynamic_array",
            "label": "address[]",
            "numberOfBytes": "32"
          },
          "t_array(t_string_storage)dyn_storage": {
            "base": "t_string_storage",
            "encoding": "dynamic_array",
            "label": "string[]",
            "numberOfBytes": "32"
          },
          "t_bool": {
            "encoding": "inplace",
            "label": "bool",
            "numberOfBytes": "1"
          },
          "t_enum(Gender)10": {
            "encoding": "inplace",
            "label": "enum Gender",
            "numberOfBytes": "1"
          },
          "t_enum(GiftCardStatus)7": {
            "encoding": "inplace",
            "label": "enum GiftCardStatus",
            "numberOfBytes": "1"
          },
          "t_enum(UserType)4": {
            "encoding": "inplace",
            "label": "enum UserType",
            "numberOfBytes": "1"
          },
          "t_mapping(t_address,t_struct(User)19_storage)": {
            "encoding": "mapping",
            "key": "t_address",
            "label": "mapping(address => struct User)",
            "numberOfBytes": "32",
            "value": "t_struct(User)19_storage"
          },
          "t_mapping(t_string_memory_ptr,t_struct(GiftCard)31_storage)": {
            "encoding": "mapping",
            "key": "t_string_memory_ptr",
            "label": "mapping(string => struct GiftCard)",
            "numberOfBytes": "32",
            "value": "t_struct(GiftCard)31_storage"
          },
          "t_string_memory_ptr": {
            "encoding": "bytes",
            "label": "string",
            "numberOfBytes": "32"
          },
          "t_string_storage": {
            "encoding": "bytes",
            "label": "string",
            "numberOfBytes": "32"
          },
          "t_struct(GiftCard)31_storage": {
            "encoding": "inplace",
            "label": "struct GiftCard",
            "members": [
              {
                "astId": 21,
                "contract": "contracts/GiftCardETH.sol:GiftCardETH",
                "label": "code",
                "offset": 0,
                "slot": "0",
                "type": "t_string_storage"
              },
              {
                "astId": 23,
                "contract": "contracts/GiftCardETH.sol:GiftCardETH",
                "label": "buyer",
                "offset": 0,
                "slot": "1",
                "type": "t_string_storage"
              },
              {
                "astId": 25,
                "contract": "contracts/GiftCardETH.sol:GiftCardETH",
                "label": "amount",
                "offset": 0,
                "slot": "2",
                "type": "t_uint256"
              },
              {
                "astId": 28,
                "contract": "contracts/GiftCardETH.sol:GiftCardETH",
                "label": "giftCardStatus",
                "offset": 0,
                "slot": "3",
                "type": "t_enum(GiftCardStatus)7"
              },
              {
                "astId": 30,
                "contract": "contracts/GiftCardETH.sol:GiftCardETH",
                "label": "getter",
                "offset": 0,
                "slot": "4",
                "type": "t_string_storage"
              }
            ],
            "numberOfBytes": "160"
          },
          "t_struct(User)19_storage": {
            "encoding": "inplace",
            "label": "struct User",
            "members": [
              {
                "astId": 12,
                "contract": "contracts/GiftCardETH.sol:GiftCardETH",
                "label": "name",
                "offset": 0,
                "slot": "0",
                "type": "t_string_storage"
              },
              {
                "astId": 15,
                "contract": "contracts/GiftCardETH.sol:GiftCardETH",
                "label": "gender",
                "offset": 0,
                "slot": "1",
                "type": "t_enum(Gender)10"
              },
              {
                "astId": 18,
                "contract": "contracts/GiftCardETH.sol:GiftCardETH",
                "label": "userType",
                "offset": 1,
                "slot": "1",
                "type": "t_enum(UserType)4"
              }
            ],
            "numberOfBytes": "64"
          },
          "t_uint256": {
            "encoding": "inplace",
            "label": "uint256",
            "numberOfBytes": "32"
          }
        }
      },
      "userdoc": {
        "kind": "user",
        "methods": {},
        "version": 1
      }
    }
  }
}